{
	"Staking.sol": {
		"AutoStaking": {
			"abi": [
				{
					"inputs": [
						{
							"internalType": "address",
							"name": "_stakingTokenAddress",
							"type": "address"
						},
						{
							"internalType": "address",
							"name": "_rewardTokenAddress",
							"type": "address"
						},
						{
							"internalType": "address",
							"name": "_feeReceiver",
							"type": "address"
						}
					],
					"stateMutability": "nonpayable",
					"type": "constructor"
				},
				{
					"inputs": [
						{
							"internalType": "address",
							"name": "owner",
							"type": "address"
						}
					],
					"name": "OwnableInvalidOwner",
					"type": "error"
				},
				{
					"inputs": [
						{
							"internalType": "address",
							"name": "account",
							"type": "address"
						}
					],
					"name": "OwnableUnauthorizedAccount",
					"type": "error"
				},
				{
					"inputs": [
						{
							"internalType": "address",
							"name": "token",
							"type": "address"
						}
					],
					"name": "SafeERC20FailedOperation",
					"type": "error"
				},
				{
					"anonymous": false,
					"inputs": [
						{
							"indexed": false,
							"internalType": "uint256",
							"name": "periodIndex",
							"type": "uint256"
						},
						{
							"indexed": false,
							"internalType": "uint256",
							"name": "newAPY",
							"type": "uint256"
						}
					],
					"name": "APYUpdated",
					"type": "event"
				},
				{
					"anonymous": false,
					"inputs": [
						{
							"indexed": true,
							"internalType": "address",
							"name": "user",
							"type": "address"
						},
						{
							"indexed": false,
							"internalType": "uint256",
							"name": "stakeIndex",
							"type": "uint256"
						},
						{
							"indexed": false,
							"internalType": "uint256",
							"name": "compoundedAmount",
							"type": "uint256"
						}
					],
					"name": "AutoCompounded",
					"type": "event"
				},
				{
					"anonymous": false,
					"inputs": [
						{
							"indexed": true,
							"internalType": "address",
							"name": "user",
							"type": "address"
						},
						{
							"indexed": false,
							"internalType": "uint256",
							"name": "stakeIndex",
							"type": "uint256"
						},
						{
							"indexed": false,
							"internalType": "bool",
							"name": "status",
							"type": "bool"
						}
					],
					"name": "AutoStakeToggled",
					"type": "event"
				},
				{
					"anonymous": false,
					"inputs": [
						{
							"indexed": true,
							"internalType": "address",
							"name": "user",
							"type": "address"
						},
						{
							"indexed": false,
							"internalType": "uint256",
							"name": "amount",
							"type": "uint256"
						},
						{
							"indexed": false,
							"internalType": "uint256",
							"name": "stakeIndex",
							"type": "uint256"
						}
					],
					"name": "Claimed",
					"type": "event"
				},
				{
					"anonymous": false,
					"inputs": [
						{
							"indexed": true,
							"internalType": "bool",
							"name": "isPaused",
							"type": "bool"
						}
					],
					"name": "ContractPaused",
					"type": "event"
				},
				{
					"anonymous": false,
					"inputs": [
						{
							"indexed": true,
							"internalType": "address",
							"name": "newFeeReceiver",
							"type": "address"
						}
					],
					"name": "FeeReceiverUpdated",
					"type": "event"
				},
				{
					"anonymous": false,
					"inputs": [
						{
							"indexed": true,
							"internalType": "address",
							"name": "previousOwner",
							"type": "address"
						},
						{
							"indexed": true,
							"internalType": "address",
							"name": "newOwner",
							"type": "address"
						}
					],
					"name": "OwnershipTransferred",
					"type": "event"
				},
				{
					"anonymous": false,
					"inputs": [
						{
							"indexed": true,
							"internalType": "address",
							"name": "sender",
							"type": "address"
						},
						{
							"indexed": false,
							"internalType": "uint256",
							"name": "amount",
							"type": "uint256"
						}
					],
					"name": "RewardPoolFundsAdded",
					"type": "event"
				},
				{
					"anonymous": false,
					"inputs": [
						{
							"indexed": true,
							"internalType": "address",
							"name": "newRewardToken",
							"type": "address"
						}
					],
					"name": "RewardTokenUpdated",
					"type": "event"
				},
				{
					"anonymous": false,
					"inputs": [
						{
							"indexed": true,
							"internalType": "address",
							"name": "user",
							"type": "address"
						},
						{
							"indexed": false,
							"internalType": "uint256",
							"name": "amount",
							"type": "uint256"
						},
						{
							"indexed": false,
							"internalType": "uint256",
							"name": "periodIndex",
							"type": "uint256"
						},
						{
							"indexed": false,
							"internalType": "bool",
							"name": "autoStake",
							"type": "bool"
						}
					],
					"name": "Staked",
					"type": "event"
				},
				{
					"anonymous": false,
					"inputs": [
						{
							"indexed": true,
							"internalType": "address",
							"name": "account",
							"type": "address"
						},
						{
							"indexed": false,
							"internalType": "uint256",
							"name": "amount",
							"type": "uint256"
						}
					],
					"name": "WithdrawnRewards",
					"type": "event"
				},
				{
					"inputs": [],
					"name": "AUTO_COMPOUND_FEE",
					"outputs": [
						{
							"internalType": "uint256",
							"name": "",
							"type": "uint256"
						}
					],
					"stateMutability": "view",
					"type": "function"
				},
				{
					"inputs": [],
					"name": "MAX_APY",
					"outputs": [
						{
							"internalType": "uint256",
							"name": "",
							"type": "uint256"
						}
					],
					"stateMutability": "view",
					"type": "function"
				},
				{
					"inputs": [],
					"name": "SECONDS_PER_YEAR",
					"outputs": [
						{
							"internalType": "uint256",
							"name": "",
							"type": "uint256"
						}
					],
					"stateMutability": "view",
					"type": "function"
				},
				{
					"inputs": [
						{
							"internalType": "uint256",
							"name": "amount",
							"type": "uint256"
						}
					],
					"name": "addRewardPoolFunds",
					"outputs": [],
					"stateMutability": "nonpayable",
					"type": "function"
				},
				{
					"inputs": [
						{
							"internalType": "uint256",
							"name": "",
							"type": "uint256"
						}
					],
					"name": "apyRates",
					"outputs": [
						{
							"internalType": "uint256",
							"name": "",
							"type": "uint256"
						}
					],
					"stateMutability": "view",
					"type": "function"
				},
				{
					"inputs": [
						{
							"internalType": "address",
							"name": "account",
							"type": "address"
						},
						{
							"internalType": "uint256",
							"name": "stakeIndex",
							"type": "uint256"
						}
					],
					"name": "calculateReward",
					"outputs": [
						{
							"internalType": "uint256",
							"name": "",
							"type": "uint256"
						}
					],
					"stateMutability": "view",
					"type": "function"
				},
				{
					"inputs": [
						{
							"internalType": "uint256",
							"name": "stakeIndex",
							"type": "uint256"
						}
					],
					"name": "claimReward",
					"outputs": [],
					"stateMutability": "nonpayable",
					"type": "function"
				},
				{
					"inputs": [
						{
							"internalType": "uint256",
							"name": "stakeIndex",
							"type": "uint256"
						}
					],
					"name": "compoundReward",
					"outputs": [],
					"stateMutability": "nonpayable",
					"type": "function"
				},
				{
					"inputs": [],
					"name": "estimateMintGas",
					"outputs": [
						{
							"internalType": "uint256",
							"name": "",
							"type": "uint256"
						}
					],
					"stateMutability": "pure",
					"type": "function"
				},
				{
					"inputs": [],
					"name": "feeReceiver",
					"outputs": [
						{
							"internalType": "address",
							"name": "",
							"type": "address"
						}
					],
					"stateMutability": "view",
					"type": "function"
				},
				{
					"inputs": [
						{
							"internalType": "address",
							"name": "user",
							"type": "address"
						}
					],
					"name": "getActiveStakes",
					"outputs": [
						{
							"components": [
								{
									"internalType": "uint256",
									"name": "amount",
									"type": "uint256"
								},
								{
									"internalType": "uint256",
									"name": "stakeTime",
									"type": "uint256"
								},
								{
									"internalType": "uint256",
									"name": "unlockTime",
									"type": "uint256"
								},
								{
									"internalType": "bool",
									"name": "claimed",
									"type": "bool"
								},
								{
									"internalType": "bool",
									"name": "autoStaking",
									"type": "bool"
								},
								{
									"internalType": "uint256",
									"name": "compoundedAmount",
									"type": "uint256"
								}
							],
							"internalType": "struct AutoStaking.StakeInfo[]",
							"name": "",
							"type": "tuple[]"
						}
					],
					"stateMutability": "view",
					"type": "function"
				},
				{
					"inputs": [],
					"name": "getFeeReceiver",
					"outputs": [
						{
							"internalType": "address",
							"name": "",
							"type": "address"
						}
					],
					"stateMutability": "view",
					"type": "function"
				},
				{
					"inputs": [
						{
							"internalType": "uint256",
							"name": "index",
							"type": "uint256"
						}
					],
					"name": "getLockPeriod",
					"outputs": [
						{
							"internalType": "uint256",
							"name": "",
							"type": "uint256"
						}
					],
					"stateMutability": "view",
					"type": "function"
				},
				{
					"inputs": [],
					"name": "getRewardPoolBalance",
					"outputs": [
						{
							"internalType": "uint256",
							"name": "",
							"type": "uint256"
						}
					],
					"stateMutability": "view",
					"type": "function"
				},
				{
					"inputs": [
						{
							"internalType": "uint256",
							"name": "",
							"type": "uint256"
						}
					],
					"name": "lockPeriods",
					"outputs": [
						{
							"internalType": "uint256",
							"name": "",
							"type": "uint256"
						}
					],
					"stateMutability": "view",
					"type": "function"
				},
				{
					"inputs": [],
					"name": "owner",
					"outputs": [
						{
							"internalType": "address",
							"name": "",
							"type": "address"
						}
					],
					"stateMutability": "view",
					"type": "function"
				},
				{
					"inputs": [],
					"name": "paused",
					"outputs": [
						{
							"internalType": "bool",
							"name": "",
							"type": "bool"
						}
					],
					"stateMutability": "view",
					"type": "function"
				},
				{
					"inputs": [
						{
							"internalType": "address",
							"name": "",
							"type": "address"
						}
					],
					"name": "pendingRewardWithdrawals",
					"outputs": [
						{
							"internalType": "uint256",
							"name": "",
							"type": "uint256"
						}
					],
					"stateMutability": "view",
					"type": "function"
				},
				{
					"inputs": [],
					"name": "renounceOwnership",
					"outputs": [],
					"stateMutability": "nonpayable",
					"type": "function"
				},
				{
					"inputs": [],
					"name": "rewardPoolBalance",
					"outputs": [
						{
							"internalType": "uint256",
							"name": "",
							"type": "uint256"
						}
					],
					"stateMutability": "view",
					"type": "function"
				},
				{
					"inputs": [],
					"name": "rewardToken",
					"outputs": [
						{
							"internalType": "contract IERC20",
							"name": "",
							"type": "address"
						}
					],
					"stateMutability": "view",
					"type": "function"
				},
				{
					"inputs": [
						{
							"internalType": "uint256",
							"name": "periodIndex",
							"type": "uint256"
						},
						{
							"internalType": "uint256",
							"name": "newAPY",
							"type": "uint256"
						}
					],
					"name": "setAPY",
					"outputs": [],
					"stateMutability": "nonpayable",
					"type": "function"
				},
				{
					"inputs": [
						{
							"internalType": "uint256",
							"name": "amount",
							"type": "uint256"
						},
						{
							"internalType": "uint256",
							"name": "periodIndex",
							"type": "uint256"
						},
						{
							"internalType": "bool",
							"name": "autoStake",
							"type": "bool"
						}
					],
					"name": "stake",
					"outputs": [],
					"stateMutability": "nonpayable",
					"type": "function"
				},
				{
					"inputs": [
						{
							"internalType": "address",
							"name": "",
							"type": "address"
						},
						{
							"internalType": "uint256",
							"name": "",
							"type": "uint256"
						}
					],
					"name": "stakes",
					"outputs": [
						{
							"internalType": "uint256",
							"name": "amount",
							"type": "uint256"
						},
						{
							"internalType": "uint256",
							"name": "stakeTime",
							"type": "uint256"
						},
						{
							"internalType": "uint256",
							"name": "unlockTime",
							"type": "uint256"
						},
						{
							"internalType": "bool",
							"name": "claimed",
							"type": "bool"
						},
						{
							"internalType": "bool",
							"name": "autoStaking",
							"type": "bool"
						},
						{
							"internalType": "uint256",
							"name": "compoundedAmount",
							"type": "uint256"
						}
					],
					"stateMutability": "view",
					"type": "function"
				},
				{
					"inputs": [],
					"name": "stakingToken",
					"outputs": [
						{
							"internalType": "contract IERC20",
							"name": "",
							"type": "address"
						}
					],
					"stateMutability": "view",
					"type": "function"
				},
				{
					"inputs": [
						{
							"internalType": "uint256",
							"name": "stakeIndex",
							"type": "uint256"
						}
					],
					"name": "toggleAutoStake",
					"outputs": [],
					"stateMutability": "nonpayable",
					"type": "function"
				},
				{
					"inputs": [],
					"name": "togglePause",
					"outputs": [],
					"stateMutability": "nonpayable",
					"type": "function"
				},
				{
					"inputs": [],
					"name": "totalStaked",
					"outputs": [
						{
							"internalType": "uint256",
							"name": "",
							"type": "uint256"
						}
					],
					"stateMutability": "view",
					"type": "function"
				},
				{
					"inputs": [
						{
							"internalType": "address",
							"name": "newOwner",
							"type": "address"
						}
					],
					"name": "transferOwnership",
					"outputs": [],
					"stateMutability": "nonpayable",
					"type": "function"
				},
				{
					"inputs": [
						{
							"internalType": "address",
							"name": "newFeeReceiver",
							"type": "address"
						}
					],
					"name": "updateFeeReceiver",
					"outputs": [],
					"stateMutability": "nonpayable",
					"type": "function"
				},
				{
					"inputs": [
						{
							"internalType": "address",
							"name": "newRewardToken",
							"type": "address"
						}
					],
					"name": "updateRewardToken",
					"outputs": [],
					"stateMutability": "nonpayable",
					"type": "function"
				},
				{
					"inputs": [],
					"name": "withdrawRewards",
					"outputs": [],
					"stateMutability": "nonpayable",
					"type": "function"
				}
			],
			"devdoc": {
				"details": "Contract for staking tokens with fixed lock periods and auto-compounding rewards.",
				"errors": {
					"OwnableInvalidOwner(address)": [
						{
							"details": "The owner is not a valid owner account. (eg. `address(0)`)"
						}
					],
					"OwnableUnauthorizedAccount(address)": [
						{
							"details": "The caller account is not authorized to perform an operation."
						}
					],
					"SafeERC20FailedOperation(address)": [
						{
							"details": "An operation with an ERC-20 token failed."
						}
					]
				},
				"kind": "dev",
				"methods": {
					"owner()": {
						"details": "Returns the address of the current owner."
					},
					"renounceOwnership()": {
						"details": "Leaves the contract without owner. It will not be possible to call `onlyOwner` functions. Can only be called by the current owner. NOTE: Renouncing ownership will leave the contract without an owner, thereby disabling any functionality that is only available to the owner."
					},
					"transferOwnership(address)": {
						"details": "Transfers ownership of the contract to a new account (`newOwner`). Can only be called by the current owner."
					}
				},
				"title": "AutoStaking",
				"version": 1
			},
			"evm": {
				"assembly": "    /* \"Staking.sol\":418:10462  contract AutoStaking is Ownable, ReentrancyGuard {... */\n  mstore(0x40, 0xa0)\n    /* \"Staking.sol\":817:876  uint256[3] public lockPeriods = [30 days, 60 days, 90 days] */\n  mload(0x40)\n  dup1\n  0x60\n  add\n  0x40\n  mstore\n  dup1\n    /* \"Staking.sol\":850:857  30 days */\n  0x278d00\n    /* \"Staking.sol\":817:876  uint256[3] public lockPeriods = [30 days, 60 days, 90 days] */\n  0xffffff\n  and\n  dup2\n  mstore\n  0x20\n  add\n    /* \"Staking.sol\":859:866  60 days */\n  0x4f1a00\n    /* \"Staking.sol\":817:876  uint256[3] public lockPeriods = [30 days, 60 days, 90 days] */\n  0xffffff\n  and\n  dup2\n  mstore\n  0x20\n  add\n    /* \"Staking.sol\":868:875  90 days */\n  0x76a700\n    /* \"Staking.sol\":817:876  uint256[3] public lockPeriods = [30 days, 60 days, 90 days] */\n  0xffffff\n  and\n  dup2\n  mstore\n  pop\n  0x03\n  swap1\n  0x03\n  tag_1\n  swap3\n  swap2\n  swap1\n  tag_2\n  jump\t// in\ntag_1:\n  pop\n    /* \"Staking.sol\":882:928  uint256[3] public apyRates = [500, 1000, 1500] */\n  mload(0x40)\n  dup1\n  0x60\n  add\n  0x40\n  mstore\n  dup1\n    /* \"Staking.sol\":912:915  500 */\n  0x01f4\n    /* \"Staking.sol\":882:928  uint256[3] public apyRates = [500, 1000, 1500] */\n  0xffff\n  and\n  dup2\n  mstore\n  0x20\n  add\n    /* \"Staking.sol\":917:921  1000 */\n  0x03e8\n    /* \"Staking.sol\":882:928  uint256[3] public apyRates = [500, 1000, 1500] */\n  0xffff\n  and\n  dup2\n  mstore\n  0x20\n  add\n    /* \"Staking.sol\":923:927  1500 */\n  0x05dc\n    /* \"Staking.sol\":882:928  uint256[3] public apyRates = [500, 1000, 1500] */\n  0xffff\n  and\n  dup2\n  mstore\n  pop\n  0x06\n  swap1\n  0x03\n  tag_3\n  swap3\n  swap2\n  swap1\n  tag_4\n  jump\t// in\ntag_3:\n  pop\n    /* \"Staking.sol\":2423:2955  constructor(... */\n  callvalue\n  dup1\n  iszero\n  tag_5\n  jumpi\n  revert(0x00, 0x00)\ntag_5:\n  pop\n  mload(0x40)\n  sub(codesize, bytecodeSize)\n  dup1\n  bytecodeSize\n  dup4\n  codecopy\n  dup2\n  dup2\n  add\n  0x40\n  mstore\n  dup2\n  add\n  swap1\n  tag_6\n  swap2\n  swap1\n  tag_7\n  jump\t// in\ntag_6:\n    /* \"Staking.sol\":2554:2564  msg.sender */\n  caller\n    /* \"@openzeppelin/contracts/access/Ownable.sol\":1297:1298  0 */\n  0x00\n    /* \"@openzeppelin/contracts/access/Ownable.sol\":1273:1299  initialOwner == address(0) */\n  0xffffffffffffffffffffffffffffffffffffffff\n  and\n    /* \"@openzeppelin/contracts/access/Ownable.sol\":1273:1285  initialOwner */\n  dup2\n    /* \"@openzeppelin/contracts/access/Ownable.sol\":1273:1299  initialOwner == address(0) */\n  0xffffffffffffffffffffffffffffffffffffffff\n  and\n  sub\n    /* \"@openzeppelin/contracts/access/Ownable.sol\":1269:1364  if (initialOwner == address(0)) {... */\n  tag_12\n  jumpi\n    /* \"@openzeppelin/contracts/access/Ownable.sol\":1350:1351  0 */\n  0x00\n    /* \"@openzeppelin/contracts/access/Ownable.sol\":1322:1353  OwnableInvalidOwner(address(0)) */\n  mload(0x40)\n  0x1e4fbdf700000000000000000000000000000000000000000000000000000000\n  dup2\n  mstore\n  0x04\n  add\n  tag_13\n  swap2\n  swap1\n  tag_14\n  jump\t// in\ntag_13:\n  mload(0x40)\n  dup1\n  swap2\n  sub\n  swap1\n  revert\n    /* \"@openzeppelin/contracts/access/Ownable.sol\":1269:1364  if (initialOwner == address(0)) {... */\ntag_12:\n    /* \"@openzeppelin/contracts/access/Ownable.sol\":1373:1405  _transferOwnership(initialOwner) */\n  tag_15\n    /* \"@openzeppelin/contracts/access/Ownable.sol\":1392:1404  initialOwner */\n  dup2\n    /* \"@openzeppelin/contracts/access/Ownable.sol\":1373:1391  _transferOwnership */\n  shl(0x20, tag_16)\n    /* \"@openzeppelin/contracts/access/Ownable.sol\":1373:1405  _transferOwnership(initialOwner) */\n  0x20\n  shr\n  jump\t// in\ntag_15:\n    /* \"@openzeppelin/contracts/access/Ownable.sol\":1225:1412  constructor(address initialOwner) {... */\n  pop\n    /* \"@openzeppelin/contracts/security/ReentrancyGuard.sol\":1716:1717  1 */\n  0x01\n    /* \"@openzeppelin/contracts/security/ReentrancyGuard.sol\":1821:1828  _status */\n  dup1\n    /* \"@openzeppelin/contracts/security/ReentrancyGuard.sol\":1821:1843  _status = _NOT_ENTERED */\n  dup2\n  swap1\n  sstore\n  pop\n    /* \"Staking.sol\":2634:2635  0 */\n  0x00\n    /* \"Staking.sol\":2602:2636  _stakingTokenAddress != address(0) */\n  0xffffffffffffffffffffffffffffffffffffffff\n  and\n    /* \"Staking.sol\":2602:2622  _stakingTokenAddress */\n  dup4\n    /* \"Staking.sol\":2602:2636  _stakingTokenAddress != address(0) */\n  0xffffffffffffffffffffffffffffffffffffffff\n  and\n  sub\n    /* \"Staking.sol\":2594:2662  require(_stakingTokenAddress != address(0), \"Invalid staking token\") */\n  tag_19\n  jumpi\n  mload(0x40)\n  0x08c379a000000000000000000000000000000000000000000000000000000000\n  dup2\n  mstore\n  0x04\n  add\n  tag_20\n  swap1\n  tag_21\n  jump\t// in\ntag_20:\n  mload(0x40)\n  dup1\n  swap2\n  sub\n  swap1\n  revert\ntag_19:\n    /* \"Staking.sol\":2711:2712  0 */\n  0x00\n    /* \"Staking.sol\":2680:2713  _rewardTokenAddress != address(0) */\n  0xffffffffffffffffffffffffffffffffffffffff\n  and\n    /* \"Staking.sol\":2680:2699  _rewardTokenAddress */\n  dup3\n    /* \"Staking.sol\":2680:2713  _rewardTokenAddress != address(0) */\n  0xffffffffffffffffffffffffffffffffffffffff\n  and\n  sub\n    /* \"Staking.sol\":2672:2738  require(_rewardTokenAddress != address(0), \"Invalid reward token\") */\n  tag_22\n  jumpi\n  mload(0x40)\n  0x08c379a000000000000000000000000000000000000000000000000000000000\n  dup2\n  mstore\n  0x04\n  add\n  tag_23\n  swap1\n  tag_24\n  jump\t// in\ntag_23:\n  mload(0x40)\n  dup1\n  swap2\n  sub\n  swap1\n  revert\ntag_22:\n    /* \"Staking.sol\":2780:2781  0 */\n  0x00\n    /* \"Staking.sol\":2756:2782  _feeReceiver != address(0) */\n  0xffffffffffffffffffffffffffffffffffffffff\n  and\n    /* \"Staking.sol\":2756:2768  _feeReceiver */\n  dup2\n    /* \"Staking.sol\":2756:2782  _feeReceiver != address(0) */\n  0xffffffffffffffffffffffffffffffffffffffff\n  and\n  sub\n    /* \"Staking.sol\":2748:2807  require(_feeReceiver != address(0), \"Invalid fee receiver\") */\n  tag_25\n  jumpi\n  mload(0x40)\n  0x08c379a000000000000000000000000000000000000000000000000000000000\n  dup2\n  mstore\n  0x04\n  add\n  tag_26\n  swap1\n  tag_27\n  jump\t// in\ntag_26:\n  mload(0x40)\n  dup1\n  swap2\n  sub\n  swap1\n  revert\ntag_25:\n    /* \"Staking.sol\":2840:2860  _stakingTokenAddress */\n  dup3\n    /* \"Staking.sol\":2818:2861  stakingToken = IERC20(_stakingTokenAddress) */\n  0xffffffffffffffffffffffffffffffffffffffff\n  and\n  0x80\n  dup2\n  0xffffffffffffffffffffffffffffffffffffffff\n  and\n  dup2\n  mstore\n  pop\n  pop\n    /* \"Staking.sol\":2892:2911  _rewardTokenAddress */\n  dup2\n    /* \"Staking.sol\":2871:2882  rewardToken */\n  0x02\n  0x00\n    /* \"Staking.sol\":2871:2912  rewardToken = IERC20(_rewardTokenAddress) */\n  0x0100\n  exp\n  dup2\n  sload\n  dup2\n  0xffffffffffffffffffffffffffffffffffffffff\n  mul\n  not\n  and\n  swap1\n  dup4\n  0xffffffffffffffffffffffffffffffffffffffff\n  and\n  mul\n  or\n  swap1\n  sstore\n  pop\n    /* \"Staking.sol\":2936:2948  _feeReceiver */\n  dup1\n    /* \"Staking.sol\":2922:2933  feeReceiver */\n  0x0d\n  0x00\n    /* \"Staking.sol\":2922:2948  feeReceiver = _feeReceiver */\n  0x0100\n  exp\n  dup2\n  sload\n  dup2\n  0xffffffffffffffffffffffffffffffffffffffff\n  mul\n  not\n  and\n  swap1\n  dup4\n  0xffffffffffffffffffffffffffffffffffffffff\n  and\n  mul\n  or\n  swap1\n  sstore\n  pop\n    /* \"Staking.sol\":2423:2955  constructor(... */\n  pop\n  pop\n  pop\n    /* \"Staking.sol\":418:10462  contract AutoStaking is Ownable, ReentrancyGuard {... */\n  jump(tag_28)\n    /* \"@openzeppelin/contracts/access/Ownable.sol\":2912:3099  function _transferOwnership(address newOwner) internal virtual {... */\ntag_16:\n    /* \"@openzeppelin/contracts/access/Ownable.sol\":2985:3001  address oldOwner */\n  0x00\n    /* \"@openzeppelin/contracts/access/Ownable.sol\":3004:3010  _owner */\n  0x00\n  0x00\n  swap1\n  sload\n  swap1\n  0x0100\n  exp\n  swap1\n  div\n  0xffffffffffffffffffffffffffffffffffffffff\n  and\n    /* \"@openzeppelin/contracts/access/Ownable.sol\":2985:3010  address oldOwner = _owner */\n  swap1\n  pop\n    /* \"@openzeppelin/contracts/access/Ownable.sol\":3029:3037  newOwner */\n  dup2\n    /* \"@openzeppelin/contracts/access/Ownable.sol\":3020:3026  _owner */\n  0x00\n  0x00\n    /* \"@openzeppelin/contracts/access/Ownable.sol\":3020:3037  _owner = newOwner */\n  0x0100\n  exp\n  dup2\n  sload\n  dup2\n  0xffffffffffffffffffffffffffffffffffffffff\n  mul\n  not\n  and\n  swap1\n  dup4\n  0xffffffffffffffffffffffffffffffffffffffff\n  and\n  mul\n  or\n  swap1\n  sstore\n  pop\n    /* \"@openzeppelin/contracts/access/Ownable.sol\":3083:3091  newOwner */\n  dup2\n    /* \"@openzeppelin/contracts/access/Ownable.sol\":3052:3092  OwnershipTransferred(oldOwner, newOwner) */\n  0xffffffffffffffffffffffffffffffffffffffff\n  and\n    /* \"@openzeppelin/contracts/access/Ownable.sol\":3073:3081  oldOwner */\n  dup2\n    /* \"@openzeppelin/contracts/access/Ownable.sol\":3052:3092  OwnershipTransferred(oldOwner, newOwner) */\n  0xffffffffffffffffffffffffffffffffffffffff\n  and\n  0x8be0079c531659141344cd1fd0a4f28419497f9722a3daafe3b4186f6b6457e0\n  mload(0x40)\n  mload(0x40)\n  dup1\n  swap2\n  sub\n  swap1\n  log3\n    /* \"@openzeppelin/contracts/access/Ownable.sol\":2975:3099  {... */\n  pop\n    /* \"@openzeppelin/contracts/access/Ownable.sol\":2912:3099  function _transferOwnership(address newOwner) internal virtual {... */\n  pop\n  jump\t// out\n    /* \"Staking.sol\":418:10462  contract AutoStaking is Ownable, ReentrancyGuard {... */\ntag_2:\n  dup3\n  0x03\n  dup2\n  add\n  swap3\n  dup3\n  iszero\n  tag_30\n  jumpi\n  swap2\n  0x20\n  mul\n  dup3\n  add\ntag_31:\n  dup3\n  dup2\n  gt\n  iszero\n  tag_32\n  jumpi\n  dup3\n  mload\n  dup3\n  swap1\n  0xffffff\n  and\n  swap1\n  sstore\n  swap2\n  0x20\n  add\n  swap2\n  swap1\n  0x01\n  add\n  swap1\n  jump(tag_31)\ntag_32:\ntag_30:\n  pop\n  swap1\n  pop\n  tag_33\n  swap2\n  swap1\n  tag_34\n  jump\t// in\ntag_33:\n  pop\n  swap1\n  jump\t// out\ntag_4:\n  dup3\n  0x03\n  dup2\n  add\n  swap3\n  dup3\n  iszero\n  tag_35\n  jumpi\n  swap2\n  0x20\n  mul\n  dup3\n  add\ntag_36:\n  dup3\n  dup2\n  gt\n  iszero\n  tag_37\n  jumpi\n  dup3\n  mload\n  dup3\n  swap1\n  0xffff\n  and\n  swap1\n  sstore\n  swap2\n  0x20\n  add\n  swap2\n  swap1\n  0x01\n  add\n  swap1\n  jump(tag_36)\ntag_37:\ntag_35:\n  pop\n  swap1\n  pop\n  tag_38\n  swap2\n  swap1\n  tag_34\n  jump\t// in\ntag_38:\n  pop\n  swap1\n  jump\t// out\ntag_34:\ntag_39:\n  dup1\n  dup3\n  gt\n  iszero\n  tag_40\n  jumpi\n  0x00\n  dup2\n  0x00\n  swap1\n  sstore\n  pop\n  0x01\n  add\n  jump(tag_39)\ntag_40:\n  pop\n  swap1\n  jump\t// out\n    /* \"#utility.yul\":88:205   */\ntag_42:\n    /* \"#utility.yul\":197:198   */\n  0x00\n    /* \"#utility.yul\":194:195   */\n  0x00\n    /* \"#utility.yul\":187:199   */\n  revert\n    /* \"#utility.yul\":334:460   */\ntag_44:\n    /* \"#utility.yul\":371:378   */\n  0x00\n    /* \"#utility.yul\":411:453   */\n  0xffffffffffffffffffffffffffffffffffffffff\n    /* \"#utility.yul\":404:409   */\n  dup3\n    /* \"#utility.yul\":400:454   */\n  and\n    /* \"#utility.yul\":389:454   */\n  swap1\n  pop\n    /* \"#utility.yul\":334:460   */\n  swap2\n  swap1\n  pop\n  jump\t// out\n    /* \"#utility.yul\":466:562   */\ntag_45:\n    /* \"#utility.yul\":503:510   */\n  0x00\n    /* \"#utility.yul\":532:556   */\n  tag_62\n    /* \"#utility.yul\":550:555   */\n  dup3\n    /* \"#utility.yul\":532:556   */\n  tag_44\n  jump\t// in\ntag_62:\n    /* \"#utility.yul\":521:556   */\n  swap1\n  pop\n    /* \"#utility.yul\":466:562   */\n  swap2\n  swap1\n  pop\n  jump\t// out\n    /* \"#utility.yul\":568:690   */\ntag_46:\n    /* \"#utility.yul\":641:665   */\n  tag_64\n    /* \"#utility.yul\":659:664   */\n  dup2\n    /* \"#utility.yul\":641:665   */\n  tag_45\n  jump\t// in\ntag_64:\n    /* \"#utility.yul\":634:639   */\n  dup2\n    /* \"#utility.yul\":631:666   */\n  eq\n    /* \"#utility.yul\":621:684   */\n  tag_65\n  jumpi\n    /* \"#utility.yul\":680:681   */\n  0x00\n    /* \"#utility.yul\":677:678   */\n  0x00\n    /* \"#utility.yul\":670:682   */\n  revert\n    /* \"#utility.yul\":621:684   */\ntag_65:\n    /* \"#utility.yul\":568:690   */\n  pop\n  jump\t// out\n    /* \"#utility.yul\":696:839   */\ntag_47:\n    /* \"#utility.yul\":753:758   */\n  0x00\n    /* \"#utility.yul\":784:790   */\n  dup2\n    /* \"#utility.yul\":778:791   */\n  mload\n    /* \"#utility.yul\":769:791   */\n  swap1\n  pop\n    /* \"#utility.yul\":800:833   */\n  tag_67\n    /* \"#utility.yul\":827:832   */\n  dup2\n    /* \"#utility.yul\":800:833   */\n  tag_46\n  jump\t// in\ntag_67:\n    /* \"#utility.yul\":696:839   */\n  swap3\n  swap2\n  pop\n  pop\n  jump\t// out\n    /* \"#utility.yul\":845:1508   */\ntag_7:\n    /* \"#utility.yul\":933:939   */\n  0x00\n    /* \"#utility.yul\":941:947   */\n  0x00\n    /* \"#utility.yul\":949:955   */\n  0x00\n    /* \"#utility.yul\":998:1000   */\n  0x60\n    /* \"#utility.yul\":986:995   */\n  dup5\n    /* \"#utility.yul\":977:984   */\n  dup7\n    /* \"#utility.yul\":973:996   */\n  sub\n    /* \"#utility.yul\":969:1001   */\n  slt\n    /* \"#utility.yul\":966:1085   */\n  iszero\n  tag_69\n  jumpi\n    /* \"#utility.yul\":1004:1083   */\n  tag_70\n  tag_42\n  jump\t// in\ntag_70:\n    /* \"#utility.yul\":966:1085   */\ntag_69:\n    /* \"#utility.yul\":1124:1125   */\n  0x00\n    /* \"#utility.yul\":1149:1213   */\n  tag_71\n    /* \"#utility.yul\":1205:1212   */\n  dup7\n    /* \"#utility.yul\":1196:1202   */\n  dup3\n    /* \"#utility.yul\":1185:1194   */\n  dup8\n    /* \"#utility.yul\":1181:1203   */\n  add\n    /* \"#utility.yul\":1149:1213   */\n  tag_47\n  jump\t// in\ntag_71:\n    /* \"#utility.yul\":1139:1213   */\n  swap4\n  pop\n    /* \"#utility.yul\":1095:1223   */\n  pop\n    /* \"#utility.yul\":1262:1264   */\n  0x20\n    /* \"#utility.yul\":1288:1352   */\n  tag_72\n    /* \"#utility.yul\":1344:1351   */\n  dup7\n    /* \"#utility.yul\":1335:1341   */\n  dup3\n    /* \"#utility.yul\":1324:1333   */\n  dup8\n    /* \"#utility.yul\":1320:1342   */\n  add\n    /* \"#utility.yul\":1288:1352   */\n  tag_47\n  jump\t// in\ntag_72:\n    /* \"#utility.yul\":1278:1352   */\n  swap3\n  pop\n    /* \"#utility.yul\":1233:1362   */\n  pop\n    /* \"#utility.yul\":1401:1403   */\n  0x40\n    /* \"#utility.yul\":1427:1491   */\n  tag_73\n    /* \"#utility.yul\":1483:1490   */\n  dup7\n    /* \"#utility.yul\":1474:1480   */\n  dup3\n    /* \"#utility.yul\":1463:1472   */\n  dup8\n    /* \"#utility.yul\":1459:1481   */\n  add\n    /* \"#utility.yul\":1427:1491   */\n  tag_47\n  jump\t// in\ntag_73:\n    /* \"#utility.yul\":1417:1491   */\n  swap2\n  pop\n    /* \"#utility.yul\":1372:1501   */\n  pop\n    /* \"#utility.yul\":845:1508   */\n  swap3\n  pop\n  swap3\n  pop\n  swap3\n  jump\t// out\n    /* \"#utility.yul\":1514:1632   */\ntag_48:\n    /* \"#utility.yul\":1601:1625   */\n  tag_75\n    /* \"#utility.yul\":1619:1624   */\n  dup2\n    /* \"#utility.yul\":1601:1625   */\n  tag_45\n  jump\t// in\ntag_75:\n    /* \"#utility.yul\":1596:1599   */\n  dup3\n    /* \"#utility.yul\":1589:1626   */\n  mstore\n    /* \"#utility.yul\":1514:1632   */\n  pop\n  pop\n  jump\t// out\n    /* \"#utility.yul\":1638:1860   */\ntag_14:\n    /* \"#utility.yul\":1731:1735   */\n  0x00\n    /* \"#utility.yul\":1769:1771   */\n  0x20\n    /* \"#utility.yul\":1758:1767   */\n  dup3\n    /* \"#utility.yul\":1754:1772   */\n  add\n    /* \"#utility.yul\":1746:1772   */\n  swap1\n  pop\n    /* \"#utility.yul\":1782:1853   */\n  tag_77\n    /* \"#utility.yul\":1850:1851   */\n  0x00\n    /* \"#utility.yul\":1839:1848   */\n  dup4\n    /* \"#utility.yul\":1835:1852   */\n  add\n    /* \"#utility.yul\":1826:1832   */\n  dup5\n    /* \"#utility.yul\":1782:1853   */\n  tag_48\n  jump\t// in\ntag_77:\n    /* \"#utility.yul\":1638:1860   */\n  swap3\n  swap2\n  pop\n  pop\n  jump\t// out\n    /* \"#utility.yul\":1866:2035   */\ntag_49:\n    /* \"#utility.yul\":1950:1961   */\n  0x00\n    /* \"#utility.yul\":1984:1990   */\n  dup3\n    /* \"#utility.yul\":1979:1982   */\n  dup3\n    /* \"#utility.yul\":1972:1991   */\n  mstore\n    /* \"#utility.yul\":2024:2028   */\n  0x20\n    /* \"#utility.yul\":2019:2022   */\n  dup3\n    /* \"#utility.yul\":2015:2029   */\n  add\n    /* \"#utility.yul\":2000:2029   */\n  swap1\n  pop\n    /* \"#utility.yul\":1866:2035   */\n  swap3\n  swap2\n  pop\n  pop\n  jump\t// out\n    /* \"#utility.yul\":2041:2212   */\ntag_50:\n    /* \"#utility.yul\":2181:2204   */\n  0x496e76616c6964207374616b696e6720746f6b656e0000000000000000000000\n    /* \"#utility.yul\":2177:2178   */\n  0x00\n    /* \"#utility.yul\":2169:2175   */\n  dup3\n    /* \"#utility.yul\":2165:2179   */\n  add\n    /* \"#utility.yul\":2158:2205   */\n  mstore\n    /* \"#utility.yul\":2041:2212   */\n  pop\n  jump\t// out\n    /* \"#utility.yul\":2218:2584   */\ntag_51:\n    /* \"#utility.yul\":2360:2363   */\n  0x00\n    /* \"#utility.yul\":2381:2448   */\n  tag_81\n    /* \"#utility.yul\":2445:2447   */\n  0x15\n    /* \"#utility.yul\":2440:2443   */\n  dup4\n    /* \"#utility.yul\":2381:2448   */\n  tag_49\n  jump\t// in\ntag_81:\n    /* \"#utility.yul\":2374:2448   */\n  swap2\n  pop\n    /* \"#utility.yul\":2457:2550   */\n  tag_82\n    /* \"#utility.yul\":2546:2549   */\n  dup3\n    /* \"#utility.yul\":2457:2550   */\n  tag_50\n  jump\t// in\ntag_82:\n    /* \"#utility.yul\":2575:2577   */\n  0x20\n    /* \"#utility.yul\":2570:2573   */\n  dup3\n    /* \"#utility.yul\":2566:2578   */\n  add\n    /* \"#utility.yul\":2559:2578   */\n  swap1\n  pop\n    /* \"#utility.yul\":2218:2584   */\n  swap2\n  swap1\n  pop\n  jump\t// out\n    /* \"#utility.yul\":2590:3009   */\ntag_21:\n    /* \"#utility.yul\":2756:2760   */\n  0x00\n    /* \"#utility.yul\":2794:2796   */\n  0x20\n    /* \"#utility.yul\":2783:2792   */\n  dup3\n    /* \"#utility.yul\":2779:2797   */\n  add\n    /* \"#utility.yul\":2771:2797   */\n  swap1\n  pop\n    /* \"#utility.yul\":2843:2852   */\n  dup2\n    /* \"#utility.yul\":2837:2841   */\n  dup2\n    /* \"#utility.yul\":2833:2853   */\n  sub\n    /* \"#utility.yul\":2829:2830   */\n  0x00\n    /* \"#utility.yul\":2818:2827   */\n  dup4\n    /* \"#utility.yul\":2814:2831   */\n  add\n    /* \"#utility.yul\":2807:2854   */\n  mstore\n    /* \"#utility.yul\":2871:3002   */\n  tag_84\n    /* \"#utility.yul\":2997:3001   */\n  dup2\n    /* \"#utility.yul\":2871:3002   */\n  tag_51\n  jump\t// in\ntag_84:\n    /* \"#utility.yul\":2863:3002   */\n  swap1\n  pop\n    /* \"#utility.yul\":2590:3009   */\n  swap2\n  swap1\n  pop\n  jump\t// out\n    /* \"#utility.yul\":3015:3185   */\ntag_52:\n    /* \"#utility.yul\":3155:3177   */\n  0x496e76616c69642072657761726420746f6b656e000000000000000000000000\n    /* \"#utility.yul\":3151:3152   */\n  0x00\n    /* \"#utility.yul\":3143:3149   */\n  dup3\n    /* \"#utility.yul\":3139:3153   */\n  add\n    /* \"#utility.yul\":3132:3178   */\n  mstore\n    /* \"#utility.yul\":3015:3185   */\n  pop\n  jump\t// out\n    /* \"#utility.yul\":3191:3557   */\ntag_53:\n    /* \"#utility.yul\":3333:3336   */\n  0x00\n    /* \"#utility.yul\":3354:3421   */\n  tag_87\n    /* \"#utility.yul\":3418:3420   */\n  0x14\n    /* \"#utility.yul\":3413:3416   */\n  dup4\n    /* \"#utility.yul\":3354:3421   */\n  tag_49\n  jump\t// in\ntag_87:\n    /* \"#utility.yul\":3347:3421   */\n  swap2\n  pop\n    /* \"#utility.yul\":3430:3523   */\n  tag_88\n    /* \"#utility.yul\":3519:3522   */\n  dup3\n    /* \"#utility.yul\":3430:3523   */\n  tag_52\n  jump\t// in\ntag_88:\n    /* \"#utility.yul\":3548:3550   */\n  0x20\n    /* \"#utility.yul\":3543:3546   */\n  dup3\n    /* \"#utility.yul\":3539:3551   */\n  add\n    /* \"#utility.yul\":3532:3551   */\n  swap1\n  pop\n    /* \"#utility.yul\":3191:3557   */\n  swap2\n  swap1\n  pop\n  jump\t// out\n    /* \"#utility.yul\":3563:3982   */\ntag_24:\n    /* \"#utility.yul\":3729:3733   */\n  0x00\n    /* \"#utility.yul\":3767:3769   */\n  0x20\n    /* \"#utility.yul\":3756:3765   */\n  dup3\n    /* \"#utility.yul\":3752:3770   */\n  add\n    /* \"#utility.yul\":3744:3770   */\n  swap1\n  pop\n    /* \"#utility.yul\":3816:3825   */\n  dup2\n    /* \"#utility.yul\":3810:3814   */\n  dup2\n    /* \"#utility.yul\":3806:3826   */\n  sub\n    /* \"#utility.yul\":3802:3803   */\n  0x00\n    /* \"#utility.yul\":3791:3800   */\n  dup4\n    /* \"#utility.yul\":3787:3804   */\n  add\n    /* \"#utility.yul\":3780:3827   */\n  mstore\n    /* \"#utility.yul\":3844:3975   */\n  tag_90\n    /* \"#utility.yul\":3970:3974   */\n  dup2\n    /* \"#utility.yul\":3844:3975   */\n  tag_53\n  jump\t// in\ntag_90:\n    /* \"#utility.yul\":3836:3975   */\n  swap1\n  pop\n    /* \"#utility.yul\":3563:3982   */\n  swap2\n  swap1\n  pop\n  jump\t// out\n    /* \"#utility.yul\":3988:4158   */\ntag_54:\n    /* \"#utility.yul\":4128:4150   */\n  0x496e76616c696420666565207265636569766572000000000000000000000000\n    /* \"#utility.yul\":4124:4125   */\n  0x00\n    /* \"#utility.yul\":4116:4122   */\n  dup3\n    /* \"#utility.yul\":4112:4126   */\n  add\n    /* \"#utility.yul\":4105:4151   */\n  mstore\n    /* \"#utility.yul\":3988:4158   */\n  pop\n  jump\t// out\n    /* \"#utility.yul\":4164:4530   */\ntag_55:\n    /* \"#utility.yul\":4306:4309   */\n  0x00\n    /* \"#utility.yul\":4327:4394   */\n  tag_93\n    /* \"#utility.yul\":4391:4393   */\n  0x14\n    /* \"#utility.yul\":4386:4389   */\n  dup4\n    /* \"#utility.yul\":4327:4394   */\n  tag_49\n  jump\t// in\ntag_93:\n    /* \"#utility.yul\":4320:4394   */\n  swap2\n  pop\n    /* \"#utility.yul\":4403:4496   */\n  tag_94\n    /* \"#utility.yul\":4492:4495   */\n  dup3\n    /* \"#utility.yul\":4403:4496   */\n  tag_54\n  jump\t// in\ntag_94:\n    /* \"#utility.yul\":4521:4523   */\n  0x20\n    /* \"#utility.yul\":4516:4519   */\n  dup3\n    /* \"#utility.yul\":4512:4524   */\n  add\n    /* \"#utility.yul\":4505:4524   */\n  swap1\n  pop\n    /* \"#utility.yul\":4164:4530   */\n  swap2\n  swap1\n  pop\n  jump\t// out\n    /* \"#utility.yul\":4536:4955   */\ntag_27:\n    /* \"#utility.yul\":4702:4706   */\n  0x00\n    /* \"#utility.yul\":4740:4742   */\n  0x20\n    /* \"#utility.yul\":4729:4738   */\n  dup3\n    /* \"#utility.yul\":4725:4743   */\n  add\n    /* \"#utility.yul\":4717:4743   */\n  swap1\n  pop\n    /* \"#utility.yul\":4789:4798   */\n  dup2\n    /* \"#utility.yul\":4783:4787   */\n  dup2\n    /* \"#utility.yul\":4779:4799   */\n  sub\n    /* \"#utility.yul\":4775:4776   */\n  0x00\n    /* \"#utility.yul\":4764:4773   */\n  dup4\n    /* \"#utility.yul\":4760:4777   */\n  add\n    /* \"#utility.yul\":4753:4800   */\n  mstore\n    /* \"#utility.yul\":4817:4948   */\n  tag_96\n    /* \"#utility.yul\":4943:4947   */\n  dup2\n    /* \"#utility.yul\":4817:4948   */\n  tag_55\n  jump\t// in\ntag_96:\n    /* \"#utility.yul\":4809:4948   */\n  swap1\n  pop\n    /* \"#utility.yul\":4536:4955   */\n  swap2\n  swap1\n  pop\n  jump\t// out\n    /* \"Staking.sol\":418:10462  contract AutoStaking is Ownable, ReentrancyGuard {... */\ntag_28:\n  mload(0x80)\n  codecopy(0x00, dataOffset(sub_0), dataSize(sub_0))\n  0x00\n  assignImmutable(\"0x05f14bbde4435ecbe5273cf423314527515a37e93321dc3a13f762431443ebf5\")\n  return(0x00, dataSize(sub_0))\nstop\n\nsub_0: assembly {\n        /* \"Staking.sol\":418:10462  contract AutoStaking is Ownable, ReentrancyGuard {... */\n      mstore(0x40, 0x80)\n      callvalue\n      dup1\n      iszero\n      tag_1\n      jumpi\n      revert(0x00, 0x00)\n    tag_1:\n      pop\n      jumpi(tag_2, lt(calldatasize, 0x04))\n      shr(0xe0, calldataload(0x00))\n      dup1\n      0x817b1cd2\n      gt\n      tag_35\n      jumpi\n      dup1\n      0xc7b8981c\n      gt\n      tag_36\n      jumpi\n      dup1\n      0xf2fde38b\n      gt\n      tag_37\n      jumpi\n      dup1\n      0xf2fde38b\n      eq\n      tag_31\n      jumpi\n      dup1\n      0xf55ad3ec\n      eq\n      tag_32\n      jumpi\n      dup1\n      0xf7c618c1\n      eq\n      tag_33\n      jumpi\n      dup1\n      0xf8cf31cb\n      eq\n      tag_34\n      jumpi\n      jump(tag_2)\n    tag_37:\n      dup1\n      0xc7b8981c\n      eq\n      tag_27\n      jumpi\n      dup1\n      0xd854fb75\n      eq\n      tag_28\n      jumpi\n      dup1\n      0xe6a69ab8\n      eq\n      tag_29\n      jumpi\n      dup1\n      0xe8a35392\n      eq\n      tag_30\n      jumpi\n      jump(tag_2)\n    tag_36:\n      dup1\n      0xb3f00674\n      gt\n      tag_38\n      jumpi\n      dup1\n      0xb3f00674\n      eq\n      tag_23\n      jumpi\n      dup1\n      0xbbd36b61\n      eq\n      tag_24\n      jumpi\n      dup1\n      0xc4ae3168\n      eq\n      tag_25\n      jumpi\n      dup1\n      0xc69bebe4\n      eq\n      tag_26\n      jumpi\n      jump(tag_2)\n    tag_38:\n      dup1\n      0x817b1cd2\n      eq\n      tag_19\n      jumpi\n      dup1\n      0x8da5cb5b\n      eq\n      tag_20\n      jumpi\n      dup1\n      0x95a29060\n      eq\n      tag_21\n      jumpi\n      dup1\n      0xae169a50\n      eq\n      tag_22\n      jumpi\n      jump(tag_2)\n    tag_35:\n      dup1\n      0x584b62a1\n      gt\n      tag_39\n      jumpi\n      dup1\n      0x715018a6\n      gt\n      tag_40\n      jumpi\n      dup1\n      0x715018a6\n      eq\n      tag_15\n      jumpi\n      dup1\n      0x72f702f3\n      eq\n      tag_16\n      jumpi\n      dup1\n      0x794a62d3\n      eq\n      tag_17\n      jumpi\n      dup1\n      0x7a5c08ae\n      eq\n      tag_18\n      jumpi\n      jump(tag_2)\n    tag_40:\n      dup1\n      0x584b62a1\n      eq\n      tag_11\n      jumpi\n      dup1\n      0x5acd2e4c\n      eq\n      tag_12\n      jumpi\n      dup1\n      0x5c975abb\n      eq\n      tag_13\n      jumpi\n      dup1\n      0x6b494def\n      eq\n      tag_14\n      jumpi\n      jump(tag_2)\n    tag_39:\n      dup1\n      0x3d92f4e2\n      gt\n      tag_41\n      jumpi\n      dup1\n      0x3d92f4e2\n      eq\n      tag_7\n      jumpi\n      dup1\n      0x4060e257\n      eq\n      tag_8\n      jumpi\n      dup1\n      0x4c8f2a78\n      eq\n      tag_9\n      jumpi\n      dup1\n      0x561b2463\n      eq\n      tag_10\n      jumpi\n      jump(tag_2)\n    tag_41:\n      dup1\n      0x0630e463\n      eq\n      tag_3\n      jumpi\n      dup1\n      0x1747e0b0\n      eq\n      tag_4\n      jumpi\n      dup1\n      0x1852e8d9\n      eq\n      tag_5\n      jumpi\n      dup1\n      0x38bceaac\n      eq\n      tag_6\n      jumpi\n    tag_2:\n      revert(0x00, 0x00)\n        /* \"Staking.sol\":1212:1271  mapping(address => uint256) public pendingRewardWithdrawals */\n    tag_3:\n      tag_42\n      0x04\n      dup1\n      calldatasize\n      sub\n      dup2\n      add\n      swap1\n      tag_43\n      swap2\n      swap1\n      tag_44\n      jump\t// in\n    tag_43:\n      tag_45\n      jump\t// in\n    tag_42:\n      mload(0x40)\n      tag_46\n      swap2\n      swap1\n      tag_47\n      jump\t// in\n    tag_46:\n      mload(0x40)\n      dup1\n      swap2\n      sub\n      swap1\n      return\n        /* \"Staking.sol\":9623:9741  function getActiveStakes(address user) external view returns (StakeInfo[] memory) {... */\n    tag_4:\n      tag_48\n      0x04\n      dup1\n      calldatasize\n      sub\n      dup2\n      add\n      swap1\n      tag_49\n      swap2\n      swap1\n      tag_44\n      jump\t// in\n    tag_49:\n      tag_50\n      jump\t// in\n    tag_48:\n      mload(0x40)\n      tag_51\n      swap2\n      swap1\n      tag_52\n      jump\t// in\n    tag_51:\n      mload(0x40)\n      dup1\n      swap2\n      sub\n      swap1\n      return\n        /* \"Staking.sol\":3907:4701  function calculateReward(address account, uint256 stakeIndex) public view returns (uint256) {... */\n    tag_5:\n      tag_53\n      0x04\n      dup1\n      calldatasize\n      sub\n      dup2\n      add\n      swap1\n      tag_54\n      swap2\n      swap1\n      tag_55\n      jump\t// in\n    tag_54:\n      tag_56\n      jump\t// in\n    tag_53:\n      mload(0x40)\n      tag_57\n      swap2\n      swap1\n      tag_47\n      jump\t// in\n    tag_57:\n      mload(0x40)\n      dup1\n      swap2\n      sub\n      swap1\n      return\n        /* \"Staking.sol\":677:723  uint256 public constant AUTO_COMPOUND_FEE = 50 */\n    tag_6:\n      tag_58\n      tag_59\n      jump\t// in\n    tag_58:\n      mload(0x40)\n      tag_60\n      swap2\n      swap1\n      tag_47\n      jump\t// in\n    tag_60:\n      mload(0x40)\n      dup1\n      swap2\n      sub\n      swap1\n      return\n        /* \"Staking.sol\":737:776  uint256 public constant MAX_APY = 10000 */\n    tag_7:\n      tag_61\n      tag_62\n      jump\t// in\n    tag_61:\n      mload(0x40)\n      tag_63\n      swap2\n      swap1\n      tag_47\n      jump\t// in\n    tag_63:\n      mload(0x40)\n      dup1\n      swap2\n      sub\n      swap1\n      return\n        /* \"Staking.sol\":7172:8053  function compoundReward(uint256 stakeIndex) external nonReentrant onlyEOA whenNotPaused {... */\n    tag_8:\n      tag_64\n      0x04\n      dup1\n      calldatasize\n      sub\n      dup2\n      add\n      swap1\n      tag_65\n      swap2\n      swap1\n      tag_66\n      jump\t// in\n    tag_65:\n      tag_67\n      jump\t// in\n    tag_64:\n      stop\n        /* \"Staking.sol\":817:876  uint256[3] public lockPeriods = [30 days, 60 days, 90 days] */\n    tag_9:\n      tag_68\n      0x04\n      dup1\n      calldatasize\n      sub\n      dup2\n      add\n      swap1\n      tag_69\n      swap2\n      swap1\n      tag_66\n      jump\t// in\n    tag_69:\n      tag_70\n      jump\t// in\n    tag_68:\n      mload(0x40)\n      tag_71\n      swap2\n      swap1\n      tag_47\n      jump\t// in\n    tag_71:\n      mload(0x40)\n      dup1\n      swap2\n      sub\n      swap1\n      return\n        /* \"Staking.sol\":3090:3833  function stake(uint256 amount, uint256 periodIndex, bool autoStake) external nonReentrant onlyEOA whenNotPaused {... */\n    tag_10:\n      tag_72\n      0x04\n      dup1\n      calldatasize\n      sub\n      dup2\n      add\n      swap1\n      tag_73\n      swap2\n      swap1\n      tag_74\n      jump\t// in\n    tag_73:\n      tag_75\n      jump\t// in\n    tag_72:\n      stop\n        /* \"Staking.sol\":1161:1206  mapping(address => StakeInfo[]) public stakes */\n    tag_11:\n      tag_76\n      0x04\n      dup1\n      calldatasize\n      sub\n      dup2\n      add\n      swap1\n      tag_77\n      swap2\n      swap1\n      tag_55\n      jump\t// in\n    tag_77:\n      tag_78\n      jump\t// in\n    tag_76:\n      mload(0x40)\n      tag_79\n      swap7\n      swap6\n      swap5\n      swap4\n      swap3\n      swap2\n      swap1\n      tag_80\n      jump\t// in\n    tag_79:\n      mload(0x40)\n      dup1\n      swap2\n      sub\n      swap1\n      return\n        /* \"Staking.sol\":8461:8766  function setAPY(uint256 periodIndex, uint256 newAPY) external onlyOwner {... */\n    tag_12:\n      tag_81\n      0x04\n      dup1\n      calldatasize\n      sub\n      dup2\n      add\n      swap1\n      tag_82\n      swap2\n      swap1\n      tag_83\n      jump\t// in\n    tag_82:\n      tag_84\n      jump\t// in\n    tag_81:\n      stop\n        /* \"Staking.sol\":2398:2416  bool public paused */\n    tag_13:\n      tag_85\n      tag_86\n      jump\t// in\n    tag_85:\n      mload(0x40)\n      tag_87\n      swap2\n      swap1\n      tag_88\n      jump\t// in\n    tag_87:\n      mload(0x40)\n      dup1\n      swap2\n      sub\n      swap1\n      return\n        /* \"Staking.sol\":882:928  uint256[3] public apyRates = [500, 1000, 1500] */\n    tag_14:\n      tag_89\n      0x04\n      dup1\n      calldatasize\n      sub\n      dup2\n      add\n      swap1\n      tag_90\n      swap2\n      swap1\n      tag_66\n      jump\t// in\n    tag_90:\n      tag_91\n      jump\t// in\n    tag_89:\n      mload(0x40)\n      tag_92\n      swap2\n      swap1\n      tag_47\n      jump\t// in\n    tag_92:\n      mload(0x40)\n      dup1\n      swap2\n      sub\n      swap1\n      return\n        /* \"@openzeppelin/contracts/access/Ownable.sol\":2293:2394  function renounceOwnership() public virtual onlyOwner {... */\n    tag_15:\n      tag_93\n      tag_94\n      jump\t// in\n    tag_93:\n      stop\n        /* \"Staking.sol\":529:565  IERC20 public immutable stakingToken */\n    tag_16:\n      tag_95\n      tag_96\n      jump\t// in\n    tag_95:\n      mload(0x40)\n      tag_97\n      swap2\n      swap1\n      tag_98\n      jump\t// in\n    tag_97:\n      mload(0x40)\n      dup1\n      swap2\n      sub\n      swap1\n      return\n        /* \"Staking.sol\":10370:10460  function estimateMintGas() external pure returns (uint256) {... */\n    tag_17:\n      tag_99\n      tag_100\n      jump\t// in\n    tag_99:\n      mload(0x40)\n      tag_101\n      swap2\n      swap1\n      tag_47\n      jump\t// in\n    tag_101:\n      mload(0x40)\n      dup1\n      swap2\n      sub\n      swap1\n      return\n        /* \"Staking.sol\":1330:1362  uint256 public rewardPoolBalance */\n    tag_18:\n      tag_102\n      tag_103\n      jump\t// in\n    tag_102:\n      mload(0x40)\n      tag_104\n      swap2\n      swap1\n      tag_47\n      jump\t// in\n    tag_104:\n      mload(0x40)\n      dup1\n      swap2\n      sub\n      swap1\n      return\n        /* \"Staking.sol\":1298:1324  uint256 public totalStaked */\n    tag_19:\n      tag_105\n      tag_106\n      jump\t// in\n    tag_105:\n      mload(0x40)\n      tag_107\n      swap2\n      swap1\n      tag_47\n      jump\t// in\n    tag_107:\n      mload(0x40)\n      dup1\n      swap2\n      sub\n      swap1\n      return\n        /* \"@openzeppelin/contracts/access/Ownable.sol\":1638:1723  function owner() public view virtual returns (address) {... */\n    tag_20:\n      tag_108\n      tag_109\n      jump\t// in\n    tag_108:\n      mload(0x40)\n      tag_110\n      swap2\n      swap1\n      tag_111\n      jump\t// in\n    tag_110:\n      mload(0x40)\n      dup1\n      swap2\n      sub\n      swap1\n      return\n        /* \"Staking.sol\":6683:7104  function toggleAutoStake(uint256 stakeIndex) external whenNotPaused {... */\n    tag_21:\n      tag_112\n      0x04\n      dup1\n      calldatasize\n      sub\n      dup2\n      add\n      swap1\n      tag_113\n      swap2\n      swap1\n      tag_66\n      jump\t// in\n    tag_113:\n      tag_114\n      jump\t// in\n    tag_112:\n      stop\n        /* \"Staking.sol\":5119:6207  function claimReward(uint256 stakeIndex) external nonReentrant onlyEOA whenNotPaused {... */\n    tag_22:\n      tag_115\n      0x04\n      dup1\n      calldatasize\n      sub\n      dup2\n      add\n      swap1\n      tag_116\n      swap2\n      swap1\n      tag_66\n      jump\t// in\n    tag_116:\n      tag_117\n      jump\t// in\n    tag_115:\n      stop\n        /* \"Staking.sol\":1368:1394  address public feeReceiver */\n    tag_23:\n      tag_118\n      tag_119\n      jump\t// in\n    tag_118:\n      mload(0x40)\n      tag_120\n      swap2\n      swap1\n      tag_111\n      jump\t// in\n    tag_120:\n      mload(0x40)\n      dup1\n      swap2\n      sub\n      swap1\n      return\n        /* \"Staking.sol\":8115:8395  function addRewardPoolFunds(uint256 amount) external onlyOwner {... */\n    tag_24:\n      tag_121\n      0x04\n      dup1\n      calldatasize\n      sub\n      dup2\n      add\n      swap1\n      tag_122\n      swap2\n      swap1\n      tag_66\n      jump\t// in\n    tag_122:\n      tag_123\n      jump\t// in\n    tag_121:\n      stop\n        /* \"Staking.sol\":9441:9553  function togglePause() external onlyOwner {... */\n    tag_25:\n      tag_124\n      tag_125\n      jump\t// in\n    tag_124:\n      stop\n        /* \"Staking.sol\":9143:9382  function updateFeeReceiver(address newFeeReceiver) external onlyOwner {... */\n    tag_26:\n      tag_126\n      0x04\n      dup1\n      calldatasize\n      sub\n      dup2\n      add\n      swap1\n      tag_127\n      swap2\n      swap1\n      tag_44\n      jump\t// in\n    tag_127:\n      tag_128\n      jump\t// in\n    tag_126:\n      stop\n        /* \"Staking.sol\":6269:6614  function withdrawRewards() external nonReentrant whenNotPaused {... */\n    tag_27:\n      tag_129\n      tag_130\n      jump\t// in\n    tag_129:\n      stop\n        /* \"Staking.sol\":9810:9915  function getRewardPoolBalance() external view returns (uint256) {... */\n    tag_28:\n      tag_131\n      tag_132\n      jump\t// in\n    tag_131:\n      mload(0x40)\n      tag_133\n      swap2\n      swap1\n      tag_47\n      jump\t// in\n    tag_133:\n      mload(0x40)\n      dup1\n      swap2\n      sub\n      swap1\n      return\n        /* \"Staking.sol\":620:671  uint256 public constant SECONDS_PER_YEAR = 365 days */\n    tag_29:\n      tag_134\n      tag_135\n      jump\t// in\n    tag_134:\n      mload(0x40)\n      tag_136\n      swap2\n      swap1\n      tag_47\n      jump\t// in\n    tag_136:\n      mload(0x40)\n      dup1\n      swap2\n      sub\n      swap1\n      return\n        /* \"Staking.sol\":9977:10070  function getFeeReceiver() external view returns (address) {... */\n    tag_30:\n      tag_137\n      tag_138\n      jump\t// in\n    tag_137:\n      mload(0x40)\n      tag_139\n      swap2\n      swap1\n      tag_111\n      jump\t// in\n    tag_139:\n      mload(0x40)\n      dup1\n      swap2\n      sub\n      swap1\n      return\n        /* \"@openzeppelin/contracts/access/Ownable.sol\":2543:2758  function transferOwnership(address newOwner) public virtual onlyOwner {... */\n    tag_31:\n      tag_140\n      0x04\n      dup1\n      calldatasize\n      sub\n      dup2\n      add\n      swap1\n      tag_141\n      swap2\n      swap1\n      tag_44\n      jump\t// in\n    tag_141:\n      tag_142\n      jump\t// in\n    tag_140:\n      stop\n        /* \"Staking.sol\":10134:10315  function getLockPeriod(uint256 index) external view returns (uint256) {... */\n    tag_32:\n      tag_143\n      0x04\n      dup1\n      calldatasize\n      sub\n      dup2\n      add\n      swap1\n      tag_144\n      swap2\n      swap1\n      tag_66\n      jump\t// in\n    tag_144:\n      tag_145\n      jump\t// in\n    tag_143:\n      mload(0x40)\n      tag_146\n      swap2\n      swap1\n      tag_47\n      jump\t// in\n    tag_146:\n      mload(0x40)\n      dup1\n      swap2\n      sub\n      swap1\n      return\n        /* \"Staking.sol\":571:596  IERC20 public rewardToken */\n    tag_33:\n      tag_147\n      tag_148\n      jump\t// in\n    tag_147:\n      mload(0x40)\n      tag_149\n      swap2\n      swap1\n      tag_98\n      jump\t// in\n    tag_149:\n      mload(0x40)\n      dup1\n      swap2\n      sub\n      swap1\n      return\n        /* \"Staking.sol\":8831:9078  function updateRewardToken(address newRewardToken) external onlyOwner {... */\n    tag_34:\n      tag_150\n      0x04\n      dup1\n      calldatasize\n      sub\n      dup2\n      add\n      swap1\n      tag_151\n      swap2\n      swap1\n      tag_44\n      jump\t// in\n    tag_151:\n      tag_152\n      jump\t// in\n    tag_150:\n      stop\n        /* \"Staking.sol\":1212:1271  mapping(address => uint256) public pendingRewardWithdrawals */\n    tag_45:\n      mstore(0x20, 0x0a)\n      dup1\n      0x00\n      mstore\n      keccak256(0x00, 0x40)\n      0x00\n      swap2\n      pop\n      swap1\n      pop\n      sload\n      dup2\n      jump\t// out\n        /* \"Staking.sol\":9623:9741  function getActiveStakes(address user) external view returns (StakeInfo[] memory) {... */\n    tag_50:\n        /* \"Staking.sol\":9685:9703  StakeInfo[] memory */\n      0x60\n        /* \"Staking.sol\":9722:9728  stakes */\n      0x09\n        /* \"Staking.sol\":9722:9734  stakes[user] */\n      0x00\n        /* \"Staking.sol\":9729:9733  user */\n      dup4\n        /* \"Staking.sol\":9722:9734  stakes[user] */\n      0xffffffffffffffffffffffffffffffffffffffff\n      and\n      0xffffffffffffffffffffffffffffffffffffffff\n      and\n      dup2\n      mstore\n      0x20\n      add\n      swap1\n      dup2\n      mstore\n      0x20\n      add\n      0x00\n      keccak256\n        /* \"Staking.sol\":9715:9734  return stakes[user] */\n      dup1\n      sload\n      dup1\n      0x20\n      mul\n      0x20\n      add\n      mload(0x40)\n      swap1\n      dup2\n      add\n      0x40\n      mstore\n      dup1\n      swap3\n      swap2\n      swap1\n      dup2\n      dup2\n      mstore\n      0x20\n      add\n      0x00\n      swap1\n    tag_154:\n      dup3\n      dup3\n      lt\n      iszero\n      tag_155\n      jumpi\n      dup4\n      dup3\n      swap1\n      0x00\n      mstore\n      keccak256(0x00, 0x20)\n      swap1\n      0x05\n      mul\n      add\n      mload(0x40)\n      dup1\n      0xc0\n      add\n      0x40\n      mstore\n      swap1\n      dup2\n      0x00\n      dup3\n      add\n      sload\n      dup2\n      mstore\n      0x20\n      add\n      0x01\n      dup3\n      add\n      sload\n      dup2\n      mstore\n      0x20\n      add\n      0x02\n      dup3\n      add\n      sload\n      dup2\n      mstore\n      0x20\n      add\n      0x03\n      dup3\n      add\n      0x00\n      swap1\n      sload\n      swap1\n      0x0100\n      exp\n      swap1\n      div\n      0xff\n      and\n      iszero\n      iszero\n      iszero\n      iszero\n      dup2\n      mstore\n      0x20\n      add\n      0x03\n      dup3\n      add\n      0x01\n      swap1\n      sload\n      swap1\n      0x0100\n      exp\n      swap1\n      div\n      0xff\n      and\n      iszero\n      iszero\n      iszero\n      iszero\n      dup2\n      mstore\n      0x20\n      add\n      0x04\n      dup3\n      add\n      sload\n      dup2\n      mstore\n      pop\n      pop\n      dup2\n      mstore\n      0x20\n      add\n      swap1\n      0x01\n      add\n      swap1\n      jump(tag_154)\n    tag_155:\n      pop\n      pop\n      pop\n      pop\n      swap1\n      pop\n        /* \"Staking.sol\":9623:9741  function getActiveStakes(address user) external view returns (StakeInfo[] memory) {... */\n      swap2\n      swap1\n      pop\n      jump\t// out\n        /* \"Staking.sol\":3907:4701  function calculateReward(address account, uint256 stakeIndex) public view returns (uint256) {... */\n    tag_56:\n        /* \"Staking.sol\":3990:3997  uint256 */\n      0x00\n        /* \"Staking.sol\":4036:4037  0 */\n      0x00\n        /* \"Staking.sol\":4017:4038  account != address(0) */\n      0xffffffffffffffffffffffffffffffffffffffff\n      and\n        /* \"Staking.sol\":4017:4024  account */\n      dup4\n        /* \"Staking.sol\":4017:4038  account != address(0) */\n      0xffffffffffffffffffffffffffffffffffffffff\n      and\n      sub\n        /* \"Staking.sol\":4009:4058  require(account != address(0), \"Invalid account\") */\n      tag_158\n      jumpi\n      mload(0x40)\n      0x08c379a000000000000000000000000000000000000000000000000000000000\n      dup2\n      mstore\n      0x04\n      add\n      tag_159\n      swap1\n      tag_160\n      jump\t// in\n    tag_159:\n      mload(0x40)\n      dup1\n      swap2\n      sub\n      swap1\n      revert\n    tag_158:\n        /* \"Staking.sol\":4089:4095  stakes */\n      0x09\n        /* \"Staking.sol\":4089:4104  stakes[account] */\n      0x00\n        /* \"Staking.sol\":4096:4103  account */\n      dup5\n        /* \"Staking.sol\":4089:4104  stakes[account] */\n      0xffffffffffffffffffffffffffffffffffffffff\n      and\n      0xffffffffffffffffffffffffffffffffffffffff\n      and\n      dup2\n      mstore\n      0x20\n      add\n      swap1\n      dup2\n      mstore\n      0x20\n      add\n      0x00\n      keccak256\n        /* \"Staking.sol\":4089:4111  stakes[account].length */\n      dup1\n      sload\n      swap1\n      pop\n        /* \"Staking.sol\":4076:4086  stakeIndex */\n      dup3\n        /* \"Staking.sol\":4076:4111  stakeIndex < stakes[account].length */\n      lt\n        /* \"Staking.sol\":4068:4135  require(stakeIndex < stakes[account].length, \"Invalid stake index\") */\n      tag_161\n      jumpi\n      mload(0x40)\n      0x08c379a000000000000000000000000000000000000000000000000000000000\n      dup2\n      mstore\n      0x04\n      add\n      tag_162\n      swap1\n      tag_163\n      jump\t// in\n    tag_162:\n      mload(0x40)\n      dup1\n      swap2\n      sub\n      swap1\n      revert\n    tag_161:\n        /* \"Staking.sol\":4146:4167  StakeInfo memory info */\n      0x00\n        /* \"Staking.sol\":4170:4176  stakes */\n      0x09\n        /* \"Staking.sol\":4170:4185  stakes[account] */\n      0x00\n        /* \"Staking.sol\":4177:4184  account */\n      dup6\n        /* \"Staking.sol\":4170:4185  stakes[account] */\n      0xffffffffffffffffffffffffffffffffffffffff\n      and\n      0xffffffffffffffffffffffffffffffffffffffff\n      and\n      dup2\n      mstore\n      0x20\n      add\n      swap1\n      dup2\n      mstore\n      0x20\n      add\n      0x00\n      keccak256\n        /* \"Staking.sol\":4186:4196  stakeIndex */\n      dup4\n        /* \"Staking.sol\":4170:4197  stakes[account][stakeIndex] */\n      dup2\n      sload\n      dup2\n      lt\n      tag_164\n      jumpi\n      tag_165\n      tag_166\n      jump\t// in\n    tag_165:\n    tag_164:\n      swap1\n      0x00\n      mstore\n      keccak256(0x00, 0x20)\n      swap1\n      0x05\n      mul\n      add\n        /* \"Staking.sol\":4146:4197  StakeInfo memory info = stakes[account][stakeIndex] */\n      mload(0x40)\n      dup1\n      0xc0\n      add\n      0x40\n      mstore\n      swap1\n      dup2\n      0x00\n      dup3\n      add\n      sload\n      dup2\n      mstore\n      0x20\n      add\n      0x01\n      dup3\n      add\n      sload\n      dup2\n      mstore\n      0x20\n      add\n      0x02\n      dup3\n      add\n      sload\n      dup2\n      mstore\n      0x20\n      add\n      0x03\n      dup3\n      add\n      0x00\n      swap1\n      sload\n      swap1\n      0x0100\n      exp\n      swap1\n      div\n      0xff\n      and\n      iszero\n      iszero\n      iszero\n      iszero\n      dup2\n      mstore\n      0x20\n      add\n      0x03\n      dup3\n      add\n      0x01\n      swap1\n      sload\n      swap1\n      0x0100\n      exp\n      swap1\n      div\n      0xff\n      and\n      iszero\n      iszero\n      iszero\n      iszero\n      dup2\n      mstore\n      0x20\n      add\n      0x04\n      dup3\n      add\n      sload\n      dup2\n      mstore\n      pop\n      pop\n      swap1\n      pop\n        /* \"Staking.sol\":4216:4220  info */\n      dup1\n        /* \"Staking.sol\":4216:4228  info.claimed */\n      0x60\n      add\n      mload\n        /* \"Staking.sol\":4215:4228  !info.claimed */\n      iszero\n        /* \"Staking.sol\":4207:4248  require(!info.claimed, \"Already claimed\") */\n      tag_168\n      jumpi\n      mload(0x40)\n      0x08c379a000000000000000000000000000000000000000000000000000000000\n      dup2\n      mstore\n      0x04\n      add\n      tag_169\n      swap1\n      tag_170\n      jump\t// in\n    tag_169:\n      mload(0x40)\n      dup1\n      swap2\n      sub\n      swap1\n      revert\n    tag_168:\n        /* \"Staking.sol\":4259:4274  uint256 endTime */\n      0x00\n        /* \"Staking.sol\":4277:4281  info */\n      dup2\n        /* \"Staking.sol\":4277:4292  info.unlockTime */\n      0x40\n      add\n      mload\n        /* \"Staking.sol\":4259:4292  uint256 endTime = info.unlockTime */\n      swap1\n      pop\n        /* \"Staking.sol\":4306:4310  info */\n      dup2\n        /* \"Staking.sol\":4306:4322  info.autoStaking */\n      0x80\n      add\n      mload\n        /* \"Staking.sol\":4306:4351  info.autoStaking && block.timestamp > endTime */\n      dup1\n      iszero\n      tag_171\n      jumpi\n      pop\n        /* \"Staking.sol\":4344:4351  endTime */\n      dup1\n        /* \"Staking.sol\":4326:4341  block.timestamp */\n      timestamp\n        /* \"Staking.sol\":4326:4351  block.timestamp > endTime */\n      gt\n        /* \"Staking.sol\":4306:4351  info.autoStaking && block.timestamp > endTime */\n    tag_171:\n        /* \"Staking.sol\":4302:4403  if (info.autoStaking && block.timestamp > endTime) {... */\n      iszero\n      tag_172\n      jumpi\n        /* \"Staking.sol\":4377:4392  block.timestamp */\n      timestamp\n        /* \"Staking.sol\":4367:4392  endTime = block.timestamp */\n      swap1\n      pop\n        /* \"Staking.sol\":4302:4403  if (info.autoStaking && block.timestamp > endTime) {... */\n    tag_172:\n        /* \"Staking.sol\":4413:4429  uint256 timeHeld */\n      0x00\n        /* \"Staking.sol\":4442:4446  info */\n      dup3\n        /* \"Staking.sol\":4442:4456  info.stakeTime */\n      0x20\n      add\n      mload\n        /* \"Staking.sol\":4432:4439  endTime */\n      dup3\n        /* \"Staking.sol\":4432:4456  endTime - info.stakeTime */\n      tag_173\n      swap2\n      swap1\n      tag_174\n      jump\t// in\n    tag_173:\n        /* \"Staking.sol\":4413:4456  uint256 timeHeld = endTime - info.stakeTime */\n      swap1\n      pop\n        /* \"Staking.sol\":4466:4485  uint256 periodIndex */\n      0x00\n        /* \"Staking.sol\":4488:4536  getPeriodIndex(info.unlockTime - info.stakeTime) */\n      tag_175\n        /* \"Staking.sol\":4521:4525  info */\n      dup5\n        /* \"Staking.sol\":4521:4535  info.stakeTime */\n      0x20\n      add\n      mload\n        /* \"Staking.sol\":4503:4507  info */\n      dup6\n        /* \"Staking.sol\":4503:4518  info.unlockTime */\n      0x40\n      add\n      mload\n        /* \"Staking.sol\":4503:4535  info.unlockTime - info.stakeTime */\n      tag_176\n      swap2\n      swap1\n      tag_174\n      jump\t// in\n    tag_176:\n        /* \"Staking.sol\":4488:4502  getPeriodIndex */\n      tag_177\n        /* \"Staking.sol\":4488:4536  getPeriodIndex(info.unlockTime - info.stakeTime) */\n      jump\t// in\n    tag_175:\n        /* \"Staking.sol\":4466:4536  uint256 periodIndex = getPeriodIndex(info.unlockTime - info.stakeTime) */\n      swap1\n      pop\n        /* \"Staking.sol\":4546:4563  uint256 principal */\n      0x00\n        /* \"Staking.sol\":4580:4584  info */\n      dup5\n        /* \"Staking.sol\":4580:4601  info.compoundedAmount */\n      0xa0\n      add\n      mload\n        /* \"Staking.sol\":4566:4570  info */\n      dup6\n        /* \"Staking.sol\":4566:4577  info.amount */\n      0x00\n      add\n      mload\n        /* \"Staking.sol\":4566:4601  info.amount + info.compoundedAmount */\n      tag_178\n      swap2\n      swap1\n      tag_179\n      jump\t// in\n    tag_178:\n        /* \"Staking.sol\":4546:4601  uint256 principal = info.amount + info.compoundedAmount */\n      swap1\n      pop\n        /* \"Staking.sol\":663:671  365 days */\n      0x01e13380\n        /* \"Staking.sol\":4669:4674  10000 */\n      0x2710\n        /* \"Staking.sol\":4669:4693  10000 * SECONDS_PER_YEAR */\n      tag_180\n      swap2\n      swap1\n      tag_181\n      jump\t// in\n    tag_180:\n        /* \"Staking.sol\":4656:4664  timeHeld */\n      dup4\n        /* \"Staking.sol\":4632:4640  apyRates */\n      0x06\n        /* \"Staking.sol\":4641:4652  periodIndex */\n      dup5\n        /* \"Staking.sol\":4632:4653  apyRates[periodIndex] */\n      0x03\n      dup2\n      lt\n      tag_182\n      jumpi\n      tag_183\n      tag_166\n      jump\t// in\n    tag_183:\n    tag_182:\n      add\n      sload\n        /* \"Staking.sol\":4620:4629  principal */\n      dup4\n        /* \"Staking.sol\":4620:4653  principal * apyRates[periodIndex] */\n      tag_185\n      swap2\n      swap1\n      tag_181\n      jump\t// in\n    tag_185:\n        /* \"Staking.sol\":4620:4664  principal * apyRates[periodIndex] * timeHeld */\n      tag_186\n      swap2\n      swap1\n      tag_181\n      jump\t// in\n    tag_186:\n        /* \"Staking.sol\":4619:4694  (principal * apyRates[periodIndex] * timeHeld) / (10000 * SECONDS_PER_YEAR) */\n      tag_187\n      swap2\n      swap1\n      tag_188\n      jump\t// in\n    tag_187:\n        /* \"Staking.sol\":4612:4694  return (principal * apyRates[periodIndex] * timeHeld) / (10000 * SECONDS_PER_YEAR) */\n      swap6\n      pop\n      pop\n      pop\n      pop\n      pop\n      pop\n        /* \"Staking.sol\":3907:4701  function calculateReward(address account, uint256 stakeIndex) public view returns (uint256) {... */\n      swap3\n      swap2\n      pop\n      pop\n      jump\t// out\n        /* \"Staking.sol\":677:723  uint256 public constant AUTO_COMPOUND_FEE = 50 */\n    tag_59:\n        /* \"Staking.sol\":721:723  50 */\n      0x32\n        /* \"Staking.sol\":677:723  uint256 public constant AUTO_COMPOUND_FEE = 50 */\n      dup2\n      jump\t// out\n        /* \"Staking.sol\":737:776  uint256 public constant MAX_APY = 10000 */\n    tag_62:\n        /* \"Staking.sol\":771:776  10000 */\n      0x2710\n        /* \"Staking.sol\":737:776  uint256 public constant MAX_APY = 10000 */\n      dup2\n      jump\t// out\n        /* \"Staking.sol\":7172:8053  function compoundReward(uint256 stakeIndex) external nonReentrant onlyEOA whenNotPaused {... */\n    tag_67:\n        /* \"@openzeppelin/contracts/security/ReentrancyGuard.sol\":2261:2282  _nonReentrantBefore() */\n      tag_190\n        /* \"@openzeppelin/contracts/security/ReentrancyGuard.sol\":2261:2280  _nonReentrantBefore */\n      tag_191\n        /* \"@openzeppelin/contracts/security/ReentrancyGuard.sol\":2261:2282  _nonReentrantBefore() */\n      jump\t// in\n    tag_190:\n        /* \"Staking.sol\":2228:2238  msg.sender */\n      caller\n        /* \"Staking.sol\":2215:2238  tx.origin == msg.sender */\n      0xffffffffffffffffffffffffffffffffffffffff\n      and\n        /* \"Staking.sol\":2215:2224  tx.origin */\n      origin\n        /* \"Staking.sol\":2215:2238  tx.origin == msg.sender */\n      0xffffffffffffffffffffffffffffffffffffffff\n      and\n      eq\n        /* \"Staking.sol\":2207:2260  require(tx.origin == msg.sender, \"Only EOA can call\") */\n      tag_193\n      jumpi\n      mload(0x40)\n      0x08c379a000000000000000000000000000000000000000000000000000000000\n      dup2\n      mstore\n      0x04\n      add\n      tag_194\n      swap1\n      tag_195\n      jump\t// in\n    tag_194:\n      mload(0x40)\n      dup1\n      swap2\n      sub\n      swap1\n      revert\n    tag_193:\n        /* \"Staking.sol\":2328:2334  paused */\n      0x0d\n      0x14\n      swap1\n      sload\n      swap1\n      0x0100\n      exp\n      swap1\n      div\n      0xff\n      and\n        /* \"Staking.sol\":2327:2334  !paused */\n      iszero\n        /* \"Staking.sol\":2319:2354  require(!paused, \"Contract paused\") */\n      tag_197\n      jumpi\n      mload(0x40)\n      0x08c379a000000000000000000000000000000000000000000000000000000000\n      dup2\n      mstore\n      0x04\n      add\n      tag_198\n      swap1\n      tag_199\n      jump\t// in\n    tag_198:\n      mload(0x40)\n      dup1\n      swap2\n      sub\n      swap1\n      revert\n    tag_197:\n        /* \"Staking.sol\":7270:7285  address account */\n      0x00\n        /* \"Staking.sol\":7288:7298  msg.sender */\n      caller\n        /* \"Staking.sol\":7270:7298  address account = msg.sender */\n      swap1\n      pop\n        /* \"Staking.sol\":7329:7335  stakes */\n      0x09\n        /* \"Staking.sol\":7329:7344  stakes[account] */\n      0x00\n        /* \"Staking.sol\":7336:7343  account */\n      dup3\n        /* \"Staking.sol\":7329:7344  stakes[account] */\n      0xffffffffffffffffffffffffffffffffffffffff\n      and\n      0xffffffffffffffffffffffffffffffffffffffff\n      and\n      dup2\n      mstore\n      0x20\n      add\n      swap1\n      dup2\n      mstore\n      0x20\n      add\n      0x00\n      keccak256\n        /* \"Staking.sol\":7329:7351  stakes[account].length */\n      dup1\n      sload\n      swap1\n      pop\n        /* \"Staking.sol\":7316:7326  stakeIndex */\n      dup3\n        /* \"Staking.sol\":7316:7351  stakeIndex < stakes[account].length */\n      lt\n        /* \"Staking.sol\":7308:7375  require(stakeIndex < stakes[account].length, \"Invalid stake index\") */\n      tag_201\n      jumpi\n      mload(0x40)\n      0x08c379a000000000000000000000000000000000000000000000000000000000\n      dup2\n      mstore\n      0x04\n      add\n      tag_202\n      swap1\n      tag_163\n      jump\t// in\n    tag_202:\n      mload(0x40)\n      dup1\n      swap2\n      sub\n      swap1\n      revert\n    tag_201:\n        /* \"Staking.sol\":7386:7408  StakeInfo storage info */\n      0x00\n        /* \"Staking.sol\":7411:7417  stakes */\n      0x09\n        /* \"Staking.sol\":7411:7426  stakes[account] */\n      0x00\n        /* \"Staking.sol\":7418:7425  account */\n      dup4\n        /* \"Staking.sol\":7411:7426  stakes[account] */\n      0xffffffffffffffffffffffffffffffffffffffff\n      and\n      0xffffffffffffffffffffffffffffffffffffffff\n      and\n      dup2\n      mstore\n      0x20\n      add\n      swap1\n      dup2\n      mstore\n      0x20\n      add\n      0x00\n      keccak256\n        /* \"Staking.sol\":7427:7437  stakeIndex */\n      dup4\n        /* \"Staking.sol\":7411:7438  stakes[account][stakeIndex] */\n      dup2\n      sload\n      dup2\n      lt\n      tag_203\n      jumpi\n      tag_204\n      tag_166\n      jump\t// in\n    tag_204:\n    tag_203:\n      swap1\n      0x00\n      mstore\n      keccak256(0x00, 0x20)\n      swap1\n      0x05\n      mul\n      add\n        /* \"Staking.sol\":7386:7438  StakeInfo storage info = stakes[account][stakeIndex] */\n      swap1\n      pop\n        /* \"Staking.sol\":7457:7461  info */\n      dup1\n        /* \"Staking.sol\":7457:7469  info.claimed */\n      0x03\n      add\n      0x00\n      swap1\n      sload\n      swap1\n      0x0100\n      exp\n      swap1\n      div\n      0xff\n      and\n        /* \"Staking.sol\":7456:7469  !info.claimed */\n      iszero\n        /* \"Staking.sol\":7448:7489  require(!info.claimed, \"Already claimed\") */\n      tag_206\n      jumpi\n      mload(0x40)\n      0x08c379a000000000000000000000000000000000000000000000000000000000\n      dup2\n      mstore\n      0x04\n      add\n      tag_207\n      swap1\n      tag_170\n      jump\t// in\n    tag_207:\n      mload(0x40)\n      dup1\n      swap2\n      sub\n      swap1\n      revert\n    tag_206:\n        /* \"Staking.sol\":7507:7511  info */\n      dup1\n        /* \"Staking.sol\":7507:7523  info.autoStaking */\n      0x03\n      add\n      0x01\n      swap1\n      sload\n      swap1\n      0x0100\n      exp\n      swap1\n      div\n      0xff\n      and\n        /* \"Staking.sol\":7499:7549  require(info.autoStaking, \"Auto-staking disabled\") */\n      tag_208\n      jumpi\n      mload(0x40)\n      0x08c379a000000000000000000000000000000000000000000000000000000000\n      dup2\n      mstore\n      0x04\n      add\n      tag_209\n      swap1\n      tag_210\n      jump\t// in\n    tag_209:\n      mload(0x40)\n      dup1\n      swap2\n      sub\n      swap1\n      revert\n    tag_208:\n        /* \"Staking.sol\":7586:7590  info */\n      dup1\n        /* \"Staking.sol\":7586:7601  info.unlockTime */\n      0x02\n      add\n      sload\n        /* \"Staking.sol\":7567:7582  block.timestamp */\n      timestamp\n        /* \"Staking.sol\":7567:7601  block.timestamp >= info.unlockTime */\n      lt\n      iszero\n        /* \"Staking.sol\":7559:7618  require(block.timestamp >= info.unlockTime, \"Still locked\") */\n      tag_211\n      jumpi\n      mload(0x40)\n      0x08c379a000000000000000000000000000000000000000000000000000000000\n      dup2\n      mstore\n      0x04\n      add\n      tag_212\n      swap1\n      tag_213\n      jump\t// in\n    tag_212:\n      mload(0x40)\n      dup1\n      swap2\n      sub\n      swap1\n      revert\n    tag_211:\n        /* \"Staking.sol\":7629:7643  uint256 reward */\n      0x00\n        /* \"Staking.sol\":7646:7682  calculateReward(account, stakeIndex) */\n      tag_214\n        /* \"Staking.sol\":7662:7669  account */\n      dup4\n        /* \"Staking.sol\":7671:7681  stakeIndex */\n      dup6\n        /* \"Staking.sol\":7646:7661  calculateReward */\n      tag_56\n        /* \"Staking.sol\":7646:7682  calculateReward(account, stakeIndex) */\n      jump\t// in\n    tag_214:\n        /* \"Staking.sol\":7629:7682  uint256 reward = calculateReward(account, stakeIndex) */\n      swap1\n      pop\n        /* \"Staking.sol\":7721:7727  reward */\n      dup1\n        /* \"Staking.sol\":7700:7717  rewardPoolBalance */\n      sload(0x0c)\n        /* \"Staking.sol\":7700:7727  rewardPoolBalance >= reward */\n      lt\n      iszero\n        /* \"Staking.sol\":7692:7756  require(rewardPoolBalance >= reward, \"Insufficient reward pool\") */\n      tag_215\n      jumpi\n      mload(0x40)\n      0x08c379a000000000000000000000000000000000000000000000000000000000\n      dup2\n      mstore\n      0x04\n      add\n      tag_216\n      swap1\n      tag_217\n      jump\t// in\n    tag_216:\n      mload(0x40)\n      dup1\n      swap2\n      sub\n      swap1\n      revert\n    tag_215:\n        /* \"Staking.sol\":7784:7799  block.timestamp */\n      timestamp\n        /* \"Staking.sol\":7767:7771  info */\n      dup3\n        /* \"Staking.sol\":7767:7781  info.stakeTime */\n      0x01\n      add\n        /* \"Staking.sol\":7767:7799  info.stakeTime = block.timestamp */\n      dup2\n      swap1\n      sstore\n      pop\n        /* \"Staking.sol\":7864:7868  info */\n      dup2\n        /* \"Staking.sol\":7864:7878  info.stakeTime */\n      0x01\n      add\n      sload\n        /* \"Staking.sol\":7846:7850  info */\n      dup3\n        /* \"Staking.sol\":7846:7861  info.unlockTime */\n      0x02\n      add\n      sload\n        /* \"Staking.sol\":7846:7878  info.unlockTime - info.stakeTime */\n      tag_218\n      swap2\n      swap1\n      tag_174\n      jump\t// in\n    tag_218:\n        /* \"Staking.sol\":7827:7842  block.timestamp */\n      timestamp\n        /* \"Staking.sol\":7827:7879  block.timestamp + (info.unlockTime - info.stakeTime) */\n      tag_219\n      swap2\n      swap1\n      tag_179\n      jump\t// in\n    tag_219:\n        /* \"Staking.sol\":7809:7813  info */\n      dup3\n        /* \"Staking.sol\":7809:7824  info.unlockTime */\n      0x02\n      add\n        /* \"Staking.sol\":7809:7879  info.unlockTime = block.timestamp + (info.unlockTime - info.stakeTime) */\n      dup2\n      swap1\n      sstore\n      pop\n        /* \"Staking.sol\":7929:7935  reward */\n      dup1\n        /* \"Staking.sol\":7904:7908  info */\n      dup3\n        /* \"Staking.sol\":7904:7925  info.compoundedAmount */\n      0x04\n      add\n      0x00\n        /* \"Staking.sol\":7904:7935  info.compoundedAmount += reward */\n      dup3\n      dup3\n      sload\n      tag_220\n      swap2\n      swap1\n      tag_179\n      jump\t// in\n    tag_220:\n      swap3\n      pop\n      pop\n      dup2\n      swap1\n      sstore\n      pop\n        /* \"Staking.sol\":7966:7972  reward */\n      dup1\n        /* \"Staking.sol\":7945:7962  rewardPoolBalance */\n      0x0c\n      0x00\n        /* \"Staking.sol\":7945:7972  rewardPoolBalance -= reward */\n      dup3\n      dup3\n      sload\n      tag_221\n      swap2\n      swap1\n      tag_174\n      jump\t// in\n    tag_221:\n      swap3\n      pop\n      pop\n      dup2\n      swap1\n      sstore\n      pop\n        /* \"Staking.sol\":8003:8010  account */\n      dup3\n        /* \"Staking.sol\":7988:8046  AutoCompounded(account, stakeIndex, info.compoundedAmount) */\n      0xffffffffffffffffffffffffffffffffffffffff\n      and\n      0x593662cbe53e88df3fef748665b8c3d3142e5d34dc1b24290f7e953537a00183\n        /* \"Staking.sol\":8012:8022  stakeIndex */\n      dup6\n        /* \"Staking.sol\":8024:8028  info */\n      dup5\n        /* \"Staking.sol\":8024:8045  info.compoundedAmount */\n      0x04\n      add\n      sload\n        /* \"Staking.sol\":7988:8046  AutoCompounded(account, stakeIndex, info.compoundedAmount) */\n      mload(0x40)\n      tag_222\n      swap3\n      swap2\n      swap1\n      tag_223\n      jump\t// in\n    tag_222:\n      mload(0x40)\n      dup1\n      swap2\n      sub\n      swap1\n      log2\n        /* \"Staking.sol\":7260:8053  {... */\n      pop\n      pop\n      pop\n        /* \"@openzeppelin/contracts/security/ReentrancyGuard.sol\":2303:2323  _nonReentrantAfter() */\n      tag_224\n        /* \"@openzeppelin/contracts/security/ReentrancyGuard.sol\":2303:2321  _nonReentrantAfter */\n      tag_225\n        /* \"@openzeppelin/contracts/security/ReentrancyGuard.sol\":2303:2323  _nonReentrantAfter() */\n      jump\t// in\n    tag_224:\n        /* \"Staking.sol\":7172:8053  function compoundReward(uint256 stakeIndex) external nonReentrant onlyEOA whenNotPaused {... */\n      pop\n      jump\t// out\n        /* \"Staking.sol\":817:876  uint256[3] public lockPeriods = [30 days, 60 days, 90 days] */\n    tag_70:\n      0x03\n      dup2\n      0x03\n      dup2\n      lt\n      tag_226\n      jumpi\n      0x00\n      dup1\n      revert\n    tag_226:\n      add\n      0x00\n      swap2\n      pop\n      swap1\n      pop\n      sload\n      dup2\n      jump\t// out\n        /* \"Staking.sol\":3090:3833  function stake(uint256 amount, uint256 periodIndex, bool autoStake) external nonReentrant onlyEOA whenNotPaused {... */\n    tag_75:\n        /* \"@openzeppelin/contracts/security/ReentrancyGuard.sol\":2261:2282  _nonReentrantBefore() */\n      tag_229\n        /* \"@openzeppelin/contracts/security/ReentrancyGuard.sol\":2261:2280  _nonReentrantBefore */\n      tag_191\n        /* \"@openzeppelin/contracts/security/ReentrancyGuard.sol\":2261:2282  _nonReentrantBefore() */\n      jump\t// in\n    tag_229:\n        /* \"Staking.sol\":2228:2238  msg.sender */\n      caller\n        /* \"Staking.sol\":2215:2238  tx.origin == msg.sender */\n      0xffffffffffffffffffffffffffffffffffffffff\n      and\n        /* \"Staking.sol\":2215:2224  tx.origin */\n      origin\n        /* \"Staking.sol\":2215:2238  tx.origin == msg.sender */\n      0xffffffffffffffffffffffffffffffffffffffff\n      and\n      eq\n        /* \"Staking.sol\":2207:2260  require(tx.origin == msg.sender, \"Only EOA can call\") */\n      tag_231\n      jumpi\n      mload(0x40)\n      0x08c379a000000000000000000000000000000000000000000000000000000000\n      dup2\n      mstore\n      0x04\n      add\n      tag_232\n      swap1\n      tag_195\n      jump\t// in\n    tag_232:\n      mload(0x40)\n      dup1\n      swap2\n      sub\n      swap1\n      revert\n    tag_231:\n        /* \"Staking.sol\":2328:2334  paused */\n      0x0d\n      0x14\n      swap1\n      sload\n      swap1\n      0x0100\n      exp\n      swap1\n      div\n      0xff\n      and\n        /* \"Staking.sol\":2327:2334  !paused */\n      iszero\n        /* \"Staking.sol\":2319:2354  require(!paused, \"Contract paused\") */\n      tag_234\n      jumpi\n      mload(0x40)\n      0x08c379a000000000000000000000000000000000000000000000000000000000\n      dup2\n      mstore\n      0x04\n      add\n      tag_235\n      swap1\n      tag_199\n      jump\t// in\n    tag_235:\n      mload(0x40)\n      dup1\n      swap2\n      sub\n      swap1\n      revert\n    tag_234:\n        /* \"Staking.sol\":3234:3252  lockPeriods.length */\n      0x03\n        /* \"Staking.sol\":3220:3231  periodIndex */\n      dup3\n        /* \"Staking.sol\":3220:3252  periodIndex < lockPeriods.length */\n      lt\n        /* \"Staking.sol\":3212:3277  require(periodIndex < lockPeriods.length, \"Invalid period index\") */\n      tag_237\n      jumpi\n      mload(0x40)\n      0x08c379a000000000000000000000000000000000000000000000000000000000\n      dup2\n      mstore\n      0x04\n      add\n      tag_238\n      swap1\n      tag_239\n      jump\t// in\n    tag_238:\n      mload(0x40)\n      dup1\n      swap2\n      sub\n      swap1\n      revert\n    tag_237:\n        /* \"Staking.sol\":3304:3305  0 */\n      0x00\n        /* \"Staking.sol\":3295:3301  amount */\n      dup4\n        /* \"Staking.sol\":3295:3305  amount > 0 */\n      gt\n        /* \"Staking.sol\":3287:3321  require(amount > 0, \"Zero amount\") */\n      tag_240\n      jumpi\n      mload(0x40)\n      0x08c379a000000000000000000000000000000000000000000000000000000000\n      dup2\n      mstore\n      0x04\n      add\n      tag_241\n      swap1\n      tag_242\n      jump\t// in\n    tag_241:\n      mload(0x40)\n      dup1\n      swap2\n      sub\n      swap1\n      revert\n    tag_240:\n        /* \"Staking.sol\":3332:3396  stakingToken.safeTransferFrom(msg.sender, address(this), amount) */\n      tag_243\n        /* \"Staking.sol\":3362:3372  msg.sender */\n      caller\n        /* \"Staking.sol\":3382:3386  this */\n      address\n        /* \"Staking.sol\":3389:3395  amount */\n      dup6\n        /* \"Staking.sol\":3332:3344  stakingToken */\n      immutable(\"0x05f14bbde4435ecbe5273cf423314527515a37e93321dc3a13f762431443ebf5\")\n        /* \"Staking.sol\":3332:3361  stakingToken.safeTransferFrom */\n      0xffffffffffffffffffffffffffffffffffffffff\n      and\n      tag_244\n      swap1\n        /* \"Staking.sol\":3332:3396  stakingToken.safeTransferFrom(msg.sender, address(this), amount) */\n      swap4\n      swap3\n      swap2\n      swap1\n      0xffffffff\n      and\n      jump\t// in\n    tag_243:\n        /* \"Staking.sol\":3407:3425  uint256 unlockTime */\n      0x00\n        /* \"Staking.sol\":3446:3457  lockPeriods */\n      0x03\n        /* \"Staking.sol\":3458:3469  periodIndex */\n      dup4\n        /* \"Staking.sol\":3446:3470  lockPeriods[periodIndex] */\n      0x03\n      dup2\n      lt\n      tag_245\n      jumpi\n      tag_246\n      tag_166\n      jump\t// in\n    tag_246:\n    tag_245:\n      add\n      sload\n        /* \"Staking.sol\":3428:3443  block.timestamp */\n      timestamp\n        /* \"Staking.sol\":3428:3470  block.timestamp + lockPeriods[periodIndex] */\n      tag_248\n      swap2\n      swap1\n      tag_179\n      jump\t// in\n    tag_248:\n        /* \"Staking.sol\":3407:3470  uint256 unlockTime = block.timestamp + lockPeriods[periodIndex] */\n      swap1\n      pop\n        /* \"Staking.sol\":3481:3487  stakes */\n      0x09\n        /* \"Staking.sol\":3481:3499  stakes[msg.sender] */\n      0x00\n        /* \"Staking.sol\":3488:3498  msg.sender */\n      caller\n        /* \"Staking.sol\":3481:3499  stakes[msg.sender] */\n      0xffffffffffffffffffffffffffffffffffffffff\n      and\n      0xffffffffffffffffffffffffffffffffffffffff\n      and\n      dup2\n      mstore\n      0x20\n      add\n      swap1\n      dup2\n      mstore\n      0x20\n      add\n      0x00\n      keccak256\n        /* \"Staking.sol\":3505:3727  StakeInfo({... */\n      mload(0x40)\n      dup1\n      0xc0\n      add\n      0x40\n      mstore\n      dup1\n        /* \"Staking.sol\":3537:3543  amount */\n      dup7\n        /* \"Staking.sol\":3505:3727  StakeInfo({... */\n      dup2\n      mstore\n      0x20\n      add\n        /* \"Staking.sol\":3568:3583  block.timestamp */\n      timestamp\n        /* \"Staking.sol\":3505:3727  StakeInfo({... */\n      dup2\n      mstore\n      0x20\n      add\n        /* \"Staking.sol\":3609:3619  unlockTime */\n      dup4\n        /* \"Staking.sol\":3505:3727  StakeInfo({... */\n      dup2\n      mstore\n      0x20\n      add\n        /* \"Staking.sol\":3642:3647  false */\n      0x00\n        /* \"Staking.sol\":3505:3727  StakeInfo({... */\n      iszero\n      iszero\n      dup2\n      mstore\n      0x20\n      add\n        /* \"Staking.sol\":3674:3683  autoStake */\n      dup5\n        /* \"Staking.sol\":3505:3727  StakeInfo({... */\n      iszero\n      iszero\n      dup2\n      mstore\n      0x20\n      add\n        /* \"Staking.sol\":3715:3716  0 */\n      0x00\n        /* \"Staking.sol\":3505:3727  StakeInfo({... */\n      dup2\n      mstore\n      pop\n        /* \"Staking.sol\":3481:3728  stakes[msg.sender].push(StakeInfo({... */\n      swap1\n      dup1\n      0x01\n      dup2\n      sload\n      add\n      dup1\n      dup3\n      sstore\n      dup1\n      swap2\n      pop\n      pop\n      0x01\n      swap1\n      sub\n      swap1\n      0x00\n      mstore\n      keccak256(0x00, 0x20)\n      swap1\n      0x05\n      mul\n      add\n      0x00\n      swap1\n      swap2\n      swap1\n      swap2\n      swap1\n      swap2\n      pop\n      0x00\n      dup3\n      add\n      mload\n      dup2\n      0x00\n      add\n      sstore\n      0x20\n      dup3\n      add\n      mload\n      dup2\n      0x01\n      add\n      sstore\n      0x40\n      dup3\n      add\n      mload\n      dup2\n      0x02\n      add\n      sstore\n      0x60\n      dup3\n      add\n      mload\n      dup2\n      0x03\n      add\n      exp(0x0100, 0x00)\n      dup2\n      sload\n      dup2\n      0xff\n      mul\n      not\n      and\n      swap1\n      dup4\n      iszero\n      iszero\n      mul\n      or\n      swap1\n      sstore\n      pop\n      0x80\n      dup3\n      add\n      mload\n      dup2\n      0x03\n      add\n      exp(0x0100, 0x01)\n      dup2\n      sload\n      dup2\n      0xff\n      mul\n      not\n      and\n      swap1\n      dup4\n      iszero\n      iszero\n      mul\n      or\n      swap1\n      sstore\n      pop\n      0xa0\n      dup3\n      add\n      mload\n      dup2\n      0x04\n      add\n      sstore\n      pop\n      pop\n        /* \"Staking.sol\":3754:3760  amount */\n      dup4\n        /* \"Staking.sol\":3739:3750  totalStaked */\n      0x0b\n      0x00\n        /* \"Staking.sol\":3739:3760  totalStaked += amount */\n      dup3\n      dup3\n      sload\n      tag_250\n      swap2\n      swap1\n      tag_179\n      jump\t// in\n    tag_250:\n      swap3\n      pop\n      pop\n      dup2\n      swap1\n      sstore\n      pop\n        /* \"Staking.sol\":3783:3793  msg.sender */\n      caller\n        /* \"Staking.sol\":3776:3826  Staked(msg.sender, amount, periodIndex, autoStake) */\n      0xffffffffffffffffffffffffffffffffffffffff\n      and\n      0x3df45cb339f96ae4bdb793efcb6e22100dd0dc4fd739a4ee2033fe67ea35af96\n        /* \"Staking.sol\":3795:3801  amount */\n      dup6\n        /* \"Staking.sol\":3803:3814  periodIndex */\n      dup6\n        /* \"Staking.sol\":3816:3825  autoStake */\n      dup6\n        /* \"Staking.sol\":3776:3826  Staked(msg.sender, amount, periodIndex, autoStake) */\n      mload(0x40)\n      tag_251\n      swap4\n      swap3\n      swap2\n      swap1\n      tag_252\n      jump\t// in\n    tag_251:\n      mload(0x40)\n      dup1\n      swap2\n      sub\n      swap1\n      log2\n        /* \"Staking.sol\":3202:3833  {... */\n      pop\n        /* \"@openzeppelin/contracts/security/ReentrancyGuard.sol\":2303:2323  _nonReentrantAfter() */\n      tag_253\n        /* \"@openzeppelin/contracts/security/ReentrancyGuard.sol\":2303:2321  _nonReentrantAfter */\n      tag_225\n        /* \"@openzeppelin/contracts/security/ReentrancyGuard.sol\":2303:2323  _nonReentrantAfter() */\n      jump\t// in\n    tag_253:\n        /* \"Staking.sol\":3090:3833  function stake(uint256 amount, uint256 periodIndex, bool autoStake) external nonReentrant onlyEOA whenNotPaused {... */\n      pop\n      pop\n      pop\n      jump\t// out\n        /* \"Staking.sol\":1161:1206  mapping(address => StakeInfo[]) public stakes */\n    tag_78:\n      mstore(0x20, 0x09)\n      dup2\n      0x00\n      mstore\n      keccak256(0x00, 0x40)\n      dup2\n      dup2\n      sload\n      dup2\n      lt\n      tag_254\n      jumpi\n      0x00\n      dup1\n      revert\n    tag_254:\n      swap1\n      0x00\n      mstore\n      keccak256(0x00, 0x20)\n      swap1\n      0x05\n      mul\n      add\n      0x00\n      swap2\n      pop\n      swap2\n      pop\n      pop\n      dup1\n      0x00\n      add\n      sload\n      swap1\n      dup1\n      0x01\n      add\n      sload\n      swap1\n      dup1\n      0x02\n      add\n      sload\n      swap1\n      dup1\n      0x03\n      add\n      0x00\n      swap1\n      sload\n      swap1\n      0x0100\n      exp\n      swap1\n      div\n      0xff\n      and\n      swap1\n      dup1\n      0x03\n      add\n      0x01\n      swap1\n      sload\n      swap1\n      0x0100\n      exp\n      swap1\n      div\n      0xff\n      and\n      swap1\n      dup1\n      0x04\n      add\n      sload\n      swap1\n      pop\n      dup7\n      jump\t// out\n        /* \"Staking.sol\":8461:8766  function setAPY(uint256 periodIndex, uint256 newAPY) external onlyOwner {... */\n    tag_84:\n        /* \"@openzeppelin/contracts/access/Ownable.sol\":1531:1544  _checkOwner() */\n      tag_257\n        /* \"@openzeppelin/contracts/access/Ownable.sol\":1531:1542  _checkOwner */\n      tag_258\n        /* \"@openzeppelin/contracts/access/Ownable.sol\":1531:1544  _checkOwner() */\n      jump\t// in\n    tag_257:\n        /* \"Staking.sol\":8565:8583  lockPeriods.length */\n      0x03\n        /* \"Staking.sol\":8551:8562  periodIndex */\n      dup3\n        /* \"Staking.sol\":8551:8583  periodIndex < lockPeriods.length */\n      lt\n        /* \"Staking.sol\":8543:8608  require(periodIndex < lockPeriods.length, \"Invalid period index\") */\n      tag_260\n      jumpi\n      mload(0x40)\n      0x08c379a000000000000000000000000000000000000000000000000000000000\n      dup2\n      mstore\n      0x04\n      add\n      tag_261\n      swap1\n      tag_239\n      jump\t// in\n    tag_261:\n      mload(0x40)\n      dup1\n      swap2\n      sub\n      swap1\n      revert\n    tag_260:\n        /* \"Staking.sol\":771:776  10000 */\n      0x2710\n        /* \"Staking.sol\":8626:8632  newAPY */\n      dup2\n        /* \"Staking.sol\":8626:8643  newAPY <= MAX_APY */\n      gt\n      iszero\n        /* \"Staking.sol\":8618:8660  require(newAPY <= MAX_APY, \"APY too high\") */\n      tag_262\n      jumpi\n      mload(0x40)\n      0x08c379a000000000000000000000000000000000000000000000000000000000\n      dup2\n      mstore\n      0x04\n      add\n      tag_263\n      swap1\n      tag_264\n      jump\t// in\n    tag_263:\n      mload(0x40)\n      dup1\n      swap2\n      sub\n      swap1\n      revert\n    tag_262:\n        /* \"Staking.sol\":8707:8713  newAPY */\n      dup1\n        /* \"Staking.sol\":8683:8691  apyRates */\n      0x06\n        /* \"Staking.sol\":8692:8703  periodIndex */\n      dup4\n        /* \"Staking.sol\":8683:8704  apyRates[periodIndex] */\n      0x03\n      dup2\n      lt\n      tag_265\n      jumpi\n      tag_266\n      tag_166\n      jump\t// in\n    tag_266:\n    tag_265:\n      add\n        /* \"Staking.sol\":8683:8713  apyRates[periodIndex] = newAPY */\n      dup2\n      swap1\n      sstore\n      pop\n        /* \"Staking.sol\":8728:8759  APYUpdated(periodIndex, newAPY) */\n      0x787a1fca55641ce34a438271930bbb9401df20db2b4f510d4f252227d85df43d\n        /* \"Staking.sol\":8739:8750  periodIndex */\n      dup3\n        /* \"Staking.sol\":8752:8758  newAPY */\n      dup3\n        /* \"Staking.sol\":8728:8759  APYUpdated(periodIndex, newAPY) */\n      mload(0x40)\n      tag_268\n      swap3\n      swap2\n      swap1\n      tag_223\n      jump\t// in\n    tag_268:\n      mload(0x40)\n      dup1\n      swap2\n      sub\n      swap1\n      log1\n        /* \"Staking.sol\":8461:8766  function setAPY(uint256 periodIndex, uint256 newAPY) external onlyOwner {... */\n      pop\n      pop\n      jump\t// out\n        /* \"Staking.sol\":2398:2416  bool public paused */\n    tag_86:\n      0x0d\n      0x14\n      swap1\n      sload\n      swap1\n      0x0100\n      exp\n      swap1\n      div\n      0xff\n      and\n      dup2\n      jump\t// out\n        /* \"Staking.sol\":882:928  uint256[3] public apyRates = [500, 1000, 1500] */\n    tag_91:\n      0x06\n      dup2\n      0x03\n      dup2\n      lt\n      tag_269\n      jumpi\n      0x00\n      dup1\n      revert\n    tag_269:\n      add\n      0x00\n      swap2\n      pop\n      swap1\n      pop\n      sload\n      dup2\n      jump\t// out\n        /* \"@openzeppelin/contracts/access/Ownable.sol\":2293:2394  function renounceOwnership() public virtual onlyOwner {... */\n    tag_94:\n        /* \"@openzeppelin/contracts/access/Ownable.sol\":1531:1544  _checkOwner() */\n      tag_272\n        /* \"@openzeppelin/contracts/access/Ownable.sol\":1531:1542  _checkOwner */\n      tag_258\n        /* \"@openzeppelin/contracts/access/Ownable.sol\":1531:1544  _checkOwner() */\n      jump\t// in\n    tag_272:\n        /* \"@openzeppelin/contracts/access/Ownable.sol\":2357:2387  _transferOwnership(address(0)) */\n      tag_274\n        /* \"@openzeppelin/contracts/access/Ownable.sol\":2384:2385  0 */\n      0x00\n        /* \"@openzeppelin/contracts/access/Ownable.sol\":2357:2375  _transferOwnership */\n      tag_275\n        /* \"@openzeppelin/contracts/access/Ownable.sol\":2357:2387  _transferOwnership(address(0)) */\n      jump\t// in\n    tag_274:\n        /* \"@openzeppelin/contracts/access/Ownable.sol\":2293:2394  function renounceOwnership() public virtual onlyOwner {... */\n      jump\t// out\n        /* \"Staking.sol\":529:565  IERC20 public immutable stakingToken */\n    tag_96:\n      immutable(\"0x05f14bbde4435ecbe5273cf423314527515a37e93321dc3a13f762431443ebf5\")\n      dup2\n      jump\t// out\n        /* \"Staking.sol\":10370:10460  function estimateMintGas() external pure returns (uint256) {... */\n    tag_100:\n        /* \"Staking.sol\":10420:10427  uint256 */\n      0x00\n        /* \"Staking.sol\":10446:10453  200_000 */\n      0x030d40\n        /* \"Staking.sol\":10439:10453  return 200_000 */\n      swap1\n      pop\n        /* \"Staking.sol\":10370:10460  function estimateMintGas() external pure returns (uint256) {... */\n      swap1\n      jump\t// out\n        /* \"Staking.sol\":1330:1362  uint256 public rewardPoolBalance */\n    tag_103:\n      sload(0x0c)\n      dup2\n      jump\t// out\n        /* \"Staking.sol\":1298:1324  uint256 public totalStaked */\n    tag_106:\n      sload(0x0b)\n      dup2\n      jump\t// out\n        /* \"@openzeppelin/contracts/access/Ownable.sol\":1638:1723  function owner() public view virtual returns (address) {... */\n    tag_109:\n        /* \"@openzeppelin/contracts/access/Ownable.sol\":1684:1691  address */\n      0x00\n        /* \"@openzeppelin/contracts/access/Ownable.sol\":1710:1716  _owner */\n      0x00\n      0x00\n      swap1\n      sload\n      swap1\n      0x0100\n      exp\n      swap1\n      div\n      0xffffffffffffffffffffffffffffffffffffffff\n      and\n        /* \"@openzeppelin/contracts/access/Ownable.sol\":1703:1716  return _owner */\n      swap1\n      pop\n        /* \"@openzeppelin/contracts/access/Ownable.sol\":1638:1723  function owner() public view virtual returns (address) {... */\n      swap1\n      jump\t// out\n        /* \"Staking.sol\":6683:7104  function toggleAutoStake(uint256 stakeIndex) external whenNotPaused {... */\n    tag_114:\n        /* \"Staking.sol\":2328:2334  paused */\n      0x0d\n      0x14\n      swap1\n      sload\n      swap1\n      0x0100\n      exp\n      swap1\n      div\n      0xff\n      and\n        /* \"Staking.sol\":2327:2334  !paused */\n      iszero\n        /* \"Staking.sol\":2319:2354  require(!paused, \"Contract paused\") */\n      tag_279\n      jumpi\n      mload(0x40)\n      0x08c379a000000000000000000000000000000000000000000000000000000000\n      dup2\n      mstore\n      0x04\n      add\n      tag_280\n      swap1\n      tag_199\n      jump\t// in\n    tag_280:\n      mload(0x40)\n      dup1\n      swap2\n      sub\n      swap1\n      revert\n    tag_279:\n        /* \"Staking.sol\":6761:6776  address account */\n      0x00\n        /* \"Staking.sol\":6779:6789  msg.sender */\n      caller\n        /* \"Staking.sol\":6761:6789  address account = msg.sender */\n      swap1\n      pop\n        /* \"Staking.sol\":6820:6826  stakes */\n      0x09\n        /* \"Staking.sol\":6820:6835  stakes[account] */\n      0x00\n        /* \"Staking.sol\":6827:6834  account */\n      dup3\n        /* \"Staking.sol\":6820:6835  stakes[account] */\n      0xffffffffffffffffffffffffffffffffffffffff\n      and\n      0xffffffffffffffffffffffffffffffffffffffff\n      and\n      dup2\n      mstore\n      0x20\n      add\n      swap1\n      dup2\n      mstore\n      0x20\n      add\n      0x00\n      keccak256\n        /* \"Staking.sol\":6820:6842  stakes[account].length */\n      dup1\n      sload\n      swap1\n      pop\n        /* \"Staking.sol\":6807:6817  stakeIndex */\n      dup3\n        /* \"Staking.sol\":6807:6842  stakeIndex < stakes[account].length */\n      lt\n        /* \"Staking.sol\":6799:6866  require(stakeIndex < stakes[account].length, \"Invalid stake index\") */\n      tag_282\n      jumpi\n      mload(0x40)\n      0x08c379a000000000000000000000000000000000000000000000000000000000\n      dup2\n      mstore\n      0x04\n      add\n      tag_283\n      swap1\n      tag_163\n      jump\t// in\n    tag_283:\n      mload(0x40)\n      dup1\n      swap2\n      sub\n      swap1\n      revert\n    tag_282:\n        /* \"Staking.sol\":6877:6899  StakeInfo storage info */\n      0x00\n        /* \"Staking.sol\":6902:6908  stakes */\n      0x09\n        /* \"Staking.sol\":6902:6917  stakes[account] */\n      0x00\n        /* \"Staking.sol\":6909:6916  account */\n      dup4\n        /* \"Staking.sol\":6902:6917  stakes[account] */\n      0xffffffffffffffffffffffffffffffffffffffff\n      and\n      0xffffffffffffffffffffffffffffffffffffffff\n      and\n      dup2\n      mstore\n      0x20\n      add\n      swap1\n      dup2\n      mstore\n      0x20\n      add\n      0x00\n      keccak256\n        /* \"Staking.sol\":6918:6928  stakeIndex */\n      dup4\n        /* \"Staking.sol\":6902:6929  stakes[account][stakeIndex] */\n      dup2\n      sload\n      dup2\n      lt\n      tag_284\n      jumpi\n      tag_285\n      tag_166\n      jump\t// in\n    tag_285:\n    tag_284:\n      swap1\n      0x00\n      mstore\n      keccak256(0x00, 0x20)\n      swap1\n      0x05\n      mul\n      add\n        /* \"Staking.sol\":6877:6929  StakeInfo storage info = stakes[account][stakeIndex] */\n      swap1\n      pop\n        /* \"Staking.sol\":6948:6952  info */\n      dup1\n        /* \"Staking.sol\":6948:6960  info.claimed */\n      0x03\n      add\n      0x00\n      swap1\n      sload\n      swap1\n      0x0100\n      exp\n      swap1\n      div\n      0xff\n      and\n        /* \"Staking.sol\":6947:6960  !info.claimed */\n      iszero\n        /* \"Staking.sol\":6939:6980  require(!info.claimed, \"Already claimed\") */\n      tag_287\n      jumpi\n      mload(0x40)\n      0x08c379a000000000000000000000000000000000000000000000000000000000\n      dup2\n      mstore\n      0x04\n      add\n      tag_288\n      swap1\n      tag_170\n      jump\t// in\n    tag_288:\n      mload(0x40)\n      dup1\n      swap2\n      sub\n      swap1\n      revert\n    tag_287:\n        /* \"Staking.sol\":7011:7015  info */\n      dup1\n        /* \"Staking.sol\":7011:7027  info.autoStaking */\n      0x03\n      add\n      0x01\n      swap1\n      sload\n      swap1\n      0x0100\n      exp\n      swap1\n      div\n      0xff\n      and\n        /* \"Staking.sol\":7010:7027  !info.autoStaking */\n      iszero\n        /* \"Staking.sol\":6991:6995  info */\n      dup2\n        /* \"Staking.sol\":6991:7007  info.autoStaking */\n      0x03\n      add\n      0x01\n        /* \"Staking.sol\":6991:7027  info.autoStaking = !info.autoStaking */\n      0x0100\n      exp\n      dup2\n      sload\n      dup2\n      0xff\n      mul\n      not\n      and\n      swap1\n      dup4\n      iszero\n      iszero\n      mul\n      or\n      swap1\n      sstore\n      pop\n        /* \"Staking.sol\":7059:7066  account */\n      dup2\n        /* \"Staking.sol\":7042:7097  AutoStakeToggled(account, stakeIndex, info.autoStaking) */\n      0xffffffffffffffffffffffffffffffffffffffff\n      and\n      0xfa2d7b35e7cc82247c5ae7e8ae2dc078c2b144b76a6b1068887b3c8892c15da5\n        /* \"Staking.sol\":7068:7078  stakeIndex */\n      dup5\n        /* \"Staking.sol\":7080:7084  info */\n      dup4\n        /* \"Staking.sol\":7080:7096  info.autoStaking */\n      0x03\n      add\n      0x01\n      swap1\n      sload\n      swap1\n      0x0100\n      exp\n      swap1\n      div\n      0xff\n      and\n        /* \"Staking.sol\":7042:7097  AutoStakeToggled(account, stakeIndex, info.autoStaking) */\n      mload(0x40)\n      tag_289\n      swap3\n      swap2\n      swap1\n      tag_290\n      jump\t// in\n    tag_289:\n      mload(0x40)\n      dup1\n      swap2\n      sub\n      swap1\n      log2\n        /* \"Staking.sol\":6751:7104  {... */\n      pop\n      pop\n        /* \"Staking.sol\":6683:7104  function toggleAutoStake(uint256 stakeIndex) external whenNotPaused {... */\n      pop\n      jump\t// out\n        /* \"Staking.sol\":5119:6207  function claimReward(uint256 stakeIndex) external nonReentrant onlyEOA whenNotPaused {... */\n    tag_117:\n        /* \"@openzeppelin/contracts/security/ReentrancyGuard.sol\":2261:2282  _nonReentrantBefore() */\n      tag_292\n        /* \"@openzeppelin/contracts/security/ReentrancyGuard.sol\":2261:2280  _nonReentrantBefore */\n      tag_191\n        /* \"@openzeppelin/contracts/security/ReentrancyGuard.sol\":2261:2282  _nonReentrantBefore() */\n      jump\t// in\n    tag_292:\n        /* \"Staking.sol\":2228:2238  msg.sender */\n      caller\n        /* \"Staking.sol\":2215:2238  tx.origin == msg.sender */\n      0xffffffffffffffffffffffffffffffffffffffff\n      and\n        /* \"Staking.sol\":2215:2224  tx.origin */\n      origin\n        /* \"Staking.sol\":2215:2238  tx.origin == msg.sender */\n      0xffffffffffffffffffffffffffffffffffffffff\n      and\n      eq\n        /* \"Staking.sol\":2207:2260  require(tx.origin == msg.sender, \"Only EOA can call\") */\n      tag_294\n      jumpi\n      mload(0x40)\n      0x08c379a000000000000000000000000000000000000000000000000000000000\n      dup2\n      mstore\n      0x04\n      add\n      tag_295\n      swap1\n      tag_195\n      jump\t// in\n    tag_295:\n      mload(0x40)\n      dup1\n      swap2\n      sub\n      swap1\n      revert\n    tag_294:\n        /* \"Staking.sol\":2328:2334  paused */\n      0x0d\n      0x14\n      swap1\n      sload\n      swap1\n      0x0100\n      exp\n      swap1\n      div\n      0xff\n      and\n        /* \"Staking.sol\":2327:2334  !paused */\n      iszero\n        /* \"Staking.sol\":2319:2354  require(!paused, \"Contract paused\") */\n      tag_297\n      jumpi\n      mload(0x40)\n      0x08c379a000000000000000000000000000000000000000000000000000000000\n      dup2\n      mstore\n      0x04\n      add\n      tag_298\n      swap1\n      tag_199\n      jump\t// in\n    tag_298:\n      mload(0x40)\n      dup1\n      swap2\n      sub\n      swap1\n      revert\n    tag_297:\n        /* \"Staking.sol\":5214:5229  address account */\n      0x00\n        /* \"Staking.sol\":5232:5242  msg.sender */\n      caller\n        /* \"Staking.sol\":5214:5242  address account = msg.sender */\n      swap1\n      pop\n        /* \"Staking.sol\":5252:5274  StakeInfo storage info */\n      0x00\n        /* \"Staking.sol\":5277:5283  stakes */\n      0x09\n        /* \"Staking.sol\":5277:5292  stakes[account] */\n      0x00\n        /* \"Staking.sol\":5284:5291  account */\n      dup4\n        /* \"Staking.sol\":5277:5292  stakes[account] */\n      0xffffffffffffffffffffffffffffffffffffffff\n      and\n      0xffffffffffffffffffffffffffffffffffffffff\n      and\n      dup2\n      mstore\n      0x20\n      add\n      swap1\n      dup2\n      mstore\n      0x20\n      add\n      0x00\n      keccak256\n        /* \"Staking.sol\":5293:5303  stakeIndex */\n      dup4\n        /* \"Staking.sol\":5277:5304  stakes[account][stakeIndex] */\n      dup2\n      sload\n      dup2\n      lt\n      tag_300\n      jumpi\n      tag_301\n      tag_166\n      jump\t// in\n    tag_301:\n    tag_300:\n      swap1\n      0x00\n      mstore\n      keccak256(0x00, 0x20)\n      swap1\n      0x05\n      mul\n      add\n        /* \"Staking.sol\":5252:5304  StakeInfo storage info = stakes[account][stakeIndex] */\n      swap1\n      pop\n        /* \"Staking.sol\":5323:5327  info */\n      dup1\n        /* \"Staking.sol\":5323:5335  info.claimed */\n      0x03\n      add\n      0x00\n      swap1\n      sload\n      swap1\n      0x0100\n      exp\n      swap1\n      div\n      0xff\n      and\n        /* \"Staking.sol\":5322:5335  !info.claimed */\n      iszero\n        /* \"Staking.sol\":5314:5355  require(!info.claimed, \"Already claimed\") */\n      tag_303\n      jumpi\n      mload(0x40)\n      0x08c379a000000000000000000000000000000000000000000000000000000000\n      dup2\n      mstore\n      0x04\n      add\n      tag_304\n      swap1\n      tag_170\n      jump\t// in\n    tag_304:\n      mload(0x40)\n      dup1\n      swap2\n      sub\n      swap1\n      revert\n    tag_303:\n        /* \"Staking.sol\":5392:5396  info */\n      dup1\n        /* \"Staking.sol\":5392:5407  info.unlockTime */\n      0x02\n      add\n      sload\n        /* \"Staking.sol\":5373:5388  block.timestamp */\n      timestamp\n        /* \"Staking.sol\":5373:5407  block.timestamp >= info.unlockTime */\n      lt\n      iszero\n        /* \"Staking.sol\":5365:5424  require(block.timestamp >= info.unlockTime, \"Still locked\") */\n      tag_305\n      jumpi\n      mload(0x40)\n      0x08c379a000000000000000000000000000000000000000000000000000000000\n      dup2\n      mstore\n      0x04\n      add\n      tag_306\n      swap1\n      tag_213\n      jump\t// in\n    tag_306:\n      mload(0x40)\n      dup1\n      swap2\n      sub\n      swap1\n      revert\n    tag_305:\n        /* \"Staking.sol\":5435:5449  uint256 reward */\n      0x00\n        /* \"Staking.sol\":5452:5488  calculateReward(account, stakeIndex) */\n      tag_307\n        /* \"Staking.sol\":5468:5475  account */\n      dup4\n        /* \"Staking.sol\":5477:5487  stakeIndex */\n      dup6\n        /* \"Staking.sol\":5452:5467  calculateReward */\n      tag_56\n        /* \"Staking.sol\":5452:5488  calculateReward(account, stakeIndex) */\n      jump\t// in\n    tag_307:\n        /* \"Staking.sol\":5435:5488  uint256 reward = calculateReward(account, stakeIndex) */\n      swap1\n      pop\n        /* \"Staking.sol\":5527:5533  reward */\n      dup1\n        /* \"Staking.sol\":5506:5523  rewardPoolBalance */\n      sload(0x0c)\n        /* \"Staking.sol\":5506:5533  rewardPoolBalance >= reward */\n      lt\n      iszero\n        /* \"Staking.sol\":5498:5562  require(rewardPoolBalance >= reward, \"Insufficient reward pool\") */\n      tag_308\n      jumpi\n      mload(0x40)\n      0x08c379a000000000000000000000000000000000000000000000000000000000\n      dup2\n      mstore\n      0x04\n      add\n      tag_309\n      swap1\n      tag_217\n      jump\t// in\n    tag_309:\n      mload(0x40)\n      dup1\n      swap2\n      sub\n      swap1\n      revert\n    tag_308:\n        /* \"Staking.sol\":5588:5592  true */\n      0x01\n        /* \"Staking.sol\":5573:5577  info */\n      dup3\n        /* \"Staking.sol\":5573:5585  info.claimed */\n      0x03\n      add\n      0x00\n        /* \"Staking.sol\":5573:5592  info.claimed = true */\n      0x0100\n      exp\n      dup2\n      sload\n      dup2\n      0xff\n      mul\n      not\n      and\n      swap1\n      dup4\n      iszero\n      iszero\n      mul\n      or\n      swap1\n      sstore\n      pop\n        /* \"Staking.sol\":5607:5611  info */\n      dup2\n        /* \"Staking.sol\":5607:5623  info.autoStaking */\n      0x03\n      add\n      0x01\n      swap1\n      sload\n      swap1\n      0x0100\n      exp\n      swap1\n      div\n      0xff\n      and\n        /* \"Staking.sol\":5607:5652  info.autoStaking && info.compoundedAmount > 0 */\n      dup1\n      iszero\n      tag_310\n      jumpi\n      pop\n        /* \"Staking.sol\":5651:5652  0 */\n      0x00\n        /* \"Staking.sol\":5627:5631  info */\n      dup3\n        /* \"Staking.sol\":5627:5648  info.compoundedAmount */\n      0x04\n      add\n      sload\n        /* \"Staking.sol\":5627:5652  info.compoundedAmount > 0 */\n      gt\n        /* \"Staking.sol\":5607:5652  info.autoStaking && info.compoundedAmount > 0 */\n    tag_310:\n        /* \"Staking.sol\":5603:6149  if (info.autoStaking && info.compoundedAmount > 0) {... */\n      iszero\n      tag_311\n      jumpi\n        /* \"Staking.sol\":5668:5691  uint256 totalToTransfer */\n      0x00\n        /* \"Staking.sol\":5718:5724  reward */\n      dup2\n        /* \"Staking.sol\":5694:5698  info */\n      dup4\n        /* \"Staking.sol\":5694:5715  info.compoundedAmount */\n      0x04\n      add\n      sload\n        /* \"Staking.sol\":5694:5724  info.compoundedAmount + reward */\n      tag_312\n      swap2\n      swap1\n      tag_179\n      jump\t// in\n    tag_312:\n        /* \"Staking.sol\":5668:5724  uint256 totalToTransfer = info.compoundedAmount + reward */\n      swap1\n      pop\n        /* \"Staking.sol\":5738:5749  uint256 fee */\n      0x00\n        /* \"Staking.sol\":5792:5797  10000 */\n      0x2710\n        /* \"Staking.sol\":721:723  50 */\n      0x32\n        /* \"Staking.sol\":5753:5768  totalToTransfer */\n      dup4\n        /* \"Staking.sol\":5753:5788  totalToTransfer * AUTO_COMPOUND_FEE */\n      tag_313\n      swap2\n      swap1\n      tag_181\n      jump\t// in\n    tag_313:\n        /* \"Staking.sol\":5752:5797  (totalToTransfer * AUTO_COMPOUND_FEE) / 10000 */\n      tag_314\n      swap2\n      swap1\n      tag_188\n      jump\t// in\n    tag_314:\n        /* \"Staking.sol\":5738:5797  uint256 fee = (totalToTransfer * AUTO_COMPOUND_FEE) / 10000 */\n      swap1\n      pop\n        /* \"Staking.sol\":5811:5829  uint256 userAmount */\n      0x00\n        /* \"Staking.sol\":5850:5853  fee */\n      dup2\n        /* \"Staking.sol\":5832:5847  totalToTransfer */\n      dup4\n        /* \"Staking.sol\":5832:5853  totalToTransfer - fee */\n      tag_315\n      swap2\n      swap1\n      tag_174\n      jump\t// in\n    tag_315:\n        /* \"Staking.sol\":5811:5853  uint256 userAmount = totalToTransfer - fee */\n      swap1\n      pop\n        /* \"Staking.sol\":5905:5915  userAmount */\n      dup1\n        /* \"Staking.sol\":5868:5892  pendingRewardWithdrawals */\n      0x0a\n        /* \"Staking.sol\":5868:5901  pendingRewardWithdrawals[account] */\n      0x00\n        /* \"Staking.sol\":5893:5900  account */\n      dup9\n        /* \"Staking.sol\":5868:5901  pendingRewardWithdrawals[account] */\n      0xffffffffffffffffffffffffffffffffffffffff\n      and\n      0xffffffffffffffffffffffffffffffffffffffff\n      and\n      dup2\n      mstore\n      0x20\n      add\n      swap1\n      dup2\n      mstore\n      0x20\n      add\n      0x00\n      keccak256\n      0x00\n        /* \"Staking.sol\":5868:5915  pendingRewardWithdrawals[account] += userAmount */\n      dup3\n      dup3\n      sload\n      tag_316\n      swap2\n      swap1\n      tag_179\n      jump\t// in\n    tag_316:\n      swap3\n      pop\n      pop\n      dup2\n      swap1\n      sstore\n      pop\n        /* \"Staking.sol\":5970:5973  fee */\n      dup2\n        /* \"Staking.sol\":5929:5953  pendingRewardWithdrawals */\n      0x0a\n        /* \"Staking.sol\":5929:5966  pendingRewardWithdrawals[feeReceiver] */\n      0x00\n        /* \"Staking.sol\":5954:5965  feeReceiver */\n      0x0d\n      0x00\n      swap1\n      sload\n      swap1\n      0x0100\n      exp\n      swap1\n      div\n      0xffffffffffffffffffffffffffffffffffffffff\n      and\n        /* \"Staking.sol\":5929:5966  pendingRewardWithdrawals[feeReceiver] */\n      0xffffffffffffffffffffffffffffffffffffffff\n      and\n      0xffffffffffffffffffffffffffffffffffffffff\n      and\n      dup2\n      mstore\n      0x20\n      add\n      swap1\n      dup2\n      mstore\n      0x20\n      add\n      0x00\n      keccak256\n      0x00\n        /* \"Staking.sol\":5929:5973  pendingRewardWithdrawals[feeReceiver] += fee */\n      dup3\n      dup3\n      sload\n      tag_317\n      swap2\n      swap1\n      tag_179\n      jump\t// in\n    tag_317:\n      swap3\n      pop\n      pop\n      dup2\n      swap1\n      sstore\n      pop\n        /* \"Staking.sol\":6008:6023  totalToTransfer */\n      dup3\n        /* \"Staking.sol\":5987:6004  rewardPoolBalance */\n      0x0c\n      0x00\n        /* \"Staking.sol\":5987:6023  rewardPoolBalance -= totalToTransfer */\n      dup3\n      dup3\n      sload\n      tag_318\n      swap2\n      swap1\n      tag_174\n      jump\t// in\n    tag_318:\n      swap3\n      pop\n      pop\n      dup2\n      swap1\n      sstore\n      pop\n        /* \"Staking.sol\":5654:6034  {... */\n      pop\n      pop\n      pop\n        /* \"Staking.sol\":5603:6149  if (info.autoStaking && info.compoundedAmount > 0) {... */\n      jump(tag_319)\n    tag_311:\n        /* \"Staking.sol\":6091:6097  reward */\n      dup1\n        /* \"Staking.sol\":6054:6078  pendingRewardWithdrawals */\n      0x0a\n        /* \"Staking.sol\":6054:6087  pendingRewardWithdrawals[account] */\n      0x00\n        /* \"Staking.sol\":6079:6086  account */\n      dup6\n        /* \"Staking.sol\":6054:6087  pendingRewardWithdrawals[account] */\n      0xffffffffffffffffffffffffffffffffffffffff\n      and\n      0xffffffffffffffffffffffffffffffffffffffff\n      and\n      dup2\n      mstore\n      0x20\n      add\n      swap1\n      dup2\n      mstore\n      0x20\n      add\n      0x00\n      keccak256\n      0x00\n        /* \"Staking.sol\":6054:6097  pendingRewardWithdrawals[account] += reward */\n      dup3\n      dup3\n      sload\n      tag_320\n      swap2\n      swap1\n      tag_179\n      jump\t// in\n    tag_320:\n      swap3\n      pop\n      pop\n      dup2\n      swap1\n      sstore\n      pop\n        /* \"Staking.sol\":6132:6138  reward */\n      dup1\n        /* \"Staking.sol\":6111:6128  rewardPoolBalance */\n      0x0c\n      0x00\n        /* \"Staking.sol\":6111:6138  rewardPoolBalance -= reward */\n      dup3\n      dup3\n      sload\n      tag_321\n      swap2\n      swap1\n      tag_174\n      jump\t// in\n    tag_321:\n      swap3\n      pop\n      pop\n      dup2\n      swap1\n      sstore\n      pop\n        /* \"Staking.sol\":5603:6149  if (info.autoStaking && info.compoundedAmount > 0) {... */\n    tag_319:\n        /* \"Staking.sol\":6172:6179  account */\n      dup3\n        /* \"Staking.sol\":6164:6200  Claimed(account, reward, stakeIndex) */\n      0xffffffffffffffffffffffffffffffffffffffff\n      and\n      0x987d620f307ff6b94d58743cb7a7509f24071586a77759b77c2d4e29f75a2f9a\n        /* \"Staking.sol\":6181:6187  reward */\n      dup3\n        /* \"Staking.sol\":6189:6199  stakeIndex */\n      dup7\n        /* \"Staking.sol\":6164:6200  Claimed(account, reward, stakeIndex) */\n      mload(0x40)\n      tag_322\n      swap3\n      swap2\n      swap1\n      tag_223\n      jump\t// in\n    tag_322:\n      mload(0x40)\n      dup1\n      swap2\n      sub\n      swap1\n      log2\n        /* \"Staking.sol\":5204:6207  {... */\n      pop\n      pop\n      pop\n        /* \"@openzeppelin/contracts/security/ReentrancyGuard.sol\":2303:2323  _nonReentrantAfter() */\n      tag_323\n        /* \"@openzeppelin/contracts/security/ReentrancyGuard.sol\":2303:2321  _nonReentrantAfter */\n      tag_225\n        /* \"@openzeppelin/contracts/security/ReentrancyGuard.sol\":2303:2323  _nonReentrantAfter() */\n      jump\t// in\n    tag_323:\n        /* \"Staking.sol\":5119:6207  function claimReward(uint256 stakeIndex) external nonReentrant onlyEOA whenNotPaused {... */\n      pop\n      jump\t// out\n        /* \"Staking.sol\":1368:1394  address public feeReceiver */\n    tag_119:\n      0x0d\n      0x00\n      swap1\n      sload\n      swap1\n      0x0100\n      exp\n      swap1\n      div\n      0xffffffffffffffffffffffffffffffffffffffff\n      and\n      dup2\n      jump\t// out\n        /* \"Staking.sol\":8115:8395  function addRewardPoolFunds(uint256 amount) external onlyOwner {... */\n    tag_123:\n        /* \"@openzeppelin/contracts/access/Ownable.sol\":1531:1544  _checkOwner() */\n      tag_325\n        /* \"@openzeppelin/contracts/access/Ownable.sol\":1531:1542  _checkOwner */\n      tag_258\n        /* \"@openzeppelin/contracts/access/Ownable.sol\":1531:1544  _checkOwner() */\n      jump\t// in\n    tag_325:\n        /* \"Staking.sol\":8205:8206  0 */\n      0x00\n        /* \"Staking.sol\":8196:8202  amount */\n      dup2\n        /* \"Staking.sol\":8196:8206  amount > 0 */\n      gt\n        /* \"Staking.sol\":8188:8222  require(amount > 0, \"Zero amount\") */\n      tag_327\n      jumpi\n      mload(0x40)\n      0x08c379a000000000000000000000000000000000000000000000000000000000\n      dup2\n      mstore\n      0x04\n      add\n      tag_328\n      swap1\n      tag_242\n      jump\t// in\n    tag_328:\n      mload(0x40)\n      dup1\n      swap2\n      sub\n      swap1\n      revert\n    tag_327:\n        /* \"Staking.sol\":8232:8295  rewardToken.safeTransferFrom(msg.sender, address(this), amount) */\n      tag_329\n        /* \"Staking.sol\":8261:8271  msg.sender */\n      caller\n        /* \"Staking.sol\":8281:8285  this */\n      address\n        /* \"Staking.sol\":8288:8294  amount */\n      dup4\n        /* \"Staking.sol\":8232:8243  rewardToken */\n      0x02\n      0x00\n      swap1\n      sload\n      swap1\n      0x0100\n      exp\n      swap1\n      div\n      0xffffffffffffffffffffffffffffffffffffffff\n      and\n        /* \"Staking.sol\":8232:8260  rewardToken.safeTransferFrom */\n      0xffffffffffffffffffffffffffffffffffffffff\n      and\n      tag_244\n      swap1\n        /* \"Staking.sol\":8232:8295  rewardToken.safeTransferFrom(msg.sender, address(this), amount) */\n      swap4\n      swap3\n      swap2\n      swap1\n      0xffffffff\n      and\n      jump\t// in\n    tag_329:\n        /* \"Staking.sol\":8326:8332  amount */\n      dup1\n        /* \"Staking.sol\":8305:8322  rewardPoolBalance */\n      0x0c\n      0x00\n        /* \"Staking.sol\":8305:8332  rewardPoolBalance += amount */\n      dup3\n      dup3\n      sload\n      tag_330\n      swap2\n      swap1\n      tag_179\n      jump\t// in\n    tag_330:\n      swap3\n      pop\n      pop\n      dup2\n      swap1\n      sstore\n      pop\n        /* \"Staking.sol\":8369:8379  msg.sender */\n      caller\n        /* \"Staking.sol\":8348:8388  RewardPoolFundsAdded(msg.sender, amount) */\n      0xffffffffffffffffffffffffffffffffffffffff\n      and\n      0xd15dafc20a4e1ccff3e1b0a321ba0ee5c9b2aa1b9c7cae08fb5a324537536244\n        /* \"Staking.sol\":8381:8387  amount */\n      dup3\n        /* \"Staking.sol\":8348:8388  RewardPoolFundsAdded(msg.sender, amount) */\n      mload(0x40)\n      tag_331\n      swap2\n      swap1\n      tag_47\n      jump\t// in\n    tag_331:\n      mload(0x40)\n      dup1\n      swap2\n      sub\n      swap1\n      log2\n        /* \"Staking.sol\":8115:8395  function addRewardPoolFunds(uint256 amount) external onlyOwner {... */\n      pop\n      jump\t// out\n        /* \"Staking.sol\":9441:9553  function togglePause() external onlyOwner {... */\n    tag_125:\n        /* \"@openzeppelin/contracts/access/Ownable.sol\":1531:1544  _checkOwner() */\n      tag_333\n        /* \"@openzeppelin/contracts/access/Ownable.sol\":1531:1542  _checkOwner */\n      tag_258\n        /* \"@openzeppelin/contracts/access/Ownable.sol\":1531:1544  _checkOwner() */\n      jump\t// in\n    tag_333:\n        /* \"Staking.sol\":9503:9509  paused */\n      0x0d\n      0x14\n      swap1\n      sload\n      swap1\n      0x0100\n      exp\n      swap1\n      div\n      0xff\n      and\n        /* \"Staking.sol\":9502:9509  !paused */\n      iszero\n        /* \"Staking.sol\":9493:9499  paused */\n      0x0d\n      0x14\n        /* \"Staking.sol\":9493:9509  paused = !paused */\n      0x0100\n      exp\n      dup2\n      sload\n      dup2\n      0xff\n      mul\n      not\n      and\n      swap1\n      dup4\n      iszero\n      iszero\n      mul\n      or\n      swap1\n      sstore\n      pop\n        /* \"Staking.sol\":9539:9545  paused */\n      0x0d\n      0x14\n      swap1\n      sload\n      swap1\n      0x0100\n      exp\n      swap1\n      div\n      0xff\n      and\n        /* \"Staking.sol\":9524:9546  ContractPaused(paused) */\n      iszero\n      iszero\n      0x752d7e161ff5146f80e3820893176eb40532811e5e20400dfdde57455213706a\n      mload(0x40)\n      mload(0x40)\n      dup1\n      swap2\n      sub\n      swap1\n      log2\n        /* \"Staking.sol\":9441:9553  function togglePause() external onlyOwner {... */\n      jump\t// out\n        /* \"Staking.sol\":9143:9382  function updateFeeReceiver(address newFeeReceiver) external onlyOwner {... */\n    tag_128:\n        /* \"@openzeppelin/contracts/access/Ownable.sol\":1531:1544  _checkOwner() */\n      tag_336\n        /* \"@openzeppelin/contracts/access/Ownable.sol\":1531:1542  _checkOwner */\n      tag_258\n        /* \"@openzeppelin/contracts/access/Ownable.sol\":1531:1544  _checkOwner() */\n      jump\t// in\n    tag_336:\n        /* \"Staking.sol\":9257:9258  0 */\n      0x00\n        /* \"Staking.sol\":9231:9259  newFeeReceiver != address(0) */\n      0xffffffffffffffffffffffffffffffffffffffff\n      and\n        /* \"Staking.sol\":9231:9245  newFeeReceiver */\n      dup2\n        /* \"Staking.sol\":9231:9259  newFeeReceiver != address(0) */\n      0xffffffffffffffffffffffffffffffffffffffff\n      and\n      sub\n        /* \"Staking.sol\":9223:9288  require(newFeeReceiver != address(0), \"Zero address not allowed\") */\n      tag_338\n      jumpi\n      mload(0x40)\n      0x08c379a000000000000000000000000000000000000000000000000000000000\n      dup2\n      mstore\n      0x04\n      add\n      tag_339\n      swap1\n      tag_340\n      jump\t// in\n    tag_339:\n      mload(0x40)\n      dup1\n      swap2\n      sub\n      swap1\n      revert\n    tag_338:\n        /* \"Staking.sol\":9312:9326  newFeeReceiver */\n      dup1\n        /* \"Staking.sol\":9298:9309  feeReceiver */\n      0x0d\n      0x00\n        /* \"Staking.sol\":9298:9326  feeReceiver = newFeeReceiver */\n      0x0100\n      exp\n      dup2\n      sload\n      dup2\n      0xffffffffffffffffffffffffffffffffffffffff\n      mul\n      not\n      and\n      swap1\n      dup4\n      0xffffffffffffffffffffffffffffffffffffffff\n      and\n      mul\n      or\n      swap1\n      sstore\n      pop\n        /* \"Staking.sol\":9360:9374  newFeeReceiver */\n      dup1\n        /* \"Staking.sol\":9341:9375  FeeReceiverUpdated(newFeeReceiver) */\n      0xffffffffffffffffffffffffffffffffffffffff\n      and\n      0x27aae5db36d94179909d019ae0b1ac7c16d96d953148f63c0f6a0a9c8ead79ee\n      mload(0x40)\n      mload(0x40)\n      dup1\n      swap2\n      sub\n      swap1\n      log2\n        /* \"Staking.sol\":9143:9382  function updateFeeReceiver(address newFeeReceiver) external onlyOwner {... */\n      pop\n      jump\t// out\n        /* \"Staking.sol\":6269:6614  function withdrawRewards() external nonReentrant whenNotPaused {... */\n    tag_130:\n        /* \"@openzeppelin/contracts/security/ReentrancyGuard.sol\":2261:2282  _nonReentrantBefore() */\n      tag_342\n        /* \"@openzeppelin/contracts/security/ReentrancyGuard.sol\":2261:2280  _nonReentrantBefore */\n      tag_191\n        /* \"@openzeppelin/contracts/security/ReentrancyGuard.sol\":2261:2282  _nonReentrantBefore() */\n      jump\t// in\n    tag_342:\n        /* \"Staking.sol\":2328:2334  paused */\n      0x0d\n      0x14\n      swap1\n      sload\n      swap1\n      0x0100\n      exp\n      swap1\n      div\n      0xff\n      and\n        /* \"Staking.sol\":2327:2334  !paused */\n      iszero\n        /* \"Staking.sol\":2319:2354  require(!paused, \"Contract paused\") */\n      tag_344\n      jumpi\n      mload(0x40)\n      0x08c379a000000000000000000000000000000000000000000000000000000000\n      dup2\n      mstore\n      0x04\n      add\n      tag_345\n      swap1\n      tag_199\n      jump\t// in\n    tag_345:\n      mload(0x40)\n      dup1\n      swap2\n      sub\n      swap1\n      revert\n    tag_344:\n        /* \"Staking.sol\":6342:6356  uint256 amount */\n      0x00\n        /* \"Staking.sol\":6359:6383  pendingRewardWithdrawals */\n      0x0a\n        /* \"Staking.sol\":6359:6395  pendingRewardWithdrawals[msg.sender] */\n      0x00\n        /* \"Staking.sol\":6384:6394  msg.sender */\n      caller\n        /* \"Staking.sol\":6359:6395  pendingRewardWithdrawals[msg.sender] */\n      0xffffffffffffffffffffffffffffffffffffffff\n      and\n      0xffffffffffffffffffffffffffffffffffffffff\n      and\n      dup2\n      mstore\n      0x20\n      add\n      swap1\n      dup2\n      mstore\n      0x20\n      add\n      0x00\n      keccak256\n      sload\n        /* \"Staking.sol\":6342:6395  uint256 amount = pendingRewardWithdrawals[msg.sender] */\n      swap1\n      pop\n        /* \"Staking.sol\":6422:6423  0 */\n      0x00\n        /* \"Staking.sol\":6413:6419  amount */\n      dup2\n        /* \"Staking.sol\":6413:6423  amount > 0 */\n      gt\n        /* \"Staking.sol\":6405:6450  require(amount > 0, \"No rewards to withdraw\") */\n      tag_347\n      jumpi\n      mload(0x40)\n      0x08c379a000000000000000000000000000000000000000000000000000000000\n      dup2\n      mstore\n      0x04\n      add\n      tag_348\n      swap1\n      tag_349\n      jump\t// in\n    tag_348:\n      mload(0x40)\n      dup1\n      swap2\n      sub\n      swap1\n      revert\n    tag_347:\n        /* \"Staking.sol\":6500:6501  0 */\n      0x00\n        /* \"Staking.sol\":6461:6485  pendingRewardWithdrawals */\n      0x0a\n        /* \"Staking.sol\":6461:6497  pendingRewardWithdrawals[msg.sender] */\n      0x00\n        /* \"Staking.sol\":6486:6496  msg.sender */\n      caller\n        /* \"Staking.sol\":6461:6497  pendingRewardWithdrawals[msg.sender] */\n      0xffffffffffffffffffffffffffffffffffffffff\n      and\n      0xffffffffffffffffffffffffffffffffffffffff\n      and\n      dup2\n      mstore\n      0x20\n      add\n      swap1\n      dup2\n      mstore\n      0x20\n      add\n      0x00\n      keccak256\n        /* \"Staking.sol\":6461:6501  pendingRewardWithdrawals[msg.sender] = 0 */\n      dup2\n      swap1\n      sstore\n      pop\n        /* \"Staking.sol\":6511:6555  rewardToken.safeTransfer(msg.sender, amount) */\n      tag_350\n        /* \"Staking.sol\":6536:6546  msg.sender */\n      caller\n        /* \"Staking.sol\":6548:6554  amount */\n      dup3\n        /* \"Staking.sol\":6511:6522  rewardToken */\n      0x02\n      0x00\n      swap1\n      sload\n      swap1\n      0x0100\n      exp\n      swap1\n      div\n      0xffffffffffffffffffffffffffffffffffffffff\n      and\n        /* \"Staking.sol\":6511:6535  rewardToken.safeTransfer */\n      0xffffffffffffffffffffffffffffffffffffffff\n      and\n      tag_351\n      swap1\n        /* \"Staking.sol\":6511:6555  rewardToken.safeTransfer(msg.sender, amount) */\n      swap3\n      swap2\n      swap1\n      0xffffffff\n      and\n      jump\t// in\n    tag_350:\n        /* \"Staking.sol\":6588:6598  msg.sender */\n      caller\n        /* \"Staking.sol\":6571:6607  WithdrawnRewards(msg.sender, amount) */\n      0xffffffffffffffffffffffffffffffffffffffff\n      and\n      0xbd1ea9966f82ccb966523d3922a6e4ad4bf3ea70e9201bd7a106de847cc5e616\n        /* \"Staking.sol\":6600:6606  amount */\n      dup3\n        /* \"Staking.sol\":6571:6607  WithdrawnRewards(msg.sender, amount) */\n      mload(0x40)\n      tag_352\n      swap2\n      swap1\n      tag_47\n      jump\t// in\n    tag_352:\n      mload(0x40)\n      dup1\n      swap2\n      sub\n      swap1\n      log2\n        /* \"Staking.sol\":6332:6614  {... */\n      pop\n        /* \"@openzeppelin/contracts/security/ReentrancyGuard.sol\":2303:2323  _nonReentrantAfter() */\n      tag_353\n        /* \"@openzeppelin/contracts/security/ReentrancyGuard.sol\":2303:2321  _nonReentrantAfter */\n      tag_225\n        /* \"@openzeppelin/contracts/security/ReentrancyGuard.sol\":2303:2323  _nonReentrantAfter() */\n      jump\t// in\n    tag_353:\n        /* \"Staking.sol\":6269:6614  function withdrawRewards() external nonReentrant whenNotPaused {... */\n      jump\t// out\n        /* \"Staking.sol\":9810:9915  function getRewardPoolBalance() external view returns (uint256) {... */\n    tag_132:\n        /* \"Staking.sol\":9865:9872  uint256 */\n      0x00\n        /* \"Staking.sol\":9891:9908  rewardPoolBalance */\n      sload(0x0c)\n        /* \"Staking.sol\":9884:9908  return rewardPoolBalance */\n      swap1\n      pop\n        /* \"Staking.sol\":9810:9915  function getRewardPoolBalance() external view returns (uint256) {... */\n      swap1\n      jump\t// out\n        /* \"Staking.sol\":620:671  uint256 public constant SECONDS_PER_YEAR = 365 days */\n    tag_135:\n        /* \"Staking.sol\":663:671  365 days */\n      0x01e13380\n        /* \"Staking.sol\":620:671  uint256 public constant SECONDS_PER_YEAR = 365 days */\n      dup2\n      jump\t// out\n        /* \"Staking.sol\":9977:10070  function getFeeReceiver() external view returns (address) {... */\n    tag_138:\n        /* \"Staking.sol\":10026:10033  address */\n      0x00\n        /* \"Staking.sol\":10052:10063  feeReceiver */\n      0x0d\n      0x00\n      swap1\n      sload\n      swap1\n      0x0100\n      exp\n      swap1\n      div\n      0xffffffffffffffffffffffffffffffffffffffff\n      and\n        /* \"Staking.sol\":10045:10063  return feeReceiver */\n      swap1\n      pop\n        /* \"Staking.sol\":9977:10070  function getFeeReceiver() external view returns (address) {... */\n      swap1\n      jump\t// out\n        /* \"@openzeppelin/contracts/access/Ownable.sol\":2543:2758  function transferOwnership(address newOwner) public virtual onlyOwner {... */\n    tag_142:\n        /* \"@openzeppelin/contracts/access/Ownable.sol\":1531:1544  _checkOwner() */\n      tag_357\n        /* \"@openzeppelin/contracts/access/Ownable.sol\":1531:1542  _checkOwner */\n      tag_258\n        /* \"@openzeppelin/contracts/access/Ownable.sol\":1531:1544  _checkOwner() */\n      jump\t// in\n    tag_357:\n        /* \"@openzeppelin/contracts/access/Ownable.sol\":2647:2648  0 */\n      0x00\n        /* \"@openzeppelin/contracts/access/Ownable.sol\":2627:2649  newOwner == address(0) */\n      0xffffffffffffffffffffffffffffffffffffffff\n      and\n        /* \"@openzeppelin/contracts/access/Ownable.sol\":2627:2635  newOwner */\n      dup2\n        /* \"@openzeppelin/contracts/access/Ownable.sol\":2627:2649  newOwner == address(0) */\n      0xffffffffffffffffffffffffffffffffffffffff\n      and\n      sub\n        /* \"@openzeppelin/contracts/access/Ownable.sol\":2623:2714  if (newOwner == address(0)) {... */\n      tag_359\n      jumpi\n        /* \"@openzeppelin/contracts/access/Ownable.sol\":2700:2701  0 */\n      0x00\n        /* \"@openzeppelin/contracts/access/Ownable.sol\":2672:2703  OwnableInvalidOwner(address(0)) */\n      mload(0x40)\n      0x1e4fbdf700000000000000000000000000000000000000000000000000000000\n      dup2\n      mstore\n      0x04\n      add\n      tag_360\n      swap2\n      swap1\n      tag_111\n      jump\t// in\n    tag_360:\n      mload(0x40)\n      dup1\n      swap2\n      sub\n      swap1\n      revert\n        /* \"@openzeppelin/contracts/access/Ownable.sol\":2623:2714  if (newOwner == address(0)) {... */\n    tag_359:\n        /* \"@openzeppelin/contracts/access/Ownable.sol\":2723:2751  _transferOwnership(newOwner) */\n      tag_361\n        /* \"@openzeppelin/contracts/access/Ownable.sol\":2742:2750  newOwner */\n      dup2\n        /* \"@openzeppelin/contracts/access/Ownable.sol\":2723:2741  _transferOwnership */\n      tag_275\n        /* \"@openzeppelin/contracts/access/Ownable.sol\":2723:2751  _transferOwnership(newOwner) */\n      jump\t// in\n    tag_361:\n        /* \"@openzeppelin/contracts/access/Ownable.sol\":2543:2758  function transferOwnership(address newOwner) public virtual onlyOwner {... */\n      pop\n      jump\t// out\n        /* \"Staking.sol\":10134:10315  function getLockPeriod(uint256 index) external view returns (uint256) {... */\n    tag_145:\n        /* \"Staking.sol\":10195:10202  uint256 */\n      0x00\n        /* \"Staking.sol\":10230:10248  lockPeriods.length */\n      0x03\n        /* \"Staking.sol\":10222:10227  index */\n      dup3\n        /* \"Staking.sol\":10222:10248  index < lockPeriods.length */\n      lt\n        /* \"Staking.sol\":10214:10273  require(index < lockPeriods.length, \"Invalid period index\") */\n      tag_363\n      jumpi\n      mload(0x40)\n      0x08c379a000000000000000000000000000000000000000000000000000000000\n      dup2\n      mstore\n      0x04\n      add\n      tag_364\n      swap1\n      tag_239\n      jump\t// in\n    tag_364:\n      mload(0x40)\n      dup1\n      swap2\n      sub\n      swap1\n      revert\n    tag_363:\n        /* \"Staking.sol\":10290:10301  lockPeriods */\n      0x03\n        /* \"Staking.sol\":10302:10307  index */\n      dup3\n        /* \"Staking.sol\":10290:10308  lockPeriods[index] */\n      0x03\n      dup2\n      lt\n      tag_365\n      jumpi\n      tag_366\n      tag_166\n      jump\t// in\n    tag_366:\n    tag_365:\n      add\n      sload\n        /* \"Staking.sol\":10283:10308  return lockPeriods[index] */\n      swap1\n      pop\n        /* \"Staking.sol\":10134:10315  function getLockPeriod(uint256 index) external view returns (uint256) {... */\n      swap2\n      swap1\n      pop\n      jump\t// out\n        /* \"Staking.sol\":571:596  IERC20 public rewardToken */\n    tag_148:\n      0x02\n      0x00\n      swap1\n      sload\n      swap1\n      0x0100\n      exp\n      swap1\n      div\n      0xffffffffffffffffffffffffffffffffffffffff\n      and\n      dup2\n      jump\t// out\n        /* \"Staking.sol\":8831:9078  function updateRewardToken(address newRewardToken) external onlyOwner {... */\n    tag_152:\n        /* \"@openzeppelin/contracts/access/Ownable.sol\":1531:1544  _checkOwner() */\n      tag_369\n        /* \"@openzeppelin/contracts/access/Ownable.sol\":1531:1542  _checkOwner */\n      tag_258\n        /* \"@openzeppelin/contracts/access/Ownable.sol\":1531:1544  _checkOwner() */\n      jump\t// in\n    tag_369:\n        /* \"Staking.sol\":8945:8946  0 */\n      0x00\n        /* \"Staking.sol\":8919:8947  newRewardToken != address(0) */\n      0xffffffffffffffffffffffffffffffffffffffff\n      and\n        /* \"Staking.sol\":8919:8933  newRewardToken */\n      dup2\n        /* \"Staking.sol\":8919:8947  newRewardToken != address(0) */\n      0xffffffffffffffffffffffffffffffffffffffff\n      and\n      sub\n        /* \"Staking.sol\":8911:8976  require(newRewardToken != address(0), \"Zero address not allowed\") */\n      tag_371\n      jumpi\n      mload(0x40)\n      0x08c379a000000000000000000000000000000000000000000000000000000000\n      dup2\n      mstore\n      0x04\n      add\n      tag_372\n      swap1\n      tag_340\n      jump\t// in\n    tag_372:\n      mload(0x40)\n      dup1\n      swap2\n      sub\n      swap1\n      revert\n    tag_371:\n        /* \"Staking.sol\":9007:9021  newRewardToken */\n      dup1\n        /* \"Staking.sol\":8986:8997  rewardToken */\n      0x02\n      0x00\n        /* \"Staking.sol\":8986:9022  rewardToken = IERC20(newRewardToken) */\n      0x0100\n      exp\n      dup2\n      sload\n      dup2\n      0xffffffffffffffffffffffffffffffffffffffff\n      mul\n      not\n      and\n      swap1\n      dup4\n      0xffffffffffffffffffffffffffffffffffffffff\n      and\n      mul\n      or\n      swap1\n      sstore\n      pop\n        /* \"Staking.sol\":9056:9070  newRewardToken */\n      dup1\n        /* \"Staking.sol\":9037:9071  RewardTokenUpdated(newRewardToken) */\n      0xffffffffffffffffffffffffffffffffffffffff\n      and\n      0xa5289ba11778999f4dfb9415023783188d42bbb5db0612cbfbe55999069612a0\n      mload(0x40)\n      mload(0x40)\n      dup1\n      swap2\n      sub\n      swap1\n      log2\n        /* \"Staking.sol\":8831:9078  function updateRewardToken(address newRewardToken) external onlyOwner {... */\n      pop\n      jump\t// out\n        /* \"Staking.sol\":4769:5048  function getPeriodIndex(uint256 duration) internal view returns (uint256) {... */\n    tag_177:\n        /* \"Staking.sol\":4834:4841  uint256 */\n      0x00\n        /* \"Staking.sol\":4858:4867  uint256 i */\n      0x00\n        /* \"Staking.sol\":4870:4871  0 */\n      0x00\n        /* \"Staking.sol\":4858:4871  uint256 i = 0 */\n      swap1\n      pop\n        /* \"Staking.sol\":4853:4999  for (uint256 i = 0; i < lockPeriods.length; i++) {... */\n    tag_374:\n        /* \"Staking.sol\":4877:4895  lockPeriods.length */\n      0x03\n        /* \"Staking.sol\":4873:4874  i */\n      dup2\n        /* \"Staking.sol\":4873:4895  i < lockPeriods.length */\n      lt\n        /* \"Staking.sol\":4853:4999  for (uint256 i = 0; i < lockPeriods.length; i++) {... */\n      iszero\n      tag_375\n      jumpi\n        /* \"Staking.sol\":4932:4943  lockPeriods */\n      0x03\n        /* \"Staking.sol\":4944:4945  i */\n      dup2\n        /* \"Staking.sol\":4932:4946  lockPeriods[i] */\n      0x03\n      dup2\n      lt\n      tag_377\n      jumpi\n      tag_378\n      tag_166\n      jump\t// in\n    tag_378:\n    tag_377:\n      add\n      sload\n        /* \"Staking.sol\":4920:4928  duration */\n      dup4\n        /* \"Staking.sol\":4920:4946  duration == lockPeriods[i] */\n      sub\n        /* \"Staking.sol\":4916:4989  if (duration == lockPeriods[i]) {... */\n      tag_380\n      jumpi\n        /* \"Staking.sol\":4973:4974  i */\n      dup1\n        /* \"Staking.sol\":4966:4974  return i */\n      swap2\n      pop\n      pop\n      jump(tag_373)\n        /* \"Staking.sol\":4916:4989  if (duration == lockPeriods[i]) {... */\n    tag_380:\n        /* \"Staking.sol\":4897:4900  i++ */\n      dup1\n      dup1\n      0x01\n      add\n      swap2\n      pop\n      pop\n        /* \"Staking.sol\":4853:4999  for (uint256 i = 0; i < lockPeriods.length; i++) {... */\n      jump(tag_374)\n    tag_375:\n      pop\n        /* \"Staking.sol\":5008:5041  revert(\"Unsupported lock period\") */\n      mload(0x40)\n      0x08c379a000000000000000000000000000000000000000000000000000000000\n      dup2\n      mstore\n      0x04\n      add\n      tag_381\n      swap1\n      tag_382\n      jump\t// in\n    tag_381:\n      mload(0x40)\n      dup1\n      swap2\n      sub\n      swap1\n      revert\n        /* \"Staking.sol\":4769:5048  function getPeriodIndex(uint256 duration) internal view returns (uint256) {... */\n    tag_373:\n      swap2\n      swap1\n      pop\n      jump\t// out\n        /* \"@openzeppelin/contracts/security/ReentrancyGuard.sol\":2336:2623  function _nonReentrantBefore() private {... */\n    tag_191:\n        /* \"@openzeppelin/contracts/security/ReentrancyGuard.sol\":1759:1760  2 */\n      0x02\n        /* \"@openzeppelin/contracts/security/ReentrancyGuard.sol\":2468:2475  _status */\n      sload(0x01)\n        /* \"@openzeppelin/contracts/security/ReentrancyGuard.sol\":2468:2487  _status != _ENTERED */\n      sub\n        /* \"@openzeppelin/contracts/security/ReentrancyGuard.sol\":2460:2523  require(_status != _ENTERED, \"ReentrancyGuard: reentrant call\") */\n      tag_384\n      jumpi\n      mload(0x40)\n      0x08c379a000000000000000000000000000000000000000000000000000000000\n      dup2\n      mstore\n      0x04\n      add\n      tag_385\n      swap1\n      tag_386\n      jump\t// in\n    tag_385:\n      mload(0x40)\n      dup1\n      swap2\n      sub\n      swap1\n      revert\n    tag_384:\n        /* \"@openzeppelin/contracts/security/ReentrancyGuard.sol\":1759:1760  2 */\n      0x02\n        /* \"@openzeppelin/contracts/security/ReentrancyGuard.sol\":2598:2605  _status */\n      0x01\n        /* \"@openzeppelin/contracts/security/ReentrancyGuard.sol\":2598:2616  _status = _ENTERED */\n      dup2\n      swap1\n      sstore\n      pop\n        /* \"@openzeppelin/contracts/security/ReentrancyGuard.sol\":2336:2623  function _nonReentrantBefore() private {... */\n      jump\t// out\n        /* \"@openzeppelin/contracts/security/ReentrancyGuard.sol\":2629:2838  function _nonReentrantAfter() private {... */\n    tag_225:\n        /* \"@openzeppelin/contracts/security/ReentrancyGuard.sol\":1716:1717  1 */\n      0x01\n        /* \"@openzeppelin/contracts/security/ReentrancyGuard.sol\":2809:2816  _status */\n      dup1\n        /* \"@openzeppelin/contracts/security/ReentrancyGuard.sol\":2809:2831  _status = _NOT_ENTERED */\n      dup2\n      swap1\n      sstore\n      pop\n        /* \"@openzeppelin/contracts/security/ReentrancyGuard.sol\":2629:2838  function _nonReentrantAfter() private {... */\n      jump\t// out\n        /* \"@openzeppelin/contracts/token/ERC20/utils/SafeERC20.sol\":1618:1806  function safeTransferFrom(IERC20 token, address from, address to, uint256 value) internal {... */\n    tag_244:\n        /* \"@openzeppelin/contracts/token/ERC20/utils/SafeERC20.sol\":1718:1799  _callOptionalReturn(token, abi.encodeCall(token.transferFrom, (from, to, value))) */\n      tag_389\n        /* \"@openzeppelin/contracts/token/ERC20/utils/SafeERC20.sol\":1738:1743  token */\n      dup5\n        /* \"@openzeppelin/contracts/token/ERC20/utils/SafeERC20.sol\":1760:1765  token */\n      dup6\n        /* \"@openzeppelin/contracts/token/ERC20/utils/SafeERC20.sol\":1760:1778  token.transferFrom */\n      0xffffffffffffffffffffffffffffffffffffffff\n      and\n      0x23b872dd\n        /* \"@openzeppelin/contracts/token/ERC20/utils/SafeERC20.sol\":1781:1785  from */\n      dup7\n        /* \"@openzeppelin/contracts/token/ERC20/utils/SafeERC20.sol\":1787:1789  to */\n      dup7\n        /* \"@openzeppelin/contracts/token/ERC20/utils/SafeERC20.sol\":1791:1796  value */\n      dup7\n        /* \"@openzeppelin/contracts/token/ERC20/utils/SafeERC20.sol\":1745:1798  abi.encodeCall(token.transferFrom, (from, to, value)) */\n      add(0x24, mload(0x40))\n      tag_390\n      swap4\n      swap3\n      swap2\n      swap1\n      tag_391\n      jump\t// in\n    tag_390:\n      mload(0x40)\n      0x20\n      dup2\n      dup4\n      sub\n      sub\n      dup2\n      mstore\n      swap1\n      0x40\n      mstore\n      swap2\n      pop\n      0xe0\n      shl\n      0x20\n      dup3\n      add\n      dup1\n      mload\n      0xffffffffffffffffffffffffffffffffffffffffffffffffffffffff\n      dup4\n      dup2\n      dup4\n      and\n      or\n      dup4\n      mstore\n      pop\n      pop\n      pop\n      pop\n        /* \"@openzeppelin/contracts/token/ERC20/utils/SafeERC20.sol\":1718:1737  _callOptionalReturn */\n      tag_392\n        /* \"@openzeppelin/contracts/token/ERC20/utils/SafeERC20.sol\":1718:1799  _callOptionalReturn(token, abi.encodeCall(token.transferFrom, (from, to, value))) */\n      jump\t// in\n    tag_389:\n        /* \"@openzeppelin/contracts/token/ERC20/utils/SafeERC20.sol\":1618:1806  function safeTransferFrom(IERC20 token, address from, address to, uint256 value) internal {... */\n      pop\n      pop\n      pop\n      pop\n      jump\t// out\n        /* \"@openzeppelin/contracts/access/Ownable.sol\":1796:1958  function _checkOwner() internal view virtual {... */\n    tag_258:\n        /* \"@openzeppelin/contracts/access/Ownable.sol\":1866:1878  _msgSender() */\n      tag_394\n        /* \"@openzeppelin/contracts/access/Ownable.sol\":1866:1876  _msgSender */\n      tag_395\n        /* \"@openzeppelin/contracts/access/Ownable.sol\":1866:1878  _msgSender() */\n      jump\t// in\n    tag_394:\n        /* \"@openzeppelin/contracts/access/Ownable.sol\":1855:1878  owner() != _msgSender() */\n      0xffffffffffffffffffffffffffffffffffffffff\n      and\n        /* \"@openzeppelin/contracts/access/Ownable.sol\":1855:1862  owner() */\n      tag_396\n        /* \"@openzeppelin/contracts/access/Ownable.sol\":1855:1860  owner */\n      tag_109\n        /* \"@openzeppelin/contracts/access/Ownable.sol\":1855:1862  owner() */\n      jump\t// in\n    tag_396:\n        /* \"@openzeppelin/contracts/access/Ownable.sol\":1855:1878  owner() != _msgSender() */\n      0xffffffffffffffffffffffffffffffffffffffff\n      and\n      eq\n        /* \"@openzeppelin/contracts/access/Ownable.sol\":1851:1952  if (owner() != _msgSender()) {... */\n      tag_397\n      jumpi\n        /* \"@openzeppelin/contracts/access/Ownable.sol\":1928:1940  _msgSender() */\n      tag_398\n        /* \"@openzeppelin/contracts/access/Ownable.sol\":1928:1938  _msgSender */\n      tag_395\n        /* \"@openzeppelin/contracts/access/Ownable.sol\":1928:1940  _msgSender() */\n      jump\t// in\n    tag_398:\n        /* \"@openzeppelin/contracts/access/Ownable.sol\":1901:1941  OwnableUnauthorizedAccount(_msgSender()) */\n      mload(0x40)\n      0x118cdaa700000000000000000000000000000000000000000000000000000000\n      dup2\n      mstore\n      0x04\n      add\n      tag_399\n      swap2\n      swap1\n      tag_111\n      jump\t// in\n    tag_399:\n      mload(0x40)\n      dup1\n      swap2\n      sub\n      swap1\n      revert\n        /* \"@openzeppelin/contracts/access/Ownable.sol\":1851:1952  if (owner() != _msgSender()) {... */\n    tag_397:\n        /* \"@openzeppelin/contracts/access/Ownable.sol\":1796:1958  function _checkOwner() internal view virtual {... */\n      jump\t// out\n        /* \"@openzeppelin/contracts/access/Ownable.sol\":2912:3099  function _transferOwnership(address newOwner) internal virtual {... */\n    tag_275:\n        /* \"@openzeppelin/contracts/access/Ownable.sol\":2985:3001  address oldOwner */\n      0x00\n        /* \"@openzeppelin/contracts/access/Ownable.sol\":3004:3010  _owner */\n      0x00\n      0x00\n      swap1\n      sload\n      swap1\n      0x0100\n      exp\n      swap1\n      div\n      0xffffffffffffffffffffffffffffffffffffffff\n      and\n        /* \"@openzeppelin/contracts/access/Ownable.sol\":2985:3010  address oldOwner = _owner */\n      swap1\n      pop\n        /* \"@openzeppelin/contracts/access/Ownable.sol\":3029:3037  newOwner */\n      dup2\n        /* \"@openzeppelin/contracts/access/Ownable.sol\":3020:3026  _owner */\n      0x00\n      0x00\n        /* \"@openzeppelin/contracts/access/Ownable.sol\":3020:3037  _owner = newOwner */\n      0x0100\n      exp\n      dup2\n      sload\n      dup2\n      0xffffffffffffffffffffffffffffffffffffffff\n      mul\n      not\n      and\n      swap1\n      dup4\n      0xffffffffffffffffffffffffffffffffffffffff\n      and\n      mul\n      or\n      swap1\n      sstore\n      pop\n        /* \"@openzeppelin/contracts/access/Ownable.sol\":3083:3091  newOwner */\n      dup2\n        /* \"@openzeppelin/contracts/access/Ownable.sol\":3052:3092  OwnershipTransferred(oldOwner, newOwner) */\n      0xffffffffffffffffffffffffffffffffffffffff\n      and\n        /* \"@openzeppelin/contracts/access/Ownable.sol\":3073:3081  oldOwner */\n      dup2\n        /* \"@openzeppelin/contracts/access/Ownable.sol\":3052:3092  OwnershipTransferred(oldOwner, newOwner) */\n      0xffffffffffffffffffffffffffffffffffffffff\n      and\n      0x8be0079c531659141344cd1fd0a4f28419497f9722a3daafe3b4186f6b6457e0\n      mload(0x40)\n      mload(0x40)\n      dup1\n      swap2\n      sub\n      swap1\n      log3\n        /* \"@openzeppelin/contracts/access/Ownable.sol\":2975:3099  {... */\n      pop\n        /* \"@openzeppelin/contracts/access/Ownable.sol\":2912:3099  function _transferOwnership(address newOwner) internal virtual {... */\n      pop\n      jump\t// out\n        /* \"@openzeppelin/contracts/token/ERC20/utils/SafeERC20.sol\":1219:1379  function safeTransfer(IERC20 token, address to, uint256 value) internal {... */\n    tag_351:\n        /* \"@openzeppelin/contracts/token/ERC20/utils/SafeERC20.sol\":1301:1372  _callOptionalReturn(token, abi.encodeCall(token.transfer, (to, value))) */\n      tag_402\n        /* \"@openzeppelin/contracts/token/ERC20/utils/SafeERC20.sol\":1321:1326  token */\n      dup4\n        /* \"@openzeppelin/contracts/token/ERC20/utils/SafeERC20.sol\":1343:1348  token */\n      dup5\n        /* \"@openzeppelin/contracts/token/ERC20/utils/SafeERC20.sol\":1343:1357  token.transfer */\n      0xffffffffffffffffffffffffffffffffffffffff\n      and\n      0xa9059cbb\n        /* \"@openzeppelin/contracts/token/ERC20/utils/SafeERC20.sol\":1360:1362  to */\n      dup6\n        /* \"@openzeppelin/contracts/token/ERC20/utils/SafeERC20.sol\":1364:1369  value */\n      dup6\n        /* \"@openzeppelin/contracts/token/ERC20/utils/SafeERC20.sol\":1328:1371  abi.encodeCall(token.transfer, (to, value)) */\n      add(0x24, mload(0x40))\n      tag_403\n      swap3\n      swap2\n      swap1\n      tag_404\n      jump\t// in\n    tag_403:\n      mload(0x40)\n      0x20\n      dup2\n      dup4\n      sub\n      sub\n      dup2\n      mstore\n      swap1\n      0x40\n      mstore\n      swap2\n      pop\n      0xe0\n      shl\n      0x20\n      dup3\n      add\n      dup1\n      mload\n      0xffffffffffffffffffffffffffffffffffffffffffffffffffffffff\n      dup4\n      dup2\n      dup4\n      and\n      or\n      dup4\n      mstore\n      pop\n      pop\n      pop\n      pop\n        /* \"@openzeppelin/contracts/token/ERC20/utils/SafeERC20.sol\":1301:1320  _callOptionalReturn */\n      tag_392\n        /* \"@openzeppelin/contracts/token/ERC20/utils/SafeERC20.sol\":1301:1372  _callOptionalReturn(token, abi.encodeCall(token.transfer, (to, value))) */\n      jump\t// in\n    tag_402:\n        /* \"@openzeppelin/contracts/token/ERC20/utils/SafeERC20.sol\":1219:1379  function safeTransfer(IERC20 token, address to, uint256 value) internal {... */\n      pop\n      pop\n      pop\n      jump\t// out\n        /* \"@openzeppelin/contracts/token/ERC20/utils/SafeERC20.sol\":8370:9090  function _callOptionalReturn(IERC20 token, bytes memory data) private {... */\n    tag_392:\n        /* \"@openzeppelin/contracts/token/ERC20/utils/SafeERC20.sol\":8450:8468  uint256 returnSize */\n      0x00\n        /* \"@openzeppelin/contracts/token/ERC20/utils/SafeERC20.sol\":8478:8497  uint256 returnValue */\n      0x00\n        /* \"@openzeppelin/contracts/token/ERC20/utils/SafeERC20.sol\":8616:8620  0x20 */\n      0x20\n        /* \"@openzeppelin/contracts/token/ERC20/utils/SafeERC20.sol\":8613:8614  0 */\n      0x00\n        /* \"@openzeppelin/contracts/token/ERC20/utils/SafeERC20.sol\":8606:8610  data */\n      dup5\n        /* \"@openzeppelin/contracts/token/ERC20/utils/SafeERC20.sol\":8600:8611  mload(data) */\n      mload\n        /* \"@openzeppelin/contracts/token/ERC20/utils/SafeERC20.sol\":8593:8597  0x20 */\n      0x20\n        /* \"@openzeppelin/contracts/token/ERC20/utils/SafeERC20.sol\":8587:8591  data */\n      dup7\n        /* \"@openzeppelin/contracts/token/ERC20/utils/SafeERC20.sol\":8583:8598  add(data, 0x20) */\n      add\n        /* \"@openzeppelin/contracts/token/ERC20/utils/SafeERC20.sol\":8580:8581  0 */\n      0x00\n        /* \"@openzeppelin/contracts/token/ERC20/utils/SafeERC20.sol\":8573:8578  token */\n      dup9\n        /* \"@openzeppelin/contracts/token/ERC20/utils/SafeERC20.sol\":8566:8571  gas() */\n      gas\n        /* \"@openzeppelin/contracts/token/ERC20/utils/SafeERC20.sol\":8561:8621  call(gas(), token, 0, add(data, 0x20), mload(data), 0, 0x20) */\n      call\n        /* \"@openzeppelin/contracts/token/ERC20/utils/SafeERC20.sol\":8673:8680  success */\n      dup1\n        /* \"@openzeppelin/contracts/token/ERC20/utils/SafeERC20.sol\":8663:8839  if iszero(success) {... */\n      tag_406\n      jumpi\n        /* \"@openzeppelin/contracts/token/ERC20/utils/SafeERC20.sol\":8717:8721  0x40 */\n      0x40\n        /* \"@openzeppelin/contracts/token/ERC20/utils/SafeERC20.sol\":8711:8722  mload(0x40) */\n      mload\n        /* \"@openzeppelin/contracts/token/ERC20/utils/SafeERC20.sol\":8762:8778  returndatasize() */\n      returndatasize\n        /* \"@openzeppelin/contracts/token/ERC20/utils/SafeERC20.sol\":8759:8760  0 */\n      0x00\n        /* \"@openzeppelin/contracts/token/ERC20/utils/SafeERC20.sol\":8754:8757  ptr */\n      dup3\n        /* \"@openzeppelin/contracts/token/ERC20/utils/SafeERC20.sol\":8739:8779  returndatacopy(ptr, 0, returndatasize()) */\n      returndatacopy\n        /* \"@openzeppelin/contracts/token/ERC20/utils/SafeERC20.sol\":8808:8824  returndatasize() */\n      returndatasize\n        /* \"@openzeppelin/contracts/token/ERC20/utils/SafeERC20.sol\":8803:8806  ptr */\n      dup2\n        /* \"@openzeppelin/contracts/token/ERC20/utils/SafeERC20.sol\":8796:8825  revert(ptr, returndatasize()) */\n      revert\n        /* \"@openzeppelin/contracts/token/ERC20/utils/SafeERC20.sol\":8663:8839  if iszero(success) {... */\n    tag_406:\n        /* \"@openzeppelin/contracts/token/ERC20/utils/SafeERC20.sol\":8866:8882  returndatasize() */\n      returndatasize\n        /* \"@openzeppelin/contracts/token/ERC20/utils/SafeERC20.sol\":8852:8882  returnSize := returndatasize() */\n      swap3\n      pop\n        /* \"@openzeppelin/contracts/token/ERC20/utils/SafeERC20.sol\":8916:8917  0 */\n      0x00\n        /* \"@openzeppelin/contracts/token/ERC20/utils/SafeERC20.sol\":8910:8918  mload(0) */\n      mload\n        /* \"@openzeppelin/contracts/token/ERC20/utils/SafeERC20.sol\":8895:8918  returnValue := mload(0) */\n      swap2\n      pop\n        /* \"@openzeppelin/contracts/token/ERC20/utils/SafeERC20.sol\":8532:8928  {... */\n      pop\n        /* \"@openzeppelin/contracts/token/ERC20/utils/SafeERC20.sol\":8956:8957  0 */\n      0x00\n        /* \"@openzeppelin/contracts/token/ERC20/utils/SafeERC20.sol\":8942:8952  returnSize */\n      dup3\n        /* \"@openzeppelin/contracts/token/ERC20/utils/SafeERC20.sol\":8942:8957  returnSize == 0 */\n      eq\n        /* \"@openzeppelin/contracts/token/ERC20/utils/SafeERC20.sol\":8942:9010  returnSize == 0 ? address(token).code.length == 0 : returnValue != 1 */\n      tag_407\n      jumpi\n        /* \"@openzeppelin/contracts/token/ERC20/utils/SafeERC20.sol\":9009:9010  1 */\n      0x01\n        /* \"@openzeppelin/contracts/token/ERC20/utils/SafeERC20.sol\":8994:9005  returnValue */\n      dup2\n        /* \"@openzeppelin/contracts/token/ERC20/utils/SafeERC20.sol\":8994:9010  returnValue != 1 */\n      eq\n      iszero\n        /* \"@openzeppelin/contracts/token/ERC20/utils/SafeERC20.sol\":8942:9010  returnSize == 0 ? address(token).code.length == 0 : returnValue != 1 */\n      jump(tag_408)\n    tag_407:\n        /* \"@openzeppelin/contracts/token/ERC20/utils/SafeERC20.sol\":8990:8991  0 */\n      0x00\n        /* \"@openzeppelin/contracts/token/ERC20/utils/SafeERC20.sol\":8968:8973  token */\n      dup5\n        /* \"@openzeppelin/contracts/token/ERC20/utils/SafeERC20.sol\":8960:8986  address(token).code.length */\n      0xffffffffffffffffffffffffffffffffffffffff\n      and\n      extcodesize\n        /* \"@openzeppelin/contracts/token/ERC20/utils/SafeERC20.sol\":8960:8991  address(token).code.length == 0 */\n      eq\n        /* \"@openzeppelin/contracts/token/ERC20/utils/SafeERC20.sol\":8942:9010  returnSize == 0 ? address(token).code.length == 0 : returnValue != 1 */\n    tag_408:\n        /* \"@openzeppelin/contracts/token/ERC20/utils/SafeERC20.sol\":8938:9084  if (returnSize == 0 ? address(token).code.length == 0 : returnValue != 1) {... */\n      iszero\n      tag_409\n      jumpi\n        /* \"@openzeppelin/contracts/token/ERC20/utils/SafeERC20.sol\":9066:9071  token */\n      dup4\n        /* \"@openzeppelin/contracts/token/ERC20/utils/SafeERC20.sol\":9033:9073  SafeERC20FailedOperation(address(token)) */\n      mload(0x40)\n      0x5274afe700000000000000000000000000000000000000000000000000000000\n      dup2\n      mstore\n      0x04\n      add\n      tag_410\n      swap2\n      swap1\n      tag_111\n      jump\t// in\n    tag_410:\n      mload(0x40)\n      dup1\n      swap2\n      sub\n      swap1\n      revert\n        /* \"@openzeppelin/contracts/token/ERC20/utils/SafeERC20.sol\":8938:9084  if (returnSize == 0 ? address(token).code.length == 0 : returnValue != 1) {... */\n    tag_409:\n        /* \"@openzeppelin/contracts/token/ERC20/utils/SafeERC20.sol\":8440:9090  {... */\n      pop\n      pop\n        /* \"@openzeppelin/contracts/token/ERC20/utils/SafeERC20.sol\":8370:9090  function _callOptionalReturn(IERC20 token, bytes memory data) private {... */\n      pop\n      pop\n      jump\t// out\n        /* \"@openzeppelin/contracts/utils/Context.sol\":656:752  function _msgSender() internal view virtual returns (address) {... */\n    tag_395:\n        /* \"@openzeppelin/contracts/utils/Context.sol\":709:716  address */\n      0x00\n        /* \"@openzeppelin/contracts/utils/Context.sol\":735:745  msg.sender */\n      caller\n        /* \"@openzeppelin/contracts/utils/Context.sol\":728:745  return msg.sender */\n      swap1\n      pop\n        /* \"@openzeppelin/contracts/utils/Context.sol\":656:752  function _msgSender() internal view virtual returns (address) {... */\n      swap1\n      jump\t// out\n        /* \"#utility.yul\":88:205   */\n    tag_413:\n        /* \"#utility.yul\":197:198   */\n      0x00\n        /* \"#utility.yul\":194:195   */\n      0x00\n        /* \"#utility.yul\":187:199   */\n      revert\n        /* \"#utility.yul\":334:460   */\n    tag_415:\n        /* \"#utility.yul\":371:378   */\n      0x00\n        /* \"#utility.yul\":411:453   */\n      0xffffffffffffffffffffffffffffffffffffffff\n        /* \"#utility.yul\":404:409   */\n      dup3\n        /* \"#utility.yul\":400:454   */\n      and\n        /* \"#utility.yul\":389:454   */\n      swap1\n      pop\n        /* \"#utility.yul\":334:460   */\n      swap2\n      swap1\n      pop\n      jump\t// out\n        /* \"#utility.yul\":466:562   */\n    tag_416:\n        /* \"#utility.yul\":503:510   */\n      0x00\n        /* \"#utility.yul\":532:556   */\n      tag_481\n        /* \"#utility.yul\":550:555   */\n      dup3\n        /* \"#utility.yul\":532:556   */\n      tag_415\n      jump\t// in\n    tag_481:\n        /* \"#utility.yul\":521:556   */\n      swap1\n      pop\n        /* \"#utility.yul\":466:562   */\n      swap2\n      swap1\n      pop\n      jump\t// out\n        /* \"#utility.yul\":568:690   */\n    tag_417:\n        /* \"#utility.yul\":641:665   */\n      tag_483\n        /* \"#utility.yul\":659:664   */\n      dup2\n        /* \"#utility.yul\":641:665   */\n      tag_416\n      jump\t// in\n    tag_483:\n        /* \"#utility.yul\":634:639   */\n      dup2\n        /* \"#utility.yul\":631:666   */\n      eq\n        /* \"#utility.yul\":621:684   */\n      tag_484\n      jumpi\n        /* \"#utility.yul\":680:681   */\n      0x00\n        /* \"#utility.yul\":677:678   */\n      0x00\n        /* \"#utility.yul\":670:682   */\n      revert\n        /* \"#utility.yul\":621:684   */\n    tag_484:\n        /* \"#utility.yul\":568:690   */\n      pop\n      jump\t// out\n        /* \"#utility.yul\":696:835   */\n    tag_418:\n        /* \"#utility.yul\":742:747   */\n      0x00\n        /* \"#utility.yul\":780:786   */\n      dup2\n        /* \"#utility.yul\":767:787   */\n      calldataload\n        /* \"#utility.yul\":758:787   */\n      swap1\n      pop\n        /* \"#utility.yul\":796:829   */\n      tag_486\n        /* \"#utility.yul\":823:828   */\n      dup2\n        /* \"#utility.yul\":796:829   */\n      tag_417\n      jump\t// in\n    tag_486:\n        /* \"#utility.yul\":696:835   */\n      swap3\n      swap2\n      pop\n      pop\n      jump\t// out\n        /* \"#utility.yul\":841:1170   */\n    tag_44:\n        /* \"#utility.yul\":900:906   */\n      0x00\n        /* \"#utility.yul\":949:951   */\n      0x20\n        /* \"#utility.yul\":937:946   */\n      dup3\n        /* \"#utility.yul\":928:935   */\n      dup5\n        /* \"#utility.yul\":924:947   */\n      sub\n        /* \"#utility.yul\":920:952   */\n      slt\n        /* \"#utility.yul\":917:1036   */\n      iszero\n      tag_488\n      jumpi\n        /* \"#utility.yul\":955:1034   */\n      tag_489\n      tag_413\n      jump\t// in\n    tag_489:\n        /* \"#utility.yul\":917:1036   */\n    tag_488:\n        /* \"#utility.yul\":1075:1076   */\n      0x00\n        /* \"#utility.yul\":1100:1153   */\n      tag_490\n        /* \"#utility.yul\":1145:1152   */\n      dup5\n        /* \"#utility.yul\":1136:1142   */\n      dup3\n        /* \"#utility.yul\":1125:1134   */\n      dup6\n        /* \"#utility.yul\":1121:1143   */\n      add\n        /* \"#utility.yul\":1100:1153   */\n      tag_418\n      jump\t// in\n    tag_490:\n        /* \"#utility.yul\":1090:1153   */\n      swap2\n      pop\n        /* \"#utility.yul\":1046:1163   */\n      pop\n        /* \"#utility.yul\":841:1170   */\n      swap3\n      swap2\n      pop\n      pop\n      jump\t// out\n        /* \"#utility.yul\":1176:1253   */\n    tag_419:\n        /* \"#utility.yul\":1213:1220   */\n      0x00\n        /* \"#utility.yul\":1242:1247   */\n      dup2\n        /* \"#utility.yul\":1231:1247   */\n      swap1\n      pop\n        /* \"#utility.yul\":1176:1253   */\n      swap2\n      swap1\n      pop\n      jump\t// out\n        /* \"#utility.yul\":1259:1377   */\n    tag_420:\n        /* \"#utility.yul\":1346:1370   */\n      tag_493\n        /* \"#utility.yul\":1364:1369   */\n      dup2\n        /* \"#utility.yul\":1346:1370   */\n      tag_419\n      jump\t// in\n    tag_493:\n        /* \"#utility.yul\":1341:1344   */\n      dup3\n        /* \"#utility.yul\":1334:1371   */\n      mstore\n        /* \"#utility.yul\":1259:1377   */\n      pop\n      pop\n      jump\t// out\n        /* \"#utility.yul\":1383:1605   */\n    tag_47:\n        /* \"#utility.yul\":1476:1480   */\n      0x00\n        /* \"#utility.yul\":1514:1516   */\n      0x20\n        /* \"#utility.yul\":1503:1512   */\n      dup3\n        /* \"#utility.yul\":1499:1517   */\n      add\n        /* \"#utility.yul\":1491:1517   */\n      swap1\n      pop\n        /* \"#utility.yul\":1527:1598   */\n      tag_495\n        /* \"#utility.yul\":1595:1596   */\n      0x00\n        /* \"#utility.yul\":1584:1593   */\n      dup4\n        /* \"#utility.yul\":1580:1597   */\n      add\n        /* \"#utility.yul\":1571:1577   */\n      dup5\n        /* \"#utility.yul\":1527:1598   */\n      tag_420\n      jump\t// in\n    tag_495:\n        /* \"#utility.yul\":1383:1605   */\n      swap3\n      swap2\n      pop\n      pop\n      jump\t// out\n        /* \"#utility.yul\":1611:1751   */\n    tag_421:\n        /* \"#utility.yul\":1704:1710   */\n      0x00\n        /* \"#utility.yul\":1738:1743   */\n      dup2\n        /* \"#utility.yul\":1732:1744   */\n      mload\n        /* \"#utility.yul\":1722:1744   */\n      swap1\n      pop\n        /* \"#utility.yul\":1611:1751   */\n      swap2\n      swap1\n      pop\n      jump\t// out\n        /* \"#utility.yul\":1757:1967   */\n    tag_422:\n        /* \"#utility.yul\":1882:1893   */\n      0x00\n        /* \"#utility.yul\":1916:1922   */\n      dup3\n        /* \"#utility.yul\":1911:1914   */\n      dup3\n        /* \"#utility.yul\":1904:1923   */\n      mstore\n        /* \"#utility.yul\":1956:1960   */\n      0x20\n        /* \"#utility.yul\":1951:1954   */\n      dup3\n        /* \"#utility.yul\":1947:1961   */\n      add\n        /* \"#utility.yul\":1932:1961   */\n      swap1\n      pop\n        /* \"#utility.yul\":1757:1967   */\n      swap3\n      swap2\n      pop\n      pop\n      jump\t// out\n        /* \"#utility.yul\":1973:2131   */\n    tag_423:\n        /* \"#utility.yul\":2066:2070   */\n      0x00\n        /* \"#utility.yul\":2089:2092   */\n      dup2\n        /* \"#utility.yul\":2081:2092   */\n      swap1\n      pop\n        /* \"#utility.yul\":2119:2123   */\n      0x20\n        /* \"#utility.yul\":2114:2117   */\n      dup3\n        /* \"#utility.yul\":2110:2124   */\n      add\n        /* \"#utility.yul\":2102:2124   */\n      swap1\n      pop\n        /* \"#utility.yul\":1973:2131   */\n      swap2\n      swap1\n      pop\n      jump\t// out\n        /* \"#utility.yul\":2137:2245   */\n    tag_424:\n        /* \"#utility.yul\":2214:2238   */\n      tag_500\n        /* \"#utility.yul\":2232:2237   */\n      dup2\n        /* \"#utility.yul\":2214:2238   */\n      tag_419\n      jump\t// in\n    tag_500:\n        /* \"#utility.yul\":2209:2212   */\n      dup3\n        /* \"#utility.yul\":2202:2239   */\n      mstore\n        /* \"#utility.yul\":2137:2245   */\n      pop\n      pop\n      jump\t// out\n        /* \"#utility.yul\":2251:2341   */\n    tag_425:\n        /* \"#utility.yul\":2285:2292   */\n      0x00\n        /* \"#utility.yul\":2328:2333   */\n      dup2\n        /* \"#utility.yul\":2321:2334   */\n      iszero\n        /* \"#utility.yul\":2314:2335   */\n      iszero\n        /* \"#utility.yul\":2303:2335   */\n      swap1\n      pop\n        /* \"#utility.yul\":2251:2341   */\n      swap2\n      swap1\n      pop\n      jump\t// out\n        /* \"#utility.yul\":2347:2446   */\n    tag_426:\n        /* \"#utility.yul\":2418:2439   */\n      tag_503\n        /* \"#utility.yul\":2433:2438   */\n      dup2\n        /* \"#utility.yul\":2418:2439   */\n      tag_425\n      jump\t// in\n    tag_503:\n        /* \"#utility.yul\":2413:2416   */\n      dup3\n        /* \"#utility.yul\":2406:2440   */\n      mstore\n        /* \"#utility.yul\":2347:2446   */\n      pop\n      pop\n      jump\t// out\n        /* \"#utility.yul\":2520:3738   */\n    tag_427:\n        /* \"#utility.yul\":2659:2663   */\n      0xc0\n        /* \"#utility.yul\":2654:2657   */\n      dup3\n        /* \"#utility.yul\":2650:2664   */\n      add\n        /* \"#utility.yul\":2748:2752   */\n      0x00\n        /* \"#utility.yul\":2741:2746   */\n      dup3\n        /* \"#utility.yul\":2737:2753   */\n      add\n        /* \"#utility.yul\":2731:2754   */\n      mload\n        /* \"#utility.yul\":2767:2830   */\n      tag_505\n        /* \"#utility.yul\":2824:2828   */\n      0x00\n        /* \"#utility.yul\":2819:2822   */\n      dup6\n        /* \"#utility.yul\":2815:2829   */\n      add\n        /* \"#utility.yul\":2801:2813   */\n      dup3\n        /* \"#utility.yul\":2767:2830   */\n      tag_424\n      jump\t// in\n    tag_505:\n        /* \"#utility.yul\":2674:2840   */\n      pop\n        /* \"#utility.yul\":2927:2931   */\n      0x20\n        /* \"#utility.yul\":2920:2925   */\n      dup3\n        /* \"#utility.yul\":2916:2932   */\n      add\n        /* \"#utility.yul\":2910:2933   */\n      mload\n        /* \"#utility.yul\":2946:3009   */\n      tag_506\n        /* \"#utility.yul\":3003:3007   */\n      0x20\n        /* \"#utility.yul\":2998:3001   */\n      dup6\n        /* \"#utility.yul\":2994:3008   */\n      add\n        /* \"#utility.yul\":2980:2992   */\n      dup3\n        /* \"#utility.yul\":2946:3009   */\n      tag_424\n      jump\t// in\n    tag_506:\n        /* \"#utility.yul\":2850:3019   */\n      pop\n        /* \"#utility.yul\":3107:3111   */\n      0x40\n        /* \"#utility.yul\":3100:3105   */\n      dup3\n        /* \"#utility.yul\":3096:3112   */\n      add\n        /* \"#utility.yul\":3090:3113   */\n      mload\n        /* \"#utility.yul\":3126:3189   */\n      tag_507\n        /* \"#utility.yul\":3183:3187   */\n      0x40\n        /* \"#utility.yul\":3178:3181   */\n      dup6\n        /* \"#utility.yul\":3174:3188   */\n      add\n        /* \"#utility.yul\":3160:3172   */\n      dup3\n        /* \"#utility.yul\":3126:3189   */\n      tag_424\n      jump\t// in\n    tag_507:\n        /* \"#utility.yul\":3029:3199   */\n      pop\n        /* \"#utility.yul\":3284:3288   */\n      0x60\n        /* \"#utility.yul\":3277:3282   */\n      dup3\n        /* \"#utility.yul\":3273:3289   */\n      add\n        /* \"#utility.yul\":3267:3290   */\n      mload\n        /* \"#utility.yul\":3303:3360   */\n      tag_508\n        /* \"#utility.yul\":3354:3358   */\n      0x60\n        /* \"#utility.yul\":3349:3352   */\n      dup6\n        /* \"#utility.yul\":3345:3359   */\n      add\n        /* \"#utility.yul\":3331:3343   */\n      dup3\n        /* \"#utility.yul\":3303:3360   */\n      tag_426\n      jump\t// in\n    tag_508:\n        /* \"#utility.yul\":3209:3370   */\n      pop\n        /* \"#utility.yul\":3459:3463   */\n      0x80\n        /* \"#utility.yul\":3452:3457   */\n      dup3\n        /* \"#utility.yul\":3448:3464   */\n      add\n        /* \"#utility.yul\":3442:3465   */\n      mload\n        /* \"#utility.yul\":3478:3535   */\n      tag_509\n        /* \"#utility.yul\":3529:3533   */\n      0x80\n        /* \"#utility.yul\":3524:3527   */\n      dup6\n        /* \"#utility.yul\":3520:3534   */\n      add\n        /* \"#utility.yul\":3506:3518   */\n      dup3\n        /* \"#utility.yul\":3478:3535   */\n      tag_426\n      jump\t// in\n    tag_509:\n        /* \"#utility.yul\":3380:3545   */\n      pop\n        /* \"#utility.yul\":3639:3643   */\n      0xa0\n        /* \"#utility.yul\":3632:3637   */\n      dup3\n        /* \"#utility.yul\":3628:3644   */\n      add\n        /* \"#utility.yul\":3622:3645   */\n      mload\n        /* \"#utility.yul\":3658:3721   */\n      tag_510\n        /* \"#utility.yul\":3715:3719   */\n      0xa0\n        /* \"#utility.yul\":3710:3713   */\n      dup6\n        /* \"#utility.yul\":3706:3720   */\n      add\n        /* \"#utility.yul\":3692:3704   */\n      dup3\n        /* \"#utility.yul\":3658:3721   */\n      tag_424\n      jump\t// in\n    tag_510:\n        /* \"#utility.yul\":3555:3731   */\n      pop\n        /* \"#utility.yul\":2628:3738   */\n      pop\n        /* \"#utility.yul\":2520:3738   */\n      pop\n      pop\n      jump\t// out\n        /* \"#utility.yul\":3744:4027   */\n    tag_428:\n        /* \"#utility.yul\":3865:3875   */\n      0x00\n        /* \"#utility.yul\":3886:3984   */\n      tag_512\n        /* \"#utility.yul\":3980:3983   */\n      dup4\n        /* \"#utility.yul\":3972:3978   */\n      dup4\n        /* \"#utility.yul\":3886:3984   */\n      tag_427\n      jump\t// in\n    tag_512:\n        /* \"#utility.yul\":4016:4020   */\n      0xc0\n        /* \"#utility.yul\":4011:4014   */\n      dup4\n        /* \"#utility.yul\":4007:4021   */\n      add\n        /* \"#utility.yul\":3993:4021   */\n      swap1\n      pop\n        /* \"#utility.yul\":3744:4027   */\n      swap3\n      swap2\n      pop\n      pop\n      jump\t// out\n        /* \"#utility.yul\":4033:4172   */\n    tag_429:\n        /* \"#utility.yul\":4129:4133   */\n      0x00\n        /* \"#utility.yul\":4161:4165   */\n      0x20\n        /* \"#utility.yul\":4156:4159   */\n      dup3\n        /* \"#utility.yul\":4152:4166   */\n      add\n        /* \"#utility.yul\":4144:4166   */\n      swap1\n      pop\n        /* \"#utility.yul\":4033:4172   */\n      swap2\n      swap1\n      pop\n      jump\t// out\n        /* \"#utility.yul\":4250:5190   */\n    tag_430:\n        /* \"#utility.yul\":4421:4424   */\n      0x00\n        /* \"#utility.yul\":4450:4530   */\n      tag_515\n        /* \"#utility.yul\":4524:4529   */\n      dup3\n        /* \"#utility.yul\":4450:4530   */\n      tag_421\n      jump\t// in\n    tag_515:\n        /* \"#utility.yul\":4546:4658   */\n      tag_516\n        /* \"#utility.yul\":4651:4657   */\n      dup2\n        /* \"#utility.yul\":4646:4649   */\n      dup6\n        /* \"#utility.yul\":4546:4658   */\n      tag_422\n      jump\t// in\n    tag_516:\n        /* \"#utility.yul\":4539:4658   */\n      swap4\n      pop\n        /* \"#utility.yul\":4682:4764   */\n      tag_517\n        /* \"#utility.yul\":4758:4763   */\n      dup4\n        /* \"#utility.yul\":4682:4764   */\n      tag_423\n      jump\t// in\n    tag_517:\n        /* \"#utility.yul\":4787:4794   */\n      dup1\n        /* \"#utility.yul\":4818:4819   */\n      0x00\n        /* \"#utility.yul\":4803:5165   */\n    tag_518:\n        /* \"#utility.yul\":4828:4834   */\n      dup4\n        /* \"#utility.yul\":4825:4826   */\n      dup2\n        /* \"#utility.yul\":4822:4835   */\n      lt\n        /* \"#utility.yul\":4803:5165   */\n      iszero\n      tag_520\n      jumpi\n        /* \"#utility.yul\":4904:4910   */\n      dup2\n        /* \"#utility.yul\":4898:4911   */\n      mload\n        /* \"#utility.yul\":4931:5046   */\n      tag_521\n        /* \"#utility.yul\":5042:5045   */\n      dup9\n        /* \"#utility.yul\":5027:5040   */\n      dup3\n        /* \"#utility.yul\":4931:5046   */\n      tag_428\n      jump\t// in\n    tag_521:\n        /* \"#utility.yul\":4924:5046   */\n      swap8\n      pop\n        /* \"#utility.yul\":5069:5155   */\n      tag_522\n        /* \"#utility.yul\":5148:5154   */\n      dup4\n        /* \"#utility.yul\":5069:5155   */\n      tag_429\n      jump\t// in\n    tag_522:\n        /* \"#utility.yul\":5059:5155   */\n      swap3\n      pop\n        /* \"#utility.yul\":4863:5165   */\n      pop\n        /* \"#utility.yul\":4850:4851   */\n      0x01\n        /* \"#utility.yul\":4847:4848   */\n      dup2\n        /* \"#utility.yul\":4843:4852   */\n      add\n        /* \"#utility.yul\":4838:4852   */\n      swap1\n      pop\n        /* \"#utility.yul\":4803:5165   */\n      jump(tag_518)\n    tag_520:\n        /* \"#utility.yul\":4807:4821   */\n      pop\n        /* \"#utility.yul\":5181:5184   */\n      dup6\n        /* \"#utility.yul\":5174:5184   */\n      swap4\n      pop\n        /* \"#utility.yul\":4426:5190   */\n      pop\n      pop\n      pop\n        /* \"#utility.yul\":4250:5190   */\n      swap3\n      swap2\n      pop\n      pop\n      jump\t// out\n        /* \"#utility.yul\":5196:5673   */\n    tag_52:\n        /* \"#utility.yul\":5391:5395   */\n      0x00\n        /* \"#utility.yul\":5429:5431   */\n      0x20\n        /* \"#utility.yul\":5418:5427   */\n      dup3\n        /* \"#utility.yul\":5414:5432   */\n      add\n        /* \"#utility.yul\":5406:5432   */\n      swap1\n      pop\n        /* \"#utility.yul\":5478:5487   */\n      dup2\n        /* \"#utility.yul\":5472:5476   */\n      dup2\n        /* \"#utility.yul\":5468:5488   */\n      sub\n        /* \"#utility.yul\":5464:5465   */\n      0x00\n        /* \"#utility.yul\":5453:5462   */\n      dup4\n        /* \"#utility.yul\":5449:5466   */\n      add\n        /* \"#utility.yul\":5442:5489   */\n      mstore\n        /* \"#utility.yul\":5506:5666   */\n      tag_524\n        /* \"#utility.yul\":5661:5665   */\n      dup2\n        /* \"#utility.yul\":5652:5658   */\n      dup5\n        /* \"#utility.yul\":5506:5666   */\n      tag_430\n      jump\t// in\n    tag_524:\n        /* \"#utility.yul\":5498:5666   */\n      swap1\n      pop\n        /* \"#utility.yul\":5196:5673   */\n      swap3\n      swap2\n      pop\n      pop\n      jump\t// out\n        /* \"#utility.yul\":5679:5801   */\n    tag_431:\n        /* \"#utility.yul\":5752:5776   */\n      tag_526\n        /* \"#utility.yul\":5770:5775   */\n      dup2\n        /* \"#utility.yul\":5752:5776   */\n      tag_419\n      jump\t// in\n    tag_526:\n        /* \"#utility.yul\":5745:5750   */\n      dup2\n        /* \"#utility.yul\":5742:5777   */\n      eq\n        /* \"#utility.yul\":5732:5795   */\n      tag_527\n      jumpi\n        /* \"#utility.yul\":5791:5792   */\n      0x00\n        /* \"#utility.yul\":5788:5789   */\n      0x00\n        /* \"#utility.yul\":5781:5793   */\n      revert\n        /* \"#utility.yul\":5732:5795   */\n    tag_527:\n        /* \"#utility.yul\":5679:5801   */\n      pop\n      jump\t// out\n        /* \"#utility.yul\":5807:5946   */\n    tag_432:\n        /* \"#utility.yul\":5853:5858   */\n      0x00\n        /* \"#utility.yul\":5891:5897   */\n      dup2\n        /* \"#utility.yul\":5878:5898   */\n      calldataload\n        /* \"#utility.yul\":5869:5898   */\n      swap1\n      pop\n        /* \"#utility.yul\":5907:5940   */\n      tag_529\n        /* \"#utility.yul\":5934:5939   */\n      dup2\n        /* \"#utility.yul\":5907:5940   */\n      tag_431\n      jump\t// in\n    tag_529:\n        /* \"#utility.yul\":5807:5946   */\n      swap3\n      swap2\n      pop\n      pop\n      jump\t// out\n        /* \"#utility.yul\":5952:6426   */\n    tag_55:\n        /* \"#utility.yul\":6020:6026   */\n      0x00\n        /* \"#utility.yul\":6028:6034   */\n      0x00\n        /* \"#utility.yul\":6077:6079   */\n      0x40\n        /* \"#utility.yul\":6065:6074   */\n      dup4\n        /* \"#utility.yul\":6056:6063   */\n      dup6\n        /* \"#utility.yul\":6052:6075   */\n      sub\n        /* \"#utility.yul\":6048:6080   */\n      slt\n        /* \"#utility.yul\":6045:6164   */\n      iszero\n      tag_531\n      jumpi\n        /* \"#utility.yul\":6083:6162   */\n      tag_532\n      tag_413\n      jump\t// in\n    tag_532:\n        /* \"#utility.yul\":6045:6164   */\n    tag_531:\n        /* \"#utility.yul\":6203:6204   */\n      0x00\n        /* \"#utility.yul\":6228:6281   */\n      tag_533\n        /* \"#utility.yul\":6273:6280   */\n      dup6\n        /* \"#utility.yul\":6264:6270   */\n      dup3\n        /* \"#utility.yul\":6253:6262   */\n      dup7\n        /* \"#utility.yul\":6249:6271   */\n      add\n        /* \"#utility.yul\":6228:6281   */\n      tag_418\n      jump\t// in\n    tag_533:\n        /* \"#utility.yul\":6218:6281   */\n      swap3\n      pop\n        /* \"#utility.yul\":6174:6291   */\n      pop\n        /* \"#utility.yul\":6330:6332   */\n      0x20\n        /* \"#utility.yul\":6356:6409   */\n      tag_534\n        /* \"#utility.yul\":6401:6408   */\n      dup6\n        /* \"#utility.yul\":6392:6398   */\n      dup3\n        /* \"#utility.yul\":6381:6390   */\n      dup7\n        /* \"#utility.yul\":6377:6399   */\n      add\n        /* \"#utility.yul\":6356:6409   */\n      tag_432\n      jump\t// in\n    tag_534:\n        /* \"#utility.yul\":6346:6409   */\n      swap2\n      pop\n        /* \"#utility.yul\":6301:6419   */\n      pop\n        /* \"#utility.yul\":5952:6426   */\n      swap3\n      pop\n      swap3\n      swap1\n      pop\n      jump\t// out\n        /* \"#utility.yul\":6432:6761   */\n    tag_66:\n        /* \"#utility.yul\":6491:6497   */\n      0x00\n        /* \"#utility.yul\":6540:6542   */\n      0x20\n        /* \"#utility.yul\":6528:6537   */\n      dup3\n        /* \"#utility.yul\":6519:6526   */\n      dup5\n        /* \"#utility.yul\":6515:6538   */\n      sub\n        /* \"#utility.yul\":6511:6543   */\n      slt\n        /* \"#utility.yul\":6508:6627   */\n      iszero\n      tag_536\n      jumpi\n        /* \"#utility.yul\":6546:6625   */\n      tag_537\n      tag_413\n      jump\t// in\n    tag_537:\n        /* \"#utility.yul\":6508:6627   */\n    tag_536:\n        /* \"#utility.yul\":6666:6667   */\n      0x00\n        /* \"#utility.yul\":6691:6744   */\n      tag_538\n        /* \"#utility.yul\":6736:6743   */\n      dup5\n        /* \"#utility.yul\":6727:6733   */\n      dup3\n        /* \"#utility.yul\":6716:6725   */\n      dup6\n        /* \"#utility.yul\":6712:6734   */\n      add\n        /* \"#utility.yul\":6691:6744   */\n      tag_432\n      jump\t// in\n    tag_538:\n        /* \"#utility.yul\":6681:6744   */\n      swap2\n      pop\n        /* \"#utility.yul\":6637:6754   */\n      pop\n        /* \"#utility.yul\":6432:6761   */\n      swap3\n      swap2\n      pop\n      pop\n      jump\t// out\n        /* \"#utility.yul\":6767:6883   */\n    tag_433:\n        /* \"#utility.yul\":6837:6858   */\n      tag_540\n        /* \"#utility.yul\":6852:6857   */\n      dup2\n        /* \"#utility.yul\":6837:6858   */\n      tag_425\n      jump\t// in\n    tag_540:\n        /* \"#utility.yul\":6830:6835   */\n      dup2\n        /* \"#utility.yul\":6827:6859   */\n      eq\n        /* \"#utility.yul\":6817:6877   */\n      tag_541\n      jumpi\n        /* \"#utility.yul\":6873:6874   */\n      0x00\n        /* \"#utility.yul\":6870:6871   */\n      0x00\n        /* \"#utility.yul\":6863:6875   */\n      revert\n        /* \"#utility.yul\":6817:6877   */\n    tag_541:\n        /* \"#utility.yul\":6767:6883   */\n      pop\n      jump\t// out\n        /* \"#utility.yul\":6889:7022   */\n    tag_434:\n        /* \"#utility.yul\":6932:6937   */\n      0x00\n        /* \"#utility.yul\":6970:6976   */\n      dup2\n        /* \"#utility.yul\":6957:6977   */\n      calldataload\n        /* \"#utility.yul\":6948:6977   */\n      swap1\n      pop\n        /* \"#utility.yul\":6986:7016   */\n      tag_543\n        /* \"#utility.yul\":7010:7015   */\n      dup2\n        /* \"#utility.yul\":6986:7016   */\n      tag_433\n      jump\t// in\n    tag_543:\n        /* \"#utility.yul\":6889:7022   */\n      swap3\n      swap2\n      pop\n      pop\n      jump\t// out\n        /* \"#utility.yul\":7028:7641   */\n    tag_74:\n        /* \"#utility.yul\":7102:7108   */\n      0x00\n        /* \"#utility.yul\":7110:7116   */\n      0x00\n        /* \"#utility.yul\":7118:7124   */\n      0x00\n        /* \"#utility.yul\":7167:7169   */\n      0x60\n        /* \"#utility.yul\":7155:7164   */\n      dup5\n        /* \"#utility.yul\":7146:7153   */\n      dup7\n        /* \"#utility.yul\":7142:7165   */\n      sub\n        /* \"#utility.yul\":7138:7170   */\n      slt\n        /* \"#utility.yul\":7135:7254   */\n      iszero\n      tag_545\n      jumpi\n        /* \"#utility.yul\":7173:7252   */\n      tag_546\n      tag_413\n      jump\t// in\n    tag_546:\n        /* \"#utility.yul\":7135:7254   */\n    tag_545:\n        /* \"#utility.yul\":7293:7294   */\n      0x00\n        /* \"#utility.yul\":7318:7371   */\n      tag_547\n        /* \"#utility.yul\":7363:7370   */\n      dup7\n        /* \"#utility.yul\":7354:7360   */\n      dup3\n        /* \"#utility.yul\":7343:7352   */\n      dup8\n        /* \"#utility.yul\":7339:7361   */\n      add\n        /* \"#utility.yul\":7318:7371   */\n      tag_432\n      jump\t// in\n    tag_547:\n        /* \"#utility.yul\":7308:7371   */\n      swap4\n      pop\n        /* \"#utility.yul\":7264:7381   */\n      pop\n        /* \"#utility.yul\":7420:7422   */\n      0x20\n        /* \"#utility.yul\":7446:7499   */\n      tag_548\n        /* \"#utility.yul\":7491:7498   */\n      dup7\n        /* \"#utility.yul\":7482:7488   */\n      dup3\n        /* \"#utility.yul\":7471:7480   */\n      dup8\n        /* \"#utility.yul\":7467:7489   */\n      add\n        /* \"#utility.yul\":7446:7499   */\n      tag_432\n      jump\t// in\n    tag_548:\n        /* \"#utility.yul\":7436:7499   */\n      swap3\n      pop\n        /* \"#utility.yul\":7391:7509   */\n      pop\n        /* \"#utility.yul\":7548:7550   */\n      0x40\n        /* \"#utility.yul\":7574:7624   */\n      tag_549\n        /* \"#utility.yul\":7616:7623   */\n      dup7\n        /* \"#utility.yul\":7607:7613   */\n      dup3\n        /* \"#utility.yul\":7596:7605   */\n      dup8\n        /* \"#utility.yul\":7592:7614   */\n      add\n        /* \"#utility.yul\":7574:7624   */\n      tag_434\n      jump\t// in\n    tag_549:\n        /* \"#utility.yul\":7564:7624   */\n      swap2\n      pop\n        /* \"#utility.yul\":7519:7634   */\n      pop\n        /* \"#utility.yul\":7028:7641   */\n      swap3\n      pop\n      swap3\n      pop\n      swap3\n      jump\t// out\n        /* \"#utility.yul\":7647:7756   */\n    tag_435:\n        /* \"#utility.yul\":7728:7749   */\n      tag_551\n        /* \"#utility.yul\":7743:7748   */\n      dup2\n        /* \"#utility.yul\":7728:7749   */\n      tag_425\n      jump\t// in\n    tag_551:\n        /* \"#utility.yul\":7723:7726   */\n      dup3\n        /* \"#utility.yul\":7716:7750   */\n      mstore\n        /* \"#utility.yul\":7647:7756   */\n      pop\n      pop\n      jump\t// out\n        /* \"#utility.yul\":7762:8513   */\n    tag_80:\n        /* \"#utility.yul\":7983:7987   */\n      0x00\n        /* \"#utility.yul\":8021:8024   */\n      0xc0\n        /* \"#utility.yul\":8010:8019   */\n      dup3\n        /* \"#utility.yul\":8006:8025   */\n      add\n        /* \"#utility.yul\":7998:8025   */\n      swap1\n      pop\n        /* \"#utility.yul\":8035:8106   */\n      tag_553\n        /* \"#utility.yul\":8103:8104   */\n      0x00\n        /* \"#utility.yul\":8092:8101   */\n      dup4\n        /* \"#utility.yul\":8088:8105   */\n      add\n        /* \"#utility.yul\":8079:8085   */\n      dup10\n        /* \"#utility.yul\":8035:8106   */\n      tag_420\n      jump\t// in\n    tag_553:\n        /* \"#utility.yul\":8116:8188   */\n      tag_554\n        /* \"#utility.yul\":8184:8186   */\n      0x20\n        /* \"#utility.yul\":8173:8182   */\n      dup4\n        /* \"#utility.yul\":8169:8187   */\n      add\n        /* \"#utility.yul\":8160:8166   */\n      dup9\n        /* \"#utility.yul\":8116:8188   */\n      tag_420\n      jump\t// in\n    tag_554:\n        /* \"#utility.yul\":8198:8270   */\n      tag_555\n        /* \"#utility.yul\":8266:8268   */\n      0x40\n        /* \"#utility.yul\":8255:8264   */\n      dup4\n        /* \"#utility.yul\":8251:8269   */\n      add\n        /* \"#utility.yul\":8242:8248   */\n      dup8\n        /* \"#utility.yul\":8198:8270   */\n      tag_420\n      jump\t// in\n    tag_555:\n        /* \"#utility.yul\":8280:8346   */\n      tag_556\n        /* \"#utility.yul\":8342:8344   */\n      0x60\n        /* \"#utility.yul\":8331:8340   */\n      dup4\n        /* \"#utility.yul\":8327:8345   */\n      add\n        /* \"#utility.yul\":8318:8324   */\n      dup7\n        /* \"#utility.yul\":8280:8346   */\n      tag_435\n      jump\t// in\n    tag_556:\n        /* \"#utility.yul\":8356:8423   */\n      tag_557\n        /* \"#utility.yul\":8418:8421   */\n      0x80\n        /* \"#utility.yul\":8407:8416   */\n      dup4\n        /* \"#utility.yul\":8403:8422   */\n      add\n        /* \"#utility.yul\":8394:8400   */\n      dup6\n        /* \"#utility.yul\":8356:8423   */\n      tag_435\n      jump\t// in\n    tag_557:\n        /* \"#utility.yul\":8433:8506   */\n      tag_558\n        /* \"#utility.yul\":8501:8504   */\n      0xa0\n        /* \"#utility.yul\":8490:8499   */\n      dup4\n        /* \"#utility.yul\":8486:8505   */\n      add\n        /* \"#utility.yul\":8477:8483   */\n      dup5\n        /* \"#utility.yul\":8433:8506   */\n      tag_420\n      jump\t// in\n    tag_558:\n        /* \"#utility.yul\":7762:8513   */\n      swap8\n      swap7\n      pop\n      pop\n      pop\n      pop\n      pop\n      pop\n      pop\n      jump\t// out\n        /* \"#utility.yul\":8519:8993   */\n    tag_83:\n        /* \"#utility.yul\":8587:8593   */\n      0x00\n        /* \"#utility.yul\":8595:8601   */\n      0x00\n        /* \"#utility.yul\":8644:8646   */\n      0x40\n        /* \"#utility.yul\":8632:8641   */\n      dup4\n        /* \"#utility.yul\":8623:8630   */\n      dup6\n        /* \"#utility.yul\":8619:8642   */\n      sub\n        /* \"#utility.yul\":8615:8647   */\n      slt\n        /* \"#utility.yul\":8612:8731   */\n      iszero\n      tag_560\n      jumpi\n        /* \"#utility.yul\":8650:8729   */\n      tag_561\n      tag_413\n      jump\t// in\n    tag_561:\n        /* \"#utility.yul\":8612:8731   */\n    tag_560:\n        /* \"#utility.yul\":8770:8771   */\n      0x00\n        /* \"#utility.yul\":8795:8848   */\n      tag_562\n        /* \"#utility.yul\":8840:8847   */\n      dup6\n        /* \"#utility.yul\":8831:8837   */\n      dup3\n        /* \"#utility.yul\":8820:8829   */\n      dup7\n        /* \"#utility.yul\":8816:8838   */\n      add\n        /* \"#utility.yul\":8795:8848   */\n      tag_432\n      jump\t// in\n    tag_562:\n        /* \"#utility.yul\":8785:8848   */\n      swap3\n      pop\n        /* \"#utility.yul\":8741:8858   */\n      pop\n        /* \"#utility.yul\":8897:8899   */\n      0x20\n        /* \"#utility.yul\":8923:8976   */\n      tag_563\n        /* \"#utility.yul\":8968:8975   */\n      dup6\n        /* \"#utility.yul\":8959:8965   */\n      dup3\n        /* \"#utility.yul\":8948:8957   */\n      dup7\n        /* \"#utility.yul\":8944:8966   */\n      add\n        /* \"#utility.yul\":8923:8976   */\n      tag_432\n      jump\t// in\n    tag_563:\n        /* \"#utility.yul\":8913:8976   */\n      swap2\n      pop\n        /* \"#utility.yul\":8868:8986   */\n      pop\n        /* \"#utility.yul\":8519:8993   */\n      swap3\n      pop\n      swap3\n      swap1\n      pop\n      jump\t// out\n        /* \"#utility.yul\":8999:9209   */\n    tag_88:\n        /* \"#utility.yul\":9086:9090   */\n      0x00\n        /* \"#utility.yul\":9124:9126   */\n      0x20\n        /* \"#utility.yul\":9113:9122   */\n      dup3\n        /* \"#utility.yul\":9109:9127   */\n      add\n        /* \"#utility.yul\":9101:9127   */\n      swap1\n      pop\n        /* \"#utility.yul\":9137:9202   */\n      tag_565\n        /* \"#utility.yul\":9199:9200   */\n      0x00\n        /* \"#utility.yul\":9188:9197   */\n      dup4\n        /* \"#utility.yul\":9184:9201   */\n      add\n        /* \"#utility.yul\":9175:9181   */\n      dup5\n        /* \"#utility.yul\":9137:9202   */\n      tag_435\n      jump\t// in\n    tag_565:\n        /* \"#utility.yul\":8999:9209   */\n      swap3\n      swap2\n      pop\n      pop\n      jump\t// out\n        /* \"#utility.yul\":9215:9275   */\n    tag_436:\n        /* \"#utility.yul\":9243:9246   */\n      0x00\n        /* \"#utility.yul\":9264:9269   */\n      dup2\n        /* \"#utility.yul\":9257:9269   */\n      swap1\n      pop\n        /* \"#utility.yul\":9215:9275   */\n      swap2\n      swap1\n      pop\n      jump\t// out\n        /* \"#utility.yul\":9281:9423   */\n    tag_437:\n        /* \"#utility.yul\":9331:9340   */\n      0x00\n        /* \"#utility.yul\":9364:9417   */\n      tag_568\n        /* \"#utility.yul\":9382:9416   */\n      tag_569\n        /* \"#utility.yul\":9391:9415   */\n      tag_570\n        /* \"#utility.yul\":9409:9414   */\n      dup5\n        /* \"#utility.yul\":9391:9415   */\n      tag_415\n      jump\t// in\n    tag_570:\n        /* \"#utility.yul\":9382:9416   */\n      tag_436\n      jump\t// in\n    tag_569:\n        /* \"#utility.yul\":9364:9417   */\n      tag_415\n      jump\t// in\n    tag_568:\n        /* \"#utility.yul\":9351:9417   */\n      swap1\n      pop\n        /* \"#utility.yul\":9281:9423   */\n      swap2\n      swap1\n      pop\n      jump\t// out\n        /* \"#utility.yul\":9429:9555   */\n    tag_438:\n        /* \"#utility.yul\":9479:9488   */\n      0x00\n        /* \"#utility.yul\":9512:9549   */\n      tag_572\n        /* \"#utility.yul\":9543:9548   */\n      dup3\n        /* \"#utility.yul\":9512:9549   */\n      tag_437\n      jump\t// in\n    tag_572:\n        /* \"#utility.yul\":9499:9549   */\n      swap1\n      pop\n        /* \"#utility.yul\":9429:9555   */\n      swap2\n      swap1\n      pop\n      jump\t// out\n        /* \"#utility.yul\":9561:9701   */\n    tag_439:\n        /* \"#utility.yul\":9625:9634   */\n      0x00\n        /* \"#utility.yul\":9658:9695   */\n      tag_574\n        /* \"#utility.yul\":9689:9694   */\n      dup3\n        /* \"#utility.yul\":9658:9695   */\n      tag_438\n      jump\t// in\n    tag_574:\n        /* \"#utility.yul\":9645:9695   */\n      swap1\n      pop\n        /* \"#utility.yul\":9561:9701   */\n      swap2\n      swap1\n      pop\n      jump\t// out\n        /* \"#utility.yul\":9707:9866   */\n    tag_440:\n        /* \"#utility.yul\":9808:9859   */\n      tag_576\n        /* \"#utility.yul\":9853:9858   */\n      dup2\n        /* \"#utility.yul\":9808:9859   */\n      tag_439\n      jump\t// in\n    tag_576:\n        /* \"#utility.yul\":9803:9806   */\n      dup3\n        /* \"#utility.yul\":9796:9860   */\n      mstore\n        /* \"#utility.yul\":9707:9866   */\n      pop\n      pop\n      jump\t// out\n        /* \"#utility.yul\":9872:10122   */\n    tag_98:\n        /* \"#utility.yul\":9979:9983   */\n      0x00\n        /* \"#utility.yul\":10017:10019   */\n      0x20\n        /* \"#utility.yul\":10006:10015   */\n      dup3\n        /* \"#utility.yul\":10002:10020   */\n      add\n        /* \"#utility.yul\":9994:10020   */\n      swap1\n      pop\n        /* \"#utility.yul\":10030:10115   */\n      tag_578\n        /* \"#utility.yul\":10112:10113   */\n      0x00\n        /* \"#utility.yul\":10101:10110   */\n      dup4\n        /* \"#utility.yul\":10097:10114   */\n      add\n        /* \"#utility.yul\":10088:10094   */\n      dup5\n        /* \"#utility.yul\":10030:10115   */\n      tag_440\n      jump\t// in\n    tag_578:\n        /* \"#utility.yul\":9872:10122   */\n      swap3\n      swap2\n      pop\n      pop\n      jump\t// out\n        /* \"#utility.yul\":10128:10246   */\n    tag_441:\n        /* \"#utility.yul\":10215:10239   */\n      tag_580\n        /* \"#utility.yul\":10233:10238   */\n      dup2\n        /* \"#utility.yul\":10215:10239   */\n      tag_416\n      jump\t// in\n    tag_580:\n        /* \"#utility.yul\":10210:10213   */\n      dup3\n        /* \"#utility.yul\":10203:10240   */\n      mstore\n        /* \"#utility.yul\":10128:10246   */\n      pop\n      pop\n      jump\t// out\n        /* \"#utility.yul\":10252:10474   */\n    tag_111:\n        /* \"#utility.yul\":10345:10349   */\n      0x00\n        /* \"#utility.yul\":10383:10385   */\n      0x20\n        /* \"#utility.yul\":10372:10381   */\n      dup3\n        /* \"#utility.yul\":10368:10386   */\n      add\n        /* \"#utility.yul\":10360:10386   */\n      swap1\n      pop\n        /* \"#utility.yul\":10396:10467   */\n      tag_582\n        /* \"#utility.yul\":10464:10465   */\n      0x00\n        /* \"#utility.yul\":10453:10462   */\n      dup4\n        /* \"#utility.yul\":10449:10466   */\n      add\n        /* \"#utility.yul\":10440:10446   */\n      dup5\n        /* \"#utility.yul\":10396:10467   */\n      tag_441\n      jump\t// in\n    tag_582:\n        /* \"#utility.yul\":10252:10474   */\n      swap3\n      swap2\n      pop\n      pop\n      jump\t// out\n        /* \"#utility.yul\":10480:10649   */\n    tag_442:\n        /* \"#utility.yul\":10564:10575   */\n      0x00\n        /* \"#utility.yul\":10598:10604   */\n      dup3\n        /* \"#utility.yul\":10593:10596   */\n      dup3\n        /* \"#utility.yul\":10586:10605   */\n      mstore\n        /* \"#utility.yul\":10638:10642   */\n      0x20\n        /* \"#utility.yul\":10633:10636   */\n      dup3\n        /* \"#utility.yul\":10629:10643   */\n      add\n        /* \"#utility.yul\":10614:10643   */\n      swap1\n      pop\n        /* \"#utility.yul\":10480:10649   */\n      swap3\n      swap2\n      pop\n      pop\n      jump\t// out\n        /* \"#utility.yul\":10655:10820   */\n    tag_443:\n        /* \"#utility.yul\":10795:10812   */\n      0x496e76616c6964206163636f756e740000000000000000000000000000000000\n        /* \"#utility.yul\":10791:10792   */\n      0x00\n        /* \"#utility.yul\":10783:10789   */\n      dup3\n        /* \"#utility.yul\":10779:10793   */\n      add\n        /* \"#utility.yul\":10772:10813   */\n      mstore\n        /* \"#utility.yul\":10655:10820   */\n      pop\n      jump\t// out\n        /* \"#utility.yul\":10826:11192   */\n    tag_444:\n        /* \"#utility.yul\":10968:10971   */\n      0x00\n        /* \"#utility.yul\":10989:11056   */\n      tag_586\n        /* \"#utility.yul\":11053:11055   */\n      0x0f\n        /* \"#utility.yul\":11048:11051   */\n      dup4\n        /* \"#utility.yul\":10989:11056   */\n      tag_442\n      jump\t// in\n    tag_586:\n        /* \"#utility.yul\":10982:11056   */\n      swap2\n      pop\n        /* \"#utility.yul\":11065:11158   */\n      tag_587\n        /* \"#utility.yul\":11154:11157   */\n      dup3\n        /* \"#utility.yul\":11065:11158   */\n      tag_443\n      jump\t// in\n    tag_587:\n        /* \"#utility.yul\":11183:11185   */\n      0x20\n        /* \"#utility.yul\":11178:11181   */\n      dup3\n        /* \"#utility.yul\":11174:11186   */\n      add\n        /* \"#utility.yul\":11167:11186   */\n      swap1\n      pop\n        /* \"#utility.yul\":10826:11192   */\n      swap2\n      swap1\n      pop\n      jump\t// out\n        /* \"#utility.yul\":11198:11617   */\n    tag_160:\n        /* \"#utility.yul\":11364:11368   */\n      0x00\n        /* \"#utility.yul\":11402:11404   */\n      0x20\n        /* \"#utility.yul\":11391:11400   */\n      dup3\n        /* \"#utility.yul\":11387:11405   */\n      add\n        /* \"#utility.yul\":11379:11405   */\n      swap1\n      pop\n        /* \"#utility.yul\":11451:11460   */\n      dup2\n        /* \"#utility.yul\":11445:11449   */\n      dup2\n        /* \"#utility.yul\":11441:11461   */\n      sub\n        /* \"#utility.yul\":11437:11438   */\n      0x00\n        /* \"#utility.yul\":11426:11435   */\n      dup4\n        /* \"#utility.yul\":11422:11439   */\n      add\n        /* \"#utility.yul\":11415:11462   */\n      mstore\n        /* \"#utility.yul\":11479:11610   */\n      tag_589\n        /* \"#utility.yul\":11605:11609   */\n      dup2\n        /* \"#utility.yul\":11479:11610   */\n      tag_444\n      jump\t// in\n    tag_589:\n        /* \"#utility.yul\":11471:11610   */\n      swap1\n      pop\n        /* \"#utility.yul\":11198:11617   */\n      swap2\n      swap1\n      pop\n      jump\t// out\n        /* \"#utility.yul\":11623:11792   */\n    tag_445:\n        /* \"#utility.yul\":11763:11784   */\n      0x496e76616c6964207374616b6520696e64657800000000000000000000000000\n        /* \"#utility.yul\":11759:11760   */\n      0x00\n        /* \"#utility.yul\":11751:11757   */\n      dup3\n        /* \"#utility.yul\":11747:11761   */\n      add\n        /* \"#utility.yul\":11740:11785   */\n      mstore\n        /* \"#utility.yul\":11623:11792   */\n      pop\n      jump\t// out\n        /* \"#utility.yul\":11798:12164   */\n    tag_446:\n        /* \"#utility.yul\":11940:11943   */\n      0x00\n        /* \"#utility.yul\":11961:12028   */\n      tag_592\n        /* \"#utility.yul\":12025:12027   */\n      0x13\n        /* \"#utility.yul\":12020:12023   */\n      dup4\n        /* \"#utility.yul\":11961:12028   */\n      tag_442\n      jump\t// in\n    tag_592:\n        /* \"#utility.yul\":11954:12028   */\n      swap2\n      pop\n        /* \"#utility.yul\":12037:12130   */\n      tag_593\n        /* \"#utility.yul\":12126:12129   */\n      dup3\n        /* \"#utility.yul\":12037:12130   */\n      tag_445\n      jump\t// in\n    tag_593:\n        /* \"#utility.yul\":12155:12157   */\n      0x20\n        /* \"#utility.yul\":12150:12153   */\n      dup3\n        /* \"#utility.yul\":12146:12158   */\n      add\n        /* \"#utility.yul\":12139:12158   */\n      swap1\n      pop\n        /* \"#utility.yul\":11798:12164   */\n      swap2\n      swap1\n      pop\n      jump\t// out\n        /* \"#utility.yul\":12170:12589   */\n    tag_163:\n        /* \"#utility.yul\":12336:12340   */\n      0x00\n        /* \"#utility.yul\":12374:12376   */\n      0x20\n        /* \"#utility.yul\":12363:12372   */\n      dup3\n        /* \"#utility.yul\":12359:12377   */\n      add\n        /* \"#utility.yul\":12351:12377   */\n      swap1\n      pop\n        /* \"#utility.yul\":12423:12432   */\n      dup2\n        /* \"#utility.yul\":12417:12421   */\n      dup2\n        /* \"#utility.yul\":12413:12433   */\n      sub\n        /* \"#utility.yul\":12409:12410   */\n      0x00\n        /* \"#utility.yul\":12398:12407   */\n      dup4\n        /* \"#utility.yul\":12394:12411   */\n      add\n        /* \"#utility.yul\":12387:12434   */\n      mstore\n        /* \"#utility.yul\":12451:12582   */\n      tag_595\n        /* \"#utility.yul\":12577:12581   */\n      dup2\n        /* \"#utility.yul\":12451:12582   */\n      tag_446\n      jump\t// in\n    tag_595:\n        /* \"#utility.yul\":12443:12582   */\n      swap1\n      pop\n        /* \"#utility.yul\":12170:12589   */\n      swap2\n      swap1\n      pop\n      jump\t// out\n        /* \"#utility.yul\":12595:12775   */\n    tag_166:\n        /* \"#utility.yul\":12643:12720   */\n      0x4e487b7100000000000000000000000000000000000000000000000000000000\n        /* \"#utility.yul\":12640:12641   */\n      0x00\n        /* \"#utility.yul\":12633:12721   */\n      mstore\n        /* \"#utility.yul\":12740:12744   */\n      0x32\n        /* \"#utility.yul\":12737:12738   */\n      0x04\n        /* \"#utility.yul\":12730:12745   */\n      mstore\n        /* \"#utility.yul\":12764:12768   */\n      0x24\n        /* \"#utility.yul\":12761:12762   */\n      0x00\n        /* \"#utility.yul\":12754:12769   */\n      revert\n        /* \"#utility.yul\":12781:12946   */\n    tag_447:\n        /* \"#utility.yul\":12921:12938   */\n      0x416c726561647920636c61696d65640000000000000000000000000000000000\n        /* \"#utility.yul\":12917:12918   */\n      0x00\n        /* \"#utility.yul\":12909:12915   */\n      dup3\n        /* \"#utility.yul\":12905:12919   */\n      add\n        /* \"#utility.yul\":12898:12939   */\n      mstore\n        /* \"#utility.yul\":12781:12946   */\n      pop\n      jump\t// out\n        /* \"#utility.yul\":12952:13318   */\n    tag_448:\n        /* \"#utility.yul\":13094:13097   */\n      0x00\n        /* \"#utility.yul\":13115:13182   */\n      tag_599\n        /* \"#utility.yul\":13179:13181   */\n      0x0f\n        /* \"#utility.yul\":13174:13177   */\n      dup4\n        /* \"#utility.yul\":13115:13182   */\n      tag_442\n      jump\t// in\n    tag_599:\n        /* \"#utility.yul\":13108:13182   */\n      swap2\n      pop\n        /* \"#utility.yul\":13191:13284   */\n      tag_600\n        /* \"#utility.yul\":13280:13283   */\n      dup3\n        /* \"#utility.yul\":13191:13284   */\n      tag_447\n      jump\t// in\n    tag_600:\n        /* \"#utility.yul\":13309:13311   */\n      0x20\n        /* \"#utility.yul\":13304:13307   */\n      dup3\n        /* \"#utility.yul\":13300:13312   */\n      add\n        /* \"#utility.yul\":13293:13312   */\n      swap1\n      pop\n        /* \"#utility.yul\":12952:13318   */\n      swap2\n      swap1\n      pop\n      jump\t// out\n        /* \"#utility.yul\":13324:13743   */\n    tag_170:\n        /* \"#utility.yul\":13490:13494   */\n      0x00\n        /* \"#utility.yul\":13528:13530   */\n      0x20\n        /* \"#utility.yul\":13517:13526   */\n      dup3\n        /* \"#utility.yul\":13513:13531   */\n      add\n        /* \"#utility.yul\":13505:13531   */\n      swap1\n      pop\n        /* \"#utility.yul\":13577:13586   */\n      dup2\n        /* \"#utility.yul\":13571:13575   */\n      dup2\n        /* \"#utility.yul\":13567:13587   */\n      sub\n        /* \"#utility.yul\":13563:13564   */\n      0x00\n        /* \"#utility.yul\":13552:13561   */\n      dup4\n        /* \"#utility.yul\":13548:13565   */\n      add\n        /* \"#utility.yul\":13541:13588   */\n      mstore\n        /* \"#utility.yul\":13605:13736   */\n      tag_602\n        /* \"#utility.yul\":13731:13735   */\n      dup2\n        /* \"#utility.yul\":13605:13736   */\n      tag_448\n      jump\t// in\n    tag_602:\n        /* \"#utility.yul\":13597:13736   */\n      swap1\n      pop\n        /* \"#utility.yul\":13324:13743   */\n      swap2\n      swap1\n      pop\n      jump\t// out\n        /* \"#utility.yul\":13749:13929   */\n    tag_449:\n        /* \"#utility.yul\":13797:13874   */\n      0x4e487b7100000000000000000000000000000000000000000000000000000000\n        /* \"#utility.yul\":13794:13795   */\n      0x00\n        /* \"#utility.yul\":13787:13875   */\n      mstore\n        /* \"#utility.yul\":13894:13898   */\n      0x11\n        /* \"#utility.yul\":13891:13892   */\n      0x04\n        /* \"#utility.yul\":13884:13899   */\n      mstore\n        /* \"#utility.yul\":13918:13922   */\n      0x24\n        /* \"#utility.yul\":13915:13916   */\n      0x00\n        /* \"#utility.yul\":13908:13923   */\n      revert\n        /* \"#utility.yul\":13935:14129   */\n    tag_174:\n        /* \"#utility.yul\":13975:13979   */\n      0x00\n        /* \"#utility.yul\":13995:14015   */\n      tag_605\n        /* \"#utility.yul\":14013:14014   */\n      dup3\n        /* \"#utility.yul\":13995:14015   */\n      tag_419\n      jump\t// in\n    tag_605:\n        /* \"#utility.yul\":13990:14015   */\n      swap2\n      pop\n        /* \"#utility.yul\":14029:14049   */\n      tag_606\n        /* \"#utility.yul\":14047:14048   */\n      dup4\n        /* \"#utility.yul\":14029:14049   */\n      tag_419\n      jump\t// in\n    tag_606:\n        /* \"#utility.yul\":14024:14049   */\n      swap3\n      pop\n        /* \"#utility.yul\":14073:14074   */\n      dup3\n        /* \"#utility.yul\":14070:14071   */\n      dup3\n        /* \"#utility.yul\":14066:14075   */\n      sub\n        /* \"#utility.yul\":14058:14075   */\n      swap1\n      pop\n        /* \"#utility.yul\":14097:14098   */\n      dup2\n        /* \"#utility.yul\":14091:14095   */\n      dup2\n        /* \"#utility.yul\":14088:14099   */\n      gt\n        /* \"#utility.yul\":14085:14122   */\n      iszero\n      tag_607\n      jumpi\n        /* \"#utility.yul\":14102:14120   */\n      tag_608\n      tag_449\n      jump\t// in\n    tag_608:\n        /* \"#utility.yul\":14085:14122   */\n    tag_607:\n        /* \"#utility.yul\":13935:14129   */\n      swap3\n      swap2\n      pop\n      pop\n      jump\t// out\n        /* \"#utility.yul\":14135:14326   */\n    tag_179:\n        /* \"#utility.yul\":14175:14178   */\n      0x00\n        /* \"#utility.yul\":14194:14214   */\n      tag_610\n        /* \"#utility.yul\":14212:14213   */\n      dup3\n        /* \"#utility.yul\":14194:14214   */\n      tag_419\n      jump\t// in\n    tag_610:\n        /* \"#utility.yul\":14189:14214   */\n      swap2\n      pop\n        /* \"#utility.yul\":14228:14248   */\n      tag_611\n        /* \"#utility.yul\":14246:14247   */\n      dup4\n        /* \"#utility.yul\":14228:14248   */\n      tag_419\n      jump\t// in\n    tag_611:\n        /* \"#utility.yul\":14223:14248   */\n      swap3\n      pop\n        /* \"#utility.yul\":14271:14272   */\n      dup3\n        /* \"#utility.yul\":14268:14269   */\n      dup3\n        /* \"#utility.yul\":14264:14273   */\n      add\n        /* \"#utility.yul\":14257:14273   */\n      swap1\n      pop\n        /* \"#utility.yul\":14292:14295   */\n      dup1\n        /* \"#utility.yul\":14289:14290   */\n      dup3\n        /* \"#utility.yul\":14286:14296   */\n      gt\n        /* \"#utility.yul\":14283:14319   */\n      iszero\n      tag_612\n      jumpi\n        /* \"#utility.yul\":14299:14317   */\n      tag_613\n      tag_449\n      jump\t// in\n    tag_613:\n        /* \"#utility.yul\":14283:14319   */\n    tag_612:\n        /* \"#utility.yul\":14135:14326   */\n      swap3\n      swap2\n      pop\n      pop\n      jump\t// out\n        /* \"#utility.yul\":14332:14742   */\n    tag_181:\n        /* \"#utility.yul\":14372:14379   */\n      0x00\n        /* \"#utility.yul\":14395:14415   */\n      tag_615\n        /* \"#utility.yul\":14413:14414   */\n      dup3\n        /* \"#utility.yul\":14395:14415   */\n      tag_419\n      jump\t// in\n    tag_615:\n        /* \"#utility.yul\":14390:14415   */\n      swap2\n      pop\n        /* \"#utility.yul\":14429:14449   */\n      tag_616\n        /* \"#utility.yul\":14447:14448   */\n      dup4\n        /* \"#utility.yul\":14429:14449   */\n      tag_419\n      jump\t// in\n    tag_616:\n        /* \"#utility.yul\":14424:14449   */\n      swap3\n      pop\n        /* \"#utility.yul\":14484:14485   */\n      dup3\n        /* \"#utility.yul\":14481:14482   */\n      dup3\n        /* \"#utility.yul\":14477:14486   */\n      mul\n        /* \"#utility.yul\":14506:14536   */\n      tag_617\n        /* \"#utility.yul\":14524:14535   */\n      dup2\n        /* \"#utility.yul\":14506:14536   */\n      tag_419\n      jump\t// in\n    tag_617:\n        /* \"#utility.yul\":14495:14536   */\n      swap2\n      pop\n        /* \"#utility.yul\":14685:14686   */\n      dup3\n        /* \"#utility.yul\":14676:14683   */\n      dup3\n        /* \"#utility.yul\":14672:14687   */\n      div\n        /* \"#utility.yul\":14669:14670   */\n      dup5\n        /* \"#utility.yul\":14666:14688   */\n      eq\n        /* \"#utility.yul\":14646:14647   */\n      dup4\n        /* \"#utility.yul\":14639:14648   */\n      iszero\n        /* \"#utility.yul\":14619:14702   */\n      or\n        /* \"#utility.yul\":14596:14735   */\n      tag_618\n      jumpi\n        /* \"#utility.yul\":14715:14733   */\n      tag_619\n      tag_449\n      jump\t// in\n    tag_619:\n        /* \"#utility.yul\":14596:14735   */\n    tag_618:\n        /* \"#utility.yul\":14380:14742   */\n      pop\n        /* \"#utility.yul\":14332:14742   */\n      swap3\n      swap2\n      pop\n      pop\n      jump\t// out\n        /* \"#utility.yul\":14748:14928   */\n    tag_450:\n        /* \"#utility.yul\":14796:14873   */\n      0x4e487b7100000000000000000000000000000000000000000000000000000000\n        /* \"#utility.yul\":14793:14794   */\n      0x00\n        /* \"#utility.yul\":14786:14874   */\n      mstore\n        /* \"#utility.yul\":14893:14897   */\n      0x12\n        /* \"#utility.yul\":14890:14891   */\n      0x04\n        /* \"#utility.yul\":14883:14898   */\n      mstore\n        /* \"#utility.yul\":14917:14921   */\n      0x24\n        /* \"#utility.yul\":14914:14915   */\n      0x00\n        /* \"#utility.yul\":14907:14922   */\n      revert\n        /* \"#utility.yul\":14934:15119   */\n    tag_188:\n        /* \"#utility.yul\":14974:14975   */\n      0x00\n        /* \"#utility.yul\":14991:15011   */\n      tag_622\n        /* \"#utility.yul\":15009:15010   */\n      dup3\n        /* \"#utility.yul\":14991:15011   */\n      tag_419\n      jump\t// in\n    tag_622:\n        /* \"#utility.yul\":14986:15011   */\n      swap2\n      pop\n        /* \"#utility.yul\":15025:15045   */\n      tag_623\n        /* \"#utility.yul\":15043:15044   */\n      dup4\n        /* \"#utility.yul\":15025:15045   */\n      tag_419\n      jump\t// in\n    tag_623:\n        /* \"#utility.yul\":15020:15045   */\n      swap3\n      pop\n        /* \"#utility.yul\":15064:15065   */\n      dup3\n        /* \"#utility.yul\":15054:15089   */\n      tag_624\n      jumpi\n        /* \"#utility.yul\":15069:15087   */\n      tag_625\n      tag_450\n      jump\t// in\n    tag_625:\n        /* \"#utility.yul\":15054:15089   */\n    tag_624:\n        /* \"#utility.yul\":15111:15112   */\n      dup3\n        /* \"#utility.yul\":15108:15109   */\n      dup3\n        /* \"#utility.yul\":15104:15113   */\n      div\n        /* \"#utility.yul\":15099:15113   */\n      swap1\n      pop\n        /* \"#utility.yul\":14934:15119   */\n      swap3\n      swap2\n      pop\n      pop\n      jump\t// out\n        /* \"#utility.yul\":15125:15292   */\n    tag_451:\n        /* \"#utility.yul\":15265:15284   */\n      0x4f6e6c7920454f412063616e2063616c6c000000000000000000000000000000\n        /* \"#utility.yul\":15261:15262   */\n      0x00\n        /* \"#utility.yul\":15253:15259   */\n      dup3\n        /* \"#utility.yul\":15249:15263   */\n      add\n        /* \"#utility.yul\":15242:15285   */\n      mstore\n        /* \"#utility.yul\":15125:15292   */\n      pop\n      jump\t// out\n        /* \"#utility.yul\":15298:15664   */\n    tag_452:\n        /* \"#utility.yul\":15440:15443   */\n      0x00\n        /* \"#utility.yul\":15461:15528   */\n      tag_628\n        /* \"#utility.yul\":15525:15527   */\n      0x11\n        /* \"#utility.yul\":15520:15523   */\n      dup4\n        /* \"#utility.yul\":15461:15528   */\n      tag_442\n      jump\t// in\n    tag_628:\n        /* \"#utility.yul\":15454:15528   */\n      swap2\n      pop\n        /* \"#utility.yul\":15537:15630   */\n      tag_629\n        /* \"#utility.yul\":15626:15629   */\n      dup3\n        /* \"#utility.yul\":15537:15630   */\n      tag_451\n      jump\t// in\n    tag_629:\n        /* \"#utility.yul\":15655:15657   */\n      0x20\n        /* \"#utility.yul\":15650:15653   */\n      dup3\n        /* \"#utility.yul\":15646:15658   */\n      add\n        /* \"#utility.yul\":15639:15658   */\n      swap1\n      pop\n        /* \"#utility.yul\":15298:15664   */\n      swap2\n      swap1\n      pop\n      jump\t// out\n        /* \"#utility.yul\":15670:16089   */\n    tag_195:\n        /* \"#utility.yul\":15836:15840   */\n      0x00\n        /* \"#utility.yul\":15874:15876   */\n      0x20\n        /* \"#utility.yul\":15863:15872   */\n      dup3\n        /* \"#utility.yul\":15859:15877   */\n      add\n        /* \"#utility.yul\":15851:15877   */\n      swap1\n      pop\n        /* \"#utility.yul\":15923:15932   */\n      dup2\n        /* \"#utility.yul\":15917:15921   */\n      dup2\n        /* \"#utility.yul\":15913:15933   */\n      sub\n        /* \"#utility.yul\":15909:15910   */\n      0x00\n        /* \"#utility.yul\":15898:15907   */\n      dup4\n        /* \"#utility.yul\":15894:15911   */\n      add\n        /* \"#utility.yul\":15887:15934   */\n      mstore\n        /* \"#utility.yul\":15951:16082   */\n      tag_631\n        /* \"#utility.yul\":16077:16081   */\n      dup2\n        /* \"#utility.yul\":15951:16082   */\n      tag_452\n      jump\t// in\n    tag_631:\n        /* \"#utility.yul\":15943:16082   */\n      swap1\n      pop\n        /* \"#utility.yul\":15670:16089   */\n      swap2\n      swap1\n      pop\n      jump\t// out\n        /* \"#utility.yul\":16095:16260   */\n    tag_453:\n        /* \"#utility.yul\":16235:16252   */\n      0x436f6e7472616374207061757365640000000000000000000000000000000000\n        /* \"#utility.yul\":16231:16232   */\n      0x00\n        /* \"#utility.yul\":16223:16229   */\n      dup3\n        /* \"#utility.yul\":16219:16233   */\n      add\n        /* \"#utility.yul\":16212:16253   */\n      mstore\n        /* \"#utility.yul\":16095:16260   */\n      pop\n      jump\t// out\n        /* \"#utility.yul\":16266:16632   */\n    tag_454:\n        /* \"#utility.yul\":16408:16411   */\n      0x00\n        /* \"#utility.yul\":16429:16496   */\n      tag_634\n        /* \"#utility.yul\":16493:16495   */\n      0x0f\n        /* \"#utility.yul\":16488:16491   */\n      dup4\n        /* \"#utility.yul\":16429:16496   */\n      tag_442\n      jump\t// in\n    tag_634:\n        /* \"#utility.yul\":16422:16496   */\n      swap2\n      pop\n        /* \"#utility.yul\":16505:16598   */\n      tag_635\n        /* \"#utility.yul\":16594:16597   */\n      dup3\n        /* \"#utility.yul\":16505:16598   */\n      tag_453\n      jump\t// in\n    tag_635:\n        /* \"#utility.yul\":16623:16625   */\n      0x20\n        /* \"#utility.yul\":16618:16621   */\n      dup3\n        /* \"#utility.yul\":16614:16626   */\n      add\n        /* \"#utility.yul\":16607:16626   */\n      swap1\n      pop\n        /* \"#utility.yul\":16266:16632   */\n      swap2\n      swap1\n      pop\n      jump\t// out\n        /* \"#utility.yul\":16638:17057   */\n    tag_199:\n        /* \"#utility.yul\":16804:16808   */\n      0x00\n        /* \"#utility.yul\":16842:16844   */\n      0x20\n        /* \"#utility.yul\":16831:16840   */\n      dup3\n        /* \"#utility.yul\":16827:16845   */\n      add\n        /* \"#utility.yul\":16819:16845   */\n      swap1\n      pop\n        /* \"#utility.yul\":16891:16900   */\n      dup2\n        /* \"#utility.yul\":16885:16889   */\n      dup2\n        /* \"#utility.yul\":16881:16901   */\n      sub\n        /* \"#utility.yul\":16877:16878   */\n      0x00\n        /* \"#utility.yul\":16866:16875   */\n      dup4\n        /* \"#utility.yul\":16862:16879   */\n      add\n        /* \"#utility.yul\":16855:16902   */\n      mstore\n        /* \"#utility.yul\":16919:17050   */\n      tag_637\n        /* \"#utility.yul\":17045:17049   */\n      dup2\n        /* \"#utility.yul\":16919:17050   */\n      tag_454\n      jump\t// in\n    tag_637:\n        /* \"#utility.yul\":16911:17050   */\n      swap1\n      pop\n        /* \"#utility.yul\":16638:17057   */\n      swap2\n      swap1\n      pop\n      jump\t// out\n        /* \"#utility.yul\":17063:17234   */\n    tag_455:\n        /* \"#utility.yul\":17203:17226   */\n      0x4175746f2d7374616b696e672064697361626c65640000000000000000000000\n        /* \"#utility.yul\":17199:17200   */\n      0x00\n        /* \"#utility.yul\":17191:17197   */\n      dup3\n        /* \"#utility.yul\":17187:17201   */\n      add\n        /* \"#utility.yul\":17180:17227   */\n      mstore\n        /* \"#utility.yul\":17063:17234   */\n      pop\n      jump\t// out\n        /* \"#utility.yul\":17240:17606   */\n    tag_456:\n        /* \"#utility.yul\":17382:17385   */\n      0x00\n        /* \"#utility.yul\":17403:17470   */\n      tag_640\n        /* \"#utility.yul\":17467:17469   */\n      0x15\n        /* \"#utility.yul\":17462:17465   */\n      dup4\n        /* \"#utility.yul\":17403:17470   */\n      tag_442\n      jump\t// in\n    tag_640:\n        /* \"#utility.yul\":17396:17470   */\n      swap2\n      pop\n        /* \"#utility.yul\":17479:17572   */\n      tag_641\n        /* \"#utility.yul\":17568:17571   */\n      dup3\n        /* \"#utility.yul\":17479:17572   */\n      tag_455\n      jump\t// in\n    tag_641:\n        /* \"#utility.yul\":17597:17599   */\n      0x20\n        /* \"#utility.yul\":17592:17595   */\n      dup3\n        /* \"#utility.yul\":17588:17600   */\n      add\n        /* \"#utility.yul\":17581:17600   */\n      swap1\n      pop\n        /* \"#utility.yul\":17240:17606   */\n      swap2\n      swap1\n      pop\n      jump\t// out\n        /* \"#utility.yul\":17612:18031   */\n    tag_210:\n        /* \"#utility.yul\":17778:17782   */\n      0x00\n        /* \"#utility.yul\":17816:17818   */\n      0x20\n        /* \"#utility.yul\":17805:17814   */\n      dup3\n        /* \"#utility.yul\":17801:17819   */\n      add\n        /* \"#utility.yul\":17793:17819   */\n      swap1\n      pop\n        /* \"#utility.yul\":17865:17874   */\n      dup2\n        /* \"#utility.yul\":17859:17863   */\n      dup2\n        /* \"#utility.yul\":17855:17875   */\n      sub\n        /* \"#utility.yul\":17851:17852   */\n      0x00\n        /* \"#utility.yul\":17840:17849   */\n      dup4\n        /* \"#utility.yul\":17836:17853   */\n      add\n        /* \"#utility.yul\":17829:17876   */\n      mstore\n        /* \"#utility.yul\":17893:18024   */\n      tag_643\n        /* \"#utility.yul\":18019:18023   */\n      dup2\n        /* \"#utility.yul\":17893:18024   */\n      tag_456\n      jump\t// in\n    tag_643:\n        /* \"#utility.yul\":17885:18024   */\n      swap1\n      pop\n        /* \"#utility.yul\":17612:18031   */\n      swap2\n      swap1\n      pop\n      jump\t// out\n        /* \"#utility.yul\":18037:18199   */\n    tag_457:\n        /* \"#utility.yul\":18177:18191   */\n      0x5374696c6c206c6f636b65640000000000000000000000000000000000000000\n        /* \"#utility.yul\":18173:18174   */\n      0x00\n        /* \"#utility.yul\":18165:18171   */\n      dup3\n        /* \"#utility.yul\":18161:18175   */\n      add\n        /* \"#utility.yul\":18154:18192   */\n      mstore\n        /* \"#utility.yul\":18037:18199   */\n      pop\n      jump\t// out\n        /* \"#utility.yul\":18205:18571   */\n    tag_458:\n        /* \"#utility.yul\":18347:18350   */\n      0x00\n        /* \"#utility.yul\":18368:18435   */\n      tag_646\n        /* \"#utility.yul\":18432:18434   */\n      0x0c\n        /* \"#utility.yul\":18427:18430   */\n      dup4\n        /* \"#utility.yul\":18368:18435   */\n      tag_442\n      jump\t// in\n    tag_646:\n        /* \"#utility.yul\":18361:18435   */\n      swap2\n      pop\n        /* \"#utility.yul\":18444:18537   */\n      tag_647\n        /* \"#utility.yul\":18533:18536   */\n      dup3\n        /* \"#utility.yul\":18444:18537   */\n      tag_457\n      jump\t// in\n    tag_647:\n        /* \"#utility.yul\":18562:18564   */\n      0x20\n        /* \"#utility.yul\":18557:18560   */\n      dup3\n        /* \"#utility.yul\":18553:18565   */\n      add\n        /* \"#utility.yul\":18546:18565   */\n      swap1\n      pop\n        /* \"#utility.yul\":18205:18571   */\n      swap2\n      swap1\n      pop\n      jump\t// out\n        /* \"#utility.yul\":18577:18996   */\n    tag_213:\n        /* \"#utility.yul\":18743:18747   */\n      0x00\n        /* \"#utility.yul\":18781:18783   */\n      0x20\n        /* \"#utility.yul\":18770:18779   */\n      dup3\n        /* \"#utility.yul\":18766:18784   */\n      add\n        /* \"#utility.yul\":18758:18784   */\n      swap1\n      pop\n        /* \"#utility.yul\":18830:18839   */\n      dup2\n        /* \"#utility.yul\":18824:18828   */\n      dup2\n        /* \"#utility.yul\":18820:18840   */\n      sub\n        /* \"#utility.yul\":18816:18817   */\n      0x00\n        /* \"#utility.yul\":18805:18814   */\n      dup4\n        /* \"#utility.yul\":18801:18818   */\n      add\n        /* \"#utility.yul\":18794:18841   */\n      mstore\n        /* \"#utility.yul\":18858:18989   */\n      tag_649\n        /* \"#utility.yul\":18984:18988   */\n      dup2\n        /* \"#utility.yul\":18858:18989   */\n      tag_458\n      jump\t// in\n    tag_649:\n        /* \"#utility.yul\":18850:18989   */\n      swap1\n      pop\n        /* \"#utility.yul\":18577:18996   */\n      swap2\n      swap1\n      pop\n      jump\t// out\n        /* \"#utility.yul\":19002:19176   */\n    tag_459:\n        /* \"#utility.yul\":19142:19168   */\n      0x496e73756666696369656e742072657761726420706f6f6c0000000000000000\n        /* \"#utility.yul\":19138:19139   */\n      0x00\n        /* \"#utility.yul\":19130:19136   */\n      dup3\n        /* \"#utility.yul\":19126:19140   */\n      add\n        /* \"#utility.yul\":19119:19169   */\n      mstore\n        /* \"#utility.yul\":19002:19176   */\n      pop\n      jump\t// out\n        /* \"#utility.yul\":19182:19548   */\n    tag_460:\n        /* \"#utility.yul\":19324:19327   */\n      0x00\n        /* \"#utility.yul\":19345:19412   */\n      tag_652\n        /* \"#utility.yul\":19409:19411   */\n      0x18\n        /* \"#utility.yul\":19404:19407   */\n      dup4\n        /* \"#utility.yul\":19345:19412   */\n      tag_442\n      jump\t// in\n    tag_652:\n        /* \"#utility.yul\":19338:19412   */\n      swap2\n      pop\n        /* \"#utility.yul\":19421:19514   */\n      tag_653\n        /* \"#utility.yul\":19510:19513   */\n      dup3\n        /* \"#utility.yul\":19421:19514   */\n      tag_459\n      jump\t// in\n    tag_653:\n        /* \"#utility.yul\":19539:19541   */\n      0x20\n        /* \"#utility.yul\":19534:19537   */\n      dup3\n        /* \"#utility.yul\":19530:19542   */\n      add\n        /* \"#utility.yul\":19523:19542   */\n      swap1\n      pop\n        /* \"#utility.yul\":19182:19548   */\n      swap2\n      swap1\n      pop\n      jump\t// out\n        /* \"#utility.yul\":19554:19973   */\n    tag_217:\n        /* \"#utility.yul\":19720:19724   */\n      0x00\n        /* \"#utility.yul\":19758:19760   */\n      0x20\n        /* \"#utility.yul\":19747:19756   */\n      dup3\n        /* \"#utility.yul\":19743:19761   */\n      add\n        /* \"#utility.yul\":19735:19761   */\n      swap1\n      pop\n        /* \"#utility.yul\":19807:19816   */\n      dup2\n        /* \"#utility.yul\":19801:19805   */\n      dup2\n        /* \"#utility.yul\":19797:19817   */\n      sub\n        /* \"#utility.yul\":19793:19794   */\n      0x00\n        /* \"#utility.yul\":19782:19791   */\n      dup4\n        /* \"#utility.yul\":19778:19795   */\n      add\n        /* \"#utility.yul\":19771:19818   */\n      mstore\n        /* \"#utility.yul\":19835:19966   */\n      tag_655\n        /* \"#utility.yul\":19961:19965   */\n      dup2\n        /* \"#utility.yul\":19835:19966   */\n      tag_460\n      jump\t// in\n    tag_655:\n        /* \"#utility.yul\":19827:19966   */\n      swap1\n      pop\n        /* \"#utility.yul\":19554:19973   */\n      swap2\n      swap1\n      pop\n      jump\t// out\n        /* \"#utility.yul\":19979:20311   */\n    tag_223:\n        /* \"#utility.yul\":20100:20104   */\n      0x00\n        /* \"#utility.yul\":20138:20140   */\n      0x40\n        /* \"#utility.yul\":20127:20136   */\n      dup3\n        /* \"#utility.yul\":20123:20141   */\n      add\n        /* \"#utility.yul\":20115:20141   */\n      swap1\n      pop\n        /* \"#utility.yul\":20151:20222   */\n      tag_657\n        /* \"#utility.yul\":20219:20220   */\n      0x00\n        /* \"#utility.yul\":20208:20217   */\n      dup4\n        /* \"#utility.yul\":20204:20221   */\n      add\n        /* \"#utility.yul\":20195:20201   */\n      dup6\n        /* \"#utility.yul\":20151:20222   */\n      tag_420\n      jump\t// in\n    tag_657:\n        /* \"#utility.yul\":20232:20304   */\n      tag_658\n        /* \"#utility.yul\":20300:20302   */\n      0x20\n        /* \"#utility.yul\":20289:20298   */\n      dup4\n        /* \"#utility.yul\":20285:20303   */\n      add\n        /* \"#utility.yul\":20276:20282   */\n      dup5\n        /* \"#utility.yul\":20232:20304   */\n      tag_420\n      jump\t// in\n    tag_658:\n        /* \"#utility.yul\":19979:20311   */\n      swap4\n      swap3\n      pop\n      pop\n      pop\n      jump\t// out\n        /* \"#utility.yul\":20317:20487   */\n    tag_461:\n        /* \"#utility.yul\":20457:20479   */\n      0x496e76616c696420706572696f6420696e646578000000000000000000000000\n        /* \"#utility.yul\":20453:20454   */\n      0x00\n        /* \"#utility.yul\":20445:20451   */\n      dup3\n        /* \"#utility.yul\":20441:20455   */\n      add\n        /* \"#utility.yul\":20434:20480   */\n      mstore\n        /* \"#utility.yul\":20317:20487   */\n      pop\n      jump\t// out\n        /* \"#utility.yul\":20493:20859   */\n    tag_462:\n        /* \"#utility.yul\":20635:20638   */\n      0x00\n        /* \"#utility.yul\":20656:20723   */\n      tag_661\n        /* \"#utility.yul\":20720:20722   */\n      0x14\n        /* \"#utility.yul\":20715:20718   */\n      dup4\n        /* \"#utility.yul\":20656:20723   */\n      tag_442\n      jump\t// in\n    tag_661:\n        /* \"#utility.yul\":20649:20723   */\n      swap2\n      pop\n        /* \"#utility.yul\":20732:20825   */\n      tag_662\n        /* \"#utility.yul\":20821:20824   */\n      dup3\n        /* \"#utility.yul\":20732:20825   */\n      tag_461\n      jump\t// in\n    tag_662:\n        /* \"#utility.yul\":20850:20852   */\n      0x20\n        /* \"#utility.yul\":20845:20848   */\n      dup3\n        /* \"#utility.yul\":20841:20853   */\n      add\n        /* \"#utility.yul\":20834:20853   */\n      swap1\n      pop\n        /* \"#utility.yul\":20493:20859   */\n      swap2\n      swap1\n      pop\n      jump\t// out\n        /* \"#utility.yul\":20865:21284   */\n    tag_239:\n        /* \"#utility.yul\":21031:21035   */\n      0x00\n        /* \"#utility.yul\":21069:21071   */\n      0x20\n        /* \"#utility.yul\":21058:21067   */\n      dup3\n        /* \"#utility.yul\":21054:21072   */\n      add\n        /* \"#utility.yul\":21046:21072   */\n      swap1\n      pop\n        /* \"#utility.yul\":21118:21127   */\n      dup2\n        /* \"#utility.yul\":21112:21116   */\n      dup2\n        /* \"#utility.yul\":21108:21128   */\n      sub\n        /* \"#utility.yul\":21104:21105   */\n      0x00\n        /* \"#utility.yul\":21093:21102   */\n      dup4\n        /* \"#utility.yul\":21089:21106   */\n      add\n        /* \"#utility.yul\":21082:21129   */\n      mstore\n        /* \"#utility.yul\":21146:21277   */\n      tag_664\n        /* \"#utility.yul\":21272:21276   */\n      dup2\n        /* \"#utility.yul\":21146:21277   */\n      tag_462\n      jump\t// in\n    tag_664:\n        /* \"#utility.yul\":21138:21277   */\n      swap1\n      pop\n        /* \"#utility.yul\":20865:21284   */\n      swap2\n      swap1\n      pop\n      jump\t// out\n        /* \"#utility.yul\":21290:21451   */\n    tag_463:\n        /* \"#utility.yul\":21430:21443   */\n      0x5a65726f20616d6f756e74000000000000000000000000000000000000000000\n        /* \"#utility.yul\":21426:21427   */\n      0x00\n        /* \"#utility.yul\":21418:21424   */\n      dup3\n        /* \"#utility.yul\":21414:21428   */\n      add\n        /* \"#utility.yul\":21407:21444   */\n      mstore\n        /* \"#utility.yul\":21290:21451   */\n      pop\n      jump\t// out\n        /* \"#utility.yul\":21457:21823   */\n    tag_464:\n        /* \"#utility.yul\":21599:21602   */\n      0x00\n        /* \"#utility.yul\":21620:21687   */\n      tag_667\n        /* \"#utility.yul\":21684:21686   */\n      0x0b\n        /* \"#utility.yul\":21679:21682   */\n      dup4\n        /* \"#utility.yul\":21620:21687   */\n      tag_442\n      jump\t// in\n    tag_667:\n        /* \"#utility.yul\":21613:21687   */\n      swap2\n      pop\n        /* \"#utility.yul\":21696:21789   */\n      tag_668\n        /* \"#utility.yul\":21785:21788   */\n      dup3\n        /* \"#utility.yul\":21696:21789   */\n      tag_463\n      jump\t// in\n    tag_668:\n        /* \"#utility.yul\":21814:21816   */\n      0x20\n        /* \"#utility.yul\":21809:21812   */\n      dup3\n        /* \"#utility.yul\":21805:21817   */\n      add\n        /* \"#utility.yul\":21798:21817   */\n      swap1\n      pop\n        /* \"#utility.yul\":21457:21823   */\n      swap2\n      swap1\n      pop\n      jump\t// out\n        /* \"#utility.yul\":21829:22248   */\n    tag_242:\n        /* \"#utility.yul\":21995:21999   */\n      0x00\n        /* \"#utility.yul\":22033:22035   */\n      0x20\n        /* \"#utility.yul\":22022:22031   */\n      dup3\n        /* \"#utility.yul\":22018:22036   */\n      add\n        /* \"#utility.yul\":22010:22036   */\n      swap1\n      pop\n        /* \"#utility.yul\":22082:22091   */\n      dup2\n        /* \"#utility.yul\":22076:22080   */\n      dup2\n        /* \"#utility.yul\":22072:22092   */\n      sub\n        /* \"#utility.yul\":22068:22069   */\n      0x00\n        /* \"#utility.yul\":22057:22066   */\n      dup4\n        /* \"#utility.yul\":22053:22070   */\n      add\n        /* \"#utility.yul\":22046:22093   */\n      mstore\n        /* \"#utility.yul\":22110:22241   */\n      tag_670\n        /* \"#utility.yul\":22236:22240   */\n      dup2\n        /* \"#utility.yul\":22110:22241   */\n      tag_464\n      jump\t// in\n    tag_670:\n        /* \"#utility.yul\":22102:22241   */\n      swap1\n      pop\n        /* \"#utility.yul\":21829:22248   */\n      swap2\n      swap1\n      pop\n      jump\t// out\n        /* \"#utility.yul\":22254:22684   */\n    tag_252:\n        /* \"#utility.yul\":22397:22401   */\n      0x00\n        /* \"#utility.yul\":22435:22437   */\n      0x60\n        /* \"#utility.yul\":22424:22433   */\n      dup3\n        /* \"#utility.yul\":22420:22438   */\n      add\n        /* \"#utility.yul\":22412:22438   */\n      swap1\n      pop\n        /* \"#utility.yul\":22448:22519   */\n      tag_672\n        /* \"#utility.yul\":22516:22517   */\n      0x00\n        /* \"#utility.yul\":22505:22514   */\n      dup4\n        /* \"#utility.yul\":22501:22518   */\n      add\n        /* \"#utility.yul\":22492:22498   */\n      dup7\n        /* \"#utility.yul\":22448:22519   */\n      tag_420\n      jump\t// in\n    tag_672:\n        /* \"#utility.yul\":22529:22601   */\n      tag_673\n        /* \"#utility.yul\":22597:22599   */\n      0x20\n        /* \"#utility.yul\":22586:22595   */\n      dup4\n        /* \"#utility.yul\":22582:22600   */\n      add\n        /* \"#utility.yul\":22573:22579   */\n      dup6\n        /* \"#utility.yul\":22529:22601   */\n      tag_420\n      jump\t// in\n    tag_673:\n        /* \"#utility.yul\":22611:22677   */\n      tag_674\n        /* \"#utility.yul\":22673:22675   */\n      0x40\n        /* \"#utility.yul\":22662:22671   */\n      dup4\n        /* \"#utility.yul\":22658:22676   */\n      add\n        /* \"#utility.yul\":22649:22655   */\n      dup5\n        /* \"#utility.yul\":22611:22677   */\n      tag_435\n      jump\t// in\n    tag_674:\n        /* \"#utility.yul\":22254:22684   */\n      swap5\n      swap4\n      pop\n      pop\n      pop\n      pop\n      jump\t// out\n        /* \"#utility.yul\":22690:22852   */\n    tag_465:\n        /* \"#utility.yul\":22830:22844   */\n      0x41505920746f6f20686967680000000000000000000000000000000000000000\n        /* \"#utility.yul\":22826:22827   */\n      0x00\n        /* \"#utility.yul\":22818:22824   */\n      dup3\n        /* \"#utility.yul\":22814:22828   */\n      add\n        /* \"#utility.yul\":22807:22845   */\n      mstore\n        /* \"#utility.yul\":22690:22852   */\n      pop\n      jump\t// out\n        /* \"#utility.yul\":22858:23224   */\n    tag_466:\n        /* \"#utility.yul\":23000:23003   */\n      0x00\n        /* \"#utility.yul\":23021:23088   */\n      tag_677\n        /* \"#utility.yul\":23085:23087   */\n      0x0c\n        /* \"#utility.yul\":23080:23083   */\n      dup4\n        /* \"#utility.yul\":23021:23088   */\n      tag_442\n      jump\t// in\n    tag_677:\n        /* \"#utility.yul\":23014:23088   */\n      swap2\n      pop\n        /* \"#utility.yul\":23097:23190   */\n      tag_678\n        /* \"#utility.yul\":23186:23189   */\n      dup3\n        /* \"#utility.yul\":23097:23190   */\n      tag_465\n      jump\t// in\n    tag_678:\n        /* \"#utility.yul\":23215:23217   */\n      0x20\n        /* \"#utility.yul\":23210:23213   */\n      dup3\n        /* \"#utility.yul\":23206:23218   */\n      add\n        /* \"#utility.yul\":23199:23218   */\n      swap1\n      pop\n        /* \"#utility.yul\":22858:23224   */\n      swap2\n      swap1\n      pop\n      jump\t// out\n        /* \"#utility.yul\":23230:23649   */\n    tag_264:\n        /* \"#utility.yul\":23396:23400   */\n      0x00\n        /* \"#utility.yul\":23434:23436   */\n      0x20\n        /* \"#utility.yul\":23423:23432   */\n      dup3\n        /* \"#utility.yul\":23419:23437   */\n      add\n        /* \"#utility.yul\":23411:23437   */\n      swap1\n      pop\n        /* \"#utility.yul\":23483:23492   */\n      dup2\n        /* \"#utility.yul\":23477:23481   */\n      dup2\n        /* \"#utility.yul\":23473:23493   */\n      sub\n        /* \"#utility.yul\":23469:23470   */\n      0x00\n        /* \"#utility.yul\":23458:23467   */\n      dup4\n        /* \"#utility.yul\":23454:23471   */\n      add\n        /* \"#utility.yul\":23447:23494   */\n      mstore\n        /* \"#utility.yul\":23511:23642   */\n      tag_680\n        /* \"#utility.yul\":23637:23641   */\n      dup2\n        /* \"#utility.yul\":23511:23642   */\n      tag_466\n      jump\t// in\n    tag_680:\n        /* \"#utility.yul\":23503:23642   */\n      swap1\n      pop\n        /* \"#utility.yul\":23230:23649   */\n      swap2\n      swap1\n      pop\n      jump\t// out\n        /* \"#utility.yul\":23655:23975   */\n    tag_290:\n        /* \"#utility.yul\":23770:23774   */\n      0x00\n        /* \"#utility.yul\":23808:23810   */\n      0x40\n        /* \"#utility.yul\":23797:23806   */\n      dup3\n        /* \"#utility.yul\":23793:23811   */\n      add\n        /* \"#utility.yul\":23785:23811   */\n      swap1\n      pop\n        /* \"#utility.yul\":23821:23892   */\n      tag_682\n        /* \"#utility.yul\":23889:23890   */\n      0x00\n        /* \"#utility.yul\":23878:23887   */\n      dup4\n        /* \"#utility.yul\":23874:23891   */\n      add\n        /* \"#utility.yul\":23865:23871   */\n      dup6\n        /* \"#utility.yul\":23821:23892   */\n      tag_420\n      jump\t// in\n    tag_682:\n        /* \"#utility.yul\":23902:23968   */\n      tag_683\n        /* \"#utility.yul\":23964:23966   */\n      0x20\n        /* \"#utility.yul\":23953:23962   */\n      dup4\n        /* \"#utility.yul\":23949:23967   */\n      add\n        /* \"#utility.yul\":23940:23946   */\n      dup5\n        /* \"#utility.yul\":23902:23968   */\n      tag_435\n      jump\t// in\n    tag_683:\n        /* \"#utility.yul\":23655:23975   */\n      swap4\n      swap3\n      pop\n      pop\n      pop\n      jump\t// out\n        /* \"#utility.yul\":23981:24155   */\n    tag_467:\n        /* \"#utility.yul\":24121:24147   */\n      0x5a65726f2061646472657373206e6f7420616c6c6f7765640000000000000000\n        /* \"#utility.yul\":24117:24118   */\n      0x00\n        /* \"#utility.yul\":24109:24115   */\n      dup3\n        /* \"#utility.yul\":24105:24119   */\n      add\n        /* \"#utility.yul\":24098:24148   */\n      mstore\n        /* \"#utility.yul\":23981:24155   */\n      pop\n      jump\t// out\n        /* \"#utility.yul\":24161:24527   */\n    tag_468:\n        /* \"#utility.yul\":24303:24306   */\n      0x00\n        /* \"#utility.yul\":24324:24391   */\n      tag_686\n        /* \"#utility.yul\":24388:24390   */\n      0x18\n        /* \"#utility.yul\":24383:24386   */\n      dup4\n        /* \"#utility.yul\":24324:24391   */\n      tag_442\n      jump\t// in\n    tag_686:\n        /* \"#utility.yul\":24317:24391   */\n      swap2\n      pop\n        /* \"#utility.yul\":24400:24493   */\n      tag_687\n        /* \"#utility.yul\":24489:24492   */\n      dup3\n        /* \"#utility.yul\":24400:24493   */\n      tag_467\n      jump\t// in\n    tag_687:\n        /* \"#utility.yul\":24518:24520   */\n      0x20\n        /* \"#utility.yul\":24513:24516   */\n      dup3\n        /* \"#utility.yul\":24509:24521   */\n      add\n        /* \"#utility.yul\":24502:24521   */\n      swap1\n      pop\n        /* \"#utility.yul\":24161:24527   */\n      swap2\n      swap1\n      pop\n      jump\t// out\n        /* \"#utility.yul\":24533:24952   */\n    tag_340:\n        /* \"#utility.yul\":24699:24703   */\n      0x00\n        /* \"#utility.yul\":24737:24739   */\n      0x20\n        /* \"#utility.yul\":24726:24735   */\n      dup3\n        /* \"#utility.yul\":24722:24740   */\n      add\n        /* \"#utility.yul\":24714:24740   */\n      swap1\n      pop\n        /* \"#utility.yul\":24786:24795   */\n      dup2\n        /* \"#utility.yul\":24780:24784   */\n      dup2\n        /* \"#utility.yul\":24776:24796   */\n      sub\n        /* \"#utility.yul\":24772:24773   */\n      0x00\n        /* \"#utility.yul\":24761:24770   */\n      dup4\n        /* \"#utility.yul\":24757:24774   */\n      add\n        /* \"#utility.yul\":24750:24797   */\n      mstore\n        /* \"#utility.yul\":24814:24945   */\n      tag_689\n        /* \"#utility.yul\":24940:24944   */\n      dup2\n        /* \"#utility.yul\":24814:24945   */\n      tag_468\n      jump\t// in\n    tag_689:\n        /* \"#utility.yul\":24806:24945   */\n      swap1\n      pop\n        /* \"#utility.yul\":24533:24952   */\n      swap2\n      swap1\n      pop\n      jump\t// out\n        /* \"#utility.yul\":24958:25130   */\n    tag_469:\n        /* \"#utility.yul\":25098:25122   */\n      0x4e6f207265776172647320746f20776974686472617700000000000000000000\n        /* \"#utility.yul\":25094:25095   */\n      0x00\n        /* \"#utility.yul\":25086:25092   */\n      dup3\n        /* \"#utility.yul\":25082:25096   */\n      add\n        /* \"#utility.yul\":25075:25123   */\n      mstore\n        /* \"#utility.yul\":24958:25130   */\n      pop\n      jump\t// out\n        /* \"#utility.yul\":25136:25502   */\n    tag_470:\n        /* \"#utility.yul\":25278:25281   */\n      0x00\n        /* \"#utility.yul\":25299:25366   */\n      tag_692\n        /* \"#utility.yul\":25363:25365   */\n      0x16\n        /* \"#utility.yul\":25358:25361   */\n      dup4\n        /* \"#utility.yul\":25299:25366   */\n      tag_442\n      jump\t// in\n    tag_692:\n        /* \"#utility.yul\":25292:25366   */\n      swap2\n      pop\n        /* \"#utility.yul\":25375:25468   */\n      tag_693\n        /* \"#utility.yul\":25464:25467   */\n      dup3\n        /* \"#utility.yul\":25375:25468   */\n      tag_469\n      jump\t// in\n    tag_693:\n        /* \"#utility.yul\":25493:25495   */\n      0x20\n        /* \"#utility.yul\":25488:25491   */\n      dup3\n        /* \"#utility.yul\":25484:25496   */\n      add\n        /* \"#utility.yul\":25477:25496   */\n      swap1\n      pop\n        /* \"#utility.yul\":25136:25502   */\n      swap2\n      swap1\n      pop\n      jump\t// out\n        /* \"#utility.yul\":25508:25927   */\n    tag_349:\n        /* \"#utility.yul\":25674:25678   */\n      0x00\n        /* \"#utility.yul\":25712:25714   */\n      0x20\n        /* \"#utility.yul\":25701:25710   */\n      dup3\n        /* \"#utility.yul\":25697:25715   */\n      add\n        /* \"#utility.yul\":25689:25715   */\n      swap1\n      pop\n        /* \"#utility.yul\":25761:25770   */\n      dup2\n        /* \"#utility.yul\":25755:25759   */\n      dup2\n        /* \"#utility.yul\":25751:25771   */\n      sub\n        /* \"#utility.yul\":25747:25748   */\n      0x00\n        /* \"#utility.yul\":25736:25745   */\n      dup4\n        /* \"#utility.yul\":25732:25749   */\n      add\n        /* \"#utility.yul\":25725:25772   */\n      mstore\n        /* \"#utility.yul\":25789:25920   */\n      tag_695\n        /* \"#utility.yul\":25915:25919   */\n      dup2\n        /* \"#utility.yul\":25789:25920   */\n      tag_470\n      jump\t// in\n    tag_695:\n        /* \"#utility.yul\":25781:25920   */\n      swap1\n      pop\n        /* \"#utility.yul\":25508:25927   */\n      swap2\n      swap1\n      pop\n      jump\t// out\n        /* \"#utility.yul\":25933:26106   */\n    tag_471:\n        /* \"#utility.yul\":26073:26098   */\n      0x556e737570706f72746564206c6f636b20706572696f64000000000000000000\n        /* \"#utility.yul\":26069:26070   */\n      0x00\n        /* \"#utility.yul\":26061:26067   */\n      dup3\n        /* \"#utility.yul\":26057:26071   */\n      add\n        /* \"#utility.yul\":26050:26099   */\n      mstore\n        /* \"#utility.yul\":25933:26106   */\n      pop\n      jump\t// out\n        /* \"#utility.yul\":26112:26478   */\n    tag_472:\n        /* \"#utility.yul\":26254:26257   */\n      0x00\n        /* \"#utility.yul\":26275:26342   */\n      tag_698\n        /* \"#utility.yul\":26339:26341   */\n      0x17\n        /* \"#utility.yul\":26334:26337   */\n      dup4\n        /* \"#utility.yul\":26275:26342   */\n      tag_442\n      jump\t// in\n    tag_698:\n        /* \"#utility.yul\":26268:26342   */\n      swap2\n      pop\n        /* \"#utility.yul\":26351:26444   */\n      tag_699\n        /* \"#utility.yul\":26440:26443   */\n      dup3\n        /* \"#utility.yul\":26351:26444   */\n      tag_471\n      jump\t// in\n    tag_699:\n        /* \"#utility.yul\":26469:26471   */\n      0x20\n        /* \"#utility.yul\":26464:26467   */\n      dup3\n        /* \"#utility.yul\":26460:26472   */\n      add\n        /* \"#utility.yul\":26453:26472   */\n      swap1\n      pop\n        /* \"#utility.yul\":26112:26478   */\n      swap2\n      swap1\n      pop\n      jump\t// out\n        /* \"#utility.yul\":26484:26903   */\n    tag_382:\n        /* \"#utility.yul\":26650:26654   */\n      0x00\n        /* \"#utility.yul\":26688:26690   */\n      0x20\n        /* \"#utility.yul\":26677:26686   */\n      dup3\n        /* \"#utility.yul\":26673:26691   */\n      add\n        /* \"#utility.yul\":26665:26691   */\n      swap1\n      pop\n        /* \"#utility.yul\":26737:26746   */\n      dup2\n        /* \"#utility.yul\":26731:26735   */\n      dup2\n        /* \"#utility.yul\":26727:26747   */\n      sub\n        /* \"#utility.yul\":26723:26724   */\n      0x00\n        /* \"#utility.yul\":26712:26721   */\n      dup4\n        /* \"#utility.yul\":26708:26725   */\n      add\n        /* \"#utility.yul\":26701:26748   */\n      mstore\n        /* \"#utility.yul\":26765:26896   */\n      tag_701\n        /* \"#utility.yul\":26891:26895   */\n      dup2\n        /* \"#utility.yul\":26765:26896   */\n      tag_472\n      jump\t// in\n    tag_701:\n        /* \"#utility.yul\":26757:26896   */\n      swap1\n      pop\n        /* \"#utility.yul\":26484:26903   */\n      swap2\n      swap1\n      pop\n      jump\t// out\n        /* \"#utility.yul\":26909:27090   */\n    tag_473:\n        /* \"#utility.yul\":27049:27082   */\n      0x5265656e7472616e637947756172643a207265656e7472616e742063616c6c00\n        /* \"#utility.yul\":27045:27046   */\n      0x00\n        /* \"#utility.yul\":27037:27043   */\n      dup3\n        /* \"#utility.yul\":27033:27047   */\n      add\n        /* \"#utility.yul\":27026:27083   */\n      mstore\n        /* \"#utility.yul\":26909:27090   */\n      pop\n      jump\t// out\n        /* \"#utility.yul\":27096:27462   */\n    tag_474:\n        /* \"#utility.yul\":27238:27241   */\n      0x00\n        /* \"#utility.yul\":27259:27326   */\n      tag_704\n        /* \"#utility.yul\":27323:27325   */\n      0x1f\n        /* \"#utility.yul\":27318:27321   */\n      dup4\n        /* \"#utility.yul\":27259:27326   */\n      tag_442\n      jump\t// in\n    tag_704:\n        /* \"#utility.yul\":27252:27326   */\n      swap2\n      pop\n        /* \"#utility.yul\":27335:27428   */\n      tag_705\n        /* \"#utility.yul\":27424:27427   */\n      dup3\n        /* \"#utility.yul\":27335:27428   */\n      tag_473\n      jump\t// in\n    tag_705:\n        /* \"#utility.yul\":27453:27455   */\n      0x20\n        /* \"#utility.yul\":27448:27451   */\n      dup3\n        /* \"#utility.yul\":27444:27456   */\n      add\n        /* \"#utility.yul\":27437:27456   */\n      swap1\n      pop\n        /* \"#utility.yul\":27096:27462   */\n      swap2\n      swap1\n      pop\n      jump\t// out\n        /* \"#utility.yul\":27468:27887   */\n    tag_386:\n        /* \"#utility.yul\":27634:27638   */\n      0x00\n        /* \"#utility.yul\":27672:27674   */\n      0x20\n        /* \"#utility.yul\":27661:27670   */\n      dup3\n        /* \"#utility.yul\":27657:27675   */\n      add\n        /* \"#utility.yul\":27649:27675   */\n      swap1\n      pop\n        /* \"#utility.yul\":27721:27730   */\n      dup2\n        /* \"#utility.yul\":27715:27719   */\n      dup2\n        /* \"#utility.yul\":27711:27731   */\n      sub\n        /* \"#utility.yul\":27707:27708   */\n      0x00\n        /* \"#utility.yul\":27696:27705   */\n      dup4\n        /* \"#utility.yul\":27692:27709   */\n      add\n        /* \"#utility.yul\":27685:27732   */\n      mstore\n        /* \"#utility.yul\":27749:27880   */\n      tag_707\n        /* \"#utility.yul\":27875:27879   */\n      dup2\n        /* \"#utility.yul\":27749:27880   */\n      tag_474\n      jump\t// in\n    tag_707:\n        /* \"#utility.yul\":27741:27880   */\n      swap1\n      pop\n        /* \"#utility.yul\":27468:27887   */\n      swap2\n      swap1\n      pop\n      jump\t// out\n        /* \"#utility.yul\":27893:28335   */\n    tag_391:\n        /* \"#utility.yul\":28042:28046   */\n      0x00\n        /* \"#utility.yul\":28080:28082   */\n      0x60\n        /* \"#utility.yul\":28069:28078   */\n      dup3\n        /* \"#utility.yul\":28065:28083   */\n      add\n        /* \"#utility.yul\":28057:28083   */\n      swap1\n      pop\n        /* \"#utility.yul\":28093:28164   */\n      tag_709\n        /* \"#utility.yul\":28161:28162   */\n      0x00\n        /* \"#utility.yul\":28150:28159   */\n      dup4\n        /* \"#utility.yul\":28146:28163   */\n      add\n        /* \"#utility.yul\":28137:28143   */\n      dup7\n        /* \"#utility.yul\":28093:28164   */\n      tag_441\n      jump\t// in\n    tag_709:\n        /* \"#utility.yul\":28174:28246   */\n      tag_710\n        /* \"#utility.yul\":28242:28244   */\n      0x20\n        /* \"#utility.yul\":28231:28240   */\n      dup4\n        /* \"#utility.yul\":28227:28245   */\n      add\n        /* \"#utility.yul\":28218:28224   */\n      dup6\n        /* \"#utility.yul\":28174:28246   */\n      tag_441\n      jump\t// in\n    tag_710:\n        /* \"#utility.yul\":28256:28328   */\n      tag_711\n        /* \"#utility.yul\":28324:28326   */\n      0x40\n        /* \"#utility.yul\":28313:28322   */\n      dup4\n        /* \"#utility.yul\":28309:28327   */\n      add\n        /* \"#utility.yul\":28300:28306   */\n      dup5\n        /* \"#utility.yul\":28256:28328   */\n      tag_420\n      jump\t// in\n    tag_711:\n        /* \"#utility.yul\":27893:28335   */\n      swap5\n      swap4\n      pop\n      pop\n      pop\n      pop\n      jump\t// out\n        /* \"#utility.yul\":28341:28673   */\n    tag_404:\n        /* \"#utility.yul\":28462:28466   */\n      0x00\n        /* \"#utility.yul\":28500:28502   */\n      0x40\n        /* \"#utility.yul\":28489:28498   */\n      dup3\n        /* \"#utility.yul\":28485:28503   */\n      add\n        /* \"#utility.yul\":28477:28503   */\n      swap1\n      pop\n        /* \"#utility.yul\":28513:28584   */\n      tag_713\n        /* \"#utility.yul\":28581:28582   */\n      0x00\n        /* \"#utility.yul\":28570:28579   */\n      dup4\n        /* \"#utility.yul\":28566:28583   */\n      add\n        /* \"#utility.yul\":28557:28563   */\n      dup6\n        /* \"#utility.yul\":28513:28584   */\n      tag_441\n      jump\t// in\n    tag_713:\n        /* \"#utility.yul\":28594:28666   */\n      tag_714\n        /* \"#utility.yul\":28662:28664   */\n      0x20\n        /* \"#utility.yul\":28651:28660   */\n      dup4\n        /* \"#utility.yul\":28647:28665   */\n      add\n        /* \"#utility.yul\":28638:28644   */\n      dup5\n        /* \"#utility.yul\":28594:28666   */\n      tag_420\n      jump\t// in\n    tag_714:\n        /* \"#utility.yul\":28341:28673   */\n      swap4\n      swap3\n      pop\n      pop\n      pop\n      jump\t// out\n\n    auxdata: 0xa2646970667358221220c826fc8dee317104c7366fc6fd9e4450caf7dfd0e6c32315cdc25ade692368c564736f6c634300081e0033\n}\n",
				"bytecode": {
					"linkReferences": {},
					"object": "60a0604052604051806060016040528062278d0062ffffff168152602001624f1a0062ffffff1681526020016276a70062ffffff168152506003906003610047929190610402565b5060405180606001604052806101f461ffff1681526020016103e861ffff1681526020016105dc61ffff168152506006906003610085929190610449565b50348015610091575f5ffd5b5060405161376338038061376383398181016040528101906100b39190610508565b335f73ffffffffffffffffffffffffffffffffffffffff168173ffffffffffffffffffffffffffffffffffffffff1603610124575f6040517f1e4fbdf700000000000000000000000000000000000000000000000000000000815260040161011b9190610567565b60405180910390fd5b6101338161034160201b60201c565b50600180819055505f73ffffffffffffffffffffffffffffffffffffffff168373ffffffffffffffffffffffffffffffffffffffff16036101a9576040517f08c379a00000000000000000000000000000000000000000000000000000000081526004016101a0906105da565b60405180910390fd5b5f73ffffffffffffffffffffffffffffffffffffffff168273ffffffffffffffffffffffffffffffffffffffff1603610217576040517f08c379a000000000000000000000000000000000000000000000000000000000815260040161020e90610642565b60405180910390fd5b5f73ffffffffffffffffffffffffffffffffffffffff168173ffffffffffffffffffffffffffffffffffffffff1603610285576040517f08c379a000000000000000000000000000000000000000000000000000000000815260040161027c906106aa565b60405180910390fd5b8273ffffffffffffffffffffffffffffffffffffffff1660808173ffffffffffffffffffffffffffffffffffffffff16815250508160025f6101000a81548173ffffffffffffffffffffffffffffffffffffffff021916908373ffffffffffffffffffffffffffffffffffffffff16021790555080600d5f6101000a81548173ffffffffffffffffffffffffffffffffffffffff021916908373ffffffffffffffffffffffffffffffffffffffff1602179055505050506106c8565b5f5f5f9054906101000a900473ffffffffffffffffffffffffffffffffffffffff169050815f5f6101000a81548173ffffffffffffffffffffffffffffffffffffffff021916908373ffffffffffffffffffffffffffffffffffffffff1602179055508173ffffffffffffffffffffffffffffffffffffffff168173ffffffffffffffffffffffffffffffffffffffff167f8be0079c531659141344cd1fd0a4f28419497f9722a3daafe3b4186f6b6457e060405160405180910390a35050565b8260038101928215610438579160200282015b82811115610437578251829062ffffff16905591602001919060010190610415565b5b509050610445919061048f565b5090565b826003810192821561047e579160200282015b8281111561047d578251829061ffff1690559160200191906001019061045c565b5b50905061048b919061048f565b5090565b5b808211156104a6575f815f905550600101610490565b5090565b5f5ffd5b5f73ffffffffffffffffffffffffffffffffffffffff82169050919050565b5f6104d7826104ae565b9050919050565b6104e7816104cd565b81146104f1575f5ffd5b50565b5f81519050610502816104de565b92915050565b5f5f5f6060848603121561051f5761051e6104aa565b5b5f61052c868287016104f4565b935050602061053d868287016104f4565b925050604061054e868287016104f4565b9150509250925092565b610561816104cd565b82525050565b5f60208201905061057a5f830184610558565b92915050565b5f82825260208201905092915050565b7f496e76616c6964207374616b696e6720746f6b656e00000000000000000000005f82015250565b5f6105c4601583610580565b91506105cf82610590565b602082019050919050565b5f6020820190508181035f8301526105f1816105b8565b9050919050565b7f496e76616c69642072657761726420746f6b656e0000000000000000000000005f82015250565b5f61062c601483610580565b9150610637826105f8565b602082019050919050565b5f6020820190508181035f83015261065981610620565b9050919050565b7f496e76616c6964206665652072656365697665720000000000000000000000005f82015250565b5f610694601483610580565b915061069f82610660565b602082019050919050565b5f6020820190508181035f8301526106c181610688565b9050919050565b60805161307c6106e75f395f8181610eca0152611239015261307c5ff3fe608060405234801561000f575f5ffd5b50600436106101ee575f3560e01c8063817b1cd21161010d578063c7b8981c116100a0578063f2fde38b1161006f578063f2fde38b14610561578063f55ad3ec1461057d578063f7c618c1146105ad578063f8cf31cb146105cb576101ee565b8063c7b8981c146104fd578063d854fb7514610507578063e6a69ab814610525578063e8a3539214610543576101ee565b8063b3f00674116100dc578063b3f006741461049d578063bbd36b61146104bb578063c4ae3168146104d7578063c69bebe4146104e1576101ee565b8063817b1cd2146104295780638da5cb5b1461044757806395a2906014610465578063ae169a5014610481576101ee565b8063584b62a111610185578063715018a611610154578063715018a6146103c557806372f702f3146103cf578063794a62d3146103ed5780637a5c08ae1461040b576101ee565b8063584b62a1146103265780635acd2e4c1461035b5780635c975abb146103775780636b494def14610395576101ee565b80633d92f4e2116101c15780633d92f4e2146102a05780634060e257146102be5780634c8f2a78146102da578063561b24631461030a576101ee565b80630630e463146101f25780631747e0b0146102225780631852e8d91461025257806338bceaac14610282575b5f5ffd5b61020c600480360381019061020791906123ad565b6105e7565b60405161021991906123f0565b60405180910390f35b61023c600480360381019061023791906123ad565b6105fc565b6040516102499190612553565b60405180910390f35b61026c6004803603810190610267919061259d565b6106f1565b60405161027991906123f0565b60405180910390f35b61028a6109aa565b60405161029791906123f0565b60405180910390f35b6102a86109af565b6040516102b591906123f0565b60405180910390f35b6102d860048036038101906102d391906125db565b6109b5565b005b6102f460048036038101906102ef91906125db565b610d5e565b60405161030191906123f0565b60405180910390f35b610324600480360381019061031f9190612630565b610d77565b005b610340600480360381019061033b919061259d565b6110a6565b6040516103529695949392919061268f565b60405180910390f35b610375600480360381019061037091906126ee565b611111565b005b61037f6111f8565b60405161038c919061272c565b60405180910390f35b6103af60048036038101906103aa91906125db565b61120b565b6040516103bc91906123f0565b60405180910390f35b6103cd611224565b005b6103d7611237565b6040516103e491906127a0565b60405180910390f35b6103f561125b565b60405161040291906123f0565b60405180910390f35b610413611265565b60405161042091906123f0565b60405180910390f35b61043161126b565b60405161043e91906123f0565b60405180910390f35b61044f611271565b60405161045c91906127c8565b60405180910390f35b61047f600480360381019061047a91906125db565b611298565b005b61049b600480360381019061049691906125db565b6114b1565b005b6104a56118f5565b6040516104b291906127c8565b60405180910390f35b6104d560048036038101906104d091906125db565b61191a565b005b6104df611a1b565b005b6104fb60048036038101906104f691906123ad565b611a8d565b005b610505611b89565b005b61050f611d4b565b60405161051c91906123f0565b60405180910390f35b61052d611d54565b60405161053a91906123f0565b60405180910390f35b61054b611d5c565b60405161055891906127c8565b60405180910390f35b61057b600480360381019061057691906123ad565b611d84565b005b610597600480360381019061059291906125db565b611e08565b6040516105a491906123f0565b60405180910390f35b6105b5611e69565b6040516105c291906127a0565b60405180910390f35b6105e560048036038101906105e091906123ad565b611e8e565b005b600a602052805f5260405f205f915090505481565b606060095f8373ffffffffffffffffffffffffffffffffffffffff1673ffffffffffffffffffffffffffffffffffffffff1681526020019081526020015f20805480602002602001604051908101604052809291908181526020015f905b828210156106e6578382905f5260205f2090600502016040518060c00160405290815f82015481526020016001820154815260200160028201548152602001600382015f9054906101000a900460ff161515151581526020016003820160019054906101000a900460ff161515151581526020016004820154815250508152602001906001019061065a565b505050509050919050565b5f5f73ffffffffffffffffffffffffffffffffffffffff168373ffffffffffffffffffffffffffffffffffffffff1603610760576040517f08c379a00000000000000000000000000000000000000000000000000000000081526004016107579061283b565b60405180910390fd5b60095f8473ffffffffffffffffffffffffffffffffffffffff1673ffffffffffffffffffffffffffffffffffffffff1681526020019081526020015f208054905082106107e2576040517f08c379a00000000000000000000000000000000000000000000000000000000081526004016107d9906128a3565b60405180910390fd5b5f60095f8573ffffffffffffffffffffffffffffffffffffffff1673ffffffffffffffffffffffffffffffffffffffff1681526020019081526020015f208381548110610832576108316128c1565b5b905f5260205f2090600502016040518060c00160405290815f82015481526020016001820154815260200160028201548152602001600382015f9054906101000a900460ff161515151581526020016003820160019054906101000a900460ff1615151515815260200160048201548152505090508060600151156108ec576040517f08c379a00000000000000000000000000000000000000000000000000000000081526004016108e390612938565b60405180910390fd5b5f816040015190508160800151801561090457508042115b1561090d574290505b5f82602001518261091e9190612983565b90505f61093d846020015185604001516109389190612983565b611f8a565b90505f8460a00151855f015161095391906129b6565b90506301e1338061271061096791906129e9565b836006846003811061097c5761097b6128c1565b5b01548361098991906129e9565b61099391906129e9565b61099d9190612a57565b9550505050505092915050565b603281565b61271081565b6109bd61200c565b3373ffffffffffffffffffffffffffffffffffffffff163273ffffffffffffffffffffffffffffffffffffffff1614610a2b576040517f08c379a0000000000000000000000000000000000000000000000000000000008152600401610a2290612ad1565b60405180910390fd5b600d60149054906101000a900460ff1615610a7b576040517f08c379a0000000000000000000000000000000000000000000000000000000008152600401610a7290612b39565b60405180910390fd5b5f33905060095f8273ffffffffffffffffffffffffffffffffffffffff1673ffffffffffffffffffffffffffffffffffffffff1681526020019081526020015f20805490508210610b01576040517f08c379a0000000000000000000000000000000000000000000000000000000008152600401610af8906128a3565b60405180910390fd5b5f60095f8373ffffffffffffffffffffffffffffffffffffffff1673ffffffffffffffffffffffffffffffffffffffff1681526020019081526020015f208381548110610b5157610b506128c1565b5b905f5260205f2090600502019050806003015f9054906101000a900460ff1615610bb0576040517f08c379a0000000000000000000000000000000000000000000000000000000008152600401610ba790612938565b60405180910390fd5b8060030160019054906101000a900460ff16610c01576040517f08c379a0000000000000000000000000000000000000000000000000000000008152600401610bf890612ba1565b60405180910390fd5b8060020154421015610c48576040517f08c379a0000000000000000000000000000000000000000000000000000000008152600401610c3f90612c09565b60405180910390fd5b5f610c5383856106f1565b905080600c541015610c9a576040517f08c379a0000000000000000000000000000000000000000000000000000000008152600401610c9190612c71565b60405180910390fd5b42826001018190555081600101548260020154610cb79190612983565b42610cc291906129b6565b826002018190555080826004015f828254610cdd91906129b6565b9250508190555080600c5f828254610cf59190612983565b925050819055508273ffffffffffffffffffffffffffffffffffffffff167f593662cbe53e88df3fef748665b8c3d3142e5d34dc1b24290f7e953537a00183858460040154604051610d48929190612c8f565b60405180910390a2505050610d5b61205b565b50565b60038160038110610d6d575f80fd5b015f915090505481565b610d7f61200c565b3373ffffffffffffffffffffffffffffffffffffffff163273ffffffffffffffffffffffffffffffffffffffff1614610ded576040517f08c379a0000000000000000000000000000000000000000000000000000000008152600401610de490612ad1565b60405180910390fd5b600d60149054906101000a900460ff1615610e3d576040517f08c379a0000000000000000000000000000000000000000000000000000000008152600401610e3490612b39565b60405180910390fd5b60038210610e80576040517f08c379a0000000000000000000000000000000000000000000000000000000008152600401610e7790612d00565b60405180910390fd5b5f8311610ec2576040517f08c379a0000000000000000000000000000000000000000000000000000000008152600401610eb990612d68565b60405180910390fd5b610f0f3330857f000000000000000000000000000000000000000000000000000000000000000073ffffffffffffffffffffffffffffffffffffffff16612064909392919063ffffffff16565b5f60038360038110610f2457610f236128c1565b5b015442610f3191906129b6565b905060095f3373ffffffffffffffffffffffffffffffffffffffff1673ffffffffffffffffffffffffffffffffffffffff1681526020019081526020015f206040518060c001604052808681526020014281526020018381526020015f1515815260200184151581526020015f815250908060018154018082558091505060019003905f5260205f2090600502015f909190919091505f820151815f015560208201518160010155604082015181600201556060820151816003015f6101000a81548160ff02191690831515021790555060808201518160030160016101000a81548160ff02191690831515021790555060a08201518160040155505083600b5f82825461103f91906129b6565b925050819055503373ffffffffffffffffffffffffffffffffffffffff167f3df45cb339f96ae4bdb793efcb6e22100dd0dc4fd739a4ee2033fe67ea35af9685858560405161109093929190612d86565b60405180910390a2506110a161205b565b505050565b6009602052815f5260405f2081815481106110bf575f80fd5b905f5260205f2090600502015f9150915050805f015490806001015490806002015490806003015f9054906101000a900460ff16908060030160019054906101000a900460ff16908060040154905086565b6111196120e6565b6003821061115c576040517f08c379a000000000000000000000000000000000000000000000000000000000815260040161115390612d00565b60405180910390fd5b6127108111156111a1576040517f08c379a000000000000000000000000000000000000000000000000000000000815260040161119890612e05565b60405180910390fd5b80600683600381106111b6576111b56128c1565b5b01819055507f787a1fca55641ce34a438271930bbb9401df20db2b4f510d4f252227d85df43d82826040516111ec929190612c8f565b60405180910390a15050565b600d60149054906101000a900460ff1681565b6006816003811061121a575f80fd5b015f915090505481565b61122c6120e6565b6112355f61216d565b565b7f000000000000000000000000000000000000000000000000000000000000000081565b5f62030d40905090565b600c5481565b600b5481565b5f5f5f9054906101000a900473ffffffffffffffffffffffffffffffffffffffff16905090565b600d60149054906101000a900460ff16156112e8576040517f08c379a00000000000000000000000000000000000000000000000000000000081526004016112df90612b39565b60405180910390fd5b5f33905060095f8273ffffffffffffffffffffffffffffffffffffffff1673ffffffffffffffffffffffffffffffffffffffff1681526020019081526020015f2080549050821061136e576040517f08c379a0000000000000000000000000000000000000000000000000000000008152600401611365906128a3565b60405180910390fd5b5f60095f8373ffffffffffffffffffffffffffffffffffffffff1673ffffffffffffffffffffffffffffffffffffffff1681526020019081526020015f2083815481106113be576113bd6128c1565b5b905f5260205f2090600502019050806003015f9054906101000a900460ff161561141d576040517f08c379a000000000000000000000000000000000000000000000000000000000815260040161141490612938565b60405180910390fd5b8060030160019054906101000a900460ff16158160030160016101000a81548160ff0219169083151502179055508173ffffffffffffffffffffffffffffffffffffffff167ffa2d7b35e7cc82247c5ae7e8ae2dc078c2b144b76a6b1068887b3c8892c15da5848360030160019054906101000a900460ff166040516114a4929190612e23565b60405180910390a2505050565b6114b961200c565b3373ffffffffffffffffffffffffffffffffffffffff163273ffffffffffffffffffffffffffffffffffffffff1614611527576040517f08c379a000000000000000000000000000000000000000000000000000000000815260040161151e90612ad1565b60405180910390fd5b600d60149054906101000a900460ff1615611577576040517f08c379a000000000000000000000000000000000000000000000000000000000815260040161156e90612b39565b60405180910390fd5b5f3390505f60095f8373ffffffffffffffffffffffffffffffffffffffff1673ffffffffffffffffffffffffffffffffffffffff1681526020019081526020015f2083815481106115cb576115ca6128c1565b5b905f5260205f2090600502019050806003015f9054906101000a900460ff161561162a576040517f08c379a000000000000000000000000000000000000000000000000000000000815260040161162190612938565b60405180910390fd5b8060020154421015611671576040517f08c379a000000000000000000000000000000000000000000000000000000000815260040161166890612c09565b60405180910390fd5b5f61167c83856106f1565b905080600c5410156116c3576040517f08c379a00000000000000000000000000000000000000000000000000000000081526004016116ba90612c71565b60405180910390fd5b6001826003015f6101000a81548160ff0219169083151502179055508160030160019054906101000a900460ff16801561170057505f8260040154115b1561182b575f81836004015461171691906129b6565b90505f61271060328361172991906129e9565b6117339190612a57565b90505f81836117429190612983565b905080600a5f8873ffffffffffffffffffffffffffffffffffffffff1673ffffffffffffffffffffffffffffffffffffffff1681526020019081526020015f205f82825461179091906129b6565b9250508190555081600a5f600d5f9054906101000a900473ffffffffffffffffffffffffffffffffffffffff1673ffffffffffffffffffffffffffffffffffffffff1673ffffffffffffffffffffffffffffffffffffffff1681526020019081526020015f205f82825461180491906129b6565b9250508190555082600c5f82825461181c9190612983565b92505081905550505050611897565b80600a5f8573ffffffffffffffffffffffffffffffffffffffff1673ffffffffffffffffffffffffffffffffffffffff1681526020019081526020015f205f82825461187791906129b6565b9250508190555080600c5f82825461188f9190612983565b925050819055505b8273ffffffffffffffffffffffffffffffffffffffff167f987d620f307ff6b94d58743cb7a7509f24071586a77759b77c2d4e29f75a2f9a82866040516118df929190612c8f565b60405180910390a25050506118f261205b565b50565b600d5f9054906101000a900473ffffffffffffffffffffffffffffffffffffffff1681565b6119226120e6565b5f8111611964576040517f08c379a000000000000000000000000000000000000000000000000000000000815260040161195b90612d68565b60405180910390fd5b6119b233308360025f9054906101000a900473ffffffffffffffffffffffffffffffffffffffff1673ffffffffffffffffffffffffffffffffffffffff16612064909392919063ffffffff16565b80600c5f8282546119c391906129b6565b925050819055503373ffffffffffffffffffffffffffffffffffffffff167fd15dafc20a4e1ccff3e1b0a321ba0ee5c9b2aa1b9c7cae08fb5a32453753624482604051611a1091906123f0565b60405180910390a250565b611a236120e6565b600d60149054906101000a900460ff1615600d60146101000a81548160ff021916908315150217905550600d60149054906101000a900460ff1615157f752d7e161ff5146f80e3820893176eb40532811e5e20400dfdde57455213706a60405160405180910390a2565b611a956120e6565b5f73ffffffffffffffffffffffffffffffffffffffff168173ffffffffffffffffffffffffffffffffffffffff1603611b03576040517f08c379a0000000000000000000000000000000000000000000000000000000008152600401611afa90612e94565b60405180910390fd5b80600d5f6101000a81548173ffffffffffffffffffffffffffffffffffffffff021916908373ffffffffffffffffffffffffffffffffffffffff1602179055508073ffffffffffffffffffffffffffffffffffffffff167f27aae5db36d94179909d019ae0b1ac7c16d96d953148f63c0f6a0a9c8ead79ee60405160405180910390a250565b611b9161200c565b600d60149054906101000a900460ff1615611be1576040517f08c379a0000000000000000000000000000000000000000000000000000000008152600401611bd890612b39565b60405180910390fd5b5f600a5f3373ffffffffffffffffffffffffffffffffffffffff1673ffffffffffffffffffffffffffffffffffffffff1681526020019081526020015f205490505f8111611c64576040517f08c379a0000000000000000000000000000000000000000000000000000000008152600401611c5b90612efc565b60405180910390fd5b5f600a5f3373ffffffffffffffffffffffffffffffffffffffff1673ffffffffffffffffffffffffffffffffffffffff1681526020019081526020015f2081905550611cf2338260025f9054906101000a900473ffffffffffffffffffffffffffffffffffffffff1673ffffffffffffffffffffffffffffffffffffffff1661222e9092919063ffffffff16565b3373ffffffffffffffffffffffffffffffffffffffff167fbd1ea9966f82ccb966523d3922a6e4ad4bf3ea70e9201bd7a106de847cc5e61682604051611d3891906123f0565b60405180910390a250611d4961205b565b565b5f600c54905090565b6301e1338081565b5f600d5f9054906101000a900473ffffffffffffffffffffffffffffffffffffffff16905090565b611d8c6120e6565b5f73ffffffffffffffffffffffffffffffffffffffff168173ffffffffffffffffffffffffffffffffffffffff1603611dfc575f6040517f1e4fbdf7000000000000000000000000000000000000000000000000000000008152600401611df391906127c8565b60405180910390fd5b611e058161216d565b50565b5f60038210611e4c576040517f08c379a0000000000000000000000000000000000000000000000000000000008152600401611e4390612d00565b60405180910390fd5b60038260038110611e6057611e5f6128c1565b5b01549050919050565b60025f9054906101000a900473ffffffffffffffffffffffffffffffffffffffff1681565b611e966120e6565b5f73ffffffffffffffffffffffffffffffffffffffff168173ffffffffffffffffffffffffffffffffffffffff1603611f04576040517f08c379a0000000000000000000000000000000000000000000000000000000008152600401611efb90612e94565b60405180910390fd5b8060025f6101000a81548173ffffffffffffffffffffffffffffffffffffffff021916908373ffffffffffffffffffffffffffffffffffffffff1602179055508073ffffffffffffffffffffffffffffffffffffffff167fa5289ba11778999f4dfb9415023783188d42bbb5db0612cbfbe55999069612a060405160405180910390a250565b5f5f5f90505b6003811015611fcb5760038160038110611fad57611fac6128c1565b5b01548303611fbe5780915050612007565b8080600101915050611f90565b506040517f08c379a0000000000000000000000000000000000000000000000000000000008152600401611ffe90612f64565b60405180910390fd5b919050565b600260015403612051576040517f08c379a000000000000000000000000000000000000000000000000000000000815260040161204890612fcc565b60405180910390fd5b6002600181905550565b60018081905550565b6120e0848573ffffffffffffffffffffffffffffffffffffffff166323b872dd86868660405160240161209993929190612fea565b604051602081830303815290604052915060e01b6020820180517bffffffffffffffffffffffffffffffffffffffffffffffffffffffff83818316178352505050506122ad565b50505050565b6120ee612348565b73ffffffffffffffffffffffffffffffffffffffff1661210c611271565b73ffffffffffffffffffffffffffffffffffffffff161461216b5761212f612348565b6040517f118cdaa700000000000000000000000000000000000000000000000000000000815260040161216291906127c8565b60405180910390fd5b565b5f5f5f9054906101000a900473ffffffffffffffffffffffffffffffffffffffff169050815f5f6101000a81548173ffffffffffffffffffffffffffffffffffffffff021916908373ffffffffffffffffffffffffffffffffffffffff1602179055508173ffffffffffffffffffffffffffffffffffffffff168173ffffffffffffffffffffffffffffffffffffffff167f8be0079c531659141344cd1fd0a4f28419497f9722a3daafe3b4186f6b6457e060405160405180910390a35050565b6122a8838473ffffffffffffffffffffffffffffffffffffffff1663a9059cbb858560405160240161226192919061301f565b604051602081830303815290604052915060e01b6020820180517bffffffffffffffffffffffffffffffffffffffffffffffffffffffff83818316178352505050506122ad565b505050565b5f5f60205f8451602086015f885af1806122cc576040513d5f823e3d81fd5b3d92505f519150505f82146122e5576001811415612300565b5f8473ffffffffffffffffffffffffffffffffffffffff163b145b1561234257836040517f5274afe700000000000000000000000000000000000000000000000000000000815260040161233991906127c8565b60405180910390fd5b50505050565b5f33905090565b5f5ffd5b5f73ffffffffffffffffffffffffffffffffffffffff82169050919050565b5f61237c82612353565b9050919050565b61238c81612372565b8114612396575f5ffd5b50565b5f813590506123a781612383565b92915050565b5f602082840312156123c2576123c161234f565b5b5f6123cf84828501612399565b91505092915050565b5f819050919050565b6123ea816123d8565b82525050565b5f6020820190506124035f8301846123e1565b92915050565b5f81519050919050565b5f82825260208201905092915050565b5f819050602082019050919050565b61243b816123d8565b82525050565b5f8115159050919050565b61245581612441565b82525050565b60c082015f82015161246f5f850182612432565b5060208201516124826020850182612432565b5060408201516124956040850182612432565b5060608201516124a8606085018261244c565b5060808201516124bb608085018261244c565b5060a08201516124ce60a0850182612432565b50505050565b5f6124df838361245b565b60c08301905092915050565b5f602082019050919050565b5f61250182612409565b61250b8185612413565b935061251683612423565b805f5b8381101561254657815161252d88826124d4565b9750612538836124eb565b925050600181019050612519565b5085935050505092915050565b5f6020820190508181035f83015261256b81846124f7565b905092915050565b61257c816123d8565b8114612586575f5ffd5b50565b5f8135905061259781612573565b92915050565b5f5f604083850312156125b3576125b261234f565b5b5f6125c085828601612399565b92505060206125d185828601612589565b9150509250929050565b5f602082840312156125f0576125ef61234f565b5b5f6125fd84828501612589565b91505092915050565b61260f81612441565b8114612619575f5ffd5b50565b5f8135905061262a81612606565b92915050565b5f5f5f606084860312156126475761264661234f565b5b5f61265486828701612589565b935050602061266586828701612589565b92505060406126768682870161261c565b9150509250925092565b61268981612441565b82525050565b5f60c0820190506126a25f8301896123e1565b6126af60208301886123e1565b6126bc60408301876123e1565b6126c96060830186612680565b6126d66080830185612680565b6126e360a08301846123e1565b979650505050505050565b5f5f604083850312156127045761270361234f565b5b5f61271185828601612589565b925050602061272285828601612589565b9150509250929050565b5f60208201905061273f5f830184612680565b92915050565b5f819050919050565b5f61276861276361275e84612353565b612745565b612353565b9050919050565b5f6127798261274e565b9050919050565b5f61278a8261276f565b9050919050565b61279a81612780565b82525050565b5f6020820190506127b35f830184612791565b92915050565b6127c281612372565b82525050565b5f6020820190506127db5f8301846127b9565b92915050565b5f82825260208201905092915050565b7f496e76616c6964206163636f756e7400000000000000000000000000000000005f82015250565b5f612825600f836127e1565b9150612830826127f1565b602082019050919050565b5f6020820190508181035f83015261285281612819565b9050919050565b7f496e76616c6964207374616b6520696e646578000000000000000000000000005f82015250565b5f61288d6013836127e1565b915061289882612859565b602082019050919050565b5f6020820190508181035f8301526128ba81612881565b9050919050565b7f4e487b71000000000000000000000000000000000000000000000000000000005f52603260045260245ffd5b7f416c726561647920636c61696d656400000000000000000000000000000000005f82015250565b5f612922600f836127e1565b915061292d826128ee565b602082019050919050565b5f6020820190508181035f83015261294f81612916565b9050919050565b7f4e487b71000000000000000000000000000000000000000000000000000000005f52601160045260245ffd5b5f61298d826123d8565b9150612998836123d8565b92508282039050818111156129b0576129af612956565b5b92915050565b5f6129c0826123d8565b91506129cb836123d8565b92508282019050808211156129e3576129e2612956565b5b92915050565b5f6129f3826123d8565b91506129fe836123d8565b9250828202612a0c816123d8565b91508282048414831517612a2357612a22612956565b5b5092915050565b7f4e487b71000000000000000000000000000000000000000000000000000000005f52601260045260245ffd5b5f612a61826123d8565b9150612a6c836123d8565b925082612a7c57612a7b612a2a565b5b828204905092915050565b7f4f6e6c7920454f412063616e2063616c6c0000000000000000000000000000005f82015250565b5f612abb6011836127e1565b9150612ac682612a87565b602082019050919050565b5f6020820190508181035f830152612ae881612aaf565b9050919050565b7f436f6e74726163742070617573656400000000000000000000000000000000005f82015250565b5f612b23600f836127e1565b9150612b2e82612aef565b602082019050919050565b5f6020820190508181035f830152612b5081612b17565b9050919050565b7f4175746f2d7374616b696e672064697361626c656400000000000000000000005f82015250565b5f612b8b6015836127e1565b9150612b9682612b57565b602082019050919050565b5f6020820190508181035f830152612bb881612b7f565b9050919050565b7f5374696c6c206c6f636b656400000000000000000000000000000000000000005f82015250565b5f612bf3600c836127e1565b9150612bfe82612bbf565b602082019050919050565b5f6020820190508181035f830152612c2081612be7565b9050919050565b7f496e73756666696369656e742072657761726420706f6f6c00000000000000005f82015250565b5f612c5b6018836127e1565b9150612c6682612c27565b602082019050919050565b5f6020820190508181035f830152612c8881612c4f565b9050919050565b5f604082019050612ca25f8301856123e1565b612caf60208301846123e1565b9392505050565b7f496e76616c696420706572696f6420696e6465780000000000000000000000005f82015250565b5f612cea6014836127e1565b9150612cf582612cb6565b602082019050919050565b5f6020820190508181035f830152612d1781612cde565b9050919050565b7f5a65726f20616d6f756e740000000000000000000000000000000000000000005f82015250565b5f612d52600b836127e1565b9150612d5d82612d1e565b602082019050919050565b5f6020820190508181035f830152612d7f81612d46565b9050919050565b5f606082019050612d995f8301866123e1565b612da660208301856123e1565b612db36040830184612680565b949350505050565b7f41505920746f6f206869676800000000000000000000000000000000000000005f82015250565b5f612def600c836127e1565b9150612dfa82612dbb565b602082019050919050565b5f6020820190508181035f830152612e1c81612de3565b9050919050565b5f604082019050612e365f8301856123e1565b612e436020830184612680565b9392505050565b7f5a65726f2061646472657373206e6f7420616c6c6f77656400000000000000005f82015250565b5f612e7e6018836127e1565b9150612e8982612e4a565b602082019050919050565b5f6020820190508181035f830152612eab81612e72565b9050919050565b7f4e6f207265776172647320746f207769746864726177000000000000000000005f82015250565b5f612ee66016836127e1565b9150612ef182612eb2565b602082019050919050565b5f6020820190508181035f830152612f1381612eda565b9050919050565b7f556e737570706f72746564206c6f636b20706572696f640000000000000000005f82015250565b5f612f4e6017836127e1565b9150612f5982612f1a565b602082019050919050565b5f6020820190508181035f830152612f7b81612f42565b9050919050565b7f5265656e7472616e637947756172643a207265656e7472616e742063616c6c005f82015250565b5f612fb6601f836127e1565b9150612fc182612f82565b602082019050919050565b5f6020820190508181035f830152612fe381612faa565b9050919050565b5f606082019050612ffd5f8301866127b9565b61300a60208301856127b9565b61301760408301846123e1565b949350505050565b5f6040820190506130325f8301856127b9565b61303f60208301846123e1565b939250505056fea2646970667358221220c826fc8dee317104c7366fc6fd9e4450caf7dfd0e6c32315cdc25ade692368c564736f6c634300081e0033",
					"opcodes": "PUSH1 0xA0 PUSH1 0x40 MSTORE PUSH1 0x40 MLOAD DUP1 PUSH1 0x60 ADD PUSH1 0x40 MSTORE DUP1 PUSH3 0x278D00 PUSH3 0xFFFFFF AND DUP2 MSTORE PUSH1 0x20 ADD PUSH3 0x4F1A00 PUSH3 0xFFFFFF AND DUP2 MSTORE PUSH1 0x20 ADD PUSH3 0x76A700 PUSH3 0xFFFFFF AND DUP2 MSTORE POP PUSH1 0x3 SWAP1 PUSH1 0x3 PUSH2 0x47 SWAP3 SWAP2 SWAP1 PUSH2 0x402 JUMP JUMPDEST POP PUSH1 0x40 MLOAD DUP1 PUSH1 0x60 ADD PUSH1 0x40 MSTORE DUP1 PUSH2 0x1F4 PUSH2 0xFFFF AND DUP2 MSTORE PUSH1 0x20 ADD PUSH2 0x3E8 PUSH2 0xFFFF AND DUP2 MSTORE PUSH1 0x20 ADD PUSH2 0x5DC PUSH2 0xFFFF AND DUP2 MSTORE POP PUSH1 0x6 SWAP1 PUSH1 0x3 PUSH2 0x85 SWAP3 SWAP2 SWAP1 PUSH2 0x449 JUMP JUMPDEST POP CALLVALUE DUP1 ISZERO PUSH2 0x91 JUMPI PUSH0 PUSH0 REVERT JUMPDEST POP PUSH1 0x40 MLOAD PUSH2 0x3763 CODESIZE SUB DUP1 PUSH2 0x3763 DUP4 CODECOPY DUP2 DUP2 ADD PUSH1 0x40 MSTORE DUP2 ADD SWAP1 PUSH2 0xB3 SWAP2 SWAP1 PUSH2 0x508 JUMP JUMPDEST CALLER PUSH0 PUSH20 0xFFFFFFFFFFFFFFFFFFFFFFFFFFFFFFFFFFFFFFFF AND DUP2 PUSH20 0xFFFFFFFFFFFFFFFFFFFFFFFFFFFFFFFFFFFFFFFF AND SUB PUSH2 0x124 JUMPI PUSH0 PUSH1 0x40 MLOAD PUSH32 0x1E4FBDF700000000000000000000000000000000000000000000000000000000 DUP2 MSTORE PUSH1 0x4 ADD PUSH2 0x11B SWAP2 SWAP1 PUSH2 0x567 JUMP JUMPDEST PUSH1 0x40 MLOAD DUP1 SWAP2 SUB SWAP1 REVERT JUMPDEST PUSH2 0x133 DUP2 PUSH2 0x341 PUSH1 0x20 SHL PUSH1 0x20 SHR JUMP JUMPDEST POP PUSH1 0x1 DUP1 DUP2 SWAP1 SSTORE POP PUSH0 PUSH20 0xFFFFFFFFFFFFFFFFFFFFFFFFFFFFFFFFFFFFFFFF AND DUP4 PUSH20 0xFFFFFFFFFFFFFFFFFFFFFFFFFFFFFFFFFFFFFFFF AND SUB PUSH2 0x1A9 JUMPI PUSH1 0x40 MLOAD PUSH32 0x8C379A000000000000000000000000000000000000000000000000000000000 DUP2 MSTORE PUSH1 0x4 ADD PUSH2 0x1A0 SWAP1 PUSH2 0x5DA JUMP JUMPDEST PUSH1 0x40 MLOAD DUP1 SWAP2 SUB SWAP1 REVERT JUMPDEST PUSH0 PUSH20 0xFFFFFFFFFFFFFFFFFFFFFFFFFFFFFFFFFFFFFFFF AND DUP3 PUSH20 0xFFFFFFFFFFFFFFFFFFFFFFFFFFFFFFFFFFFFFFFF AND SUB PUSH2 0x217 JUMPI PUSH1 0x40 MLOAD PUSH32 0x8C379A000000000000000000000000000000000000000000000000000000000 DUP2 MSTORE PUSH1 0x4 ADD PUSH2 0x20E SWAP1 PUSH2 0x642 JUMP JUMPDEST PUSH1 0x40 MLOAD DUP1 SWAP2 SUB SWAP1 REVERT JUMPDEST PUSH0 PUSH20 0xFFFFFFFFFFFFFFFFFFFFFFFFFFFFFFFFFFFFFFFF AND DUP2 PUSH20 0xFFFFFFFFFFFFFFFFFFFFFFFFFFFFFFFFFFFFFFFF AND SUB PUSH2 0x285 JUMPI PUSH1 0x40 MLOAD PUSH32 0x8C379A000000000000000000000000000000000000000000000000000000000 DUP2 MSTORE PUSH1 0x4 ADD PUSH2 0x27C SWAP1 PUSH2 0x6AA JUMP JUMPDEST PUSH1 0x40 MLOAD DUP1 SWAP2 SUB SWAP1 REVERT JUMPDEST DUP3 PUSH20 0xFFFFFFFFFFFFFFFFFFFFFFFFFFFFFFFFFFFFFFFF AND PUSH1 0x80 DUP2 PUSH20 0xFFFFFFFFFFFFFFFFFFFFFFFFFFFFFFFFFFFFFFFF AND DUP2 MSTORE POP POP DUP2 PUSH1 0x2 PUSH0 PUSH2 0x100 EXP DUP2 SLOAD DUP2 PUSH20 0xFFFFFFFFFFFFFFFFFFFFFFFFFFFFFFFFFFFFFFFF MUL NOT AND SWAP1 DUP4 PUSH20 0xFFFFFFFFFFFFFFFFFFFFFFFFFFFFFFFFFFFFFFFF AND MUL OR SWAP1 SSTORE POP DUP1 PUSH1 0xD PUSH0 PUSH2 0x100 EXP DUP2 SLOAD DUP2 PUSH20 0xFFFFFFFFFFFFFFFFFFFFFFFFFFFFFFFFFFFFFFFF MUL NOT AND SWAP1 DUP4 PUSH20 0xFFFFFFFFFFFFFFFFFFFFFFFFFFFFFFFFFFFFFFFF AND MUL OR SWAP1 SSTORE POP POP POP POP PUSH2 0x6C8 JUMP JUMPDEST PUSH0 PUSH0 PUSH0 SWAP1 SLOAD SWAP1 PUSH2 0x100 EXP SWAP1 DIV PUSH20 0xFFFFFFFFFFFFFFFFFFFFFFFFFFFFFFFFFFFFFFFF AND SWAP1 POP DUP2 PUSH0 PUSH0 PUSH2 0x100 EXP DUP2 SLOAD DUP2 PUSH20 0xFFFFFFFFFFFFFFFFFFFFFFFFFFFFFFFFFFFFFFFF MUL NOT AND SWAP1 DUP4 PUSH20 0xFFFFFFFFFFFFFFFFFFFFFFFFFFFFFFFFFFFFFFFF AND MUL OR SWAP1 SSTORE POP DUP2 PUSH20 0xFFFFFFFFFFFFFFFFFFFFFFFFFFFFFFFFFFFFFFFF AND DUP2 PUSH20 0xFFFFFFFFFFFFFFFFFFFFFFFFFFFFFFFFFFFFFFFF AND PUSH32 0x8BE0079C531659141344CD1FD0A4F28419497F9722A3DAAFE3B4186F6B6457E0 PUSH1 0x40 MLOAD PUSH1 0x40 MLOAD DUP1 SWAP2 SUB SWAP1 LOG3 POP POP JUMP JUMPDEST DUP3 PUSH1 0x3 DUP2 ADD SWAP3 DUP3 ISZERO PUSH2 0x438 JUMPI SWAP2 PUSH1 0x20 MUL DUP3 ADD JUMPDEST DUP3 DUP2 GT ISZERO PUSH2 0x437 JUMPI DUP3 MLOAD DUP3 SWAP1 PUSH3 0xFFFFFF AND SWAP1 SSTORE SWAP2 PUSH1 0x20 ADD SWAP2 SWAP1 PUSH1 0x1 ADD SWAP1 PUSH2 0x415 JUMP JUMPDEST JUMPDEST POP SWAP1 POP PUSH2 0x445 SWAP2 SWAP1 PUSH2 0x48F JUMP JUMPDEST POP SWAP1 JUMP JUMPDEST DUP3 PUSH1 0x3 DUP2 ADD SWAP3 DUP3 ISZERO PUSH2 0x47E JUMPI SWAP2 PUSH1 0x20 MUL DUP3 ADD JUMPDEST DUP3 DUP2 GT ISZERO PUSH2 0x47D JUMPI DUP3 MLOAD DUP3 SWAP1 PUSH2 0xFFFF AND SWAP1 SSTORE SWAP2 PUSH1 0x20 ADD SWAP2 SWAP1 PUSH1 0x1 ADD SWAP1 PUSH2 0x45C JUMP JUMPDEST JUMPDEST POP SWAP1 POP PUSH2 0x48B SWAP2 SWAP1 PUSH2 0x48F JUMP JUMPDEST POP SWAP1 JUMP JUMPDEST JUMPDEST DUP1 DUP3 GT ISZERO PUSH2 0x4A6 JUMPI PUSH0 DUP2 PUSH0 SWAP1 SSTORE POP PUSH1 0x1 ADD PUSH2 0x490 JUMP JUMPDEST POP SWAP1 JUMP JUMPDEST PUSH0 PUSH0 REVERT JUMPDEST PUSH0 PUSH20 0xFFFFFFFFFFFFFFFFFFFFFFFFFFFFFFFFFFFFFFFF DUP3 AND SWAP1 POP SWAP2 SWAP1 POP JUMP JUMPDEST PUSH0 PUSH2 0x4D7 DUP3 PUSH2 0x4AE JUMP JUMPDEST SWAP1 POP SWAP2 SWAP1 POP JUMP JUMPDEST PUSH2 0x4E7 DUP2 PUSH2 0x4CD JUMP JUMPDEST DUP2 EQ PUSH2 0x4F1 JUMPI PUSH0 PUSH0 REVERT JUMPDEST POP JUMP JUMPDEST PUSH0 DUP2 MLOAD SWAP1 POP PUSH2 0x502 DUP2 PUSH2 0x4DE JUMP JUMPDEST SWAP3 SWAP2 POP POP JUMP JUMPDEST PUSH0 PUSH0 PUSH0 PUSH1 0x60 DUP5 DUP7 SUB SLT ISZERO PUSH2 0x51F JUMPI PUSH2 0x51E PUSH2 0x4AA JUMP JUMPDEST JUMPDEST PUSH0 PUSH2 0x52C DUP7 DUP3 DUP8 ADD PUSH2 0x4F4 JUMP JUMPDEST SWAP4 POP POP PUSH1 0x20 PUSH2 0x53D DUP7 DUP3 DUP8 ADD PUSH2 0x4F4 JUMP JUMPDEST SWAP3 POP POP PUSH1 0x40 PUSH2 0x54E DUP7 DUP3 DUP8 ADD PUSH2 0x4F4 JUMP JUMPDEST SWAP2 POP POP SWAP3 POP SWAP3 POP SWAP3 JUMP JUMPDEST PUSH2 0x561 DUP2 PUSH2 0x4CD JUMP JUMPDEST DUP3 MSTORE POP POP JUMP JUMPDEST PUSH0 PUSH1 0x20 DUP3 ADD SWAP1 POP PUSH2 0x57A PUSH0 DUP4 ADD DUP5 PUSH2 0x558 JUMP JUMPDEST SWAP3 SWAP2 POP POP JUMP JUMPDEST PUSH0 DUP3 DUP3 MSTORE PUSH1 0x20 DUP3 ADD SWAP1 POP SWAP3 SWAP2 POP POP JUMP JUMPDEST PUSH32 0x496E76616C6964207374616B696E6720746F6B656E0000000000000000000000 PUSH0 DUP3 ADD MSTORE POP JUMP JUMPDEST PUSH0 PUSH2 0x5C4 PUSH1 0x15 DUP4 PUSH2 0x580 JUMP JUMPDEST SWAP2 POP PUSH2 0x5CF DUP3 PUSH2 0x590 JUMP JUMPDEST PUSH1 0x20 DUP3 ADD SWAP1 POP SWAP2 SWAP1 POP JUMP JUMPDEST PUSH0 PUSH1 0x20 DUP3 ADD SWAP1 POP DUP2 DUP2 SUB PUSH0 DUP4 ADD MSTORE PUSH2 0x5F1 DUP2 PUSH2 0x5B8 JUMP JUMPDEST SWAP1 POP SWAP2 SWAP1 POP JUMP JUMPDEST PUSH32 0x496E76616C69642072657761726420746F6B656E000000000000000000000000 PUSH0 DUP3 ADD MSTORE POP JUMP JUMPDEST PUSH0 PUSH2 0x62C PUSH1 0x14 DUP4 PUSH2 0x580 JUMP JUMPDEST SWAP2 POP PUSH2 0x637 DUP3 PUSH2 0x5F8 JUMP JUMPDEST PUSH1 0x20 DUP3 ADD SWAP1 POP SWAP2 SWAP1 POP JUMP JUMPDEST PUSH0 PUSH1 0x20 DUP3 ADD SWAP1 POP DUP2 DUP2 SUB PUSH0 DUP4 ADD MSTORE PUSH2 0x659 DUP2 PUSH2 0x620 JUMP JUMPDEST SWAP1 POP SWAP2 SWAP1 POP JUMP JUMPDEST PUSH32 0x496E76616C696420666565207265636569766572000000000000000000000000 PUSH0 DUP3 ADD MSTORE POP JUMP JUMPDEST PUSH0 PUSH2 0x694 PUSH1 0x14 DUP4 PUSH2 0x580 JUMP JUMPDEST SWAP2 POP PUSH2 0x69F DUP3 PUSH2 0x660 JUMP JUMPDEST PUSH1 0x20 DUP3 ADD SWAP1 POP SWAP2 SWAP1 POP JUMP JUMPDEST PUSH0 PUSH1 0x20 DUP3 ADD SWAP1 POP DUP2 DUP2 SUB PUSH0 DUP4 ADD MSTORE PUSH2 0x6C1 DUP2 PUSH2 0x688 JUMP JUMPDEST SWAP1 POP SWAP2 SWAP1 POP JUMP JUMPDEST PUSH1 0x80 MLOAD PUSH2 0x307C PUSH2 0x6E7 PUSH0 CODECOPY PUSH0 DUP2 DUP2 PUSH2 0xECA ADD MSTORE PUSH2 0x1239 ADD MSTORE PUSH2 0x307C PUSH0 RETURN INVALID PUSH1 0x80 PUSH1 0x40 MSTORE CALLVALUE DUP1 ISZERO PUSH2 0xF JUMPI PUSH0 PUSH0 REVERT JUMPDEST POP PUSH1 0x4 CALLDATASIZE LT PUSH2 0x1EE JUMPI PUSH0 CALLDATALOAD PUSH1 0xE0 SHR DUP1 PUSH4 0x817B1CD2 GT PUSH2 0x10D JUMPI DUP1 PUSH4 0xC7B8981C GT PUSH2 0xA0 JUMPI DUP1 PUSH4 0xF2FDE38B GT PUSH2 0x6F JUMPI DUP1 PUSH4 0xF2FDE38B EQ PUSH2 0x561 JUMPI DUP1 PUSH4 0xF55AD3EC EQ PUSH2 0x57D JUMPI DUP1 PUSH4 0xF7C618C1 EQ PUSH2 0x5AD JUMPI DUP1 PUSH4 0xF8CF31CB EQ PUSH2 0x5CB JUMPI PUSH2 0x1EE JUMP JUMPDEST DUP1 PUSH4 0xC7B8981C EQ PUSH2 0x4FD JUMPI DUP1 PUSH4 0xD854FB75 EQ PUSH2 0x507 JUMPI DUP1 PUSH4 0xE6A69AB8 EQ PUSH2 0x525 JUMPI DUP1 PUSH4 0xE8A35392 EQ PUSH2 0x543 JUMPI PUSH2 0x1EE JUMP JUMPDEST DUP1 PUSH4 0xB3F00674 GT PUSH2 0xDC JUMPI DUP1 PUSH4 0xB3F00674 EQ PUSH2 0x49D JUMPI DUP1 PUSH4 0xBBD36B61 EQ PUSH2 0x4BB JUMPI DUP1 PUSH4 0xC4AE3168 EQ PUSH2 0x4D7 JUMPI DUP1 PUSH4 0xC69BEBE4 EQ PUSH2 0x4E1 JUMPI PUSH2 0x1EE JUMP JUMPDEST DUP1 PUSH4 0x817B1CD2 EQ PUSH2 0x429 JUMPI DUP1 PUSH4 0x8DA5CB5B EQ PUSH2 0x447 JUMPI DUP1 PUSH4 0x95A29060 EQ PUSH2 0x465 JUMPI DUP1 PUSH4 0xAE169A50 EQ PUSH2 0x481 JUMPI PUSH2 0x1EE JUMP JUMPDEST DUP1 PUSH4 0x584B62A1 GT PUSH2 0x185 JUMPI DUP1 PUSH4 0x715018A6 GT PUSH2 0x154 JUMPI DUP1 PUSH4 0x715018A6 EQ PUSH2 0x3C5 JUMPI DUP1 PUSH4 0x72F702F3 EQ PUSH2 0x3CF JUMPI DUP1 PUSH4 0x794A62D3 EQ PUSH2 0x3ED JUMPI DUP1 PUSH4 0x7A5C08AE EQ PUSH2 0x40B JUMPI PUSH2 0x1EE JUMP JUMPDEST DUP1 PUSH4 0x584B62A1 EQ PUSH2 0x326 JUMPI DUP1 PUSH4 0x5ACD2E4C EQ PUSH2 0x35B JUMPI DUP1 PUSH4 0x5C975ABB EQ PUSH2 0x377 JUMPI DUP1 PUSH4 0x6B494DEF EQ PUSH2 0x395 JUMPI PUSH2 0x1EE JUMP JUMPDEST DUP1 PUSH4 0x3D92F4E2 GT PUSH2 0x1C1 JUMPI DUP1 PUSH4 0x3D92F4E2 EQ PUSH2 0x2A0 JUMPI DUP1 PUSH4 0x4060E257 EQ PUSH2 0x2BE JUMPI DUP1 PUSH4 0x4C8F2A78 EQ PUSH2 0x2DA JUMPI DUP1 PUSH4 0x561B2463 EQ PUSH2 0x30A JUMPI PUSH2 0x1EE JUMP JUMPDEST DUP1 PUSH4 0x630E463 EQ PUSH2 0x1F2 JUMPI DUP1 PUSH4 0x1747E0B0 EQ PUSH2 0x222 JUMPI DUP1 PUSH4 0x1852E8D9 EQ PUSH2 0x252 JUMPI DUP1 PUSH4 0x38BCEAAC EQ PUSH2 0x282 JUMPI JUMPDEST PUSH0 PUSH0 REVERT JUMPDEST PUSH2 0x20C PUSH1 0x4 DUP1 CALLDATASIZE SUB DUP2 ADD SWAP1 PUSH2 0x207 SWAP2 SWAP1 PUSH2 0x23AD JUMP JUMPDEST PUSH2 0x5E7 JUMP JUMPDEST PUSH1 0x40 MLOAD PUSH2 0x219 SWAP2 SWAP1 PUSH2 0x23F0 JUMP JUMPDEST PUSH1 0x40 MLOAD DUP1 SWAP2 SUB SWAP1 RETURN JUMPDEST PUSH2 0x23C PUSH1 0x4 DUP1 CALLDATASIZE SUB DUP2 ADD SWAP1 PUSH2 0x237 SWAP2 SWAP1 PUSH2 0x23AD JUMP JUMPDEST PUSH2 0x5FC JUMP JUMPDEST PUSH1 0x40 MLOAD PUSH2 0x249 SWAP2 SWAP1 PUSH2 0x2553 JUMP JUMPDEST PUSH1 0x40 MLOAD DUP1 SWAP2 SUB SWAP1 RETURN JUMPDEST PUSH2 0x26C PUSH1 0x4 DUP1 CALLDATASIZE SUB DUP2 ADD SWAP1 PUSH2 0x267 SWAP2 SWAP1 PUSH2 0x259D JUMP JUMPDEST PUSH2 0x6F1 JUMP JUMPDEST PUSH1 0x40 MLOAD PUSH2 0x279 SWAP2 SWAP1 PUSH2 0x23F0 JUMP JUMPDEST PUSH1 0x40 MLOAD DUP1 SWAP2 SUB SWAP1 RETURN JUMPDEST PUSH2 0x28A PUSH2 0x9AA JUMP JUMPDEST PUSH1 0x40 MLOAD PUSH2 0x297 SWAP2 SWAP1 PUSH2 0x23F0 JUMP JUMPDEST PUSH1 0x40 MLOAD DUP1 SWAP2 SUB SWAP1 RETURN JUMPDEST PUSH2 0x2A8 PUSH2 0x9AF JUMP JUMPDEST PUSH1 0x40 MLOAD PUSH2 0x2B5 SWAP2 SWAP1 PUSH2 0x23F0 JUMP JUMPDEST PUSH1 0x40 MLOAD DUP1 SWAP2 SUB SWAP1 RETURN JUMPDEST PUSH2 0x2D8 PUSH1 0x4 DUP1 CALLDATASIZE SUB DUP2 ADD SWAP1 PUSH2 0x2D3 SWAP2 SWAP1 PUSH2 0x25DB JUMP JUMPDEST PUSH2 0x9B5 JUMP JUMPDEST STOP JUMPDEST PUSH2 0x2F4 PUSH1 0x4 DUP1 CALLDATASIZE SUB DUP2 ADD SWAP1 PUSH2 0x2EF SWAP2 SWAP1 PUSH2 0x25DB JUMP JUMPDEST PUSH2 0xD5E JUMP JUMPDEST PUSH1 0x40 MLOAD PUSH2 0x301 SWAP2 SWAP1 PUSH2 0x23F0 JUMP JUMPDEST PUSH1 0x40 MLOAD DUP1 SWAP2 SUB SWAP1 RETURN JUMPDEST PUSH2 0x324 PUSH1 0x4 DUP1 CALLDATASIZE SUB DUP2 ADD SWAP1 PUSH2 0x31F SWAP2 SWAP1 PUSH2 0x2630 JUMP JUMPDEST PUSH2 0xD77 JUMP JUMPDEST STOP JUMPDEST PUSH2 0x340 PUSH1 0x4 DUP1 CALLDATASIZE SUB DUP2 ADD SWAP1 PUSH2 0x33B SWAP2 SWAP1 PUSH2 0x259D JUMP JUMPDEST PUSH2 0x10A6 JUMP JUMPDEST PUSH1 0x40 MLOAD PUSH2 0x352 SWAP7 SWAP6 SWAP5 SWAP4 SWAP3 SWAP2 SWAP1 PUSH2 0x268F JUMP JUMPDEST PUSH1 0x40 MLOAD DUP1 SWAP2 SUB SWAP1 RETURN JUMPDEST PUSH2 0x375 PUSH1 0x4 DUP1 CALLDATASIZE SUB DUP2 ADD SWAP1 PUSH2 0x370 SWAP2 SWAP1 PUSH2 0x26EE JUMP JUMPDEST PUSH2 0x1111 JUMP JUMPDEST STOP JUMPDEST PUSH2 0x37F PUSH2 0x11F8 JUMP JUMPDEST PUSH1 0x40 MLOAD PUSH2 0x38C SWAP2 SWAP1 PUSH2 0x272C JUMP JUMPDEST PUSH1 0x40 MLOAD DUP1 SWAP2 SUB SWAP1 RETURN JUMPDEST PUSH2 0x3AF PUSH1 0x4 DUP1 CALLDATASIZE SUB DUP2 ADD SWAP1 PUSH2 0x3AA SWAP2 SWAP1 PUSH2 0x25DB JUMP JUMPDEST PUSH2 0x120B JUMP JUMPDEST PUSH1 0x40 MLOAD PUSH2 0x3BC SWAP2 SWAP1 PUSH2 0x23F0 JUMP JUMPDEST PUSH1 0x40 MLOAD DUP1 SWAP2 SUB SWAP1 RETURN JUMPDEST PUSH2 0x3CD PUSH2 0x1224 JUMP JUMPDEST STOP JUMPDEST PUSH2 0x3D7 PUSH2 0x1237 JUMP JUMPDEST PUSH1 0x40 MLOAD PUSH2 0x3E4 SWAP2 SWAP1 PUSH2 0x27A0 JUMP JUMPDEST PUSH1 0x40 MLOAD DUP1 SWAP2 SUB SWAP1 RETURN JUMPDEST PUSH2 0x3F5 PUSH2 0x125B JUMP JUMPDEST PUSH1 0x40 MLOAD PUSH2 0x402 SWAP2 SWAP1 PUSH2 0x23F0 JUMP JUMPDEST PUSH1 0x40 MLOAD DUP1 SWAP2 SUB SWAP1 RETURN JUMPDEST PUSH2 0x413 PUSH2 0x1265 JUMP JUMPDEST PUSH1 0x40 MLOAD PUSH2 0x420 SWAP2 SWAP1 PUSH2 0x23F0 JUMP JUMPDEST PUSH1 0x40 MLOAD DUP1 SWAP2 SUB SWAP1 RETURN JUMPDEST PUSH2 0x431 PUSH2 0x126B JUMP JUMPDEST PUSH1 0x40 MLOAD PUSH2 0x43E SWAP2 SWAP1 PUSH2 0x23F0 JUMP JUMPDEST PUSH1 0x40 MLOAD DUP1 SWAP2 SUB SWAP1 RETURN JUMPDEST PUSH2 0x44F PUSH2 0x1271 JUMP JUMPDEST PUSH1 0x40 MLOAD PUSH2 0x45C SWAP2 SWAP1 PUSH2 0x27C8 JUMP JUMPDEST PUSH1 0x40 MLOAD DUP1 SWAP2 SUB SWAP1 RETURN JUMPDEST PUSH2 0x47F PUSH1 0x4 DUP1 CALLDATASIZE SUB DUP2 ADD SWAP1 PUSH2 0x47A SWAP2 SWAP1 PUSH2 0x25DB JUMP JUMPDEST PUSH2 0x1298 JUMP JUMPDEST STOP JUMPDEST PUSH2 0x49B PUSH1 0x4 DUP1 CALLDATASIZE SUB DUP2 ADD SWAP1 PUSH2 0x496 SWAP2 SWAP1 PUSH2 0x25DB JUMP JUMPDEST PUSH2 0x14B1 JUMP JUMPDEST STOP JUMPDEST PUSH2 0x4A5 PUSH2 0x18F5 JUMP JUMPDEST PUSH1 0x40 MLOAD PUSH2 0x4B2 SWAP2 SWAP1 PUSH2 0x27C8 JUMP JUMPDEST PUSH1 0x40 MLOAD DUP1 SWAP2 SUB SWAP1 RETURN JUMPDEST PUSH2 0x4D5 PUSH1 0x4 DUP1 CALLDATASIZE SUB DUP2 ADD SWAP1 PUSH2 0x4D0 SWAP2 SWAP1 PUSH2 0x25DB JUMP JUMPDEST PUSH2 0x191A JUMP JUMPDEST STOP JUMPDEST PUSH2 0x4DF PUSH2 0x1A1B JUMP JUMPDEST STOP JUMPDEST PUSH2 0x4FB PUSH1 0x4 DUP1 CALLDATASIZE SUB DUP2 ADD SWAP1 PUSH2 0x4F6 SWAP2 SWAP1 PUSH2 0x23AD JUMP JUMPDEST PUSH2 0x1A8D JUMP JUMPDEST STOP JUMPDEST PUSH2 0x505 PUSH2 0x1B89 JUMP JUMPDEST STOP JUMPDEST PUSH2 0x50F PUSH2 0x1D4B JUMP JUMPDEST PUSH1 0x40 MLOAD PUSH2 0x51C SWAP2 SWAP1 PUSH2 0x23F0 JUMP JUMPDEST PUSH1 0x40 MLOAD DUP1 SWAP2 SUB SWAP1 RETURN JUMPDEST PUSH2 0x52D PUSH2 0x1D54 JUMP JUMPDEST PUSH1 0x40 MLOAD PUSH2 0x53A SWAP2 SWAP1 PUSH2 0x23F0 JUMP JUMPDEST PUSH1 0x40 MLOAD DUP1 SWAP2 SUB SWAP1 RETURN JUMPDEST PUSH2 0x54B PUSH2 0x1D5C JUMP JUMPDEST PUSH1 0x40 MLOAD PUSH2 0x558 SWAP2 SWAP1 PUSH2 0x27C8 JUMP JUMPDEST PUSH1 0x40 MLOAD DUP1 SWAP2 SUB SWAP1 RETURN JUMPDEST PUSH2 0x57B PUSH1 0x4 DUP1 CALLDATASIZE SUB DUP2 ADD SWAP1 PUSH2 0x576 SWAP2 SWAP1 PUSH2 0x23AD JUMP JUMPDEST PUSH2 0x1D84 JUMP JUMPDEST STOP JUMPDEST PUSH2 0x597 PUSH1 0x4 DUP1 CALLDATASIZE SUB DUP2 ADD SWAP1 PUSH2 0x592 SWAP2 SWAP1 PUSH2 0x25DB JUMP JUMPDEST PUSH2 0x1E08 JUMP JUMPDEST PUSH1 0x40 MLOAD PUSH2 0x5A4 SWAP2 SWAP1 PUSH2 0x23F0 JUMP JUMPDEST PUSH1 0x40 MLOAD DUP1 SWAP2 SUB SWAP1 RETURN JUMPDEST PUSH2 0x5B5 PUSH2 0x1E69 JUMP JUMPDEST PUSH1 0x40 MLOAD PUSH2 0x5C2 SWAP2 SWAP1 PUSH2 0x27A0 JUMP JUMPDEST PUSH1 0x40 MLOAD DUP1 SWAP2 SUB SWAP1 RETURN JUMPDEST PUSH2 0x5E5 PUSH1 0x4 DUP1 CALLDATASIZE SUB DUP2 ADD SWAP1 PUSH2 0x5E0 SWAP2 SWAP1 PUSH2 0x23AD JUMP JUMPDEST PUSH2 0x1E8E JUMP JUMPDEST STOP JUMPDEST PUSH1 0xA PUSH1 0x20 MSTORE DUP1 PUSH0 MSTORE PUSH1 0x40 PUSH0 KECCAK256 PUSH0 SWAP2 POP SWAP1 POP SLOAD DUP2 JUMP JUMPDEST PUSH1 0x60 PUSH1 0x9 PUSH0 DUP4 PUSH20 0xFFFFFFFFFFFFFFFFFFFFFFFFFFFFFFFFFFFFFFFF AND PUSH20 0xFFFFFFFFFFFFFFFFFFFFFFFFFFFFFFFFFFFFFFFF AND DUP2 MSTORE PUSH1 0x20 ADD SWAP1 DUP2 MSTORE PUSH1 0x20 ADD PUSH0 KECCAK256 DUP1 SLOAD DUP1 PUSH1 0x20 MUL PUSH1 0x20 ADD PUSH1 0x40 MLOAD SWAP1 DUP2 ADD PUSH1 0x40 MSTORE DUP1 SWAP3 SWAP2 SWAP1 DUP2 DUP2 MSTORE PUSH1 0x20 ADD PUSH0 SWAP1 JUMPDEST DUP3 DUP3 LT ISZERO PUSH2 0x6E6 JUMPI DUP4 DUP3 SWAP1 PUSH0 MSTORE PUSH1 0x20 PUSH0 KECCAK256 SWAP1 PUSH1 0x5 MUL ADD PUSH1 0x40 MLOAD DUP1 PUSH1 0xC0 ADD PUSH1 0x40 MSTORE SWAP1 DUP2 PUSH0 DUP3 ADD SLOAD DUP2 MSTORE PUSH1 0x20 ADD PUSH1 0x1 DUP3 ADD SLOAD DUP2 MSTORE PUSH1 0x20 ADD PUSH1 0x2 DUP3 ADD SLOAD DUP2 MSTORE PUSH1 0x20 ADD PUSH1 0x3 DUP3 ADD PUSH0 SWAP1 SLOAD SWAP1 PUSH2 0x100 EXP SWAP1 DIV PUSH1 0xFF AND ISZERO ISZERO ISZERO ISZERO DUP2 MSTORE PUSH1 0x20 ADD PUSH1 0x3 DUP3 ADD PUSH1 0x1 SWAP1 SLOAD SWAP1 PUSH2 0x100 EXP SWAP1 DIV PUSH1 0xFF AND ISZERO ISZERO ISZERO ISZERO DUP2 MSTORE PUSH1 0x20 ADD PUSH1 0x4 DUP3 ADD SLOAD DUP2 MSTORE POP POP DUP2 MSTORE PUSH1 0x20 ADD SWAP1 PUSH1 0x1 ADD SWAP1 PUSH2 0x65A JUMP JUMPDEST POP POP POP POP SWAP1 POP SWAP2 SWAP1 POP JUMP JUMPDEST PUSH0 PUSH0 PUSH20 0xFFFFFFFFFFFFFFFFFFFFFFFFFFFFFFFFFFFFFFFF AND DUP4 PUSH20 0xFFFFFFFFFFFFFFFFFFFFFFFFFFFFFFFFFFFFFFFF AND SUB PUSH2 0x760 JUMPI PUSH1 0x40 MLOAD PUSH32 0x8C379A000000000000000000000000000000000000000000000000000000000 DUP2 MSTORE PUSH1 0x4 ADD PUSH2 0x757 SWAP1 PUSH2 0x283B JUMP JUMPDEST PUSH1 0x40 MLOAD DUP1 SWAP2 SUB SWAP1 REVERT JUMPDEST PUSH1 0x9 PUSH0 DUP5 PUSH20 0xFFFFFFFFFFFFFFFFFFFFFFFFFFFFFFFFFFFFFFFF AND PUSH20 0xFFFFFFFFFFFFFFFFFFFFFFFFFFFFFFFFFFFFFFFF AND DUP2 MSTORE PUSH1 0x20 ADD SWAP1 DUP2 MSTORE PUSH1 0x20 ADD PUSH0 KECCAK256 DUP1 SLOAD SWAP1 POP DUP3 LT PUSH2 0x7E2 JUMPI PUSH1 0x40 MLOAD PUSH32 0x8C379A000000000000000000000000000000000000000000000000000000000 DUP2 MSTORE PUSH1 0x4 ADD PUSH2 0x7D9 SWAP1 PUSH2 0x28A3 JUMP JUMPDEST PUSH1 0x40 MLOAD DUP1 SWAP2 SUB SWAP1 REVERT JUMPDEST PUSH0 PUSH1 0x9 PUSH0 DUP6 PUSH20 0xFFFFFFFFFFFFFFFFFFFFFFFFFFFFFFFFFFFFFFFF AND PUSH20 0xFFFFFFFFFFFFFFFFFFFFFFFFFFFFFFFFFFFFFFFF AND DUP2 MSTORE PUSH1 0x20 ADD SWAP1 DUP2 MSTORE PUSH1 0x20 ADD PUSH0 KECCAK256 DUP4 DUP2 SLOAD DUP2 LT PUSH2 0x832 JUMPI PUSH2 0x831 PUSH2 0x28C1 JUMP JUMPDEST JUMPDEST SWAP1 PUSH0 MSTORE PUSH1 0x20 PUSH0 KECCAK256 SWAP1 PUSH1 0x5 MUL ADD PUSH1 0x40 MLOAD DUP1 PUSH1 0xC0 ADD PUSH1 0x40 MSTORE SWAP1 DUP2 PUSH0 DUP3 ADD SLOAD DUP2 MSTORE PUSH1 0x20 ADD PUSH1 0x1 DUP3 ADD SLOAD DUP2 MSTORE PUSH1 0x20 ADD PUSH1 0x2 DUP3 ADD SLOAD DUP2 MSTORE PUSH1 0x20 ADD PUSH1 0x3 DUP3 ADD PUSH0 SWAP1 SLOAD SWAP1 PUSH2 0x100 EXP SWAP1 DIV PUSH1 0xFF AND ISZERO ISZERO ISZERO ISZERO DUP2 MSTORE PUSH1 0x20 ADD PUSH1 0x3 DUP3 ADD PUSH1 0x1 SWAP1 SLOAD SWAP1 PUSH2 0x100 EXP SWAP1 DIV PUSH1 0xFF AND ISZERO ISZERO ISZERO ISZERO DUP2 MSTORE PUSH1 0x20 ADD PUSH1 0x4 DUP3 ADD SLOAD DUP2 MSTORE POP POP SWAP1 POP DUP1 PUSH1 0x60 ADD MLOAD ISZERO PUSH2 0x8EC JUMPI PUSH1 0x40 MLOAD PUSH32 0x8C379A000000000000000000000000000000000000000000000000000000000 DUP2 MSTORE PUSH1 0x4 ADD PUSH2 0x8E3 SWAP1 PUSH2 0x2938 JUMP JUMPDEST PUSH1 0x40 MLOAD DUP1 SWAP2 SUB SWAP1 REVERT JUMPDEST PUSH0 DUP2 PUSH1 0x40 ADD MLOAD SWAP1 POP DUP2 PUSH1 0x80 ADD MLOAD DUP1 ISZERO PUSH2 0x904 JUMPI POP DUP1 TIMESTAMP GT JUMPDEST ISZERO PUSH2 0x90D JUMPI TIMESTAMP SWAP1 POP JUMPDEST PUSH0 DUP3 PUSH1 0x20 ADD MLOAD DUP3 PUSH2 0x91E SWAP2 SWAP1 PUSH2 0x2983 JUMP JUMPDEST SWAP1 POP PUSH0 PUSH2 0x93D DUP5 PUSH1 0x20 ADD MLOAD DUP6 PUSH1 0x40 ADD MLOAD PUSH2 0x938 SWAP2 SWAP1 PUSH2 0x2983 JUMP JUMPDEST PUSH2 0x1F8A JUMP JUMPDEST SWAP1 POP PUSH0 DUP5 PUSH1 0xA0 ADD MLOAD DUP6 PUSH0 ADD MLOAD PUSH2 0x953 SWAP2 SWAP1 PUSH2 0x29B6 JUMP JUMPDEST SWAP1 POP PUSH4 0x1E13380 PUSH2 0x2710 PUSH2 0x967 SWAP2 SWAP1 PUSH2 0x29E9 JUMP JUMPDEST DUP4 PUSH1 0x6 DUP5 PUSH1 0x3 DUP2 LT PUSH2 0x97C JUMPI PUSH2 0x97B PUSH2 0x28C1 JUMP JUMPDEST JUMPDEST ADD SLOAD DUP4 PUSH2 0x989 SWAP2 SWAP1 PUSH2 0x29E9 JUMP JUMPDEST PUSH2 0x993 SWAP2 SWAP1 PUSH2 0x29E9 JUMP JUMPDEST PUSH2 0x99D SWAP2 SWAP1 PUSH2 0x2A57 JUMP JUMPDEST SWAP6 POP POP POP POP POP POP SWAP3 SWAP2 POP POP JUMP JUMPDEST PUSH1 0x32 DUP2 JUMP JUMPDEST PUSH2 0x2710 DUP2 JUMP JUMPDEST PUSH2 0x9BD PUSH2 0x200C JUMP JUMPDEST CALLER PUSH20 0xFFFFFFFFFFFFFFFFFFFFFFFFFFFFFFFFFFFFFFFF AND ORIGIN PUSH20 0xFFFFFFFFFFFFFFFFFFFFFFFFFFFFFFFFFFFFFFFF AND EQ PUSH2 0xA2B JUMPI PUSH1 0x40 MLOAD PUSH32 0x8C379A000000000000000000000000000000000000000000000000000000000 DUP2 MSTORE PUSH1 0x4 ADD PUSH2 0xA22 SWAP1 PUSH2 0x2AD1 JUMP JUMPDEST PUSH1 0x40 MLOAD DUP1 SWAP2 SUB SWAP1 REVERT JUMPDEST PUSH1 0xD PUSH1 0x14 SWAP1 SLOAD SWAP1 PUSH2 0x100 EXP SWAP1 DIV PUSH1 0xFF AND ISZERO PUSH2 0xA7B JUMPI PUSH1 0x40 MLOAD PUSH32 0x8C379A000000000000000000000000000000000000000000000000000000000 DUP2 MSTORE PUSH1 0x4 ADD PUSH2 0xA72 SWAP1 PUSH2 0x2B39 JUMP JUMPDEST PUSH1 0x40 MLOAD DUP1 SWAP2 SUB SWAP1 REVERT JUMPDEST PUSH0 CALLER SWAP1 POP PUSH1 0x9 PUSH0 DUP3 PUSH20 0xFFFFFFFFFFFFFFFFFFFFFFFFFFFFFFFFFFFFFFFF AND PUSH20 0xFFFFFFFFFFFFFFFFFFFFFFFFFFFFFFFFFFFFFFFF AND DUP2 MSTORE PUSH1 0x20 ADD SWAP1 DUP2 MSTORE PUSH1 0x20 ADD PUSH0 KECCAK256 DUP1 SLOAD SWAP1 POP DUP3 LT PUSH2 0xB01 JUMPI PUSH1 0x40 MLOAD PUSH32 0x8C379A000000000000000000000000000000000000000000000000000000000 DUP2 MSTORE PUSH1 0x4 ADD PUSH2 0xAF8 SWAP1 PUSH2 0x28A3 JUMP JUMPDEST PUSH1 0x40 MLOAD DUP1 SWAP2 SUB SWAP1 REVERT JUMPDEST PUSH0 PUSH1 0x9 PUSH0 DUP4 PUSH20 0xFFFFFFFFFFFFFFFFFFFFFFFFFFFFFFFFFFFFFFFF AND PUSH20 0xFFFFFFFFFFFFFFFFFFFFFFFFFFFFFFFFFFFFFFFF AND DUP2 MSTORE PUSH1 0x20 ADD SWAP1 DUP2 MSTORE PUSH1 0x20 ADD PUSH0 KECCAK256 DUP4 DUP2 SLOAD DUP2 LT PUSH2 0xB51 JUMPI PUSH2 0xB50 PUSH2 0x28C1 JUMP JUMPDEST JUMPDEST SWAP1 PUSH0 MSTORE PUSH1 0x20 PUSH0 KECCAK256 SWAP1 PUSH1 0x5 MUL ADD SWAP1 POP DUP1 PUSH1 0x3 ADD PUSH0 SWAP1 SLOAD SWAP1 PUSH2 0x100 EXP SWAP1 DIV PUSH1 0xFF AND ISZERO PUSH2 0xBB0 JUMPI PUSH1 0x40 MLOAD PUSH32 0x8C379A000000000000000000000000000000000000000000000000000000000 DUP2 MSTORE PUSH1 0x4 ADD PUSH2 0xBA7 SWAP1 PUSH2 0x2938 JUMP JUMPDEST PUSH1 0x40 MLOAD DUP1 SWAP2 SUB SWAP1 REVERT JUMPDEST DUP1 PUSH1 0x3 ADD PUSH1 0x1 SWAP1 SLOAD SWAP1 PUSH2 0x100 EXP SWAP1 DIV PUSH1 0xFF AND PUSH2 0xC01 JUMPI PUSH1 0x40 MLOAD PUSH32 0x8C379A000000000000000000000000000000000000000000000000000000000 DUP2 MSTORE PUSH1 0x4 ADD PUSH2 0xBF8 SWAP1 PUSH2 0x2BA1 JUMP JUMPDEST PUSH1 0x40 MLOAD DUP1 SWAP2 SUB SWAP1 REVERT JUMPDEST DUP1 PUSH1 0x2 ADD SLOAD TIMESTAMP LT ISZERO PUSH2 0xC48 JUMPI PUSH1 0x40 MLOAD PUSH32 0x8C379A000000000000000000000000000000000000000000000000000000000 DUP2 MSTORE PUSH1 0x4 ADD PUSH2 0xC3F SWAP1 PUSH2 0x2C09 JUMP JUMPDEST PUSH1 0x40 MLOAD DUP1 SWAP2 SUB SWAP1 REVERT JUMPDEST PUSH0 PUSH2 0xC53 DUP4 DUP6 PUSH2 0x6F1 JUMP JUMPDEST SWAP1 POP DUP1 PUSH1 0xC SLOAD LT ISZERO PUSH2 0xC9A JUMPI PUSH1 0x40 MLOAD PUSH32 0x8C379A000000000000000000000000000000000000000000000000000000000 DUP2 MSTORE PUSH1 0x4 ADD PUSH2 0xC91 SWAP1 PUSH2 0x2C71 JUMP JUMPDEST PUSH1 0x40 MLOAD DUP1 SWAP2 SUB SWAP1 REVERT JUMPDEST TIMESTAMP DUP3 PUSH1 0x1 ADD DUP2 SWAP1 SSTORE POP DUP2 PUSH1 0x1 ADD SLOAD DUP3 PUSH1 0x2 ADD SLOAD PUSH2 0xCB7 SWAP2 SWAP1 PUSH2 0x2983 JUMP JUMPDEST TIMESTAMP PUSH2 0xCC2 SWAP2 SWAP1 PUSH2 0x29B6 JUMP JUMPDEST DUP3 PUSH1 0x2 ADD DUP2 SWAP1 SSTORE POP DUP1 DUP3 PUSH1 0x4 ADD PUSH0 DUP3 DUP3 SLOAD PUSH2 0xCDD SWAP2 SWAP1 PUSH2 0x29B6 JUMP JUMPDEST SWAP3 POP POP DUP2 SWAP1 SSTORE POP DUP1 PUSH1 0xC PUSH0 DUP3 DUP3 SLOAD PUSH2 0xCF5 SWAP2 SWAP1 PUSH2 0x2983 JUMP JUMPDEST SWAP3 POP POP DUP2 SWAP1 SSTORE POP DUP3 PUSH20 0xFFFFFFFFFFFFFFFFFFFFFFFFFFFFFFFFFFFFFFFF AND PUSH32 0x593662CBE53E88DF3FEF748665B8C3D3142E5D34DC1B24290F7E953537A00183 DUP6 DUP5 PUSH1 0x4 ADD SLOAD PUSH1 0x40 MLOAD PUSH2 0xD48 SWAP3 SWAP2 SWAP1 PUSH2 0x2C8F JUMP JUMPDEST PUSH1 0x40 MLOAD DUP1 SWAP2 SUB SWAP1 LOG2 POP POP POP PUSH2 0xD5B PUSH2 0x205B JUMP JUMPDEST POP JUMP JUMPDEST PUSH1 0x3 DUP2 PUSH1 0x3 DUP2 LT PUSH2 0xD6D JUMPI PUSH0 DUP1 REVERT JUMPDEST ADD PUSH0 SWAP2 POP SWAP1 POP SLOAD DUP2 JUMP JUMPDEST PUSH2 0xD7F PUSH2 0x200C JUMP JUMPDEST CALLER PUSH20 0xFFFFFFFFFFFFFFFFFFFFFFFFFFFFFFFFFFFFFFFF AND ORIGIN PUSH20 0xFFFFFFFFFFFFFFFFFFFFFFFFFFFFFFFFFFFFFFFF AND EQ PUSH2 0xDED JUMPI PUSH1 0x40 MLOAD PUSH32 0x8C379A000000000000000000000000000000000000000000000000000000000 DUP2 MSTORE PUSH1 0x4 ADD PUSH2 0xDE4 SWAP1 PUSH2 0x2AD1 JUMP JUMPDEST PUSH1 0x40 MLOAD DUP1 SWAP2 SUB SWAP1 REVERT JUMPDEST PUSH1 0xD PUSH1 0x14 SWAP1 SLOAD SWAP1 PUSH2 0x100 EXP SWAP1 DIV PUSH1 0xFF AND ISZERO PUSH2 0xE3D JUMPI PUSH1 0x40 MLOAD PUSH32 0x8C379A000000000000000000000000000000000000000000000000000000000 DUP2 MSTORE PUSH1 0x4 ADD PUSH2 0xE34 SWAP1 PUSH2 0x2B39 JUMP JUMPDEST PUSH1 0x40 MLOAD DUP1 SWAP2 SUB SWAP1 REVERT JUMPDEST PUSH1 0x3 DUP3 LT PUSH2 0xE80 JUMPI PUSH1 0x40 MLOAD PUSH32 0x8C379A000000000000000000000000000000000000000000000000000000000 DUP2 MSTORE PUSH1 0x4 ADD PUSH2 0xE77 SWAP1 PUSH2 0x2D00 JUMP JUMPDEST PUSH1 0x40 MLOAD DUP1 SWAP2 SUB SWAP1 REVERT JUMPDEST PUSH0 DUP4 GT PUSH2 0xEC2 JUMPI PUSH1 0x40 MLOAD PUSH32 0x8C379A000000000000000000000000000000000000000000000000000000000 DUP2 MSTORE PUSH1 0x4 ADD PUSH2 0xEB9 SWAP1 PUSH2 0x2D68 JUMP JUMPDEST PUSH1 0x40 MLOAD DUP1 SWAP2 SUB SWAP1 REVERT JUMPDEST PUSH2 0xF0F CALLER ADDRESS DUP6 PUSH32 0x0 PUSH20 0xFFFFFFFFFFFFFFFFFFFFFFFFFFFFFFFFFFFFFFFF AND PUSH2 0x2064 SWAP1 SWAP4 SWAP3 SWAP2 SWAP1 PUSH4 0xFFFFFFFF AND JUMP JUMPDEST PUSH0 PUSH1 0x3 DUP4 PUSH1 0x3 DUP2 LT PUSH2 0xF24 JUMPI PUSH2 0xF23 PUSH2 0x28C1 JUMP JUMPDEST JUMPDEST ADD SLOAD TIMESTAMP PUSH2 0xF31 SWAP2 SWAP1 PUSH2 0x29B6 JUMP JUMPDEST SWAP1 POP PUSH1 0x9 PUSH0 CALLER PUSH20 0xFFFFFFFFFFFFFFFFFFFFFFFFFFFFFFFFFFFFFFFF AND PUSH20 0xFFFFFFFFFFFFFFFFFFFFFFFFFFFFFFFFFFFFFFFF AND DUP2 MSTORE PUSH1 0x20 ADD SWAP1 DUP2 MSTORE PUSH1 0x20 ADD PUSH0 KECCAK256 PUSH1 0x40 MLOAD DUP1 PUSH1 0xC0 ADD PUSH1 0x40 MSTORE DUP1 DUP7 DUP2 MSTORE PUSH1 0x20 ADD TIMESTAMP DUP2 MSTORE PUSH1 0x20 ADD DUP4 DUP2 MSTORE PUSH1 0x20 ADD PUSH0 ISZERO ISZERO DUP2 MSTORE PUSH1 0x20 ADD DUP5 ISZERO ISZERO DUP2 MSTORE PUSH1 0x20 ADD PUSH0 DUP2 MSTORE POP SWAP1 DUP1 PUSH1 0x1 DUP2 SLOAD ADD DUP1 DUP3 SSTORE DUP1 SWAP2 POP POP PUSH1 0x1 SWAP1 SUB SWAP1 PUSH0 MSTORE PUSH1 0x20 PUSH0 KECCAK256 SWAP1 PUSH1 0x5 MUL ADD PUSH0 SWAP1 SWAP2 SWAP1 SWAP2 SWAP1 SWAP2 POP PUSH0 DUP3 ADD MLOAD DUP2 PUSH0 ADD SSTORE PUSH1 0x20 DUP3 ADD MLOAD DUP2 PUSH1 0x1 ADD SSTORE PUSH1 0x40 DUP3 ADD MLOAD DUP2 PUSH1 0x2 ADD SSTORE PUSH1 0x60 DUP3 ADD MLOAD DUP2 PUSH1 0x3 ADD PUSH0 PUSH2 0x100 EXP DUP2 SLOAD DUP2 PUSH1 0xFF MUL NOT AND SWAP1 DUP4 ISZERO ISZERO MUL OR SWAP1 SSTORE POP PUSH1 0x80 DUP3 ADD MLOAD DUP2 PUSH1 0x3 ADD PUSH1 0x1 PUSH2 0x100 EXP DUP2 SLOAD DUP2 PUSH1 0xFF MUL NOT AND SWAP1 DUP4 ISZERO ISZERO MUL OR SWAP1 SSTORE POP PUSH1 0xA0 DUP3 ADD MLOAD DUP2 PUSH1 0x4 ADD SSTORE POP POP DUP4 PUSH1 0xB PUSH0 DUP3 DUP3 SLOAD PUSH2 0x103F SWAP2 SWAP1 PUSH2 0x29B6 JUMP JUMPDEST SWAP3 POP POP DUP2 SWAP1 SSTORE POP CALLER PUSH20 0xFFFFFFFFFFFFFFFFFFFFFFFFFFFFFFFFFFFFFFFF AND PUSH32 0x3DF45CB339F96AE4BDB793EFCB6E22100DD0DC4FD739A4EE2033FE67EA35AF96 DUP6 DUP6 DUP6 PUSH1 0x40 MLOAD PUSH2 0x1090 SWAP4 SWAP3 SWAP2 SWAP1 PUSH2 0x2D86 JUMP JUMPDEST PUSH1 0x40 MLOAD DUP1 SWAP2 SUB SWAP1 LOG2 POP PUSH2 0x10A1 PUSH2 0x205B JUMP JUMPDEST POP POP POP JUMP JUMPDEST PUSH1 0x9 PUSH1 0x20 MSTORE DUP2 PUSH0 MSTORE PUSH1 0x40 PUSH0 KECCAK256 DUP2 DUP2 SLOAD DUP2 LT PUSH2 0x10BF JUMPI PUSH0 DUP1 REVERT JUMPDEST SWAP1 PUSH0 MSTORE PUSH1 0x20 PUSH0 KECCAK256 SWAP1 PUSH1 0x5 MUL ADD PUSH0 SWAP2 POP SWAP2 POP POP DUP1 PUSH0 ADD SLOAD SWAP1 DUP1 PUSH1 0x1 ADD SLOAD SWAP1 DUP1 PUSH1 0x2 ADD SLOAD SWAP1 DUP1 PUSH1 0x3 ADD PUSH0 SWAP1 SLOAD SWAP1 PUSH2 0x100 EXP SWAP1 DIV PUSH1 0xFF AND SWAP1 DUP1 PUSH1 0x3 ADD PUSH1 0x1 SWAP1 SLOAD SWAP1 PUSH2 0x100 EXP SWAP1 DIV PUSH1 0xFF AND SWAP1 DUP1 PUSH1 0x4 ADD SLOAD SWAP1 POP DUP7 JUMP JUMPDEST PUSH2 0x1119 PUSH2 0x20E6 JUMP JUMPDEST PUSH1 0x3 DUP3 LT PUSH2 0x115C JUMPI PUSH1 0x40 MLOAD PUSH32 0x8C379A000000000000000000000000000000000000000000000000000000000 DUP2 MSTORE PUSH1 0x4 ADD PUSH2 0x1153 SWAP1 PUSH2 0x2D00 JUMP JUMPDEST PUSH1 0x40 MLOAD DUP1 SWAP2 SUB SWAP1 REVERT JUMPDEST PUSH2 0x2710 DUP2 GT ISZERO PUSH2 0x11A1 JUMPI PUSH1 0x40 MLOAD PUSH32 0x8C379A000000000000000000000000000000000000000000000000000000000 DUP2 MSTORE PUSH1 0x4 ADD PUSH2 0x1198 SWAP1 PUSH2 0x2E05 JUMP JUMPDEST PUSH1 0x40 MLOAD DUP1 SWAP2 SUB SWAP1 REVERT JUMPDEST DUP1 PUSH1 0x6 DUP4 PUSH1 0x3 DUP2 LT PUSH2 0x11B6 JUMPI PUSH2 0x11B5 PUSH2 0x28C1 JUMP JUMPDEST JUMPDEST ADD DUP2 SWAP1 SSTORE POP PUSH32 0x787A1FCA55641CE34A438271930BBB9401DF20DB2B4F510D4F252227D85DF43D DUP3 DUP3 PUSH1 0x40 MLOAD PUSH2 0x11EC SWAP3 SWAP2 SWAP1 PUSH2 0x2C8F JUMP JUMPDEST PUSH1 0x40 MLOAD DUP1 SWAP2 SUB SWAP1 LOG1 POP POP JUMP JUMPDEST PUSH1 0xD PUSH1 0x14 SWAP1 SLOAD SWAP1 PUSH2 0x100 EXP SWAP1 DIV PUSH1 0xFF AND DUP2 JUMP JUMPDEST PUSH1 0x6 DUP2 PUSH1 0x3 DUP2 LT PUSH2 0x121A JUMPI PUSH0 DUP1 REVERT JUMPDEST ADD PUSH0 SWAP2 POP SWAP1 POP SLOAD DUP2 JUMP JUMPDEST PUSH2 0x122C PUSH2 0x20E6 JUMP JUMPDEST PUSH2 0x1235 PUSH0 PUSH2 0x216D JUMP JUMPDEST JUMP JUMPDEST PUSH32 0x0 DUP2 JUMP JUMPDEST PUSH0 PUSH3 0x30D40 SWAP1 POP SWAP1 JUMP JUMPDEST PUSH1 0xC SLOAD DUP2 JUMP JUMPDEST PUSH1 0xB SLOAD DUP2 JUMP JUMPDEST PUSH0 PUSH0 PUSH0 SWAP1 SLOAD SWAP1 PUSH2 0x100 EXP SWAP1 DIV PUSH20 0xFFFFFFFFFFFFFFFFFFFFFFFFFFFFFFFFFFFFFFFF AND SWAP1 POP SWAP1 JUMP JUMPDEST PUSH1 0xD PUSH1 0x14 SWAP1 SLOAD SWAP1 PUSH2 0x100 EXP SWAP1 DIV PUSH1 0xFF AND ISZERO PUSH2 0x12E8 JUMPI PUSH1 0x40 MLOAD PUSH32 0x8C379A000000000000000000000000000000000000000000000000000000000 DUP2 MSTORE PUSH1 0x4 ADD PUSH2 0x12DF SWAP1 PUSH2 0x2B39 JUMP JUMPDEST PUSH1 0x40 MLOAD DUP1 SWAP2 SUB SWAP1 REVERT JUMPDEST PUSH0 CALLER SWAP1 POP PUSH1 0x9 PUSH0 DUP3 PUSH20 0xFFFFFFFFFFFFFFFFFFFFFFFFFFFFFFFFFFFFFFFF AND PUSH20 0xFFFFFFFFFFFFFFFFFFFFFFFFFFFFFFFFFFFFFFFF AND DUP2 MSTORE PUSH1 0x20 ADD SWAP1 DUP2 MSTORE PUSH1 0x20 ADD PUSH0 KECCAK256 DUP1 SLOAD SWAP1 POP DUP3 LT PUSH2 0x136E JUMPI PUSH1 0x40 MLOAD PUSH32 0x8C379A000000000000000000000000000000000000000000000000000000000 DUP2 MSTORE PUSH1 0x4 ADD PUSH2 0x1365 SWAP1 PUSH2 0x28A3 JUMP JUMPDEST PUSH1 0x40 MLOAD DUP1 SWAP2 SUB SWAP1 REVERT JUMPDEST PUSH0 PUSH1 0x9 PUSH0 DUP4 PUSH20 0xFFFFFFFFFFFFFFFFFFFFFFFFFFFFFFFFFFFFFFFF AND PUSH20 0xFFFFFFFFFFFFFFFFFFFFFFFFFFFFFFFFFFFFFFFF AND DUP2 MSTORE PUSH1 0x20 ADD SWAP1 DUP2 MSTORE PUSH1 0x20 ADD PUSH0 KECCAK256 DUP4 DUP2 SLOAD DUP2 LT PUSH2 0x13BE JUMPI PUSH2 0x13BD PUSH2 0x28C1 JUMP JUMPDEST JUMPDEST SWAP1 PUSH0 MSTORE PUSH1 0x20 PUSH0 KECCAK256 SWAP1 PUSH1 0x5 MUL ADD SWAP1 POP DUP1 PUSH1 0x3 ADD PUSH0 SWAP1 SLOAD SWAP1 PUSH2 0x100 EXP SWAP1 DIV PUSH1 0xFF AND ISZERO PUSH2 0x141D JUMPI PUSH1 0x40 MLOAD PUSH32 0x8C379A000000000000000000000000000000000000000000000000000000000 DUP2 MSTORE PUSH1 0x4 ADD PUSH2 0x1414 SWAP1 PUSH2 0x2938 JUMP JUMPDEST PUSH1 0x40 MLOAD DUP1 SWAP2 SUB SWAP1 REVERT JUMPDEST DUP1 PUSH1 0x3 ADD PUSH1 0x1 SWAP1 SLOAD SWAP1 PUSH2 0x100 EXP SWAP1 DIV PUSH1 0xFF AND ISZERO DUP2 PUSH1 0x3 ADD PUSH1 0x1 PUSH2 0x100 EXP DUP2 SLOAD DUP2 PUSH1 0xFF MUL NOT AND SWAP1 DUP4 ISZERO ISZERO MUL OR SWAP1 SSTORE POP DUP2 PUSH20 0xFFFFFFFFFFFFFFFFFFFFFFFFFFFFFFFFFFFFFFFF AND PUSH32 0xFA2D7B35E7CC82247C5AE7E8AE2DC078C2B144B76A6B1068887B3C8892C15DA5 DUP5 DUP4 PUSH1 0x3 ADD PUSH1 0x1 SWAP1 SLOAD SWAP1 PUSH2 0x100 EXP SWAP1 DIV PUSH1 0xFF AND PUSH1 0x40 MLOAD PUSH2 0x14A4 SWAP3 SWAP2 SWAP1 PUSH2 0x2E23 JUMP JUMPDEST PUSH1 0x40 MLOAD DUP1 SWAP2 SUB SWAP1 LOG2 POP POP POP JUMP JUMPDEST PUSH2 0x14B9 PUSH2 0x200C JUMP JUMPDEST CALLER PUSH20 0xFFFFFFFFFFFFFFFFFFFFFFFFFFFFFFFFFFFFFFFF AND ORIGIN PUSH20 0xFFFFFFFFFFFFFFFFFFFFFFFFFFFFFFFFFFFFFFFF AND EQ PUSH2 0x1527 JUMPI PUSH1 0x40 MLOAD PUSH32 0x8C379A000000000000000000000000000000000000000000000000000000000 DUP2 MSTORE PUSH1 0x4 ADD PUSH2 0x151E SWAP1 PUSH2 0x2AD1 JUMP JUMPDEST PUSH1 0x40 MLOAD DUP1 SWAP2 SUB SWAP1 REVERT JUMPDEST PUSH1 0xD PUSH1 0x14 SWAP1 SLOAD SWAP1 PUSH2 0x100 EXP SWAP1 DIV PUSH1 0xFF AND ISZERO PUSH2 0x1577 JUMPI PUSH1 0x40 MLOAD PUSH32 0x8C379A000000000000000000000000000000000000000000000000000000000 DUP2 MSTORE PUSH1 0x4 ADD PUSH2 0x156E SWAP1 PUSH2 0x2B39 JUMP JUMPDEST PUSH1 0x40 MLOAD DUP1 SWAP2 SUB SWAP1 REVERT JUMPDEST PUSH0 CALLER SWAP1 POP PUSH0 PUSH1 0x9 PUSH0 DUP4 PUSH20 0xFFFFFFFFFFFFFFFFFFFFFFFFFFFFFFFFFFFFFFFF AND PUSH20 0xFFFFFFFFFFFFFFFFFFFFFFFFFFFFFFFFFFFFFFFF AND DUP2 MSTORE PUSH1 0x20 ADD SWAP1 DUP2 MSTORE PUSH1 0x20 ADD PUSH0 KECCAK256 DUP4 DUP2 SLOAD DUP2 LT PUSH2 0x15CB JUMPI PUSH2 0x15CA PUSH2 0x28C1 JUMP JUMPDEST JUMPDEST SWAP1 PUSH0 MSTORE PUSH1 0x20 PUSH0 KECCAK256 SWAP1 PUSH1 0x5 MUL ADD SWAP1 POP DUP1 PUSH1 0x3 ADD PUSH0 SWAP1 SLOAD SWAP1 PUSH2 0x100 EXP SWAP1 DIV PUSH1 0xFF AND ISZERO PUSH2 0x162A JUMPI PUSH1 0x40 MLOAD PUSH32 0x8C379A000000000000000000000000000000000000000000000000000000000 DUP2 MSTORE PUSH1 0x4 ADD PUSH2 0x1621 SWAP1 PUSH2 0x2938 JUMP JUMPDEST PUSH1 0x40 MLOAD DUP1 SWAP2 SUB SWAP1 REVERT JUMPDEST DUP1 PUSH1 0x2 ADD SLOAD TIMESTAMP LT ISZERO PUSH2 0x1671 JUMPI PUSH1 0x40 MLOAD PUSH32 0x8C379A000000000000000000000000000000000000000000000000000000000 DUP2 MSTORE PUSH1 0x4 ADD PUSH2 0x1668 SWAP1 PUSH2 0x2C09 JUMP JUMPDEST PUSH1 0x40 MLOAD DUP1 SWAP2 SUB SWAP1 REVERT JUMPDEST PUSH0 PUSH2 0x167C DUP4 DUP6 PUSH2 0x6F1 JUMP JUMPDEST SWAP1 POP DUP1 PUSH1 0xC SLOAD LT ISZERO PUSH2 0x16C3 JUMPI PUSH1 0x40 MLOAD PUSH32 0x8C379A000000000000000000000000000000000000000000000000000000000 DUP2 MSTORE PUSH1 0x4 ADD PUSH2 0x16BA SWAP1 PUSH2 0x2C71 JUMP JUMPDEST PUSH1 0x40 MLOAD DUP1 SWAP2 SUB SWAP1 REVERT JUMPDEST PUSH1 0x1 DUP3 PUSH1 0x3 ADD PUSH0 PUSH2 0x100 EXP DUP2 SLOAD DUP2 PUSH1 0xFF MUL NOT AND SWAP1 DUP4 ISZERO ISZERO MUL OR SWAP1 SSTORE POP DUP2 PUSH1 0x3 ADD PUSH1 0x1 SWAP1 SLOAD SWAP1 PUSH2 0x100 EXP SWAP1 DIV PUSH1 0xFF AND DUP1 ISZERO PUSH2 0x1700 JUMPI POP PUSH0 DUP3 PUSH1 0x4 ADD SLOAD GT JUMPDEST ISZERO PUSH2 0x182B JUMPI PUSH0 DUP2 DUP4 PUSH1 0x4 ADD SLOAD PUSH2 0x1716 SWAP2 SWAP1 PUSH2 0x29B6 JUMP JUMPDEST SWAP1 POP PUSH0 PUSH2 0x2710 PUSH1 0x32 DUP4 PUSH2 0x1729 SWAP2 SWAP1 PUSH2 0x29E9 JUMP JUMPDEST PUSH2 0x1733 SWAP2 SWAP1 PUSH2 0x2A57 JUMP JUMPDEST SWAP1 POP PUSH0 DUP2 DUP4 PUSH2 0x1742 SWAP2 SWAP1 PUSH2 0x2983 JUMP JUMPDEST SWAP1 POP DUP1 PUSH1 0xA PUSH0 DUP9 PUSH20 0xFFFFFFFFFFFFFFFFFFFFFFFFFFFFFFFFFFFFFFFF AND PUSH20 0xFFFFFFFFFFFFFFFFFFFFFFFFFFFFFFFFFFFFFFFF AND DUP2 MSTORE PUSH1 0x20 ADD SWAP1 DUP2 MSTORE PUSH1 0x20 ADD PUSH0 KECCAK256 PUSH0 DUP3 DUP3 SLOAD PUSH2 0x1790 SWAP2 SWAP1 PUSH2 0x29B6 JUMP JUMPDEST SWAP3 POP POP DUP2 SWAP1 SSTORE POP DUP2 PUSH1 0xA PUSH0 PUSH1 0xD PUSH0 SWAP1 SLOAD SWAP1 PUSH2 0x100 EXP SWAP1 DIV PUSH20 0xFFFFFFFFFFFFFFFFFFFFFFFFFFFFFFFFFFFFFFFF AND PUSH20 0xFFFFFFFFFFFFFFFFFFFFFFFFFFFFFFFFFFFFFFFF AND PUSH20 0xFFFFFFFFFFFFFFFFFFFFFFFFFFFFFFFFFFFFFFFF AND DUP2 MSTORE PUSH1 0x20 ADD SWAP1 DUP2 MSTORE PUSH1 0x20 ADD PUSH0 KECCAK256 PUSH0 DUP3 DUP3 SLOAD PUSH2 0x1804 SWAP2 SWAP1 PUSH2 0x29B6 JUMP JUMPDEST SWAP3 POP POP DUP2 SWAP1 SSTORE POP DUP3 PUSH1 0xC PUSH0 DUP3 DUP3 SLOAD PUSH2 0x181C SWAP2 SWAP1 PUSH2 0x2983 JUMP JUMPDEST SWAP3 POP POP DUP2 SWAP1 SSTORE POP POP POP POP PUSH2 0x1897 JUMP JUMPDEST DUP1 PUSH1 0xA PUSH0 DUP6 PUSH20 0xFFFFFFFFFFFFFFFFFFFFFFFFFFFFFFFFFFFFFFFF AND PUSH20 0xFFFFFFFFFFFFFFFFFFFFFFFFFFFFFFFFFFFFFFFF AND DUP2 MSTORE PUSH1 0x20 ADD SWAP1 DUP2 MSTORE PUSH1 0x20 ADD PUSH0 KECCAK256 PUSH0 DUP3 DUP3 SLOAD PUSH2 0x1877 SWAP2 SWAP1 PUSH2 0x29B6 JUMP JUMPDEST SWAP3 POP POP DUP2 SWAP1 SSTORE POP DUP1 PUSH1 0xC PUSH0 DUP3 DUP3 SLOAD PUSH2 0x188F SWAP2 SWAP1 PUSH2 0x2983 JUMP JUMPDEST SWAP3 POP POP DUP2 SWAP1 SSTORE POP JUMPDEST DUP3 PUSH20 0xFFFFFFFFFFFFFFFFFFFFFFFFFFFFFFFFFFFFFFFF AND PUSH32 0x987D620F307FF6B94D58743CB7A7509F24071586A77759B77C2D4E29F75A2F9A DUP3 DUP7 PUSH1 0x40 MLOAD PUSH2 0x18DF SWAP3 SWAP2 SWAP1 PUSH2 0x2C8F JUMP JUMPDEST PUSH1 0x40 MLOAD DUP1 SWAP2 SUB SWAP1 LOG2 POP POP POP PUSH2 0x18F2 PUSH2 0x205B JUMP JUMPDEST POP JUMP JUMPDEST PUSH1 0xD PUSH0 SWAP1 SLOAD SWAP1 PUSH2 0x100 EXP SWAP1 DIV PUSH20 0xFFFFFFFFFFFFFFFFFFFFFFFFFFFFFFFFFFFFFFFF AND DUP2 JUMP JUMPDEST PUSH2 0x1922 PUSH2 0x20E6 JUMP JUMPDEST PUSH0 DUP2 GT PUSH2 0x1964 JUMPI PUSH1 0x40 MLOAD PUSH32 0x8C379A000000000000000000000000000000000000000000000000000000000 DUP2 MSTORE PUSH1 0x4 ADD PUSH2 0x195B SWAP1 PUSH2 0x2D68 JUMP JUMPDEST PUSH1 0x40 MLOAD DUP1 SWAP2 SUB SWAP1 REVERT JUMPDEST PUSH2 0x19B2 CALLER ADDRESS DUP4 PUSH1 0x2 PUSH0 SWAP1 SLOAD SWAP1 PUSH2 0x100 EXP SWAP1 DIV PUSH20 0xFFFFFFFFFFFFFFFFFFFFFFFFFFFFFFFFFFFFFFFF AND PUSH20 0xFFFFFFFFFFFFFFFFFFFFFFFFFFFFFFFFFFFFFFFF AND PUSH2 0x2064 SWAP1 SWAP4 SWAP3 SWAP2 SWAP1 PUSH4 0xFFFFFFFF AND JUMP JUMPDEST DUP1 PUSH1 0xC PUSH0 DUP3 DUP3 SLOAD PUSH2 0x19C3 SWAP2 SWAP1 PUSH2 0x29B6 JUMP JUMPDEST SWAP3 POP POP DUP2 SWAP1 SSTORE POP CALLER PUSH20 0xFFFFFFFFFFFFFFFFFFFFFFFFFFFFFFFFFFFFFFFF AND PUSH32 0xD15DAFC20A4E1CCFF3E1B0A321BA0EE5C9B2AA1B9C7CAE08FB5A324537536244 DUP3 PUSH1 0x40 MLOAD PUSH2 0x1A10 SWAP2 SWAP1 PUSH2 0x23F0 JUMP JUMPDEST PUSH1 0x40 MLOAD DUP1 SWAP2 SUB SWAP1 LOG2 POP JUMP JUMPDEST PUSH2 0x1A23 PUSH2 0x20E6 JUMP JUMPDEST PUSH1 0xD PUSH1 0x14 SWAP1 SLOAD SWAP1 PUSH2 0x100 EXP SWAP1 DIV PUSH1 0xFF AND ISZERO PUSH1 0xD PUSH1 0x14 PUSH2 0x100 EXP DUP2 SLOAD DUP2 PUSH1 0xFF MUL NOT AND SWAP1 DUP4 ISZERO ISZERO MUL OR SWAP1 SSTORE POP PUSH1 0xD PUSH1 0x14 SWAP1 SLOAD SWAP1 PUSH2 0x100 EXP SWAP1 DIV PUSH1 0xFF AND ISZERO ISZERO PUSH32 0x752D7E161FF5146F80E3820893176EB40532811E5E20400DFDDE57455213706A PUSH1 0x40 MLOAD PUSH1 0x40 MLOAD DUP1 SWAP2 SUB SWAP1 LOG2 JUMP JUMPDEST PUSH2 0x1A95 PUSH2 0x20E6 JUMP JUMPDEST PUSH0 PUSH20 0xFFFFFFFFFFFFFFFFFFFFFFFFFFFFFFFFFFFFFFFF AND DUP2 PUSH20 0xFFFFFFFFFFFFFFFFFFFFFFFFFFFFFFFFFFFFFFFF AND SUB PUSH2 0x1B03 JUMPI PUSH1 0x40 MLOAD PUSH32 0x8C379A000000000000000000000000000000000000000000000000000000000 DUP2 MSTORE PUSH1 0x4 ADD PUSH2 0x1AFA SWAP1 PUSH2 0x2E94 JUMP JUMPDEST PUSH1 0x40 MLOAD DUP1 SWAP2 SUB SWAP1 REVERT JUMPDEST DUP1 PUSH1 0xD PUSH0 PUSH2 0x100 EXP DUP2 SLOAD DUP2 PUSH20 0xFFFFFFFFFFFFFFFFFFFFFFFFFFFFFFFFFFFFFFFF MUL NOT AND SWAP1 DUP4 PUSH20 0xFFFFFFFFFFFFFFFFFFFFFFFFFFFFFFFFFFFFFFFF AND MUL OR SWAP1 SSTORE POP DUP1 PUSH20 0xFFFFFFFFFFFFFFFFFFFFFFFFFFFFFFFFFFFFFFFF AND PUSH32 0x27AAE5DB36D94179909D019AE0B1AC7C16D96D953148F63C0F6A0A9C8EAD79EE PUSH1 0x40 MLOAD PUSH1 0x40 MLOAD DUP1 SWAP2 SUB SWAP1 LOG2 POP JUMP JUMPDEST PUSH2 0x1B91 PUSH2 0x200C JUMP JUMPDEST PUSH1 0xD PUSH1 0x14 SWAP1 SLOAD SWAP1 PUSH2 0x100 EXP SWAP1 DIV PUSH1 0xFF AND ISZERO PUSH2 0x1BE1 JUMPI PUSH1 0x40 MLOAD PUSH32 0x8C379A000000000000000000000000000000000000000000000000000000000 DUP2 MSTORE PUSH1 0x4 ADD PUSH2 0x1BD8 SWAP1 PUSH2 0x2B39 JUMP JUMPDEST PUSH1 0x40 MLOAD DUP1 SWAP2 SUB SWAP1 REVERT JUMPDEST PUSH0 PUSH1 0xA PUSH0 CALLER PUSH20 0xFFFFFFFFFFFFFFFFFFFFFFFFFFFFFFFFFFFFFFFF AND PUSH20 0xFFFFFFFFFFFFFFFFFFFFFFFFFFFFFFFFFFFFFFFF AND DUP2 MSTORE PUSH1 0x20 ADD SWAP1 DUP2 MSTORE PUSH1 0x20 ADD PUSH0 KECCAK256 SLOAD SWAP1 POP PUSH0 DUP2 GT PUSH2 0x1C64 JUMPI PUSH1 0x40 MLOAD PUSH32 0x8C379A000000000000000000000000000000000000000000000000000000000 DUP2 MSTORE PUSH1 0x4 ADD PUSH2 0x1C5B SWAP1 PUSH2 0x2EFC JUMP JUMPDEST PUSH1 0x40 MLOAD DUP1 SWAP2 SUB SWAP1 REVERT JUMPDEST PUSH0 PUSH1 0xA PUSH0 CALLER PUSH20 0xFFFFFFFFFFFFFFFFFFFFFFFFFFFFFFFFFFFFFFFF AND PUSH20 0xFFFFFFFFFFFFFFFFFFFFFFFFFFFFFFFFFFFFFFFF AND DUP2 MSTORE PUSH1 0x20 ADD SWAP1 DUP2 MSTORE PUSH1 0x20 ADD PUSH0 KECCAK256 DUP2 SWAP1 SSTORE POP PUSH2 0x1CF2 CALLER DUP3 PUSH1 0x2 PUSH0 SWAP1 SLOAD SWAP1 PUSH2 0x100 EXP SWAP1 DIV PUSH20 0xFFFFFFFFFFFFFFFFFFFFFFFFFFFFFFFFFFFFFFFF AND PUSH20 0xFFFFFFFFFFFFFFFFFFFFFFFFFFFFFFFFFFFFFFFF AND PUSH2 0x222E SWAP1 SWAP3 SWAP2 SWAP1 PUSH4 0xFFFFFFFF AND JUMP JUMPDEST CALLER PUSH20 0xFFFFFFFFFFFFFFFFFFFFFFFFFFFFFFFFFFFFFFFF AND PUSH32 0xBD1EA9966F82CCB966523D3922A6E4AD4BF3EA70E9201BD7A106DE847CC5E616 DUP3 PUSH1 0x40 MLOAD PUSH2 0x1D38 SWAP2 SWAP1 PUSH2 0x23F0 JUMP JUMPDEST PUSH1 0x40 MLOAD DUP1 SWAP2 SUB SWAP1 LOG2 POP PUSH2 0x1D49 PUSH2 0x205B JUMP JUMPDEST JUMP JUMPDEST PUSH0 PUSH1 0xC SLOAD SWAP1 POP SWAP1 JUMP JUMPDEST PUSH4 0x1E13380 DUP2 JUMP JUMPDEST PUSH0 PUSH1 0xD PUSH0 SWAP1 SLOAD SWAP1 PUSH2 0x100 EXP SWAP1 DIV PUSH20 0xFFFFFFFFFFFFFFFFFFFFFFFFFFFFFFFFFFFFFFFF AND SWAP1 POP SWAP1 JUMP JUMPDEST PUSH2 0x1D8C PUSH2 0x20E6 JUMP JUMPDEST PUSH0 PUSH20 0xFFFFFFFFFFFFFFFFFFFFFFFFFFFFFFFFFFFFFFFF AND DUP2 PUSH20 0xFFFFFFFFFFFFFFFFFFFFFFFFFFFFFFFFFFFFFFFF AND SUB PUSH2 0x1DFC JUMPI PUSH0 PUSH1 0x40 MLOAD PUSH32 0x1E4FBDF700000000000000000000000000000000000000000000000000000000 DUP2 MSTORE PUSH1 0x4 ADD PUSH2 0x1DF3 SWAP2 SWAP1 PUSH2 0x27C8 JUMP JUMPDEST PUSH1 0x40 MLOAD DUP1 SWAP2 SUB SWAP1 REVERT JUMPDEST PUSH2 0x1E05 DUP2 PUSH2 0x216D JUMP JUMPDEST POP JUMP JUMPDEST PUSH0 PUSH1 0x3 DUP3 LT PUSH2 0x1E4C JUMPI PUSH1 0x40 MLOAD PUSH32 0x8C379A000000000000000000000000000000000000000000000000000000000 DUP2 MSTORE PUSH1 0x4 ADD PUSH2 0x1E43 SWAP1 PUSH2 0x2D00 JUMP JUMPDEST PUSH1 0x40 MLOAD DUP1 SWAP2 SUB SWAP1 REVERT JUMPDEST PUSH1 0x3 DUP3 PUSH1 0x3 DUP2 LT PUSH2 0x1E60 JUMPI PUSH2 0x1E5F PUSH2 0x28C1 JUMP JUMPDEST JUMPDEST ADD SLOAD SWAP1 POP SWAP2 SWAP1 POP JUMP JUMPDEST PUSH1 0x2 PUSH0 SWAP1 SLOAD SWAP1 PUSH2 0x100 EXP SWAP1 DIV PUSH20 0xFFFFFFFFFFFFFFFFFFFFFFFFFFFFFFFFFFFFFFFF AND DUP2 JUMP JUMPDEST PUSH2 0x1E96 PUSH2 0x20E6 JUMP JUMPDEST PUSH0 PUSH20 0xFFFFFFFFFFFFFFFFFFFFFFFFFFFFFFFFFFFFFFFF AND DUP2 PUSH20 0xFFFFFFFFFFFFFFFFFFFFFFFFFFFFFFFFFFFFFFFF AND SUB PUSH2 0x1F04 JUMPI PUSH1 0x40 MLOAD PUSH32 0x8C379A000000000000000000000000000000000000000000000000000000000 DUP2 MSTORE PUSH1 0x4 ADD PUSH2 0x1EFB SWAP1 PUSH2 0x2E94 JUMP JUMPDEST PUSH1 0x40 MLOAD DUP1 SWAP2 SUB SWAP1 REVERT JUMPDEST DUP1 PUSH1 0x2 PUSH0 PUSH2 0x100 EXP DUP2 SLOAD DUP2 PUSH20 0xFFFFFFFFFFFFFFFFFFFFFFFFFFFFFFFFFFFFFFFF MUL NOT AND SWAP1 DUP4 PUSH20 0xFFFFFFFFFFFFFFFFFFFFFFFFFFFFFFFFFFFFFFFF AND MUL OR SWAP1 SSTORE POP DUP1 PUSH20 0xFFFFFFFFFFFFFFFFFFFFFFFFFFFFFFFFFFFFFFFF AND PUSH32 0xA5289BA11778999F4DFB9415023783188D42BBB5DB0612CBFBE55999069612A0 PUSH1 0x40 MLOAD PUSH1 0x40 MLOAD DUP1 SWAP2 SUB SWAP1 LOG2 POP JUMP JUMPDEST PUSH0 PUSH0 PUSH0 SWAP1 POP JUMPDEST PUSH1 0x3 DUP2 LT ISZERO PUSH2 0x1FCB JUMPI PUSH1 0x3 DUP2 PUSH1 0x3 DUP2 LT PUSH2 0x1FAD JUMPI PUSH2 0x1FAC PUSH2 0x28C1 JUMP JUMPDEST JUMPDEST ADD SLOAD DUP4 SUB PUSH2 0x1FBE JUMPI DUP1 SWAP2 POP POP PUSH2 0x2007 JUMP JUMPDEST DUP1 DUP1 PUSH1 0x1 ADD SWAP2 POP POP PUSH2 0x1F90 JUMP JUMPDEST POP PUSH1 0x40 MLOAD PUSH32 0x8C379A000000000000000000000000000000000000000000000000000000000 DUP2 MSTORE PUSH1 0x4 ADD PUSH2 0x1FFE SWAP1 PUSH2 0x2F64 JUMP JUMPDEST PUSH1 0x40 MLOAD DUP1 SWAP2 SUB SWAP1 REVERT JUMPDEST SWAP2 SWAP1 POP JUMP JUMPDEST PUSH1 0x2 PUSH1 0x1 SLOAD SUB PUSH2 0x2051 JUMPI PUSH1 0x40 MLOAD PUSH32 0x8C379A000000000000000000000000000000000000000000000000000000000 DUP2 MSTORE PUSH1 0x4 ADD PUSH2 0x2048 SWAP1 PUSH2 0x2FCC JUMP JUMPDEST PUSH1 0x40 MLOAD DUP1 SWAP2 SUB SWAP1 REVERT JUMPDEST PUSH1 0x2 PUSH1 0x1 DUP2 SWAP1 SSTORE POP JUMP JUMPDEST PUSH1 0x1 DUP1 DUP2 SWAP1 SSTORE POP JUMP JUMPDEST PUSH2 0x20E0 DUP5 DUP6 PUSH20 0xFFFFFFFFFFFFFFFFFFFFFFFFFFFFFFFFFFFFFFFF AND PUSH4 0x23B872DD DUP7 DUP7 DUP7 PUSH1 0x40 MLOAD PUSH1 0x24 ADD PUSH2 0x2099 SWAP4 SWAP3 SWAP2 SWAP1 PUSH2 0x2FEA JUMP JUMPDEST PUSH1 0x40 MLOAD PUSH1 0x20 DUP2 DUP4 SUB SUB DUP2 MSTORE SWAP1 PUSH1 0x40 MSTORE SWAP2 POP PUSH1 0xE0 SHL PUSH1 0x20 DUP3 ADD DUP1 MLOAD PUSH28 0xFFFFFFFFFFFFFFFFFFFFFFFFFFFFFFFFFFFFFFFFFFFFFFFFFFFFFFFF DUP4 DUP2 DUP4 AND OR DUP4 MSTORE POP POP POP POP PUSH2 0x22AD JUMP JUMPDEST POP POP POP POP JUMP JUMPDEST PUSH2 0x20EE PUSH2 0x2348 JUMP JUMPDEST PUSH20 0xFFFFFFFFFFFFFFFFFFFFFFFFFFFFFFFFFFFFFFFF AND PUSH2 0x210C PUSH2 0x1271 JUMP JUMPDEST PUSH20 0xFFFFFFFFFFFFFFFFFFFFFFFFFFFFFFFFFFFFFFFF AND EQ PUSH2 0x216B JUMPI PUSH2 0x212F PUSH2 0x2348 JUMP JUMPDEST PUSH1 0x40 MLOAD PUSH32 0x118CDAA700000000000000000000000000000000000000000000000000000000 DUP2 MSTORE PUSH1 0x4 ADD PUSH2 0x2162 SWAP2 SWAP1 PUSH2 0x27C8 JUMP JUMPDEST PUSH1 0x40 MLOAD DUP1 SWAP2 SUB SWAP1 REVERT JUMPDEST JUMP JUMPDEST PUSH0 PUSH0 PUSH0 SWAP1 SLOAD SWAP1 PUSH2 0x100 EXP SWAP1 DIV PUSH20 0xFFFFFFFFFFFFFFFFFFFFFFFFFFFFFFFFFFFFFFFF AND SWAP1 POP DUP2 PUSH0 PUSH0 PUSH2 0x100 EXP DUP2 SLOAD DUP2 PUSH20 0xFFFFFFFFFFFFFFFFFFFFFFFFFFFFFFFFFFFFFFFF MUL NOT AND SWAP1 DUP4 PUSH20 0xFFFFFFFFFFFFFFFFFFFFFFFFFFFFFFFFFFFFFFFF AND MUL OR SWAP1 SSTORE POP DUP2 PUSH20 0xFFFFFFFFFFFFFFFFFFFFFFFFFFFFFFFFFFFFFFFF AND DUP2 PUSH20 0xFFFFFFFFFFFFFFFFFFFFFFFFFFFFFFFFFFFFFFFF AND PUSH32 0x8BE0079C531659141344CD1FD0A4F28419497F9722A3DAAFE3B4186F6B6457E0 PUSH1 0x40 MLOAD PUSH1 0x40 MLOAD DUP1 SWAP2 SUB SWAP1 LOG3 POP POP JUMP JUMPDEST PUSH2 0x22A8 DUP4 DUP5 PUSH20 0xFFFFFFFFFFFFFFFFFFFFFFFFFFFFFFFFFFFFFFFF AND PUSH4 0xA9059CBB DUP6 DUP6 PUSH1 0x40 MLOAD PUSH1 0x24 ADD PUSH2 0x2261 SWAP3 SWAP2 SWAP1 PUSH2 0x301F JUMP JUMPDEST PUSH1 0x40 MLOAD PUSH1 0x20 DUP2 DUP4 SUB SUB DUP2 MSTORE SWAP1 PUSH1 0x40 MSTORE SWAP2 POP PUSH1 0xE0 SHL PUSH1 0x20 DUP3 ADD DUP1 MLOAD PUSH28 0xFFFFFFFFFFFFFFFFFFFFFFFFFFFFFFFFFFFFFFFFFFFFFFFFFFFFFFFF DUP4 DUP2 DUP4 AND OR DUP4 MSTORE POP POP POP POP PUSH2 0x22AD JUMP JUMPDEST POP POP POP JUMP JUMPDEST PUSH0 PUSH0 PUSH1 0x20 PUSH0 DUP5 MLOAD PUSH1 0x20 DUP7 ADD PUSH0 DUP9 GAS CALL DUP1 PUSH2 0x22CC JUMPI PUSH1 0x40 MLOAD RETURNDATASIZE PUSH0 DUP3 RETURNDATACOPY RETURNDATASIZE DUP2 REVERT JUMPDEST RETURNDATASIZE SWAP3 POP PUSH0 MLOAD SWAP2 POP POP PUSH0 DUP3 EQ PUSH2 0x22E5 JUMPI PUSH1 0x1 DUP2 EQ ISZERO PUSH2 0x2300 JUMP JUMPDEST PUSH0 DUP5 PUSH20 0xFFFFFFFFFFFFFFFFFFFFFFFFFFFFFFFFFFFFFFFF AND EXTCODESIZE EQ JUMPDEST ISZERO PUSH2 0x2342 JUMPI DUP4 PUSH1 0x40 MLOAD PUSH32 0x5274AFE700000000000000000000000000000000000000000000000000000000 DUP2 MSTORE PUSH1 0x4 ADD PUSH2 0x2339 SWAP2 SWAP1 PUSH2 0x27C8 JUMP JUMPDEST PUSH1 0x40 MLOAD DUP1 SWAP2 SUB SWAP1 REVERT JUMPDEST POP POP POP POP JUMP JUMPDEST PUSH0 CALLER SWAP1 POP SWAP1 JUMP JUMPDEST PUSH0 PUSH0 REVERT JUMPDEST PUSH0 PUSH20 0xFFFFFFFFFFFFFFFFFFFFFFFFFFFFFFFFFFFFFFFF DUP3 AND SWAP1 POP SWAP2 SWAP1 POP JUMP JUMPDEST PUSH0 PUSH2 0x237C DUP3 PUSH2 0x2353 JUMP JUMPDEST SWAP1 POP SWAP2 SWAP1 POP JUMP JUMPDEST PUSH2 0x238C DUP2 PUSH2 0x2372 JUMP JUMPDEST DUP2 EQ PUSH2 0x2396 JUMPI PUSH0 PUSH0 REVERT JUMPDEST POP JUMP JUMPDEST PUSH0 DUP2 CALLDATALOAD SWAP1 POP PUSH2 0x23A7 DUP2 PUSH2 0x2383 JUMP JUMPDEST SWAP3 SWAP2 POP POP JUMP JUMPDEST PUSH0 PUSH1 0x20 DUP3 DUP5 SUB SLT ISZERO PUSH2 0x23C2 JUMPI PUSH2 0x23C1 PUSH2 0x234F JUMP JUMPDEST JUMPDEST PUSH0 PUSH2 0x23CF DUP5 DUP3 DUP6 ADD PUSH2 0x2399 JUMP JUMPDEST SWAP2 POP POP SWAP3 SWAP2 POP POP JUMP JUMPDEST PUSH0 DUP2 SWAP1 POP SWAP2 SWAP1 POP JUMP JUMPDEST PUSH2 0x23EA DUP2 PUSH2 0x23D8 JUMP JUMPDEST DUP3 MSTORE POP POP JUMP JUMPDEST PUSH0 PUSH1 0x20 DUP3 ADD SWAP1 POP PUSH2 0x2403 PUSH0 DUP4 ADD DUP5 PUSH2 0x23E1 JUMP JUMPDEST SWAP3 SWAP2 POP POP JUMP JUMPDEST PUSH0 DUP2 MLOAD SWAP1 POP SWAP2 SWAP1 POP JUMP JUMPDEST PUSH0 DUP3 DUP3 MSTORE PUSH1 0x20 DUP3 ADD SWAP1 POP SWAP3 SWAP2 POP POP JUMP JUMPDEST PUSH0 DUP2 SWAP1 POP PUSH1 0x20 DUP3 ADD SWAP1 POP SWAP2 SWAP1 POP JUMP JUMPDEST PUSH2 0x243B DUP2 PUSH2 0x23D8 JUMP JUMPDEST DUP3 MSTORE POP POP JUMP JUMPDEST PUSH0 DUP2 ISZERO ISZERO SWAP1 POP SWAP2 SWAP1 POP JUMP JUMPDEST PUSH2 0x2455 DUP2 PUSH2 0x2441 JUMP JUMPDEST DUP3 MSTORE POP POP JUMP JUMPDEST PUSH1 0xC0 DUP3 ADD PUSH0 DUP3 ADD MLOAD PUSH2 0x246F PUSH0 DUP6 ADD DUP3 PUSH2 0x2432 JUMP JUMPDEST POP PUSH1 0x20 DUP3 ADD MLOAD PUSH2 0x2482 PUSH1 0x20 DUP6 ADD DUP3 PUSH2 0x2432 JUMP JUMPDEST POP PUSH1 0x40 DUP3 ADD MLOAD PUSH2 0x2495 PUSH1 0x40 DUP6 ADD DUP3 PUSH2 0x2432 JUMP JUMPDEST POP PUSH1 0x60 DUP3 ADD MLOAD PUSH2 0x24A8 PUSH1 0x60 DUP6 ADD DUP3 PUSH2 0x244C JUMP JUMPDEST POP PUSH1 0x80 DUP3 ADD MLOAD PUSH2 0x24BB PUSH1 0x80 DUP6 ADD DUP3 PUSH2 0x244C JUMP JUMPDEST POP PUSH1 0xA0 DUP3 ADD MLOAD PUSH2 0x24CE PUSH1 0xA0 DUP6 ADD DUP3 PUSH2 0x2432 JUMP JUMPDEST POP POP POP POP JUMP JUMPDEST PUSH0 PUSH2 0x24DF DUP4 DUP4 PUSH2 0x245B JUMP JUMPDEST PUSH1 0xC0 DUP4 ADD SWAP1 POP SWAP3 SWAP2 POP POP JUMP JUMPDEST PUSH0 PUSH1 0x20 DUP3 ADD SWAP1 POP SWAP2 SWAP1 POP JUMP JUMPDEST PUSH0 PUSH2 0x2501 DUP3 PUSH2 0x2409 JUMP JUMPDEST PUSH2 0x250B DUP2 DUP6 PUSH2 0x2413 JUMP JUMPDEST SWAP4 POP PUSH2 0x2516 DUP4 PUSH2 0x2423 JUMP JUMPDEST DUP1 PUSH0 JUMPDEST DUP4 DUP2 LT ISZERO PUSH2 0x2546 JUMPI DUP2 MLOAD PUSH2 0x252D DUP9 DUP3 PUSH2 0x24D4 JUMP JUMPDEST SWAP8 POP PUSH2 0x2538 DUP4 PUSH2 0x24EB JUMP JUMPDEST SWAP3 POP POP PUSH1 0x1 DUP2 ADD SWAP1 POP PUSH2 0x2519 JUMP JUMPDEST POP DUP6 SWAP4 POP POP POP POP SWAP3 SWAP2 POP POP JUMP JUMPDEST PUSH0 PUSH1 0x20 DUP3 ADD SWAP1 POP DUP2 DUP2 SUB PUSH0 DUP4 ADD MSTORE PUSH2 0x256B DUP2 DUP5 PUSH2 0x24F7 JUMP JUMPDEST SWAP1 POP SWAP3 SWAP2 POP POP JUMP JUMPDEST PUSH2 0x257C DUP2 PUSH2 0x23D8 JUMP JUMPDEST DUP2 EQ PUSH2 0x2586 JUMPI PUSH0 PUSH0 REVERT JUMPDEST POP JUMP JUMPDEST PUSH0 DUP2 CALLDATALOAD SWAP1 POP PUSH2 0x2597 DUP2 PUSH2 0x2573 JUMP JUMPDEST SWAP3 SWAP2 POP POP JUMP JUMPDEST PUSH0 PUSH0 PUSH1 0x40 DUP4 DUP6 SUB SLT ISZERO PUSH2 0x25B3 JUMPI PUSH2 0x25B2 PUSH2 0x234F JUMP JUMPDEST JUMPDEST PUSH0 PUSH2 0x25C0 DUP6 DUP3 DUP7 ADD PUSH2 0x2399 JUMP JUMPDEST SWAP3 POP POP PUSH1 0x20 PUSH2 0x25D1 DUP6 DUP3 DUP7 ADD PUSH2 0x2589 JUMP JUMPDEST SWAP2 POP POP SWAP3 POP SWAP3 SWAP1 POP JUMP JUMPDEST PUSH0 PUSH1 0x20 DUP3 DUP5 SUB SLT ISZERO PUSH2 0x25F0 JUMPI PUSH2 0x25EF PUSH2 0x234F JUMP JUMPDEST JUMPDEST PUSH0 PUSH2 0x25FD DUP5 DUP3 DUP6 ADD PUSH2 0x2589 JUMP JUMPDEST SWAP2 POP POP SWAP3 SWAP2 POP POP JUMP JUMPDEST PUSH2 0x260F DUP2 PUSH2 0x2441 JUMP JUMPDEST DUP2 EQ PUSH2 0x2619 JUMPI PUSH0 PUSH0 REVERT JUMPDEST POP JUMP JUMPDEST PUSH0 DUP2 CALLDATALOAD SWAP1 POP PUSH2 0x262A DUP2 PUSH2 0x2606 JUMP JUMPDEST SWAP3 SWAP2 POP POP JUMP JUMPDEST PUSH0 PUSH0 PUSH0 PUSH1 0x60 DUP5 DUP7 SUB SLT ISZERO PUSH2 0x2647 JUMPI PUSH2 0x2646 PUSH2 0x234F JUMP JUMPDEST JUMPDEST PUSH0 PUSH2 0x2654 DUP7 DUP3 DUP8 ADD PUSH2 0x2589 JUMP JUMPDEST SWAP4 POP POP PUSH1 0x20 PUSH2 0x2665 DUP7 DUP3 DUP8 ADD PUSH2 0x2589 JUMP JUMPDEST SWAP3 POP POP PUSH1 0x40 PUSH2 0x2676 DUP7 DUP3 DUP8 ADD PUSH2 0x261C JUMP JUMPDEST SWAP2 POP POP SWAP3 POP SWAP3 POP SWAP3 JUMP JUMPDEST PUSH2 0x2689 DUP2 PUSH2 0x2441 JUMP JUMPDEST DUP3 MSTORE POP POP JUMP JUMPDEST PUSH0 PUSH1 0xC0 DUP3 ADD SWAP1 POP PUSH2 0x26A2 PUSH0 DUP4 ADD DUP10 PUSH2 0x23E1 JUMP JUMPDEST PUSH2 0x26AF PUSH1 0x20 DUP4 ADD DUP9 PUSH2 0x23E1 JUMP JUMPDEST PUSH2 0x26BC PUSH1 0x40 DUP4 ADD DUP8 PUSH2 0x23E1 JUMP JUMPDEST PUSH2 0x26C9 PUSH1 0x60 DUP4 ADD DUP7 PUSH2 0x2680 JUMP JUMPDEST PUSH2 0x26D6 PUSH1 0x80 DUP4 ADD DUP6 PUSH2 0x2680 JUMP JUMPDEST PUSH2 0x26E3 PUSH1 0xA0 DUP4 ADD DUP5 PUSH2 0x23E1 JUMP JUMPDEST SWAP8 SWAP7 POP POP POP POP POP POP POP JUMP JUMPDEST PUSH0 PUSH0 PUSH1 0x40 DUP4 DUP6 SUB SLT ISZERO PUSH2 0x2704 JUMPI PUSH2 0x2703 PUSH2 0x234F JUMP JUMPDEST JUMPDEST PUSH0 PUSH2 0x2711 DUP6 DUP3 DUP7 ADD PUSH2 0x2589 JUMP JUMPDEST SWAP3 POP POP PUSH1 0x20 PUSH2 0x2722 DUP6 DUP3 DUP7 ADD PUSH2 0x2589 JUMP JUMPDEST SWAP2 POP POP SWAP3 POP SWAP3 SWAP1 POP JUMP JUMPDEST PUSH0 PUSH1 0x20 DUP3 ADD SWAP1 POP PUSH2 0x273F PUSH0 DUP4 ADD DUP5 PUSH2 0x2680 JUMP JUMPDEST SWAP3 SWAP2 POP POP JUMP JUMPDEST PUSH0 DUP2 SWAP1 POP SWAP2 SWAP1 POP JUMP JUMPDEST PUSH0 PUSH2 0x2768 PUSH2 0x2763 PUSH2 0x275E DUP5 PUSH2 0x2353 JUMP JUMPDEST PUSH2 0x2745 JUMP JUMPDEST PUSH2 0x2353 JUMP JUMPDEST SWAP1 POP SWAP2 SWAP1 POP JUMP JUMPDEST PUSH0 PUSH2 0x2779 DUP3 PUSH2 0x274E JUMP JUMPDEST SWAP1 POP SWAP2 SWAP1 POP JUMP JUMPDEST PUSH0 PUSH2 0x278A DUP3 PUSH2 0x276F JUMP JUMPDEST SWAP1 POP SWAP2 SWAP1 POP JUMP JUMPDEST PUSH2 0x279A DUP2 PUSH2 0x2780 JUMP JUMPDEST DUP3 MSTORE POP POP JUMP JUMPDEST PUSH0 PUSH1 0x20 DUP3 ADD SWAP1 POP PUSH2 0x27B3 PUSH0 DUP4 ADD DUP5 PUSH2 0x2791 JUMP JUMPDEST SWAP3 SWAP2 POP POP JUMP JUMPDEST PUSH2 0x27C2 DUP2 PUSH2 0x2372 JUMP JUMPDEST DUP3 MSTORE POP POP JUMP JUMPDEST PUSH0 PUSH1 0x20 DUP3 ADD SWAP1 POP PUSH2 0x27DB PUSH0 DUP4 ADD DUP5 PUSH2 0x27B9 JUMP JUMPDEST SWAP3 SWAP2 POP POP JUMP JUMPDEST PUSH0 DUP3 DUP3 MSTORE PUSH1 0x20 DUP3 ADD SWAP1 POP SWAP3 SWAP2 POP POP JUMP JUMPDEST PUSH32 0x496E76616C6964206163636F756E740000000000000000000000000000000000 PUSH0 DUP3 ADD MSTORE POP JUMP JUMPDEST PUSH0 PUSH2 0x2825 PUSH1 0xF DUP4 PUSH2 0x27E1 JUMP JUMPDEST SWAP2 POP PUSH2 0x2830 DUP3 PUSH2 0x27F1 JUMP JUMPDEST PUSH1 0x20 DUP3 ADD SWAP1 POP SWAP2 SWAP1 POP JUMP JUMPDEST PUSH0 PUSH1 0x20 DUP3 ADD SWAP1 POP DUP2 DUP2 SUB PUSH0 DUP4 ADD MSTORE PUSH2 0x2852 DUP2 PUSH2 0x2819 JUMP JUMPDEST SWAP1 POP SWAP2 SWAP1 POP JUMP JUMPDEST PUSH32 0x496E76616C6964207374616B6520696E64657800000000000000000000000000 PUSH0 DUP3 ADD MSTORE POP JUMP JUMPDEST PUSH0 PUSH2 0x288D PUSH1 0x13 DUP4 PUSH2 0x27E1 JUMP JUMPDEST SWAP2 POP PUSH2 0x2898 DUP3 PUSH2 0x2859 JUMP JUMPDEST PUSH1 0x20 DUP3 ADD SWAP1 POP SWAP2 SWAP1 POP JUMP JUMPDEST PUSH0 PUSH1 0x20 DUP3 ADD SWAP1 POP DUP2 DUP2 SUB PUSH0 DUP4 ADD MSTORE PUSH2 0x28BA DUP2 PUSH2 0x2881 JUMP JUMPDEST SWAP1 POP SWAP2 SWAP1 POP JUMP JUMPDEST PUSH32 0x4E487B7100000000000000000000000000000000000000000000000000000000 PUSH0 MSTORE PUSH1 0x32 PUSH1 0x4 MSTORE PUSH1 0x24 PUSH0 REVERT JUMPDEST PUSH32 0x416C726561647920636C61696D65640000000000000000000000000000000000 PUSH0 DUP3 ADD MSTORE POP JUMP JUMPDEST PUSH0 PUSH2 0x2922 PUSH1 0xF DUP4 PUSH2 0x27E1 JUMP JUMPDEST SWAP2 POP PUSH2 0x292D DUP3 PUSH2 0x28EE JUMP JUMPDEST PUSH1 0x20 DUP3 ADD SWAP1 POP SWAP2 SWAP1 POP JUMP JUMPDEST PUSH0 PUSH1 0x20 DUP3 ADD SWAP1 POP DUP2 DUP2 SUB PUSH0 DUP4 ADD MSTORE PUSH2 0x294F DUP2 PUSH2 0x2916 JUMP JUMPDEST SWAP1 POP SWAP2 SWAP1 POP JUMP JUMPDEST PUSH32 0x4E487B7100000000000000000000000000000000000000000000000000000000 PUSH0 MSTORE PUSH1 0x11 PUSH1 0x4 MSTORE PUSH1 0x24 PUSH0 REVERT JUMPDEST PUSH0 PUSH2 0x298D DUP3 PUSH2 0x23D8 JUMP JUMPDEST SWAP2 POP PUSH2 0x2998 DUP4 PUSH2 0x23D8 JUMP JUMPDEST SWAP3 POP DUP3 DUP3 SUB SWAP1 POP DUP2 DUP2 GT ISZERO PUSH2 0x29B0 JUMPI PUSH2 0x29AF PUSH2 0x2956 JUMP JUMPDEST JUMPDEST SWAP3 SWAP2 POP POP JUMP JUMPDEST PUSH0 PUSH2 0x29C0 DUP3 PUSH2 0x23D8 JUMP JUMPDEST SWAP2 POP PUSH2 0x29CB DUP4 PUSH2 0x23D8 JUMP JUMPDEST SWAP3 POP DUP3 DUP3 ADD SWAP1 POP DUP1 DUP3 GT ISZERO PUSH2 0x29E3 JUMPI PUSH2 0x29E2 PUSH2 0x2956 JUMP JUMPDEST JUMPDEST SWAP3 SWAP2 POP POP JUMP JUMPDEST PUSH0 PUSH2 0x29F3 DUP3 PUSH2 0x23D8 JUMP JUMPDEST SWAP2 POP PUSH2 0x29FE DUP4 PUSH2 0x23D8 JUMP JUMPDEST SWAP3 POP DUP3 DUP3 MUL PUSH2 0x2A0C DUP2 PUSH2 0x23D8 JUMP JUMPDEST SWAP2 POP DUP3 DUP3 DIV DUP5 EQ DUP4 ISZERO OR PUSH2 0x2A23 JUMPI PUSH2 0x2A22 PUSH2 0x2956 JUMP JUMPDEST JUMPDEST POP SWAP3 SWAP2 POP POP JUMP JUMPDEST PUSH32 0x4E487B7100000000000000000000000000000000000000000000000000000000 PUSH0 MSTORE PUSH1 0x12 PUSH1 0x4 MSTORE PUSH1 0x24 PUSH0 REVERT JUMPDEST PUSH0 PUSH2 0x2A61 DUP3 PUSH2 0x23D8 JUMP JUMPDEST SWAP2 POP PUSH2 0x2A6C DUP4 PUSH2 0x23D8 JUMP JUMPDEST SWAP3 POP DUP3 PUSH2 0x2A7C JUMPI PUSH2 0x2A7B PUSH2 0x2A2A JUMP JUMPDEST JUMPDEST DUP3 DUP3 DIV SWAP1 POP SWAP3 SWAP2 POP POP JUMP JUMPDEST PUSH32 0x4F6E6C7920454F412063616E2063616C6C000000000000000000000000000000 PUSH0 DUP3 ADD MSTORE POP JUMP JUMPDEST PUSH0 PUSH2 0x2ABB PUSH1 0x11 DUP4 PUSH2 0x27E1 JUMP JUMPDEST SWAP2 POP PUSH2 0x2AC6 DUP3 PUSH2 0x2A87 JUMP JUMPDEST PUSH1 0x20 DUP3 ADD SWAP1 POP SWAP2 SWAP1 POP JUMP JUMPDEST PUSH0 PUSH1 0x20 DUP3 ADD SWAP1 POP DUP2 DUP2 SUB PUSH0 DUP4 ADD MSTORE PUSH2 0x2AE8 DUP2 PUSH2 0x2AAF JUMP JUMPDEST SWAP1 POP SWAP2 SWAP1 POP JUMP JUMPDEST PUSH32 0x436F6E7472616374207061757365640000000000000000000000000000000000 PUSH0 DUP3 ADD MSTORE POP JUMP JUMPDEST PUSH0 PUSH2 0x2B23 PUSH1 0xF DUP4 PUSH2 0x27E1 JUMP JUMPDEST SWAP2 POP PUSH2 0x2B2E DUP3 PUSH2 0x2AEF JUMP JUMPDEST PUSH1 0x20 DUP3 ADD SWAP1 POP SWAP2 SWAP1 POP JUMP JUMPDEST PUSH0 PUSH1 0x20 DUP3 ADD SWAP1 POP DUP2 DUP2 SUB PUSH0 DUP4 ADD MSTORE PUSH2 0x2B50 DUP2 PUSH2 0x2B17 JUMP JUMPDEST SWAP1 POP SWAP2 SWAP1 POP JUMP JUMPDEST PUSH32 0x4175746F2D7374616B696E672064697361626C65640000000000000000000000 PUSH0 DUP3 ADD MSTORE POP JUMP JUMPDEST PUSH0 PUSH2 0x2B8B PUSH1 0x15 DUP4 PUSH2 0x27E1 JUMP JUMPDEST SWAP2 POP PUSH2 0x2B96 DUP3 PUSH2 0x2B57 JUMP JUMPDEST PUSH1 0x20 DUP3 ADD SWAP1 POP SWAP2 SWAP1 POP JUMP JUMPDEST PUSH0 PUSH1 0x20 DUP3 ADD SWAP1 POP DUP2 DUP2 SUB PUSH0 DUP4 ADD MSTORE PUSH2 0x2BB8 DUP2 PUSH2 0x2B7F JUMP JUMPDEST SWAP1 POP SWAP2 SWAP1 POP JUMP JUMPDEST PUSH32 0x5374696C6C206C6F636B65640000000000000000000000000000000000000000 PUSH0 DUP3 ADD MSTORE POP JUMP JUMPDEST PUSH0 PUSH2 0x2BF3 PUSH1 0xC DUP4 PUSH2 0x27E1 JUMP JUMPDEST SWAP2 POP PUSH2 0x2BFE DUP3 PUSH2 0x2BBF JUMP JUMPDEST PUSH1 0x20 DUP3 ADD SWAP1 POP SWAP2 SWAP1 POP JUMP JUMPDEST PUSH0 PUSH1 0x20 DUP3 ADD SWAP1 POP DUP2 DUP2 SUB PUSH0 DUP4 ADD MSTORE PUSH2 0x2C20 DUP2 PUSH2 0x2BE7 JUMP JUMPDEST SWAP1 POP SWAP2 SWAP1 POP JUMP JUMPDEST PUSH32 0x496E73756666696369656E742072657761726420706F6F6C0000000000000000 PUSH0 DUP3 ADD MSTORE POP JUMP JUMPDEST PUSH0 PUSH2 0x2C5B PUSH1 0x18 DUP4 PUSH2 0x27E1 JUMP JUMPDEST SWAP2 POP PUSH2 0x2C66 DUP3 PUSH2 0x2C27 JUMP JUMPDEST PUSH1 0x20 DUP3 ADD SWAP1 POP SWAP2 SWAP1 POP JUMP JUMPDEST PUSH0 PUSH1 0x20 DUP3 ADD SWAP1 POP DUP2 DUP2 SUB PUSH0 DUP4 ADD MSTORE PUSH2 0x2C88 DUP2 PUSH2 0x2C4F JUMP JUMPDEST SWAP1 POP SWAP2 SWAP1 POP JUMP JUMPDEST PUSH0 PUSH1 0x40 DUP3 ADD SWAP1 POP PUSH2 0x2CA2 PUSH0 DUP4 ADD DUP6 PUSH2 0x23E1 JUMP JUMPDEST PUSH2 0x2CAF PUSH1 0x20 DUP4 ADD DUP5 PUSH2 0x23E1 JUMP JUMPDEST SWAP4 SWAP3 POP POP POP JUMP JUMPDEST PUSH32 0x496E76616C696420706572696F6420696E646578000000000000000000000000 PUSH0 DUP3 ADD MSTORE POP JUMP JUMPDEST PUSH0 PUSH2 0x2CEA PUSH1 0x14 DUP4 PUSH2 0x27E1 JUMP JUMPDEST SWAP2 POP PUSH2 0x2CF5 DUP3 PUSH2 0x2CB6 JUMP JUMPDEST PUSH1 0x20 DUP3 ADD SWAP1 POP SWAP2 SWAP1 POP JUMP JUMPDEST PUSH0 PUSH1 0x20 DUP3 ADD SWAP1 POP DUP2 DUP2 SUB PUSH0 DUP4 ADD MSTORE PUSH2 0x2D17 DUP2 PUSH2 0x2CDE JUMP JUMPDEST SWAP1 POP SWAP2 SWAP1 POP JUMP JUMPDEST PUSH32 0x5A65726F20616D6F756E74000000000000000000000000000000000000000000 PUSH0 DUP3 ADD MSTORE POP JUMP JUMPDEST PUSH0 PUSH2 0x2D52 PUSH1 0xB DUP4 PUSH2 0x27E1 JUMP JUMPDEST SWAP2 POP PUSH2 0x2D5D DUP3 PUSH2 0x2D1E JUMP JUMPDEST PUSH1 0x20 DUP3 ADD SWAP1 POP SWAP2 SWAP1 POP JUMP JUMPDEST PUSH0 PUSH1 0x20 DUP3 ADD SWAP1 POP DUP2 DUP2 SUB PUSH0 DUP4 ADD MSTORE PUSH2 0x2D7F DUP2 PUSH2 0x2D46 JUMP JUMPDEST SWAP1 POP SWAP2 SWAP1 POP JUMP JUMPDEST PUSH0 PUSH1 0x60 DUP3 ADD SWAP1 POP PUSH2 0x2D99 PUSH0 DUP4 ADD DUP7 PUSH2 0x23E1 JUMP JUMPDEST PUSH2 0x2DA6 PUSH1 0x20 DUP4 ADD DUP6 PUSH2 0x23E1 JUMP JUMPDEST PUSH2 0x2DB3 PUSH1 0x40 DUP4 ADD DUP5 PUSH2 0x2680 JUMP JUMPDEST SWAP5 SWAP4 POP POP POP POP JUMP JUMPDEST PUSH32 0x41505920746F6F20686967680000000000000000000000000000000000000000 PUSH0 DUP3 ADD MSTORE POP JUMP JUMPDEST PUSH0 PUSH2 0x2DEF PUSH1 0xC DUP4 PUSH2 0x27E1 JUMP JUMPDEST SWAP2 POP PUSH2 0x2DFA DUP3 PUSH2 0x2DBB JUMP JUMPDEST PUSH1 0x20 DUP3 ADD SWAP1 POP SWAP2 SWAP1 POP JUMP JUMPDEST PUSH0 PUSH1 0x20 DUP3 ADD SWAP1 POP DUP2 DUP2 SUB PUSH0 DUP4 ADD MSTORE PUSH2 0x2E1C DUP2 PUSH2 0x2DE3 JUMP JUMPDEST SWAP1 POP SWAP2 SWAP1 POP JUMP JUMPDEST PUSH0 PUSH1 0x40 DUP3 ADD SWAP1 POP PUSH2 0x2E36 PUSH0 DUP4 ADD DUP6 PUSH2 0x23E1 JUMP JUMPDEST PUSH2 0x2E43 PUSH1 0x20 DUP4 ADD DUP5 PUSH2 0x2680 JUMP JUMPDEST SWAP4 SWAP3 POP POP POP JUMP JUMPDEST PUSH32 0x5A65726F2061646472657373206E6F7420616C6C6F7765640000000000000000 PUSH0 DUP3 ADD MSTORE POP JUMP JUMPDEST PUSH0 PUSH2 0x2E7E PUSH1 0x18 DUP4 PUSH2 0x27E1 JUMP JUMPDEST SWAP2 POP PUSH2 0x2E89 DUP3 PUSH2 0x2E4A JUMP JUMPDEST PUSH1 0x20 DUP3 ADD SWAP1 POP SWAP2 SWAP1 POP JUMP JUMPDEST PUSH0 PUSH1 0x20 DUP3 ADD SWAP1 POP DUP2 DUP2 SUB PUSH0 DUP4 ADD MSTORE PUSH2 0x2EAB DUP2 PUSH2 0x2E72 JUMP JUMPDEST SWAP1 POP SWAP2 SWAP1 POP JUMP JUMPDEST PUSH32 0x4E6F207265776172647320746F20776974686472617700000000000000000000 PUSH0 DUP3 ADD MSTORE POP JUMP JUMPDEST PUSH0 PUSH2 0x2EE6 PUSH1 0x16 DUP4 PUSH2 0x27E1 JUMP JUMPDEST SWAP2 POP PUSH2 0x2EF1 DUP3 PUSH2 0x2EB2 JUMP JUMPDEST PUSH1 0x20 DUP3 ADD SWAP1 POP SWAP2 SWAP1 POP JUMP JUMPDEST PUSH0 PUSH1 0x20 DUP3 ADD SWAP1 POP DUP2 DUP2 SUB PUSH0 DUP4 ADD MSTORE PUSH2 0x2F13 DUP2 PUSH2 0x2EDA JUMP JUMPDEST SWAP1 POP SWAP2 SWAP1 POP JUMP JUMPDEST PUSH32 0x556E737570706F72746564206C6F636B20706572696F64000000000000000000 PUSH0 DUP3 ADD MSTORE POP JUMP JUMPDEST PUSH0 PUSH2 0x2F4E PUSH1 0x17 DUP4 PUSH2 0x27E1 JUMP JUMPDEST SWAP2 POP PUSH2 0x2F59 DUP3 PUSH2 0x2F1A JUMP JUMPDEST PUSH1 0x20 DUP3 ADD SWAP1 POP SWAP2 SWAP1 POP JUMP JUMPDEST PUSH0 PUSH1 0x20 DUP3 ADD SWAP1 POP DUP2 DUP2 SUB PUSH0 DUP4 ADD MSTORE PUSH2 0x2F7B DUP2 PUSH2 0x2F42 JUMP JUMPDEST SWAP1 POP SWAP2 SWAP1 POP JUMP JUMPDEST PUSH32 0x5265656E7472616E637947756172643A207265656E7472616E742063616C6C00 PUSH0 DUP3 ADD MSTORE POP JUMP JUMPDEST PUSH0 PUSH2 0x2FB6 PUSH1 0x1F DUP4 PUSH2 0x27E1 JUMP JUMPDEST SWAP2 POP PUSH2 0x2FC1 DUP3 PUSH2 0x2F82 JUMP JUMPDEST PUSH1 0x20 DUP3 ADD SWAP1 POP SWAP2 SWAP1 POP JUMP JUMPDEST PUSH0 PUSH1 0x20 DUP3 ADD SWAP1 POP DUP2 DUP2 SUB PUSH0 DUP4 ADD MSTORE PUSH2 0x2FE3 DUP2 PUSH2 0x2FAA JUMP JUMPDEST SWAP1 POP SWAP2 SWAP1 POP JUMP JUMPDEST PUSH0 PUSH1 0x60 DUP3 ADD SWAP1 POP PUSH2 0x2FFD PUSH0 DUP4 ADD DUP7 PUSH2 0x27B9 JUMP JUMPDEST PUSH2 0x300A PUSH1 0x20 DUP4 ADD DUP6 PUSH2 0x27B9 JUMP JUMPDEST PUSH2 0x3017 PUSH1 0x40 DUP4 ADD DUP5 PUSH2 0x23E1 JUMP JUMPDEST SWAP5 SWAP4 POP POP POP POP JUMP JUMPDEST PUSH0 PUSH1 0x40 DUP3 ADD SWAP1 POP PUSH2 0x3032 PUSH0 DUP4 ADD DUP6 PUSH2 0x27B9 JUMP JUMPDEST PUSH2 0x303F PUSH1 0x20 DUP4 ADD DUP5 PUSH2 0x23E1 JUMP JUMPDEST SWAP4 SWAP3 POP POP POP JUMP INVALID LOG2 PUSH5 0x6970667358 0x22 SLT KECCAK256 0xC8 0x26 0xFC DUP14 RETURNCONTRACT 0x31 PUSH18 0x4C7366FC6FD9E4450CAF7DFD0E6C32315CD 0xC2 GAS 0xDE PUSH10 0x2368C564736F6C634300 ADDMOD 0x1E STOP CALLER "
				},
				"gasEstimates": {
					"creation": {
						"codeDepositCost": "2482400",
						"executionCost": "infinite",
						"totalCost": "infinite"
					},
					"external": {
						"AUTO_COMPOUND_FEE()": "438",
						"MAX_APY()": "371",
						"SECONDS_PER_YEAR()": "414",
						"addRewardPoolFunds(uint256)": "infinite",
						"apyRates(uint256)": "infinite",
						"calculateReward(address,uint256)": "infinite",
						"claimReward(uint256)": "infinite",
						"compoundReward(uint256)": "infinite",
						"estimateMintGas()": "421",
						"feeReceiver()": "2553",
						"getActiveStakes(address)": "infinite",
						"getFeeReceiver()": "2626",
						"getLockPeriod(uint256)": "infinite",
						"getRewardPoolBalance()": "2499",
						"lockPeriods(uint256)": "infinite",
						"owner()": "2582",
						"paused()": "2607",
						"pendingRewardWithdrawals(address)": "2849",
						"renounceOwnership()": "infinite",
						"rewardPoolBalance()": "2536",
						"rewardToken()": "infinite",
						"setAPY(uint256,uint256)": "infinite",
						"stake(uint256,uint256,bool)": "infinite",
						"stakes(address,uint256)": "infinite",
						"stakingToken()": "infinite",
						"toggleAutoStake(uint256)": "infinite",
						"togglePause()": "infinite",
						"totalStaked()": "2471",
						"transferOwnership(address)": "infinite",
						"updateFeeReceiver(address)": "infinite",
						"updateRewardToken(address)": "infinite",
						"withdrawRewards()": "infinite"
					},
					"internal": {
						"getPeriodIndex(uint256)": "infinite"
					}
				},
				"methodIdentifiers": {
					"AUTO_COMPOUND_FEE()": "38bceaac",
					"MAX_APY()": "3d92f4e2",
					"SECONDS_PER_YEAR()": "e6a69ab8",
					"addRewardPoolFunds(uint256)": "bbd36b61",
					"apyRates(uint256)": "6b494def",
					"calculateReward(address,uint256)": "1852e8d9",
					"claimReward(uint256)": "ae169a50",
					"compoundReward(uint256)": "4060e257",
					"estimateMintGas()": "794a62d3",
					"feeReceiver()": "b3f00674",
					"getActiveStakes(address)": "1747e0b0",
					"getFeeReceiver()": "e8a35392",
					"getLockPeriod(uint256)": "f55ad3ec",
					"getRewardPoolBalance()": "d854fb75",
					"lockPeriods(uint256)": "4c8f2a78",
					"owner()": "8da5cb5b",
					"paused()": "5c975abb",
					"pendingRewardWithdrawals(address)": "0630e463",
					"renounceOwnership()": "715018a6",
					"rewardPoolBalance()": "7a5c08ae",
					"rewardToken()": "f7c618c1",
					"setAPY(uint256,uint256)": "5acd2e4c",
					"stake(uint256,uint256,bool)": "561b2463",
					"stakes(address,uint256)": "584b62a1",
					"stakingToken()": "72f702f3",
					"toggleAutoStake(uint256)": "95a29060",
					"togglePause()": "c4ae3168",
					"totalStaked()": "817b1cd2",
					"transferOwnership(address)": "f2fde38b",
					"updateFeeReceiver(address)": "c69bebe4",
					"updateRewardToken(address)": "f8cf31cb",
					"withdrawRewards()": "c7b8981c"
				}
			},
			"storageLayout": {
				"storage": [
					{
						"astId": 8,
						"contract": "Staking.sol:AutoStaking",
						"label": "_owner",
						"offset": 0,
						"slot": "0",
						"type": "t_address"
					},
					{
						"astId": 248,
						"contract": "Staking.sol:AutoStaking",
						"label": "_status",
						"offset": 0,
						"slot": "1",
						"type": "t_uint256"
					},
					{
						"astId": 907,
						"contract": "Staking.sol:AutoStaking",
						"label": "rewardToken",
						"offset": 0,
						"slot": "2",
						"type": "t_contract(IERC20)380"
					},
					{
						"astId": 924,
						"contract": "Staking.sol:AutoStaking",
						"label": "lockPeriods",
						"offset": 0,
						"slot": "3",
						"type": "t_array(t_uint256)3_storage"
					},
					{
						"astId": 932,
						"contract": "Staking.sol:AutoStaking",
						"label": "apyRates",
						"offset": 0,
						"slot": "6",
						"type": "t_array(t_uint256)3_storage"
					},
					{
						"astId": 951,
						"contract": "Staking.sol:AutoStaking",
						"label": "stakes",
						"offset": 0,
						"slot": "9",
						"type": "t_mapping(t_address,t_array(t_struct(StakeInfo)945_storage)dyn_storage)"
					},
					{
						"astId": 955,
						"contract": "Staking.sol:AutoStaking",
						"label": "pendingRewardWithdrawals",
						"offset": 0,
						"slot": "10",
						"type": "t_mapping(t_address,t_uint256)"
					},
					{
						"astId": 957,
						"contract": "Staking.sol:AutoStaking",
						"label": "totalStaked",
						"offset": 0,
						"slot": "11",
						"type": "t_uint256"
					},
					{
						"astId": 959,
						"contract": "Staking.sol:AutoStaking",
						"label": "rewardPoolBalance",
						"offset": 0,
						"slot": "12",
						"type": "t_uint256"
					},
					{
						"astId": 961,
						"contract": "Staking.sol:AutoStaking",
						"label": "feeReceiver",
						"offset": 0,
						"slot": "13",
						"type": "t_address"
					},
					{
						"astId": 1050,
						"contract": "Staking.sol:AutoStaking",
						"label": "paused",
						"offset": 20,
						"slot": "13",
						"type": "t_bool"
					}
				],
				"types": {
					"t_address": {
						"encoding": "inplace",
						"label": "address",
						"numberOfBytes": "20"
					},
					"t_array(t_struct(StakeInfo)945_storage)dyn_storage": {
						"base": "t_struct(StakeInfo)945_storage",
						"encoding": "dynamic_array",
						"label": "struct AutoStaking.StakeInfo[]",
						"numberOfBytes": "32"
					},
					"t_array(t_uint256)3_storage": {
						"base": "t_uint256",
						"encoding": "inplace",
						"label": "uint256[3]",
						"numberOfBytes": "96"
					},
					"t_bool": {
						"encoding": "inplace",
						"label": "bool",
						"numberOfBytes": "1"
					},
					"t_contract(IERC20)380": {
						"encoding": "inplace",
						"label": "contract IERC20",
						"numberOfBytes": "20"
					},
					"t_mapping(t_address,t_array(t_struct(StakeInfo)945_storage)dyn_storage)": {
						"encoding": "mapping",
						"key": "t_address",
						"label": "mapping(address => struct AutoStaking.StakeInfo[])",
						"numberOfBytes": "32",
						"value": "t_array(t_struct(StakeInfo)945_storage)dyn_storage"
					},
					"t_mapping(t_address,t_uint256)": {
						"encoding": "mapping",
						"key": "t_address",
						"label": "mapping(address => uint256)",
						"numberOfBytes": "32",
						"value": "t_uint256"
					},
					"t_struct(StakeInfo)945_storage": {
						"encoding": "inplace",
						"label": "struct AutoStaking.StakeInfo",
						"members": [
							{
								"astId": 934,
								"contract": "Staking.sol:AutoStaking",
								"label": "amount",
								"offset": 0,
								"slot": "0",
								"type": "t_uint256"
							},
							{
								"astId": 936,
								"contract": "Staking.sol:AutoStaking",
								"label": "stakeTime",
								"offset": 0,
								"slot": "1",
								"type": "t_uint256"
							},
							{
								"astId": 938,
								"contract": "Staking.sol:AutoStaking",
								"label": "unlockTime",
								"offset": 0,
								"slot": "2",
								"type": "t_uint256"
							},
							{
								"astId": 940,
								"contract": "Staking.sol:AutoStaking",
								"label": "claimed",
								"offset": 0,
								"slot": "3",
								"type": "t_bool"
							},
							{
								"astId": 942,
								"contract": "Staking.sol:AutoStaking",
								"label": "autoStaking",
								"offset": 1,
								"slot": "3",
								"type": "t_bool"
							},
							{
								"astId": 944,
								"contract": "Staking.sol:AutoStaking",
								"label": "compoundedAmount",
								"offset": 0,
								"slot": "4",
								"type": "t_uint256"
							}
						],
						"numberOfBytes": "160"
					},
					"t_uint256": {
						"encoding": "inplace",
						"label": "uint256",
						"numberOfBytes": "32"
					}
				}
			},
			"userdoc": {
				"kind": "user",
				"methods": {
					"addRewardPoolFunds(uint256)": {
						"notice": "Add funds to reward pool"
					},
					"calculateReward(address,uint256)": {
						"notice": "Calculate accrued reward for a stake"
					},
					"claimReward(uint256)": {
						"notice": "Claim reward for a specific stake"
					},
					"compoundReward(uint256)": {
						"notice": "Compound reward into new stake"
					},
					"estimateMintGas()": {
						"notice": "Estimate mint gas"
					},
					"getActiveStakes(address)": {
						"notice": "Get active stakes for an account"
					},
					"getFeeReceiver()": {
						"notice": "Get fee receiver address"
					},
					"getLockPeriod(uint256)": {
						"notice": "Get lock period in seconds"
					},
					"getRewardPoolBalance()": {
						"notice": "Get current reward pool balance"
					},
					"setAPY(uint256,uint256)": {
						"notice": "Update APY rate for a period"
					},
					"stake(uint256,uint256,bool)": {
						"notice": "Stake tokens for a fixed period"
					},
					"toggleAutoStake(uint256)": {
						"notice": "Toggle auto-staking for a stake"
					},
					"togglePause()": {
						"notice": "Toggle contract pause"
					},
					"updateFeeReceiver(address)": {
						"notice": "Update fee receiver address"
					},
					"updateRewardToken(address)": {
						"notice": "Update reward token address"
					},
					"withdrawRewards()": {
						"notice": "Withdraw pending rewards"
					}
				},
				"version": 1
			}
		}
	}
}