{
	"Farming.sol": {
		"CAFIFarming": {
			"abi": [
				{
					"inputs": [
						{
							"internalType": "address",
							"name": "_cafiToken",
							"type": "address"
						},
						{
							"internalType": "address",
							"name": "_treasuryWallet",
							"type": "address"
						},
						{
							"internalType": "address",
							"name": "_initialOwner",
							"type": "address"
						}
					],
					"stateMutability": "nonpayable",
					"type": "constructor"
				},
				{
					"inputs": [
						{
							"internalType": "address",
							"name": "owner",
							"type": "address"
						}
					],
					"name": "OwnableInvalidOwner",
					"type": "error"
				},
				{
					"inputs": [
						{
							"internalType": "address",
							"name": "account",
							"type": "address"
						}
					],
					"name": "OwnableUnauthorizedAccount",
					"type": "error"
				},
				{
					"inputs": [
						{
							"internalType": "address",
							"name": "token",
							"type": "address"
						}
					],
					"name": "SafeERC20FailedOperation",
					"type": "error"
				},
				{
					"anonymous": false,
					"inputs": [
						{
							"indexed": true,
							"internalType": "address",
							"name": "user",
							"type": "address"
						},
						{
							"indexed": false,
							"internalType": "uint256",
							"name": "stakeIndex",
							"type": "uint256"
						},
						{
							"indexed": false,
							"internalType": "bool",
							"name": "status",
							"type": "bool"
						}
					],
					"name": "AutoFarmingToggled",
					"type": "event"
				},
				{
					"anonymous": false,
					"inputs": [
						{
							"indexed": true,
							"internalType": "address",
							"name": "newTreasury",
							"type": "address"
						}
					],
					"name": "FeeReceiverUpdated",
					"type": "event"
				},
				{
					"anonymous": false,
					"inputs": [
						{
							"indexed": true,
							"internalType": "address",
							"name": "previousOwner",
							"type": "address"
						},
						{
							"indexed": true,
							"internalType": "address",
							"name": "newOwner",
							"type": "address"
						}
					],
					"name": "OwnershipTransferred",
					"type": "event"
				},
				{
					"anonymous": false,
					"inputs": [
						{
							"indexed": false,
							"internalType": "uint256",
							"name": "packageId",
							"type": "uint256"
						},
						{
							"indexed": false,
							"internalType": "uint256",
							"name": "oldAPY",
							"type": "uint256"
						},
						{
							"indexed": false,
							"internalType": "uint256",
							"name": "newAPY",
							"type": "uint256"
						}
					],
					"name": "PackageAPYUpdated",
					"type": "event"
				},
				{
					"anonymous": false,
					"inputs": [
						{
							"indexed": false,
							"internalType": "uint256",
							"name": "packageId",
							"type": "uint256"
						},
						{
							"indexed": false,
							"internalType": "address",
							"name": "stakeToken",
							"type": "address"
						},
						{
							"indexed": false,
							"internalType": "uint256",
							"name": "duration",
							"type": "uint256"
						},
						{
							"indexed": false,
							"internalType": "uint256",
							"name": "apy",
							"type": "uint256"
						},
						{
							"indexed": false,
							"internalType": "uint256",
							"name": "minStake",
							"type": "uint256"
						},
						{
							"indexed": false,
							"internalType": "bool",
							"name": "isActive",
							"type": "bool"
						}
					],
					"name": "PackageAdded",
					"type": "event"
				},
				{
					"anonymous": false,
					"inputs": [
						{
							"indexed": true,
							"internalType": "address",
							"name": "user",
							"type": "address"
						},
						{
							"indexed": false,
							"internalType": "uint256",
							"name": "stakeIndex",
							"type": "uint256"
						},
						{
							"indexed": false,
							"internalType": "uint256",
							"name": "amount",
							"type": "uint256"
						}
					],
					"name": "RewardClaimed",
					"type": "event"
				},
				{
					"anonymous": false,
					"inputs": [
						{
							"indexed": true,
							"internalType": "address",
							"name": "user",
							"type": "address"
						},
						{
							"indexed": false,
							"internalType": "uint256",
							"name": "packageId",
							"type": "uint256"
						},
						{
							"indexed": false,
							"internalType": "uint256",
							"name": "amount",
							"type": "uint256"
						}
					],
					"name": "Staked",
					"type": "event"
				},
				{
					"anonymous": false,
					"inputs": [
						{
							"indexed": true,
							"internalType": "address",
							"name": "user",
							"type": "address"
						},
						{
							"indexed": false,
							"internalType": "uint256",
							"name": "stakeIndex",
							"type": "uint256"
						},
						{
							"indexed": false,
							"internalType": "uint256",
							"name": "amount",
							"type": "uint256"
						},
						{
							"indexed": false,
							"internalType": "uint256",
							"name": "reward",
							"type": "uint256"
						}
					],
					"name": "Unstaked",
					"type": "event"
				},
				{
					"inputs": [
						{
							"internalType": "address",
							"name": "stakeToken",
							"type": "address"
						},
						{
							"internalType": "uint256",
							"name": "duration",
							"type": "uint256"
						},
						{
							"internalType": "uint256",
							"name": "apy",
							"type": "uint256"
						},
						{
							"internalType": "uint256",
							"name": "minStake",
							"type": "uint256"
						}
					],
					"name": "addFarmPackage",
					"outputs": [],
					"stateMutability": "nonpayable",
					"type": "function"
				},
				{
					"inputs": [],
					"name": "autoFarmingFee",
					"outputs": [
						{
							"internalType": "uint256",
							"name": "",
							"type": "uint256"
						}
					],
					"stateMutability": "view",
					"type": "function"
				},
				{
					"inputs": [],
					"name": "autoFarmingPool",
					"outputs": [
						{
							"internalType": "uint256",
							"name": "",
							"type": "uint256"
						}
					],
					"stateMutability": "view",
					"type": "function"
				},
				{
					"inputs": [],
					"name": "cafiToken",
					"outputs": [
						{
							"internalType": "contract IERC20",
							"name": "",
							"type": "address"
						}
					],
					"stateMutability": "view",
					"type": "function"
				},
				{
					"inputs": [
						{
							"internalType": "address",
							"name": "user",
							"type": "address"
						},
						{
							"internalType": "uint256",
							"name": "stakeIndex",
							"type": "uint256"
						}
					],
					"name": "calculateReward",
					"outputs": [
						{
							"internalType": "uint256",
							"name": "",
							"type": "uint256"
						}
					],
					"stateMutability": "view",
					"type": "function"
				},
				{
					"inputs": [
						{
							"internalType": "uint256",
							"name": "stakeIndex",
							"type": "uint256"
						}
					],
					"name": "claimReward",
					"outputs": [],
					"stateMutability": "nonpayable",
					"type": "function"
				},
				{
					"inputs": [
						{
							"internalType": "uint256",
							"name": "",
							"type": "uint256"
						}
					],
					"name": "farmPackages",
					"outputs": [
						{
							"internalType": "address",
							"name": "stakeToken",
							"type": "address"
						},
						{
							"internalType": "uint256",
							"name": "duration",
							"type": "uint256"
						},
						{
							"internalType": "uint256",
							"name": "apy",
							"type": "uint256"
						},
						{
							"internalType": "uint256",
							"name": "minStake",
							"type": "uint256"
						},
						{
							"internalType": "bool",
							"name": "isActive",
							"type": "bool"
						}
					],
					"stateMutability": "view",
					"type": "function"
				},
				{
					"inputs": [],
					"name": "owner",
					"outputs": [
						{
							"internalType": "address",
							"name": "",
							"type": "address"
						}
					],
					"stateMutability": "view",
					"type": "function"
				},
				{
					"inputs": [],
					"name": "renounceOwnership",
					"outputs": [],
					"stateMutability": "nonpayable",
					"type": "function"
				},
				{
					"inputs": [
						{
							"internalType": "uint256",
							"name": "packageId",
							"type": "uint256"
						},
						{
							"internalType": "uint256",
							"name": "newAPY",
							"type": "uint256"
						}
					],
					"name": "setAPY",
					"outputs": [],
					"stateMutability": "nonpayable",
					"type": "function"
				},
				{
					"inputs": [
						{
							"internalType": "uint256",
							"name": "fee",
							"type": "uint256"
						}
					],
					"name": "setAutoFarmingFee",
					"outputs": [],
					"stateMutability": "nonpayable",
					"type": "function"
				},
				{
					"inputs": [
						{
							"internalType": "address",
							"name": "newWallet",
							"type": "address"
						}
					],
					"name": "setTreasuryWallet",
					"outputs": [],
					"stateMutability": "nonpayable",
					"type": "function"
				},
				{
					"inputs": [
						{
							"internalType": "uint256",
							"name": "packageId",
							"type": "uint256"
						},
						{
							"internalType": "uint256",
							"name": "amount",
							"type": "uint256"
						}
					],
					"name": "stake",
					"outputs": [],
					"stateMutability": "nonpayable",
					"type": "function"
				},
				{
					"inputs": [
						{
							"internalType": "uint256",
							"name": "stakeIndex",
							"type": "uint256"
						}
					],
					"name": "toggleAutoFarming",
					"outputs": [],
					"stateMutability": "nonpayable",
					"type": "function"
				},
				{
					"inputs": [
						{
							"internalType": "uint256",
							"name": "packageId",
							"type": "uint256"
						},
						{
							"internalType": "bool",
							"name": "isActive",
							"type": "bool"
						}
					],
					"name": "toggleFarmPackage",
					"outputs": [],
					"stateMutability": "nonpayable",
					"type": "function"
				},
				{
					"inputs": [
						{
							"internalType": "address",
							"name": "newOwner",
							"type": "address"
						}
					],
					"name": "transferOwnership",
					"outputs": [],
					"stateMutability": "nonpayable",
					"type": "function"
				},
				{
					"inputs": [],
					"name": "treasuryWallet",
					"outputs": [
						{
							"internalType": "address",
							"name": "",
							"type": "address"
						}
					],
					"stateMutability": "view",
					"type": "function"
				},
				{
					"inputs": [
						{
							"internalType": "uint256",
							"name": "stakeIndex",
							"type": "uint256"
						}
					],
					"name": "unstake",
					"outputs": [],
					"stateMutability": "nonpayable",
					"type": "function"
				},
				{
					"inputs": [
						{
							"internalType": "address",
							"name": "",
							"type": "address"
						},
						{
							"internalType": "uint256",
							"name": "",
							"type": "uint256"
						}
					],
					"name": "userStakes",
					"outputs": [
						{
							"internalType": "uint256",
							"name": "packageId",
							"type": "uint256"
						},
						{
							"internalType": "uint256",
							"name": "amount",
							"type": "uint256"
						},
						{
							"internalType": "uint256",
							"name": "startTime",
							"type": "uint256"
						},
						{
							"internalType": "uint256",
							"name": "lastClaimTime",
							"type": "uint256"
						},
						{
							"internalType": "bool",
							"name": "isAutoFarming",
							"type": "bool"
						}
					],
					"stateMutability": "view",
					"type": "function"
				},
				{
					"inputs": [],
					"name": "withdrawFees",
					"outputs": [],
					"stateMutability": "nonpayable",
					"type": "function"
				}
			],
			"devdoc": {
				"details": "Contract for farming rewards based on staking packages with adjustable APY.",
				"errors": {
					"OwnableInvalidOwner(address)": [
						{
							"details": "The owner is not a valid owner account. (eg. `address(0)`)"
						}
					],
					"OwnableUnauthorizedAccount(address)": [
						{
							"details": "The caller account is not authorized to perform an operation."
						}
					],
					"SafeERC20FailedOperation(address)": [
						{
							"details": "An operation with an ERC-20 token failed."
						}
					]
				},
				"kind": "dev",
				"methods": {
					"owner()": {
						"details": "Returns the address of the current owner."
					},
					"renounceOwnership()": {
						"details": "Leaves the contract without owner. It will not be possible to call `onlyOwner` functions. Can only be called by the current owner. NOTE: Renouncing ownership will leave the contract without an owner, thereby disabling any functionality that is only available to the owner."
					},
					"transferOwnership(address)": {
						"details": "Transfers ownership of the contract to a new account (`newOwner`). Can only be called by the current owner."
					}
				},
				"title": "CAFIFarming",
				"version": 1
			},
			"evm": {
				"assembly": "    /* \"Farming.sol\":412:7893  contract CAFIFarming is Ownable, ReentrancyGuard {... */\n  mstore(0x40, 0xa0)\n    /* \"Farming.sol\":1354:1356  50 */\n  0x32\n    /* \"Farming.sol\":1322:1356  uint256 public autoFarmingFee = 50 */\n  0x05\n  sstore\n    /* \"Farming.sol\":2024:2405  constructor(... */\n  callvalue\n  dup1\n  iszero\n  tag_1\n  jumpi\n  revert(0x00, 0x00)\ntag_1:\n  pop\n  mload(0x40)\n  sub(codesize, bytecodeSize)\n  dup1\n  bytecodeSize\n  dup4\n  codecopy\n  dup2\n  dup2\n  add\n  0x40\n  mstore\n  dup2\n  add\n  swap1\n  tag_2\n  swap2\n  swap1\n  tag_3\n  jump\t// in\ntag_2:\n    /* \"Farming.sol\":2142:2155  _initialOwner */\n  dup1\n    /* \"@openzeppelin/contracts/access/Ownable.sol\":1297:1298  0 */\n  0x00\n    /* \"@openzeppelin/contracts/access/Ownable.sol\":1273:1299  initialOwner == address(0) */\n  0xffffffffffffffffffffffffffffffffffffffff\n  and\n    /* \"@openzeppelin/contracts/access/Ownable.sol\":1273:1285  initialOwner */\n  dup2\n    /* \"@openzeppelin/contracts/access/Ownable.sol\":1273:1299  initialOwner == address(0) */\n  0xffffffffffffffffffffffffffffffffffffffff\n  and\n  sub\n    /* \"@openzeppelin/contracts/access/Ownable.sol\":1269:1364  if (initialOwner == address(0)) {... */\n  tag_8\n  jumpi\n    /* \"@openzeppelin/contracts/access/Ownable.sol\":1350:1351  0 */\n  0x00\n    /* \"@openzeppelin/contracts/access/Ownable.sol\":1322:1353  OwnableInvalidOwner(address(0)) */\n  mload(0x40)\n  0x1e4fbdf700000000000000000000000000000000000000000000000000000000\n  dup2\n  mstore\n  0x04\n  add\n  tag_9\n  swap2\n  swap1\n  tag_10\n  jump\t// in\ntag_9:\n  mload(0x40)\n  dup1\n  swap2\n  sub\n  swap1\n  revert\n    /* \"@openzeppelin/contracts/access/Ownable.sol\":1269:1364  if (initialOwner == address(0)) {... */\ntag_8:\n    /* \"@openzeppelin/contracts/access/Ownable.sol\":1373:1405  _transferOwnership(initialOwner) */\n  tag_11\n    /* \"@openzeppelin/contracts/access/Ownable.sol\":1392:1404  initialOwner */\n  dup2\n    /* \"@openzeppelin/contracts/access/Ownable.sol\":1373:1391  _transferOwnership */\n  shl(0x20, tag_12)\n    /* \"@openzeppelin/contracts/access/Ownable.sol\":1373:1405  _transferOwnership(initialOwner) */\n  0x20\n  shr\n  jump\t// in\ntag_11:\n    /* \"@openzeppelin/contracts/access/Ownable.sol\":1225:1412  constructor(address initialOwner) {... */\n  pop\n    /* \"@openzeppelin/contracts/security/ReentrancyGuard.sol\":1716:1717  1 */\n  0x01\n    /* \"@openzeppelin/contracts/security/ReentrancyGuard.sol\":1821:1828  _status */\n  dup1\n    /* \"@openzeppelin/contracts/security/ReentrancyGuard.sol\":1821:1843  _status = _NOT_ENTERED */\n  dup2\n  swap1\n  sstore\n  pop\n    /* \"Farming.sol\":2215:2216  0 */\n  0x00\n    /* \"Farming.sol\":2193:2217  _cafiToken != address(0) */\n  0xffffffffffffffffffffffffffffffffffffffff\n  and\n    /* \"Farming.sol\":2193:2203  _cafiToken */\n  dup4\n    /* \"Farming.sol\":2193:2217  _cafiToken != address(0) */\n  0xffffffffffffffffffffffffffffffffffffffff\n  and\n  sub\n    /* \"Farming.sol\":2185:2240  require(_cafiToken != address(0), \"Invalid CAFI token\") */\n  tag_15\n  jumpi\n  mload(0x40)\n  0x08c379a000000000000000000000000000000000000000000000000000000000\n  dup2\n  mstore\n  0x04\n  add\n  tag_16\n  swap1\n  tag_17\n  jump\t// in\ntag_16:\n  mload(0x40)\n  dup1\n  swap2\n  sub\n  swap1\n  revert\ntag_15:\n    /* \"Farming.sol\":2285:2286  0 */\n  0x00\n    /* \"Farming.sol\":2258:2287  _treasuryWallet != address(0) */\n  0xffffffffffffffffffffffffffffffffffffffff\n  and\n    /* \"Farming.sol\":2258:2273  _treasuryWallet */\n  dup3\n    /* \"Farming.sol\":2258:2287  _treasuryWallet != address(0) */\n  0xffffffffffffffffffffffffffffffffffffffff\n  and\n  sub\n    /* \"Farming.sol\":2250:2315  require(_treasuryWallet != address(0), \"Invalid treasury wallet\") */\n  tag_18\n  jumpi\n  mload(0x40)\n  0x08c379a000000000000000000000000000000000000000000000000000000000\n  dup2\n  mstore\n  0x04\n  add\n  tag_19\n  swap1\n  tag_20\n  jump\t// in\ntag_19:\n  mload(0x40)\n  dup1\n  swap2\n  sub\n  swap1\n  revert\ntag_18:\n    /* \"Farming.sol\":2345:2355  _cafiToken */\n  dup3\n    /* \"Farming.sol\":2326:2356  cafiToken = IERC20(_cafiToken) */\n  0xffffffffffffffffffffffffffffffffffffffff\n  and\n  0x80\n  dup2\n  0xffffffffffffffffffffffffffffffffffffffff\n  and\n  dup2\n  mstore\n  pop\n  pop\n    /* \"Farming.sol\":2383:2398  _treasuryWallet */\n  dup2\n    /* \"Farming.sol\":2366:2380  treasuryWallet */\n  0x06\n  0x00\n    /* \"Farming.sol\":2366:2398  treasuryWallet = _treasuryWallet */\n  0x0100\n  exp\n  dup2\n  sload\n  dup2\n  0xffffffffffffffffffffffffffffffffffffffff\n  mul\n  not\n  and\n  swap1\n  dup4\n  0xffffffffffffffffffffffffffffffffffffffff\n  and\n  mul\n  or\n  swap1\n  sstore\n  pop\n    /* \"Farming.sol\":2024:2405  constructor(... */\n  pop\n  pop\n  pop\n    /* \"Farming.sol\":412:7893  contract CAFIFarming is Ownable, ReentrancyGuard {... */\n  jump(tag_21)\n    /* \"@openzeppelin/contracts/access/Ownable.sol\":2912:3099  function _transferOwnership(address newOwner) internal virtual {... */\ntag_12:\n    /* \"@openzeppelin/contracts/access/Ownable.sol\":2985:3001  address oldOwner */\n  0x00\n    /* \"@openzeppelin/contracts/access/Ownable.sol\":3004:3010  _owner */\n  0x00\n  0x00\n  swap1\n  sload\n  swap1\n  0x0100\n  exp\n  swap1\n  div\n  0xffffffffffffffffffffffffffffffffffffffff\n  and\n    /* \"@openzeppelin/contracts/access/Ownable.sol\":2985:3010  address oldOwner = _owner */\n  swap1\n  pop\n    /* \"@openzeppelin/contracts/access/Ownable.sol\":3029:3037  newOwner */\n  dup2\n    /* \"@openzeppelin/contracts/access/Ownable.sol\":3020:3026  _owner */\n  0x00\n  0x00\n    /* \"@openzeppelin/contracts/access/Ownable.sol\":3020:3037  _owner = newOwner */\n  0x0100\n  exp\n  dup2\n  sload\n  dup2\n  0xffffffffffffffffffffffffffffffffffffffff\n  mul\n  not\n  and\n  swap1\n  dup4\n  0xffffffffffffffffffffffffffffffffffffffff\n  and\n  mul\n  or\n  swap1\n  sstore\n  pop\n    /* \"@openzeppelin/contracts/access/Ownable.sol\":3083:3091  newOwner */\n  dup2\n    /* \"@openzeppelin/contracts/access/Ownable.sol\":3052:3092  OwnershipTransferred(oldOwner, newOwner) */\n  0xffffffffffffffffffffffffffffffffffffffff\n  and\n    /* \"@openzeppelin/contracts/access/Ownable.sol\":3073:3081  oldOwner */\n  dup2\n    /* \"@openzeppelin/contracts/access/Ownable.sol\":3052:3092  OwnershipTransferred(oldOwner, newOwner) */\n  0xffffffffffffffffffffffffffffffffffffffff\n  and\n  0x8be0079c531659141344cd1fd0a4f28419497f9722a3daafe3b4186f6b6457e0\n  mload(0x40)\n  mload(0x40)\n  dup1\n  swap2\n  sub\n  swap1\n  log3\n    /* \"@openzeppelin/contracts/access/Ownable.sol\":2975:3099  {... */\n  pop\n    /* \"@openzeppelin/contracts/access/Ownable.sol\":2912:3099  function _transferOwnership(address newOwner) internal virtual {... */\n  pop\n  jump\t// out\n    /* \"#utility.yul\":88:205   */\ntag_24:\n    /* \"#utility.yul\":197:198   */\n  0x00\n    /* \"#utility.yul\":194:195   */\n  0x00\n    /* \"#utility.yul\":187:199   */\n  revert\n    /* \"#utility.yul\":334:460   */\ntag_26:\n    /* \"#utility.yul\":371:378   */\n  0x00\n    /* \"#utility.yul\":411:453   */\n  0xffffffffffffffffffffffffffffffffffffffff\n    /* \"#utility.yul\":404:409   */\n  dup3\n    /* \"#utility.yul\":400:454   */\n  and\n    /* \"#utility.yul\":389:454   */\n  swap1\n  pop\n    /* \"#utility.yul\":334:460   */\n  swap2\n  swap1\n  pop\n  jump\t// out\n    /* \"#utility.yul\":466:562   */\ntag_27:\n    /* \"#utility.yul\":503:510   */\n  0x00\n    /* \"#utility.yul\":532:556   */\n  tag_42\n    /* \"#utility.yul\":550:555   */\n  dup3\n    /* \"#utility.yul\":532:556   */\n  tag_26\n  jump\t// in\ntag_42:\n    /* \"#utility.yul\":521:556   */\n  swap1\n  pop\n    /* \"#utility.yul\":466:562   */\n  swap2\n  swap1\n  pop\n  jump\t// out\n    /* \"#utility.yul\":568:690   */\ntag_28:\n    /* \"#utility.yul\":641:665   */\n  tag_44\n    /* \"#utility.yul\":659:664   */\n  dup2\n    /* \"#utility.yul\":641:665   */\n  tag_27\n  jump\t// in\ntag_44:\n    /* \"#utility.yul\":634:639   */\n  dup2\n    /* \"#utility.yul\":631:666   */\n  eq\n    /* \"#utility.yul\":621:684   */\n  tag_45\n  jumpi\n    /* \"#utility.yul\":680:681   */\n  0x00\n    /* \"#utility.yul\":677:678   */\n  0x00\n    /* \"#utility.yul\":670:682   */\n  revert\n    /* \"#utility.yul\":621:684   */\ntag_45:\n    /* \"#utility.yul\":568:690   */\n  pop\n  jump\t// out\n    /* \"#utility.yul\":696:839   */\ntag_29:\n    /* \"#utility.yul\":753:758   */\n  0x00\n    /* \"#utility.yul\":784:790   */\n  dup2\n    /* \"#utility.yul\":778:791   */\n  mload\n    /* \"#utility.yul\":769:791   */\n  swap1\n  pop\n    /* \"#utility.yul\":800:833   */\n  tag_47\n    /* \"#utility.yul\":827:832   */\n  dup2\n    /* \"#utility.yul\":800:833   */\n  tag_28\n  jump\t// in\ntag_47:\n    /* \"#utility.yul\":696:839   */\n  swap3\n  swap2\n  pop\n  pop\n  jump\t// out\n    /* \"#utility.yul\":845:1508   */\ntag_3:\n    /* \"#utility.yul\":933:939   */\n  0x00\n    /* \"#utility.yul\":941:947   */\n  0x00\n    /* \"#utility.yul\":949:955   */\n  0x00\n    /* \"#utility.yul\":998:1000   */\n  0x60\n    /* \"#utility.yul\":986:995   */\n  dup5\n    /* \"#utility.yul\":977:984   */\n  dup7\n    /* \"#utility.yul\":973:996   */\n  sub\n    /* \"#utility.yul\":969:1001   */\n  slt\n    /* \"#utility.yul\":966:1085   */\n  iszero\n  tag_49\n  jumpi\n    /* \"#utility.yul\":1004:1083   */\n  tag_50\n  tag_24\n  jump\t// in\ntag_50:\n    /* \"#utility.yul\":966:1085   */\ntag_49:\n    /* \"#utility.yul\":1124:1125   */\n  0x00\n    /* \"#utility.yul\":1149:1213   */\n  tag_51\n    /* \"#utility.yul\":1205:1212   */\n  dup7\n    /* \"#utility.yul\":1196:1202   */\n  dup3\n    /* \"#utility.yul\":1185:1194   */\n  dup8\n    /* \"#utility.yul\":1181:1203   */\n  add\n    /* \"#utility.yul\":1149:1213   */\n  tag_29\n  jump\t// in\ntag_51:\n    /* \"#utility.yul\":1139:1213   */\n  swap4\n  pop\n    /* \"#utility.yul\":1095:1223   */\n  pop\n    /* \"#utility.yul\":1262:1264   */\n  0x20\n    /* \"#utility.yul\":1288:1352   */\n  tag_52\n    /* \"#utility.yul\":1344:1351   */\n  dup7\n    /* \"#utility.yul\":1335:1341   */\n  dup3\n    /* \"#utility.yul\":1324:1333   */\n  dup8\n    /* \"#utility.yul\":1320:1342   */\n  add\n    /* \"#utility.yul\":1288:1352   */\n  tag_29\n  jump\t// in\ntag_52:\n    /* \"#utility.yul\":1278:1352   */\n  swap3\n  pop\n    /* \"#utility.yul\":1233:1362   */\n  pop\n    /* \"#utility.yul\":1401:1403   */\n  0x40\n    /* \"#utility.yul\":1427:1491   */\n  tag_53\n    /* \"#utility.yul\":1483:1490   */\n  dup7\n    /* \"#utility.yul\":1474:1480   */\n  dup3\n    /* \"#utility.yul\":1463:1472   */\n  dup8\n    /* \"#utility.yul\":1459:1481   */\n  add\n    /* \"#utility.yul\":1427:1491   */\n  tag_29\n  jump\t// in\ntag_53:\n    /* \"#utility.yul\":1417:1491   */\n  swap2\n  pop\n    /* \"#utility.yul\":1372:1501   */\n  pop\n    /* \"#utility.yul\":845:1508   */\n  swap3\n  pop\n  swap3\n  pop\n  swap3\n  jump\t// out\n    /* \"#utility.yul\":1514:1632   */\ntag_30:\n    /* \"#utility.yul\":1601:1625   */\n  tag_55\n    /* \"#utility.yul\":1619:1624   */\n  dup2\n    /* \"#utility.yul\":1601:1625   */\n  tag_27\n  jump\t// in\ntag_55:\n    /* \"#utility.yul\":1596:1599   */\n  dup3\n    /* \"#utility.yul\":1589:1626   */\n  mstore\n    /* \"#utility.yul\":1514:1632   */\n  pop\n  pop\n  jump\t// out\n    /* \"#utility.yul\":1638:1860   */\ntag_10:\n    /* \"#utility.yul\":1731:1735   */\n  0x00\n    /* \"#utility.yul\":1769:1771   */\n  0x20\n    /* \"#utility.yul\":1758:1767   */\n  dup3\n    /* \"#utility.yul\":1754:1772   */\n  add\n    /* \"#utility.yul\":1746:1772   */\n  swap1\n  pop\n    /* \"#utility.yul\":1782:1853   */\n  tag_57\n    /* \"#utility.yul\":1850:1851   */\n  0x00\n    /* \"#utility.yul\":1839:1848   */\n  dup4\n    /* \"#utility.yul\":1835:1852   */\n  add\n    /* \"#utility.yul\":1826:1832   */\n  dup5\n    /* \"#utility.yul\":1782:1853   */\n  tag_30\n  jump\t// in\ntag_57:\n    /* \"#utility.yul\":1638:1860   */\n  swap3\n  swap2\n  pop\n  pop\n  jump\t// out\n    /* \"#utility.yul\":1866:2035   */\ntag_31:\n    /* \"#utility.yul\":1950:1961   */\n  0x00\n    /* \"#utility.yul\":1984:1990   */\n  dup3\n    /* \"#utility.yul\":1979:1982   */\n  dup3\n    /* \"#utility.yul\":1972:1991   */\n  mstore\n    /* \"#utility.yul\":2024:2028   */\n  0x20\n    /* \"#utility.yul\":2019:2022   */\n  dup3\n    /* \"#utility.yul\":2015:2029   */\n  add\n    /* \"#utility.yul\":2000:2029   */\n  swap1\n  pop\n    /* \"#utility.yul\":1866:2035   */\n  swap3\n  swap2\n  pop\n  pop\n  jump\t// out\n    /* \"#utility.yul\":2041:2209   */\ntag_32:\n    /* \"#utility.yul\":2181:2201   */\n  0x496e76616c6964204341464920746f6b656e0000000000000000000000000000\n    /* \"#utility.yul\":2177:2178   */\n  0x00\n    /* \"#utility.yul\":2169:2175   */\n  dup3\n    /* \"#utility.yul\":2165:2179   */\n  add\n    /* \"#utility.yul\":2158:2202   */\n  mstore\n    /* \"#utility.yul\":2041:2209   */\n  pop\n  jump\t// out\n    /* \"#utility.yul\":2215:2581   */\ntag_33:\n    /* \"#utility.yul\":2357:2360   */\n  0x00\n    /* \"#utility.yul\":2378:2445   */\n  tag_61\n    /* \"#utility.yul\":2442:2444   */\n  0x12\n    /* \"#utility.yul\":2437:2440   */\n  dup4\n    /* \"#utility.yul\":2378:2445   */\n  tag_31\n  jump\t// in\ntag_61:\n    /* \"#utility.yul\":2371:2445   */\n  swap2\n  pop\n    /* \"#utility.yul\":2454:2547   */\n  tag_62\n    /* \"#utility.yul\":2543:2546   */\n  dup3\n    /* \"#utility.yul\":2454:2547   */\n  tag_32\n  jump\t// in\ntag_62:\n    /* \"#utility.yul\":2572:2574   */\n  0x20\n    /* \"#utility.yul\":2567:2570   */\n  dup3\n    /* \"#utility.yul\":2563:2575   */\n  add\n    /* \"#utility.yul\":2556:2575   */\n  swap1\n  pop\n    /* \"#utility.yul\":2215:2581   */\n  swap2\n  swap1\n  pop\n  jump\t// out\n    /* \"#utility.yul\":2587:3006   */\ntag_17:\n    /* \"#utility.yul\":2753:2757   */\n  0x00\n    /* \"#utility.yul\":2791:2793   */\n  0x20\n    /* \"#utility.yul\":2780:2789   */\n  dup3\n    /* \"#utility.yul\":2776:2794   */\n  add\n    /* \"#utility.yul\":2768:2794   */\n  swap1\n  pop\n    /* \"#utility.yul\":2840:2849   */\n  dup2\n    /* \"#utility.yul\":2834:2838   */\n  dup2\n    /* \"#utility.yul\":2830:2850   */\n  sub\n    /* \"#utility.yul\":2826:2827   */\n  0x00\n    /* \"#utility.yul\":2815:2824   */\n  dup4\n    /* \"#utility.yul\":2811:2828   */\n  add\n    /* \"#utility.yul\":2804:2851   */\n  mstore\n    /* \"#utility.yul\":2868:2999   */\n  tag_64\n    /* \"#utility.yul\":2994:2998   */\n  dup2\n    /* \"#utility.yul\":2868:2999   */\n  tag_33\n  jump\t// in\ntag_64:\n    /* \"#utility.yul\":2860:2999   */\n  swap1\n  pop\n    /* \"#utility.yul\":2587:3006   */\n  swap2\n  swap1\n  pop\n  jump\t// out\n    /* \"#utility.yul\":3012:3185   */\ntag_34:\n    /* \"#utility.yul\":3152:3177   */\n  0x496e76616c69642074726561737572792077616c6c6574000000000000000000\n    /* \"#utility.yul\":3148:3149   */\n  0x00\n    /* \"#utility.yul\":3140:3146   */\n  dup3\n    /* \"#utility.yul\":3136:3150   */\n  add\n    /* \"#utility.yul\":3129:3178   */\n  mstore\n    /* \"#utility.yul\":3012:3185   */\n  pop\n  jump\t// out\n    /* \"#utility.yul\":3191:3557   */\ntag_35:\n    /* \"#utility.yul\":3333:3336   */\n  0x00\n    /* \"#utility.yul\":3354:3421   */\n  tag_67\n    /* \"#utility.yul\":3418:3420   */\n  0x17\n    /* \"#utility.yul\":3413:3416   */\n  dup4\n    /* \"#utility.yul\":3354:3421   */\n  tag_31\n  jump\t// in\ntag_67:\n    /* \"#utility.yul\":3347:3421   */\n  swap2\n  pop\n    /* \"#utility.yul\":3430:3523   */\n  tag_68\n    /* \"#utility.yul\":3519:3522   */\n  dup3\n    /* \"#utility.yul\":3430:3523   */\n  tag_34\n  jump\t// in\ntag_68:\n    /* \"#utility.yul\":3548:3550   */\n  0x20\n    /* \"#utility.yul\":3543:3546   */\n  dup3\n    /* \"#utility.yul\":3539:3551   */\n  add\n    /* \"#utility.yul\":3532:3551   */\n  swap1\n  pop\n    /* \"#utility.yul\":3191:3557   */\n  swap2\n  swap1\n  pop\n  jump\t// out\n    /* \"#utility.yul\":3563:3982   */\ntag_20:\n    /* \"#utility.yul\":3729:3733   */\n  0x00\n    /* \"#utility.yul\":3767:3769   */\n  0x20\n    /* \"#utility.yul\":3756:3765   */\n  dup3\n    /* \"#utility.yul\":3752:3770   */\n  add\n    /* \"#utility.yul\":3744:3770   */\n  swap1\n  pop\n    /* \"#utility.yul\":3816:3825   */\n  dup2\n    /* \"#utility.yul\":3810:3814   */\n  dup2\n    /* \"#utility.yul\":3806:3826   */\n  sub\n    /* \"#utility.yul\":3802:3803   */\n  0x00\n    /* \"#utility.yul\":3791:3800   */\n  dup4\n    /* \"#utility.yul\":3787:3804   */\n  add\n    /* \"#utility.yul\":3780:3827   */\n  mstore\n    /* \"#utility.yul\":3844:3975   */\n  tag_70\n    /* \"#utility.yul\":3970:3974   */\n  dup2\n    /* \"#utility.yul\":3844:3975   */\n  tag_35\n  jump\t// in\ntag_70:\n    /* \"#utility.yul\":3836:3975   */\n  swap1\n  pop\n    /* \"#utility.yul\":3563:3982   */\n  swap2\n  swap1\n  pop\n  jump\t// out\n    /* \"Farming.sol\":412:7893  contract CAFIFarming is Ownable, ReentrancyGuard {... */\ntag_21:\n  mload(0x80)\n  codecopy(0x00, dataOffset(sub_0), dataSize(sub_0))\n  0x00\n  assignImmutable(\"0x915df03ad3d1adec3bd513726627a8fc7bf9ec81edb3bb322f7db8a8bc5664b4\")\n  return(0x00, dataSize(sub_0))\nstop\n\nsub_0: assembly {\n        /* \"Farming.sol\":412:7893  contract CAFIFarming is Ownable, ReentrancyGuard {... */\n      mstore(0x40, 0x80)\n      callvalue\n      dup1\n      iszero\n      tag_1\n      jumpi\n      revert(0x00, 0x00)\n    tag_1:\n      pop\n      jumpi(tag_2, lt(calldatasize, 0x04))\n      shr(0xe0, calldataload(0x00))\n      dup1\n      0x7b0472f0\n      gt\n      tag_23\n      jumpi\n      dup1\n      0xb5d5b5fa\n      gt\n      tag_24\n      jumpi\n      dup1\n      0xb5d5b5fa\n      eq\n      tag_18\n      jumpi\n      dup1\n      0xcb8f63f6\n      eq\n      tag_19\n      jumpi\n      dup1\n      0xd96acc72\n      eq\n      tag_20\n      jumpi\n      dup1\n      0xeb16975d\n      eq\n      tag_21\n      jumpi\n      dup1\n      0xf2fde38b\n      eq\n      tag_22\n      jumpi\n      jump(tag_2)\n    tag_24:\n      dup1\n      0x7b0472f0\n      eq\n      tag_13\n      jumpi\n      dup1\n      0x8da5cb5b\n      eq\n      tag_14\n      jumpi\n      dup1\n      0xa6fdc26c\n      eq\n      tag_15\n      jumpi\n      dup1\n      0xa8602fea\n      eq\n      tag_16\n      jumpi\n      dup1\n      0xae169a50\n      eq\n      tag_17\n      jumpi\n      jump(tag_2)\n    tag_23:\n      dup1\n      0x4626402b\n      gt\n      tag_25\n      jumpi\n      dup1\n      0x4626402b\n      eq\n      tag_8\n      jumpi\n      dup1\n      0x476343ee\n      eq\n      tag_9\n      jumpi\n      dup1\n      0x58a0bde3\n      eq\n      tag_10\n      jumpi\n      dup1\n      0x5acd2e4c\n      eq\n      tag_11\n      jumpi\n      dup1\n      0x715018a6\n      eq\n      tag_12\n      jumpi\n      jump(tag_2)\n    tag_25:\n      dup1\n      0x0a34cc12\n      eq\n      tag_3\n      jumpi\n      dup1\n      0x181d06a9\n      eq\n      tag_4\n      jumpi\n      dup1\n      0x1852e8d9\n      eq\n      tag_5\n      jumpi\n      dup1\n      0x2e17de78\n      eq\n      tag_6\n      jumpi\n      dup1\n      0x407bb09d\n      eq\n      tag_7\n      jumpi\n    tag_2:\n      revert(0x00, 0x00)\n        /* \"Farming.sol\":6467:6679  function toggleFarmPackage(uint256 packageId, bool isActive) external onlyOwner {... */\n    tag_3:\n      tag_26\n      0x04\n      dup1\n      calldatasize\n      sub\n      dup2\n      add\n      swap1\n      tag_27\n      swap2\n      swap1\n      tag_28\n      jump\t// in\n    tag_27:\n      tag_29\n      jump\t// in\n    tag_26:\n      stop\n        /* \"Farming.sol\":7156:7300  function setAutoFarmingFee(uint256 fee) external onlyOwner {... */\n    tag_4:\n      tag_30\n      0x04\n      dup1\n      calldatasize\n      sub\n      dup2\n      add\n      swap1\n      tag_31\n      swap2\n      swap1\n      tag_32\n      jump\t// in\n    tag_31:\n      tag_33\n      jump\t// in\n    tag_30:\n      stop\n        /* \"Farming.sol\":5395:5878  function calculateReward(address user, uint256 stakeIndex) public view returns (uint256) {... */\n    tag_5:\n      tag_34\n      0x04\n      dup1\n      calldatasize\n      sub\n      dup2\n      add\n      swap1\n      tag_35\n      swap2\n      swap1\n      tag_36\n      jump\t// in\n    tag_35:\n      tag_37\n      jump\t// in\n    tag_34:\n      mload(0x40)\n      tag_38\n      swap2\n      swap1\n      tag_39\n      jump\t// in\n    tag_38:\n      mload(0x40)\n      dup1\n      swap2\n      sub\n      swap1\n      return\n        /* \"Farming.sol\":4066:4923  function unstake(uint256 stakeIndex) external nonReentrant onlyEOA {... */\n    tag_6:\n      tag_40\n      0x04\n      dup1\n      calldatasize\n      sub\n      dup2\n      add\n      swap1\n      tag_41\n      swap2\n      swap1\n      tag_32\n      jump\t// in\n    tag_41:\n      tag_42\n      jump\t// in\n    tag_40:\n      stop\n        /* \"Farming.sol\":1138:1171  FarmPackage[] public farmPackages */\n    tag_7:\n      tag_43\n      0x04\n      dup1\n      calldatasize\n      sub\n      dup2\n      add\n      swap1\n      tag_44\n      swap2\n      swap1\n      tag_32\n      jump\t// in\n    tag_44:\n      tag_45\n      jump\t// in\n    tag_43:\n      mload(0x40)\n      tag_46\n      swap6\n      swap5\n      swap4\n      swap3\n      swap2\n      swap1\n      tag_47\n      jump\t// in\n    tag_46:\n      mload(0x40)\n      dup1\n      swap2\n      sub\n      swap1\n      return\n        /* \"Farming.sol\":1370:1399  address public treasuryWallet */\n    tag_8:\n      tag_48\n      tag_49\n      jump\t// in\n    tag_48:\n      mload(0x40)\n      tag_50\n      swap2\n      swap1\n      tag_51\n      jump\t// in\n    tag_50:\n      mload(0x40)\n      dup1\n      swap2\n      sub\n      swap1\n      return\n        /* \"Farming.sol\":7662:7891  function withdrawFees() external onlyOwner {... */\n    tag_9:\n      tag_52\n      tag_53\n      jump\t// in\n    tag_52:\n      stop\n        /* \"Farming.sol\":1077:1110  IERC20 public immutable cafiToken */\n    tag_10:\n      tag_54\n      tag_55\n      jump\t// in\n    tag_54:\n      mload(0x40)\n      tag_56\n      swap2\n      swap1\n      tag_57\n      jump\t// in\n    tag_56:\n      mload(0x40)\n      dup1\n      swap2\n      sub\n      swap1\n      return\n        /* \"Farming.sol\":6752:7092  function setAPY(uint256 packageId, uint256 newAPY) external onlyOwner {... */\n    tag_11:\n      tag_58\n      0x04\n      dup1\n      calldatasize\n      sub\n      dup2\n      add\n      swap1\n      tag_59\n      swap2\n      swap1\n      tag_60\n      jump\t// in\n    tag_59:\n      tag_61\n      jump\t// in\n    tag_58:\n      stop\n        /* \"@openzeppelin/contracts/access/Ownable.sol\":2293:2394  function renounceOwnership() public virtual onlyOwner {... */\n    tag_12:\n      tag_62\n      tag_63\n      jump\t// in\n    tag_62:\n      stop\n        /* \"Farming.sol\":2686:3338  function stake(uint256 packageId, uint256 amount) external nonReentrant onlyEOA {... */\n    tag_13:\n      tag_64\n      0x04\n      dup1\n      calldatasize\n      sub\n      dup2\n      add\n      swap1\n      tag_65\n      swap2\n      swap1\n      tag_60\n      jump\t// in\n    tag_65:\n      tag_66\n      jump\t// in\n    tag_64:\n      stop\n        /* \"@openzeppelin/contracts/access/Ownable.sol\":1638:1723  function owner() public view virtual returns (address) {... */\n    tag_14:\n      tag_67\n      tag_68\n      jump\t// in\n    tag_67:\n      mload(0x40)\n      tag_69\n      swap2\n      swap1\n      tag_51\n      jump\t// in\n    tag_69:\n      mload(0x40)\n      dup1\n      swap2\n      sub\n      swap1\n      return\n        /* \"Farming.sol\":4985:5344  function toggleAutoFarming(uint256 stakeIndex) external nonReentrant onlyEOA {... */\n    tag_15:\n      tag_70\n      0x04\n      dup1\n      calldatasize\n      sub\n      dup2\n      add\n      swap1\n      tag_71\n      swap2\n      swap1\n      tag_32\n      jump\t// in\n    tag_71:\n      tag_72\n      jump\t// in\n    tag_70:\n      stop\n        /* \"Farming.sol\":7364:7586  function setTreasuryWallet(address newWallet) external onlyOwner {... */\n    tag_16:\n      tag_73\n      0x04\n      dup1\n      calldatasize\n      sub\n      dup2\n      add\n      swap1\n      tag_74\n      swap2\n      swap1\n      tag_75\n      jump\t// in\n    tag_74:\n      tag_76\n      jump\t// in\n    tag_73:\n      stop\n        /* \"Farming.sol\":3401:4005  function claimReward(uint256 stakeIndex) external nonReentrant onlyEOA {... */\n    tag_17:\n      tag_77\n      0x04\n      dup1\n      calldatasize\n      sub\n      dup2\n      add\n      swap1\n      tag_78\n      swap2\n      swap1\n      tag_32\n      jump\t// in\n    tag_78:\n      tag_79\n      jump\t// in\n    tag_77:\n      stop\n        /* \"Farming.sol\":1205:1254  mapping(address => UserStake[]) public userStakes */\n    tag_18:\n      tag_80\n      0x04\n      dup1\n      calldatasize\n      sub\n      dup2\n      add\n      swap1\n      tag_81\n      swap2\n      swap1\n      tag_36\n      jump\t// in\n    tag_81:\n      tag_82\n      jump\t// in\n    tag_80:\n      mload(0x40)\n      tag_83\n      swap6\n      swap5\n      swap4\n      swap3\n      swap2\n      swap1\n      tag_84\n      jump\t// in\n    tag_83:\n      mload(0x40)\n      dup1\n      swap2\n      sub\n      swap1\n      return\n        /* \"Farming.sol\":1286:1316  uint256 public autoFarmingPool */\n    tag_19:\n      tag_85\n      tag_86\n      jump\t// in\n    tag_85:\n      mload(0x40)\n      tag_87\n      swap2\n      swap1\n      tag_39\n      jump\t// in\n    tag_87:\n      mload(0x40)\n      dup1\n      swap2\n      sub\n      swap1\n      return\n        /* \"Farming.sol\":1322:1356  uint256 public autoFarmingFee = 50 */\n    tag_20:\n      tag_88\n      tag_89\n      jump\t// in\n    tag_88:\n      mload(0x40)\n      tag_90\n      swap2\n      swap1\n      tag_39\n      jump\t// in\n    tag_90:\n      mload(0x40)\n      dup1\n      swap2\n      sub\n      swap1\n      return\n        /* \"Farming.sol\":5944:6398  function addFarmPackage(... */\n    tag_21:\n      tag_91\n      0x04\n      dup1\n      calldatasize\n      sub\n      dup2\n      add\n      swap1\n      tag_92\n      swap2\n      swap1\n      tag_93\n      jump\t// in\n    tag_92:\n      tag_94\n      jump\t// in\n    tag_91:\n      stop\n        /* \"@openzeppelin/contracts/access/Ownable.sol\":2543:2758  function transferOwnership(address newOwner) public virtual onlyOwner {... */\n    tag_22:\n      tag_95\n      0x04\n      dup1\n      calldatasize\n      sub\n      dup2\n      add\n      swap1\n      tag_96\n      swap2\n      swap1\n      tag_75\n      jump\t// in\n    tag_96:\n      tag_97\n      jump\t// in\n    tag_95:\n      stop\n        /* \"Farming.sol\":6467:6679  function toggleFarmPackage(uint256 packageId, bool isActive) external onlyOwner {... */\n    tag_29:\n        /* \"@openzeppelin/contracts/access/Ownable.sol\":1531:1544  _checkOwner() */\n      tag_99\n        /* \"@openzeppelin/contracts/access/Ownable.sol\":1531:1542  _checkOwner */\n      tag_100\n        /* \"@openzeppelin/contracts/access/Ownable.sol\":1531:1544  _checkOwner() */\n      jump\t// in\n    tag_99:\n        /* \"Farming.sol\":6577:6589  farmPackages */\n      0x02\n        /* \"Farming.sol\":6577:6596  farmPackages.length */\n      dup1\n      sload\n      swap1\n      pop\n        /* \"Farming.sol\":6565:6574  packageId */\n      dup3\n        /* \"Farming.sol\":6565:6596  packageId < farmPackages.length */\n      lt\n        /* \"Farming.sol\":6557:6619  require(packageId < farmPackages.length, \"Invalid package ID\") */\n      tag_102\n      jumpi\n      mload(0x40)\n      0x08c379a000000000000000000000000000000000000000000000000000000000\n      dup2\n      mstore\n      0x04\n      add\n      tag_103\n      swap1\n      tag_104\n      jump\t// in\n    tag_103:\n      mload(0x40)\n      dup1\n      swap2\n      sub\n      swap1\n      revert\n    tag_102:\n        /* \"Farming.sol\":6664:6672  isActive */\n      dup1\n        /* \"Farming.sol\":6629:6641  farmPackages */\n      0x02\n        /* \"Farming.sol\":6642:6651  packageId */\n      dup4\n        /* \"Farming.sol\":6629:6652  farmPackages[packageId] */\n      dup2\n      sload\n      dup2\n      lt\n      tag_105\n      jumpi\n      tag_106\n      tag_107\n      jump\t// in\n    tag_106:\n    tag_105:\n      swap1\n      0x00\n      mstore\n      keccak256(0x00, 0x20)\n      swap1\n      0x05\n      mul\n      add\n        /* \"Farming.sol\":6629:6661  farmPackages[packageId].isActive */\n      0x04\n      add\n      0x00\n        /* \"Farming.sol\":6629:6672  farmPackages[packageId].isActive = isActive */\n      0x0100\n      exp\n      dup2\n      sload\n      dup2\n      0xff\n      mul\n      not\n      and\n      swap1\n      dup4\n      iszero\n      iszero\n      mul\n      or\n      swap1\n      sstore\n      pop\n        /* \"Farming.sol\":6467:6679  function toggleFarmPackage(uint256 packageId, bool isActive) external onlyOwner {... */\n      pop\n      pop\n      jump\t// out\n        /* \"Farming.sol\":7156:7300  function setAutoFarmingFee(uint256 fee) external onlyOwner {... */\n    tag_33:\n        /* \"@openzeppelin/contracts/access/Ownable.sol\":1531:1544  _checkOwner() */\n      tag_110\n        /* \"@openzeppelin/contracts/access/Ownable.sol\":1531:1542  _checkOwner */\n      tag_100\n        /* \"@openzeppelin/contracts/access/Ownable.sol\":1531:1544  _checkOwner() */\n      jump\t// in\n    tag_110:\n        /* \"Farming.sol\":7240:7244  1000 */\n      0x03e8\n        /* \"Farming.sol\":7233:7236  fee */\n      dup2\n        /* \"Farming.sol\":7233:7244  fee <= 1000 */\n      gt\n      iszero\n        /* \"Farming.sol\":7225:7263  require(fee <= 1000, \"Max fee is 10%\") */\n      tag_112\n      jumpi\n      mload(0x40)\n      0x08c379a000000000000000000000000000000000000000000000000000000000\n      dup2\n      mstore\n      0x04\n      add\n      tag_113\n      swap1\n      tag_114\n      jump\t// in\n    tag_113:\n      mload(0x40)\n      dup1\n      swap2\n      sub\n      swap1\n      revert\n    tag_112:\n        /* \"Farming.sol\":7290:7293  fee */\n      dup1\n        /* \"Farming.sol\":7273:7287  autoFarmingFee */\n      0x05\n        /* \"Farming.sol\":7273:7293  autoFarmingFee = fee */\n      dup2\n      swap1\n      sstore\n      pop\n        /* \"Farming.sol\":7156:7300  function setAutoFarmingFee(uint256 fee) external onlyOwner {... */\n      pop\n      jump\t// out\n        /* \"Farming.sol\":5395:5878  function calculateReward(address user, uint256 stakeIndex) public view returns (uint256) {... */\n    tag_37:\n        /* \"Farming.sol\":5475:5482  uint256 */\n      0x00\n        /* \"Farming.sol\":5494:5520  UserStake memory userStake */\n      0x00\n        /* \"Farming.sol\":5523:5533  userStakes */\n      0x03\n        /* \"Farming.sol\":5523:5539  userStakes[user] */\n      0x00\n        /* \"Farming.sol\":5534:5538  user */\n      dup6\n        /* \"Farming.sol\":5523:5539  userStakes[user] */\n      0xffffffffffffffffffffffffffffffffffffffff\n      and\n      0xffffffffffffffffffffffffffffffffffffffff\n      and\n      dup2\n      mstore\n      0x20\n      add\n      swap1\n      dup2\n      mstore\n      0x20\n      add\n      0x00\n      keccak256\n        /* \"Farming.sol\":5540:5550  stakeIndex */\n      dup4\n        /* \"Farming.sol\":5523:5551  userStakes[user][stakeIndex] */\n      dup2\n      sload\n      dup2\n      lt\n      tag_116\n      jumpi\n      tag_117\n      tag_107\n      jump\t// in\n    tag_117:\n    tag_116:\n      swap1\n      0x00\n      mstore\n      keccak256(0x00, 0x20)\n      swap1\n      0x05\n      mul\n      add\n        /* \"Farming.sol\":5494:5551  UserStake memory userStake = userStakes[user][stakeIndex] */\n      mload(0x40)\n      dup1\n      0xa0\n      add\n      0x40\n      mstore\n      swap1\n      dup2\n      0x00\n      dup3\n      add\n      sload\n      dup2\n      mstore\n      0x20\n      add\n      0x01\n      dup3\n      add\n      sload\n      dup2\n      mstore\n      0x20\n      add\n      0x02\n      dup3\n      add\n      sload\n      dup2\n      mstore\n      0x20\n      add\n      0x03\n      dup3\n      add\n      sload\n      dup2\n      mstore\n      0x20\n      add\n      0x04\n      dup3\n      add\n      0x00\n      swap1\n      sload\n      swap1\n      0x0100\n      exp\n      swap1\n      div\n      0xff\n      and\n      iszero\n      iszero\n      iszero\n      iszero\n      dup2\n      mstore\n      pop\n      pop\n      swap1\n      pop\n        /* \"Farming.sol\":5585:5586  0 */\n      0x00\n        /* \"Farming.sol\":5565:5574  userStake */\n      dup2\n        /* \"Farming.sol\":5565:5581  userStake.amount */\n      0x20\n      add\n      mload\n        /* \"Farming.sol\":5565:5586  userStake.amount == 0 */\n      sub\n        /* \"Farming.sol\":5561:5596  if (userStake.amount == 0) return 0 */\n      tag_119\n      jumpi\n        /* \"Farming.sol\":5595:5596  0 */\n      0x00\n        /* \"Farming.sol\":5588:5596  return 0 */\n      swap2\n      pop\n      pop\n      jump(tag_115)\n        /* \"Farming.sol\":5561:5596  if (userStake.amount == 0) return 0 */\n    tag_119:\n        /* \"Farming.sol\":5607:5633  FarmPackage memory package */\n      0x00\n        /* \"Farming.sol\":5636:5648  farmPackages */\n      0x02\n        /* \"Farming.sol\":5649:5658  userStake */\n      dup3\n        /* \"Farming.sol\":5649:5668  userStake.packageId */\n      0x00\n      add\n      mload\n        /* \"Farming.sol\":5636:5669  farmPackages[userStake.packageId] */\n      dup2\n      sload\n      dup2\n      lt\n      tag_120\n      jumpi\n      tag_121\n      tag_107\n      jump\t// in\n    tag_121:\n    tag_120:\n      swap1\n      0x00\n      mstore\n      keccak256(0x00, 0x20)\n      swap1\n      0x05\n      mul\n      add\n        /* \"Farming.sol\":5607:5669  FarmPackage memory package = farmPackages[userStake.packageId] */\n      mload(0x40)\n      dup1\n      0xa0\n      add\n      0x40\n      mstore\n      swap1\n      dup2\n      0x00\n      dup3\n      add\n      0x00\n      swap1\n      sload\n      swap1\n      0x0100\n      exp\n      swap1\n      div\n      0xffffffffffffffffffffffffffffffffffffffff\n      and\n      0xffffffffffffffffffffffffffffffffffffffff\n      and\n      0xffffffffffffffffffffffffffffffffffffffff\n      and\n      dup2\n      mstore\n      0x20\n      add\n      0x01\n      dup3\n      add\n      sload\n      dup2\n      mstore\n      0x20\n      add\n      0x02\n      dup3\n      add\n      sload\n      dup2\n      mstore\n      0x20\n      add\n      0x03\n      dup3\n      add\n      sload\n      dup2\n      mstore\n      0x20\n      add\n      0x04\n      dup3\n      add\n      0x00\n      swap1\n      sload\n      swap1\n      0x0100\n      exp\n      swap1\n      div\n      0xff\n      and\n      iszero\n      iszero\n      iszero\n      iszero\n      dup2\n      mstore\n      pop\n      pop\n      swap1\n      pop\n        /* \"Farming.sol\":5679:5697  uint256 timeStaked */\n      0x00\n        /* \"Farming.sol\":5718:5727  userStake */\n      dup3\n        /* \"Farming.sol\":5718:5741  userStake.lastClaimTime */\n      0x60\n      add\n      mload\n        /* \"Farming.sol\":5700:5715  block.timestamp */\n      timestamp\n        /* \"Farming.sol\":5700:5741  block.timestamp - userStake.lastClaimTime */\n      tag_123\n      swap2\n      swap1\n      tag_124\n      jump\t// in\n    tag_123:\n        /* \"Farming.sol\":5679:5741  uint256 timeStaked = block.timestamp - userStake.lastClaimTime */\n      swap1\n      pop\n        /* \"Farming.sol\":5751:5772  uint256 rewardPerYear */\n      0x00\n        /* \"Farming.sol\":5810:5815  10000 */\n      0x2710\n        /* \"Farming.sol\":5795:5802  package */\n      dup4\n        /* \"Farming.sol\":5795:5806  package.apy */\n      0x40\n      add\n      mload\n        /* \"Farming.sol\":5776:5785  userStake */\n      dup6\n        /* \"Farming.sol\":5776:5792  userStake.amount */\n      0x20\n      add\n      mload\n        /* \"Farming.sol\":5776:5806  userStake.amount * package.apy */\n      tag_125\n      swap2\n      swap1\n      tag_126\n      jump\t// in\n    tag_125:\n        /* \"Farming.sol\":5775:5815  (userStake.amount * package.apy) / 10000 */\n      tag_127\n      swap2\n      swap1\n      tag_128\n      jump\t// in\n    tag_127:\n        /* \"Farming.sol\":5751:5815  uint256 rewardPerYear = (userStake.amount * package.apy) / 10000 */\n      swap1\n      pop\n        /* \"Farming.sol\":5863:5871  365 days */\n      0x01e13380\n        /* \"Farming.sol\":5849:5859  timeStaked */\n      dup3\n        /* \"Farming.sol\":5833:5846  rewardPerYear */\n      dup3\n        /* \"Farming.sol\":5833:5859  rewardPerYear * timeStaked */\n      tag_129\n      swap2\n      swap1\n      tag_126\n      jump\t// in\n    tag_129:\n        /* \"Farming.sol\":5832:5871  (rewardPerYear * timeStaked) / 365 days */\n      tag_130\n      swap2\n      swap1\n      tag_128\n      jump\t// in\n    tag_130:\n        /* \"Farming.sol\":5825:5871  return (rewardPerYear * timeStaked) / 365 days */\n      swap5\n      pop\n      pop\n      pop\n      pop\n      pop\n        /* \"Farming.sol\":5395:5878  function calculateReward(address user, uint256 stakeIndex) public view returns (uint256) {... */\n    tag_115:\n      swap3\n      swap2\n      pop\n      pop\n      jump\t// out\n        /* \"Farming.sol\":4066:4923  function unstake(uint256 stakeIndex) external nonReentrant onlyEOA {... */\n    tag_42:\n        /* \"@openzeppelin/contracts/security/ReentrancyGuard.sol\":2261:2282  _nonReentrantBefore() */\n      tag_132\n        /* \"@openzeppelin/contracts/security/ReentrancyGuard.sol\":2261:2280  _nonReentrantBefore */\n      tag_133\n        /* \"@openzeppelin/contracts/security/ReentrancyGuard.sol\":2261:2282  _nonReentrantBefore() */\n      jump\t// in\n    tag_132:\n        /* \"Farming.sol\":2553:2563  msg.sender */\n      caller\n        /* \"Farming.sol\":2540:2563  tx.origin == msg.sender */\n      0xffffffffffffffffffffffffffffffffffffffff\n      and\n        /* \"Farming.sol\":2540:2549  tx.origin */\n      origin\n        /* \"Farming.sol\":2540:2563  tx.origin == msg.sender */\n      0xffffffffffffffffffffffffffffffffffffffff\n      and\n      eq\n        /* \"Farming.sol\":2532:2585  require(tx.origin == msg.sender, \"Only EOA can call\") */\n      tag_135\n      jumpi\n      mload(0x40)\n      0x08c379a000000000000000000000000000000000000000000000000000000000\n      dup2\n      mstore\n      0x04\n      add\n      tag_136\n      swap1\n      tag_137\n      jump\t// in\n    tag_136:\n      mload(0x40)\n      dup1\n      swap2\n      sub\n      swap1\n      revert\n    tag_135:\n        /* \"Farming.sol\":4143:4173  UserStake storage currentStake */\n      0x00\n        /* \"Farming.sol\":4176:4186  userStakes */\n      0x03\n        /* \"Farming.sol\":4176:4198  userStakes[msg.sender] */\n      0x00\n        /* \"Farming.sol\":4187:4197  msg.sender */\n      caller\n        /* \"Farming.sol\":4176:4198  userStakes[msg.sender] */\n      0xffffffffffffffffffffffffffffffffffffffff\n      and\n      0xffffffffffffffffffffffffffffffffffffffff\n      and\n      dup2\n      mstore\n      0x20\n      add\n      swap1\n      dup2\n      mstore\n      0x20\n      add\n      0x00\n      keccak256\n        /* \"Farming.sol\":4199:4209  stakeIndex */\n      dup3\n        /* \"Farming.sol\":4176:4210  userStakes[msg.sender][stakeIndex] */\n      dup2\n      sload\n      dup2\n      lt\n      tag_139\n      jumpi\n      tag_140\n      tag_107\n      jump\t// in\n    tag_140:\n    tag_139:\n      swap1\n      0x00\n      mstore\n      keccak256(0x00, 0x20)\n      swap1\n      0x05\n      mul\n      add\n        /* \"Farming.sol\":4143:4210  UserStake storage currentStake = userStakes[msg.sender][stakeIndex] */\n      swap1\n      pop\n        /* \"Farming.sol\":4250:4251  0 */\n      0x00\n        /* \"Farming.sol\":4228:4240  currentStake */\n      dup2\n        /* \"Farming.sol\":4228:4247  currentStake.amount */\n      0x01\n      add\n      sload\n        /* \"Farming.sol\":4228:4251  currentStake.amount > 0 */\n      gt\n        /* \"Farming.sol\":4220:4271  require(currentStake.amount > 0, \"No active stake\") */\n      tag_142\n      jumpi\n      mload(0x40)\n      0x08c379a000000000000000000000000000000000000000000000000000000000\n      dup2\n      mstore\n      0x04\n      add\n      tag_143\n      swap1\n      tag_144\n      jump\t// in\n    tag_143:\n      mload(0x40)\n      dup1\n      swap2\n      sub\n      swap1\n      revert\n    tag_142:\n        /* \"Farming.sol\":4282:4308  FarmPackage memory package */\n      0x00\n        /* \"Farming.sol\":4311:4323  farmPackages */\n      0x02\n        /* \"Farming.sol\":4324:4336  currentStake */\n      dup3\n        /* \"Farming.sol\":4324:4346  currentStake.packageId */\n      0x00\n      add\n      sload\n        /* \"Farming.sol\":4311:4347  farmPackages[currentStake.packageId] */\n      dup2\n      sload\n      dup2\n      lt\n      tag_145\n      jumpi\n      tag_146\n      tag_107\n      jump\t// in\n    tag_146:\n    tag_145:\n      swap1\n      0x00\n      mstore\n      keccak256(0x00, 0x20)\n      swap1\n      0x05\n      mul\n      add\n        /* \"Farming.sol\":4282:4347  FarmPackage memory package = farmPackages[currentStake.packageId] */\n      mload(0x40)\n      dup1\n      0xa0\n      add\n      0x40\n      mstore\n      swap1\n      dup2\n      0x00\n      dup3\n      add\n      0x00\n      swap1\n      sload\n      swap1\n      0x0100\n      exp\n      swap1\n      div\n      0xffffffffffffffffffffffffffffffffffffffff\n      and\n      0xffffffffffffffffffffffffffffffffffffffff\n      and\n      0xffffffffffffffffffffffffffffffffffffffff\n      and\n      dup2\n      mstore\n      0x20\n      add\n      0x01\n      dup3\n      add\n      sload\n      dup2\n      mstore\n      0x20\n      add\n      0x02\n      dup3\n      add\n      sload\n      dup2\n      mstore\n      0x20\n      add\n      0x03\n      dup3\n      add\n      sload\n      dup2\n      mstore\n      0x20\n      add\n      0x04\n      dup3\n      add\n      0x00\n      swap1\n      sload\n      swap1\n      0x0100\n      exp\n      swap1\n      div\n      0xff\n      and\n      iszero\n      iszero\n      iszero\n      iszero\n      dup2\n      mstore\n      pop\n      pop\n      swap1\n      pop\n        /* \"Farming.sol\":4409:4416  package */\n      dup1\n        /* \"Farming.sol\":4409:4425  package.duration */\n      0x20\n      add\n      mload\n        /* \"Farming.sol\":4384:4396  currentStake */\n      dup3\n        /* \"Farming.sol\":4384:4406  currentStake.startTime */\n      0x02\n      add\n      sload\n        /* \"Farming.sol\":4384:4425  currentStake.startTime + package.duration */\n      tag_148\n      swap2\n      swap1\n      tag_149\n      jump\t// in\n    tag_148:\n        /* \"Farming.sol\":4365:4380  block.timestamp */\n      timestamp\n        /* \"Farming.sol\":4365:4425  block.timestamp >= currentStake.startTime + package.duration */\n      lt\n      iszero\n        /* \"Farming.sol\":4357:4442  require(block.timestamp >= currentStake.startTime + package.duration, \"Still locked\") */\n      tag_150\n      jumpi\n      mload(0x40)\n      0x08c379a000000000000000000000000000000000000000000000000000000000\n      dup2\n      mstore\n      0x04\n      add\n      tag_151\n      swap1\n      tag_152\n      jump\t// in\n    tag_151:\n      mload(0x40)\n      dup1\n      swap2\n      sub\n      swap1\n      revert\n    tag_150:\n        /* \"Farming.sol\":4453:4467  uint256 reward */\n      0x00\n        /* \"Farming.sol\":4470:4509  calculateReward(msg.sender, stakeIndex) */\n      tag_153\n        /* \"Farming.sol\":4486:4496  msg.sender */\n      caller\n        /* \"Farming.sol\":4498:4508  stakeIndex */\n      dup6\n        /* \"Farming.sol\":4470:4485  calculateReward */\n      tag_37\n        /* \"Farming.sol\":4470:4509  calculateReward(msg.sender, stakeIndex) */\n      jump\t// in\n    tag_153:\n        /* \"Farming.sol\":4453:4509  uint256 reward = calculateReward(msg.sender, stakeIndex) */\n      swap1\n      pop\n        /* \"Farming.sol\":4519:4538  uint256 totalAmount */\n      0x00\n        /* \"Farming.sol\":4541:4553  currentStake */\n      dup4\n        /* \"Farming.sol\":4541:4560  currentStake.amount */\n      0x01\n      add\n      sload\n        /* \"Farming.sol\":4519:4560  uint256 totalAmount = currentStake.amount */\n      swap1\n      pop\n        /* \"Farming.sol\":4578:4588  userStakes */\n      0x03\n        /* \"Farming.sol\":4578:4600  userStakes[msg.sender] */\n      0x00\n        /* \"Farming.sol\":4589:4599  msg.sender */\n      caller\n        /* \"Farming.sol\":4578:4600  userStakes[msg.sender] */\n      0xffffffffffffffffffffffffffffffffffffffff\n      and\n      0xffffffffffffffffffffffffffffffffffffffff\n      and\n      dup2\n      mstore\n      0x20\n      add\n      swap1\n      dup2\n      mstore\n      0x20\n      add\n      0x00\n      keccak256\n        /* \"Farming.sol\":4601:4611  stakeIndex */\n      dup6\n        /* \"Farming.sol\":4578:4612  userStakes[msg.sender][stakeIndex] */\n      dup2\n      sload\n      dup2\n      lt\n      tag_154\n      jumpi\n      tag_155\n      tag_107\n      jump\t// in\n    tag_155:\n    tag_154:\n      swap1\n      0x00\n      mstore\n      keccak256(0x00, 0x20)\n      swap1\n      0x05\n      mul\n      add\n      0x00\n        /* \"Farming.sol\":4571:4612  delete userStakes[msg.sender][stakeIndex] */\n      0x00\n      dup3\n      add\n      0x00\n      swap1\n      sstore\n      0x01\n      dup3\n      add\n      0x00\n      swap1\n      sstore\n      0x02\n      dup3\n      add\n      0x00\n      swap1\n      sstore\n      0x03\n      dup3\n      add\n      0x00\n      swap1\n      sstore\n      0x04\n      dup3\n      add\n      exp(0x0100, 0x00)\n      dup2\n      sload\n      swap1\n      0xff\n      mul\n      not\n      and\n      swap1\n      sstore\n      pop\n      pop\n        /* \"Farming.sol\":4663:4727  IERC20(package.stakeToken).safeTransfer(msg.sender, totalAmount) */\n      tag_157\n        /* \"Farming.sol\":4703:4713  msg.sender */\n      caller\n        /* \"Farming.sol\":4715:4726  totalAmount */\n      dup3\n        /* \"Farming.sol\":4670:4677  package */\n      dup6\n        /* \"Farming.sol\":4670:4688  package.stakeToken */\n      0x00\n      add\n      mload\n        /* \"Farming.sol\":4663:4702  IERC20(package.stakeToken).safeTransfer */\n      0xffffffffffffffffffffffffffffffffffffffff\n      and\n      tag_158\n      swap1\n        /* \"Farming.sol\":4663:4727  IERC20(package.stakeToken).safeTransfer(msg.sender, totalAmount) */\n      swap3\n      swap2\n      swap1\n      0xffffffff\n      and\n      jump\t// in\n    tag_157:\n        /* \"Farming.sol\":4778:4779  0 */\n      0x00\n        /* \"Farming.sol\":4769:4775  reward */\n      dup3\n        /* \"Farming.sol\":4769:4779  reward > 0 */\n      gt\n        /* \"Farming.sol\":4765:4848  if (reward > 0) {... */\n      iszero\n      tag_159\n      jumpi\n        /* \"Farming.sol\":4795:4837  cafiToken.safeTransfer(msg.sender, reward) */\n      tag_160\n        /* \"Farming.sol\":4818:4828  msg.sender */\n      caller\n        /* \"Farming.sol\":4830:4836  reward */\n      dup4\n        /* \"Farming.sol\":4795:4804  cafiToken */\n      immutable(\"0x915df03ad3d1adec3bd513726627a8fc7bf9ec81edb3bb322f7db8a8bc5664b4\")\n        /* \"Farming.sol\":4795:4817  cafiToken.safeTransfer */\n      0xffffffffffffffffffffffffffffffffffffffff\n      and\n      tag_158\n      swap1\n        /* \"Farming.sol\":4795:4837  cafiToken.safeTransfer(msg.sender, reward) */\n      swap3\n      swap2\n      swap1\n      0xffffffff\n      and\n      jump\t// in\n    tag_160:\n        /* \"Farming.sol\":4765:4848  if (reward > 0) {... */\n    tag_159:\n        /* \"Farming.sol\":4872:4882  msg.sender */\n      caller\n        /* \"Farming.sol\":4863:4916  Unstaked(msg.sender, stakeIndex, totalAmount, reward) */\n      0xffffffffffffffffffffffffffffffffffffffff\n      and\n      0x204fccf0d92ed8d48f204adb39b2e81e92bad0dedb93f5716ca9478cfb57de00\n        /* \"Farming.sol\":4884:4894  stakeIndex */\n      dup7\n        /* \"Farming.sol\":4896:4907  totalAmount */\n      dup4\n        /* \"Farming.sol\":4909:4915  reward */\n      dup6\n        /* \"Farming.sol\":4863:4916  Unstaked(msg.sender, stakeIndex, totalAmount, reward) */\n      mload(0x40)\n      tag_161\n      swap4\n      swap3\n      swap2\n      swap1\n      tag_162\n      jump\t// in\n    tag_161:\n      mload(0x40)\n      dup1\n      swap2\n      sub\n      swap1\n      log2\n        /* \"Farming.sol\":4133:4923  {... */\n      pop\n      pop\n      pop\n      pop\n        /* \"@openzeppelin/contracts/security/ReentrancyGuard.sol\":2303:2323  _nonReentrantAfter() */\n      tag_163\n        /* \"@openzeppelin/contracts/security/ReentrancyGuard.sol\":2303:2321  _nonReentrantAfter */\n      tag_164\n        /* \"@openzeppelin/contracts/security/ReentrancyGuard.sol\":2303:2323  _nonReentrantAfter() */\n      jump\t// in\n    tag_163:\n        /* \"Farming.sol\":4066:4923  function unstake(uint256 stakeIndex) external nonReentrant onlyEOA {... */\n      pop\n      jump\t// out\n        /* \"Farming.sol\":1138:1171  FarmPackage[] public farmPackages */\n    tag_45:\n      0x02\n      dup2\n      dup2\n      sload\n      dup2\n      lt\n      tag_165\n      jumpi\n      0x00\n      dup1\n      revert\n    tag_165:\n      swap1\n      0x00\n      mstore\n      keccak256(0x00, 0x20)\n      swap1\n      0x05\n      mul\n      add\n      0x00\n      swap2\n      pop\n      swap1\n      pop\n      dup1\n      0x00\n      add\n      0x00\n      swap1\n      sload\n      swap1\n      0x0100\n      exp\n      swap1\n      div\n      0xffffffffffffffffffffffffffffffffffffffff\n      and\n      swap1\n      dup1\n      0x01\n      add\n      sload\n      swap1\n      dup1\n      0x02\n      add\n      sload\n      swap1\n      dup1\n      0x03\n      add\n      sload\n      swap1\n      dup1\n      0x04\n      add\n      0x00\n      swap1\n      sload\n      swap1\n      0x0100\n      exp\n      swap1\n      div\n      0xff\n      and\n      swap1\n      pop\n      dup6\n      jump\t// out\n        /* \"Farming.sol\":1370:1399  address public treasuryWallet */\n    tag_49:\n      0x06\n      0x00\n      swap1\n      sload\n      swap1\n      0x0100\n      exp\n      swap1\n      div\n      0xffffffffffffffffffffffffffffffffffffffff\n      and\n      dup2\n      jump\t// out\n        /* \"Farming.sol\":7662:7891  function withdrawFees() external onlyOwner {... */\n    tag_53:\n        /* \"@openzeppelin/contracts/access/Ownable.sol\":1531:1544  _checkOwner() */\n      tag_168\n        /* \"@openzeppelin/contracts/access/Ownable.sol\":1531:1542  _checkOwner */\n      tag_100\n        /* \"@openzeppelin/contracts/access/Ownable.sol\":1531:1544  _checkOwner() */\n      jump\t// in\n    tag_168:\n        /* \"Farming.sol\":7715:7729  uint256 amount */\n      0x00\n        /* \"Farming.sol\":7732:7747  autoFarmingPool */\n      sload(0x04)\n        /* \"Farming.sol\":7715:7747  uint256 amount = autoFarmingPool */\n      swap1\n      pop\n        /* \"Farming.sol\":7774:7775  0 */\n      0x00\n        /* \"Farming.sol\":7765:7771  amount */\n      dup2\n        /* \"Farming.sol\":7765:7775  amount > 0 */\n      gt\n        /* \"Farming.sol\":7757:7799  require(amount > 0, \"No fees to withdraw\") */\n      tag_170\n      jumpi\n      mload(0x40)\n      0x08c379a000000000000000000000000000000000000000000000000000000000\n      dup2\n      mstore\n      0x04\n      add\n      tag_171\n      swap1\n      tag_172\n      jump\t// in\n    tag_171:\n      mload(0x40)\n      dup1\n      swap2\n      sub\n      swap1\n      revert\n    tag_170:\n        /* \"Farming.sol\":7827:7828  0 */\n      0x00\n        /* \"Farming.sol\":7809:7824  autoFarmingPool */\n      0x04\n        /* \"Farming.sol\":7809:7828  autoFarmingPool = 0 */\n      dup2\n      swap1\n      sstore\n      pop\n        /* \"Farming.sol\":7838:7884  cafiToken.safeTransfer(treasuryWallet, amount) */\n      tag_173\n        /* \"Farming.sol\":7861:7875  treasuryWallet */\n      0x06\n      0x00\n      swap1\n      sload\n      swap1\n      0x0100\n      exp\n      swap1\n      div\n      0xffffffffffffffffffffffffffffffffffffffff\n      and\n        /* \"Farming.sol\":7877:7883  amount */\n      dup3\n        /* \"Farming.sol\":7838:7847  cafiToken */\n      immutable(\"0x915df03ad3d1adec3bd513726627a8fc7bf9ec81edb3bb322f7db8a8bc5664b4\")\n        /* \"Farming.sol\":7838:7860  cafiToken.safeTransfer */\n      0xffffffffffffffffffffffffffffffffffffffff\n      and\n      tag_158\n      swap1\n        /* \"Farming.sol\":7838:7884  cafiToken.safeTransfer(treasuryWallet, amount) */\n      swap3\n      swap2\n      swap1\n      0xffffffff\n      and\n      jump\t// in\n    tag_173:\n        /* \"Farming.sol\":7705:7891  {... */\n      pop\n        /* \"Farming.sol\":7662:7891  function withdrawFees() external onlyOwner {... */\n      jump\t// out\n        /* \"Farming.sol\":1077:1110  IERC20 public immutable cafiToken */\n    tag_55:\n      immutable(\"0x915df03ad3d1adec3bd513726627a8fc7bf9ec81edb3bb322f7db8a8bc5664b4\")\n      dup2\n      jump\t// out\n        /* \"Farming.sol\":6752:7092  function setAPY(uint256 packageId, uint256 newAPY) external onlyOwner {... */\n    tag_61:\n        /* \"@openzeppelin/contracts/access/Ownable.sol\":1531:1544  _checkOwner() */\n      tag_175\n        /* \"@openzeppelin/contracts/access/Ownable.sol\":1531:1542  _checkOwner */\n      tag_100\n        /* \"@openzeppelin/contracts/access/Ownable.sol\":1531:1544  _checkOwner() */\n      jump\t// in\n    tag_175:\n        /* \"Farming.sol\":6852:6864  farmPackages */\n      0x02\n        /* \"Farming.sol\":6852:6871  farmPackages.length */\n      dup1\n      sload\n      swap1\n      pop\n        /* \"Farming.sol\":6840:6849  packageId */\n      dup3\n        /* \"Farming.sol\":6840:6871  packageId < farmPackages.length */\n      lt\n        /* \"Farming.sol\":6832:6894  require(packageId < farmPackages.length, \"Invalid package ID\") */\n      tag_177\n      jumpi\n      mload(0x40)\n      0x08c379a000000000000000000000000000000000000000000000000000000000\n      dup2\n      mstore\n      0x04\n      add\n      tag_178\n      swap1\n      tag_104\n      jump\t// in\n    tag_178:\n      mload(0x40)\n      dup1\n      swap2\n      sub\n      swap1\n      revert\n    tag_177:\n        /* \"Farming.sol\":6904:6931  FarmPackage storage package */\n      0x00\n        /* \"Farming.sol\":6934:6946  farmPackages */\n      0x02\n        /* \"Farming.sol\":6947:6956  packageId */\n      dup4\n        /* \"Farming.sol\":6934:6957  farmPackages[packageId] */\n      dup2\n      sload\n      dup2\n      lt\n      tag_179\n      jumpi\n      tag_180\n      tag_107\n      jump\t// in\n    tag_180:\n    tag_179:\n      swap1\n      0x00\n      mstore\n      keccak256(0x00, 0x20)\n      swap1\n      0x05\n      mul\n      add\n        /* \"Farming.sol\":6904:6957  FarmPackage storage package = farmPackages[packageId] */\n      swap1\n      pop\n        /* \"Farming.sol\":6967:6981  uint256 oldAPY */\n      0x00\n        /* \"Farming.sol\":6984:6991  package */\n      dup2\n        /* \"Farming.sol\":6984:6995  package.apy */\n      0x02\n      add\n      sload\n        /* \"Farming.sol\":6967:6995  uint256 oldAPY = package.apy */\n      swap1\n      pop\n        /* \"Farming.sol\":7019:7025  newAPY */\n      dup3\n        /* \"Farming.sol\":7005:7012  package */\n      dup3\n        /* \"Farming.sol\":7005:7016  package.apy */\n      0x02\n      add\n        /* \"Farming.sol\":7005:7025  package.apy = newAPY */\n      dup2\n      swap1\n      sstore\n      pop\n        /* \"Farming.sol\":7041:7085  PackageAPYUpdated(packageId, oldAPY, newAPY) */\n      0x447f7585030d3ef3a73db720f6082f657781a4a8657461796b868687caaea1e2\n        /* \"Farming.sol\":7059:7068  packageId */\n      dup5\n        /* \"Farming.sol\":7070:7076  oldAPY */\n      dup3\n        /* \"Farming.sol\":7078:7084  newAPY */\n      dup6\n        /* \"Farming.sol\":7041:7085  PackageAPYUpdated(packageId, oldAPY, newAPY) */\n      mload(0x40)\n      tag_182\n      swap4\n      swap3\n      swap2\n      swap1\n      tag_162\n      jump\t// in\n    tag_182:\n      mload(0x40)\n      dup1\n      swap2\n      sub\n      swap1\n      log1\n        /* \"Farming.sol\":6822:7092  {... */\n      pop\n      pop\n        /* \"Farming.sol\":6752:7092  function setAPY(uint256 packageId, uint256 newAPY) external onlyOwner {... */\n      pop\n      pop\n      jump\t// out\n        /* \"@openzeppelin/contracts/access/Ownable.sol\":2293:2394  function renounceOwnership() public virtual onlyOwner {... */\n    tag_63:\n        /* \"@openzeppelin/contracts/access/Ownable.sol\":1531:1544  _checkOwner() */\n      tag_184\n        /* \"@openzeppelin/contracts/access/Ownable.sol\":1531:1542  _checkOwner */\n      tag_100\n        /* \"@openzeppelin/contracts/access/Ownable.sol\":1531:1544  _checkOwner() */\n      jump\t// in\n    tag_184:\n        /* \"@openzeppelin/contracts/access/Ownable.sol\":2357:2387  _transferOwnership(address(0)) */\n      tag_186\n        /* \"@openzeppelin/contracts/access/Ownable.sol\":2384:2385  0 */\n      0x00\n        /* \"@openzeppelin/contracts/access/Ownable.sol\":2357:2375  _transferOwnership */\n      tag_187\n        /* \"@openzeppelin/contracts/access/Ownable.sol\":2357:2387  _transferOwnership(address(0)) */\n      jump\t// in\n    tag_186:\n        /* \"@openzeppelin/contracts/access/Ownable.sol\":2293:2394  function renounceOwnership() public virtual onlyOwner {... */\n      jump\t// out\n        /* \"Farming.sol\":2686:3338  function stake(uint256 packageId, uint256 amount) external nonReentrant onlyEOA {... */\n    tag_66:\n        /* \"@openzeppelin/contracts/security/ReentrancyGuard.sol\":2261:2282  _nonReentrantBefore() */\n      tag_189\n        /* \"@openzeppelin/contracts/security/ReentrancyGuard.sol\":2261:2280  _nonReentrantBefore */\n      tag_133\n        /* \"@openzeppelin/contracts/security/ReentrancyGuard.sol\":2261:2282  _nonReentrantBefore() */\n      jump\t// in\n    tag_189:\n        /* \"Farming.sol\":2553:2563  msg.sender */\n      caller\n        /* \"Farming.sol\":2540:2563  tx.origin == msg.sender */\n      0xffffffffffffffffffffffffffffffffffffffff\n      and\n        /* \"Farming.sol\":2540:2549  tx.origin */\n      origin\n        /* \"Farming.sol\":2540:2563  tx.origin == msg.sender */\n      0xffffffffffffffffffffffffffffffffffffffff\n      and\n      eq\n        /* \"Farming.sol\":2532:2585  require(tx.origin == msg.sender, \"Only EOA can call\") */\n      tag_191\n      jumpi\n      mload(0x40)\n      0x08c379a000000000000000000000000000000000000000000000000000000000\n      dup2\n      mstore\n      0x04\n      add\n      tag_192\n      swap1\n      tag_137\n      jump\t// in\n    tag_192:\n      mload(0x40)\n      dup1\n      swap2\n      sub\n      swap1\n      revert\n    tag_191:\n        /* \"Farming.sol\":2776:2802  FarmPackage memory package */\n      0x00\n        /* \"Farming.sol\":2805:2817  farmPackages */\n      0x02\n        /* \"Farming.sol\":2818:2827  packageId */\n      dup4\n        /* \"Farming.sol\":2805:2828  farmPackages[packageId] */\n      dup2\n      sload\n      dup2\n      lt\n      tag_194\n      jumpi\n      tag_195\n      tag_107\n      jump\t// in\n    tag_195:\n    tag_194:\n      swap1\n      0x00\n      mstore\n      keccak256(0x00, 0x20)\n      swap1\n      0x05\n      mul\n      add\n        /* \"Farming.sol\":2776:2828  FarmPackage memory package = farmPackages[packageId] */\n      mload(0x40)\n      dup1\n      0xa0\n      add\n      0x40\n      mstore\n      swap1\n      dup2\n      0x00\n      dup3\n      add\n      0x00\n      swap1\n      sload\n      swap1\n      0x0100\n      exp\n      swap1\n      div\n      0xffffffffffffffffffffffffffffffffffffffff\n      and\n      0xffffffffffffffffffffffffffffffffffffffff\n      and\n      0xffffffffffffffffffffffffffffffffffffffff\n      and\n      dup2\n      mstore\n      0x20\n      add\n      0x01\n      dup3\n      add\n      sload\n      dup2\n      mstore\n      0x20\n      add\n      0x02\n      dup3\n      add\n      sload\n      dup2\n      mstore\n      0x20\n      add\n      0x03\n      dup3\n      add\n      sload\n      dup2\n      mstore\n      0x20\n      add\n      0x04\n      dup3\n      add\n      0x00\n      swap1\n      sload\n      swap1\n      0x0100\n      exp\n      swap1\n      div\n      0xff\n      and\n      iszero\n      iszero\n      iszero\n      iszero\n      dup2\n      mstore\n      pop\n      pop\n      swap1\n      pop\n        /* \"Farming.sol\":2846:2853  package */\n      dup1\n        /* \"Farming.sol\":2846:2862  package.isActive */\n      0x80\n      add\n      mload\n        /* \"Farming.sol\":2838:2885  require(package.isActive, \"Package not active\") */\n      tag_197\n      jumpi\n      mload(0x40)\n      0x08c379a000000000000000000000000000000000000000000000000000000000\n      dup2\n      mstore\n      0x04\n      add\n      tag_198\n      swap1\n      tag_199\n      jump\t// in\n    tag_198:\n      mload(0x40)\n      dup1\n      swap2\n      sub\n      swap1\n      revert\n    tag_197:\n        /* \"Farming.sol\":2913:2920  package */\n      dup1\n        /* \"Farming.sol\":2913:2929  package.minStake */\n      0x60\n      add\n      mload\n        /* \"Farming.sol\":2903:2909  amount */\n      dup3\n        /* \"Farming.sol\":2903:2929  amount >= package.minStake */\n      lt\n      iszero\n        /* \"Farming.sol\":2895:2948  require(amount >= package.minStake, \"Amount too low\") */\n      tag_200\n      jumpi\n      mload(0x40)\n      0x08c379a000000000000000000000000000000000000000000000000000000000\n      dup2\n      mstore\n      0x04\n      add\n      tag_201\n      swap1\n      tag_202\n      jump\t// in\n    tag_201:\n      mload(0x40)\n      dup1\n      swap2\n      sub\n      swap1\n      revert\n    tag_200:\n        /* \"Farming.sol\":2959:3037  IERC20(package.stakeToken).safeTransferFrom(msg.sender, address(this), amount) */\n      tag_203\n        /* \"Farming.sol\":3003:3013  msg.sender */\n      caller\n        /* \"Farming.sol\":3023:3027  this */\n      address\n        /* \"Farming.sol\":3030:3036  amount */\n      dup5\n        /* \"Farming.sol\":2966:2973  package */\n      dup5\n        /* \"Farming.sol\":2966:2984  package.stakeToken */\n      0x00\n      add\n      mload\n        /* \"Farming.sol\":2959:3002  IERC20(package.stakeToken).safeTransferFrom */\n      0xffffffffffffffffffffffffffffffffffffffff\n      and\n      tag_204\n      swap1\n        /* \"Farming.sol\":2959:3037  IERC20(package.stakeToken).safeTransferFrom(msg.sender, address(this), amount) */\n      swap4\n      swap3\n      swap2\n      swap1\n      0xffffffff\n      and\n      jump\t// in\n    tag_203:\n        /* \"Farming.sol\":3048:3058  userStakes */\n      0x03\n        /* \"Farming.sol\":3048:3070  userStakes[msg.sender] */\n      0x00\n        /* \"Farming.sol\":3059:3069  msg.sender */\n      caller\n        /* \"Farming.sol\":3048:3070  userStakes[msg.sender] */\n      0xffffffffffffffffffffffffffffffffffffffff\n      and\n      0xffffffffffffffffffffffffffffffffffffffff\n      and\n      dup2\n      mstore\n      0x20\n      add\n      swap1\n      dup2\n      mstore\n      0x20\n      add\n      0x00\n      keccak256\n        /* \"Farming.sol\":3076:3277  UserStake({... */\n      mload(0x40)\n      dup1\n      0xa0\n      add\n      0x40\n      mstore\n      dup1\n        /* \"Farming.sol\":3111:3120  packageId */\n      dup6\n        /* \"Farming.sol\":3076:3277  UserStake({... */\n      dup2\n      mstore\n      0x20\n      add\n        /* \"Farming.sol\":3142:3148  amount */\n      dup5\n        /* \"Farming.sol\":3076:3277  UserStake({... */\n      dup2\n      mstore\n      0x20\n      add\n        /* \"Farming.sol\":3173:3188  block.timestamp */\n      timestamp\n        /* \"Farming.sol\":3076:3277  UserStake({... */\n      dup2\n      mstore\n      0x20\n      add\n        /* \"Farming.sol\":3217:3232  block.timestamp */\n      timestamp\n        /* \"Farming.sol\":3076:3277  UserStake({... */\n      dup2\n      mstore\n      0x20\n      add\n        /* \"Farming.sol\":3261:3266  false */\n      0x00\n        /* \"Farming.sol\":3076:3277  UserStake({... */\n      iszero\n      iszero\n      dup2\n      mstore\n      pop\n        /* \"Farming.sol\":3048:3278  userStakes[msg.sender].push(UserStake({... */\n      swap1\n      dup1\n      0x01\n      dup2\n      sload\n      add\n      dup1\n      dup3\n      sstore\n      dup1\n      swap2\n      pop\n      pop\n      0x01\n      swap1\n      sub\n      swap1\n      0x00\n      mstore\n      keccak256(0x00, 0x20)\n      swap1\n      0x05\n      mul\n      add\n      0x00\n      swap1\n      swap2\n      swap1\n      swap2\n      swap1\n      swap2\n      pop\n      0x00\n      dup3\n      add\n      mload\n      dup2\n      0x00\n      add\n      sstore\n      0x20\n      dup3\n      add\n      mload\n      dup2\n      0x01\n      add\n      sstore\n      0x40\n      dup3\n      add\n      mload\n      dup2\n      0x02\n      add\n      sstore\n      0x60\n      dup3\n      add\n      mload\n      dup2\n      0x03\n      add\n      sstore\n      0x80\n      dup3\n      add\n      mload\n      dup2\n      0x04\n      add\n      exp(0x0100, 0x00)\n      dup2\n      sload\n      dup2\n      0xff\n      mul\n      not\n      and\n      swap1\n      dup4\n      iszero\n      iszero\n      mul\n      or\n      swap1\n      sstore\n      pop\n      pop\n      pop\n        /* \"Farming.sol\":3301:3311  msg.sender */\n      caller\n        /* \"Farming.sol\":3294:3331  Staked(msg.sender, packageId, amount) */\n      0xffffffffffffffffffffffffffffffffffffffff\n      and\n      0x1449c6dd7851abc30abf37f57715f492010519147cc2652fbc38202c18a6ee90\n        /* \"Farming.sol\":3313:3322  packageId */\n      dup5\n        /* \"Farming.sol\":3324:3330  amount */\n      dup5\n        /* \"Farming.sol\":3294:3331  Staked(msg.sender, packageId, amount) */\n      mload(0x40)\n      tag_206\n      swap3\n      swap2\n      swap1\n      tag_207\n      jump\t// in\n    tag_206:\n      mload(0x40)\n      dup1\n      swap2\n      sub\n      swap1\n      log2\n        /* \"Farming.sol\":2766:3338  {... */\n      pop\n        /* \"@openzeppelin/contracts/security/ReentrancyGuard.sol\":2303:2323  _nonReentrantAfter() */\n      tag_208\n        /* \"@openzeppelin/contracts/security/ReentrancyGuard.sol\":2303:2321  _nonReentrantAfter */\n      tag_164\n        /* \"@openzeppelin/contracts/security/ReentrancyGuard.sol\":2303:2323  _nonReentrantAfter() */\n      jump\t// in\n    tag_208:\n        /* \"Farming.sol\":2686:3338  function stake(uint256 packageId, uint256 amount) external nonReentrant onlyEOA {... */\n      pop\n      pop\n      jump\t// out\n        /* \"@openzeppelin/contracts/access/Ownable.sol\":1638:1723  function owner() public view virtual returns (address) {... */\n    tag_68:\n        /* \"@openzeppelin/contracts/access/Ownable.sol\":1684:1691  address */\n      0x00\n        /* \"@openzeppelin/contracts/access/Ownable.sol\":1710:1716  _owner */\n      0x00\n      0x00\n      swap1\n      sload\n      swap1\n      0x0100\n      exp\n      swap1\n      div\n      0xffffffffffffffffffffffffffffffffffffffff\n      and\n        /* \"@openzeppelin/contracts/access/Ownable.sol\":1703:1716  return _owner */\n      swap1\n      pop\n        /* \"@openzeppelin/contracts/access/Ownable.sol\":1638:1723  function owner() public view virtual returns (address) {... */\n      swap1\n      jump\t// out\n        /* \"Farming.sol\":4985:5344  function toggleAutoFarming(uint256 stakeIndex) external nonReentrant onlyEOA {... */\n    tag_72:\n        /* \"@openzeppelin/contracts/security/ReentrancyGuard.sol\":2261:2282  _nonReentrantBefore() */\n      tag_211\n        /* \"@openzeppelin/contracts/security/ReentrancyGuard.sol\":2261:2280  _nonReentrantBefore */\n      tag_133\n        /* \"@openzeppelin/contracts/security/ReentrancyGuard.sol\":2261:2282  _nonReentrantBefore() */\n      jump\t// in\n    tag_211:\n        /* \"Farming.sol\":2553:2563  msg.sender */\n      caller\n        /* \"Farming.sol\":2540:2563  tx.origin == msg.sender */\n      0xffffffffffffffffffffffffffffffffffffffff\n      and\n        /* \"Farming.sol\":2540:2549  tx.origin */\n      origin\n        /* \"Farming.sol\":2540:2563  tx.origin == msg.sender */\n      0xffffffffffffffffffffffffffffffffffffffff\n      and\n      eq\n        /* \"Farming.sol\":2532:2585  require(tx.origin == msg.sender, \"Only EOA can call\") */\n      tag_213\n      jumpi\n      mload(0x40)\n      0x08c379a000000000000000000000000000000000000000000000000000000000\n      dup2\n      mstore\n      0x04\n      add\n      tag_214\n      swap1\n      tag_137\n      jump\t// in\n    tag_214:\n      mload(0x40)\n      dup1\n      swap2\n      sub\n      swap1\n      revert\n    tag_213:\n        /* \"Farming.sol\":5072:5099  UserStake storage stakeData */\n      0x00\n        /* \"Farming.sol\":5102:5112  userStakes */\n      0x03\n        /* \"Farming.sol\":5102:5124  userStakes[msg.sender] */\n      0x00\n        /* \"Farming.sol\":5113:5123  msg.sender */\n      caller\n        /* \"Farming.sol\":5102:5124  userStakes[msg.sender] */\n      0xffffffffffffffffffffffffffffffffffffffff\n      and\n      0xffffffffffffffffffffffffffffffffffffffff\n      and\n      dup2\n      mstore\n      0x20\n      add\n      swap1\n      dup2\n      mstore\n      0x20\n      add\n      0x00\n      keccak256\n        /* \"Farming.sol\":5125:5135  stakeIndex */\n      dup3\n        /* \"Farming.sol\":5102:5136  userStakes[msg.sender][stakeIndex] */\n      dup2\n      sload\n      dup2\n      lt\n      tag_216\n      jumpi\n      tag_217\n      tag_107\n      jump\t// in\n    tag_217:\n    tag_216:\n      swap1\n      0x00\n      mstore\n      keccak256(0x00, 0x20)\n      swap1\n      0x05\n      mul\n      add\n        /* \"Farming.sol\":5072:5136  UserStake storage stakeData = userStakes[msg.sender][stakeIndex] */\n      swap1\n      pop\n        /* \"Farming.sol\":5173:5174  0 */\n      0x00\n        /* \"Farming.sol\":5154:5163  stakeData */\n      dup2\n        /* \"Farming.sol\":5154:5170  stakeData.amount */\n      0x01\n      add\n      sload\n        /* \"Farming.sol\":5154:5174  stakeData.amount > 0 */\n      gt\n        /* \"Farming.sol\":5146:5194  require(stakeData.amount > 0, \"No active stake\") */\n      tag_219\n      jumpi\n      mload(0x40)\n      0x08c379a000000000000000000000000000000000000000000000000000000000\n      dup2\n      mstore\n      0x04\n      add\n      tag_220\n      swap1\n      tag_144\n      jump\t// in\n    tag_220:\n      mload(0x40)\n      dup1\n      swap2\n      sub\n      swap1\n      revert\n    tag_219:\n        /* \"Farming.sol\":5232:5241  stakeData */\n      dup1\n        /* \"Farming.sol\":5232:5255  stakeData.isAutoFarming */\n      0x04\n      add\n      0x00\n      swap1\n      sload\n      swap1\n      0x0100\n      exp\n      swap1\n      div\n      0xff\n      and\n        /* \"Farming.sol\":5231:5255  !stakeData.isAutoFarming */\n      iszero\n        /* \"Farming.sol\":5205:5214  stakeData */\n      dup2\n        /* \"Farming.sol\":5205:5228  stakeData.isAutoFarming */\n      0x04\n      add\n      0x00\n        /* \"Farming.sol\":5205:5255  stakeData.isAutoFarming = !stakeData.isAutoFarming */\n      0x0100\n      exp\n      dup2\n      sload\n      dup2\n      0xff\n      mul\n      not\n      and\n      swap1\n      dup4\n      iszero\n      iszero\n      mul\n      or\n      swap1\n      sstore\n      pop\n        /* \"Farming.sol\":5289:5299  msg.sender */\n      caller\n        /* \"Farming.sol\":5270:5337  AutoFarmingToggled(msg.sender, stakeIndex, stakeData.isAutoFarming) */\n      0xffffffffffffffffffffffffffffffffffffffff\n      and\n      0x31a69d42a6f751ecfc0dbb2406339aec90a8398da52cec9760a134a10d430c02\n        /* \"Farming.sol\":5301:5311  stakeIndex */\n      dup4\n        /* \"Farming.sol\":5313:5322  stakeData */\n      dup4\n        /* \"Farming.sol\":5313:5336  stakeData.isAutoFarming */\n      0x04\n      add\n      0x00\n      swap1\n      sload\n      swap1\n      0x0100\n      exp\n      swap1\n      div\n      0xff\n      and\n        /* \"Farming.sol\":5270:5337  AutoFarmingToggled(msg.sender, stakeIndex, stakeData.isAutoFarming) */\n      mload(0x40)\n      tag_221\n      swap3\n      swap2\n      swap1\n      tag_222\n      jump\t// in\n    tag_221:\n      mload(0x40)\n      dup1\n      swap2\n      sub\n      swap1\n      log2\n        /* \"Farming.sol\":5062:5344  {... */\n      pop\n        /* \"@openzeppelin/contracts/security/ReentrancyGuard.sol\":2303:2323  _nonReentrantAfter() */\n      tag_223\n        /* \"@openzeppelin/contracts/security/ReentrancyGuard.sol\":2303:2321  _nonReentrantAfter */\n      tag_164\n        /* \"@openzeppelin/contracts/security/ReentrancyGuard.sol\":2303:2323  _nonReentrantAfter() */\n      jump\t// in\n    tag_223:\n        /* \"Farming.sol\":4985:5344  function toggleAutoFarming(uint256 stakeIndex) external nonReentrant onlyEOA {... */\n      pop\n      jump\t// out\n        /* \"Farming.sol\":7364:7586  function setTreasuryWallet(address newWallet) external onlyOwner {... */\n    tag_76:\n        /* \"@openzeppelin/contracts/access/Ownable.sol\":1531:1544  _checkOwner() */\n      tag_225\n        /* \"@openzeppelin/contracts/access/Ownable.sol\":1531:1542  _checkOwner */\n      tag_100\n        /* \"@openzeppelin/contracts/access/Ownable.sol\":1531:1544  _checkOwner() */\n      jump\t// in\n    tag_225:\n        /* \"Farming.sol\":7468:7469  0 */\n      0x00\n        /* \"Farming.sol\":7447:7470  newWallet != address(0) */\n      0xffffffffffffffffffffffffffffffffffffffff\n      and\n        /* \"Farming.sol\":7447:7456  newWallet */\n      dup2\n        /* \"Farming.sol\":7447:7470  newWallet != address(0) */\n      0xffffffffffffffffffffffffffffffffffffffff\n      and\n      sub\n        /* \"Farming.sol\":7439:7499  require(newWallet != address(0), \"Zero address not allowed\") */\n      tag_227\n      jumpi\n      mload(0x40)\n      0x08c379a000000000000000000000000000000000000000000000000000000000\n      dup2\n      mstore\n      0x04\n      add\n      tag_228\n      swap1\n      tag_229\n      jump\t// in\n    tag_228:\n      mload(0x40)\n      dup1\n      swap2\n      sub\n      swap1\n      revert\n    tag_227:\n        /* \"Farming.sol\":7526:7535  newWallet */\n      dup1\n        /* \"Farming.sol\":7509:7523  treasuryWallet */\n      0x06\n      0x00\n        /* \"Farming.sol\":7509:7535  treasuryWallet = newWallet */\n      0x0100\n      exp\n      dup2\n      sload\n      dup2\n      0xffffffffffffffffffffffffffffffffffffffff\n      mul\n      not\n      and\n      swap1\n      dup4\n      0xffffffffffffffffffffffffffffffffffffffff\n      and\n      mul\n      or\n      swap1\n      sstore\n      pop\n        /* \"Farming.sol\":7569:7578  newWallet */\n      dup1\n        /* \"Farming.sol\":7550:7579  FeeReceiverUpdated(newWallet) */\n      0xffffffffffffffffffffffffffffffffffffffff\n      and\n      0x27aae5db36d94179909d019ae0b1ac7c16d96d953148f63c0f6a0a9c8ead79ee\n      mload(0x40)\n      mload(0x40)\n      dup1\n      swap2\n      sub\n      swap1\n      log2\n        /* \"Farming.sol\":7364:7586  function setTreasuryWallet(address newWallet) external onlyOwner {... */\n      pop\n      jump\t// out\n        /* \"Farming.sol\":3401:4005  function claimReward(uint256 stakeIndex) external nonReentrant onlyEOA {... */\n    tag_79:\n        /* \"@openzeppelin/contracts/security/ReentrancyGuard.sol\":2261:2282  _nonReentrantBefore() */\n      tag_231\n        /* \"@openzeppelin/contracts/security/ReentrancyGuard.sol\":2261:2280  _nonReentrantBefore */\n      tag_133\n        /* \"@openzeppelin/contracts/security/ReentrancyGuard.sol\":2261:2282  _nonReentrantBefore() */\n      jump\t// in\n    tag_231:\n        /* \"Farming.sol\":2553:2563  msg.sender */\n      caller\n        /* \"Farming.sol\":2540:2563  tx.origin == msg.sender */\n      0xffffffffffffffffffffffffffffffffffffffff\n      and\n        /* \"Farming.sol\":2540:2549  tx.origin */\n      origin\n        /* \"Farming.sol\":2540:2563  tx.origin == msg.sender */\n      0xffffffffffffffffffffffffffffffffffffffff\n      and\n      eq\n        /* \"Farming.sol\":2532:2585  require(tx.origin == msg.sender, \"Only EOA can call\") */\n      tag_233\n      jumpi\n      mload(0x40)\n      0x08c379a000000000000000000000000000000000000000000000000000000000\n      dup2\n      mstore\n      0x04\n      add\n      tag_234\n      swap1\n      tag_137\n      jump\t// in\n    tag_234:\n      mload(0x40)\n      dup1\n      swap2\n      sub\n      swap1\n      revert\n    tag_233:\n        /* \"Farming.sol\":3482:3509  UserStake storage userStake */\n      0x00\n        /* \"Farming.sol\":3512:3522  userStakes */\n      0x03\n        /* \"Farming.sol\":3512:3534  userStakes[msg.sender] */\n      0x00\n        /* \"Farming.sol\":3523:3533  msg.sender */\n      caller\n        /* \"Farming.sol\":3512:3534  userStakes[msg.sender] */\n      0xffffffffffffffffffffffffffffffffffffffff\n      and\n      0xffffffffffffffffffffffffffffffffffffffff\n      and\n      dup2\n      mstore\n      0x20\n      add\n      swap1\n      dup2\n      mstore\n      0x20\n      add\n      0x00\n      keccak256\n        /* \"Farming.sol\":3535:3545  stakeIndex */\n      dup3\n        /* \"Farming.sol\":3512:3546  userStakes[msg.sender][stakeIndex] */\n      dup2\n      sload\n      dup2\n      lt\n      tag_236\n      jumpi\n      tag_237\n      tag_107\n      jump\t// in\n    tag_237:\n    tag_236:\n      swap1\n      0x00\n      mstore\n      keccak256(0x00, 0x20)\n      swap1\n      0x05\n      mul\n      add\n        /* \"Farming.sol\":3482:3546  UserStake storage userStake = userStakes[msg.sender][stakeIndex] */\n      swap1\n      pop\n        /* \"Farming.sol\":3583:3584  0 */\n      0x00\n        /* \"Farming.sol\":3564:3573  userStake */\n      dup2\n        /* \"Farming.sol\":3564:3580  userStake.amount */\n      0x01\n      add\n      sload\n        /* \"Farming.sol\":3564:3584  userStake.amount > 0 */\n      gt\n        /* \"Farming.sol\":3556:3604  require(userStake.amount > 0, \"No active stake\") */\n      tag_239\n      jumpi\n      mload(0x40)\n      0x08c379a000000000000000000000000000000000000000000000000000000000\n      dup2\n      mstore\n      0x04\n      add\n      tag_240\n      swap1\n      tag_144\n      jump\t// in\n    tag_240:\n      mload(0x40)\n      dup1\n      swap2\n      sub\n      swap1\n      revert\n    tag_239:\n        /* \"Farming.sol\":3615:3629  uint256 reward */\n      0x00\n        /* \"Farming.sol\":3632:3671  calculateReward(msg.sender, stakeIndex) */\n      tag_241\n        /* \"Farming.sol\":3648:3658  msg.sender */\n      caller\n        /* \"Farming.sol\":3660:3670  stakeIndex */\n      dup5\n        /* \"Farming.sol\":3632:3647  calculateReward */\n      tag_37\n        /* \"Farming.sol\":3632:3671  calculateReward(msg.sender, stakeIndex) */\n      jump\t// in\n    tag_241:\n        /* \"Farming.sol\":3615:3671  uint256 reward = calculateReward(msg.sender, stakeIndex) */\n      swap1\n      pop\n        /* \"Farming.sol\":3698:3699  0 */\n      0x00\n        /* \"Farming.sol\":3689:3695  reward */\n      dup2\n        /* \"Farming.sol\":3689:3699  reward > 0 */\n      gt\n        /* \"Farming.sol\":3681:3722  require(reward > 0, \"No reward to claim\") */\n      tag_242\n      jumpi\n      mload(0x40)\n      0x08c379a000000000000000000000000000000000000000000000000000000000\n      dup2\n      mstore\n      0x04\n      add\n      tag_243\n      swap1\n      tag_244\n      jump\t// in\n    tag_243:\n      mload(0x40)\n      dup1\n      swap2\n      sub\n      swap1\n      revert\n    tag_242:\n        /* \"Farming.sol\":3759:3774  block.timestamp */\n      timestamp\n        /* \"Farming.sol\":3733:3742  userStake */\n      dup3\n        /* \"Farming.sol\":3733:3756  userStake.lastClaimTime */\n      0x03\n      add\n        /* \"Farming.sol\":3733:3774  userStake.lastClaimTime = block.timestamp */\n      dup2\n      swap1\n      sstore\n      pop\n        /* \"Farming.sol\":3789:3798  userStake */\n      dup2\n        /* \"Farming.sol\":3789:3812  userStake.isAutoFarming */\n      0x04\n      add\n      0x00\n      swap1\n      sload\n      swap1\n      0x0100\n      exp\n      swap1\n      div\n      0xff\n      and\n        /* \"Farming.sol\":3785:3938  if (userStake.isAutoFarming) {... */\n      iszero\n      tag_245\n      jumpi\n        /* \"Farming.sol\":3848:3854  reward */\n      dup1\n        /* \"Farming.sol\":3828:3837  userStake */\n      dup3\n        /* \"Farming.sol\":3828:3844  userStake.amount */\n      0x01\n      add\n      0x00\n        /* \"Farming.sol\":3828:3854  userStake.amount += reward */\n      dup3\n      dup3\n      sload\n      tag_246\n      swap2\n      swap1\n      tag_149\n      jump\t// in\n    tag_246:\n      swap3\n      pop\n      pop\n      dup2\n      swap1\n      sstore\n      pop\n        /* \"Farming.sol\":3785:3938  if (userStake.isAutoFarming) {... */\n      jump(tag_247)\n    tag_245:\n        /* \"Farming.sol\":3885:3927  cafiToken.safeTransfer(msg.sender, reward) */\n      tag_248\n        /* \"Farming.sol\":3908:3918  msg.sender */\n      caller\n        /* \"Farming.sol\":3920:3926  reward */\n      dup3\n        /* \"Farming.sol\":3885:3894  cafiToken */\n      immutable(\"0x915df03ad3d1adec3bd513726627a8fc7bf9ec81edb3bb322f7db8a8bc5664b4\")\n        /* \"Farming.sol\":3885:3907  cafiToken.safeTransfer */\n      0xffffffffffffffffffffffffffffffffffffffff\n      and\n      tag_158\n      swap1\n        /* \"Farming.sol\":3885:3927  cafiToken.safeTransfer(msg.sender, reward) */\n      swap3\n      swap2\n      swap1\n      0xffffffff\n      and\n      jump\t// in\n    tag_248:\n        /* \"Farming.sol\":3785:3938  if (userStake.isAutoFarming) {... */\n    tag_247:\n        /* \"Farming.sol\":3967:3977  msg.sender */\n      caller\n        /* \"Farming.sol\":3953:3998  RewardClaimed(msg.sender, stakeIndex, reward) */\n      0xffffffffffffffffffffffffffffffffffffffff\n      and\n      0xf01da32686223933d8a18a391060918c7f11a3648639edd87ae013e2e2731743\n        /* \"Farming.sol\":3979:3989  stakeIndex */\n      dup5\n        /* \"Farming.sol\":3991:3997  reward */\n      dup4\n        /* \"Farming.sol\":3953:3998  RewardClaimed(msg.sender, stakeIndex, reward) */\n      mload(0x40)\n      tag_249\n      swap3\n      swap2\n      swap1\n      tag_207\n      jump\t// in\n    tag_249:\n      mload(0x40)\n      dup1\n      swap2\n      sub\n      swap1\n      log2\n        /* \"Farming.sol\":3472:4005  {... */\n      pop\n      pop\n        /* \"@openzeppelin/contracts/security/ReentrancyGuard.sol\":2303:2323  _nonReentrantAfter() */\n      tag_250\n        /* \"@openzeppelin/contracts/security/ReentrancyGuard.sol\":2303:2321  _nonReentrantAfter */\n      tag_164\n        /* \"@openzeppelin/contracts/security/ReentrancyGuard.sol\":2303:2323  _nonReentrantAfter() */\n      jump\t// in\n    tag_250:\n        /* \"Farming.sol\":3401:4005  function claimReward(uint256 stakeIndex) external nonReentrant onlyEOA {... */\n      pop\n      jump\t// out\n        /* \"Farming.sol\":1205:1254  mapping(address => UserStake[]) public userStakes */\n    tag_82:\n      mstore(0x20, 0x03)\n      dup2\n      0x00\n      mstore\n      keccak256(0x00, 0x40)\n      dup2\n      dup2\n      sload\n      dup2\n      lt\n      tag_251\n      jumpi\n      0x00\n      dup1\n      revert\n    tag_251:\n      swap1\n      0x00\n      mstore\n      keccak256(0x00, 0x20)\n      swap1\n      0x05\n      mul\n      add\n      0x00\n      swap2\n      pop\n      swap2\n      pop\n      pop\n      dup1\n      0x00\n      add\n      sload\n      swap1\n      dup1\n      0x01\n      add\n      sload\n      swap1\n      dup1\n      0x02\n      add\n      sload\n      swap1\n      dup1\n      0x03\n      add\n      sload\n      swap1\n      dup1\n      0x04\n      add\n      0x00\n      swap1\n      sload\n      swap1\n      0x0100\n      exp\n      swap1\n      div\n      0xff\n      and\n      swap1\n      pop\n      dup6\n      jump\t// out\n        /* \"Farming.sol\":1286:1316  uint256 public autoFarmingPool */\n    tag_86:\n      sload(0x04)\n      dup2\n      jump\t// out\n        /* \"Farming.sol\":1322:1356  uint256 public autoFarmingFee = 50 */\n    tag_89:\n      sload(0x05)\n      dup2\n      jump\t// out\n        /* \"Farming.sol\":5944:6398  function addFarmPackage(... */\n    tag_94:\n        /* \"@openzeppelin/contracts/access/Ownable.sol\":1531:1544  _checkOwner() */\n      tag_254\n        /* \"@openzeppelin/contracts/access/Ownable.sol\":1531:1542  _checkOwner */\n      tag_100\n        /* \"@openzeppelin/contracts/access/Ownable.sol\":1531:1544  _checkOwner() */\n      jump\t// in\n    tag_254:\n        /* \"Farming.sol\":6104:6116  farmPackages */\n      0x02\n        /* \"Farming.sol\":6122:6295  FarmPackage({... */\n      mload(0x40)\n      dup1\n      0xa0\n      add\n      0x40\n      mstore\n      dup1\n        /* \"Farming.sol\":6160:6170  stakeToken */\n      dup7\n        /* \"Farming.sol\":6122:6295  FarmPackage({... */\n      0xffffffffffffffffffffffffffffffffffffffff\n      and\n      dup2\n      mstore\n      0x20\n      add\n        /* \"Farming.sol\":6194:6202  duration */\n      dup6\n        /* \"Farming.sol\":6122:6295  FarmPackage({... */\n      dup2\n      mstore\n      0x20\n      add\n        /* \"Farming.sol\":6221:6224  apy */\n      dup5\n        /* \"Farming.sol\":6122:6295  FarmPackage({... */\n      dup2\n      mstore\n      0x20\n      add\n        /* \"Farming.sol\":6248:6256  minStake */\n      dup4\n        /* \"Farming.sol\":6122:6295  FarmPackage({... */\n      dup2\n      mstore\n      0x20\n      add\n        /* \"Farming.sol\":6280:6284  true */\n      0x01\n        /* \"Farming.sol\":6122:6295  FarmPackage({... */\n      iszero\n      iszero\n      dup2\n      mstore\n      pop\n        /* \"Farming.sol\":6104:6296  farmPackages.push(FarmPackage({... */\n      swap1\n      dup1\n      0x01\n      dup2\n      sload\n      add\n      dup1\n      dup3\n      sstore\n      dup1\n      swap2\n      pop\n      pop\n      0x01\n      swap1\n      sub\n      swap1\n      0x00\n      mstore\n      keccak256(0x00, 0x20)\n      swap1\n      0x05\n      mul\n      add\n      0x00\n      swap1\n      swap2\n      swap1\n      swap2\n      swap1\n      swap2\n      pop\n      0x00\n      dup3\n      add\n      mload\n      dup2\n      0x00\n      add\n      exp(0x0100, 0x00)\n      dup2\n      sload\n      dup2\n      0xffffffffffffffffffffffffffffffffffffffff\n      mul\n      not\n      and\n      swap1\n      dup4\n      0xffffffffffffffffffffffffffffffffffffffff\n      and\n      mul\n      or\n      swap1\n      sstore\n      pop\n      0x20\n      dup3\n      add\n      mload\n      dup2\n      0x01\n      add\n      sstore\n      0x40\n      dup3\n      add\n      mload\n      dup2\n      0x02\n      add\n      sstore\n      0x60\n      dup3\n      add\n      mload\n      dup2\n      0x03\n      add\n      sstore\n      0x80\n      dup3\n      add\n      mload\n      dup2\n      0x04\n      add\n      exp(0x0100, 0x00)\n      dup2\n      sload\n      dup2\n      0xff\n      mul\n      not\n      and\n      swap1\n      dup4\n      iszero\n      iszero\n      mul\n      or\n      swap1\n      sstore\n      pop\n      pop\n      pop\n        /* \"Farming.sol\":6311:6391  PackageAdded(farmPackages.length - 1, stakeToken, duration, apy, minStake, true) */\n      0x449d6803fbc50a1b24602b1756ef38e10c1fb9c7f3d93da3e692636702585548\n        /* \"Farming.sol\":6346:6347  1 */\n      0x01\n        /* \"Farming.sol\":6324:6336  farmPackages */\n      0x02\n        /* \"Farming.sol\":6324:6343  farmPackages.length */\n      dup1\n      sload\n      swap1\n      pop\n        /* \"Farming.sol\":6324:6347  farmPackages.length - 1 */\n      tag_257\n      swap2\n      swap1\n      tag_124\n      jump\t// in\n    tag_257:\n        /* \"Farming.sol\":6349:6359  stakeToken */\n      dup6\n        /* \"Farming.sol\":6361:6369  duration */\n      dup6\n        /* \"Farming.sol\":6371:6374  apy */\n      dup6\n        /* \"Farming.sol\":6376:6384  minStake */\n      dup6\n        /* \"Farming.sol\":6386:6390  true */\n      0x01\n        /* \"Farming.sol\":6311:6391  PackageAdded(farmPackages.length - 1, stakeToken, duration, apy, minStake, true) */\n      mload(0x40)\n      tag_258\n      swap7\n      swap6\n      swap5\n      swap4\n      swap3\n      swap2\n      swap1\n      tag_259\n      jump\t// in\n    tag_258:\n      mload(0x40)\n      dup1\n      swap2\n      sub\n      swap1\n      log1\n        /* \"Farming.sol\":5944:6398  function addFarmPackage(... */\n      pop\n      pop\n      pop\n      pop\n      jump\t// out\n        /* \"@openzeppelin/contracts/access/Ownable.sol\":2543:2758  function transferOwnership(address newOwner) public virtual onlyOwner {... */\n    tag_97:\n        /* \"@openzeppelin/contracts/access/Ownable.sol\":1531:1544  _checkOwner() */\n      tag_261\n        /* \"@openzeppelin/contracts/access/Ownable.sol\":1531:1542  _checkOwner */\n      tag_100\n        /* \"@openzeppelin/contracts/access/Ownable.sol\":1531:1544  _checkOwner() */\n      jump\t// in\n    tag_261:\n        /* \"@openzeppelin/contracts/access/Ownable.sol\":2647:2648  0 */\n      0x00\n        /* \"@openzeppelin/contracts/access/Ownable.sol\":2627:2649  newOwner == address(0) */\n      0xffffffffffffffffffffffffffffffffffffffff\n      and\n        /* \"@openzeppelin/contracts/access/Ownable.sol\":2627:2635  newOwner */\n      dup2\n        /* \"@openzeppelin/contracts/access/Ownable.sol\":2627:2649  newOwner == address(0) */\n      0xffffffffffffffffffffffffffffffffffffffff\n      and\n      sub\n        /* \"@openzeppelin/contracts/access/Ownable.sol\":2623:2714  if (newOwner == address(0)) {... */\n      tag_263\n      jumpi\n        /* \"@openzeppelin/contracts/access/Ownable.sol\":2700:2701  0 */\n      0x00\n        /* \"@openzeppelin/contracts/access/Ownable.sol\":2672:2703  OwnableInvalidOwner(address(0)) */\n      mload(0x40)\n      0x1e4fbdf700000000000000000000000000000000000000000000000000000000\n      dup2\n      mstore\n      0x04\n      add\n      tag_264\n      swap2\n      swap1\n      tag_51\n      jump\t// in\n    tag_264:\n      mload(0x40)\n      dup1\n      swap2\n      sub\n      swap1\n      revert\n        /* \"@openzeppelin/contracts/access/Ownable.sol\":2623:2714  if (newOwner == address(0)) {... */\n    tag_263:\n        /* \"@openzeppelin/contracts/access/Ownable.sol\":2723:2751  _transferOwnership(newOwner) */\n      tag_265\n        /* \"@openzeppelin/contracts/access/Ownable.sol\":2742:2750  newOwner */\n      dup2\n        /* \"@openzeppelin/contracts/access/Ownable.sol\":2723:2741  _transferOwnership */\n      tag_187\n        /* \"@openzeppelin/contracts/access/Ownable.sol\":2723:2751  _transferOwnership(newOwner) */\n      jump\t// in\n    tag_265:\n        /* \"@openzeppelin/contracts/access/Ownable.sol\":2543:2758  function transferOwnership(address newOwner) public virtual onlyOwner {... */\n      pop\n      jump\t// out\n        /* \"@openzeppelin/contracts/access/Ownable.sol\":1796:1958  function _checkOwner() internal view virtual {... */\n    tag_100:\n        /* \"@openzeppelin/contracts/access/Ownable.sol\":1866:1878  _msgSender() */\n      tag_267\n        /* \"@openzeppelin/contracts/access/Ownable.sol\":1866:1876  _msgSender */\n      tag_268\n        /* \"@openzeppelin/contracts/access/Ownable.sol\":1866:1878  _msgSender() */\n      jump\t// in\n    tag_267:\n        /* \"@openzeppelin/contracts/access/Ownable.sol\":1855:1878  owner() != _msgSender() */\n      0xffffffffffffffffffffffffffffffffffffffff\n      and\n        /* \"@openzeppelin/contracts/access/Ownable.sol\":1855:1862  owner() */\n      tag_269\n        /* \"@openzeppelin/contracts/access/Ownable.sol\":1855:1860  owner */\n      tag_68\n        /* \"@openzeppelin/contracts/access/Ownable.sol\":1855:1862  owner() */\n      jump\t// in\n    tag_269:\n        /* \"@openzeppelin/contracts/access/Ownable.sol\":1855:1878  owner() != _msgSender() */\n      0xffffffffffffffffffffffffffffffffffffffff\n      and\n      eq\n        /* \"@openzeppelin/contracts/access/Ownable.sol\":1851:1952  if (owner() != _msgSender()) {... */\n      tag_270\n      jumpi\n        /* \"@openzeppelin/contracts/access/Ownable.sol\":1928:1940  _msgSender() */\n      tag_271\n        /* \"@openzeppelin/contracts/access/Ownable.sol\":1928:1938  _msgSender */\n      tag_268\n        /* \"@openzeppelin/contracts/access/Ownable.sol\":1928:1940  _msgSender() */\n      jump\t// in\n    tag_271:\n        /* \"@openzeppelin/contracts/access/Ownable.sol\":1901:1941  OwnableUnauthorizedAccount(_msgSender()) */\n      mload(0x40)\n      0x118cdaa700000000000000000000000000000000000000000000000000000000\n      dup2\n      mstore\n      0x04\n      add\n      tag_272\n      swap2\n      swap1\n      tag_51\n      jump\t// in\n    tag_272:\n      mload(0x40)\n      dup1\n      swap2\n      sub\n      swap1\n      revert\n        /* \"@openzeppelin/contracts/access/Ownable.sol\":1851:1952  if (owner() != _msgSender()) {... */\n    tag_270:\n        /* \"@openzeppelin/contracts/access/Ownable.sol\":1796:1958  function _checkOwner() internal view virtual {... */\n      jump\t// out\n        /* \"@openzeppelin/contracts/security/ReentrancyGuard.sol\":2336:2623  function _nonReentrantBefore() private {... */\n    tag_133:\n        /* \"@openzeppelin/contracts/security/ReentrancyGuard.sol\":1759:1760  2 */\n      0x02\n        /* \"@openzeppelin/contracts/security/ReentrancyGuard.sol\":2468:2475  _status */\n      sload(0x01)\n        /* \"@openzeppelin/contracts/security/ReentrancyGuard.sol\":2468:2487  _status != _ENTERED */\n      sub\n        /* \"@openzeppelin/contracts/security/ReentrancyGuard.sol\":2460:2523  require(_status != _ENTERED, \"ReentrancyGuard: reentrant call\") */\n      tag_274\n      jumpi\n      mload(0x40)\n      0x08c379a000000000000000000000000000000000000000000000000000000000\n      dup2\n      mstore\n      0x04\n      add\n      tag_275\n      swap1\n      tag_276\n      jump\t// in\n    tag_275:\n      mload(0x40)\n      dup1\n      swap2\n      sub\n      swap1\n      revert\n    tag_274:\n        /* \"@openzeppelin/contracts/security/ReentrancyGuard.sol\":1759:1760  2 */\n      0x02\n        /* \"@openzeppelin/contracts/security/ReentrancyGuard.sol\":2598:2605  _status */\n      0x01\n        /* \"@openzeppelin/contracts/security/ReentrancyGuard.sol\":2598:2616  _status = _ENTERED */\n      dup2\n      swap1\n      sstore\n      pop\n        /* \"@openzeppelin/contracts/security/ReentrancyGuard.sol\":2336:2623  function _nonReentrantBefore() private {... */\n      jump\t// out\n        /* \"@openzeppelin/contracts/token/ERC20/utils/SafeERC20.sol\":1219:1379  function safeTransfer(IERC20 token, address to, uint256 value) internal {... */\n    tag_158:\n        /* \"@openzeppelin/contracts/token/ERC20/utils/SafeERC20.sol\":1301:1372  _callOptionalReturn(token, abi.encodeCall(token.transfer, (to, value))) */\n      tag_278\n        /* \"@openzeppelin/contracts/token/ERC20/utils/SafeERC20.sol\":1321:1326  token */\n      dup4\n        /* \"@openzeppelin/contracts/token/ERC20/utils/SafeERC20.sol\":1343:1348  token */\n      dup5\n        /* \"@openzeppelin/contracts/token/ERC20/utils/SafeERC20.sol\":1343:1357  token.transfer */\n      0xffffffffffffffffffffffffffffffffffffffff\n      and\n      0xa9059cbb\n        /* \"@openzeppelin/contracts/token/ERC20/utils/SafeERC20.sol\":1360:1362  to */\n      dup6\n        /* \"@openzeppelin/contracts/token/ERC20/utils/SafeERC20.sol\":1364:1369  value */\n      dup6\n        /* \"@openzeppelin/contracts/token/ERC20/utils/SafeERC20.sol\":1328:1371  abi.encodeCall(token.transfer, (to, value)) */\n      add(0x24, mload(0x40))\n      tag_279\n      swap3\n      swap2\n      swap1\n      tag_280\n      jump\t// in\n    tag_279:\n      mload(0x40)\n      0x20\n      dup2\n      dup4\n      sub\n      sub\n      dup2\n      mstore\n      swap1\n      0x40\n      mstore\n      swap2\n      pop\n      0xe0\n      shl\n      0x20\n      dup3\n      add\n      dup1\n      mload\n      0xffffffffffffffffffffffffffffffffffffffffffffffffffffffff\n      dup4\n      dup2\n      dup4\n      and\n      or\n      dup4\n      mstore\n      pop\n      pop\n      pop\n      pop\n        /* \"@openzeppelin/contracts/token/ERC20/utils/SafeERC20.sol\":1301:1320  _callOptionalReturn */\n      tag_281\n        /* \"@openzeppelin/contracts/token/ERC20/utils/SafeERC20.sol\":1301:1372  _callOptionalReturn(token, abi.encodeCall(token.transfer, (to, value))) */\n      jump\t// in\n    tag_278:\n        /* \"@openzeppelin/contracts/token/ERC20/utils/SafeERC20.sol\":1219:1379  function safeTransfer(IERC20 token, address to, uint256 value) internal {... */\n      pop\n      pop\n      pop\n      jump\t// out\n        /* \"@openzeppelin/contracts/security/ReentrancyGuard.sol\":2629:2838  function _nonReentrantAfter() private {... */\n    tag_164:\n        /* \"@openzeppelin/contracts/security/ReentrancyGuard.sol\":1716:1717  1 */\n      0x01\n        /* \"@openzeppelin/contracts/security/ReentrancyGuard.sol\":2809:2816  _status */\n      dup1\n        /* \"@openzeppelin/contracts/security/ReentrancyGuard.sol\":2809:2831  _status = _NOT_ENTERED */\n      dup2\n      swap1\n      sstore\n      pop\n        /* \"@openzeppelin/contracts/security/ReentrancyGuard.sol\":2629:2838  function _nonReentrantAfter() private {... */\n      jump\t// out\n        /* \"@openzeppelin/contracts/access/Ownable.sol\":2912:3099  function _transferOwnership(address newOwner) internal virtual {... */\n    tag_187:\n        /* \"@openzeppelin/contracts/access/Ownable.sol\":2985:3001  address oldOwner */\n      0x00\n        /* \"@openzeppelin/contracts/access/Ownable.sol\":3004:3010  _owner */\n      0x00\n      0x00\n      swap1\n      sload\n      swap1\n      0x0100\n      exp\n      swap1\n      div\n      0xffffffffffffffffffffffffffffffffffffffff\n      and\n        /* \"@openzeppelin/contracts/access/Ownable.sol\":2985:3010  address oldOwner = _owner */\n      swap1\n      pop\n        /* \"@openzeppelin/contracts/access/Ownable.sol\":3029:3037  newOwner */\n      dup2\n        /* \"@openzeppelin/contracts/access/Ownable.sol\":3020:3026  _owner */\n      0x00\n      0x00\n        /* \"@openzeppelin/contracts/access/Ownable.sol\":3020:3037  _owner = newOwner */\n      0x0100\n      exp\n      dup2\n      sload\n      dup2\n      0xffffffffffffffffffffffffffffffffffffffff\n      mul\n      not\n      and\n      swap1\n      dup4\n      0xffffffffffffffffffffffffffffffffffffffff\n      and\n      mul\n      or\n      swap1\n      sstore\n      pop\n        /* \"@openzeppelin/contracts/access/Ownable.sol\":3083:3091  newOwner */\n      dup2\n        /* \"@openzeppelin/contracts/access/Ownable.sol\":3052:3092  OwnershipTransferred(oldOwner, newOwner) */\n      0xffffffffffffffffffffffffffffffffffffffff\n      and\n        /* \"@openzeppelin/contracts/access/Ownable.sol\":3073:3081  oldOwner */\n      dup2\n        /* \"@openzeppelin/contracts/access/Ownable.sol\":3052:3092  OwnershipTransferred(oldOwner, newOwner) */\n      0xffffffffffffffffffffffffffffffffffffffff\n      and\n      0x8be0079c531659141344cd1fd0a4f28419497f9722a3daafe3b4186f6b6457e0\n      mload(0x40)\n      mload(0x40)\n      dup1\n      swap2\n      sub\n      swap1\n      log3\n        /* \"@openzeppelin/contracts/access/Ownable.sol\":2975:3099  {... */\n      pop\n        /* \"@openzeppelin/contracts/access/Ownable.sol\":2912:3099  function _transferOwnership(address newOwner) internal virtual {... */\n      pop\n      jump\t// out\n        /* \"@openzeppelin/contracts/token/ERC20/utils/SafeERC20.sol\":1618:1806  function safeTransferFrom(IERC20 token, address from, address to, uint256 value) internal {... */\n    tag_204:\n        /* \"@openzeppelin/contracts/token/ERC20/utils/SafeERC20.sol\":1718:1799  _callOptionalReturn(token, abi.encodeCall(token.transferFrom, (from, to, value))) */\n      tag_285\n        /* \"@openzeppelin/contracts/token/ERC20/utils/SafeERC20.sol\":1738:1743  token */\n      dup5\n        /* \"@openzeppelin/contracts/token/ERC20/utils/SafeERC20.sol\":1760:1765  token */\n      dup6\n        /* \"@openzeppelin/contracts/token/ERC20/utils/SafeERC20.sol\":1760:1778  token.transferFrom */\n      0xffffffffffffffffffffffffffffffffffffffff\n      and\n      0x23b872dd\n        /* \"@openzeppelin/contracts/token/ERC20/utils/SafeERC20.sol\":1781:1785  from */\n      dup7\n        /* \"@openzeppelin/contracts/token/ERC20/utils/SafeERC20.sol\":1787:1789  to */\n      dup7\n        /* \"@openzeppelin/contracts/token/ERC20/utils/SafeERC20.sol\":1791:1796  value */\n      dup7\n        /* \"@openzeppelin/contracts/token/ERC20/utils/SafeERC20.sol\":1745:1798  abi.encodeCall(token.transferFrom, (from, to, value)) */\n      add(0x24, mload(0x40))\n      tag_286\n      swap4\n      swap3\n      swap2\n      swap1\n      tag_287\n      jump\t// in\n    tag_286:\n      mload(0x40)\n      0x20\n      dup2\n      dup4\n      sub\n      sub\n      dup2\n      mstore\n      swap1\n      0x40\n      mstore\n      swap2\n      pop\n      0xe0\n      shl\n      0x20\n      dup3\n      add\n      dup1\n      mload\n      0xffffffffffffffffffffffffffffffffffffffffffffffffffffffff\n      dup4\n      dup2\n      dup4\n      and\n      or\n      dup4\n      mstore\n      pop\n      pop\n      pop\n      pop\n        /* \"@openzeppelin/contracts/token/ERC20/utils/SafeERC20.sol\":1718:1737  _callOptionalReturn */\n      tag_281\n        /* \"@openzeppelin/contracts/token/ERC20/utils/SafeERC20.sol\":1718:1799  _callOptionalReturn(token, abi.encodeCall(token.transferFrom, (from, to, value))) */\n      jump\t// in\n    tag_285:\n        /* \"@openzeppelin/contracts/token/ERC20/utils/SafeERC20.sol\":1618:1806  function safeTransferFrom(IERC20 token, address from, address to, uint256 value) internal {... */\n      pop\n      pop\n      pop\n      pop\n      jump\t// out\n        /* \"@openzeppelin/contracts/utils/Context.sol\":656:752  function _msgSender() internal view virtual returns (address) {... */\n    tag_268:\n        /* \"@openzeppelin/contracts/utils/Context.sol\":709:716  address */\n      0x00\n        /* \"@openzeppelin/contracts/utils/Context.sol\":735:745  msg.sender */\n      caller\n        /* \"@openzeppelin/contracts/utils/Context.sol\":728:745  return msg.sender */\n      swap1\n      pop\n        /* \"@openzeppelin/contracts/utils/Context.sol\":656:752  function _msgSender() internal view virtual returns (address) {... */\n      swap1\n      jump\t// out\n        /* \"@openzeppelin/contracts/token/ERC20/utils/SafeERC20.sol\":8370:9090  function _callOptionalReturn(IERC20 token, bytes memory data) private {... */\n    tag_281:\n        /* \"@openzeppelin/contracts/token/ERC20/utils/SafeERC20.sol\":8450:8468  uint256 returnSize */\n      0x00\n        /* \"@openzeppelin/contracts/token/ERC20/utils/SafeERC20.sol\":8478:8497  uint256 returnValue */\n      0x00\n        /* \"@openzeppelin/contracts/token/ERC20/utils/SafeERC20.sol\":8616:8620  0x20 */\n      0x20\n        /* \"@openzeppelin/contracts/token/ERC20/utils/SafeERC20.sol\":8613:8614  0 */\n      0x00\n        /* \"@openzeppelin/contracts/token/ERC20/utils/SafeERC20.sol\":8606:8610  data */\n      dup5\n        /* \"@openzeppelin/contracts/token/ERC20/utils/SafeERC20.sol\":8600:8611  mload(data) */\n      mload\n        /* \"@openzeppelin/contracts/token/ERC20/utils/SafeERC20.sol\":8593:8597  0x20 */\n      0x20\n        /* \"@openzeppelin/contracts/token/ERC20/utils/SafeERC20.sol\":8587:8591  data */\n      dup7\n        /* \"@openzeppelin/contracts/token/ERC20/utils/SafeERC20.sol\":8583:8598  add(data, 0x20) */\n      add\n        /* \"@openzeppelin/contracts/token/ERC20/utils/SafeERC20.sol\":8580:8581  0 */\n      0x00\n        /* \"@openzeppelin/contracts/token/ERC20/utils/SafeERC20.sol\":8573:8578  token */\n      dup9\n        /* \"@openzeppelin/contracts/token/ERC20/utils/SafeERC20.sol\":8566:8571  gas() */\n      gas\n        /* \"@openzeppelin/contracts/token/ERC20/utils/SafeERC20.sol\":8561:8621  call(gas(), token, 0, add(data, 0x20), mload(data), 0, 0x20) */\n      call\n        /* \"@openzeppelin/contracts/token/ERC20/utils/SafeERC20.sol\":8673:8680  success */\n      dup1\n        /* \"@openzeppelin/contracts/token/ERC20/utils/SafeERC20.sol\":8663:8839  if iszero(success) {... */\n      tag_290\n      jumpi\n        /* \"@openzeppelin/contracts/token/ERC20/utils/SafeERC20.sol\":8717:8721  0x40 */\n      0x40\n        /* \"@openzeppelin/contracts/token/ERC20/utils/SafeERC20.sol\":8711:8722  mload(0x40) */\n      mload\n        /* \"@openzeppelin/contracts/token/ERC20/utils/SafeERC20.sol\":8762:8778  returndatasize() */\n      returndatasize\n        /* \"@openzeppelin/contracts/token/ERC20/utils/SafeERC20.sol\":8759:8760  0 */\n      0x00\n        /* \"@openzeppelin/contracts/token/ERC20/utils/SafeERC20.sol\":8754:8757  ptr */\n      dup3\n        /* \"@openzeppelin/contracts/token/ERC20/utils/SafeERC20.sol\":8739:8779  returndatacopy(ptr, 0, returndatasize()) */\n      returndatacopy\n        /* \"@openzeppelin/contracts/token/ERC20/utils/SafeERC20.sol\":8808:8824  returndatasize() */\n      returndatasize\n        /* \"@openzeppelin/contracts/token/ERC20/utils/SafeERC20.sol\":8803:8806  ptr */\n      dup2\n        /* \"@openzeppelin/contracts/token/ERC20/utils/SafeERC20.sol\":8796:8825  revert(ptr, returndatasize()) */\n      revert\n        /* \"@openzeppelin/contracts/token/ERC20/utils/SafeERC20.sol\":8663:8839  if iszero(success) {... */\n    tag_290:\n        /* \"@openzeppelin/contracts/token/ERC20/utils/SafeERC20.sol\":8866:8882  returndatasize() */\n      returndatasize\n        /* \"@openzeppelin/contracts/token/ERC20/utils/SafeERC20.sol\":8852:8882  returnSize := returndatasize() */\n      swap3\n      pop\n        /* \"@openzeppelin/contracts/token/ERC20/utils/SafeERC20.sol\":8916:8917  0 */\n      0x00\n        /* \"@openzeppelin/contracts/token/ERC20/utils/SafeERC20.sol\":8910:8918  mload(0) */\n      mload\n        /* \"@openzeppelin/contracts/token/ERC20/utils/SafeERC20.sol\":8895:8918  returnValue := mload(0) */\n      swap2\n      pop\n        /* \"@openzeppelin/contracts/token/ERC20/utils/SafeERC20.sol\":8532:8928  {... */\n      pop\n        /* \"@openzeppelin/contracts/token/ERC20/utils/SafeERC20.sol\":8956:8957  0 */\n      0x00\n        /* \"@openzeppelin/contracts/token/ERC20/utils/SafeERC20.sol\":8942:8952  returnSize */\n      dup3\n        /* \"@openzeppelin/contracts/token/ERC20/utils/SafeERC20.sol\":8942:8957  returnSize == 0 */\n      eq\n        /* \"@openzeppelin/contracts/token/ERC20/utils/SafeERC20.sol\":8942:9010  returnSize == 0 ? address(token).code.length == 0 : returnValue != 1 */\n      tag_291\n      jumpi\n        /* \"@openzeppelin/contracts/token/ERC20/utils/SafeERC20.sol\":9009:9010  1 */\n      0x01\n        /* \"@openzeppelin/contracts/token/ERC20/utils/SafeERC20.sol\":8994:9005  returnValue */\n      dup2\n        /* \"@openzeppelin/contracts/token/ERC20/utils/SafeERC20.sol\":8994:9010  returnValue != 1 */\n      eq\n      iszero\n        /* \"@openzeppelin/contracts/token/ERC20/utils/SafeERC20.sol\":8942:9010  returnSize == 0 ? address(token).code.length == 0 : returnValue != 1 */\n      jump(tag_292)\n    tag_291:\n        /* \"@openzeppelin/contracts/token/ERC20/utils/SafeERC20.sol\":8990:8991  0 */\n      0x00\n        /* \"@openzeppelin/contracts/token/ERC20/utils/SafeERC20.sol\":8968:8973  token */\n      dup5\n        /* \"@openzeppelin/contracts/token/ERC20/utils/SafeERC20.sol\":8960:8986  address(token).code.length */\n      0xffffffffffffffffffffffffffffffffffffffff\n      and\n      extcodesize\n        /* \"@openzeppelin/contracts/token/ERC20/utils/SafeERC20.sol\":8960:8991  address(token).code.length == 0 */\n      eq\n        /* \"@openzeppelin/contracts/token/ERC20/utils/SafeERC20.sol\":8942:9010  returnSize == 0 ? address(token).code.length == 0 : returnValue != 1 */\n    tag_292:\n        /* \"@openzeppelin/contracts/token/ERC20/utils/SafeERC20.sol\":8938:9084  if (returnSize == 0 ? address(token).code.length == 0 : returnValue != 1) {... */\n      iszero\n      tag_293\n      jumpi\n        /* \"@openzeppelin/contracts/token/ERC20/utils/SafeERC20.sol\":9066:9071  token */\n      dup4\n        /* \"@openzeppelin/contracts/token/ERC20/utils/SafeERC20.sol\":9033:9073  SafeERC20FailedOperation(address(token)) */\n      mload(0x40)\n      0x5274afe700000000000000000000000000000000000000000000000000000000\n      dup2\n      mstore\n      0x04\n      add\n      tag_294\n      swap2\n      swap1\n      tag_51\n      jump\t// in\n    tag_294:\n      mload(0x40)\n      dup1\n      swap2\n      sub\n      swap1\n      revert\n        /* \"@openzeppelin/contracts/token/ERC20/utils/SafeERC20.sol\":8938:9084  if (returnSize == 0 ? address(token).code.length == 0 : returnValue != 1) {... */\n    tag_293:\n        /* \"@openzeppelin/contracts/token/ERC20/utils/SafeERC20.sol\":8440:9090  {... */\n      pop\n      pop\n        /* \"@openzeppelin/contracts/token/ERC20/utils/SafeERC20.sol\":8370:9090  function _callOptionalReturn(IERC20 token, bytes memory data) private {... */\n      pop\n      pop\n      jump\t// out\n        /* \"#utility.yul\":88:205   */\n    tag_296:\n        /* \"#utility.yul\":197:198   */\n      0x00\n        /* \"#utility.yul\":194:195   */\n      0x00\n        /* \"#utility.yul\":187:199   */\n      revert\n        /* \"#utility.yul\":334:411   */\n    tag_298:\n        /* \"#utility.yul\":371:378   */\n      0x00\n        /* \"#utility.yul\":400:405   */\n      dup2\n        /* \"#utility.yul\":389:405   */\n      swap1\n      pop\n        /* \"#utility.yul\":334:411   */\n      swap2\n      swap1\n      pop\n      jump\t// out\n        /* \"#utility.yul\":417:539   */\n    tag_299:\n        /* \"#utility.yul\":490:514   */\n      tag_347\n        /* \"#utility.yul\":508:513   */\n      dup2\n        /* \"#utility.yul\":490:514   */\n      tag_298\n      jump\t// in\n    tag_347:\n        /* \"#utility.yul\":483:488   */\n      dup2\n        /* \"#utility.yul\":480:515   */\n      eq\n        /* \"#utility.yul\":470:533   */\n      tag_348\n      jumpi\n        /* \"#utility.yul\":529:530   */\n      0x00\n        /* \"#utility.yul\":526:527   */\n      0x00\n        /* \"#utility.yul\":519:531   */\n      revert\n        /* \"#utility.yul\":470:533   */\n    tag_348:\n        /* \"#utility.yul\":417:539   */\n      pop\n      jump\t// out\n        /* \"#utility.yul\":545:684   */\n    tag_300:\n        /* \"#utility.yul\":591:596   */\n      0x00\n        /* \"#utility.yul\":629:635   */\n      dup2\n        /* \"#utility.yul\":616:636   */\n      calldataload\n        /* \"#utility.yul\":607:636   */\n      swap1\n      pop\n        /* \"#utility.yul\":645:678   */\n      tag_350\n        /* \"#utility.yul\":672:677   */\n      dup2\n        /* \"#utility.yul\":645:678   */\n      tag_299\n      jump\t// in\n    tag_350:\n        /* \"#utility.yul\":545:684   */\n      swap3\n      swap2\n      pop\n      pop\n      jump\t// out\n        /* \"#utility.yul\":690:780   */\n    tag_301:\n        /* \"#utility.yul\":724:731   */\n      0x00\n        /* \"#utility.yul\":767:772   */\n      dup2\n        /* \"#utility.yul\":760:773   */\n      iszero\n        /* \"#utility.yul\":753:774   */\n      iszero\n        /* \"#utility.yul\":742:774   */\n      swap1\n      pop\n        /* \"#utility.yul\":690:780   */\n      swap2\n      swap1\n      pop\n      jump\t// out\n        /* \"#utility.yul\":786:902   */\n    tag_302:\n        /* \"#utility.yul\":856:877   */\n      tag_353\n        /* \"#utility.yul\":871:876   */\n      dup2\n        /* \"#utility.yul\":856:877   */\n      tag_301\n      jump\t// in\n    tag_353:\n        /* \"#utility.yul\":849:854   */\n      dup2\n        /* \"#utility.yul\":846:878   */\n      eq\n        /* \"#utility.yul\":836:896   */\n      tag_354\n      jumpi\n        /* \"#utility.yul\":892:893   */\n      0x00\n        /* \"#utility.yul\":889:890   */\n      0x00\n        /* \"#utility.yul\":882:894   */\n      revert\n        /* \"#utility.yul\":836:896   */\n    tag_354:\n        /* \"#utility.yul\":786:902   */\n      pop\n      jump\t// out\n        /* \"#utility.yul\":908:1041   */\n    tag_303:\n        /* \"#utility.yul\":951:956   */\n      0x00\n        /* \"#utility.yul\":989:995   */\n      dup2\n        /* \"#utility.yul\":976:996   */\n      calldataload\n        /* \"#utility.yul\":967:996   */\n      swap1\n      pop\n        /* \"#utility.yul\":1005:1035   */\n      tag_356\n        /* \"#utility.yul\":1029:1034   */\n      dup2\n        /* \"#utility.yul\":1005:1035   */\n      tag_302\n      jump\t// in\n    tag_356:\n        /* \"#utility.yul\":908:1041   */\n      swap3\n      swap2\n      pop\n      pop\n      jump\t// out\n        /* \"#utility.yul\":1047:1515   */\n    tag_28:\n        /* \"#utility.yul\":1112:1118   */\n      0x00\n        /* \"#utility.yul\":1120:1126   */\n      0x00\n        /* \"#utility.yul\":1169:1171   */\n      0x40\n        /* \"#utility.yul\":1157:1166   */\n      dup4\n        /* \"#utility.yul\":1148:1155   */\n      dup6\n        /* \"#utility.yul\":1144:1167   */\n      sub\n        /* \"#utility.yul\":1140:1172   */\n      slt\n        /* \"#utility.yul\":1137:1256   */\n      iszero\n      tag_358\n      jumpi\n        /* \"#utility.yul\":1175:1254   */\n      tag_359\n      tag_296\n      jump\t// in\n    tag_359:\n        /* \"#utility.yul\":1137:1256   */\n    tag_358:\n        /* \"#utility.yul\":1295:1296   */\n      0x00\n        /* \"#utility.yul\":1320:1373   */\n      tag_360\n        /* \"#utility.yul\":1365:1372   */\n      dup6\n        /* \"#utility.yul\":1356:1362   */\n      dup3\n        /* \"#utility.yul\":1345:1354   */\n      dup7\n        /* \"#utility.yul\":1341:1363   */\n      add\n        /* \"#utility.yul\":1320:1373   */\n      tag_300\n      jump\t// in\n    tag_360:\n        /* \"#utility.yul\":1310:1373   */\n      swap3\n      pop\n        /* \"#utility.yul\":1266:1383   */\n      pop\n        /* \"#utility.yul\":1422:1424   */\n      0x20\n        /* \"#utility.yul\":1448:1498   */\n      tag_361\n        /* \"#utility.yul\":1490:1497   */\n      dup6\n        /* \"#utility.yul\":1481:1487   */\n      dup3\n        /* \"#utility.yul\":1470:1479   */\n      dup7\n        /* \"#utility.yul\":1466:1488   */\n      add\n        /* \"#utility.yul\":1448:1498   */\n      tag_303\n      jump\t// in\n    tag_361:\n        /* \"#utility.yul\":1438:1498   */\n      swap2\n      pop\n        /* \"#utility.yul\":1393:1508   */\n      pop\n        /* \"#utility.yul\":1047:1515   */\n      swap3\n      pop\n      swap3\n      swap1\n      pop\n      jump\t// out\n        /* \"#utility.yul\":1521:1850   */\n    tag_32:\n        /* \"#utility.yul\":1580:1586   */\n      0x00\n        /* \"#utility.yul\":1629:1631   */\n      0x20\n        /* \"#utility.yul\":1617:1626   */\n      dup3\n        /* \"#utility.yul\":1608:1615   */\n      dup5\n        /* \"#utility.yul\":1604:1627   */\n      sub\n        /* \"#utility.yul\":1600:1632   */\n      slt\n        /* \"#utility.yul\":1597:1716   */\n      iszero\n      tag_363\n      jumpi\n        /* \"#utility.yul\":1635:1714   */\n      tag_364\n      tag_296\n      jump\t// in\n    tag_364:\n        /* \"#utility.yul\":1597:1716   */\n    tag_363:\n        /* \"#utility.yul\":1755:1756   */\n      0x00\n        /* \"#utility.yul\":1780:1833   */\n      tag_365\n        /* \"#utility.yul\":1825:1832   */\n      dup5\n        /* \"#utility.yul\":1816:1822   */\n      dup3\n        /* \"#utility.yul\":1805:1814   */\n      dup6\n        /* \"#utility.yul\":1801:1823   */\n      add\n        /* \"#utility.yul\":1780:1833   */\n      tag_300\n      jump\t// in\n    tag_365:\n        /* \"#utility.yul\":1770:1833   */\n      swap2\n      pop\n        /* \"#utility.yul\":1726:1843   */\n      pop\n        /* \"#utility.yul\":1521:1850   */\n      swap3\n      swap2\n      pop\n      pop\n      jump\t// out\n        /* \"#utility.yul\":1856:1982   */\n    tag_304:\n        /* \"#utility.yul\":1893:1900   */\n      0x00\n        /* \"#utility.yul\":1933:1975   */\n      0xffffffffffffffffffffffffffffffffffffffff\n        /* \"#utility.yul\":1926:1931   */\n      dup3\n        /* \"#utility.yul\":1922:1976   */\n      and\n        /* \"#utility.yul\":1911:1976   */\n      swap1\n      pop\n        /* \"#utility.yul\":1856:1982   */\n      swap2\n      swap1\n      pop\n      jump\t// out\n        /* \"#utility.yul\":1988:2084   */\n    tag_305:\n        /* \"#utility.yul\":2025:2032   */\n      0x00\n        /* \"#utility.yul\":2054:2078   */\n      tag_368\n        /* \"#utility.yul\":2072:2077   */\n      dup3\n        /* \"#utility.yul\":2054:2078   */\n      tag_304\n      jump\t// in\n    tag_368:\n        /* \"#utility.yul\":2043:2078   */\n      swap1\n      pop\n        /* \"#utility.yul\":1988:2084   */\n      swap2\n      swap1\n      pop\n      jump\t// out\n        /* \"#utility.yul\":2090:2212   */\n    tag_306:\n        /* \"#utility.yul\":2163:2187   */\n      tag_370\n        /* \"#utility.yul\":2181:2186   */\n      dup2\n        /* \"#utility.yul\":2163:2187   */\n      tag_305\n      jump\t// in\n    tag_370:\n        /* \"#utility.yul\":2156:2161   */\n      dup2\n        /* \"#utility.yul\":2153:2188   */\n      eq\n        /* \"#utility.yul\":2143:2206   */\n      tag_371\n      jumpi\n        /* \"#utility.yul\":2202:2203   */\n      0x00\n        /* \"#utility.yul\":2199:2200   */\n      0x00\n        /* \"#utility.yul\":2192:2204   */\n      revert\n        /* \"#utility.yul\":2143:2206   */\n    tag_371:\n        /* \"#utility.yul\":2090:2212   */\n      pop\n      jump\t// out\n        /* \"#utility.yul\":2218:2357   */\n    tag_307:\n        /* \"#utility.yul\":2264:2269   */\n      0x00\n        /* \"#utility.yul\":2302:2308   */\n      dup2\n        /* \"#utility.yul\":2289:2309   */\n      calldataload\n        /* \"#utility.yul\":2280:2309   */\n      swap1\n      pop\n        /* \"#utility.yul\":2318:2351   */\n      tag_373\n        /* \"#utility.yul\":2345:2350   */\n      dup2\n        /* \"#utility.yul\":2318:2351   */\n      tag_306\n      jump\t// in\n    tag_373:\n        /* \"#utility.yul\":2218:2357   */\n      swap3\n      swap2\n      pop\n      pop\n      jump\t// out\n        /* \"#utility.yul\":2363:2837   */\n    tag_36:\n        /* \"#utility.yul\":2431:2437   */\n      0x00\n        /* \"#utility.yul\":2439:2445   */\n      0x00\n        /* \"#utility.yul\":2488:2490   */\n      0x40\n        /* \"#utility.yul\":2476:2485   */\n      dup4\n        /* \"#utility.yul\":2467:2474   */\n      dup6\n        /* \"#utility.yul\":2463:2486   */\n      sub\n        /* \"#utility.yul\":2459:2491   */\n      slt\n        /* \"#utility.yul\":2456:2575   */\n      iszero\n      tag_375\n      jumpi\n        /* \"#utility.yul\":2494:2573   */\n      tag_376\n      tag_296\n      jump\t// in\n    tag_376:\n        /* \"#utility.yul\":2456:2575   */\n    tag_375:\n        /* \"#utility.yul\":2614:2615   */\n      0x00\n        /* \"#utility.yul\":2639:2692   */\n      tag_377\n        /* \"#utility.yul\":2684:2691   */\n      dup6\n        /* \"#utility.yul\":2675:2681   */\n      dup3\n        /* \"#utility.yul\":2664:2673   */\n      dup7\n        /* \"#utility.yul\":2660:2682   */\n      add\n        /* \"#utility.yul\":2639:2692   */\n      tag_307\n      jump\t// in\n    tag_377:\n        /* \"#utility.yul\":2629:2692   */\n      swap3\n      pop\n        /* \"#utility.yul\":2585:2702   */\n      pop\n        /* \"#utility.yul\":2741:2743   */\n      0x20\n        /* \"#utility.yul\":2767:2820   */\n      tag_378\n        /* \"#utility.yul\":2812:2819   */\n      dup6\n        /* \"#utility.yul\":2803:2809   */\n      dup3\n        /* \"#utility.yul\":2792:2801   */\n      dup7\n        /* \"#utility.yul\":2788:2810   */\n      add\n        /* \"#utility.yul\":2767:2820   */\n      tag_300\n      jump\t// in\n    tag_378:\n        /* \"#utility.yul\":2757:2820   */\n      swap2\n      pop\n        /* \"#utility.yul\":2712:2830   */\n      pop\n        /* \"#utility.yul\":2363:2837   */\n      swap3\n      pop\n      swap3\n      swap1\n      pop\n      jump\t// out\n        /* \"#utility.yul\":2843:2961   */\n    tag_308:\n        /* \"#utility.yul\":2930:2954   */\n      tag_380\n        /* \"#utility.yul\":2948:2953   */\n      dup2\n        /* \"#utility.yul\":2930:2954   */\n      tag_298\n      jump\t// in\n    tag_380:\n        /* \"#utility.yul\":2925:2928   */\n      dup3\n        /* \"#utility.yul\":2918:2955   */\n      mstore\n        /* \"#utility.yul\":2843:2961   */\n      pop\n      pop\n      jump\t// out\n        /* \"#utility.yul\":2967:3189   */\n    tag_39:\n        /* \"#utility.yul\":3060:3064   */\n      0x00\n        /* \"#utility.yul\":3098:3100   */\n      0x20\n        /* \"#utility.yul\":3087:3096   */\n      dup3\n        /* \"#utility.yul\":3083:3101   */\n      add\n        /* \"#utility.yul\":3075:3101   */\n      swap1\n      pop\n        /* \"#utility.yul\":3111:3182   */\n      tag_382\n        /* \"#utility.yul\":3179:3180   */\n      0x00\n        /* \"#utility.yul\":3168:3177   */\n      dup4\n        /* \"#utility.yul\":3164:3181   */\n      add\n        /* \"#utility.yul\":3155:3161   */\n      dup5\n        /* \"#utility.yul\":3111:3182   */\n      tag_308\n      jump\t// in\n    tag_382:\n        /* \"#utility.yul\":2967:3189   */\n      swap3\n      swap2\n      pop\n      pop\n      jump\t// out\n        /* \"#utility.yul\":3195:3313   */\n    tag_309:\n        /* \"#utility.yul\":3282:3306   */\n      tag_384\n        /* \"#utility.yul\":3300:3305   */\n      dup2\n        /* \"#utility.yul\":3282:3306   */\n      tag_305\n      jump\t// in\n    tag_384:\n        /* \"#utility.yul\":3277:3280   */\n      dup3\n        /* \"#utility.yul\":3270:3307   */\n      mstore\n        /* \"#utility.yul\":3195:3313   */\n      pop\n      pop\n      jump\t// out\n        /* \"#utility.yul\":3319:3428   */\n    tag_310:\n        /* \"#utility.yul\":3400:3421   */\n      tag_386\n        /* \"#utility.yul\":3415:3420   */\n      dup2\n        /* \"#utility.yul\":3400:3421   */\n      tag_301\n      jump\t// in\n    tag_386:\n        /* \"#utility.yul\":3395:3398   */\n      dup3\n        /* \"#utility.yul\":3388:3422   */\n      mstore\n        /* \"#utility.yul\":3319:3428   */\n      pop\n      pop\n      jump\t// out\n        /* \"#utility.yul\":3434:4086   */\n    tag_47:\n        /* \"#utility.yul\":3633:3637   */\n      0x00\n        /* \"#utility.yul\":3671:3674   */\n      0xa0\n        /* \"#utility.yul\":3660:3669   */\n      dup3\n        /* \"#utility.yul\":3656:3675   */\n      add\n        /* \"#utility.yul\":3648:3675   */\n      swap1\n      pop\n        /* \"#utility.yul\":3685:3756   */\n      tag_388\n        /* \"#utility.yul\":3753:3754   */\n      0x00\n        /* \"#utility.yul\":3742:3751   */\n      dup4\n        /* \"#utility.yul\":3738:3755   */\n      add\n        /* \"#utility.yul\":3729:3735   */\n      dup9\n        /* \"#utility.yul\":3685:3756   */\n      tag_309\n      jump\t// in\n    tag_388:\n        /* \"#utility.yul\":3766:3838   */\n      tag_389\n        /* \"#utility.yul\":3834:3836   */\n      0x20\n        /* \"#utility.yul\":3823:3832   */\n      dup4\n        /* \"#utility.yul\":3819:3837   */\n      add\n        /* \"#utility.yul\":3810:3816   */\n      dup8\n        /* \"#utility.yul\":3766:3838   */\n      tag_308\n      jump\t// in\n    tag_389:\n        /* \"#utility.yul\":3848:3920   */\n      tag_390\n        /* \"#utility.yul\":3916:3918   */\n      0x40\n        /* \"#utility.yul\":3905:3914   */\n      dup4\n        /* \"#utility.yul\":3901:3919   */\n      add\n        /* \"#utility.yul\":3892:3898   */\n      dup7\n        /* \"#utility.yul\":3848:3920   */\n      tag_308\n      jump\t// in\n    tag_390:\n        /* \"#utility.yul\":3930:4002   */\n      tag_391\n        /* \"#utility.yul\":3998:4000   */\n      0x60\n        /* \"#utility.yul\":3987:3996   */\n      dup4\n        /* \"#utility.yul\":3983:4001   */\n      add\n        /* \"#utility.yul\":3974:3980   */\n      dup6\n        /* \"#utility.yul\":3930:4002   */\n      tag_308\n      jump\t// in\n    tag_391:\n        /* \"#utility.yul\":4012:4079   */\n      tag_392\n        /* \"#utility.yul\":4074:4077   */\n      0x80\n        /* \"#utility.yul\":4063:4072   */\n      dup4\n        /* \"#utility.yul\":4059:4078   */\n      add\n        /* \"#utility.yul\":4050:4056   */\n      dup5\n        /* \"#utility.yul\":4012:4079   */\n      tag_310\n      jump\t// in\n    tag_392:\n        /* \"#utility.yul\":3434:4086   */\n      swap7\n      swap6\n      pop\n      pop\n      pop\n      pop\n      pop\n      pop\n      jump\t// out\n        /* \"#utility.yul\":4092:4314   */\n    tag_51:\n        /* \"#utility.yul\":4185:4189   */\n      0x00\n        /* \"#utility.yul\":4223:4225   */\n      0x20\n        /* \"#utility.yul\":4212:4221   */\n      dup3\n        /* \"#utility.yul\":4208:4226   */\n      add\n        /* \"#utility.yul\":4200:4226   */\n      swap1\n      pop\n        /* \"#utility.yul\":4236:4307   */\n      tag_394\n        /* \"#utility.yul\":4304:4305   */\n      0x00\n        /* \"#utility.yul\":4293:4302   */\n      dup4\n        /* \"#utility.yul\":4289:4306   */\n      add\n        /* \"#utility.yul\":4280:4286   */\n      dup5\n        /* \"#utility.yul\":4236:4307   */\n      tag_309\n      jump\t// in\n    tag_394:\n        /* \"#utility.yul\":4092:4314   */\n      swap3\n      swap2\n      pop\n      pop\n      jump\t// out\n        /* \"#utility.yul\":4320:4380   */\n    tag_311:\n        /* \"#utility.yul\":4348:4351   */\n      0x00\n        /* \"#utility.yul\":4369:4374   */\n      dup2\n        /* \"#utility.yul\":4362:4374   */\n      swap1\n      pop\n        /* \"#utility.yul\":4320:4380   */\n      swap2\n      swap1\n      pop\n      jump\t// out\n        /* \"#utility.yul\":4386:4528   */\n    tag_312:\n        /* \"#utility.yul\":4436:4445   */\n      0x00\n        /* \"#utility.yul\":4469:4522   */\n      tag_397\n        /* \"#utility.yul\":4487:4521   */\n      tag_398\n        /* \"#utility.yul\":4496:4520   */\n      tag_399\n        /* \"#utility.yul\":4514:4519   */\n      dup5\n        /* \"#utility.yul\":4496:4520   */\n      tag_304\n      jump\t// in\n    tag_399:\n        /* \"#utility.yul\":4487:4521   */\n      tag_311\n      jump\t// in\n    tag_398:\n        /* \"#utility.yul\":4469:4522   */\n      tag_304\n      jump\t// in\n    tag_397:\n        /* \"#utility.yul\":4456:4522   */\n      swap1\n      pop\n        /* \"#utility.yul\":4386:4528   */\n      swap2\n      swap1\n      pop\n      jump\t// out\n        /* \"#utility.yul\":4534:4660   */\n    tag_313:\n        /* \"#utility.yul\":4584:4593   */\n      0x00\n        /* \"#utility.yul\":4617:4654   */\n      tag_401\n        /* \"#utility.yul\":4648:4653   */\n      dup3\n        /* \"#utility.yul\":4617:4654   */\n      tag_312\n      jump\t// in\n    tag_401:\n        /* \"#utility.yul\":4604:4654   */\n      swap1\n      pop\n        /* \"#utility.yul\":4534:4660   */\n      swap2\n      swap1\n      pop\n      jump\t// out\n        /* \"#utility.yul\":4666:4806   */\n    tag_314:\n        /* \"#utility.yul\":4730:4739   */\n      0x00\n        /* \"#utility.yul\":4763:4800   */\n      tag_403\n        /* \"#utility.yul\":4794:4799   */\n      dup3\n        /* \"#utility.yul\":4763:4800   */\n      tag_313\n      jump\t// in\n    tag_403:\n        /* \"#utility.yul\":4750:4800   */\n      swap1\n      pop\n        /* \"#utility.yul\":4666:4806   */\n      swap2\n      swap1\n      pop\n      jump\t// out\n        /* \"#utility.yul\":4812:4971   */\n    tag_315:\n        /* \"#utility.yul\":4913:4964   */\n      tag_405\n        /* \"#utility.yul\":4958:4963   */\n      dup2\n        /* \"#utility.yul\":4913:4964   */\n      tag_314\n      jump\t// in\n    tag_405:\n        /* \"#utility.yul\":4908:4911   */\n      dup3\n        /* \"#utility.yul\":4901:4965   */\n      mstore\n        /* \"#utility.yul\":4812:4971   */\n      pop\n      pop\n      jump\t// out\n        /* \"#utility.yul\":4977:5227   */\n    tag_57:\n        /* \"#utility.yul\":5084:5088   */\n      0x00\n        /* \"#utility.yul\":5122:5124   */\n      0x20\n        /* \"#utility.yul\":5111:5120   */\n      dup3\n        /* \"#utility.yul\":5107:5125   */\n      add\n        /* \"#utility.yul\":5099:5125   */\n      swap1\n      pop\n        /* \"#utility.yul\":5135:5220   */\n      tag_407\n        /* \"#utility.yul\":5217:5218   */\n      0x00\n        /* \"#utility.yul\":5206:5215   */\n      dup4\n        /* \"#utility.yul\":5202:5219   */\n      add\n        /* \"#utility.yul\":5193:5199   */\n      dup5\n        /* \"#utility.yul\":5135:5220   */\n      tag_315\n      jump\t// in\n    tag_407:\n        /* \"#utility.yul\":4977:5227   */\n      swap3\n      swap2\n      pop\n      pop\n      jump\t// out\n        /* \"#utility.yul\":5233:5707   */\n    tag_60:\n        /* \"#utility.yul\":5301:5307   */\n      0x00\n        /* \"#utility.yul\":5309:5315   */\n      0x00\n        /* \"#utility.yul\":5358:5360   */\n      0x40\n        /* \"#utility.yul\":5346:5355   */\n      dup4\n        /* \"#utility.yul\":5337:5344   */\n      dup6\n        /* \"#utility.yul\":5333:5356   */\n      sub\n        /* \"#utility.yul\":5329:5361   */\n      slt\n        /* \"#utility.yul\":5326:5445   */\n      iszero\n      tag_409\n      jumpi\n        /* \"#utility.yul\":5364:5443   */\n      tag_410\n      tag_296\n      jump\t// in\n    tag_410:\n        /* \"#utility.yul\":5326:5445   */\n    tag_409:\n        /* \"#utility.yul\":5484:5485   */\n      0x00\n        /* \"#utility.yul\":5509:5562   */\n      tag_411\n        /* \"#utility.yul\":5554:5561   */\n      dup6\n        /* \"#utility.yul\":5545:5551   */\n      dup3\n        /* \"#utility.yul\":5534:5543   */\n      dup7\n        /* \"#utility.yul\":5530:5552   */\n      add\n        /* \"#utility.yul\":5509:5562   */\n      tag_300\n      jump\t// in\n    tag_411:\n        /* \"#utility.yul\":5499:5562   */\n      swap3\n      pop\n        /* \"#utility.yul\":5455:5572   */\n      pop\n        /* \"#utility.yul\":5611:5613   */\n      0x20\n        /* \"#utility.yul\":5637:5690   */\n      tag_412\n        /* \"#utility.yul\":5682:5689   */\n      dup6\n        /* \"#utility.yul\":5673:5679   */\n      dup3\n        /* \"#utility.yul\":5662:5671   */\n      dup7\n        /* \"#utility.yul\":5658:5680   */\n      add\n        /* \"#utility.yul\":5637:5690   */\n      tag_300\n      jump\t// in\n    tag_412:\n        /* \"#utility.yul\":5627:5690   */\n      swap2\n      pop\n        /* \"#utility.yul\":5582:5700   */\n      pop\n        /* \"#utility.yul\":5233:5707   */\n      swap3\n      pop\n      swap3\n      swap1\n      pop\n      jump\t// out\n        /* \"#utility.yul\":5713:6042   */\n    tag_75:\n        /* \"#utility.yul\":5772:5778   */\n      0x00\n        /* \"#utility.yul\":5821:5823   */\n      0x20\n        /* \"#utility.yul\":5809:5818   */\n      dup3\n        /* \"#utility.yul\":5800:5807   */\n      dup5\n        /* \"#utility.yul\":5796:5819   */\n      sub\n        /* \"#utility.yul\":5792:5824   */\n      slt\n        /* \"#utility.yul\":5789:5908   */\n      iszero\n      tag_414\n      jumpi\n        /* \"#utility.yul\":5827:5906   */\n      tag_415\n      tag_296\n      jump\t// in\n    tag_415:\n        /* \"#utility.yul\":5789:5908   */\n    tag_414:\n        /* \"#utility.yul\":5947:5948   */\n      0x00\n        /* \"#utility.yul\":5972:6025   */\n      tag_416\n        /* \"#utility.yul\":6017:6024   */\n      dup5\n        /* \"#utility.yul\":6008:6014   */\n      dup3\n        /* \"#utility.yul\":5997:6006   */\n      dup6\n        /* \"#utility.yul\":5993:6015   */\n      add\n        /* \"#utility.yul\":5972:6025   */\n      tag_307\n      jump\t// in\n    tag_416:\n        /* \"#utility.yul\":5962:6025   */\n      swap2\n      pop\n        /* \"#utility.yul\":5918:6035   */\n      pop\n        /* \"#utility.yul\":5713:6042   */\n      swap3\n      swap2\n      pop\n      pop\n      jump\t// out\n        /* \"#utility.yul\":6048:6700   */\n    tag_84:\n        /* \"#utility.yul\":6247:6251   */\n      0x00\n        /* \"#utility.yul\":6285:6288   */\n      0xa0\n        /* \"#utility.yul\":6274:6283   */\n      dup3\n        /* \"#utility.yul\":6270:6289   */\n      add\n        /* \"#utility.yul\":6262:6289   */\n      swap1\n      pop\n        /* \"#utility.yul\":6299:6370   */\n      tag_418\n        /* \"#utility.yul\":6367:6368   */\n      0x00\n        /* \"#utility.yul\":6356:6365   */\n      dup4\n        /* \"#utility.yul\":6352:6369   */\n      add\n        /* \"#utility.yul\":6343:6349   */\n      dup9\n        /* \"#utility.yul\":6299:6370   */\n      tag_308\n      jump\t// in\n    tag_418:\n        /* \"#utility.yul\":6380:6452   */\n      tag_419\n        /* \"#utility.yul\":6448:6450   */\n      0x20\n        /* \"#utility.yul\":6437:6446   */\n      dup4\n        /* \"#utility.yul\":6433:6451   */\n      add\n        /* \"#utility.yul\":6424:6430   */\n      dup8\n        /* \"#utility.yul\":6380:6452   */\n      tag_308\n      jump\t// in\n    tag_419:\n        /* \"#utility.yul\":6462:6534   */\n      tag_420\n        /* \"#utility.yul\":6530:6532   */\n      0x40\n        /* \"#utility.yul\":6519:6528   */\n      dup4\n        /* \"#utility.yul\":6515:6533   */\n      add\n        /* \"#utility.yul\":6506:6512   */\n      dup7\n        /* \"#utility.yul\":6462:6534   */\n      tag_308\n      jump\t// in\n    tag_420:\n        /* \"#utility.yul\":6544:6616   */\n      tag_421\n        /* \"#utility.yul\":6612:6614   */\n      0x60\n        /* \"#utility.yul\":6601:6610   */\n      dup4\n        /* \"#utility.yul\":6597:6615   */\n      add\n        /* \"#utility.yul\":6588:6594   */\n      dup6\n        /* \"#utility.yul\":6544:6616   */\n      tag_308\n      jump\t// in\n    tag_421:\n        /* \"#utility.yul\":6626:6693   */\n      tag_422\n        /* \"#utility.yul\":6688:6691   */\n      0x80\n        /* \"#utility.yul\":6677:6686   */\n      dup4\n        /* \"#utility.yul\":6673:6692   */\n      add\n        /* \"#utility.yul\":6664:6670   */\n      dup5\n        /* \"#utility.yul\":6626:6693   */\n      tag_310\n      jump\t// in\n    tag_422:\n        /* \"#utility.yul\":6048:6700   */\n      swap7\n      swap6\n      pop\n      pop\n      pop\n      pop\n      pop\n      pop\n      jump\t// out\n        /* \"#utility.yul\":6706:7471   */\n    tag_93:\n        /* \"#utility.yul\":6792:6798   */\n      0x00\n        /* \"#utility.yul\":6800:6806   */\n      0x00\n        /* \"#utility.yul\":6808:6814   */\n      0x00\n        /* \"#utility.yul\":6816:6822   */\n      0x00\n        /* \"#utility.yul\":6865:6868   */\n      0x80\n        /* \"#utility.yul\":6853:6862   */\n      dup6\n        /* \"#utility.yul\":6844:6851   */\n      dup8\n        /* \"#utility.yul\":6840:6863   */\n      sub\n        /* \"#utility.yul\":6836:6869   */\n      slt\n        /* \"#utility.yul\":6833:6953   */\n      iszero\n      tag_424\n      jumpi\n        /* \"#utility.yul\":6872:6951   */\n      tag_425\n      tag_296\n      jump\t// in\n    tag_425:\n        /* \"#utility.yul\":6833:6953   */\n    tag_424:\n        /* \"#utility.yul\":6992:6993   */\n      0x00\n        /* \"#utility.yul\":7017:7070   */\n      tag_426\n        /* \"#utility.yul\":7062:7069   */\n      dup8\n        /* \"#utility.yul\":7053:7059   */\n      dup3\n        /* \"#utility.yul\":7042:7051   */\n      dup9\n        /* \"#utility.yul\":7038:7060   */\n      add\n        /* \"#utility.yul\":7017:7070   */\n      tag_307\n      jump\t// in\n    tag_426:\n        /* \"#utility.yul\":7007:7070   */\n      swap5\n      pop\n        /* \"#utility.yul\":6963:7080   */\n      pop\n        /* \"#utility.yul\":7119:7121   */\n      0x20\n        /* \"#utility.yul\":7145:7198   */\n      tag_427\n        /* \"#utility.yul\":7190:7197   */\n      dup8\n        /* \"#utility.yul\":7181:7187   */\n      dup3\n        /* \"#utility.yul\":7170:7179   */\n      dup9\n        /* \"#utility.yul\":7166:7188   */\n      add\n        /* \"#utility.yul\":7145:7198   */\n      tag_300\n      jump\t// in\n    tag_427:\n        /* \"#utility.yul\":7135:7198   */\n      swap4\n      pop\n        /* \"#utility.yul\":7090:7208   */\n      pop\n        /* \"#utility.yul\":7247:7249   */\n      0x40\n        /* \"#utility.yul\":7273:7326   */\n      tag_428\n        /* \"#utility.yul\":7318:7325   */\n      dup8\n        /* \"#utility.yul\":7309:7315   */\n      dup3\n        /* \"#utility.yul\":7298:7307   */\n      dup9\n        /* \"#utility.yul\":7294:7316   */\n      add\n        /* \"#utility.yul\":7273:7326   */\n      tag_300\n      jump\t// in\n    tag_428:\n        /* \"#utility.yul\":7263:7326   */\n      swap3\n      pop\n        /* \"#utility.yul\":7218:7336   */\n      pop\n        /* \"#utility.yul\":7375:7377   */\n      0x60\n        /* \"#utility.yul\":7401:7454   */\n      tag_429\n        /* \"#utility.yul\":7446:7453   */\n      dup8\n        /* \"#utility.yul\":7437:7443   */\n      dup3\n        /* \"#utility.yul\":7426:7435   */\n      dup9\n        /* \"#utility.yul\":7422:7444   */\n      add\n        /* \"#utility.yul\":7401:7454   */\n      tag_300\n      jump\t// in\n    tag_429:\n        /* \"#utility.yul\":7391:7454   */\n      swap2\n      pop\n        /* \"#utility.yul\":7346:7464   */\n      pop\n        /* \"#utility.yul\":6706:7471   */\n      swap3\n      swap6\n      swap2\n      swap5\n      pop\n      swap3\n      pop\n      jump\t// out\n        /* \"#utility.yul\":7477:7646   */\n    tag_316:\n        /* \"#utility.yul\":7561:7572   */\n      0x00\n        /* \"#utility.yul\":7595:7601   */\n      dup3\n        /* \"#utility.yul\":7590:7593   */\n      dup3\n        /* \"#utility.yul\":7583:7602   */\n      mstore\n        /* \"#utility.yul\":7635:7639   */\n      0x20\n        /* \"#utility.yul\":7630:7633   */\n      dup3\n        /* \"#utility.yul\":7626:7640   */\n      add\n        /* \"#utility.yul\":7611:7640   */\n      swap1\n      pop\n        /* \"#utility.yul\":7477:7646   */\n      swap3\n      swap2\n      pop\n      pop\n      jump\t// out\n        /* \"#utility.yul\":7652:7820   */\n    tag_317:\n        /* \"#utility.yul\":7792:7812   */\n      0x496e76616c6964207061636b6167652049440000000000000000000000000000\n        /* \"#utility.yul\":7788:7789   */\n      0x00\n        /* \"#utility.yul\":7780:7786   */\n      dup3\n        /* \"#utility.yul\":7776:7790   */\n      add\n        /* \"#utility.yul\":7769:7813   */\n      mstore\n        /* \"#utility.yul\":7652:7820   */\n      pop\n      jump\t// out\n        /* \"#utility.yul\":7826:8192   */\n    tag_318:\n        /* \"#utility.yul\":7968:7971   */\n      0x00\n        /* \"#utility.yul\":7989:8056   */\n      tag_433\n        /* \"#utility.yul\":8053:8055   */\n      0x12\n        /* \"#utility.yul\":8048:8051   */\n      dup4\n        /* \"#utility.yul\":7989:8056   */\n      tag_316\n      jump\t// in\n    tag_433:\n        /* \"#utility.yul\":7982:8056   */\n      swap2\n      pop\n        /* \"#utility.yul\":8065:8158   */\n      tag_434\n        /* \"#utility.yul\":8154:8157   */\n      dup3\n        /* \"#utility.yul\":8065:8158   */\n      tag_317\n      jump\t// in\n    tag_434:\n        /* \"#utility.yul\":8183:8185   */\n      0x20\n        /* \"#utility.yul\":8178:8181   */\n      dup3\n        /* \"#utility.yul\":8174:8186   */\n      add\n        /* \"#utility.yul\":8167:8186   */\n      swap1\n      pop\n        /* \"#utility.yul\":7826:8192   */\n      swap2\n      swap1\n      pop\n      jump\t// out\n        /* \"#utility.yul\":8198:8617   */\n    tag_104:\n        /* \"#utility.yul\":8364:8368   */\n      0x00\n        /* \"#utility.yul\":8402:8404   */\n      0x20\n        /* \"#utility.yul\":8391:8400   */\n      dup3\n        /* \"#utility.yul\":8387:8405   */\n      add\n        /* \"#utility.yul\":8379:8405   */\n      swap1\n      pop\n        /* \"#utility.yul\":8451:8460   */\n      dup2\n        /* \"#utility.yul\":8445:8449   */\n      dup2\n        /* \"#utility.yul\":8441:8461   */\n      sub\n        /* \"#utility.yul\":8437:8438   */\n      0x00\n        /* \"#utility.yul\":8426:8435   */\n      dup4\n        /* \"#utility.yul\":8422:8439   */\n      add\n        /* \"#utility.yul\":8415:8462   */\n      mstore\n        /* \"#utility.yul\":8479:8610   */\n      tag_436\n        /* \"#utility.yul\":8605:8609   */\n      dup2\n        /* \"#utility.yul\":8479:8610   */\n      tag_318\n      jump\t// in\n    tag_436:\n        /* \"#utility.yul\":8471:8610   */\n      swap1\n      pop\n        /* \"#utility.yul\":8198:8617   */\n      swap2\n      swap1\n      pop\n      jump\t// out\n        /* \"#utility.yul\":8623:8803   */\n    tag_107:\n        /* \"#utility.yul\":8671:8748   */\n      0x4e487b7100000000000000000000000000000000000000000000000000000000\n        /* \"#utility.yul\":8668:8669   */\n      0x00\n        /* \"#utility.yul\":8661:8749   */\n      mstore\n        /* \"#utility.yul\":8768:8772   */\n      0x32\n        /* \"#utility.yul\":8765:8766   */\n      0x04\n        /* \"#utility.yul\":8758:8773   */\n      mstore\n        /* \"#utility.yul\":8792:8796   */\n      0x24\n        /* \"#utility.yul\":8789:8790   */\n      0x00\n        /* \"#utility.yul\":8782:8797   */\n      revert\n        /* \"#utility.yul\":8809:8973   */\n    tag_319:\n        /* \"#utility.yul\":8949:8965   */\n      0x4d61782066656520697320313025000000000000000000000000000000000000\n        /* \"#utility.yul\":8945:8946   */\n      0x00\n        /* \"#utility.yul\":8937:8943   */\n      dup3\n        /* \"#utility.yul\":8933:8947   */\n      add\n        /* \"#utility.yul\":8926:8966   */\n      mstore\n        /* \"#utility.yul\":8809:8973   */\n      pop\n      jump\t// out\n        /* \"#utility.yul\":8979:9345   */\n    tag_320:\n        /* \"#utility.yul\":9121:9124   */\n      0x00\n        /* \"#utility.yul\":9142:9209   */\n      tag_440\n        /* \"#utility.yul\":9206:9208   */\n      0x0e\n        /* \"#utility.yul\":9201:9204   */\n      dup4\n        /* \"#utility.yul\":9142:9209   */\n      tag_316\n      jump\t// in\n    tag_440:\n        /* \"#utility.yul\":9135:9209   */\n      swap2\n      pop\n        /* \"#utility.yul\":9218:9311   */\n      tag_441\n        /* \"#utility.yul\":9307:9310   */\n      dup3\n        /* \"#utility.yul\":9218:9311   */\n      tag_319\n      jump\t// in\n    tag_441:\n        /* \"#utility.yul\":9336:9338   */\n      0x20\n        /* \"#utility.yul\":9331:9334   */\n      dup3\n        /* \"#utility.yul\":9327:9339   */\n      add\n        /* \"#utility.yul\":9320:9339   */\n      swap1\n      pop\n        /* \"#utility.yul\":8979:9345   */\n      swap2\n      swap1\n      pop\n      jump\t// out\n        /* \"#utility.yul\":9351:9770   */\n    tag_114:\n        /* \"#utility.yul\":9517:9521   */\n      0x00\n        /* \"#utility.yul\":9555:9557   */\n      0x20\n        /* \"#utility.yul\":9544:9553   */\n      dup3\n        /* \"#utility.yul\":9540:9558   */\n      add\n        /* \"#utility.yul\":9532:9558   */\n      swap1\n      pop\n        /* \"#utility.yul\":9604:9613   */\n      dup2\n        /* \"#utility.yul\":9598:9602   */\n      dup2\n        /* \"#utility.yul\":9594:9614   */\n      sub\n        /* \"#utility.yul\":9590:9591   */\n      0x00\n        /* \"#utility.yul\":9579:9588   */\n      dup4\n        /* \"#utility.yul\":9575:9592   */\n      add\n        /* \"#utility.yul\":9568:9615   */\n      mstore\n        /* \"#utility.yul\":9632:9763   */\n      tag_443\n        /* \"#utility.yul\":9758:9762   */\n      dup2\n        /* \"#utility.yul\":9632:9763   */\n      tag_320\n      jump\t// in\n    tag_443:\n        /* \"#utility.yul\":9624:9763   */\n      swap1\n      pop\n        /* \"#utility.yul\":9351:9770   */\n      swap2\n      swap1\n      pop\n      jump\t// out\n        /* \"#utility.yul\":9776:9956   */\n    tag_321:\n        /* \"#utility.yul\":9824:9901   */\n      0x4e487b7100000000000000000000000000000000000000000000000000000000\n        /* \"#utility.yul\":9821:9822   */\n      0x00\n        /* \"#utility.yul\":9814:9902   */\n      mstore\n        /* \"#utility.yul\":9921:9925   */\n      0x11\n        /* \"#utility.yul\":9918:9919   */\n      0x04\n        /* \"#utility.yul\":9911:9926   */\n      mstore\n        /* \"#utility.yul\":9945:9949   */\n      0x24\n        /* \"#utility.yul\":9942:9943   */\n      0x00\n        /* \"#utility.yul\":9935:9950   */\n      revert\n        /* \"#utility.yul\":9962:10156   */\n    tag_124:\n        /* \"#utility.yul\":10002:10006   */\n      0x00\n        /* \"#utility.yul\":10022:10042   */\n      tag_446\n        /* \"#utility.yul\":10040:10041   */\n      dup3\n        /* \"#utility.yul\":10022:10042   */\n      tag_298\n      jump\t// in\n    tag_446:\n        /* \"#utility.yul\":10017:10042   */\n      swap2\n      pop\n        /* \"#utility.yul\":10056:10076   */\n      tag_447\n        /* \"#utility.yul\":10074:10075   */\n      dup4\n        /* \"#utility.yul\":10056:10076   */\n      tag_298\n      jump\t// in\n    tag_447:\n        /* \"#utility.yul\":10051:10076   */\n      swap3\n      pop\n        /* \"#utility.yul\":10100:10101   */\n      dup3\n        /* \"#utility.yul\":10097:10098   */\n      dup3\n        /* \"#utility.yul\":10093:10102   */\n      sub\n        /* \"#utility.yul\":10085:10102   */\n      swap1\n      pop\n        /* \"#utility.yul\":10124:10125   */\n      dup2\n        /* \"#utility.yul\":10118:10122   */\n      dup2\n        /* \"#utility.yul\":10115:10126   */\n      gt\n        /* \"#utility.yul\":10112:10149   */\n      iszero\n      tag_448\n      jumpi\n        /* \"#utility.yul\":10129:10147   */\n      tag_449\n      tag_321\n      jump\t// in\n    tag_449:\n        /* \"#utility.yul\":10112:10149   */\n    tag_448:\n        /* \"#utility.yul\":9962:10156   */\n      swap3\n      swap2\n      pop\n      pop\n      jump\t// out\n        /* \"#utility.yul\":10162:10572   */\n    tag_126:\n        /* \"#utility.yul\":10202:10209   */\n      0x00\n        /* \"#utility.yul\":10225:10245   */\n      tag_451\n        /* \"#utility.yul\":10243:10244   */\n      dup3\n        /* \"#utility.yul\":10225:10245   */\n      tag_298\n      jump\t// in\n    tag_451:\n        /* \"#utility.yul\":10220:10245   */\n      swap2\n      pop\n        /* \"#utility.yul\":10259:10279   */\n      tag_452\n        /* \"#utility.yul\":10277:10278   */\n      dup4\n        /* \"#utility.yul\":10259:10279   */\n      tag_298\n      jump\t// in\n    tag_452:\n        /* \"#utility.yul\":10254:10279   */\n      swap3\n      pop\n        /* \"#utility.yul\":10314:10315   */\n      dup3\n        /* \"#utility.yul\":10311:10312   */\n      dup3\n        /* \"#utility.yul\":10307:10316   */\n      mul\n        /* \"#utility.yul\":10336:10366   */\n      tag_453\n        /* \"#utility.yul\":10354:10365   */\n      dup2\n        /* \"#utility.yul\":10336:10366   */\n      tag_298\n      jump\t// in\n    tag_453:\n        /* \"#utility.yul\":10325:10366   */\n      swap2\n      pop\n        /* \"#utility.yul\":10515:10516   */\n      dup3\n        /* \"#utility.yul\":10506:10513   */\n      dup3\n        /* \"#utility.yul\":10502:10517   */\n      div\n        /* \"#utility.yul\":10499:10500   */\n      dup5\n        /* \"#utility.yul\":10496:10518   */\n      eq\n        /* \"#utility.yul\":10476:10477   */\n      dup4\n        /* \"#utility.yul\":10469:10478   */\n      iszero\n        /* \"#utility.yul\":10449:10532   */\n      or\n        /* \"#utility.yul\":10426:10565   */\n      tag_454\n      jumpi\n        /* \"#utility.yul\":10545:10563   */\n      tag_455\n      tag_321\n      jump\t// in\n    tag_455:\n        /* \"#utility.yul\":10426:10565   */\n    tag_454:\n        /* \"#utility.yul\":10210:10572   */\n      pop\n        /* \"#utility.yul\":10162:10572   */\n      swap3\n      swap2\n      pop\n      pop\n      jump\t// out\n        /* \"#utility.yul\":10578:10758   */\n    tag_322:\n        /* \"#utility.yul\":10626:10703   */\n      0x4e487b7100000000000000000000000000000000000000000000000000000000\n        /* \"#utility.yul\":10623:10624   */\n      0x00\n        /* \"#utility.yul\":10616:10704   */\n      mstore\n        /* \"#utility.yul\":10723:10727   */\n      0x12\n        /* \"#utility.yul\":10720:10721   */\n      0x04\n        /* \"#utility.yul\":10713:10728   */\n      mstore\n        /* \"#utility.yul\":10747:10751   */\n      0x24\n        /* \"#utility.yul\":10744:10745   */\n      0x00\n        /* \"#utility.yul\":10737:10752   */\n      revert\n        /* \"#utility.yul\":10764:10949   */\n    tag_128:\n        /* \"#utility.yul\":10804:10805   */\n      0x00\n        /* \"#utility.yul\":10821:10841   */\n      tag_458\n        /* \"#utility.yul\":10839:10840   */\n      dup3\n        /* \"#utility.yul\":10821:10841   */\n      tag_298\n      jump\t// in\n    tag_458:\n        /* \"#utility.yul\":10816:10841   */\n      swap2\n      pop\n        /* \"#utility.yul\":10855:10875   */\n      tag_459\n        /* \"#utility.yul\":10873:10874   */\n      dup4\n        /* \"#utility.yul\":10855:10875   */\n      tag_298\n      jump\t// in\n    tag_459:\n        /* \"#utility.yul\":10850:10875   */\n      swap3\n      pop\n        /* \"#utility.yul\":10894:10895   */\n      dup3\n        /* \"#utility.yul\":10884:10919   */\n      tag_460\n      jumpi\n        /* \"#utility.yul\":10899:10917   */\n      tag_461\n      tag_322\n      jump\t// in\n    tag_461:\n        /* \"#utility.yul\":10884:10919   */\n    tag_460:\n        /* \"#utility.yul\":10941:10942   */\n      dup3\n        /* \"#utility.yul\":10938:10939   */\n      dup3\n        /* \"#utility.yul\":10934:10943   */\n      div\n        /* \"#utility.yul\":10929:10943   */\n      swap1\n      pop\n        /* \"#utility.yul\":10764:10949   */\n      swap3\n      swap2\n      pop\n      pop\n      jump\t// out\n        /* \"#utility.yul\":10955:11122   */\n    tag_323:\n        /* \"#utility.yul\":11095:11114   */\n      0x4f6e6c7920454f412063616e2063616c6c000000000000000000000000000000\n        /* \"#utility.yul\":11091:11092   */\n      0x00\n        /* \"#utility.yul\":11083:11089   */\n      dup3\n        /* \"#utility.yul\":11079:11093   */\n      add\n        /* \"#utility.yul\":11072:11115   */\n      mstore\n        /* \"#utility.yul\":10955:11122   */\n      pop\n      jump\t// out\n        /* \"#utility.yul\":11128:11494   */\n    tag_324:\n        /* \"#utility.yul\":11270:11273   */\n      0x00\n        /* \"#utility.yul\":11291:11358   */\n      tag_464\n        /* \"#utility.yul\":11355:11357   */\n      0x11\n        /* \"#utility.yul\":11350:11353   */\n      dup4\n        /* \"#utility.yul\":11291:11358   */\n      tag_316\n      jump\t// in\n    tag_464:\n        /* \"#utility.yul\":11284:11358   */\n      swap2\n      pop\n        /* \"#utility.yul\":11367:11460   */\n      tag_465\n        /* \"#utility.yul\":11456:11459   */\n      dup3\n        /* \"#utility.yul\":11367:11460   */\n      tag_323\n      jump\t// in\n    tag_465:\n        /* \"#utility.yul\":11485:11487   */\n      0x20\n        /* \"#utility.yul\":11480:11483   */\n      dup3\n        /* \"#utility.yul\":11476:11488   */\n      add\n        /* \"#utility.yul\":11469:11488   */\n      swap1\n      pop\n        /* \"#utility.yul\":11128:11494   */\n      swap2\n      swap1\n      pop\n      jump\t// out\n        /* \"#utility.yul\":11500:11919   */\n    tag_137:\n        /* \"#utility.yul\":11666:11670   */\n      0x00\n        /* \"#utility.yul\":11704:11706   */\n      0x20\n        /* \"#utility.yul\":11693:11702   */\n      dup3\n        /* \"#utility.yul\":11689:11707   */\n      add\n        /* \"#utility.yul\":11681:11707   */\n      swap1\n      pop\n        /* \"#utility.yul\":11753:11762   */\n      dup2\n        /* \"#utility.yul\":11747:11751   */\n      dup2\n        /* \"#utility.yul\":11743:11763   */\n      sub\n        /* \"#utility.yul\":11739:11740   */\n      0x00\n        /* \"#utility.yul\":11728:11737   */\n      dup4\n        /* \"#utility.yul\":11724:11741   */\n      add\n        /* \"#utility.yul\":11717:11764   */\n      mstore\n        /* \"#utility.yul\":11781:11912   */\n      tag_467\n        /* \"#utility.yul\":11907:11911   */\n      dup2\n        /* \"#utility.yul\":11781:11912   */\n      tag_324\n      jump\t// in\n    tag_467:\n        /* \"#utility.yul\":11773:11912   */\n      swap1\n      pop\n        /* \"#utility.yul\":11500:11919   */\n      swap2\n      swap1\n      pop\n      jump\t// out\n        /* \"#utility.yul\":11925:12090   */\n    tag_325:\n        /* \"#utility.yul\":12065:12082   */\n      0x4e6f20616374697665207374616b650000000000000000000000000000000000\n        /* \"#utility.yul\":12061:12062   */\n      0x00\n        /* \"#utility.yul\":12053:12059   */\n      dup3\n        /* \"#utility.yul\":12049:12063   */\n      add\n        /* \"#utility.yul\":12042:12083   */\n      mstore\n        /* \"#utility.yul\":11925:12090   */\n      pop\n      jump\t// out\n        /* \"#utility.yul\":12096:12462   */\n    tag_326:\n        /* \"#utility.yul\":12238:12241   */\n      0x00\n        /* \"#utility.yul\":12259:12326   */\n      tag_470\n        /* \"#utility.yul\":12323:12325   */\n      0x0f\n        /* \"#utility.yul\":12318:12321   */\n      dup4\n        /* \"#utility.yul\":12259:12326   */\n      tag_316\n      jump\t// in\n    tag_470:\n        /* \"#utility.yul\":12252:12326   */\n      swap2\n      pop\n        /* \"#utility.yul\":12335:12428   */\n      tag_471\n        /* \"#utility.yul\":12424:12427   */\n      dup3\n        /* \"#utility.yul\":12335:12428   */\n      tag_325\n      jump\t// in\n    tag_471:\n        /* \"#utility.yul\":12453:12455   */\n      0x20\n        /* \"#utility.yul\":12448:12451   */\n      dup3\n        /* \"#utility.yul\":12444:12456   */\n      add\n        /* \"#utility.yul\":12437:12456   */\n      swap1\n      pop\n        /* \"#utility.yul\":12096:12462   */\n      swap2\n      swap1\n      pop\n      jump\t// out\n        /* \"#utility.yul\":12468:12887   */\n    tag_144:\n        /* \"#utility.yul\":12634:12638   */\n      0x00\n        /* \"#utility.yul\":12672:12674   */\n      0x20\n        /* \"#utility.yul\":12661:12670   */\n      dup3\n        /* \"#utility.yul\":12657:12675   */\n      add\n        /* \"#utility.yul\":12649:12675   */\n      swap1\n      pop\n        /* \"#utility.yul\":12721:12730   */\n      dup2\n        /* \"#utility.yul\":12715:12719   */\n      dup2\n        /* \"#utility.yul\":12711:12731   */\n      sub\n        /* \"#utility.yul\":12707:12708   */\n      0x00\n        /* \"#utility.yul\":12696:12705   */\n      dup4\n        /* \"#utility.yul\":12692:12709   */\n      add\n        /* \"#utility.yul\":12685:12732   */\n      mstore\n        /* \"#utility.yul\":12749:12880   */\n      tag_473\n        /* \"#utility.yul\":12875:12879   */\n      dup2\n        /* \"#utility.yul\":12749:12880   */\n      tag_326\n      jump\t// in\n    tag_473:\n        /* \"#utility.yul\":12741:12880   */\n      swap1\n      pop\n        /* \"#utility.yul\":12468:12887   */\n      swap2\n      swap1\n      pop\n      jump\t// out\n        /* \"#utility.yul\":12893:13084   */\n    tag_149:\n        /* \"#utility.yul\":12933:12936   */\n      0x00\n        /* \"#utility.yul\":12952:12972   */\n      tag_475\n        /* \"#utility.yul\":12970:12971   */\n      dup3\n        /* \"#utility.yul\":12952:12972   */\n      tag_298\n      jump\t// in\n    tag_475:\n        /* \"#utility.yul\":12947:12972   */\n      swap2\n      pop\n        /* \"#utility.yul\":12986:13006   */\n      tag_476\n        /* \"#utility.yul\":13004:13005   */\n      dup4\n        /* \"#utility.yul\":12986:13006   */\n      tag_298\n      jump\t// in\n    tag_476:\n        /* \"#utility.yul\":12981:13006   */\n      swap3\n      pop\n        /* \"#utility.yul\":13029:13030   */\n      dup3\n        /* \"#utility.yul\":13026:13027   */\n      dup3\n        /* \"#utility.yul\":13022:13031   */\n      add\n        /* \"#utility.yul\":13015:13031   */\n      swap1\n      pop\n        /* \"#utility.yul\":13050:13053   */\n      dup1\n        /* \"#utility.yul\":13047:13048   */\n      dup3\n        /* \"#utility.yul\":13044:13054   */\n      gt\n        /* \"#utility.yul\":13041:13077   */\n      iszero\n      tag_477\n      jumpi\n        /* \"#utility.yul\":13057:13075   */\n      tag_478\n      tag_321\n      jump\t// in\n    tag_478:\n        /* \"#utility.yul\":13041:13077   */\n    tag_477:\n        /* \"#utility.yul\":12893:13084   */\n      swap3\n      swap2\n      pop\n      pop\n      jump\t// out\n        /* \"#utility.yul\":13090:13252   */\n    tag_327:\n        /* \"#utility.yul\":13230:13244   */\n      0x5374696c6c206c6f636b65640000000000000000000000000000000000000000\n        /* \"#utility.yul\":13226:13227   */\n      0x00\n        /* \"#utility.yul\":13218:13224   */\n      dup3\n        /* \"#utility.yul\":13214:13228   */\n      add\n        /* \"#utility.yul\":13207:13245   */\n      mstore\n        /* \"#utility.yul\":13090:13252   */\n      pop\n      jump\t// out\n        /* \"#utility.yul\":13258:13624   */\n    tag_328:\n        /* \"#utility.yul\":13400:13403   */\n      0x00\n        /* \"#utility.yul\":13421:13488   */\n      tag_481\n        /* \"#utility.yul\":13485:13487   */\n      0x0c\n        /* \"#utility.yul\":13480:13483   */\n      dup4\n        /* \"#utility.yul\":13421:13488   */\n      tag_316\n      jump\t// in\n    tag_481:\n        /* \"#utility.yul\":13414:13488   */\n      swap2\n      pop\n        /* \"#utility.yul\":13497:13590   */\n      tag_482\n        /* \"#utility.yul\":13586:13589   */\n      dup3\n        /* \"#utility.yul\":13497:13590   */\n      tag_327\n      jump\t// in\n    tag_482:\n        /* \"#utility.yul\":13615:13617   */\n      0x20\n        /* \"#utility.yul\":13610:13613   */\n      dup3\n        /* \"#utility.yul\":13606:13618   */\n      add\n        /* \"#utility.yul\":13599:13618   */\n      swap1\n      pop\n        /* \"#utility.yul\":13258:13624   */\n      swap2\n      swap1\n      pop\n      jump\t// out\n        /* \"#utility.yul\":13630:14049   */\n    tag_152:\n        /* \"#utility.yul\":13796:13800   */\n      0x00\n        /* \"#utility.yul\":13834:13836   */\n      0x20\n        /* \"#utility.yul\":13823:13832   */\n      dup3\n        /* \"#utility.yul\":13819:13837   */\n      add\n        /* \"#utility.yul\":13811:13837   */\n      swap1\n      pop\n        /* \"#utility.yul\":13883:13892   */\n      dup2\n        /* \"#utility.yul\":13877:13881   */\n      dup2\n        /* \"#utility.yul\":13873:13893   */\n      sub\n        /* \"#utility.yul\":13869:13870   */\n      0x00\n        /* \"#utility.yul\":13858:13867   */\n      dup4\n        /* \"#utility.yul\":13854:13871   */\n      add\n        /* \"#utility.yul\":13847:13894   */\n      mstore\n        /* \"#utility.yul\":13911:14042   */\n      tag_484\n        /* \"#utility.yul\":14037:14041   */\n      dup2\n        /* \"#utility.yul\":13911:14042   */\n      tag_328\n      jump\t// in\n    tag_484:\n        /* \"#utility.yul\":13903:14042   */\n      swap1\n      pop\n        /* \"#utility.yul\":13630:14049   */\n      swap2\n      swap1\n      pop\n      jump\t// out\n        /* \"#utility.yul\":14055:14497   */\n    tag_162:\n        /* \"#utility.yul\":14204:14208   */\n      0x00\n        /* \"#utility.yul\":14242:14244   */\n      0x60\n        /* \"#utility.yul\":14231:14240   */\n      dup3\n        /* \"#utility.yul\":14227:14245   */\n      add\n        /* \"#utility.yul\":14219:14245   */\n      swap1\n      pop\n        /* \"#utility.yul\":14255:14326   */\n      tag_486\n        /* \"#utility.yul\":14323:14324   */\n      0x00\n        /* \"#utility.yul\":14312:14321   */\n      dup4\n        /* \"#utility.yul\":14308:14325   */\n      add\n        /* \"#utility.yul\":14299:14305   */\n      dup7\n        /* \"#utility.yul\":14255:14326   */\n      tag_308\n      jump\t// in\n    tag_486:\n        /* \"#utility.yul\":14336:14408   */\n      tag_487\n        /* \"#utility.yul\":14404:14406   */\n      0x20\n        /* \"#utility.yul\":14393:14402   */\n      dup4\n        /* \"#utility.yul\":14389:14407   */\n      add\n        /* \"#utility.yul\":14380:14386   */\n      dup6\n        /* \"#utility.yul\":14336:14408   */\n      tag_308\n      jump\t// in\n    tag_487:\n        /* \"#utility.yul\":14418:14490   */\n      tag_488\n        /* \"#utility.yul\":14486:14488   */\n      0x40\n        /* \"#utility.yul\":14475:14484   */\n      dup4\n        /* \"#utility.yul\":14471:14489   */\n      add\n        /* \"#utility.yul\":14462:14468   */\n      dup5\n        /* \"#utility.yul\":14418:14490   */\n      tag_308\n      jump\t// in\n    tag_488:\n        /* \"#utility.yul\":14055:14497   */\n      swap5\n      swap4\n      pop\n      pop\n      pop\n      pop\n      jump\t// out\n        /* \"#utility.yul\":14503:14672   */\n    tag_329:\n        /* \"#utility.yul\":14643:14664   */\n      0x4e6f206665657320746f20776974686472617700000000000000000000000000\n        /* \"#utility.yul\":14639:14640   */\n      0x00\n        /* \"#utility.yul\":14631:14637   */\n      dup3\n        /* \"#utility.yul\":14627:14641   */\n      add\n        /* \"#utility.yul\":14620:14665   */\n      mstore\n        /* \"#utility.yul\":14503:14672   */\n      pop\n      jump\t// out\n        /* \"#utility.yul\":14678:15044   */\n    tag_330:\n        /* \"#utility.yul\":14820:14823   */\n      0x00\n        /* \"#utility.yul\":14841:14908   */\n      tag_491\n        /* \"#utility.yul\":14905:14907   */\n      0x13\n        /* \"#utility.yul\":14900:14903   */\n      dup4\n        /* \"#utility.yul\":14841:14908   */\n      tag_316\n      jump\t// in\n    tag_491:\n        /* \"#utility.yul\":14834:14908   */\n      swap2\n      pop\n        /* \"#utility.yul\":14917:15010   */\n      tag_492\n        /* \"#utility.yul\":15006:15009   */\n      dup3\n        /* \"#utility.yul\":14917:15010   */\n      tag_329\n      jump\t// in\n    tag_492:\n        /* \"#utility.yul\":15035:15037   */\n      0x20\n        /* \"#utility.yul\":15030:15033   */\n      dup3\n        /* \"#utility.yul\":15026:15038   */\n      add\n        /* \"#utility.yul\":15019:15038   */\n      swap1\n      pop\n        /* \"#utility.yul\":14678:15044   */\n      swap2\n      swap1\n      pop\n      jump\t// out\n        /* \"#utility.yul\":15050:15469   */\n    tag_172:\n        /* \"#utility.yul\":15216:15220   */\n      0x00\n        /* \"#utility.yul\":15254:15256   */\n      0x20\n        /* \"#utility.yul\":15243:15252   */\n      dup3\n        /* \"#utility.yul\":15239:15257   */\n      add\n        /* \"#utility.yul\":15231:15257   */\n      swap1\n      pop\n        /* \"#utility.yul\":15303:15312   */\n      dup2\n        /* \"#utility.yul\":15297:15301   */\n      dup2\n        /* \"#utility.yul\":15293:15313   */\n      sub\n        /* \"#utility.yul\":15289:15290   */\n      0x00\n        /* \"#utility.yul\":15278:15287   */\n      dup4\n        /* \"#utility.yul\":15274:15291   */\n      add\n        /* \"#utility.yul\":15267:15314   */\n      mstore\n        /* \"#utility.yul\":15331:15462   */\n      tag_494\n        /* \"#utility.yul\":15457:15461   */\n      dup2\n        /* \"#utility.yul\":15331:15462   */\n      tag_330\n      jump\t// in\n    tag_494:\n        /* \"#utility.yul\":15323:15462   */\n      swap1\n      pop\n        /* \"#utility.yul\":15050:15469   */\n      swap2\n      swap1\n      pop\n      jump\t// out\n        /* \"#utility.yul\":15475:15643   */\n    tag_331:\n        /* \"#utility.yul\":15615:15635   */\n      0x5061636b616765206e6f74206163746976650000000000000000000000000000\n        /* \"#utility.yul\":15611:15612   */\n      0x00\n        /* \"#utility.yul\":15603:15609   */\n      dup3\n        /* \"#utility.yul\":15599:15613   */\n      add\n        /* \"#utility.yul\":15592:15636   */\n      mstore\n        /* \"#utility.yul\":15475:15643   */\n      pop\n      jump\t// out\n        /* \"#utility.yul\":15649:16015   */\n    tag_332:\n        /* \"#utility.yul\":15791:15794   */\n      0x00\n        /* \"#utility.yul\":15812:15879   */\n      tag_497\n        /* \"#utility.yul\":15876:15878   */\n      0x12\n        /* \"#utility.yul\":15871:15874   */\n      dup4\n        /* \"#utility.yul\":15812:15879   */\n      tag_316\n      jump\t// in\n    tag_497:\n        /* \"#utility.yul\":15805:15879   */\n      swap2\n      pop\n        /* \"#utility.yul\":15888:15981   */\n      tag_498\n        /* \"#utility.yul\":15977:15980   */\n      dup3\n        /* \"#utility.yul\":15888:15981   */\n      tag_331\n      jump\t// in\n    tag_498:\n        /* \"#utility.yul\":16006:16008   */\n      0x20\n        /* \"#utility.yul\":16001:16004   */\n      dup3\n        /* \"#utility.yul\":15997:16009   */\n      add\n        /* \"#utility.yul\":15990:16009   */\n      swap1\n      pop\n        /* \"#utility.yul\":15649:16015   */\n      swap2\n      swap1\n      pop\n      jump\t// out\n        /* \"#utility.yul\":16021:16440   */\n    tag_199:\n        /* \"#utility.yul\":16187:16191   */\n      0x00\n        /* \"#utility.yul\":16225:16227   */\n      0x20\n        /* \"#utility.yul\":16214:16223   */\n      dup3\n        /* \"#utility.yul\":16210:16228   */\n      add\n        /* \"#utility.yul\":16202:16228   */\n      swap1\n      pop\n        /* \"#utility.yul\":16274:16283   */\n      dup2\n        /* \"#utility.yul\":16268:16272   */\n      dup2\n        /* \"#utility.yul\":16264:16284   */\n      sub\n        /* \"#utility.yul\":16260:16261   */\n      0x00\n        /* \"#utility.yul\":16249:16258   */\n      dup4\n        /* \"#utility.yul\":16245:16262   */\n      add\n        /* \"#utility.yul\":16238:16285   */\n      mstore\n        /* \"#utility.yul\":16302:16433   */\n      tag_500\n        /* \"#utility.yul\":16428:16432   */\n      dup2\n        /* \"#utility.yul\":16302:16433   */\n      tag_332\n      jump\t// in\n    tag_500:\n        /* \"#utility.yul\":16294:16433   */\n      swap1\n      pop\n        /* \"#utility.yul\":16021:16440   */\n      swap2\n      swap1\n      pop\n      jump\t// out\n        /* \"#utility.yul\":16446:16610   */\n    tag_333:\n        /* \"#utility.yul\":16586:16602   */\n      0x416d6f756e7420746f6f206c6f77000000000000000000000000000000000000\n        /* \"#utility.yul\":16582:16583   */\n      0x00\n        /* \"#utility.yul\":16574:16580   */\n      dup3\n        /* \"#utility.yul\":16570:16584   */\n      add\n        /* \"#utility.yul\":16563:16603   */\n      mstore\n        /* \"#utility.yul\":16446:16610   */\n      pop\n      jump\t// out\n        /* \"#utility.yul\":16616:16982   */\n    tag_334:\n        /* \"#utility.yul\":16758:16761   */\n      0x00\n        /* \"#utility.yul\":16779:16846   */\n      tag_503\n        /* \"#utility.yul\":16843:16845   */\n      0x0e\n        /* \"#utility.yul\":16838:16841   */\n      dup4\n        /* \"#utility.yul\":16779:16846   */\n      tag_316\n      jump\t// in\n    tag_503:\n        /* \"#utility.yul\":16772:16846   */\n      swap2\n      pop\n        /* \"#utility.yul\":16855:16948   */\n      tag_504\n        /* \"#utility.yul\":16944:16947   */\n      dup3\n        /* \"#utility.yul\":16855:16948   */\n      tag_333\n      jump\t// in\n    tag_504:\n        /* \"#utility.yul\":16973:16975   */\n      0x20\n        /* \"#utility.yul\":16968:16971   */\n      dup3\n        /* \"#utility.yul\":16964:16976   */\n      add\n        /* \"#utility.yul\":16957:16976   */\n      swap1\n      pop\n        /* \"#utility.yul\":16616:16982   */\n      swap2\n      swap1\n      pop\n      jump\t// out\n        /* \"#utility.yul\":16988:17407   */\n    tag_202:\n        /* \"#utility.yul\":17154:17158   */\n      0x00\n        /* \"#utility.yul\":17192:17194   */\n      0x20\n        /* \"#utility.yul\":17181:17190   */\n      dup3\n        /* \"#utility.yul\":17177:17195   */\n      add\n        /* \"#utility.yul\":17169:17195   */\n      swap1\n      pop\n        /* \"#utility.yul\":17241:17250   */\n      dup2\n        /* \"#utility.yul\":17235:17239   */\n      dup2\n        /* \"#utility.yul\":17231:17251   */\n      sub\n        /* \"#utility.yul\":17227:17228   */\n      0x00\n        /* \"#utility.yul\":17216:17225   */\n      dup4\n        /* \"#utility.yul\":17212:17229   */\n      add\n        /* \"#utility.yul\":17205:17252   */\n      mstore\n        /* \"#utility.yul\":17269:17400   */\n      tag_506\n        /* \"#utility.yul\":17395:17399   */\n      dup2\n        /* \"#utility.yul\":17269:17400   */\n      tag_334\n      jump\t// in\n    tag_506:\n        /* \"#utility.yul\":17261:17400   */\n      swap1\n      pop\n        /* \"#utility.yul\":16988:17407   */\n      swap2\n      swap1\n      pop\n      jump\t// out\n        /* \"#utility.yul\":17413:17745   */\n    tag_207:\n        /* \"#utility.yul\":17534:17538   */\n      0x00\n        /* \"#utility.yul\":17572:17574   */\n      0x40\n        /* \"#utility.yul\":17561:17570   */\n      dup3\n        /* \"#utility.yul\":17557:17575   */\n      add\n        /* \"#utility.yul\":17549:17575   */\n      swap1\n      pop\n        /* \"#utility.yul\":17585:17656   */\n      tag_508\n        /* \"#utility.yul\":17653:17654   */\n      0x00\n        /* \"#utility.yul\":17642:17651   */\n      dup4\n        /* \"#utility.yul\":17638:17655   */\n      add\n        /* \"#utility.yul\":17629:17635   */\n      dup6\n        /* \"#utility.yul\":17585:17656   */\n      tag_308\n      jump\t// in\n    tag_508:\n        /* \"#utility.yul\":17666:17738   */\n      tag_509\n        /* \"#utility.yul\":17734:17736   */\n      0x20\n        /* \"#utility.yul\":17723:17732   */\n      dup4\n        /* \"#utility.yul\":17719:17737   */\n      add\n        /* \"#utility.yul\":17710:17716   */\n      dup5\n        /* \"#utility.yul\":17666:17738   */\n      tag_308\n      jump\t// in\n    tag_509:\n        /* \"#utility.yul\":17413:17745   */\n      swap4\n      swap3\n      pop\n      pop\n      pop\n      jump\t// out\n        /* \"#utility.yul\":17751:18071   */\n    tag_222:\n        /* \"#utility.yul\":17866:17870   */\n      0x00\n        /* \"#utility.yul\":17904:17906   */\n      0x40\n        /* \"#utility.yul\":17893:17902   */\n      dup3\n        /* \"#utility.yul\":17889:17907   */\n      add\n        /* \"#utility.yul\":17881:17907   */\n      swap1\n      pop\n        /* \"#utility.yul\":17917:17988   */\n      tag_511\n        /* \"#utility.yul\":17985:17986   */\n      0x00\n        /* \"#utility.yul\":17974:17983   */\n      dup4\n        /* \"#utility.yul\":17970:17987   */\n      add\n        /* \"#utility.yul\":17961:17967   */\n      dup6\n        /* \"#utility.yul\":17917:17988   */\n      tag_308\n      jump\t// in\n    tag_511:\n        /* \"#utility.yul\":17998:18064   */\n      tag_512\n        /* \"#utility.yul\":18060:18062   */\n      0x20\n        /* \"#utility.yul\":18049:18058   */\n      dup4\n        /* \"#utility.yul\":18045:18063   */\n      add\n        /* \"#utility.yul\":18036:18042   */\n      dup5\n        /* \"#utility.yul\":17998:18064   */\n      tag_310\n      jump\t// in\n    tag_512:\n        /* \"#utility.yul\":17751:18071   */\n      swap4\n      swap3\n      pop\n      pop\n      pop\n      jump\t// out\n        /* \"#utility.yul\":18077:18251   */\n    tag_335:\n        /* \"#utility.yul\":18217:18243   */\n      0x5a65726f2061646472657373206e6f7420616c6c6f7765640000000000000000\n        /* \"#utility.yul\":18213:18214   */\n      0x00\n        /* \"#utility.yul\":18205:18211   */\n      dup3\n        /* \"#utility.yul\":18201:18215   */\n      add\n        /* \"#utility.yul\":18194:18244   */\n      mstore\n        /* \"#utility.yul\":18077:18251   */\n      pop\n      jump\t// out\n        /* \"#utility.yul\":18257:18623   */\n    tag_336:\n        /* \"#utility.yul\":18399:18402   */\n      0x00\n        /* \"#utility.yul\":18420:18487   */\n      tag_515\n        /* \"#utility.yul\":18484:18486   */\n      0x18\n        /* \"#utility.yul\":18479:18482   */\n      dup4\n        /* \"#utility.yul\":18420:18487   */\n      tag_316\n      jump\t// in\n    tag_515:\n        /* \"#utility.yul\":18413:18487   */\n      swap2\n      pop\n        /* \"#utility.yul\":18496:18589   */\n      tag_516\n        /* \"#utility.yul\":18585:18588   */\n      dup3\n        /* \"#utility.yul\":18496:18589   */\n      tag_335\n      jump\t// in\n    tag_516:\n        /* \"#utility.yul\":18614:18616   */\n      0x20\n        /* \"#utility.yul\":18609:18612   */\n      dup3\n        /* \"#utility.yul\":18605:18617   */\n      add\n        /* \"#utility.yul\":18598:18617   */\n      swap1\n      pop\n        /* \"#utility.yul\":18257:18623   */\n      swap2\n      swap1\n      pop\n      jump\t// out\n        /* \"#utility.yul\":18629:19048   */\n    tag_229:\n        /* \"#utility.yul\":18795:18799   */\n      0x00\n        /* \"#utility.yul\":18833:18835   */\n      0x20\n        /* \"#utility.yul\":18822:18831   */\n      dup3\n        /* \"#utility.yul\":18818:18836   */\n      add\n        /* \"#utility.yul\":18810:18836   */\n      swap1\n      pop\n        /* \"#utility.yul\":18882:18891   */\n      dup2\n        /* \"#utility.yul\":18876:18880   */\n      dup2\n        /* \"#utility.yul\":18872:18892   */\n      sub\n        /* \"#utility.yul\":18868:18869   */\n      0x00\n        /* \"#utility.yul\":18857:18866   */\n      dup4\n        /* \"#utility.yul\":18853:18870   */\n      add\n        /* \"#utility.yul\":18846:18893   */\n      mstore\n        /* \"#utility.yul\":18910:19041   */\n      tag_518\n        /* \"#utility.yul\":19036:19040   */\n      dup2\n        /* \"#utility.yul\":18910:19041   */\n      tag_336\n      jump\t// in\n    tag_518:\n        /* \"#utility.yul\":18902:19041   */\n      swap1\n      pop\n        /* \"#utility.yul\":18629:19048   */\n      swap2\n      swap1\n      pop\n      jump\t// out\n        /* \"#utility.yul\":19054:19222   */\n    tag_337:\n        /* \"#utility.yul\":19194:19214   */\n      0x4e6f2072657761726420746f20636c61696d0000000000000000000000000000\n        /* \"#utility.yul\":19190:19191   */\n      0x00\n        /* \"#utility.yul\":19182:19188   */\n      dup3\n        /* \"#utility.yul\":19178:19192   */\n      add\n        /* \"#utility.yul\":19171:19215   */\n      mstore\n        /* \"#utility.yul\":19054:19222   */\n      pop\n      jump\t// out\n        /* \"#utility.yul\":19228:19594   */\n    tag_338:\n        /* \"#utility.yul\":19370:19373   */\n      0x00\n        /* \"#utility.yul\":19391:19458   */\n      tag_521\n        /* \"#utility.yul\":19455:19457   */\n      0x12\n        /* \"#utility.yul\":19450:19453   */\n      dup4\n        /* \"#utility.yul\":19391:19458   */\n      tag_316\n      jump\t// in\n    tag_521:\n        /* \"#utility.yul\":19384:19458   */\n      swap2\n      pop\n        /* \"#utility.yul\":19467:19560   */\n      tag_522\n        /* \"#utility.yul\":19556:19559   */\n      dup3\n        /* \"#utility.yul\":19467:19560   */\n      tag_337\n      jump\t// in\n    tag_522:\n        /* \"#utility.yul\":19585:19587   */\n      0x20\n        /* \"#utility.yul\":19580:19583   */\n      dup3\n        /* \"#utility.yul\":19576:19588   */\n      add\n        /* \"#utility.yul\":19569:19588   */\n      swap1\n      pop\n        /* \"#utility.yul\":19228:19594   */\n      swap2\n      swap1\n      pop\n      jump\t// out\n        /* \"#utility.yul\":19600:20019   */\n    tag_244:\n        /* \"#utility.yul\":19766:19770   */\n      0x00\n        /* \"#utility.yul\":19804:19806   */\n      0x20\n        /* \"#utility.yul\":19793:19802   */\n      dup3\n        /* \"#utility.yul\":19789:19807   */\n      add\n        /* \"#utility.yul\":19781:19807   */\n      swap1\n      pop\n        /* \"#utility.yul\":19853:19862   */\n      dup2\n        /* \"#utility.yul\":19847:19851   */\n      dup2\n        /* \"#utility.yul\":19843:19863   */\n      sub\n        /* \"#utility.yul\":19839:19840   */\n      0x00\n        /* \"#utility.yul\":19828:19837   */\n      dup4\n        /* \"#utility.yul\":19824:19841   */\n      add\n        /* \"#utility.yul\":19817:19864   */\n      mstore\n        /* \"#utility.yul\":19881:20012   */\n      tag_524\n        /* \"#utility.yul\":20007:20011   */\n      dup2\n        /* \"#utility.yul\":19881:20012   */\n      tag_338\n      jump\t// in\n    tag_524:\n        /* \"#utility.yul\":19873:20012   */\n      swap1\n      pop\n        /* \"#utility.yul\":19600:20019   */\n      swap2\n      swap1\n      pop\n      jump\t// out\n        /* \"#utility.yul\":20025:20788   */\n    tag_259:\n        /* \"#utility.yul\":20252:20256   */\n      0x00\n        /* \"#utility.yul\":20290:20293   */\n      0xc0\n        /* \"#utility.yul\":20279:20288   */\n      dup3\n        /* \"#utility.yul\":20275:20294   */\n      add\n        /* \"#utility.yul\":20267:20294   */\n      swap1\n      pop\n        /* \"#utility.yul\":20304:20375   */\n      tag_526\n        /* \"#utility.yul\":20372:20373   */\n      0x00\n        /* \"#utility.yul\":20361:20370   */\n      dup4\n        /* \"#utility.yul\":20357:20374   */\n      add\n        /* \"#utility.yul\":20348:20354   */\n      dup10\n        /* \"#utility.yul\":20304:20375   */\n      tag_308\n      jump\t// in\n    tag_526:\n        /* \"#utility.yul\":20385:20457   */\n      tag_527\n        /* \"#utility.yul\":20453:20455   */\n      0x20\n        /* \"#utility.yul\":20442:20451   */\n      dup4\n        /* \"#utility.yul\":20438:20456   */\n      add\n        /* \"#utility.yul\":20429:20435   */\n      dup9\n        /* \"#utility.yul\":20385:20457   */\n      tag_309\n      jump\t// in\n    tag_527:\n        /* \"#utility.yul\":20467:20539   */\n      tag_528\n        /* \"#utility.yul\":20535:20537   */\n      0x40\n        /* \"#utility.yul\":20524:20533   */\n      dup4\n        /* \"#utility.yul\":20520:20538   */\n      add\n        /* \"#utility.yul\":20511:20517   */\n      dup8\n        /* \"#utility.yul\":20467:20539   */\n      tag_308\n      jump\t// in\n    tag_528:\n        /* \"#utility.yul\":20549:20621   */\n      tag_529\n        /* \"#utility.yul\":20617:20619   */\n      0x60\n        /* \"#utility.yul\":20606:20615   */\n      dup4\n        /* \"#utility.yul\":20602:20620   */\n      add\n        /* \"#utility.yul\":20593:20599   */\n      dup7\n        /* \"#utility.yul\":20549:20621   */\n      tag_308\n      jump\t// in\n    tag_529:\n        /* \"#utility.yul\":20631:20704   */\n      tag_530\n        /* \"#utility.yul\":20699:20702   */\n      0x80\n        /* \"#utility.yul\":20688:20697   */\n      dup4\n        /* \"#utility.yul\":20684:20703   */\n      add\n        /* \"#utility.yul\":20675:20681   */\n      dup6\n        /* \"#utility.yul\":20631:20704   */\n      tag_308\n      jump\t// in\n    tag_530:\n        /* \"#utility.yul\":20714:20781   */\n      tag_531\n        /* \"#utility.yul\":20776:20779   */\n      0xa0\n        /* \"#utility.yul\":20765:20774   */\n      dup4\n        /* \"#utility.yul\":20761:20780   */\n      add\n        /* \"#utility.yul\":20752:20758   */\n      dup5\n        /* \"#utility.yul\":20714:20781   */\n      tag_310\n      jump\t// in\n    tag_531:\n        /* \"#utility.yul\":20025:20788   */\n      swap8\n      swap7\n      pop\n      pop\n      pop\n      pop\n      pop\n      pop\n      pop\n      jump\t// out\n        /* \"#utility.yul\":20794:20975   */\n    tag_339:\n        /* \"#utility.yul\":20934:20967   */\n      0x5265656e7472616e637947756172643a207265656e7472616e742063616c6c00\n        /* \"#utility.yul\":20930:20931   */\n      0x00\n        /* \"#utility.yul\":20922:20928   */\n      dup3\n        /* \"#utility.yul\":20918:20932   */\n      add\n        /* \"#utility.yul\":20911:20968   */\n      mstore\n        /* \"#utility.yul\":20794:20975   */\n      pop\n      jump\t// out\n        /* \"#utility.yul\":20981:21347   */\n    tag_340:\n        /* \"#utility.yul\":21123:21126   */\n      0x00\n        /* \"#utility.yul\":21144:21211   */\n      tag_534\n        /* \"#utility.yul\":21208:21210   */\n      0x1f\n        /* \"#utility.yul\":21203:21206   */\n      dup4\n        /* \"#utility.yul\":21144:21211   */\n      tag_316\n      jump\t// in\n    tag_534:\n        /* \"#utility.yul\":21137:21211   */\n      swap2\n      pop\n        /* \"#utility.yul\":21220:21313   */\n      tag_535\n        /* \"#utility.yul\":21309:21312   */\n      dup3\n        /* \"#utility.yul\":21220:21313   */\n      tag_339\n      jump\t// in\n    tag_535:\n        /* \"#utility.yul\":21338:21340   */\n      0x20\n        /* \"#utility.yul\":21333:21336   */\n      dup3\n        /* \"#utility.yul\":21329:21341   */\n      add\n        /* \"#utility.yul\":21322:21341   */\n      swap1\n      pop\n        /* \"#utility.yul\":20981:21347   */\n      swap2\n      swap1\n      pop\n      jump\t// out\n        /* \"#utility.yul\":21353:21772   */\n    tag_276:\n        /* \"#utility.yul\":21519:21523   */\n      0x00\n        /* \"#utility.yul\":21557:21559   */\n      0x20\n        /* \"#utility.yul\":21546:21555   */\n      dup3\n        /* \"#utility.yul\":21542:21560   */\n      add\n        /* \"#utility.yul\":21534:21560   */\n      swap1\n      pop\n        /* \"#utility.yul\":21606:21615   */\n      dup2\n        /* \"#utility.yul\":21600:21604   */\n      dup2\n        /* \"#utility.yul\":21596:21616   */\n      sub\n        /* \"#utility.yul\":21592:21593   */\n      0x00\n        /* \"#utility.yul\":21581:21590   */\n      dup4\n        /* \"#utility.yul\":21577:21594   */\n      add\n        /* \"#utility.yul\":21570:21617   */\n      mstore\n        /* \"#utility.yul\":21634:21765   */\n      tag_537\n        /* \"#utility.yul\":21760:21764   */\n      dup2\n        /* \"#utility.yul\":21634:21765   */\n      tag_340\n      jump\t// in\n    tag_537:\n        /* \"#utility.yul\":21626:21765   */\n      swap1\n      pop\n        /* \"#utility.yul\":21353:21772   */\n      swap2\n      swap1\n      pop\n      jump\t// out\n        /* \"#utility.yul\":21778:22110   */\n    tag_280:\n        /* \"#utility.yul\":21899:21903   */\n      0x00\n        /* \"#utility.yul\":21937:21939   */\n      0x40\n        /* \"#utility.yul\":21926:21935   */\n      dup3\n        /* \"#utility.yul\":21922:21940   */\n      add\n        /* \"#utility.yul\":21914:21940   */\n      swap1\n      pop\n        /* \"#utility.yul\":21950:22021   */\n      tag_539\n        /* \"#utility.yul\":22018:22019   */\n      0x00\n        /* \"#utility.yul\":22007:22016   */\n      dup4\n        /* \"#utility.yul\":22003:22020   */\n      add\n        /* \"#utility.yul\":21994:22000   */\n      dup6\n        /* \"#utility.yul\":21950:22021   */\n      tag_309\n      jump\t// in\n    tag_539:\n        /* \"#utility.yul\":22031:22103   */\n      tag_540\n        /* \"#utility.yul\":22099:22101   */\n      0x20\n        /* \"#utility.yul\":22088:22097   */\n      dup4\n        /* \"#utility.yul\":22084:22102   */\n      add\n        /* \"#utility.yul\":22075:22081   */\n      dup5\n        /* \"#utility.yul\":22031:22103   */\n      tag_308\n      jump\t// in\n    tag_540:\n        /* \"#utility.yul\":21778:22110   */\n      swap4\n      swap3\n      pop\n      pop\n      pop\n      jump\t// out\n        /* \"#utility.yul\":22116:22558   */\n    tag_287:\n        /* \"#utility.yul\":22265:22269   */\n      0x00\n        /* \"#utility.yul\":22303:22305   */\n      0x60\n        /* \"#utility.yul\":22292:22301   */\n      dup3\n        /* \"#utility.yul\":22288:22306   */\n      add\n        /* \"#utility.yul\":22280:22306   */\n      swap1\n      pop\n        /* \"#utility.yul\":22316:22387   */\n      tag_542\n        /* \"#utility.yul\":22384:22385   */\n      0x00\n        /* \"#utility.yul\":22373:22382   */\n      dup4\n        /* \"#utility.yul\":22369:22386   */\n      add\n        /* \"#utility.yul\":22360:22366   */\n      dup7\n        /* \"#utility.yul\":22316:22387   */\n      tag_309\n      jump\t// in\n    tag_542:\n        /* \"#utility.yul\":22397:22469   */\n      tag_543\n        /* \"#utility.yul\":22465:22467   */\n      0x20\n        /* \"#utility.yul\":22454:22463   */\n      dup4\n        /* \"#utility.yul\":22450:22468   */\n      add\n        /* \"#utility.yul\":22441:22447   */\n      dup6\n        /* \"#utility.yul\":22397:22469   */\n      tag_309\n      jump\t// in\n    tag_543:\n        /* \"#utility.yul\":22479:22551   */\n      tag_544\n        /* \"#utility.yul\":22547:22549   */\n      0x40\n        /* \"#utility.yul\":22536:22545   */\n      dup4\n        /* \"#utility.yul\":22532:22550   */\n      add\n        /* \"#utility.yul\":22523:22529   */\n      dup5\n        /* \"#utility.yul\":22479:22551   */\n      tag_308\n      jump\t// in\n    tag_544:\n        /* \"#utility.yul\":22116:22558   */\n      swap5\n      swap4\n      pop\n      pop\n      pop\n      pop\n      jump\t// out\n\n    auxdata: 0xa26469706673582212206f55a8caa7105627505ba64834cec6b2b89bb7c04747b02264d5e91365e6a4ab64736f6c634300081e0033\n}\n",
				"bytecode": {
					"linkReferences": {},
					"object": "60a06040526032600555348015610014575f5ffd5b506040516129c43803806129c483398181016040528101906100369190610335565b805f73ffffffffffffffffffffffffffffffffffffffff168173ffffffffffffffffffffffffffffffffffffffff16036100a7575f6040517f1e4fbdf700000000000000000000000000000000000000000000000000000000815260040161009e9190610394565b60405180910390fd5b6100b68161021660201b60201c565b50600180819055505f73ffffffffffffffffffffffffffffffffffffffff168373ffffffffffffffffffffffffffffffffffffffff160361012c576040517f08c379a000000000000000000000000000000000000000000000000000000000815260040161012390610407565b60405180910390fd5b5f73ffffffffffffffffffffffffffffffffffffffff168273ffffffffffffffffffffffffffffffffffffffff160361019a576040517f08c379a00000000000000000000000000000000000000000000000000000000081526004016101919061046f565b60405180910390fd5b8273ffffffffffffffffffffffffffffffffffffffff1660808173ffffffffffffffffffffffffffffffffffffffff16815250508160065f6101000a81548173ffffffffffffffffffffffffffffffffffffffff021916908373ffffffffffffffffffffffffffffffffffffffff16021790555050505061048d565b5f5f5f9054906101000a900473ffffffffffffffffffffffffffffffffffffffff169050815f5f6101000a81548173ffffffffffffffffffffffffffffffffffffffff021916908373ffffffffffffffffffffffffffffffffffffffff1602179055508173ffffffffffffffffffffffffffffffffffffffff168173ffffffffffffffffffffffffffffffffffffffff167f8be0079c531659141344cd1fd0a4f28419497f9722a3daafe3b4186f6b6457e060405160405180910390a35050565b5f5ffd5b5f73ffffffffffffffffffffffffffffffffffffffff82169050919050565b5f610304826102db565b9050919050565b610314816102fa565b811461031e575f5ffd5b50565b5f8151905061032f8161030b565b92915050565b5f5f5f6060848603121561034c5761034b6102d7565b5b5f61035986828701610321565b935050602061036a86828701610321565b925050604061037b86828701610321565b9150509250925092565b61038e816102fa565b82525050565b5f6020820190506103a75f830184610385565b92915050565b5f82825260208201905092915050565b7f496e76616c6964204341464920746f6b656e00000000000000000000000000005f82015250565b5f6103f16012836103ad565b91506103fc826103bd565b602082019050919050565b5f6020820190508181035f83015261041e816103e5565b9050919050565b7f496e76616c69642074726561737572792077616c6c65740000000000000000005f82015250565b5f6104596017836103ad565b915061046482610425565b602082019050919050565b5f6020820190508181035f8301526104868161044d565b9050919050565b60805161250a6104ba5f395f818161095201528181610b0801528181610b5101526113e8015261250a5ff3fe608060405234801561000f575f5ffd5b506004361061012a575f3560e01c80637b0472f0116100ab578063b5d5b5fa1161006f578063b5d5b5fa146102e0578063cb8f63f614610314578063d96acc7214610332578063eb16975d14610350578063f2fde38b1461036c5761012a565b80637b0472f0146102525780638da5cb5b1461026e578063a6fdc26c1461028c578063a8602fea146102a8578063ae169a50146102c45761012a565b80634626402b116100f25780634626402b146101e6578063476343ee1461020457806358a0bde31461020e5780635acd2e4c1461022c578063715018a6146102485761012a565b80630a34cc121461012e578063181d06a91461014a5780631852e8d9146101665780632e17de7814610196578063407bb09d146101b2575b5f5ffd5b61014860048036038101906101439190611a6d565b610388565b005b610164600480360381019061015f9190611aab565b610415565b005b610180600480360381019061017b9190611b30565b61046c565b60405161018d9190611b7d565b60405180910390f35b6101b060048036038101906101ab9190611aab565b610647565b005b6101cc60048036038101906101c79190611aab565b6109f8565b6040516101dd959493929190611bb4565b60405180910390f35b6101ee610a64565b6040516101fb9190611c05565b60405180910390f35b61020c610a89565b005b610216610b4f565b6040516102239190611c79565b60405180910390f35b61024660048036038101906102419190611c92565b610b73565b005b610250610c37565b005b61026c60048036038101906102679190611c92565b610c4a565b005b610276610f65565b6040516102839190611c05565b60405180910390f35b6102a660048036038101906102a19190611aab565b610f8c565b005b6102c260048036038101906102bd9190611cd0565b61113e565b005b6102de60048036038101906102d99190611aab565b61123a565b005b6102fa60048036038101906102f59190611b30565b61148a565b60405161030b959493929190611cfb565b60405180910390f35b61031c6114e2565b6040516103299190611b7d565b60405180910390f35b61033a6114e8565b6040516103479190611b7d565b60405180910390f35b61036a60048036038101906103659190611d4c565b6114ee565b005b61038660048036038101906103819190611cd0565b61163a565b005b6103906116be565b60028054905082106103d7576040517f08c379a00000000000000000000000000000000000000000000000000000000081526004016103ce90611e0a565b60405180910390fd5b80600283815481106103ec576103eb611e28565b5b905f5260205f2090600502016004015f6101000a81548160ff0219169083151502179055505050565b61041d6116be565b6103e8811115610462576040517f08c379a000000000000000000000000000000000000000000000000000000000815260040161045990611e9f565b60405180910390fd5b8060058190555050565b5f5f60035f8573ffffffffffffffffffffffffffffffffffffffff1673ffffffffffffffffffffffffffffffffffffffff1681526020019081526020015f2083815481106104bd576104bc611e28565b5b905f5260205f2090600502016040518060a00160405290815f8201548152602001600182015481526020016002820154815260200160038201548152602001600482015f9054906101000a900460ff16151515158152505090505f81602001510361052b575f915050610641565b5f6002825f01518154811061054357610542611e28565b5b905f5260205f2090600502016040518060a00160405290815f82015f9054906101000a900473ffffffffffffffffffffffffffffffffffffffff1673ffffffffffffffffffffffffffffffffffffffff1673ffffffffffffffffffffffffffffffffffffffff168152602001600182015481526020016002820154815260200160038201548152602001600482015f9054906101000a900460ff16151515158152505090505f8260600151426105f99190611eea565b90505f612710836040015185602001516106139190611f1d565b61061d9190611f8b565b90506301e1338082826106309190611f1d565b61063a9190611f8b565b9450505050505b92915050565b61064f611745565b3373ffffffffffffffffffffffffffffffffffffffff163273ffffffffffffffffffffffffffffffffffffffff16146106bd576040517f08c379a00000000000000000000000000000000000000000000000000000000081526004016106b490612005565b60405180910390fd5b5f60035f3373ffffffffffffffffffffffffffffffffffffffff1673ffffffffffffffffffffffffffffffffffffffff1681526020019081526020015f20828154811061070d5761070c611e28565b5b905f5260205f20906005020190505f816001015411610761576040517f08c379a00000000000000000000000000000000000000000000000000000000081526004016107589061206d565b60405180910390fd5b5f6002825f01548154811061077957610778611e28565b5b905f5260205f2090600502016040518060a00160405290815f82015f9054906101000a900473ffffffffffffffffffffffffffffffffffffffff1673ffffffffffffffffffffffffffffffffffffffff1673ffffffffffffffffffffffffffffffffffffffff168152602001600182015481526020016002820154815260200160038201548152602001600482015f9054906101000a900460ff161515151581525050905080602001518260020154610832919061208b565b421015610874576040517f08c379a000000000000000000000000000000000000000000000000000000000815260040161086b90612108565b60405180910390fd5b5f61087f338561046c565b90505f8360010154905060035f3373ffffffffffffffffffffffffffffffffffffffff1673ffffffffffffffffffffffffffffffffffffffff1681526020019081526020015f2085815481106108d8576108d7611e28565b5b905f5260205f2090600502015f5f82015f9055600182015f9055600282015f9055600382015f9055600482015f6101000a81549060ff021916905550506109433382855f015173ffffffffffffffffffffffffffffffffffffffff166117949092919063ffffffff16565b5f8211156109975761099633837f000000000000000000000000000000000000000000000000000000000000000073ffffffffffffffffffffffffffffffffffffffff166117949092919063ffffffff16565b5b3373ffffffffffffffffffffffffffffffffffffffff167f204fccf0d92ed8d48f204adb39b2e81e92bad0dedb93f5716ca9478cfb57de008683856040516109e193929190612126565b60405180910390a2505050506109f5611813565b50565b60028181548110610a07575f80fd5b905f5260205f2090600502015f91509050805f015f9054906101000a900473ffffffffffffffffffffffffffffffffffffffff1690806001015490806002015490806003015490806004015f9054906101000a900460ff16905085565b60065f9054906101000a900473ffffffffffffffffffffffffffffffffffffffff1681565b610a916116be565b5f60045490505f8111610ad9576040517f08c379a0000000000000000000000000000000000000000000000000000000008152600401610ad0906121a5565b60405180910390fd5b5f600481905550610b4c60065f9054906101000a900473ffffffffffffffffffffffffffffffffffffffff16827f000000000000000000000000000000000000000000000000000000000000000073ffffffffffffffffffffffffffffffffffffffff166117949092919063ffffffff16565b50565b7f000000000000000000000000000000000000000000000000000000000000000081565b610b7b6116be565b6002805490508210610bc2576040517f08c379a0000000000000000000000000000000000000000000000000000000008152600401610bb990611e0a565b60405180910390fd5b5f60028381548110610bd757610bd6611e28565b5b905f5260205f20906005020190505f816002015490508282600201819055507f447f7585030d3ef3a73db720f6082f657781a4a8657461796b868687caaea1e2848285604051610c2993929190612126565b60405180910390a150505050565b610c3f6116be565b610c485f61181c565b565b610c52611745565b3373ffffffffffffffffffffffffffffffffffffffff163273ffffffffffffffffffffffffffffffffffffffff1614610cc0576040517f08c379a0000000000000000000000000000000000000000000000000000000008152600401610cb790612005565b60405180910390fd5b5f60028381548110610cd557610cd4611e28565b5b905f5260205f2090600502016040518060a00160405290815f82015f9054906101000a900473ffffffffffffffffffffffffffffffffffffffff1673ffffffffffffffffffffffffffffffffffffffff1673ffffffffffffffffffffffffffffffffffffffff168152602001600182015481526020016002820154815260200160038201548152602001600482015f9054906101000a900460ff16151515158152505090508060800151610dbe576040517f08c379a0000000000000000000000000000000000000000000000000000000008152600401610db59061220d565b60405180910390fd5b8060600151821015610e05576040517f08c379a0000000000000000000000000000000000000000000000000000000008152600401610dfc90612275565b60405180910390fd5b610e35333084845f015173ffffffffffffffffffffffffffffffffffffffff166118dd909392919063ffffffff16565b60035f3373ffffffffffffffffffffffffffffffffffffffff1673ffffffffffffffffffffffffffffffffffffffff1681526020019081526020015f206040518060a001604052808581526020018481526020014281526020014281526020015f1515815250908060018154018082558091505060019003905f5260205f2090600502015f909190919091505f820151815f01556020820151816001015560408201518160020155606082015181600301556080820151816004015f6101000a81548160ff02191690831515021790555050503373ffffffffffffffffffffffffffffffffffffffff167f1449c6dd7851abc30abf37f57715f492010519147cc2652fbc38202c18a6ee908484604051610f50929190612293565b60405180910390a250610f61611813565b5050565b5f5f5f9054906101000a900473ffffffffffffffffffffffffffffffffffffffff16905090565b610f94611745565b3373ffffffffffffffffffffffffffffffffffffffff163273ffffffffffffffffffffffffffffffffffffffff1614611002576040517f08c379a0000000000000000000000000000000000000000000000000000000008152600401610ff990612005565b60405180910390fd5b5f60035f3373ffffffffffffffffffffffffffffffffffffffff1673ffffffffffffffffffffffffffffffffffffffff1681526020019081526020015f20828154811061105257611051611e28565b5b905f5260205f20906005020190505f8160010154116110a6576040517f08c379a000000000000000000000000000000000000000000000000000000000815260040161109d9061206d565b60405180910390fd5b806004015f9054906101000a900460ff1615816004015f6101000a81548160ff0219169083151502179055503373ffffffffffffffffffffffffffffffffffffffff167f31a69d42a6f751ecfc0dbb2406339aec90a8398da52cec9760a134a10d430c0283836004015f9054906101000a900460ff1660405161112a9291906122ba565b60405180910390a25061113b611813565b50565b6111466116be565b5f73ffffffffffffffffffffffffffffffffffffffff168173ffffffffffffffffffffffffffffffffffffffff16036111b4576040517f08c379a00000000000000000000000000000000000000000000000000000000081526004016111ab9061232b565b60405180910390fd5b8060065f6101000a81548173ffffffffffffffffffffffffffffffffffffffff021916908373ffffffffffffffffffffffffffffffffffffffff1602179055508073ffffffffffffffffffffffffffffffffffffffff167f27aae5db36d94179909d019ae0b1ac7c16d96d953148f63c0f6a0a9c8ead79ee60405160405180910390a250565b611242611745565b3373ffffffffffffffffffffffffffffffffffffffff163273ffffffffffffffffffffffffffffffffffffffff16146112b0576040517f08c379a00000000000000000000000000000000000000000000000000000000081526004016112a790612005565b60405180910390fd5b5f60035f3373ffffffffffffffffffffffffffffffffffffffff1673ffffffffffffffffffffffffffffffffffffffff1681526020019081526020015f208281548110611300576112ff611e28565b5b905f5260205f20906005020190505f816001015411611354576040517f08c379a000000000000000000000000000000000000000000000000000000000815260040161134b9061206d565b60405180910390fd5b5f61135f338461046c565b90505f81116113a3576040517f08c379a000000000000000000000000000000000000000000000000000000000815260040161139a90612393565b60405180910390fd5b428260030181905550816004015f9054906101000a900460ff16156113e15780826001015f8282546113d5919061208b565b9250508190555061142d565b61142c33827f000000000000000000000000000000000000000000000000000000000000000073ffffffffffffffffffffffffffffffffffffffff166117949092919063ffffffff16565b5b3373ffffffffffffffffffffffffffffffffffffffff167ff01da32686223933d8a18a391060918c7f11a3648639edd87ae013e2e27317438483604051611475929190612293565b60405180910390a25050611487611813565b50565b6003602052815f5260405f2081815481106114a3575f80fd5b905f5260205f2090600502015f9150915050805f015490806001015490806002015490806003015490806004015f9054906101000a900460ff16905085565b60045481565b60055481565b6114f66116be565b60026040518060a001604052808673ffffffffffffffffffffffffffffffffffffffff16815260200185815260200184815260200183815260200160011515815250908060018154018082558091505060019003905f5260205f2090600502015f909190919091505f820151815f015f6101000a81548173ffffffffffffffffffffffffffffffffffffffff021916908373ffffffffffffffffffffffffffffffffffffffff1602179055506020820151816001015560408201518160020155606082015181600301556080820151816004015f6101000a81548160ff02191690831515021790555050507f449d6803fbc50a1b24602b1756ef38e10c1fb9c7f3d93da3e69263670258554860016002805490506116149190611eea565b85858585600160405161162c969594939291906123b1565b60405180910390a150505050565b6116426116be565b5f73ffffffffffffffffffffffffffffffffffffffff168173ffffffffffffffffffffffffffffffffffffffff16036116b2575f6040517f1e4fbdf70000000000000000000000000000000000000000000000000000000081526004016116a99190611c05565b60405180910390fd5b6116bb8161181c565b50565b6116c661195f565b73ffffffffffffffffffffffffffffffffffffffff166116e4610f65565b73ffffffffffffffffffffffffffffffffffffffff16146117435761170761195f565b6040517f118cdaa700000000000000000000000000000000000000000000000000000000815260040161173a9190611c05565b60405180910390fd5b565b60026001540361178a576040517f08c379a00000000000000000000000000000000000000000000000000000000081526004016117819061245a565b60405180910390fd5b6002600181905550565b61180e838473ffffffffffffffffffffffffffffffffffffffff1663a9059cbb85856040516024016117c7929190612478565b604051602081830303815290604052915060e01b6020820180517bffffffffffffffffffffffffffffffffffffffffffffffffffffffff8381831617835250505050611966565b505050565b60018081905550565b5f5f5f9054906101000a900473ffffffffffffffffffffffffffffffffffffffff169050815f5f6101000a81548173ffffffffffffffffffffffffffffffffffffffff021916908373ffffffffffffffffffffffffffffffffffffffff1602179055508173ffffffffffffffffffffffffffffffffffffffff168173ffffffffffffffffffffffffffffffffffffffff167f8be0079c531659141344cd1fd0a4f28419497f9722a3daafe3b4186f6b6457e060405160405180910390a35050565b611959848573ffffffffffffffffffffffffffffffffffffffff166323b872dd8686866040516024016119129392919061249f565b604051602081830303815290604052915060e01b6020820180517bffffffffffffffffffffffffffffffffffffffffffffffffffffffff8381831617835250505050611966565b50505050565b5f33905090565b5f5f60205f8451602086015f885af180611985576040513d5f823e3d81fd5b3d92505f519150505f821461199e5760018114156119b9565b5f8473ffffffffffffffffffffffffffffffffffffffff163b145b156119fb57836040517f5274afe70000000000000000000000000000000000000000000000000000000081526004016119f29190611c05565b60405180910390fd5b50505050565b5f5ffd5b5f819050919050565b611a1781611a05565b8114611a21575f5ffd5b50565b5f81359050611a3281611a0e565b92915050565b5f8115159050919050565b611a4c81611a38565b8114611a56575f5ffd5b50565b5f81359050611a6781611a43565b92915050565b5f5f60408385031215611a8357611a82611a01565b5b5f611a9085828601611a24565b9250506020611aa185828601611a59565b9150509250929050565b5f60208284031215611ac057611abf611a01565b5b5f611acd84828501611a24565b91505092915050565b5f73ffffffffffffffffffffffffffffffffffffffff82169050919050565b5f611aff82611ad6565b9050919050565b611b0f81611af5565b8114611b19575f5ffd5b50565b5f81359050611b2a81611b06565b92915050565b5f5f60408385031215611b4657611b45611a01565b5b5f611b5385828601611b1c565b9250506020611b6485828601611a24565b9150509250929050565b611b7781611a05565b82525050565b5f602082019050611b905f830184611b6e565b92915050565b611b9f81611af5565b82525050565b611bae81611a38565b82525050565b5f60a082019050611bc75f830188611b96565b611bd46020830187611b6e565b611be16040830186611b6e565b611bee6060830185611b6e565b611bfb6080830184611ba5565b9695505050505050565b5f602082019050611c185f830184611b96565b92915050565b5f819050919050565b5f611c41611c3c611c3784611ad6565b611c1e565b611ad6565b9050919050565b5f611c5282611c27565b9050919050565b5f611c6382611c48565b9050919050565b611c7381611c59565b82525050565b5f602082019050611c8c5f830184611c6a565b92915050565b5f5f60408385031215611ca857611ca7611a01565b5b5f611cb585828601611a24565b9250506020611cc685828601611a24565b9150509250929050565b5f60208284031215611ce557611ce4611a01565b5b5f611cf284828501611b1c565b91505092915050565b5f60a082019050611d0e5f830188611b6e565b611d1b6020830187611b6e565b611d286040830186611b6e565b611d356060830185611b6e565b611d426080830184611ba5565b9695505050505050565b5f5f5f5f60808587031215611d6457611d63611a01565b5b5f611d7187828801611b1c565b9450506020611d8287828801611a24565b9350506040611d9387828801611a24565b9250506060611da487828801611a24565b91505092959194509250565b5f82825260208201905092915050565b7f496e76616c6964207061636b61676520494400000000000000000000000000005f82015250565b5f611df4601283611db0565b9150611dff82611dc0565b602082019050919050565b5f6020820190508181035f830152611e2181611de8565b9050919050565b7f4e487b71000000000000000000000000000000000000000000000000000000005f52603260045260245ffd5b7f4d617820666565206973203130250000000000000000000000000000000000005f82015250565b5f611e89600e83611db0565b9150611e9482611e55565b602082019050919050565b5f6020820190508181035f830152611eb681611e7d565b9050919050565b7f4e487b71000000000000000000000000000000000000000000000000000000005f52601160045260245ffd5b5f611ef482611a05565b9150611eff83611a05565b9250828203905081811115611f1757611f16611ebd565b5b92915050565b5f611f2782611a05565b9150611f3283611a05565b9250828202611f4081611a05565b91508282048414831517611f5757611f56611ebd565b5b5092915050565b7f4e487b71000000000000000000000000000000000000000000000000000000005f52601260045260245ffd5b5f611f9582611a05565b9150611fa083611a05565b925082611fb057611faf611f5e565b5b828204905092915050565b7f4f6e6c7920454f412063616e2063616c6c0000000000000000000000000000005f82015250565b5f611fef601183611db0565b9150611ffa82611fbb565b602082019050919050565b5f6020820190508181035f83015261201c81611fe3565b9050919050565b7f4e6f20616374697665207374616b6500000000000000000000000000000000005f82015250565b5f612057600f83611db0565b915061206282612023565b602082019050919050565b5f6020820190508181035f8301526120848161204b565b9050919050565b5f61209582611a05565b91506120a083611a05565b92508282019050808211156120b8576120b7611ebd565b5b92915050565b7f5374696c6c206c6f636b656400000000000000000000000000000000000000005f82015250565b5f6120f2600c83611db0565b91506120fd826120be565b602082019050919050565b5f6020820190508181035f83015261211f816120e6565b9050919050565b5f6060820190506121395f830186611b6e565b6121466020830185611b6e565b6121536040830184611b6e565b949350505050565b7f4e6f206665657320746f207769746864726177000000000000000000000000005f82015250565b5f61218f601383611db0565b915061219a8261215b565b602082019050919050565b5f6020820190508181035f8301526121bc81612183565b9050919050565b7f5061636b616765206e6f742061637469766500000000000000000000000000005f82015250565b5f6121f7601283611db0565b9150612202826121c3565b602082019050919050565b5f6020820190508181035f830152612224816121eb565b9050919050565b7f416d6f756e7420746f6f206c6f770000000000000000000000000000000000005f82015250565b5f61225f600e83611db0565b915061226a8261222b565b602082019050919050565b5f6020820190508181035f83015261228c81612253565b9050919050565b5f6040820190506122a65f830185611b6e565b6122b36020830184611b6e565b9392505050565b5f6040820190506122cd5f830185611b6e565b6122da6020830184611ba5565b9392505050565b7f5a65726f2061646472657373206e6f7420616c6c6f77656400000000000000005f82015250565b5f612315601883611db0565b9150612320826122e1565b602082019050919050565b5f6020820190508181035f83015261234281612309565b9050919050565b7f4e6f2072657761726420746f20636c61696d00000000000000000000000000005f82015250565b5f61237d601283611db0565b915061238882612349565b602082019050919050565b5f6020820190508181035f8301526123aa81612371565b9050919050565b5f60c0820190506123c45f830189611b6e565b6123d16020830188611b96565b6123de6040830187611b6e565b6123eb6060830186611b6e565b6123f86080830185611b6e565b61240560a0830184611ba5565b979650505050505050565b7f5265656e7472616e637947756172643a207265656e7472616e742063616c6c005f82015250565b5f612444601f83611db0565b915061244f82612410565b602082019050919050565b5f6020820190508181035f83015261247181612438565b9050919050565b5f60408201905061248b5f830185611b96565b6124986020830184611b6e565b9392505050565b5f6060820190506124b25f830186611b96565b6124bf6020830185611b96565b6124cc6040830184611b6e565b94935050505056fea26469706673582212206f55a8caa7105627505ba64834cec6b2b89bb7c04747b02264d5e91365e6a4ab64736f6c634300081e0033",
					"opcodes": "PUSH1 0xA0 PUSH1 0x40 MSTORE PUSH1 0x32 PUSH1 0x5 SSTORE CALLVALUE DUP1 ISZERO PUSH2 0x14 JUMPI PUSH0 PUSH0 REVERT JUMPDEST POP PUSH1 0x40 MLOAD PUSH2 0x29C4 CODESIZE SUB DUP1 PUSH2 0x29C4 DUP4 CODECOPY DUP2 DUP2 ADD PUSH1 0x40 MSTORE DUP2 ADD SWAP1 PUSH2 0x36 SWAP2 SWAP1 PUSH2 0x335 JUMP JUMPDEST DUP1 PUSH0 PUSH20 0xFFFFFFFFFFFFFFFFFFFFFFFFFFFFFFFFFFFFFFFF AND DUP2 PUSH20 0xFFFFFFFFFFFFFFFFFFFFFFFFFFFFFFFFFFFFFFFF AND SUB PUSH2 0xA7 JUMPI PUSH0 PUSH1 0x40 MLOAD PUSH32 0x1E4FBDF700000000000000000000000000000000000000000000000000000000 DUP2 MSTORE PUSH1 0x4 ADD PUSH2 0x9E SWAP2 SWAP1 PUSH2 0x394 JUMP JUMPDEST PUSH1 0x40 MLOAD DUP1 SWAP2 SUB SWAP1 REVERT JUMPDEST PUSH2 0xB6 DUP2 PUSH2 0x216 PUSH1 0x20 SHL PUSH1 0x20 SHR JUMP JUMPDEST POP PUSH1 0x1 DUP1 DUP2 SWAP1 SSTORE POP PUSH0 PUSH20 0xFFFFFFFFFFFFFFFFFFFFFFFFFFFFFFFFFFFFFFFF AND DUP4 PUSH20 0xFFFFFFFFFFFFFFFFFFFFFFFFFFFFFFFFFFFFFFFF AND SUB PUSH2 0x12C JUMPI PUSH1 0x40 MLOAD PUSH32 0x8C379A000000000000000000000000000000000000000000000000000000000 DUP2 MSTORE PUSH1 0x4 ADD PUSH2 0x123 SWAP1 PUSH2 0x407 JUMP JUMPDEST PUSH1 0x40 MLOAD DUP1 SWAP2 SUB SWAP1 REVERT JUMPDEST PUSH0 PUSH20 0xFFFFFFFFFFFFFFFFFFFFFFFFFFFFFFFFFFFFFFFF AND DUP3 PUSH20 0xFFFFFFFFFFFFFFFFFFFFFFFFFFFFFFFFFFFFFFFF AND SUB PUSH2 0x19A JUMPI PUSH1 0x40 MLOAD PUSH32 0x8C379A000000000000000000000000000000000000000000000000000000000 DUP2 MSTORE PUSH1 0x4 ADD PUSH2 0x191 SWAP1 PUSH2 0x46F JUMP JUMPDEST PUSH1 0x40 MLOAD DUP1 SWAP2 SUB SWAP1 REVERT JUMPDEST DUP3 PUSH20 0xFFFFFFFFFFFFFFFFFFFFFFFFFFFFFFFFFFFFFFFF AND PUSH1 0x80 DUP2 PUSH20 0xFFFFFFFFFFFFFFFFFFFFFFFFFFFFFFFFFFFFFFFF AND DUP2 MSTORE POP POP DUP2 PUSH1 0x6 PUSH0 PUSH2 0x100 EXP DUP2 SLOAD DUP2 PUSH20 0xFFFFFFFFFFFFFFFFFFFFFFFFFFFFFFFFFFFFFFFF MUL NOT AND SWAP1 DUP4 PUSH20 0xFFFFFFFFFFFFFFFFFFFFFFFFFFFFFFFFFFFFFFFF AND MUL OR SWAP1 SSTORE POP POP POP POP PUSH2 0x48D JUMP JUMPDEST PUSH0 PUSH0 PUSH0 SWAP1 SLOAD SWAP1 PUSH2 0x100 EXP SWAP1 DIV PUSH20 0xFFFFFFFFFFFFFFFFFFFFFFFFFFFFFFFFFFFFFFFF AND SWAP1 POP DUP2 PUSH0 PUSH0 PUSH2 0x100 EXP DUP2 SLOAD DUP2 PUSH20 0xFFFFFFFFFFFFFFFFFFFFFFFFFFFFFFFFFFFFFFFF MUL NOT AND SWAP1 DUP4 PUSH20 0xFFFFFFFFFFFFFFFFFFFFFFFFFFFFFFFFFFFFFFFF AND MUL OR SWAP1 SSTORE POP DUP2 PUSH20 0xFFFFFFFFFFFFFFFFFFFFFFFFFFFFFFFFFFFFFFFF AND DUP2 PUSH20 0xFFFFFFFFFFFFFFFFFFFFFFFFFFFFFFFFFFFFFFFF AND PUSH32 0x8BE0079C531659141344CD1FD0A4F28419497F9722A3DAAFE3B4186F6B6457E0 PUSH1 0x40 MLOAD PUSH1 0x40 MLOAD DUP1 SWAP2 SUB SWAP1 LOG3 POP POP JUMP JUMPDEST PUSH0 PUSH0 REVERT JUMPDEST PUSH0 PUSH20 0xFFFFFFFFFFFFFFFFFFFFFFFFFFFFFFFFFFFFFFFF DUP3 AND SWAP1 POP SWAP2 SWAP1 POP JUMP JUMPDEST PUSH0 PUSH2 0x304 DUP3 PUSH2 0x2DB JUMP JUMPDEST SWAP1 POP SWAP2 SWAP1 POP JUMP JUMPDEST PUSH2 0x314 DUP2 PUSH2 0x2FA JUMP JUMPDEST DUP2 EQ PUSH2 0x31E JUMPI PUSH0 PUSH0 REVERT JUMPDEST POP JUMP JUMPDEST PUSH0 DUP2 MLOAD SWAP1 POP PUSH2 0x32F DUP2 PUSH2 0x30B JUMP JUMPDEST SWAP3 SWAP2 POP POP JUMP JUMPDEST PUSH0 PUSH0 PUSH0 PUSH1 0x60 DUP5 DUP7 SUB SLT ISZERO PUSH2 0x34C JUMPI PUSH2 0x34B PUSH2 0x2D7 JUMP JUMPDEST JUMPDEST PUSH0 PUSH2 0x359 DUP7 DUP3 DUP8 ADD PUSH2 0x321 JUMP JUMPDEST SWAP4 POP POP PUSH1 0x20 PUSH2 0x36A DUP7 DUP3 DUP8 ADD PUSH2 0x321 JUMP JUMPDEST SWAP3 POP POP PUSH1 0x40 PUSH2 0x37B DUP7 DUP3 DUP8 ADD PUSH2 0x321 JUMP JUMPDEST SWAP2 POP POP SWAP3 POP SWAP3 POP SWAP3 JUMP JUMPDEST PUSH2 0x38E DUP2 PUSH2 0x2FA JUMP JUMPDEST DUP3 MSTORE POP POP JUMP JUMPDEST PUSH0 PUSH1 0x20 DUP3 ADD SWAP1 POP PUSH2 0x3A7 PUSH0 DUP4 ADD DUP5 PUSH2 0x385 JUMP JUMPDEST SWAP3 SWAP2 POP POP JUMP JUMPDEST PUSH0 DUP3 DUP3 MSTORE PUSH1 0x20 DUP3 ADD SWAP1 POP SWAP3 SWAP2 POP POP JUMP JUMPDEST PUSH32 0x496E76616C6964204341464920746F6B656E0000000000000000000000000000 PUSH0 DUP3 ADD MSTORE POP JUMP JUMPDEST PUSH0 PUSH2 0x3F1 PUSH1 0x12 DUP4 PUSH2 0x3AD JUMP JUMPDEST SWAP2 POP PUSH2 0x3FC DUP3 PUSH2 0x3BD JUMP JUMPDEST PUSH1 0x20 DUP3 ADD SWAP1 POP SWAP2 SWAP1 POP JUMP JUMPDEST PUSH0 PUSH1 0x20 DUP3 ADD SWAP1 POP DUP2 DUP2 SUB PUSH0 DUP4 ADD MSTORE PUSH2 0x41E DUP2 PUSH2 0x3E5 JUMP JUMPDEST SWAP1 POP SWAP2 SWAP1 POP JUMP JUMPDEST PUSH32 0x496E76616C69642074726561737572792077616C6C6574000000000000000000 PUSH0 DUP3 ADD MSTORE POP JUMP JUMPDEST PUSH0 PUSH2 0x459 PUSH1 0x17 DUP4 PUSH2 0x3AD JUMP JUMPDEST SWAP2 POP PUSH2 0x464 DUP3 PUSH2 0x425 JUMP JUMPDEST PUSH1 0x20 DUP3 ADD SWAP1 POP SWAP2 SWAP1 POP JUMP JUMPDEST PUSH0 PUSH1 0x20 DUP3 ADD SWAP1 POP DUP2 DUP2 SUB PUSH0 DUP4 ADD MSTORE PUSH2 0x486 DUP2 PUSH2 0x44D JUMP JUMPDEST SWAP1 POP SWAP2 SWAP1 POP JUMP JUMPDEST PUSH1 0x80 MLOAD PUSH2 0x250A PUSH2 0x4BA PUSH0 CODECOPY PUSH0 DUP2 DUP2 PUSH2 0x952 ADD MSTORE DUP2 DUP2 PUSH2 0xB08 ADD MSTORE DUP2 DUP2 PUSH2 0xB51 ADD MSTORE PUSH2 0x13E8 ADD MSTORE PUSH2 0x250A PUSH0 RETURN INVALID PUSH1 0x80 PUSH1 0x40 MSTORE CALLVALUE DUP1 ISZERO PUSH2 0xF JUMPI PUSH0 PUSH0 REVERT JUMPDEST POP PUSH1 0x4 CALLDATASIZE LT PUSH2 0x12A JUMPI PUSH0 CALLDATALOAD PUSH1 0xE0 SHR DUP1 PUSH4 0x7B0472F0 GT PUSH2 0xAB JUMPI DUP1 PUSH4 0xB5D5B5FA GT PUSH2 0x6F JUMPI DUP1 PUSH4 0xB5D5B5FA EQ PUSH2 0x2E0 JUMPI DUP1 PUSH4 0xCB8F63F6 EQ PUSH2 0x314 JUMPI DUP1 PUSH4 0xD96ACC72 EQ PUSH2 0x332 JUMPI DUP1 PUSH4 0xEB16975D EQ PUSH2 0x350 JUMPI DUP1 PUSH4 0xF2FDE38B EQ PUSH2 0x36C JUMPI PUSH2 0x12A JUMP JUMPDEST DUP1 PUSH4 0x7B0472F0 EQ PUSH2 0x252 JUMPI DUP1 PUSH4 0x8DA5CB5B EQ PUSH2 0x26E JUMPI DUP1 PUSH4 0xA6FDC26C EQ PUSH2 0x28C JUMPI DUP1 PUSH4 0xA8602FEA EQ PUSH2 0x2A8 JUMPI DUP1 PUSH4 0xAE169A50 EQ PUSH2 0x2C4 JUMPI PUSH2 0x12A JUMP JUMPDEST DUP1 PUSH4 0x4626402B GT PUSH2 0xF2 JUMPI DUP1 PUSH4 0x4626402B EQ PUSH2 0x1E6 JUMPI DUP1 PUSH4 0x476343EE EQ PUSH2 0x204 JUMPI DUP1 PUSH4 0x58A0BDE3 EQ PUSH2 0x20E JUMPI DUP1 PUSH4 0x5ACD2E4C EQ PUSH2 0x22C JUMPI DUP1 PUSH4 0x715018A6 EQ PUSH2 0x248 JUMPI PUSH2 0x12A JUMP JUMPDEST DUP1 PUSH4 0xA34CC12 EQ PUSH2 0x12E JUMPI DUP1 PUSH4 0x181D06A9 EQ PUSH2 0x14A JUMPI DUP1 PUSH4 0x1852E8D9 EQ PUSH2 0x166 JUMPI DUP1 PUSH4 0x2E17DE78 EQ PUSH2 0x196 JUMPI DUP1 PUSH4 0x407BB09D EQ PUSH2 0x1B2 JUMPI JUMPDEST PUSH0 PUSH0 REVERT JUMPDEST PUSH2 0x148 PUSH1 0x4 DUP1 CALLDATASIZE SUB DUP2 ADD SWAP1 PUSH2 0x143 SWAP2 SWAP1 PUSH2 0x1A6D JUMP JUMPDEST PUSH2 0x388 JUMP JUMPDEST STOP JUMPDEST PUSH2 0x164 PUSH1 0x4 DUP1 CALLDATASIZE SUB DUP2 ADD SWAP1 PUSH2 0x15F SWAP2 SWAP1 PUSH2 0x1AAB JUMP JUMPDEST PUSH2 0x415 JUMP JUMPDEST STOP JUMPDEST PUSH2 0x180 PUSH1 0x4 DUP1 CALLDATASIZE SUB DUP2 ADD SWAP1 PUSH2 0x17B SWAP2 SWAP1 PUSH2 0x1B30 JUMP JUMPDEST PUSH2 0x46C JUMP JUMPDEST PUSH1 0x40 MLOAD PUSH2 0x18D SWAP2 SWAP1 PUSH2 0x1B7D JUMP JUMPDEST PUSH1 0x40 MLOAD DUP1 SWAP2 SUB SWAP1 RETURN JUMPDEST PUSH2 0x1B0 PUSH1 0x4 DUP1 CALLDATASIZE SUB DUP2 ADD SWAP1 PUSH2 0x1AB SWAP2 SWAP1 PUSH2 0x1AAB JUMP JUMPDEST PUSH2 0x647 JUMP JUMPDEST STOP JUMPDEST PUSH2 0x1CC PUSH1 0x4 DUP1 CALLDATASIZE SUB DUP2 ADD SWAP1 PUSH2 0x1C7 SWAP2 SWAP1 PUSH2 0x1AAB JUMP JUMPDEST PUSH2 0x9F8 JUMP JUMPDEST PUSH1 0x40 MLOAD PUSH2 0x1DD SWAP6 SWAP5 SWAP4 SWAP3 SWAP2 SWAP1 PUSH2 0x1BB4 JUMP JUMPDEST PUSH1 0x40 MLOAD DUP1 SWAP2 SUB SWAP1 RETURN JUMPDEST PUSH2 0x1EE PUSH2 0xA64 JUMP JUMPDEST PUSH1 0x40 MLOAD PUSH2 0x1FB SWAP2 SWAP1 PUSH2 0x1C05 JUMP JUMPDEST PUSH1 0x40 MLOAD DUP1 SWAP2 SUB SWAP1 RETURN JUMPDEST PUSH2 0x20C PUSH2 0xA89 JUMP JUMPDEST STOP JUMPDEST PUSH2 0x216 PUSH2 0xB4F JUMP JUMPDEST PUSH1 0x40 MLOAD PUSH2 0x223 SWAP2 SWAP1 PUSH2 0x1C79 JUMP JUMPDEST PUSH1 0x40 MLOAD DUP1 SWAP2 SUB SWAP1 RETURN JUMPDEST PUSH2 0x246 PUSH1 0x4 DUP1 CALLDATASIZE SUB DUP2 ADD SWAP1 PUSH2 0x241 SWAP2 SWAP1 PUSH2 0x1C92 JUMP JUMPDEST PUSH2 0xB73 JUMP JUMPDEST STOP JUMPDEST PUSH2 0x250 PUSH2 0xC37 JUMP JUMPDEST STOP JUMPDEST PUSH2 0x26C PUSH1 0x4 DUP1 CALLDATASIZE SUB DUP2 ADD SWAP1 PUSH2 0x267 SWAP2 SWAP1 PUSH2 0x1C92 JUMP JUMPDEST PUSH2 0xC4A JUMP JUMPDEST STOP JUMPDEST PUSH2 0x276 PUSH2 0xF65 JUMP JUMPDEST PUSH1 0x40 MLOAD PUSH2 0x283 SWAP2 SWAP1 PUSH2 0x1C05 JUMP JUMPDEST PUSH1 0x40 MLOAD DUP1 SWAP2 SUB SWAP1 RETURN JUMPDEST PUSH2 0x2A6 PUSH1 0x4 DUP1 CALLDATASIZE SUB DUP2 ADD SWAP1 PUSH2 0x2A1 SWAP2 SWAP1 PUSH2 0x1AAB JUMP JUMPDEST PUSH2 0xF8C JUMP JUMPDEST STOP JUMPDEST PUSH2 0x2C2 PUSH1 0x4 DUP1 CALLDATASIZE SUB DUP2 ADD SWAP1 PUSH2 0x2BD SWAP2 SWAP1 PUSH2 0x1CD0 JUMP JUMPDEST PUSH2 0x113E JUMP JUMPDEST STOP JUMPDEST PUSH2 0x2DE PUSH1 0x4 DUP1 CALLDATASIZE SUB DUP2 ADD SWAP1 PUSH2 0x2D9 SWAP2 SWAP1 PUSH2 0x1AAB JUMP JUMPDEST PUSH2 0x123A JUMP JUMPDEST STOP JUMPDEST PUSH2 0x2FA PUSH1 0x4 DUP1 CALLDATASIZE SUB DUP2 ADD SWAP1 PUSH2 0x2F5 SWAP2 SWAP1 PUSH2 0x1B30 JUMP JUMPDEST PUSH2 0x148A JUMP JUMPDEST PUSH1 0x40 MLOAD PUSH2 0x30B SWAP6 SWAP5 SWAP4 SWAP3 SWAP2 SWAP1 PUSH2 0x1CFB JUMP JUMPDEST PUSH1 0x40 MLOAD DUP1 SWAP2 SUB SWAP1 RETURN JUMPDEST PUSH2 0x31C PUSH2 0x14E2 JUMP JUMPDEST PUSH1 0x40 MLOAD PUSH2 0x329 SWAP2 SWAP1 PUSH2 0x1B7D JUMP JUMPDEST PUSH1 0x40 MLOAD DUP1 SWAP2 SUB SWAP1 RETURN JUMPDEST PUSH2 0x33A PUSH2 0x14E8 JUMP JUMPDEST PUSH1 0x40 MLOAD PUSH2 0x347 SWAP2 SWAP1 PUSH2 0x1B7D JUMP JUMPDEST PUSH1 0x40 MLOAD DUP1 SWAP2 SUB SWAP1 RETURN JUMPDEST PUSH2 0x36A PUSH1 0x4 DUP1 CALLDATASIZE SUB DUP2 ADD SWAP1 PUSH2 0x365 SWAP2 SWAP1 PUSH2 0x1D4C JUMP JUMPDEST PUSH2 0x14EE JUMP JUMPDEST STOP JUMPDEST PUSH2 0x386 PUSH1 0x4 DUP1 CALLDATASIZE SUB DUP2 ADD SWAP1 PUSH2 0x381 SWAP2 SWAP1 PUSH2 0x1CD0 JUMP JUMPDEST PUSH2 0x163A JUMP JUMPDEST STOP JUMPDEST PUSH2 0x390 PUSH2 0x16BE JUMP JUMPDEST PUSH1 0x2 DUP1 SLOAD SWAP1 POP DUP3 LT PUSH2 0x3D7 JUMPI PUSH1 0x40 MLOAD PUSH32 0x8C379A000000000000000000000000000000000000000000000000000000000 DUP2 MSTORE PUSH1 0x4 ADD PUSH2 0x3CE SWAP1 PUSH2 0x1E0A JUMP JUMPDEST PUSH1 0x40 MLOAD DUP1 SWAP2 SUB SWAP1 REVERT JUMPDEST DUP1 PUSH1 0x2 DUP4 DUP2 SLOAD DUP2 LT PUSH2 0x3EC JUMPI PUSH2 0x3EB PUSH2 0x1E28 JUMP JUMPDEST JUMPDEST SWAP1 PUSH0 MSTORE PUSH1 0x20 PUSH0 KECCAK256 SWAP1 PUSH1 0x5 MUL ADD PUSH1 0x4 ADD PUSH0 PUSH2 0x100 EXP DUP2 SLOAD DUP2 PUSH1 0xFF MUL NOT AND SWAP1 DUP4 ISZERO ISZERO MUL OR SWAP1 SSTORE POP POP POP JUMP JUMPDEST PUSH2 0x41D PUSH2 0x16BE JUMP JUMPDEST PUSH2 0x3E8 DUP2 GT ISZERO PUSH2 0x462 JUMPI PUSH1 0x40 MLOAD PUSH32 0x8C379A000000000000000000000000000000000000000000000000000000000 DUP2 MSTORE PUSH1 0x4 ADD PUSH2 0x459 SWAP1 PUSH2 0x1E9F JUMP JUMPDEST PUSH1 0x40 MLOAD DUP1 SWAP2 SUB SWAP1 REVERT JUMPDEST DUP1 PUSH1 0x5 DUP2 SWAP1 SSTORE POP POP JUMP JUMPDEST PUSH0 PUSH0 PUSH1 0x3 PUSH0 DUP6 PUSH20 0xFFFFFFFFFFFFFFFFFFFFFFFFFFFFFFFFFFFFFFFF AND PUSH20 0xFFFFFFFFFFFFFFFFFFFFFFFFFFFFFFFFFFFFFFFF AND DUP2 MSTORE PUSH1 0x20 ADD SWAP1 DUP2 MSTORE PUSH1 0x20 ADD PUSH0 KECCAK256 DUP4 DUP2 SLOAD DUP2 LT PUSH2 0x4BD JUMPI PUSH2 0x4BC PUSH2 0x1E28 JUMP JUMPDEST JUMPDEST SWAP1 PUSH0 MSTORE PUSH1 0x20 PUSH0 KECCAK256 SWAP1 PUSH1 0x5 MUL ADD PUSH1 0x40 MLOAD DUP1 PUSH1 0xA0 ADD PUSH1 0x40 MSTORE SWAP1 DUP2 PUSH0 DUP3 ADD SLOAD DUP2 MSTORE PUSH1 0x20 ADD PUSH1 0x1 DUP3 ADD SLOAD DUP2 MSTORE PUSH1 0x20 ADD PUSH1 0x2 DUP3 ADD SLOAD DUP2 MSTORE PUSH1 0x20 ADD PUSH1 0x3 DUP3 ADD SLOAD DUP2 MSTORE PUSH1 0x20 ADD PUSH1 0x4 DUP3 ADD PUSH0 SWAP1 SLOAD SWAP1 PUSH2 0x100 EXP SWAP1 DIV PUSH1 0xFF AND ISZERO ISZERO ISZERO ISZERO DUP2 MSTORE POP POP SWAP1 POP PUSH0 DUP2 PUSH1 0x20 ADD MLOAD SUB PUSH2 0x52B JUMPI PUSH0 SWAP2 POP POP PUSH2 0x641 JUMP JUMPDEST PUSH0 PUSH1 0x2 DUP3 PUSH0 ADD MLOAD DUP2 SLOAD DUP2 LT PUSH2 0x543 JUMPI PUSH2 0x542 PUSH2 0x1E28 JUMP JUMPDEST JUMPDEST SWAP1 PUSH0 MSTORE PUSH1 0x20 PUSH0 KECCAK256 SWAP1 PUSH1 0x5 MUL ADD PUSH1 0x40 MLOAD DUP1 PUSH1 0xA0 ADD PUSH1 0x40 MSTORE SWAP1 DUP2 PUSH0 DUP3 ADD PUSH0 SWAP1 SLOAD SWAP1 PUSH2 0x100 EXP SWAP1 DIV PUSH20 0xFFFFFFFFFFFFFFFFFFFFFFFFFFFFFFFFFFFFFFFF AND PUSH20 0xFFFFFFFFFFFFFFFFFFFFFFFFFFFFFFFFFFFFFFFF AND PUSH20 0xFFFFFFFFFFFFFFFFFFFFFFFFFFFFFFFFFFFFFFFF AND DUP2 MSTORE PUSH1 0x20 ADD PUSH1 0x1 DUP3 ADD SLOAD DUP2 MSTORE PUSH1 0x20 ADD PUSH1 0x2 DUP3 ADD SLOAD DUP2 MSTORE PUSH1 0x20 ADD PUSH1 0x3 DUP3 ADD SLOAD DUP2 MSTORE PUSH1 0x20 ADD PUSH1 0x4 DUP3 ADD PUSH0 SWAP1 SLOAD SWAP1 PUSH2 0x100 EXP SWAP1 DIV PUSH1 0xFF AND ISZERO ISZERO ISZERO ISZERO DUP2 MSTORE POP POP SWAP1 POP PUSH0 DUP3 PUSH1 0x60 ADD MLOAD TIMESTAMP PUSH2 0x5F9 SWAP2 SWAP1 PUSH2 0x1EEA JUMP JUMPDEST SWAP1 POP PUSH0 PUSH2 0x2710 DUP4 PUSH1 0x40 ADD MLOAD DUP6 PUSH1 0x20 ADD MLOAD PUSH2 0x613 SWAP2 SWAP1 PUSH2 0x1F1D JUMP JUMPDEST PUSH2 0x61D SWAP2 SWAP1 PUSH2 0x1F8B JUMP JUMPDEST SWAP1 POP PUSH4 0x1E13380 DUP3 DUP3 PUSH2 0x630 SWAP2 SWAP1 PUSH2 0x1F1D JUMP JUMPDEST PUSH2 0x63A SWAP2 SWAP1 PUSH2 0x1F8B JUMP JUMPDEST SWAP5 POP POP POP POP POP JUMPDEST SWAP3 SWAP2 POP POP JUMP JUMPDEST PUSH2 0x64F PUSH2 0x1745 JUMP JUMPDEST CALLER PUSH20 0xFFFFFFFFFFFFFFFFFFFFFFFFFFFFFFFFFFFFFFFF AND ORIGIN PUSH20 0xFFFFFFFFFFFFFFFFFFFFFFFFFFFFFFFFFFFFFFFF AND EQ PUSH2 0x6BD JUMPI PUSH1 0x40 MLOAD PUSH32 0x8C379A000000000000000000000000000000000000000000000000000000000 DUP2 MSTORE PUSH1 0x4 ADD PUSH2 0x6B4 SWAP1 PUSH2 0x2005 JUMP JUMPDEST PUSH1 0x40 MLOAD DUP1 SWAP2 SUB SWAP1 REVERT JUMPDEST PUSH0 PUSH1 0x3 PUSH0 CALLER PUSH20 0xFFFFFFFFFFFFFFFFFFFFFFFFFFFFFFFFFFFFFFFF AND PUSH20 0xFFFFFFFFFFFFFFFFFFFFFFFFFFFFFFFFFFFFFFFF AND DUP2 MSTORE PUSH1 0x20 ADD SWAP1 DUP2 MSTORE PUSH1 0x20 ADD PUSH0 KECCAK256 DUP3 DUP2 SLOAD DUP2 LT PUSH2 0x70D JUMPI PUSH2 0x70C PUSH2 0x1E28 JUMP JUMPDEST JUMPDEST SWAP1 PUSH0 MSTORE PUSH1 0x20 PUSH0 KECCAK256 SWAP1 PUSH1 0x5 MUL ADD SWAP1 POP PUSH0 DUP2 PUSH1 0x1 ADD SLOAD GT PUSH2 0x761 JUMPI PUSH1 0x40 MLOAD PUSH32 0x8C379A000000000000000000000000000000000000000000000000000000000 DUP2 MSTORE PUSH1 0x4 ADD PUSH2 0x758 SWAP1 PUSH2 0x206D JUMP JUMPDEST PUSH1 0x40 MLOAD DUP1 SWAP2 SUB SWAP1 REVERT JUMPDEST PUSH0 PUSH1 0x2 DUP3 PUSH0 ADD SLOAD DUP2 SLOAD DUP2 LT PUSH2 0x779 JUMPI PUSH2 0x778 PUSH2 0x1E28 JUMP JUMPDEST JUMPDEST SWAP1 PUSH0 MSTORE PUSH1 0x20 PUSH0 KECCAK256 SWAP1 PUSH1 0x5 MUL ADD PUSH1 0x40 MLOAD DUP1 PUSH1 0xA0 ADD PUSH1 0x40 MSTORE SWAP1 DUP2 PUSH0 DUP3 ADD PUSH0 SWAP1 SLOAD SWAP1 PUSH2 0x100 EXP SWAP1 DIV PUSH20 0xFFFFFFFFFFFFFFFFFFFFFFFFFFFFFFFFFFFFFFFF AND PUSH20 0xFFFFFFFFFFFFFFFFFFFFFFFFFFFFFFFFFFFFFFFF AND PUSH20 0xFFFFFFFFFFFFFFFFFFFFFFFFFFFFFFFFFFFFFFFF AND DUP2 MSTORE PUSH1 0x20 ADD PUSH1 0x1 DUP3 ADD SLOAD DUP2 MSTORE PUSH1 0x20 ADD PUSH1 0x2 DUP3 ADD SLOAD DUP2 MSTORE PUSH1 0x20 ADD PUSH1 0x3 DUP3 ADD SLOAD DUP2 MSTORE PUSH1 0x20 ADD PUSH1 0x4 DUP3 ADD PUSH0 SWAP1 SLOAD SWAP1 PUSH2 0x100 EXP SWAP1 DIV PUSH1 0xFF AND ISZERO ISZERO ISZERO ISZERO DUP2 MSTORE POP POP SWAP1 POP DUP1 PUSH1 0x20 ADD MLOAD DUP3 PUSH1 0x2 ADD SLOAD PUSH2 0x832 SWAP2 SWAP1 PUSH2 0x208B JUMP JUMPDEST TIMESTAMP LT ISZERO PUSH2 0x874 JUMPI PUSH1 0x40 MLOAD PUSH32 0x8C379A000000000000000000000000000000000000000000000000000000000 DUP2 MSTORE PUSH1 0x4 ADD PUSH2 0x86B SWAP1 PUSH2 0x2108 JUMP JUMPDEST PUSH1 0x40 MLOAD DUP1 SWAP2 SUB SWAP1 REVERT JUMPDEST PUSH0 PUSH2 0x87F CALLER DUP6 PUSH2 0x46C JUMP JUMPDEST SWAP1 POP PUSH0 DUP4 PUSH1 0x1 ADD SLOAD SWAP1 POP PUSH1 0x3 PUSH0 CALLER PUSH20 0xFFFFFFFFFFFFFFFFFFFFFFFFFFFFFFFFFFFFFFFF AND PUSH20 0xFFFFFFFFFFFFFFFFFFFFFFFFFFFFFFFFFFFFFFFF AND DUP2 MSTORE PUSH1 0x20 ADD SWAP1 DUP2 MSTORE PUSH1 0x20 ADD PUSH0 KECCAK256 DUP6 DUP2 SLOAD DUP2 LT PUSH2 0x8D8 JUMPI PUSH2 0x8D7 PUSH2 0x1E28 JUMP JUMPDEST JUMPDEST SWAP1 PUSH0 MSTORE PUSH1 0x20 PUSH0 KECCAK256 SWAP1 PUSH1 0x5 MUL ADD PUSH0 PUSH0 DUP3 ADD PUSH0 SWAP1 SSTORE PUSH1 0x1 DUP3 ADD PUSH0 SWAP1 SSTORE PUSH1 0x2 DUP3 ADD PUSH0 SWAP1 SSTORE PUSH1 0x3 DUP3 ADD PUSH0 SWAP1 SSTORE PUSH1 0x4 DUP3 ADD PUSH0 PUSH2 0x100 EXP DUP2 SLOAD SWAP1 PUSH1 0xFF MUL NOT AND SWAP1 SSTORE POP POP PUSH2 0x943 CALLER DUP3 DUP6 PUSH0 ADD MLOAD PUSH20 0xFFFFFFFFFFFFFFFFFFFFFFFFFFFFFFFFFFFFFFFF AND PUSH2 0x1794 SWAP1 SWAP3 SWAP2 SWAP1 PUSH4 0xFFFFFFFF AND JUMP JUMPDEST PUSH0 DUP3 GT ISZERO PUSH2 0x997 JUMPI PUSH2 0x996 CALLER DUP4 PUSH32 0x0 PUSH20 0xFFFFFFFFFFFFFFFFFFFFFFFFFFFFFFFFFFFFFFFF AND PUSH2 0x1794 SWAP1 SWAP3 SWAP2 SWAP1 PUSH4 0xFFFFFFFF AND JUMP JUMPDEST JUMPDEST CALLER PUSH20 0xFFFFFFFFFFFFFFFFFFFFFFFFFFFFFFFFFFFFFFFF AND PUSH32 0x204FCCF0D92ED8D48F204ADB39B2E81E92BAD0DEDB93F5716CA9478CFB57DE00 DUP7 DUP4 DUP6 PUSH1 0x40 MLOAD PUSH2 0x9E1 SWAP4 SWAP3 SWAP2 SWAP1 PUSH2 0x2126 JUMP JUMPDEST PUSH1 0x40 MLOAD DUP1 SWAP2 SUB SWAP1 LOG2 POP POP POP POP PUSH2 0x9F5 PUSH2 0x1813 JUMP JUMPDEST POP JUMP JUMPDEST PUSH1 0x2 DUP2 DUP2 SLOAD DUP2 LT PUSH2 0xA07 JUMPI PUSH0 DUP1 REVERT JUMPDEST SWAP1 PUSH0 MSTORE PUSH1 0x20 PUSH0 KECCAK256 SWAP1 PUSH1 0x5 MUL ADD PUSH0 SWAP2 POP SWAP1 POP DUP1 PUSH0 ADD PUSH0 SWAP1 SLOAD SWAP1 PUSH2 0x100 EXP SWAP1 DIV PUSH20 0xFFFFFFFFFFFFFFFFFFFFFFFFFFFFFFFFFFFFFFFF AND SWAP1 DUP1 PUSH1 0x1 ADD SLOAD SWAP1 DUP1 PUSH1 0x2 ADD SLOAD SWAP1 DUP1 PUSH1 0x3 ADD SLOAD SWAP1 DUP1 PUSH1 0x4 ADD PUSH0 SWAP1 SLOAD SWAP1 PUSH2 0x100 EXP SWAP1 DIV PUSH1 0xFF AND SWAP1 POP DUP6 JUMP JUMPDEST PUSH1 0x6 PUSH0 SWAP1 SLOAD SWAP1 PUSH2 0x100 EXP SWAP1 DIV PUSH20 0xFFFFFFFFFFFFFFFFFFFFFFFFFFFFFFFFFFFFFFFF AND DUP2 JUMP JUMPDEST PUSH2 0xA91 PUSH2 0x16BE JUMP JUMPDEST PUSH0 PUSH1 0x4 SLOAD SWAP1 POP PUSH0 DUP2 GT PUSH2 0xAD9 JUMPI PUSH1 0x40 MLOAD PUSH32 0x8C379A000000000000000000000000000000000000000000000000000000000 DUP2 MSTORE PUSH1 0x4 ADD PUSH2 0xAD0 SWAP1 PUSH2 0x21A5 JUMP JUMPDEST PUSH1 0x40 MLOAD DUP1 SWAP2 SUB SWAP1 REVERT JUMPDEST PUSH0 PUSH1 0x4 DUP2 SWAP1 SSTORE POP PUSH2 0xB4C PUSH1 0x6 PUSH0 SWAP1 SLOAD SWAP1 PUSH2 0x100 EXP SWAP1 DIV PUSH20 0xFFFFFFFFFFFFFFFFFFFFFFFFFFFFFFFFFFFFFFFF AND DUP3 PUSH32 0x0 PUSH20 0xFFFFFFFFFFFFFFFFFFFFFFFFFFFFFFFFFFFFFFFF AND PUSH2 0x1794 SWAP1 SWAP3 SWAP2 SWAP1 PUSH4 0xFFFFFFFF AND JUMP JUMPDEST POP JUMP JUMPDEST PUSH32 0x0 DUP2 JUMP JUMPDEST PUSH2 0xB7B PUSH2 0x16BE JUMP JUMPDEST PUSH1 0x2 DUP1 SLOAD SWAP1 POP DUP3 LT PUSH2 0xBC2 JUMPI PUSH1 0x40 MLOAD PUSH32 0x8C379A000000000000000000000000000000000000000000000000000000000 DUP2 MSTORE PUSH1 0x4 ADD PUSH2 0xBB9 SWAP1 PUSH2 0x1E0A JUMP JUMPDEST PUSH1 0x40 MLOAD DUP1 SWAP2 SUB SWAP1 REVERT JUMPDEST PUSH0 PUSH1 0x2 DUP4 DUP2 SLOAD DUP2 LT PUSH2 0xBD7 JUMPI PUSH2 0xBD6 PUSH2 0x1E28 JUMP JUMPDEST JUMPDEST SWAP1 PUSH0 MSTORE PUSH1 0x20 PUSH0 KECCAK256 SWAP1 PUSH1 0x5 MUL ADD SWAP1 POP PUSH0 DUP2 PUSH1 0x2 ADD SLOAD SWAP1 POP DUP3 DUP3 PUSH1 0x2 ADD DUP2 SWAP1 SSTORE POP PUSH32 0x447F7585030D3EF3A73DB720F6082F657781A4A8657461796B868687CAAEA1E2 DUP5 DUP3 DUP6 PUSH1 0x40 MLOAD PUSH2 0xC29 SWAP4 SWAP3 SWAP2 SWAP1 PUSH2 0x2126 JUMP JUMPDEST PUSH1 0x40 MLOAD DUP1 SWAP2 SUB SWAP1 LOG1 POP POP POP POP JUMP JUMPDEST PUSH2 0xC3F PUSH2 0x16BE JUMP JUMPDEST PUSH2 0xC48 PUSH0 PUSH2 0x181C JUMP JUMPDEST JUMP JUMPDEST PUSH2 0xC52 PUSH2 0x1745 JUMP JUMPDEST CALLER PUSH20 0xFFFFFFFFFFFFFFFFFFFFFFFFFFFFFFFFFFFFFFFF AND ORIGIN PUSH20 0xFFFFFFFFFFFFFFFFFFFFFFFFFFFFFFFFFFFFFFFF AND EQ PUSH2 0xCC0 JUMPI PUSH1 0x40 MLOAD PUSH32 0x8C379A000000000000000000000000000000000000000000000000000000000 DUP2 MSTORE PUSH1 0x4 ADD PUSH2 0xCB7 SWAP1 PUSH2 0x2005 JUMP JUMPDEST PUSH1 0x40 MLOAD DUP1 SWAP2 SUB SWAP1 REVERT JUMPDEST PUSH0 PUSH1 0x2 DUP4 DUP2 SLOAD DUP2 LT PUSH2 0xCD5 JUMPI PUSH2 0xCD4 PUSH2 0x1E28 JUMP JUMPDEST JUMPDEST SWAP1 PUSH0 MSTORE PUSH1 0x20 PUSH0 KECCAK256 SWAP1 PUSH1 0x5 MUL ADD PUSH1 0x40 MLOAD DUP1 PUSH1 0xA0 ADD PUSH1 0x40 MSTORE SWAP1 DUP2 PUSH0 DUP3 ADD PUSH0 SWAP1 SLOAD SWAP1 PUSH2 0x100 EXP SWAP1 DIV PUSH20 0xFFFFFFFFFFFFFFFFFFFFFFFFFFFFFFFFFFFFFFFF AND PUSH20 0xFFFFFFFFFFFFFFFFFFFFFFFFFFFFFFFFFFFFFFFF AND PUSH20 0xFFFFFFFFFFFFFFFFFFFFFFFFFFFFFFFFFFFFFFFF AND DUP2 MSTORE PUSH1 0x20 ADD PUSH1 0x1 DUP3 ADD SLOAD DUP2 MSTORE PUSH1 0x20 ADD PUSH1 0x2 DUP3 ADD SLOAD DUP2 MSTORE PUSH1 0x20 ADD PUSH1 0x3 DUP3 ADD SLOAD DUP2 MSTORE PUSH1 0x20 ADD PUSH1 0x4 DUP3 ADD PUSH0 SWAP1 SLOAD SWAP1 PUSH2 0x100 EXP SWAP1 DIV PUSH1 0xFF AND ISZERO ISZERO ISZERO ISZERO DUP2 MSTORE POP POP SWAP1 POP DUP1 PUSH1 0x80 ADD MLOAD PUSH2 0xDBE JUMPI PUSH1 0x40 MLOAD PUSH32 0x8C379A000000000000000000000000000000000000000000000000000000000 DUP2 MSTORE PUSH1 0x4 ADD PUSH2 0xDB5 SWAP1 PUSH2 0x220D JUMP JUMPDEST PUSH1 0x40 MLOAD DUP1 SWAP2 SUB SWAP1 REVERT JUMPDEST DUP1 PUSH1 0x60 ADD MLOAD DUP3 LT ISZERO PUSH2 0xE05 JUMPI PUSH1 0x40 MLOAD PUSH32 0x8C379A000000000000000000000000000000000000000000000000000000000 DUP2 MSTORE PUSH1 0x4 ADD PUSH2 0xDFC SWAP1 PUSH2 0x2275 JUMP JUMPDEST PUSH1 0x40 MLOAD DUP1 SWAP2 SUB SWAP1 REVERT JUMPDEST PUSH2 0xE35 CALLER ADDRESS DUP5 DUP5 PUSH0 ADD MLOAD PUSH20 0xFFFFFFFFFFFFFFFFFFFFFFFFFFFFFFFFFFFFFFFF AND PUSH2 0x18DD SWAP1 SWAP4 SWAP3 SWAP2 SWAP1 PUSH4 0xFFFFFFFF AND JUMP JUMPDEST PUSH1 0x3 PUSH0 CALLER PUSH20 0xFFFFFFFFFFFFFFFFFFFFFFFFFFFFFFFFFFFFFFFF AND PUSH20 0xFFFFFFFFFFFFFFFFFFFFFFFFFFFFFFFFFFFFFFFF AND DUP2 MSTORE PUSH1 0x20 ADD SWAP1 DUP2 MSTORE PUSH1 0x20 ADD PUSH0 KECCAK256 PUSH1 0x40 MLOAD DUP1 PUSH1 0xA0 ADD PUSH1 0x40 MSTORE DUP1 DUP6 DUP2 MSTORE PUSH1 0x20 ADD DUP5 DUP2 MSTORE PUSH1 0x20 ADD TIMESTAMP DUP2 MSTORE PUSH1 0x20 ADD TIMESTAMP DUP2 MSTORE PUSH1 0x20 ADD PUSH0 ISZERO ISZERO DUP2 MSTORE POP SWAP1 DUP1 PUSH1 0x1 DUP2 SLOAD ADD DUP1 DUP3 SSTORE DUP1 SWAP2 POP POP PUSH1 0x1 SWAP1 SUB SWAP1 PUSH0 MSTORE PUSH1 0x20 PUSH0 KECCAK256 SWAP1 PUSH1 0x5 MUL ADD PUSH0 SWAP1 SWAP2 SWAP1 SWAP2 SWAP1 SWAP2 POP PUSH0 DUP3 ADD MLOAD DUP2 PUSH0 ADD SSTORE PUSH1 0x20 DUP3 ADD MLOAD DUP2 PUSH1 0x1 ADD SSTORE PUSH1 0x40 DUP3 ADD MLOAD DUP2 PUSH1 0x2 ADD SSTORE PUSH1 0x60 DUP3 ADD MLOAD DUP2 PUSH1 0x3 ADD SSTORE PUSH1 0x80 DUP3 ADD MLOAD DUP2 PUSH1 0x4 ADD PUSH0 PUSH2 0x100 EXP DUP2 SLOAD DUP2 PUSH1 0xFF MUL NOT AND SWAP1 DUP4 ISZERO ISZERO MUL OR SWAP1 SSTORE POP POP POP CALLER PUSH20 0xFFFFFFFFFFFFFFFFFFFFFFFFFFFFFFFFFFFFFFFF AND PUSH32 0x1449C6DD7851ABC30ABF37F57715F492010519147CC2652FBC38202C18A6EE90 DUP5 DUP5 PUSH1 0x40 MLOAD PUSH2 0xF50 SWAP3 SWAP2 SWAP1 PUSH2 0x2293 JUMP JUMPDEST PUSH1 0x40 MLOAD DUP1 SWAP2 SUB SWAP1 LOG2 POP PUSH2 0xF61 PUSH2 0x1813 JUMP JUMPDEST POP POP JUMP JUMPDEST PUSH0 PUSH0 PUSH0 SWAP1 SLOAD SWAP1 PUSH2 0x100 EXP SWAP1 DIV PUSH20 0xFFFFFFFFFFFFFFFFFFFFFFFFFFFFFFFFFFFFFFFF AND SWAP1 POP SWAP1 JUMP JUMPDEST PUSH2 0xF94 PUSH2 0x1745 JUMP JUMPDEST CALLER PUSH20 0xFFFFFFFFFFFFFFFFFFFFFFFFFFFFFFFFFFFFFFFF AND ORIGIN PUSH20 0xFFFFFFFFFFFFFFFFFFFFFFFFFFFFFFFFFFFFFFFF AND EQ PUSH2 0x1002 JUMPI PUSH1 0x40 MLOAD PUSH32 0x8C379A000000000000000000000000000000000000000000000000000000000 DUP2 MSTORE PUSH1 0x4 ADD PUSH2 0xFF9 SWAP1 PUSH2 0x2005 JUMP JUMPDEST PUSH1 0x40 MLOAD DUP1 SWAP2 SUB SWAP1 REVERT JUMPDEST PUSH0 PUSH1 0x3 PUSH0 CALLER PUSH20 0xFFFFFFFFFFFFFFFFFFFFFFFFFFFFFFFFFFFFFFFF AND PUSH20 0xFFFFFFFFFFFFFFFFFFFFFFFFFFFFFFFFFFFFFFFF AND DUP2 MSTORE PUSH1 0x20 ADD SWAP1 DUP2 MSTORE PUSH1 0x20 ADD PUSH0 KECCAK256 DUP3 DUP2 SLOAD DUP2 LT PUSH2 0x1052 JUMPI PUSH2 0x1051 PUSH2 0x1E28 JUMP JUMPDEST JUMPDEST SWAP1 PUSH0 MSTORE PUSH1 0x20 PUSH0 KECCAK256 SWAP1 PUSH1 0x5 MUL ADD SWAP1 POP PUSH0 DUP2 PUSH1 0x1 ADD SLOAD GT PUSH2 0x10A6 JUMPI PUSH1 0x40 MLOAD PUSH32 0x8C379A000000000000000000000000000000000000000000000000000000000 DUP2 MSTORE PUSH1 0x4 ADD PUSH2 0x109D SWAP1 PUSH2 0x206D JUMP JUMPDEST PUSH1 0x40 MLOAD DUP1 SWAP2 SUB SWAP1 REVERT JUMPDEST DUP1 PUSH1 0x4 ADD PUSH0 SWAP1 SLOAD SWAP1 PUSH2 0x100 EXP SWAP1 DIV PUSH1 0xFF AND ISZERO DUP2 PUSH1 0x4 ADD PUSH0 PUSH2 0x100 EXP DUP2 SLOAD DUP2 PUSH1 0xFF MUL NOT AND SWAP1 DUP4 ISZERO ISZERO MUL OR SWAP1 SSTORE POP CALLER PUSH20 0xFFFFFFFFFFFFFFFFFFFFFFFFFFFFFFFFFFFFFFFF AND PUSH32 0x31A69D42A6F751ECFC0DBB2406339AEC90A8398DA52CEC9760A134A10D430C02 DUP4 DUP4 PUSH1 0x4 ADD PUSH0 SWAP1 SLOAD SWAP1 PUSH2 0x100 EXP SWAP1 DIV PUSH1 0xFF AND PUSH1 0x40 MLOAD PUSH2 0x112A SWAP3 SWAP2 SWAP1 PUSH2 0x22BA JUMP JUMPDEST PUSH1 0x40 MLOAD DUP1 SWAP2 SUB SWAP1 LOG2 POP PUSH2 0x113B PUSH2 0x1813 JUMP JUMPDEST POP JUMP JUMPDEST PUSH2 0x1146 PUSH2 0x16BE JUMP JUMPDEST PUSH0 PUSH20 0xFFFFFFFFFFFFFFFFFFFFFFFFFFFFFFFFFFFFFFFF AND DUP2 PUSH20 0xFFFFFFFFFFFFFFFFFFFFFFFFFFFFFFFFFFFFFFFF AND SUB PUSH2 0x11B4 JUMPI PUSH1 0x40 MLOAD PUSH32 0x8C379A000000000000000000000000000000000000000000000000000000000 DUP2 MSTORE PUSH1 0x4 ADD PUSH2 0x11AB SWAP1 PUSH2 0x232B JUMP JUMPDEST PUSH1 0x40 MLOAD DUP1 SWAP2 SUB SWAP1 REVERT JUMPDEST DUP1 PUSH1 0x6 PUSH0 PUSH2 0x100 EXP DUP2 SLOAD DUP2 PUSH20 0xFFFFFFFFFFFFFFFFFFFFFFFFFFFFFFFFFFFFFFFF MUL NOT AND SWAP1 DUP4 PUSH20 0xFFFFFFFFFFFFFFFFFFFFFFFFFFFFFFFFFFFFFFFF AND MUL OR SWAP1 SSTORE POP DUP1 PUSH20 0xFFFFFFFFFFFFFFFFFFFFFFFFFFFFFFFFFFFFFFFF AND PUSH32 0x27AAE5DB36D94179909D019AE0B1AC7C16D96D953148F63C0F6A0A9C8EAD79EE PUSH1 0x40 MLOAD PUSH1 0x40 MLOAD DUP1 SWAP2 SUB SWAP1 LOG2 POP JUMP JUMPDEST PUSH2 0x1242 PUSH2 0x1745 JUMP JUMPDEST CALLER PUSH20 0xFFFFFFFFFFFFFFFFFFFFFFFFFFFFFFFFFFFFFFFF AND ORIGIN PUSH20 0xFFFFFFFFFFFFFFFFFFFFFFFFFFFFFFFFFFFFFFFF AND EQ PUSH2 0x12B0 JUMPI PUSH1 0x40 MLOAD PUSH32 0x8C379A000000000000000000000000000000000000000000000000000000000 DUP2 MSTORE PUSH1 0x4 ADD PUSH2 0x12A7 SWAP1 PUSH2 0x2005 JUMP JUMPDEST PUSH1 0x40 MLOAD DUP1 SWAP2 SUB SWAP1 REVERT JUMPDEST PUSH0 PUSH1 0x3 PUSH0 CALLER PUSH20 0xFFFFFFFFFFFFFFFFFFFFFFFFFFFFFFFFFFFFFFFF AND PUSH20 0xFFFFFFFFFFFFFFFFFFFFFFFFFFFFFFFFFFFFFFFF AND DUP2 MSTORE PUSH1 0x20 ADD SWAP1 DUP2 MSTORE PUSH1 0x20 ADD PUSH0 KECCAK256 DUP3 DUP2 SLOAD DUP2 LT PUSH2 0x1300 JUMPI PUSH2 0x12FF PUSH2 0x1E28 JUMP JUMPDEST JUMPDEST SWAP1 PUSH0 MSTORE PUSH1 0x20 PUSH0 KECCAK256 SWAP1 PUSH1 0x5 MUL ADD SWAP1 POP PUSH0 DUP2 PUSH1 0x1 ADD SLOAD GT PUSH2 0x1354 JUMPI PUSH1 0x40 MLOAD PUSH32 0x8C379A000000000000000000000000000000000000000000000000000000000 DUP2 MSTORE PUSH1 0x4 ADD PUSH2 0x134B SWAP1 PUSH2 0x206D JUMP JUMPDEST PUSH1 0x40 MLOAD DUP1 SWAP2 SUB SWAP1 REVERT JUMPDEST PUSH0 PUSH2 0x135F CALLER DUP5 PUSH2 0x46C JUMP JUMPDEST SWAP1 POP PUSH0 DUP2 GT PUSH2 0x13A3 JUMPI PUSH1 0x40 MLOAD PUSH32 0x8C379A000000000000000000000000000000000000000000000000000000000 DUP2 MSTORE PUSH1 0x4 ADD PUSH2 0x139A SWAP1 PUSH2 0x2393 JUMP JUMPDEST PUSH1 0x40 MLOAD DUP1 SWAP2 SUB SWAP1 REVERT JUMPDEST TIMESTAMP DUP3 PUSH1 0x3 ADD DUP2 SWAP1 SSTORE POP DUP2 PUSH1 0x4 ADD PUSH0 SWAP1 SLOAD SWAP1 PUSH2 0x100 EXP SWAP1 DIV PUSH1 0xFF AND ISZERO PUSH2 0x13E1 JUMPI DUP1 DUP3 PUSH1 0x1 ADD PUSH0 DUP3 DUP3 SLOAD PUSH2 0x13D5 SWAP2 SWAP1 PUSH2 0x208B JUMP JUMPDEST SWAP3 POP POP DUP2 SWAP1 SSTORE POP PUSH2 0x142D JUMP JUMPDEST PUSH2 0x142C CALLER DUP3 PUSH32 0x0 PUSH20 0xFFFFFFFFFFFFFFFFFFFFFFFFFFFFFFFFFFFFFFFF AND PUSH2 0x1794 SWAP1 SWAP3 SWAP2 SWAP1 PUSH4 0xFFFFFFFF AND JUMP JUMPDEST JUMPDEST CALLER PUSH20 0xFFFFFFFFFFFFFFFFFFFFFFFFFFFFFFFFFFFFFFFF AND PUSH32 0xF01DA32686223933D8A18A391060918C7F11A3648639EDD87AE013E2E2731743 DUP5 DUP4 PUSH1 0x40 MLOAD PUSH2 0x1475 SWAP3 SWAP2 SWAP1 PUSH2 0x2293 JUMP JUMPDEST PUSH1 0x40 MLOAD DUP1 SWAP2 SUB SWAP1 LOG2 POP POP PUSH2 0x1487 PUSH2 0x1813 JUMP JUMPDEST POP JUMP JUMPDEST PUSH1 0x3 PUSH1 0x20 MSTORE DUP2 PUSH0 MSTORE PUSH1 0x40 PUSH0 KECCAK256 DUP2 DUP2 SLOAD DUP2 LT PUSH2 0x14A3 JUMPI PUSH0 DUP1 REVERT JUMPDEST SWAP1 PUSH0 MSTORE PUSH1 0x20 PUSH0 KECCAK256 SWAP1 PUSH1 0x5 MUL ADD PUSH0 SWAP2 POP SWAP2 POP POP DUP1 PUSH0 ADD SLOAD SWAP1 DUP1 PUSH1 0x1 ADD SLOAD SWAP1 DUP1 PUSH1 0x2 ADD SLOAD SWAP1 DUP1 PUSH1 0x3 ADD SLOAD SWAP1 DUP1 PUSH1 0x4 ADD PUSH0 SWAP1 SLOAD SWAP1 PUSH2 0x100 EXP SWAP1 DIV PUSH1 0xFF AND SWAP1 POP DUP6 JUMP JUMPDEST PUSH1 0x4 SLOAD DUP2 JUMP JUMPDEST PUSH1 0x5 SLOAD DUP2 JUMP JUMPDEST PUSH2 0x14F6 PUSH2 0x16BE JUMP JUMPDEST PUSH1 0x2 PUSH1 0x40 MLOAD DUP1 PUSH1 0xA0 ADD PUSH1 0x40 MSTORE DUP1 DUP7 PUSH20 0xFFFFFFFFFFFFFFFFFFFFFFFFFFFFFFFFFFFFFFFF AND DUP2 MSTORE PUSH1 0x20 ADD DUP6 DUP2 MSTORE PUSH1 0x20 ADD DUP5 DUP2 MSTORE PUSH1 0x20 ADD DUP4 DUP2 MSTORE PUSH1 0x20 ADD PUSH1 0x1 ISZERO ISZERO DUP2 MSTORE POP SWAP1 DUP1 PUSH1 0x1 DUP2 SLOAD ADD DUP1 DUP3 SSTORE DUP1 SWAP2 POP POP PUSH1 0x1 SWAP1 SUB SWAP1 PUSH0 MSTORE PUSH1 0x20 PUSH0 KECCAK256 SWAP1 PUSH1 0x5 MUL ADD PUSH0 SWAP1 SWAP2 SWAP1 SWAP2 SWAP1 SWAP2 POP PUSH0 DUP3 ADD MLOAD DUP2 PUSH0 ADD PUSH0 PUSH2 0x100 EXP DUP2 SLOAD DUP2 PUSH20 0xFFFFFFFFFFFFFFFFFFFFFFFFFFFFFFFFFFFFFFFF MUL NOT AND SWAP1 DUP4 PUSH20 0xFFFFFFFFFFFFFFFFFFFFFFFFFFFFFFFFFFFFFFFF AND MUL OR SWAP1 SSTORE POP PUSH1 0x20 DUP3 ADD MLOAD DUP2 PUSH1 0x1 ADD SSTORE PUSH1 0x40 DUP3 ADD MLOAD DUP2 PUSH1 0x2 ADD SSTORE PUSH1 0x60 DUP3 ADD MLOAD DUP2 PUSH1 0x3 ADD SSTORE PUSH1 0x80 DUP3 ADD MLOAD DUP2 PUSH1 0x4 ADD PUSH0 PUSH2 0x100 EXP DUP2 SLOAD DUP2 PUSH1 0xFF MUL NOT AND SWAP1 DUP4 ISZERO ISZERO MUL OR SWAP1 SSTORE POP POP POP PUSH32 0x449D6803FBC50A1B24602B1756EF38E10C1FB9C7F3D93DA3E692636702585548 PUSH1 0x1 PUSH1 0x2 DUP1 SLOAD SWAP1 POP PUSH2 0x1614 SWAP2 SWAP1 PUSH2 0x1EEA JUMP JUMPDEST DUP6 DUP6 DUP6 DUP6 PUSH1 0x1 PUSH1 0x40 MLOAD PUSH2 0x162C SWAP7 SWAP6 SWAP5 SWAP4 SWAP3 SWAP2 SWAP1 PUSH2 0x23B1 JUMP JUMPDEST PUSH1 0x40 MLOAD DUP1 SWAP2 SUB SWAP1 LOG1 POP POP POP POP JUMP JUMPDEST PUSH2 0x1642 PUSH2 0x16BE JUMP JUMPDEST PUSH0 PUSH20 0xFFFFFFFFFFFFFFFFFFFFFFFFFFFFFFFFFFFFFFFF AND DUP2 PUSH20 0xFFFFFFFFFFFFFFFFFFFFFFFFFFFFFFFFFFFFFFFF AND SUB PUSH2 0x16B2 JUMPI PUSH0 PUSH1 0x40 MLOAD PUSH32 0x1E4FBDF700000000000000000000000000000000000000000000000000000000 DUP2 MSTORE PUSH1 0x4 ADD PUSH2 0x16A9 SWAP2 SWAP1 PUSH2 0x1C05 JUMP JUMPDEST PUSH1 0x40 MLOAD DUP1 SWAP2 SUB SWAP1 REVERT JUMPDEST PUSH2 0x16BB DUP2 PUSH2 0x181C JUMP JUMPDEST POP JUMP JUMPDEST PUSH2 0x16C6 PUSH2 0x195F JUMP JUMPDEST PUSH20 0xFFFFFFFFFFFFFFFFFFFFFFFFFFFFFFFFFFFFFFFF AND PUSH2 0x16E4 PUSH2 0xF65 JUMP JUMPDEST PUSH20 0xFFFFFFFFFFFFFFFFFFFFFFFFFFFFFFFFFFFFFFFF AND EQ PUSH2 0x1743 JUMPI PUSH2 0x1707 PUSH2 0x195F JUMP JUMPDEST PUSH1 0x40 MLOAD PUSH32 0x118CDAA700000000000000000000000000000000000000000000000000000000 DUP2 MSTORE PUSH1 0x4 ADD PUSH2 0x173A SWAP2 SWAP1 PUSH2 0x1C05 JUMP JUMPDEST PUSH1 0x40 MLOAD DUP1 SWAP2 SUB SWAP1 REVERT JUMPDEST JUMP JUMPDEST PUSH1 0x2 PUSH1 0x1 SLOAD SUB PUSH2 0x178A JUMPI PUSH1 0x40 MLOAD PUSH32 0x8C379A000000000000000000000000000000000000000000000000000000000 DUP2 MSTORE PUSH1 0x4 ADD PUSH2 0x1781 SWAP1 PUSH2 0x245A JUMP JUMPDEST PUSH1 0x40 MLOAD DUP1 SWAP2 SUB SWAP1 REVERT JUMPDEST PUSH1 0x2 PUSH1 0x1 DUP2 SWAP1 SSTORE POP JUMP JUMPDEST PUSH2 0x180E DUP4 DUP5 PUSH20 0xFFFFFFFFFFFFFFFFFFFFFFFFFFFFFFFFFFFFFFFF AND PUSH4 0xA9059CBB DUP6 DUP6 PUSH1 0x40 MLOAD PUSH1 0x24 ADD PUSH2 0x17C7 SWAP3 SWAP2 SWAP1 PUSH2 0x2478 JUMP JUMPDEST PUSH1 0x40 MLOAD PUSH1 0x20 DUP2 DUP4 SUB SUB DUP2 MSTORE SWAP1 PUSH1 0x40 MSTORE SWAP2 POP PUSH1 0xE0 SHL PUSH1 0x20 DUP3 ADD DUP1 MLOAD PUSH28 0xFFFFFFFFFFFFFFFFFFFFFFFFFFFFFFFFFFFFFFFFFFFFFFFFFFFFFFFF DUP4 DUP2 DUP4 AND OR DUP4 MSTORE POP POP POP POP PUSH2 0x1966 JUMP JUMPDEST POP POP POP JUMP JUMPDEST PUSH1 0x1 DUP1 DUP2 SWAP1 SSTORE POP JUMP JUMPDEST PUSH0 PUSH0 PUSH0 SWAP1 SLOAD SWAP1 PUSH2 0x100 EXP SWAP1 DIV PUSH20 0xFFFFFFFFFFFFFFFFFFFFFFFFFFFFFFFFFFFFFFFF AND SWAP1 POP DUP2 PUSH0 PUSH0 PUSH2 0x100 EXP DUP2 SLOAD DUP2 PUSH20 0xFFFFFFFFFFFFFFFFFFFFFFFFFFFFFFFFFFFFFFFF MUL NOT AND SWAP1 DUP4 PUSH20 0xFFFFFFFFFFFFFFFFFFFFFFFFFFFFFFFFFFFFFFFF AND MUL OR SWAP1 SSTORE POP DUP2 PUSH20 0xFFFFFFFFFFFFFFFFFFFFFFFFFFFFFFFFFFFFFFFF AND DUP2 PUSH20 0xFFFFFFFFFFFFFFFFFFFFFFFFFFFFFFFFFFFFFFFF AND PUSH32 0x8BE0079C531659141344CD1FD0A4F28419497F9722A3DAAFE3B4186F6B6457E0 PUSH1 0x40 MLOAD PUSH1 0x40 MLOAD DUP1 SWAP2 SUB SWAP1 LOG3 POP POP JUMP JUMPDEST PUSH2 0x1959 DUP5 DUP6 PUSH20 0xFFFFFFFFFFFFFFFFFFFFFFFFFFFFFFFFFFFFFFFF AND PUSH4 0x23B872DD DUP7 DUP7 DUP7 PUSH1 0x40 MLOAD PUSH1 0x24 ADD PUSH2 0x1912 SWAP4 SWAP3 SWAP2 SWAP1 PUSH2 0x249F JUMP JUMPDEST PUSH1 0x40 MLOAD PUSH1 0x20 DUP2 DUP4 SUB SUB DUP2 MSTORE SWAP1 PUSH1 0x40 MSTORE SWAP2 POP PUSH1 0xE0 SHL PUSH1 0x20 DUP3 ADD DUP1 MLOAD PUSH28 0xFFFFFFFFFFFFFFFFFFFFFFFFFFFFFFFFFFFFFFFFFFFFFFFFFFFFFFFF DUP4 DUP2 DUP4 AND OR DUP4 MSTORE POP POP POP POP PUSH2 0x1966 JUMP JUMPDEST POP POP POP POP JUMP JUMPDEST PUSH0 CALLER SWAP1 POP SWAP1 JUMP JUMPDEST PUSH0 PUSH0 PUSH1 0x20 PUSH0 DUP5 MLOAD PUSH1 0x20 DUP7 ADD PUSH0 DUP9 GAS CALL DUP1 PUSH2 0x1985 JUMPI PUSH1 0x40 MLOAD RETURNDATASIZE PUSH0 DUP3 RETURNDATACOPY RETURNDATASIZE DUP2 REVERT JUMPDEST RETURNDATASIZE SWAP3 POP PUSH0 MLOAD SWAP2 POP POP PUSH0 DUP3 EQ PUSH2 0x199E JUMPI PUSH1 0x1 DUP2 EQ ISZERO PUSH2 0x19B9 JUMP JUMPDEST PUSH0 DUP5 PUSH20 0xFFFFFFFFFFFFFFFFFFFFFFFFFFFFFFFFFFFFFFFF AND EXTCODESIZE EQ JUMPDEST ISZERO PUSH2 0x19FB JUMPI DUP4 PUSH1 0x40 MLOAD PUSH32 0x5274AFE700000000000000000000000000000000000000000000000000000000 DUP2 MSTORE PUSH1 0x4 ADD PUSH2 0x19F2 SWAP2 SWAP1 PUSH2 0x1C05 JUMP JUMPDEST PUSH1 0x40 MLOAD DUP1 SWAP2 SUB SWAP1 REVERT JUMPDEST POP POP POP POP JUMP JUMPDEST PUSH0 PUSH0 REVERT JUMPDEST PUSH0 DUP2 SWAP1 POP SWAP2 SWAP1 POP JUMP JUMPDEST PUSH2 0x1A17 DUP2 PUSH2 0x1A05 JUMP JUMPDEST DUP2 EQ PUSH2 0x1A21 JUMPI PUSH0 PUSH0 REVERT JUMPDEST POP JUMP JUMPDEST PUSH0 DUP2 CALLDATALOAD SWAP1 POP PUSH2 0x1A32 DUP2 PUSH2 0x1A0E JUMP JUMPDEST SWAP3 SWAP2 POP POP JUMP JUMPDEST PUSH0 DUP2 ISZERO ISZERO SWAP1 POP SWAP2 SWAP1 POP JUMP JUMPDEST PUSH2 0x1A4C DUP2 PUSH2 0x1A38 JUMP JUMPDEST DUP2 EQ PUSH2 0x1A56 JUMPI PUSH0 PUSH0 REVERT JUMPDEST POP JUMP JUMPDEST PUSH0 DUP2 CALLDATALOAD SWAP1 POP PUSH2 0x1A67 DUP2 PUSH2 0x1A43 JUMP JUMPDEST SWAP3 SWAP2 POP POP JUMP JUMPDEST PUSH0 PUSH0 PUSH1 0x40 DUP4 DUP6 SUB SLT ISZERO PUSH2 0x1A83 JUMPI PUSH2 0x1A82 PUSH2 0x1A01 JUMP JUMPDEST JUMPDEST PUSH0 PUSH2 0x1A90 DUP6 DUP3 DUP7 ADD PUSH2 0x1A24 JUMP JUMPDEST SWAP3 POP POP PUSH1 0x20 PUSH2 0x1AA1 DUP6 DUP3 DUP7 ADD PUSH2 0x1A59 JUMP JUMPDEST SWAP2 POP POP SWAP3 POP SWAP3 SWAP1 POP JUMP JUMPDEST PUSH0 PUSH1 0x20 DUP3 DUP5 SUB SLT ISZERO PUSH2 0x1AC0 JUMPI PUSH2 0x1ABF PUSH2 0x1A01 JUMP JUMPDEST JUMPDEST PUSH0 PUSH2 0x1ACD DUP5 DUP3 DUP6 ADD PUSH2 0x1A24 JUMP JUMPDEST SWAP2 POP POP SWAP3 SWAP2 POP POP JUMP JUMPDEST PUSH0 PUSH20 0xFFFFFFFFFFFFFFFFFFFFFFFFFFFFFFFFFFFFFFFF DUP3 AND SWAP1 POP SWAP2 SWAP1 POP JUMP JUMPDEST PUSH0 PUSH2 0x1AFF DUP3 PUSH2 0x1AD6 JUMP JUMPDEST SWAP1 POP SWAP2 SWAP1 POP JUMP JUMPDEST PUSH2 0x1B0F DUP2 PUSH2 0x1AF5 JUMP JUMPDEST DUP2 EQ PUSH2 0x1B19 JUMPI PUSH0 PUSH0 REVERT JUMPDEST POP JUMP JUMPDEST PUSH0 DUP2 CALLDATALOAD SWAP1 POP PUSH2 0x1B2A DUP2 PUSH2 0x1B06 JUMP JUMPDEST SWAP3 SWAP2 POP POP JUMP JUMPDEST PUSH0 PUSH0 PUSH1 0x40 DUP4 DUP6 SUB SLT ISZERO PUSH2 0x1B46 JUMPI PUSH2 0x1B45 PUSH2 0x1A01 JUMP JUMPDEST JUMPDEST PUSH0 PUSH2 0x1B53 DUP6 DUP3 DUP7 ADD PUSH2 0x1B1C JUMP JUMPDEST SWAP3 POP POP PUSH1 0x20 PUSH2 0x1B64 DUP6 DUP3 DUP7 ADD PUSH2 0x1A24 JUMP JUMPDEST SWAP2 POP POP SWAP3 POP SWAP3 SWAP1 POP JUMP JUMPDEST PUSH2 0x1B77 DUP2 PUSH2 0x1A05 JUMP JUMPDEST DUP3 MSTORE POP POP JUMP JUMPDEST PUSH0 PUSH1 0x20 DUP3 ADD SWAP1 POP PUSH2 0x1B90 PUSH0 DUP4 ADD DUP5 PUSH2 0x1B6E JUMP JUMPDEST SWAP3 SWAP2 POP POP JUMP JUMPDEST PUSH2 0x1B9F DUP2 PUSH2 0x1AF5 JUMP JUMPDEST DUP3 MSTORE POP POP JUMP JUMPDEST PUSH2 0x1BAE DUP2 PUSH2 0x1A38 JUMP JUMPDEST DUP3 MSTORE POP POP JUMP JUMPDEST PUSH0 PUSH1 0xA0 DUP3 ADD SWAP1 POP PUSH2 0x1BC7 PUSH0 DUP4 ADD DUP9 PUSH2 0x1B96 JUMP JUMPDEST PUSH2 0x1BD4 PUSH1 0x20 DUP4 ADD DUP8 PUSH2 0x1B6E JUMP JUMPDEST PUSH2 0x1BE1 PUSH1 0x40 DUP4 ADD DUP7 PUSH2 0x1B6E JUMP JUMPDEST PUSH2 0x1BEE PUSH1 0x60 DUP4 ADD DUP6 PUSH2 0x1B6E JUMP JUMPDEST PUSH2 0x1BFB PUSH1 0x80 DUP4 ADD DUP5 PUSH2 0x1BA5 JUMP JUMPDEST SWAP7 SWAP6 POP POP POP POP POP POP JUMP JUMPDEST PUSH0 PUSH1 0x20 DUP3 ADD SWAP1 POP PUSH2 0x1C18 PUSH0 DUP4 ADD DUP5 PUSH2 0x1B96 JUMP JUMPDEST SWAP3 SWAP2 POP POP JUMP JUMPDEST PUSH0 DUP2 SWAP1 POP SWAP2 SWAP1 POP JUMP JUMPDEST PUSH0 PUSH2 0x1C41 PUSH2 0x1C3C PUSH2 0x1C37 DUP5 PUSH2 0x1AD6 JUMP JUMPDEST PUSH2 0x1C1E JUMP JUMPDEST PUSH2 0x1AD6 JUMP JUMPDEST SWAP1 POP SWAP2 SWAP1 POP JUMP JUMPDEST PUSH0 PUSH2 0x1C52 DUP3 PUSH2 0x1C27 JUMP JUMPDEST SWAP1 POP SWAP2 SWAP1 POP JUMP JUMPDEST PUSH0 PUSH2 0x1C63 DUP3 PUSH2 0x1C48 JUMP JUMPDEST SWAP1 POP SWAP2 SWAP1 POP JUMP JUMPDEST PUSH2 0x1C73 DUP2 PUSH2 0x1C59 JUMP JUMPDEST DUP3 MSTORE POP POP JUMP JUMPDEST PUSH0 PUSH1 0x20 DUP3 ADD SWAP1 POP PUSH2 0x1C8C PUSH0 DUP4 ADD DUP5 PUSH2 0x1C6A JUMP JUMPDEST SWAP3 SWAP2 POP POP JUMP JUMPDEST PUSH0 PUSH0 PUSH1 0x40 DUP4 DUP6 SUB SLT ISZERO PUSH2 0x1CA8 JUMPI PUSH2 0x1CA7 PUSH2 0x1A01 JUMP JUMPDEST JUMPDEST PUSH0 PUSH2 0x1CB5 DUP6 DUP3 DUP7 ADD PUSH2 0x1A24 JUMP JUMPDEST SWAP3 POP POP PUSH1 0x20 PUSH2 0x1CC6 DUP6 DUP3 DUP7 ADD PUSH2 0x1A24 JUMP JUMPDEST SWAP2 POP POP SWAP3 POP SWAP3 SWAP1 POP JUMP JUMPDEST PUSH0 PUSH1 0x20 DUP3 DUP5 SUB SLT ISZERO PUSH2 0x1CE5 JUMPI PUSH2 0x1CE4 PUSH2 0x1A01 JUMP JUMPDEST JUMPDEST PUSH0 PUSH2 0x1CF2 DUP5 DUP3 DUP6 ADD PUSH2 0x1B1C JUMP JUMPDEST SWAP2 POP POP SWAP3 SWAP2 POP POP JUMP JUMPDEST PUSH0 PUSH1 0xA0 DUP3 ADD SWAP1 POP PUSH2 0x1D0E PUSH0 DUP4 ADD DUP9 PUSH2 0x1B6E JUMP JUMPDEST PUSH2 0x1D1B PUSH1 0x20 DUP4 ADD DUP8 PUSH2 0x1B6E JUMP JUMPDEST PUSH2 0x1D28 PUSH1 0x40 DUP4 ADD DUP7 PUSH2 0x1B6E JUMP JUMPDEST PUSH2 0x1D35 PUSH1 0x60 DUP4 ADD DUP6 PUSH2 0x1B6E JUMP JUMPDEST PUSH2 0x1D42 PUSH1 0x80 DUP4 ADD DUP5 PUSH2 0x1BA5 JUMP JUMPDEST SWAP7 SWAP6 POP POP POP POP POP POP JUMP JUMPDEST PUSH0 PUSH0 PUSH0 PUSH0 PUSH1 0x80 DUP6 DUP8 SUB SLT ISZERO PUSH2 0x1D64 JUMPI PUSH2 0x1D63 PUSH2 0x1A01 JUMP JUMPDEST JUMPDEST PUSH0 PUSH2 0x1D71 DUP8 DUP3 DUP9 ADD PUSH2 0x1B1C JUMP JUMPDEST SWAP5 POP POP PUSH1 0x20 PUSH2 0x1D82 DUP8 DUP3 DUP9 ADD PUSH2 0x1A24 JUMP JUMPDEST SWAP4 POP POP PUSH1 0x40 PUSH2 0x1D93 DUP8 DUP3 DUP9 ADD PUSH2 0x1A24 JUMP JUMPDEST SWAP3 POP POP PUSH1 0x60 PUSH2 0x1DA4 DUP8 DUP3 DUP9 ADD PUSH2 0x1A24 JUMP JUMPDEST SWAP2 POP POP SWAP3 SWAP6 SWAP2 SWAP5 POP SWAP3 POP JUMP JUMPDEST PUSH0 DUP3 DUP3 MSTORE PUSH1 0x20 DUP3 ADD SWAP1 POP SWAP3 SWAP2 POP POP JUMP JUMPDEST PUSH32 0x496E76616C6964207061636B6167652049440000000000000000000000000000 PUSH0 DUP3 ADD MSTORE POP JUMP JUMPDEST PUSH0 PUSH2 0x1DF4 PUSH1 0x12 DUP4 PUSH2 0x1DB0 JUMP JUMPDEST SWAP2 POP PUSH2 0x1DFF DUP3 PUSH2 0x1DC0 JUMP JUMPDEST PUSH1 0x20 DUP3 ADD SWAP1 POP SWAP2 SWAP1 POP JUMP JUMPDEST PUSH0 PUSH1 0x20 DUP3 ADD SWAP1 POP DUP2 DUP2 SUB PUSH0 DUP4 ADD MSTORE PUSH2 0x1E21 DUP2 PUSH2 0x1DE8 JUMP JUMPDEST SWAP1 POP SWAP2 SWAP1 POP JUMP JUMPDEST PUSH32 0x4E487B7100000000000000000000000000000000000000000000000000000000 PUSH0 MSTORE PUSH1 0x32 PUSH1 0x4 MSTORE PUSH1 0x24 PUSH0 REVERT JUMPDEST PUSH32 0x4D61782066656520697320313025000000000000000000000000000000000000 PUSH0 DUP3 ADD MSTORE POP JUMP JUMPDEST PUSH0 PUSH2 0x1E89 PUSH1 0xE DUP4 PUSH2 0x1DB0 JUMP JUMPDEST SWAP2 POP PUSH2 0x1E94 DUP3 PUSH2 0x1E55 JUMP JUMPDEST PUSH1 0x20 DUP3 ADD SWAP1 POP SWAP2 SWAP1 POP JUMP JUMPDEST PUSH0 PUSH1 0x20 DUP3 ADD SWAP1 POP DUP2 DUP2 SUB PUSH0 DUP4 ADD MSTORE PUSH2 0x1EB6 DUP2 PUSH2 0x1E7D JUMP JUMPDEST SWAP1 POP SWAP2 SWAP1 POP JUMP JUMPDEST PUSH32 0x4E487B7100000000000000000000000000000000000000000000000000000000 PUSH0 MSTORE PUSH1 0x11 PUSH1 0x4 MSTORE PUSH1 0x24 PUSH0 REVERT JUMPDEST PUSH0 PUSH2 0x1EF4 DUP3 PUSH2 0x1A05 JUMP JUMPDEST SWAP2 POP PUSH2 0x1EFF DUP4 PUSH2 0x1A05 JUMP JUMPDEST SWAP3 POP DUP3 DUP3 SUB SWAP1 POP DUP2 DUP2 GT ISZERO PUSH2 0x1F17 JUMPI PUSH2 0x1F16 PUSH2 0x1EBD JUMP JUMPDEST JUMPDEST SWAP3 SWAP2 POP POP JUMP JUMPDEST PUSH0 PUSH2 0x1F27 DUP3 PUSH2 0x1A05 JUMP JUMPDEST SWAP2 POP PUSH2 0x1F32 DUP4 PUSH2 0x1A05 JUMP JUMPDEST SWAP3 POP DUP3 DUP3 MUL PUSH2 0x1F40 DUP2 PUSH2 0x1A05 JUMP JUMPDEST SWAP2 POP DUP3 DUP3 DIV DUP5 EQ DUP4 ISZERO OR PUSH2 0x1F57 JUMPI PUSH2 0x1F56 PUSH2 0x1EBD JUMP JUMPDEST JUMPDEST POP SWAP3 SWAP2 POP POP JUMP JUMPDEST PUSH32 0x4E487B7100000000000000000000000000000000000000000000000000000000 PUSH0 MSTORE PUSH1 0x12 PUSH1 0x4 MSTORE PUSH1 0x24 PUSH0 REVERT JUMPDEST PUSH0 PUSH2 0x1F95 DUP3 PUSH2 0x1A05 JUMP JUMPDEST SWAP2 POP PUSH2 0x1FA0 DUP4 PUSH2 0x1A05 JUMP JUMPDEST SWAP3 POP DUP3 PUSH2 0x1FB0 JUMPI PUSH2 0x1FAF PUSH2 0x1F5E JUMP JUMPDEST JUMPDEST DUP3 DUP3 DIV SWAP1 POP SWAP3 SWAP2 POP POP JUMP JUMPDEST PUSH32 0x4F6E6C7920454F412063616E2063616C6C000000000000000000000000000000 PUSH0 DUP3 ADD MSTORE POP JUMP JUMPDEST PUSH0 PUSH2 0x1FEF PUSH1 0x11 DUP4 PUSH2 0x1DB0 JUMP JUMPDEST SWAP2 POP PUSH2 0x1FFA DUP3 PUSH2 0x1FBB JUMP JUMPDEST PUSH1 0x20 DUP3 ADD SWAP1 POP SWAP2 SWAP1 POP JUMP JUMPDEST PUSH0 PUSH1 0x20 DUP3 ADD SWAP1 POP DUP2 DUP2 SUB PUSH0 DUP4 ADD MSTORE PUSH2 0x201C DUP2 PUSH2 0x1FE3 JUMP JUMPDEST SWAP1 POP SWAP2 SWAP1 POP JUMP JUMPDEST PUSH32 0x4E6F20616374697665207374616B650000000000000000000000000000000000 PUSH0 DUP3 ADD MSTORE POP JUMP JUMPDEST PUSH0 PUSH2 0x2057 PUSH1 0xF DUP4 PUSH2 0x1DB0 JUMP JUMPDEST SWAP2 POP PUSH2 0x2062 DUP3 PUSH2 0x2023 JUMP JUMPDEST PUSH1 0x20 DUP3 ADD SWAP1 POP SWAP2 SWAP1 POP JUMP JUMPDEST PUSH0 PUSH1 0x20 DUP3 ADD SWAP1 POP DUP2 DUP2 SUB PUSH0 DUP4 ADD MSTORE PUSH2 0x2084 DUP2 PUSH2 0x204B JUMP JUMPDEST SWAP1 POP SWAP2 SWAP1 POP JUMP JUMPDEST PUSH0 PUSH2 0x2095 DUP3 PUSH2 0x1A05 JUMP JUMPDEST SWAP2 POP PUSH2 0x20A0 DUP4 PUSH2 0x1A05 JUMP JUMPDEST SWAP3 POP DUP3 DUP3 ADD SWAP1 POP DUP1 DUP3 GT ISZERO PUSH2 0x20B8 JUMPI PUSH2 0x20B7 PUSH2 0x1EBD JUMP JUMPDEST JUMPDEST SWAP3 SWAP2 POP POP JUMP JUMPDEST PUSH32 0x5374696C6C206C6F636B65640000000000000000000000000000000000000000 PUSH0 DUP3 ADD MSTORE POP JUMP JUMPDEST PUSH0 PUSH2 0x20F2 PUSH1 0xC DUP4 PUSH2 0x1DB0 JUMP JUMPDEST SWAP2 POP PUSH2 0x20FD DUP3 PUSH2 0x20BE JUMP JUMPDEST PUSH1 0x20 DUP3 ADD SWAP1 POP SWAP2 SWAP1 POP JUMP JUMPDEST PUSH0 PUSH1 0x20 DUP3 ADD SWAP1 POP DUP2 DUP2 SUB PUSH0 DUP4 ADD MSTORE PUSH2 0x211F DUP2 PUSH2 0x20E6 JUMP JUMPDEST SWAP1 POP SWAP2 SWAP1 POP JUMP JUMPDEST PUSH0 PUSH1 0x60 DUP3 ADD SWAP1 POP PUSH2 0x2139 PUSH0 DUP4 ADD DUP7 PUSH2 0x1B6E JUMP JUMPDEST PUSH2 0x2146 PUSH1 0x20 DUP4 ADD DUP6 PUSH2 0x1B6E JUMP JUMPDEST PUSH2 0x2153 PUSH1 0x40 DUP4 ADD DUP5 PUSH2 0x1B6E JUMP JUMPDEST SWAP5 SWAP4 POP POP POP POP JUMP JUMPDEST PUSH32 0x4E6F206665657320746F20776974686472617700000000000000000000000000 PUSH0 DUP3 ADD MSTORE POP JUMP JUMPDEST PUSH0 PUSH2 0x218F PUSH1 0x13 DUP4 PUSH2 0x1DB0 JUMP JUMPDEST SWAP2 POP PUSH2 0x219A DUP3 PUSH2 0x215B JUMP JUMPDEST PUSH1 0x20 DUP3 ADD SWAP1 POP SWAP2 SWAP1 POP JUMP JUMPDEST PUSH0 PUSH1 0x20 DUP3 ADD SWAP1 POP DUP2 DUP2 SUB PUSH0 DUP4 ADD MSTORE PUSH2 0x21BC DUP2 PUSH2 0x2183 JUMP JUMPDEST SWAP1 POP SWAP2 SWAP1 POP JUMP JUMPDEST PUSH32 0x5061636B616765206E6F74206163746976650000000000000000000000000000 PUSH0 DUP3 ADD MSTORE POP JUMP JUMPDEST PUSH0 PUSH2 0x21F7 PUSH1 0x12 DUP4 PUSH2 0x1DB0 JUMP JUMPDEST SWAP2 POP PUSH2 0x2202 DUP3 PUSH2 0x21C3 JUMP JUMPDEST PUSH1 0x20 DUP3 ADD SWAP1 POP SWAP2 SWAP1 POP JUMP JUMPDEST PUSH0 PUSH1 0x20 DUP3 ADD SWAP1 POP DUP2 DUP2 SUB PUSH0 DUP4 ADD MSTORE PUSH2 0x2224 DUP2 PUSH2 0x21EB JUMP JUMPDEST SWAP1 POP SWAP2 SWAP1 POP JUMP JUMPDEST PUSH32 0x416D6F756E7420746F6F206C6F77000000000000000000000000000000000000 PUSH0 DUP3 ADD MSTORE POP JUMP JUMPDEST PUSH0 PUSH2 0x225F PUSH1 0xE DUP4 PUSH2 0x1DB0 JUMP JUMPDEST SWAP2 POP PUSH2 0x226A DUP3 PUSH2 0x222B JUMP JUMPDEST PUSH1 0x20 DUP3 ADD SWAP1 POP SWAP2 SWAP1 POP JUMP JUMPDEST PUSH0 PUSH1 0x20 DUP3 ADD SWAP1 POP DUP2 DUP2 SUB PUSH0 DUP4 ADD MSTORE PUSH2 0x228C DUP2 PUSH2 0x2253 JUMP JUMPDEST SWAP1 POP SWAP2 SWAP1 POP JUMP JUMPDEST PUSH0 PUSH1 0x40 DUP3 ADD SWAP1 POP PUSH2 0x22A6 PUSH0 DUP4 ADD DUP6 PUSH2 0x1B6E JUMP JUMPDEST PUSH2 0x22B3 PUSH1 0x20 DUP4 ADD DUP5 PUSH2 0x1B6E JUMP JUMPDEST SWAP4 SWAP3 POP POP POP JUMP JUMPDEST PUSH0 PUSH1 0x40 DUP3 ADD SWAP1 POP PUSH2 0x22CD PUSH0 DUP4 ADD DUP6 PUSH2 0x1B6E JUMP JUMPDEST PUSH2 0x22DA PUSH1 0x20 DUP4 ADD DUP5 PUSH2 0x1BA5 JUMP JUMPDEST SWAP4 SWAP3 POP POP POP JUMP JUMPDEST PUSH32 0x5A65726F2061646472657373206E6F7420616C6C6F7765640000000000000000 PUSH0 DUP3 ADD MSTORE POP JUMP JUMPDEST PUSH0 PUSH2 0x2315 PUSH1 0x18 DUP4 PUSH2 0x1DB0 JUMP JUMPDEST SWAP2 POP PUSH2 0x2320 DUP3 PUSH2 0x22E1 JUMP JUMPDEST PUSH1 0x20 DUP3 ADD SWAP1 POP SWAP2 SWAP1 POP JUMP JUMPDEST PUSH0 PUSH1 0x20 DUP3 ADD SWAP1 POP DUP2 DUP2 SUB PUSH0 DUP4 ADD MSTORE PUSH2 0x2342 DUP2 PUSH2 0x2309 JUMP JUMPDEST SWAP1 POP SWAP2 SWAP1 POP JUMP JUMPDEST PUSH32 0x4E6F2072657761726420746F20636C61696D0000000000000000000000000000 PUSH0 DUP3 ADD MSTORE POP JUMP JUMPDEST PUSH0 PUSH2 0x237D PUSH1 0x12 DUP4 PUSH2 0x1DB0 JUMP JUMPDEST SWAP2 POP PUSH2 0x2388 DUP3 PUSH2 0x2349 JUMP JUMPDEST PUSH1 0x20 DUP3 ADD SWAP1 POP SWAP2 SWAP1 POP JUMP JUMPDEST PUSH0 PUSH1 0x20 DUP3 ADD SWAP1 POP DUP2 DUP2 SUB PUSH0 DUP4 ADD MSTORE PUSH2 0x23AA DUP2 PUSH2 0x2371 JUMP JUMPDEST SWAP1 POP SWAP2 SWAP1 POP JUMP JUMPDEST PUSH0 PUSH1 0xC0 DUP3 ADD SWAP1 POP PUSH2 0x23C4 PUSH0 DUP4 ADD DUP10 PUSH2 0x1B6E JUMP JUMPDEST PUSH2 0x23D1 PUSH1 0x20 DUP4 ADD DUP9 PUSH2 0x1B96 JUMP JUMPDEST PUSH2 0x23DE PUSH1 0x40 DUP4 ADD DUP8 PUSH2 0x1B6E JUMP JUMPDEST PUSH2 0x23EB PUSH1 0x60 DUP4 ADD DUP7 PUSH2 0x1B6E JUMP JUMPDEST PUSH2 0x23F8 PUSH1 0x80 DUP4 ADD DUP6 PUSH2 0x1B6E JUMP JUMPDEST PUSH2 0x2405 PUSH1 0xA0 DUP4 ADD DUP5 PUSH2 0x1BA5 JUMP JUMPDEST SWAP8 SWAP7 POP POP POP POP POP POP POP JUMP JUMPDEST PUSH32 0x5265656E7472616E637947756172643A207265656E7472616E742063616C6C00 PUSH0 DUP3 ADD MSTORE POP JUMP JUMPDEST PUSH0 PUSH2 0x2444 PUSH1 0x1F DUP4 PUSH2 0x1DB0 JUMP JUMPDEST SWAP2 POP PUSH2 0x244F DUP3 PUSH2 0x2410 JUMP JUMPDEST PUSH1 0x20 DUP3 ADD SWAP1 POP SWAP2 SWAP1 POP JUMP JUMPDEST PUSH0 PUSH1 0x20 DUP3 ADD SWAP1 POP DUP2 DUP2 SUB PUSH0 DUP4 ADD MSTORE PUSH2 0x2471 DUP2 PUSH2 0x2438 JUMP JUMPDEST SWAP1 POP SWAP2 SWAP1 POP JUMP JUMPDEST PUSH0 PUSH1 0x40 DUP3 ADD SWAP1 POP PUSH2 0x248B PUSH0 DUP4 ADD DUP6 PUSH2 0x1B96 JUMP JUMPDEST PUSH2 0x2498 PUSH1 0x20 DUP4 ADD DUP5 PUSH2 0x1B6E JUMP JUMPDEST SWAP4 SWAP3 POP POP POP JUMP JUMPDEST PUSH0 PUSH1 0x60 DUP3 ADD SWAP1 POP PUSH2 0x24B2 PUSH0 DUP4 ADD DUP7 PUSH2 0x1B96 JUMP JUMPDEST PUSH2 0x24BF PUSH1 0x20 DUP4 ADD DUP6 PUSH2 0x1B96 JUMP JUMPDEST PUSH2 0x24CC PUSH1 0x40 DUP4 ADD DUP5 PUSH2 0x1B6E JUMP JUMPDEST SWAP5 SWAP4 POP POP POP POP JUMP INVALID LOG2 PUSH5 0x6970667358 0x22 SLT KECCAK256 PUSH16 0x55A8CAA7105627505BA64834CEC6B2B8 SWAP12 0xB7 0xC0 SELFBALANCE SELFBALANCE 0xB0 0x22 PUSH5 0xD5E91365E6 LOG4 0xAB PUSH5 0x736F6C6343 STOP ADDMOD 0x1E STOP CALLER "
				},
				"gasEstimates": {
					"creation": {
						"codeDepositCost": "1896400",
						"executionCost": "infinite",
						"totalCost": "infinite"
					},
					"external": {
						"addFarmPackage(address,uint256,uint256,uint256)": "infinite",
						"autoFarmingFee()": "2491",
						"autoFarmingPool()": "2469",
						"cafiToken()": "infinite",
						"calculateReward(address,uint256)": "infinite",
						"claimReward(uint256)": "infinite",
						"farmPackages(uint256)": "infinite",
						"owner()": "2559",
						"renounceOwnership()": "infinite",
						"setAPY(uint256,uint256)": "infinite",
						"setAutoFarmingFee(uint256)": "infinite",
						"setTreasuryWallet(address)": "infinite",
						"stake(uint256,uint256)": "infinite",
						"toggleAutoFarming(uint256)": "infinite",
						"toggleFarmPackage(uint256,bool)": "infinite",
						"transferOwnership(address)": "infinite",
						"treasuryWallet()": "2531",
						"unstake(uint256)": "infinite",
						"userStakes(address,uint256)": "infinite",
						"withdrawFees()": "infinite"
					}
				},
				"methodIdentifiers": {
					"addFarmPackage(address,uint256,uint256,uint256)": "eb16975d",
					"autoFarmingFee()": "d96acc72",
					"autoFarmingPool()": "cb8f63f6",
					"cafiToken()": "58a0bde3",
					"calculateReward(address,uint256)": "1852e8d9",
					"claimReward(uint256)": "ae169a50",
					"farmPackages(uint256)": "407bb09d",
					"owner()": "8da5cb5b",
					"renounceOwnership()": "715018a6",
					"setAPY(uint256,uint256)": "5acd2e4c",
					"setAutoFarmingFee(uint256)": "181d06a9",
					"setTreasuryWallet(address)": "a8602fea",
					"stake(uint256,uint256)": "7b0472f0",
					"toggleAutoFarming(uint256)": "a6fdc26c",
					"toggleFarmPackage(uint256,bool)": "0a34cc12",
					"transferOwnership(address)": "f2fde38b",
					"treasuryWallet()": "4626402b",
					"unstake(uint256)": "2e17de78",
					"userStakes(address,uint256)": "b5d5b5fa",
					"withdrawFees()": "476343ee"
				}
			},
			"storageLayout": {
				"storage": [
					{
						"astId": 8,
						"contract": "Farming.sol:CAFIFarming",
						"label": "_owner",
						"offset": 0,
						"slot": "0",
						"type": "t_address"
					},
					{
						"astId": 248,
						"contract": "Farming.sol:CAFIFarming",
						"label": "_status",
						"offset": 0,
						"slot": "1",
						"type": "t_uint256"
					},
					{
						"astId": 930,
						"contract": "Farming.sol:CAFIFarming",
						"label": "farmPackages",
						"offset": 0,
						"slot": "2",
						"type": "t_array(t_struct(FarmPackage)912_storage)dyn_storage"
					},
					{
						"astId": 936,
						"contract": "Farming.sol:CAFIFarming",
						"label": "userStakes",
						"offset": 0,
						"slot": "3",
						"type": "t_mapping(t_address,t_array(t_struct(UserStake)923_storage)dyn_storage)"
					},
					{
						"astId": 938,
						"contract": "Farming.sol:CAFIFarming",
						"label": "autoFarmingPool",
						"offset": 0,
						"slot": "4",
						"type": "t_uint256"
					},
					{
						"astId": 941,
						"contract": "Farming.sol:CAFIFarming",
						"label": "autoFarmingFee",
						"offset": 0,
						"slot": "5",
						"type": "t_uint256"
					},
					{
						"astId": 943,
						"contract": "Farming.sol:CAFIFarming",
						"label": "treasuryWallet",
						"offset": 0,
						"slot": "6",
						"type": "t_address"
					}
				],
				"types": {
					"t_address": {
						"encoding": "inplace",
						"label": "address",
						"numberOfBytes": "20"
					},
					"t_array(t_struct(FarmPackage)912_storage)dyn_storage": {
						"base": "t_struct(FarmPackage)912_storage",
						"encoding": "dynamic_array",
						"label": "struct CAFIFarming.FarmPackage[]",
						"numberOfBytes": "32"
					},
					"t_array(t_struct(UserStake)923_storage)dyn_storage": {
						"base": "t_struct(UserStake)923_storage",
						"encoding": "dynamic_array",
						"label": "struct CAFIFarming.UserStake[]",
						"numberOfBytes": "32"
					},
					"t_bool": {
						"encoding": "inplace",
						"label": "bool",
						"numberOfBytes": "1"
					},
					"t_mapping(t_address,t_array(t_struct(UserStake)923_storage)dyn_storage)": {
						"encoding": "mapping",
						"key": "t_address",
						"label": "mapping(address => struct CAFIFarming.UserStake[])",
						"numberOfBytes": "32",
						"value": "t_array(t_struct(UserStake)923_storage)dyn_storage"
					},
					"t_struct(FarmPackage)912_storage": {
						"encoding": "inplace",
						"label": "struct CAFIFarming.FarmPackage",
						"members": [
							{
								"astId": 903,
								"contract": "Farming.sol:CAFIFarming",
								"label": "stakeToken",
								"offset": 0,
								"slot": "0",
								"type": "t_address"
							},
							{
								"astId": 905,
								"contract": "Farming.sol:CAFIFarming",
								"label": "duration",
								"offset": 0,
								"slot": "1",
								"type": "t_uint256"
							},
							{
								"astId": 907,
								"contract": "Farming.sol:CAFIFarming",
								"label": "apy",
								"offset": 0,
								"slot": "2",
								"type": "t_uint256"
							},
							{
								"astId": 909,
								"contract": "Farming.sol:CAFIFarming",
								"label": "minStake",
								"offset": 0,
								"slot": "3",
								"type": "t_uint256"
							},
							{
								"astId": 911,
								"contract": "Farming.sol:CAFIFarming",
								"label": "isActive",
								"offset": 0,
								"slot": "4",
								"type": "t_bool"
							}
						],
						"numberOfBytes": "160"
					},
					"t_struct(UserStake)923_storage": {
						"encoding": "inplace",
						"label": "struct CAFIFarming.UserStake",
						"members": [
							{
								"astId": 914,
								"contract": "Farming.sol:CAFIFarming",
								"label": "packageId",
								"offset": 0,
								"slot": "0",
								"type": "t_uint256"
							},
							{
								"astId": 916,
								"contract": "Farming.sol:CAFIFarming",
								"label": "amount",
								"offset": 0,
								"slot": "1",
								"type": "t_uint256"
							},
							{
								"astId": 918,
								"contract": "Farming.sol:CAFIFarming",
								"label": "startTime",
								"offset": 0,
								"slot": "2",
								"type": "t_uint256"
							},
							{
								"astId": 920,
								"contract": "Farming.sol:CAFIFarming",
								"label": "lastClaimTime",
								"offset": 0,
								"slot": "3",
								"type": "t_uint256"
							},
							{
								"astId": 922,
								"contract": "Farming.sol:CAFIFarming",
								"label": "isAutoFarming",
								"offset": 0,
								"slot": "4",
								"type": "t_bool"
							}
						],
						"numberOfBytes": "160"
					},
					"t_uint256": {
						"encoding": "inplace",
						"label": "uint256",
						"numberOfBytes": "32"
					}
				}
			},
			"userdoc": {
				"kind": "user",
				"methods": {
					"addFarmPackage(address,uint256,uint256,uint256)": {
						"notice": "Tambahkan paket farming baru"
					},
					"calculateReward(address,uint256)": {
						"notice": "Hitung reward"
					},
					"claimReward(uint256)": {
						"notice": "Klaim reward dari farming"
					},
					"setAPY(uint256,uint256)": {
						"notice": "Atur ulang APY untuk paket tertentu"
					},
					"setAutoFarmingFee(uint256)": {
						"notice": "Set fee untuk auto farming"
					},
					"setTreasuryWallet(address)": {
						"notice": "Update wallet penerima fee"
					},
					"stake(uint256,uint256)": {
						"notice": "Stake token ke farming berdasarkan package ID"
					},
					"toggleAutoFarming(uint256)": {
						"notice": "Toggle mode auto farming"
					},
					"toggleFarmPackage(uint256,bool)": {
						"notice": "Aktif/nonaktifkan paket farming"
					},
					"unstake(uint256)": {
						"notice": "Withdraw stake + reward"
					},
					"withdrawFees()": {
						"notice": "Owner dapat menarik biaya auto farming"
					}
				},
				"version": 1
			}
		}
	}
}