{
	"Staking.sol": {
		"AutoStaking": {
			"abi": [
				{
					"inputs": [
						{
							"internalType": "address",
							"name": "_stakingTokenAddress",
							"type": "address"
						},
						{
							"internalType": "address",
							"name": "_rewardTokenAddress",
							"type": "address"
						},
						{
							"internalType": "address",
							"name": "_feeReceiver",
							"type": "address"
						}
					],
					"stateMutability": "nonpayable",
					"type": "constructor"
				},
				{
					"inputs": [
						{
							"internalType": "address",
							"name": "owner",
							"type": "address"
						}
					],
					"name": "OwnableInvalidOwner",
					"type": "error"
				},
				{
					"inputs": [
						{
							"internalType": "address",
							"name": "account",
							"type": "address"
						}
					],
					"name": "OwnableUnauthorizedAccount",
					"type": "error"
				},
				{
					"inputs": [
						{
							"internalType": "address",
							"name": "token",
							"type": "address"
						}
					],
					"name": "SafeERC20FailedOperation",
					"type": "error"
				},
				{
					"anonymous": false,
					"inputs": [
						{
							"indexed": false,
							"internalType": "uint256",
							"name": "periodIndex",
							"type": "uint256"
						},
						{
							"indexed": false,
							"internalType": "uint256",
							"name": "newAPY",
							"type": "uint256"
						}
					],
					"name": "APYUpdated",
					"type": "event"
				},
				{
					"anonymous": false,
					"inputs": [
						{
							"indexed": true,
							"internalType": "address",
							"name": "user",
							"type": "address"
						},
						{
							"indexed": false,
							"internalType": "uint256",
							"name": "stakeIndex",
							"type": "uint256"
						},
						{
							"indexed": false,
							"internalType": "uint256",
							"name": "compoundedAmount",
							"type": "uint256"
						}
					],
					"name": "AutoCompounded",
					"type": "event"
				},
				{
					"anonymous": false,
					"inputs": [
						{
							"indexed": true,
							"internalType": "address",
							"name": "user",
							"type": "address"
						},
						{
							"indexed": false,
							"internalType": "uint256",
							"name": "stakeIndex",
							"type": "uint256"
						},
						{
							"indexed": false,
							"internalType": "bool",
							"name": "status",
							"type": "bool"
						}
					],
					"name": "AutoStakeToggled",
					"type": "event"
				},
				{
					"anonymous": false,
					"inputs": [
						{
							"indexed": true,
							"internalType": "address",
							"name": "user",
							"type": "address"
						},
						{
							"indexed": false,
							"internalType": "uint256",
							"name": "amount",
							"type": "uint256"
						},
						{
							"indexed": false,
							"internalType": "uint256",
							"name": "stakeIndex",
							"type": "uint256"
						}
					],
					"name": "Claimed",
					"type": "event"
				},
				{
					"anonymous": false,
					"inputs": [
						{
							"indexed": true,
							"internalType": "address",
							"name": "newFeeReceiver",
							"type": "address"
						}
					],
					"name": "FeeReceiverUpdated",
					"type": "event"
				},
				{
					"anonymous": false,
					"inputs": [
						{
							"indexed": true,
							"internalType": "address",
							"name": "previousOwner",
							"type": "address"
						},
						{
							"indexed": true,
							"internalType": "address",
							"name": "newOwner",
							"type": "address"
						}
					],
					"name": "OwnershipTransferred",
					"type": "event"
				},
				{
					"anonymous": false,
					"inputs": [
						{
							"indexed": false,
							"internalType": "uint256",
							"name": "amount",
							"type": "uint256"
						}
					],
					"name": "RewardPoolFundsAdded",
					"type": "event"
				},
				{
					"anonymous": false,
					"inputs": [
						{
							"indexed": true,
							"internalType": "address",
							"name": "newRewardToken",
							"type": "address"
						}
					],
					"name": "RewardTokenUpdated",
					"type": "event"
				},
				{
					"anonymous": false,
					"inputs": [
						{
							"indexed": true,
							"internalType": "address",
							"name": "user",
							"type": "address"
						},
						{
							"indexed": false,
							"internalType": "uint256",
							"name": "amount",
							"type": "uint256"
						},
						{
							"indexed": false,
							"internalType": "uint256",
							"name": "periodIndex",
							"type": "uint256"
						},
						{
							"indexed": false,
							"internalType": "bool",
							"name": "autoStake",
							"type": "bool"
						}
					],
					"name": "Staked",
					"type": "event"
				},
				{
					"anonymous": false,
					"inputs": [
						{
							"indexed": true,
							"internalType": "address",
							"name": "account",
							"type": "address"
						},
						{
							"indexed": false,
							"internalType": "uint256",
							"name": "amount",
							"type": "uint256"
						}
					],
					"name": "WithdrawnRewards",
					"type": "event"
				},
				{
					"inputs": [],
					"name": "AUTO_COMPOUND_FEE",
					"outputs": [
						{
							"internalType": "uint256",
							"name": "",
							"type": "uint256"
						}
					],
					"stateMutability": "view",
					"type": "function"
				},
				{
					"inputs": [],
					"name": "SECONDS_PER_YEAR",
					"outputs": [
						{
							"internalType": "uint256",
							"name": "",
							"type": "uint256"
						}
					],
					"stateMutability": "view",
					"type": "function"
				},
				{
					"inputs": [
						{
							"internalType": "uint256",
							"name": "amount",
							"type": "uint256"
						}
					],
					"name": "addRewardPoolFunds",
					"outputs": [],
					"stateMutability": "nonpayable",
					"type": "function"
				},
				{
					"inputs": [
						{
							"internalType": "uint256",
							"name": "",
							"type": "uint256"
						}
					],
					"name": "apyRates",
					"outputs": [
						{
							"internalType": "uint256",
							"name": "",
							"type": "uint256"
						}
					],
					"stateMutability": "view",
					"type": "function"
				},
				{
					"inputs": [
						{
							"internalType": "address",
							"name": "account",
							"type": "address"
						},
						{
							"internalType": "uint256",
							"name": "stakeIndex",
							"type": "uint256"
						}
					],
					"name": "calculateReward",
					"outputs": [
						{
							"internalType": "uint256",
							"name": "",
							"type": "uint256"
						}
					],
					"stateMutability": "view",
					"type": "function"
				},
				{
					"inputs": [
						{
							"internalType": "uint256",
							"name": "stakeIndex",
							"type": "uint256"
						}
					],
					"name": "claimReward",
					"outputs": [],
					"stateMutability": "nonpayable",
					"type": "function"
				},
				{
					"inputs": [
						{
							"internalType": "uint256",
							"name": "stakeIndex",
							"type": "uint256"
						}
					],
					"name": "compoundReward",
					"outputs": [],
					"stateMutability": "nonpayable",
					"type": "function"
				},
				{
					"inputs": [],
					"name": "feeReceiver",
					"outputs": [
						{
							"internalType": "address",
							"name": "",
							"type": "address"
						}
					],
					"stateMutability": "view",
					"type": "function"
				},
				{
					"inputs": [
						{
							"internalType": "address",
							"name": "user",
							"type": "address"
						}
					],
					"name": "getActiveStakes",
					"outputs": [
						{
							"components": [
								{
									"internalType": "uint256",
									"name": "amount",
									"type": "uint256"
								},
								{
									"internalType": "uint256",
									"name": "stakeTime",
									"type": "uint256"
								},
								{
									"internalType": "uint256",
									"name": "unlockTime",
									"type": "uint256"
								},
								{
									"internalType": "bool",
									"name": "claimed",
									"type": "bool"
								},
								{
									"internalType": "bool",
									"name": "autoStaking",
									"type": "bool"
								},
								{
									"internalType": "uint256",
									"name": "compoundedAmount",
									"type": "uint256"
								}
							],
							"internalType": "struct AutoStaking.StakeInfo[]",
							"name": "",
							"type": "tuple[]"
						}
					],
					"stateMutability": "view",
					"type": "function"
				},
				{
					"inputs": [
						{
							"internalType": "uint256",
							"name": "",
							"type": "uint256"
						}
					],
					"name": "lockPeriods",
					"outputs": [
						{
							"internalType": "uint256",
							"name": "",
							"type": "uint256"
						}
					],
					"stateMutability": "view",
					"type": "function"
				},
				{
					"inputs": [],
					"name": "owner",
					"outputs": [
						{
							"internalType": "address",
							"name": "",
							"type": "address"
						}
					],
					"stateMutability": "view",
					"type": "function"
				},
				{
					"inputs": [
						{
							"internalType": "address",
							"name": "",
							"type": "address"
						}
					],
					"name": "pendingRewardWithdrawals",
					"outputs": [
						{
							"internalType": "uint256",
							"name": "",
							"type": "uint256"
						}
					],
					"stateMutability": "view",
					"type": "function"
				},
				{
					"inputs": [],
					"name": "renounceOwnership",
					"outputs": [],
					"stateMutability": "nonpayable",
					"type": "function"
				},
				{
					"inputs": [],
					"name": "rewardPoolBalance",
					"outputs": [
						{
							"internalType": "uint256",
							"name": "",
							"type": "uint256"
						}
					],
					"stateMutability": "view",
					"type": "function"
				},
				{
					"inputs": [],
					"name": "rewardToken",
					"outputs": [
						{
							"internalType": "contract IERC20",
							"name": "",
							"type": "address"
						}
					],
					"stateMutability": "view",
					"type": "function"
				},
				{
					"inputs": [
						{
							"internalType": "uint256",
							"name": "periodIndex",
							"type": "uint256"
						},
						{
							"internalType": "uint256",
							"name": "newAPY",
							"type": "uint256"
						}
					],
					"name": "setAPY",
					"outputs": [],
					"stateMutability": "nonpayable",
					"type": "function"
				},
				{
					"inputs": [
						{
							"internalType": "uint256",
							"name": "amount",
							"type": "uint256"
						},
						{
							"internalType": "uint256",
							"name": "periodIndex",
							"type": "uint256"
						},
						{
							"internalType": "bool",
							"name": "autoStake",
							"type": "bool"
						}
					],
					"name": "stake",
					"outputs": [],
					"stateMutability": "nonpayable",
					"type": "function"
				},
				{
					"inputs": [
						{
							"internalType": "address",
							"name": "",
							"type": "address"
						},
						{
							"internalType": "uint256",
							"name": "",
							"type": "uint256"
						}
					],
					"name": "stakes",
					"outputs": [
						{
							"internalType": "uint256",
							"name": "amount",
							"type": "uint256"
						},
						{
							"internalType": "uint256",
							"name": "stakeTime",
							"type": "uint256"
						},
						{
							"internalType": "uint256",
							"name": "unlockTime",
							"type": "uint256"
						},
						{
							"internalType": "bool",
							"name": "claimed",
							"type": "bool"
						},
						{
							"internalType": "bool",
							"name": "autoStaking",
							"type": "bool"
						},
						{
							"internalType": "uint256",
							"name": "compoundedAmount",
							"type": "uint256"
						}
					],
					"stateMutability": "view",
					"type": "function"
				},
				{
					"inputs": [],
					"name": "stakingToken",
					"outputs": [
						{
							"internalType": "contract IERC20",
							"name": "",
							"type": "address"
						}
					],
					"stateMutability": "view",
					"type": "function"
				},
				{
					"inputs": [
						{
							"internalType": "uint256",
							"name": "stakeIndex",
							"type": "uint256"
						}
					],
					"name": "toggleAutoStake",
					"outputs": [],
					"stateMutability": "nonpayable",
					"type": "function"
				},
				{
					"inputs": [],
					"name": "totalStaked",
					"outputs": [
						{
							"internalType": "uint256",
							"name": "",
							"type": "uint256"
						}
					],
					"stateMutability": "view",
					"type": "function"
				},
				{
					"inputs": [
						{
							"internalType": "address",
							"name": "newOwner",
							"type": "address"
						}
					],
					"name": "transferOwnership",
					"outputs": [],
					"stateMutability": "nonpayable",
					"type": "function"
				},
				{
					"inputs": [
						{
							"internalType": "address",
							"name": "newFeeReceiver",
							"type": "address"
						}
					],
					"name": "updateFeeReceiver",
					"outputs": [],
					"stateMutability": "nonpayable",
					"type": "function"
				},
				{
					"inputs": [
						{
							"internalType": "address",
							"name": "newRewardToken",
							"type": "address"
						}
					],
					"name": "updateRewardToken",
					"outputs": [],
					"stateMutability": "nonpayable",
					"type": "function"
				},
				{
					"inputs": [],
					"name": "withdrawRewards",
					"outputs": [],
					"stateMutability": "nonpayable",
					"type": "function"
				}
			],
			"devdoc": {
				"details": "Contract for staking tokens with fixed lock periods and auto-compounding rewards.",
				"errors": {
					"OwnableInvalidOwner(address)": [
						{
							"details": "The owner is not a valid owner account. (eg. `address(0)`)"
						}
					],
					"OwnableUnauthorizedAccount(address)": [
						{
							"details": "The caller account is not authorized to perform an operation."
						}
					],
					"SafeERC20FailedOperation(address)": [
						{
							"details": "An operation with an ERC-20 token failed."
						}
					]
				},
				"kind": "dev",
				"methods": {
					"addRewardPoolFunds(uint256)": {
						"params": {
							"amount": "Amount to add"
						}
					},
					"calculateReward(address,uint256)": {
						"params": {
							"account": "Address of staker",
							"stakeIndex": "Index of stake"
						}
					},
					"claimReward(uint256)": {
						"params": {
							"stakeIndex": "Index of stake"
						}
					},
					"compoundReward(uint256)": {
						"params": {
							"stakeIndex": "Index of stake"
						}
					},
					"owner()": {
						"details": "Returns the address of the current owner."
					},
					"renounceOwnership()": {
						"details": "Leaves the contract without owner. It will not be possible to call `onlyOwner` functions. Can only be called by the current owner. NOTE: Renouncing ownership will leave the contract without an owner, thereby disabling any functionality that is only available to the owner."
					},
					"setAPY(uint256,uint256)": {
						"params": {
							"newAPY": "New APY in basis points",
							"periodIndex": "Index of period"
						}
					},
					"stake(uint256,uint256,bool)": {
						"params": {
							"amount": "Amount of tokens to stake",
							"autoStake": "Whether to enable auto-staking after unlock",
							"periodIndex": "Index of the lock period (0, 1, or 2)"
						}
					},
					"toggleAutoStake(uint256)": {
						"params": {
							"stakeIndex": "Index of stake"
						}
					},
					"transferOwnership(address)": {
						"details": "Transfers ownership of the contract to a new account (`newOwner`). Can only be called by the current owner."
					},
					"updateFeeReceiver(address)": {
						"params": {
							"newFeeReceiver": "New fee receiver address"
						}
					},
					"updateRewardToken(address)": {
						"params": {
							"newRewardToken": "New reward token address"
						}
					}
				},
				"title": "AutoStaking",
				"version": 1
			},
			"evm": {
				"assembly": "    /* \"Staking.sol\":418:9768  contract AutoStaking is Ownable, ReentrancyGuard {... */\n  mstore(0x40, 0xa0)\n    /* \"Staking.sol\":730:789  uint256[3] public lockPeriods = [30 days, 60 days, 90 days] */\n  mload(0x40)\n  dup1\n  0x60\n  add\n  0x40\n  mstore\n  dup1\n    /* \"Staking.sol\":763:770  30 days */\n  0x278d00\n    /* \"Staking.sol\":730:789  uint256[3] public lockPeriods = [30 days, 60 days, 90 days] */\n  0xffffff\n  and\n  dup2\n  mstore\n  0x20\n  add\n    /* \"Staking.sol\":772:779  60 days */\n  0x4f1a00\n    /* \"Staking.sol\":730:789  uint256[3] public lockPeriods = [30 days, 60 days, 90 days] */\n  0xffffff\n  and\n  dup2\n  mstore\n  0x20\n  add\n    /* \"Staking.sol\":781:788  90 days */\n  0x76a700\n    /* \"Staking.sol\":730:789  uint256[3] public lockPeriods = [30 days, 60 days, 90 days] */\n  0xffffff\n  and\n  dup2\n  mstore\n  pop\n  0x04\n  swap1\n  0x03\n  tag_1\n  swap3\n  swap2\n  swap1\n  tag_2\n  jump\t// in\ntag_1:\n  pop\n    /* \"Staking.sol\":795:841  uint256[3] public apyRates = [500, 1000, 1500] */\n  mload(0x40)\n  dup1\n  0x60\n  add\n  0x40\n  mstore\n  dup1\n    /* \"Staking.sol\":825:828  500 */\n  0x01f4\n    /* \"Staking.sol\":795:841  uint256[3] public apyRates = [500, 1000, 1500] */\n  0xffff\n  and\n  dup2\n  mstore\n  0x20\n  add\n    /* \"Staking.sol\":830:834  1000 */\n  0x03e8\n    /* \"Staking.sol\":795:841  uint256[3] public apyRates = [500, 1000, 1500] */\n  0xffff\n  and\n  dup2\n  mstore\n  0x20\n  add\n    /* \"Staking.sol\":836:840  1500 */\n  0x05dc\n    /* \"Staking.sol\":795:841  uint256[3] public apyRates = [500, 1000, 1500] */\n  0xffff\n  and\n  dup2\n  mstore\n  pop\n  0x07\n  swap1\n  0x03\n  tag_3\n  swap3\n  swap2\n  swap1\n  tag_4\n  jump\t// in\ntag_3:\n  pop\n    /* \"Staking.sol\":2084:2598  constructor(... */\n  callvalue\n  dup1\n  iszero\n  tag_5\n  jumpi\n  revert(0x00, 0x00)\ntag_5:\n  pop\n  mload(0x40)\n  sub(codesize, bytecodeSize)\n  dup1\n  bytecodeSize\n  dup4\n  codecopy\n  dup2\n  dup2\n  add\n  0x40\n  mstore\n  dup2\n  add\n  swap1\n  tag_6\n  swap2\n  swap1\n  tag_7\n  jump\t// in\ntag_6:\n    /* \"Staking.sol\":2215:2225  msg.sender */\n  caller\n    /* \"@openzeppelin/contracts/access/Ownable.sol\":1297:1298  0 */\n  0x00\n    /* \"@openzeppelin/contracts/access/Ownable.sol\":1273:1299  initialOwner == address(0) */\n  0xffffffffffffffffffffffffffffffffffffffff\n  and\n    /* \"@openzeppelin/contracts/access/Ownable.sol\":1273:1285  initialOwner */\n  dup2\n    /* \"@openzeppelin/contracts/access/Ownable.sol\":1273:1299  initialOwner == address(0) */\n  0xffffffffffffffffffffffffffffffffffffffff\n  and\n  sub\n    /* \"@openzeppelin/contracts/access/Ownable.sol\":1269:1364  if (initialOwner == address(0)) {... */\n  tag_12\n  jumpi\n    /* \"@openzeppelin/contracts/access/Ownable.sol\":1350:1351  0 */\n  0x00\n    /* \"@openzeppelin/contracts/access/Ownable.sol\":1322:1353  OwnableInvalidOwner(address(0)) */\n  mload(0x40)\n  0x1e4fbdf700000000000000000000000000000000000000000000000000000000\n  dup2\n  mstore\n  0x04\n  add\n  tag_13\n  swap2\n  swap1\n  tag_14\n  jump\t// in\ntag_13:\n  mload(0x40)\n  dup1\n  swap2\n  sub\n  swap1\n  revert\n    /* \"@openzeppelin/contracts/access/Ownable.sol\":1269:1364  if (initialOwner == address(0)) {... */\ntag_12:\n    /* \"@openzeppelin/contracts/access/Ownable.sol\":1373:1405  _transferOwnership(initialOwner) */\n  tag_15\n    /* \"@openzeppelin/contracts/access/Ownable.sol\":1392:1404  initialOwner */\n  dup2\n    /* \"@openzeppelin/contracts/access/Ownable.sol\":1373:1391  _transferOwnership */\n  shl(0x20, tag_16)\n    /* \"@openzeppelin/contracts/access/Ownable.sol\":1373:1405  _transferOwnership(initialOwner) */\n  0x20\n  shr\n  jump\t// in\ntag_15:\n    /* \"@openzeppelin/contracts/access/Ownable.sol\":1225:1412  constructor(address initialOwner) {... */\n  pop\n    /* \"@openzeppelin/contracts/security/ReentrancyGuard.sol\":1716:1717  1 */\n  0x01\n    /* \"@openzeppelin/contracts/security/ReentrancyGuard.sol\":1821:1828  _status */\n  dup1\n    /* \"@openzeppelin/contracts/security/ReentrancyGuard.sol\":1821:1843  _status = _NOT_ENTERED */\n  dup2\n  swap1\n  sstore\n  pop\n    /* \"Staking.sol\":2277:2278  0 */\n  0x00\n    /* \"Staking.sol\":2245:2279  _stakingTokenAddress != address(0) */\n  0xffffffffffffffffffffffffffffffffffffffff\n  and\n    /* \"Staking.sol\":2245:2265  _stakingTokenAddress */\n  dup4\n    /* \"Staking.sol\":2245:2279  _stakingTokenAddress != address(0) */\n  0xffffffffffffffffffffffffffffffffffffffff\n  and\n  sub\n    /* \"Staking.sol\":2237:2305  require(_stakingTokenAddress != address(0), \"Invalid staking token\") */\n  tag_19\n  jumpi\n  mload(0x40)\n  0x08c379a000000000000000000000000000000000000000000000000000000000\n  dup2\n  mstore\n  0x04\n  add\n  tag_20\n  swap1\n  tag_21\n  jump\t// in\ntag_20:\n  mload(0x40)\n  dup1\n  swap2\n  sub\n  swap1\n  revert\ntag_19:\n    /* \"Staking.sol\":2354:2355  0 */\n  0x00\n    /* \"Staking.sol\":2323:2356  _rewardTokenAddress != address(0) */\n  0xffffffffffffffffffffffffffffffffffffffff\n  and\n    /* \"Staking.sol\":2323:2342  _rewardTokenAddress */\n  dup3\n    /* \"Staking.sol\":2323:2356  _rewardTokenAddress != address(0) */\n  0xffffffffffffffffffffffffffffffffffffffff\n  and\n  sub\n    /* \"Staking.sol\":2315:2381  require(_rewardTokenAddress != address(0), \"Invalid reward token\") */\n  tag_22\n  jumpi\n  mload(0x40)\n  0x08c379a000000000000000000000000000000000000000000000000000000000\n  dup2\n  mstore\n  0x04\n  add\n  tag_23\n  swap1\n  tag_24\n  jump\t// in\ntag_23:\n  mload(0x40)\n  dup1\n  swap2\n  sub\n  swap1\n  revert\ntag_22:\n    /* \"Staking.sol\":2423:2424  0 */\n  0x00\n    /* \"Staking.sol\":2399:2425  _feeReceiver != address(0) */\n  0xffffffffffffffffffffffffffffffffffffffff\n  and\n    /* \"Staking.sol\":2399:2411  _feeReceiver */\n  dup2\n    /* \"Staking.sol\":2399:2425  _feeReceiver != address(0) */\n  0xffffffffffffffffffffffffffffffffffffffff\n  and\n  sub\n    /* \"Staking.sol\":2391:2450  require(_feeReceiver != address(0), \"Invalid fee receiver\") */\n  tag_25\n  jumpi\n  mload(0x40)\n  0x08c379a000000000000000000000000000000000000000000000000000000000\n  dup2\n  mstore\n  0x04\n  add\n  tag_26\n  swap1\n  tag_27\n  jump\t// in\ntag_26:\n  mload(0x40)\n  dup1\n  swap2\n  sub\n  swap1\n  revert\ntag_25:\n    /* \"Staking.sol\":2483:2503  _stakingTokenAddress */\n  dup3\n    /* \"Staking.sol\":2461:2504  stakingToken = IERC20(_stakingTokenAddress) */\n  0xffffffffffffffffffffffffffffffffffffffff\n  and\n  0x80\n  dup2\n  0xffffffffffffffffffffffffffffffffffffffff\n  and\n  dup2\n  mstore\n  pop\n  pop\n    /* \"Staking.sol\":2535:2554  _rewardTokenAddress */\n  dup2\n    /* \"Staking.sol\":2514:2525  rewardToken */\n  0x02\n  0x00\n    /* \"Staking.sol\":2514:2555  rewardToken = IERC20(_rewardTokenAddress) */\n  0x0100\n  exp\n  dup2\n  sload\n  dup2\n  0xffffffffffffffffffffffffffffffffffffffff\n  mul\n  not\n  and\n  swap1\n  dup4\n  0xffffffffffffffffffffffffffffffffffffffff\n  and\n  mul\n  or\n  swap1\n  sstore\n  pop\n    /* \"Staking.sol\":2579:2591  _feeReceiver */\n  dup1\n    /* \"Staking.sol\":2565:2576  feeReceiver */\n  0x03\n  0x00\n    /* \"Staking.sol\":2565:2591  feeReceiver = _feeReceiver */\n  0x0100\n  exp\n  dup2\n  sload\n  dup2\n  0xffffffffffffffffffffffffffffffffffffffff\n  mul\n  not\n  and\n  swap1\n  dup4\n  0xffffffffffffffffffffffffffffffffffffffff\n  and\n  mul\n  or\n  swap1\n  sstore\n  pop\n    /* \"Staking.sol\":2084:2598  constructor(... */\n  pop\n  pop\n  pop\n    /* \"Staking.sol\":418:9768  contract AutoStaking is Ownable, ReentrancyGuard {... */\n  jump(tag_28)\n    /* \"@openzeppelin/contracts/access/Ownable.sol\":2912:3099  function _transferOwnership(address newOwner) internal virtual {... */\ntag_16:\n    /* \"@openzeppelin/contracts/access/Ownable.sol\":2985:3001  address oldOwner */\n  0x00\n    /* \"@openzeppelin/contracts/access/Ownable.sol\":3004:3010  _owner */\n  0x00\n  0x00\n  swap1\n  sload\n  swap1\n  0x0100\n  exp\n  swap1\n  div\n  0xffffffffffffffffffffffffffffffffffffffff\n  and\n    /* \"@openzeppelin/contracts/access/Ownable.sol\":2985:3010  address oldOwner = _owner */\n  swap1\n  pop\n    /* \"@openzeppelin/contracts/access/Ownable.sol\":3029:3037  newOwner */\n  dup2\n    /* \"@openzeppelin/contracts/access/Ownable.sol\":3020:3026  _owner */\n  0x00\n  0x00\n    /* \"@openzeppelin/contracts/access/Ownable.sol\":3020:3037  _owner = newOwner */\n  0x0100\n  exp\n  dup2\n  sload\n  dup2\n  0xffffffffffffffffffffffffffffffffffffffff\n  mul\n  not\n  and\n  swap1\n  dup4\n  0xffffffffffffffffffffffffffffffffffffffff\n  and\n  mul\n  or\n  swap1\n  sstore\n  pop\n    /* \"@openzeppelin/contracts/access/Ownable.sol\":3083:3091  newOwner */\n  dup2\n    /* \"@openzeppelin/contracts/access/Ownable.sol\":3052:3092  OwnershipTransferred(oldOwner, newOwner) */\n  0xffffffffffffffffffffffffffffffffffffffff\n  and\n    /* \"@openzeppelin/contracts/access/Ownable.sol\":3073:3081  oldOwner */\n  dup2\n    /* \"@openzeppelin/contracts/access/Ownable.sol\":3052:3092  OwnershipTransferred(oldOwner, newOwner) */\n  0xffffffffffffffffffffffffffffffffffffffff\n  and\n  0x8be0079c531659141344cd1fd0a4f28419497f9722a3daafe3b4186f6b6457e0\n  mload(0x40)\n  mload(0x40)\n  dup1\n  swap2\n  sub\n  swap1\n  log3\n    /* \"@openzeppelin/contracts/access/Ownable.sol\":2975:3099  {... */\n  pop\n    /* \"@openzeppelin/contracts/access/Ownable.sol\":2912:3099  function _transferOwnership(address newOwner) internal virtual {... */\n  pop\n  jump\t// out\n    /* \"Staking.sol\":418:9768  contract AutoStaking is Ownable, ReentrancyGuard {... */\ntag_2:\n  dup3\n  0x03\n  dup2\n  add\n  swap3\n  dup3\n  iszero\n  tag_30\n  jumpi\n  swap2\n  0x20\n  mul\n  dup3\n  add\ntag_31:\n  dup3\n  dup2\n  gt\n  iszero\n  tag_32\n  jumpi\n  dup3\n  mload\n  dup3\n  swap1\n  0xffffff\n  and\n  swap1\n  sstore\n  swap2\n  0x20\n  add\n  swap2\n  swap1\n  0x01\n  add\n  swap1\n  jump(tag_31)\ntag_32:\ntag_30:\n  pop\n  swap1\n  pop\n  tag_33\n  swap2\n  swap1\n  tag_34\n  jump\t// in\ntag_33:\n  pop\n  swap1\n  jump\t// out\ntag_4:\n  dup3\n  0x03\n  dup2\n  add\n  swap3\n  dup3\n  iszero\n  tag_35\n  jumpi\n  swap2\n  0x20\n  mul\n  dup3\n  add\ntag_36:\n  dup3\n  dup2\n  gt\n  iszero\n  tag_37\n  jumpi\n  dup3\n  mload\n  dup3\n  swap1\n  0xffff\n  and\n  swap1\n  sstore\n  swap2\n  0x20\n  add\n  swap2\n  swap1\n  0x01\n  add\n  swap1\n  jump(tag_36)\ntag_37:\ntag_35:\n  pop\n  swap1\n  pop\n  tag_38\n  swap2\n  swap1\n  tag_34\n  jump\t// in\ntag_38:\n  pop\n  swap1\n  jump\t// out\ntag_34:\ntag_39:\n  dup1\n  dup3\n  gt\n  iszero\n  tag_40\n  jumpi\n  0x00\n  dup2\n  0x00\n  swap1\n  sstore\n  pop\n  0x01\n  add\n  jump(tag_39)\ntag_40:\n  pop\n  swap1\n  jump\t// out\n    /* \"#utility.yul\":88:205   */\ntag_42:\n    /* \"#utility.yul\":197:198   */\n  0x00\n    /* \"#utility.yul\":194:195   */\n  0x00\n    /* \"#utility.yul\":187:199   */\n  revert\n    /* \"#utility.yul\":334:460   */\ntag_44:\n    /* \"#utility.yul\":371:378   */\n  0x00\n    /* \"#utility.yul\":411:453   */\n  0xffffffffffffffffffffffffffffffffffffffff\n    /* \"#utility.yul\":404:409   */\n  dup3\n    /* \"#utility.yul\":400:454   */\n  and\n    /* \"#utility.yul\":389:454   */\n  swap1\n  pop\n    /* \"#utility.yul\":334:460   */\n  swap2\n  swap1\n  pop\n  jump\t// out\n    /* \"#utility.yul\":466:562   */\ntag_45:\n    /* \"#utility.yul\":503:510   */\n  0x00\n    /* \"#utility.yul\":532:556   */\n  tag_62\n    /* \"#utility.yul\":550:555   */\n  dup3\n    /* \"#utility.yul\":532:556   */\n  tag_44\n  jump\t// in\ntag_62:\n    /* \"#utility.yul\":521:556   */\n  swap1\n  pop\n    /* \"#utility.yul\":466:562   */\n  swap2\n  swap1\n  pop\n  jump\t// out\n    /* \"#utility.yul\":568:690   */\ntag_46:\n    /* \"#utility.yul\":641:665   */\n  tag_64\n    /* \"#utility.yul\":659:664   */\n  dup2\n    /* \"#utility.yul\":641:665   */\n  tag_45\n  jump\t// in\ntag_64:\n    /* \"#utility.yul\":634:639   */\n  dup2\n    /* \"#utility.yul\":631:666   */\n  eq\n    /* \"#utility.yul\":621:684   */\n  tag_65\n  jumpi\n    /* \"#utility.yul\":680:681   */\n  0x00\n    /* \"#utility.yul\":677:678   */\n  0x00\n    /* \"#utility.yul\":670:682   */\n  revert\n    /* \"#utility.yul\":621:684   */\ntag_65:\n    /* \"#utility.yul\":568:690   */\n  pop\n  jump\t// out\n    /* \"#utility.yul\":696:839   */\ntag_47:\n    /* \"#utility.yul\":753:758   */\n  0x00\n    /* \"#utility.yul\":784:790   */\n  dup2\n    /* \"#utility.yul\":778:791   */\n  mload\n    /* \"#utility.yul\":769:791   */\n  swap1\n  pop\n    /* \"#utility.yul\":800:833   */\n  tag_67\n    /* \"#utility.yul\":827:832   */\n  dup2\n    /* \"#utility.yul\":800:833   */\n  tag_46\n  jump\t// in\ntag_67:\n    /* \"#utility.yul\":696:839   */\n  swap3\n  swap2\n  pop\n  pop\n  jump\t// out\n    /* \"#utility.yul\":845:1508   */\ntag_7:\n    /* \"#utility.yul\":933:939   */\n  0x00\n    /* \"#utility.yul\":941:947   */\n  0x00\n    /* \"#utility.yul\":949:955   */\n  0x00\n    /* \"#utility.yul\":998:1000   */\n  0x60\n    /* \"#utility.yul\":986:995   */\n  dup5\n    /* \"#utility.yul\":977:984   */\n  dup7\n    /* \"#utility.yul\":973:996   */\n  sub\n    /* \"#utility.yul\":969:1001   */\n  slt\n    /* \"#utility.yul\":966:1085   */\n  iszero\n  tag_69\n  jumpi\n    /* \"#utility.yul\":1004:1083   */\n  tag_70\n  tag_42\n  jump\t// in\ntag_70:\n    /* \"#utility.yul\":966:1085   */\ntag_69:\n    /* \"#utility.yul\":1124:1125   */\n  0x00\n    /* \"#utility.yul\":1149:1213   */\n  tag_71\n    /* \"#utility.yul\":1205:1212   */\n  dup7\n    /* \"#utility.yul\":1196:1202   */\n  dup3\n    /* \"#utility.yul\":1185:1194   */\n  dup8\n    /* \"#utility.yul\":1181:1203   */\n  add\n    /* \"#utility.yul\":1149:1213   */\n  tag_47\n  jump\t// in\ntag_71:\n    /* \"#utility.yul\":1139:1213   */\n  swap4\n  pop\n    /* \"#utility.yul\":1095:1223   */\n  pop\n    /* \"#utility.yul\":1262:1264   */\n  0x20\n    /* \"#utility.yul\":1288:1352   */\n  tag_72\n    /* \"#utility.yul\":1344:1351   */\n  dup7\n    /* \"#utility.yul\":1335:1341   */\n  dup3\n    /* \"#utility.yul\":1324:1333   */\n  dup8\n    /* \"#utility.yul\":1320:1342   */\n  add\n    /* \"#utility.yul\":1288:1352   */\n  tag_47\n  jump\t// in\ntag_72:\n    /* \"#utility.yul\":1278:1352   */\n  swap3\n  pop\n    /* \"#utility.yul\":1233:1362   */\n  pop\n    /* \"#utility.yul\":1401:1403   */\n  0x40\n    /* \"#utility.yul\":1427:1491   */\n  tag_73\n    /* \"#utility.yul\":1483:1490   */\n  dup7\n    /* \"#utility.yul\":1474:1480   */\n  dup3\n    /* \"#utility.yul\":1463:1472   */\n  dup8\n    /* \"#utility.yul\":1459:1481   */\n  add\n    /* \"#utility.yul\":1427:1491   */\n  tag_47\n  jump\t// in\ntag_73:\n    /* \"#utility.yul\":1417:1491   */\n  swap2\n  pop\n    /* \"#utility.yul\":1372:1501   */\n  pop\n    /* \"#utility.yul\":845:1508   */\n  swap3\n  pop\n  swap3\n  pop\n  swap3\n  jump\t// out\n    /* \"#utility.yul\":1514:1632   */\ntag_48:\n    /* \"#utility.yul\":1601:1625   */\n  tag_75\n    /* \"#utility.yul\":1619:1624   */\n  dup2\n    /* \"#utility.yul\":1601:1625   */\n  tag_45\n  jump\t// in\ntag_75:\n    /* \"#utility.yul\":1596:1599   */\n  dup3\n    /* \"#utility.yul\":1589:1626   */\n  mstore\n    /* \"#utility.yul\":1514:1632   */\n  pop\n  pop\n  jump\t// out\n    /* \"#utility.yul\":1638:1860   */\ntag_14:\n    /* \"#utility.yul\":1731:1735   */\n  0x00\n    /* \"#utility.yul\":1769:1771   */\n  0x20\n    /* \"#utility.yul\":1758:1767   */\n  dup3\n    /* \"#utility.yul\":1754:1772   */\n  add\n    /* \"#utility.yul\":1746:1772   */\n  swap1\n  pop\n    /* \"#utility.yul\":1782:1853   */\n  tag_77\n    /* \"#utility.yul\":1850:1851   */\n  0x00\n    /* \"#utility.yul\":1839:1848   */\n  dup4\n    /* \"#utility.yul\":1835:1852   */\n  add\n    /* \"#utility.yul\":1826:1832   */\n  dup5\n    /* \"#utility.yul\":1782:1853   */\n  tag_48\n  jump\t// in\ntag_77:\n    /* \"#utility.yul\":1638:1860   */\n  swap3\n  swap2\n  pop\n  pop\n  jump\t// out\n    /* \"#utility.yul\":1866:2035   */\ntag_49:\n    /* \"#utility.yul\":1950:1961   */\n  0x00\n    /* \"#utility.yul\":1984:1990   */\n  dup3\n    /* \"#utility.yul\":1979:1982   */\n  dup3\n    /* \"#utility.yul\":1972:1991   */\n  mstore\n    /* \"#utility.yul\":2024:2028   */\n  0x20\n    /* \"#utility.yul\":2019:2022   */\n  dup3\n    /* \"#utility.yul\":2015:2029   */\n  add\n    /* \"#utility.yul\":2000:2029   */\n  swap1\n  pop\n    /* \"#utility.yul\":1866:2035   */\n  swap3\n  swap2\n  pop\n  pop\n  jump\t// out\n    /* \"#utility.yul\":2041:2212   */\ntag_50:\n    /* \"#utility.yul\":2181:2204   */\n  0x496e76616c6964207374616b696e6720746f6b656e0000000000000000000000\n    /* \"#utility.yul\":2177:2178   */\n  0x00\n    /* \"#utility.yul\":2169:2175   */\n  dup3\n    /* \"#utility.yul\":2165:2179   */\n  add\n    /* \"#utility.yul\":2158:2205   */\n  mstore\n    /* \"#utility.yul\":2041:2212   */\n  pop\n  jump\t// out\n    /* \"#utility.yul\":2218:2584   */\ntag_51:\n    /* \"#utility.yul\":2360:2363   */\n  0x00\n    /* \"#utility.yul\":2381:2448   */\n  tag_81\n    /* \"#utility.yul\":2445:2447   */\n  0x15\n    /* \"#utility.yul\":2440:2443   */\n  dup4\n    /* \"#utility.yul\":2381:2448   */\n  tag_49\n  jump\t// in\ntag_81:\n    /* \"#utility.yul\":2374:2448   */\n  swap2\n  pop\n    /* \"#utility.yul\":2457:2550   */\n  tag_82\n    /* \"#utility.yul\":2546:2549   */\n  dup3\n    /* \"#utility.yul\":2457:2550   */\n  tag_50\n  jump\t// in\ntag_82:\n    /* \"#utility.yul\":2575:2577   */\n  0x20\n    /* \"#utility.yul\":2570:2573   */\n  dup3\n    /* \"#utility.yul\":2566:2578   */\n  add\n    /* \"#utility.yul\":2559:2578   */\n  swap1\n  pop\n    /* \"#utility.yul\":2218:2584   */\n  swap2\n  swap1\n  pop\n  jump\t// out\n    /* \"#utility.yul\":2590:3009   */\ntag_21:\n    /* \"#utility.yul\":2756:2760   */\n  0x00\n    /* \"#utility.yul\":2794:2796   */\n  0x20\n    /* \"#utility.yul\":2783:2792   */\n  dup3\n    /* \"#utility.yul\":2779:2797   */\n  add\n    /* \"#utility.yul\":2771:2797   */\n  swap1\n  pop\n    /* \"#utility.yul\":2843:2852   */\n  dup2\n    /* \"#utility.yul\":2837:2841   */\n  dup2\n    /* \"#utility.yul\":2833:2853   */\n  sub\n    /* \"#utility.yul\":2829:2830   */\n  0x00\n    /* \"#utility.yul\":2818:2827   */\n  dup4\n    /* \"#utility.yul\":2814:2831   */\n  add\n    /* \"#utility.yul\":2807:2854   */\n  mstore\n    /* \"#utility.yul\":2871:3002   */\n  tag_84\n    /* \"#utility.yul\":2997:3001   */\n  dup2\n    /* \"#utility.yul\":2871:3002   */\n  tag_51\n  jump\t// in\ntag_84:\n    /* \"#utility.yul\":2863:3002   */\n  swap1\n  pop\n    /* \"#utility.yul\":2590:3009   */\n  swap2\n  swap1\n  pop\n  jump\t// out\n    /* \"#utility.yul\":3015:3185   */\ntag_52:\n    /* \"#utility.yul\":3155:3177   */\n  0x496e76616c69642072657761726420746f6b656e000000000000000000000000\n    /* \"#utility.yul\":3151:3152   */\n  0x00\n    /* \"#utility.yul\":3143:3149   */\n  dup3\n    /* \"#utility.yul\":3139:3153   */\n  add\n    /* \"#utility.yul\":3132:3178   */\n  mstore\n    /* \"#utility.yul\":3015:3185   */\n  pop\n  jump\t// out\n    /* \"#utility.yul\":3191:3557   */\ntag_53:\n    /* \"#utility.yul\":3333:3336   */\n  0x00\n    /* \"#utility.yul\":3354:3421   */\n  tag_87\n    /* \"#utility.yul\":3418:3420   */\n  0x14\n    /* \"#utility.yul\":3413:3416   */\n  dup4\n    /* \"#utility.yul\":3354:3421   */\n  tag_49\n  jump\t// in\ntag_87:\n    /* \"#utility.yul\":3347:3421   */\n  swap2\n  pop\n    /* \"#utility.yul\":3430:3523   */\n  tag_88\n    /* \"#utility.yul\":3519:3522   */\n  dup3\n    /* \"#utility.yul\":3430:3523   */\n  tag_52\n  jump\t// in\ntag_88:\n    /* \"#utility.yul\":3548:3550   */\n  0x20\n    /* \"#utility.yul\":3543:3546   */\n  dup3\n    /* \"#utility.yul\":3539:3551   */\n  add\n    /* \"#utility.yul\":3532:3551   */\n  swap1\n  pop\n    /* \"#utility.yul\":3191:3557   */\n  swap2\n  swap1\n  pop\n  jump\t// out\n    /* \"#utility.yul\":3563:3982   */\ntag_24:\n    /* \"#utility.yul\":3729:3733   */\n  0x00\n    /* \"#utility.yul\":3767:3769   */\n  0x20\n    /* \"#utility.yul\":3756:3765   */\n  dup3\n    /* \"#utility.yul\":3752:3770   */\n  add\n    /* \"#utility.yul\":3744:3770   */\n  swap1\n  pop\n    /* \"#utility.yul\":3816:3825   */\n  dup2\n    /* \"#utility.yul\":3810:3814   */\n  dup2\n    /* \"#utility.yul\":3806:3826   */\n  sub\n    /* \"#utility.yul\":3802:3803   */\n  0x00\n    /* \"#utility.yul\":3791:3800   */\n  dup4\n    /* \"#utility.yul\":3787:3804   */\n  add\n    /* \"#utility.yul\":3780:3827   */\n  mstore\n    /* \"#utility.yul\":3844:3975   */\n  tag_90\n    /* \"#utility.yul\":3970:3974   */\n  dup2\n    /* \"#utility.yul\":3844:3975   */\n  tag_53\n  jump\t// in\ntag_90:\n    /* \"#utility.yul\":3836:3975   */\n  swap1\n  pop\n    /* \"#utility.yul\":3563:3982   */\n  swap2\n  swap1\n  pop\n  jump\t// out\n    /* \"#utility.yul\":3988:4158   */\ntag_54:\n    /* \"#utility.yul\":4128:4150   */\n  0x496e76616c696420666565207265636569766572000000000000000000000000\n    /* \"#utility.yul\":4124:4125   */\n  0x00\n    /* \"#utility.yul\":4116:4122   */\n  dup3\n    /* \"#utility.yul\":4112:4126   */\n  add\n    /* \"#utility.yul\":4105:4151   */\n  mstore\n    /* \"#utility.yul\":3988:4158   */\n  pop\n  jump\t// out\n    /* \"#utility.yul\":4164:4530   */\ntag_55:\n    /* \"#utility.yul\":4306:4309   */\n  0x00\n    /* \"#utility.yul\":4327:4394   */\n  tag_93\n    /* \"#utility.yul\":4391:4393   */\n  0x14\n    /* \"#utility.yul\":4386:4389   */\n  dup4\n    /* \"#utility.yul\":4327:4394   */\n  tag_49\n  jump\t// in\ntag_93:\n    /* \"#utility.yul\":4320:4394   */\n  swap2\n  pop\n    /* \"#utility.yul\":4403:4496   */\n  tag_94\n    /* \"#utility.yul\":4492:4495   */\n  dup3\n    /* \"#utility.yul\":4403:4496   */\n  tag_54\n  jump\t// in\ntag_94:\n    /* \"#utility.yul\":4521:4523   */\n  0x20\n    /* \"#utility.yul\":4516:4519   */\n  dup3\n    /* \"#utility.yul\":4512:4524   */\n  add\n    /* \"#utility.yul\":4505:4524   */\n  swap1\n  pop\n    /* \"#utility.yul\":4164:4530   */\n  swap2\n  swap1\n  pop\n  jump\t// out\n    /* \"#utility.yul\":4536:4955   */\ntag_27:\n    /* \"#utility.yul\":4702:4706   */\n  0x00\n    /* \"#utility.yul\":4740:4742   */\n  0x20\n    /* \"#utility.yul\":4729:4738   */\n  dup3\n    /* \"#utility.yul\":4725:4743   */\n  add\n    /* \"#utility.yul\":4717:4743   */\n  swap1\n  pop\n    /* \"#utility.yul\":4789:4798   */\n  dup2\n    /* \"#utility.yul\":4783:4787   */\n  dup2\n    /* \"#utility.yul\":4779:4799   */\n  sub\n    /* \"#utility.yul\":4775:4776   */\n  0x00\n    /* \"#utility.yul\":4764:4773   */\n  dup4\n    /* \"#utility.yul\":4760:4777   */\n  add\n    /* \"#utility.yul\":4753:4800   */\n  mstore\n    /* \"#utility.yul\":4817:4948   */\n  tag_96\n    /* \"#utility.yul\":4943:4947   */\n  dup2\n    /* \"#utility.yul\":4817:4948   */\n  tag_55\n  jump\t// in\ntag_96:\n    /* \"#utility.yul\":4809:4948   */\n  swap1\n  pop\n    /* \"#utility.yul\":4536:4955   */\n  swap2\n  swap1\n  pop\n  jump\t// out\n    /* \"Staking.sol\":418:9768  contract AutoStaking is Ownable, ReentrancyGuard {... */\ntag_28:\n  mload(0x80)\n  codecopy(0x00, dataOffset(sub_0), dataSize(sub_0))\n  0x00\n  assignImmutable(\"0x05f14bbde4435ecbe5273cf423314527515a37e93321dc3a13f762431443ebf5\")\n  return(0x00, dataSize(sub_0))\nstop\n\nsub_0: assembly {\n        /* \"Staking.sol\":418:9768  contract AutoStaking is Ownable, ReentrancyGuard {... */\n      mstore(0x40, 0x80)\n      callvalue\n      dup1\n      iszero\n      tag_1\n      jumpi\n      revert(0x00, 0x00)\n    tag_1:\n      pop\n      jumpi(tag_2, lt(calldatasize, 0x04))\n      shr(0xe0, calldataload(0x00))\n      dup1\n      0x7a5c08ae\n      gt\n      tag_28\n      jumpi\n      dup1\n      0xbbd36b61\n      gt\n      tag_29\n      jumpi\n      dup1\n      0xe6a69ab8\n      gt\n      tag_30\n      jumpi\n      dup1\n      0xe6a69ab8\n      eq\n      tag_24\n      jumpi\n      dup1\n      0xf2fde38b\n      eq\n      tag_25\n      jumpi\n      dup1\n      0xf7c618c1\n      eq\n      tag_26\n      jumpi\n      dup1\n      0xf8cf31cb\n      eq\n      tag_27\n      jumpi\n      jump(tag_2)\n    tag_30:\n      dup1\n      0xbbd36b61\n      eq\n      tag_21\n      jumpi\n      dup1\n      0xc69bebe4\n      eq\n      tag_22\n      jumpi\n      dup1\n      0xc7b8981c\n      eq\n      tag_23\n      jumpi\n      jump(tag_2)\n    tag_29:\n      dup1\n      0x7a5c08ae\n      eq\n      tag_15\n      jumpi\n      dup1\n      0x817b1cd2\n      eq\n      tag_16\n      jumpi\n      dup1\n      0x8da5cb5b\n      eq\n      tag_17\n      jumpi\n      dup1\n      0x95a29060\n      eq\n      tag_18\n      jumpi\n      dup1\n      0xae169a50\n      eq\n      tag_19\n      jumpi\n      dup1\n      0xb3f00674\n      eq\n      tag_20\n      jumpi\n      jump(tag_2)\n    tag_28:\n      dup1\n      0x561b2463\n      gt\n      tag_31\n      jumpi\n      dup1\n      0x561b2463\n      eq\n      tag_9\n      jumpi\n      dup1\n      0x584b62a1\n      eq\n      tag_10\n      jumpi\n      dup1\n      0x5acd2e4c\n      eq\n      tag_11\n      jumpi\n      dup1\n      0x6b494def\n      eq\n      tag_12\n      jumpi\n      dup1\n      0x715018a6\n      eq\n      tag_13\n      jumpi\n      dup1\n      0x72f702f3\n      eq\n      tag_14\n      jumpi\n      jump(tag_2)\n    tag_31:\n      dup1\n      0x0630e463\n      eq\n      tag_3\n      jumpi\n      dup1\n      0x1747e0b0\n      eq\n      tag_4\n      jumpi\n      dup1\n      0x1852e8d9\n      eq\n      tag_5\n      jumpi\n      dup1\n      0x38bceaac\n      eq\n      tag_6\n      jumpi\n      dup1\n      0x4060e257\n      eq\n      tag_7\n      jumpi\n      dup1\n      0x4c8f2a78\n      eq\n      tag_8\n      jumpi\n    tag_2:\n      revert(0x00, 0x00)\n        /* \"Staking.sol\":1106:1165  mapping(address => uint256) public pendingRewardWithdrawals */\n    tag_3:\n      tag_32\n      0x04\n      dup1\n      calldatasize\n      sub\n      dup2\n      add\n      swap1\n      tag_33\n      swap2\n      swap1\n      tag_34\n      jump\t// in\n    tag_33:\n      tag_35\n      jump\t// in\n    tag_32:\n      mload(0x40)\n      tag_36\n      swap2\n      swap1\n      tag_37\n      jump\t// in\n    tag_36:\n      mload(0x40)\n      dup1\n      swap2\n      sub\n      swap1\n      return\n        /* \"Staking.sol\":9648:9766  function getActiveStakes(address user) external view returns (StakeInfo[] memory) {... */\n    tag_4:\n      tag_38\n      0x04\n      dup1\n      calldatasize\n      sub\n      dup2\n      add\n      swap1\n      tag_39\n      swap2\n      swap1\n      tag_34\n      jump\t// in\n    tag_39:\n      tag_40\n      jump\t// in\n    tag_38:\n      mload(0x40)\n      tag_41\n      swap2\n      swap1\n      tag_42\n      jump\t// in\n    tag_41:\n      mload(0x40)\n      dup1\n      swap2\n      sub\n      swap1\n      return\n        /* \"Staking.sol\":3729:4550  function calculateReward(address account, uint256 stakeIndex) public view returns (uint256) {... */\n    tag_5:\n      tag_43\n      0x04\n      dup1\n      calldatasize\n      sub\n      dup2\n      add\n      swap1\n      tag_44\n      swap2\n      swap1\n      tag_45\n      jump\t// in\n    tag_44:\n      tag_46\n      jump\t// in\n    tag_43:\n      mload(0x40)\n      tag_47\n      swap2\n      swap1\n      tag_37\n      jump\t// in\n    tag_47:\n      mload(0x40)\n      dup1\n      swap2\n      sub\n      swap1\n      return\n        /* \"Staking.sol\":637:683  uint256 public constant AUTO_COMPOUND_FEE = 50 */\n    tag_6:\n      tag_48\n      tag_49\n      jump\t// in\n    tag_48:\n      mload(0x40)\n      tag_50\n      swap2\n      swap1\n      tag_37\n      jump\t// in\n    tag_50:\n      mload(0x40)\n      dup1\n      swap2\n      sub\n      swap1\n      return\n        /* \"Staking.sol\":7176:8043  function compoundReward(uint256 stakeIndex) external nonReentrant onlyEOA {... */\n    tag_7:\n      tag_51\n      0x04\n      dup1\n      calldatasize\n      sub\n      dup2\n      add\n      swap1\n      tag_52\n      swap2\n      swap1\n      tag_53\n      jump\t// in\n    tag_52:\n      tag_54\n      jump\t// in\n    tag_51:\n      stop\n        /* \"Staking.sol\":730:789  uint256[3] public lockPeriods = [30 days, 60 days, 90 days] */\n    tag_8:\n      tag_55\n      0x04\n      dup1\n      calldatasize\n      sub\n      dup2\n      add\n      swap1\n      tag_56\n      swap2\n      swap1\n      tag_53\n      jump\t// in\n    tag_56:\n      tag_57\n      jump\t// in\n    tag_55:\n      mload(0x40)\n      tag_58\n      swap2\n      swap1\n      tag_37\n      jump\t// in\n    tag_58:\n      mload(0x40)\n      dup1\n      swap2\n      sub\n      swap1\n      return\n        /* \"Staking.sol\":2846:3575  function stake(uint256 amount, uint256 periodIndex, bool autoStake) external nonReentrant onlyEOA {... */\n    tag_9:\n      tag_59\n      0x04\n      dup1\n      calldatasize\n      sub\n      dup2\n      add\n      swap1\n      tag_60\n      swap2\n      swap1\n      tag_61\n      jump\t// in\n    tag_60:\n      tag_62\n      jump\t// in\n    tag_59:\n      stop\n        /* \"Staking.sol\":1055:1100  mapping(address => StakeInfo[]) public stakes */\n    tag_10:\n      tag_63\n      0x04\n      dup1\n      calldatasize\n      sub\n      dup2\n      add\n      swap1\n      tag_64\n      swap2\n      swap1\n      tag_45\n      jump\t// in\n    tag_64:\n      tag_65\n      jump\t// in\n    tag_63:\n      mload(0x40)\n      tag_66\n      swap7\n      swap6\n      swap5\n      swap4\n      swap3\n      swap2\n      swap1\n      tag_67\n      jump\t// in\n    tag_66:\n      mload(0x40)\n      dup1\n      swap2\n      sub\n      swap1\n      return\n        /* \"Staking.sol\":8560:8862  function setAPY(uint256 periodIndex, uint256 newAPY) external onlyOwner {... */\n    tag_11:\n      tag_68\n      0x04\n      dup1\n      calldatasize\n      sub\n      dup2\n      add\n      swap1\n      tag_69\n      swap2\n      swap1\n      tag_70\n      jump\t// in\n    tag_69:\n      tag_71\n      jump\t// in\n    tag_68:\n      stop\n        /* \"Staking.sol\":795:841  uint256[3] public apyRates = [500, 1000, 1500] */\n    tag_12:\n      tag_72\n      0x04\n      dup1\n      calldatasize\n      sub\n      dup2\n      add\n      swap1\n      tag_73\n      swap2\n      swap1\n      tag_53\n      jump\t// in\n    tag_73:\n      tag_74\n      jump\t// in\n    tag_72:\n      mload(0x40)\n      tag_75\n      swap2\n      swap1\n      tag_37\n      jump\t// in\n    tag_75:\n      mload(0x40)\n      dup1\n      swap2\n      sub\n      swap1\n      return\n        /* \"@openzeppelin/contracts/access/Ownable.sol\":2293:2394  function renounceOwnership() public virtual onlyOwner {... */\n    tag_13:\n      tag_76\n      tag_77\n      jump\t// in\n    tag_76:\n      stop\n        /* \"Staking.sol\":506:542  IERC20 public immutable stakingToken */\n    tag_14:\n      tag_78\n      tag_79\n      jump\t// in\n    tag_78:\n      mload(0x40)\n      tag_80\n      swap2\n      swap1\n      tag_81\n      jump\t// in\n    tag_80:\n      mload(0x40)\n      dup1\n      swap2\n      sub\n      swap1\n      return\n        /* \"Staking.sol\":1204:1236  uint256 public rewardPoolBalance */\n    tag_15:\n      tag_82\n      tag_83\n      jump\t// in\n    tag_82:\n      mload(0x40)\n      tag_84\n      swap2\n      swap1\n      tag_37\n      jump\t// in\n    tag_84:\n      mload(0x40)\n      dup1\n      swap2\n      sub\n      swap1\n      return\n        /* \"Staking.sol\":1172:1198  uint256 public totalStaked */\n    tag_16:\n      tag_85\n      tag_86\n      jump\t// in\n    tag_85:\n      mload(0x40)\n      tag_87\n      swap2\n      swap1\n      tag_37\n      jump\t// in\n    tag_87:\n      mload(0x40)\n      dup1\n      swap2\n      sub\n      swap1\n      return\n        /* \"@openzeppelin/contracts/access/Ownable.sol\":1638:1723  function owner() public view virtual returns (address) {... */\n    tag_17:\n      tag_88\n      tag_89\n      jump\t// in\n    tag_88:\n      mload(0x40)\n      tag_90\n      swap2\n      swap1\n      tag_91\n      jump\t// in\n    tag_90:\n      mload(0x40)\n      dup1\n      swap2\n      sub\n      swap1\n      return\n        /* \"Staking.sol\":6661:7068  function toggleAutoStake(uint256 stakeIndex) external {... */\n    tag_18:\n      tag_92\n      0x04\n      dup1\n      calldatasize\n      sub\n      dup2\n      add\n      swap1\n      tag_93\n      swap2\n      swap1\n      tag_53\n      jump\t// in\n    tag_93:\n      tag_94\n      jump\t// in\n    tag_92:\n      stop\n        /* \"Staking.sol\":5008:6160  function claimReward(uint256 stakeIndex) external nonReentrant onlyEOA {... */\n    tag_19:\n      tag_95\n      0x04\n      dup1\n      calldatasize\n      sub\n      dup2\n      add\n      swap1\n      tag_96\n      swap2\n      swap1\n      tag_53\n      jump\t// in\n    tag_96:\n      tag_97\n      jump\t// in\n    tag_95:\n      stop\n        /* \"Staking.sol\":697:723  address public feeReceiver */\n    tag_20:\n      tag_98\n      tag_99\n      jump\t// in\n    tag_98:\n      mload(0x40)\n      tag_100\n      swap2\n      swap1\n      tag_91\n      jump\t// in\n    tag_100:\n      mload(0x40)\n      dup1\n      swap2\n      sub\n      swap1\n      return\n        /* \"Staking.sol\":8140:8407  function addRewardPoolFunds(uint256 amount) external onlyOwner {... */\n    tag_21:\n      tag_101\n      0x04\n      dup1\n      calldatasize\n      sub\n      dup2\n      add\n      swap1\n      tag_102\n      swap2\n      swap1\n      tag_53\n      jump\t// in\n    tag_102:\n      tag_103\n      jump\t// in\n    tag_101:\n      stop\n        /* \"Staking.sol\":9343:9578  function updateFeeReceiver(address newFeeReceiver) external onlyOwner {... */\n    tag_22:\n      tag_104\n      0x04\n      dup1\n      calldatasize\n      sub\n      dup2\n      add\n      swap1\n      tag_105\n      swap2\n      swap1\n      tag_34\n      jump\t// in\n    tag_105:\n      tag_106\n      jump\t// in\n    tag_104:\n      stop\n        /* \"Staking.sol\":6222:6552  function withdrawRewards() external nonReentrant {... */\n    tag_23:\n      tag_107\n      tag_108\n      jump\t// in\n    tag_107:\n      stop\n        /* \"Staking.sol\":580:631  uint256 public constant SECONDS_PER_YEAR = 365 days */\n    tag_24:\n      tag_109\n      tag_110\n      jump\t// in\n    tag_109:\n      mload(0x40)\n      tag_111\n      swap2\n      swap1\n      tag_37\n      jump\t// in\n    tag_111:\n      mload(0x40)\n      dup1\n      swap2\n      sub\n      swap1\n      return\n        /* \"@openzeppelin/contracts/access/Ownable.sol\":2543:2758  function transferOwnership(address newOwner) public virtual onlyOwner {... */\n    tag_25:\n      tag_112\n      0x04\n      dup1\n      calldatasize\n      sub\n      dup2\n      add\n      swap1\n      tag_113\n      swap2\n      swap1\n      tag_34\n      jump\t// in\n    tag_113:\n      tag_114\n      jump\t// in\n    tag_112:\n      stop\n        /* \"Staking.sol\":548:573  IERC20 public rewardToken */\n    tag_26:\n      tag_115\n      tag_116\n      jump\t// in\n    tag_115:\n      mload(0x40)\n      tag_117\n      swap2\n      swap1\n      tag_81\n      jump\t// in\n    tag_117:\n      mload(0x40)\n      dup1\n      swap2\n      sub\n      swap1\n      return\n        /* \"Staking.sol\":8981:9224  function updateRewardToken(address newRewardToken) external onlyOwner {... */\n    tag_27:\n      tag_118\n      0x04\n      dup1\n      calldatasize\n      sub\n      dup2\n      add\n      swap1\n      tag_119\n      swap2\n      swap1\n      tag_34\n      jump\t// in\n    tag_119:\n      tag_120\n      jump\t// in\n    tag_118:\n      stop\n        /* \"Staking.sol\":1106:1165  mapping(address => uint256) public pendingRewardWithdrawals */\n    tag_35:\n      mstore(0x20, 0x0b)\n      dup1\n      0x00\n      mstore\n      keccak256(0x00, 0x40)\n      0x00\n      swap2\n      pop\n      swap1\n      pop\n      sload\n      dup2\n      jump\t// out\n        /* \"Staking.sol\":9648:9766  function getActiveStakes(address user) external view returns (StakeInfo[] memory) {... */\n    tag_40:\n        /* \"Staking.sol\":9710:9728  StakeInfo[] memory */\n      0x60\n        /* \"Staking.sol\":9747:9753  stakes */\n      0x0a\n        /* \"Staking.sol\":9747:9759  stakes[user] */\n      0x00\n        /* \"Staking.sol\":9754:9758  user */\n      dup4\n        /* \"Staking.sol\":9747:9759  stakes[user] */\n      0xffffffffffffffffffffffffffffffffffffffff\n      and\n      0xffffffffffffffffffffffffffffffffffffffff\n      and\n      dup2\n      mstore\n      0x20\n      add\n      swap1\n      dup2\n      mstore\n      0x20\n      add\n      0x00\n      keccak256\n        /* \"Staking.sol\":9740:9759  return stakes[user] */\n      dup1\n      sload\n      dup1\n      0x20\n      mul\n      0x20\n      add\n      mload(0x40)\n      swap1\n      dup2\n      add\n      0x40\n      mstore\n      dup1\n      swap3\n      swap2\n      swap1\n      dup2\n      dup2\n      mstore\n      0x20\n      add\n      0x00\n      swap1\n    tag_122:\n      dup3\n      dup3\n      lt\n      iszero\n      tag_123\n      jumpi\n      dup4\n      dup3\n      swap1\n      0x00\n      mstore\n      keccak256(0x00, 0x20)\n      swap1\n      0x05\n      mul\n      add\n      mload(0x40)\n      dup1\n      0xc0\n      add\n      0x40\n      mstore\n      swap1\n      dup2\n      0x00\n      dup3\n      add\n      sload\n      dup2\n      mstore\n      0x20\n      add\n      0x01\n      dup3\n      add\n      sload\n      dup2\n      mstore\n      0x20\n      add\n      0x02\n      dup3\n      add\n      sload\n      dup2\n      mstore\n      0x20\n      add\n      0x03\n      dup3\n      add\n      0x00\n      swap1\n      sload\n      swap1\n      0x0100\n      exp\n      swap1\n      div\n      0xff\n      and\n      iszero\n      iszero\n      iszero\n      iszero\n      dup2\n      mstore\n      0x20\n      add\n      0x03\n      dup3\n      add\n      0x01\n      swap1\n      sload\n      swap1\n      0x0100\n      exp\n      swap1\n      div\n      0xff\n      and\n      iszero\n      iszero\n      iszero\n      iszero\n      dup2\n      mstore\n      0x20\n      add\n      0x04\n      dup3\n      add\n      sload\n      dup2\n      mstore\n      pop\n      pop\n      dup2\n      mstore\n      0x20\n      add\n      swap1\n      0x01\n      add\n      swap1\n      jump(tag_122)\n    tag_123:\n      pop\n      pop\n      pop\n      pop\n      swap1\n      pop\n        /* \"Staking.sol\":9648:9766  function getActiveStakes(address user) external view returns (StakeInfo[] memory) {... */\n      swap2\n      swap1\n      pop\n      jump\t// out\n        /* \"Staking.sol\":3729:4550  function calculateReward(address account, uint256 stakeIndex) public view returns (uint256) {... */\n    tag_46:\n        /* \"Staking.sol\":3812:3819  uint256 */\n      0x00\n        /* \"Staking.sol\":3858:3859  0 */\n      0x00\n        /* \"Staking.sol\":3839:3860  account != address(0) */\n      0xffffffffffffffffffffffffffffffffffffffff\n      and\n        /* \"Staking.sol\":3839:3846  account */\n      dup4\n        /* \"Staking.sol\":3839:3860  account != address(0) */\n      0xffffffffffffffffffffffffffffffffffffffff\n      and\n      sub\n        /* \"Staking.sol\":3831:3880  require(account != address(0), \"Invalid account\") */\n      tag_126\n      jumpi\n      mload(0x40)\n      0x08c379a000000000000000000000000000000000000000000000000000000000\n      dup2\n      mstore\n      0x04\n      add\n      tag_127\n      swap1\n      tag_128\n      jump\t// in\n    tag_127:\n      mload(0x40)\n      dup1\n      swap2\n      sub\n      swap1\n      revert\n    tag_126:\n        /* \"Staking.sol\":3911:3917  stakes */\n      0x0a\n        /* \"Staking.sol\":3911:3926  stakes[account] */\n      0x00\n        /* \"Staking.sol\":3918:3925  account */\n      dup5\n        /* \"Staking.sol\":3911:3926  stakes[account] */\n      0xffffffffffffffffffffffffffffffffffffffff\n      and\n      0xffffffffffffffffffffffffffffffffffffffff\n      and\n      dup2\n      mstore\n      0x20\n      add\n      swap1\n      dup2\n      mstore\n      0x20\n      add\n      0x00\n      keccak256\n        /* \"Staking.sol\":3911:3933  stakes[account].length */\n      dup1\n      sload\n      swap1\n      pop\n        /* \"Staking.sol\":3898:3908  stakeIndex */\n      dup3\n        /* \"Staking.sol\":3898:3933  stakeIndex < stakes[account].length */\n      lt\n        /* \"Staking.sol\":3890:3957  require(stakeIndex < stakes[account].length, \"Invalid stake index\") */\n      tag_129\n      jumpi\n      mload(0x40)\n      0x08c379a000000000000000000000000000000000000000000000000000000000\n      dup2\n      mstore\n      0x04\n      add\n      tag_130\n      swap1\n      tag_131\n      jump\t// in\n    tag_130:\n      mload(0x40)\n      dup1\n      swap2\n      sub\n      swap1\n      revert\n    tag_129:\n        /* \"Staking.sol\":3968:3989  StakeInfo memory info */\n      0x00\n        /* \"Staking.sol\":3992:3998  stakes */\n      0x0a\n        /* \"Staking.sol\":3992:4007  stakes[account] */\n      0x00\n        /* \"Staking.sol\":3999:4006  account */\n      dup6\n        /* \"Staking.sol\":3992:4007  stakes[account] */\n      0xffffffffffffffffffffffffffffffffffffffff\n      and\n      0xffffffffffffffffffffffffffffffffffffffff\n      and\n      dup2\n      mstore\n      0x20\n      add\n      swap1\n      dup2\n      mstore\n      0x20\n      add\n      0x00\n      keccak256\n        /* \"Staking.sol\":4008:4018  stakeIndex */\n      dup4\n        /* \"Staking.sol\":3992:4019  stakes[account][stakeIndex] */\n      dup2\n      sload\n      dup2\n      lt\n      tag_132\n      jumpi\n      tag_133\n      tag_134\n      jump\t// in\n    tag_133:\n    tag_132:\n      swap1\n      0x00\n      mstore\n      keccak256(0x00, 0x20)\n      swap1\n      0x05\n      mul\n      add\n        /* \"Staking.sol\":3968:4019  StakeInfo memory info = stakes[account][stakeIndex] */\n      mload(0x40)\n      dup1\n      0xc0\n      add\n      0x40\n      mstore\n      swap1\n      dup2\n      0x00\n      dup3\n      add\n      sload\n      dup2\n      mstore\n      0x20\n      add\n      0x01\n      dup3\n      add\n      sload\n      dup2\n      mstore\n      0x20\n      add\n      0x02\n      dup3\n      add\n      sload\n      dup2\n      mstore\n      0x20\n      add\n      0x03\n      dup3\n      add\n      0x00\n      swap1\n      sload\n      swap1\n      0x0100\n      exp\n      swap1\n      div\n      0xff\n      and\n      iszero\n      iszero\n      iszero\n      iszero\n      dup2\n      mstore\n      0x20\n      add\n      0x03\n      dup3\n      add\n      0x01\n      swap1\n      sload\n      swap1\n      0x0100\n      exp\n      swap1\n      div\n      0xff\n      and\n      iszero\n      iszero\n      iszero\n      iszero\n      dup2\n      mstore\n      0x20\n      add\n      0x04\n      dup3\n      add\n      sload\n      dup2\n      mstore\n      pop\n      pop\n      swap1\n      pop\n        /* \"Staking.sol\":4038:4042  info */\n      dup1\n        /* \"Staking.sol\":4038:4050  info.claimed */\n      0x60\n      add\n      mload\n        /* \"Staking.sol\":4037:4050  !info.claimed */\n      iszero\n        /* \"Staking.sol\":4029:4070  require(!info.claimed, \"Already claimed\") */\n      tag_136\n      jumpi\n      mload(0x40)\n      0x08c379a000000000000000000000000000000000000000000000000000000000\n      dup2\n      mstore\n      0x04\n      add\n      tag_137\n      swap1\n      tag_138\n      jump\t// in\n    tag_137:\n      mload(0x40)\n      dup1\n      swap2\n      sub\n      swap1\n      revert\n    tag_136:\n        /* \"Staking.sol\":4081:4096  uint256 endTime */\n      0x00\n        /* \"Staking.sol\":4099:4103  info */\n      dup2\n        /* \"Staking.sol\":4099:4114  info.unlockTime */\n      0x40\n      add\n      mload\n        /* \"Staking.sol\":4081:4114  uint256 endTime = info.unlockTime */\n      swap1\n      pop\n        /* \"Staking.sol\":4128:4132  info */\n      dup2\n        /* \"Staking.sol\":4128:4144  info.autoStaking */\n      0x80\n      add\n      mload\n        /* \"Staking.sol\":4128:4173  info.autoStaking && block.timestamp > endTime */\n      dup1\n      iszero\n      tag_139\n      jumpi\n      pop\n        /* \"Staking.sol\":4166:4173  endTime */\n      dup1\n        /* \"Staking.sol\":4148:4163  block.timestamp */\n      timestamp\n        /* \"Staking.sol\":4148:4173  block.timestamp > endTime */\n      gt\n        /* \"Staking.sol\":4128:4173  info.autoStaking && block.timestamp > endTime */\n    tag_139:\n        /* \"Staking.sol\":4124:4225  if (info.autoStaking && block.timestamp > endTime) {... */\n      iszero\n      tag_140\n      jumpi\n        /* \"Staking.sol\":4199:4214  block.timestamp */\n      timestamp\n        /* \"Staking.sol\":4189:4214  endTime = block.timestamp */\n      swap1\n      pop\n        /* \"Staking.sol\":4124:4225  if (info.autoStaking && block.timestamp > endTime) {... */\n    tag_140:\n        /* \"Staking.sol\":4235:4251  uint256 timeHeld */\n      0x00\n        /* \"Staking.sol\":4264:4268  info */\n      dup3\n        /* \"Staking.sol\":4264:4278  info.stakeTime */\n      0x20\n      add\n      mload\n        /* \"Staking.sol\":4254:4261  endTime */\n      dup3\n        /* \"Staking.sol\":4254:4278  endTime - info.stakeTime */\n      tag_141\n      swap2\n      swap1\n      tag_142\n      jump\t// in\n    tag_141:\n        /* \"Staking.sol\":4235:4278  uint256 timeHeld = endTime - info.stakeTime */\n      swap1\n      pop\n        /* \"Staking.sol\":4288:4307  uint256 periodIndex */\n      0x00\n        /* \"Staking.sol\":4310:4358  getPeriodIndex(info.unlockTime - info.stakeTime) */\n      tag_143\n        /* \"Staking.sol\":4343:4347  info */\n      dup5\n        /* \"Staking.sol\":4343:4357  info.stakeTime */\n      0x20\n      add\n      mload\n        /* \"Staking.sol\":4325:4329  info */\n      dup6\n        /* \"Staking.sol\":4325:4340  info.unlockTime */\n      0x40\n      add\n      mload\n        /* \"Staking.sol\":4325:4357  info.unlockTime - info.stakeTime */\n      tag_144\n      swap2\n      swap1\n      tag_142\n      jump\t// in\n    tag_144:\n        /* \"Staking.sol\":4310:4324  getPeriodIndex */\n      tag_145\n        /* \"Staking.sol\":4310:4358  getPeriodIndex(info.unlockTime - info.stakeTime) */\n      jump\t// in\n    tag_143:\n        /* \"Staking.sol\":4288:4358  uint256 periodIndex = getPeriodIndex(info.unlockTime - info.stakeTime) */\n      swap1\n      pop\n        /* \"Staking.sol\":4368:4379  uint256 apy */\n      0x00\n        /* \"Staking.sol\":4382:4390  apyRates */\n      0x07\n        /* \"Staking.sol\":4391:4402  periodIndex */\n      dup3\n        /* \"Staking.sol\":4382:4403  apyRates[periodIndex] */\n      0x03\n      dup2\n      lt\n      tag_146\n      jumpi\n      tag_147\n      tag_134\n      jump\t// in\n    tag_147:\n    tag_146:\n      add\n      sload\n        /* \"Staking.sol\":4368:4403  uint256 apy = apyRates[periodIndex] */\n      swap1\n      pop\n        /* \"Staking.sol\":4414:4431  uint256 principal */\n      0x00\n        /* \"Staking.sol\":4448:4452  info */\n      dup6\n        /* \"Staking.sol\":4448:4469  info.compoundedAmount */\n      0xa0\n      add\n      mload\n        /* \"Staking.sol\":4434:4438  info */\n      dup7\n        /* \"Staking.sol\":4434:4445  info.amount */\n      0x00\n      add\n      mload\n        /* \"Staking.sol\":4434:4469  info.amount + info.compoundedAmount */\n      tag_149\n      swap2\n      swap1\n      tag_150\n      jump\t// in\n    tag_149:\n        /* \"Staking.sol\":4414:4469  uint256 principal = info.amount + info.compoundedAmount */\n      swap1\n      pop\n        /* \"Staking.sol\":623:631  365 days */\n      0x01e13380\n        /* \"Staking.sol\":4518:4523  10000 */\n      0x2710\n        /* \"Staking.sol\":4518:4542  10000 * SECONDS_PER_YEAR */\n      tag_151\n      swap2\n      swap1\n      tag_152\n      jump\t// in\n    tag_151:\n        /* \"Staking.sol\":4505:4513  timeHeld */\n      dup5\n        /* \"Staking.sol\":4499:4502  apy */\n      dup4\n        /* \"Staking.sol\":4487:4496  principal */\n      dup4\n        /* \"Staking.sol\":4487:4502  principal * apy */\n      tag_153\n      swap2\n      swap1\n      tag_152\n      jump\t// in\n    tag_153:\n        /* \"Staking.sol\":4487:4513  principal * apy * timeHeld */\n      tag_154\n      swap2\n      swap1\n      tag_152\n      jump\t// in\n    tag_154:\n        /* \"Staking.sol\":4486:4543  (principal * apy * timeHeld) / (10000 * SECONDS_PER_YEAR) */\n      tag_155\n      swap2\n      swap1\n      tag_156\n      jump\t// in\n    tag_155:\n        /* \"Staking.sol\":4479:4543  return (principal * apy * timeHeld) / (10000 * SECONDS_PER_YEAR) */\n      swap7\n      pop\n      pop\n      pop\n      pop\n      pop\n      pop\n      pop\n        /* \"Staking.sol\":3729:4550  function calculateReward(address account, uint256 stakeIndex) public view returns (uint256) {... */\n      swap3\n      swap2\n      pop\n      pop\n      jump\t// out\n        /* \"Staking.sol\":637:683  uint256 public constant AUTO_COMPOUND_FEE = 50 */\n    tag_49:\n        /* \"Staking.sol\":681:683  50 */\n      0x32\n        /* \"Staking.sol\":637:683  uint256 public constant AUTO_COMPOUND_FEE = 50 */\n      dup2\n      jump\t// out\n        /* \"Staking.sol\":7176:8043  function compoundReward(uint256 stakeIndex) external nonReentrant onlyEOA {... */\n    tag_54:\n        /* \"@openzeppelin/contracts/security/ReentrancyGuard.sol\":2261:2282  _nonReentrantBefore() */\n      tag_158\n        /* \"@openzeppelin/contracts/security/ReentrancyGuard.sol\":2261:2280  _nonReentrantBefore */\n      tag_159\n        /* \"@openzeppelin/contracts/security/ReentrancyGuard.sol\":2261:2282  _nonReentrantBefore() */\n      jump\t// in\n    tag_158:\n        /* \"Staking.sol\":2027:2037  msg.sender */\n      caller\n        /* \"Staking.sol\":2014:2037  tx.origin == msg.sender */\n      0xffffffffffffffffffffffffffffffffffffffff\n      and\n        /* \"Staking.sol\":2014:2023  tx.origin */\n      origin\n        /* \"Staking.sol\":2014:2037  tx.origin == msg.sender */\n      0xffffffffffffffffffffffffffffffffffffffff\n      and\n      eq\n        /* \"Staking.sol\":2006:2060  require(tx.origin == msg.sender, \"Caller must be EOA\") */\n      tag_161\n      jumpi\n      mload(0x40)\n      0x08c379a000000000000000000000000000000000000000000000000000000000\n      dup2\n      mstore\n      0x04\n      add\n      tag_162\n      swap1\n      tag_163\n      jump\t// in\n    tag_162:\n      mload(0x40)\n      dup1\n      swap2\n      sub\n      swap1\n      revert\n    tag_161:\n        /* \"Staking.sol\":7260:7275  address account */\n      0x00\n        /* \"Staking.sol\":7278:7288  msg.sender */\n      caller\n        /* \"Staking.sol\":7260:7288  address account = msg.sender */\n      swap1\n      pop\n        /* \"Staking.sol\":7319:7325  stakes */\n      0x0a\n        /* \"Staking.sol\":7319:7334  stakes[account] */\n      0x00\n        /* \"Staking.sol\":7326:7333  account */\n      dup3\n        /* \"Staking.sol\":7319:7334  stakes[account] */\n      0xffffffffffffffffffffffffffffffffffffffff\n      and\n      0xffffffffffffffffffffffffffffffffffffffff\n      and\n      dup2\n      mstore\n      0x20\n      add\n      swap1\n      dup2\n      mstore\n      0x20\n      add\n      0x00\n      keccak256\n        /* \"Staking.sol\":7319:7341  stakes[account].length */\n      dup1\n      sload\n      swap1\n      pop\n        /* \"Staking.sol\":7306:7316  stakeIndex */\n      dup3\n        /* \"Staking.sol\":7306:7341  stakeIndex < stakes[account].length */\n      lt\n        /* \"Staking.sol\":7298:7365  require(stakeIndex < stakes[account].length, \"Invalid stake index\") */\n      tag_165\n      jumpi\n      mload(0x40)\n      0x08c379a000000000000000000000000000000000000000000000000000000000\n      dup2\n      mstore\n      0x04\n      add\n      tag_166\n      swap1\n      tag_131\n      jump\t// in\n    tag_166:\n      mload(0x40)\n      dup1\n      swap2\n      sub\n      swap1\n      revert\n    tag_165:\n        /* \"Staking.sol\":7376:7398  StakeInfo storage info */\n      0x00\n        /* \"Staking.sol\":7401:7407  stakes */\n      0x0a\n        /* \"Staking.sol\":7401:7416  stakes[account] */\n      0x00\n        /* \"Staking.sol\":7408:7415  account */\n      dup4\n        /* \"Staking.sol\":7401:7416  stakes[account] */\n      0xffffffffffffffffffffffffffffffffffffffff\n      and\n      0xffffffffffffffffffffffffffffffffffffffff\n      and\n      dup2\n      mstore\n      0x20\n      add\n      swap1\n      dup2\n      mstore\n      0x20\n      add\n      0x00\n      keccak256\n        /* \"Staking.sol\":7417:7427  stakeIndex */\n      dup4\n        /* \"Staking.sol\":7401:7428  stakes[account][stakeIndex] */\n      dup2\n      sload\n      dup2\n      lt\n      tag_167\n      jumpi\n      tag_168\n      tag_134\n      jump\t// in\n    tag_168:\n    tag_167:\n      swap1\n      0x00\n      mstore\n      keccak256(0x00, 0x20)\n      swap1\n      0x05\n      mul\n      add\n        /* \"Staking.sol\":7376:7428  StakeInfo storage info = stakes[account][stakeIndex] */\n      swap1\n      pop\n        /* \"Staking.sol\":7447:7451  info */\n      dup1\n        /* \"Staking.sol\":7447:7459  info.claimed */\n      0x03\n      add\n      0x00\n      swap1\n      sload\n      swap1\n      0x0100\n      exp\n      swap1\n      div\n      0xff\n      and\n        /* \"Staking.sol\":7446:7459  !info.claimed */\n      iszero\n        /* \"Staking.sol\":7438:7479  require(!info.claimed, \"Already claimed\") */\n      tag_170\n      jumpi\n      mload(0x40)\n      0x08c379a000000000000000000000000000000000000000000000000000000000\n      dup2\n      mstore\n      0x04\n      add\n      tag_171\n      swap1\n      tag_138\n      jump\t// in\n    tag_171:\n      mload(0x40)\n      dup1\n      swap2\n      sub\n      swap1\n      revert\n    tag_170:\n        /* \"Staking.sol\":7497:7501  info */\n      dup1\n        /* \"Staking.sol\":7497:7513  info.autoStaking */\n      0x03\n      add\n      0x01\n      swap1\n      sload\n      swap1\n      0x0100\n      exp\n      swap1\n      div\n      0xff\n      and\n        /* \"Staking.sol\":7489:7539  require(info.autoStaking, \"Auto-staking disabled\") */\n      tag_172\n      jumpi\n      mload(0x40)\n      0x08c379a000000000000000000000000000000000000000000000000000000000\n      dup2\n      mstore\n      0x04\n      add\n      tag_173\n      swap1\n      tag_174\n      jump\t// in\n    tag_173:\n      mload(0x40)\n      dup1\n      swap2\n      sub\n      swap1\n      revert\n    tag_172:\n        /* \"Staking.sol\":7576:7580  info */\n      dup1\n        /* \"Staking.sol\":7576:7591  info.unlockTime */\n      0x02\n      add\n      sload\n        /* \"Staking.sol\":7557:7572  block.timestamp */\n      timestamp\n        /* \"Staking.sol\":7557:7591  block.timestamp >= info.unlockTime */\n      lt\n      iszero\n        /* \"Staking.sol\":7549:7608  require(block.timestamp >= info.unlockTime, \"Still locked\") */\n      tag_175\n      jumpi\n      mload(0x40)\n      0x08c379a000000000000000000000000000000000000000000000000000000000\n      dup2\n      mstore\n      0x04\n      add\n      tag_176\n      swap1\n      tag_177\n      jump\t// in\n    tag_176:\n      mload(0x40)\n      dup1\n      swap2\n      sub\n      swap1\n      revert\n    tag_175:\n        /* \"Staking.sol\":7619:7633  uint256 reward */\n      0x00\n        /* \"Staking.sol\":7636:7672  calculateReward(account, stakeIndex) */\n      tag_178\n        /* \"Staking.sol\":7652:7659  account */\n      dup4\n        /* \"Staking.sol\":7661:7671  stakeIndex */\n      dup6\n        /* \"Staking.sol\":7636:7651  calculateReward */\n      tag_46\n        /* \"Staking.sol\":7636:7672  calculateReward(account, stakeIndex) */\n      jump\t// in\n    tag_178:\n        /* \"Staking.sol\":7619:7672  uint256 reward = calculateReward(account, stakeIndex) */\n      swap1\n      pop\n        /* \"Staking.sol\":7711:7717  reward */\n      dup1\n        /* \"Staking.sol\":7690:7707  rewardPoolBalance */\n      sload(0x0d)\n        /* \"Staking.sol\":7690:7717  rewardPoolBalance >= reward */\n      lt\n      iszero\n        /* \"Staking.sol\":7682:7746  require(rewardPoolBalance >= reward, \"Insufficient reward pool\") */\n      tag_179\n      jumpi\n      mload(0x40)\n      0x08c379a000000000000000000000000000000000000000000000000000000000\n      dup2\n      mstore\n      0x04\n      add\n      tag_180\n      swap1\n      tag_181\n      jump\t// in\n    tag_180:\n      mload(0x40)\n      dup1\n      swap2\n      sub\n      swap1\n      revert\n    tag_179:\n        /* \"Staking.sol\":7774:7789  block.timestamp */\n      timestamp\n        /* \"Staking.sol\":7757:7761  info */\n      dup3\n        /* \"Staking.sol\":7757:7771  info.stakeTime */\n      0x01\n      add\n        /* \"Staking.sol\":7757:7789  info.stakeTime = block.timestamp */\n      dup2\n      swap1\n      sstore\n      pop\n        /* \"Staking.sol\":7854:7858  info */\n      dup2\n        /* \"Staking.sol\":7854:7868  info.stakeTime */\n      0x01\n      add\n      sload\n        /* \"Staking.sol\":7836:7840  info */\n      dup3\n        /* \"Staking.sol\":7836:7851  info.unlockTime */\n      0x02\n      add\n      sload\n        /* \"Staking.sol\":7836:7868  info.unlockTime - info.stakeTime */\n      tag_182\n      swap2\n      swap1\n      tag_142\n      jump\t// in\n    tag_182:\n        /* \"Staking.sol\":7817:7832  block.timestamp */\n      timestamp\n        /* \"Staking.sol\":7817:7869  block.timestamp + (info.unlockTime - info.stakeTime) */\n      tag_183\n      swap2\n      swap1\n      tag_150\n      jump\t// in\n    tag_183:\n        /* \"Staking.sol\":7799:7803  info */\n      dup3\n        /* \"Staking.sol\":7799:7814  info.unlockTime */\n      0x02\n      add\n        /* \"Staking.sol\":7799:7869  info.unlockTime = block.timestamp + (info.unlockTime - info.stakeTime) */\n      dup2\n      swap1\n      sstore\n      pop\n        /* \"Staking.sol\":7919:7925  reward */\n      dup1\n        /* \"Staking.sol\":7894:7898  info */\n      dup3\n        /* \"Staking.sol\":7894:7915  info.compoundedAmount */\n      0x04\n      add\n      0x00\n        /* \"Staking.sol\":7894:7925  info.compoundedAmount += reward */\n      dup3\n      dup3\n      sload\n      tag_184\n      swap2\n      swap1\n      tag_150\n      jump\t// in\n    tag_184:\n      swap3\n      pop\n      pop\n      dup2\n      swap1\n      sstore\n      pop\n        /* \"Staking.sol\":7956:7962  reward */\n      dup1\n        /* \"Staking.sol\":7935:7952  rewardPoolBalance */\n      0x0d\n      0x00\n        /* \"Staking.sol\":7935:7962  rewardPoolBalance -= reward */\n      dup3\n      dup3\n      sload\n      tag_185\n      swap2\n      swap1\n      tag_142\n      jump\t// in\n    tag_185:\n      swap3\n      pop\n      pop\n      dup2\n      swap1\n      sstore\n      pop\n        /* \"Staking.sol\":7993:8000  account */\n      dup3\n        /* \"Staking.sol\":7978:8036  AutoCompounded(account, stakeIndex, info.compoundedAmount) */\n      0xffffffffffffffffffffffffffffffffffffffff\n      and\n      0x593662cbe53e88df3fef748665b8c3d3142e5d34dc1b24290f7e953537a00183\n        /* \"Staking.sol\":8002:8012  stakeIndex */\n      dup6\n        /* \"Staking.sol\":8014:8018  info */\n      dup5\n        /* \"Staking.sol\":8014:8035  info.compoundedAmount */\n      0x04\n      add\n      sload\n        /* \"Staking.sol\":7978:8036  AutoCompounded(account, stakeIndex, info.compoundedAmount) */\n      mload(0x40)\n      tag_186\n      swap3\n      swap2\n      swap1\n      tag_187\n      jump\t// in\n    tag_186:\n      mload(0x40)\n      dup1\n      swap2\n      sub\n      swap1\n      log2\n        /* \"Staking.sol\":7250:8043  {... */\n      pop\n      pop\n      pop\n        /* \"@openzeppelin/contracts/security/ReentrancyGuard.sol\":2303:2323  _nonReentrantAfter() */\n      tag_188\n        /* \"@openzeppelin/contracts/security/ReentrancyGuard.sol\":2303:2321  _nonReentrantAfter */\n      tag_189\n        /* \"@openzeppelin/contracts/security/ReentrancyGuard.sol\":2303:2323  _nonReentrantAfter() */\n      jump\t// in\n    tag_188:\n        /* \"Staking.sol\":7176:8043  function compoundReward(uint256 stakeIndex) external nonReentrant onlyEOA {... */\n      pop\n      jump\t// out\n        /* \"Staking.sol\":730:789  uint256[3] public lockPeriods = [30 days, 60 days, 90 days] */\n    tag_57:\n      0x04\n      dup2\n      0x03\n      dup2\n      lt\n      tag_190\n      jumpi\n      0x00\n      dup1\n      revert\n    tag_190:\n      add\n      0x00\n      swap2\n      pop\n      swap1\n      pop\n      sload\n      dup2\n      jump\t// out\n        /* \"Staking.sol\":2846:3575  function stake(uint256 amount, uint256 periodIndex, bool autoStake) external nonReentrant onlyEOA {... */\n    tag_62:\n        /* \"@openzeppelin/contracts/security/ReentrancyGuard.sol\":2261:2282  _nonReentrantBefore() */\n      tag_193\n        /* \"@openzeppelin/contracts/security/ReentrancyGuard.sol\":2261:2280  _nonReentrantBefore */\n      tag_159\n        /* \"@openzeppelin/contracts/security/ReentrancyGuard.sol\":2261:2282  _nonReentrantBefore() */\n      jump\t// in\n    tag_193:\n        /* \"Staking.sol\":2027:2037  msg.sender */\n      caller\n        /* \"Staking.sol\":2014:2037  tx.origin == msg.sender */\n      0xffffffffffffffffffffffffffffffffffffffff\n      and\n        /* \"Staking.sol\":2014:2023  tx.origin */\n      origin\n        /* \"Staking.sol\":2014:2037  tx.origin == msg.sender */\n      0xffffffffffffffffffffffffffffffffffffffff\n      and\n      eq\n        /* \"Staking.sol\":2006:2060  require(tx.origin == msg.sender, \"Caller must be EOA\") */\n      tag_195\n      jumpi\n      mload(0x40)\n      0x08c379a000000000000000000000000000000000000000000000000000000000\n      dup2\n      mstore\n      0x04\n      add\n      tag_196\n      swap1\n      tag_163\n      jump\t// in\n    tag_196:\n      mload(0x40)\n      dup1\n      swap2\n      sub\n      swap1\n      revert\n    tag_195:\n        /* \"Staking.sol\":2976:2994  lockPeriods.length */\n      0x03\n        /* \"Staking.sol\":2962:2973  periodIndex */\n      dup3\n        /* \"Staking.sol\":2962:2994  periodIndex < lockPeriods.length */\n      lt\n        /* \"Staking.sol\":2954:3019  require(periodIndex < lockPeriods.length, \"Invalid period index\") */\n      tag_198\n      jumpi\n      mload(0x40)\n      0x08c379a000000000000000000000000000000000000000000000000000000000\n      dup2\n      mstore\n      0x04\n      add\n      tag_199\n      swap1\n      tag_200\n      jump\t// in\n    tag_199:\n      mload(0x40)\n      dup1\n      swap2\n      sub\n      swap1\n      revert\n    tag_198:\n        /* \"Staking.sol\":3046:3047  0 */\n      0x00\n        /* \"Staking.sol\":3037:3043  amount */\n      dup4\n        /* \"Staking.sol\":3037:3047  amount > 0 */\n      gt\n        /* \"Staking.sol\":3029:3063  require(amount > 0, \"Zero amount\") */\n      tag_201\n      jumpi\n      mload(0x40)\n      0x08c379a000000000000000000000000000000000000000000000000000000000\n      dup2\n      mstore\n      0x04\n      add\n      tag_202\n      swap1\n      tag_203\n      jump\t// in\n    tag_202:\n      mload(0x40)\n      dup1\n      swap2\n      sub\n      swap1\n      revert\n    tag_201:\n        /* \"Staking.sol\":3074:3138  stakingToken.safeTransferFrom(msg.sender, address(this), amount) */\n      tag_204\n        /* \"Staking.sol\":3104:3114  msg.sender */\n      caller\n        /* \"Staking.sol\":3124:3128  this */\n      address\n        /* \"Staking.sol\":3131:3137  amount */\n      dup6\n        /* \"Staking.sol\":3074:3086  stakingToken */\n      immutable(\"0x05f14bbde4435ecbe5273cf423314527515a37e93321dc3a13f762431443ebf5\")\n        /* \"Staking.sol\":3074:3103  stakingToken.safeTransferFrom */\n      0xffffffffffffffffffffffffffffffffffffffff\n      and\n      tag_205\n      swap1\n        /* \"Staking.sol\":3074:3138  stakingToken.safeTransferFrom(msg.sender, address(this), amount) */\n      swap4\n      swap3\n      swap2\n      swap1\n      0xffffffff\n      and\n      jump\t// in\n    tag_204:\n        /* \"Staking.sol\":3149:3167  uint256 unlockTime */\n      0x00\n        /* \"Staking.sol\":3188:3199  lockPeriods */\n      0x04\n        /* \"Staking.sol\":3200:3211  periodIndex */\n      dup4\n        /* \"Staking.sol\":3188:3212  lockPeriods[periodIndex] */\n      0x03\n      dup2\n      lt\n      tag_206\n      jumpi\n      tag_207\n      tag_134\n      jump\t// in\n    tag_207:\n    tag_206:\n      add\n      sload\n        /* \"Staking.sol\":3170:3185  block.timestamp */\n      timestamp\n        /* \"Staking.sol\":3170:3212  block.timestamp + lockPeriods[periodIndex] */\n      tag_209\n      swap2\n      swap1\n      tag_150\n      jump\t// in\n    tag_209:\n        /* \"Staking.sol\":3149:3212  uint256 unlockTime = block.timestamp + lockPeriods[periodIndex] */\n      swap1\n      pop\n        /* \"Staking.sol\":3223:3229  stakes */\n      0x0a\n        /* \"Staking.sol\":3223:3241  stakes[msg.sender] */\n      0x00\n        /* \"Staking.sol\":3230:3240  msg.sender */\n      caller\n        /* \"Staking.sol\":3223:3241  stakes[msg.sender] */\n      0xffffffffffffffffffffffffffffffffffffffff\n      and\n      0xffffffffffffffffffffffffffffffffffffffff\n      and\n      dup2\n      mstore\n      0x20\n      add\n      swap1\n      dup2\n      mstore\n      0x20\n      add\n      0x00\n      keccak256\n        /* \"Staking.sol\":3247:3469  StakeInfo({... */\n      mload(0x40)\n      dup1\n      0xc0\n      add\n      0x40\n      mstore\n      dup1\n        /* \"Staking.sol\":3279:3285  amount */\n      dup7\n        /* \"Staking.sol\":3247:3469  StakeInfo({... */\n      dup2\n      mstore\n      0x20\n      add\n        /* \"Staking.sol\":3310:3325  block.timestamp */\n      timestamp\n        /* \"Staking.sol\":3247:3469  StakeInfo({... */\n      dup2\n      mstore\n      0x20\n      add\n        /* \"Staking.sol\":3351:3361  unlockTime */\n      dup4\n        /* \"Staking.sol\":3247:3469  StakeInfo({... */\n      dup2\n      mstore\n      0x20\n      add\n        /* \"Staking.sol\":3384:3389  false */\n      0x00\n        /* \"Staking.sol\":3247:3469  StakeInfo({... */\n      iszero\n      iszero\n      dup2\n      mstore\n      0x20\n      add\n        /* \"Staking.sol\":3416:3425  autoStake */\n      dup5\n        /* \"Staking.sol\":3247:3469  StakeInfo({... */\n      iszero\n      iszero\n      dup2\n      mstore\n      0x20\n      add\n        /* \"Staking.sol\":3457:3458  0 */\n      0x00\n        /* \"Staking.sol\":3247:3469  StakeInfo({... */\n      dup2\n      mstore\n      pop\n        /* \"Staking.sol\":3223:3470  stakes[msg.sender].push(StakeInfo({... */\n      swap1\n      dup1\n      0x01\n      dup2\n      sload\n      add\n      dup1\n      dup3\n      sstore\n      dup1\n      swap2\n      pop\n      pop\n      0x01\n      swap1\n      sub\n      swap1\n      0x00\n      mstore\n      keccak256(0x00, 0x20)\n      swap1\n      0x05\n      mul\n      add\n      0x00\n      swap1\n      swap2\n      swap1\n      swap2\n      swap1\n      swap2\n      pop\n      0x00\n      dup3\n      add\n      mload\n      dup2\n      0x00\n      add\n      sstore\n      0x20\n      dup3\n      add\n      mload\n      dup2\n      0x01\n      add\n      sstore\n      0x40\n      dup3\n      add\n      mload\n      dup2\n      0x02\n      add\n      sstore\n      0x60\n      dup3\n      add\n      mload\n      dup2\n      0x03\n      add\n      exp(0x0100, 0x00)\n      dup2\n      sload\n      dup2\n      0xff\n      mul\n      not\n      and\n      swap1\n      dup4\n      iszero\n      iszero\n      mul\n      or\n      swap1\n      sstore\n      pop\n      0x80\n      dup3\n      add\n      mload\n      dup2\n      0x03\n      add\n      exp(0x0100, 0x01)\n      dup2\n      sload\n      dup2\n      0xff\n      mul\n      not\n      and\n      swap1\n      dup4\n      iszero\n      iszero\n      mul\n      or\n      swap1\n      sstore\n      pop\n      0xa0\n      dup3\n      add\n      mload\n      dup2\n      0x04\n      add\n      sstore\n      pop\n      pop\n        /* \"Staking.sol\":3496:3502  amount */\n      dup4\n        /* \"Staking.sol\":3481:3492  totalStaked */\n      0x0c\n      0x00\n        /* \"Staking.sol\":3481:3502  totalStaked += amount */\n      dup3\n      dup3\n      sload\n      tag_211\n      swap2\n      swap1\n      tag_150\n      jump\t// in\n    tag_211:\n      swap3\n      pop\n      pop\n      dup2\n      swap1\n      sstore\n      pop\n        /* \"Staking.sol\":3525:3535  msg.sender */\n      caller\n        /* \"Staking.sol\":3518:3568  Staked(msg.sender, amount, periodIndex, autoStake) */\n      0xffffffffffffffffffffffffffffffffffffffff\n      and\n      0x3df45cb339f96ae4bdb793efcb6e22100dd0dc4fd739a4ee2033fe67ea35af96\n        /* \"Staking.sol\":3537:3543  amount */\n      dup6\n        /* \"Staking.sol\":3545:3556  periodIndex */\n      dup6\n        /* \"Staking.sol\":3558:3567  autoStake */\n      dup6\n        /* \"Staking.sol\":3518:3568  Staked(msg.sender, amount, periodIndex, autoStake) */\n      mload(0x40)\n      tag_212\n      swap4\n      swap3\n      swap2\n      swap1\n      tag_213\n      jump\t// in\n    tag_212:\n      mload(0x40)\n      dup1\n      swap2\n      sub\n      swap1\n      log2\n        /* \"Staking.sol\":2944:3575  {... */\n      pop\n        /* \"@openzeppelin/contracts/security/ReentrancyGuard.sol\":2303:2323  _nonReentrantAfter() */\n      tag_214\n        /* \"@openzeppelin/contracts/security/ReentrancyGuard.sol\":2303:2321  _nonReentrantAfter */\n      tag_189\n        /* \"@openzeppelin/contracts/security/ReentrancyGuard.sol\":2303:2323  _nonReentrantAfter() */\n      jump\t// in\n    tag_214:\n        /* \"Staking.sol\":2846:3575  function stake(uint256 amount, uint256 periodIndex, bool autoStake) external nonReentrant onlyEOA {... */\n      pop\n      pop\n      pop\n      jump\t// out\n        /* \"Staking.sol\":1055:1100  mapping(address => StakeInfo[]) public stakes */\n    tag_65:\n      mstore(0x20, 0x0a)\n      dup2\n      0x00\n      mstore\n      keccak256(0x00, 0x40)\n      dup2\n      dup2\n      sload\n      dup2\n      lt\n      tag_215\n      jumpi\n      0x00\n      dup1\n      revert\n    tag_215:\n      swap1\n      0x00\n      mstore\n      keccak256(0x00, 0x20)\n      swap1\n      0x05\n      mul\n      add\n      0x00\n      swap2\n      pop\n      swap2\n      pop\n      pop\n      dup1\n      0x00\n      add\n      sload\n      swap1\n      dup1\n      0x01\n      add\n      sload\n      swap1\n      dup1\n      0x02\n      add\n      sload\n      swap1\n      dup1\n      0x03\n      add\n      0x00\n      swap1\n      sload\n      swap1\n      0x0100\n      exp\n      swap1\n      div\n      0xff\n      and\n      swap1\n      dup1\n      0x03\n      add\n      0x01\n      swap1\n      sload\n      swap1\n      0x0100\n      exp\n      swap1\n      div\n      0xff\n      and\n      swap1\n      dup1\n      0x04\n      add\n      sload\n      swap1\n      pop\n      dup7\n      jump\t// out\n        /* \"Staking.sol\":8560:8862  function setAPY(uint256 periodIndex, uint256 newAPY) external onlyOwner {... */\n    tag_71:\n        /* \"@openzeppelin/contracts/access/Ownable.sol\":1531:1544  _checkOwner() */\n      tag_218\n        /* \"@openzeppelin/contracts/access/Ownable.sol\":1531:1542  _checkOwner */\n      tag_219\n        /* \"@openzeppelin/contracts/access/Ownable.sol\":1531:1544  _checkOwner() */\n      jump\t// in\n    tag_218:\n        /* \"Staking.sol\":8664:8682  lockPeriods.length */\n      0x03\n        /* \"Staking.sol\":8650:8661  periodIndex */\n      dup3\n        /* \"Staking.sol\":8650:8682  periodIndex < lockPeriods.length */\n      lt\n        /* \"Staking.sol\":8642:8707  require(periodIndex < lockPeriods.length, \"Invalid period index\") */\n      tag_221\n      jumpi\n      mload(0x40)\n      0x08c379a000000000000000000000000000000000000000000000000000000000\n      dup2\n      mstore\n      0x04\n      add\n      tag_222\n      swap1\n      tag_200\n      jump\t// in\n    tag_222:\n      mload(0x40)\n      dup1\n      swap2\n      sub\n      swap1\n      revert\n    tag_221:\n        /* \"Staking.sol\":8735:8740  10000 */\n      0x2710\n        /* \"Staking.sol\":8725:8731  newAPY */\n      dup2\n        /* \"Staking.sol\":8725:8740  newAPY <= 10000 */\n      gt\n      iszero\n        /* \"Staking.sol\":8717:8757  require(newAPY <= 10000, \"APY too high\") */\n      tag_223\n      jumpi\n      mload(0x40)\n      0x08c379a000000000000000000000000000000000000000000000000000000000\n      dup2\n      mstore\n      0x04\n      add\n      tag_224\n      swap1\n      tag_225\n      jump\t// in\n    tag_224:\n      mload(0x40)\n      dup1\n      swap2\n      sub\n      swap1\n      revert\n    tag_223:\n        /* \"Staking.sol\":8803:8809  newAPY */\n      dup1\n        /* \"Staking.sol\":8779:8787  apyRates */\n      0x07\n        /* \"Staking.sol\":8788:8799  periodIndex */\n      dup4\n        /* \"Staking.sol\":8779:8800  apyRates[periodIndex] */\n      0x03\n      dup2\n      lt\n      tag_226\n      jumpi\n      tag_227\n      tag_134\n      jump\t// in\n    tag_227:\n    tag_226:\n      add\n        /* \"Staking.sol\":8779:8809  apyRates[periodIndex] = newAPY */\n      dup2\n      swap1\n      sstore\n      pop\n        /* \"Staking.sol\":8824:8855  APYUpdated(periodIndex, newAPY) */\n      0x787a1fca55641ce34a438271930bbb9401df20db2b4f510d4f252227d85df43d\n        /* \"Staking.sol\":8835:8846  periodIndex */\n      dup3\n        /* \"Staking.sol\":8848:8854  newAPY */\n      dup3\n        /* \"Staking.sol\":8824:8855  APYUpdated(periodIndex, newAPY) */\n      mload(0x40)\n      tag_229\n      swap3\n      swap2\n      swap1\n      tag_187\n      jump\t// in\n    tag_229:\n      mload(0x40)\n      dup1\n      swap2\n      sub\n      swap1\n      log1\n        /* \"Staking.sol\":8560:8862  function setAPY(uint256 periodIndex, uint256 newAPY) external onlyOwner {... */\n      pop\n      pop\n      jump\t// out\n        /* \"Staking.sol\":795:841  uint256[3] public apyRates = [500, 1000, 1500] */\n    tag_74:\n      0x07\n      dup2\n      0x03\n      dup2\n      lt\n      tag_230\n      jumpi\n      0x00\n      dup1\n      revert\n    tag_230:\n      add\n      0x00\n      swap2\n      pop\n      swap1\n      pop\n      sload\n      dup2\n      jump\t// out\n        /* \"@openzeppelin/contracts/access/Ownable.sol\":2293:2394  function renounceOwnership() public virtual onlyOwner {... */\n    tag_77:\n        /* \"@openzeppelin/contracts/access/Ownable.sol\":1531:1544  _checkOwner() */\n      tag_233\n        /* \"@openzeppelin/contracts/access/Ownable.sol\":1531:1542  _checkOwner */\n      tag_219\n        /* \"@openzeppelin/contracts/access/Ownable.sol\":1531:1544  _checkOwner() */\n      jump\t// in\n    tag_233:\n        /* \"@openzeppelin/contracts/access/Ownable.sol\":2357:2387  _transferOwnership(address(0)) */\n      tag_235\n        /* \"@openzeppelin/contracts/access/Ownable.sol\":2384:2385  0 */\n      0x00\n        /* \"@openzeppelin/contracts/access/Ownable.sol\":2357:2375  _transferOwnership */\n      tag_236\n        /* \"@openzeppelin/contracts/access/Ownable.sol\":2357:2387  _transferOwnership(address(0)) */\n      jump\t// in\n    tag_235:\n        /* \"@openzeppelin/contracts/access/Ownable.sol\":2293:2394  function renounceOwnership() public virtual onlyOwner {... */\n      jump\t// out\n        /* \"Staking.sol\":506:542  IERC20 public immutable stakingToken */\n    tag_79:\n      immutable(\"0x05f14bbde4435ecbe5273cf423314527515a37e93321dc3a13f762431443ebf5\")\n      dup2\n      jump\t// out\n        /* \"Staking.sol\":1204:1236  uint256 public rewardPoolBalance */\n    tag_83:\n      sload(0x0d)\n      dup2\n      jump\t// out\n        /* \"Staking.sol\":1172:1198  uint256 public totalStaked */\n    tag_86:\n      sload(0x0c)\n      dup2\n      jump\t// out\n        /* \"@openzeppelin/contracts/access/Ownable.sol\":1638:1723  function owner() public view virtual returns (address) {... */\n    tag_89:\n        /* \"@openzeppelin/contracts/access/Ownable.sol\":1684:1691  address */\n      0x00\n        /* \"@openzeppelin/contracts/access/Ownable.sol\":1710:1716  _owner */\n      0x00\n      0x00\n      swap1\n      sload\n      swap1\n      0x0100\n      exp\n      swap1\n      div\n      0xffffffffffffffffffffffffffffffffffffffff\n      and\n        /* \"@openzeppelin/contracts/access/Ownable.sol\":1703:1716  return _owner */\n      swap1\n      pop\n        /* \"@openzeppelin/contracts/access/Ownable.sol\":1638:1723  function owner() public view virtual returns (address) {... */\n      swap1\n      jump\t// out\n        /* \"Staking.sol\":6661:7068  function toggleAutoStake(uint256 stakeIndex) external {... */\n    tag_94:\n        /* \"Staking.sol\":6725:6740  address account */\n      0x00\n        /* \"Staking.sol\":6743:6753  msg.sender */\n      caller\n        /* \"Staking.sol\":6725:6753  address account = msg.sender */\n      swap1\n      pop\n        /* \"Staking.sol\":6784:6790  stakes */\n      0x0a\n        /* \"Staking.sol\":6784:6799  stakes[account] */\n      0x00\n        /* \"Staking.sol\":6791:6798  account */\n      dup3\n        /* \"Staking.sol\":6784:6799  stakes[account] */\n      0xffffffffffffffffffffffffffffffffffffffff\n      and\n      0xffffffffffffffffffffffffffffffffffffffff\n      and\n      dup2\n      mstore\n      0x20\n      add\n      swap1\n      dup2\n      mstore\n      0x20\n      add\n      0x00\n      keccak256\n        /* \"Staking.sol\":6784:6806  stakes[account].length */\n      dup1\n      sload\n      swap1\n      pop\n        /* \"Staking.sol\":6771:6781  stakeIndex */\n      dup3\n        /* \"Staking.sol\":6771:6806  stakeIndex < stakes[account].length */\n      lt\n        /* \"Staking.sol\":6763:6830  require(stakeIndex < stakes[account].length, \"Invalid stake index\") */\n      tag_239\n      jumpi\n      mload(0x40)\n      0x08c379a000000000000000000000000000000000000000000000000000000000\n      dup2\n      mstore\n      0x04\n      add\n      tag_240\n      swap1\n      tag_131\n      jump\t// in\n    tag_240:\n      mload(0x40)\n      dup1\n      swap2\n      sub\n      swap1\n      revert\n    tag_239:\n        /* \"Staking.sol\":6841:6863  StakeInfo storage info */\n      0x00\n        /* \"Staking.sol\":6866:6872  stakes */\n      0x0a\n        /* \"Staking.sol\":6866:6881  stakes[account] */\n      0x00\n        /* \"Staking.sol\":6873:6880  account */\n      dup4\n        /* \"Staking.sol\":6866:6881  stakes[account] */\n      0xffffffffffffffffffffffffffffffffffffffff\n      and\n      0xffffffffffffffffffffffffffffffffffffffff\n      and\n      dup2\n      mstore\n      0x20\n      add\n      swap1\n      dup2\n      mstore\n      0x20\n      add\n      0x00\n      keccak256\n        /* \"Staking.sol\":6882:6892  stakeIndex */\n      dup4\n        /* \"Staking.sol\":6866:6893  stakes[account][stakeIndex] */\n      dup2\n      sload\n      dup2\n      lt\n      tag_241\n      jumpi\n      tag_242\n      tag_134\n      jump\t// in\n    tag_242:\n    tag_241:\n      swap1\n      0x00\n      mstore\n      keccak256(0x00, 0x20)\n      swap1\n      0x05\n      mul\n      add\n        /* \"Staking.sol\":6841:6893  StakeInfo storage info = stakes[account][stakeIndex] */\n      swap1\n      pop\n        /* \"Staking.sol\":6912:6916  info */\n      dup1\n        /* \"Staking.sol\":6912:6924  info.claimed */\n      0x03\n      add\n      0x00\n      swap1\n      sload\n      swap1\n      0x0100\n      exp\n      swap1\n      div\n      0xff\n      and\n        /* \"Staking.sol\":6911:6924  !info.claimed */\n      iszero\n        /* \"Staking.sol\":6903:6944  require(!info.claimed, \"Already claimed\") */\n      tag_244\n      jumpi\n      mload(0x40)\n      0x08c379a000000000000000000000000000000000000000000000000000000000\n      dup2\n      mstore\n      0x04\n      add\n      tag_245\n      swap1\n      tag_138\n      jump\t// in\n    tag_245:\n      mload(0x40)\n      dup1\n      swap2\n      sub\n      swap1\n      revert\n    tag_244:\n        /* \"Staking.sol\":6975:6979  info */\n      dup1\n        /* \"Staking.sol\":6975:6991  info.autoStaking */\n      0x03\n      add\n      0x01\n      swap1\n      sload\n      swap1\n      0x0100\n      exp\n      swap1\n      div\n      0xff\n      and\n        /* \"Staking.sol\":6974:6991  !info.autoStaking */\n      iszero\n        /* \"Staking.sol\":6955:6959  info */\n      dup2\n        /* \"Staking.sol\":6955:6971  info.autoStaking */\n      0x03\n      add\n      0x01\n        /* \"Staking.sol\":6955:6991  info.autoStaking = !info.autoStaking */\n      0x0100\n      exp\n      dup2\n      sload\n      dup2\n      0xff\n      mul\n      not\n      and\n      swap1\n      dup4\n      iszero\n      iszero\n      mul\n      or\n      swap1\n      sstore\n      pop\n        /* \"Staking.sol\":7023:7030  account */\n      dup2\n        /* \"Staking.sol\":7006:7061  AutoStakeToggled(account, stakeIndex, info.autoStaking) */\n      0xffffffffffffffffffffffffffffffffffffffff\n      and\n      0xfa2d7b35e7cc82247c5ae7e8ae2dc078c2b144b76a6b1068887b3c8892c15da5\n        /* \"Staking.sol\":7032:7042  stakeIndex */\n      dup5\n        /* \"Staking.sol\":7044:7048  info */\n      dup4\n        /* \"Staking.sol\":7044:7060  info.autoStaking */\n      0x03\n      add\n      0x01\n      swap1\n      sload\n      swap1\n      0x0100\n      exp\n      swap1\n      div\n      0xff\n      and\n        /* \"Staking.sol\":7006:7061  AutoStakeToggled(account, stakeIndex, info.autoStaking) */\n      mload(0x40)\n      tag_246\n      swap3\n      swap2\n      swap1\n      tag_247\n      jump\t// in\n    tag_246:\n      mload(0x40)\n      dup1\n      swap2\n      sub\n      swap1\n      log2\n        /* \"Staking.sol\":6715:7068  {... */\n      pop\n      pop\n        /* \"Staking.sol\":6661:7068  function toggleAutoStake(uint256 stakeIndex) external {... */\n      pop\n      jump\t// out\n        /* \"Staking.sol\":5008:6160  function claimReward(uint256 stakeIndex) external nonReentrant onlyEOA {... */\n    tag_97:\n        /* \"@openzeppelin/contracts/security/ReentrancyGuard.sol\":2261:2282  _nonReentrantBefore() */\n      tag_249\n        /* \"@openzeppelin/contracts/security/ReentrancyGuard.sol\":2261:2280  _nonReentrantBefore */\n      tag_159\n        /* \"@openzeppelin/contracts/security/ReentrancyGuard.sol\":2261:2282  _nonReentrantBefore() */\n      jump\t// in\n    tag_249:\n        /* \"Staking.sol\":2027:2037  msg.sender */\n      caller\n        /* \"Staking.sol\":2014:2037  tx.origin == msg.sender */\n      0xffffffffffffffffffffffffffffffffffffffff\n      and\n        /* \"Staking.sol\":2014:2023  tx.origin */\n      origin\n        /* \"Staking.sol\":2014:2037  tx.origin == msg.sender */\n      0xffffffffffffffffffffffffffffffffffffffff\n      and\n      eq\n        /* \"Staking.sol\":2006:2060  require(tx.origin == msg.sender, \"Caller must be EOA\") */\n      tag_251\n      jumpi\n      mload(0x40)\n      0x08c379a000000000000000000000000000000000000000000000000000000000\n      dup2\n      mstore\n      0x04\n      add\n      tag_252\n      swap1\n      tag_163\n      jump\t// in\n    tag_252:\n      mload(0x40)\n      dup1\n      swap2\n      sub\n      swap1\n      revert\n    tag_251:\n        /* \"Staking.sol\":5089:5104  address account */\n      0x00\n        /* \"Staking.sol\":5107:5117  msg.sender */\n      caller\n        /* \"Staking.sol\":5089:5117  address account = msg.sender */\n      swap1\n      pop\n        /* \"Staking.sol\":5148:5154  stakes */\n      0x0a\n        /* \"Staking.sol\":5148:5163  stakes[account] */\n      0x00\n        /* \"Staking.sol\":5155:5162  account */\n      dup3\n        /* \"Staking.sol\":5148:5163  stakes[account] */\n      0xffffffffffffffffffffffffffffffffffffffff\n      and\n      0xffffffffffffffffffffffffffffffffffffffff\n      and\n      dup2\n      mstore\n      0x20\n      add\n      swap1\n      dup2\n      mstore\n      0x20\n      add\n      0x00\n      keccak256\n        /* \"Staking.sol\":5148:5170  stakes[account].length */\n      dup1\n      sload\n      swap1\n      pop\n        /* \"Staking.sol\":5135:5145  stakeIndex */\n      dup3\n        /* \"Staking.sol\":5135:5170  stakeIndex < stakes[account].length */\n      lt\n        /* \"Staking.sol\":5127:5194  require(stakeIndex < stakes[account].length, \"Invalid stake index\") */\n      tag_254\n      jumpi\n      mload(0x40)\n      0x08c379a000000000000000000000000000000000000000000000000000000000\n      dup2\n      mstore\n      0x04\n      add\n      tag_255\n      swap1\n      tag_131\n      jump\t// in\n    tag_255:\n      mload(0x40)\n      dup1\n      swap2\n      sub\n      swap1\n      revert\n    tag_254:\n        /* \"Staking.sol\":5205:5227  StakeInfo storage info */\n      0x00\n        /* \"Staking.sol\":5230:5236  stakes */\n      0x0a\n        /* \"Staking.sol\":5230:5245  stakes[account] */\n      0x00\n        /* \"Staking.sol\":5237:5244  account */\n      dup4\n        /* \"Staking.sol\":5230:5245  stakes[account] */\n      0xffffffffffffffffffffffffffffffffffffffff\n      and\n      0xffffffffffffffffffffffffffffffffffffffff\n      and\n      dup2\n      mstore\n      0x20\n      add\n      swap1\n      dup2\n      mstore\n      0x20\n      add\n      0x00\n      keccak256\n        /* \"Staking.sol\":5246:5256  stakeIndex */\n      dup4\n        /* \"Staking.sol\":5230:5257  stakes[account][stakeIndex] */\n      dup2\n      sload\n      dup2\n      lt\n      tag_256\n      jumpi\n      tag_257\n      tag_134\n      jump\t// in\n    tag_257:\n    tag_256:\n      swap1\n      0x00\n      mstore\n      keccak256(0x00, 0x20)\n      swap1\n      0x05\n      mul\n      add\n        /* \"Staking.sol\":5205:5257  StakeInfo storage info = stakes[account][stakeIndex] */\n      swap1\n      pop\n        /* \"Staking.sol\":5276:5280  info */\n      dup1\n        /* \"Staking.sol\":5276:5288  info.claimed */\n      0x03\n      add\n      0x00\n      swap1\n      sload\n      swap1\n      0x0100\n      exp\n      swap1\n      div\n      0xff\n      and\n        /* \"Staking.sol\":5275:5288  !info.claimed */\n      iszero\n        /* \"Staking.sol\":5267:5308  require(!info.claimed, \"Already claimed\") */\n      tag_259\n      jumpi\n      mload(0x40)\n      0x08c379a000000000000000000000000000000000000000000000000000000000\n      dup2\n      mstore\n      0x04\n      add\n      tag_260\n      swap1\n      tag_138\n      jump\t// in\n    tag_260:\n      mload(0x40)\n      dup1\n      swap2\n      sub\n      swap1\n      revert\n    tag_259:\n        /* \"Staking.sol\":5345:5349  info */\n      dup1\n        /* \"Staking.sol\":5345:5360  info.unlockTime */\n      0x02\n      add\n      sload\n        /* \"Staking.sol\":5326:5341  block.timestamp */\n      timestamp\n        /* \"Staking.sol\":5326:5360  block.timestamp >= info.unlockTime */\n      lt\n      iszero\n        /* \"Staking.sol\":5318:5377  require(block.timestamp >= info.unlockTime, \"Still locked\") */\n      tag_261\n      jumpi\n      mload(0x40)\n      0x08c379a000000000000000000000000000000000000000000000000000000000\n      dup2\n      mstore\n      0x04\n      add\n      tag_262\n      swap1\n      tag_177\n      jump\t// in\n    tag_262:\n      mload(0x40)\n      dup1\n      swap2\n      sub\n      swap1\n      revert\n    tag_261:\n        /* \"Staking.sol\":5388:5402  uint256 reward */\n      0x00\n        /* \"Staking.sol\":5405:5441  calculateReward(account, stakeIndex) */\n      tag_263\n        /* \"Staking.sol\":5421:5428  account */\n      dup4\n        /* \"Staking.sol\":5430:5440  stakeIndex */\n      dup6\n        /* \"Staking.sol\":5405:5420  calculateReward */\n      tag_46\n        /* \"Staking.sol\":5405:5441  calculateReward(account, stakeIndex) */\n      jump\t// in\n    tag_263:\n        /* \"Staking.sol\":5388:5441  uint256 reward = calculateReward(account, stakeIndex) */\n      swap1\n      pop\n        /* \"Staking.sol\":5480:5486  reward */\n      dup1\n        /* \"Staking.sol\":5459:5476  rewardPoolBalance */\n      sload(0x0d)\n        /* \"Staking.sol\":5459:5486  rewardPoolBalance >= reward */\n      lt\n      iszero\n        /* \"Staking.sol\":5451:5515  require(rewardPoolBalance >= reward, \"Insufficient reward pool\") */\n      tag_264\n      jumpi\n      mload(0x40)\n      0x08c379a000000000000000000000000000000000000000000000000000000000\n      dup2\n      mstore\n      0x04\n      add\n      tag_265\n      swap1\n      tag_181\n      jump\t// in\n    tag_265:\n      mload(0x40)\n      dup1\n      swap2\n      sub\n      swap1\n      revert\n    tag_264:\n        /* \"Staking.sol\":5541:5545  true */\n      0x01\n        /* \"Staking.sol\":5526:5530  info */\n      dup3\n        /* \"Staking.sol\":5526:5538  info.claimed */\n      0x03\n      add\n      0x00\n        /* \"Staking.sol\":5526:5545  info.claimed = true */\n      0x0100\n      exp\n      dup2\n      sload\n      dup2\n      0xff\n      mul\n      not\n      and\n      swap1\n      dup4\n      iszero\n      iszero\n      mul\n      or\n      swap1\n      sstore\n      pop\n        /* \"Staking.sol\":5560:5564  info */\n      dup2\n        /* \"Staking.sol\":5560:5576  info.autoStaking */\n      0x03\n      add\n      0x01\n      swap1\n      sload\n      swap1\n      0x0100\n      exp\n      swap1\n      div\n      0xff\n      and\n        /* \"Staking.sol\":5560:5605  info.autoStaking && info.compoundedAmount > 0 */\n      dup1\n      iszero\n      tag_266\n      jumpi\n      pop\n        /* \"Staking.sol\":5604:5605  0 */\n      0x00\n        /* \"Staking.sol\":5580:5584  info */\n      dup3\n        /* \"Staking.sol\":5580:5601  info.compoundedAmount */\n      0x04\n      add\n      sload\n        /* \"Staking.sol\":5580:5605  info.compoundedAmount > 0 */\n      gt\n        /* \"Staking.sol\":5560:5605  info.autoStaking && info.compoundedAmount > 0 */\n    tag_266:\n        /* \"Staking.sol\":5556:6102  if (info.autoStaking && info.compoundedAmount > 0) {... */\n      iszero\n      tag_267\n      jumpi\n        /* \"Staking.sol\":5621:5644  uint256 totalToTransfer */\n      0x00\n        /* \"Staking.sol\":5671:5677  reward */\n      dup2\n        /* \"Staking.sol\":5647:5651  info */\n      dup4\n        /* \"Staking.sol\":5647:5668  info.compoundedAmount */\n      0x04\n      add\n      sload\n        /* \"Staking.sol\":5647:5677  info.compoundedAmount + reward */\n      tag_268\n      swap2\n      swap1\n      tag_150\n      jump\t// in\n    tag_268:\n        /* \"Staking.sol\":5621:5677  uint256 totalToTransfer = info.compoundedAmount + reward */\n      swap1\n      pop\n        /* \"Staking.sol\":5691:5702  uint256 fee */\n      0x00\n        /* \"Staking.sol\":5745:5750  10000 */\n      0x2710\n        /* \"Staking.sol\":681:683  50 */\n      0x32\n        /* \"Staking.sol\":5706:5721  totalToTransfer */\n      dup4\n        /* \"Staking.sol\":5706:5741  totalToTransfer * AUTO_COMPOUND_FEE */\n      tag_269\n      swap2\n      swap1\n      tag_152\n      jump\t// in\n    tag_269:\n        /* \"Staking.sol\":5705:5750  (totalToTransfer * AUTO_COMPOUND_FEE) / 10000 */\n      tag_270\n      swap2\n      swap1\n      tag_156\n      jump\t// in\n    tag_270:\n        /* \"Staking.sol\":5691:5750  uint256 fee = (totalToTransfer * AUTO_COMPOUND_FEE) / 10000 */\n      swap1\n      pop\n        /* \"Staking.sol\":5764:5782  uint256 userAmount */\n      0x00\n        /* \"Staking.sol\":5803:5806  fee */\n      dup2\n        /* \"Staking.sol\":5785:5800  totalToTransfer */\n      dup4\n        /* \"Staking.sol\":5785:5806  totalToTransfer - fee */\n      tag_271\n      swap2\n      swap1\n      tag_142\n      jump\t// in\n    tag_271:\n        /* \"Staking.sol\":5764:5806  uint256 userAmount = totalToTransfer - fee */\n      swap1\n      pop\n        /* \"Staking.sol\":5858:5868  userAmount */\n      dup1\n        /* \"Staking.sol\":5821:5845  pendingRewardWithdrawals */\n      0x0b\n        /* \"Staking.sol\":5821:5854  pendingRewardWithdrawals[account] */\n      0x00\n        /* \"Staking.sol\":5846:5853  account */\n      dup9\n        /* \"Staking.sol\":5821:5854  pendingRewardWithdrawals[account] */\n      0xffffffffffffffffffffffffffffffffffffffff\n      and\n      0xffffffffffffffffffffffffffffffffffffffff\n      and\n      dup2\n      mstore\n      0x20\n      add\n      swap1\n      dup2\n      mstore\n      0x20\n      add\n      0x00\n      keccak256\n      0x00\n        /* \"Staking.sol\":5821:5868  pendingRewardWithdrawals[account] += userAmount */\n      dup3\n      dup3\n      sload\n      tag_272\n      swap2\n      swap1\n      tag_150\n      jump\t// in\n    tag_272:\n      swap3\n      pop\n      pop\n      dup2\n      swap1\n      sstore\n      pop\n        /* \"Staking.sol\":5923:5926  fee */\n      dup2\n        /* \"Staking.sol\":5882:5906  pendingRewardWithdrawals */\n      0x0b\n        /* \"Staking.sol\":5882:5919  pendingRewardWithdrawals[feeReceiver] */\n      0x00\n        /* \"Staking.sol\":5907:5918  feeReceiver */\n      0x03\n      0x00\n      swap1\n      sload\n      swap1\n      0x0100\n      exp\n      swap1\n      div\n      0xffffffffffffffffffffffffffffffffffffffff\n      and\n        /* \"Staking.sol\":5882:5919  pendingRewardWithdrawals[feeReceiver] */\n      0xffffffffffffffffffffffffffffffffffffffff\n      and\n      0xffffffffffffffffffffffffffffffffffffffff\n      and\n      dup2\n      mstore\n      0x20\n      add\n      swap1\n      dup2\n      mstore\n      0x20\n      add\n      0x00\n      keccak256\n      0x00\n        /* \"Staking.sol\":5882:5926  pendingRewardWithdrawals[feeReceiver] += fee */\n      dup3\n      dup3\n      sload\n      tag_273\n      swap2\n      swap1\n      tag_150\n      jump\t// in\n    tag_273:\n      swap3\n      pop\n      pop\n      dup2\n      swap1\n      sstore\n      pop\n        /* \"Staking.sol\":5961:5976  totalToTransfer */\n      dup3\n        /* \"Staking.sol\":5940:5957  rewardPoolBalance */\n      0x0d\n      0x00\n        /* \"Staking.sol\":5940:5976  rewardPoolBalance -= totalToTransfer */\n      dup3\n      dup3\n      sload\n      tag_274\n      swap2\n      swap1\n      tag_142\n      jump\t// in\n    tag_274:\n      swap3\n      pop\n      pop\n      dup2\n      swap1\n      sstore\n      pop\n        /* \"Staking.sol\":5607:5987  {... */\n      pop\n      pop\n      pop\n        /* \"Staking.sol\":5556:6102  if (info.autoStaking && info.compoundedAmount > 0) {... */\n      jump(tag_275)\n    tag_267:\n        /* \"Staking.sol\":6044:6050  reward */\n      dup1\n        /* \"Staking.sol\":6007:6031  pendingRewardWithdrawals */\n      0x0b\n        /* \"Staking.sol\":6007:6040  pendingRewardWithdrawals[account] */\n      0x00\n        /* \"Staking.sol\":6032:6039  account */\n      dup6\n        /* \"Staking.sol\":6007:6040  pendingRewardWithdrawals[account] */\n      0xffffffffffffffffffffffffffffffffffffffff\n      and\n      0xffffffffffffffffffffffffffffffffffffffff\n      and\n      dup2\n      mstore\n      0x20\n      add\n      swap1\n      dup2\n      mstore\n      0x20\n      add\n      0x00\n      keccak256\n      0x00\n        /* \"Staking.sol\":6007:6050  pendingRewardWithdrawals[account] += reward */\n      dup3\n      dup3\n      sload\n      tag_276\n      swap2\n      swap1\n      tag_150\n      jump\t// in\n    tag_276:\n      swap3\n      pop\n      pop\n      dup2\n      swap1\n      sstore\n      pop\n        /* \"Staking.sol\":6085:6091  reward */\n      dup1\n        /* \"Staking.sol\":6064:6081  rewardPoolBalance */\n      0x0d\n      0x00\n        /* \"Staking.sol\":6064:6091  rewardPoolBalance -= reward */\n      dup3\n      dup3\n      sload\n      tag_277\n      swap2\n      swap1\n      tag_142\n      jump\t// in\n    tag_277:\n      swap3\n      pop\n      pop\n      dup2\n      swap1\n      sstore\n      pop\n        /* \"Staking.sol\":5556:6102  if (info.autoStaking && info.compoundedAmount > 0) {... */\n    tag_275:\n        /* \"Staking.sol\":6125:6132  account */\n      dup3\n        /* \"Staking.sol\":6117:6153  Claimed(account, reward, stakeIndex) */\n      0xffffffffffffffffffffffffffffffffffffffff\n      and\n      0x987d620f307ff6b94d58743cb7a7509f24071586a77759b77c2d4e29f75a2f9a\n        /* \"Staking.sol\":6134:6140  reward */\n      dup3\n        /* \"Staking.sol\":6142:6152  stakeIndex */\n      dup7\n        /* \"Staking.sol\":6117:6153  Claimed(account, reward, stakeIndex) */\n      mload(0x40)\n      tag_278\n      swap3\n      swap2\n      swap1\n      tag_187\n      jump\t// in\n    tag_278:\n      mload(0x40)\n      dup1\n      swap2\n      sub\n      swap1\n      log2\n        /* \"Staking.sol\":5079:6160  {... */\n      pop\n      pop\n      pop\n        /* \"@openzeppelin/contracts/security/ReentrancyGuard.sol\":2303:2323  _nonReentrantAfter() */\n      tag_279\n        /* \"@openzeppelin/contracts/security/ReentrancyGuard.sol\":2303:2321  _nonReentrantAfter */\n      tag_189\n        /* \"@openzeppelin/contracts/security/ReentrancyGuard.sol\":2303:2323  _nonReentrantAfter() */\n      jump\t// in\n    tag_279:\n        /* \"Staking.sol\":5008:6160  function claimReward(uint256 stakeIndex) external nonReentrant onlyEOA {... */\n      pop\n      jump\t// out\n        /* \"Staking.sol\":697:723  address public feeReceiver */\n    tag_99:\n      0x03\n      0x00\n      swap1\n      sload\n      swap1\n      0x0100\n      exp\n      swap1\n      div\n      0xffffffffffffffffffffffffffffffffffffffff\n      and\n      dup2\n      jump\t// out\n        /* \"Staking.sol\":8140:8407  function addRewardPoolFunds(uint256 amount) external onlyOwner {... */\n    tag_103:\n        /* \"@openzeppelin/contracts/access/Ownable.sol\":1531:1544  _checkOwner() */\n      tag_281\n        /* \"@openzeppelin/contracts/access/Ownable.sol\":1531:1542  _checkOwner */\n      tag_219\n        /* \"@openzeppelin/contracts/access/Ownable.sol\":1531:1544  _checkOwner() */\n      jump\t// in\n    tag_281:\n        /* \"Staking.sol\":8230:8231  0 */\n      0x00\n        /* \"Staking.sol\":8221:8227  amount */\n      dup2\n        /* \"Staking.sol\":8221:8231  amount > 0 */\n      gt\n        /* \"Staking.sol\":8213:8247  require(amount > 0, \"Zero amount\") */\n      tag_283\n      jumpi\n      mload(0x40)\n      0x08c379a000000000000000000000000000000000000000000000000000000000\n      dup2\n      mstore\n      0x04\n      add\n      tag_284\n      swap1\n      tag_203\n      jump\t// in\n    tag_284:\n      mload(0x40)\n      dup1\n      swap2\n      sub\n      swap1\n      revert\n    tag_283:\n        /* \"Staking.sol\":8257:8320  rewardToken.safeTransferFrom(msg.sender, address(this), amount) */\n      tag_285\n        /* \"Staking.sol\":8286:8296  msg.sender */\n      caller\n        /* \"Staking.sol\":8306:8310  this */\n      address\n        /* \"Staking.sol\":8313:8319  amount */\n      dup4\n        /* \"Staking.sol\":8257:8268  rewardToken */\n      0x02\n      0x00\n      swap1\n      sload\n      swap1\n      0x0100\n      exp\n      swap1\n      div\n      0xffffffffffffffffffffffffffffffffffffffff\n      and\n        /* \"Staking.sol\":8257:8285  rewardToken.safeTransferFrom */\n      0xffffffffffffffffffffffffffffffffffffffff\n      and\n      tag_205\n      swap1\n        /* \"Staking.sol\":8257:8320  rewardToken.safeTransferFrom(msg.sender, address(this), amount) */\n      swap4\n      swap3\n      swap2\n      swap1\n      0xffffffff\n      and\n      jump\t// in\n    tag_285:\n        /* \"Staking.sol\":8351:8357  amount */\n      dup1\n        /* \"Staking.sol\":8330:8347  rewardPoolBalance */\n      0x0d\n      0x00\n        /* \"Staking.sol\":8330:8357  rewardPoolBalance += amount */\n      dup3\n      dup3\n      sload\n      tag_286\n      swap2\n      swap1\n      tag_150\n      jump\t// in\n    tag_286:\n      swap3\n      pop\n      pop\n      dup2\n      swap1\n      sstore\n      pop\n        /* \"Staking.sol\":8372:8400  RewardPoolFundsAdded(amount) */\n      0x21d99275a51df78f567d33e4b0c6ea547b7675bce0eab2ccca69e131bf047abe\n        /* \"Staking.sol\":8393:8399  amount */\n      dup2\n        /* \"Staking.sol\":8372:8400  RewardPoolFundsAdded(amount) */\n      mload(0x40)\n      tag_287\n      swap2\n      swap1\n      tag_37\n      jump\t// in\n    tag_287:\n      mload(0x40)\n      dup1\n      swap2\n      sub\n      swap1\n      log1\n        /* \"Staking.sol\":8140:8407  function addRewardPoolFunds(uint256 amount) external onlyOwner {... */\n      pop\n      jump\t// out\n        /* \"Staking.sol\":9343:9578  function updateFeeReceiver(address newFeeReceiver) external onlyOwner {... */\n    tag_106:\n        /* \"@openzeppelin/contracts/access/Ownable.sol\":1531:1544  _checkOwner() */\n      tag_289\n        /* \"@openzeppelin/contracts/access/Ownable.sol\":1531:1542  _checkOwner */\n      tag_219\n        /* \"@openzeppelin/contracts/access/Ownable.sol\":1531:1544  _checkOwner() */\n      jump\t// in\n    tag_289:\n        /* \"Staking.sol\":9457:9458  0 */\n      0x00\n        /* \"Staking.sol\":9431:9459  newFeeReceiver != address(0) */\n      0xffffffffffffffffffffffffffffffffffffffff\n      and\n        /* \"Staking.sol\":9431:9445  newFeeReceiver */\n      dup2\n        /* \"Staking.sol\":9431:9459  newFeeReceiver != address(0) */\n      0xffffffffffffffffffffffffffffffffffffffff\n      and\n      sub\n        /* \"Staking.sol\":9423:9484  require(newFeeReceiver != address(0), \"Invalid fee receiver\") */\n      tag_291\n      jumpi\n      mload(0x40)\n      0x08c379a000000000000000000000000000000000000000000000000000000000\n      dup2\n      mstore\n      0x04\n      add\n      tag_292\n      swap1\n      tag_293\n      jump\t// in\n    tag_292:\n      mload(0x40)\n      dup1\n      swap2\n      sub\n      swap1\n      revert\n    tag_291:\n        /* \"Staking.sol\":9508:9522  newFeeReceiver */\n      dup1\n        /* \"Staking.sol\":9494:9505  feeReceiver */\n      0x03\n      0x00\n        /* \"Staking.sol\":9494:9522  feeReceiver = newFeeReceiver */\n      0x0100\n      exp\n      dup2\n      sload\n      dup2\n      0xffffffffffffffffffffffffffffffffffffffff\n      mul\n      not\n      and\n      swap1\n      dup4\n      0xffffffffffffffffffffffffffffffffffffffff\n      and\n      mul\n      or\n      swap1\n      sstore\n      pop\n        /* \"Staking.sol\":9556:9570  newFeeReceiver */\n      dup1\n        /* \"Staking.sol\":9537:9571  FeeReceiverUpdated(newFeeReceiver) */\n      0xffffffffffffffffffffffffffffffffffffffff\n      and\n      0x27aae5db36d94179909d019ae0b1ac7c16d96d953148f63c0f6a0a9c8ead79ee\n      mload(0x40)\n      mload(0x40)\n      dup1\n      swap2\n      sub\n      swap1\n      log2\n        /* \"Staking.sol\":9343:9578  function updateFeeReceiver(address newFeeReceiver) external onlyOwner {... */\n      pop\n      jump\t// out\n        /* \"Staking.sol\":6222:6552  function withdrawRewards() external nonReentrant {... */\n    tag_108:\n        /* \"@openzeppelin/contracts/security/ReentrancyGuard.sol\":2261:2282  _nonReentrantBefore() */\n      tag_295\n        /* \"@openzeppelin/contracts/security/ReentrancyGuard.sol\":2261:2280  _nonReentrantBefore */\n      tag_159\n        /* \"@openzeppelin/contracts/security/ReentrancyGuard.sol\":2261:2282  _nonReentrantBefore() */\n      jump\t// in\n    tag_295:\n        /* \"Staking.sol\":6281:6295  uint256 amount */\n      0x00\n        /* \"Staking.sol\":6298:6322  pendingRewardWithdrawals */\n      0x0b\n        /* \"Staking.sol\":6298:6334  pendingRewardWithdrawals[msg.sender] */\n      0x00\n        /* \"Staking.sol\":6323:6333  msg.sender */\n      caller\n        /* \"Staking.sol\":6298:6334  pendingRewardWithdrawals[msg.sender] */\n      0xffffffffffffffffffffffffffffffffffffffff\n      and\n      0xffffffffffffffffffffffffffffffffffffffff\n      and\n      dup2\n      mstore\n      0x20\n      add\n      swap1\n      dup2\n      mstore\n      0x20\n      add\n      0x00\n      keccak256\n      sload\n        /* \"Staking.sol\":6281:6334  uint256 amount = pendingRewardWithdrawals[msg.sender] */\n      swap1\n      pop\n        /* \"Staking.sol\":6361:6362  0 */\n      0x00\n        /* \"Staking.sol\":6352:6358  amount */\n      dup2\n        /* \"Staking.sol\":6352:6362  amount > 0 */\n      gt\n        /* \"Staking.sol\":6344:6389  require(amount > 0, \"No rewards to withdraw\") */\n      tag_297\n      jumpi\n      mload(0x40)\n      0x08c379a000000000000000000000000000000000000000000000000000000000\n      dup2\n      mstore\n      0x04\n      add\n      tag_298\n      swap1\n      tag_299\n      jump\t// in\n    tag_298:\n      mload(0x40)\n      dup1\n      swap2\n      sub\n      swap1\n      revert\n    tag_297:\n        /* \"Staking.sol\":6439:6440  0 */\n      0x00\n        /* \"Staking.sol\":6400:6424  pendingRewardWithdrawals */\n      0x0b\n        /* \"Staking.sol\":6400:6436  pendingRewardWithdrawals[msg.sender] */\n      0x00\n        /* \"Staking.sol\":6425:6435  msg.sender */\n      caller\n        /* \"Staking.sol\":6400:6436  pendingRewardWithdrawals[msg.sender] */\n      0xffffffffffffffffffffffffffffffffffffffff\n      and\n      0xffffffffffffffffffffffffffffffffffffffff\n      and\n      dup2\n      mstore\n      0x20\n      add\n      swap1\n      dup2\n      mstore\n      0x20\n      add\n      0x00\n      keccak256\n        /* \"Staking.sol\":6400:6440  pendingRewardWithdrawals[msg.sender] = 0 */\n      dup2\n      swap1\n      sstore\n      pop\n        /* \"Staking.sol\":6450:6494  rewardToken.safeTransfer(msg.sender, amount) */\n      tag_300\n        /* \"Staking.sol\":6475:6485  msg.sender */\n      caller\n        /* \"Staking.sol\":6487:6493  amount */\n      dup3\n        /* \"Staking.sol\":6450:6461  rewardToken */\n      0x02\n      0x00\n      swap1\n      sload\n      swap1\n      0x0100\n      exp\n      swap1\n      div\n      0xffffffffffffffffffffffffffffffffffffffff\n      and\n        /* \"Staking.sol\":6450:6474  rewardToken.safeTransfer */\n      0xffffffffffffffffffffffffffffffffffffffff\n      and\n      tag_301\n      swap1\n        /* \"Staking.sol\":6450:6494  rewardToken.safeTransfer(msg.sender, amount) */\n      swap3\n      swap2\n      swap1\n      0xffffffff\n      and\n      jump\t// in\n    tag_300:\n        /* \"Staking.sol\":6526:6536  msg.sender */\n      caller\n        /* \"Staking.sol\":6509:6545  WithdrawnRewards(msg.sender, amount) */\n      0xffffffffffffffffffffffffffffffffffffffff\n      and\n      0xbd1ea9966f82ccb966523d3922a6e4ad4bf3ea70e9201bd7a106de847cc5e616\n        /* \"Staking.sol\":6538:6544  amount */\n      dup3\n        /* \"Staking.sol\":6509:6545  WithdrawnRewards(msg.sender, amount) */\n      mload(0x40)\n      tag_302\n      swap2\n      swap1\n      tag_37\n      jump\t// in\n    tag_302:\n      mload(0x40)\n      dup1\n      swap2\n      sub\n      swap1\n      log2\n        /* \"Staking.sol\":6271:6552  {... */\n      pop\n        /* \"@openzeppelin/contracts/security/ReentrancyGuard.sol\":2303:2323  _nonReentrantAfter() */\n      tag_303\n        /* \"@openzeppelin/contracts/security/ReentrancyGuard.sol\":2303:2321  _nonReentrantAfter */\n      tag_189\n        /* \"@openzeppelin/contracts/security/ReentrancyGuard.sol\":2303:2323  _nonReentrantAfter() */\n      jump\t// in\n    tag_303:\n        /* \"Staking.sol\":6222:6552  function withdrawRewards() external nonReentrant {... */\n      jump\t// out\n        /* \"Staking.sol\":580:631  uint256 public constant SECONDS_PER_YEAR = 365 days */\n    tag_110:\n        /* \"Staking.sol\":623:631  365 days */\n      0x01e13380\n        /* \"Staking.sol\":580:631  uint256 public constant SECONDS_PER_YEAR = 365 days */\n      dup2\n      jump\t// out\n        /* \"@openzeppelin/contracts/access/Ownable.sol\":2543:2758  function transferOwnership(address newOwner) public virtual onlyOwner {... */\n    tag_114:\n        /* \"@openzeppelin/contracts/access/Ownable.sol\":1531:1544  _checkOwner() */\n      tag_305\n        /* \"@openzeppelin/contracts/access/Ownable.sol\":1531:1542  _checkOwner */\n      tag_219\n        /* \"@openzeppelin/contracts/access/Ownable.sol\":1531:1544  _checkOwner() */\n      jump\t// in\n    tag_305:\n        /* \"@openzeppelin/contracts/access/Ownable.sol\":2647:2648  0 */\n      0x00\n        /* \"@openzeppelin/contracts/access/Ownable.sol\":2627:2649  newOwner == address(0) */\n      0xffffffffffffffffffffffffffffffffffffffff\n      and\n        /* \"@openzeppelin/contracts/access/Ownable.sol\":2627:2635  newOwner */\n      dup2\n        /* \"@openzeppelin/contracts/access/Ownable.sol\":2627:2649  newOwner == address(0) */\n      0xffffffffffffffffffffffffffffffffffffffff\n      and\n      sub\n        /* \"@openzeppelin/contracts/access/Ownable.sol\":2623:2714  if (newOwner == address(0)) {... */\n      tag_307\n      jumpi\n        /* \"@openzeppelin/contracts/access/Ownable.sol\":2700:2701  0 */\n      0x00\n        /* \"@openzeppelin/contracts/access/Ownable.sol\":2672:2703  OwnableInvalidOwner(address(0)) */\n      mload(0x40)\n      0x1e4fbdf700000000000000000000000000000000000000000000000000000000\n      dup2\n      mstore\n      0x04\n      add\n      tag_308\n      swap2\n      swap1\n      tag_91\n      jump\t// in\n    tag_308:\n      mload(0x40)\n      dup1\n      swap2\n      sub\n      swap1\n      revert\n        /* \"@openzeppelin/contracts/access/Ownable.sol\":2623:2714  if (newOwner == address(0)) {... */\n    tag_307:\n        /* \"@openzeppelin/contracts/access/Ownable.sol\":2723:2751  _transferOwnership(newOwner) */\n      tag_309\n        /* \"@openzeppelin/contracts/access/Ownable.sol\":2742:2750  newOwner */\n      dup2\n        /* \"@openzeppelin/contracts/access/Ownable.sol\":2723:2741  _transferOwnership */\n      tag_236\n        /* \"@openzeppelin/contracts/access/Ownable.sol\":2723:2751  _transferOwnership(newOwner) */\n      jump\t// in\n    tag_309:\n        /* \"@openzeppelin/contracts/access/Ownable.sol\":2543:2758  function transferOwnership(address newOwner) public virtual onlyOwner {... */\n      pop\n      jump\t// out\n        /* \"Staking.sol\":548:573  IERC20 public rewardToken */\n    tag_116:\n      0x02\n      0x00\n      swap1\n      sload\n      swap1\n      0x0100\n      exp\n      swap1\n      div\n      0xffffffffffffffffffffffffffffffffffffffff\n      and\n      dup2\n      jump\t// out\n        /* \"Staking.sol\":8981:9224  function updateRewardToken(address newRewardToken) external onlyOwner {... */\n    tag_120:\n        /* \"@openzeppelin/contracts/access/Ownable.sol\":1531:1544  _checkOwner() */\n      tag_311\n        /* \"@openzeppelin/contracts/access/Ownable.sol\":1531:1542  _checkOwner */\n      tag_219\n        /* \"@openzeppelin/contracts/access/Ownable.sol\":1531:1544  _checkOwner() */\n      jump\t// in\n    tag_311:\n        /* \"Staking.sol\":9095:9096  0 */\n      0x00\n        /* \"Staking.sol\":9069:9097  newRewardToken != address(0) */\n      0xffffffffffffffffffffffffffffffffffffffff\n      and\n        /* \"Staking.sol\":9069:9083  newRewardToken */\n      dup2\n        /* \"Staking.sol\":9069:9097  newRewardToken != address(0) */\n      0xffffffffffffffffffffffffffffffffffffffff\n      and\n      sub\n        /* \"Staking.sol\":9061:9122  require(newRewardToken != address(0), \"Invalid reward token\") */\n      tag_313\n      jumpi\n      mload(0x40)\n      0x08c379a000000000000000000000000000000000000000000000000000000000\n      dup2\n      mstore\n      0x04\n      add\n      tag_314\n      swap1\n      tag_315\n      jump\t// in\n    tag_314:\n      mload(0x40)\n      dup1\n      swap2\n      sub\n      swap1\n      revert\n    tag_313:\n        /* \"Staking.sol\":9153:9167  newRewardToken */\n      dup1\n        /* \"Staking.sol\":9132:9143  rewardToken */\n      0x02\n      0x00\n        /* \"Staking.sol\":9132:9168  rewardToken = IERC20(newRewardToken) */\n      0x0100\n      exp\n      dup2\n      sload\n      dup2\n      0xffffffffffffffffffffffffffffffffffffffff\n      mul\n      not\n      and\n      swap1\n      dup4\n      0xffffffffffffffffffffffffffffffffffffffff\n      and\n      mul\n      or\n      swap1\n      sstore\n      pop\n        /* \"Staking.sol\":9202:9216  newRewardToken */\n      dup1\n        /* \"Staking.sol\":9183:9217  RewardTokenUpdated(newRewardToken) */\n      0xffffffffffffffffffffffffffffffffffffffff\n      and\n      0xa5289ba11778999f4dfb9415023783188d42bbb5db0612cbfbe55999069612a0\n      mload(0x40)\n      mload(0x40)\n      dup1\n      swap2\n      sub\n      swap1\n      log2\n        /* \"Staking.sol\":8981:9224  function updateRewardToken(address newRewardToken) external onlyOwner {... */\n      pop\n      jump\t// out\n        /* \"Staking.sol\":4618:4897  function getPeriodIndex(uint256 duration) internal view returns (uint256) {... */\n    tag_145:\n        /* \"Staking.sol\":4683:4690  uint256 */\n      0x00\n        /* \"Staking.sol\":4707:4716  uint256 i */\n      0x00\n        /* \"Staking.sol\":4719:4720  0 */\n      0x00\n        /* \"Staking.sol\":4707:4720  uint256 i = 0 */\n      swap1\n      pop\n        /* \"Staking.sol\":4702:4848  for (uint256 i = 0; i < lockPeriods.length; i++) {... */\n    tag_317:\n        /* \"Staking.sol\":4726:4744  lockPeriods.length */\n      0x03\n        /* \"Staking.sol\":4722:4723  i */\n      dup2\n        /* \"Staking.sol\":4722:4744  i < lockPeriods.length */\n      lt\n        /* \"Staking.sol\":4702:4848  for (uint256 i = 0; i < lockPeriods.length; i++) {... */\n      iszero\n      tag_318\n      jumpi\n        /* \"Staking.sol\":4781:4792  lockPeriods */\n      0x04\n        /* \"Staking.sol\":4793:4794  i */\n      dup2\n        /* \"Staking.sol\":4781:4795  lockPeriods[i] */\n      0x03\n      dup2\n      lt\n      tag_320\n      jumpi\n      tag_321\n      tag_134\n      jump\t// in\n    tag_321:\n    tag_320:\n      add\n      sload\n        /* \"Staking.sol\":4769:4777  duration */\n      dup4\n        /* \"Staking.sol\":4769:4795  duration == lockPeriods[i] */\n      sub\n        /* \"Staking.sol\":4765:4838  if (duration == lockPeriods[i]) {... */\n      tag_323\n      jumpi\n        /* \"Staking.sol\":4822:4823  i */\n      dup1\n        /* \"Staking.sol\":4815:4823  return i */\n      swap2\n      pop\n      pop\n      jump(tag_316)\n        /* \"Staking.sol\":4765:4838  if (duration == lockPeriods[i]) {... */\n    tag_323:\n        /* \"Staking.sol\":4746:4749  i++ */\n      dup1\n      dup1\n      0x01\n      add\n      swap2\n      pop\n      pop\n        /* \"Staking.sol\":4702:4848  for (uint256 i = 0; i < lockPeriods.length; i++) {... */\n      jump(tag_317)\n    tag_318:\n      pop\n        /* \"Staking.sol\":4857:4890  revert(\"Unsupported lock period\") */\n      mload(0x40)\n      0x08c379a000000000000000000000000000000000000000000000000000000000\n      dup2\n      mstore\n      0x04\n      add\n      tag_324\n      swap1\n      tag_325\n      jump\t// in\n    tag_324:\n      mload(0x40)\n      dup1\n      swap2\n      sub\n      swap1\n      revert\n        /* \"Staking.sol\":4618:4897  function getPeriodIndex(uint256 duration) internal view returns (uint256) {... */\n    tag_316:\n      swap2\n      swap1\n      pop\n      jump\t// out\n        /* \"@openzeppelin/contracts/security/ReentrancyGuard.sol\":2336:2623  function _nonReentrantBefore() private {... */\n    tag_159:\n        /* \"@openzeppelin/contracts/security/ReentrancyGuard.sol\":1759:1760  2 */\n      0x02\n        /* \"@openzeppelin/contracts/security/ReentrancyGuard.sol\":2468:2475  _status */\n      sload(0x01)\n        /* \"@openzeppelin/contracts/security/ReentrancyGuard.sol\":2468:2487  _status != _ENTERED */\n      sub\n        /* \"@openzeppelin/contracts/security/ReentrancyGuard.sol\":2460:2523  require(_status != _ENTERED, \"ReentrancyGuard: reentrant call\") */\n      tag_327\n      jumpi\n      mload(0x40)\n      0x08c379a000000000000000000000000000000000000000000000000000000000\n      dup2\n      mstore\n      0x04\n      add\n      tag_328\n      swap1\n      tag_329\n      jump\t// in\n    tag_328:\n      mload(0x40)\n      dup1\n      swap2\n      sub\n      swap1\n      revert\n    tag_327:\n        /* \"@openzeppelin/contracts/security/ReentrancyGuard.sol\":1759:1760  2 */\n      0x02\n        /* \"@openzeppelin/contracts/security/ReentrancyGuard.sol\":2598:2605  _status */\n      0x01\n        /* \"@openzeppelin/contracts/security/ReentrancyGuard.sol\":2598:2616  _status = _ENTERED */\n      dup2\n      swap1\n      sstore\n      pop\n        /* \"@openzeppelin/contracts/security/ReentrancyGuard.sol\":2336:2623  function _nonReentrantBefore() private {... */\n      jump\t// out\n        /* \"@openzeppelin/contracts/security/ReentrancyGuard.sol\":2629:2838  function _nonReentrantAfter() private {... */\n    tag_189:\n        /* \"@openzeppelin/contracts/security/ReentrancyGuard.sol\":1716:1717  1 */\n      0x01\n        /* \"@openzeppelin/contracts/security/ReentrancyGuard.sol\":2809:2816  _status */\n      dup1\n        /* \"@openzeppelin/contracts/security/ReentrancyGuard.sol\":2809:2831  _status = _NOT_ENTERED */\n      dup2\n      swap1\n      sstore\n      pop\n        /* \"@openzeppelin/contracts/security/ReentrancyGuard.sol\":2629:2838  function _nonReentrantAfter() private {... */\n      jump\t// out\n        /* \"@openzeppelin/contracts/token/ERC20/utils/SafeERC20.sol\":1618:1806  function safeTransferFrom(IERC20 token, address from, address to, uint256 value) internal {... */\n    tag_205:\n        /* \"@openzeppelin/contracts/token/ERC20/utils/SafeERC20.sol\":1718:1799  _callOptionalReturn(token, abi.encodeCall(token.transferFrom, (from, to, value))) */\n      tag_332\n        /* \"@openzeppelin/contracts/token/ERC20/utils/SafeERC20.sol\":1738:1743  token */\n      dup5\n        /* \"@openzeppelin/contracts/token/ERC20/utils/SafeERC20.sol\":1760:1765  token */\n      dup6\n        /* \"@openzeppelin/contracts/token/ERC20/utils/SafeERC20.sol\":1760:1778  token.transferFrom */\n      0xffffffffffffffffffffffffffffffffffffffff\n      and\n      0x23b872dd\n        /* \"@openzeppelin/contracts/token/ERC20/utils/SafeERC20.sol\":1781:1785  from */\n      dup7\n        /* \"@openzeppelin/contracts/token/ERC20/utils/SafeERC20.sol\":1787:1789  to */\n      dup7\n        /* \"@openzeppelin/contracts/token/ERC20/utils/SafeERC20.sol\":1791:1796  value */\n      dup7\n        /* \"@openzeppelin/contracts/token/ERC20/utils/SafeERC20.sol\":1745:1798  abi.encodeCall(token.transferFrom, (from, to, value)) */\n      add(0x24, mload(0x40))\n      tag_333\n      swap4\n      swap3\n      swap2\n      swap1\n      tag_334\n      jump\t// in\n    tag_333:\n      mload(0x40)\n      0x20\n      dup2\n      dup4\n      sub\n      sub\n      dup2\n      mstore\n      swap1\n      0x40\n      mstore\n      swap2\n      pop\n      0xe0\n      shl\n      0x20\n      dup3\n      add\n      dup1\n      mload\n      0xffffffffffffffffffffffffffffffffffffffffffffffffffffffff\n      dup4\n      dup2\n      dup4\n      and\n      or\n      dup4\n      mstore\n      pop\n      pop\n      pop\n      pop\n        /* \"@openzeppelin/contracts/token/ERC20/utils/SafeERC20.sol\":1718:1737  _callOptionalReturn */\n      tag_335\n        /* \"@openzeppelin/contracts/token/ERC20/utils/SafeERC20.sol\":1718:1799  _callOptionalReturn(token, abi.encodeCall(token.transferFrom, (from, to, value))) */\n      jump\t// in\n    tag_332:\n        /* \"@openzeppelin/contracts/token/ERC20/utils/SafeERC20.sol\":1618:1806  function safeTransferFrom(IERC20 token, address from, address to, uint256 value) internal {... */\n      pop\n      pop\n      pop\n      pop\n      jump\t// out\n        /* \"@openzeppelin/contracts/access/Ownable.sol\":1796:1958  function _checkOwner() internal view virtual {... */\n    tag_219:\n        /* \"@openzeppelin/contracts/access/Ownable.sol\":1866:1878  _msgSender() */\n      tag_337\n        /* \"@openzeppelin/contracts/access/Ownable.sol\":1866:1876  _msgSender */\n      tag_338\n        /* \"@openzeppelin/contracts/access/Ownable.sol\":1866:1878  _msgSender() */\n      jump\t// in\n    tag_337:\n        /* \"@openzeppelin/contracts/access/Ownable.sol\":1855:1878  owner() != _msgSender() */\n      0xffffffffffffffffffffffffffffffffffffffff\n      and\n        /* \"@openzeppelin/contracts/access/Ownable.sol\":1855:1862  owner() */\n      tag_339\n        /* \"@openzeppelin/contracts/access/Ownable.sol\":1855:1860  owner */\n      tag_89\n        /* \"@openzeppelin/contracts/access/Ownable.sol\":1855:1862  owner() */\n      jump\t// in\n    tag_339:\n        /* \"@openzeppelin/contracts/access/Ownable.sol\":1855:1878  owner() != _msgSender() */\n      0xffffffffffffffffffffffffffffffffffffffff\n      and\n      eq\n        /* \"@openzeppelin/contracts/access/Ownable.sol\":1851:1952  if (owner() != _msgSender()) {... */\n      tag_340\n      jumpi\n        /* \"@openzeppelin/contracts/access/Ownable.sol\":1928:1940  _msgSender() */\n      tag_341\n        /* \"@openzeppelin/contracts/access/Ownable.sol\":1928:1938  _msgSender */\n      tag_338\n        /* \"@openzeppelin/contracts/access/Ownable.sol\":1928:1940  _msgSender() */\n      jump\t// in\n    tag_341:\n        /* \"@openzeppelin/contracts/access/Ownable.sol\":1901:1941  OwnableUnauthorizedAccount(_msgSender()) */\n      mload(0x40)\n      0x118cdaa700000000000000000000000000000000000000000000000000000000\n      dup2\n      mstore\n      0x04\n      add\n      tag_342\n      swap2\n      swap1\n      tag_91\n      jump\t// in\n    tag_342:\n      mload(0x40)\n      dup1\n      swap2\n      sub\n      swap1\n      revert\n        /* \"@openzeppelin/contracts/access/Ownable.sol\":1851:1952  if (owner() != _msgSender()) {... */\n    tag_340:\n        /* \"@openzeppelin/contracts/access/Ownable.sol\":1796:1958  function _checkOwner() internal view virtual {... */\n      jump\t// out\n        /* \"@openzeppelin/contracts/access/Ownable.sol\":2912:3099  function _transferOwnership(address newOwner) internal virtual {... */\n    tag_236:\n        /* \"@openzeppelin/contracts/access/Ownable.sol\":2985:3001  address oldOwner */\n      0x00\n        /* \"@openzeppelin/contracts/access/Ownable.sol\":3004:3010  _owner */\n      0x00\n      0x00\n      swap1\n      sload\n      swap1\n      0x0100\n      exp\n      swap1\n      div\n      0xffffffffffffffffffffffffffffffffffffffff\n      and\n        /* \"@openzeppelin/contracts/access/Ownable.sol\":2985:3010  address oldOwner = _owner */\n      swap1\n      pop\n        /* \"@openzeppelin/contracts/access/Ownable.sol\":3029:3037  newOwner */\n      dup2\n        /* \"@openzeppelin/contracts/access/Ownable.sol\":3020:3026  _owner */\n      0x00\n      0x00\n        /* \"@openzeppelin/contracts/access/Ownable.sol\":3020:3037  _owner = newOwner */\n      0x0100\n      exp\n      dup2\n      sload\n      dup2\n      0xffffffffffffffffffffffffffffffffffffffff\n      mul\n      not\n      and\n      swap1\n      dup4\n      0xffffffffffffffffffffffffffffffffffffffff\n      and\n      mul\n      or\n      swap1\n      sstore\n      pop\n        /* \"@openzeppelin/contracts/access/Ownable.sol\":3083:3091  newOwner */\n      dup2\n        /* \"@openzeppelin/contracts/access/Ownable.sol\":3052:3092  OwnershipTransferred(oldOwner, newOwner) */\n      0xffffffffffffffffffffffffffffffffffffffff\n      and\n        /* \"@openzeppelin/contracts/access/Ownable.sol\":3073:3081  oldOwner */\n      dup2\n        /* \"@openzeppelin/contracts/access/Ownable.sol\":3052:3092  OwnershipTransferred(oldOwner, newOwner) */\n      0xffffffffffffffffffffffffffffffffffffffff\n      and\n      0x8be0079c531659141344cd1fd0a4f28419497f9722a3daafe3b4186f6b6457e0\n      mload(0x40)\n      mload(0x40)\n      dup1\n      swap2\n      sub\n      swap1\n      log3\n        /* \"@openzeppelin/contracts/access/Ownable.sol\":2975:3099  {... */\n      pop\n        /* \"@openzeppelin/contracts/access/Ownable.sol\":2912:3099  function _transferOwnership(address newOwner) internal virtual {... */\n      pop\n      jump\t// out\n        /* \"@openzeppelin/contracts/token/ERC20/utils/SafeERC20.sol\":1219:1379  function safeTransfer(IERC20 token, address to, uint256 value) internal {... */\n    tag_301:\n        /* \"@openzeppelin/contracts/token/ERC20/utils/SafeERC20.sol\":1301:1372  _callOptionalReturn(token, abi.encodeCall(token.transfer, (to, value))) */\n      tag_345\n        /* \"@openzeppelin/contracts/token/ERC20/utils/SafeERC20.sol\":1321:1326  token */\n      dup4\n        /* \"@openzeppelin/contracts/token/ERC20/utils/SafeERC20.sol\":1343:1348  token */\n      dup5\n        /* \"@openzeppelin/contracts/token/ERC20/utils/SafeERC20.sol\":1343:1357  token.transfer */\n      0xffffffffffffffffffffffffffffffffffffffff\n      and\n      0xa9059cbb\n        /* \"@openzeppelin/contracts/token/ERC20/utils/SafeERC20.sol\":1360:1362  to */\n      dup6\n        /* \"@openzeppelin/contracts/token/ERC20/utils/SafeERC20.sol\":1364:1369  value */\n      dup6\n        /* \"@openzeppelin/contracts/token/ERC20/utils/SafeERC20.sol\":1328:1371  abi.encodeCall(token.transfer, (to, value)) */\n      add(0x24, mload(0x40))\n      tag_346\n      swap3\n      swap2\n      swap1\n      tag_347\n      jump\t// in\n    tag_346:\n      mload(0x40)\n      0x20\n      dup2\n      dup4\n      sub\n      sub\n      dup2\n      mstore\n      swap1\n      0x40\n      mstore\n      swap2\n      pop\n      0xe0\n      shl\n      0x20\n      dup3\n      add\n      dup1\n      mload\n      0xffffffffffffffffffffffffffffffffffffffffffffffffffffffff\n      dup4\n      dup2\n      dup4\n      and\n      or\n      dup4\n      mstore\n      pop\n      pop\n      pop\n      pop\n        /* \"@openzeppelin/contracts/token/ERC20/utils/SafeERC20.sol\":1301:1320  _callOptionalReturn */\n      tag_335\n        /* \"@openzeppelin/contracts/token/ERC20/utils/SafeERC20.sol\":1301:1372  _callOptionalReturn(token, abi.encodeCall(token.transfer, (to, value))) */\n      jump\t// in\n    tag_345:\n        /* \"@openzeppelin/contracts/token/ERC20/utils/SafeERC20.sol\":1219:1379  function safeTransfer(IERC20 token, address to, uint256 value) internal {... */\n      pop\n      pop\n      pop\n      jump\t// out\n        /* \"@openzeppelin/contracts/token/ERC20/utils/SafeERC20.sol\":8370:9090  function _callOptionalReturn(IERC20 token, bytes memory data) private {... */\n    tag_335:\n        /* \"@openzeppelin/contracts/token/ERC20/utils/SafeERC20.sol\":8450:8468  uint256 returnSize */\n      0x00\n        /* \"@openzeppelin/contracts/token/ERC20/utils/SafeERC20.sol\":8478:8497  uint256 returnValue */\n      0x00\n        /* \"@openzeppelin/contracts/token/ERC20/utils/SafeERC20.sol\":8616:8620  0x20 */\n      0x20\n        /* \"@openzeppelin/contracts/token/ERC20/utils/SafeERC20.sol\":8613:8614  0 */\n      0x00\n        /* \"@openzeppelin/contracts/token/ERC20/utils/SafeERC20.sol\":8606:8610  data */\n      dup5\n        /* \"@openzeppelin/contracts/token/ERC20/utils/SafeERC20.sol\":8600:8611  mload(data) */\n      mload\n        /* \"@openzeppelin/contracts/token/ERC20/utils/SafeERC20.sol\":8593:8597  0x20 */\n      0x20\n        /* \"@openzeppelin/contracts/token/ERC20/utils/SafeERC20.sol\":8587:8591  data */\n      dup7\n        /* \"@openzeppelin/contracts/token/ERC20/utils/SafeERC20.sol\":8583:8598  add(data, 0x20) */\n      add\n        /* \"@openzeppelin/contracts/token/ERC20/utils/SafeERC20.sol\":8580:8581  0 */\n      0x00\n        /* \"@openzeppelin/contracts/token/ERC20/utils/SafeERC20.sol\":8573:8578  token */\n      dup9\n        /* \"@openzeppelin/contracts/token/ERC20/utils/SafeERC20.sol\":8566:8571  gas() */\n      gas\n        /* \"@openzeppelin/contracts/token/ERC20/utils/SafeERC20.sol\":8561:8621  call(gas(), token, 0, add(data, 0x20), mload(data), 0, 0x20) */\n      call\n        /* \"@openzeppelin/contracts/token/ERC20/utils/SafeERC20.sol\":8673:8680  success */\n      dup1\n        /* \"@openzeppelin/contracts/token/ERC20/utils/SafeERC20.sol\":8663:8839  if iszero(success) {... */\n      tag_349\n      jumpi\n        /* \"@openzeppelin/contracts/token/ERC20/utils/SafeERC20.sol\":8717:8721  0x40 */\n      0x40\n        /* \"@openzeppelin/contracts/token/ERC20/utils/SafeERC20.sol\":8711:8722  mload(0x40) */\n      mload\n        /* \"@openzeppelin/contracts/token/ERC20/utils/SafeERC20.sol\":8762:8778  returndatasize() */\n      returndatasize\n        /* \"@openzeppelin/contracts/token/ERC20/utils/SafeERC20.sol\":8759:8760  0 */\n      0x00\n        /* \"@openzeppelin/contracts/token/ERC20/utils/SafeERC20.sol\":8754:8757  ptr */\n      dup3\n        /* \"@openzeppelin/contracts/token/ERC20/utils/SafeERC20.sol\":8739:8779  returndatacopy(ptr, 0, returndatasize()) */\n      returndatacopy\n        /* \"@openzeppelin/contracts/token/ERC20/utils/SafeERC20.sol\":8808:8824  returndatasize() */\n      returndatasize\n        /* \"@openzeppelin/contracts/token/ERC20/utils/SafeERC20.sol\":8803:8806  ptr */\n      dup2\n        /* \"@openzeppelin/contracts/token/ERC20/utils/SafeERC20.sol\":8796:8825  revert(ptr, returndatasize()) */\n      revert\n        /* \"@openzeppelin/contracts/token/ERC20/utils/SafeERC20.sol\":8663:8839  if iszero(success) {... */\n    tag_349:\n        /* \"@openzeppelin/contracts/token/ERC20/utils/SafeERC20.sol\":8866:8882  returndatasize() */\n      returndatasize\n        /* \"@openzeppelin/contracts/token/ERC20/utils/SafeERC20.sol\":8852:8882  returnSize := returndatasize() */\n      swap3\n      pop\n        /* \"@openzeppelin/contracts/token/ERC20/utils/SafeERC20.sol\":8916:8917  0 */\n      0x00\n        /* \"@openzeppelin/contracts/token/ERC20/utils/SafeERC20.sol\":8910:8918  mload(0) */\n      mload\n        /* \"@openzeppelin/contracts/token/ERC20/utils/SafeERC20.sol\":8895:8918  returnValue := mload(0) */\n      swap2\n      pop\n        /* \"@openzeppelin/contracts/token/ERC20/utils/SafeERC20.sol\":8532:8928  {... */\n      pop\n        /* \"@openzeppelin/contracts/token/ERC20/utils/SafeERC20.sol\":8956:8957  0 */\n      0x00\n        /* \"@openzeppelin/contracts/token/ERC20/utils/SafeERC20.sol\":8942:8952  returnSize */\n      dup3\n        /* \"@openzeppelin/contracts/token/ERC20/utils/SafeERC20.sol\":8942:8957  returnSize == 0 */\n      eq\n        /* \"@openzeppelin/contracts/token/ERC20/utils/SafeERC20.sol\":8942:9010  returnSize == 0 ? address(token).code.length == 0 : returnValue != 1 */\n      tag_350\n      jumpi\n        /* \"@openzeppelin/contracts/token/ERC20/utils/SafeERC20.sol\":9009:9010  1 */\n      0x01\n        /* \"@openzeppelin/contracts/token/ERC20/utils/SafeERC20.sol\":8994:9005  returnValue */\n      dup2\n        /* \"@openzeppelin/contracts/token/ERC20/utils/SafeERC20.sol\":8994:9010  returnValue != 1 */\n      eq\n      iszero\n        /* \"@openzeppelin/contracts/token/ERC20/utils/SafeERC20.sol\":8942:9010  returnSize == 0 ? address(token).code.length == 0 : returnValue != 1 */\n      jump(tag_351)\n    tag_350:\n        /* \"@openzeppelin/contracts/token/ERC20/utils/SafeERC20.sol\":8990:8991  0 */\n      0x00\n        /* \"@openzeppelin/contracts/token/ERC20/utils/SafeERC20.sol\":8968:8973  token */\n      dup5\n        /* \"@openzeppelin/contracts/token/ERC20/utils/SafeERC20.sol\":8960:8986  address(token).code.length */\n      0xffffffffffffffffffffffffffffffffffffffff\n      and\n      extcodesize\n        /* \"@openzeppelin/contracts/token/ERC20/utils/SafeERC20.sol\":8960:8991  address(token).code.length == 0 */\n      eq\n        /* \"@openzeppelin/contracts/token/ERC20/utils/SafeERC20.sol\":8942:9010  returnSize == 0 ? address(token).code.length == 0 : returnValue != 1 */\n    tag_351:\n        /* \"@openzeppelin/contracts/token/ERC20/utils/SafeERC20.sol\":8938:9084  if (returnSize == 0 ? address(token).code.length == 0 : returnValue != 1) {... */\n      iszero\n      tag_352\n      jumpi\n        /* \"@openzeppelin/contracts/token/ERC20/utils/SafeERC20.sol\":9066:9071  token */\n      dup4\n        /* \"@openzeppelin/contracts/token/ERC20/utils/SafeERC20.sol\":9033:9073  SafeERC20FailedOperation(address(token)) */\n      mload(0x40)\n      0x5274afe700000000000000000000000000000000000000000000000000000000\n      dup2\n      mstore\n      0x04\n      add\n      tag_353\n      swap2\n      swap1\n      tag_91\n      jump\t// in\n    tag_353:\n      mload(0x40)\n      dup1\n      swap2\n      sub\n      swap1\n      revert\n        /* \"@openzeppelin/contracts/token/ERC20/utils/SafeERC20.sol\":8938:9084  if (returnSize == 0 ? address(token).code.length == 0 : returnValue != 1) {... */\n    tag_352:\n        /* \"@openzeppelin/contracts/token/ERC20/utils/SafeERC20.sol\":8440:9090  {... */\n      pop\n      pop\n        /* \"@openzeppelin/contracts/token/ERC20/utils/SafeERC20.sol\":8370:9090  function _callOptionalReturn(IERC20 token, bytes memory data) private {... */\n      pop\n      pop\n      jump\t// out\n        /* \"@openzeppelin/contracts/utils/Context.sol\":656:752  function _msgSender() internal view virtual returns (address) {... */\n    tag_338:\n        /* \"@openzeppelin/contracts/utils/Context.sol\":709:716  address */\n      0x00\n        /* \"@openzeppelin/contracts/utils/Context.sol\":735:745  msg.sender */\n      caller\n        /* \"@openzeppelin/contracts/utils/Context.sol\":728:745  return msg.sender */\n      swap1\n      pop\n        /* \"@openzeppelin/contracts/utils/Context.sol\":656:752  function _msgSender() internal view virtual returns (address) {... */\n      swap1\n      jump\t// out\n        /* \"#utility.yul\":88:205   */\n    tag_356:\n        /* \"#utility.yul\":197:198   */\n      0x00\n        /* \"#utility.yul\":194:195   */\n      0x00\n        /* \"#utility.yul\":187:199   */\n      revert\n        /* \"#utility.yul\":334:460   */\n    tag_358:\n        /* \"#utility.yul\":371:378   */\n      0x00\n        /* \"#utility.yul\":411:453   */\n      0xffffffffffffffffffffffffffffffffffffffff\n        /* \"#utility.yul\":404:409   */\n      dup3\n        /* \"#utility.yul\":400:454   */\n      and\n        /* \"#utility.yul\":389:454   */\n      swap1\n      pop\n        /* \"#utility.yul\":334:460   */\n      swap2\n      swap1\n      pop\n      jump\t// out\n        /* \"#utility.yul\":466:562   */\n    tag_359:\n        /* \"#utility.yul\":503:510   */\n      0x00\n        /* \"#utility.yul\":532:556   */\n      tag_424\n        /* \"#utility.yul\":550:555   */\n      dup3\n        /* \"#utility.yul\":532:556   */\n      tag_358\n      jump\t// in\n    tag_424:\n        /* \"#utility.yul\":521:556   */\n      swap1\n      pop\n        /* \"#utility.yul\":466:562   */\n      swap2\n      swap1\n      pop\n      jump\t// out\n        /* \"#utility.yul\":568:690   */\n    tag_360:\n        /* \"#utility.yul\":641:665   */\n      tag_426\n        /* \"#utility.yul\":659:664   */\n      dup2\n        /* \"#utility.yul\":641:665   */\n      tag_359\n      jump\t// in\n    tag_426:\n        /* \"#utility.yul\":634:639   */\n      dup2\n        /* \"#utility.yul\":631:666   */\n      eq\n        /* \"#utility.yul\":621:684   */\n      tag_427\n      jumpi\n        /* \"#utility.yul\":680:681   */\n      0x00\n        /* \"#utility.yul\":677:678   */\n      0x00\n        /* \"#utility.yul\":670:682   */\n      revert\n        /* \"#utility.yul\":621:684   */\n    tag_427:\n        /* \"#utility.yul\":568:690   */\n      pop\n      jump\t// out\n        /* \"#utility.yul\":696:835   */\n    tag_361:\n        /* \"#utility.yul\":742:747   */\n      0x00\n        /* \"#utility.yul\":780:786   */\n      dup2\n        /* \"#utility.yul\":767:787   */\n      calldataload\n        /* \"#utility.yul\":758:787   */\n      swap1\n      pop\n        /* \"#utility.yul\":796:829   */\n      tag_429\n        /* \"#utility.yul\":823:828   */\n      dup2\n        /* \"#utility.yul\":796:829   */\n      tag_360\n      jump\t// in\n    tag_429:\n        /* \"#utility.yul\":696:835   */\n      swap3\n      swap2\n      pop\n      pop\n      jump\t// out\n        /* \"#utility.yul\":841:1170   */\n    tag_34:\n        /* \"#utility.yul\":900:906   */\n      0x00\n        /* \"#utility.yul\":949:951   */\n      0x20\n        /* \"#utility.yul\":937:946   */\n      dup3\n        /* \"#utility.yul\":928:935   */\n      dup5\n        /* \"#utility.yul\":924:947   */\n      sub\n        /* \"#utility.yul\":920:952   */\n      slt\n        /* \"#utility.yul\":917:1036   */\n      iszero\n      tag_431\n      jumpi\n        /* \"#utility.yul\":955:1034   */\n      tag_432\n      tag_356\n      jump\t// in\n    tag_432:\n        /* \"#utility.yul\":917:1036   */\n    tag_431:\n        /* \"#utility.yul\":1075:1076   */\n      0x00\n        /* \"#utility.yul\":1100:1153   */\n      tag_433\n        /* \"#utility.yul\":1145:1152   */\n      dup5\n        /* \"#utility.yul\":1136:1142   */\n      dup3\n        /* \"#utility.yul\":1125:1134   */\n      dup6\n        /* \"#utility.yul\":1121:1143   */\n      add\n        /* \"#utility.yul\":1100:1153   */\n      tag_361\n      jump\t// in\n    tag_433:\n        /* \"#utility.yul\":1090:1153   */\n      swap2\n      pop\n        /* \"#utility.yul\":1046:1163   */\n      pop\n        /* \"#utility.yul\":841:1170   */\n      swap3\n      swap2\n      pop\n      pop\n      jump\t// out\n        /* \"#utility.yul\":1176:1253   */\n    tag_362:\n        /* \"#utility.yul\":1213:1220   */\n      0x00\n        /* \"#utility.yul\":1242:1247   */\n      dup2\n        /* \"#utility.yul\":1231:1247   */\n      swap1\n      pop\n        /* \"#utility.yul\":1176:1253   */\n      swap2\n      swap1\n      pop\n      jump\t// out\n        /* \"#utility.yul\":1259:1377   */\n    tag_363:\n        /* \"#utility.yul\":1346:1370   */\n      tag_436\n        /* \"#utility.yul\":1364:1369   */\n      dup2\n        /* \"#utility.yul\":1346:1370   */\n      tag_362\n      jump\t// in\n    tag_436:\n        /* \"#utility.yul\":1341:1344   */\n      dup3\n        /* \"#utility.yul\":1334:1371   */\n      mstore\n        /* \"#utility.yul\":1259:1377   */\n      pop\n      pop\n      jump\t// out\n        /* \"#utility.yul\":1383:1605   */\n    tag_37:\n        /* \"#utility.yul\":1476:1480   */\n      0x00\n        /* \"#utility.yul\":1514:1516   */\n      0x20\n        /* \"#utility.yul\":1503:1512   */\n      dup3\n        /* \"#utility.yul\":1499:1517   */\n      add\n        /* \"#utility.yul\":1491:1517   */\n      swap1\n      pop\n        /* \"#utility.yul\":1527:1598   */\n      tag_438\n        /* \"#utility.yul\":1595:1596   */\n      0x00\n        /* \"#utility.yul\":1584:1593   */\n      dup4\n        /* \"#utility.yul\":1580:1597   */\n      add\n        /* \"#utility.yul\":1571:1577   */\n      dup5\n        /* \"#utility.yul\":1527:1598   */\n      tag_363\n      jump\t// in\n    tag_438:\n        /* \"#utility.yul\":1383:1605   */\n      swap3\n      swap2\n      pop\n      pop\n      jump\t// out\n        /* \"#utility.yul\":1611:1751   */\n    tag_364:\n        /* \"#utility.yul\":1704:1710   */\n      0x00\n        /* \"#utility.yul\":1738:1743   */\n      dup2\n        /* \"#utility.yul\":1732:1744   */\n      mload\n        /* \"#utility.yul\":1722:1744   */\n      swap1\n      pop\n        /* \"#utility.yul\":1611:1751   */\n      swap2\n      swap1\n      pop\n      jump\t// out\n        /* \"#utility.yul\":1757:1967   */\n    tag_365:\n        /* \"#utility.yul\":1882:1893   */\n      0x00\n        /* \"#utility.yul\":1916:1922   */\n      dup3\n        /* \"#utility.yul\":1911:1914   */\n      dup3\n        /* \"#utility.yul\":1904:1923   */\n      mstore\n        /* \"#utility.yul\":1956:1960   */\n      0x20\n        /* \"#utility.yul\":1951:1954   */\n      dup3\n        /* \"#utility.yul\":1947:1961   */\n      add\n        /* \"#utility.yul\":1932:1961   */\n      swap1\n      pop\n        /* \"#utility.yul\":1757:1967   */\n      swap3\n      swap2\n      pop\n      pop\n      jump\t// out\n        /* \"#utility.yul\":1973:2131   */\n    tag_366:\n        /* \"#utility.yul\":2066:2070   */\n      0x00\n        /* \"#utility.yul\":2089:2092   */\n      dup2\n        /* \"#utility.yul\":2081:2092   */\n      swap1\n      pop\n        /* \"#utility.yul\":2119:2123   */\n      0x20\n        /* \"#utility.yul\":2114:2117   */\n      dup3\n        /* \"#utility.yul\":2110:2124   */\n      add\n        /* \"#utility.yul\":2102:2124   */\n      swap1\n      pop\n        /* \"#utility.yul\":1973:2131   */\n      swap2\n      swap1\n      pop\n      jump\t// out\n        /* \"#utility.yul\":2137:2245   */\n    tag_367:\n        /* \"#utility.yul\":2214:2238   */\n      tag_443\n        /* \"#utility.yul\":2232:2237   */\n      dup2\n        /* \"#utility.yul\":2214:2238   */\n      tag_362\n      jump\t// in\n    tag_443:\n        /* \"#utility.yul\":2209:2212   */\n      dup3\n        /* \"#utility.yul\":2202:2239   */\n      mstore\n        /* \"#utility.yul\":2137:2245   */\n      pop\n      pop\n      jump\t// out\n        /* \"#utility.yul\":2251:2341   */\n    tag_368:\n        /* \"#utility.yul\":2285:2292   */\n      0x00\n        /* \"#utility.yul\":2328:2333   */\n      dup2\n        /* \"#utility.yul\":2321:2334   */\n      iszero\n        /* \"#utility.yul\":2314:2335   */\n      iszero\n        /* \"#utility.yul\":2303:2335   */\n      swap1\n      pop\n        /* \"#utility.yul\":2251:2341   */\n      swap2\n      swap1\n      pop\n      jump\t// out\n        /* \"#utility.yul\":2347:2446   */\n    tag_369:\n        /* \"#utility.yul\":2418:2439   */\n      tag_446\n        /* \"#utility.yul\":2433:2438   */\n      dup2\n        /* \"#utility.yul\":2418:2439   */\n      tag_368\n      jump\t// in\n    tag_446:\n        /* \"#utility.yul\":2413:2416   */\n      dup3\n        /* \"#utility.yul\":2406:2440   */\n      mstore\n        /* \"#utility.yul\":2347:2446   */\n      pop\n      pop\n      jump\t// out\n        /* \"#utility.yul\":2520:3738   */\n    tag_370:\n        /* \"#utility.yul\":2659:2663   */\n      0xc0\n        /* \"#utility.yul\":2654:2657   */\n      dup3\n        /* \"#utility.yul\":2650:2664   */\n      add\n        /* \"#utility.yul\":2748:2752   */\n      0x00\n        /* \"#utility.yul\":2741:2746   */\n      dup3\n        /* \"#utility.yul\":2737:2753   */\n      add\n        /* \"#utility.yul\":2731:2754   */\n      mload\n        /* \"#utility.yul\":2767:2830   */\n      tag_448\n        /* \"#utility.yul\":2824:2828   */\n      0x00\n        /* \"#utility.yul\":2819:2822   */\n      dup6\n        /* \"#utility.yul\":2815:2829   */\n      add\n        /* \"#utility.yul\":2801:2813   */\n      dup3\n        /* \"#utility.yul\":2767:2830   */\n      tag_367\n      jump\t// in\n    tag_448:\n        /* \"#utility.yul\":2674:2840   */\n      pop\n        /* \"#utility.yul\":2927:2931   */\n      0x20\n        /* \"#utility.yul\":2920:2925   */\n      dup3\n        /* \"#utility.yul\":2916:2932   */\n      add\n        /* \"#utility.yul\":2910:2933   */\n      mload\n        /* \"#utility.yul\":2946:3009   */\n      tag_449\n        /* \"#utility.yul\":3003:3007   */\n      0x20\n        /* \"#utility.yul\":2998:3001   */\n      dup6\n        /* \"#utility.yul\":2994:3008   */\n      add\n        /* \"#utility.yul\":2980:2992   */\n      dup3\n        /* \"#utility.yul\":2946:3009   */\n      tag_367\n      jump\t// in\n    tag_449:\n        /* \"#utility.yul\":2850:3019   */\n      pop\n        /* \"#utility.yul\":3107:3111   */\n      0x40\n        /* \"#utility.yul\":3100:3105   */\n      dup3\n        /* \"#utility.yul\":3096:3112   */\n      add\n        /* \"#utility.yul\":3090:3113   */\n      mload\n        /* \"#utility.yul\":3126:3189   */\n      tag_450\n        /* \"#utility.yul\":3183:3187   */\n      0x40\n        /* \"#utility.yul\":3178:3181   */\n      dup6\n        /* \"#utility.yul\":3174:3188   */\n      add\n        /* \"#utility.yul\":3160:3172   */\n      dup3\n        /* \"#utility.yul\":3126:3189   */\n      tag_367\n      jump\t// in\n    tag_450:\n        /* \"#utility.yul\":3029:3199   */\n      pop\n        /* \"#utility.yul\":3284:3288   */\n      0x60\n        /* \"#utility.yul\":3277:3282   */\n      dup3\n        /* \"#utility.yul\":3273:3289   */\n      add\n        /* \"#utility.yul\":3267:3290   */\n      mload\n        /* \"#utility.yul\":3303:3360   */\n      tag_451\n        /* \"#utility.yul\":3354:3358   */\n      0x60\n        /* \"#utility.yul\":3349:3352   */\n      dup6\n        /* \"#utility.yul\":3345:3359   */\n      add\n        /* \"#utility.yul\":3331:3343   */\n      dup3\n        /* \"#utility.yul\":3303:3360   */\n      tag_369\n      jump\t// in\n    tag_451:\n        /* \"#utility.yul\":3209:3370   */\n      pop\n        /* \"#utility.yul\":3459:3463   */\n      0x80\n        /* \"#utility.yul\":3452:3457   */\n      dup3\n        /* \"#utility.yul\":3448:3464   */\n      add\n        /* \"#utility.yul\":3442:3465   */\n      mload\n        /* \"#utility.yul\":3478:3535   */\n      tag_452\n        /* \"#utility.yul\":3529:3533   */\n      0x80\n        /* \"#utility.yul\":3524:3527   */\n      dup6\n        /* \"#utility.yul\":3520:3534   */\n      add\n        /* \"#utility.yul\":3506:3518   */\n      dup3\n        /* \"#utility.yul\":3478:3535   */\n      tag_369\n      jump\t// in\n    tag_452:\n        /* \"#utility.yul\":3380:3545   */\n      pop\n        /* \"#utility.yul\":3639:3643   */\n      0xa0\n        /* \"#utility.yul\":3632:3637   */\n      dup3\n        /* \"#utility.yul\":3628:3644   */\n      add\n        /* \"#utility.yul\":3622:3645   */\n      mload\n        /* \"#utility.yul\":3658:3721   */\n      tag_453\n        /* \"#utility.yul\":3715:3719   */\n      0xa0\n        /* \"#utility.yul\":3710:3713   */\n      dup6\n        /* \"#utility.yul\":3706:3720   */\n      add\n        /* \"#utility.yul\":3692:3704   */\n      dup3\n        /* \"#utility.yul\":3658:3721   */\n      tag_367\n      jump\t// in\n    tag_453:\n        /* \"#utility.yul\":3555:3731   */\n      pop\n        /* \"#utility.yul\":2628:3738   */\n      pop\n        /* \"#utility.yul\":2520:3738   */\n      pop\n      pop\n      jump\t// out\n        /* \"#utility.yul\":3744:4027   */\n    tag_371:\n        /* \"#utility.yul\":3865:3875   */\n      0x00\n        /* \"#utility.yul\":3886:3984   */\n      tag_455\n        /* \"#utility.yul\":3980:3983   */\n      dup4\n        /* \"#utility.yul\":3972:3978   */\n      dup4\n        /* \"#utility.yul\":3886:3984   */\n      tag_370\n      jump\t// in\n    tag_455:\n        /* \"#utility.yul\":4016:4020   */\n      0xc0\n        /* \"#utility.yul\":4011:4014   */\n      dup4\n        /* \"#utility.yul\":4007:4021   */\n      add\n        /* \"#utility.yul\":3993:4021   */\n      swap1\n      pop\n        /* \"#utility.yul\":3744:4027   */\n      swap3\n      swap2\n      pop\n      pop\n      jump\t// out\n        /* \"#utility.yul\":4033:4172   */\n    tag_372:\n        /* \"#utility.yul\":4129:4133   */\n      0x00\n        /* \"#utility.yul\":4161:4165   */\n      0x20\n        /* \"#utility.yul\":4156:4159   */\n      dup3\n        /* \"#utility.yul\":4152:4166   */\n      add\n        /* \"#utility.yul\":4144:4166   */\n      swap1\n      pop\n        /* \"#utility.yul\":4033:4172   */\n      swap2\n      swap1\n      pop\n      jump\t// out\n        /* \"#utility.yul\":4250:5190   */\n    tag_373:\n        /* \"#utility.yul\":4421:4424   */\n      0x00\n        /* \"#utility.yul\":4450:4530   */\n      tag_458\n        /* \"#utility.yul\":4524:4529   */\n      dup3\n        /* \"#utility.yul\":4450:4530   */\n      tag_364\n      jump\t// in\n    tag_458:\n        /* \"#utility.yul\":4546:4658   */\n      tag_459\n        /* \"#utility.yul\":4651:4657   */\n      dup2\n        /* \"#utility.yul\":4646:4649   */\n      dup6\n        /* \"#utility.yul\":4546:4658   */\n      tag_365\n      jump\t// in\n    tag_459:\n        /* \"#utility.yul\":4539:4658   */\n      swap4\n      pop\n        /* \"#utility.yul\":4682:4764   */\n      tag_460\n        /* \"#utility.yul\":4758:4763   */\n      dup4\n        /* \"#utility.yul\":4682:4764   */\n      tag_366\n      jump\t// in\n    tag_460:\n        /* \"#utility.yul\":4787:4794   */\n      dup1\n        /* \"#utility.yul\":4818:4819   */\n      0x00\n        /* \"#utility.yul\":4803:5165   */\n    tag_461:\n        /* \"#utility.yul\":4828:4834   */\n      dup4\n        /* \"#utility.yul\":4825:4826   */\n      dup2\n        /* \"#utility.yul\":4822:4835   */\n      lt\n        /* \"#utility.yul\":4803:5165   */\n      iszero\n      tag_463\n      jumpi\n        /* \"#utility.yul\":4904:4910   */\n      dup2\n        /* \"#utility.yul\":4898:4911   */\n      mload\n        /* \"#utility.yul\":4931:5046   */\n      tag_464\n        /* \"#utility.yul\":5042:5045   */\n      dup9\n        /* \"#utility.yul\":5027:5040   */\n      dup3\n        /* \"#utility.yul\":4931:5046   */\n      tag_371\n      jump\t// in\n    tag_464:\n        /* \"#utility.yul\":4924:5046   */\n      swap8\n      pop\n        /* \"#utility.yul\":5069:5155   */\n      tag_465\n        /* \"#utility.yul\":5148:5154   */\n      dup4\n        /* \"#utility.yul\":5069:5155   */\n      tag_372\n      jump\t// in\n    tag_465:\n        /* \"#utility.yul\":5059:5155   */\n      swap3\n      pop\n        /* \"#utility.yul\":4863:5165   */\n      pop\n        /* \"#utility.yul\":4850:4851   */\n      0x01\n        /* \"#utility.yul\":4847:4848   */\n      dup2\n        /* \"#utility.yul\":4843:4852   */\n      add\n        /* \"#utility.yul\":4838:4852   */\n      swap1\n      pop\n        /* \"#utility.yul\":4803:5165   */\n      jump(tag_461)\n    tag_463:\n        /* \"#utility.yul\":4807:4821   */\n      pop\n        /* \"#utility.yul\":5181:5184   */\n      dup6\n        /* \"#utility.yul\":5174:5184   */\n      swap4\n      pop\n        /* \"#utility.yul\":4426:5190   */\n      pop\n      pop\n      pop\n        /* \"#utility.yul\":4250:5190   */\n      swap3\n      swap2\n      pop\n      pop\n      jump\t// out\n        /* \"#utility.yul\":5196:5673   */\n    tag_42:\n        /* \"#utility.yul\":5391:5395   */\n      0x00\n        /* \"#utility.yul\":5429:5431   */\n      0x20\n        /* \"#utility.yul\":5418:5427   */\n      dup3\n        /* \"#utility.yul\":5414:5432   */\n      add\n        /* \"#utility.yul\":5406:5432   */\n      swap1\n      pop\n        /* \"#utility.yul\":5478:5487   */\n      dup2\n        /* \"#utility.yul\":5472:5476   */\n      dup2\n        /* \"#utility.yul\":5468:5488   */\n      sub\n        /* \"#utility.yul\":5464:5465   */\n      0x00\n        /* \"#utility.yul\":5453:5462   */\n      dup4\n        /* \"#utility.yul\":5449:5466   */\n      add\n        /* \"#utility.yul\":5442:5489   */\n      mstore\n        /* \"#utility.yul\":5506:5666   */\n      tag_467\n        /* \"#utility.yul\":5661:5665   */\n      dup2\n        /* \"#utility.yul\":5652:5658   */\n      dup5\n        /* \"#utility.yul\":5506:5666   */\n      tag_373\n      jump\t// in\n    tag_467:\n        /* \"#utility.yul\":5498:5666   */\n      swap1\n      pop\n        /* \"#utility.yul\":5196:5673   */\n      swap3\n      swap2\n      pop\n      pop\n      jump\t// out\n        /* \"#utility.yul\":5679:5801   */\n    tag_374:\n        /* \"#utility.yul\":5752:5776   */\n      tag_469\n        /* \"#utility.yul\":5770:5775   */\n      dup2\n        /* \"#utility.yul\":5752:5776   */\n      tag_362\n      jump\t// in\n    tag_469:\n        /* \"#utility.yul\":5745:5750   */\n      dup2\n        /* \"#utility.yul\":5742:5777   */\n      eq\n        /* \"#utility.yul\":5732:5795   */\n      tag_470\n      jumpi\n        /* \"#utility.yul\":5791:5792   */\n      0x00\n        /* \"#utility.yul\":5788:5789   */\n      0x00\n        /* \"#utility.yul\":5781:5793   */\n      revert\n        /* \"#utility.yul\":5732:5795   */\n    tag_470:\n        /* \"#utility.yul\":5679:5801   */\n      pop\n      jump\t// out\n        /* \"#utility.yul\":5807:5946   */\n    tag_375:\n        /* \"#utility.yul\":5853:5858   */\n      0x00\n        /* \"#utility.yul\":5891:5897   */\n      dup2\n        /* \"#utility.yul\":5878:5898   */\n      calldataload\n        /* \"#utility.yul\":5869:5898   */\n      swap1\n      pop\n        /* \"#utility.yul\":5907:5940   */\n      tag_472\n        /* \"#utility.yul\":5934:5939   */\n      dup2\n        /* \"#utility.yul\":5907:5940   */\n      tag_374\n      jump\t// in\n    tag_472:\n        /* \"#utility.yul\":5807:5946   */\n      swap3\n      swap2\n      pop\n      pop\n      jump\t// out\n        /* \"#utility.yul\":5952:6426   */\n    tag_45:\n        /* \"#utility.yul\":6020:6026   */\n      0x00\n        /* \"#utility.yul\":6028:6034   */\n      0x00\n        /* \"#utility.yul\":6077:6079   */\n      0x40\n        /* \"#utility.yul\":6065:6074   */\n      dup4\n        /* \"#utility.yul\":6056:6063   */\n      dup6\n        /* \"#utility.yul\":6052:6075   */\n      sub\n        /* \"#utility.yul\":6048:6080   */\n      slt\n        /* \"#utility.yul\":6045:6164   */\n      iszero\n      tag_474\n      jumpi\n        /* \"#utility.yul\":6083:6162   */\n      tag_475\n      tag_356\n      jump\t// in\n    tag_475:\n        /* \"#utility.yul\":6045:6164   */\n    tag_474:\n        /* \"#utility.yul\":6203:6204   */\n      0x00\n        /* \"#utility.yul\":6228:6281   */\n      tag_476\n        /* \"#utility.yul\":6273:6280   */\n      dup6\n        /* \"#utility.yul\":6264:6270   */\n      dup3\n        /* \"#utility.yul\":6253:6262   */\n      dup7\n        /* \"#utility.yul\":6249:6271   */\n      add\n        /* \"#utility.yul\":6228:6281   */\n      tag_361\n      jump\t// in\n    tag_476:\n        /* \"#utility.yul\":6218:6281   */\n      swap3\n      pop\n        /* \"#utility.yul\":6174:6291   */\n      pop\n        /* \"#utility.yul\":6330:6332   */\n      0x20\n        /* \"#utility.yul\":6356:6409   */\n      tag_477\n        /* \"#utility.yul\":6401:6408   */\n      dup6\n        /* \"#utility.yul\":6392:6398   */\n      dup3\n        /* \"#utility.yul\":6381:6390   */\n      dup7\n        /* \"#utility.yul\":6377:6399   */\n      add\n        /* \"#utility.yul\":6356:6409   */\n      tag_375\n      jump\t// in\n    tag_477:\n        /* \"#utility.yul\":6346:6409   */\n      swap2\n      pop\n        /* \"#utility.yul\":6301:6419   */\n      pop\n        /* \"#utility.yul\":5952:6426   */\n      swap3\n      pop\n      swap3\n      swap1\n      pop\n      jump\t// out\n        /* \"#utility.yul\":6432:6761   */\n    tag_53:\n        /* \"#utility.yul\":6491:6497   */\n      0x00\n        /* \"#utility.yul\":6540:6542   */\n      0x20\n        /* \"#utility.yul\":6528:6537   */\n      dup3\n        /* \"#utility.yul\":6519:6526   */\n      dup5\n        /* \"#utility.yul\":6515:6538   */\n      sub\n        /* \"#utility.yul\":6511:6543   */\n      slt\n        /* \"#utility.yul\":6508:6627   */\n      iszero\n      tag_479\n      jumpi\n        /* \"#utility.yul\":6546:6625   */\n      tag_480\n      tag_356\n      jump\t// in\n    tag_480:\n        /* \"#utility.yul\":6508:6627   */\n    tag_479:\n        /* \"#utility.yul\":6666:6667   */\n      0x00\n        /* \"#utility.yul\":6691:6744   */\n      tag_481\n        /* \"#utility.yul\":6736:6743   */\n      dup5\n        /* \"#utility.yul\":6727:6733   */\n      dup3\n        /* \"#utility.yul\":6716:6725   */\n      dup6\n        /* \"#utility.yul\":6712:6734   */\n      add\n        /* \"#utility.yul\":6691:6744   */\n      tag_375\n      jump\t// in\n    tag_481:\n        /* \"#utility.yul\":6681:6744   */\n      swap2\n      pop\n        /* \"#utility.yul\":6637:6754   */\n      pop\n        /* \"#utility.yul\":6432:6761   */\n      swap3\n      swap2\n      pop\n      pop\n      jump\t// out\n        /* \"#utility.yul\":6767:6883   */\n    tag_376:\n        /* \"#utility.yul\":6837:6858   */\n      tag_483\n        /* \"#utility.yul\":6852:6857   */\n      dup2\n        /* \"#utility.yul\":6837:6858   */\n      tag_368\n      jump\t// in\n    tag_483:\n        /* \"#utility.yul\":6830:6835   */\n      dup2\n        /* \"#utility.yul\":6827:6859   */\n      eq\n        /* \"#utility.yul\":6817:6877   */\n      tag_484\n      jumpi\n        /* \"#utility.yul\":6873:6874   */\n      0x00\n        /* \"#utility.yul\":6870:6871   */\n      0x00\n        /* \"#utility.yul\":6863:6875   */\n      revert\n        /* \"#utility.yul\":6817:6877   */\n    tag_484:\n        /* \"#utility.yul\":6767:6883   */\n      pop\n      jump\t// out\n        /* \"#utility.yul\":6889:7022   */\n    tag_377:\n        /* \"#utility.yul\":6932:6937   */\n      0x00\n        /* \"#utility.yul\":6970:6976   */\n      dup2\n        /* \"#utility.yul\":6957:6977   */\n      calldataload\n        /* \"#utility.yul\":6948:6977   */\n      swap1\n      pop\n        /* \"#utility.yul\":6986:7016   */\n      tag_486\n        /* \"#utility.yul\":7010:7015   */\n      dup2\n        /* \"#utility.yul\":6986:7016   */\n      tag_376\n      jump\t// in\n    tag_486:\n        /* \"#utility.yul\":6889:7022   */\n      swap3\n      swap2\n      pop\n      pop\n      jump\t// out\n        /* \"#utility.yul\":7028:7641   */\n    tag_61:\n        /* \"#utility.yul\":7102:7108   */\n      0x00\n        /* \"#utility.yul\":7110:7116   */\n      0x00\n        /* \"#utility.yul\":7118:7124   */\n      0x00\n        /* \"#utility.yul\":7167:7169   */\n      0x60\n        /* \"#utility.yul\":7155:7164   */\n      dup5\n        /* \"#utility.yul\":7146:7153   */\n      dup7\n        /* \"#utility.yul\":7142:7165   */\n      sub\n        /* \"#utility.yul\":7138:7170   */\n      slt\n        /* \"#utility.yul\":7135:7254   */\n      iszero\n      tag_488\n      jumpi\n        /* \"#utility.yul\":7173:7252   */\n      tag_489\n      tag_356\n      jump\t// in\n    tag_489:\n        /* \"#utility.yul\":7135:7254   */\n    tag_488:\n        /* \"#utility.yul\":7293:7294   */\n      0x00\n        /* \"#utility.yul\":7318:7371   */\n      tag_490\n        /* \"#utility.yul\":7363:7370   */\n      dup7\n        /* \"#utility.yul\":7354:7360   */\n      dup3\n        /* \"#utility.yul\":7343:7352   */\n      dup8\n        /* \"#utility.yul\":7339:7361   */\n      add\n        /* \"#utility.yul\":7318:7371   */\n      tag_375\n      jump\t// in\n    tag_490:\n        /* \"#utility.yul\":7308:7371   */\n      swap4\n      pop\n        /* \"#utility.yul\":7264:7381   */\n      pop\n        /* \"#utility.yul\":7420:7422   */\n      0x20\n        /* \"#utility.yul\":7446:7499   */\n      tag_491\n        /* \"#utility.yul\":7491:7498   */\n      dup7\n        /* \"#utility.yul\":7482:7488   */\n      dup3\n        /* \"#utility.yul\":7471:7480   */\n      dup8\n        /* \"#utility.yul\":7467:7489   */\n      add\n        /* \"#utility.yul\":7446:7499   */\n      tag_375\n      jump\t// in\n    tag_491:\n        /* \"#utility.yul\":7436:7499   */\n      swap3\n      pop\n        /* \"#utility.yul\":7391:7509   */\n      pop\n        /* \"#utility.yul\":7548:7550   */\n      0x40\n        /* \"#utility.yul\":7574:7624   */\n      tag_492\n        /* \"#utility.yul\":7616:7623   */\n      dup7\n        /* \"#utility.yul\":7607:7613   */\n      dup3\n        /* \"#utility.yul\":7596:7605   */\n      dup8\n        /* \"#utility.yul\":7592:7614   */\n      add\n        /* \"#utility.yul\":7574:7624   */\n      tag_377\n      jump\t// in\n    tag_492:\n        /* \"#utility.yul\":7564:7624   */\n      swap2\n      pop\n        /* \"#utility.yul\":7519:7634   */\n      pop\n        /* \"#utility.yul\":7028:7641   */\n      swap3\n      pop\n      swap3\n      pop\n      swap3\n      jump\t// out\n        /* \"#utility.yul\":7647:7756   */\n    tag_378:\n        /* \"#utility.yul\":7728:7749   */\n      tag_494\n        /* \"#utility.yul\":7743:7748   */\n      dup2\n        /* \"#utility.yul\":7728:7749   */\n      tag_368\n      jump\t// in\n    tag_494:\n        /* \"#utility.yul\":7723:7726   */\n      dup3\n        /* \"#utility.yul\":7716:7750   */\n      mstore\n        /* \"#utility.yul\":7647:7756   */\n      pop\n      pop\n      jump\t// out\n        /* \"#utility.yul\":7762:8513   */\n    tag_67:\n        /* \"#utility.yul\":7983:7987   */\n      0x00\n        /* \"#utility.yul\":8021:8024   */\n      0xc0\n        /* \"#utility.yul\":8010:8019   */\n      dup3\n        /* \"#utility.yul\":8006:8025   */\n      add\n        /* \"#utility.yul\":7998:8025   */\n      swap1\n      pop\n        /* \"#utility.yul\":8035:8106   */\n      tag_496\n        /* \"#utility.yul\":8103:8104   */\n      0x00\n        /* \"#utility.yul\":8092:8101   */\n      dup4\n        /* \"#utility.yul\":8088:8105   */\n      add\n        /* \"#utility.yul\":8079:8085   */\n      dup10\n        /* \"#utility.yul\":8035:8106   */\n      tag_363\n      jump\t// in\n    tag_496:\n        /* \"#utility.yul\":8116:8188   */\n      tag_497\n        /* \"#utility.yul\":8184:8186   */\n      0x20\n        /* \"#utility.yul\":8173:8182   */\n      dup4\n        /* \"#utility.yul\":8169:8187   */\n      add\n        /* \"#utility.yul\":8160:8166   */\n      dup9\n        /* \"#utility.yul\":8116:8188   */\n      tag_363\n      jump\t// in\n    tag_497:\n        /* \"#utility.yul\":8198:8270   */\n      tag_498\n        /* \"#utility.yul\":8266:8268   */\n      0x40\n        /* \"#utility.yul\":8255:8264   */\n      dup4\n        /* \"#utility.yul\":8251:8269   */\n      add\n        /* \"#utility.yul\":8242:8248   */\n      dup8\n        /* \"#utility.yul\":8198:8270   */\n      tag_363\n      jump\t// in\n    tag_498:\n        /* \"#utility.yul\":8280:8346   */\n      tag_499\n        /* \"#utility.yul\":8342:8344   */\n      0x60\n        /* \"#utility.yul\":8331:8340   */\n      dup4\n        /* \"#utility.yul\":8327:8345   */\n      add\n        /* \"#utility.yul\":8318:8324   */\n      dup7\n        /* \"#utility.yul\":8280:8346   */\n      tag_378\n      jump\t// in\n    tag_499:\n        /* \"#utility.yul\":8356:8423   */\n      tag_500\n        /* \"#utility.yul\":8418:8421   */\n      0x80\n        /* \"#utility.yul\":8407:8416   */\n      dup4\n        /* \"#utility.yul\":8403:8422   */\n      add\n        /* \"#utility.yul\":8394:8400   */\n      dup6\n        /* \"#utility.yul\":8356:8423   */\n      tag_378\n      jump\t// in\n    tag_500:\n        /* \"#utility.yul\":8433:8506   */\n      tag_501\n        /* \"#utility.yul\":8501:8504   */\n      0xa0\n        /* \"#utility.yul\":8490:8499   */\n      dup4\n        /* \"#utility.yul\":8486:8505   */\n      add\n        /* \"#utility.yul\":8477:8483   */\n      dup5\n        /* \"#utility.yul\":8433:8506   */\n      tag_363\n      jump\t// in\n    tag_501:\n        /* \"#utility.yul\":7762:8513   */\n      swap8\n      swap7\n      pop\n      pop\n      pop\n      pop\n      pop\n      pop\n      pop\n      jump\t// out\n        /* \"#utility.yul\":8519:8993   */\n    tag_70:\n        /* \"#utility.yul\":8587:8593   */\n      0x00\n        /* \"#utility.yul\":8595:8601   */\n      0x00\n        /* \"#utility.yul\":8644:8646   */\n      0x40\n        /* \"#utility.yul\":8632:8641   */\n      dup4\n        /* \"#utility.yul\":8623:8630   */\n      dup6\n        /* \"#utility.yul\":8619:8642   */\n      sub\n        /* \"#utility.yul\":8615:8647   */\n      slt\n        /* \"#utility.yul\":8612:8731   */\n      iszero\n      tag_503\n      jumpi\n        /* \"#utility.yul\":8650:8729   */\n      tag_504\n      tag_356\n      jump\t// in\n    tag_504:\n        /* \"#utility.yul\":8612:8731   */\n    tag_503:\n        /* \"#utility.yul\":8770:8771   */\n      0x00\n        /* \"#utility.yul\":8795:8848   */\n      tag_505\n        /* \"#utility.yul\":8840:8847   */\n      dup6\n        /* \"#utility.yul\":8831:8837   */\n      dup3\n        /* \"#utility.yul\":8820:8829   */\n      dup7\n        /* \"#utility.yul\":8816:8838   */\n      add\n        /* \"#utility.yul\":8795:8848   */\n      tag_375\n      jump\t// in\n    tag_505:\n        /* \"#utility.yul\":8785:8848   */\n      swap3\n      pop\n        /* \"#utility.yul\":8741:8858   */\n      pop\n        /* \"#utility.yul\":8897:8899   */\n      0x20\n        /* \"#utility.yul\":8923:8976   */\n      tag_506\n        /* \"#utility.yul\":8968:8975   */\n      dup6\n        /* \"#utility.yul\":8959:8965   */\n      dup3\n        /* \"#utility.yul\":8948:8957   */\n      dup7\n        /* \"#utility.yul\":8944:8966   */\n      add\n        /* \"#utility.yul\":8923:8976   */\n      tag_375\n      jump\t// in\n    tag_506:\n        /* \"#utility.yul\":8913:8976   */\n      swap2\n      pop\n        /* \"#utility.yul\":8868:8986   */\n      pop\n        /* \"#utility.yul\":8519:8993   */\n      swap3\n      pop\n      swap3\n      swap1\n      pop\n      jump\t// out\n        /* \"#utility.yul\":8999:9059   */\n    tag_379:\n        /* \"#utility.yul\":9027:9030   */\n      0x00\n        /* \"#utility.yul\":9048:9053   */\n      dup2\n        /* \"#utility.yul\":9041:9053   */\n      swap1\n      pop\n        /* \"#utility.yul\":8999:9059   */\n      swap2\n      swap1\n      pop\n      jump\t// out\n        /* \"#utility.yul\":9065:9207   */\n    tag_380:\n        /* \"#utility.yul\":9115:9124   */\n      0x00\n        /* \"#utility.yul\":9148:9201   */\n      tag_509\n        /* \"#utility.yul\":9166:9200   */\n      tag_510\n        /* \"#utility.yul\":9175:9199   */\n      tag_511\n        /* \"#utility.yul\":9193:9198   */\n      dup5\n        /* \"#utility.yul\":9175:9199   */\n      tag_358\n      jump\t// in\n    tag_511:\n        /* \"#utility.yul\":9166:9200   */\n      tag_379\n      jump\t// in\n    tag_510:\n        /* \"#utility.yul\":9148:9201   */\n      tag_358\n      jump\t// in\n    tag_509:\n        /* \"#utility.yul\":9135:9201   */\n      swap1\n      pop\n        /* \"#utility.yul\":9065:9207   */\n      swap2\n      swap1\n      pop\n      jump\t// out\n        /* \"#utility.yul\":9213:9339   */\n    tag_381:\n        /* \"#utility.yul\":9263:9272   */\n      0x00\n        /* \"#utility.yul\":9296:9333   */\n      tag_513\n        /* \"#utility.yul\":9327:9332   */\n      dup3\n        /* \"#utility.yul\":9296:9333   */\n      tag_380\n      jump\t// in\n    tag_513:\n        /* \"#utility.yul\":9283:9333   */\n      swap1\n      pop\n        /* \"#utility.yul\":9213:9339   */\n      swap2\n      swap1\n      pop\n      jump\t// out\n        /* \"#utility.yul\":9345:9485   */\n    tag_382:\n        /* \"#utility.yul\":9409:9418   */\n      0x00\n        /* \"#utility.yul\":9442:9479   */\n      tag_515\n        /* \"#utility.yul\":9473:9478   */\n      dup3\n        /* \"#utility.yul\":9442:9479   */\n      tag_381\n      jump\t// in\n    tag_515:\n        /* \"#utility.yul\":9429:9479   */\n      swap1\n      pop\n        /* \"#utility.yul\":9345:9485   */\n      swap2\n      swap1\n      pop\n      jump\t// out\n        /* \"#utility.yul\":9491:9650   */\n    tag_383:\n        /* \"#utility.yul\":9592:9643   */\n      tag_517\n        /* \"#utility.yul\":9637:9642   */\n      dup2\n        /* \"#utility.yul\":9592:9643   */\n      tag_382\n      jump\t// in\n    tag_517:\n        /* \"#utility.yul\":9587:9590   */\n      dup3\n        /* \"#utility.yul\":9580:9644   */\n      mstore\n        /* \"#utility.yul\":9491:9650   */\n      pop\n      pop\n      jump\t// out\n        /* \"#utility.yul\":9656:9906   */\n    tag_81:\n        /* \"#utility.yul\":9763:9767   */\n      0x00\n        /* \"#utility.yul\":9801:9803   */\n      0x20\n        /* \"#utility.yul\":9790:9799   */\n      dup3\n        /* \"#utility.yul\":9786:9804   */\n      add\n        /* \"#utility.yul\":9778:9804   */\n      swap1\n      pop\n        /* \"#utility.yul\":9814:9899   */\n      tag_519\n        /* \"#utility.yul\":9896:9897   */\n      0x00\n        /* \"#utility.yul\":9885:9894   */\n      dup4\n        /* \"#utility.yul\":9881:9898   */\n      add\n        /* \"#utility.yul\":9872:9878   */\n      dup5\n        /* \"#utility.yul\":9814:9899   */\n      tag_383\n      jump\t// in\n    tag_519:\n        /* \"#utility.yul\":9656:9906   */\n      swap3\n      swap2\n      pop\n      pop\n      jump\t// out\n        /* \"#utility.yul\":9912:10030   */\n    tag_384:\n        /* \"#utility.yul\":9999:10023   */\n      tag_521\n        /* \"#utility.yul\":10017:10022   */\n      dup2\n        /* \"#utility.yul\":9999:10023   */\n      tag_359\n      jump\t// in\n    tag_521:\n        /* \"#utility.yul\":9994:9997   */\n      dup3\n        /* \"#utility.yul\":9987:10024   */\n      mstore\n        /* \"#utility.yul\":9912:10030   */\n      pop\n      pop\n      jump\t// out\n        /* \"#utility.yul\":10036:10258   */\n    tag_91:\n        /* \"#utility.yul\":10129:10133   */\n      0x00\n        /* \"#utility.yul\":10167:10169   */\n      0x20\n        /* \"#utility.yul\":10156:10165   */\n      dup3\n        /* \"#utility.yul\":10152:10170   */\n      add\n        /* \"#utility.yul\":10144:10170   */\n      swap1\n      pop\n        /* \"#utility.yul\":10180:10251   */\n      tag_523\n        /* \"#utility.yul\":10248:10249   */\n      0x00\n        /* \"#utility.yul\":10237:10246   */\n      dup4\n        /* \"#utility.yul\":10233:10250   */\n      add\n        /* \"#utility.yul\":10224:10230   */\n      dup5\n        /* \"#utility.yul\":10180:10251   */\n      tag_384\n      jump\t// in\n    tag_523:\n        /* \"#utility.yul\":10036:10258   */\n      swap3\n      swap2\n      pop\n      pop\n      jump\t// out\n        /* \"#utility.yul\":10264:10433   */\n    tag_385:\n        /* \"#utility.yul\":10348:10359   */\n      0x00\n        /* \"#utility.yul\":10382:10388   */\n      dup3\n        /* \"#utility.yul\":10377:10380   */\n      dup3\n        /* \"#utility.yul\":10370:10389   */\n      mstore\n        /* \"#utility.yul\":10422:10426   */\n      0x20\n        /* \"#utility.yul\":10417:10420   */\n      dup3\n        /* \"#utility.yul\":10413:10427   */\n      add\n        /* \"#utility.yul\":10398:10427   */\n      swap1\n      pop\n        /* \"#utility.yul\":10264:10433   */\n      swap3\n      swap2\n      pop\n      pop\n      jump\t// out\n        /* \"#utility.yul\":10439:10604   */\n    tag_386:\n        /* \"#utility.yul\":10579:10596   */\n      0x496e76616c6964206163636f756e740000000000000000000000000000000000\n        /* \"#utility.yul\":10575:10576   */\n      0x00\n        /* \"#utility.yul\":10567:10573   */\n      dup3\n        /* \"#utility.yul\":10563:10577   */\n      add\n        /* \"#utility.yul\":10556:10597   */\n      mstore\n        /* \"#utility.yul\":10439:10604   */\n      pop\n      jump\t// out\n        /* \"#utility.yul\":10610:10976   */\n    tag_387:\n        /* \"#utility.yul\":10752:10755   */\n      0x00\n        /* \"#utility.yul\":10773:10840   */\n      tag_527\n        /* \"#utility.yul\":10837:10839   */\n      0x0f\n        /* \"#utility.yul\":10832:10835   */\n      dup4\n        /* \"#utility.yul\":10773:10840   */\n      tag_385\n      jump\t// in\n    tag_527:\n        /* \"#utility.yul\":10766:10840   */\n      swap2\n      pop\n        /* \"#utility.yul\":10849:10942   */\n      tag_528\n        /* \"#utility.yul\":10938:10941   */\n      dup3\n        /* \"#utility.yul\":10849:10942   */\n      tag_386\n      jump\t// in\n    tag_528:\n        /* \"#utility.yul\":10967:10969   */\n      0x20\n        /* \"#utility.yul\":10962:10965   */\n      dup3\n        /* \"#utility.yul\":10958:10970   */\n      add\n        /* \"#utility.yul\":10951:10970   */\n      swap1\n      pop\n        /* \"#utility.yul\":10610:10976   */\n      swap2\n      swap1\n      pop\n      jump\t// out\n        /* \"#utility.yul\":10982:11401   */\n    tag_128:\n        /* \"#utility.yul\":11148:11152   */\n      0x00\n        /* \"#utility.yul\":11186:11188   */\n      0x20\n        /* \"#utility.yul\":11175:11184   */\n      dup3\n        /* \"#utility.yul\":11171:11189   */\n      add\n        /* \"#utility.yul\":11163:11189   */\n      swap1\n      pop\n        /* \"#utility.yul\":11235:11244   */\n      dup2\n        /* \"#utility.yul\":11229:11233   */\n      dup2\n        /* \"#utility.yul\":11225:11245   */\n      sub\n        /* \"#utility.yul\":11221:11222   */\n      0x00\n        /* \"#utility.yul\":11210:11219   */\n      dup4\n        /* \"#utility.yul\":11206:11223   */\n      add\n        /* \"#utility.yul\":11199:11246   */\n      mstore\n        /* \"#utility.yul\":11263:11394   */\n      tag_530\n        /* \"#utility.yul\":11389:11393   */\n      dup2\n        /* \"#utility.yul\":11263:11394   */\n      tag_387\n      jump\t// in\n    tag_530:\n        /* \"#utility.yul\":11255:11394   */\n      swap1\n      pop\n        /* \"#utility.yul\":10982:11401   */\n      swap2\n      swap1\n      pop\n      jump\t// out\n        /* \"#utility.yul\":11407:11576   */\n    tag_388:\n        /* \"#utility.yul\":11547:11568   */\n      0x496e76616c6964207374616b6520696e64657800000000000000000000000000\n        /* \"#utility.yul\":11543:11544   */\n      0x00\n        /* \"#utility.yul\":11535:11541   */\n      dup3\n        /* \"#utility.yul\":11531:11545   */\n      add\n        /* \"#utility.yul\":11524:11569   */\n      mstore\n        /* \"#utility.yul\":11407:11576   */\n      pop\n      jump\t// out\n        /* \"#utility.yul\":11582:11948   */\n    tag_389:\n        /* \"#utility.yul\":11724:11727   */\n      0x00\n        /* \"#utility.yul\":11745:11812   */\n      tag_533\n        /* \"#utility.yul\":11809:11811   */\n      0x13\n        /* \"#utility.yul\":11804:11807   */\n      dup4\n        /* \"#utility.yul\":11745:11812   */\n      tag_385\n      jump\t// in\n    tag_533:\n        /* \"#utility.yul\":11738:11812   */\n      swap2\n      pop\n        /* \"#utility.yul\":11821:11914   */\n      tag_534\n        /* \"#utility.yul\":11910:11913   */\n      dup3\n        /* \"#utility.yul\":11821:11914   */\n      tag_388\n      jump\t// in\n    tag_534:\n        /* \"#utility.yul\":11939:11941   */\n      0x20\n        /* \"#utility.yul\":11934:11937   */\n      dup3\n        /* \"#utility.yul\":11930:11942   */\n      add\n        /* \"#utility.yul\":11923:11942   */\n      swap1\n      pop\n        /* \"#utility.yul\":11582:11948   */\n      swap2\n      swap1\n      pop\n      jump\t// out\n        /* \"#utility.yul\":11954:12373   */\n    tag_131:\n        /* \"#utility.yul\":12120:12124   */\n      0x00\n        /* \"#utility.yul\":12158:12160   */\n      0x20\n        /* \"#utility.yul\":12147:12156   */\n      dup3\n        /* \"#utility.yul\":12143:12161   */\n      add\n        /* \"#utility.yul\":12135:12161   */\n      swap1\n      pop\n        /* \"#utility.yul\":12207:12216   */\n      dup2\n        /* \"#utility.yul\":12201:12205   */\n      dup2\n        /* \"#utility.yul\":12197:12217   */\n      sub\n        /* \"#utility.yul\":12193:12194   */\n      0x00\n        /* \"#utility.yul\":12182:12191   */\n      dup4\n        /* \"#utility.yul\":12178:12195   */\n      add\n        /* \"#utility.yul\":12171:12218   */\n      mstore\n        /* \"#utility.yul\":12235:12366   */\n      tag_536\n        /* \"#utility.yul\":12361:12365   */\n      dup2\n        /* \"#utility.yul\":12235:12366   */\n      tag_389\n      jump\t// in\n    tag_536:\n        /* \"#utility.yul\":12227:12366   */\n      swap1\n      pop\n        /* \"#utility.yul\":11954:12373   */\n      swap2\n      swap1\n      pop\n      jump\t// out\n        /* \"#utility.yul\":12379:12559   */\n    tag_134:\n        /* \"#utility.yul\":12427:12504   */\n      0x4e487b7100000000000000000000000000000000000000000000000000000000\n        /* \"#utility.yul\":12424:12425   */\n      0x00\n        /* \"#utility.yul\":12417:12505   */\n      mstore\n        /* \"#utility.yul\":12524:12528   */\n      0x32\n        /* \"#utility.yul\":12521:12522   */\n      0x04\n        /* \"#utility.yul\":12514:12529   */\n      mstore\n        /* \"#utility.yul\":12548:12552   */\n      0x24\n        /* \"#utility.yul\":12545:12546   */\n      0x00\n        /* \"#utility.yul\":12538:12553   */\n      revert\n        /* \"#utility.yul\":12565:12730   */\n    tag_390:\n        /* \"#utility.yul\":12705:12722   */\n      0x416c726561647920636c61696d65640000000000000000000000000000000000\n        /* \"#utility.yul\":12701:12702   */\n      0x00\n        /* \"#utility.yul\":12693:12699   */\n      dup3\n        /* \"#utility.yul\":12689:12703   */\n      add\n        /* \"#utility.yul\":12682:12723   */\n      mstore\n        /* \"#utility.yul\":12565:12730   */\n      pop\n      jump\t// out\n        /* \"#utility.yul\":12736:13102   */\n    tag_391:\n        /* \"#utility.yul\":12878:12881   */\n      0x00\n        /* \"#utility.yul\":12899:12966   */\n      tag_540\n        /* \"#utility.yul\":12963:12965   */\n      0x0f\n        /* \"#utility.yul\":12958:12961   */\n      dup4\n        /* \"#utility.yul\":12899:12966   */\n      tag_385\n      jump\t// in\n    tag_540:\n        /* \"#utility.yul\":12892:12966   */\n      swap2\n      pop\n        /* \"#utility.yul\":12975:13068   */\n      tag_541\n        /* \"#utility.yul\":13064:13067   */\n      dup3\n        /* \"#utility.yul\":12975:13068   */\n      tag_390\n      jump\t// in\n    tag_541:\n        /* \"#utility.yul\":13093:13095   */\n      0x20\n        /* \"#utility.yul\":13088:13091   */\n      dup3\n        /* \"#utility.yul\":13084:13096   */\n      add\n        /* \"#utility.yul\":13077:13096   */\n      swap1\n      pop\n        /* \"#utility.yul\":12736:13102   */\n      swap2\n      swap1\n      pop\n      jump\t// out\n        /* \"#utility.yul\":13108:13527   */\n    tag_138:\n        /* \"#utility.yul\":13274:13278   */\n      0x00\n        /* \"#utility.yul\":13312:13314   */\n      0x20\n        /* \"#utility.yul\":13301:13310   */\n      dup3\n        /* \"#utility.yul\":13297:13315   */\n      add\n        /* \"#utility.yul\":13289:13315   */\n      swap1\n      pop\n        /* \"#utility.yul\":13361:13370   */\n      dup2\n        /* \"#utility.yul\":13355:13359   */\n      dup2\n        /* \"#utility.yul\":13351:13371   */\n      sub\n        /* \"#utility.yul\":13347:13348   */\n      0x00\n        /* \"#utility.yul\":13336:13345   */\n      dup4\n        /* \"#utility.yul\":13332:13349   */\n      add\n        /* \"#utility.yul\":13325:13372   */\n      mstore\n        /* \"#utility.yul\":13389:13520   */\n      tag_543\n        /* \"#utility.yul\":13515:13519   */\n      dup2\n        /* \"#utility.yul\":13389:13520   */\n      tag_391\n      jump\t// in\n    tag_543:\n        /* \"#utility.yul\":13381:13520   */\n      swap1\n      pop\n        /* \"#utility.yul\":13108:13527   */\n      swap2\n      swap1\n      pop\n      jump\t// out\n        /* \"#utility.yul\":13533:13713   */\n    tag_392:\n        /* \"#utility.yul\":13581:13658   */\n      0x4e487b7100000000000000000000000000000000000000000000000000000000\n        /* \"#utility.yul\":13578:13579   */\n      0x00\n        /* \"#utility.yul\":13571:13659   */\n      mstore\n        /* \"#utility.yul\":13678:13682   */\n      0x11\n        /* \"#utility.yul\":13675:13676   */\n      0x04\n        /* \"#utility.yul\":13668:13683   */\n      mstore\n        /* \"#utility.yul\":13702:13706   */\n      0x24\n        /* \"#utility.yul\":13699:13700   */\n      0x00\n        /* \"#utility.yul\":13692:13707   */\n      revert\n        /* \"#utility.yul\":13719:13913   */\n    tag_142:\n        /* \"#utility.yul\":13759:13763   */\n      0x00\n        /* \"#utility.yul\":13779:13799   */\n      tag_546\n        /* \"#utility.yul\":13797:13798   */\n      dup3\n        /* \"#utility.yul\":13779:13799   */\n      tag_362\n      jump\t// in\n    tag_546:\n        /* \"#utility.yul\":13774:13799   */\n      swap2\n      pop\n        /* \"#utility.yul\":13813:13833   */\n      tag_547\n        /* \"#utility.yul\":13831:13832   */\n      dup4\n        /* \"#utility.yul\":13813:13833   */\n      tag_362\n      jump\t// in\n    tag_547:\n        /* \"#utility.yul\":13808:13833   */\n      swap3\n      pop\n        /* \"#utility.yul\":13857:13858   */\n      dup3\n        /* \"#utility.yul\":13854:13855   */\n      dup3\n        /* \"#utility.yul\":13850:13859   */\n      sub\n        /* \"#utility.yul\":13842:13859   */\n      swap1\n      pop\n        /* \"#utility.yul\":13881:13882   */\n      dup2\n        /* \"#utility.yul\":13875:13879   */\n      dup2\n        /* \"#utility.yul\":13872:13883   */\n      gt\n        /* \"#utility.yul\":13869:13906   */\n      iszero\n      tag_548\n      jumpi\n        /* \"#utility.yul\":13886:13904   */\n      tag_549\n      tag_392\n      jump\t// in\n    tag_549:\n        /* \"#utility.yul\":13869:13906   */\n    tag_548:\n        /* \"#utility.yul\":13719:13913   */\n      swap3\n      swap2\n      pop\n      pop\n      jump\t// out\n        /* \"#utility.yul\":13919:14110   */\n    tag_150:\n        /* \"#utility.yul\":13959:13962   */\n      0x00\n        /* \"#utility.yul\":13978:13998   */\n      tag_551\n        /* \"#utility.yul\":13996:13997   */\n      dup3\n        /* \"#utility.yul\":13978:13998   */\n      tag_362\n      jump\t// in\n    tag_551:\n        /* \"#utility.yul\":13973:13998   */\n      swap2\n      pop\n        /* \"#utility.yul\":14012:14032   */\n      tag_552\n        /* \"#utility.yul\":14030:14031   */\n      dup4\n        /* \"#utility.yul\":14012:14032   */\n      tag_362\n      jump\t// in\n    tag_552:\n        /* \"#utility.yul\":14007:14032   */\n      swap3\n      pop\n        /* \"#utility.yul\":14055:14056   */\n      dup3\n        /* \"#utility.yul\":14052:14053   */\n      dup3\n        /* \"#utility.yul\":14048:14057   */\n      add\n        /* \"#utility.yul\":14041:14057   */\n      swap1\n      pop\n        /* \"#utility.yul\":14076:14079   */\n      dup1\n        /* \"#utility.yul\":14073:14074   */\n      dup3\n        /* \"#utility.yul\":14070:14080   */\n      gt\n        /* \"#utility.yul\":14067:14103   */\n      iszero\n      tag_553\n      jumpi\n        /* \"#utility.yul\":14083:14101   */\n      tag_554\n      tag_392\n      jump\t// in\n    tag_554:\n        /* \"#utility.yul\":14067:14103   */\n    tag_553:\n        /* \"#utility.yul\":13919:14110   */\n      swap3\n      swap2\n      pop\n      pop\n      jump\t// out\n        /* \"#utility.yul\":14116:14526   */\n    tag_152:\n        /* \"#utility.yul\":14156:14163   */\n      0x00\n        /* \"#utility.yul\":14179:14199   */\n      tag_556\n        /* \"#utility.yul\":14197:14198   */\n      dup3\n        /* \"#utility.yul\":14179:14199   */\n      tag_362\n      jump\t// in\n    tag_556:\n        /* \"#utility.yul\":14174:14199   */\n      swap2\n      pop\n        /* \"#utility.yul\":14213:14233   */\n      tag_557\n        /* \"#utility.yul\":14231:14232   */\n      dup4\n        /* \"#utility.yul\":14213:14233   */\n      tag_362\n      jump\t// in\n    tag_557:\n        /* \"#utility.yul\":14208:14233   */\n      swap3\n      pop\n        /* \"#utility.yul\":14268:14269   */\n      dup3\n        /* \"#utility.yul\":14265:14266   */\n      dup3\n        /* \"#utility.yul\":14261:14270   */\n      mul\n        /* \"#utility.yul\":14290:14320   */\n      tag_558\n        /* \"#utility.yul\":14308:14319   */\n      dup2\n        /* \"#utility.yul\":14290:14320   */\n      tag_362\n      jump\t// in\n    tag_558:\n        /* \"#utility.yul\":14279:14320   */\n      swap2\n      pop\n        /* \"#utility.yul\":14469:14470   */\n      dup3\n        /* \"#utility.yul\":14460:14467   */\n      dup3\n        /* \"#utility.yul\":14456:14471   */\n      div\n        /* \"#utility.yul\":14453:14454   */\n      dup5\n        /* \"#utility.yul\":14450:14472   */\n      eq\n        /* \"#utility.yul\":14430:14431   */\n      dup4\n        /* \"#utility.yul\":14423:14432   */\n      iszero\n        /* \"#utility.yul\":14403:14486   */\n      or\n        /* \"#utility.yul\":14380:14519   */\n      tag_559\n      jumpi\n        /* \"#utility.yul\":14499:14517   */\n      tag_560\n      tag_392\n      jump\t// in\n    tag_560:\n        /* \"#utility.yul\":14380:14519   */\n    tag_559:\n        /* \"#utility.yul\":14164:14526   */\n      pop\n        /* \"#utility.yul\":14116:14526   */\n      swap3\n      swap2\n      pop\n      pop\n      jump\t// out\n        /* \"#utility.yul\":14532:14712   */\n    tag_393:\n        /* \"#utility.yul\":14580:14657   */\n      0x4e487b7100000000000000000000000000000000000000000000000000000000\n        /* \"#utility.yul\":14577:14578   */\n      0x00\n        /* \"#utility.yul\":14570:14658   */\n      mstore\n        /* \"#utility.yul\":14677:14681   */\n      0x12\n        /* \"#utility.yul\":14674:14675   */\n      0x04\n        /* \"#utility.yul\":14667:14682   */\n      mstore\n        /* \"#utility.yul\":14701:14705   */\n      0x24\n        /* \"#utility.yul\":14698:14699   */\n      0x00\n        /* \"#utility.yul\":14691:14706   */\n      revert\n        /* \"#utility.yul\":14718:14903   */\n    tag_156:\n        /* \"#utility.yul\":14758:14759   */\n      0x00\n        /* \"#utility.yul\":14775:14795   */\n      tag_563\n        /* \"#utility.yul\":14793:14794   */\n      dup3\n        /* \"#utility.yul\":14775:14795   */\n      tag_362\n      jump\t// in\n    tag_563:\n        /* \"#utility.yul\":14770:14795   */\n      swap2\n      pop\n        /* \"#utility.yul\":14809:14829   */\n      tag_564\n        /* \"#utility.yul\":14827:14828   */\n      dup4\n        /* \"#utility.yul\":14809:14829   */\n      tag_362\n      jump\t// in\n    tag_564:\n        /* \"#utility.yul\":14804:14829   */\n      swap3\n      pop\n        /* \"#utility.yul\":14848:14849   */\n      dup3\n        /* \"#utility.yul\":14838:14873   */\n      tag_565\n      jumpi\n        /* \"#utility.yul\":14853:14871   */\n      tag_566\n      tag_393\n      jump\t// in\n    tag_566:\n        /* \"#utility.yul\":14838:14873   */\n    tag_565:\n        /* \"#utility.yul\":14895:14896   */\n      dup3\n        /* \"#utility.yul\":14892:14893   */\n      dup3\n        /* \"#utility.yul\":14888:14897   */\n      div\n        /* \"#utility.yul\":14883:14897   */\n      swap1\n      pop\n        /* \"#utility.yul\":14718:14903   */\n      swap3\n      swap2\n      pop\n      pop\n      jump\t// out\n        /* \"#utility.yul\":14909:15077   */\n    tag_394:\n        /* \"#utility.yul\":15049:15069   */\n      0x43616c6c6572206d75737420626520454f410000000000000000000000000000\n        /* \"#utility.yul\":15045:15046   */\n      0x00\n        /* \"#utility.yul\":15037:15043   */\n      dup3\n        /* \"#utility.yul\":15033:15047   */\n      add\n        /* \"#utility.yul\":15026:15070   */\n      mstore\n        /* \"#utility.yul\":14909:15077   */\n      pop\n      jump\t// out\n        /* \"#utility.yul\":15083:15449   */\n    tag_395:\n        /* \"#utility.yul\":15225:15228   */\n      0x00\n        /* \"#utility.yul\":15246:15313   */\n      tag_569\n        /* \"#utility.yul\":15310:15312   */\n      0x12\n        /* \"#utility.yul\":15305:15308   */\n      dup4\n        /* \"#utility.yul\":15246:15313   */\n      tag_385\n      jump\t// in\n    tag_569:\n        /* \"#utility.yul\":15239:15313   */\n      swap2\n      pop\n        /* \"#utility.yul\":15322:15415   */\n      tag_570\n        /* \"#utility.yul\":15411:15414   */\n      dup3\n        /* \"#utility.yul\":15322:15415   */\n      tag_394\n      jump\t// in\n    tag_570:\n        /* \"#utility.yul\":15440:15442   */\n      0x20\n        /* \"#utility.yul\":15435:15438   */\n      dup3\n        /* \"#utility.yul\":15431:15443   */\n      add\n        /* \"#utility.yul\":15424:15443   */\n      swap1\n      pop\n        /* \"#utility.yul\":15083:15449   */\n      swap2\n      swap1\n      pop\n      jump\t// out\n        /* \"#utility.yul\":15455:15874   */\n    tag_163:\n        /* \"#utility.yul\":15621:15625   */\n      0x00\n        /* \"#utility.yul\":15659:15661   */\n      0x20\n        /* \"#utility.yul\":15648:15657   */\n      dup3\n        /* \"#utility.yul\":15644:15662   */\n      add\n        /* \"#utility.yul\":15636:15662   */\n      swap1\n      pop\n        /* \"#utility.yul\":15708:15717   */\n      dup2\n        /* \"#utility.yul\":15702:15706   */\n      dup2\n        /* \"#utility.yul\":15698:15718   */\n      sub\n        /* \"#utility.yul\":15694:15695   */\n      0x00\n        /* \"#utility.yul\":15683:15692   */\n      dup4\n        /* \"#utility.yul\":15679:15696   */\n      add\n        /* \"#utility.yul\":15672:15719   */\n      mstore\n        /* \"#utility.yul\":15736:15867   */\n      tag_572\n        /* \"#utility.yul\":15862:15866   */\n      dup2\n        /* \"#utility.yul\":15736:15867   */\n      tag_395\n      jump\t// in\n    tag_572:\n        /* \"#utility.yul\":15728:15867   */\n      swap1\n      pop\n        /* \"#utility.yul\":15455:15874   */\n      swap2\n      swap1\n      pop\n      jump\t// out\n        /* \"#utility.yul\":15880:16051   */\n    tag_396:\n        /* \"#utility.yul\":16020:16043   */\n      0x4175746f2d7374616b696e672064697361626c65640000000000000000000000\n        /* \"#utility.yul\":16016:16017   */\n      0x00\n        /* \"#utility.yul\":16008:16014   */\n      dup3\n        /* \"#utility.yul\":16004:16018   */\n      add\n        /* \"#utility.yul\":15997:16044   */\n      mstore\n        /* \"#utility.yul\":15880:16051   */\n      pop\n      jump\t// out\n        /* \"#utility.yul\":16057:16423   */\n    tag_397:\n        /* \"#utility.yul\":16199:16202   */\n      0x00\n        /* \"#utility.yul\":16220:16287   */\n      tag_575\n        /* \"#utility.yul\":16284:16286   */\n      0x15\n        /* \"#utility.yul\":16279:16282   */\n      dup4\n        /* \"#utility.yul\":16220:16287   */\n      tag_385\n      jump\t// in\n    tag_575:\n        /* \"#utility.yul\":16213:16287   */\n      swap2\n      pop\n        /* \"#utility.yul\":16296:16389   */\n      tag_576\n        /* \"#utility.yul\":16385:16388   */\n      dup3\n        /* \"#utility.yul\":16296:16389   */\n      tag_396\n      jump\t// in\n    tag_576:\n        /* \"#utility.yul\":16414:16416   */\n      0x20\n        /* \"#utility.yul\":16409:16412   */\n      dup3\n        /* \"#utility.yul\":16405:16417   */\n      add\n        /* \"#utility.yul\":16398:16417   */\n      swap1\n      pop\n        /* \"#utility.yul\":16057:16423   */\n      swap2\n      swap1\n      pop\n      jump\t// out\n        /* \"#utility.yul\":16429:16848   */\n    tag_174:\n        /* \"#utility.yul\":16595:16599   */\n      0x00\n        /* \"#utility.yul\":16633:16635   */\n      0x20\n        /* \"#utility.yul\":16622:16631   */\n      dup3\n        /* \"#utility.yul\":16618:16636   */\n      add\n        /* \"#utility.yul\":16610:16636   */\n      swap1\n      pop\n        /* \"#utility.yul\":16682:16691   */\n      dup2\n        /* \"#utility.yul\":16676:16680   */\n      dup2\n        /* \"#utility.yul\":16672:16692   */\n      sub\n        /* \"#utility.yul\":16668:16669   */\n      0x00\n        /* \"#utility.yul\":16657:16666   */\n      dup4\n        /* \"#utility.yul\":16653:16670   */\n      add\n        /* \"#utility.yul\":16646:16693   */\n      mstore\n        /* \"#utility.yul\":16710:16841   */\n      tag_578\n        /* \"#utility.yul\":16836:16840   */\n      dup2\n        /* \"#utility.yul\":16710:16841   */\n      tag_397\n      jump\t// in\n    tag_578:\n        /* \"#utility.yul\":16702:16841   */\n      swap1\n      pop\n        /* \"#utility.yul\":16429:16848   */\n      swap2\n      swap1\n      pop\n      jump\t// out\n        /* \"#utility.yul\":16854:17016   */\n    tag_398:\n        /* \"#utility.yul\":16994:17008   */\n      0x5374696c6c206c6f636b65640000000000000000000000000000000000000000\n        /* \"#utility.yul\":16990:16991   */\n      0x00\n        /* \"#utility.yul\":16982:16988   */\n      dup3\n        /* \"#utility.yul\":16978:16992   */\n      add\n        /* \"#utility.yul\":16971:17009   */\n      mstore\n        /* \"#utility.yul\":16854:17016   */\n      pop\n      jump\t// out\n        /* \"#utility.yul\":17022:17388   */\n    tag_399:\n        /* \"#utility.yul\":17164:17167   */\n      0x00\n        /* \"#utility.yul\":17185:17252   */\n      tag_581\n        /* \"#utility.yul\":17249:17251   */\n      0x0c\n        /* \"#utility.yul\":17244:17247   */\n      dup4\n        /* \"#utility.yul\":17185:17252   */\n      tag_385\n      jump\t// in\n    tag_581:\n        /* \"#utility.yul\":17178:17252   */\n      swap2\n      pop\n        /* \"#utility.yul\":17261:17354   */\n      tag_582\n        /* \"#utility.yul\":17350:17353   */\n      dup3\n        /* \"#utility.yul\":17261:17354   */\n      tag_398\n      jump\t// in\n    tag_582:\n        /* \"#utility.yul\":17379:17381   */\n      0x20\n        /* \"#utility.yul\":17374:17377   */\n      dup3\n        /* \"#utility.yul\":17370:17382   */\n      add\n        /* \"#utility.yul\":17363:17382   */\n      swap1\n      pop\n        /* \"#utility.yul\":17022:17388   */\n      swap2\n      swap1\n      pop\n      jump\t// out\n        /* \"#utility.yul\":17394:17813   */\n    tag_177:\n        /* \"#utility.yul\":17560:17564   */\n      0x00\n        /* \"#utility.yul\":17598:17600   */\n      0x20\n        /* \"#utility.yul\":17587:17596   */\n      dup3\n        /* \"#utility.yul\":17583:17601   */\n      add\n        /* \"#utility.yul\":17575:17601   */\n      swap1\n      pop\n        /* \"#utility.yul\":17647:17656   */\n      dup2\n        /* \"#utility.yul\":17641:17645   */\n      dup2\n        /* \"#utility.yul\":17637:17657   */\n      sub\n        /* \"#utility.yul\":17633:17634   */\n      0x00\n        /* \"#utility.yul\":17622:17631   */\n      dup4\n        /* \"#utility.yul\":17618:17635   */\n      add\n        /* \"#utility.yul\":17611:17658   */\n      mstore\n        /* \"#utility.yul\":17675:17806   */\n      tag_584\n        /* \"#utility.yul\":17801:17805   */\n      dup2\n        /* \"#utility.yul\":17675:17806   */\n      tag_399\n      jump\t// in\n    tag_584:\n        /* \"#utility.yul\":17667:17806   */\n      swap1\n      pop\n        /* \"#utility.yul\":17394:17813   */\n      swap2\n      swap1\n      pop\n      jump\t// out\n        /* \"#utility.yul\":17819:17993   */\n    tag_400:\n        /* \"#utility.yul\":17959:17985   */\n      0x496e73756666696369656e742072657761726420706f6f6c0000000000000000\n        /* \"#utility.yul\":17955:17956   */\n      0x00\n        /* \"#utility.yul\":17947:17953   */\n      dup3\n        /* \"#utility.yul\":17943:17957   */\n      add\n        /* \"#utility.yul\":17936:17986   */\n      mstore\n        /* \"#utility.yul\":17819:17993   */\n      pop\n      jump\t// out\n        /* \"#utility.yul\":17999:18365   */\n    tag_401:\n        /* \"#utility.yul\":18141:18144   */\n      0x00\n        /* \"#utility.yul\":18162:18229   */\n      tag_587\n        /* \"#utility.yul\":18226:18228   */\n      0x18\n        /* \"#utility.yul\":18221:18224   */\n      dup4\n        /* \"#utility.yul\":18162:18229   */\n      tag_385\n      jump\t// in\n    tag_587:\n        /* \"#utility.yul\":18155:18229   */\n      swap2\n      pop\n        /* \"#utility.yul\":18238:18331   */\n      tag_588\n        /* \"#utility.yul\":18327:18330   */\n      dup3\n        /* \"#utility.yul\":18238:18331   */\n      tag_400\n      jump\t// in\n    tag_588:\n        /* \"#utility.yul\":18356:18358   */\n      0x20\n        /* \"#utility.yul\":18351:18354   */\n      dup3\n        /* \"#utility.yul\":18347:18359   */\n      add\n        /* \"#utility.yul\":18340:18359   */\n      swap1\n      pop\n        /* \"#utility.yul\":17999:18365   */\n      swap2\n      swap1\n      pop\n      jump\t// out\n        /* \"#utility.yul\":18371:18790   */\n    tag_181:\n        /* \"#utility.yul\":18537:18541   */\n      0x00\n        /* \"#utility.yul\":18575:18577   */\n      0x20\n        /* \"#utility.yul\":18564:18573   */\n      dup3\n        /* \"#utility.yul\":18560:18578   */\n      add\n        /* \"#utility.yul\":18552:18578   */\n      swap1\n      pop\n        /* \"#utility.yul\":18624:18633   */\n      dup2\n        /* \"#utility.yul\":18618:18622   */\n      dup2\n        /* \"#utility.yul\":18614:18634   */\n      sub\n        /* \"#utility.yul\":18610:18611   */\n      0x00\n        /* \"#utility.yul\":18599:18608   */\n      dup4\n        /* \"#utility.yul\":18595:18612   */\n      add\n        /* \"#utility.yul\":18588:18635   */\n      mstore\n        /* \"#utility.yul\":18652:18783   */\n      tag_590\n        /* \"#utility.yul\":18778:18782   */\n      dup2\n        /* \"#utility.yul\":18652:18783   */\n      tag_401\n      jump\t// in\n    tag_590:\n        /* \"#utility.yul\":18644:18783   */\n      swap1\n      pop\n        /* \"#utility.yul\":18371:18790   */\n      swap2\n      swap1\n      pop\n      jump\t// out\n        /* \"#utility.yul\":18796:19128   */\n    tag_187:\n        /* \"#utility.yul\":18917:18921   */\n      0x00\n        /* \"#utility.yul\":18955:18957   */\n      0x40\n        /* \"#utility.yul\":18944:18953   */\n      dup3\n        /* \"#utility.yul\":18940:18958   */\n      add\n        /* \"#utility.yul\":18932:18958   */\n      swap1\n      pop\n        /* \"#utility.yul\":18968:19039   */\n      tag_592\n        /* \"#utility.yul\":19036:19037   */\n      0x00\n        /* \"#utility.yul\":19025:19034   */\n      dup4\n        /* \"#utility.yul\":19021:19038   */\n      add\n        /* \"#utility.yul\":19012:19018   */\n      dup6\n        /* \"#utility.yul\":18968:19039   */\n      tag_363\n      jump\t// in\n    tag_592:\n        /* \"#utility.yul\":19049:19121   */\n      tag_593\n        /* \"#utility.yul\":19117:19119   */\n      0x20\n        /* \"#utility.yul\":19106:19115   */\n      dup4\n        /* \"#utility.yul\":19102:19120   */\n      add\n        /* \"#utility.yul\":19093:19099   */\n      dup5\n        /* \"#utility.yul\":19049:19121   */\n      tag_363\n      jump\t// in\n    tag_593:\n        /* \"#utility.yul\":18796:19128   */\n      swap4\n      swap3\n      pop\n      pop\n      pop\n      jump\t// out\n        /* \"#utility.yul\":19134:19304   */\n    tag_402:\n        /* \"#utility.yul\":19274:19296   */\n      0x496e76616c696420706572696f6420696e646578000000000000000000000000\n        /* \"#utility.yul\":19270:19271   */\n      0x00\n        /* \"#utility.yul\":19262:19268   */\n      dup3\n        /* \"#utility.yul\":19258:19272   */\n      add\n        /* \"#utility.yul\":19251:19297   */\n      mstore\n        /* \"#utility.yul\":19134:19304   */\n      pop\n      jump\t// out\n        /* \"#utility.yul\":19310:19676   */\n    tag_403:\n        /* \"#utility.yul\":19452:19455   */\n      0x00\n        /* \"#utility.yul\":19473:19540   */\n      tag_596\n        /* \"#utility.yul\":19537:19539   */\n      0x14\n        /* \"#utility.yul\":19532:19535   */\n      dup4\n        /* \"#utility.yul\":19473:19540   */\n      tag_385\n      jump\t// in\n    tag_596:\n        /* \"#utility.yul\":19466:19540   */\n      swap2\n      pop\n        /* \"#utility.yul\":19549:19642   */\n      tag_597\n        /* \"#utility.yul\":19638:19641   */\n      dup3\n        /* \"#utility.yul\":19549:19642   */\n      tag_402\n      jump\t// in\n    tag_597:\n        /* \"#utility.yul\":19667:19669   */\n      0x20\n        /* \"#utility.yul\":19662:19665   */\n      dup3\n        /* \"#utility.yul\":19658:19670   */\n      add\n        /* \"#utility.yul\":19651:19670   */\n      swap1\n      pop\n        /* \"#utility.yul\":19310:19676   */\n      swap2\n      swap1\n      pop\n      jump\t// out\n        /* \"#utility.yul\":19682:20101   */\n    tag_200:\n        /* \"#utility.yul\":19848:19852   */\n      0x00\n        /* \"#utility.yul\":19886:19888   */\n      0x20\n        /* \"#utility.yul\":19875:19884   */\n      dup3\n        /* \"#utility.yul\":19871:19889   */\n      add\n        /* \"#utility.yul\":19863:19889   */\n      swap1\n      pop\n        /* \"#utility.yul\":19935:19944   */\n      dup2\n        /* \"#utility.yul\":19929:19933   */\n      dup2\n        /* \"#utility.yul\":19925:19945   */\n      sub\n        /* \"#utility.yul\":19921:19922   */\n      0x00\n        /* \"#utility.yul\":19910:19919   */\n      dup4\n        /* \"#utility.yul\":19906:19923   */\n      add\n        /* \"#utility.yul\":19899:19946   */\n      mstore\n        /* \"#utility.yul\":19963:20094   */\n      tag_599\n        /* \"#utility.yul\":20089:20093   */\n      dup2\n        /* \"#utility.yul\":19963:20094   */\n      tag_403\n      jump\t// in\n    tag_599:\n        /* \"#utility.yul\":19955:20094   */\n      swap1\n      pop\n        /* \"#utility.yul\":19682:20101   */\n      swap2\n      swap1\n      pop\n      jump\t// out\n        /* \"#utility.yul\":20107:20268   */\n    tag_404:\n        /* \"#utility.yul\":20247:20260   */\n      0x5a65726f20616d6f756e74000000000000000000000000000000000000000000\n        /* \"#utility.yul\":20243:20244   */\n      0x00\n        /* \"#utility.yul\":20235:20241   */\n      dup3\n        /* \"#utility.yul\":20231:20245   */\n      add\n        /* \"#utility.yul\":20224:20261   */\n      mstore\n        /* \"#utility.yul\":20107:20268   */\n      pop\n      jump\t// out\n        /* \"#utility.yul\":20274:20640   */\n    tag_405:\n        /* \"#utility.yul\":20416:20419   */\n      0x00\n        /* \"#utility.yul\":20437:20504   */\n      tag_602\n        /* \"#utility.yul\":20501:20503   */\n      0x0b\n        /* \"#utility.yul\":20496:20499   */\n      dup4\n        /* \"#utility.yul\":20437:20504   */\n      tag_385\n      jump\t// in\n    tag_602:\n        /* \"#utility.yul\":20430:20504   */\n      swap2\n      pop\n        /* \"#utility.yul\":20513:20606   */\n      tag_603\n        /* \"#utility.yul\":20602:20605   */\n      dup3\n        /* \"#utility.yul\":20513:20606   */\n      tag_404\n      jump\t// in\n    tag_603:\n        /* \"#utility.yul\":20631:20633   */\n      0x20\n        /* \"#utility.yul\":20626:20629   */\n      dup3\n        /* \"#utility.yul\":20622:20634   */\n      add\n        /* \"#utility.yul\":20615:20634   */\n      swap1\n      pop\n        /* \"#utility.yul\":20274:20640   */\n      swap2\n      swap1\n      pop\n      jump\t// out\n        /* \"#utility.yul\":20646:21065   */\n    tag_203:\n        /* \"#utility.yul\":20812:20816   */\n      0x00\n        /* \"#utility.yul\":20850:20852   */\n      0x20\n        /* \"#utility.yul\":20839:20848   */\n      dup3\n        /* \"#utility.yul\":20835:20853   */\n      add\n        /* \"#utility.yul\":20827:20853   */\n      swap1\n      pop\n        /* \"#utility.yul\":20899:20908   */\n      dup2\n        /* \"#utility.yul\":20893:20897   */\n      dup2\n        /* \"#utility.yul\":20889:20909   */\n      sub\n        /* \"#utility.yul\":20885:20886   */\n      0x00\n        /* \"#utility.yul\":20874:20883   */\n      dup4\n        /* \"#utility.yul\":20870:20887   */\n      add\n        /* \"#utility.yul\":20863:20910   */\n      mstore\n        /* \"#utility.yul\":20927:21058   */\n      tag_605\n        /* \"#utility.yul\":21053:21057   */\n      dup2\n        /* \"#utility.yul\":20927:21058   */\n      tag_405\n      jump\t// in\n    tag_605:\n        /* \"#utility.yul\":20919:21058   */\n      swap1\n      pop\n        /* \"#utility.yul\":20646:21065   */\n      swap2\n      swap1\n      pop\n      jump\t// out\n        /* \"#utility.yul\":21071:21501   */\n    tag_213:\n        /* \"#utility.yul\":21214:21218   */\n      0x00\n        /* \"#utility.yul\":21252:21254   */\n      0x60\n        /* \"#utility.yul\":21241:21250   */\n      dup3\n        /* \"#utility.yul\":21237:21255   */\n      add\n        /* \"#utility.yul\":21229:21255   */\n      swap1\n      pop\n        /* \"#utility.yul\":21265:21336   */\n      tag_607\n        /* \"#utility.yul\":21333:21334   */\n      0x00\n        /* \"#utility.yul\":21322:21331   */\n      dup4\n        /* \"#utility.yul\":21318:21335   */\n      add\n        /* \"#utility.yul\":21309:21315   */\n      dup7\n        /* \"#utility.yul\":21265:21336   */\n      tag_363\n      jump\t// in\n    tag_607:\n        /* \"#utility.yul\":21346:21418   */\n      tag_608\n        /* \"#utility.yul\":21414:21416   */\n      0x20\n        /* \"#utility.yul\":21403:21412   */\n      dup4\n        /* \"#utility.yul\":21399:21417   */\n      add\n        /* \"#utility.yul\":21390:21396   */\n      dup6\n        /* \"#utility.yul\":21346:21418   */\n      tag_363\n      jump\t// in\n    tag_608:\n        /* \"#utility.yul\":21428:21494   */\n      tag_609\n        /* \"#utility.yul\":21490:21492   */\n      0x40\n        /* \"#utility.yul\":21479:21488   */\n      dup4\n        /* \"#utility.yul\":21475:21493   */\n      add\n        /* \"#utility.yul\":21466:21472   */\n      dup5\n        /* \"#utility.yul\":21428:21494   */\n      tag_378\n      jump\t// in\n    tag_609:\n        /* \"#utility.yul\":21071:21501   */\n      swap5\n      swap4\n      pop\n      pop\n      pop\n      pop\n      jump\t// out\n        /* \"#utility.yul\":21507:21669   */\n    tag_406:\n        /* \"#utility.yul\":21647:21661   */\n      0x41505920746f6f20686967680000000000000000000000000000000000000000\n        /* \"#utility.yul\":21643:21644   */\n      0x00\n        /* \"#utility.yul\":21635:21641   */\n      dup3\n        /* \"#utility.yul\":21631:21645   */\n      add\n        /* \"#utility.yul\":21624:21662   */\n      mstore\n        /* \"#utility.yul\":21507:21669   */\n      pop\n      jump\t// out\n        /* \"#utility.yul\":21675:22041   */\n    tag_407:\n        /* \"#utility.yul\":21817:21820   */\n      0x00\n        /* \"#utility.yul\":21838:21905   */\n      tag_612\n        /* \"#utility.yul\":21902:21904   */\n      0x0c\n        /* \"#utility.yul\":21897:21900   */\n      dup4\n        /* \"#utility.yul\":21838:21905   */\n      tag_385\n      jump\t// in\n    tag_612:\n        /* \"#utility.yul\":21831:21905   */\n      swap2\n      pop\n        /* \"#utility.yul\":21914:22007   */\n      tag_613\n        /* \"#utility.yul\":22003:22006   */\n      dup3\n        /* \"#utility.yul\":21914:22007   */\n      tag_406\n      jump\t// in\n    tag_613:\n        /* \"#utility.yul\":22032:22034   */\n      0x20\n        /* \"#utility.yul\":22027:22030   */\n      dup3\n        /* \"#utility.yul\":22023:22035   */\n      add\n        /* \"#utility.yul\":22016:22035   */\n      swap1\n      pop\n        /* \"#utility.yul\":21675:22041   */\n      swap2\n      swap1\n      pop\n      jump\t// out\n        /* \"#utility.yul\":22047:22466   */\n    tag_225:\n        /* \"#utility.yul\":22213:22217   */\n      0x00\n        /* \"#utility.yul\":22251:22253   */\n      0x20\n        /* \"#utility.yul\":22240:22249   */\n      dup3\n        /* \"#utility.yul\":22236:22254   */\n      add\n        /* \"#utility.yul\":22228:22254   */\n      swap1\n      pop\n        /* \"#utility.yul\":22300:22309   */\n      dup2\n        /* \"#utility.yul\":22294:22298   */\n      dup2\n        /* \"#utility.yul\":22290:22310   */\n      sub\n        /* \"#utility.yul\":22286:22287   */\n      0x00\n        /* \"#utility.yul\":22275:22284   */\n      dup4\n        /* \"#utility.yul\":22271:22288   */\n      add\n        /* \"#utility.yul\":22264:22311   */\n      mstore\n        /* \"#utility.yul\":22328:22459   */\n      tag_615\n        /* \"#utility.yul\":22454:22458   */\n      dup2\n        /* \"#utility.yul\":22328:22459   */\n      tag_407\n      jump\t// in\n    tag_615:\n        /* \"#utility.yul\":22320:22459   */\n      swap1\n      pop\n        /* \"#utility.yul\":22047:22466   */\n      swap2\n      swap1\n      pop\n      jump\t// out\n        /* \"#utility.yul\":22472:22792   */\n    tag_247:\n        /* \"#utility.yul\":22587:22591   */\n      0x00\n        /* \"#utility.yul\":22625:22627   */\n      0x40\n        /* \"#utility.yul\":22614:22623   */\n      dup3\n        /* \"#utility.yul\":22610:22628   */\n      add\n        /* \"#utility.yul\":22602:22628   */\n      swap1\n      pop\n        /* \"#utility.yul\":22638:22709   */\n      tag_617\n        /* \"#utility.yul\":22706:22707   */\n      0x00\n        /* \"#utility.yul\":22695:22704   */\n      dup4\n        /* \"#utility.yul\":22691:22708   */\n      add\n        /* \"#utility.yul\":22682:22688   */\n      dup6\n        /* \"#utility.yul\":22638:22709   */\n      tag_363\n      jump\t// in\n    tag_617:\n        /* \"#utility.yul\":22719:22785   */\n      tag_618\n        /* \"#utility.yul\":22781:22783   */\n      0x20\n        /* \"#utility.yul\":22770:22779   */\n      dup4\n        /* \"#utility.yul\":22766:22784   */\n      add\n        /* \"#utility.yul\":22757:22763   */\n      dup5\n        /* \"#utility.yul\":22719:22785   */\n      tag_378\n      jump\t// in\n    tag_618:\n        /* \"#utility.yul\":22472:22792   */\n      swap4\n      swap3\n      pop\n      pop\n      pop\n      jump\t// out\n        /* \"#utility.yul\":22798:22968   */\n    tag_408:\n        /* \"#utility.yul\":22938:22960   */\n      0x496e76616c696420666565207265636569766572000000000000000000000000\n        /* \"#utility.yul\":22934:22935   */\n      0x00\n        /* \"#utility.yul\":22926:22932   */\n      dup3\n        /* \"#utility.yul\":22922:22936   */\n      add\n        /* \"#utility.yul\":22915:22961   */\n      mstore\n        /* \"#utility.yul\":22798:22968   */\n      pop\n      jump\t// out\n        /* \"#utility.yul\":22974:23340   */\n    tag_409:\n        /* \"#utility.yul\":23116:23119   */\n      0x00\n        /* \"#utility.yul\":23137:23204   */\n      tag_621\n        /* \"#utility.yul\":23201:23203   */\n      0x14\n        /* \"#utility.yul\":23196:23199   */\n      dup4\n        /* \"#utility.yul\":23137:23204   */\n      tag_385\n      jump\t// in\n    tag_621:\n        /* \"#utility.yul\":23130:23204   */\n      swap2\n      pop\n        /* \"#utility.yul\":23213:23306   */\n      tag_622\n        /* \"#utility.yul\":23302:23305   */\n      dup3\n        /* \"#utility.yul\":23213:23306   */\n      tag_408\n      jump\t// in\n    tag_622:\n        /* \"#utility.yul\":23331:23333   */\n      0x20\n        /* \"#utility.yul\":23326:23329   */\n      dup3\n        /* \"#utility.yul\":23322:23334   */\n      add\n        /* \"#utility.yul\":23315:23334   */\n      swap1\n      pop\n        /* \"#utility.yul\":22974:23340   */\n      swap2\n      swap1\n      pop\n      jump\t// out\n        /* \"#utility.yul\":23346:23765   */\n    tag_293:\n        /* \"#utility.yul\":23512:23516   */\n      0x00\n        /* \"#utility.yul\":23550:23552   */\n      0x20\n        /* \"#utility.yul\":23539:23548   */\n      dup3\n        /* \"#utility.yul\":23535:23553   */\n      add\n        /* \"#utility.yul\":23527:23553   */\n      swap1\n      pop\n        /* \"#utility.yul\":23599:23608   */\n      dup2\n        /* \"#utility.yul\":23593:23597   */\n      dup2\n        /* \"#utility.yul\":23589:23609   */\n      sub\n        /* \"#utility.yul\":23585:23586   */\n      0x00\n        /* \"#utility.yul\":23574:23583   */\n      dup4\n        /* \"#utility.yul\":23570:23587   */\n      add\n        /* \"#utility.yul\":23563:23610   */\n      mstore\n        /* \"#utility.yul\":23627:23758   */\n      tag_624\n        /* \"#utility.yul\":23753:23757   */\n      dup2\n        /* \"#utility.yul\":23627:23758   */\n      tag_409\n      jump\t// in\n    tag_624:\n        /* \"#utility.yul\":23619:23758   */\n      swap1\n      pop\n        /* \"#utility.yul\":23346:23765   */\n      swap2\n      swap1\n      pop\n      jump\t// out\n        /* \"#utility.yul\":23771:23943   */\n    tag_410:\n        /* \"#utility.yul\":23911:23935   */\n      0x4e6f207265776172647320746f20776974686472617700000000000000000000\n        /* \"#utility.yul\":23907:23908   */\n      0x00\n        /* \"#utility.yul\":23899:23905   */\n      dup3\n        /* \"#utility.yul\":23895:23909   */\n      add\n        /* \"#utility.yul\":23888:23936   */\n      mstore\n        /* \"#utility.yul\":23771:23943   */\n      pop\n      jump\t// out\n        /* \"#utility.yul\":23949:24315   */\n    tag_411:\n        /* \"#utility.yul\":24091:24094   */\n      0x00\n        /* \"#utility.yul\":24112:24179   */\n      tag_627\n        /* \"#utility.yul\":24176:24178   */\n      0x16\n        /* \"#utility.yul\":24171:24174   */\n      dup4\n        /* \"#utility.yul\":24112:24179   */\n      tag_385\n      jump\t// in\n    tag_627:\n        /* \"#utility.yul\":24105:24179   */\n      swap2\n      pop\n        /* \"#utility.yul\":24188:24281   */\n      tag_628\n        /* \"#utility.yul\":24277:24280   */\n      dup3\n        /* \"#utility.yul\":24188:24281   */\n      tag_410\n      jump\t// in\n    tag_628:\n        /* \"#utility.yul\":24306:24308   */\n      0x20\n        /* \"#utility.yul\":24301:24304   */\n      dup3\n        /* \"#utility.yul\":24297:24309   */\n      add\n        /* \"#utility.yul\":24290:24309   */\n      swap1\n      pop\n        /* \"#utility.yul\":23949:24315   */\n      swap2\n      swap1\n      pop\n      jump\t// out\n        /* \"#utility.yul\":24321:24740   */\n    tag_299:\n        /* \"#utility.yul\":24487:24491   */\n      0x00\n        /* \"#utility.yul\":24525:24527   */\n      0x20\n        /* \"#utility.yul\":24514:24523   */\n      dup3\n        /* \"#utility.yul\":24510:24528   */\n      add\n        /* \"#utility.yul\":24502:24528   */\n      swap1\n      pop\n        /* \"#utility.yul\":24574:24583   */\n      dup2\n        /* \"#utility.yul\":24568:24572   */\n      dup2\n        /* \"#utility.yul\":24564:24584   */\n      sub\n        /* \"#utility.yul\":24560:24561   */\n      0x00\n        /* \"#utility.yul\":24549:24558   */\n      dup4\n        /* \"#utility.yul\":24545:24562   */\n      add\n        /* \"#utility.yul\":24538:24585   */\n      mstore\n        /* \"#utility.yul\":24602:24733   */\n      tag_630\n        /* \"#utility.yul\":24728:24732   */\n      dup2\n        /* \"#utility.yul\":24602:24733   */\n      tag_411\n      jump\t// in\n    tag_630:\n        /* \"#utility.yul\":24594:24733   */\n      swap1\n      pop\n        /* \"#utility.yul\":24321:24740   */\n      swap2\n      swap1\n      pop\n      jump\t// out\n        /* \"#utility.yul\":24746:24916   */\n    tag_412:\n        /* \"#utility.yul\":24886:24908   */\n      0x496e76616c69642072657761726420746f6b656e000000000000000000000000\n        /* \"#utility.yul\":24882:24883   */\n      0x00\n        /* \"#utility.yul\":24874:24880   */\n      dup3\n        /* \"#utility.yul\":24870:24884   */\n      add\n        /* \"#utility.yul\":24863:24909   */\n      mstore\n        /* \"#utility.yul\":24746:24916   */\n      pop\n      jump\t// out\n        /* \"#utility.yul\":24922:25288   */\n    tag_413:\n        /* \"#utility.yul\":25064:25067   */\n      0x00\n        /* \"#utility.yul\":25085:25152   */\n      tag_633\n        /* \"#utility.yul\":25149:25151   */\n      0x14\n        /* \"#utility.yul\":25144:25147   */\n      dup4\n        /* \"#utility.yul\":25085:25152   */\n      tag_385\n      jump\t// in\n    tag_633:\n        /* \"#utility.yul\":25078:25152   */\n      swap2\n      pop\n        /* \"#utility.yul\":25161:25254   */\n      tag_634\n        /* \"#utility.yul\":25250:25253   */\n      dup3\n        /* \"#utility.yul\":25161:25254   */\n      tag_412\n      jump\t// in\n    tag_634:\n        /* \"#utility.yul\":25279:25281   */\n      0x20\n        /* \"#utility.yul\":25274:25277   */\n      dup3\n        /* \"#utility.yul\":25270:25282   */\n      add\n        /* \"#utility.yul\":25263:25282   */\n      swap1\n      pop\n        /* \"#utility.yul\":24922:25288   */\n      swap2\n      swap1\n      pop\n      jump\t// out\n        /* \"#utility.yul\":25294:25713   */\n    tag_315:\n        /* \"#utility.yul\":25460:25464   */\n      0x00\n        /* \"#utility.yul\":25498:25500   */\n      0x20\n        /* \"#utility.yul\":25487:25496   */\n      dup3\n        /* \"#utility.yul\":25483:25501   */\n      add\n        /* \"#utility.yul\":25475:25501   */\n      swap1\n      pop\n        /* \"#utility.yul\":25547:25556   */\n      dup2\n        /* \"#utility.yul\":25541:25545   */\n      dup2\n        /* \"#utility.yul\":25537:25557   */\n      sub\n        /* \"#utility.yul\":25533:25534   */\n      0x00\n        /* \"#utility.yul\":25522:25531   */\n      dup4\n        /* \"#utility.yul\":25518:25535   */\n      add\n        /* \"#utility.yul\":25511:25558   */\n      mstore\n        /* \"#utility.yul\":25575:25706   */\n      tag_636\n        /* \"#utility.yul\":25701:25705   */\n      dup2\n        /* \"#utility.yul\":25575:25706   */\n      tag_413\n      jump\t// in\n    tag_636:\n        /* \"#utility.yul\":25567:25706   */\n      swap1\n      pop\n        /* \"#utility.yul\":25294:25713   */\n      swap2\n      swap1\n      pop\n      jump\t// out\n        /* \"#utility.yul\":25719:25892   */\n    tag_414:\n        /* \"#utility.yul\":25859:25884   */\n      0x556e737570706f72746564206c6f636b20706572696f64000000000000000000\n        /* \"#utility.yul\":25855:25856   */\n      0x00\n        /* \"#utility.yul\":25847:25853   */\n      dup3\n        /* \"#utility.yul\":25843:25857   */\n      add\n        /* \"#utility.yul\":25836:25885   */\n      mstore\n        /* \"#utility.yul\":25719:25892   */\n      pop\n      jump\t// out\n        /* \"#utility.yul\":25898:26264   */\n    tag_415:\n        /* \"#utility.yul\":26040:26043   */\n      0x00\n        /* \"#utility.yul\":26061:26128   */\n      tag_639\n        /* \"#utility.yul\":26125:26127   */\n      0x17\n        /* \"#utility.yul\":26120:26123   */\n      dup4\n        /* \"#utility.yul\":26061:26128   */\n      tag_385\n      jump\t// in\n    tag_639:\n        /* \"#utility.yul\":26054:26128   */\n      swap2\n      pop\n        /* \"#utility.yul\":26137:26230   */\n      tag_640\n        /* \"#utility.yul\":26226:26229   */\n      dup3\n        /* \"#utility.yul\":26137:26230   */\n      tag_414\n      jump\t// in\n    tag_640:\n        /* \"#utility.yul\":26255:26257   */\n      0x20\n        /* \"#utility.yul\":26250:26253   */\n      dup3\n        /* \"#utility.yul\":26246:26258   */\n      add\n        /* \"#utility.yul\":26239:26258   */\n      swap1\n      pop\n        /* \"#utility.yul\":25898:26264   */\n      swap2\n      swap1\n      pop\n      jump\t// out\n        /* \"#utility.yul\":26270:26689   */\n    tag_325:\n        /* \"#utility.yul\":26436:26440   */\n      0x00\n        /* \"#utility.yul\":26474:26476   */\n      0x20\n        /* \"#utility.yul\":26463:26472   */\n      dup3\n        /* \"#utility.yul\":26459:26477   */\n      add\n        /* \"#utility.yul\":26451:26477   */\n      swap1\n      pop\n        /* \"#utility.yul\":26523:26532   */\n      dup2\n        /* \"#utility.yul\":26517:26521   */\n      dup2\n        /* \"#utility.yul\":26513:26533   */\n      sub\n        /* \"#utility.yul\":26509:26510   */\n      0x00\n        /* \"#utility.yul\":26498:26507   */\n      dup4\n        /* \"#utility.yul\":26494:26511   */\n      add\n        /* \"#utility.yul\":26487:26534   */\n      mstore\n        /* \"#utility.yul\":26551:26682   */\n      tag_642\n        /* \"#utility.yul\":26677:26681   */\n      dup2\n        /* \"#utility.yul\":26551:26682   */\n      tag_415\n      jump\t// in\n    tag_642:\n        /* \"#utility.yul\":26543:26682   */\n      swap1\n      pop\n        /* \"#utility.yul\":26270:26689   */\n      swap2\n      swap1\n      pop\n      jump\t// out\n        /* \"#utility.yul\":26695:26876   */\n    tag_416:\n        /* \"#utility.yul\":26835:26868   */\n      0x5265656e7472616e637947756172643a207265656e7472616e742063616c6c00\n        /* \"#utility.yul\":26831:26832   */\n      0x00\n        /* \"#utility.yul\":26823:26829   */\n      dup3\n        /* \"#utility.yul\":26819:26833   */\n      add\n        /* \"#utility.yul\":26812:26869   */\n      mstore\n        /* \"#utility.yul\":26695:26876   */\n      pop\n      jump\t// out\n        /* \"#utility.yul\":26882:27248   */\n    tag_417:\n        /* \"#utility.yul\":27024:27027   */\n      0x00\n        /* \"#utility.yul\":27045:27112   */\n      tag_645\n        /* \"#utility.yul\":27109:27111   */\n      0x1f\n        /* \"#utility.yul\":27104:27107   */\n      dup4\n        /* \"#utility.yul\":27045:27112   */\n      tag_385\n      jump\t// in\n    tag_645:\n        /* \"#utility.yul\":27038:27112   */\n      swap2\n      pop\n        /* \"#utility.yul\":27121:27214   */\n      tag_646\n        /* \"#utility.yul\":27210:27213   */\n      dup3\n        /* \"#utility.yul\":27121:27214   */\n      tag_416\n      jump\t// in\n    tag_646:\n        /* \"#utility.yul\":27239:27241   */\n      0x20\n        /* \"#utility.yul\":27234:27237   */\n      dup3\n        /* \"#utility.yul\":27230:27242   */\n      add\n        /* \"#utility.yul\":27223:27242   */\n      swap1\n      pop\n        /* \"#utility.yul\":26882:27248   */\n      swap2\n      swap1\n      pop\n      jump\t// out\n        /* \"#utility.yul\":27254:27673   */\n    tag_329:\n        /* \"#utility.yul\":27420:27424   */\n      0x00\n        /* \"#utility.yul\":27458:27460   */\n      0x20\n        /* \"#utility.yul\":27447:27456   */\n      dup3\n        /* \"#utility.yul\":27443:27461   */\n      add\n        /* \"#utility.yul\":27435:27461   */\n      swap1\n      pop\n        /* \"#utility.yul\":27507:27516   */\n      dup2\n        /* \"#utility.yul\":27501:27505   */\n      dup2\n        /* \"#utility.yul\":27497:27517   */\n      sub\n        /* \"#utility.yul\":27493:27494   */\n      0x00\n        /* \"#utility.yul\":27482:27491   */\n      dup4\n        /* \"#utility.yul\":27478:27495   */\n      add\n        /* \"#utility.yul\":27471:27518   */\n      mstore\n        /* \"#utility.yul\":27535:27666   */\n      tag_648\n        /* \"#utility.yul\":27661:27665   */\n      dup2\n        /* \"#utility.yul\":27535:27666   */\n      tag_417\n      jump\t// in\n    tag_648:\n        /* \"#utility.yul\":27527:27666   */\n      swap1\n      pop\n        /* \"#utility.yul\":27254:27673   */\n      swap2\n      swap1\n      pop\n      jump\t// out\n        /* \"#utility.yul\":27679:28121   */\n    tag_334:\n        /* \"#utility.yul\":27828:27832   */\n      0x00\n        /* \"#utility.yul\":27866:27868   */\n      0x60\n        /* \"#utility.yul\":27855:27864   */\n      dup3\n        /* \"#utility.yul\":27851:27869   */\n      add\n        /* \"#utility.yul\":27843:27869   */\n      swap1\n      pop\n        /* \"#utility.yul\":27879:27950   */\n      tag_650\n        /* \"#utility.yul\":27947:27948   */\n      0x00\n        /* \"#utility.yul\":27936:27945   */\n      dup4\n        /* \"#utility.yul\":27932:27949   */\n      add\n        /* \"#utility.yul\":27923:27929   */\n      dup7\n        /* \"#utility.yul\":27879:27950   */\n      tag_384\n      jump\t// in\n    tag_650:\n        /* \"#utility.yul\":27960:28032   */\n      tag_651\n        /* \"#utility.yul\":28028:28030   */\n      0x20\n        /* \"#utility.yul\":28017:28026   */\n      dup4\n        /* \"#utility.yul\":28013:28031   */\n      add\n        /* \"#utility.yul\":28004:28010   */\n      dup6\n        /* \"#utility.yul\":27960:28032   */\n      tag_384\n      jump\t// in\n    tag_651:\n        /* \"#utility.yul\":28042:28114   */\n      tag_652\n        /* \"#utility.yul\":28110:28112   */\n      0x40\n        /* \"#utility.yul\":28099:28108   */\n      dup4\n        /* \"#utility.yul\":28095:28113   */\n      add\n        /* \"#utility.yul\":28086:28092   */\n      dup5\n        /* \"#utility.yul\":28042:28114   */\n      tag_363\n      jump\t// in\n    tag_652:\n        /* \"#utility.yul\":27679:28121   */\n      swap5\n      swap4\n      pop\n      pop\n      pop\n      pop\n      jump\t// out\n        /* \"#utility.yul\":28127:28459   */\n    tag_347:\n        /* \"#utility.yul\":28248:28252   */\n      0x00\n        /* \"#utility.yul\":28286:28288   */\n      0x40\n        /* \"#utility.yul\":28275:28284   */\n      dup3\n        /* \"#utility.yul\":28271:28289   */\n      add\n        /* \"#utility.yul\":28263:28289   */\n      swap1\n      pop\n        /* \"#utility.yul\":28299:28370   */\n      tag_654\n        /* \"#utility.yul\":28367:28368   */\n      0x00\n        /* \"#utility.yul\":28356:28365   */\n      dup4\n        /* \"#utility.yul\":28352:28369   */\n      add\n        /* \"#utility.yul\":28343:28349   */\n      dup6\n        /* \"#utility.yul\":28299:28370   */\n      tag_384\n      jump\t// in\n    tag_654:\n        /* \"#utility.yul\":28380:28452   */\n      tag_655\n        /* \"#utility.yul\":28448:28450   */\n      0x20\n        /* \"#utility.yul\":28437:28446   */\n      dup4\n        /* \"#utility.yul\":28433:28451   */\n      add\n        /* \"#utility.yul\":28424:28430   */\n      dup5\n        /* \"#utility.yul\":28380:28452   */\n      tag_363\n      jump\t// in\n    tag_655:\n        /* \"#utility.yul\":28127:28459   */\n      swap4\n      swap3\n      pop\n      pop\n      pop\n      jump\t// out\n\n    auxdata: 0xa2646970667358221220840ed1e62aa496d3cccabd3f402c8eaf5f6286f2dd4afaa18e99ad91fe4f86f564736f6c634300081e0033\n}\n",
				"bytecode": {
					"linkReferences": {},
					"object": "60a0604052604051806060016040528062278d0062ffffff168152602001624f1a0062ffffff1681526020016276a70062ffffff168152506004906003610047929190610402565b5060405180606001604052806101f461ffff1681526020016103e861ffff1681526020016105dc61ffff168152506007906003610085929190610449565b50348015610091575f5ffd5b506040516133b63803806133b683398181016040528101906100b39190610508565b335f73ffffffffffffffffffffffffffffffffffffffff168173ffffffffffffffffffffffffffffffffffffffff1603610124575f6040517f1e4fbdf700000000000000000000000000000000000000000000000000000000815260040161011b9190610567565b60405180910390fd5b6101338161034160201b60201c565b50600180819055505f73ffffffffffffffffffffffffffffffffffffffff168373ffffffffffffffffffffffffffffffffffffffff16036101a9576040517f08c379a00000000000000000000000000000000000000000000000000000000081526004016101a0906105da565b60405180910390fd5b5f73ffffffffffffffffffffffffffffffffffffffff168273ffffffffffffffffffffffffffffffffffffffff1603610217576040517f08c379a000000000000000000000000000000000000000000000000000000000815260040161020e90610642565b60405180910390fd5b5f73ffffffffffffffffffffffffffffffffffffffff168173ffffffffffffffffffffffffffffffffffffffff1603610285576040517f08c379a000000000000000000000000000000000000000000000000000000000815260040161027c906106aa565b60405180910390fd5b8273ffffffffffffffffffffffffffffffffffffffff1660808173ffffffffffffffffffffffffffffffffffffffff16815250508160025f6101000a81548173ffffffffffffffffffffffffffffffffffffffff021916908373ffffffffffffffffffffffffffffffffffffffff1602179055508060035f6101000a81548173ffffffffffffffffffffffffffffffffffffffff021916908373ffffffffffffffffffffffffffffffffffffffff1602179055505050506106c8565b5f5f5f9054906101000a900473ffffffffffffffffffffffffffffffffffffffff169050815f5f6101000a81548173ffffffffffffffffffffffffffffffffffffffff021916908373ffffffffffffffffffffffffffffffffffffffff1602179055508173ffffffffffffffffffffffffffffffffffffffff168173ffffffffffffffffffffffffffffffffffffffff167f8be0079c531659141344cd1fd0a4f28419497f9722a3daafe3b4186f6b6457e060405160405180910390a35050565b8260038101928215610438579160200282015b82811115610437578251829062ffffff16905591602001919060010190610415565b5b509050610445919061048f565b5090565b826003810192821561047e579160200282015b8281111561047d578251829061ffff1690559160200191906001019061045c565b5b50905061048b919061048f565b5090565b5b808211156104a6575f815f905550600101610490565b5090565b5f5ffd5b5f73ffffffffffffffffffffffffffffffffffffffff82169050919050565b5f6104d7826104ae565b9050919050565b6104e7816104cd565b81146104f1575f5ffd5b50565b5f81519050610502816104de565b92915050565b5f5f5f6060848603121561051f5761051e6104aa565b5b5f61052c868287016104f4565b935050602061053d868287016104f4565b925050604061054e868287016104f4565b9150509250925092565b610561816104cd565b82525050565b5f60208201905061057a5f830184610558565b92915050565b5f82825260208201905092915050565b7f496e76616c6964207374616b696e6720746f6b656e00000000000000000000005f82015250565b5f6105c4601583610580565b91506105cf82610590565b602082019050919050565b5f6020820190508181035f8301526105f1816105b8565b9050919050565b7f496e76616c69642072657761726420746f6b656e0000000000000000000000005f82015250565b5f61062c601483610580565b9150610637826105f8565b602082019050919050565b5f6020820190508181035f83015261065981610620565b9050919050565b7f496e76616c6964206665652072656365697665720000000000000000000000005f82015250565b5f610694601483610580565b915061069f82610660565b602082019050919050565b5f6020820190508181035f8301526106c181610688565b9050919050565b608051612ccf6106e75f395f8181610cdc01526110380152612ccf5ff3fe608060405234801561000f575f5ffd5b5060043610610171575f3560e01c80637a5c08ae116100dc578063bbd36b6111610095578063e6a69ab81161006f578063e6a69ab814610426578063f2fde38b14610444578063f7c618c114610460578063f8cf31cb1461047e57610171565b8063bbd36b61146103e4578063c69bebe414610400578063c7b8981c1461041c57610171565b80637a5c08ae14610334578063817b1cd2146103525780638da5cb5b1461037057806395a290601461038e578063ae169a50146103aa578063b3f00674146103c657610171565b8063561b24631161012e578063561b24631461026f578063584b62a11461028b5780635acd2e4c146102c05780636b494def146102dc578063715018a61461030c57806372f702f31461031657610171565b80630630e463146101755780631747e0b0146101a55780631852e8d9146101d557806338bceaac146102055780634060e257146102235780634c8f2a781461023f575b5f5ffd5b61018f600480360381019061018a9190612019565b61049a565b60405161019c919061205c565b60405180910390f35b6101bf60048036038101906101ba9190612019565b6104af565b6040516101cc91906121bf565b60405180910390f35b6101ef60048036038101906101ea9190612209565b6105a4565b6040516101fc919061205c565b60405180910390f35b61020d610862565b60405161021a919061205c565b60405180910390f35b61023d60048036038101906102389190612247565b610867565b005b61025960048036038101906102549190612247565b610bc0565b604051610266919061205c565b60405180910390f35b6102896004803603810190610284919061229c565b610bd9565b005b6102a560048036038101906102a09190612209565b610eb8565b6040516102b7969594939291906122fb565b60405180910390f35b6102da60048036038101906102d5919061235a565b610f23565b005b6102f660048036038101906102f19190612247565b61100a565b604051610303919061205c565b60405180910390f35b610314611023565b005b61031e611036565b60405161032b91906123f3565b60405180910390f35b61033c61105a565b604051610349919061205c565b60405180910390f35b61035a611060565b604051610367919061205c565b60405180910390f35b610378611066565b604051610385919061241b565b60405180910390f35b6103a860048036038101906103a39190612247565b61108d565b005b6103c460048036038101906103bf9190612247565b611256565b005b6103ce6116cc565b6040516103db919061241b565b60405180910390f35b6103fe60048036038101906103f99190612247565b6116f1565b005b61041a60048036038101906104159190612019565b6117db565b005b6104246118d7565b005b61042e611a49565b60405161043b919061205c565b60405180910390f35b61045e60048036038101906104599190612019565b611a51565b005b610468611ad5565b60405161047591906123f3565b60405180910390f35b61049860048036038101906104939190612019565b611afa565b005b600b602052805f5260405f205f915090505481565b6060600a5f8373ffffffffffffffffffffffffffffffffffffffff1673ffffffffffffffffffffffffffffffffffffffff1681526020019081526020015f20805480602002602001604051908101604052809291908181526020015f905b82821015610599578382905f5260205f2090600502016040518060c00160405290815f82015481526020016001820154815260200160028201548152602001600382015f9054906101000a900460ff161515151581526020016003820160019054906101000a900460ff161515151581526020016004820154815250508152602001906001019061050d565b505050509050919050565b5f5f73ffffffffffffffffffffffffffffffffffffffff168373ffffffffffffffffffffffffffffffffffffffff1603610613576040517f08c379a000000000000000000000000000000000000000000000000000000000815260040161060a9061248e565b60405180910390fd5b600a5f8473ffffffffffffffffffffffffffffffffffffffff1673ffffffffffffffffffffffffffffffffffffffff1681526020019081526020015f20805490508210610695576040517f08c379a000000000000000000000000000000000000000000000000000000000815260040161068c906124f6565b60405180910390fd5b5f600a5f8573ffffffffffffffffffffffffffffffffffffffff1673ffffffffffffffffffffffffffffffffffffffff1681526020019081526020015f2083815481106106e5576106e4612514565b5b905f5260205f2090600502016040518060c00160405290815f82015481526020016001820154815260200160028201548152602001600382015f9054906101000a900460ff161515151581526020016003820160019054906101000a900460ff16151515158152602001600482015481525050905080606001511561079f576040517f08c379a00000000000000000000000000000000000000000000000000000000081526004016107969061258b565b60405180910390fd5b5f81604001519050816080015180156107b757508042115b156107c0574290505b5f8260200151826107d191906125d6565b90505f6107f0846020015185604001516107eb91906125d6565b611bf6565b90505f6007826003811061080757610806612514565b5b015490505f8560a00151865f015161081f9190612609565b90506301e13380612710610833919061263c565b848383610840919061263c565b61084a919061263c565b61085491906126aa565b965050505050505092915050565b603281565b61086f611c78565b3373ffffffffffffffffffffffffffffffffffffffff163273ffffffffffffffffffffffffffffffffffffffff16146108dd576040517f08c379a00000000000000000000000000000000000000000000000000000000081526004016108d490612724565b60405180910390fd5b5f339050600a5f8273ffffffffffffffffffffffffffffffffffffffff1673ffffffffffffffffffffffffffffffffffffffff1681526020019081526020015f20805490508210610963576040517f08c379a000000000000000000000000000000000000000000000000000000000815260040161095a906124f6565b60405180910390fd5b5f600a5f8373ffffffffffffffffffffffffffffffffffffffff1673ffffffffffffffffffffffffffffffffffffffff1681526020019081526020015f2083815481106109b3576109b2612514565b5b905f5260205f2090600502019050806003015f9054906101000a900460ff1615610a12576040517f08c379a0000000000000000000000000000000000000000000000000000000008152600401610a099061258b565b60405180910390fd5b8060030160019054906101000a900460ff16610a63576040517f08c379a0000000000000000000000000000000000000000000000000000000008152600401610a5a9061278c565b60405180910390fd5b8060020154421015610aaa576040517f08c379a0000000000000000000000000000000000000000000000000000000008152600401610aa1906127f4565b60405180910390fd5b5f610ab583856105a4565b905080600d541015610afc576040517f08c379a0000000000000000000000000000000000000000000000000000000008152600401610af39061285c565b60405180910390fd5b42826001018190555081600101548260020154610b1991906125d6565b42610b249190612609565b826002018190555080826004015f828254610b3f9190612609565b9250508190555080600d5f828254610b5791906125d6565b925050819055508273ffffffffffffffffffffffffffffffffffffffff167f593662cbe53e88df3fef748665b8c3d3142e5d34dc1b24290f7e953537a00183858460040154604051610baa92919061287a565b60405180910390a2505050610bbd611cc7565b50565b60048160038110610bcf575f80fd5b015f915090505481565b610be1611c78565b3373ffffffffffffffffffffffffffffffffffffffff163273ffffffffffffffffffffffffffffffffffffffff1614610c4f576040517f08c379a0000000000000000000000000000000000000000000000000000000008152600401610c4690612724565b60405180910390fd5b60038210610c92576040517f08c379a0000000000000000000000000000000000000000000000000000000008152600401610c89906128eb565b60405180910390fd5b5f8311610cd4576040517f08c379a0000000000000000000000000000000000000000000000000000000008152600401610ccb90612953565b60405180910390fd5b610d213330857f000000000000000000000000000000000000000000000000000000000000000073ffffffffffffffffffffffffffffffffffffffff16611cd0909392919063ffffffff16565b5f60048360038110610d3657610d35612514565b5b015442610d439190612609565b9050600a5f3373ffffffffffffffffffffffffffffffffffffffff1673ffffffffffffffffffffffffffffffffffffffff1681526020019081526020015f206040518060c001604052808681526020014281526020018381526020015f1515815260200184151581526020015f815250908060018154018082558091505060019003905f5260205f2090600502015f909190919091505f820151815f015560208201518160010155604082015181600201556060820151816003015f6101000a81548160ff02191690831515021790555060808201518160030160016101000a81548160ff02191690831515021790555060a08201518160040155505083600c5f828254610e519190612609565b925050819055503373ffffffffffffffffffffffffffffffffffffffff167f3df45cb339f96ae4bdb793efcb6e22100dd0dc4fd739a4ee2033fe67ea35af96858585604051610ea293929190612971565b60405180910390a250610eb3611cc7565b505050565b600a602052815f5260405f208181548110610ed1575f80fd5b905f5260205f2090600502015f9150915050805f015490806001015490806002015490806003015f9054906101000a900460ff16908060030160019054906101000a900460ff16908060040154905086565b610f2b611d52565b60038210610f6e576040517f08c379a0000000000000000000000000000000000000000000000000000000008152600401610f65906128eb565b60405180910390fd5b612710811115610fb3576040517f08c379a0000000000000000000000000000000000000000000000000000000008152600401610faa906129f0565b60405180910390fd5b8060078360038110610fc857610fc7612514565b5b01819055507f787a1fca55641ce34a438271930bbb9401df20db2b4f510d4f252227d85df43d8282604051610ffe92919061287a565b60405180910390a15050565b60078160038110611019575f80fd5b015f915090505481565b61102b611d52565b6110345f611dd9565b565b7f000000000000000000000000000000000000000000000000000000000000000081565b600d5481565b600c5481565b5f5f5f9054906101000a900473ffffffffffffffffffffffffffffffffffffffff16905090565b5f339050600a5f8273ffffffffffffffffffffffffffffffffffffffff1673ffffffffffffffffffffffffffffffffffffffff1681526020019081526020015f20805490508210611113576040517f08c379a000000000000000000000000000000000000000000000000000000000815260040161110a906124f6565b60405180910390fd5b5f600a5f8373ffffffffffffffffffffffffffffffffffffffff1673ffffffffffffffffffffffffffffffffffffffff1681526020019081526020015f20838154811061116357611162612514565b5b905f5260205f2090600502019050806003015f9054906101000a900460ff16156111c2576040517f08c379a00000000000000000000000000000000000000000000000000000000081526004016111b99061258b565b60405180910390fd5b8060030160019054906101000a900460ff16158160030160016101000a81548160ff0219169083151502179055508173ffffffffffffffffffffffffffffffffffffffff167ffa2d7b35e7cc82247c5ae7e8ae2dc078c2b144b76a6b1068887b3c8892c15da5848360030160019054906101000a900460ff16604051611249929190612a0e565b60405180910390a2505050565b61125e611c78565b3373ffffffffffffffffffffffffffffffffffffffff163273ffffffffffffffffffffffffffffffffffffffff16146112cc576040517f08c379a00000000000000000000000000000000000000000000000000000000081526004016112c390612724565b60405180910390fd5b5f339050600a5f8273ffffffffffffffffffffffffffffffffffffffff1673ffffffffffffffffffffffffffffffffffffffff1681526020019081526020015f20805490508210611352576040517f08c379a0000000000000000000000000000000000000000000000000000000008152600401611349906124f6565b60405180910390fd5b5f600a5f8373ffffffffffffffffffffffffffffffffffffffff1673ffffffffffffffffffffffffffffffffffffffff1681526020019081526020015f2083815481106113a2576113a1612514565b5b905f5260205f2090600502019050806003015f9054906101000a900460ff1615611401576040517f08c379a00000000000000000000000000000000000000000000000000000000081526004016113f89061258b565b60405180910390fd5b8060020154421015611448576040517f08c379a000000000000000000000000000000000000000000000000000000000815260040161143f906127f4565b60405180910390fd5b5f61145383856105a4565b905080600d54101561149a576040517f08c379a00000000000000000000000000000000000000000000000000000000081526004016114919061285c565b60405180910390fd5b6001826003015f6101000a81548160ff0219169083151502179055508160030160019054906101000a900460ff1680156114d757505f8260040154115b15611602575f8183600401546114ed9190612609565b90505f612710603283611500919061263c565b61150a91906126aa565b90505f818361151991906125d6565b905080600b5f8873ffffffffffffffffffffffffffffffffffffffff1673ffffffffffffffffffffffffffffffffffffffff1681526020019081526020015f205f8282546115679190612609565b9250508190555081600b5f60035f9054906101000a900473ffffffffffffffffffffffffffffffffffffffff1673ffffffffffffffffffffffffffffffffffffffff1673ffffffffffffffffffffffffffffffffffffffff1681526020019081526020015f205f8282546115db9190612609565b9250508190555082600d5f8282546115f391906125d6565b9250508190555050505061166e565b80600b5f8573ffffffffffffffffffffffffffffffffffffffff1673ffffffffffffffffffffffffffffffffffffffff1681526020019081526020015f205f82825461164e9190612609565b9250508190555080600d5f82825461166691906125d6565b925050819055505b8273ffffffffffffffffffffffffffffffffffffffff167f987d620f307ff6b94d58743cb7a7509f24071586a77759b77c2d4e29f75a2f9a82866040516116b692919061287a565b60405180910390a25050506116c9611cc7565b50565b60035f9054906101000a900473ffffffffffffffffffffffffffffffffffffffff1681565b6116f9611d52565b5f811161173b576040517f08c379a000000000000000000000000000000000000000000000000000000000815260040161173290612953565b60405180910390fd5b61178933308360025f9054906101000a900473ffffffffffffffffffffffffffffffffffffffff1673ffffffffffffffffffffffffffffffffffffffff16611cd0909392919063ffffffff16565b80600d5f82825461179a9190612609565b925050819055507f21d99275a51df78f567d33e4b0c6ea547b7675bce0eab2ccca69e131bf047abe816040516117d0919061205c565b60405180910390a150565b6117e3611d52565b5f73ffffffffffffffffffffffffffffffffffffffff168173ffffffffffffffffffffffffffffffffffffffff1603611851576040517f08c379a000000000000000000000000000000000000000000000000000000000815260040161184890612a7f565b60405180910390fd5b8060035f6101000a81548173ffffffffffffffffffffffffffffffffffffffff021916908373ffffffffffffffffffffffffffffffffffffffff1602179055508073ffffffffffffffffffffffffffffffffffffffff167f27aae5db36d94179909d019ae0b1ac7c16d96d953148f63c0f6a0a9c8ead79ee60405160405180910390a250565b6118df611c78565b5f600b5f3373ffffffffffffffffffffffffffffffffffffffff1673ffffffffffffffffffffffffffffffffffffffff1681526020019081526020015f205490505f8111611962576040517f08c379a000000000000000000000000000000000000000000000000000000000815260040161195990612ae7565b60405180910390fd5b5f600b5f3373ffffffffffffffffffffffffffffffffffffffff1673ffffffffffffffffffffffffffffffffffffffff1681526020019081526020015f20819055506119f0338260025f9054906101000a900473ffffffffffffffffffffffffffffffffffffffff1673ffffffffffffffffffffffffffffffffffffffff16611e9a9092919063ffffffff16565b3373ffffffffffffffffffffffffffffffffffffffff167fbd1ea9966f82ccb966523d3922a6e4ad4bf3ea70e9201bd7a106de847cc5e61682604051611a36919061205c565b60405180910390a250611a47611cc7565b565b6301e1338081565b611a59611d52565b5f73ffffffffffffffffffffffffffffffffffffffff168173ffffffffffffffffffffffffffffffffffffffff1603611ac9575f6040517f1e4fbdf7000000000000000000000000000000000000000000000000000000008152600401611ac0919061241b565b60405180910390fd5b611ad281611dd9565b50565b60025f9054906101000a900473ffffffffffffffffffffffffffffffffffffffff1681565b611b02611d52565b5f73ffffffffffffffffffffffffffffffffffffffff168173ffffffffffffffffffffffffffffffffffffffff1603611b70576040517f08c379a0000000000000000000000000000000000000000000000000000000008152600401611b6790612b4f565b60405180910390fd5b8060025f6101000a81548173ffffffffffffffffffffffffffffffffffffffff021916908373ffffffffffffffffffffffffffffffffffffffff1602179055508073ffffffffffffffffffffffffffffffffffffffff167fa5289ba11778999f4dfb9415023783188d42bbb5db0612cbfbe55999069612a060405160405180910390a250565b5f5f5f90505b6003811015611c375760048160038110611c1957611c18612514565b5b01548303611c2a5780915050611c73565b8080600101915050611bfc565b506040517f08c379a0000000000000000000000000000000000000000000000000000000008152600401611c6a90612bb7565b60405180910390fd5b919050565b600260015403611cbd576040517f08c379a0000000000000000000000000000000000000000000000000000000008152600401611cb490612c1f565b60405180910390fd5b6002600181905550565b60018081905550565b611d4c848573ffffffffffffffffffffffffffffffffffffffff166323b872dd868686604051602401611d0593929190612c3d565b604051602081830303815290604052915060e01b6020820180517bffffffffffffffffffffffffffffffffffffffffffffffffffffffff8381831617835250505050611f19565b50505050565b611d5a611fb4565b73ffffffffffffffffffffffffffffffffffffffff16611d78611066565b73ffffffffffffffffffffffffffffffffffffffff1614611dd757611d9b611fb4565b6040517f118cdaa7000000000000000000000000000000000000000000000000000000008152600401611dce919061241b565b60405180910390fd5b565b5f5f5f9054906101000a900473ffffffffffffffffffffffffffffffffffffffff169050815f5f6101000a81548173ffffffffffffffffffffffffffffffffffffffff021916908373ffffffffffffffffffffffffffffffffffffffff1602179055508173ffffffffffffffffffffffffffffffffffffffff168173ffffffffffffffffffffffffffffffffffffffff167f8be0079c531659141344cd1fd0a4f28419497f9722a3daafe3b4186f6b6457e060405160405180910390a35050565b611f14838473ffffffffffffffffffffffffffffffffffffffff1663a9059cbb8585604051602401611ecd929190612c72565b604051602081830303815290604052915060e01b6020820180517bffffffffffffffffffffffffffffffffffffffffffffffffffffffff8381831617835250505050611f19565b505050565b5f5f60205f8451602086015f885af180611f38576040513d5f823e3d81fd5b3d92505f519150505f8214611f51576001811415611f6c565b5f8473ffffffffffffffffffffffffffffffffffffffff163b145b15611fae57836040517f5274afe7000000000000000000000000000000000000000000000000000000008152600401611fa5919061241b565b60405180910390fd5b50505050565b5f33905090565b5f5ffd5b5f73ffffffffffffffffffffffffffffffffffffffff82169050919050565b5f611fe882611fbf565b9050919050565b611ff881611fde565b8114612002575f5ffd5b50565b5f8135905061201381611fef565b92915050565b5f6020828403121561202e5761202d611fbb565b5b5f61203b84828501612005565b91505092915050565b5f819050919050565b61205681612044565b82525050565b5f60208201905061206f5f83018461204d565b92915050565b5f81519050919050565b5f82825260208201905092915050565b5f819050602082019050919050565b6120a781612044565b82525050565b5f8115159050919050565b6120c1816120ad565b82525050565b60c082015f8201516120db5f85018261209e565b5060208201516120ee602085018261209e565b506040820151612101604085018261209e565b50606082015161211460608501826120b8565b50608082015161212760808501826120b8565b5060a082015161213a60a085018261209e565b50505050565b5f61214b83836120c7565b60c08301905092915050565b5f602082019050919050565b5f61216d82612075565b612177818561207f565b93506121828361208f565b805f5b838110156121b25781516121998882612140565b97506121a483612157565b925050600181019050612185565b5085935050505092915050565b5f6020820190508181035f8301526121d78184612163565b905092915050565b6121e881612044565b81146121f2575f5ffd5b50565b5f81359050612203816121df565b92915050565b5f5f6040838503121561221f5761221e611fbb565b5b5f61222c85828601612005565b925050602061223d858286016121f5565b9150509250929050565b5f6020828403121561225c5761225b611fbb565b5b5f612269848285016121f5565b91505092915050565b61227b816120ad565b8114612285575f5ffd5b50565b5f8135905061229681612272565b92915050565b5f5f5f606084860312156122b3576122b2611fbb565b5b5f6122c0868287016121f5565b93505060206122d1868287016121f5565b92505060406122e286828701612288565b9150509250925092565b6122f5816120ad565b82525050565b5f60c08201905061230e5f83018961204d565b61231b602083018861204d565b612328604083018761204d565b61233560608301866122ec565b61234260808301856122ec565b61234f60a083018461204d565b979650505050505050565b5f5f604083850312156123705761236f611fbb565b5b5f61237d858286016121f5565b925050602061238e858286016121f5565b9150509250929050565b5f819050919050565b5f6123bb6123b66123b184611fbf565b612398565b611fbf565b9050919050565b5f6123cc826123a1565b9050919050565b5f6123dd826123c2565b9050919050565b6123ed816123d3565b82525050565b5f6020820190506124065f8301846123e4565b92915050565b61241581611fde565b82525050565b5f60208201905061242e5f83018461240c565b92915050565b5f82825260208201905092915050565b7f496e76616c6964206163636f756e7400000000000000000000000000000000005f82015250565b5f612478600f83612434565b915061248382612444565b602082019050919050565b5f6020820190508181035f8301526124a58161246c565b9050919050565b7f496e76616c6964207374616b6520696e646578000000000000000000000000005f82015250565b5f6124e0601383612434565b91506124eb826124ac565b602082019050919050565b5f6020820190508181035f83015261250d816124d4565b9050919050565b7f4e487b71000000000000000000000000000000000000000000000000000000005f52603260045260245ffd5b7f416c726561647920636c61696d656400000000000000000000000000000000005f82015250565b5f612575600f83612434565b915061258082612541565b602082019050919050565b5f6020820190508181035f8301526125a281612569565b9050919050565b7f4e487b71000000000000000000000000000000000000000000000000000000005f52601160045260245ffd5b5f6125e082612044565b91506125eb83612044565b9250828203905081811115612603576126026125a9565b5b92915050565b5f61261382612044565b915061261e83612044565b9250828201905080821115612636576126356125a9565b5b92915050565b5f61264682612044565b915061265183612044565b925082820261265f81612044565b91508282048414831517612676576126756125a9565b5b5092915050565b7f4e487b71000000000000000000000000000000000000000000000000000000005f52601260045260245ffd5b5f6126b482612044565b91506126bf83612044565b9250826126cf576126ce61267d565b5b828204905092915050565b7f43616c6c6572206d75737420626520454f4100000000000000000000000000005f82015250565b5f61270e601283612434565b9150612719826126da565b602082019050919050565b5f6020820190508181035f83015261273b81612702565b9050919050565b7f4175746f2d7374616b696e672064697361626c656400000000000000000000005f82015250565b5f612776601583612434565b915061278182612742565b602082019050919050565b5f6020820190508181035f8301526127a38161276a565b9050919050565b7f5374696c6c206c6f636b656400000000000000000000000000000000000000005f82015250565b5f6127de600c83612434565b91506127e9826127aa565b602082019050919050565b5f6020820190508181035f83015261280b816127d2565b9050919050565b7f496e73756666696369656e742072657761726420706f6f6c00000000000000005f82015250565b5f612846601883612434565b915061285182612812565b602082019050919050565b5f6020820190508181035f8301526128738161283a565b9050919050565b5f60408201905061288d5f83018561204d565b61289a602083018461204d565b9392505050565b7f496e76616c696420706572696f6420696e6465780000000000000000000000005f82015250565b5f6128d5601483612434565b91506128e0826128a1565b602082019050919050565b5f6020820190508181035f830152612902816128c9565b9050919050565b7f5a65726f20616d6f756e740000000000000000000000000000000000000000005f82015250565b5f61293d600b83612434565b915061294882612909565b602082019050919050565b5f6020820190508181035f83015261296a81612931565b9050919050565b5f6060820190506129845f83018661204d565b612991602083018561204d565b61299e60408301846122ec565b949350505050565b7f41505920746f6f206869676800000000000000000000000000000000000000005f82015250565b5f6129da600c83612434565b91506129e5826129a6565b602082019050919050565b5f6020820190508181035f830152612a07816129ce565b9050919050565b5f604082019050612a215f83018561204d565b612a2e60208301846122ec565b9392505050565b7f496e76616c6964206665652072656365697665720000000000000000000000005f82015250565b5f612a69601483612434565b9150612a7482612a35565b602082019050919050565b5f6020820190508181035f830152612a9681612a5d565b9050919050565b7f4e6f207265776172647320746f207769746864726177000000000000000000005f82015250565b5f612ad1601683612434565b9150612adc82612a9d565b602082019050919050565b5f6020820190508181035f830152612afe81612ac5565b9050919050565b7f496e76616c69642072657761726420746f6b656e0000000000000000000000005f82015250565b5f612b39601483612434565b9150612b4482612b05565b602082019050919050565b5f6020820190508181035f830152612b6681612b2d565b9050919050565b7f556e737570706f72746564206c6f636b20706572696f640000000000000000005f82015250565b5f612ba1601783612434565b9150612bac82612b6d565b602082019050919050565b5f6020820190508181035f830152612bce81612b95565b9050919050565b7f5265656e7472616e637947756172643a207265656e7472616e742063616c6c005f82015250565b5f612c09601f83612434565b9150612c1482612bd5565b602082019050919050565b5f6020820190508181035f830152612c3681612bfd565b9050919050565b5f606082019050612c505f83018661240c565b612c5d602083018561240c565b612c6a604083018461204d565b949350505050565b5f604082019050612c855f83018561240c565b612c92602083018461204d565b939250505056fea2646970667358221220840ed1e62aa496d3cccabd3f402c8eaf5f6286f2dd4afaa18e99ad91fe4f86f564736f6c634300081e0033",
					"opcodes": "PUSH1 0xA0 PUSH1 0x40 MSTORE PUSH1 0x40 MLOAD DUP1 PUSH1 0x60 ADD PUSH1 0x40 MSTORE DUP1 PUSH3 0x278D00 PUSH3 0xFFFFFF AND DUP2 MSTORE PUSH1 0x20 ADD PUSH3 0x4F1A00 PUSH3 0xFFFFFF AND DUP2 MSTORE PUSH1 0x20 ADD PUSH3 0x76A700 PUSH3 0xFFFFFF AND DUP2 MSTORE POP PUSH1 0x4 SWAP1 PUSH1 0x3 PUSH2 0x47 SWAP3 SWAP2 SWAP1 PUSH2 0x402 JUMP JUMPDEST POP PUSH1 0x40 MLOAD DUP1 PUSH1 0x60 ADD PUSH1 0x40 MSTORE DUP1 PUSH2 0x1F4 PUSH2 0xFFFF AND DUP2 MSTORE PUSH1 0x20 ADD PUSH2 0x3E8 PUSH2 0xFFFF AND DUP2 MSTORE PUSH1 0x20 ADD PUSH2 0x5DC PUSH2 0xFFFF AND DUP2 MSTORE POP PUSH1 0x7 SWAP1 PUSH1 0x3 PUSH2 0x85 SWAP3 SWAP2 SWAP1 PUSH2 0x449 JUMP JUMPDEST POP CALLVALUE DUP1 ISZERO PUSH2 0x91 JUMPI PUSH0 PUSH0 REVERT JUMPDEST POP PUSH1 0x40 MLOAD PUSH2 0x33B6 CODESIZE SUB DUP1 PUSH2 0x33B6 DUP4 CODECOPY DUP2 DUP2 ADD PUSH1 0x40 MSTORE DUP2 ADD SWAP1 PUSH2 0xB3 SWAP2 SWAP1 PUSH2 0x508 JUMP JUMPDEST CALLER PUSH0 PUSH20 0xFFFFFFFFFFFFFFFFFFFFFFFFFFFFFFFFFFFFFFFF AND DUP2 PUSH20 0xFFFFFFFFFFFFFFFFFFFFFFFFFFFFFFFFFFFFFFFF AND SUB PUSH2 0x124 JUMPI PUSH0 PUSH1 0x40 MLOAD PUSH32 0x1E4FBDF700000000000000000000000000000000000000000000000000000000 DUP2 MSTORE PUSH1 0x4 ADD PUSH2 0x11B SWAP2 SWAP1 PUSH2 0x567 JUMP JUMPDEST PUSH1 0x40 MLOAD DUP1 SWAP2 SUB SWAP1 REVERT JUMPDEST PUSH2 0x133 DUP2 PUSH2 0x341 PUSH1 0x20 SHL PUSH1 0x20 SHR JUMP JUMPDEST POP PUSH1 0x1 DUP1 DUP2 SWAP1 SSTORE POP PUSH0 PUSH20 0xFFFFFFFFFFFFFFFFFFFFFFFFFFFFFFFFFFFFFFFF AND DUP4 PUSH20 0xFFFFFFFFFFFFFFFFFFFFFFFFFFFFFFFFFFFFFFFF AND SUB PUSH2 0x1A9 JUMPI PUSH1 0x40 MLOAD PUSH32 0x8C379A000000000000000000000000000000000000000000000000000000000 DUP2 MSTORE PUSH1 0x4 ADD PUSH2 0x1A0 SWAP1 PUSH2 0x5DA JUMP JUMPDEST PUSH1 0x40 MLOAD DUP1 SWAP2 SUB SWAP1 REVERT JUMPDEST PUSH0 PUSH20 0xFFFFFFFFFFFFFFFFFFFFFFFFFFFFFFFFFFFFFFFF AND DUP3 PUSH20 0xFFFFFFFFFFFFFFFFFFFFFFFFFFFFFFFFFFFFFFFF AND SUB PUSH2 0x217 JUMPI PUSH1 0x40 MLOAD PUSH32 0x8C379A000000000000000000000000000000000000000000000000000000000 DUP2 MSTORE PUSH1 0x4 ADD PUSH2 0x20E SWAP1 PUSH2 0x642 JUMP JUMPDEST PUSH1 0x40 MLOAD DUP1 SWAP2 SUB SWAP1 REVERT JUMPDEST PUSH0 PUSH20 0xFFFFFFFFFFFFFFFFFFFFFFFFFFFFFFFFFFFFFFFF AND DUP2 PUSH20 0xFFFFFFFFFFFFFFFFFFFFFFFFFFFFFFFFFFFFFFFF AND SUB PUSH2 0x285 JUMPI PUSH1 0x40 MLOAD PUSH32 0x8C379A000000000000000000000000000000000000000000000000000000000 DUP2 MSTORE PUSH1 0x4 ADD PUSH2 0x27C SWAP1 PUSH2 0x6AA JUMP JUMPDEST PUSH1 0x40 MLOAD DUP1 SWAP2 SUB SWAP1 REVERT JUMPDEST DUP3 PUSH20 0xFFFFFFFFFFFFFFFFFFFFFFFFFFFFFFFFFFFFFFFF AND PUSH1 0x80 DUP2 PUSH20 0xFFFFFFFFFFFFFFFFFFFFFFFFFFFFFFFFFFFFFFFF AND DUP2 MSTORE POP POP DUP2 PUSH1 0x2 PUSH0 PUSH2 0x100 EXP DUP2 SLOAD DUP2 PUSH20 0xFFFFFFFFFFFFFFFFFFFFFFFFFFFFFFFFFFFFFFFF MUL NOT AND SWAP1 DUP4 PUSH20 0xFFFFFFFFFFFFFFFFFFFFFFFFFFFFFFFFFFFFFFFF AND MUL OR SWAP1 SSTORE POP DUP1 PUSH1 0x3 PUSH0 PUSH2 0x100 EXP DUP2 SLOAD DUP2 PUSH20 0xFFFFFFFFFFFFFFFFFFFFFFFFFFFFFFFFFFFFFFFF MUL NOT AND SWAP1 DUP4 PUSH20 0xFFFFFFFFFFFFFFFFFFFFFFFFFFFFFFFFFFFFFFFF AND MUL OR SWAP1 SSTORE POP POP POP POP PUSH2 0x6C8 JUMP JUMPDEST PUSH0 PUSH0 PUSH0 SWAP1 SLOAD SWAP1 PUSH2 0x100 EXP SWAP1 DIV PUSH20 0xFFFFFFFFFFFFFFFFFFFFFFFFFFFFFFFFFFFFFFFF AND SWAP1 POP DUP2 PUSH0 PUSH0 PUSH2 0x100 EXP DUP2 SLOAD DUP2 PUSH20 0xFFFFFFFFFFFFFFFFFFFFFFFFFFFFFFFFFFFFFFFF MUL NOT AND SWAP1 DUP4 PUSH20 0xFFFFFFFFFFFFFFFFFFFFFFFFFFFFFFFFFFFFFFFF AND MUL OR SWAP1 SSTORE POP DUP2 PUSH20 0xFFFFFFFFFFFFFFFFFFFFFFFFFFFFFFFFFFFFFFFF AND DUP2 PUSH20 0xFFFFFFFFFFFFFFFFFFFFFFFFFFFFFFFFFFFFFFFF AND PUSH32 0x8BE0079C531659141344CD1FD0A4F28419497F9722A3DAAFE3B4186F6B6457E0 PUSH1 0x40 MLOAD PUSH1 0x40 MLOAD DUP1 SWAP2 SUB SWAP1 LOG3 POP POP JUMP JUMPDEST DUP3 PUSH1 0x3 DUP2 ADD SWAP3 DUP3 ISZERO PUSH2 0x438 JUMPI SWAP2 PUSH1 0x20 MUL DUP3 ADD JUMPDEST DUP3 DUP2 GT ISZERO PUSH2 0x437 JUMPI DUP3 MLOAD DUP3 SWAP1 PUSH3 0xFFFFFF AND SWAP1 SSTORE SWAP2 PUSH1 0x20 ADD SWAP2 SWAP1 PUSH1 0x1 ADD SWAP1 PUSH2 0x415 JUMP JUMPDEST JUMPDEST POP SWAP1 POP PUSH2 0x445 SWAP2 SWAP1 PUSH2 0x48F JUMP JUMPDEST POP SWAP1 JUMP JUMPDEST DUP3 PUSH1 0x3 DUP2 ADD SWAP3 DUP3 ISZERO PUSH2 0x47E JUMPI SWAP2 PUSH1 0x20 MUL DUP3 ADD JUMPDEST DUP3 DUP2 GT ISZERO PUSH2 0x47D JUMPI DUP3 MLOAD DUP3 SWAP1 PUSH2 0xFFFF AND SWAP1 SSTORE SWAP2 PUSH1 0x20 ADD SWAP2 SWAP1 PUSH1 0x1 ADD SWAP1 PUSH2 0x45C JUMP JUMPDEST JUMPDEST POP SWAP1 POP PUSH2 0x48B SWAP2 SWAP1 PUSH2 0x48F JUMP JUMPDEST POP SWAP1 JUMP JUMPDEST JUMPDEST DUP1 DUP3 GT ISZERO PUSH2 0x4A6 JUMPI PUSH0 DUP2 PUSH0 SWAP1 SSTORE POP PUSH1 0x1 ADD PUSH2 0x490 JUMP JUMPDEST POP SWAP1 JUMP JUMPDEST PUSH0 PUSH0 REVERT JUMPDEST PUSH0 PUSH20 0xFFFFFFFFFFFFFFFFFFFFFFFFFFFFFFFFFFFFFFFF DUP3 AND SWAP1 POP SWAP2 SWAP1 POP JUMP JUMPDEST PUSH0 PUSH2 0x4D7 DUP3 PUSH2 0x4AE JUMP JUMPDEST SWAP1 POP SWAP2 SWAP1 POP JUMP JUMPDEST PUSH2 0x4E7 DUP2 PUSH2 0x4CD JUMP JUMPDEST DUP2 EQ PUSH2 0x4F1 JUMPI PUSH0 PUSH0 REVERT JUMPDEST POP JUMP JUMPDEST PUSH0 DUP2 MLOAD SWAP1 POP PUSH2 0x502 DUP2 PUSH2 0x4DE JUMP JUMPDEST SWAP3 SWAP2 POP POP JUMP JUMPDEST PUSH0 PUSH0 PUSH0 PUSH1 0x60 DUP5 DUP7 SUB SLT ISZERO PUSH2 0x51F JUMPI PUSH2 0x51E PUSH2 0x4AA JUMP JUMPDEST JUMPDEST PUSH0 PUSH2 0x52C DUP7 DUP3 DUP8 ADD PUSH2 0x4F4 JUMP JUMPDEST SWAP4 POP POP PUSH1 0x20 PUSH2 0x53D DUP7 DUP3 DUP8 ADD PUSH2 0x4F4 JUMP JUMPDEST SWAP3 POP POP PUSH1 0x40 PUSH2 0x54E DUP7 DUP3 DUP8 ADD PUSH2 0x4F4 JUMP JUMPDEST SWAP2 POP POP SWAP3 POP SWAP3 POP SWAP3 JUMP JUMPDEST PUSH2 0x561 DUP2 PUSH2 0x4CD JUMP JUMPDEST DUP3 MSTORE POP POP JUMP JUMPDEST PUSH0 PUSH1 0x20 DUP3 ADD SWAP1 POP PUSH2 0x57A PUSH0 DUP4 ADD DUP5 PUSH2 0x558 JUMP JUMPDEST SWAP3 SWAP2 POP POP JUMP JUMPDEST PUSH0 DUP3 DUP3 MSTORE PUSH1 0x20 DUP3 ADD SWAP1 POP SWAP3 SWAP2 POP POP JUMP JUMPDEST PUSH32 0x496E76616C6964207374616B696E6720746F6B656E0000000000000000000000 PUSH0 DUP3 ADD MSTORE POP JUMP JUMPDEST PUSH0 PUSH2 0x5C4 PUSH1 0x15 DUP4 PUSH2 0x580 JUMP JUMPDEST SWAP2 POP PUSH2 0x5CF DUP3 PUSH2 0x590 JUMP JUMPDEST PUSH1 0x20 DUP3 ADD SWAP1 POP SWAP2 SWAP1 POP JUMP JUMPDEST PUSH0 PUSH1 0x20 DUP3 ADD SWAP1 POP DUP2 DUP2 SUB PUSH0 DUP4 ADD MSTORE PUSH2 0x5F1 DUP2 PUSH2 0x5B8 JUMP JUMPDEST SWAP1 POP SWAP2 SWAP1 POP JUMP JUMPDEST PUSH32 0x496E76616C69642072657761726420746F6B656E000000000000000000000000 PUSH0 DUP3 ADD MSTORE POP JUMP JUMPDEST PUSH0 PUSH2 0x62C PUSH1 0x14 DUP4 PUSH2 0x580 JUMP JUMPDEST SWAP2 POP PUSH2 0x637 DUP3 PUSH2 0x5F8 JUMP JUMPDEST PUSH1 0x20 DUP3 ADD SWAP1 POP SWAP2 SWAP1 POP JUMP JUMPDEST PUSH0 PUSH1 0x20 DUP3 ADD SWAP1 POP DUP2 DUP2 SUB PUSH0 DUP4 ADD MSTORE PUSH2 0x659 DUP2 PUSH2 0x620 JUMP JUMPDEST SWAP1 POP SWAP2 SWAP1 POP JUMP JUMPDEST PUSH32 0x496E76616C696420666565207265636569766572000000000000000000000000 PUSH0 DUP3 ADD MSTORE POP JUMP JUMPDEST PUSH0 PUSH2 0x694 PUSH1 0x14 DUP4 PUSH2 0x580 JUMP JUMPDEST SWAP2 POP PUSH2 0x69F DUP3 PUSH2 0x660 JUMP JUMPDEST PUSH1 0x20 DUP3 ADD SWAP1 POP SWAP2 SWAP1 POP JUMP JUMPDEST PUSH0 PUSH1 0x20 DUP3 ADD SWAP1 POP DUP2 DUP2 SUB PUSH0 DUP4 ADD MSTORE PUSH2 0x6C1 DUP2 PUSH2 0x688 JUMP JUMPDEST SWAP1 POP SWAP2 SWAP1 POP JUMP JUMPDEST PUSH1 0x80 MLOAD PUSH2 0x2CCF PUSH2 0x6E7 PUSH0 CODECOPY PUSH0 DUP2 DUP2 PUSH2 0xCDC ADD MSTORE PUSH2 0x1038 ADD MSTORE PUSH2 0x2CCF PUSH0 RETURN INVALID PUSH1 0x80 PUSH1 0x40 MSTORE CALLVALUE DUP1 ISZERO PUSH2 0xF JUMPI PUSH0 PUSH0 REVERT JUMPDEST POP PUSH1 0x4 CALLDATASIZE LT PUSH2 0x171 JUMPI PUSH0 CALLDATALOAD PUSH1 0xE0 SHR DUP1 PUSH4 0x7A5C08AE GT PUSH2 0xDC JUMPI DUP1 PUSH4 0xBBD36B61 GT PUSH2 0x95 JUMPI DUP1 PUSH4 0xE6A69AB8 GT PUSH2 0x6F JUMPI DUP1 PUSH4 0xE6A69AB8 EQ PUSH2 0x426 JUMPI DUP1 PUSH4 0xF2FDE38B EQ PUSH2 0x444 JUMPI DUP1 PUSH4 0xF7C618C1 EQ PUSH2 0x460 JUMPI DUP1 PUSH4 0xF8CF31CB EQ PUSH2 0x47E JUMPI PUSH2 0x171 JUMP JUMPDEST DUP1 PUSH4 0xBBD36B61 EQ PUSH2 0x3E4 JUMPI DUP1 PUSH4 0xC69BEBE4 EQ PUSH2 0x400 JUMPI DUP1 PUSH4 0xC7B8981C EQ PUSH2 0x41C JUMPI PUSH2 0x171 JUMP JUMPDEST DUP1 PUSH4 0x7A5C08AE EQ PUSH2 0x334 JUMPI DUP1 PUSH4 0x817B1CD2 EQ PUSH2 0x352 JUMPI DUP1 PUSH4 0x8DA5CB5B EQ PUSH2 0x370 JUMPI DUP1 PUSH4 0x95A29060 EQ PUSH2 0x38E JUMPI DUP1 PUSH4 0xAE169A50 EQ PUSH2 0x3AA JUMPI DUP1 PUSH4 0xB3F00674 EQ PUSH2 0x3C6 JUMPI PUSH2 0x171 JUMP JUMPDEST DUP1 PUSH4 0x561B2463 GT PUSH2 0x12E JUMPI DUP1 PUSH4 0x561B2463 EQ PUSH2 0x26F JUMPI DUP1 PUSH4 0x584B62A1 EQ PUSH2 0x28B JUMPI DUP1 PUSH4 0x5ACD2E4C EQ PUSH2 0x2C0 JUMPI DUP1 PUSH4 0x6B494DEF EQ PUSH2 0x2DC JUMPI DUP1 PUSH4 0x715018A6 EQ PUSH2 0x30C JUMPI DUP1 PUSH4 0x72F702F3 EQ PUSH2 0x316 JUMPI PUSH2 0x171 JUMP JUMPDEST DUP1 PUSH4 0x630E463 EQ PUSH2 0x175 JUMPI DUP1 PUSH4 0x1747E0B0 EQ PUSH2 0x1A5 JUMPI DUP1 PUSH4 0x1852E8D9 EQ PUSH2 0x1D5 JUMPI DUP1 PUSH4 0x38BCEAAC EQ PUSH2 0x205 JUMPI DUP1 PUSH4 0x4060E257 EQ PUSH2 0x223 JUMPI DUP1 PUSH4 0x4C8F2A78 EQ PUSH2 0x23F JUMPI JUMPDEST PUSH0 PUSH0 REVERT JUMPDEST PUSH2 0x18F PUSH1 0x4 DUP1 CALLDATASIZE SUB DUP2 ADD SWAP1 PUSH2 0x18A SWAP2 SWAP1 PUSH2 0x2019 JUMP JUMPDEST PUSH2 0x49A JUMP JUMPDEST PUSH1 0x40 MLOAD PUSH2 0x19C SWAP2 SWAP1 PUSH2 0x205C JUMP JUMPDEST PUSH1 0x40 MLOAD DUP1 SWAP2 SUB SWAP1 RETURN JUMPDEST PUSH2 0x1BF PUSH1 0x4 DUP1 CALLDATASIZE SUB DUP2 ADD SWAP1 PUSH2 0x1BA SWAP2 SWAP1 PUSH2 0x2019 JUMP JUMPDEST PUSH2 0x4AF JUMP JUMPDEST PUSH1 0x40 MLOAD PUSH2 0x1CC SWAP2 SWAP1 PUSH2 0x21BF JUMP JUMPDEST PUSH1 0x40 MLOAD DUP1 SWAP2 SUB SWAP1 RETURN JUMPDEST PUSH2 0x1EF PUSH1 0x4 DUP1 CALLDATASIZE SUB DUP2 ADD SWAP1 PUSH2 0x1EA SWAP2 SWAP1 PUSH2 0x2209 JUMP JUMPDEST PUSH2 0x5A4 JUMP JUMPDEST PUSH1 0x40 MLOAD PUSH2 0x1FC SWAP2 SWAP1 PUSH2 0x205C JUMP JUMPDEST PUSH1 0x40 MLOAD DUP1 SWAP2 SUB SWAP1 RETURN JUMPDEST PUSH2 0x20D PUSH2 0x862 JUMP JUMPDEST PUSH1 0x40 MLOAD PUSH2 0x21A SWAP2 SWAP1 PUSH2 0x205C JUMP JUMPDEST PUSH1 0x40 MLOAD DUP1 SWAP2 SUB SWAP1 RETURN JUMPDEST PUSH2 0x23D PUSH1 0x4 DUP1 CALLDATASIZE SUB DUP2 ADD SWAP1 PUSH2 0x238 SWAP2 SWAP1 PUSH2 0x2247 JUMP JUMPDEST PUSH2 0x867 JUMP JUMPDEST STOP JUMPDEST PUSH2 0x259 PUSH1 0x4 DUP1 CALLDATASIZE SUB DUP2 ADD SWAP1 PUSH2 0x254 SWAP2 SWAP1 PUSH2 0x2247 JUMP JUMPDEST PUSH2 0xBC0 JUMP JUMPDEST PUSH1 0x40 MLOAD PUSH2 0x266 SWAP2 SWAP1 PUSH2 0x205C JUMP JUMPDEST PUSH1 0x40 MLOAD DUP1 SWAP2 SUB SWAP1 RETURN JUMPDEST PUSH2 0x289 PUSH1 0x4 DUP1 CALLDATASIZE SUB DUP2 ADD SWAP1 PUSH2 0x284 SWAP2 SWAP1 PUSH2 0x229C JUMP JUMPDEST PUSH2 0xBD9 JUMP JUMPDEST STOP JUMPDEST PUSH2 0x2A5 PUSH1 0x4 DUP1 CALLDATASIZE SUB DUP2 ADD SWAP1 PUSH2 0x2A0 SWAP2 SWAP1 PUSH2 0x2209 JUMP JUMPDEST PUSH2 0xEB8 JUMP JUMPDEST PUSH1 0x40 MLOAD PUSH2 0x2B7 SWAP7 SWAP6 SWAP5 SWAP4 SWAP3 SWAP2 SWAP1 PUSH2 0x22FB JUMP JUMPDEST PUSH1 0x40 MLOAD DUP1 SWAP2 SUB SWAP1 RETURN JUMPDEST PUSH2 0x2DA PUSH1 0x4 DUP1 CALLDATASIZE SUB DUP2 ADD SWAP1 PUSH2 0x2D5 SWAP2 SWAP1 PUSH2 0x235A JUMP JUMPDEST PUSH2 0xF23 JUMP JUMPDEST STOP JUMPDEST PUSH2 0x2F6 PUSH1 0x4 DUP1 CALLDATASIZE SUB DUP2 ADD SWAP1 PUSH2 0x2F1 SWAP2 SWAP1 PUSH2 0x2247 JUMP JUMPDEST PUSH2 0x100A JUMP JUMPDEST PUSH1 0x40 MLOAD PUSH2 0x303 SWAP2 SWAP1 PUSH2 0x205C JUMP JUMPDEST PUSH1 0x40 MLOAD DUP1 SWAP2 SUB SWAP1 RETURN JUMPDEST PUSH2 0x314 PUSH2 0x1023 JUMP JUMPDEST STOP JUMPDEST PUSH2 0x31E PUSH2 0x1036 JUMP JUMPDEST PUSH1 0x40 MLOAD PUSH2 0x32B SWAP2 SWAP1 PUSH2 0x23F3 JUMP JUMPDEST PUSH1 0x40 MLOAD DUP1 SWAP2 SUB SWAP1 RETURN JUMPDEST PUSH2 0x33C PUSH2 0x105A JUMP JUMPDEST PUSH1 0x40 MLOAD PUSH2 0x349 SWAP2 SWAP1 PUSH2 0x205C JUMP JUMPDEST PUSH1 0x40 MLOAD DUP1 SWAP2 SUB SWAP1 RETURN JUMPDEST PUSH2 0x35A PUSH2 0x1060 JUMP JUMPDEST PUSH1 0x40 MLOAD PUSH2 0x367 SWAP2 SWAP1 PUSH2 0x205C JUMP JUMPDEST PUSH1 0x40 MLOAD DUP1 SWAP2 SUB SWAP1 RETURN JUMPDEST PUSH2 0x378 PUSH2 0x1066 JUMP JUMPDEST PUSH1 0x40 MLOAD PUSH2 0x385 SWAP2 SWAP1 PUSH2 0x241B JUMP JUMPDEST PUSH1 0x40 MLOAD DUP1 SWAP2 SUB SWAP1 RETURN JUMPDEST PUSH2 0x3A8 PUSH1 0x4 DUP1 CALLDATASIZE SUB DUP2 ADD SWAP1 PUSH2 0x3A3 SWAP2 SWAP1 PUSH2 0x2247 JUMP JUMPDEST PUSH2 0x108D JUMP JUMPDEST STOP JUMPDEST PUSH2 0x3C4 PUSH1 0x4 DUP1 CALLDATASIZE SUB DUP2 ADD SWAP1 PUSH2 0x3BF SWAP2 SWAP1 PUSH2 0x2247 JUMP JUMPDEST PUSH2 0x1256 JUMP JUMPDEST STOP JUMPDEST PUSH2 0x3CE PUSH2 0x16CC JUMP JUMPDEST PUSH1 0x40 MLOAD PUSH2 0x3DB SWAP2 SWAP1 PUSH2 0x241B JUMP JUMPDEST PUSH1 0x40 MLOAD DUP1 SWAP2 SUB SWAP1 RETURN JUMPDEST PUSH2 0x3FE PUSH1 0x4 DUP1 CALLDATASIZE SUB DUP2 ADD SWAP1 PUSH2 0x3F9 SWAP2 SWAP1 PUSH2 0x2247 JUMP JUMPDEST PUSH2 0x16F1 JUMP JUMPDEST STOP JUMPDEST PUSH2 0x41A PUSH1 0x4 DUP1 CALLDATASIZE SUB DUP2 ADD SWAP1 PUSH2 0x415 SWAP2 SWAP1 PUSH2 0x2019 JUMP JUMPDEST PUSH2 0x17DB JUMP JUMPDEST STOP JUMPDEST PUSH2 0x424 PUSH2 0x18D7 JUMP JUMPDEST STOP JUMPDEST PUSH2 0x42E PUSH2 0x1A49 JUMP JUMPDEST PUSH1 0x40 MLOAD PUSH2 0x43B SWAP2 SWAP1 PUSH2 0x205C JUMP JUMPDEST PUSH1 0x40 MLOAD DUP1 SWAP2 SUB SWAP1 RETURN JUMPDEST PUSH2 0x45E PUSH1 0x4 DUP1 CALLDATASIZE SUB DUP2 ADD SWAP1 PUSH2 0x459 SWAP2 SWAP1 PUSH2 0x2019 JUMP JUMPDEST PUSH2 0x1A51 JUMP JUMPDEST STOP JUMPDEST PUSH2 0x468 PUSH2 0x1AD5 JUMP JUMPDEST PUSH1 0x40 MLOAD PUSH2 0x475 SWAP2 SWAP1 PUSH2 0x23F3 JUMP JUMPDEST PUSH1 0x40 MLOAD DUP1 SWAP2 SUB SWAP1 RETURN JUMPDEST PUSH2 0x498 PUSH1 0x4 DUP1 CALLDATASIZE SUB DUP2 ADD SWAP1 PUSH2 0x493 SWAP2 SWAP1 PUSH2 0x2019 JUMP JUMPDEST PUSH2 0x1AFA JUMP JUMPDEST STOP JUMPDEST PUSH1 0xB PUSH1 0x20 MSTORE DUP1 PUSH0 MSTORE PUSH1 0x40 PUSH0 KECCAK256 PUSH0 SWAP2 POP SWAP1 POP SLOAD DUP2 JUMP JUMPDEST PUSH1 0x60 PUSH1 0xA PUSH0 DUP4 PUSH20 0xFFFFFFFFFFFFFFFFFFFFFFFFFFFFFFFFFFFFFFFF AND PUSH20 0xFFFFFFFFFFFFFFFFFFFFFFFFFFFFFFFFFFFFFFFF AND DUP2 MSTORE PUSH1 0x20 ADD SWAP1 DUP2 MSTORE PUSH1 0x20 ADD PUSH0 KECCAK256 DUP1 SLOAD DUP1 PUSH1 0x20 MUL PUSH1 0x20 ADD PUSH1 0x40 MLOAD SWAP1 DUP2 ADD PUSH1 0x40 MSTORE DUP1 SWAP3 SWAP2 SWAP1 DUP2 DUP2 MSTORE PUSH1 0x20 ADD PUSH0 SWAP1 JUMPDEST DUP3 DUP3 LT ISZERO PUSH2 0x599 JUMPI DUP4 DUP3 SWAP1 PUSH0 MSTORE PUSH1 0x20 PUSH0 KECCAK256 SWAP1 PUSH1 0x5 MUL ADD PUSH1 0x40 MLOAD DUP1 PUSH1 0xC0 ADD PUSH1 0x40 MSTORE SWAP1 DUP2 PUSH0 DUP3 ADD SLOAD DUP2 MSTORE PUSH1 0x20 ADD PUSH1 0x1 DUP3 ADD SLOAD DUP2 MSTORE PUSH1 0x20 ADD PUSH1 0x2 DUP3 ADD SLOAD DUP2 MSTORE PUSH1 0x20 ADD PUSH1 0x3 DUP3 ADD PUSH0 SWAP1 SLOAD SWAP1 PUSH2 0x100 EXP SWAP1 DIV PUSH1 0xFF AND ISZERO ISZERO ISZERO ISZERO DUP2 MSTORE PUSH1 0x20 ADD PUSH1 0x3 DUP3 ADD PUSH1 0x1 SWAP1 SLOAD SWAP1 PUSH2 0x100 EXP SWAP1 DIV PUSH1 0xFF AND ISZERO ISZERO ISZERO ISZERO DUP2 MSTORE PUSH1 0x20 ADD PUSH1 0x4 DUP3 ADD SLOAD DUP2 MSTORE POP POP DUP2 MSTORE PUSH1 0x20 ADD SWAP1 PUSH1 0x1 ADD SWAP1 PUSH2 0x50D JUMP JUMPDEST POP POP POP POP SWAP1 POP SWAP2 SWAP1 POP JUMP JUMPDEST PUSH0 PUSH0 PUSH20 0xFFFFFFFFFFFFFFFFFFFFFFFFFFFFFFFFFFFFFFFF AND DUP4 PUSH20 0xFFFFFFFFFFFFFFFFFFFFFFFFFFFFFFFFFFFFFFFF AND SUB PUSH2 0x613 JUMPI PUSH1 0x40 MLOAD PUSH32 0x8C379A000000000000000000000000000000000000000000000000000000000 DUP2 MSTORE PUSH1 0x4 ADD PUSH2 0x60A SWAP1 PUSH2 0x248E JUMP JUMPDEST PUSH1 0x40 MLOAD DUP1 SWAP2 SUB SWAP1 REVERT JUMPDEST PUSH1 0xA PUSH0 DUP5 PUSH20 0xFFFFFFFFFFFFFFFFFFFFFFFFFFFFFFFFFFFFFFFF AND PUSH20 0xFFFFFFFFFFFFFFFFFFFFFFFFFFFFFFFFFFFFFFFF AND DUP2 MSTORE PUSH1 0x20 ADD SWAP1 DUP2 MSTORE PUSH1 0x20 ADD PUSH0 KECCAK256 DUP1 SLOAD SWAP1 POP DUP3 LT PUSH2 0x695 JUMPI PUSH1 0x40 MLOAD PUSH32 0x8C379A000000000000000000000000000000000000000000000000000000000 DUP2 MSTORE PUSH1 0x4 ADD PUSH2 0x68C SWAP1 PUSH2 0x24F6 JUMP JUMPDEST PUSH1 0x40 MLOAD DUP1 SWAP2 SUB SWAP1 REVERT JUMPDEST PUSH0 PUSH1 0xA PUSH0 DUP6 PUSH20 0xFFFFFFFFFFFFFFFFFFFFFFFFFFFFFFFFFFFFFFFF AND PUSH20 0xFFFFFFFFFFFFFFFFFFFFFFFFFFFFFFFFFFFFFFFF AND DUP2 MSTORE PUSH1 0x20 ADD SWAP1 DUP2 MSTORE PUSH1 0x20 ADD PUSH0 KECCAK256 DUP4 DUP2 SLOAD DUP2 LT PUSH2 0x6E5 JUMPI PUSH2 0x6E4 PUSH2 0x2514 JUMP JUMPDEST JUMPDEST SWAP1 PUSH0 MSTORE PUSH1 0x20 PUSH0 KECCAK256 SWAP1 PUSH1 0x5 MUL ADD PUSH1 0x40 MLOAD DUP1 PUSH1 0xC0 ADD PUSH1 0x40 MSTORE SWAP1 DUP2 PUSH0 DUP3 ADD SLOAD DUP2 MSTORE PUSH1 0x20 ADD PUSH1 0x1 DUP3 ADD SLOAD DUP2 MSTORE PUSH1 0x20 ADD PUSH1 0x2 DUP3 ADD SLOAD DUP2 MSTORE PUSH1 0x20 ADD PUSH1 0x3 DUP3 ADD PUSH0 SWAP1 SLOAD SWAP1 PUSH2 0x100 EXP SWAP1 DIV PUSH1 0xFF AND ISZERO ISZERO ISZERO ISZERO DUP2 MSTORE PUSH1 0x20 ADD PUSH1 0x3 DUP3 ADD PUSH1 0x1 SWAP1 SLOAD SWAP1 PUSH2 0x100 EXP SWAP1 DIV PUSH1 0xFF AND ISZERO ISZERO ISZERO ISZERO DUP2 MSTORE PUSH1 0x20 ADD PUSH1 0x4 DUP3 ADD SLOAD DUP2 MSTORE POP POP SWAP1 POP DUP1 PUSH1 0x60 ADD MLOAD ISZERO PUSH2 0x79F JUMPI PUSH1 0x40 MLOAD PUSH32 0x8C379A000000000000000000000000000000000000000000000000000000000 DUP2 MSTORE PUSH1 0x4 ADD PUSH2 0x796 SWAP1 PUSH2 0x258B JUMP JUMPDEST PUSH1 0x40 MLOAD DUP1 SWAP2 SUB SWAP1 REVERT JUMPDEST PUSH0 DUP2 PUSH1 0x40 ADD MLOAD SWAP1 POP DUP2 PUSH1 0x80 ADD MLOAD DUP1 ISZERO PUSH2 0x7B7 JUMPI POP DUP1 TIMESTAMP GT JUMPDEST ISZERO PUSH2 0x7C0 JUMPI TIMESTAMP SWAP1 POP JUMPDEST PUSH0 DUP3 PUSH1 0x20 ADD MLOAD DUP3 PUSH2 0x7D1 SWAP2 SWAP1 PUSH2 0x25D6 JUMP JUMPDEST SWAP1 POP PUSH0 PUSH2 0x7F0 DUP5 PUSH1 0x20 ADD MLOAD DUP6 PUSH1 0x40 ADD MLOAD PUSH2 0x7EB SWAP2 SWAP1 PUSH2 0x25D6 JUMP JUMPDEST PUSH2 0x1BF6 JUMP JUMPDEST SWAP1 POP PUSH0 PUSH1 0x7 DUP3 PUSH1 0x3 DUP2 LT PUSH2 0x807 JUMPI PUSH2 0x806 PUSH2 0x2514 JUMP JUMPDEST JUMPDEST ADD SLOAD SWAP1 POP PUSH0 DUP6 PUSH1 0xA0 ADD MLOAD DUP7 PUSH0 ADD MLOAD PUSH2 0x81F SWAP2 SWAP1 PUSH2 0x2609 JUMP JUMPDEST SWAP1 POP PUSH4 0x1E13380 PUSH2 0x2710 PUSH2 0x833 SWAP2 SWAP1 PUSH2 0x263C JUMP JUMPDEST DUP5 DUP4 DUP4 PUSH2 0x840 SWAP2 SWAP1 PUSH2 0x263C JUMP JUMPDEST PUSH2 0x84A SWAP2 SWAP1 PUSH2 0x263C JUMP JUMPDEST PUSH2 0x854 SWAP2 SWAP1 PUSH2 0x26AA JUMP JUMPDEST SWAP7 POP POP POP POP POP POP POP SWAP3 SWAP2 POP POP JUMP JUMPDEST PUSH1 0x32 DUP2 JUMP JUMPDEST PUSH2 0x86F PUSH2 0x1C78 JUMP JUMPDEST CALLER PUSH20 0xFFFFFFFFFFFFFFFFFFFFFFFFFFFFFFFFFFFFFFFF AND ORIGIN PUSH20 0xFFFFFFFFFFFFFFFFFFFFFFFFFFFFFFFFFFFFFFFF AND EQ PUSH2 0x8DD JUMPI PUSH1 0x40 MLOAD PUSH32 0x8C379A000000000000000000000000000000000000000000000000000000000 DUP2 MSTORE PUSH1 0x4 ADD PUSH2 0x8D4 SWAP1 PUSH2 0x2724 JUMP JUMPDEST PUSH1 0x40 MLOAD DUP1 SWAP2 SUB SWAP1 REVERT JUMPDEST PUSH0 CALLER SWAP1 POP PUSH1 0xA PUSH0 DUP3 PUSH20 0xFFFFFFFFFFFFFFFFFFFFFFFFFFFFFFFFFFFFFFFF AND PUSH20 0xFFFFFFFFFFFFFFFFFFFFFFFFFFFFFFFFFFFFFFFF AND DUP2 MSTORE PUSH1 0x20 ADD SWAP1 DUP2 MSTORE PUSH1 0x20 ADD PUSH0 KECCAK256 DUP1 SLOAD SWAP1 POP DUP3 LT PUSH2 0x963 JUMPI PUSH1 0x40 MLOAD PUSH32 0x8C379A000000000000000000000000000000000000000000000000000000000 DUP2 MSTORE PUSH1 0x4 ADD PUSH2 0x95A SWAP1 PUSH2 0x24F6 JUMP JUMPDEST PUSH1 0x40 MLOAD DUP1 SWAP2 SUB SWAP1 REVERT JUMPDEST PUSH0 PUSH1 0xA PUSH0 DUP4 PUSH20 0xFFFFFFFFFFFFFFFFFFFFFFFFFFFFFFFFFFFFFFFF AND PUSH20 0xFFFFFFFFFFFFFFFFFFFFFFFFFFFFFFFFFFFFFFFF AND DUP2 MSTORE PUSH1 0x20 ADD SWAP1 DUP2 MSTORE PUSH1 0x20 ADD PUSH0 KECCAK256 DUP4 DUP2 SLOAD DUP2 LT PUSH2 0x9B3 JUMPI PUSH2 0x9B2 PUSH2 0x2514 JUMP JUMPDEST JUMPDEST SWAP1 PUSH0 MSTORE PUSH1 0x20 PUSH0 KECCAK256 SWAP1 PUSH1 0x5 MUL ADD SWAP1 POP DUP1 PUSH1 0x3 ADD PUSH0 SWAP1 SLOAD SWAP1 PUSH2 0x100 EXP SWAP1 DIV PUSH1 0xFF AND ISZERO PUSH2 0xA12 JUMPI PUSH1 0x40 MLOAD PUSH32 0x8C379A000000000000000000000000000000000000000000000000000000000 DUP2 MSTORE PUSH1 0x4 ADD PUSH2 0xA09 SWAP1 PUSH2 0x258B JUMP JUMPDEST PUSH1 0x40 MLOAD DUP1 SWAP2 SUB SWAP1 REVERT JUMPDEST DUP1 PUSH1 0x3 ADD PUSH1 0x1 SWAP1 SLOAD SWAP1 PUSH2 0x100 EXP SWAP1 DIV PUSH1 0xFF AND PUSH2 0xA63 JUMPI PUSH1 0x40 MLOAD PUSH32 0x8C379A000000000000000000000000000000000000000000000000000000000 DUP2 MSTORE PUSH1 0x4 ADD PUSH2 0xA5A SWAP1 PUSH2 0x278C JUMP JUMPDEST PUSH1 0x40 MLOAD DUP1 SWAP2 SUB SWAP1 REVERT JUMPDEST DUP1 PUSH1 0x2 ADD SLOAD TIMESTAMP LT ISZERO PUSH2 0xAAA JUMPI PUSH1 0x40 MLOAD PUSH32 0x8C379A000000000000000000000000000000000000000000000000000000000 DUP2 MSTORE PUSH1 0x4 ADD PUSH2 0xAA1 SWAP1 PUSH2 0x27F4 JUMP JUMPDEST PUSH1 0x40 MLOAD DUP1 SWAP2 SUB SWAP1 REVERT JUMPDEST PUSH0 PUSH2 0xAB5 DUP4 DUP6 PUSH2 0x5A4 JUMP JUMPDEST SWAP1 POP DUP1 PUSH1 0xD SLOAD LT ISZERO PUSH2 0xAFC JUMPI PUSH1 0x40 MLOAD PUSH32 0x8C379A000000000000000000000000000000000000000000000000000000000 DUP2 MSTORE PUSH1 0x4 ADD PUSH2 0xAF3 SWAP1 PUSH2 0x285C JUMP JUMPDEST PUSH1 0x40 MLOAD DUP1 SWAP2 SUB SWAP1 REVERT JUMPDEST TIMESTAMP DUP3 PUSH1 0x1 ADD DUP2 SWAP1 SSTORE POP DUP2 PUSH1 0x1 ADD SLOAD DUP3 PUSH1 0x2 ADD SLOAD PUSH2 0xB19 SWAP2 SWAP1 PUSH2 0x25D6 JUMP JUMPDEST TIMESTAMP PUSH2 0xB24 SWAP2 SWAP1 PUSH2 0x2609 JUMP JUMPDEST DUP3 PUSH1 0x2 ADD DUP2 SWAP1 SSTORE POP DUP1 DUP3 PUSH1 0x4 ADD PUSH0 DUP3 DUP3 SLOAD PUSH2 0xB3F SWAP2 SWAP1 PUSH2 0x2609 JUMP JUMPDEST SWAP3 POP POP DUP2 SWAP1 SSTORE POP DUP1 PUSH1 0xD PUSH0 DUP3 DUP3 SLOAD PUSH2 0xB57 SWAP2 SWAP1 PUSH2 0x25D6 JUMP JUMPDEST SWAP3 POP POP DUP2 SWAP1 SSTORE POP DUP3 PUSH20 0xFFFFFFFFFFFFFFFFFFFFFFFFFFFFFFFFFFFFFFFF AND PUSH32 0x593662CBE53E88DF3FEF748665B8C3D3142E5D34DC1B24290F7E953537A00183 DUP6 DUP5 PUSH1 0x4 ADD SLOAD PUSH1 0x40 MLOAD PUSH2 0xBAA SWAP3 SWAP2 SWAP1 PUSH2 0x287A JUMP JUMPDEST PUSH1 0x40 MLOAD DUP1 SWAP2 SUB SWAP1 LOG2 POP POP POP PUSH2 0xBBD PUSH2 0x1CC7 JUMP JUMPDEST POP JUMP JUMPDEST PUSH1 0x4 DUP2 PUSH1 0x3 DUP2 LT PUSH2 0xBCF JUMPI PUSH0 DUP1 REVERT JUMPDEST ADD PUSH0 SWAP2 POP SWAP1 POP SLOAD DUP2 JUMP JUMPDEST PUSH2 0xBE1 PUSH2 0x1C78 JUMP JUMPDEST CALLER PUSH20 0xFFFFFFFFFFFFFFFFFFFFFFFFFFFFFFFFFFFFFFFF AND ORIGIN PUSH20 0xFFFFFFFFFFFFFFFFFFFFFFFFFFFFFFFFFFFFFFFF AND EQ PUSH2 0xC4F JUMPI PUSH1 0x40 MLOAD PUSH32 0x8C379A000000000000000000000000000000000000000000000000000000000 DUP2 MSTORE PUSH1 0x4 ADD PUSH2 0xC46 SWAP1 PUSH2 0x2724 JUMP JUMPDEST PUSH1 0x40 MLOAD DUP1 SWAP2 SUB SWAP1 REVERT JUMPDEST PUSH1 0x3 DUP3 LT PUSH2 0xC92 JUMPI PUSH1 0x40 MLOAD PUSH32 0x8C379A000000000000000000000000000000000000000000000000000000000 DUP2 MSTORE PUSH1 0x4 ADD PUSH2 0xC89 SWAP1 PUSH2 0x28EB JUMP JUMPDEST PUSH1 0x40 MLOAD DUP1 SWAP2 SUB SWAP1 REVERT JUMPDEST PUSH0 DUP4 GT PUSH2 0xCD4 JUMPI PUSH1 0x40 MLOAD PUSH32 0x8C379A000000000000000000000000000000000000000000000000000000000 DUP2 MSTORE PUSH1 0x4 ADD PUSH2 0xCCB SWAP1 PUSH2 0x2953 JUMP JUMPDEST PUSH1 0x40 MLOAD DUP1 SWAP2 SUB SWAP1 REVERT JUMPDEST PUSH2 0xD21 CALLER ADDRESS DUP6 PUSH32 0x0 PUSH20 0xFFFFFFFFFFFFFFFFFFFFFFFFFFFFFFFFFFFFFFFF AND PUSH2 0x1CD0 SWAP1 SWAP4 SWAP3 SWAP2 SWAP1 PUSH4 0xFFFFFFFF AND JUMP JUMPDEST PUSH0 PUSH1 0x4 DUP4 PUSH1 0x3 DUP2 LT PUSH2 0xD36 JUMPI PUSH2 0xD35 PUSH2 0x2514 JUMP JUMPDEST JUMPDEST ADD SLOAD TIMESTAMP PUSH2 0xD43 SWAP2 SWAP1 PUSH2 0x2609 JUMP JUMPDEST SWAP1 POP PUSH1 0xA PUSH0 CALLER PUSH20 0xFFFFFFFFFFFFFFFFFFFFFFFFFFFFFFFFFFFFFFFF AND PUSH20 0xFFFFFFFFFFFFFFFFFFFFFFFFFFFFFFFFFFFFFFFF AND DUP2 MSTORE PUSH1 0x20 ADD SWAP1 DUP2 MSTORE PUSH1 0x20 ADD PUSH0 KECCAK256 PUSH1 0x40 MLOAD DUP1 PUSH1 0xC0 ADD PUSH1 0x40 MSTORE DUP1 DUP7 DUP2 MSTORE PUSH1 0x20 ADD TIMESTAMP DUP2 MSTORE PUSH1 0x20 ADD DUP4 DUP2 MSTORE PUSH1 0x20 ADD PUSH0 ISZERO ISZERO DUP2 MSTORE PUSH1 0x20 ADD DUP5 ISZERO ISZERO DUP2 MSTORE PUSH1 0x20 ADD PUSH0 DUP2 MSTORE POP SWAP1 DUP1 PUSH1 0x1 DUP2 SLOAD ADD DUP1 DUP3 SSTORE DUP1 SWAP2 POP POP PUSH1 0x1 SWAP1 SUB SWAP1 PUSH0 MSTORE PUSH1 0x20 PUSH0 KECCAK256 SWAP1 PUSH1 0x5 MUL ADD PUSH0 SWAP1 SWAP2 SWAP1 SWAP2 SWAP1 SWAP2 POP PUSH0 DUP3 ADD MLOAD DUP2 PUSH0 ADD SSTORE PUSH1 0x20 DUP3 ADD MLOAD DUP2 PUSH1 0x1 ADD SSTORE PUSH1 0x40 DUP3 ADD MLOAD DUP2 PUSH1 0x2 ADD SSTORE PUSH1 0x60 DUP3 ADD MLOAD DUP2 PUSH1 0x3 ADD PUSH0 PUSH2 0x100 EXP DUP2 SLOAD DUP2 PUSH1 0xFF MUL NOT AND SWAP1 DUP4 ISZERO ISZERO MUL OR SWAP1 SSTORE POP PUSH1 0x80 DUP3 ADD MLOAD DUP2 PUSH1 0x3 ADD PUSH1 0x1 PUSH2 0x100 EXP DUP2 SLOAD DUP2 PUSH1 0xFF MUL NOT AND SWAP1 DUP4 ISZERO ISZERO MUL OR SWAP1 SSTORE POP PUSH1 0xA0 DUP3 ADD MLOAD DUP2 PUSH1 0x4 ADD SSTORE POP POP DUP4 PUSH1 0xC PUSH0 DUP3 DUP3 SLOAD PUSH2 0xE51 SWAP2 SWAP1 PUSH2 0x2609 JUMP JUMPDEST SWAP3 POP POP DUP2 SWAP1 SSTORE POP CALLER PUSH20 0xFFFFFFFFFFFFFFFFFFFFFFFFFFFFFFFFFFFFFFFF AND PUSH32 0x3DF45CB339F96AE4BDB793EFCB6E22100DD0DC4FD739A4EE2033FE67EA35AF96 DUP6 DUP6 DUP6 PUSH1 0x40 MLOAD PUSH2 0xEA2 SWAP4 SWAP3 SWAP2 SWAP1 PUSH2 0x2971 JUMP JUMPDEST PUSH1 0x40 MLOAD DUP1 SWAP2 SUB SWAP1 LOG2 POP PUSH2 0xEB3 PUSH2 0x1CC7 JUMP JUMPDEST POP POP POP JUMP JUMPDEST PUSH1 0xA PUSH1 0x20 MSTORE DUP2 PUSH0 MSTORE PUSH1 0x40 PUSH0 KECCAK256 DUP2 DUP2 SLOAD DUP2 LT PUSH2 0xED1 JUMPI PUSH0 DUP1 REVERT JUMPDEST SWAP1 PUSH0 MSTORE PUSH1 0x20 PUSH0 KECCAK256 SWAP1 PUSH1 0x5 MUL ADD PUSH0 SWAP2 POP SWAP2 POP POP DUP1 PUSH0 ADD SLOAD SWAP1 DUP1 PUSH1 0x1 ADD SLOAD SWAP1 DUP1 PUSH1 0x2 ADD SLOAD SWAP1 DUP1 PUSH1 0x3 ADD PUSH0 SWAP1 SLOAD SWAP1 PUSH2 0x100 EXP SWAP1 DIV PUSH1 0xFF AND SWAP1 DUP1 PUSH1 0x3 ADD PUSH1 0x1 SWAP1 SLOAD SWAP1 PUSH2 0x100 EXP SWAP1 DIV PUSH1 0xFF AND SWAP1 DUP1 PUSH1 0x4 ADD SLOAD SWAP1 POP DUP7 JUMP JUMPDEST PUSH2 0xF2B PUSH2 0x1D52 JUMP JUMPDEST PUSH1 0x3 DUP3 LT PUSH2 0xF6E JUMPI PUSH1 0x40 MLOAD PUSH32 0x8C379A000000000000000000000000000000000000000000000000000000000 DUP2 MSTORE PUSH1 0x4 ADD PUSH2 0xF65 SWAP1 PUSH2 0x28EB JUMP JUMPDEST PUSH1 0x40 MLOAD DUP1 SWAP2 SUB SWAP1 REVERT JUMPDEST PUSH2 0x2710 DUP2 GT ISZERO PUSH2 0xFB3 JUMPI PUSH1 0x40 MLOAD PUSH32 0x8C379A000000000000000000000000000000000000000000000000000000000 DUP2 MSTORE PUSH1 0x4 ADD PUSH2 0xFAA SWAP1 PUSH2 0x29F0 JUMP JUMPDEST PUSH1 0x40 MLOAD DUP1 SWAP2 SUB SWAP1 REVERT JUMPDEST DUP1 PUSH1 0x7 DUP4 PUSH1 0x3 DUP2 LT PUSH2 0xFC8 JUMPI PUSH2 0xFC7 PUSH2 0x2514 JUMP JUMPDEST JUMPDEST ADD DUP2 SWAP1 SSTORE POP PUSH32 0x787A1FCA55641CE34A438271930BBB9401DF20DB2B4F510D4F252227D85DF43D DUP3 DUP3 PUSH1 0x40 MLOAD PUSH2 0xFFE SWAP3 SWAP2 SWAP1 PUSH2 0x287A JUMP JUMPDEST PUSH1 0x40 MLOAD DUP1 SWAP2 SUB SWAP1 LOG1 POP POP JUMP JUMPDEST PUSH1 0x7 DUP2 PUSH1 0x3 DUP2 LT PUSH2 0x1019 JUMPI PUSH0 DUP1 REVERT JUMPDEST ADD PUSH0 SWAP2 POP SWAP1 POP SLOAD DUP2 JUMP JUMPDEST PUSH2 0x102B PUSH2 0x1D52 JUMP JUMPDEST PUSH2 0x1034 PUSH0 PUSH2 0x1DD9 JUMP JUMPDEST JUMP JUMPDEST PUSH32 0x0 DUP2 JUMP JUMPDEST PUSH1 0xD SLOAD DUP2 JUMP JUMPDEST PUSH1 0xC SLOAD DUP2 JUMP JUMPDEST PUSH0 PUSH0 PUSH0 SWAP1 SLOAD SWAP1 PUSH2 0x100 EXP SWAP1 DIV PUSH20 0xFFFFFFFFFFFFFFFFFFFFFFFFFFFFFFFFFFFFFFFF AND SWAP1 POP SWAP1 JUMP JUMPDEST PUSH0 CALLER SWAP1 POP PUSH1 0xA PUSH0 DUP3 PUSH20 0xFFFFFFFFFFFFFFFFFFFFFFFFFFFFFFFFFFFFFFFF AND PUSH20 0xFFFFFFFFFFFFFFFFFFFFFFFFFFFFFFFFFFFFFFFF AND DUP2 MSTORE PUSH1 0x20 ADD SWAP1 DUP2 MSTORE PUSH1 0x20 ADD PUSH0 KECCAK256 DUP1 SLOAD SWAP1 POP DUP3 LT PUSH2 0x1113 JUMPI PUSH1 0x40 MLOAD PUSH32 0x8C379A000000000000000000000000000000000000000000000000000000000 DUP2 MSTORE PUSH1 0x4 ADD PUSH2 0x110A SWAP1 PUSH2 0x24F6 JUMP JUMPDEST PUSH1 0x40 MLOAD DUP1 SWAP2 SUB SWAP1 REVERT JUMPDEST PUSH0 PUSH1 0xA PUSH0 DUP4 PUSH20 0xFFFFFFFFFFFFFFFFFFFFFFFFFFFFFFFFFFFFFFFF AND PUSH20 0xFFFFFFFFFFFFFFFFFFFFFFFFFFFFFFFFFFFFFFFF AND DUP2 MSTORE PUSH1 0x20 ADD SWAP1 DUP2 MSTORE PUSH1 0x20 ADD PUSH0 KECCAK256 DUP4 DUP2 SLOAD DUP2 LT PUSH2 0x1163 JUMPI PUSH2 0x1162 PUSH2 0x2514 JUMP JUMPDEST JUMPDEST SWAP1 PUSH0 MSTORE PUSH1 0x20 PUSH0 KECCAK256 SWAP1 PUSH1 0x5 MUL ADD SWAP1 POP DUP1 PUSH1 0x3 ADD PUSH0 SWAP1 SLOAD SWAP1 PUSH2 0x100 EXP SWAP1 DIV PUSH1 0xFF AND ISZERO PUSH2 0x11C2 JUMPI PUSH1 0x40 MLOAD PUSH32 0x8C379A000000000000000000000000000000000000000000000000000000000 DUP2 MSTORE PUSH1 0x4 ADD PUSH2 0x11B9 SWAP1 PUSH2 0x258B JUMP JUMPDEST PUSH1 0x40 MLOAD DUP1 SWAP2 SUB SWAP1 REVERT JUMPDEST DUP1 PUSH1 0x3 ADD PUSH1 0x1 SWAP1 SLOAD SWAP1 PUSH2 0x100 EXP SWAP1 DIV PUSH1 0xFF AND ISZERO DUP2 PUSH1 0x3 ADD PUSH1 0x1 PUSH2 0x100 EXP DUP2 SLOAD DUP2 PUSH1 0xFF MUL NOT AND SWAP1 DUP4 ISZERO ISZERO MUL OR SWAP1 SSTORE POP DUP2 PUSH20 0xFFFFFFFFFFFFFFFFFFFFFFFFFFFFFFFFFFFFFFFF AND PUSH32 0xFA2D7B35E7CC82247C5AE7E8AE2DC078C2B144B76A6B1068887B3C8892C15DA5 DUP5 DUP4 PUSH1 0x3 ADD PUSH1 0x1 SWAP1 SLOAD SWAP1 PUSH2 0x100 EXP SWAP1 DIV PUSH1 0xFF AND PUSH1 0x40 MLOAD PUSH2 0x1249 SWAP3 SWAP2 SWAP1 PUSH2 0x2A0E JUMP JUMPDEST PUSH1 0x40 MLOAD DUP1 SWAP2 SUB SWAP1 LOG2 POP POP POP JUMP JUMPDEST PUSH2 0x125E PUSH2 0x1C78 JUMP JUMPDEST CALLER PUSH20 0xFFFFFFFFFFFFFFFFFFFFFFFFFFFFFFFFFFFFFFFF AND ORIGIN PUSH20 0xFFFFFFFFFFFFFFFFFFFFFFFFFFFFFFFFFFFFFFFF AND EQ PUSH2 0x12CC JUMPI PUSH1 0x40 MLOAD PUSH32 0x8C379A000000000000000000000000000000000000000000000000000000000 DUP2 MSTORE PUSH1 0x4 ADD PUSH2 0x12C3 SWAP1 PUSH2 0x2724 JUMP JUMPDEST PUSH1 0x40 MLOAD DUP1 SWAP2 SUB SWAP1 REVERT JUMPDEST PUSH0 CALLER SWAP1 POP PUSH1 0xA PUSH0 DUP3 PUSH20 0xFFFFFFFFFFFFFFFFFFFFFFFFFFFFFFFFFFFFFFFF AND PUSH20 0xFFFFFFFFFFFFFFFFFFFFFFFFFFFFFFFFFFFFFFFF AND DUP2 MSTORE PUSH1 0x20 ADD SWAP1 DUP2 MSTORE PUSH1 0x20 ADD PUSH0 KECCAK256 DUP1 SLOAD SWAP1 POP DUP3 LT PUSH2 0x1352 JUMPI PUSH1 0x40 MLOAD PUSH32 0x8C379A000000000000000000000000000000000000000000000000000000000 DUP2 MSTORE PUSH1 0x4 ADD PUSH2 0x1349 SWAP1 PUSH2 0x24F6 JUMP JUMPDEST PUSH1 0x40 MLOAD DUP1 SWAP2 SUB SWAP1 REVERT JUMPDEST PUSH0 PUSH1 0xA PUSH0 DUP4 PUSH20 0xFFFFFFFFFFFFFFFFFFFFFFFFFFFFFFFFFFFFFFFF AND PUSH20 0xFFFFFFFFFFFFFFFFFFFFFFFFFFFFFFFFFFFFFFFF AND DUP2 MSTORE PUSH1 0x20 ADD SWAP1 DUP2 MSTORE PUSH1 0x20 ADD PUSH0 KECCAK256 DUP4 DUP2 SLOAD DUP2 LT PUSH2 0x13A2 JUMPI PUSH2 0x13A1 PUSH2 0x2514 JUMP JUMPDEST JUMPDEST SWAP1 PUSH0 MSTORE PUSH1 0x20 PUSH0 KECCAK256 SWAP1 PUSH1 0x5 MUL ADD SWAP1 POP DUP1 PUSH1 0x3 ADD PUSH0 SWAP1 SLOAD SWAP1 PUSH2 0x100 EXP SWAP1 DIV PUSH1 0xFF AND ISZERO PUSH2 0x1401 JUMPI PUSH1 0x40 MLOAD PUSH32 0x8C379A000000000000000000000000000000000000000000000000000000000 DUP2 MSTORE PUSH1 0x4 ADD PUSH2 0x13F8 SWAP1 PUSH2 0x258B JUMP JUMPDEST PUSH1 0x40 MLOAD DUP1 SWAP2 SUB SWAP1 REVERT JUMPDEST DUP1 PUSH1 0x2 ADD SLOAD TIMESTAMP LT ISZERO PUSH2 0x1448 JUMPI PUSH1 0x40 MLOAD PUSH32 0x8C379A000000000000000000000000000000000000000000000000000000000 DUP2 MSTORE PUSH1 0x4 ADD PUSH2 0x143F SWAP1 PUSH2 0x27F4 JUMP JUMPDEST PUSH1 0x40 MLOAD DUP1 SWAP2 SUB SWAP1 REVERT JUMPDEST PUSH0 PUSH2 0x1453 DUP4 DUP6 PUSH2 0x5A4 JUMP JUMPDEST SWAP1 POP DUP1 PUSH1 0xD SLOAD LT ISZERO PUSH2 0x149A JUMPI PUSH1 0x40 MLOAD PUSH32 0x8C379A000000000000000000000000000000000000000000000000000000000 DUP2 MSTORE PUSH1 0x4 ADD PUSH2 0x1491 SWAP1 PUSH2 0x285C JUMP JUMPDEST PUSH1 0x40 MLOAD DUP1 SWAP2 SUB SWAP1 REVERT JUMPDEST PUSH1 0x1 DUP3 PUSH1 0x3 ADD PUSH0 PUSH2 0x100 EXP DUP2 SLOAD DUP2 PUSH1 0xFF MUL NOT AND SWAP1 DUP4 ISZERO ISZERO MUL OR SWAP1 SSTORE POP DUP2 PUSH1 0x3 ADD PUSH1 0x1 SWAP1 SLOAD SWAP1 PUSH2 0x100 EXP SWAP1 DIV PUSH1 0xFF AND DUP1 ISZERO PUSH2 0x14D7 JUMPI POP PUSH0 DUP3 PUSH1 0x4 ADD SLOAD GT JUMPDEST ISZERO PUSH2 0x1602 JUMPI PUSH0 DUP2 DUP4 PUSH1 0x4 ADD SLOAD PUSH2 0x14ED SWAP2 SWAP1 PUSH2 0x2609 JUMP JUMPDEST SWAP1 POP PUSH0 PUSH2 0x2710 PUSH1 0x32 DUP4 PUSH2 0x1500 SWAP2 SWAP1 PUSH2 0x263C JUMP JUMPDEST PUSH2 0x150A SWAP2 SWAP1 PUSH2 0x26AA JUMP JUMPDEST SWAP1 POP PUSH0 DUP2 DUP4 PUSH2 0x1519 SWAP2 SWAP1 PUSH2 0x25D6 JUMP JUMPDEST SWAP1 POP DUP1 PUSH1 0xB PUSH0 DUP9 PUSH20 0xFFFFFFFFFFFFFFFFFFFFFFFFFFFFFFFFFFFFFFFF AND PUSH20 0xFFFFFFFFFFFFFFFFFFFFFFFFFFFFFFFFFFFFFFFF AND DUP2 MSTORE PUSH1 0x20 ADD SWAP1 DUP2 MSTORE PUSH1 0x20 ADD PUSH0 KECCAK256 PUSH0 DUP3 DUP3 SLOAD PUSH2 0x1567 SWAP2 SWAP1 PUSH2 0x2609 JUMP JUMPDEST SWAP3 POP POP DUP2 SWAP1 SSTORE POP DUP2 PUSH1 0xB PUSH0 PUSH1 0x3 PUSH0 SWAP1 SLOAD SWAP1 PUSH2 0x100 EXP SWAP1 DIV PUSH20 0xFFFFFFFFFFFFFFFFFFFFFFFFFFFFFFFFFFFFFFFF AND PUSH20 0xFFFFFFFFFFFFFFFFFFFFFFFFFFFFFFFFFFFFFFFF AND PUSH20 0xFFFFFFFFFFFFFFFFFFFFFFFFFFFFFFFFFFFFFFFF AND DUP2 MSTORE PUSH1 0x20 ADD SWAP1 DUP2 MSTORE PUSH1 0x20 ADD PUSH0 KECCAK256 PUSH0 DUP3 DUP3 SLOAD PUSH2 0x15DB SWAP2 SWAP1 PUSH2 0x2609 JUMP JUMPDEST SWAP3 POP POP DUP2 SWAP1 SSTORE POP DUP3 PUSH1 0xD PUSH0 DUP3 DUP3 SLOAD PUSH2 0x15F3 SWAP2 SWAP1 PUSH2 0x25D6 JUMP JUMPDEST SWAP3 POP POP DUP2 SWAP1 SSTORE POP POP POP POP PUSH2 0x166E JUMP JUMPDEST DUP1 PUSH1 0xB PUSH0 DUP6 PUSH20 0xFFFFFFFFFFFFFFFFFFFFFFFFFFFFFFFFFFFFFFFF AND PUSH20 0xFFFFFFFFFFFFFFFFFFFFFFFFFFFFFFFFFFFFFFFF AND DUP2 MSTORE PUSH1 0x20 ADD SWAP1 DUP2 MSTORE PUSH1 0x20 ADD PUSH0 KECCAK256 PUSH0 DUP3 DUP3 SLOAD PUSH2 0x164E SWAP2 SWAP1 PUSH2 0x2609 JUMP JUMPDEST SWAP3 POP POP DUP2 SWAP1 SSTORE POP DUP1 PUSH1 0xD PUSH0 DUP3 DUP3 SLOAD PUSH2 0x1666 SWAP2 SWAP1 PUSH2 0x25D6 JUMP JUMPDEST SWAP3 POP POP DUP2 SWAP1 SSTORE POP JUMPDEST DUP3 PUSH20 0xFFFFFFFFFFFFFFFFFFFFFFFFFFFFFFFFFFFFFFFF AND PUSH32 0x987D620F307FF6B94D58743CB7A7509F24071586A77759B77C2D4E29F75A2F9A DUP3 DUP7 PUSH1 0x40 MLOAD PUSH2 0x16B6 SWAP3 SWAP2 SWAP1 PUSH2 0x287A JUMP JUMPDEST PUSH1 0x40 MLOAD DUP1 SWAP2 SUB SWAP1 LOG2 POP POP POP PUSH2 0x16C9 PUSH2 0x1CC7 JUMP JUMPDEST POP JUMP JUMPDEST PUSH1 0x3 PUSH0 SWAP1 SLOAD SWAP1 PUSH2 0x100 EXP SWAP1 DIV PUSH20 0xFFFFFFFFFFFFFFFFFFFFFFFFFFFFFFFFFFFFFFFF AND DUP2 JUMP JUMPDEST PUSH2 0x16F9 PUSH2 0x1D52 JUMP JUMPDEST PUSH0 DUP2 GT PUSH2 0x173B JUMPI PUSH1 0x40 MLOAD PUSH32 0x8C379A000000000000000000000000000000000000000000000000000000000 DUP2 MSTORE PUSH1 0x4 ADD PUSH2 0x1732 SWAP1 PUSH2 0x2953 JUMP JUMPDEST PUSH1 0x40 MLOAD DUP1 SWAP2 SUB SWAP1 REVERT JUMPDEST PUSH2 0x1789 CALLER ADDRESS DUP4 PUSH1 0x2 PUSH0 SWAP1 SLOAD SWAP1 PUSH2 0x100 EXP SWAP1 DIV PUSH20 0xFFFFFFFFFFFFFFFFFFFFFFFFFFFFFFFFFFFFFFFF AND PUSH20 0xFFFFFFFFFFFFFFFFFFFFFFFFFFFFFFFFFFFFFFFF AND PUSH2 0x1CD0 SWAP1 SWAP4 SWAP3 SWAP2 SWAP1 PUSH4 0xFFFFFFFF AND JUMP JUMPDEST DUP1 PUSH1 0xD PUSH0 DUP3 DUP3 SLOAD PUSH2 0x179A SWAP2 SWAP1 PUSH2 0x2609 JUMP JUMPDEST SWAP3 POP POP DUP2 SWAP1 SSTORE POP PUSH32 0x21D99275A51DF78F567D33E4B0C6EA547B7675BCE0EAB2CCCA69E131BF047ABE DUP2 PUSH1 0x40 MLOAD PUSH2 0x17D0 SWAP2 SWAP1 PUSH2 0x205C JUMP JUMPDEST PUSH1 0x40 MLOAD DUP1 SWAP2 SUB SWAP1 LOG1 POP JUMP JUMPDEST PUSH2 0x17E3 PUSH2 0x1D52 JUMP JUMPDEST PUSH0 PUSH20 0xFFFFFFFFFFFFFFFFFFFFFFFFFFFFFFFFFFFFFFFF AND DUP2 PUSH20 0xFFFFFFFFFFFFFFFFFFFFFFFFFFFFFFFFFFFFFFFF AND SUB PUSH2 0x1851 JUMPI PUSH1 0x40 MLOAD PUSH32 0x8C379A000000000000000000000000000000000000000000000000000000000 DUP2 MSTORE PUSH1 0x4 ADD PUSH2 0x1848 SWAP1 PUSH2 0x2A7F JUMP JUMPDEST PUSH1 0x40 MLOAD DUP1 SWAP2 SUB SWAP1 REVERT JUMPDEST DUP1 PUSH1 0x3 PUSH0 PUSH2 0x100 EXP DUP2 SLOAD DUP2 PUSH20 0xFFFFFFFFFFFFFFFFFFFFFFFFFFFFFFFFFFFFFFFF MUL NOT AND SWAP1 DUP4 PUSH20 0xFFFFFFFFFFFFFFFFFFFFFFFFFFFFFFFFFFFFFFFF AND MUL OR SWAP1 SSTORE POP DUP1 PUSH20 0xFFFFFFFFFFFFFFFFFFFFFFFFFFFFFFFFFFFFFFFF AND PUSH32 0x27AAE5DB36D94179909D019AE0B1AC7C16D96D953148F63C0F6A0A9C8EAD79EE PUSH1 0x40 MLOAD PUSH1 0x40 MLOAD DUP1 SWAP2 SUB SWAP1 LOG2 POP JUMP JUMPDEST PUSH2 0x18DF PUSH2 0x1C78 JUMP JUMPDEST PUSH0 PUSH1 0xB PUSH0 CALLER PUSH20 0xFFFFFFFFFFFFFFFFFFFFFFFFFFFFFFFFFFFFFFFF AND PUSH20 0xFFFFFFFFFFFFFFFFFFFFFFFFFFFFFFFFFFFFFFFF AND DUP2 MSTORE PUSH1 0x20 ADD SWAP1 DUP2 MSTORE PUSH1 0x20 ADD PUSH0 KECCAK256 SLOAD SWAP1 POP PUSH0 DUP2 GT PUSH2 0x1962 JUMPI PUSH1 0x40 MLOAD PUSH32 0x8C379A000000000000000000000000000000000000000000000000000000000 DUP2 MSTORE PUSH1 0x4 ADD PUSH2 0x1959 SWAP1 PUSH2 0x2AE7 JUMP JUMPDEST PUSH1 0x40 MLOAD DUP1 SWAP2 SUB SWAP1 REVERT JUMPDEST PUSH0 PUSH1 0xB PUSH0 CALLER PUSH20 0xFFFFFFFFFFFFFFFFFFFFFFFFFFFFFFFFFFFFFFFF AND PUSH20 0xFFFFFFFFFFFFFFFFFFFFFFFFFFFFFFFFFFFFFFFF AND DUP2 MSTORE PUSH1 0x20 ADD SWAP1 DUP2 MSTORE PUSH1 0x20 ADD PUSH0 KECCAK256 DUP2 SWAP1 SSTORE POP PUSH2 0x19F0 CALLER DUP3 PUSH1 0x2 PUSH0 SWAP1 SLOAD SWAP1 PUSH2 0x100 EXP SWAP1 DIV PUSH20 0xFFFFFFFFFFFFFFFFFFFFFFFFFFFFFFFFFFFFFFFF AND PUSH20 0xFFFFFFFFFFFFFFFFFFFFFFFFFFFFFFFFFFFFFFFF AND PUSH2 0x1E9A SWAP1 SWAP3 SWAP2 SWAP1 PUSH4 0xFFFFFFFF AND JUMP JUMPDEST CALLER PUSH20 0xFFFFFFFFFFFFFFFFFFFFFFFFFFFFFFFFFFFFFFFF AND PUSH32 0xBD1EA9966F82CCB966523D3922A6E4AD4BF3EA70E9201BD7A106DE847CC5E616 DUP3 PUSH1 0x40 MLOAD PUSH2 0x1A36 SWAP2 SWAP1 PUSH2 0x205C JUMP JUMPDEST PUSH1 0x40 MLOAD DUP1 SWAP2 SUB SWAP1 LOG2 POP PUSH2 0x1A47 PUSH2 0x1CC7 JUMP JUMPDEST JUMP JUMPDEST PUSH4 0x1E13380 DUP2 JUMP JUMPDEST PUSH2 0x1A59 PUSH2 0x1D52 JUMP JUMPDEST PUSH0 PUSH20 0xFFFFFFFFFFFFFFFFFFFFFFFFFFFFFFFFFFFFFFFF AND DUP2 PUSH20 0xFFFFFFFFFFFFFFFFFFFFFFFFFFFFFFFFFFFFFFFF AND SUB PUSH2 0x1AC9 JUMPI PUSH0 PUSH1 0x40 MLOAD PUSH32 0x1E4FBDF700000000000000000000000000000000000000000000000000000000 DUP2 MSTORE PUSH1 0x4 ADD PUSH2 0x1AC0 SWAP2 SWAP1 PUSH2 0x241B JUMP JUMPDEST PUSH1 0x40 MLOAD DUP1 SWAP2 SUB SWAP1 REVERT JUMPDEST PUSH2 0x1AD2 DUP2 PUSH2 0x1DD9 JUMP JUMPDEST POP JUMP JUMPDEST PUSH1 0x2 PUSH0 SWAP1 SLOAD SWAP1 PUSH2 0x100 EXP SWAP1 DIV PUSH20 0xFFFFFFFFFFFFFFFFFFFFFFFFFFFFFFFFFFFFFFFF AND DUP2 JUMP JUMPDEST PUSH2 0x1B02 PUSH2 0x1D52 JUMP JUMPDEST PUSH0 PUSH20 0xFFFFFFFFFFFFFFFFFFFFFFFFFFFFFFFFFFFFFFFF AND DUP2 PUSH20 0xFFFFFFFFFFFFFFFFFFFFFFFFFFFFFFFFFFFFFFFF AND SUB PUSH2 0x1B70 JUMPI PUSH1 0x40 MLOAD PUSH32 0x8C379A000000000000000000000000000000000000000000000000000000000 DUP2 MSTORE PUSH1 0x4 ADD PUSH2 0x1B67 SWAP1 PUSH2 0x2B4F JUMP JUMPDEST PUSH1 0x40 MLOAD DUP1 SWAP2 SUB SWAP1 REVERT JUMPDEST DUP1 PUSH1 0x2 PUSH0 PUSH2 0x100 EXP DUP2 SLOAD DUP2 PUSH20 0xFFFFFFFFFFFFFFFFFFFFFFFFFFFFFFFFFFFFFFFF MUL NOT AND SWAP1 DUP4 PUSH20 0xFFFFFFFFFFFFFFFFFFFFFFFFFFFFFFFFFFFFFFFF AND MUL OR SWAP1 SSTORE POP DUP1 PUSH20 0xFFFFFFFFFFFFFFFFFFFFFFFFFFFFFFFFFFFFFFFF AND PUSH32 0xA5289BA11778999F4DFB9415023783188D42BBB5DB0612CBFBE55999069612A0 PUSH1 0x40 MLOAD PUSH1 0x40 MLOAD DUP1 SWAP2 SUB SWAP1 LOG2 POP JUMP JUMPDEST PUSH0 PUSH0 PUSH0 SWAP1 POP JUMPDEST PUSH1 0x3 DUP2 LT ISZERO PUSH2 0x1C37 JUMPI PUSH1 0x4 DUP2 PUSH1 0x3 DUP2 LT PUSH2 0x1C19 JUMPI PUSH2 0x1C18 PUSH2 0x2514 JUMP JUMPDEST JUMPDEST ADD SLOAD DUP4 SUB PUSH2 0x1C2A JUMPI DUP1 SWAP2 POP POP PUSH2 0x1C73 JUMP JUMPDEST DUP1 DUP1 PUSH1 0x1 ADD SWAP2 POP POP PUSH2 0x1BFC JUMP JUMPDEST POP PUSH1 0x40 MLOAD PUSH32 0x8C379A000000000000000000000000000000000000000000000000000000000 DUP2 MSTORE PUSH1 0x4 ADD PUSH2 0x1C6A SWAP1 PUSH2 0x2BB7 JUMP JUMPDEST PUSH1 0x40 MLOAD DUP1 SWAP2 SUB SWAP1 REVERT JUMPDEST SWAP2 SWAP1 POP JUMP JUMPDEST PUSH1 0x2 PUSH1 0x1 SLOAD SUB PUSH2 0x1CBD JUMPI PUSH1 0x40 MLOAD PUSH32 0x8C379A000000000000000000000000000000000000000000000000000000000 DUP2 MSTORE PUSH1 0x4 ADD PUSH2 0x1CB4 SWAP1 PUSH2 0x2C1F JUMP JUMPDEST PUSH1 0x40 MLOAD DUP1 SWAP2 SUB SWAP1 REVERT JUMPDEST PUSH1 0x2 PUSH1 0x1 DUP2 SWAP1 SSTORE POP JUMP JUMPDEST PUSH1 0x1 DUP1 DUP2 SWAP1 SSTORE POP JUMP JUMPDEST PUSH2 0x1D4C DUP5 DUP6 PUSH20 0xFFFFFFFFFFFFFFFFFFFFFFFFFFFFFFFFFFFFFFFF AND PUSH4 0x23B872DD DUP7 DUP7 DUP7 PUSH1 0x40 MLOAD PUSH1 0x24 ADD PUSH2 0x1D05 SWAP4 SWAP3 SWAP2 SWAP1 PUSH2 0x2C3D JUMP JUMPDEST PUSH1 0x40 MLOAD PUSH1 0x20 DUP2 DUP4 SUB SUB DUP2 MSTORE SWAP1 PUSH1 0x40 MSTORE SWAP2 POP PUSH1 0xE0 SHL PUSH1 0x20 DUP3 ADD DUP1 MLOAD PUSH28 0xFFFFFFFFFFFFFFFFFFFFFFFFFFFFFFFFFFFFFFFFFFFFFFFFFFFFFFFF DUP4 DUP2 DUP4 AND OR DUP4 MSTORE POP POP POP POP PUSH2 0x1F19 JUMP JUMPDEST POP POP POP POP JUMP JUMPDEST PUSH2 0x1D5A PUSH2 0x1FB4 JUMP JUMPDEST PUSH20 0xFFFFFFFFFFFFFFFFFFFFFFFFFFFFFFFFFFFFFFFF AND PUSH2 0x1D78 PUSH2 0x1066 JUMP JUMPDEST PUSH20 0xFFFFFFFFFFFFFFFFFFFFFFFFFFFFFFFFFFFFFFFF AND EQ PUSH2 0x1DD7 JUMPI PUSH2 0x1D9B PUSH2 0x1FB4 JUMP JUMPDEST PUSH1 0x40 MLOAD PUSH32 0x118CDAA700000000000000000000000000000000000000000000000000000000 DUP2 MSTORE PUSH1 0x4 ADD PUSH2 0x1DCE SWAP2 SWAP1 PUSH2 0x241B JUMP JUMPDEST PUSH1 0x40 MLOAD DUP1 SWAP2 SUB SWAP1 REVERT JUMPDEST JUMP JUMPDEST PUSH0 PUSH0 PUSH0 SWAP1 SLOAD SWAP1 PUSH2 0x100 EXP SWAP1 DIV PUSH20 0xFFFFFFFFFFFFFFFFFFFFFFFFFFFFFFFFFFFFFFFF AND SWAP1 POP DUP2 PUSH0 PUSH0 PUSH2 0x100 EXP DUP2 SLOAD DUP2 PUSH20 0xFFFFFFFFFFFFFFFFFFFFFFFFFFFFFFFFFFFFFFFF MUL NOT AND SWAP1 DUP4 PUSH20 0xFFFFFFFFFFFFFFFFFFFFFFFFFFFFFFFFFFFFFFFF AND MUL OR SWAP1 SSTORE POP DUP2 PUSH20 0xFFFFFFFFFFFFFFFFFFFFFFFFFFFFFFFFFFFFFFFF AND DUP2 PUSH20 0xFFFFFFFFFFFFFFFFFFFFFFFFFFFFFFFFFFFFFFFF AND PUSH32 0x8BE0079C531659141344CD1FD0A4F28419497F9722A3DAAFE3B4186F6B6457E0 PUSH1 0x40 MLOAD PUSH1 0x40 MLOAD DUP1 SWAP2 SUB SWAP1 LOG3 POP POP JUMP JUMPDEST PUSH2 0x1F14 DUP4 DUP5 PUSH20 0xFFFFFFFFFFFFFFFFFFFFFFFFFFFFFFFFFFFFFFFF AND PUSH4 0xA9059CBB DUP6 DUP6 PUSH1 0x40 MLOAD PUSH1 0x24 ADD PUSH2 0x1ECD SWAP3 SWAP2 SWAP1 PUSH2 0x2C72 JUMP JUMPDEST PUSH1 0x40 MLOAD PUSH1 0x20 DUP2 DUP4 SUB SUB DUP2 MSTORE SWAP1 PUSH1 0x40 MSTORE SWAP2 POP PUSH1 0xE0 SHL PUSH1 0x20 DUP3 ADD DUP1 MLOAD PUSH28 0xFFFFFFFFFFFFFFFFFFFFFFFFFFFFFFFFFFFFFFFFFFFFFFFFFFFFFFFF DUP4 DUP2 DUP4 AND OR DUP4 MSTORE POP POP POP POP PUSH2 0x1F19 JUMP JUMPDEST POP POP POP JUMP JUMPDEST PUSH0 PUSH0 PUSH1 0x20 PUSH0 DUP5 MLOAD PUSH1 0x20 DUP7 ADD PUSH0 DUP9 GAS CALL DUP1 PUSH2 0x1F38 JUMPI PUSH1 0x40 MLOAD RETURNDATASIZE PUSH0 DUP3 RETURNDATACOPY RETURNDATASIZE DUP2 REVERT JUMPDEST RETURNDATASIZE SWAP3 POP PUSH0 MLOAD SWAP2 POP POP PUSH0 DUP3 EQ PUSH2 0x1F51 JUMPI PUSH1 0x1 DUP2 EQ ISZERO PUSH2 0x1F6C JUMP JUMPDEST PUSH0 DUP5 PUSH20 0xFFFFFFFFFFFFFFFFFFFFFFFFFFFFFFFFFFFFFFFF AND EXTCODESIZE EQ JUMPDEST ISZERO PUSH2 0x1FAE JUMPI DUP4 PUSH1 0x40 MLOAD PUSH32 0x5274AFE700000000000000000000000000000000000000000000000000000000 DUP2 MSTORE PUSH1 0x4 ADD PUSH2 0x1FA5 SWAP2 SWAP1 PUSH2 0x241B JUMP JUMPDEST PUSH1 0x40 MLOAD DUP1 SWAP2 SUB SWAP1 REVERT JUMPDEST POP POP POP POP JUMP JUMPDEST PUSH0 CALLER SWAP1 POP SWAP1 JUMP JUMPDEST PUSH0 PUSH0 REVERT JUMPDEST PUSH0 PUSH20 0xFFFFFFFFFFFFFFFFFFFFFFFFFFFFFFFFFFFFFFFF DUP3 AND SWAP1 POP SWAP2 SWAP1 POP JUMP JUMPDEST PUSH0 PUSH2 0x1FE8 DUP3 PUSH2 0x1FBF JUMP JUMPDEST SWAP1 POP SWAP2 SWAP1 POP JUMP JUMPDEST PUSH2 0x1FF8 DUP2 PUSH2 0x1FDE JUMP JUMPDEST DUP2 EQ PUSH2 0x2002 JUMPI PUSH0 PUSH0 REVERT JUMPDEST POP JUMP JUMPDEST PUSH0 DUP2 CALLDATALOAD SWAP1 POP PUSH2 0x2013 DUP2 PUSH2 0x1FEF JUMP JUMPDEST SWAP3 SWAP2 POP POP JUMP JUMPDEST PUSH0 PUSH1 0x20 DUP3 DUP5 SUB SLT ISZERO PUSH2 0x202E JUMPI PUSH2 0x202D PUSH2 0x1FBB JUMP JUMPDEST JUMPDEST PUSH0 PUSH2 0x203B DUP5 DUP3 DUP6 ADD PUSH2 0x2005 JUMP JUMPDEST SWAP2 POP POP SWAP3 SWAP2 POP POP JUMP JUMPDEST PUSH0 DUP2 SWAP1 POP SWAP2 SWAP1 POP JUMP JUMPDEST PUSH2 0x2056 DUP2 PUSH2 0x2044 JUMP JUMPDEST DUP3 MSTORE POP POP JUMP JUMPDEST PUSH0 PUSH1 0x20 DUP3 ADD SWAP1 POP PUSH2 0x206F PUSH0 DUP4 ADD DUP5 PUSH2 0x204D JUMP JUMPDEST SWAP3 SWAP2 POP POP JUMP JUMPDEST PUSH0 DUP2 MLOAD SWAP1 POP SWAP2 SWAP1 POP JUMP JUMPDEST PUSH0 DUP3 DUP3 MSTORE PUSH1 0x20 DUP3 ADD SWAP1 POP SWAP3 SWAP2 POP POP JUMP JUMPDEST PUSH0 DUP2 SWAP1 POP PUSH1 0x20 DUP3 ADD SWAP1 POP SWAP2 SWAP1 POP JUMP JUMPDEST PUSH2 0x20A7 DUP2 PUSH2 0x2044 JUMP JUMPDEST DUP3 MSTORE POP POP JUMP JUMPDEST PUSH0 DUP2 ISZERO ISZERO SWAP1 POP SWAP2 SWAP1 POP JUMP JUMPDEST PUSH2 0x20C1 DUP2 PUSH2 0x20AD JUMP JUMPDEST DUP3 MSTORE POP POP JUMP JUMPDEST PUSH1 0xC0 DUP3 ADD PUSH0 DUP3 ADD MLOAD PUSH2 0x20DB PUSH0 DUP6 ADD DUP3 PUSH2 0x209E JUMP JUMPDEST POP PUSH1 0x20 DUP3 ADD MLOAD PUSH2 0x20EE PUSH1 0x20 DUP6 ADD DUP3 PUSH2 0x209E JUMP JUMPDEST POP PUSH1 0x40 DUP3 ADD MLOAD PUSH2 0x2101 PUSH1 0x40 DUP6 ADD DUP3 PUSH2 0x209E JUMP JUMPDEST POP PUSH1 0x60 DUP3 ADD MLOAD PUSH2 0x2114 PUSH1 0x60 DUP6 ADD DUP3 PUSH2 0x20B8 JUMP JUMPDEST POP PUSH1 0x80 DUP3 ADD MLOAD PUSH2 0x2127 PUSH1 0x80 DUP6 ADD DUP3 PUSH2 0x20B8 JUMP JUMPDEST POP PUSH1 0xA0 DUP3 ADD MLOAD PUSH2 0x213A PUSH1 0xA0 DUP6 ADD DUP3 PUSH2 0x209E JUMP JUMPDEST POP POP POP POP JUMP JUMPDEST PUSH0 PUSH2 0x214B DUP4 DUP4 PUSH2 0x20C7 JUMP JUMPDEST PUSH1 0xC0 DUP4 ADD SWAP1 POP SWAP3 SWAP2 POP POP JUMP JUMPDEST PUSH0 PUSH1 0x20 DUP3 ADD SWAP1 POP SWAP2 SWAP1 POP JUMP JUMPDEST PUSH0 PUSH2 0x216D DUP3 PUSH2 0x2075 JUMP JUMPDEST PUSH2 0x2177 DUP2 DUP6 PUSH2 0x207F JUMP JUMPDEST SWAP4 POP PUSH2 0x2182 DUP4 PUSH2 0x208F JUMP JUMPDEST DUP1 PUSH0 JUMPDEST DUP4 DUP2 LT ISZERO PUSH2 0x21B2 JUMPI DUP2 MLOAD PUSH2 0x2199 DUP9 DUP3 PUSH2 0x2140 JUMP JUMPDEST SWAP8 POP PUSH2 0x21A4 DUP4 PUSH2 0x2157 JUMP JUMPDEST SWAP3 POP POP PUSH1 0x1 DUP2 ADD SWAP1 POP PUSH2 0x2185 JUMP JUMPDEST POP DUP6 SWAP4 POP POP POP POP SWAP3 SWAP2 POP POP JUMP JUMPDEST PUSH0 PUSH1 0x20 DUP3 ADD SWAP1 POP DUP2 DUP2 SUB PUSH0 DUP4 ADD MSTORE PUSH2 0x21D7 DUP2 DUP5 PUSH2 0x2163 JUMP JUMPDEST SWAP1 POP SWAP3 SWAP2 POP POP JUMP JUMPDEST PUSH2 0x21E8 DUP2 PUSH2 0x2044 JUMP JUMPDEST DUP2 EQ PUSH2 0x21F2 JUMPI PUSH0 PUSH0 REVERT JUMPDEST POP JUMP JUMPDEST PUSH0 DUP2 CALLDATALOAD SWAP1 POP PUSH2 0x2203 DUP2 PUSH2 0x21DF JUMP JUMPDEST SWAP3 SWAP2 POP POP JUMP JUMPDEST PUSH0 PUSH0 PUSH1 0x40 DUP4 DUP6 SUB SLT ISZERO PUSH2 0x221F JUMPI PUSH2 0x221E PUSH2 0x1FBB JUMP JUMPDEST JUMPDEST PUSH0 PUSH2 0x222C DUP6 DUP3 DUP7 ADD PUSH2 0x2005 JUMP JUMPDEST SWAP3 POP POP PUSH1 0x20 PUSH2 0x223D DUP6 DUP3 DUP7 ADD PUSH2 0x21F5 JUMP JUMPDEST SWAP2 POP POP SWAP3 POP SWAP3 SWAP1 POP JUMP JUMPDEST PUSH0 PUSH1 0x20 DUP3 DUP5 SUB SLT ISZERO PUSH2 0x225C JUMPI PUSH2 0x225B PUSH2 0x1FBB JUMP JUMPDEST JUMPDEST PUSH0 PUSH2 0x2269 DUP5 DUP3 DUP6 ADD PUSH2 0x21F5 JUMP JUMPDEST SWAP2 POP POP SWAP3 SWAP2 POP POP JUMP JUMPDEST PUSH2 0x227B DUP2 PUSH2 0x20AD JUMP JUMPDEST DUP2 EQ PUSH2 0x2285 JUMPI PUSH0 PUSH0 REVERT JUMPDEST POP JUMP JUMPDEST PUSH0 DUP2 CALLDATALOAD SWAP1 POP PUSH2 0x2296 DUP2 PUSH2 0x2272 JUMP JUMPDEST SWAP3 SWAP2 POP POP JUMP JUMPDEST PUSH0 PUSH0 PUSH0 PUSH1 0x60 DUP5 DUP7 SUB SLT ISZERO PUSH2 0x22B3 JUMPI PUSH2 0x22B2 PUSH2 0x1FBB JUMP JUMPDEST JUMPDEST PUSH0 PUSH2 0x22C0 DUP7 DUP3 DUP8 ADD PUSH2 0x21F5 JUMP JUMPDEST SWAP4 POP POP PUSH1 0x20 PUSH2 0x22D1 DUP7 DUP3 DUP8 ADD PUSH2 0x21F5 JUMP JUMPDEST SWAP3 POP POP PUSH1 0x40 PUSH2 0x22E2 DUP7 DUP3 DUP8 ADD PUSH2 0x2288 JUMP JUMPDEST SWAP2 POP POP SWAP3 POP SWAP3 POP SWAP3 JUMP JUMPDEST PUSH2 0x22F5 DUP2 PUSH2 0x20AD JUMP JUMPDEST DUP3 MSTORE POP POP JUMP JUMPDEST PUSH0 PUSH1 0xC0 DUP3 ADD SWAP1 POP PUSH2 0x230E PUSH0 DUP4 ADD DUP10 PUSH2 0x204D JUMP JUMPDEST PUSH2 0x231B PUSH1 0x20 DUP4 ADD DUP9 PUSH2 0x204D JUMP JUMPDEST PUSH2 0x2328 PUSH1 0x40 DUP4 ADD DUP8 PUSH2 0x204D JUMP JUMPDEST PUSH2 0x2335 PUSH1 0x60 DUP4 ADD DUP7 PUSH2 0x22EC JUMP JUMPDEST PUSH2 0x2342 PUSH1 0x80 DUP4 ADD DUP6 PUSH2 0x22EC JUMP JUMPDEST PUSH2 0x234F PUSH1 0xA0 DUP4 ADD DUP5 PUSH2 0x204D JUMP JUMPDEST SWAP8 SWAP7 POP POP POP POP POP POP POP JUMP JUMPDEST PUSH0 PUSH0 PUSH1 0x40 DUP4 DUP6 SUB SLT ISZERO PUSH2 0x2370 JUMPI PUSH2 0x236F PUSH2 0x1FBB JUMP JUMPDEST JUMPDEST PUSH0 PUSH2 0x237D DUP6 DUP3 DUP7 ADD PUSH2 0x21F5 JUMP JUMPDEST SWAP3 POP POP PUSH1 0x20 PUSH2 0x238E DUP6 DUP3 DUP7 ADD PUSH2 0x21F5 JUMP JUMPDEST SWAP2 POP POP SWAP3 POP SWAP3 SWAP1 POP JUMP JUMPDEST PUSH0 DUP2 SWAP1 POP SWAP2 SWAP1 POP JUMP JUMPDEST PUSH0 PUSH2 0x23BB PUSH2 0x23B6 PUSH2 0x23B1 DUP5 PUSH2 0x1FBF JUMP JUMPDEST PUSH2 0x2398 JUMP JUMPDEST PUSH2 0x1FBF JUMP JUMPDEST SWAP1 POP SWAP2 SWAP1 POP JUMP JUMPDEST PUSH0 PUSH2 0x23CC DUP3 PUSH2 0x23A1 JUMP JUMPDEST SWAP1 POP SWAP2 SWAP1 POP JUMP JUMPDEST PUSH0 PUSH2 0x23DD DUP3 PUSH2 0x23C2 JUMP JUMPDEST SWAP1 POP SWAP2 SWAP1 POP JUMP JUMPDEST PUSH2 0x23ED DUP2 PUSH2 0x23D3 JUMP JUMPDEST DUP3 MSTORE POP POP JUMP JUMPDEST PUSH0 PUSH1 0x20 DUP3 ADD SWAP1 POP PUSH2 0x2406 PUSH0 DUP4 ADD DUP5 PUSH2 0x23E4 JUMP JUMPDEST SWAP3 SWAP2 POP POP JUMP JUMPDEST PUSH2 0x2415 DUP2 PUSH2 0x1FDE JUMP JUMPDEST DUP3 MSTORE POP POP JUMP JUMPDEST PUSH0 PUSH1 0x20 DUP3 ADD SWAP1 POP PUSH2 0x242E PUSH0 DUP4 ADD DUP5 PUSH2 0x240C JUMP JUMPDEST SWAP3 SWAP2 POP POP JUMP JUMPDEST PUSH0 DUP3 DUP3 MSTORE PUSH1 0x20 DUP3 ADD SWAP1 POP SWAP3 SWAP2 POP POP JUMP JUMPDEST PUSH32 0x496E76616C6964206163636F756E740000000000000000000000000000000000 PUSH0 DUP3 ADD MSTORE POP JUMP JUMPDEST PUSH0 PUSH2 0x2478 PUSH1 0xF DUP4 PUSH2 0x2434 JUMP JUMPDEST SWAP2 POP PUSH2 0x2483 DUP3 PUSH2 0x2444 JUMP JUMPDEST PUSH1 0x20 DUP3 ADD SWAP1 POP SWAP2 SWAP1 POP JUMP JUMPDEST PUSH0 PUSH1 0x20 DUP3 ADD SWAP1 POP DUP2 DUP2 SUB PUSH0 DUP4 ADD MSTORE PUSH2 0x24A5 DUP2 PUSH2 0x246C JUMP JUMPDEST SWAP1 POP SWAP2 SWAP1 POP JUMP JUMPDEST PUSH32 0x496E76616C6964207374616B6520696E64657800000000000000000000000000 PUSH0 DUP3 ADD MSTORE POP JUMP JUMPDEST PUSH0 PUSH2 0x24E0 PUSH1 0x13 DUP4 PUSH2 0x2434 JUMP JUMPDEST SWAP2 POP PUSH2 0x24EB DUP3 PUSH2 0x24AC JUMP JUMPDEST PUSH1 0x20 DUP3 ADD SWAP1 POP SWAP2 SWAP1 POP JUMP JUMPDEST PUSH0 PUSH1 0x20 DUP3 ADD SWAP1 POP DUP2 DUP2 SUB PUSH0 DUP4 ADD MSTORE PUSH2 0x250D DUP2 PUSH2 0x24D4 JUMP JUMPDEST SWAP1 POP SWAP2 SWAP1 POP JUMP JUMPDEST PUSH32 0x4E487B7100000000000000000000000000000000000000000000000000000000 PUSH0 MSTORE PUSH1 0x32 PUSH1 0x4 MSTORE PUSH1 0x24 PUSH0 REVERT JUMPDEST PUSH32 0x416C726561647920636C61696D65640000000000000000000000000000000000 PUSH0 DUP3 ADD MSTORE POP JUMP JUMPDEST PUSH0 PUSH2 0x2575 PUSH1 0xF DUP4 PUSH2 0x2434 JUMP JUMPDEST SWAP2 POP PUSH2 0x2580 DUP3 PUSH2 0x2541 JUMP JUMPDEST PUSH1 0x20 DUP3 ADD SWAP1 POP SWAP2 SWAP1 POP JUMP JUMPDEST PUSH0 PUSH1 0x20 DUP3 ADD SWAP1 POP DUP2 DUP2 SUB PUSH0 DUP4 ADD MSTORE PUSH2 0x25A2 DUP2 PUSH2 0x2569 JUMP JUMPDEST SWAP1 POP SWAP2 SWAP1 POP JUMP JUMPDEST PUSH32 0x4E487B7100000000000000000000000000000000000000000000000000000000 PUSH0 MSTORE PUSH1 0x11 PUSH1 0x4 MSTORE PUSH1 0x24 PUSH0 REVERT JUMPDEST PUSH0 PUSH2 0x25E0 DUP3 PUSH2 0x2044 JUMP JUMPDEST SWAP2 POP PUSH2 0x25EB DUP4 PUSH2 0x2044 JUMP JUMPDEST SWAP3 POP DUP3 DUP3 SUB SWAP1 POP DUP2 DUP2 GT ISZERO PUSH2 0x2603 JUMPI PUSH2 0x2602 PUSH2 0x25A9 JUMP JUMPDEST JUMPDEST SWAP3 SWAP2 POP POP JUMP JUMPDEST PUSH0 PUSH2 0x2613 DUP3 PUSH2 0x2044 JUMP JUMPDEST SWAP2 POP PUSH2 0x261E DUP4 PUSH2 0x2044 JUMP JUMPDEST SWAP3 POP DUP3 DUP3 ADD SWAP1 POP DUP1 DUP3 GT ISZERO PUSH2 0x2636 JUMPI PUSH2 0x2635 PUSH2 0x25A9 JUMP JUMPDEST JUMPDEST SWAP3 SWAP2 POP POP JUMP JUMPDEST PUSH0 PUSH2 0x2646 DUP3 PUSH2 0x2044 JUMP JUMPDEST SWAP2 POP PUSH2 0x2651 DUP4 PUSH2 0x2044 JUMP JUMPDEST SWAP3 POP DUP3 DUP3 MUL PUSH2 0x265F DUP2 PUSH2 0x2044 JUMP JUMPDEST SWAP2 POP DUP3 DUP3 DIV DUP5 EQ DUP4 ISZERO OR PUSH2 0x2676 JUMPI PUSH2 0x2675 PUSH2 0x25A9 JUMP JUMPDEST JUMPDEST POP SWAP3 SWAP2 POP POP JUMP JUMPDEST PUSH32 0x4E487B7100000000000000000000000000000000000000000000000000000000 PUSH0 MSTORE PUSH1 0x12 PUSH1 0x4 MSTORE PUSH1 0x24 PUSH0 REVERT JUMPDEST PUSH0 PUSH2 0x26B4 DUP3 PUSH2 0x2044 JUMP JUMPDEST SWAP2 POP PUSH2 0x26BF DUP4 PUSH2 0x2044 JUMP JUMPDEST SWAP3 POP DUP3 PUSH2 0x26CF JUMPI PUSH2 0x26CE PUSH2 0x267D JUMP JUMPDEST JUMPDEST DUP3 DUP3 DIV SWAP1 POP SWAP3 SWAP2 POP POP JUMP JUMPDEST PUSH32 0x43616C6C6572206D75737420626520454F410000000000000000000000000000 PUSH0 DUP3 ADD MSTORE POP JUMP JUMPDEST PUSH0 PUSH2 0x270E PUSH1 0x12 DUP4 PUSH2 0x2434 JUMP JUMPDEST SWAP2 POP PUSH2 0x2719 DUP3 PUSH2 0x26DA JUMP JUMPDEST PUSH1 0x20 DUP3 ADD SWAP1 POP SWAP2 SWAP1 POP JUMP JUMPDEST PUSH0 PUSH1 0x20 DUP3 ADD SWAP1 POP DUP2 DUP2 SUB PUSH0 DUP4 ADD MSTORE PUSH2 0x273B DUP2 PUSH2 0x2702 JUMP JUMPDEST SWAP1 POP SWAP2 SWAP1 POP JUMP JUMPDEST PUSH32 0x4175746F2D7374616B696E672064697361626C65640000000000000000000000 PUSH0 DUP3 ADD MSTORE POP JUMP JUMPDEST PUSH0 PUSH2 0x2776 PUSH1 0x15 DUP4 PUSH2 0x2434 JUMP JUMPDEST SWAP2 POP PUSH2 0x2781 DUP3 PUSH2 0x2742 JUMP JUMPDEST PUSH1 0x20 DUP3 ADD SWAP1 POP SWAP2 SWAP1 POP JUMP JUMPDEST PUSH0 PUSH1 0x20 DUP3 ADD SWAP1 POP DUP2 DUP2 SUB PUSH0 DUP4 ADD MSTORE PUSH2 0x27A3 DUP2 PUSH2 0x276A JUMP JUMPDEST SWAP1 POP SWAP2 SWAP1 POP JUMP JUMPDEST PUSH32 0x5374696C6C206C6F636B65640000000000000000000000000000000000000000 PUSH0 DUP3 ADD MSTORE POP JUMP JUMPDEST PUSH0 PUSH2 0x27DE PUSH1 0xC DUP4 PUSH2 0x2434 JUMP JUMPDEST SWAP2 POP PUSH2 0x27E9 DUP3 PUSH2 0x27AA JUMP JUMPDEST PUSH1 0x20 DUP3 ADD SWAP1 POP SWAP2 SWAP1 POP JUMP JUMPDEST PUSH0 PUSH1 0x20 DUP3 ADD SWAP1 POP DUP2 DUP2 SUB PUSH0 DUP4 ADD MSTORE PUSH2 0x280B DUP2 PUSH2 0x27D2 JUMP JUMPDEST SWAP1 POP SWAP2 SWAP1 POP JUMP JUMPDEST PUSH32 0x496E73756666696369656E742072657761726420706F6F6C0000000000000000 PUSH0 DUP3 ADD MSTORE POP JUMP JUMPDEST PUSH0 PUSH2 0x2846 PUSH1 0x18 DUP4 PUSH2 0x2434 JUMP JUMPDEST SWAP2 POP PUSH2 0x2851 DUP3 PUSH2 0x2812 JUMP JUMPDEST PUSH1 0x20 DUP3 ADD SWAP1 POP SWAP2 SWAP1 POP JUMP JUMPDEST PUSH0 PUSH1 0x20 DUP3 ADD SWAP1 POP DUP2 DUP2 SUB PUSH0 DUP4 ADD MSTORE PUSH2 0x2873 DUP2 PUSH2 0x283A JUMP JUMPDEST SWAP1 POP SWAP2 SWAP1 POP JUMP JUMPDEST PUSH0 PUSH1 0x40 DUP3 ADD SWAP1 POP PUSH2 0x288D PUSH0 DUP4 ADD DUP6 PUSH2 0x204D JUMP JUMPDEST PUSH2 0x289A PUSH1 0x20 DUP4 ADD DUP5 PUSH2 0x204D JUMP JUMPDEST SWAP4 SWAP3 POP POP POP JUMP JUMPDEST PUSH32 0x496E76616C696420706572696F6420696E646578000000000000000000000000 PUSH0 DUP3 ADD MSTORE POP JUMP JUMPDEST PUSH0 PUSH2 0x28D5 PUSH1 0x14 DUP4 PUSH2 0x2434 JUMP JUMPDEST SWAP2 POP PUSH2 0x28E0 DUP3 PUSH2 0x28A1 JUMP JUMPDEST PUSH1 0x20 DUP3 ADD SWAP1 POP SWAP2 SWAP1 POP JUMP JUMPDEST PUSH0 PUSH1 0x20 DUP3 ADD SWAP1 POP DUP2 DUP2 SUB PUSH0 DUP4 ADD MSTORE PUSH2 0x2902 DUP2 PUSH2 0x28C9 JUMP JUMPDEST SWAP1 POP SWAP2 SWAP1 POP JUMP JUMPDEST PUSH32 0x5A65726F20616D6F756E74000000000000000000000000000000000000000000 PUSH0 DUP3 ADD MSTORE POP JUMP JUMPDEST PUSH0 PUSH2 0x293D PUSH1 0xB DUP4 PUSH2 0x2434 JUMP JUMPDEST SWAP2 POP PUSH2 0x2948 DUP3 PUSH2 0x2909 JUMP JUMPDEST PUSH1 0x20 DUP3 ADD SWAP1 POP SWAP2 SWAP1 POP JUMP JUMPDEST PUSH0 PUSH1 0x20 DUP3 ADD SWAP1 POP DUP2 DUP2 SUB PUSH0 DUP4 ADD MSTORE PUSH2 0x296A DUP2 PUSH2 0x2931 JUMP JUMPDEST SWAP1 POP SWAP2 SWAP1 POP JUMP JUMPDEST PUSH0 PUSH1 0x60 DUP3 ADD SWAP1 POP PUSH2 0x2984 PUSH0 DUP4 ADD DUP7 PUSH2 0x204D JUMP JUMPDEST PUSH2 0x2991 PUSH1 0x20 DUP4 ADD DUP6 PUSH2 0x204D JUMP JUMPDEST PUSH2 0x299E PUSH1 0x40 DUP4 ADD DUP5 PUSH2 0x22EC JUMP JUMPDEST SWAP5 SWAP4 POP POP POP POP JUMP JUMPDEST PUSH32 0x41505920746F6F20686967680000000000000000000000000000000000000000 PUSH0 DUP3 ADD MSTORE POP JUMP JUMPDEST PUSH0 PUSH2 0x29DA PUSH1 0xC DUP4 PUSH2 0x2434 JUMP JUMPDEST SWAP2 POP PUSH2 0x29E5 DUP3 PUSH2 0x29A6 JUMP JUMPDEST PUSH1 0x20 DUP3 ADD SWAP1 POP SWAP2 SWAP1 POP JUMP JUMPDEST PUSH0 PUSH1 0x20 DUP3 ADD SWAP1 POP DUP2 DUP2 SUB PUSH0 DUP4 ADD MSTORE PUSH2 0x2A07 DUP2 PUSH2 0x29CE JUMP JUMPDEST SWAP1 POP SWAP2 SWAP1 POP JUMP JUMPDEST PUSH0 PUSH1 0x40 DUP3 ADD SWAP1 POP PUSH2 0x2A21 PUSH0 DUP4 ADD DUP6 PUSH2 0x204D JUMP JUMPDEST PUSH2 0x2A2E PUSH1 0x20 DUP4 ADD DUP5 PUSH2 0x22EC JUMP JUMPDEST SWAP4 SWAP3 POP POP POP JUMP JUMPDEST PUSH32 0x496E76616C696420666565207265636569766572000000000000000000000000 PUSH0 DUP3 ADD MSTORE POP JUMP JUMPDEST PUSH0 PUSH2 0x2A69 PUSH1 0x14 DUP4 PUSH2 0x2434 JUMP JUMPDEST SWAP2 POP PUSH2 0x2A74 DUP3 PUSH2 0x2A35 JUMP JUMPDEST PUSH1 0x20 DUP3 ADD SWAP1 POP SWAP2 SWAP1 POP JUMP JUMPDEST PUSH0 PUSH1 0x20 DUP3 ADD SWAP1 POP DUP2 DUP2 SUB PUSH0 DUP4 ADD MSTORE PUSH2 0x2A96 DUP2 PUSH2 0x2A5D JUMP JUMPDEST SWAP1 POP SWAP2 SWAP1 POP JUMP JUMPDEST PUSH32 0x4E6F207265776172647320746F20776974686472617700000000000000000000 PUSH0 DUP3 ADD MSTORE POP JUMP JUMPDEST PUSH0 PUSH2 0x2AD1 PUSH1 0x16 DUP4 PUSH2 0x2434 JUMP JUMPDEST SWAP2 POP PUSH2 0x2ADC DUP3 PUSH2 0x2A9D JUMP JUMPDEST PUSH1 0x20 DUP3 ADD SWAP1 POP SWAP2 SWAP1 POP JUMP JUMPDEST PUSH0 PUSH1 0x20 DUP3 ADD SWAP1 POP DUP2 DUP2 SUB PUSH0 DUP4 ADD MSTORE PUSH2 0x2AFE DUP2 PUSH2 0x2AC5 JUMP JUMPDEST SWAP1 POP SWAP2 SWAP1 POP JUMP JUMPDEST PUSH32 0x496E76616C69642072657761726420746F6B656E000000000000000000000000 PUSH0 DUP3 ADD MSTORE POP JUMP JUMPDEST PUSH0 PUSH2 0x2B39 PUSH1 0x14 DUP4 PUSH2 0x2434 JUMP JUMPDEST SWAP2 POP PUSH2 0x2B44 DUP3 PUSH2 0x2B05 JUMP JUMPDEST PUSH1 0x20 DUP3 ADD SWAP1 POP SWAP2 SWAP1 POP JUMP JUMPDEST PUSH0 PUSH1 0x20 DUP3 ADD SWAP1 POP DUP2 DUP2 SUB PUSH0 DUP4 ADD MSTORE PUSH2 0x2B66 DUP2 PUSH2 0x2B2D JUMP JUMPDEST SWAP1 POP SWAP2 SWAP1 POP JUMP JUMPDEST PUSH32 0x556E737570706F72746564206C6F636B20706572696F64000000000000000000 PUSH0 DUP3 ADD MSTORE POP JUMP JUMPDEST PUSH0 PUSH2 0x2BA1 PUSH1 0x17 DUP4 PUSH2 0x2434 JUMP JUMPDEST SWAP2 POP PUSH2 0x2BAC DUP3 PUSH2 0x2B6D JUMP JUMPDEST PUSH1 0x20 DUP3 ADD SWAP1 POP SWAP2 SWAP1 POP JUMP JUMPDEST PUSH0 PUSH1 0x20 DUP3 ADD SWAP1 POP DUP2 DUP2 SUB PUSH0 DUP4 ADD MSTORE PUSH2 0x2BCE DUP2 PUSH2 0x2B95 JUMP JUMPDEST SWAP1 POP SWAP2 SWAP1 POP JUMP JUMPDEST PUSH32 0x5265656E7472616E637947756172643A207265656E7472616E742063616C6C00 PUSH0 DUP3 ADD MSTORE POP JUMP JUMPDEST PUSH0 PUSH2 0x2C09 PUSH1 0x1F DUP4 PUSH2 0x2434 JUMP JUMPDEST SWAP2 POP PUSH2 0x2C14 DUP3 PUSH2 0x2BD5 JUMP JUMPDEST PUSH1 0x20 DUP3 ADD SWAP1 POP SWAP2 SWAP1 POP JUMP JUMPDEST PUSH0 PUSH1 0x20 DUP3 ADD SWAP1 POP DUP2 DUP2 SUB PUSH0 DUP4 ADD MSTORE PUSH2 0x2C36 DUP2 PUSH2 0x2BFD JUMP JUMPDEST SWAP1 POP SWAP2 SWAP1 POP JUMP JUMPDEST PUSH0 PUSH1 0x60 DUP3 ADD SWAP1 POP PUSH2 0x2C50 PUSH0 DUP4 ADD DUP7 PUSH2 0x240C JUMP JUMPDEST PUSH2 0x2C5D PUSH1 0x20 DUP4 ADD DUP6 PUSH2 0x240C JUMP JUMPDEST PUSH2 0x2C6A PUSH1 0x40 DUP4 ADD DUP5 PUSH2 0x204D JUMP JUMPDEST SWAP5 SWAP4 POP POP POP POP JUMP JUMPDEST PUSH0 PUSH1 0x40 DUP3 ADD SWAP1 POP PUSH2 0x2C85 PUSH0 DUP4 ADD DUP6 PUSH2 0x240C JUMP JUMPDEST PUSH2 0x2C92 PUSH1 0x20 DUP4 ADD DUP5 PUSH2 0x204D JUMP JUMPDEST SWAP4 SWAP3 POP POP POP JUMP INVALID LOG2 PUSH5 0x6970667358 0x22 SLT KECCAK256 DUP5 0xE DATALOADN 0xE62A LOG4 SWAP7 0xD3 0xCC 0xCA 0xBD EXTCODEHASH BLOCKHASH 0x2C DUP15 0xAF PUSH0 PUSH3 0x86F2DD BLOBBASEFEE STATICCALL LOG1 DUP15 SWAP10 0xAD SWAP2 INVALID 0x4F DUP7 CREATE2 PUSH5 0x736F6C6343 STOP ADDMOD 0x1E STOP CALLER "
				},
				"gasEstimates": {
					"creation": {
						"codeDepositCost": "2294200",
						"executionCost": "infinite",
						"totalCost": "infinite"
					},
					"external": {
						"AUTO_COMPOUND_FEE()": "415",
						"SECONDS_PER_YEAR()": "369",
						"addRewardPoolFunds(uint256)": "infinite",
						"apyRates(uint256)": "infinite",
						"calculateReward(address,uint256)": "infinite",
						"claimReward(uint256)": "infinite",
						"compoundReward(uint256)": "infinite",
						"feeReceiver()": "2641",
						"getActiveStakes(address)": "infinite",
						"lockPeriods(uint256)": "infinite",
						"owner()": "2581",
						"pendingRewardWithdrawals(address)": "2826",
						"renounceOwnership()": "infinite",
						"rewardPoolBalance()": "2448",
						"rewardToken()": "infinite",
						"setAPY(uint256,uint256)": "infinite",
						"stake(uint256,uint256,bool)": "infinite",
						"stakes(address,uint256)": "infinite",
						"stakingToken()": "infinite",
						"toggleAutoStake(uint256)": "infinite",
						"totalStaked()": "2470",
						"transferOwnership(address)": "infinite",
						"updateFeeReceiver(address)": "infinite",
						"updateRewardToken(address)": "infinite",
						"withdrawRewards()": "infinite"
					},
					"internal": {
						"getPeriodIndex(uint256)": "infinite"
					}
				},
				"methodIdentifiers": {
					"AUTO_COMPOUND_FEE()": "38bceaac",
					"SECONDS_PER_YEAR()": "e6a69ab8",
					"addRewardPoolFunds(uint256)": "bbd36b61",
					"apyRates(uint256)": "6b494def",
					"calculateReward(address,uint256)": "1852e8d9",
					"claimReward(uint256)": "ae169a50",
					"compoundReward(uint256)": "4060e257",
					"feeReceiver()": "b3f00674",
					"getActiveStakes(address)": "1747e0b0",
					"lockPeriods(uint256)": "4c8f2a78",
					"owner()": "8da5cb5b",
					"pendingRewardWithdrawals(address)": "0630e463",
					"renounceOwnership()": "715018a6",
					"rewardPoolBalance()": "7a5c08ae",
					"rewardToken()": "f7c618c1",
					"setAPY(uint256,uint256)": "5acd2e4c",
					"stake(uint256,uint256,bool)": "561b2463",
					"stakes(address,uint256)": "584b62a1",
					"stakingToken()": "72f702f3",
					"toggleAutoStake(uint256)": "95a29060",
					"totalStaked()": "817b1cd2",
					"transferOwnership(address)": "f2fde38b",
					"updateFeeReceiver(address)": "c69bebe4",
					"updateRewardToken(address)": "f8cf31cb",
					"withdrawRewards()": "c7b8981c"
				}
			},
			"storageLayout": {
				"storage": [
					{
						"astId": 8,
						"contract": "Staking.sol:AutoStaking",
						"label": "_owner",
						"offset": 0,
						"slot": "0",
						"type": "t_address"
					},
					{
						"astId": 248,
						"contract": "Staking.sol:AutoStaking",
						"label": "_status",
						"offset": 0,
						"slot": "1",
						"type": "t_uint256"
					},
					{
						"astId": 907,
						"contract": "Staking.sol:AutoStaking",
						"label": "rewardToken",
						"offset": 0,
						"slot": "2",
						"type": "t_contract(IERC20)380"
					},
					{
						"astId": 915,
						"contract": "Staking.sol:AutoStaking",
						"label": "feeReceiver",
						"offset": 0,
						"slot": "3",
						"type": "t_address"
					},
					{
						"astId": 923,
						"contract": "Staking.sol:AutoStaking",
						"label": "lockPeriods",
						"offset": 0,
						"slot": "4",
						"type": "t_array(t_uint256)3_storage"
					},
					{
						"astId": 931,
						"contract": "Staking.sol:AutoStaking",
						"label": "apyRates",
						"offset": 0,
						"slot": "7",
						"type": "t_array(t_uint256)3_storage"
					},
					{
						"astId": 950,
						"contract": "Staking.sol:AutoStaking",
						"label": "stakes",
						"offset": 0,
						"slot": "10",
						"type": "t_mapping(t_address,t_array(t_struct(StakeInfo)944_storage)dyn_storage)"
					},
					{
						"astId": 954,
						"contract": "Staking.sol:AutoStaking",
						"label": "pendingRewardWithdrawals",
						"offset": 0,
						"slot": "11",
						"type": "t_mapping(t_address,t_uint256)"
					},
					{
						"astId": 956,
						"contract": "Staking.sol:AutoStaking",
						"label": "totalStaked",
						"offset": 0,
						"slot": "12",
						"type": "t_uint256"
					},
					{
						"astId": 958,
						"contract": "Staking.sol:AutoStaking",
						"label": "rewardPoolBalance",
						"offset": 0,
						"slot": "13",
						"type": "t_uint256"
					}
				],
				"types": {
					"t_address": {
						"encoding": "inplace",
						"label": "address",
						"numberOfBytes": "20"
					},
					"t_array(t_struct(StakeInfo)944_storage)dyn_storage": {
						"base": "t_struct(StakeInfo)944_storage",
						"encoding": "dynamic_array",
						"label": "struct AutoStaking.StakeInfo[]",
						"numberOfBytes": "32"
					},
					"t_array(t_uint256)3_storage": {
						"base": "t_uint256",
						"encoding": "inplace",
						"label": "uint256[3]",
						"numberOfBytes": "96"
					},
					"t_bool": {
						"encoding": "inplace",
						"label": "bool",
						"numberOfBytes": "1"
					},
					"t_contract(IERC20)380": {
						"encoding": "inplace",
						"label": "contract IERC20",
						"numberOfBytes": "20"
					},
					"t_mapping(t_address,t_array(t_struct(StakeInfo)944_storage)dyn_storage)": {
						"encoding": "mapping",
						"key": "t_address",
						"label": "mapping(address => struct AutoStaking.StakeInfo[])",
						"numberOfBytes": "32",
						"value": "t_array(t_struct(StakeInfo)944_storage)dyn_storage"
					},
					"t_mapping(t_address,t_uint256)": {
						"encoding": "mapping",
						"key": "t_address",
						"label": "mapping(address => uint256)",
						"numberOfBytes": "32",
						"value": "t_uint256"
					},
					"t_struct(StakeInfo)944_storage": {
						"encoding": "inplace",
						"label": "struct AutoStaking.StakeInfo",
						"members": [
							{
								"astId": 933,
								"contract": "Staking.sol:AutoStaking",
								"label": "amount",
								"offset": 0,
								"slot": "0",
								"type": "t_uint256"
							},
							{
								"astId": 935,
								"contract": "Staking.sol:AutoStaking",
								"label": "stakeTime",
								"offset": 0,
								"slot": "1",
								"type": "t_uint256"
							},
							{
								"astId": 937,
								"contract": "Staking.sol:AutoStaking",
								"label": "unlockTime",
								"offset": 0,
								"slot": "2",
								"type": "t_uint256"
							},
							{
								"astId": 939,
								"contract": "Staking.sol:AutoStaking",
								"label": "claimed",
								"offset": 0,
								"slot": "3",
								"type": "t_bool"
							},
							{
								"astId": 941,
								"contract": "Staking.sol:AutoStaking",
								"label": "autoStaking",
								"offset": 1,
								"slot": "3",
								"type": "t_bool"
							},
							{
								"astId": 943,
								"contract": "Staking.sol:AutoStaking",
								"label": "compoundedAmount",
								"offset": 0,
								"slot": "4",
								"type": "t_uint256"
							}
						],
						"numberOfBytes": "160"
					},
					"t_uint256": {
						"encoding": "inplace",
						"label": "uint256",
						"numberOfBytes": "32"
					}
				}
			},
			"userdoc": {
				"kind": "user",
				"methods": {
					"addRewardPoolFunds(uint256)": {
						"notice": "Add funds to reward pool"
					},
					"calculateReward(address,uint256)": {
						"notice": "Calculate accrued reward for a stake"
					},
					"claimReward(uint256)": {
						"notice": "Claim reward for a specific stake"
					},
					"compoundReward(uint256)": {
						"notice": "Compound reward into new stake"
					},
					"getActiveStakes(address)": {
						"notice": "Get active stakes for an account"
					},
					"setAPY(uint256,uint256)": {
						"notice": "Update APY rate for a period"
					},
					"stake(uint256,uint256,bool)": {
						"notice": "Stake tokens for a fixed period"
					},
					"toggleAutoStake(uint256)": {
						"notice": "Toggle auto-staking for a stake"
					},
					"updateFeeReceiver(address)": {
						"notice": "Update fee receiver address"
					},
					"updateRewardToken(address)": {
						"notice": "Update reward token address"
					},
					"withdrawRewards()": {
						"notice": "Withdraw pending rewards"
					}
				},
				"version": 1
			}
		}
	}
}