{
	"Carbonfi_Marketplace.sol": {
		"CarbonFiMarketplace": {
			"abi": [
				{
					"inputs": [
						{
							"internalType": "address",
							"name": "_cafiToken",
							"type": "address"
						},
						{
							"internalType": "address",
							"name": "_carbonFiNFT",
							"type": "address"
						},
						{
							"internalType": "address",
							"name": "_feeWallet",
							"type": "address"
						}
					],
					"stateMutability": "nonpayable",
					"type": "constructor"
				},
				{
					"inputs": [
						{
							"internalType": "address",
							"name": "owner",
							"type": "address"
						}
					],
					"name": "OwnableInvalidOwner",
					"type": "error"
				},
				{
					"inputs": [
						{
							"internalType": "address",
							"name": "account",
							"type": "address"
						}
					],
					"name": "OwnableUnauthorizedAccount",
					"type": "error"
				},
				{
					"inputs": [
						{
							"internalType": "address",
							"name": "token",
							"type": "address"
						}
					],
					"name": "SafeERC20FailedOperation",
					"type": "error"
				},
				{
					"anonymous": false,
					"inputs": [
						{
							"indexed": true,
							"internalType": "address",
							"name": "newFeeWallet",
							"type": "address"
						}
					],
					"name": "FeeWalletUpdated",
					"type": "event"
				},
				{
					"anonymous": false,
					"inputs": [
						{
							"indexed": true,
							"internalType": "address",
							"name": "seller",
							"type": "address"
						},
						{
							"indexed": true,
							"internalType": "uint256",
							"name": "tokenId",
							"type": "uint256"
						},
						{
							"indexed": false,
							"internalType": "uint256",
							"name": "amount",
							"type": "uint256"
						},
						{
							"indexed": false,
							"internalType": "uint256",
							"name": "pricePerItem",
							"type": "uint256"
						},
						{
							"indexed": false,
							"internalType": "uint256",
							"name": "listingFee",
							"type": "uint256"
						}
					],
					"name": "ItemListed",
					"type": "event"
				},
				{
					"anonymous": false,
					"inputs": [
						{
							"indexed": true,
							"internalType": "address",
							"name": "seller",
							"type": "address"
						},
						{
							"indexed": true,
							"internalType": "address",
							"name": "buyer",
							"type": "address"
						},
						{
							"indexed": true,
							"internalType": "uint256",
							"name": "tokenId",
							"type": "uint256"
						},
						{
							"indexed": false,
							"internalType": "uint256",
							"name": "amount",
							"type": "uint256"
						},
						{
							"indexed": false,
							"internalType": "uint256",
							"name": "pricePerItem",
							"type": "uint256"
						},
						{
							"indexed": false,
							"internalType": "uint256",
							"name": "buyFee",
							"type": "uint256"
						}
					],
					"name": "ItemSold",
					"type": "event"
				},
				{
					"anonymous": false,
					"inputs": [
						{
							"indexed": true,
							"internalType": "address",
							"name": "seller",
							"type": "address"
						},
						{
							"indexed": true,
							"internalType": "uint256",
							"name": "tokenId",
							"type": "uint256"
						},
						{
							"indexed": false,
							"internalType": "uint256",
							"name": "refundedFee",
							"type": "uint256"
						}
					],
					"name": "ListingCancelled",
					"type": "event"
				},
				{
					"anonymous": false,
					"inputs": [
						{
							"indexed": true,
							"internalType": "address",
							"name": "previousOwner",
							"type": "address"
						},
						{
							"indexed": true,
							"internalType": "address",
							"name": "newOwner",
							"type": "address"
						}
					],
					"name": "OwnershipTransferStarted",
					"type": "event"
				},
				{
					"anonymous": false,
					"inputs": [
						{
							"indexed": true,
							"internalType": "address",
							"name": "previousOwner",
							"type": "address"
						},
						{
							"indexed": true,
							"internalType": "address",
							"name": "newOwner",
							"type": "address"
						}
					],
					"name": "OwnershipTransferred",
					"type": "event"
				},
				{
					"inputs": [],
					"name": "FEE_DENOMINATOR",
					"outputs": [
						{
							"internalType": "uint256",
							"name": "",
							"type": "uint256"
						}
					],
					"stateMutability": "view",
					"type": "function"
				},
				{
					"inputs": [],
					"name": "FEE_PERCENT",
					"outputs": [
						{
							"internalType": "uint256",
							"name": "",
							"type": "uint256"
						}
					],
					"stateMutability": "view",
					"type": "function"
				},
				{
					"inputs": [],
					"name": "MIN_AMOUNT",
					"outputs": [
						{
							"internalType": "uint256",
							"name": "",
							"type": "uint256"
						}
					],
					"stateMutability": "view",
					"type": "function"
				},
				{
					"inputs": [],
					"name": "MIN_PRICE",
					"outputs": [
						{
							"internalType": "uint256",
							"name": "",
							"type": "uint256"
						}
					],
					"stateMutability": "view",
					"type": "function"
				},
				{
					"inputs": [],
					"name": "acceptOwnership",
					"outputs": [],
					"stateMutability": "nonpayable",
					"type": "function"
				},
				{
					"inputs": [
						{
							"internalType": "address",
							"name": "seller",
							"type": "address"
						},
						{
							"internalType": "uint256",
							"name": "tokenId",
							"type": "uint256"
						},
						{
							"internalType": "uint256",
							"name": "amount",
							"type": "uint256"
						}
					],
					"name": "buyItem",
					"outputs": [],
					"stateMutability": "nonpayable",
					"type": "function"
				},
				{
					"inputs": [],
					"name": "cafiToken",
					"outputs": [
						{
							"internalType": "contract IERC20",
							"name": "",
							"type": "address"
						}
					],
					"stateMutability": "view",
					"type": "function"
				},
				{
					"inputs": [
						{
							"internalType": "uint256",
							"name": "tokenId",
							"type": "uint256"
						}
					],
					"name": "cancelListing",
					"outputs": [],
					"stateMutability": "nonpayable",
					"type": "function"
				},
				{
					"inputs": [],
					"name": "carbonFiNFT",
					"outputs": [
						{
							"internalType": "contract IERC1155",
							"name": "",
							"type": "address"
						}
					],
					"stateMutability": "view",
					"type": "function"
				},
				{
					"inputs": [
						{
							"internalType": "address",
							"name": "token",
							"type": "address"
						},
						{
							"internalType": "uint256",
							"name": "amount",
							"type": "uint256"
						}
					],
					"name": "emergencyWithdraw",
					"outputs": [],
					"stateMutability": "nonpayable",
					"type": "function"
				},
				{
					"inputs": [],
					"name": "feeWallet",
					"outputs": [
						{
							"internalType": "address",
							"name": "",
							"type": "address"
						}
					],
					"stateMutability": "view",
					"type": "function"
				},
				{
					"inputs": [
						{
							"internalType": "uint256",
							"name": "tokenId",
							"type": "uint256"
						},
						{
							"internalType": "uint256",
							"name": "amount",
							"type": "uint256"
						},
						{
							"internalType": "uint256",
							"name": "pricePerItem",
							"type": "uint256"
						}
					],
					"name": "listItem",
					"outputs": [],
					"stateMutability": "nonpayable",
					"type": "function"
				},
				{
					"inputs": [
						{
							"internalType": "uint256",
							"name": "",
							"type": "uint256"
						},
						{
							"internalType": "address",
							"name": "",
							"type": "address"
						}
					],
					"name": "listings",
					"outputs": [
						{
							"internalType": "address",
							"name": "seller",
							"type": "address"
						},
						{
							"internalType": "uint256",
							"name": "tokenId",
							"type": "uint256"
						},
						{
							"internalType": "uint256",
							"name": "amount",
							"type": "uint256"
						},
						{
							"internalType": "uint256",
							"name": "pricePerItem",
							"type": "uint256"
						},
						{
							"internalType": "uint256",
							"name": "listingFeePaid",
							"type": "uint256"
						}
					],
					"stateMutability": "view",
					"type": "function"
				},
				{
					"inputs": [
						{
							"internalType": "address",
							"name": "",
							"type": "address"
						},
						{
							"internalType": "address",
							"name": "",
							"type": "address"
						},
						{
							"internalType": "uint256[]",
							"name": "",
							"type": "uint256[]"
						},
						{
							"internalType": "uint256[]",
							"name": "",
							"type": "uint256[]"
						},
						{
							"internalType": "bytes",
							"name": "",
							"type": "bytes"
						}
					],
					"name": "onERC1155BatchReceived",
					"outputs": [
						{
							"internalType": "bytes4",
							"name": "",
							"type": "bytes4"
						}
					],
					"stateMutability": "nonpayable",
					"type": "function"
				},
				{
					"inputs": [
						{
							"internalType": "address",
							"name": "",
							"type": "address"
						},
						{
							"internalType": "address",
							"name": "",
							"type": "address"
						},
						{
							"internalType": "uint256",
							"name": "",
							"type": "uint256"
						},
						{
							"internalType": "uint256",
							"name": "",
							"type": "uint256"
						},
						{
							"internalType": "bytes",
							"name": "",
							"type": "bytes"
						}
					],
					"name": "onERC1155Received",
					"outputs": [
						{
							"internalType": "bytes4",
							"name": "",
							"type": "bytes4"
						}
					],
					"stateMutability": "nonpayable",
					"type": "function"
				},
				{
					"inputs": [],
					"name": "owner",
					"outputs": [
						{
							"internalType": "address",
							"name": "",
							"type": "address"
						}
					],
					"stateMutability": "view",
					"type": "function"
				},
				{
					"inputs": [],
					"name": "pendingOwner",
					"outputs": [
						{
							"internalType": "address",
							"name": "",
							"type": "address"
						}
					],
					"stateMutability": "view",
					"type": "function"
				},
				{
					"inputs": [],
					"name": "renounceOwnership",
					"outputs": [],
					"stateMutability": "nonpayable",
					"type": "function"
				},
				{
					"inputs": [
						{
							"internalType": "address",
							"name": "newFeeWallet",
							"type": "address"
						}
					],
					"name": "setFeeWallet",
					"outputs": [],
					"stateMutability": "nonpayable",
					"type": "function"
				},
				{
					"inputs": [
						{
							"internalType": "bytes4",
							"name": "interfaceId",
							"type": "bytes4"
						}
					],
					"name": "supportsInterface",
					"outputs": [
						{
							"internalType": "bool",
							"name": "",
							"type": "bool"
						}
					],
					"stateMutability": "view",
					"type": "function"
				},
				{
					"inputs": [
						{
							"internalType": "address",
							"name": "newOwner",
							"type": "address"
						}
					],
					"name": "transferOwnership",
					"outputs": [],
					"stateMutability": "nonpayable",
					"type": "function"
				}
			],
			"devdoc": {
				"errors": {
					"OwnableInvalidOwner(address)": [
						{
							"details": "The owner is not a valid owner account. (eg. `address(0)`)"
						}
					],
					"OwnableUnauthorizedAccount(address)": [
						{
							"details": "The caller account is not authorized to perform an operation."
						}
					],
					"SafeERC20FailedOperation(address)": [
						{
							"details": "An operation with an ERC-20 token failed."
						}
					]
				},
				"kind": "dev",
				"methods": {
					"acceptOwnership()": {
						"details": "The new owner accepts the ownership transfer."
					},
					"buyItem(address,uint256,uint256)": {
						"details": "Transfers 99% to seller, 1% to fee wallet, and NFT to buyer"
					},
					"listItem(uint256,uint256,uint256)": {
						"details": "Transfers NFT to escrow and collects 1% fee of (amount × price)"
					},
					"owner()": {
						"details": "Returns the address of the current owner."
					},
					"pendingOwner()": {
						"details": "Returns the address of the pending owner."
					},
					"renounceOwnership()": {
						"details": "Leaves the contract without owner. It will not be possible to call `onlyOwner` functions. Can only be called by the current owner. NOTE: Renouncing ownership will leave the contract without an owner, thereby disabling any functionality that is only available to the owner."
					},
					"supportsInterface(bytes4)": {
						"details": "See {IERC165-supportsInterface}."
					},
					"transferOwnership(address)": {
						"details": "Starts the ownership transfer of the contract to a new account. Replaces the pending transfer if there is one. Can only be called by the current owner. Setting `newOwner` to the zero address is allowed; this can be used to cancel an initiated ownership transfer."
					}
				},
				"version": 1
			},
			"evm": {
				"assembly": "    /* \"Carbonfi_Marketplace.sol\":436:6568  contract CarbonFiMarketplace is Ownable2Step, ReentrancyGuard, ERC1155Holder {... */\n  mstore(0x40, 0xc0)\n    /* \"Carbonfi_Marketplace.sol\":2340:2797  constructor(... */\n  callvalue\n  dup1\n  iszero\n  tag_1\n  jumpi\n  revert(0x00, 0x00)\ntag_1:\n  pop\n  mload(0x40)\n  sub(codesize, bytecodeSize)\n  dup1\n  bytecodeSize\n  dup4\n  codecopy\n  dup2\n  dup2\n  add\n  0x40\n  mstore\n  dup2\n  add\n  swap1\n  tag_2\n  swap2\n  swap1\n  tag_3\n  jump\t// in\ntag_2:\n    /* \"Carbonfi_Marketplace.sol\":2452:2462  msg.sender */\n  caller\n    /* \"@openzeppelin/contracts/access/Ownable.sol\":1297:1298  0 */\n  0x00\n    /* \"@openzeppelin/contracts/access/Ownable.sol\":1273:1299  initialOwner == address(0) */\n  0xffffffffffffffffffffffffffffffffffffffff\n  and\n    /* \"@openzeppelin/contracts/access/Ownable.sol\":1273:1285  initialOwner */\n  dup2\n    /* \"@openzeppelin/contracts/access/Ownable.sol\":1273:1299  initialOwner == address(0) */\n  0xffffffffffffffffffffffffffffffffffffffff\n  and\n  sub\n    /* \"@openzeppelin/contracts/access/Ownable.sol\":1269:1364  if (initialOwner == address(0)) {... */\n  tag_8\n  jumpi\n    /* \"@openzeppelin/contracts/access/Ownable.sol\":1350:1351  0 */\n  0x00\n    /* \"@openzeppelin/contracts/access/Ownable.sol\":1322:1353  OwnableInvalidOwner(address(0)) */\n  mload(0x40)\n  0x1e4fbdf700000000000000000000000000000000000000000000000000000000\n  dup2\n  mstore\n  0x04\n  add\n  tag_9\n  swap2\n  swap1\n  tag_10\n  jump\t// in\ntag_9:\n  mload(0x40)\n  dup1\n  swap2\n  sub\n  swap1\n  revert\n    /* \"@openzeppelin/contracts/access/Ownable.sol\":1269:1364  if (initialOwner == address(0)) {... */\ntag_8:\n    /* \"@openzeppelin/contracts/access/Ownable.sol\":1373:1405  _transferOwnership(initialOwner) */\n  tag_11\n    /* \"@openzeppelin/contracts/access/Ownable.sol\":1392:1404  initialOwner */\n  dup2\n    /* \"@openzeppelin/contracts/access/Ownable.sol\":1373:1391  _transferOwnership */\n  shl(0x20, tag_12)\n    /* \"@openzeppelin/contracts/access/Ownable.sol\":1373:1405  _transferOwnership(initialOwner) */\n  0x20\n  shr\n  jump\t// in\ntag_11:\n    /* \"@openzeppelin/contracts/access/Ownable.sol\":1225:1412  constructor(address initialOwner) {... */\n  pop\n    /* \"@openzeppelin/contracts/security/ReentrancyGuard.sol\":1716:1717  1 */\n  0x01\n    /* \"@openzeppelin/contracts/security/ReentrancyGuard.sol\":1821:1828  _status */\n  0x02\n    /* \"@openzeppelin/contracts/security/ReentrancyGuard.sol\":1821:1843  _status = _NOT_ENTERED */\n  dup2\n  swap1\n  sstore\n  pop\n    /* \"Carbonfi_Marketplace.sol\":2504:2505  0 */\n  0x00\n    /* \"Carbonfi_Marketplace.sol\":2482:2506  _cafiToken != address(0) */\n  0xffffffffffffffffffffffffffffffffffffffff\n  and\n    /* \"Carbonfi_Marketplace.sol\":2482:2492  _cafiToken */\n  dup4\n    /* \"Carbonfi_Marketplace.sol\":2482:2506  _cafiToken != address(0) */\n  0xffffffffffffffffffffffffffffffffffffffff\n  and\n  sub\n    /* \"Carbonfi_Marketplace.sol\":2474:2529  require(_cafiToken != address(0), \"Invalid CAFI token\") */\n  tag_15\n  jumpi\n  mload(0x40)\n  0x08c379a000000000000000000000000000000000000000000000000000000000\n  dup2\n  mstore\n  0x04\n  add\n  tag_16\n  swap1\n  tag_17\n  jump\t// in\ntag_16:\n  mload(0x40)\n  dup1\n  swap2\n  sub\n  swap1\n  revert\ntag_15:\n    /* \"Carbonfi_Marketplace.sol\":2571:2572  0 */\n  0x00\n    /* \"Carbonfi_Marketplace.sol\":2547:2573  _carbonFiNFT != address(0) */\n  0xffffffffffffffffffffffffffffffffffffffff\n  and\n    /* \"Carbonfi_Marketplace.sol\":2547:2559  _carbonFiNFT */\n  dup3\n    /* \"Carbonfi_Marketplace.sol\":2547:2573  _carbonFiNFT != address(0) */\n  0xffffffffffffffffffffffffffffffffffffffff\n  and\n  sub\n    /* \"Carbonfi_Marketplace.sol\":2539:2598  require(_carbonFiNFT != address(0), \"Invalid NFT contract\") */\n  tag_18\n  jumpi\n  mload(0x40)\n  0x08c379a000000000000000000000000000000000000000000000000000000000\n  dup2\n  mstore\n  0x04\n  add\n  tag_19\n  swap1\n  tag_20\n  jump\t// in\ntag_19:\n  mload(0x40)\n  dup1\n  swap2\n  sub\n  swap1\n  revert\ntag_18:\n    /* \"Carbonfi_Marketplace.sol\":2638:2639  0 */\n  0x00\n    /* \"Carbonfi_Marketplace.sol\":2616:2640  _feeWallet != address(0) */\n  0xffffffffffffffffffffffffffffffffffffffff\n  and\n    /* \"Carbonfi_Marketplace.sol\":2616:2626  _feeWallet */\n  dup2\n    /* \"Carbonfi_Marketplace.sol\":2616:2640  _feeWallet != address(0) */\n  0xffffffffffffffffffffffffffffffffffffffff\n  and\n  sub\n    /* \"Carbonfi_Marketplace.sol\":2608:2663  require(_feeWallet != address(0), \"Invalid fee wallet\") */\n  tag_21\n  jumpi\n  mload(0x40)\n  0x08c379a000000000000000000000000000000000000000000000000000000000\n  dup2\n  mstore\n  0x04\n  add\n  tag_22\n  swap1\n  tag_23\n  jump\t// in\ntag_22:\n  mload(0x40)\n  dup1\n  swap2\n  sub\n  swap1\n  revert\ntag_21:\n    /* \"Carbonfi_Marketplace.sol\":2701:2711  _cafiToken */\n  dup3\n    /* \"Carbonfi_Marketplace.sol\":2682:2712  cafiToken = IERC20(_cafiToken) */\n  0xffffffffffffffffffffffffffffffffffffffff\n  and\n  0x80\n  dup2\n  0xffffffffffffffffffffffffffffffffffffffff\n  and\n  dup2\n  mstore\n  pop\n  pop\n    /* \"Carbonfi_Marketplace.sol\":2745:2757  _carbonFiNFT */\n  dup2\n    /* \"Carbonfi_Marketplace.sol\":2722:2758  carbonFiNFT = IERC1155(_carbonFiNFT) */\n  0xffffffffffffffffffffffffffffffffffffffff\n  and\n  0xa0\n  dup2\n  0xffffffffffffffffffffffffffffffffffffffff\n  and\n  dup2\n  mstore\n  pop\n  pop\n    /* \"Carbonfi_Marketplace.sol\":2780:2790  _feeWallet */\n  dup1\n    /* \"Carbonfi_Marketplace.sol\":2768:2777  feeWallet */\n  0x03\n  0x00\n    /* \"Carbonfi_Marketplace.sol\":2768:2790  feeWallet = _feeWallet */\n  0x0100\n  exp\n  dup2\n  sload\n  dup2\n  0xffffffffffffffffffffffffffffffffffffffff\n  mul\n  not\n  and\n  swap1\n  dup4\n  0xffffffffffffffffffffffffffffffffffffffff\n  and\n  mul\n  or\n  swap1\n  sstore\n  pop\n    /* \"Carbonfi_Marketplace.sol\":2340:2797  constructor(... */\n  pop\n  pop\n  pop\n    /* \"Carbonfi_Marketplace.sol\":436:6568  contract CarbonFiMarketplace is Ownable2Step, ReentrancyGuard, ERC1155Holder {... */\n  jump(tag_24)\n    /* \"@openzeppelin/contracts/access/Ownable2Step.sol\":2011:2164  function _transferOwnership(address newOwner) internal virtual override {... */\ntag_12:\n    /* \"@openzeppelin/contracts/access/Ownable2Step.sol\":2100:2113  _pendingOwner */\n  0x01\n  0x00\n    /* \"@openzeppelin/contracts/access/Ownable2Step.sol\":2093:2113  delete _pendingOwner */\n  0x0100\n  exp\n  dup2\n  sload\n  swap1\n  0xffffffffffffffffffffffffffffffffffffffff\n  mul\n  not\n  and\n  swap1\n  sstore\n    /* \"@openzeppelin/contracts/access/Ownable2Step.sol\":2123:2157  super._transferOwnership(newOwner) */\n  tag_26\n    /* \"@openzeppelin/contracts/access/Ownable2Step.sol\":2148:2156  newOwner */\n  dup2\n    /* \"@openzeppelin/contracts/access/Ownable2Step.sol\":2123:2147  super._transferOwnership */\n  shl(0x20, tag_27)\n    /* \"@openzeppelin/contracts/access/Ownable2Step.sol\":2123:2157  super._transferOwnership(newOwner) */\n  0x20\n  shr\n  jump\t// in\ntag_26:\n    /* \"@openzeppelin/contracts/access/Ownable2Step.sol\":2011:2164  function _transferOwnership(address newOwner) internal virtual override {... */\n  pop\n  jump\t// out\n    /* \"@openzeppelin/contracts/access/Ownable.sol\":2912:3099  function _transferOwnership(address newOwner) internal virtual {... */\ntag_27:\n    /* \"@openzeppelin/contracts/access/Ownable.sol\":2985:3001  address oldOwner */\n  0x00\n    /* \"@openzeppelin/contracts/access/Ownable.sol\":3004:3010  _owner */\n  0x00\n  0x00\n  swap1\n  sload\n  swap1\n  0x0100\n  exp\n  swap1\n  div\n  0xffffffffffffffffffffffffffffffffffffffff\n  and\n    /* \"@openzeppelin/contracts/access/Ownable.sol\":2985:3010  address oldOwner = _owner */\n  swap1\n  pop\n    /* \"@openzeppelin/contracts/access/Ownable.sol\":3029:3037  newOwner */\n  dup2\n    /* \"@openzeppelin/contracts/access/Ownable.sol\":3020:3026  _owner */\n  0x00\n  0x00\n    /* \"@openzeppelin/contracts/access/Ownable.sol\":3020:3037  _owner = newOwner */\n  0x0100\n  exp\n  dup2\n  sload\n  dup2\n  0xffffffffffffffffffffffffffffffffffffffff\n  mul\n  not\n  and\n  swap1\n  dup4\n  0xffffffffffffffffffffffffffffffffffffffff\n  and\n  mul\n  or\n  swap1\n  sstore\n  pop\n    /* \"@openzeppelin/contracts/access/Ownable.sol\":3083:3091  newOwner */\n  dup2\n    /* \"@openzeppelin/contracts/access/Ownable.sol\":3052:3092  OwnershipTransferred(oldOwner, newOwner) */\n  0xffffffffffffffffffffffffffffffffffffffff\n  and\n    /* \"@openzeppelin/contracts/access/Ownable.sol\":3073:3081  oldOwner */\n  dup2\n    /* \"@openzeppelin/contracts/access/Ownable.sol\":3052:3092  OwnershipTransferred(oldOwner, newOwner) */\n  0xffffffffffffffffffffffffffffffffffffffff\n  and\n  0x8be0079c531659141344cd1fd0a4f28419497f9722a3daafe3b4186f6b6457e0\n  mload(0x40)\n  mload(0x40)\n  dup1\n  swap2\n  sub\n  swap1\n  log3\n    /* \"@openzeppelin/contracts/access/Ownable.sol\":2975:3099  {... */\n  pop\n    /* \"@openzeppelin/contracts/access/Ownable.sol\":2912:3099  function _transferOwnership(address newOwner) internal virtual {... */\n  pop\n  jump\t// out\n    /* \"#utility.yul\":88:205   */\ntag_30:\n    /* \"#utility.yul\":197:198   */\n  0x00\n    /* \"#utility.yul\":194:195   */\n  0x00\n    /* \"#utility.yul\":187:199   */\n  revert\n    /* \"#utility.yul\":334:460   */\ntag_32:\n    /* \"#utility.yul\":371:378   */\n  0x00\n    /* \"#utility.yul\":411:453   */\n  0xffffffffffffffffffffffffffffffffffffffff\n    /* \"#utility.yul\":404:409   */\n  dup3\n    /* \"#utility.yul\":400:454   */\n  and\n    /* \"#utility.yul\":389:454   */\n  swap1\n  pop\n    /* \"#utility.yul\":334:460   */\n  swap2\n  swap1\n  pop\n  jump\t// out\n    /* \"#utility.yul\":466:562   */\ntag_33:\n    /* \"#utility.yul\":503:510   */\n  0x00\n    /* \"#utility.yul\":532:556   */\n  tag_50\n    /* \"#utility.yul\":550:555   */\n  dup3\n    /* \"#utility.yul\":532:556   */\n  tag_32\n  jump\t// in\ntag_50:\n    /* \"#utility.yul\":521:556   */\n  swap1\n  pop\n    /* \"#utility.yul\":466:562   */\n  swap2\n  swap1\n  pop\n  jump\t// out\n    /* \"#utility.yul\":568:690   */\ntag_34:\n    /* \"#utility.yul\":641:665   */\n  tag_52\n    /* \"#utility.yul\":659:664   */\n  dup2\n    /* \"#utility.yul\":641:665   */\n  tag_33\n  jump\t// in\ntag_52:\n    /* \"#utility.yul\":634:639   */\n  dup2\n    /* \"#utility.yul\":631:666   */\n  eq\n    /* \"#utility.yul\":621:684   */\n  tag_53\n  jumpi\n    /* \"#utility.yul\":680:681   */\n  0x00\n    /* \"#utility.yul\":677:678   */\n  0x00\n    /* \"#utility.yul\":670:682   */\n  revert\n    /* \"#utility.yul\":621:684   */\ntag_53:\n    /* \"#utility.yul\":568:690   */\n  pop\n  jump\t// out\n    /* \"#utility.yul\":696:839   */\ntag_35:\n    /* \"#utility.yul\":753:758   */\n  0x00\n    /* \"#utility.yul\":784:790   */\n  dup2\n    /* \"#utility.yul\":778:791   */\n  mload\n    /* \"#utility.yul\":769:791   */\n  swap1\n  pop\n    /* \"#utility.yul\":800:833   */\n  tag_55\n    /* \"#utility.yul\":827:832   */\n  dup2\n    /* \"#utility.yul\":800:833   */\n  tag_34\n  jump\t// in\ntag_55:\n    /* \"#utility.yul\":696:839   */\n  swap3\n  swap2\n  pop\n  pop\n  jump\t// out\n    /* \"#utility.yul\":845:1508   */\ntag_3:\n    /* \"#utility.yul\":933:939   */\n  0x00\n    /* \"#utility.yul\":941:947   */\n  0x00\n    /* \"#utility.yul\":949:955   */\n  0x00\n    /* \"#utility.yul\":998:1000   */\n  0x60\n    /* \"#utility.yul\":986:995   */\n  dup5\n    /* \"#utility.yul\":977:984   */\n  dup7\n    /* \"#utility.yul\":973:996   */\n  sub\n    /* \"#utility.yul\":969:1001   */\n  slt\n    /* \"#utility.yul\":966:1085   */\n  iszero\n  tag_57\n  jumpi\n    /* \"#utility.yul\":1004:1083   */\n  tag_58\n  tag_30\n  jump\t// in\ntag_58:\n    /* \"#utility.yul\":966:1085   */\ntag_57:\n    /* \"#utility.yul\":1124:1125   */\n  0x00\n    /* \"#utility.yul\":1149:1213   */\n  tag_59\n    /* \"#utility.yul\":1205:1212   */\n  dup7\n    /* \"#utility.yul\":1196:1202   */\n  dup3\n    /* \"#utility.yul\":1185:1194   */\n  dup8\n    /* \"#utility.yul\":1181:1203   */\n  add\n    /* \"#utility.yul\":1149:1213   */\n  tag_35\n  jump\t// in\ntag_59:\n    /* \"#utility.yul\":1139:1213   */\n  swap4\n  pop\n    /* \"#utility.yul\":1095:1223   */\n  pop\n    /* \"#utility.yul\":1262:1264   */\n  0x20\n    /* \"#utility.yul\":1288:1352   */\n  tag_60\n    /* \"#utility.yul\":1344:1351   */\n  dup7\n    /* \"#utility.yul\":1335:1341   */\n  dup3\n    /* \"#utility.yul\":1324:1333   */\n  dup8\n    /* \"#utility.yul\":1320:1342   */\n  add\n    /* \"#utility.yul\":1288:1352   */\n  tag_35\n  jump\t// in\ntag_60:\n    /* \"#utility.yul\":1278:1352   */\n  swap3\n  pop\n    /* \"#utility.yul\":1233:1362   */\n  pop\n    /* \"#utility.yul\":1401:1403   */\n  0x40\n    /* \"#utility.yul\":1427:1491   */\n  tag_61\n    /* \"#utility.yul\":1483:1490   */\n  dup7\n    /* \"#utility.yul\":1474:1480   */\n  dup3\n    /* \"#utility.yul\":1463:1472   */\n  dup8\n    /* \"#utility.yul\":1459:1481   */\n  add\n    /* \"#utility.yul\":1427:1491   */\n  tag_35\n  jump\t// in\ntag_61:\n    /* \"#utility.yul\":1417:1491   */\n  swap2\n  pop\n    /* \"#utility.yul\":1372:1501   */\n  pop\n    /* \"#utility.yul\":845:1508   */\n  swap3\n  pop\n  swap3\n  pop\n  swap3\n  jump\t// out\n    /* \"#utility.yul\":1514:1632   */\ntag_36:\n    /* \"#utility.yul\":1601:1625   */\n  tag_63\n    /* \"#utility.yul\":1619:1624   */\n  dup2\n    /* \"#utility.yul\":1601:1625   */\n  tag_33\n  jump\t// in\ntag_63:\n    /* \"#utility.yul\":1596:1599   */\n  dup3\n    /* \"#utility.yul\":1589:1626   */\n  mstore\n    /* \"#utility.yul\":1514:1632   */\n  pop\n  pop\n  jump\t// out\n    /* \"#utility.yul\":1638:1860   */\ntag_10:\n    /* \"#utility.yul\":1731:1735   */\n  0x00\n    /* \"#utility.yul\":1769:1771   */\n  0x20\n    /* \"#utility.yul\":1758:1767   */\n  dup3\n    /* \"#utility.yul\":1754:1772   */\n  add\n    /* \"#utility.yul\":1746:1772   */\n  swap1\n  pop\n    /* \"#utility.yul\":1782:1853   */\n  tag_65\n    /* \"#utility.yul\":1850:1851   */\n  0x00\n    /* \"#utility.yul\":1839:1848   */\n  dup4\n    /* \"#utility.yul\":1835:1852   */\n  add\n    /* \"#utility.yul\":1826:1832   */\n  dup5\n    /* \"#utility.yul\":1782:1853   */\n  tag_36\n  jump\t// in\ntag_65:\n    /* \"#utility.yul\":1638:1860   */\n  swap3\n  swap2\n  pop\n  pop\n  jump\t// out\n    /* \"#utility.yul\":1866:2035   */\ntag_37:\n    /* \"#utility.yul\":1950:1961   */\n  0x00\n    /* \"#utility.yul\":1984:1990   */\n  dup3\n    /* \"#utility.yul\":1979:1982   */\n  dup3\n    /* \"#utility.yul\":1972:1991   */\n  mstore\n    /* \"#utility.yul\":2024:2028   */\n  0x20\n    /* \"#utility.yul\":2019:2022   */\n  dup3\n    /* \"#utility.yul\":2015:2029   */\n  add\n    /* \"#utility.yul\":2000:2029   */\n  swap1\n  pop\n    /* \"#utility.yul\":1866:2035   */\n  swap3\n  swap2\n  pop\n  pop\n  jump\t// out\n    /* \"#utility.yul\":2041:2209   */\ntag_38:\n    /* \"#utility.yul\":2181:2201   */\n  0x496e76616c6964204341464920746f6b656e0000000000000000000000000000\n    /* \"#utility.yul\":2177:2178   */\n  0x00\n    /* \"#utility.yul\":2169:2175   */\n  dup3\n    /* \"#utility.yul\":2165:2179   */\n  add\n    /* \"#utility.yul\":2158:2202   */\n  mstore\n    /* \"#utility.yul\":2041:2209   */\n  pop\n  jump\t// out\n    /* \"#utility.yul\":2215:2581   */\ntag_39:\n    /* \"#utility.yul\":2357:2360   */\n  0x00\n    /* \"#utility.yul\":2378:2445   */\n  tag_69\n    /* \"#utility.yul\":2442:2444   */\n  0x12\n    /* \"#utility.yul\":2437:2440   */\n  dup4\n    /* \"#utility.yul\":2378:2445   */\n  tag_37\n  jump\t// in\ntag_69:\n    /* \"#utility.yul\":2371:2445   */\n  swap2\n  pop\n    /* \"#utility.yul\":2454:2547   */\n  tag_70\n    /* \"#utility.yul\":2543:2546   */\n  dup3\n    /* \"#utility.yul\":2454:2547   */\n  tag_38\n  jump\t// in\ntag_70:\n    /* \"#utility.yul\":2572:2574   */\n  0x20\n    /* \"#utility.yul\":2567:2570   */\n  dup3\n    /* \"#utility.yul\":2563:2575   */\n  add\n    /* \"#utility.yul\":2556:2575   */\n  swap1\n  pop\n    /* \"#utility.yul\":2215:2581   */\n  swap2\n  swap1\n  pop\n  jump\t// out\n    /* \"#utility.yul\":2587:3006   */\ntag_17:\n    /* \"#utility.yul\":2753:2757   */\n  0x00\n    /* \"#utility.yul\":2791:2793   */\n  0x20\n    /* \"#utility.yul\":2780:2789   */\n  dup3\n    /* \"#utility.yul\":2776:2794   */\n  add\n    /* \"#utility.yul\":2768:2794   */\n  swap1\n  pop\n    /* \"#utility.yul\":2840:2849   */\n  dup2\n    /* \"#utility.yul\":2834:2838   */\n  dup2\n    /* \"#utility.yul\":2830:2850   */\n  sub\n    /* \"#utility.yul\":2826:2827   */\n  0x00\n    /* \"#utility.yul\":2815:2824   */\n  dup4\n    /* \"#utility.yul\":2811:2828   */\n  add\n    /* \"#utility.yul\":2804:2851   */\n  mstore\n    /* \"#utility.yul\":2868:2999   */\n  tag_72\n    /* \"#utility.yul\":2994:2998   */\n  dup2\n    /* \"#utility.yul\":2868:2999   */\n  tag_39\n  jump\t// in\ntag_72:\n    /* \"#utility.yul\":2860:2999   */\n  swap1\n  pop\n    /* \"#utility.yul\":2587:3006   */\n  swap2\n  swap1\n  pop\n  jump\t// out\n    /* \"#utility.yul\":3012:3182   */\ntag_40:\n    /* \"#utility.yul\":3152:3174   */\n  0x496e76616c6964204e465420636f6e7472616374000000000000000000000000\n    /* \"#utility.yul\":3148:3149   */\n  0x00\n    /* \"#utility.yul\":3140:3146   */\n  dup3\n    /* \"#utility.yul\":3136:3150   */\n  add\n    /* \"#utility.yul\":3129:3175   */\n  mstore\n    /* \"#utility.yul\":3012:3182   */\n  pop\n  jump\t// out\n    /* \"#utility.yul\":3188:3554   */\ntag_41:\n    /* \"#utility.yul\":3330:3333   */\n  0x00\n    /* \"#utility.yul\":3351:3418   */\n  tag_75\n    /* \"#utility.yul\":3415:3417   */\n  0x14\n    /* \"#utility.yul\":3410:3413   */\n  dup4\n    /* \"#utility.yul\":3351:3418   */\n  tag_37\n  jump\t// in\ntag_75:\n    /* \"#utility.yul\":3344:3418   */\n  swap2\n  pop\n    /* \"#utility.yul\":3427:3520   */\n  tag_76\n    /* \"#utility.yul\":3516:3519   */\n  dup3\n    /* \"#utility.yul\":3427:3520   */\n  tag_40\n  jump\t// in\ntag_76:\n    /* \"#utility.yul\":3545:3547   */\n  0x20\n    /* \"#utility.yul\":3540:3543   */\n  dup3\n    /* \"#utility.yul\":3536:3548   */\n  add\n    /* \"#utility.yul\":3529:3548   */\n  swap1\n  pop\n    /* \"#utility.yul\":3188:3554   */\n  swap2\n  swap1\n  pop\n  jump\t// out\n    /* \"#utility.yul\":3560:3979   */\ntag_20:\n    /* \"#utility.yul\":3726:3730   */\n  0x00\n    /* \"#utility.yul\":3764:3766   */\n  0x20\n    /* \"#utility.yul\":3753:3762   */\n  dup3\n    /* \"#utility.yul\":3749:3767   */\n  add\n    /* \"#utility.yul\":3741:3767   */\n  swap1\n  pop\n    /* \"#utility.yul\":3813:3822   */\n  dup2\n    /* \"#utility.yul\":3807:3811   */\n  dup2\n    /* \"#utility.yul\":3803:3823   */\n  sub\n    /* \"#utility.yul\":3799:3800   */\n  0x00\n    /* \"#utility.yul\":3788:3797   */\n  dup4\n    /* \"#utility.yul\":3784:3801   */\n  add\n    /* \"#utility.yul\":3777:3824   */\n  mstore\n    /* \"#utility.yul\":3841:3972   */\n  tag_78\n    /* \"#utility.yul\":3967:3971   */\n  dup2\n    /* \"#utility.yul\":3841:3972   */\n  tag_41\n  jump\t// in\ntag_78:\n    /* \"#utility.yul\":3833:3972   */\n  swap1\n  pop\n    /* \"#utility.yul\":3560:3979   */\n  swap2\n  swap1\n  pop\n  jump\t// out\n    /* \"#utility.yul\":3985:4153   */\ntag_42:\n    /* \"#utility.yul\":4125:4145   */\n  0x496e76616c6964206665652077616c6c65740000000000000000000000000000\n    /* \"#utility.yul\":4121:4122   */\n  0x00\n    /* \"#utility.yul\":4113:4119   */\n  dup3\n    /* \"#utility.yul\":4109:4123   */\n  add\n    /* \"#utility.yul\":4102:4146   */\n  mstore\n    /* \"#utility.yul\":3985:4153   */\n  pop\n  jump\t// out\n    /* \"#utility.yul\":4159:4525   */\ntag_43:\n    /* \"#utility.yul\":4301:4304   */\n  0x00\n    /* \"#utility.yul\":4322:4389   */\n  tag_81\n    /* \"#utility.yul\":4386:4388   */\n  0x12\n    /* \"#utility.yul\":4381:4384   */\n  dup4\n    /* \"#utility.yul\":4322:4389   */\n  tag_37\n  jump\t// in\ntag_81:\n    /* \"#utility.yul\":4315:4389   */\n  swap2\n  pop\n    /* \"#utility.yul\":4398:4491   */\n  tag_82\n    /* \"#utility.yul\":4487:4490   */\n  dup3\n    /* \"#utility.yul\":4398:4491   */\n  tag_42\n  jump\t// in\ntag_82:\n    /* \"#utility.yul\":4516:4518   */\n  0x20\n    /* \"#utility.yul\":4511:4514   */\n  dup3\n    /* \"#utility.yul\":4507:4519   */\n  add\n    /* \"#utility.yul\":4500:4519   */\n  swap1\n  pop\n    /* \"#utility.yul\":4159:4525   */\n  swap2\n  swap1\n  pop\n  jump\t// out\n    /* \"#utility.yul\":4531:4950   */\ntag_23:\n    /* \"#utility.yul\":4697:4701   */\n  0x00\n    /* \"#utility.yul\":4735:4737   */\n  0x20\n    /* \"#utility.yul\":4724:4733   */\n  dup3\n    /* \"#utility.yul\":4720:4738   */\n  add\n    /* \"#utility.yul\":4712:4738   */\n  swap1\n  pop\n    /* \"#utility.yul\":4784:4793   */\n  dup2\n    /* \"#utility.yul\":4778:4782   */\n  dup2\n    /* \"#utility.yul\":4774:4794   */\n  sub\n    /* \"#utility.yul\":4770:4771   */\n  0x00\n    /* \"#utility.yul\":4759:4768   */\n  dup4\n    /* \"#utility.yul\":4755:4772   */\n  add\n    /* \"#utility.yul\":4748:4795   */\n  mstore\n    /* \"#utility.yul\":4812:4943   */\n  tag_84\n    /* \"#utility.yul\":4938:4942   */\n  dup2\n    /* \"#utility.yul\":4812:4943   */\n  tag_43\n  jump\t// in\ntag_84:\n    /* \"#utility.yul\":4804:4943   */\n  swap1\n  pop\n    /* \"#utility.yul\":4531:4950   */\n  swap2\n  swap1\n  pop\n  jump\t// out\n    /* \"Carbonfi_Marketplace.sol\":436:6568  contract CarbonFiMarketplace is Ownable2Step, ReentrancyGuard, ERC1155Holder {... */\ntag_24:\n  mload(0x80)\n  mload(0xa0)\n  codecopy(0x00, dataOffset(sub_0), dataSize(sub_0))\n  0x00\n  assignImmutable(\"0x21b0d56b1dcd961f7be04692666cc8b9866348f3af5c916b97e463f0806e5941\")\n  0x00\n  assignImmutable(\"0xb363782a5557f0ec0f44e2c74fc529378a119ef26cbcbd24a7f0132dde3221da\")\n  return(0x00, dataSize(sub_0))\nstop\n\nsub_0: assembly {\n        /* \"Carbonfi_Marketplace.sol\":436:6568  contract CarbonFiMarketplace is Ownable2Step, ReentrancyGuard, ERC1155Holder {... */\n      mstore(0x40, 0x80)\n      callvalue\n      dup1\n      iszero\n      tag_1\n      jumpi\n      revert(0x00, 0x00)\n    tag_1:\n      pop\n      jumpi(tag_2, lt(calldatasize, 0x04))\n      shr(0xe0, calldataload(0x00))\n      dup1\n      0xbc197c81\n      gt\n      tag_24\n      jumpi\n      dup1\n      0xeaf98d23\n      gt\n      tag_25\n      jumpi\n      dup1\n      0xeaf98d23\n      eq\n      tag_18\n      jumpi\n      dup1\n      0xec16b94a\n      eq\n      tag_19\n      jumpi\n      dup1\n      0xf23a6e61\n      eq\n      tag_20\n      jumpi\n      dup1\n      0xf25f4b56\n      eq\n      tag_21\n      jumpi\n      dup1\n      0xf2fde38b\n      eq\n      tag_22\n      jumpi\n      dup1\n      0xf6b45c46\n      eq\n      tag_23\n      jumpi\n      jump(tag_2)\n    tag_25:\n      dup1\n      0xbc197c81\n      eq\n      tag_13\n      jumpi\n      dup1\n      0xd73792a9\n      eq\n      tag_14\n      jumpi\n      dup1\n      0xddbcb5fa\n      eq\n      tag_15\n      jumpi\n      dup1\n      0xe215f1ca\n      eq\n      tag_16\n      jumpi\n      dup1\n      0xe30c3978\n      eq\n      tag_17\n      jumpi\n      jump(tag_2)\n    tag_24:\n      dup1\n      0x8da5cb5b\n      gt\n      tag_26\n      jumpi\n      dup1\n      0x8da5cb5b\n      eq\n      tag_8\n      jumpi\n      dup1\n      0x90d49b9d\n      eq\n      tag_9\n      jumpi\n      dup1\n      0x927fbfc8\n      eq\n      tag_10\n      jumpi\n      dup1\n      0x95ccea67\n      eq\n      tag_11\n      jumpi\n      dup1\n      0xad9f20a6\n      eq\n      tag_12\n      jumpi\n      jump(tag_2)\n    tag_26:\n      dup1\n      0x01ffc9a7\n      eq\n      tag_3\n      jumpi\n      dup1\n      0x305a67a8\n      eq\n      tag_4\n      jumpi\n      dup1\n      0x58a0bde3\n      eq\n      tag_5\n      jumpi\n      dup1\n      0x715018a6\n      eq\n      tag_6\n      jumpi\n      dup1\n      0x79ba5097\n      eq\n      tag_7\n      jumpi\n    tag_2:\n      revert(0x00, 0x00)\n        /* \"@openzeppelin/contracts/token/ERC1155/utils/ERC1155Holder.sol\":650:871  function supportsInterface(bytes4 interfaceId) public view virtual override(ERC165, IERC165) returns (bool) {... */\n    tag_3:\n      tag_27\n      0x04\n      dup1\n      calldatasize\n      sub\n      dup2\n      add\n      swap1\n      tag_28\n      swap2\n      swap1\n      tag_29\n      jump\t// in\n    tag_28:\n      tag_30\n      jump\t// in\n    tag_27:\n      mload(0x40)\n      tag_31\n      swap2\n      swap1\n      tag_32\n      jump\t// in\n    tag_31:\n      mload(0x40)\n      dup1\n      swap2\n      sub\n      swap1\n      return\n        /* \"Carbonfi_Marketplace.sol\":5403:6160  function cancelListing(uint256 tokenId) external nonReentrant {... */\n    tag_4:\n      tag_33\n      0x04\n      dup1\n      calldatasize\n      sub\n      dup2\n      add\n      swap1\n      tag_34\n      swap2\n      swap1\n      tag_35\n      jump\t// in\n    tag_34:\n      tag_36\n      jump\t// in\n    tag_33:\n      stop\n        /* \"Carbonfi_Marketplace.sol\":895:928  IERC20 public immutable cafiToken */\n    tag_5:\n      tag_37\n      tag_38\n      jump\t// in\n    tag_37:\n      mload(0x40)\n      tag_39\n      swap2\n      swap1\n      tag_40\n      jump\t// in\n    tag_39:\n      mload(0x40)\n      dup1\n      swap2\n      sub\n      swap1\n      return\n        /* \"@openzeppelin/contracts/access/Ownable.sol\":2293:2394  function renounceOwnership() public virtual onlyOwner {... */\n    tag_6:\n      tag_41\n      tag_42\n      jump\t// in\n    tag_41:\n      stop\n        /* \"@openzeppelin/contracts/access/Ownable2Step.sol\":2244:2473  function acceptOwnership() public virtual {... */\n    tag_7:\n      tag_43\n      tag_44\n      jump\t// in\n    tag_43:\n      stop\n        /* \"@openzeppelin/contracts/access/Ownable.sol\":1638:1723  function owner() public view virtual returns (address) {... */\n    tag_8:\n      tag_45\n      tag_46\n      jump\t// in\n    tag_45:\n      mload(0x40)\n      tag_47\n      swap2\n      swap1\n      tag_48\n      jump\t// in\n    tag_47:\n      mload(0x40)\n      dup1\n      swap2\n      sub\n      swap1\n      return\n        /* \"Carbonfi_Marketplace.sol\":6211:6423  function setFeeWallet(address newFeeWallet) external onlyOwner {... */\n    tag_9:\n      tag_49\n      0x04\n      dup1\n      calldatasize\n      sub\n      dup2\n      add\n      swap1\n      tag_50\n      swap2\n      swap1\n      tag_51\n      jump\t// in\n    tag_50:\n      tag_52\n      jump\t// in\n    tag_49:\n      stop\n        /* \"Carbonfi_Marketplace.sol\":1221:1284  mapping(uint256 => mapping(address => Listing)) public listings */\n    tag_10:\n      tag_53\n      0x04\n      dup1\n      calldatasize\n      sub\n      dup2\n      add\n      swap1\n      tag_54\n      swap2\n      swap1\n      tag_55\n      jump\t// in\n    tag_54:\n      tag_56\n      jump\t// in\n    tag_53:\n      mload(0x40)\n      tag_57\n      swap6\n      swap5\n      swap4\n      swap3\n      swap2\n      swap1\n      tag_58\n      jump\t// in\n    tag_57:\n      mload(0x40)\n      dup1\n      swap2\n      sub\n      swap1\n      return\n        /* \"Carbonfi_Marketplace.sol\":6429:6566  function emergencyWithdraw(address token, uint256 amount) external onlyOwner {... */\n    tag_11:\n      tag_59\n      0x04\n      dup1\n      calldatasize\n      sub\n      dup2\n      add\n      swap1\n      tag_60\n      swap2\n      swap1\n      tag_61\n      jump\t// in\n    tag_60:\n      tag_62\n      jump\t// in\n    tag_59:\n      stop\n        /* \"Carbonfi_Marketplace.sol\":780:820  uint256 public constant MIN_PRICE = 1e15 */\n    tag_12:\n      tag_63\n      tag_64\n      jump\t// in\n    tag_63:\n      mload(0x40)\n      tag_65\n      swap2\n      swap1\n      tag_66\n      jump\t// in\n    tag_65:\n      mload(0x40)\n      dup1\n      swap2\n      sub\n      swap1\n      return\n        /* \"@openzeppelin/contracts/token/ERC1155/utils/ERC1155Holder.sol\":1102:1349  function onERC1155BatchReceived(... */\n    tag_13:\n      tag_67\n      0x04\n      dup1\n      calldatasize\n      sub\n      dup2\n      add\n      swap1\n      tag_68\n      swap2\n      swap1\n      tag_69\n      jump\t// in\n    tag_68:\n      tag_70\n      jump\t// in\n    tag_67:\n      mload(0x40)\n      tag_71\n      swap2\n      swap1\n      tag_72\n      jump\t// in\n    tag_71:\n      mload(0x40)\n      dup1\n      swap2\n      sub\n      swap1\n      return\n        /* \"Carbonfi_Marketplace.sol\":663:710  uint256 public constant FEE_DENOMINATOR = 10000 */\n    tag_14:\n      tag_73\n      tag_74\n      jump\t// in\n    tag_73:\n      mload(0x40)\n      tag_75\n      swap2\n      swap1\n      tag_66\n      jump\t// in\n    tag_75:\n      mload(0x40)\n      dup1\n      swap2\n      sub\n      swap1\n      return\n        /* \"Carbonfi_Marketplace.sol\":736:774  uint256 public constant MIN_AMOUNT = 1 */\n    tag_15:\n      tag_76\n      tag_77\n      jump\t// in\n    tag_76:\n      mload(0x40)\n      tag_78\n      swap2\n      swap1\n      tag_66\n      jump\t// in\n    tag_78:\n      mload(0x40)\n      dup1\n      swap2\n      sub\n      swap1\n      return\n        /* \"Carbonfi_Marketplace.sol\":934:971  IERC1155 public immutable carbonFiNFT */\n    tag_16:\n      tag_79\n      tag_80\n      jump\t// in\n    tag_79:\n      mload(0x40)\n      tag_81\n      swap2\n      swap1\n      tag_82\n      jump\t// in\n    tag_81:\n      mload(0x40)\n      dup1\n      swap2\n      sub\n      swap1\n      return\n        /* \"@openzeppelin/contracts/access/Ownable2Step.sol\":1232:1331  function pendingOwner() public view virtual returns (address) {... */\n    tag_17:\n      tag_83\n      tag_84\n      jump\t// in\n    tag_83:\n      mload(0x40)\n      tag_85\n      swap2\n      swap1\n      tag_48\n      jump\t// in\n    tag_85:\n      mload(0x40)\n      dup1\n      swap2\n      sub\n      swap1\n      return\n        /* \"Carbonfi_Marketplace.sol\":591:632  uint256 public constant FEE_PERCENT = 100 */\n    tag_18:\n      tag_86\n      tag_87\n      jump\t// in\n    tag_86:\n      mload(0x40)\n      tag_88\n      swap2\n      swap1\n      tag_66\n      jump\t// in\n    tag_88:\n      mload(0x40)\n      dup1\n      swap2\n      sub\n      swap1\n      return\n        /* \"Carbonfi_Marketplace.sol\":3001:4215  function listItem(... */\n    tag_19:\n      tag_89\n      0x04\n      dup1\n      calldatasize\n      sub\n      dup2\n      add\n      swap1\n      tag_90\n      swap2\n      swap1\n      tag_91\n      jump\t// in\n    tag_90:\n      tag_92\n      jump\t// in\n    tag_89:\n      stop\n        /* \"@openzeppelin/contracts/token/ERC1155/utils/ERC1155Holder.sol\":877:1096  function onERC1155Received(... */\n    tag_20:\n      tag_93\n      0x04\n      dup1\n      calldatasize\n      sub\n      dup2\n      add\n      swap1\n      tag_94\n      swap2\n      swap1\n      tag_95\n      jump\t// in\n    tag_94:\n      tag_96\n      jump\t// in\n    tag_93:\n      mload(0x40)\n      tag_97\n      swap2\n      swap1\n      tag_72\n      jump\t// in\n    tag_97:\n      mload(0x40)\n      dup1\n      swap2\n      sub\n      swap1\n      return\n        /* \"Carbonfi_Marketplace.sol\":1023:1047  address public feeWallet */\n    tag_21:\n      tag_98\n      tag_99\n      jump\t// in\n    tag_98:\n      mload(0x40)\n      tag_100\n      swap2\n      swap1\n      tag_48\n      jump\t// in\n    tag_100:\n      mload(0x40)\n      dup1\n      swap2\n      sub\n      swap1\n      return\n        /* \"@openzeppelin/contracts/access/Ownable2Step.sol\":1649:1827  function transferOwnership(address newOwner) public virtual override onlyOwner {... */\n    tag_22:\n      tag_101\n      0x04\n      dup1\n      calldatasize\n      sub\n      dup2\n      add\n      swap1\n      tag_102\n      swap2\n      swap1\n      tag_51\n      jump\t// in\n    tag_102:\n      tag_103\n      jump\t// in\n    tag_101:\n      stop\n        /* \"Carbonfi_Marketplace.sol\":4357:5323  function buyItem(... */\n    tag_23:\n      tag_104\n      0x04\n      dup1\n      calldatasize\n      sub\n      dup2\n      add\n      swap1\n      tag_105\n      swap2\n      swap1\n      tag_106\n      jump\t// in\n    tag_105:\n      tag_107\n      jump\t// in\n    tag_104:\n      stop\n        /* \"@openzeppelin/contracts/token/ERC1155/utils/ERC1155Holder.sol\":650:871  function supportsInterface(bytes4 interfaceId) public view virtual override(ERC165, IERC165) returns (bool) {... */\n    tag_30:\n        /* \"@openzeppelin/contracts/token/ERC1155/utils/ERC1155Holder.sol\":752:756  bool */\n      0x00\n        /* \"@openzeppelin/contracts/token/ERC1155/utils/ERC1155Holder.sol\":790:824  type(IERC1155Receiver).interfaceId */\n      0x4e2312e000000000000000000000000000000000000000000000000000000000\n        /* \"@openzeppelin/contracts/token/ERC1155/utils/ERC1155Holder.sol\":775:824  interfaceId == type(IERC1155Receiver).interfaceId */\n      not(0xffffffffffffffffffffffffffffffffffffffffffffffffffffffff)\n      and\n        /* \"@openzeppelin/contracts/token/ERC1155/utils/ERC1155Holder.sol\":775:786  interfaceId */\n      dup3\n        /* \"@openzeppelin/contracts/token/ERC1155/utils/ERC1155Holder.sol\":775:824  interfaceId == type(IERC1155Receiver).interfaceId */\n      not(0xffffffffffffffffffffffffffffffffffffffffffffffffffffffff)\n      and\n      eq\n        /* \"@openzeppelin/contracts/token/ERC1155/utils/ERC1155Holder.sol\":775:864  interfaceId == type(IERC1155Receiver).interfaceId || super.supportsInterface(interfaceId) */\n      dup1\n      tag_109\n      jumpi\n      pop\n        /* \"@openzeppelin/contracts/token/ERC1155/utils/ERC1155Holder.sol\":828:864  super.supportsInterface(interfaceId) */\n      tag_110\n        /* \"@openzeppelin/contracts/token/ERC1155/utils/ERC1155Holder.sol\":852:863  interfaceId */\n      dup3\n        /* \"@openzeppelin/contracts/token/ERC1155/utils/ERC1155Holder.sol\":828:851  super.supportsInterface */\n      tag_111\n        /* \"@openzeppelin/contracts/token/ERC1155/utils/ERC1155Holder.sol\":828:864  super.supportsInterface(interfaceId) */\n      jump\t// in\n    tag_110:\n        /* \"@openzeppelin/contracts/token/ERC1155/utils/ERC1155Holder.sol\":775:864  interfaceId == type(IERC1155Receiver).interfaceId || super.supportsInterface(interfaceId) */\n    tag_109:\n        /* \"@openzeppelin/contracts/token/ERC1155/utils/ERC1155Holder.sol\":768:864  return interfaceId == type(IERC1155Receiver).interfaceId || super.supportsInterface(interfaceId) */\n      swap1\n      pop\n        /* \"@openzeppelin/contracts/token/ERC1155/utils/ERC1155Holder.sol\":650:871  function supportsInterface(bytes4 interfaceId) public view virtual override(ERC165, IERC165) returns (bool) {... */\n      swap2\n      swap1\n      pop\n      jump\t// out\n        /* \"Carbonfi_Marketplace.sol\":5403:6160  function cancelListing(uint256 tokenId) external nonReentrant {... */\n    tag_36:\n        /* \"@openzeppelin/contracts/security/ReentrancyGuard.sol\":2261:2282  _nonReentrantBefore() */\n      tag_113\n        /* \"@openzeppelin/contracts/security/ReentrancyGuard.sol\":2261:2280  _nonReentrantBefore */\n      tag_114\n        /* \"@openzeppelin/contracts/security/ReentrancyGuard.sol\":2261:2282  _nonReentrantBefore() */\n      jump\t// in\n    tag_113:\n        /* \"Carbonfi_Marketplace.sol\":5475:5497  Listing memory listing */\n      0x00\n        /* \"Carbonfi_Marketplace.sol\":5500:5508  listings */\n      0x04\n        /* \"Carbonfi_Marketplace.sol\":5500:5517  listings[tokenId] */\n      0x00\n        /* \"Carbonfi_Marketplace.sol\":5509:5516  tokenId */\n      dup4\n        /* \"Carbonfi_Marketplace.sol\":5500:5517  listings[tokenId] */\n      dup2\n      mstore\n      0x20\n      add\n      swap1\n      dup2\n      mstore\n      0x20\n      add\n      0x00\n      keccak256\n        /* \"Carbonfi_Marketplace.sol\":5500:5529  listings[tokenId][msg.sender] */\n      0x00\n        /* \"Carbonfi_Marketplace.sol\":5518:5528  msg.sender */\n      caller\n        /* \"Carbonfi_Marketplace.sol\":5500:5529  listings[tokenId][msg.sender] */\n      0xffffffffffffffffffffffffffffffffffffffff\n      and\n      0xffffffffffffffffffffffffffffffffffffffff\n      and\n      dup2\n      mstore\n      0x20\n      add\n      swap1\n      dup2\n      mstore\n      0x20\n      add\n      0x00\n      keccak256\n        /* \"Carbonfi_Marketplace.sol\":5475:5529  Listing memory listing = listings[tokenId][msg.sender] */\n      mload(0x40)\n      dup1\n      0xa0\n      add\n      0x40\n      mstore\n      swap1\n      dup2\n      0x00\n      dup3\n      add\n      0x00\n      swap1\n      sload\n      swap1\n      0x0100\n      exp\n      swap1\n      div\n      0xffffffffffffffffffffffffffffffffffffffff\n      and\n      0xffffffffffffffffffffffffffffffffffffffff\n      and\n      0xffffffffffffffffffffffffffffffffffffffff\n      and\n      dup2\n      mstore\n      0x20\n      add\n      0x01\n      dup3\n      add\n      sload\n      dup2\n      mstore\n      0x20\n      add\n      0x02\n      dup3\n      add\n      sload\n      dup2\n      mstore\n      0x20\n      add\n      0x03\n      dup3\n      add\n      sload\n      dup2\n      mstore\n      0x20\n      add\n      0x04\n      dup3\n      add\n      sload\n      dup2\n      mstore\n      pop\n      pop\n      swap1\n      pop\n        /* \"Carbonfi_Marketplace.sol\":5564:5565  0 */\n      0x00\n        /* \"Carbonfi_Marketplace.sol\":5547:5554  listing */\n      dup2\n        /* \"Carbonfi_Marketplace.sol\":5547:5561  listing.amount */\n      0x40\n      add\n      mload\n        /* \"Carbonfi_Marketplace.sol\":5547:5565  listing.amount > 0 */\n      gt\n        /* \"Carbonfi_Marketplace.sol\":5539:5587  require(listing.amount > 0, \"No active listing\") */\n      tag_116\n      jumpi\n      mload(0x40)\n      0x08c379a000000000000000000000000000000000000000000000000000000000\n      dup2\n      mstore\n      0x04\n      add\n      tag_117\n      swap1\n      tag_118\n      jump\t// in\n    tag_117:\n      mload(0x40)\n      dup1\n      swap2\n      sub\n      swap1\n      revert\n    tag_116:\n        /* \"Carbonfi_Marketplace.sol\":5650:5672  uint256 remainingValue */\n      0x00\n        /* \"Carbonfi_Marketplace.sol\":5692:5699  listing */\n      dup2\n        /* \"Carbonfi_Marketplace.sol\":5692:5712  listing.pricePerItem */\n      0x60\n      add\n      mload\n        /* \"Carbonfi_Marketplace.sol\":5675:5682  listing */\n      dup3\n        /* \"Carbonfi_Marketplace.sol\":5675:5689  listing.amount */\n      0x40\n      add\n      mload\n        /* \"Carbonfi_Marketplace.sol\":5675:5712  listing.amount * listing.pricePerItem */\n      tag_119\n      swap2\n      swap1\n      tag_120\n      jump\t// in\n    tag_119:\n        /* \"Carbonfi_Marketplace.sol\":5650:5712  uint256 remainingValue = listing.amount * listing.pricePerItem */\n      swap1\n      pop\n        /* \"Carbonfi_Marketplace.sol\":5722:5742  uint256 refundAmount */\n      0x00\n        /* \"Carbonfi_Marketplace.sol\":705:710  10000 */\n      0x2710\n        /* \"Carbonfi_Marketplace.sol\":629:632  100 */\n      0x64\n        /* \"Carbonfi_Marketplace.sol\":5746:5760  remainingValue */\n      dup4\n        /* \"Carbonfi_Marketplace.sol\":5746:5774  remainingValue * FEE_PERCENT */\n      tag_121\n      swap2\n      swap1\n      tag_120\n      jump\t// in\n    tag_121:\n        /* \"Carbonfi_Marketplace.sol\":5745:5793  (remainingValue * FEE_PERCENT) / FEE_DENOMINATOR */\n      tag_122\n      swap2\n      swap1\n      tag_123\n      jump\t// in\n    tag_122:\n        /* \"Carbonfi_Marketplace.sol\":5722:5793  uint256 refundAmount = (remainingValue * FEE_PERCENT) / FEE_DENOMINATOR */\n      swap1\n      pop\n        /* \"Carbonfi_Marketplace.sol\":5837:5848  carbonFiNFT */\n      immutable(\"0x21b0d56b1dcd961f7be04692666cc8b9866348f3af5c916b97e463f0806e5941\")\n        /* \"Carbonfi_Marketplace.sol\":5837:5865  carbonFiNFT.safeTransferFrom */\n      0xffffffffffffffffffffffffffffffffffffffff\n      and\n      0xf242432a\n        /* \"Carbonfi_Marketplace.sol\":5874:5878  this */\n      address\n        /* \"Carbonfi_Marketplace.sol\":5881:5891  msg.sender */\n      caller\n        /* \"Carbonfi_Marketplace.sol\":5893:5900  tokenId */\n      dup8\n        /* \"Carbonfi_Marketplace.sol\":5902:5909  listing */\n      dup8\n        /* \"Carbonfi_Marketplace.sol\":5902:5916  listing.amount */\n      0x40\n      add\n      mload\n        /* \"Carbonfi_Marketplace.sol\":5837:5921  carbonFiNFT.safeTransferFrom(address(this), msg.sender, tokenId, listing.amount, \"\") */\n      mload(0x40)\n      dup6\n      0xffffffff\n      and\n      0xe0\n      shl\n      dup2\n      mstore\n      0x04\n      add\n      tag_124\n      swap5\n      swap4\n      swap3\n      swap2\n      swap1\n      tag_125\n      jump\t// in\n    tag_124:\n      0x00\n      mload(0x40)\n      dup1\n      dup4\n      sub\n      dup2\n      0x00\n      dup8\n      dup1\n      extcodesize\n      iszero\n      dup1\n      iszero\n      tag_126\n      jumpi\n      revert(0x00, 0x00)\n    tag_126:\n      pop\n      gas\n      call\n      iszero\n      dup1\n      iszero\n      tag_128\n      jumpi\n      returndatacopy(0x00, 0x00, returndatasize)\n      revert(0x00, returndatasize)\n    tag_128:\n      pop\n      pop\n      pop\n      pop\n        /* \"Carbonfi_Marketplace.sol\":5950:5951  0 */\n      0x00\n        /* \"Carbonfi_Marketplace.sol\":5935:5947  refundAmount */\n      dup2\n        /* \"Carbonfi_Marketplace.sol\":5935:5951  refundAmount > 0 */\n      gt\n        /* \"Carbonfi_Marketplace.sol\":5931:6041  if (refundAmount > 0) {... */\n      iszero\n      tag_129\n      jumpi\n        /* \"Carbonfi_Marketplace.sol\":5967:6030  cafiToken.safeTransferFrom(feeWallet, msg.sender, refundAmount) */\n      tag_130\n        /* \"Carbonfi_Marketplace.sol\":5994:6003  feeWallet */\n      0x03\n      0x00\n      swap1\n      sload\n      swap1\n      0x0100\n      exp\n      swap1\n      div\n      0xffffffffffffffffffffffffffffffffffffffff\n      and\n        /* \"Carbonfi_Marketplace.sol\":6005:6015  msg.sender */\n      caller\n        /* \"Carbonfi_Marketplace.sol\":6017:6029  refundAmount */\n      dup4\n        /* \"Carbonfi_Marketplace.sol\":5967:5976  cafiToken */\n      immutable(\"0xb363782a5557f0ec0f44e2c74fc529378a119ef26cbcbd24a7f0132dde3221da\")\n        /* \"Carbonfi_Marketplace.sol\":5967:5993  cafiToken.safeTransferFrom */\n      0xffffffffffffffffffffffffffffffffffffffff\n      and\n      tag_131\n      swap1\n        /* \"Carbonfi_Marketplace.sol\":5967:6030  cafiToken.safeTransferFrom(feeWallet, msg.sender, refundAmount) */\n      swap4\n      swap3\n      swap2\n      swap1\n      0xffffffff\n      and\n      jump\t// in\n    tag_130:\n        /* \"Carbonfi_Marketplace.sol\":5931:6041  if (refundAmount > 0) {... */\n    tag_129:\n        /* \"Carbonfi_Marketplace.sol\":6058:6066  listings */\n      0x04\n        /* \"Carbonfi_Marketplace.sol\":6058:6075  listings[tokenId] */\n      0x00\n        /* \"Carbonfi_Marketplace.sol\":6067:6074  tokenId */\n      dup6\n        /* \"Carbonfi_Marketplace.sol\":6058:6075  listings[tokenId] */\n      dup2\n      mstore\n      0x20\n      add\n      swap1\n      dup2\n      mstore\n      0x20\n      add\n      0x00\n      keccak256\n        /* \"Carbonfi_Marketplace.sol\":6058:6087  listings[tokenId][msg.sender] */\n      0x00\n        /* \"Carbonfi_Marketplace.sol\":6076:6086  msg.sender */\n      caller\n        /* \"Carbonfi_Marketplace.sol\":6058:6087  listings[tokenId][msg.sender] */\n      0xffffffffffffffffffffffffffffffffffffffff\n      and\n      0xffffffffffffffffffffffffffffffffffffffff\n      and\n      dup2\n      mstore\n      0x20\n      add\n      swap1\n      dup2\n      mstore\n      0x20\n      add\n      0x00\n      keccak256\n      0x00\n        /* \"Carbonfi_Marketplace.sol\":6051:6087  delete listings[tokenId][msg.sender] */\n      0x00\n      dup3\n      add\n      exp(0x0100, 0x00)\n      dup2\n      sload\n      swap1\n      0xffffffffffffffffffffffffffffffffffffffff\n      mul\n      not\n      and\n      swap1\n      sstore\n      0x01\n      dup3\n      add\n      0x00\n      swap1\n      sstore\n      0x02\n      dup3\n      add\n      0x00\n      swap1\n      sstore\n      0x03\n      dup3\n      add\n      0x00\n      swap1\n      sstore\n      0x04\n      dup3\n      add\n      0x00\n      swap1\n      sstore\n      pop\n      pop\n        /* \"Carbonfi_Marketplace.sol\":6131:6138  tokenId */\n      dup4\n        /* \"Carbonfi_Marketplace.sol\":6119:6129  msg.sender */\n      caller\n        /* \"Carbonfi_Marketplace.sol\":6102:6153  ListingCancelled(msg.sender, tokenId, refundAmount) */\n      0xffffffffffffffffffffffffffffffffffffffff\n      and\n      0x373d1c62b0c89be37c8caf0c909f58c5dc30792fd16002ade6bb3508402cf125\n        /* \"Carbonfi_Marketplace.sol\":6140:6152  refundAmount */\n      dup4\n        /* \"Carbonfi_Marketplace.sol\":6102:6153  ListingCancelled(msg.sender, tokenId, refundAmount) */\n      mload(0x40)\n      tag_132\n      swap2\n      swap1\n      tag_66\n      jump\t// in\n    tag_132:\n      mload(0x40)\n      dup1\n      swap2\n      sub\n      swap1\n      log3\n        /* \"Carbonfi_Marketplace.sol\":5465:6160  {... */\n      pop\n      pop\n      pop\n        /* \"@openzeppelin/contracts/security/ReentrancyGuard.sol\":2303:2323  _nonReentrantAfter() */\n      tag_133\n        /* \"@openzeppelin/contracts/security/ReentrancyGuard.sol\":2303:2321  _nonReentrantAfter */\n      tag_134\n        /* \"@openzeppelin/contracts/security/ReentrancyGuard.sol\":2303:2323  _nonReentrantAfter() */\n      jump\t// in\n    tag_133:\n        /* \"Carbonfi_Marketplace.sol\":5403:6160  function cancelListing(uint256 tokenId) external nonReentrant {... */\n      pop\n      jump\t// out\n        /* \"Carbonfi_Marketplace.sol\":895:928  IERC20 public immutable cafiToken */\n    tag_38:\n      immutable(\"0xb363782a5557f0ec0f44e2c74fc529378a119ef26cbcbd24a7f0132dde3221da\")\n      dup2\n      jump\t// out\n        /* \"@openzeppelin/contracts/access/Ownable.sol\":2293:2394  function renounceOwnership() public virtual onlyOwner {... */\n    tag_42:\n        /* \"@openzeppelin/contracts/access/Ownable.sol\":1531:1544  _checkOwner() */\n      tag_136\n        /* \"@openzeppelin/contracts/access/Ownable.sol\":1531:1542  _checkOwner */\n      tag_137\n        /* \"@openzeppelin/contracts/access/Ownable.sol\":1531:1544  _checkOwner() */\n      jump\t// in\n    tag_136:\n        /* \"@openzeppelin/contracts/access/Ownable.sol\":2357:2387  _transferOwnership(address(0)) */\n      tag_139\n        /* \"@openzeppelin/contracts/access/Ownable.sol\":2384:2385  0 */\n      0x00\n        /* \"@openzeppelin/contracts/access/Ownable.sol\":2357:2375  _transferOwnership */\n      tag_140\n        /* \"@openzeppelin/contracts/access/Ownable.sol\":2357:2387  _transferOwnership(address(0)) */\n      jump\t// in\n    tag_139:\n        /* \"@openzeppelin/contracts/access/Ownable.sol\":2293:2394  function renounceOwnership() public virtual onlyOwner {... */\n      jump\t// out\n        /* \"@openzeppelin/contracts/access/Ownable2Step.sol\":2244:2473  function acceptOwnership() public virtual {... */\n    tag_44:\n        /* \"@openzeppelin/contracts/access/Ownable2Step.sol\":2296:2310  address sender */\n      0x00\n        /* \"@openzeppelin/contracts/access/Ownable2Step.sol\":2313:2325  _msgSender() */\n      tag_142\n        /* \"@openzeppelin/contracts/access/Ownable2Step.sol\":2313:2323  _msgSender */\n      tag_143\n        /* \"@openzeppelin/contracts/access/Ownable2Step.sol\":2313:2325  _msgSender() */\n      jump\t// in\n    tag_142:\n        /* \"@openzeppelin/contracts/access/Ownable2Step.sol\":2296:2325  address sender = _msgSender() */\n      swap1\n      pop\n        /* \"@openzeppelin/contracts/access/Ownable2Step.sol\":2357:2363  sender */\n      dup1\n        /* \"@openzeppelin/contracts/access/Ownable2Step.sol\":2339:2363  pendingOwner() != sender */\n      0xffffffffffffffffffffffffffffffffffffffff\n      and\n        /* \"@openzeppelin/contracts/access/Ownable2Step.sol\":2339:2353  pendingOwner() */\n      tag_144\n        /* \"@openzeppelin/contracts/access/Ownable2Step.sol\":2339:2351  pendingOwner */\n      tag_84\n        /* \"@openzeppelin/contracts/access/Ownable2Step.sol\":2339:2353  pendingOwner() */\n      jump\t// in\n    tag_144:\n        /* \"@openzeppelin/contracts/access/Ownable2Step.sol\":2339:2363  pendingOwner() != sender */\n      0xffffffffffffffffffffffffffffffffffffffff\n      and\n      eq\n        /* \"@openzeppelin/contracts/access/Ownable2Step.sol\":2335:2431  if (pendingOwner() != sender) {... */\n      tag_145\n      jumpi\n        /* \"@openzeppelin/contracts/access/Ownable2Step.sol\":2413:2419  sender */\n      dup1\n        /* \"@openzeppelin/contracts/access/Ownable2Step.sol\":2386:2420  OwnableUnauthorizedAccount(sender) */\n      mload(0x40)\n      0x118cdaa700000000000000000000000000000000000000000000000000000000\n      dup2\n      mstore\n      0x04\n      add\n      tag_146\n      swap2\n      swap1\n      tag_48\n      jump\t// in\n    tag_146:\n      mload(0x40)\n      dup1\n      swap2\n      sub\n      swap1\n      revert\n        /* \"@openzeppelin/contracts/access/Ownable2Step.sol\":2335:2431  if (pendingOwner() != sender) {... */\n    tag_145:\n        /* \"@openzeppelin/contracts/access/Ownable2Step.sol\":2440:2466  _transferOwnership(sender) */\n      tag_147\n        /* \"@openzeppelin/contracts/access/Ownable2Step.sol\":2459:2465  sender */\n      dup2\n        /* \"@openzeppelin/contracts/access/Ownable2Step.sol\":2440:2458  _transferOwnership */\n      tag_140\n        /* \"@openzeppelin/contracts/access/Ownable2Step.sol\":2440:2466  _transferOwnership(sender) */\n      jump\t// in\n    tag_147:\n        /* \"@openzeppelin/contracts/access/Ownable2Step.sol\":2286:2473  {... */\n      pop\n        /* \"@openzeppelin/contracts/access/Ownable2Step.sol\":2244:2473  function acceptOwnership() public virtual {... */\n      jump\t// out\n        /* \"@openzeppelin/contracts/access/Ownable.sol\":1638:1723  function owner() public view virtual returns (address) {... */\n    tag_46:\n        /* \"@openzeppelin/contracts/access/Ownable.sol\":1684:1691  address */\n      0x00\n        /* \"@openzeppelin/contracts/access/Ownable.sol\":1710:1716  _owner */\n      0x00\n      0x00\n      swap1\n      sload\n      swap1\n      0x0100\n      exp\n      swap1\n      div\n      0xffffffffffffffffffffffffffffffffffffffff\n      and\n        /* \"@openzeppelin/contracts/access/Ownable.sol\":1703:1716  return _owner */\n      swap1\n      pop\n        /* \"@openzeppelin/contracts/access/Ownable.sol\":1638:1723  function owner() public view virtual returns (address) {... */\n      swap1\n      jump\t// out\n        /* \"Carbonfi_Marketplace.sol\":6211:6423  function setFeeWallet(address newFeeWallet) external onlyOwner {... */\n    tag_52:\n        /* \"@openzeppelin/contracts/access/Ownable.sol\":1531:1544  _checkOwner() */\n      tag_150\n        /* \"@openzeppelin/contracts/access/Ownable.sol\":1531:1542  _checkOwner */\n      tag_137\n        /* \"@openzeppelin/contracts/access/Ownable.sol\":1531:1544  _checkOwner() */\n      jump\t// in\n    tag_150:\n        /* \"Carbonfi_Marketplace.sol\":6316:6317  0 */\n      0x00\n        /* \"Carbonfi_Marketplace.sol\":6292:6318  newFeeWallet != address(0) */\n      0xffffffffffffffffffffffffffffffffffffffff\n      and\n        /* \"Carbonfi_Marketplace.sol\":6292:6304  newFeeWallet */\n      dup2\n        /* \"Carbonfi_Marketplace.sol\":6292:6318  newFeeWallet != address(0) */\n      0xffffffffffffffffffffffffffffffffffffffff\n      and\n      sub\n        /* \"Carbonfi_Marketplace.sol\":6284:6337  require(newFeeWallet != address(0), \"Invalid wallet\") */\n      tag_152\n      jumpi\n      mload(0x40)\n      0x08c379a000000000000000000000000000000000000000000000000000000000\n      dup2\n      mstore\n      0x04\n      add\n      tag_153\n      swap1\n      tag_154\n      jump\t// in\n    tag_153:\n      mload(0x40)\n      dup1\n      swap2\n      sub\n      swap1\n      revert\n    tag_152:\n        /* \"Carbonfi_Marketplace.sol\":6359:6371  newFeeWallet */\n      dup1\n        /* \"Carbonfi_Marketplace.sol\":6347:6356  feeWallet */\n      0x03\n      0x00\n        /* \"Carbonfi_Marketplace.sol\":6347:6371  feeWallet = newFeeWallet */\n      0x0100\n      exp\n      dup2\n      sload\n      dup2\n      0xffffffffffffffffffffffffffffffffffffffff\n      mul\n      not\n      and\n      swap1\n      dup4\n      0xffffffffffffffffffffffffffffffffffffffff\n      and\n      mul\n      or\n      swap1\n      sstore\n      pop\n        /* \"Carbonfi_Marketplace.sol\":6403:6415  newFeeWallet */\n      dup1\n        /* \"Carbonfi_Marketplace.sol\":6386:6416  FeeWalletUpdated(newFeeWallet) */\n      0xffffffffffffffffffffffffffffffffffffffff\n      and\n      0x29acee77dafcfa0143d74a7ea236018f3a6e1fa71e27fc59bbfbc6b8ca8edccd\n      mload(0x40)\n      mload(0x40)\n      dup1\n      swap2\n      sub\n      swap1\n      log2\n        /* \"Carbonfi_Marketplace.sol\":6211:6423  function setFeeWallet(address newFeeWallet) external onlyOwner {... */\n      pop\n      jump\t// out\n        /* \"Carbonfi_Marketplace.sol\":1221:1284  mapping(uint256 => mapping(address => Listing)) public listings */\n    tag_56:\n      mstore(0x20, 0x04)\n      dup2\n      0x00\n      mstore\n      mstore(0x20, keccak256(0x00, 0x40))\n      dup1\n      0x00\n      mstore\n      keccak256(0x00, 0x40)\n      0x00\n      swap2\n      pop\n      swap2\n      pop\n      pop\n      dup1\n      0x00\n      add\n      0x00\n      swap1\n      sload\n      swap1\n      0x0100\n      exp\n      swap1\n      div\n      0xffffffffffffffffffffffffffffffffffffffff\n      and\n      swap1\n      dup1\n      0x01\n      add\n      sload\n      swap1\n      dup1\n      0x02\n      add\n      sload\n      swap1\n      dup1\n      0x03\n      add\n      sload\n      swap1\n      dup1\n      0x04\n      add\n      sload\n      swap1\n      pop\n      dup6\n      jump\t// out\n        /* \"Carbonfi_Marketplace.sol\":6429:6566  function emergencyWithdraw(address token, uint256 amount) external onlyOwner {... */\n    tag_62:\n        /* \"@openzeppelin/contracts/access/Ownable.sol\":1531:1544  _checkOwner() */\n      tag_156\n        /* \"@openzeppelin/contracts/access/Ownable.sol\":1531:1542  _checkOwner */\n      tag_137\n        /* \"@openzeppelin/contracts/access/Ownable.sol\":1531:1544  _checkOwner() */\n      jump\t// in\n    tag_156:\n        /* \"Carbonfi_Marketplace.sol\":6516:6559  IERC20(token).safeTransfer(owner(), amount) */\n      tag_158\n        /* \"Carbonfi_Marketplace.sol\":6543:6550  owner() */\n      tag_159\n        /* \"Carbonfi_Marketplace.sol\":6543:6548  owner */\n      tag_46\n        /* \"Carbonfi_Marketplace.sol\":6543:6550  owner() */\n      jump\t// in\n    tag_159:\n        /* \"Carbonfi_Marketplace.sol\":6552:6558  amount */\n      dup3\n        /* \"Carbonfi_Marketplace.sol\":6523:6528  token */\n      dup5\n        /* \"Carbonfi_Marketplace.sol\":6516:6542  IERC20(token).safeTransfer */\n      0xffffffffffffffffffffffffffffffffffffffff\n      and\n      tag_160\n      swap1\n        /* \"Carbonfi_Marketplace.sol\":6516:6559  IERC20(token).safeTransfer(owner(), amount) */\n      swap3\n      swap2\n      swap1\n      0xffffffff\n      and\n      jump\t// in\n    tag_158:\n        /* \"Carbonfi_Marketplace.sol\":6429:6566  function emergencyWithdraw(address token, uint256 amount) external onlyOwner {... */\n      pop\n      pop\n      jump\t// out\n        /* \"Carbonfi_Marketplace.sol\":780:820  uint256 public constant MIN_PRICE = 1e15 */\n    tag_64:\n        /* \"Carbonfi_Marketplace.sol\":816:820  1e15 */\n      0x038d7ea4c68000\n        /* \"Carbonfi_Marketplace.sol\":780:820  uint256 public constant MIN_PRICE = 1e15 */\n      dup2\n      jump\t// out\n        /* \"@openzeppelin/contracts/token/ERC1155/utils/ERC1155Holder.sol\":1102:1349  function onERC1155BatchReceived(... */\n    tag_70:\n        /* \"@openzeppelin/contracts/token/ERC1155/utils/ERC1155Holder.sol\":1281:1287  bytes4 */\n      0x00\n        /* \"@openzeppelin/contracts/token/ERC1155/utils/ERC1155Holder.sol\":1306:1342  this.onERC1155BatchReceived.selector */\n      shl(0xe0, 0xbc197c81)\n        /* \"@openzeppelin/contracts/token/ERC1155/utils/ERC1155Holder.sol\":1299:1342  return this.onERC1155BatchReceived.selector */\n      swap1\n      pop\n        /* \"@openzeppelin/contracts/token/ERC1155/utils/ERC1155Holder.sol\":1102:1349  function onERC1155BatchReceived(... */\n      swap6\n      swap5\n      pop\n      pop\n      pop\n      pop\n      pop\n      jump\t// out\n        /* \"Carbonfi_Marketplace.sol\":663:710  uint256 public constant FEE_DENOMINATOR = 10000 */\n    tag_74:\n        /* \"Carbonfi_Marketplace.sol\":705:710  10000 */\n      0x2710\n        /* \"Carbonfi_Marketplace.sol\":663:710  uint256 public constant FEE_DENOMINATOR = 10000 */\n      dup2\n      jump\t// out\n        /* \"Carbonfi_Marketplace.sol\":736:774  uint256 public constant MIN_AMOUNT = 1 */\n    tag_77:\n        /* \"Carbonfi_Marketplace.sol\":773:774  1 */\n      0x01\n        /* \"Carbonfi_Marketplace.sol\":736:774  uint256 public constant MIN_AMOUNT = 1 */\n      dup2\n      jump\t// out\n        /* \"Carbonfi_Marketplace.sol\":934:971  IERC1155 public immutable carbonFiNFT */\n    tag_80:\n      immutable(\"0x21b0d56b1dcd961f7be04692666cc8b9866348f3af5c916b97e463f0806e5941\")\n      dup2\n      jump\t// out\n        /* \"@openzeppelin/contracts/access/Ownable2Step.sol\":1232:1331  function pendingOwner() public view virtual returns (address) {... */\n    tag_84:\n        /* \"@openzeppelin/contracts/access/Ownable2Step.sol\":1285:1292  address */\n      0x00\n        /* \"@openzeppelin/contracts/access/Ownable2Step.sol\":1311:1324  _pendingOwner */\n      0x01\n      0x00\n      swap1\n      sload\n      swap1\n      0x0100\n      exp\n      swap1\n      div\n      0xffffffffffffffffffffffffffffffffffffffff\n      and\n        /* \"@openzeppelin/contracts/access/Ownable2Step.sol\":1304:1324  return _pendingOwner */\n      swap1\n      pop\n        /* \"@openzeppelin/contracts/access/Ownable2Step.sol\":1232:1331  function pendingOwner() public view virtual returns (address) {... */\n      swap1\n      jump\t// out\n        /* \"Carbonfi_Marketplace.sol\":591:632  uint256 public constant FEE_PERCENT = 100 */\n    tag_87:\n        /* \"Carbonfi_Marketplace.sol\":629:632  100 */\n      0x64\n        /* \"Carbonfi_Marketplace.sol\":591:632  uint256 public constant FEE_PERCENT = 100 */\n      dup2\n      jump\t// out\n        /* \"Carbonfi_Marketplace.sol\":3001:4215  function listItem(... */\n    tag_92:\n        /* \"@openzeppelin/contracts/security/ReentrancyGuard.sol\":2261:2282  _nonReentrantBefore() */\n      tag_164\n        /* \"@openzeppelin/contracts/security/ReentrancyGuard.sol\":2261:2280  _nonReentrantBefore */\n      tag_114\n        /* \"@openzeppelin/contracts/security/ReentrancyGuard.sol\":2261:2282  _nonReentrantBefore() */\n      jump\t// in\n    tag_164:\n        /* \"Carbonfi_Marketplace.sol\":773:774  1 */\n      0x01\n        /* \"Carbonfi_Marketplace.sol\":3144:3150  amount */\n      dup3\n        /* \"Carbonfi_Marketplace.sol\":3144:3164  amount >= MIN_AMOUNT */\n      lt\n      iszero\n        /* \"Carbonfi_Marketplace.sol\":3136:3185  require(amount >= MIN_AMOUNT, \"Amount too small\") */\n      tag_166\n      jumpi\n      mload(0x40)\n      0x08c379a000000000000000000000000000000000000000000000000000000000\n      dup2\n      mstore\n      0x04\n      add\n      tag_167\n      swap1\n      tag_168\n      jump\t// in\n    tag_167:\n      mload(0x40)\n      dup1\n      swap2\n      sub\n      swap1\n      revert\n    tag_166:\n        /* \"Carbonfi_Marketplace.sol\":816:820  1e15 */\n      0x038d7ea4c68000\n        /* \"Carbonfi_Marketplace.sol\":3203:3215  pricePerItem */\n      dup2\n        /* \"Carbonfi_Marketplace.sol\":3203:3228  pricePerItem >= MIN_PRICE */\n      lt\n      iszero\n        /* \"Carbonfi_Marketplace.sol\":3195:3246  require(pricePerItem >= MIN_PRICE, \"Price too low\") */\n      tag_169\n      jumpi\n      mload(0x40)\n      0x08c379a000000000000000000000000000000000000000000000000000000000\n      dup2\n      mstore\n      0x04\n      add\n      tag_170\n      swap1\n      tag_171\n      jump\t// in\n    tag_170:\n      mload(0x40)\n      dup1\n      swap2\n      sub\n      swap1\n      revert\n    tag_169:\n        /* \"Carbonfi_Marketplace.sol\":3323:3329  amount */\n      dup2\n        /* \"Carbonfi_Marketplace.sol\":3277:3288  carbonFiNFT */\n      immutable(\"0x21b0d56b1dcd961f7be04692666cc8b9866348f3af5c916b97e463f0806e5941\")\n        /* \"Carbonfi_Marketplace.sol\":3277:3298  carbonFiNFT.balanceOf */\n      0xffffffffffffffffffffffffffffffffffffffff\n      and\n      0xfdd58e\n        /* \"Carbonfi_Marketplace.sol\":3299:3309  msg.sender */\n      caller\n        /* \"Carbonfi_Marketplace.sol\":3311:3318  tokenId */\n      dup7\n        /* \"Carbonfi_Marketplace.sol\":3277:3319  carbonFiNFT.balanceOf(msg.sender, tokenId) */\n      mload(0x40)\n      dup4\n      0xffffffff\n      and\n      0xe0\n      shl\n      dup2\n      mstore\n      0x04\n      add\n      tag_172\n      swap3\n      swap2\n      swap1\n      tag_173\n      jump\t// in\n    tag_172:\n      0x20\n      mload(0x40)\n      dup1\n      dup4\n      sub\n      dup2\n      dup7\n      gas\n      staticcall\n      iszero\n      dup1\n      iszero\n      tag_175\n      jumpi\n      returndatacopy(0x00, 0x00, returndatasize)\n      revert(0x00, returndatasize)\n    tag_175:\n      pop\n      pop\n      pop\n      pop\n      mload(0x40)\n      returndatasize\n      not(0x1f)\n      0x1f\n      dup3\n      add\n      and\n      dup3\n      add\n      dup1\n      0x40\n      mstore\n      pop\n      dup2\n      add\n      swap1\n      tag_176\n      swap2\n      swap1\n      tag_177\n      jump\t// in\n    tag_176:\n        /* \"Carbonfi_Marketplace.sol\":3277:3329  carbonFiNFT.balanceOf(msg.sender, tokenId) >= amount */\n      lt\n      iszero\n        /* \"Carbonfi_Marketplace.sol\":3256:3379  require(... */\n      tag_178\n      jumpi\n      mload(0x40)\n      0x08c379a000000000000000000000000000000000000000000000000000000000\n      dup2\n      mstore\n      0x04\n      add\n      tag_179\n      swap1\n      tag_180\n      jump\t// in\n    tag_179:\n      mload(0x40)\n      dup1\n      swap2\n      sub\n      swap1\n      revert\n    tag_178:\n        /* \"Carbonfi_Marketplace.sol\":3410:3421  carbonFiNFT */\n      immutable(\"0x21b0d56b1dcd961f7be04692666cc8b9866348f3af5c916b97e463f0806e5941\")\n        /* \"Carbonfi_Marketplace.sol\":3410:3438  carbonFiNFT.isApprovedForAll */\n      0xffffffffffffffffffffffffffffffffffffffff\n      and\n      0xe985e9c5\n        /* \"Carbonfi_Marketplace.sol\":3439:3449  msg.sender */\n      caller\n        /* \"Carbonfi_Marketplace.sol\":3459:3463  this */\n      address\n        /* \"Carbonfi_Marketplace.sol\":3410:3465  carbonFiNFT.isApprovedForAll(msg.sender, address(this)) */\n      mload(0x40)\n      dup4\n      0xffffffff\n      and\n      0xe0\n      shl\n      dup2\n      mstore\n      0x04\n      add\n      tag_181\n      swap3\n      swap2\n      swap1\n      tag_182\n      jump\t// in\n    tag_181:\n      0x20\n      mload(0x40)\n      dup1\n      dup4\n      sub\n      dup2\n      dup7\n      gas\n      staticcall\n      iszero\n      dup1\n      iszero\n      tag_184\n      jumpi\n      returndatacopy(0x00, 0x00, returndatasize)\n      revert(0x00, returndatasize)\n    tag_184:\n      pop\n      pop\n      pop\n      pop\n      mload(0x40)\n      returndatasize\n      not(0x1f)\n      0x1f\n      dup3\n      add\n      and\n      dup3\n      add\n      dup1\n      0x40\n      mstore\n      pop\n      dup2\n      add\n      swap1\n      tag_185\n      swap2\n      swap1\n      tag_186\n      jump\t// in\n    tag_185:\n        /* \"Carbonfi_Marketplace.sol\":3389:3515  require(... */\n      tag_187\n      jumpi\n      mload(0x40)\n      0x08c379a000000000000000000000000000000000000000000000000000000000\n      dup2\n      mstore\n      0x04\n      add\n      tag_188\n      swap1\n      tag_189\n      jump\t// in\n    tag_188:\n      mload(0x40)\n      dup1\n      swap2\n      sub\n      swap1\n      revert\n    tag_187:\n        /* \"Carbonfi_Marketplace.sol\":3562:3580  uint256 totalValue */\n      0x00\n        /* \"Carbonfi_Marketplace.sol\":3592:3604  pricePerItem */\n      dup2\n        /* \"Carbonfi_Marketplace.sol\":3583:3589  amount */\n      dup4\n        /* \"Carbonfi_Marketplace.sol\":3583:3604  amount * pricePerItem */\n      tag_190\n      swap2\n      swap1\n      tag_120\n      jump\t// in\n    tag_190:\n        /* \"Carbonfi_Marketplace.sol\":3562:3604  uint256 totalValue = amount * pricePerItem */\n      swap1\n      pop\n        /* \"Carbonfi_Marketplace.sol\":3614:3632  uint256 listingFee */\n      0x00\n        /* \"Carbonfi_Marketplace.sol\":705:710  10000 */\n      0x2710\n        /* \"Carbonfi_Marketplace.sol\":629:632  100 */\n      0x64\n        /* \"Carbonfi_Marketplace.sol\":3636:3646  totalValue */\n      dup4\n        /* \"Carbonfi_Marketplace.sol\":3636:3660  totalValue * FEE_PERCENT */\n      tag_191\n      swap2\n      swap1\n      tag_120\n      jump\t// in\n    tag_191:\n        /* \"Carbonfi_Marketplace.sol\":3635:3679  (totalValue * FEE_PERCENT) / FEE_DENOMINATOR */\n      tag_192\n      swap2\n      swap1\n      tag_123\n      jump\t// in\n    tag_192:\n        /* \"Carbonfi_Marketplace.sol\":3614:3679  uint256 listingFee = (totalValue * FEE_PERCENT) / FEE_DENOMINATOR */\n      swap1\n      pop\n        /* \"Carbonfi_Marketplace.sol\":3722:3783  cafiToken.safeTransferFrom(msg.sender, feeWallet, listingFee) */\n      tag_193\n        /* \"Carbonfi_Marketplace.sol\":3749:3759  msg.sender */\n      caller\n        /* \"Carbonfi_Marketplace.sol\":3761:3770  feeWallet */\n      0x03\n      0x00\n      swap1\n      sload\n      swap1\n      0x0100\n      exp\n      swap1\n      div\n      0xffffffffffffffffffffffffffffffffffffffff\n      and\n        /* \"Carbonfi_Marketplace.sol\":3772:3782  listingFee */\n      dup4\n        /* \"Carbonfi_Marketplace.sol\":3722:3731  cafiToken */\n      immutable(\"0xb363782a5557f0ec0f44e2c74fc529378a119ef26cbcbd24a7f0132dde3221da\")\n        /* \"Carbonfi_Marketplace.sol\":3722:3748  cafiToken.safeTransferFrom */\n      0xffffffffffffffffffffffffffffffffffffffff\n      and\n      tag_131\n      swap1\n        /* \"Carbonfi_Marketplace.sol\":3722:3783  cafiToken.safeTransferFrom(msg.sender, feeWallet, listingFee) */\n      swap4\n      swap3\n      swap2\n      swap1\n      0xffffffff\n      and\n      jump\t// in\n    tag_193:\n        /* \"Carbonfi_Marketplace.sol\":3793:3804  carbonFiNFT */\n      immutable(\"0x21b0d56b1dcd961f7be04692666cc8b9866348f3af5c916b97e463f0806e5941\")\n        /* \"Carbonfi_Marketplace.sol\":3793:3821  carbonFiNFT.safeTransferFrom */\n      0xffffffffffffffffffffffffffffffffffffffff\n      and\n      0xf242432a\n        /* \"Carbonfi_Marketplace.sol\":3822:3832  msg.sender */\n      caller\n        /* \"Carbonfi_Marketplace.sol\":3842:3846  this */\n      address\n        /* \"Carbonfi_Marketplace.sol\":3849:3856  tokenId */\n      dup9\n        /* \"Carbonfi_Marketplace.sol\":3858:3864  amount */\n      dup9\n        /* \"Carbonfi_Marketplace.sol\":3793:3869  carbonFiNFT.safeTransferFrom(msg.sender, address(this), tokenId, amount, \"\") */\n      mload(0x40)\n      dup6\n      0xffffffff\n      and\n      0xe0\n      shl\n      dup2\n      mstore\n      0x04\n      add\n      tag_194\n      swap5\n      swap4\n      swap3\n      swap2\n      swap1\n      tag_125\n      jump\t// in\n    tag_194:\n      0x00\n      mload(0x40)\n      dup1\n      dup4\n      sub\n      dup2\n      0x00\n      dup8\n      dup1\n      extcodesize\n      iszero\n      dup1\n      iszero\n      tag_195\n      jumpi\n      revert(0x00, 0x00)\n    tag_195:\n      pop\n      gas\n      call\n      iszero\n      dup1\n      iszero\n      tag_197\n      jumpi\n      returndatacopy(0x00, 0x00, returndatasize)\n      revert(0x00, returndatasize)\n    tag_197:\n      pop\n      pop\n      pop\n      pop\n        /* \"Carbonfi_Marketplace.sol\":3938:4127  Listing({... */\n      mload(0x40)\n      dup1\n      0xa0\n      add\n      0x40\n      mstore\n      dup1\n        /* \"Carbonfi_Marketplace.sol\":3968:3978  msg.sender */\n      caller\n        /* \"Carbonfi_Marketplace.sol\":3938:4127  Listing({... */\n      0xffffffffffffffffffffffffffffffffffffffff\n      and\n      dup2\n      mstore\n      0x20\n      add\n        /* \"Carbonfi_Marketplace.sol\":4001:4008  tokenId */\n      dup7\n        /* \"Carbonfi_Marketplace.sol\":3938:4127  Listing({... */\n      dup2\n      mstore\n      0x20\n      add\n        /* \"Carbonfi_Marketplace.sol\":4030:4036  amount */\n      dup6\n        /* \"Carbonfi_Marketplace.sol\":3938:4127  Listing({... */\n      dup2\n      mstore\n      0x20\n      add\n        /* \"Carbonfi_Marketplace.sol\":4064:4076  pricePerItem */\n      dup5\n        /* \"Carbonfi_Marketplace.sol\":3938:4127  Listing({... */\n      dup2\n      mstore\n      0x20\n      add\n        /* \"Carbonfi_Marketplace.sol\":4106:4116  listingFee */\n      dup3\n        /* \"Carbonfi_Marketplace.sol\":3938:4127  Listing({... */\n      dup2\n      mstore\n      pop\n        /* \"Carbonfi_Marketplace.sol\":3906:3914  listings */\n      0x04\n        /* \"Carbonfi_Marketplace.sol\":3906:3923  listings[tokenId] */\n      0x00\n        /* \"Carbonfi_Marketplace.sol\":3915:3922  tokenId */\n      dup8\n        /* \"Carbonfi_Marketplace.sol\":3906:3923  listings[tokenId] */\n      dup2\n      mstore\n      0x20\n      add\n      swap1\n      dup2\n      mstore\n      0x20\n      add\n      0x00\n      keccak256\n        /* \"Carbonfi_Marketplace.sol\":3906:3935  listings[tokenId][msg.sender] */\n      0x00\n        /* \"Carbonfi_Marketplace.sol\":3924:3934  msg.sender */\n      caller\n        /* \"Carbonfi_Marketplace.sol\":3906:3935  listings[tokenId][msg.sender] */\n      0xffffffffffffffffffffffffffffffffffffffff\n      and\n      0xffffffffffffffffffffffffffffffffffffffff\n      and\n      dup2\n      mstore\n      0x20\n      add\n      swap1\n      dup2\n      mstore\n      0x20\n      add\n      0x00\n      keccak256\n        /* \"Carbonfi_Marketplace.sol\":3906:4127  listings[tokenId][msg.sender] = Listing({... */\n      0x00\n      dup3\n      add\n      mload\n      dup2\n      0x00\n      add\n      exp(0x0100, 0x00)\n      dup2\n      sload\n      dup2\n      0xffffffffffffffffffffffffffffffffffffffff\n      mul\n      not\n      and\n      swap1\n      dup4\n      0xffffffffffffffffffffffffffffffffffffffff\n      and\n      mul\n      or\n      swap1\n      sstore\n      pop\n      0x20\n      dup3\n      add\n      mload\n      dup2\n      0x01\n      add\n      sstore\n      0x40\n      dup3\n      add\n      mload\n      dup2\n      0x02\n      add\n      sstore\n      0x60\n      dup3\n      add\n      mload\n      dup2\n      0x03\n      add\n      sstore\n      0x80\n      dup3\n      add\n      mload\n      dup2\n      0x04\n      add\n      sstore\n      swap1\n      pop\n      pop\n        /* \"Carbonfi_Marketplace.sol\":4166:4173  tokenId */\n      dup5\n        /* \"Carbonfi_Marketplace.sol\":4154:4164  msg.sender */\n      caller\n        /* \"Carbonfi_Marketplace.sol\":4143:4208  ItemListed(msg.sender, tokenId, amount, pricePerItem, listingFee) */\n      0xffffffffffffffffffffffffffffffffffffffff\n      and\n      0x49404fb917a58c43be1f0c55952c2c6f994bd07a835d79b36a31b2d082349249\n        /* \"Carbonfi_Marketplace.sol\":4175:4181  amount */\n      dup7\n        /* \"Carbonfi_Marketplace.sol\":4183:4195  pricePerItem */\n      dup7\n        /* \"Carbonfi_Marketplace.sol\":4197:4207  listingFee */\n      dup6\n        /* \"Carbonfi_Marketplace.sol\":4143:4208  ItemListed(msg.sender, tokenId, amount, pricePerItem, listingFee) */\n      mload(0x40)\n      tag_198\n      swap4\n      swap3\n      swap2\n      swap1\n      tag_199\n      jump\t// in\n    tag_198:\n      mload(0x40)\n      dup1\n      swap2\n      sub\n      swap1\n      log3\n        /* \"Carbonfi_Marketplace.sol\":3126:4215  {... */\n      pop\n      pop\n        /* \"@openzeppelin/contracts/security/ReentrancyGuard.sol\":2303:2323  _nonReentrantAfter() */\n      tag_200\n        /* \"@openzeppelin/contracts/security/ReentrancyGuard.sol\":2303:2321  _nonReentrantAfter */\n      tag_134\n        /* \"@openzeppelin/contracts/security/ReentrancyGuard.sol\":2303:2323  _nonReentrantAfter() */\n      jump\t// in\n    tag_200:\n        /* \"Carbonfi_Marketplace.sol\":3001:4215  function listItem(... */\n      pop\n      pop\n      pop\n      jump\t// out\n        /* \"@openzeppelin/contracts/token/ERC1155/utils/ERC1155Holder.sol\":877:1096  function onERC1155Received(... */\n    tag_96:\n        /* \"@openzeppelin/contracts/token/ERC1155/utils/ERC1155Holder.sol\":1033:1039  bytes4 */\n      0x00\n        /* \"@openzeppelin/contracts/token/ERC1155/utils/ERC1155Holder.sol\":1058:1089  this.onERC1155Received.selector */\n      shl(0xe0, 0xf23a6e61)\n        /* \"@openzeppelin/contracts/token/ERC1155/utils/ERC1155Holder.sol\":1051:1089  return this.onERC1155Received.selector */\n      swap1\n      pop\n        /* \"@openzeppelin/contracts/token/ERC1155/utils/ERC1155Holder.sol\":877:1096  function onERC1155Received(... */\n      swap6\n      swap5\n      pop\n      pop\n      pop\n      pop\n      pop\n      jump\t// out\n        /* \"Carbonfi_Marketplace.sol\":1023:1047  address public feeWallet */\n    tag_99:\n      0x03\n      0x00\n      swap1\n      sload\n      swap1\n      0x0100\n      exp\n      swap1\n      div\n      0xffffffffffffffffffffffffffffffffffffffff\n      and\n      dup2\n      jump\t// out\n        /* \"@openzeppelin/contracts/access/Ownable2Step.sol\":1649:1827  function transferOwnership(address newOwner) public virtual override onlyOwner {... */\n    tag_103:\n        /* \"@openzeppelin/contracts/access/Ownable.sol\":1531:1544  _checkOwner() */\n      tag_203\n        /* \"@openzeppelin/contracts/access/Ownable.sol\":1531:1542  _checkOwner */\n      tag_137\n        /* \"@openzeppelin/contracts/access/Ownable.sol\":1531:1544  _checkOwner() */\n      jump\t// in\n    tag_203:\n        /* \"@openzeppelin/contracts/access/Ownable2Step.sol\":1754:1762  newOwner */\n      dup1\n        /* \"@openzeppelin/contracts/access/Ownable2Step.sol\":1738:1751  _pendingOwner */\n      0x01\n      0x00\n        /* \"@openzeppelin/contracts/access/Ownable2Step.sol\":1738:1762  _pendingOwner = newOwner */\n      0x0100\n      exp\n      dup2\n      sload\n      dup2\n      0xffffffffffffffffffffffffffffffffffffffff\n      mul\n      not\n      and\n      swap1\n      dup4\n      0xffffffffffffffffffffffffffffffffffffffff\n      and\n      mul\n      or\n      swap1\n      sstore\n      pop\n        /* \"@openzeppelin/contracts/access/Ownable2Step.sol\":1811:1819  newOwner */\n      dup1\n        /* \"@openzeppelin/contracts/access/Ownable2Step.sol\":1777:1820  OwnershipTransferStarted(owner(), newOwner) */\n      0xffffffffffffffffffffffffffffffffffffffff\n      and\n        /* \"@openzeppelin/contracts/access/Ownable2Step.sol\":1802:1809  owner() */\n      tag_205\n        /* \"@openzeppelin/contracts/access/Ownable2Step.sol\":1802:1807  owner */\n      tag_46\n        /* \"@openzeppelin/contracts/access/Ownable2Step.sol\":1802:1809  owner() */\n      jump\t// in\n    tag_205:\n        /* \"@openzeppelin/contracts/access/Ownable2Step.sol\":1777:1820  OwnershipTransferStarted(owner(), newOwner) */\n      0xffffffffffffffffffffffffffffffffffffffff\n      and\n      0x38d16b8cac22d99fc7c124b9cd0de2d3fa1faef420bfe791d8c362d765e22700\n      mload(0x40)\n      mload(0x40)\n      dup1\n      swap2\n      sub\n      swap1\n      log3\n        /* \"@openzeppelin/contracts/access/Ownable2Step.sol\":1649:1827  function transferOwnership(address newOwner) public virtual override onlyOwner {... */\n      pop\n      jump\t// out\n        /* \"Carbonfi_Marketplace.sol\":4357:5323  function buyItem(... */\n    tag_107:\n        /* \"@openzeppelin/contracts/security/ReentrancyGuard.sol\":2261:2282  _nonReentrantBefore() */\n      tag_207\n        /* \"@openzeppelin/contracts/security/ReentrancyGuard.sol\":2261:2280  _nonReentrantBefore */\n      tag_114\n        /* \"@openzeppelin/contracts/security/ReentrancyGuard.sol\":2261:2282  _nonReentrantBefore() */\n      jump\t// in\n    tag_207:\n        /* \"Carbonfi_Marketplace.sol\":4488:4494  seller */\n      dup3\n        /* \"Carbonfi_Marketplace.sol\":4496:4503  tokenId */\n      dup3\n        /* \"Carbonfi_Marketplace.sol\":4505:4511  amount */\n      dup3\n        /* \"Carbonfi_Marketplace.sol\":2012:2035  Listing storage listing */\n      0x00\n        /* \"Carbonfi_Marketplace.sol\":2038:2046  listings */\n      0x04\n        /* \"Carbonfi_Marketplace.sol\":2038:2055  listings[tokenId] */\n      0x00\n        /* \"Carbonfi_Marketplace.sol\":2047:2054  tokenId */\n      dup5\n        /* \"Carbonfi_Marketplace.sol\":2038:2055  listings[tokenId] */\n      dup2\n      mstore\n      0x20\n      add\n      swap1\n      dup2\n      mstore\n      0x20\n      add\n      0x00\n      keccak256\n        /* \"Carbonfi_Marketplace.sol\":2038:2063  listings[tokenId][seller] */\n      0x00\n        /* \"Carbonfi_Marketplace.sol\":2056:2062  seller */\n      dup6\n        /* \"Carbonfi_Marketplace.sol\":2038:2063  listings[tokenId][seller] */\n      0xffffffffffffffffffffffffffffffffffffffff\n      and\n      0xffffffffffffffffffffffffffffffffffffffff\n      and\n      dup2\n      mstore\n      0x20\n      add\n      swap1\n      dup2\n      mstore\n      0x20\n      add\n      0x00\n      keccak256\n        /* \"Carbonfi_Marketplace.sol\":2012:2063  Listing storage listing = listings[tokenId][seller] */\n      swap1\n      pop\n        /* \"Carbonfi_Marketplace.sol\":2099:2105  amount */\n      dup2\n        /* \"Carbonfi_Marketplace.sol\":2081:2088  listing */\n      dup2\n        /* \"Carbonfi_Marketplace.sol\":2081:2095  listing.amount */\n      0x02\n      add\n      sload\n        /* \"Carbonfi_Marketplace.sol\":2081:2105  listing.amount >= amount */\n      lt\n      iszero\n        /* \"Carbonfi_Marketplace.sol\":2073:2136  require(listing.amount >= amount, \"Insufficient amount listed\") */\n      tag_209\n      jumpi\n      mload(0x40)\n      0x08c379a000000000000000000000000000000000000000000000000000000000\n      dup2\n      mstore\n      0x04\n      add\n      tag_210\n      swap1\n      tag_211\n      jump\t// in\n    tag_210:\n      mload(0x40)\n      dup1\n      swap2\n      sub\n      swap1\n      revert\n    tag_209:\n        /* \"Carbonfi_Marketplace.sol\":2216:2222  amount */\n      dup2\n        /* \"Carbonfi_Marketplace.sol\":2167:2178  carbonFiNFT */\n      immutable(\"0x21b0d56b1dcd961f7be04692666cc8b9866348f3af5c916b97e463f0806e5941\")\n        /* \"Carbonfi_Marketplace.sol\":2167:2188  carbonFiNFT.balanceOf */\n      0xffffffffffffffffffffffffffffffffffffffff\n      and\n      0xfdd58e\n        /* \"Carbonfi_Marketplace.sol\":2197:2201  this */\n      address\n        /* \"Carbonfi_Marketplace.sol\":2204:2211  tokenId */\n      dup7\n        /* \"Carbonfi_Marketplace.sol\":2167:2212  carbonFiNFT.balanceOf(address(this), tokenId) */\n      mload(0x40)\n      dup4\n      0xffffffff\n      and\n      0xe0\n      shl\n      dup2\n      mstore\n      0x04\n      add\n      tag_212\n      swap3\n      swap2\n      swap1\n      tag_173\n      jump\t// in\n    tag_212:\n      0x20\n      mload(0x40)\n      dup1\n      dup4\n      sub\n      dup2\n      dup7\n      gas\n      staticcall\n      iszero\n      dup1\n      iszero\n      tag_214\n      jumpi\n      returndatacopy(0x00, 0x00, returndatasize)\n      revert(0x00, returndatasize)\n    tag_214:\n      pop\n      pop\n      pop\n      pop\n      mload(0x40)\n      returndatasize\n      not(0x1f)\n      0x1f\n      dup3\n      add\n      and\n      dup3\n      add\n      dup1\n      0x40\n      mstore\n      pop\n      dup2\n      add\n      swap1\n      tag_215\n      swap2\n      swap1\n      tag_177\n      jump\t// in\n    tag_215:\n        /* \"Carbonfi_Marketplace.sol\":2167:2222  carbonFiNFT.balanceOf(address(this), tokenId) >= amount */\n      lt\n      iszero\n        /* \"Carbonfi_Marketplace.sol\":2146:2275  require(... */\n      tag_216\n      jumpi\n      mload(0x40)\n      0x08c379a000000000000000000000000000000000000000000000000000000000\n      dup2\n      mstore\n      0x04\n      add\n      tag_217\n      swap1\n      tag_218\n      jump\t// in\n    tag_217:\n      mload(0x40)\n      dup1\n      swap2\n      sub\n      swap1\n      revert\n    tag_216:\n        /* \"Carbonfi_Marketplace.sol\":4523:4546  Listing storage listing */\n      0x00\n        /* \"Carbonfi_Marketplace.sol\":4549:4557  listings */\n      0x04\n        /* \"Carbonfi_Marketplace.sol\":4549:4566  listings[tokenId] */\n      0x00\n        /* \"Carbonfi_Marketplace.sol\":4558:4565  tokenId */\n      dup9\n        /* \"Carbonfi_Marketplace.sol\":4549:4566  listings[tokenId] */\n      dup2\n      mstore\n      0x20\n      add\n      swap1\n      dup2\n      mstore\n      0x20\n      add\n      0x00\n      keccak256\n        /* \"Carbonfi_Marketplace.sol\":4549:4574  listings[tokenId][seller] */\n      0x00\n        /* \"Carbonfi_Marketplace.sol\":4567:4573  seller */\n      dup10\n        /* \"Carbonfi_Marketplace.sol\":4549:4574  listings[tokenId][seller] */\n      0xffffffffffffffffffffffffffffffffffffffff\n      and\n      0xffffffffffffffffffffffffffffffffffffffff\n      and\n      dup2\n      mstore\n      0x20\n      add\n      swap1\n      dup2\n      mstore\n      0x20\n      add\n      0x00\n      keccak256\n        /* \"Carbonfi_Marketplace.sol\":4523:4574  Listing storage listing = listings[tokenId][seller] */\n      swap1\n      pop\n        /* \"Carbonfi_Marketplace.sol\":4622:4640  uint256 totalPrice */\n      0x00\n        /* \"Carbonfi_Marketplace.sol\":4666:4672  amount */\n      dup7\n        /* \"Carbonfi_Marketplace.sol\":4643:4650  listing */\n      dup3\n        /* \"Carbonfi_Marketplace.sol\":4643:4663  listing.pricePerItem */\n      0x03\n      add\n      sload\n        /* \"Carbonfi_Marketplace.sol\":4643:4672  listing.pricePerItem * amount */\n      tag_220\n      swap2\n      swap1\n      tag_120\n      jump\t// in\n    tag_220:\n        /* \"Carbonfi_Marketplace.sol\":4622:4672  uint256 totalPrice = listing.pricePerItem * amount */\n      swap1\n      pop\n        /* \"Carbonfi_Marketplace.sol\":4682:4696  uint256 buyFee */\n      0x00\n        /* \"Carbonfi_Marketplace.sol\":705:710  10000 */\n      0x2710\n        /* \"Carbonfi_Marketplace.sol\":629:632  100 */\n      0x64\n        /* \"Carbonfi_Marketplace.sol\":4700:4710  totalPrice */\n      dup4\n        /* \"Carbonfi_Marketplace.sol\":4700:4724  totalPrice * FEE_PERCENT */\n      tag_221\n      swap2\n      swap1\n      tag_120\n      jump\t// in\n    tag_221:\n        /* \"Carbonfi_Marketplace.sol\":4699:4743  (totalPrice * FEE_PERCENT) / FEE_DENOMINATOR */\n      tag_222\n      swap2\n      swap1\n      tag_123\n      jump\t// in\n    tag_222:\n        /* \"Carbonfi_Marketplace.sol\":4682:4743  uint256 buyFee = (totalPrice * FEE_PERCENT) / FEE_DENOMINATOR */\n      swap1\n      pop\n        /* \"Carbonfi_Marketplace.sol\":4753:4773  uint256 sellerAmount */\n      0x00\n        /* \"Carbonfi_Marketplace.sol\":4789:4795  buyFee */\n      dup2\n        /* \"Carbonfi_Marketplace.sol\":4776:4786  totalPrice */\n      dup4\n        /* \"Carbonfi_Marketplace.sol\":4776:4795  totalPrice - buyFee */\n      tag_223\n      swap2\n      swap1\n      tag_224\n      jump\t// in\n    tag_223:\n        /* \"Carbonfi_Marketplace.sol\":4753:4795  uint256 sellerAmount = totalPrice - buyFee */\n      swap1\n      pop\n        /* \"Carbonfi_Marketplace.sol\":4835:4892  cafiToken.safeTransferFrom(msg.sender, feeWallet, buyFee) */\n      tag_225\n        /* \"Carbonfi_Marketplace.sol\":4862:4872  msg.sender */\n      caller\n        /* \"Carbonfi_Marketplace.sol\":4874:4883  feeWallet */\n      0x03\n      0x00\n      swap1\n      sload\n      swap1\n      0x0100\n      exp\n      swap1\n      div\n      0xffffffffffffffffffffffffffffffffffffffff\n      and\n        /* \"Carbonfi_Marketplace.sol\":4885:4891  buyFee */\n      dup5\n        /* \"Carbonfi_Marketplace.sol\":4835:4844  cafiToken */\n      immutable(\"0xb363782a5557f0ec0f44e2c74fc529378a119ef26cbcbd24a7f0132dde3221da\")\n        /* \"Carbonfi_Marketplace.sol\":4835:4861  cafiToken.safeTransferFrom */\n      0xffffffffffffffffffffffffffffffffffffffff\n      and\n      tag_131\n      swap1\n        /* \"Carbonfi_Marketplace.sol\":4835:4892  cafiToken.safeTransferFrom(msg.sender, feeWallet, buyFee) */\n      swap4\n      swap3\n      swap2\n      swap1\n      0xffffffff\n      and\n      jump\t// in\n    tag_225:\n        /* \"Carbonfi_Marketplace.sol\":4902:4962  cafiToken.safeTransferFrom(msg.sender, seller, sellerAmount) */\n      tag_226\n        /* \"Carbonfi_Marketplace.sol\":4929:4939  msg.sender */\n      caller\n        /* \"Carbonfi_Marketplace.sol\":4941:4947  seller */\n      dup13\n        /* \"Carbonfi_Marketplace.sol\":4949:4961  sellerAmount */\n      dup4\n        /* \"Carbonfi_Marketplace.sol\":4902:4911  cafiToken */\n      immutable(\"0xb363782a5557f0ec0f44e2c74fc529378a119ef26cbcbd24a7f0132dde3221da\")\n        /* \"Carbonfi_Marketplace.sol\":4902:4928  cafiToken.safeTransferFrom */\n      0xffffffffffffffffffffffffffffffffffffffff\n      and\n      tag_131\n      swap1\n        /* \"Carbonfi_Marketplace.sol\":4902:4962  cafiToken.safeTransferFrom(msg.sender, seller, sellerAmount) */\n      swap4\n      swap3\n      swap2\n      swap1\n      0xffffffff\n      and\n      jump\t// in\n    tag_226:\n        /* \"Carbonfi_Marketplace.sol\":4997:5008  carbonFiNFT */\n      immutable(\"0x21b0d56b1dcd961f7be04692666cc8b9866348f3af5c916b97e463f0806e5941\")\n        /* \"Carbonfi_Marketplace.sol\":4997:5025  carbonFiNFT.safeTransferFrom */\n      0xffffffffffffffffffffffffffffffffffffffff\n      and\n      0xf242432a\n        /* \"Carbonfi_Marketplace.sol\":5034:5038  this */\n      address\n        /* \"Carbonfi_Marketplace.sol\":5041:5051  msg.sender */\n      caller\n        /* \"Carbonfi_Marketplace.sol\":5053:5060  tokenId */\n      dup14\n        /* \"Carbonfi_Marketplace.sol\":5062:5068  amount */\n      dup14\n        /* \"Carbonfi_Marketplace.sol\":4997:5073  carbonFiNFT.safeTransferFrom(address(this), msg.sender, tokenId, amount, \"\") */\n      mload(0x40)\n      dup6\n      0xffffffff\n      and\n      0xe0\n      shl\n      dup2\n      mstore\n      0x04\n      add\n      tag_227\n      swap5\n      swap4\n      swap3\n      swap2\n      swap1\n      tag_125\n      jump\t// in\n    tag_227:\n      0x00\n      mload(0x40)\n      dup1\n      dup4\n      sub\n      dup2\n      0x00\n      dup8\n      dup1\n      extcodesize\n      iszero\n      dup1\n      iszero\n      tag_228\n      jumpi\n      revert(0x00, 0x00)\n    tag_228:\n      pop\n      gas\n      call\n      iszero\n      dup1\n      iszero\n      tag_230\n      jumpi\n      returndatacopy(0x00, 0x00, returndatasize)\n      revert(0x00, returndatasize)\n    tag_230:\n      pop\n      pop\n      pop\n      pop\n        /* \"Carbonfi_Marketplace.sol\":5128:5134  amount */\n      dup9\n        /* \"Carbonfi_Marketplace.sol\":5110:5117  listing */\n      dup5\n        /* \"Carbonfi_Marketplace.sol\":5110:5124  listing.amount */\n      0x02\n      add\n      0x00\n        /* \"Carbonfi_Marketplace.sol\":5110:5134  listing.amount -= amount */\n      dup3\n      dup3\n      sload\n      tag_231\n      swap2\n      swap1\n      tag_224\n      jump\t// in\n    tag_231:\n      swap3\n      pop\n      pop\n      dup2\n      swap1\n      sstore\n      pop\n        /* \"Carbonfi_Marketplace.sol\":5166:5167  0 */\n      0x00\n        /* \"Carbonfi_Marketplace.sol\":5148:5155  listing */\n      dup5\n        /* \"Carbonfi_Marketplace.sol\":5148:5162  listing.amount */\n      0x02\n      add\n      sload\n        /* \"Carbonfi_Marketplace.sol\":5148:5167  listing.amount == 0 */\n      sub\n        /* \"Carbonfi_Marketplace.sol\":5144:5226  if (listing.amount == 0) {... */\n      tag_232\n      jumpi\n        /* \"Carbonfi_Marketplace.sol\":5190:5198  listings */\n      0x04\n        /* \"Carbonfi_Marketplace.sol\":5190:5207  listings[tokenId] */\n      0x00\n        /* \"Carbonfi_Marketplace.sol\":5199:5206  tokenId */\n      dup12\n        /* \"Carbonfi_Marketplace.sol\":5190:5207  listings[tokenId] */\n      dup2\n      mstore\n      0x20\n      add\n      swap1\n      dup2\n      mstore\n      0x20\n      add\n      0x00\n      keccak256\n        /* \"Carbonfi_Marketplace.sol\":5190:5215  listings[tokenId][seller] */\n      0x00\n        /* \"Carbonfi_Marketplace.sol\":5208:5214  seller */\n      dup13\n        /* \"Carbonfi_Marketplace.sol\":5190:5215  listings[tokenId][seller] */\n      0xffffffffffffffffffffffffffffffffffffffff\n      and\n      0xffffffffffffffffffffffffffffffffffffffff\n      and\n      dup2\n      mstore\n      0x20\n      add\n      swap1\n      dup2\n      mstore\n      0x20\n      add\n      0x00\n      keccak256\n      0x00\n        /* \"Carbonfi_Marketplace.sol\":5183:5215  delete listings[tokenId][seller] */\n      0x00\n      dup3\n      add\n      exp(0x0100, 0x00)\n      dup2\n      sload\n      swap1\n      0xffffffffffffffffffffffffffffffffffffffff\n      mul\n      not\n      and\n      swap1\n      sstore\n      0x01\n      dup3\n      add\n      0x00\n      swap1\n      sstore\n      0x02\n      dup3\n      add\n      0x00\n      swap1\n      sstore\n      0x03\n      dup3\n      add\n      0x00\n      swap1\n      sstore\n      0x04\n      dup3\n      add\n      0x00\n      swap1\n      sstore\n      pop\n      pop\n        /* \"Carbonfi_Marketplace.sol\":5144:5226  if (listing.amount == 0) {... */\n    tag_232:\n        /* \"Carbonfi_Marketplace.sol\":5270:5277  tokenId */\n      dup10\n        /* \"Carbonfi_Marketplace.sol\":5258:5268  msg.sender */\n      caller\n        /* \"Carbonfi_Marketplace.sol\":5241:5316  ItemSold(seller, msg.sender, tokenId, amount, listing.pricePerItem, buyFee) */\n      0xffffffffffffffffffffffffffffffffffffffff\n      and\n        /* \"Carbonfi_Marketplace.sol\":5250:5256  seller */\n      dup13\n        /* \"Carbonfi_Marketplace.sol\":5241:5316  ItemSold(seller, msg.sender, tokenId, amount, listing.pricePerItem, buyFee) */\n      0xffffffffffffffffffffffffffffffffffffffff\n      and\n      0xb0ed544bae4fa3cf334880b24a3ba38b9fdb5b90e8fd5f8905922d6744058fd6\n        /* \"Carbonfi_Marketplace.sol\":5279:5285  amount */\n      dup13\n        /* \"Carbonfi_Marketplace.sol\":5287:5294  listing */\n      dup9\n        /* \"Carbonfi_Marketplace.sol\":5287:5307  listing.pricePerItem */\n      0x03\n      add\n      sload\n        /* \"Carbonfi_Marketplace.sol\":5309:5315  buyFee */\n      dup8\n        /* \"Carbonfi_Marketplace.sol\":5241:5316  ItemSold(seller, msg.sender, tokenId, amount, listing.pricePerItem, buyFee) */\n      mload(0x40)\n      tag_233\n      swap4\n      swap3\n      swap2\n      swap1\n      tag_199\n      jump\t// in\n    tag_233:\n      mload(0x40)\n      dup1\n      swap2\n      sub\n      swap1\n      log4\n        /* \"Carbonfi_Marketplace.sol\":4513:5323  {... */\n      pop\n      pop\n      pop\n      pop\n        /* \"Carbonfi_Marketplace.sol\":2002:2293  {... */\n      pop\n        /* \"@openzeppelin/contracts/security/ReentrancyGuard.sol\":2292:2293  _ */\n      pop\n      pop\n      pop\n        /* \"@openzeppelin/contracts/security/ReentrancyGuard.sol\":2303:2323  _nonReentrantAfter() */\n      tag_234\n        /* \"@openzeppelin/contracts/security/ReentrancyGuard.sol\":2303:2321  _nonReentrantAfter */\n      tag_134\n        /* \"@openzeppelin/contracts/security/ReentrancyGuard.sol\":2303:2323  _nonReentrantAfter() */\n      jump\t// in\n    tag_234:\n        /* \"Carbonfi_Marketplace.sol\":4357:5323  function buyItem(... */\n      pop\n      pop\n      pop\n      jump\t// out\n        /* \"@openzeppelin/contracts/utils/introspection/ERC165.sol\":763:909  function supportsInterface(bytes4 interfaceId) public view virtual returns (bool) {... */\n    tag_111:\n        /* \"@openzeppelin/contracts/utils/introspection/ERC165.sol\":839:843  bool */\n      0x00\n        /* \"@openzeppelin/contracts/utils/introspection/ERC165.sol\":877:902  type(IERC165).interfaceId */\n      0x01ffc9a700000000000000000000000000000000000000000000000000000000\n        /* \"@openzeppelin/contracts/utils/introspection/ERC165.sol\":862:902  interfaceId == type(IERC165).interfaceId */\n      not(0xffffffffffffffffffffffffffffffffffffffffffffffffffffffff)\n      and\n        /* \"@openzeppelin/contracts/utils/introspection/ERC165.sol\":862:873  interfaceId */\n      dup3\n        /* \"@openzeppelin/contracts/utils/introspection/ERC165.sol\":862:902  interfaceId == type(IERC165).interfaceId */\n      not(0xffffffffffffffffffffffffffffffffffffffffffffffffffffffff)\n      and\n      eq\n        /* \"@openzeppelin/contracts/utils/introspection/ERC165.sol\":855:902  return interfaceId == type(IERC165).interfaceId */\n      swap1\n      pop\n        /* \"@openzeppelin/contracts/utils/introspection/ERC165.sol\":763:909  function supportsInterface(bytes4 interfaceId) public view virtual returns (bool) {... */\n      swap2\n      swap1\n      pop\n      jump\t// out\n        /* \"@openzeppelin/contracts/security/ReentrancyGuard.sol\":2336:2623  function _nonReentrantBefore() private {... */\n    tag_114:\n        /* \"@openzeppelin/contracts/security/ReentrancyGuard.sol\":1759:1760  2 */\n      0x02\n        /* \"@openzeppelin/contracts/security/ReentrancyGuard.sol\":2468:2475  _status */\n      dup1\n      sload\n        /* \"@openzeppelin/contracts/security/ReentrancyGuard.sol\":2468:2487  _status != _ENTERED */\n      sub\n        /* \"@openzeppelin/contracts/security/ReentrancyGuard.sol\":2460:2523  require(_status != _ENTERED, \"ReentrancyGuard: reentrant call\") */\n      tag_237\n      jumpi\n      mload(0x40)\n      0x08c379a000000000000000000000000000000000000000000000000000000000\n      dup2\n      mstore\n      0x04\n      add\n      tag_238\n      swap1\n      tag_239\n      jump\t// in\n    tag_238:\n      mload(0x40)\n      dup1\n      swap2\n      sub\n      swap1\n      revert\n    tag_237:\n        /* \"@openzeppelin/contracts/security/ReentrancyGuard.sol\":1759:1760  2 */\n      0x02\n        /* \"@openzeppelin/contracts/security/ReentrancyGuard.sol\":2598:2605  _status */\n      dup1\n        /* \"@openzeppelin/contracts/security/ReentrancyGuard.sol\":2598:2616  _status = _ENTERED */\n      dup2\n      swap1\n      sstore\n      pop\n        /* \"@openzeppelin/contracts/security/ReentrancyGuard.sol\":2336:2623  function _nonReentrantBefore() private {... */\n      jump\t// out\n        /* \"@openzeppelin/contracts/token/ERC20/utils/SafeERC20.sol\":1618:1806  function safeTransferFrom(IERC20 token, address from, address to, uint256 value) internal {... */\n    tag_131:\n        /* \"@openzeppelin/contracts/token/ERC20/utils/SafeERC20.sol\":1718:1799  _callOptionalReturn(token, abi.encodeCall(token.transferFrom, (from, to, value))) */\n      tag_241\n        /* \"@openzeppelin/contracts/token/ERC20/utils/SafeERC20.sol\":1738:1743  token */\n      dup5\n        /* \"@openzeppelin/contracts/token/ERC20/utils/SafeERC20.sol\":1760:1765  token */\n      dup6\n        /* \"@openzeppelin/contracts/token/ERC20/utils/SafeERC20.sol\":1760:1778  token.transferFrom */\n      0xffffffffffffffffffffffffffffffffffffffff\n      and\n      0x23b872dd\n        /* \"@openzeppelin/contracts/token/ERC20/utils/SafeERC20.sol\":1781:1785  from */\n      dup7\n        /* \"@openzeppelin/contracts/token/ERC20/utils/SafeERC20.sol\":1787:1789  to */\n      dup7\n        /* \"@openzeppelin/contracts/token/ERC20/utils/SafeERC20.sol\":1791:1796  value */\n      dup7\n        /* \"@openzeppelin/contracts/token/ERC20/utils/SafeERC20.sol\":1745:1798  abi.encodeCall(token.transferFrom, (from, to, value)) */\n      add(0x24, mload(0x40))\n      tag_242\n      swap4\n      swap3\n      swap2\n      swap1\n      tag_243\n      jump\t// in\n    tag_242:\n      mload(0x40)\n      0x20\n      dup2\n      dup4\n      sub\n      sub\n      dup2\n      mstore\n      swap1\n      0x40\n      mstore\n      swap2\n      pop\n      0xe0\n      shl\n      0x20\n      dup3\n      add\n      dup1\n      mload\n      0xffffffffffffffffffffffffffffffffffffffffffffffffffffffff\n      dup4\n      dup2\n      dup4\n      and\n      or\n      dup4\n      mstore\n      pop\n      pop\n      pop\n      pop\n        /* \"@openzeppelin/contracts/token/ERC20/utils/SafeERC20.sol\":1718:1737  _callOptionalReturn */\n      tag_244\n        /* \"@openzeppelin/contracts/token/ERC20/utils/SafeERC20.sol\":1718:1799  _callOptionalReturn(token, abi.encodeCall(token.transferFrom, (from, to, value))) */\n      jump\t// in\n    tag_241:\n        /* \"@openzeppelin/contracts/token/ERC20/utils/SafeERC20.sol\":1618:1806  function safeTransferFrom(IERC20 token, address from, address to, uint256 value) internal {... */\n      pop\n      pop\n      pop\n      pop\n      jump\t// out\n        /* \"@openzeppelin/contracts/security/ReentrancyGuard.sol\":2629:2838  function _nonReentrantAfter() private {... */\n    tag_134:\n        /* \"@openzeppelin/contracts/security/ReentrancyGuard.sol\":1716:1717  1 */\n      0x01\n        /* \"@openzeppelin/contracts/security/ReentrancyGuard.sol\":2809:2816  _status */\n      0x02\n        /* \"@openzeppelin/contracts/security/ReentrancyGuard.sol\":2809:2831  _status = _NOT_ENTERED */\n      dup2\n      swap1\n      sstore\n      pop\n        /* \"@openzeppelin/contracts/security/ReentrancyGuard.sol\":2629:2838  function _nonReentrantAfter() private {... */\n      jump\t// out\n        /* \"@openzeppelin/contracts/access/Ownable.sol\":1796:1958  function _checkOwner() internal view virtual {... */\n    tag_137:\n        /* \"@openzeppelin/contracts/access/Ownable.sol\":1866:1878  _msgSender() */\n      tag_247\n        /* \"@openzeppelin/contracts/access/Ownable.sol\":1866:1876  _msgSender */\n      tag_143\n        /* \"@openzeppelin/contracts/access/Ownable.sol\":1866:1878  _msgSender() */\n      jump\t// in\n    tag_247:\n        /* \"@openzeppelin/contracts/access/Ownable.sol\":1855:1878  owner() != _msgSender() */\n      0xffffffffffffffffffffffffffffffffffffffff\n      and\n        /* \"@openzeppelin/contracts/access/Ownable.sol\":1855:1862  owner() */\n      tag_248\n        /* \"@openzeppelin/contracts/access/Ownable.sol\":1855:1860  owner */\n      tag_46\n        /* \"@openzeppelin/contracts/access/Ownable.sol\":1855:1862  owner() */\n      jump\t// in\n    tag_248:\n        /* \"@openzeppelin/contracts/access/Ownable.sol\":1855:1878  owner() != _msgSender() */\n      0xffffffffffffffffffffffffffffffffffffffff\n      and\n      eq\n        /* \"@openzeppelin/contracts/access/Ownable.sol\":1851:1952  if (owner() != _msgSender()) {... */\n      tag_249\n      jumpi\n        /* \"@openzeppelin/contracts/access/Ownable.sol\":1928:1940  _msgSender() */\n      tag_250\n        /* \"@openzeppelin/contracts/access/Ownable.sol\":1928:1938  _msgSender */\n      tag_143\n        /* \"@openzeppelin/contracts/access/Ownable.sol\":1928:1940  _msgSender() */\n      jump\t// in\n    tag_250:\n        /* \"@openzeppelin/contracts/access/Ownable.sol\":1901:1941  OwnableUnauthorizedAccount(_msgSender()) */\n      mload(0x40)\n      0x118cdaa700000000000000000000000000000000000000000000000000000000\n      dup2\n      mstore\n      0x04\n      add\n      tag_251\n      swap2\n      swap1\n      tag_48\n      jump\t// in\n    tag_251:\n      mload(0x40)\n      dup1\n      swap2\n      sub\n      swap1\n      revert\n        /* \"@openzeppelin/contracts/access/Ownable.sol\":1851:1952  if (owner() != _msgSender()) {... */\n    tag_249:\n        /* \"@openzeppelin/contracts/access/Ownable.sol\":1796:1958  function _checkOwner() internal view virtual {... */\n      jump\t// out\n        /* \"@openzeppelin/contracts/access/Ownable2Step.sol\":2011:2164  function _transferOwnership(address newOwner) internal virtual override {... */\n    tag_140:\n        /* \"@openzeppelin/contracts/access/Ownable2Step.sol\":2100:2113  _pendingOwner */\n      0x01\n      0x00\n        /* \"@openzeppelin/contracts/access/Ownable2Step.sol\":2093:2113  delete _pendingOwner */\n      0x0100\n      exp\n      dup2\n      sload\n      swap1\n      0xffffffffffffffffffffffffffffffffffffffff\n      mul\n      not\n      and\n      swap1\n      sstore\n        /* \"@openzeppelin/contracts/access/Ownable2Step.sol\":2123:2157  super._transferOwnership(newOwner) */\n      tag_253\n        /* \"@openzeppelin/contracts/access/Ownable2Step.sol\":2148:2156  newOwner */\n      dup2\n        /* \"@openzeppelin/contracts/access/Ownable2Step.sol\":2123:2147  super._transferOwnership */\n      tag_254\n        /* \"@openzeppelin/contracts/access/Ownable2Step.sol\":2123:2157  super._transferOwnership(newOwner) */\n      jump\t// in\n    tag_253:\n        /* \"@openzeppelin/contracts/access/Ownable2Step.sol\":2011:2164  function _transferOwnership(address newOwner) internal virtual override {... */\n      pop\n      jump\t// out\n        /* \"@openzeppelin/contracts/utils/Context.sol\":656:752  function _msgSender() internal view virtual returns (address) {... */\n    tag_143:\n        /* \"@openzeppelin/contracts/utils/Context.sol\":709:716  address */\n      0x00\n        /* \"@openzeppelin/contracts/utils/Context.sol\":735:745  msg.sender */\n      caller\n        /* \"@openzeppelin/contracts/utils/Context.sol\":728:745  return msg.sender */\n      swap1\n      pop\n        /* \"@openzeppelin/contracts/utils/Context.sol\":656:752  function _msgSender() internal view virtual returns (address) {... */\n      swap1\n      jump\t// out\n        /* \"@openzeppelin/contracts/token/ERC20/utils/SafeERC20.sol\":1219:1379  function safeTransfer(IERC20 token, address to, uint256 value) internal {... */\n    tag_160:\n        /* \"@openzeppelin/contracts/token/ERC20/utils/SafeERC20.sol\":1301:1372  _callOptionalReturn(token, abi.encodeCall(token.transfer, (to, value))) */\n      tag_257\n        /* \"@openzeppelin/contracts/token/ERC20/utils/SafeERC20.sol\":1321:1326  token */\n      dup4\n        /* \"@openzeppelin/contracts/token/ERC20/utils/SafeERC20.sol\":1343:1348  token */\n      dup5\n        /* \"@openzeppelin/contracts/token/ERC20/utils/SafeERC20.sol\":1343:1357  token.transfer */\n      0xffffffffffffffffffffffffffffffffffffffff\n      and\n      0xa9059cbb\n        /* \"@openzeppelin/contracts/token/ERC20/utils/SafeERC20.sol\":1360:1362  to */\n      dup6\n        /* \"@openzeppelin/contracts/token/ERC20/utils/SafeERC20.sol\":1364:1369  value */\n      dup6\n        /* \"@openzeppelin/contracts/token/ERC20/utils/SafeERC20.sol\":1328:1371  abi.encodeCall(token.transfer, (to, value)) */\n      add(0x24, mload(0x40))\n      tag_258\n      swap3\n      swap2\n      swap1\n      tag_173\n      jump\t// in\n    tag_258:\n      mload(0x40)\n      0x20\n      dup2\n      dup4\n      sub\n      sub\n      dup2\n      mstore\n      swap1\n      0x40\n      mstore\n      swap2\n      pop\n      0xe0\n      shl\n      0x20\n      dup3\n      add\n      dup1\n      mload\n      0xffffffffffffffffffffffffffffffffffffffffffffffffffffffff\n      dup4\n      dup2\n      dup4\n      and\n      or\n      dup4\n      mstore\n      pop\n      pop\n      pop\n      pop\n        /* \"@openzeppelin/contracts/token/ERC20/utils/SafeERC20.sol\":1301:1320  _callOptionalReturn */\n      tag_244\n        /* \"@openzeppelin/contracts/token/ERC20/utils/SafeERC20.sol\":1301:1372  _callOptionalReturn(token, abi.encodeCall(token.transfer, (to, value))) */\n      jump\t// in\n    tag_257:\n        /* \"@openzeppelin/contracts/token/ERC20/utils/SafeERC20.sol\":1219:1379  function safeTransfer(IERC20 token, address to, uint256 value) internal {... */\n      pop\n      pop\n      pop\n      jump\t// out\n        /* \"@openzeppelin/contracts/token/ERC20/utils/SafeERC20.sol\":8370:9090  function _callOptionalReturn(IERC20 token, bytes memory data) private {... */\n    tag_244:\n        /* \"@openzeppelin/contracts/token/ERC20/utils/SafeERC20.sol\":8450:8468  uint256 returnSize */\n      0x00\n        /* \"@openzeppelin/contracts/token/ERC20/utils/SafeERC20.sol\":8478:8497  uint256 returnValue */\n      0x00\n        /* \"@openzeppelin/contracts/token/ERC20/utils/SafeERC20.sol\":8616:8620  0x20 */\n      0x20\n        /* \"@openzeppelin/contracts/token/ERC20/utils/SafeERC20.sol\":8613:8614  0 */\n      0x00\n        /* \"@openzeppelin/contracts/token/ERC20/utils/SafeERC20.sol\":8606:8610  data */\n      dup5\n        /* \"@openzeppelin/contracts/token/ERC20/utils/SafeERC20.sol\":8600:8611  mload(data) */\n      mload\n        /* \"@openzeppelin/contracts/token/ERC20/utils/SafeERC20.sol\":8593:8597  0x20 */\n      0x20\n        /* \"@openzeppelin/contracts/token/ERC20/utils/SafeERC20.sol\":8587:8591  data */\n      dup7\n        /* \"@openzeppelin/contracts/token/ERC20/utils/SafeERC20.sol\":8583:8598  add(data, 0x20) */\n      add\n        /* \"@openzeppelin/contracts/token/ERC20/utils/SafeERC20.sol\":8580:8581  0 */\n      0x00\n        /* \"@openzeppelin/contracts/token/ERC20/utils/SafeERC20.sol\":8573:8578  token */\n      dup9\n        /* \"@openzeppelin/contracts/token/ERC20/utils/SafeERC20.sol\":8566:8571  gas() */\n      gas\n        /* \"@openzeppelin/contracts/token/ERC20/utils/SafeERC20.sol\":8561:8621  call(gas(), token, 0, add(data, 0x20), mload(data), 0, 0x20) */\n      call\n        /* \"@openzeppelin/contracts/token/ERC20/utils/SafeERC20.sol\":8673:8680  success */\n      dup1\n        /* \"@openzeppelin/contracts/token/ERC20/utils/SafeERC20.sol\":8663:8839  if iszero(success) {... */\n      tag_260\n      jumpi\n        /* \"@openzeppelin/contracts/token/ERC20/utils/SafeERC20.sol\":8717:8721  0x40 */\n      0x40\n        /* \"@openzeppelin/contracts/token/ERC20/utils/SafeERC20.sol\":8711:8722  mload(0x40) */\n      mload\n        /* \"@openzeppelin/contracts/token/ERC20/utils/SafeERC20.sol\":8762:8778  returndatasize() */\n      returndatasize\n        /* \"@openzeppelin/contracts/token/ERC20/utils/SafeERC20.sol\":8759:8760  0 */\n      0x00\n        /* \"@openzeppelin/contracts/token/ERC20/utils/SafeERC20.sol\":8754:8757  ptr */\n      dup3\n        /* \"@openzeppelin/contracts/token/ERC20/utils/SafeERC20.sol\":8739:8779  returndatacopy(ptr, 0, returndatasize()) */\n      returndatacopy\n        /* \"@openzeppelin/contracts/token/ERC20/utils/SafeERC20.sol\":8808:8824  returndatasize() */\n      returndatasize\n        /* \"@openzeppelin/contracts/token/ERC20/utils/SafeERC20.sol\":8803:8806  ptr */\n      dup2\n        /* \"@openzeppelin/contracts/token/ERC20/utils/SafeERC20.sol\":8796:8825  revert(ptr, returndatasize()) */\n      revert\n        /* \"@openzeppelin/contracts/token/ERC20/utils/SafeERC20.sol\":8663:8839  if iszero(success) {... */\n    tag_260:\n        /* \"@openzeppelin/contracts/token/ERC20/utils/SafeERC20.sol\":8866:8882  returndatasize() */\n      returndatasize\n        /* \"@openzeppelin/contracts/token/ERC20/utils/SafeERC20.sol\":8852:8882  returnSize := returndatasize() */\n      swap3\n      pop\n        /* \"@openzeppelin/contracts/token/ERC20/utils/SafeERC20.sol\":8916:8917  0 */\n      0x00\n        /* \"@openzeppelin/contracts/token/ERC20/utils/SafeERC20.sol\":8910:8918  mload(0) */\n      mload\n        /* \"@openzeppelin/contracts/token/ERC20/utils/SafeERC20.sol\":8895:8918  returnValue := mload(0) */\n      swap2\n      pop\n        /* \"@openzeppelin/contracts/token/ERC20/utils/SafeERC20.sol\":8532:8928  {... */\n      pop\n        /* \"@openzeppelin/contracts/token/ERC20/utils/SafeERC20.sol\":8956:8957  0 */\n      0x00\n        /* \"@openzeppelin/contracts/token/ERC20/utils/SafeERC20.sol\":8942:8952  returnSize */\n      dup3\n        /* \"@openzeppelin/contracts/token/ERC20/utils/SafeERC20.sol\":8942:8957  returnSize == 0 */\n      eq\n        /* \"@openzeppelin/contracts/token/ERC20/utils/SafeERC20.sol\":8942:9010  returnSize == 0 ? address(token).code.length == 0 : returnValue != 1 */\n      tag_261\n      jumpi\n        /* \"@openzeppelin/contracts/token/ERC20/utils/SafeERC20.sol\":9009:9010  1 */\n      0x01\n        /* \"@openzeppelin/contracts/token/ERC20/utils/SafeERC20.sol\":8994:9005  returnValue */\n      dup2\n        /* \"@openzeppelin/contracts/token/ERC20/utils/SafeERC20.sol\":8994:9010  returnValue != 1 */\n      eq\n      iszero\n        /* \"@openzeppelin/contracts/token/ERC20/utils/SafeERC20.sol\":8942:9010  returnSize == 0 ? address(token).code.length == 0 : returnValue != 1 */\n      jump(tag_262)\n    tag_261:\n        /* \"@openzeppelin/contracts/token/ERC20/utils/SafeERC20.sol\":8990:8991  0 */\n      0x00\n        /* \"@openzeppelin/contracts/token/ERC20/utils/SafeERC20.sol\":8968:8973  token */\n      dup5\n        /* \"@openzeppelin/contracts/token/ERC20/utils/SafeERC20.sol\":8960:8986  address(token).code.length */\n      0xffffffffffffffffffffffffffffffffffffffff\n      and\n      extcodesize\n        /* \"@openzeppelin/contracts/token/ERC20/utils/SafeERC20.sol\":8960:8991  address(token).code.length == 0 */\n      eq\n        /* \"@openzeppelin/contracts/token/ERC20/utils/SafeERC20.sol\":8942:9010  returnSize == 0 ? address(token).code.length == 0 : returnValue != 1 */\n    tag_262:\n        /* \"@openzeppelin/contracts/token/ERC20/utils/SafeERC20.sol\":8938:9084  if (returnSize == 0 ? address(token).code.length == 0 : returnValue != 1) {... */\n      iszero\n      tag_263\n      jumpi\n        /* \"@openzeppelin/contracts/token/ERC20/utils/SafeERC20.sol\":9066:9071  token */\n      dup4\n        /* \"@openzeppelin/contracts/token/ERC20/utils/SafeERC20.sol\":9033:9073  SafeERC20FailedOperation(address(token)) */\n      mload(0x40)\n      0x5274afe700000000000000000000000000000000000000000000000000000000\n      dup2\n      mstore\n      0x04\n      add\n      tag_264\n      swap2\n      swap1\n      tag_48\n      jump\t// in\n    tag_264:\n      mload(0x40)\n      dup1\n      swap2\n      sub\n      swap1\n      revert\n        /* \"@openzeppelin/contracts/token/ERC20/utils/SafeERC20.sol\":8938:9084  if (returnSize == 0 ? address(token).code.length == 0 : returnValue != 1) {... */\n    tag_263:\n        /* \"@openzeppelin/contracts/token/ERC20/utils/SafeERC20.sol\":8440:9090  {... */\n      pop\n      pop\n        /* \"@openzeppelin/contracts/token/ERC20/utils/SafeERC20.sol\":8370:9090  function _callOptionalReturn(IERC20 token, bytes memory data) private {... */\n      pop\n      pop\n      jump\t// out\n        /* \"@openzeppelin/contracts/access/Ownable.sol\":2912:3099  function _transferOwnership(address newOwner) internal virtual {... */\n    tag_254:\n        /* \"@openzeppelin/contracts/access/Ownable.sol\":2985:3001  address oldOwner */\n      0x00\n        /* \"@openzeppelin/contracts/access/Ownable.sol\":3004:3010  _owner */\n      0x00\n      0x00\n      swap1\n      sload\n      swap1\n      0x0100\n      exp\n      swap1\n      div\n      0xffffffffffffffffffffffffffffffffffffffff\n      and\n        /* \"@openzeppelin/contracts/access/Ownable.sol\":2985:3010  address oldOwner = _owner */\n      swap1\n      pop\n        /* \"@openzeppelin/contracts/access/Ownable.sol\":3029:3037  newOwner */\n      dup2\n        /* \"@openzeppelin/contracts/access/Ownable.sol\":3020:3026  _owner */\n      0x00\n      0x00\n        /* \"@openzeppelin/contracts/access/Ownable.sol\":3020:3037  _owner = newOwner */\n      0x0100\n      exp\n      dup2\n      sload\n      dup2\n      0xffffffffffffffffffffffffffffffffffffffff\n      mul\n      not\n      and\n      swap1\n      dup4\n      0xffffffffffffffffffffffffffffffffffffffff\n      and\n      mul\n      or\n      swap1\n      sstore\n      pop\n        /* \"@openzeppelin/contracts/access/Ownable.sol\":3083:3091  newOwner */\n      dup2\n        /* \"@openzeppelin/contracts/access/Ownable.sol\":3052:3092  OwnershipTransferred(oldOwner, newOwner) */\n      0xffffffffffffffffffffffffffffffffffffffff\n      and\n        /* \"@openzeppelin/contracts/access/Ownable.sol\":3073:3081  oldOwner */\n      dup2\n        /* \"@openzeppelin/contracts/access/Ownable.sol\":3052:3092  OwnershipTransferred(oldOwner, newOwner) */\n      0xffffffffffffffffffffffffffffffffffffffff\n      and\n      0x8be0079c531659141344cd1fd0a4f28419497f9722a3daafe3b4186f6b6457e0\n      mload(0x40)\n      mload(0x40)\n      dup1\n      swap2\n      sub\n      swap1\n      log3\n        /* \"@openzeppelin/contracts/access/Ownable.sol\":2975:3099  {... */\n      pop\n        /* \"@openzeppelin/contracts/access/Ownable.sol\":2912:3099  function _transferOwnership(address newOwner) internal virtual {... */\n      pop\n      jump\t// out\n        /* \"#utility.yul\":7:82   */\n    tag_266:\n        /* \"#utility.yul\":40:46   */\n      0x00\n        /* \"#utility.yul\":73:75   */\n      0x40\n        /* \"#utility.yul\":67:76   */\n      mload\n        /* \"#utility.yul\":57:76   */\n      swap1\n      pop\n        /* \"#utility.yul\":7:82   */\n      swap1\n      jump\t// out\n        /* \"#utility.yul\":88:205   */\n    tag_267:\n        /* \"#utility.yul\":197:198   */\n      0x00\n        /* \"#utility.yul\":194:195   */\n      0x00\n        /* \"#utility.yul\":187:199   */\n      revert\n        /* \"#utility.yul\":211:328   */\n    tag_268:\n        /* \"#utility.yul\":320:321   */\n      0x00\n        /* \"#utility.yul\":317:318   */\n      0x00\n        /* \"#utility.yul\":310:322   */\n      revert\n        /* \"#utility.yul\":334:483   */\n    tag_269:\n        /* \"#utility.yul\":370:377   */\n      0x00\n        /* \"#utility.yul\":410:476   */\n      0xffffffff00000000000000000000000000000000000000000000000000000000\n        /* \"#utility.yul\":403:408   */\n      dup3\n        /* \"#utility.yul\":399:477   */\n      and\n        /* \"#utility.yul\":388:477   */\n      swap1\n      pop\n        /* \"#utility.yul\":334:483   */\n      swap2\n      swap1\n      pop\n      jump\t// out\n        /* \"#utility.yul\":489:609   */\n    tag_270:\n        /* \"#utility.yul\":561:584   */\n      tag_338\n        /* \"#utility.yul\":578:583   */\n      dup2\n        /* \"#utility.yul\":561:584   */\n      tag_269\n      jump\t// in\n    tag_338:\n        /* \"#utility.yul\":554:559   */\n      dup2\n        /* \"#utility.yul\":551:585   */\n      eq\n        /* \"#utility.yul\":541:603   */\n      tag_339\n      jumpi\n        /* \"#utility.yul\":599:600   */\n      0x00\n        /* \"#utility.yul\":596:597   */\n      0x00\n        /* \"#utility.yul\":589:601   */\n      revert\n        /* \"#utility.yul\":541:603   */\n    tag_339:\n        /* \"#utility.yul\":489:609   */\n      pop\n      jump\t// out\n        /* \"#utility.yul\":615:752   */\n    tag_271:\n        /* \"#utility.yul\":660:665   */\n      0x00\n        /* \"#utility.yul\":698:704   */\n      dup2\n        /* \"#utility.yul\":685:705   */\n      calldataload\n        /* \"#utility.yul\":676:705   */\n      swap1\n      pop\n        /* \"#utility.yul\":714:746   */\n      tag_341\n        /* \"#utility.yul\":740:745   */\n      dup2\n        /* \"#utility.yul\":714:746   */\n      tag_270\n      jump\t// in\n    tag_341:\n        /* \"#utility.yul\":615:752   */\n      swap3\n      swap2\n      pop\n      pop\n      jump\t// out\n        /* \"#utility.yul\":758:1085   */\n    tag_29:\n        /* \"#utility.yul\":816:822   */\n      0x00\n        /* \"#utility.yul\":865:867   */\n      0x20\n        /* \"#utility.yul\":853:862   */\n      dup3\n        /* \"#utility.yul\":844:851   */\n      dup5\n        /* \"#utility.yul\":840:863   */\n      sub\n        /* \"#utility.yul\":836:868   */\n      slt\n        /* \"#utility.yul\":833:952   */\n      iszero\n      tag_343\n      jumpi\n        /* \"#utility.yul\":871:950   */\n      tag_344\n      tag_267\n      jump\t// in\n    tag_344:\n        /* \"#utility.yul\":833:952   */\n    tag_343:\n        /* \"#utility.yul\":991:992   */\n      0x00\n        /* \"#utility.yul\":1016:1068   */\n      tag_345\n        /* \"#utility.yul\":1060:1067   */\n      dup5\n        /* \"#utility.yul\":1051:1057   */\n      dup3\n        /* \"#utility.yul\":1040:1049   */\n      dup6\n        /* \"#utility.yul\":1036:1058   */\n      add\n        /* \"#utility.yul\":1016:1068   */\n      tag_271\n      jump\t// in\n    tag_345:\n        /* \"#utility.yul\":1006:1068   */\n      swap2\n      pop\n        /* \"#utility.yul\":962:1078   */\n      pop\n        /* \"#utility.yul\":758:1085   */\n      swap3\n      swap2\n      pop\n      pop\n      jump\t// out\n        /* \"#utility.yul\":1091:1181   */\n    tag_272:\n        /* \"#utility.yul\":1125:1132   */\n      0x00\n        /* \"#utility.yul\":1168:1173   */\n      dup2\n        /* \"#utility.yul\":1161:1174   */\n      iszero\n        /* \"#utility.yul\":1154:1175   */\n      iszero\n        /* \"#utility.yul\":1143:1175   */\n      swap1\n      pop\n        /* \"#utility.yul\":1091:1181   */\n      swap2\n      swap1\n      pop\n      jump\t// out\n        /* \"#utility.yul\":1187:1296   */\n    tag_273:\n        /* \"#utility.yul\":1268:1289   */\n      tag_348\n        /* \"#utility.yul\":1283:1288   */\n      dup2\n        /* \"#utility.yul\":1268:1289   */\n      tag_272\n      jump\t// in\n    tag_348:\n        /* \"#utility.yul\":1263:1266   */\n      dup3\n        /* \"#utility.yul\":1256:1290   */\n      mstore\n        /* \"#utility.yul\":1187:1296   */\n      pop\n      pop\n      jump\t// out\n        /* \"#utility.yul\":1302:1512   */\n    tag_32:\n        /* \"#utility.yul\":1389:1393   */\n      0x00\n        /* \"#utility.yul\":1427:1429   */\n      0x20\n        /* \"#utility.yul\":1416:1425   */\n      dup3\n        /* \"#utility.yul\":1412:1430   */\n      add\n        /* \"#utility.yul\":1404:1430   */\n      swap1\n      pop\n        /* \"#utility.yul\":1440:1505   */\n      tag_350\n        /* \"#utility.yul\":1502:1503   */\n      0x00\n        /* \"#utility.yul\":1491:1500   */\n      dup4\n        /* \"#utility.yul\":1487:1504   */\n      add\n        /* \"#utility.yul\":1478:1484   */\n      dup5\n        /* \"#utility.yul\":1440:1505   */\n      tag_273\n      jump\t// in\n    tag_350:\n        /* \"#utility.yul\":1302:1512   */\n      swap3\n      swap2\n      pop\n      pop\n      jump\t// out\n        /* \"#utility.yul\":1518:1595   */\n    tag_274:\n        /* \"#utility.yul\":1555:1562   */\n      0x00\n        /* \"#utility.yul\":1584:1589   */\n      dup2\n        /* \"#utility.yul\":1573:1589   */\n      swap1\n      pop\n        /* \"#utility.yul\":1518:1595   */\n      swap2\n      swap1\n      pop\n      jump\t// out\n        /* \"#utility.yul\":1601:1723   */\n    tag_275:\n        /* \"#utility.yul\":1674:1698   */\n      tag_353\n        /* \"#utility.yul\":1692:1697   */\n      dup2\n        /* \"#utility.yul\":1674:1698   */\n      tag_274\n      jump\t// in\n    tag_353:\n        /* \"#utility.yul\":1667:1672   */\n      dup2\n        /* \"#utility.yul\":1664:1699   */\n      eq\n        /* \"#utility.yul\":1654:1717   */\n      tag_354\n      jumpi\n        /* \"#utility.yul\":1713:1714   */\n      0x00\n        /* \"#utility.yul\":1710:1711   */\n      0x00\n        /* \"#utility.yul\":1703:1715   */\n      revert\n        /* \"#utility.yul\":1654:1717   */\n    tag_354:\n        /* \"#utility.yul\":1601:1723   */\n      pop\n      jump\t// out\n        /* \"#utility.yul\":1729:1868   */\n    tag_276:\n        /* \"#utility.yul\":1775:1780   */\n      0x00\n        /* \"#utility.yul\":1813:1819   */\n      dup2\n        /* \"#utility.yul\":1800:1820   */\n      calldataload\n        /* \"#utility.yul\":1791:1820   */\n      swap1\n      pop\n        /* \"#utility.yul\":1829:1862   */\n      tag_356\n        /* \"#utility.yul\":1856:1861   */\n      dup2\n        /* \"#utility.yul\":1829:1862   */\n      tag_275\n      jump\t// in\n    tag_356:\n        /* \"#utility.yul\":1729:1868   */\n      swap3\n      swap2\n      pop\n      pop\n      jump\t// out\n        /* \"#utility.yul\":1874:2203   */\n    tag_35:\n        /* \"#utility.yul\":1933:1939   */\n      0x00\n        /* \"#utility.yul\":1982:1984   */\n      0x20\n        /* \"#utility.yul\":1970:1979   */\n      dup3\n        /* \"#utility.yul\":1961:1968   */\n      dup5\n        /* \"#utility.yul\":1957:1980   */\n      sub\n        /* \"#utility.yul\":1953:1985   */\n      slt\n        /* \"#utility.yul\":1950:2069   */\n      iszero\n      tag_358\n      jumpi\n        /* \"#utility.yul\":1988:2067   */\n      tag_359\n      tag_267\n      jump\t// in\n    tag_359:\n        /* \"#utility.yul\":1950:2069   */\n    tag_358:\n        /* \"#utility.yul\":2108:2109   */\n      0x00\n        /* \"#utility.yul\":2133:2186   */\n      tag_360\n        /* \"#utility.yul\":2178:2185   */\n      dup5\n        /* \"#utility.yul\":2169:2175   */\n      dup3\n        /* \"#utility.yul\":2158:2167   */\n      dup6\n        /* \"#utility.yul\":2154:2176   */\n      add\n        /* \"#utility.yul\":2133:2186   */\n      tag_276\n      jump\t// in\n    tag_360:\n        /* \"#utility.yul\":2123:2186   */\n      swap2\n      pop\n        /* \"#utility.yul\":2079:2196   */\n      pop\n        /* \"#utility.yul\":1874:2203   */\n      swap3\n      swap2\n      pop\n      pop\n      jump\t// out\n        /* \"#utility.yul\":2209:2335   */\n    tag_277:\n        /* \"#utility.yul\":2246:2253   */\n      0x00\n        /* \"#utility.yul\":2286:2328   */\n      0xffffffffffffffffffffffffffffffffffffffff\n        /* \"#utility.yul\":2279:2284   */\n      dup3\n        /* \"#utility.yul\":2275:2329   */\n      and\n        /* \"#utility.yul\":2264:2329   */\n      swap1\n      pop\n        /* \"#utility.yul\":2209:2335   */\n      swap2\n      swap1\n      pop\n      jump\t// out\n        /* \"#utility.yul\":2341:2401   */\n    tag_278:\n        /* \"#utility.yul\":2369:2372   */\n      0x00\n        /* \"#utility.yul\":2390:2395   */\n      dup2\n        /* \"#utility.yul\":2383:2395   */\n      swap1\n      pop\n        /* \"#utility.yul\":2341:2401   */\n      swap2\n      swap1\n      pop\n      jump\t// out\n        /* \"#utility.yul\":2407:2549   */\n    tag_279:\n        /* \"#utility.yul\":2457:2466   */\n      0x00\n        /* \"#utility.yul\":2490:2543   */\n      tag_364\n        /* \"#utility.yul\":2508:2542   */\n      tag_365\n        /* \"#utility.yul\":2517:2541   */\n      tag_366\n        /* \"#utility.yul\":2535:2540   */\n      dup5\n        /* \"#utility.yul\":2517:2541   */\n      tag_277\n      jump\t// in\n    tag_366:\n        /* \"#utility.yul\":2508:2542   */\n      tag_278\n      jump\t// in\n    tag_365:\n        /* \"#utility.yul\":2490:2543   */\n      tag_277\n      jump\t// in\n    tag_364:\n        /* \"#utility.yul\":2477:2543   */\n      swap1\n      pop\n        /* \"#utility.yul\":2407:2549   */\n      swap2\n      swap1\n      pop\n      jump\t// out\n        /* \"#utility.yul\":2555:2681   */\n    tag_280:\n        /* \"#utility.yul\":2605:2614   */\n      0x00\n        /* \"#utility.yul\":2638:2675   */\n      tag_368\n        /* \"#utility.yul\":2669:2674   */\n      dup3\n        /* \"#utility.yul\":2638:2675   */\n      tag_279\n      jump\t// in\n    tag_368:\n        /* \"#utility.yul\":2625:2675   */\n      swap1\n      pop\n        /* \"#utility.yul\":2555:2681   */\n      swap2\n      swap1\n      pop\n      jump\t// out\n        /* \"#utility.yul\":2687:2827   */\n    tag_281:\n        /* \"#utility.yul\":2751:2760   */\n      0x00\n        /* \"#utility.yul\":2784:2821   */\n      tag_370\n        /* \"#utility.yul\":2815:2820   */\n      dup3\n        /* \"#utility.yul\":2784:2821   */\n      tag_280\n      jump\t// in\n    tag_370:\n        /* \"#utility.yul\":2771:2821   */\n      swap1\n      pop\n        /* \"#utility.yul\":2687:2827   */\n      swap2\n      swap1\n      pop\n      jump\t// out\n        /* \"#utility.yul\":2833:2992   */\n    tag_282:\n        /* \"#utility.yul\":2934:2985   */\n      tag_372\n        /* \"#utility.yul\":2979:2984   */\n      dup2\n        /* \"#utility.yul\":2934:2985   */\n      tag_281\n      jump\t// in\n    tag_372:\n        /* \"#utility.yul\":2929:2932   */\n      dup3\n        /* \"#utility.yul\":2922:2986   */\n      mstore\n        /* \"#utility.yul\":2833:2992   */\n      pop\n      pop\n      jump\t// out\n        /* \"#utility.yul\":2998:3248   */\n    tag_40:\n        /* \"#utility.yul\":3105:3109   */\n      0x00\n        /* \"#utility.yul\":3143:3145   */\n      0x20\n        /* \"#utility.yul\":3132:3141   */\n      dup3\n        /* \"#utility.yul\":3128:3146   */\n      add\n        /* \"#utility.yul\":3120:3146   */\n      swap1\n      pop\n        /* \"#utility.yul\":3156:3241   */\n      tag_374\n        /* \"#utility.yul\":3238:3239   */\n      0x00\n        /* \"#utility.yul\":3227:3236   */\n      dup4\n        /* \"#utility.yul\":3223:3240   */\n      add\n        /* \"#utility.yul\":3214:3220   */\n      dup5\n        /* \"#utility.yul\":3156:3241   */\n      tag_282\n      jump\t// in\n    tag_374:\n        /* \"#utility.yul\":2998:3248   */\n      swap3\n      swap2\n      pop\n      pop\n      jump\t// out\n        /* \"#utility.yul\":3254:3350   */\n    tag_283:\n        /* \"#utility.yul\":3291:3298   */\n      0x00\n        /* \"#utility.yul\":3320:3344   */\n      tag_376\n        /* \"#utility.yul\":3338:3343   */\n      dup3\n        /* \"#utility.yul\":3320:3344   */\n      tag_277\n      jump\t// in\n    tag_376:\n        /* \"#utility.yul\":3309:3344   */\n      swap1\n      pop\n        /* \"#utility.yul\":3254:3350   */\n      swap2\n      swap1\n      pop\n      jump\t// out\n        /* \"#utility.yul\":3356:3474   */\n    tag_284:\n        /* \"#utility.yul\":3443:3467   */\n      tag_378\n        /* \"#utility.yul\":3461:3466   */\n      dup2\n        /* \"#utility.yul\":3443:3467   */\n      tag_283\n      jump\t// in\n    tag_378:\n        /* \"#utility.yul\":3438:3441   */\n      dup3\n        /* \"#utility.yul\":3431:3468   */\n      mstore\n        /* \"#utility.yul\":3356:3474   */\n      pop\n      pop\n      jump\t// out\n        /* \"#utility.yul\":3480:3702   */\n    tag_48:\n        /* \"#utility.yul\":3573:3577   */\n      0x00\n        /* \"#utility.yul\":3611:3613   */\n      0x20\n        /* \"#utility.yul\":3600:3609   */\n      dup3\n        /* \"#utility.yul\":3596:3614   */\n      add\n        /* \"#utility.yul\":3588:3614   */\n      swap1\n      pop\n        /* \"#utility.yul\":3624:3695   */\n      tag_380\n        /* \"#utility.yul\":3692:3693   */\n      0x00\n        /* \"#utility.yul\":3681:3690   */\n      dup4\n        /* \"#utility.yul\":3677:3694   */\n      add\n        /* \"#utility.yul\":3668:3674   */\n      dup5\n        /* \"#utility.yul\":3624:3695   */\n      tag_284\n      jump\t// in\n    tag_380:\n        /* \"#utility.yul\":3480:3702   */\n      swap3\n      swap2\n      pop\n      pop\n      jump\t// out\n        /* \"#utility.yul\":3708:3830   */\n    tag_285:\n        /* \"#utility.yul\":3781:3805   */\n      tag_382\n        /* \"#utility.yul\":3799:3804   */\n      dup2\n        /* \"#utility.yul\":3781:3805   */\n      tag_283\n      jump\t// in\n    tag_382:\n        /* \"#utility.yul\":3774:3779   */\n      dup2\n        /* \"#utility.yul\":3771:3806   */\n      eq\n        /* \"#utility.yul\":3761:3824   */\n      tag_383\n      jumpi\n        /* \"#utility.yul\":3820:3821   */\n      0x00\n        /* \"#utility.yul\":3817:3818   */\n      0x00\n        /* \"#utility.yul\":3810:3822   */\n      revert\n        /* \"#utility.yul\":3761:3824   */\n    tag_383:\n        /* \"#utility.yul\":3708:3830   */\n      pop\n      jump\t// out\n        /* \"#utility.yul\":3836:3975   */\n    tag_286:\n        /* \"#utility.yul\":3882:3887   */\n      0x00\n        /* \"#utility.yul\":3920:3926   */\n      dup2\n        /* \"#utility.yul\":3907:3927   */\n      calldataload\n        /* \"#utility.yul\":3898:3927   */\n      swap1\n      pop\n        /* \"#utility.yul\":3936:3969   */\n      tag_385\n        /* \"#utility.yul\":3963:3968   */\n      dup2\n        /* \"#utility.yul\":3936:3969   */\n      tag_285\n      jump\t// in\n    tag_385:\n        /* \"#utility.yul\":3836:3975   */\n      swap3\n      swap2\n      pop\n      pop\n      jump\t// out\n        /* \"#utility.yul\":3981:4310   */\n    tag_51:\n        /* \"#utility.yul\":4040:4046   */\n      0x00\n        /* \"#utility.yul\":4089:4091   */\n      0x20\n        /* \"#utility.yul\":4077:4086   */\n      dup3\n        /* \"#utility.yul\":4068:4075   */\n      dup5\n        /* \"#utility.yul\":4064:4087   */\n      sub\n        /* \"#utility.yul\":4060:4092   */\n      slt\n        /* \"#utility.yul\":4057:4176   */\n      iszero\n      tag_387\n      jumpi\n        /* \"#utility.yul\":4095:4174   */\n      tag_388\n      tag_267\n      jump\t// in\n    tag_388:\n        /* \"#utility.yul\":4057:4176   */\n    tag_387:\n        /* \"#utility.yul\":4215:4216   */\n      0x00\n        /* \"#utility.yul\":4240:4293   */\n      tag_389\n        /* \"#utility.yul\":4285:4292   */\n      dup5\n        /* \"#utility.yul\":4276:4282   */\n      dup3\n        /* \"#utility.yul\":4265:4274   */\n      dup6\n        /* \"#utility.yul\":4261:4283   */\n      add\n        /* \"#utility.yul\":4240:4293   */\n      tag_286\n      jump\t// in\n    tag_389:\n        /* \"#utility.yul\":4230:4293   */\n      swap2\n      pop\n        /* \"#utility.yul\":4186:4303   */\n      pop\n        /* \"#utility.yul\":3981:4310   */\n      swap3\n      swap2\n      pop\n      pop\n      jump\t// out\n        /* \"#utility.yul\":4316:4790   */\n    tag_55:\n        /* \"#utility.yul\":4384:4390   */\n      0x00\n        /* \"#utility.yul\":4392:4398   */\n      0x00\n        /* \"#utility.yul\":4441:4443   */\n      0x40\n        /* \"#utility.yul\":4429:4438   */\n      dup4\n        /* \"#utility.yul\":4420:4427   */\n      dup6\n        /* \"#utility.yul\":4416:4439   */\n      sub\n        /* \"#utility.yul\":4412:4444   */\n      slt\n        /* \"#utility.yul\":4409:4528   */\n      iszero\n      tag_391\n      jumpi\n        /* \"#utility.yul\":4447:4526   */\n      tag_392\n      tag_267\n      jump\t// in\n    tag_392:\n        /* \"#utility.yul\":4409:4528   */\n    tag_391:\n        /* \"#utility.yul\":4567:4568   */\n      0x00\n        /* \"#utility.yul\":4592:4645   */\n      tag_393\n        /* \"#utility.yul\":4637:4644   */\n      dup6\n        /* \"#utility.yul\":4628:4634   */\n      dup3\n        /* \"#utility.yul\":4617:4626   */\n      dup7\n        /* \"#utility.yul\":4613:4635   */\n      add\n        /* \"#utility.yul\":4592:4645   */\n      tag_276\n      jump\t// in\n    tag_393:\n        /* \"#utility.yul\":4582:4645   */\n      swap3\n      pop\n        /* \"#utility.yul\":4538:4655   */\n      pop\n        /* \"#utility.yul\":4694:4696   */\n      0x20\n        /* \"#utility.yul\":4720:4773   */\n      tag_394\n        /* \"#utility.yul\":4765:4772   */\n      dup6\n        /* \"#utility.yul\":4756:4762   */\n      dup3\n        /* \"#utility.yul\":4745:4754   */\n      dup7\n        /* \"#utility.yul\":4741:4763   */\n      add\n        /* \"#utility.yul\":4720:4773   */\n      tag_286\n      jump\t// in\n    tag_394:\n        /* \"#utility.yul\":4710:4773   */\n      swap2\n      pop\n        /* \"#utility.yul\":4665:4783   */\n      pop\n        /* \"#utility.yul\":4316:4790   */\n      swap3\n      pop\n      swap3\n      swap1\n      pop\n      jump\t// out\n        /* \"#utility.yul\":4796:4914   */\n    tag_287:\n        /* \"#utility.yul\":4883:4907   */\n      tag_396\n        /* \"#utility.yul\":4901:4906   */\n      dup2\n        /* \"#utility.yul\":4883:4907   */\n      tag_274\n      jump\t// in\n    tag_396:\n        /* \"#utility.yul\":4878:4881   */\n      dup3\n        /* \"#utility.yul\":4871:4908   */\n      mstore\n        /* \"#utility.yul\":4796:4914   */\n      pop\n      pop\n      jump\t// out\n        /* \"#utility.yul\":4920:5584   */\n    tag_58:\n        /* \"#utility.yul\":5125:5129   */\n      0x00\n        /* \"#utility.yul\":5163:5166   */\n      0xa0\n        /* \"#utility.yul\":5152:5161   */\n      dup3\n        /* \"#utility.yul\":5148:5167   */\n      add\n        /* \"#utility.yul\":5140:5167   */\n      swap1\n      pop\n        /* \"#utility.yul\":5177:5248   */\n      tag_398\n        /* \"#utility.yul\":5245:5246   */\n      0x00\n        /* \"#utility.yul\":5234:5243   */\n      dup4\n        /* \"#utility.yul\":5230:5247   */\n      add\n        /* \"#utility.yul\":5221:5227   */\n      dup9\n        /* \"#utility.yul\":5177:5248   */\n      tag_284\n      jump\t// in\n    tag_398:\n        /* \"#utility.yul\":5258:5330   */\n      tag_399\n        /* \"#utility.yul\":5326:5328   */\n      0x20\n        /* \"#utility.yul\":5315:5324   */\n      dup4\n        /* \"#utility.yul\":5311:5329   */\n      add\n        /* \"#utility.yul\":5302:5308   */\n      dup8\n        /* \"#utility.yul\":5258:5330   */\n      tag_287\n      jump\t// in\n    tag_399:\n        /* \"#utility.yul\":5340:5412   */\n      tag_400\n        /* \"#utility.yul\":5408:5410   */\n      0x40\n        /* \"#utility.yul\":5397:5406   */\n      dup4\n        /* \"#utility.yul\":5393:5411   */\n      add\n        /* \"#utility.yul\":5384:5390   */\n      dup7\n        /* \"#utility.yul\":5340:5412   */\n      tag_287\n      jump\t// in\n    tag_400:\n        /* \"#utility.yul\":5422:5494   */\n      tag_401\n        /* \"#utility.yul\":5490:5492   */\n      0x60\n        /* \"#utility.yul\":5479:5488   */\n      dup4\n        /* \"#utility.yul\":5475:5493   */\n      add\n        /* \"#utility.yul\":5466:5472   */\n      dup6\n        /* \"#utility.yul\":5422:5494   */\n      tag_287\n      jump\t// in\n    tag_401:\n        /* \"#utility.yul\":5504:5577   */\n      tag_402\n        /* \"#utility.yul\":5572:5575   */\n      0x80\n        /* \"#utility.yul\":5561:5570   */\n      dup4\n        /* \"#utility.yul\":5557:5576   */\n      add\n        /* \"#utility.yul\":5548:5554   */\n      dup5\n        /* \"#utility.yul\":5504:5577   */\n      tag_287\n      jump\t// in\n    tag_402:\n        /* \"#utility.yul\":4920:5584   */\n      swap7\n      swap6\n      pop\n      pop\n      pop\n      pop\n      pop\n      pop\n      jump\t// out\n        /* \"#utility.yul\":5590:6064   */\n    tag_61:\n        /* \"#utility.yul\":5658:5664   */\n      0x00\n        /* \"#utility.yul\":5666:5672   */\n      0x00\n        /* \"#utility.yul\":5715:5717   */\n      0x40\n        /* \"#utility.yul\":5703:5712   */\n      dup4\n        /* \"#utility.yul\":5694:5701   */\n      dup6\n        /* \"#utility.yul\":5690:5713   */\n      sub\n        /* \"#utility.yul\":5686:5718   */\n      slt\n        /* \"#utility.yul\":5683:5802   */\n      iszero\n      tag_404\n      jumpi\n        /* \"#utility.yul\":5721:5800   */\n      tag_405\n      tag_267\n      jump\t// in\n    tag_405:\n        /* \"#utility.yul\":5683:5802   */\n    tag_404:\n        /* \"#utility.yul\":5841:5842   */\n      0x00\n        /* \"#utility.yul\":5866:5919   */\n      tag_406\n        /* \"#utility.yul\":5911:5918   */\n      dup6\n        /* \"#utility.yul\":5902:5908   */\n      dup3\n        /* \"#utility.yul\":5891:5900   */\n      dup7\n        /* \"#utility.yul\":5887:5909   */\n      add\n        /* \"#utility.yul\":5866:5919   */\n      tag_286\n      jump\t// in\n    tag_406:\n        /* \"#utility.yul\":5856:5919   */\n      swap3\n      pop\n        /* \"#utility.yul\":5812:5929   */\n      pop\n        /* \"#utility.yul\":5968:5970   */\n      0x20\n        /* \"#utility.yul\":5994:6047   */\n      tag_407\n        /* \"#utility.yul\":6039:6046   */\n      dup6\n        /* \"#utility.yul\":6030:6036   */\n      dup3\n        /* \"#utility.yul\":6019:6028   */\n      dup7\n        /* \"#utility.yul\":6015:6037   */\n      add\n        /* \"#utility.yul\":5994:6047   */\n      tag_276\n      jump\t// in\n    tag_407:\n        /* \"#utility.yul\":5984:6047   */\n      swap2\n      pop\n        /* \"#utility.yul\":5939:6057   */\n      pop\n        /* \"#utility.yul\":5590:6064   */\n      swap3\n      pop\n      swap3\n      swap1\n      pop\n      jump\t// out\n        /* \"#utility.yul\":6070:6292   */\n    tag_66:\n        /* \"#utility.yul\":6163:6167   */\n      0x00\n        /* \"#utility.yul\":6201:6203   */\n      0x20\n        /* \"#utility.yul\":6190:6199   */\n      dup3\n        /* \"#utility.yul\":6186:6204   */\n      add\n        /* \"#utility.yul\":6178:6204   */\n      swap1\n      pop\n        /* \"#utility.yul\":6214:6285   */\n      tag_409\n        /* \"#utility.yul\":6282:6283   */\n      0x00\n        /* \"#utility.yul\":6271:6280   */\n      dup4\n        /* \"#utility.yul\":6267:6284   */\n      add\n        /* \"#utility.yul\":6258:6264   */\n      dup5\n        /* \"#utility.yul\":6214:6285   */\n      tag_287\n      jump\t// in\n    tag_409:\n        /* \"#utility.yul\":6070:6292   */\n      swap3\n      swap2\n      pop\n      pop\n      jump\t// out\n        /* \"#utility.yul\":6298:6415   */\n    tag_288:\n        /* \"#utility.yul\":6407:6408   */\n      0x00\n        /* \"#utility.yul\":6404:6405   */\n      0x00\n        /* \"#utility.yul\":6397:6409   */\n      revert\n        /* \"#utility.yul\":6421:6523   */\n    tag_289:\n        /* \"#utility.yul\":6462:6468   */\n      0x00\n        /* \"#utility.yul\":6513:6515   */\n      0x1f\n        /* \"#utility.yul\":6509:6516   */\n      not\n        /* \"#utility.yul\":6504:6506   */\n      0x1f\n        /* \"#utility.yul\":6497:6502   */\n      dup4\n        /* \"#utility.yul\":6493:6507   */\n      add\n        /* \"#utility.yul\":6489:6517   */\n      and\n        /* \"#utility.yul\":6479:6517   */\n      swap1\n      pop\n        /* \"#utility.yul\":6421:6523   */\n      swap2\n      swap1\n      pop\n      jump\t// out\n        /* \"#utility.yul\":6529:6709   */\n    tag_290:\n        /* \"#utility.yul\":6577:6654   */\n      0x4e487b7100000000000000000000000000000000000000000000000000000000\n        /* \"#utility.yul\":6574:6575   */\n      0x00\n        /* \"#utility.yul\":6567:6655   */\n      mstore\n        /* \"#utility.yul\":6674:6678   */\n      0x41\n        /* \"#utility.yul\":6671:6672   */\n      0x04\n        /* \"#utility.yul\":6664:6679   */\n      mstore\n        /* \"#utility.yul\":6698:6702   */\n      0x24\n        /* \"#utility.yul\":6695:6696   */\n      0x00\n        /* \"#utility.yul\":6688:6703   */\n      revert\n        /* \"#utility.yul\":6715:6996   */\n    tag_291:\n        /* \"#utility.yul\":6798:6825   */\n      tag_414\n        /* \"#utility.yul\":6820:6824   */\n      dup3\n        /* \"#utility.yul\":6798:6825   */\n      tag_289\n      jump\t// in\n    tag_414:\n        /* \"#utility.yul\":6790:6796   */\n      dup2\n        /* \"#utility.yul\":6786:6826   */\n      add\n        /* \"#utility.yul\":6928:6934   */\n      dup2\n        /* \"#utility.yul\":6916:6926   */\n      dup2\n        /* \"#utility.yul\":6913:6935   */\n      lt\n        /* \"#utility.yul\":6892:6910   */\n      0xffffffffffffffff\n        /* \"#utility.yul\":6880:6890   */\n      dup3\n        /* \"#utility.yul\":6877:6911   */\n      gt\n        /* \"#utility.yul\":6874:6936   */\n      or\n        /* \"#utility.yul\":6871:6959   */\n      iszero\n      tag_415\n      jumpi\n        /* \"#utility.yul\":6939:6957   */\n      tag_416\n      tag_290\n      jump\t// in\n    tag_416:\n        /* \"#utility.yul\":6871:6959   */\n    tag_415:\n        /* \"#utility.yul\":6979:6989   */\n      dup1\n        /* \"#utility.yul\":6975:6977   */\n      0x40\n        /* \"#utility.yul\":6968:6990   */\n      mstore\n        /* \"#utility.yul\":6758:6996   */\n      pop\n        /* \"#utility.yul\":6715:6996   */\n      pop\n      pop\n      jump\t// out\n        /* \"#utility.yul\":7002:7131   */\n    tag_292:\n        /* \"#utility.yul\":7036:7042   */\n      0x00\n        /* \"#utility.yul\":7063:7083   */\n      tag_418\n      tag_266\n      jump\t// in\n    tag_418:\n        /* \"#utility.yul\":7053:7083   */\n      swap1\n      pop\n        /* \"#utility.yul\":7092:7125   */\n      tag_419\n        /* \"#utility.yul\":7120:7124   */\n      dup3\n        /* \"#utility.yul\":7112:7118   */\n      dup3\n        /* \"#utility.yul\":7092:7125   */\n      tag_291\n      jump\t// in\n    tag_419:\n        /* \"#utility.yul\":7002:7131   */\n      swap2\n      swap1\n      pop\n      jump\t// out\n        /* \"#utility.yul\":7137:7448   */\n    tag_293:\n        /* \"#utility.yul\":7214:7218   */\n      0x00\n        /* \"#utility.yul\":7304:7322   */\n      0xffffffffffffffff\n        /* \"#utility.yul\":7296:7302   */\n      dup3\n        /* \"#utility.yul\":7293:7323   */\n      gt\n        /* \"#utility.yul\":7290:7346   */\n      iszero\n      tag_421\n      jumpi\n        /* \"#utility.yul\":7326:7344   */\n      tag_422\n      tag_290\n      jump\t// in\n    tag_422:\n        /* \"#utility.yul\":7290:7346   */\n    tag_421:\n        /* \"#utility.yul\":7376:7380   */\n      0x20\n        /* \"#utility.yul\":7368:7374   */\n      dup3\n        /* \"#utility.yul\":7364:7381   */\n      mul\n        /* \"#utility.yul\":7356:7381   */\n      swap1\n      pop\n        /* \"#utility.yul\":7436:7440   */\n      0x20\n        /* \"#utility.yul\":7430:7434   */\n      dup2\n        /* \"#utility.yul\":7426:7441   */\n      add\n        /* \"#utility.yul\":7418:7441   */\n      swap1\n      pop\n        /* \"#utility.yul\":7137:7448   */\n      swap2\n      swap1\n      pop\n      jump\t// out\n        /* \"#utility.yul\":7454:7571   */\n    tag_294:\n        /* \"#utility.yul\":7563:7564   */\n      0x00\n        /* \"#utility.yul\":7560:7561   */\n      0x00\n        /* \"#utility.yul\":7553:7565   */\n      revert\n        /* \"#utility.yul\":7594:8304   */\n    tag_295:\n        /* \"#utility.yul\":7690:7695   */\n      0x00\n        /* \"#utility.yul\":7715:7796   */\n      tag_425\n        /* \"#utility.yul\":7731:7795   */\n      tag_426\n        /* \"#utility.yul\":7788:7794   */\n      dup5\n        /* \"#utility.yul\":7731:7795   */\n      tag_293\n      jump\t// in\n    tag_426:\n        /* \"#utility.yul\":7715:7796   */\n      tag_292\n      jump\t// in\n    tag_425:\n        /* \"#utility.yul\":7706:7796   */\n      swap1\n      pop\n        /* \"#utility.yul\":7816:7821   */\n      dup1\n        /* \"#utility.yul\":7845:7851   */\n      dup4\n        /* \"#utility.yul\":7838:7843   */\n      dup3\n        /* \"#utility.yul\":7831:7852   */\n      mstore\n        /* \"#utility.yul\":7879:7883   */\n      0x20\n        /* \"#utility.yul\":7872:7877   */\n      dup3\n        /* \"#utility.yul\":7868:7884   */\n      add\n        /* \"#utility.yul\":7861:7884   */\n      swap1\n      pop\n        /* \"#utility.yul\":7932:7936   */\n      0x20\n        /* \"#utility.yul\":7924:7930   */\n      dup5\n        /* \"#utility.yul\":7920:7937   */\n      mul\n        /* \"#utility.yul\":7912:7918   */\n      dup4\n        /* \"#utility.yul\":7908:7938   */\n      add\n        /* \"#utility.yul\":7961:7964   */\n      dup6\n        /* \"#utility.yul\":7953:7959   */\n      dup2\n        /* \"#utility.yul\":7950:7965   */\n      gt\n        /* \"#utility.yul\":7947:8069   */\n      iszero\n      tag_427\n      jumpi\n        /* \"#utility.yul\":7980:8059   */\n      tag_428\n      tag_294\n      jump\t// in\n    tag_428:\n        /* \"#utility.yul\":7947:8069   */\n    tag_427:\n        /* \"#utility.yul\":8095:8101   */\n      dup4\n        /* \"#utility.yul\":8078:8298   */\n    tag_429:\n        /* \"#utility.yul\":8112:8118   */\n      dup2\n        /* \"#utility.yul\":8107:8110   */\n      dup2\n        /* \"#utility.yul\":8104:8119   */\n      lt\n        /* \"#utility.yul\":8078:8298   */\n      iszero\n      tag_431\n      jumpi\n        /* \"#utility.yul\":8187:8190   */\n      dup1\n        /* \"#utility.yul\":8216:8253   */\n      tag_432\n        /* \"#utility.yul\":8249:8252   */\n      dup9\n        /* \"#utility.yul\":8237:8247   */\n      dup3\n        /* \"#utility.yul\":8216:8253   */\n      tag_276\n      jump\t// in\n    tag_432:\n        /* \"#utility.yul\":8211:8214   */\n      dup5\n        /* \"#utility.yul\":8204:8254   */\n      mstore\n        /* \"#utility.yul\":8283:8287   */\n      0x20\n        /* \"#utility.yul\":8278:8281   */\n      dup5\n        /* \"#utility.yul\":8274:8288   */\n      add\n        /* \"#utility.yul\":8267:8288   */\n      swap4\n      pop\n        /* \"#utility.yul\":8154:8298   */\n      pop\n        /* \"#utility.yul\":8138:8142   */\n      0x20\n        /* \"#utility.yul\":8133:8136   */\n      dup2\n        /* \"#utility.yul\":8129:8143   */\n      add\n        /* \"#utility.yul\":8122:8143   */\n      swap1\n      pop\n        /* \"#utility.yul\":8078:8298   */\n      jump(tag_429)\n    tag_431:\n        /* \"#utility.yul\":8082:8103   */\n      pop\n        /* \"#utility.yul\":7696:8304   */\n      pop\n      pop\n        /* \"#utility.yul\":7594:8304   */\n      swap4\n      swap3\n      pop\n      pop\n      pop\n      jump\t// out\n        /* \"#utility.yul\":8327:8697   */\n    tag_296:\n        /* \"#utility.yul\":8398:8403   */\n      0x00\n        /* \"#utility.yul\":8447:8450   */\n      dup3\n        /* \"#utility.yul\":8440:8444   */\n      0x1f\n        /* \"#utility.yul\":8432:8438   */\n      dup4\n        /* \"#utility.yul\":8428:8445   */\n      add\n        /* \"#utility.yul\":8424:8451   */\n      slt\n        /* \"#utility.yul\":8414:8536   */\n      tag_434\n      jumpi\n        /* \"#utility.yul\":8455:8534   */\n      tag_435\n      tag_288\n      jump\t// in\n    tag_435:\n        /* \"#utility.yul\":8414:8536   */\n    tag_434:\n        /* \"#utility.yul\":8572:8578   */\n      dup2\n        /* \"#utility.yul\":8559:8579   */\n      calldataload\n        /* \"#utility.yul\":8597:8691   */\n      tag_436\n        /* \"#utility.yul\":8687:8690   */\n      dup5\n        /* \"#utility.yul\":8679:8685   */\n      dup3\n        /* \"#utility.yul\":8672:8676   */\n      0x20\n        /* \"#utility.yul\":8664:8670   */\n      dup7\n        /* \"#utility.yul\":8660:8677   */\n      add\n        /* \"#utility.yul\":8597:8691   */\n      tag_295\n      jump\t// in\n    tag_436:\n        /* \"#utility.yul\":8588:8691   */\n      swap2\n      pop\n        /* \"#utility.yul\":8404:8697   */\n      pop\n        /* \"#utility.yul\":8327:8697   */\n      swap3\n      swap2\n      pop\n      pop\n      jump\t// out\n        /* \"#utility.yul\":8703:8820   */\n    tag_297:\n        /* \"#utility.yul\":8812:8813   */\n      0x00\n        /* \"#utility.yul\":8809:8810   */\n      0x00\n        /* \"#utility.yul\":8802:8814   */\n      revert\n        /* \"#utility.yul\":8826:9133   */\n    tag_298:\n        /* \"#utility.yul\":8887:8891   */\n      0x00\n        /* \"#utility.yul\":8977:8995   */\n      0xffffffffffffffff\n        /* \"#utility.yul\":8969:8975   */\n      dup3\n        /* \"#utility.yul\":8966:8996   */\n      gt\n        /* \"#utility.yul\":8963:9019   */\n      iszero\n      tag_439\n      jumpi\n        /* \"#utility.yul\":8999:9017   */\n      tag_440\n      tag_290\n      jump\t// in\n    tag_440:\n        /* \"#utility.yul\":8963:9019   */\n    tag_439:\n        /* \"#utility.yul\":9037:9066   */\n      tag_441\n        /* \"#utility.yul\":9059:9065   */\n      dup3\n        /* \"#utility.yul\":9037:9066   */\n      tag_289\n      jump\t// in\n    tag_441:\n        /* \"#utility.yul\":9029:9066   */\n      swap1\n      pop\n        /* \"#utility.yul\":9121:9125   */\n      0x20\n        /* \"#utility.yul\":9115:9119   */\n      dup2\n        /* \"#utility.yul\":9111:9126   */\n      add\n        /* \"#utility.yul\":9103:9126   */\n      swap1\n      pop\n        /* \"#utility.yul\":8826:9133   */\n      swap2\n      swap1\n      pop\n      jump\t// out\n        /* \"#utility.yul\":9139:9287   */\n    tag_299:\n        /* \"#utility.yul\":9237:9243   */\n      dup3\n        /* \"#utility.yul\":9232:9235   */\n      dup2\n        /* \"#utility.yul\":9227:9230   */\n      dup4\n        /* \"#utility.yul\":9214:9244   */\n      calldatacopy\n        /* \"#utility.yul\":9278:9279   */\n      0x00\n        /* \"#utility.yul\":9269:9275   */\n      dup4\n        /* \"#utility.yul\":9264:9267   */\n      dup4\n        /* \"#utility.yul\":9260:9276   */\n      add\n        /* \"#utility.yul\":9253:9280   */\n      mstore\n        /* \"#utility.yul\":9139:9287   */\n      pop\n      pop\n      pop\n      jump\t// out\n        /* \"#utility.yul\":9293:9716   */\n    tag_300:\n        /* \"#utility.yul\":9370:9375   */\n      0x00\n        /* \"#utility.yul\":9395:9460   */\n      tag_444\n        /* \"#utility.yul\":9411:9459   */\n      tag_445\n        /* \"#utility.yul\":9452:9458   */\n      dup5\n        /* \"#utility.yul\":9411:9459   */\n      tag_298\n      jump\t// in\n    tag_445:\n        /* \"#utility.yul\":9395:9460   */\n      tag_292\n      jump\t// in\n    tag_444:\n        /* \"#utility.yul\":9386:9460   */\n      swap1\n      pop\n        /* \"#utility.yul\":9483:9489   */\n      dup3\n        /* \"#utility.yul\":9476:9481   */\n      dup2\n        /* \"#utility.yul\":9469:9490   */\n      mstore\n        /* \"#utility.yul\":9521:9525   */\n      0x20\n        /* \"#utility.yul\":9514:9519   */\n      dup2\n        /* \"#utility.yul\":9510:9526   */\n      add\n        /* \"#utility.yul\":9559:9562   */\n      dup5\n        /* \"#utility.yul\":9550:9556   */\n      dup5\n        /* \"#utility.yul\":9545:9548   */\n      dup5\n        /* \"#utility.yul\":9541:9557   */\n      add\n        /* \"#utility.yul\":9538:9563   */\n      gt\n        /* \"#utility.yul\":9535:9647   */\n      iszero\n      tag_446\n      jumpi\n        /* \"#utility.yul\":9566:9645   */\n      tag_447\n      tag_297\n      jump\t// in\n    tag_447:\n        /* \"#utility.yul\":9535:9647   */\n    tag_446:\n        /* \"#utility.yul\":9656:9710   */\n      tag_448\n        /* \"#utility.yul\":9703:9709   */\n      dup5\n        /* \"#utility.yul\":9698:9701   */\n      dup3\n        /* \"#utility.yul\":9693:9696   */\n      dup6\n        /* \"#utility.yul\":9656:9710   */\n      tag_299\n      jump\t// in\n    tag_448:\n        /* \"#utility.yul\":9376:9716   */\n      pop\n        /* \"#utility.yul\":9293:9716   */\n      swap4\n      swap3\n      pop\n      pop\n      pop\n      jump\t// out\n        /* \"#utility.yul\":9735:10073   */\n    tag_301:\n        /* \"#utility.yul\":9790:9795   */\n      0x00\n        /* \"#utility.yul\":9839:9842   */\n      dup3\n        /* \"#utility.yul\":9832:9836   */\n      0x1f\n        /* \"#utility.yul\":9824:9830   */\n      dup4\n        /* \"#utility.yul\":9820:9837   */\n      add\n        /* \"#utility.yul\":9816:9843   */\n      slt\n        /* \"#utility.yul\":9806:9928   */\n      tag_450\n      jumpi\n        /* \"#utility.yul\":9847:9926   */\n      tag_451\n      tag_288\n      jump\t// in\n    tag_451:\n        /* \"#utility.yul\":9806:9928   */\n    tag_450:\n        /* \"#utility.yul\":9964:9970   */\n      dup2\n        /* \"#utility.yul\":9951:9971   */\n      calldataload\n        /* \"#utility.yul\":9989:10067   */\n      tag_452\n        /* \"#utility.yul\":10063:10066   */\n      dup5\n        /* \"#utility.yul\":10055:10061   */\n      dup3\n        /* \"#utility.yul\":10048:10052   */\n      0x20\n        /* \"#utility.yul\":10040:10046   */\n      dup7\n        /* \"#utility.yul\":10036:10053   */\n      add\n        /* \"#utility.yul\":9989:10067   */\n      tag_300\n      jump\t// in\n    tag_452:\n        /* \"#utility.yul\":9980:10067   */\n      swap2\n      pop\n        /* \"#utility.yul\":9796:10073   */\n      pop\n        /* \"#utility.yul\":9735:10073   */\n      swap3\n      swap2\n      pop\n      pop\n      jump\t// out\n        /* \"#utility.yul\":10079:11588   */\n    tag_69:\n        /* \"#utility.yul\":10233:10239   */\n      0x00\n        /* \"#utility.yul\":10241:10247   */\n      0x00\n        /* \"#utility.yul\":10249:10255   */\n      0x00\n        /* \"#utility.yul\":10257:10263   */\n      0x00\n        /* \"#utility.yul\":10265:10271   */\n      0x00\n        /* \"#utility.yul\":10314:10317   */\n      0xa0\n        /* \"#utility.yul\":10302:10311   */\n      dup7\n        /* \"#utility.yul\":10293:10300   */\n      dup9\n        /* \"#utility.yul\":10289:10312   */\n      sub\n        /* \"#utility.yul\":10285:10318   */\n      slt\n        /* \"#utility.yul\":10282:10402   */\n      iszero\n      tag_454\n      jumpi\n        /* \"#utility.yul\":10321:10400   */\n      tag_455\n      tag_267\n      jump\t// in\n    tag_455:\n        /* \"#utility.yul\":10282:10402   */\n    tag_454:\n        /* \"#utility.yul\":10441:10442   */\n      0x00\n        /* \"#utility.yul\":10466:10519   */\n      tag_456\n        /* \"#utility.yul\":10511:10518   */\n      dup9\n        /* \"#utility.yul\":10502:10508   */\n      dup3\n        /* \"#utility.yul\":10491:10500   */\n      dup10\n        /* \"#utility.yul\":10487:10509   */\n      add\n        /* \"#utility.yul\":10466:10519   */\n      tag_286\n      jump\t// in\n    tag_456:\n        /* \"#utility.yul\":10456:10519   */\n      swap6\n      pop\n        /* \"#utility.yul\":10412:10529   */\n      pop\n        /* \"#utility.yul\":10568:10570   */\n      0x20\n        /* \"#utility.yul\":10594:10647   */\n      tag_457\n        /* \"#utility.yul\":10639:10646   */\n      dup9\n        /* \"#utility.yul\":10630:10636   */\n      dup3\n        /* \"#utility.yul\":10619:10628   */\n      dup10\n        /* \"#utility.yul\":10615:10637   */\n      add\n        /* \"#utility.yul\":10594:10647   */\n      tag_286\n      jump\t// in\n    tag_457:\n        /* \"#utility.yul\":10584:10647   */\n      swap5\n      pop\n        /* \"#utility.yul\":10539:10657   */\n      pop\n        /* \"#utility.yul\":10724:10726   */\n      0x40\n        /* \"#utility.yul\":10713:10722   */\n      dup7\n        /* \"#utility.yul\":10709:10727   */\n      add\n        /* \"#utility.yul\":10696:10728   */\n      calldataload\n        /* \"#utility.yul\":10755:10773   */\n      0xffffffffffffffff\n        /* \"#utility.yul\":10747:10753   */\n      dup2\n        /* \"#utility.yul\":10744:10774   */\n      gt\n        /* \"#utility.yul\":10741:10858   */\n      iszero\n      tag_458\n      jumpi\n        /* \"#utility.yul\":10777:10856   */\n      tag_459\n      tag_268\n      jump\t// in\n    tag_459:\n        /* \"#utility.yul\":10741:10858   */\n    tag_458:\n        /* \"#utility.yul\":10882:10960   */\n      tag_460\n        /* \"#utility.yul\":10952:10959   */\n      dup9\n        /* \"#utility.yul\":10943:10949   */\n      dup3\n        /* \"#utility.yul\":10932:10941   */\n      dup10\n        /* \"#utility.yul\":10928:10950   */\n      add\n        /* \"#utility.yul\":10882:10960   */\n      tag_296\n      jump\t// in\n    tag_460:\n        /* \"#utility.yul\":10872:10960   */\n      swap4\n      pop\n        /* \"#utility.yul\":10667:10970   */\n      pop\n        /* \"#utility.yul\":11037:11039   */\n      0x60\n        /* \"#utility.yul\":11026:11035   */\n      dup7\n        /* \"#utility.yul\":11022:11040   */\n      add\n        /* \"#utility.yul\":11009:11041   */\n      calldataload\n        /* \"#utility.yul\":11068:11086   */\n      0xffffffffffffffff\n        /* \"#utility.yul\":11060:11066   */\n      dup2\n        /* \"#utility.yul\":11057:11087   */\n      gt\n        /* \"#utility.yul\":11054:11171   */\n      iszero\n      tag_461\n      jumpi\n        /* \"#utility.yul\":11090:11169   */\n      tag_462\n      tag_268\n      jump\t// in\n    tag_462:\n        /* \"#utility.yul\":11054:11171   */\n    tag_461:\n        /* \"#utility.yul\":11195:11273   */\n      tag_463\n        /* \"#utility.yul\":11265:11272   */\n      dup9\n        /* \"#utility.yul\":11256:11262   */\n      dup3\n        /* \"#utility.yul\":11245:11254   */\n      dup10\n        /* \"#utility.yul\":11241:11263   */\n      add\n        /* \"#utility.yul\":11195:11273   */\n      tag_296\n      jump\t// in\n    tag_463:\n        /* \"#utility.yul\":11185:11273   */\n      swap3\n      pop\n        /* \"#utility.yul\":10980:11283   */\n      pop\n        /* \"#utility.yul\":11350:11353   */\n      0x80\n        /* \"#utility.yul\":11339:11348   */\n      dup7\n        /* \"#utility.yul\":11335:11354   */\n      add\n        /* \"#utility.yul\":11322:11355   */\n      calldataload\n        /* \"#utility.yul\":11382:11400   */\n      0xffffffffffffffff\n        /* \"#utility.yul\":11374:11380   */\n      dup2\n        /* \"#utility.yul\":11371:11401   */\n      gt\n        /* \"#utility.yul\":11368:11485   */\n      iszero\n      tag_464\n      jumpi\n        /* \"#utility.yul\":11404:11483   */\n      tag_465\n      tag_268\n      jump\t// in\n    tag_465:\n        /* \"#utility.yul\":11368:11485   */\n    tag_464:\n        /* \"#utility.yul\":11509:11571   */\n      tag_466\n        /* \"#utility.yul\":11563:11570   */\n      dup9\n        /* \"#utility.yul\":11554:11560   */\n      dup3\n        /* \"#utility.yul\":11543:11552   */\n      dup10\n        /* \"#utility.yul\":11539:11561   */\n      add\n        /* \"#utility.yul\":11509:11571   */\n      tag_301\n      jump\t// in\n    tag_466:\n        /* \"#utility.yul\":11499:11571   */\n      swap2\n      pop\n        /* \"#utility.yul\":11293:11581   */\n      pop\n        /* \"#utility.yul\":10079:11588   */\n      swap3\n      swap6\n      pop\n      swap3\n      swap6\n      swap1\n      swap4\n      pop\n      jump\t// out\n        /* \"#utility.yul\":11594:11709   */\n    tag_302:\n        /* \"#utility.yul\":11679:11702   */\n      tag_468\n        /* \"#utility.yul\":11696:11701   */\n      dup2\n        /* \"#utility.yul\":11679:11702   */\n      tag_269\n      jump\t// in\n    tag_468:\n        /* \"#utility.yul\":11674:11677   */\n      dup3\n        /* \"#utility.yul\":11667:11703   */\n      mstore\n        /* \"#utility.yul\":11594:11709   */\n      pop\n      pop\n      jump\t// out\n        /* \"#utility.yul\":11715:11933   */\n    tag_72:\n        /* \"#utility.yul\":11806:11810   */\n      0x00\n        /* \"#utility.yul\":11844:11846   */\n      0x20\n        /* \"#utility.yul\":11833:11842   */\n      dup3\n        /* \"#utility.yul\":11829:11847   */\n      add\n        /* \"#utility.yul\":11821:11847   */\n      swap1\n      pop\n        /* \"#utility.yul\":11857:11926   */\n      tag_470\n        /* \"#utility.yul\":11923:11924   */\n      0x00\n        /* \"#utility.yul\":11912:11921   */\n      dup4\n        /* \"#utility.yul\":11908:11925   */\n      add\n        /* \"#utility.yul\":11899:11905   */\n      dup5\n        /* \"#utility.yul\":11857:11926   */\n      tag_302\n      jump\t// in\n    tag_470:\n        /* \"#utility.yul\":11715:11933   */\n      swap3\n      swap2\n      pop\n      pop\n      jump\t// out\n        /* \"#utility.yul\":11939:12081   */\n    tag_303:\n        /* \"#utility.yul\":12005:12014   */\n      0x00\n        /* \"#utility.yul\":12038:12075   */\n      tag_472\n        /* \"#utility.yul\":12069:12074   */\n      dup3\n        /* \"#utility.yul\":12038:12075   */\n      tag_280\n      jump\t// in\n    tag_472:\n        /* \"#utility.yul\":12025:12075   */\n      swap1\n      pop\n        /* \"#utility.yul\":11939:12081   */\n      swap2\n      swap1\n      pop\n      jump\t// out\n        /* \"#utility.yul\":12087:12250   */\n    tag_304:\n        /* \"#utility.yul\":12190:12243   */\n      tag_474\n        /* \"#utility.yul\":12237:12242   */\n      dup2\n        /* \"#utility.yul\":12190:12243   */\n      tag_303\n      jump\t// in\n    tag_474:\n        /* \"#utility.yul\":12185:12188   */\n      dup3\n        /* \"#utility.yul\":12178:12244   */\n      mstore\n        /* \"#utility.yul\":12087:12250   */\n      pop\n      pop\n      jump\t// out\n        /* \"#utility.yul\":12256:12510   */\n    tag_82:\n        /* \"#utility.yul\":12365:12369   */\n      0x00\n        /* \"#utility.yul\":12403:12405   */\n      0x20\n        /* \"#utility.yul\":12392:12401   */\n      dup3\n        /* \"#utility.yul\":12388:12406   */\n      add\n        /* \"#utility.yul\":12380:12406   */\n      swap1\n      pop\n        /* \"#utility.yul\":12416:12503   */\n      tag_476\n        /* \"#utility.yul\":12500:12501   */\n      0x00\n        /* \"#utility.yul\":12489:12498   */\n      dup4\n        /* \"#utility.yul\":12485:12502   */\n      add\n        /* \"#utility.yul\":12476:12482   */\n      dup5\n        /* \"#utility.yul\":12416:12503   */\n      tag_304\n      jump\t// in\n    tag_476:\n        /* \"#utility.yul\":12256:12510   */\n      swap3\n      swap2\n      pop\n      pop\n      jump\t// out\n        /* \"#utility.yul\":12516:13135   */\n    tag_91:\n        /* \"#utility.yul\":12593:12599   */\n      0x00\n        /* \"#utility.yul\":12601:12607   */\n      0x00\n        /* \"#utility.yul\":12609:12615   */\n      0x00\n        /* \"#utility.yul\":12658:12660   */\n      0x60\n        /* \"#utility.yul\":12646:12655   */\n      dup5\n        /* \"#utility.yul\":12637:12644   */\n      dup7\n        /* \"#utility.yul\":12633:12656   */\n      sub\n        /* \"#utility.yul\":12629:12661   */\n      slt\n        /* \"#utility.yul\":12626:12745   */\n      iszero\n      tag_478\n      jumpi\n        /* \"#utility.yul\":12664:12743   */\n      tag_479\n      tag_267\n      jump\t// in\n    tag_479:\n        /* \"#utility.yul\":12626:12745   */\n    tag_478:\n        /* \"#utility.yul\":12784:12785   */\n      0x00\n        /* \"#utility.yul\":12809:12862   */\n      tag_480\n        /* \"#utility.yul\":12854:12861   */\n      dup7\n        /* \"#utility.yul\":12845:12851   */\n      dup3\n        /* \"#utility.yul\":12834:12843   */\n      dup8\n        /* \"#utility.yul\":12830:12852   */\n      add\n        /* \"#utility.yul\":12809:12862   */\n      tag_276\n      jump\t// in\n    tag_480:\n        /* \"#utility.yul\":12799:12862   */\n      swap4\n      pop\n        /* \"#utility.yul\":12755:12872   */\n      pop\n        /* \"#utility.yul\":12911:12913   */\n      0x20\n        /* \"#utility.yul\":12937:12990   */\n      tag_481\n        /* \"#utility.yul\":12982:12989   */\n      dup7\n        /* \"#utility.yul\":12973:12979   */\n      dup3\n        /* \"#utility.yul\":12962:12971   */\n      dup8\n        /* \"#utility.yul\":12958:12980   */\n      add\n        /* \"#utility.yul\":12937:12990   */\n      tag_276\n      jump\t// in\n    tag_481:\n        /* \"#utility.yul\":12927:12990   */\n      swap3\n      pop\n        /* \"#utility.yul\":12882:13000   */\n      pop\n        /* \"#utility.yul\":13039:13041   */\n      0x40\n        /* \"#utility.yul\":13065:13118   */\n      tag_482\n        /* \"#utility.yul\":13110:13117   */\n      dup7\n        /* \"#utility.yul\":13101:13107   */\n      dup3\n        /* \"#utility.yul\":13090:13099   */\n      dup8\n        /* \"#utility.yul\":13086:13108   */\n      add\n        /* \"#utility.yul\":13065:13118   */\n      tag_276\n      jump\t// in\n    tag_482:\n        /* \"#utility.yul\":13055:13118   */\n      swap2\n      pop\n        /* \"#utility.yul\":13010:13128   */\n      pop\n        /* \"#utility.yul\":12516:13135   */\n      swap3\n      pop\n      swap3\n      pop\n      swap3\n      jump\t// out\n        /* \"#utility.yul\":13141:14230   */\n    tag_95:\n        /* \"#utility.yul\":13245:13251   */\n      0x00\n        /* \"#utility.yul\":13253:13259   */\n      0x00\n        /* \"#utility.yul\":13261:13267   */\n      0x00\n        /* \"#utility.yul\":13269:13275   */\n      0x00\n        /* \"#utility.yul\":13277:13283   */\n      0x00\n        /* \"#utility.yul\":13326:13329   */\n      0xa0\n        /* \"#utility.yul\":13314:13323   */\n      dup7\n        /* \"#utility.yul\":13305:13312   */\n      dup9\n        /* \"#utility.yul\":13301:13324   */\n      sub\n        /* \"#utility.yul\":13297:13330   */\n      slt\n        /* \"#utility.yul\":13294:13414   */\n      iszero\n      tag_484\n      jumpi\n        /* \"#utility.yul\":13333:13412   */\n      tag_485\n      tag_267\n      jump\t// in\n    tag_485:\n        /* \"#utility.yul\":13294:13414   */\n    tag_484:\n        /* \"#utility.yul\":13453:13454   */\n      0x00\n        /* \"#utility.yul\":13478:13531   */\n      tag_486\n        /* \"#utility.yul\":13523:13530   */\n      dup9\n        /* \"#utility.yul\":13514:13520   */\n      dup3\n        /* \"#utility.yul\":13503:13512   */\n      dup10\n        /* \"#utility.yul\":13499:13521   */\n      add\n        /* \"#utility.yul\":13478:13531   */\n      tag_286\n      jump\t// in\n    tag_486:\n        /* \"#utility.yul\":13468:13531   */\n      swap6\n      pop\n        /* \"#utility.yul\":13424:13541   */\n      pop\n        /* \"#utility.yul\":13580:13582   */\n      0x20\n        /* \"#utility.yul\":13606:13659   */\n      tag_487\n        /* \"#utility.yul\":13651:13658   */\n      dup9\n        /* \"#utility.yul\":13642:13648   */\n      dup3\n        /* \"#utility.yul\":13631:13640   */\n      dup10\n        /* \"#utility.yul\":13627:13649   */\n      add\n        /* \"#utility.yul\":13606:13659   */\n      tag_286\n      jump\t// in\n    tag_487:\n        /* \"#utility.yul\":13596:13659   */\n      swap5\n      pop\n        /* \"#utility.yul\":13551:13669   */\n      pop\n        /* \"#utility.yul\":13708:13710   */\n      0x40\n        /* \"#utility.yul\":13734:13787   */\n      tag_488\n        /* \"#utility.yul\":13779:13786   */\n      dup9\n        /* \"#utility.yul\":13770:13776   */\n      dup3\n        /* \"#utility.yul\":13759:13768   */\n      dup10\n        /* \"#utility.yul\":13755:13777   */\n      add\n        /* \"#utility.yul\":13734:13787   */\n      tag_276\n      jump\t// in\n    tag_488:\n        /* \"#utility.yul\":13724:13787   */\n      swap4\n      pop\n        /* \"#utility.yul\":13679:13797   */\n      pop\n        /* \"#utility.yul\":13836:13838   */\n      0x60\n        /* \"#utility.yul\":13862:13915   */\n      tag_489\n        /* \"#utility.yul\":13907:13914   */\n      dup9\n        /* \"#utility.yul\":13898:13904   */\n      dup3\n        /* \"#utility.yul\":13887:13896   */\n      dup10\n        /* \"#utility.yul\":13883:13905   */\n      add\n        /* \"#utility.yul\":13862:13915   */\n      tag_276\n      jump\t// in\n    tag_489:\n        /* \"#utility.yul\":13852:13915   */\n      swap3\n      pop\n        /* \"#utility.yul\":13807:13925   */\n      pop\n        /* \"#utility.yul\":13992:13995   */\n      0x80\n        /* \"#utility.yul\":13981:13990   */\n      dup7\n        /* \"#utility.yul\":13977:13996   */\n      add\n        /* \"#utility.yul\":13964:13997   */\n      calldataload\n        /* \"#utility.yul\":14024:14042   */\n      0xffffffffffffffff\n        /* \"#utility.yul\":14016:14022   */\n      dup2\n        /* \"#utility.yul\":14013:14043   */\n      gt\n        /* \"#utility.yul\":14010:14127   */\n      iszero\n      tag_490\n      jumpi\n        /* \"#utility.yul\":14046:14125   */\n      tag_491\n      tag_268\n      jump\t// in\n    tag_491:\n        /* \"#utility.yul\":14010:14127   */\n    tag_490:\n        /* \"#utility.yul\":14151:14213   */\n      tag_492\n        /* \"#utility.yul\":14205:14212   */\n      dup9\n        /* \"#utility.yul\":14196:14202   */\n      dup3\n        /* \"#utility.yul\":14185:14194   */\n      dup10\n        /* \"#utility.yul\":14181:14203   */\n      add\n        /* \"#utility.yul\":14151:14213   */\n      tag_301\n      jump\t// in\n    tag_492:\n        /* \"#utility.yul\":14141:14213   */\n      swap2\n      pop\n        /* \"#utility.yul\":13935:14223   */\n      pop\n        /* \"#utility.yul\":13141:14230   */\n      swap3\n      swap6\n      pop\n      swap3\n      swap6\n      swap1\n      swap4\n      pop\n      jump\t// out\n        /* \"#utility.yul\":14236:14855   */\n    tag_106:\n        /* \"#utility.yul\":14313:14319   */\n      0x00\n        /* \"#utility.yul\":14321:14327   */\n      0x00\n        /* \"#utility.yul\":14329:14335   */\n      0x00\n        /* \"#utility.yul\":14378:14380   */\n      0x60\n        /* \"#utility.yul\":14366:14375   */\n      dup5\n        /* \"#utility.yul\":14357:14364   */\n      dup7\n        /* \"#utility.yul\":14353:14376   */\n      sub\n        /* \"#utility.yul\":14349:14381   */\n      slt\n        /* \"#utility.yul\":14346:14465   */\n      iszero\n      tag_494\n      jumpi\n        /* \"#utility.yul\":14384:14463   */\n      tag_495\n      tag_267\n      jump\t// in\n    tag_495:\n        /* \"#utility.yul\":14346:14465   */\n    tag_494:\n        /* \"#utility.yul\":14504:14505   */\n      0x00\n        /* \"#utility.yul\":14529:14582   */\n      tag_496\n        /* \"#utility.yul\":14574:14581   */\n      dup7\n        /* \"#utility.yul\":14565:14571   */\n      dup3\n        /* \"#utility.yul\":14554:14563   */\n      dup8\n        /* \"#utility.yul\":14550:14572   */\n      add\n        /* \"#utility.yul\":14529:14582   */\n      tag_286\n      jump\t// in\n    tag_496:\n        /* \"#utility.yul\":14519:14582   */\n      swap4\n      pop\n        /* \"#utility.yul\":14475:14592   */\n      pop\n        /* \"#utility.yul\":14631:14633   */\n      0x20\n        /* \"#utility.yul\":14657:14710   */\n      tag_497\n        /* \"#utility.yul\":14702:14709   */\n      dup7\n        /* \"#utility.yul\":14693:14699   */\n      dup3\n        /* \"#utility.yul\":14682:14691   */\n      dup8\n        /* \"#utility.yul\":14678:14700   */\n      add\n        /* \"#utility.yul\":14657:14710   */\n      tag_276\n      jump\t// in\n    tag_497:\n        /* \"#utility.yul\":14647:14710   */\n      swap3\n      pop\n        /* \"#utility.yul\":14602:14720   */\n      pop\n        /* \"#utility.yul\":14759:14761   */\n      0x40\n        /* \"#utility.yul\":14785:14838   */\n      tag_498\n        /* \"#utility.yul\":14830:14837   */\n      dup7\n        /* \"#utility.yul\":14821:14827   */\n      dup3\n        /* \"#utility.yul\":14810:14819   */\n      dup8\n        /* \"#utility.yul\":14806:14828   */\n      add\n        /* \"#utility.yul\":14785:14838   */\n      tag_276\n      jump\t// in\n    tag_498:\n        /* \"#utility.yul\":14775:14838   */\n      swap2\n      pop\n        /* \"#utility.yul\":14730:14848   */\n      pop\n        /* \"#utility.yul\":14236:14855   */\n      swap3\n      pop\n      swap3\n      pop\n      swap3\n      jump\t// out\n        /* \"#utility.yul\":14861:15030   */\n    tag_305:\n        /* \"#utility.yul\":14945:14956   */\n      0x00\n        /* \"#utility.yul\":14979:14985   */\n      dup3\n        /* \"#utility.yul\":14974:14977   */\n      dup3\n        /* \"#utility.yul\":14967:14986   */\n      mstore\n        /* \"#utility.yul\":15019:15023   */\n      0x20\n        /* \"#utility.yul\":15014:15017   */\n      dup3\n        /* \"#utility.yul\":15010:15024   */\n      add\n        /* \"#utility.yul\":14995:15024   */\n      swap1\n      pop\n        /* \"#utility.yul\":14861:15030   */\n      swap3\n      swap2\n      pop\n      pop\n      jump\t// out\n        /* \"#utility.yul\":15036:15203   */\n    tag_306:\n        /* \"#utility.yul\":15176:15195   */\n      0x4e6f20616374697665206c697374696e67000000000000000000000000000000\n        /* \"#utility.yul\":15172:15173   */\n      0x00\n        /* \"#utility.yul\":15164:15170   */\n      dup3\n        /* \"#utility.yul\":15160:15174   */\n      add\n        /* \"#utility.yul\":15153:15196   */\n      mstore\n        /* \"#utility.yul\":15036:15203   */\n      pop\n      jump\t// out\n        /* \"#utility.yul\":15209:15575   */\n    tag_307:\n        /* \"#utility.yul\":15351:15354   */\n      0x00\n        /* \"#utility.yul\":15372:15439   */\n      tag_502\n        /* \"#utility.yul\":15436:15438   */\n      0x11\n        /* \"#utility.yul\":15431:15434   */\n      dup4\n        /* \"#utility.yul\":15372:15439   */\n      tag_305\n      jump\t// in\n    tag_502:\n        /* \"#utility.yul\":15365:15439   */\n      swap2\n      pop\n        /* \"#utility.yul\":15448:15541   */\n      tag_503\n        /* \"#utility.yul\":15537:15540   */\n      dup3\n        /* \"#utility.yul\":15448:15541   */\n      tag_306\n      jump\t// in\n    tag_503:\n        /* \"#utility.yul\":15566:15568   */\n      0x20\n        /* \"#utility.yul\":15561:15564   */\n      dup3\n        /* \"#utility.yul\":15557:15569   */\n      add\n        /* \"#utility.yul\":15550:15569   */\n      swap1\n      pop\n        /* \"#utility.yul\":15209:15575   */\n      swap2\n      swap1\n      pop\n      jump\t// out\n        /* \"#utility.yul\":15581:16000   */\n    tag_118:\n        /* \"#utility.yul\":15747:15751   */\n      0x00\n        /* \"#utility.yul\":15785:15787   */\n      0x20\n        /* \"#utility.yul\":15774:15783   */\n      dup3\n        /* \"#utility.yul\":15770:15788   */\n      add\n        /* \"#utility.yul\":15762:15788   */\n      swap1\n      pop\n        /* \"#utility.yul\":15834:15843   */\n      dup2\n        /* \"#utility.yul\":15828:15832   */\n      dup2\n        /* \"#utility.yul\":15824:15844   */\n      sub\n        /* \"#utility.yul\":15820:15821   */\n      0x00\n        /* \"#utility.yul\":15809:15818   */\n      dup4\n        /* \"#utility.yul\":15805:15822   */\n      add\n        /* \"#utility.yul\":15798:15845   */\n      mstore\n        /* \"#utility.yul\":15862:15993   */\n      tag_505\n        /* \"#utility.yul\":15988:15992   */\n      dup2\n        /* \"#utility.yul\":15862:15993   */\n      tag_307\n      jump\t// in\n    tag_505:\n        /* \"#utility.yul\":15854:15993   */\n      swap1\n      pop\n        /* \"#utility.yul\":15581:16000   */\n      swap2\n      swap1\n      pop\n      jump\t// out\n        /* \"#utility.yul\":16006:16186   */\n    tag_308:\n        /* \"#utility.yul\":16054:16131   */\n      0x4e487b7100000000000000000000000000000000000000000000000000000000\n        /* \"#utility.yul\":16051:16052   */\n      0x00\n        /* \"#utility.yul\":16044:16132   */\n      mstore\n        /* \"#utility.yul\":16151:16155   */\n      0x11\n        /* \"#utility.yul\":16148:16149   */\n      0x04\n        /* \"#utility.yul\":16141:16156   */\n      mstore\n        /* \"#utility.yul\":16175:16179   */\n      0x24\n        /* \"#utility.yul\":16172:16173   */\n      0x00\n        /* \"#utility.yul\":16165:16180   */\n      revert\n        /* \"#utility.yul\":16192:16602   */\n    tag_120:\n        /* \"#utility.yul\":16232:16239   */\n      0x00\n        /* \"#utility.yul\":16255:16275   */\n      tag_508\n        /* \"#utility.yul\":16273:16274   */\n      dup3\n        /* \"#utility.yul\":16255:16275   */\n      tag_274\n      jump\t// in\n    tag_508:\n        /* \"#utility.yul\":16250:16275   */\n      swap2\n      pop\n        /* \"#utility.yul\":16289:16309   */\n      tag_509\n        /* \"#utility.yul\":16307:16308   */\n      dup4\n        /* \"#utility.yul\":16289:16309   */\n      tag_274\n      jump\t// in\n    tag_509:\n        /* \"#utility.yul\":16284:16309   */\n      swap3\n      pop\n        /* \"#utility.yul\":16344:16345   */\n      dup3\n        /* \"#utility.yul\":16341:16342   */\n      dup3\n        /* \"#utility.yul\":16337:16346   */\n      mul\n        /* \"#utility.yul\":16366:16396   */\n      tag_510\n        /* \"#utility.yul\":16384:16395   */\n      dup2\n        /* \"#utility.yul\":16366:16396   */\n      tag_274\n      jump\t// in\n    tag_510:\n        /* \"#utility.yul\":16355:16396   */\n      swap2\n      pop\n        /* \"#utility.yul\":16545:16546   */\n      dup3\n        /* \"#utility.yul\":16536:16543   */\n      dup3\n        /* \"#utility.yul\":16532:16547   */\n      div\n        /* \"#utility.yul\":16529:16530   */\n      dup5\n        /* \"#utility.yul\":16526:16548   */\n      eq\n        /* \"#utility.yul\":16506:16507   */\n      dup4\n        /* \"#utility.yul\":16499:16508   */\n      iszero\n        /* \"#utility.yul\":16479:16562   */\n      or\n        /* \"#utility.yul\":16456:16595   */\n      tag_511\n      jumpi\n        /* \"#utility.yul\":16575:16593   */\n      tag_512\n      tag_308\n      jump\t// in\n    tag_512:\n        /* \"#utility.yul\":16456:16595   */\n    tag_511:\n        /* \"#utility.yul\":16240:16602   */\n      pop\n        /* \"#utility.yul\":16192:16602   */\n      swap3\n      swap2\n      pop\n      pop\n      jump\t// out\n        /* \"#utility.yul\":16608:16788   */\n    tag_309:\n        /* \"#utility.yul\":16656:16733   */\n      0x4e487b7100000000000000000000000000000000000000000000000000000000\n        /* \"#utility.yul\":16653:16654   */\n      0x00\n        /* \"#utility.yul\":16646:16734   */\n      mstore\n        /* \"#utility.yul\":16753:16757   */\n      0x12\n        /* \"#utility.yul\":16750:16751   */\n      0x04\n        /* \"#utility.yul\":16743:16758   */\n      mstore\n        /* \"#utility.yul\":16777:16781   */\n      0x24\n        /* \"#utility.yul\":16774:16775   */\n      0x00\n        /* \"#utility.yul\":16767:16782   */\n      revert\n        /* \"#utility.yul\":16794:16979   */\n    tag_123:\n        /* \"#utility.yul\":16834:16835   */\n      0x00\n        /* \"#utility.yul\":16851:16871   */\n      tag_515\n        /* \"#utility.yul\":16869:16870   */\n      dup3\n        /* \"#utility.yul\":16851:16871   */\n      tag_274\n      jump\t// in\n    tag_515:\n        /* \"#utility.yul\":16846:16871   */\n      swap2\n      pop\n        /* \"#utility.yul\":16885:16905   */\n      tag_516\n        /* \"#utility.yul\":16903:16904   */\n      dup4\n        /* \"#utility.yul\":16885:16905   */\n      tag_274\n      jump\t// in\n    tag_516:\n        /* \"#utility.yul\":16880:16905   */\n      swap3\n      pop\n        /* \"#utility.yul\":16924:16925   */\n      dup3\n        /* \"#utility.yul\":16914:16949   */\n      tag_517\n      jumpi\n        /* \"#utility.yul\":16929:16947   */\n      tag_518\n      tag_309\n      jump\t// in\n    tag_518:\n        /* \"#utility.yul\":16914:16949   */\n    tag_517:\n        /* \"#utility.yul\":16971:16972   */\n      dup3\n        /* \"#utility.yul\":16968:16969   */\n      dup3\n        /* \"#utility.yul\":16964:16973   */\n      div\n        /* \"#utility.yul\":16959:16973   */\n      swap1\n      pop\n        /* \"#utility.yul\":16794:16979   */\n      swap3\n      swap2\n      pop\n      pop\n      jump\t// out\n        /* \"#utility.yul\":16985:17153   */\n    tag_310:\n        /* \"#utility.yul\":17068:17079   */\n      0x00\n        /* \"#utility.yul\":17102:17108   */\n      dup3\n        /* \"#utility.yul\":17097:17100   */\n      dup3\n        /* \"#utility.yul\":17090:17109   */\n      mstore\n        /* \"#utility.yul\":17142:17146   */\n      0x20\n        /* \"#utility.yul\":17137:17140   */\n      dup3\n        /* \"#utility.yul\":17133:17147   */\n      add\n        /* \"#utility.yul\":17118:17147   */\n      swap1\n      pop\n        /* \"#utility.yul\":16985:17153   */\n      swap3\n      swap2\n      pop\n      pop\n      jump\t// out\n        /* \"#utility.yul\":17159:17273   */\n    tag_311:\n      pop\n      jump\t// out\n        /* \"#utility.yul\":17279:17641   */\n    tag_312:\n        /* \"#utility.yul\":17420:17423   */\n      0x00\n        /* \"#utility.yul\":17441:17506   */\n      tag_522\n        /* \"#utility.yul\":17504:17505   */\n      0x00\n        /* \"#utility.yul\":17499:17502   */\n      dup4\n        /* \"#utility.yul\":17441:17506   */\n      tag_310\n      jump\t// in\n    tag_522:\n        /* \"#utility.yul\":17434:17506   */\n      swap2\n      pop\n        /* \"#utility.yul\":17515:17608   */\n      tag_523\n        /* \"#utility.yul\":17604:17607   */\n      dup3\n        /* \"#utility.yul\":17515:17608   */\n      tag_311\n      jump\t// in\n    tag_523:\n        /* \"#utility.yul\":17633:17634   */\n      0x00\n        /* \"#utility.yul\":17628:17631   */\n      dup3\n        /* \"#utility.yul\":17624:17635   */\n      add\n        /* \"#utility.yul\":17617:17635   */\n      swap1\n      pop\n        /* \"#utility.yul\":17279:17641   */\n      swap2\n      swap1\n      pop\n      jump\t// out\n        /* \"#utility.yul\":17647:18506   */\n    tag_125:\n        /* \"#utility.yul\":17924:17928   */\n      0x00\n        /* \"#utility.yul\":17962:17965   */\n      0xa0\n        /* \"#utility.yul\":17951:17960   */\n      dup3\n        /* \"#utility.yul\":17947:17966   */\n      add\n        /* \"#utility.yul\":17939:17966   */\n      swap1\n      pop\n        /* \"#utility.yul\":17976:18047   */\n      tag_525\n        /* \"#utility.yul\":18044:18045   */\n      0x00\n        /* \"#utility.yul\":18033:18042   */\n      dup4\n        /* \"#utility.yul\":18029:18046   */\n      add\n        /* \"#utility.yul\":18020:18026   */\n      dup8\n        /* \"#utility.yul\":17976:18047   */\n      tag_284\n      jump\t// in\n    tag_525:\n        /* \"#utility.yul\":18057:18129   */\n      tag_526\n        /* \"#utility.yul\":18125:18127   */\n      0x20\n        /* \"#utility.yul\":18114:18123   */\n      dup4\n        /* \"#utility.yul\":18110:18128   */\n      add\n        /* \"#utility.yul\":18101:18107   */\n      dup7\n        /* \"#utility.yul\":18057:18129   */\n      tag_284\n      jump\t// in\n    tag_526:\n        /* \"#utility.yul\":18139:18211   */\n      tag_527\n        /* \"#utility.yul\":18207:18209   */\n      0x40\n        /* \"#utility.yul\":18196:18205   */\n      dup4\n        /* \"#utility.yul\":18192:18210   */\n      add\n        /* \"#utility.yul\":18183:18189   */\n      dup6\n        /* \"#utility.yul\":18139:18211   */\n      tag_287\n      jump\t// in\n    tag_527:\n        /* \"#utility.yul\":18221:18293   */\n      tag_528\n        /* \"#utility.yul\":18289:18291   */\n      0x60\n        /* \"#utility.yul\":18278:18287   */\n      dup4\n        /* \"#utility.yul\":18274:18292   */\n      add\n        /* \"#utility.yul\":18265:18271   */\n      dup5\n        /* \"#utility.yul\":18221:18293   */\n      tag_287\n      jump\t// in\n    tag_528:\n        /* \"#utility.yul\":18341:18350   */\n      dup2\n        /* \"#utility.yul\":18335:18339   */\n      dup2\n        /* \"#utility.yul\":18331:18351   */\n      sub\n        /* \"#utility.yul\":18325:18328   */\n      0x80\n        /* \"#utility.yul\":18314:18323   */\n      dup4\n        /* \"#utility.yul\":18310:18329   */\n      add\n        /* \"#utility.yul\":18303:18352   */\n      mstore\n        /* \"#utility.yul\":18369:18499   */\n      tag_529\n        /* \"#utility.yul\":18494:18498   */\n      dup2\n        /* \"#utility.yul\":18369:18499   */\n      tag_312\n      jump\t// in\n    tag_529:\n        /* \"#utility.yul\":18361:18499   */\n      swap1\n      pop\n        /* \"#utility.yul\":17647:18506   */\n      swap6\n      swap5\n      pop\n      pop\n      pop\n      pop\n      pop\n      jump\t// out\n        /* \"#utility.yul\":18512:18676   */\n    tag_313:\n        /* \"#utility.yul\":18652:18668   */\n      0x496e76616c69642077616c6c6574000000000000000000000000000000000000\n        /* \"#utility.yul\":18648:18649   */\n      0x00\n        /* \"#utility.yul\":18640:18646   */\n      dup3\n        /* \"#utility.yul\":18636:18650   */\n      add\n        /* \"#utility.yul\":18629:18669   */\n      mstore\n        /* \"#utility.yul\":18512:18676   */\n      pop\n      jump\t// out\n        /* \"#utility.yul\":18682:19048   */\n    tag_314:\n        /* \"#utility.yul\":18824:18827   */\n      0x00\n        /* \"#utility.yul\":18845:18912   */\n      tag_532\n        /* \"#utility.yul\":18909:18911   */\n      0x0e\n        /* \"#utility.yul\":18904:18907   */\n      dup4\n        /* \"#utility.yul\":18845:18912   */\n      tag_305\n      jump\t// in\n    tag_532:\n        /* \"#utility.yul\":18838:18912   */\n      swap2\n      pop\n        /* \"#utility.yul\":18921:19014   */\n      tag_533\n        /* \"#utility.yul\":19010:19013   */\n      dup3\n        /* \"#utility.yul\":18921:19014   */\n      tag_313\n      jump\t// in\n    tag_533:\n        /* \"#utility.yul\":19039:19041   */\n      0x20\n        /* \"#utility.yul\":19034:19037   */\n      dup3\n        /* \"#utility.yul\":19030:19042   */\n      add\n        /* \"#utility.yul\":19023:19042   */\n      swap1\n      pop\n        /* \"#utility.yul\":18682:19048   */\n      swap2\n      swap1\n      pop\n      jump\t// out\n        /* \"#utility.yul\":19054:19473   */\n    tag_154:\n        /* \"#utility.yul\":19220:19224   */\n      0x00\n        /* \"#utility.yul\":19258:19260   */\n      0x20\n        /* \"#utility.yul\":19247:19256   */\n      dup3\n        /* \"#utility.yul\":19243:19261   */\n      add\n        /* \"#utility.yul\":19235:19261   */\n      swap1\n      pop\n        /* \"#utility.yul\":19307:19316   */\n      dup2\n        /* \"#utility.yul\":19301:19305   */\n      dup2\n        /* \"#utility.yul\":19297:19317   */\n      sub\n        /* \"#utility.yul\":19293:19294   */\n      0x00\n        /* \"#utility.yul\":19282:19291   */\n      dup4\n        /* \"#utility.yul\":19278:19295   */\n      add\n        /* \"#utility.yul\":19271:19318   */\n      mstore\n        /* \"#utility.yul\":19335:19466   */\n      tag_535\n        /* \"#utility.yul\":19461:19465   */\n      dup2\n        /* \"#utility.yul\":19335:19466   */\n      tag_314\n      jump\t// in\n    tag_535:\n        /* \"#utility.yul\":19327:19466   */\n      swap1\n      pop\n        /* \"#utility.yul\":19054:19473   */\n      swap2\n      swap1\n      pop\n      jump\t// out\n        /* \"#utility.yul\":19479:19645   */\n    tag_315:\n        /* \"#utility.yul\":19619:19637   */\n      0x416d6f756e7420746f6f20736d616c6c00000000000000000000000000000000\n        /* \"#utility.yul\":19615:19616   */\n      0x00\n        /* \"#utility.yul\":19607:19613   */\n      dup3\n        /* \"#utility.yul\":19603:19617   */\n      add\n        /* \"#utility.yul\":19596:19638   */\n      mstore\n        /* \"#utility.yul\":19479:19645   */\n      pop\n      jump\t// out\n        /* \"#utility.yul\":19651:20017   */\n    tag_316:\n        /* \"#utility.yul\":19793:19796   */\n      0x00\n        /* \"#utility.yul\":19814:19881   */\n      tag_538\n        /* \"#utility.yul\":19878:19880   */\n      0x10\n        /* \"#utility.yul\":19873:19876   */\n      dup4\n        /* \"#utility.yul\":19814:19881   */\n      tag_305\n      jump\t// in\n    tag_538:\n        /* \"#utility.yul\":19807:19881   */\n      swap2\n      pop\n        /* \"#utility.yul\":19890:19983   */\n      tag_539\n        /* \"#utility.yul\":19979:19982   */\n      dup3\n        /* \"#utility.yul\":19890:19983   */\n      tag_315\n      jump\t// in\n    tag_539:\n        /* \"#utility.yul\":20008:20010   */\n      0x20\n        /* \"#utility.yul\":20003:20006   */\n      dup3\n        /* \"#utility.yul\":19999:20011   */\n      add\n        /* \"#utility.yul\":19992:20011   */\n      swap1\n      pop\n        /* \"#utility.yul\":19651:20017   */\n      swap2\n      swap1\n      pop\n      jump\t// out\n        /* \"#utility.yul\":20023:20442   */\n    tag_168:\n        /* \"#utility.yul\":20189:20193   */\n      0x00\n        /* \"#utility.yul\":20227:20229   */\n      0x20\n        /* \"#utility.yul\":20216:20225   */\n      dup3\n        /* \"#utility.yul\":20212:20230   */\n      add\n        /* \"#utility.yul\":20204:20230   */\n      swap1\n      pop\n        /* \"#utility.yul\":20276:20285   */\n      dup2\n        /* \"#utility.yul\":20270:20274   */\n      dup2\n        /* \"#utility.yul\":20266:20286   */\n      sub\n        /* \"#utility.yul\":20262:20263   */\n      0x00\n        /* \"#utility.yul\":20251:20260   */\n      dup4\n        /* \"#utility.yul\":20247:20264   */\n      add\n        /* \"#utility.yul\":20240:20287   */\n      mstore\n        /* \"#utility.yul\":20304:20435   */\n      tag_541\n        /* \"#utility.yul\":20430:20434   */\n      dup2\n        /* \"#utility.yul\":20304:20435   */\n      tag_316\n      jump\t// in\n    tag_541:\n        /* \"#utility.yul\":20296:20435   */\n      swap1\n      pop\n        /* \"#utility.yul\":20023:20442   */\n      swap2\n      swap1\n      pop\n      jump\t// out\n        /* \"#utility.yul\":20448:20611   */\n    tag_317:\n        /* \"#utility.yul\":20588:20603   */\n      0x507269636520746f6f206c6f7700000000000000000000000000000000000000\n        /* \"#utility.yul\":20584:20585   */\n      0x00\n        /* \"#utility.yul\":20576:20582   */\n      dup3\n        /* \"#utility.yul\":20572:20586   */\n      add\n        /* \"#utility.yul\":20565:20604   */\n      mstore\n        /* \"#utility.yul\":20448:20611   */\n      pop\n      jump\t// out\n        /* \"#utility.yul\":20617:20983   */\n    tag_318:\n        /* \"#utility.yul\":20759:20762   */\n      0x00\n        /* \"#utility.yul\":20780:20847   */\n      tag_544\n        /* \"#utility.yul\":20844:20846   */\n      0x0d\n        /* \"#utility.yul\":20839:20842   */\n      dup4\n        /* \"#utility.yul\":20780:20847   */\n      tag_305\n      jump\t// in\n    tag_544:\n        /* \"#utility.yul\":20773:20847   */\n      swap2\n      pop\n        /* \"#utility.yul\":20856:20949   */\n      tag_545\n        /* \"#utility.yul\":20945:20948   */\n      dup3\n        /* \"#utility.yul\":20856:20949   */\n      tag_317\n      jump\t// in\n    tag_545:\n        /* \"#utility.yul\":20974:20976   */\n      0x20\n        /* \"#utility.yul\":20969:20972   */\n      dup3\n        /* \"#utility.yul\":20965:20977   */\n      add\n        /* \"#utility.yul\":20958:20977   */\n      swap1\n      pop\n        /* \"#utility.yul\":20617:20983   */\n      swap2\n      swap1\n      pop\n      jump\t// out\n        /* \"#utility.yul\":20989:21408   */\n    tag_171:\n        /* \"#utility.yul\":21155:21159   */\n      0x00\n        /* \"#utility.yul\":21193:21195   */\n      0x20\n        /* \"#utility.yul\":21182:21191   */\n      dup3\n        /* \"#utility.yul\":21178:21196   */\n      add\n        /* \"#utility.yul\":21170:21196   */\n      swap1\n      pop\n        /* \"#utility.yul\":21242:21251   */\n      dup2\n        /* \"#utility.yul\":21236:21240   */\n      dup2\n        /* \"#utility.yul\":21232:21252   */\n      sub\n        /* \"#utility.yul\":21228:21229   */\n      0x00\n        /* \"#utility.yul\":21217:21226   */\n      dup4\n        /* \"#utility.yul\":21213:21230   */\n      add\n        /* \"#utility.yul\":21206:21253   */\n      mstore\n        /* \"#utility.yul\":21270:21401   */\n      tag_547\n        /* \"#utility.yul\":21396:21400   */\n      dup2\n        /* \"#utility.yul\":21270:21401   */\n      tag_318\n      jump\t// in\n    tag_547:\n        /* \"#utility.yul\":21262:21401   */\n      swap1\n      pop\n        /* \"#utility.yul\":20989:21408   */\n      swap2\n      swap1\n      pop\n      jump\t// out\n        /* \"#utility.yul\":21414:21746   */\n    tag_173:\n        /* \"#utility.yul\":21535:21539   */\n      0x00\n        /* \"#utility.yul\":21573:21575   */\n      0x40\n        /* \"#utility.yul\":21562:21571   */\n      dup3\n        /* \"#utility.yul\":21558:21576   */\n      add\n        /* \"#utility.yul\":21550:21576   */\n      swap1\n      pop\n        /* \"#utility.yul\":21586:21657   */\n      tag_549\n        /* \"#utility.yul\":21654:21655   */\n      0x00\n        /* \"#utility.yul\":21643:21652   */\n      dup4\n        /* \"#utility.yul\":21639:21656   */\n      add\n        /* \"#utility.yul\":21630:21636   */\n      dup6\n        /* \"#utility.yul\":21586:21657   */\n      tag_284\n      jump\t// in\n    tag_549:\n        /* \"#utility.yul\":21667:21739   */\n      tag_550\n        /* \"#utility.yul\":21735:21737   */\n      0x20\n        /* \"#utility.yul\":21724:21733   */\n      dup4\n        /* \"#utility.yul\":21720:21738   */\n      add\n        /* \"#utility.yul\":21711:21717   */\n      dup5\n        /* \"#utility.yul\":21667:21739   */\n      tag_287\n      jump\t// in\n    tag_550:\n        /* \"#utility.yul\":21414:21746   */\n      swap4\n      swap3\n      pop\n      pop\n      pop\n      jump\t// out\n        /* \"#utility.yul\":21752:21895   */\n    tag_319:\n        /* \"#utility.yul\":21809:21814   */\n      0x00\n        /* \"#utility.yul\":21840:21846   */\n      dup2\n        /* \"#utility.yul\":21834:21847   */\n      mload\n        /* \"#utility.yul\":21825:21847   */\n      swap1\n      pop\n        /* \"#utility.yul\":21856:21889   */\n      tag_552\n        /* \"#utility.yul\":21883:21888   */\n      dup2\n        /* \"#utility.yul\":21856:21889   */\n      tag_275\n      jump\t// in\n    tag_552:\n        /* \"#utility.yul\":21752:21895   */\n      swap3\n      swap2\n      pop\n      pop\n      jump\t// out\n        /* \"#utility.yul\":21901:22252   */\n    tag_177:\n        /* \"#utility.yul\":21971:21977   */\n      0x00\n        /* \"#utility.yul\":22020:22022   */\n      0x20\n        /* \"#utility.yul\":22008:22017   */\n      dup3\n        /* \"#utility.yul\":21999:22006   */\n      dup5\n        /* \"#utility.yul\":21995:22018   */\n      sub\n        /* \"#utility.yul\":21991:22023   */\n      slt\n        /* \"#utility.yul\":21988:22107   */\n      iszero\n      tag_554\n      jumpi\n        /* \"#utility.yul\":22026:22105   */\n      tag_555\n      tag_267\n      jump\t// in\n    tag_555:\n        /* \"#utility.yul\":21988:22107   */\n    tag_554:\n        /* \"#utility.yul\":22146:22147   */\n      0x00\n        /* \"#utility.yul\":22171:22235   */\n      tag_556\n        /* \"#utility.yul\":22227:22234   */\n      dup5\n        /* \"#utility.yul\":22218:22224   */\n      dup3\n        /* \"#utility.yul\":22207:22216   */\n      dup6\n        /* \"#utility.yul\":22203:22225   */\n      add\n        /* \"#utility.yul\":22171:22235   */\n      tag_319\n      jump\t// in\n    tag_556:\n        /* \"#utility.yul\":22161:22235   */\n      swap2\n      pop\n        /* \"#utility.yul\":22117:22245   */\n      pop\n        /* \"#utility.yul\":21901:22252   */\n      swap3\n      swap2\n      pop\n      pop\n      jump\t// out\n        /* \"#utility.yul\":22258:22432   */\n    tag_320:\n        /* \"#utility.yul\":22398:22424   */\n      0x496e73756666696369656e74204e46542062616c616e63650000000000000000\n        /* \"#utility.yul\":22394:22395   */\n      0x00\n        /* \"#utility.yul\":22386:22392   */\n      dup3\n        /* \"#utility.yul\":22382:22396   */\n      add\n        /* \"#utility.yul\":22375:22425   */\n      mstore\n        /* \"#utility.yul\":22258:22432   */\n      pop\n      jump\t// out\n        /* \"#utility.yul\":22438:22804   */\n    tag_321:\n        /* \"#utility.yul\":22580:22583   */\n      0x00\n        /* \"#utility.yul\":22601:22668   */\n      tag_559\n        /* \"#utility.yul\":22665:22667   */\n      0x18\n        /* \"#utility.yul\":22660:22663   */\n      dup4\n        /* \"#utility.yul\":22601:22668   */\n      tag_305\n      jump\t// in\n    tag_559:\n        /* \"#utility.yul\":22594:22668   */\n      swap2\n      pop\n        /* \"#utility.yul\":22677:22770   */\n      tag_560\n        /* \"#utility.yul\":22766:22769   */\n      dup3\n        /* \"#utility.yul\":22677:22770   */\n      tag_320\n      jump\t// in\n    tag_560:\n        /* \"#utility.yul\":22795:22797   */\n      0x20\n        /* \"#utility.yul\":22790:22793   */\n      dup3\n        /* \"#utility.yul\":22786:22798   */\n      add\n        /* \"#utility.yul\":22779:22798   */\n      swap1\n      pop\n        /* \"#utility.yul\":22438:22804   */\n      swap2\n      swap1\n      pop\n      jump\t// out\n        /* \"#utility.yul\":22810:23229   */\n    tag_180:\n        /* \"#utility.yul\":22976:22980   */\n      0x00\n        /* \"#utility.yul\":23014:23016   */\n      0x20\n        /* \"#utility.yul\":23003:23012   */\n      dup3\n        /* \"#utility.yul\":22999:23017   */\n      add\n        /* \"#utility.yul\":22991:23017   */\n      swap1\n      pop\n        /* \"#utility.yul\":23063:23072   */\n      dup2\n        /* \"#utility.yul\":23057:23061   */\n      dup2\n        /* \"#utility.yul\":23053:23073   */\n      sub\n        /* \"#utility.yul\":23049:23050   */\n      0x00\n        /* \"#utility.yul\":23038:23047   */\n      dup4\n        /* \"#utility.yul\":23034:23051   */\n      add\n        /* \"#utility.yul\":23027:23074   */\n      mstore\n        /* \"#utility.yul\":23091:23222   */\n      tag_562\n        /* \"#utility.yul\":23217:23221   */\n      dup2\n        /* \"#utility.yul\":23091:23222   */\n      tag_321\n      jump\t// in\n    tag_562:\n        /* \"#utility.yul\":23083:23222   */\n      swap1\n      pop\n        /* \"#utility.yul\":22810:23229   */\n      swap2\n      swap1\n      pop\n      jump\t// out\n        /* \"#utility.yul\":23235:23567   */\n    tag_182:\n        /* \"#utility.yul\":23356:23360   */\n      0x00\n        /* \"#utility.yul\":23394:23396   */\n      0x40\n        /* \"#utility.yul\":23383:23392   */\n      dup3\n        /* \"#utility.yul\":23379:23397   */\n      add\n        /* \"#utility.yul\":23371:23397   */\n      swap1\n      pop\n        /* \"#utility.yul\":23407:23478   */\n      tag_564\n        /* \"#utility.yul\":23475:23476   */\n      0x00\n        /* \"#utility.yul\":23464:23473   */\n      dup4\n        /* \"#utility.yul\":23460:23477   */\n      add\n        /* \"#utility.yul\":23451:23457   */\n      dup6\n        /* \"#utility.yul\":23407:23478   */\n      tag_284\n      jump\t// in\n    tag_564:\n        /* \"#utility.yul\":23488:23560   */\n      tag_565\n        /* \"#utility.yul\":23556:23558   */\n      0x20\n        /* \"#utility.yul\":23545:23554   */\n      dup4\n        /* \"#utility.yul\":23541:23559   */\n      add\n        /* \"#utility.yul\":23532:23538   */\n      dup5\n        /* \"#utility.yul\":23488:23560   */\n      tag_284\n      jump\t// in\n    tag_565:\n        /* \"#utility.yul\":23235:23567   */\n      swap4\n      swap3\n      pop\n      pop\n      pop\n      jump\t// out\n        /* \"#utility.yul\":23573:23689   */\n    tag_322:\n        /* \"#utility.yul\":23643:23664   */\n      tag_567\n        /* \"#utility.yul\":23658:23663   */\n      dup2\n        /* \"#utility.yul\":23643:23664   */\n      tag_272\n      jump\t// in\n    tag_567:\n        /* \"#utility.yul\":23636:23641   */\n      dup2\n        /* \"#utility.yul\":23633:23665   */\n      eq\n        /* \"#utility.yul\":23623:23683   */\n      tag_568\n      jumpi\n        /* \"#utility.yul\":23679:23680   */\n      0x00\n        /* \"#utility.yul\":23676:23677   */\n      0x00\n        /* \"#utility.yul\":23669:23681   */\n      revert\n        /* \"#utility.yul\":23623:23683   */\n    tag_568:\n        /* \"#utility.yul\":23573:23689   */\n      pop\n      jump\t// out\n        /* \"#utility.yul\":23695:23832   */\n    tag_323:\n        /* \"#utility.yul\":23749:23754   */\n      0x00\n        /* \"#utility.yul\":23780:23786   */\n      dup2\n        /* \"#utility.yul\":23774:23787   */\n      mload\n        /* \"#utility.yul\":23765:23787   */\n      swap1\n      pop\n        /* \"#utility.yul\":23796:23826   */\n      tag_570\n        /* \"#utility.yul\":23820:23825   */\n      dup2\n        /* \"#utility.yul\":23796:23826   */\n      tag_322\n      jump\t// in\n    tag_570:\n        /* \"#utility.yul\":23695:23832   */\n      swap3\n      swap2\n      pop\n      pop\n      jump\t// out\n        /* \"#utility.yul\":23838:24183   */\n    tag_186:\n        /* \"#utility.yul\":23905:23911   */\n      0x00\n        /* \"#utility.yul\":23954:23956   */\n      0x20\n        /* \"#utility.yul\":23942:23951   */\n      dup3\n        /* \"#utility.yul\":23933:23940   */\n      dup5\n        /* \"#utility.yul\":23929:23952   */\n      sub\n        /* \"#utility.yul\":23925:23957   */\n      slt\n        /* \"#utility.yul\":23922:24041   */\n      iszero\n      tag_572\n      jumpi\n        /* \"#utility.yul\":23960:24039   */\n      tag_573\n      tag_267\n      jump\t// in\n    tag_573:\n        /* \"#utility.yul\":23922:24041   */\n    tag_572:\n        /* \"#utility.yul\":24080:24081   */\n      0x00\n        /* \"#utility.yul\":24105:24166   */\n      tag_574\n        /* \"#utility.yul\":24158:24165   */\n      dup5\n        /* \"#utility.yul\":24149:24155   */\n      dup3\n        /* \"#utility.yul\":24138:24147   */\n      dup6\n        /* \"#utility.yul\":24134:24156   */\n      add\n        /* \"#utility.yul\":24105:24166   */\n      tag_323\n      jump\t// in\n    tag_574:\n        /* \"#utility.yul\":24095:24166   */\n      swap2\n      pop\n        /* \"#utility.yul\":24051:24176   */\n      pop\n        /* \"#utility.yul\":23838:24183   */\n      swap3\n      swap2\n      pop\n      pop\n      jump\t// out\n        /* \"#utility.yul\":24189:24363   */\n    tag_324:\n        /* \"#utility.yul\":24329:24355   */\n      0x4d61726b6574706c616365206e6f7420617070726f7665640000000000000000\n        /* \"#utility.yul\":24325:24326   */\n      0x00\n        /* \"#utility.yul\":24317:24323   */\n      dup3\n        /* \"#utility.yul\":24313:24327   */\n      add\n        /* \"#utility.yul\":24306:24356   */\n      mstore\n        /* \"#utility.yul\":24189:24363   */\n      pop\n      jump\t// out\n        /* \"#utility.yul\":24369:24735   */\n    tag_325:\n        /* \"#utility.yul\":24511:24514   */\n      0x00\n        /* \"#utility.yul\":24532:24599   */\n      tag_577\n        /* \"#utility.yul\":24596:24598   */\n      0x18\n        /* \"#utility.yul\":24591:24594   */\n      dup4\n        /* \"#utility.yul\":24532:24599   */\n      tag_305\n      jump\t// in\n    tag_577:\n        /* \"#utility.yul\":24525:24599   */\n      swap2\n      pop\n        /* \"#utility.yul\":24608:24701   */\n      tag_578\n        /* \"#utility.yul\":24697:24700   */\n      dup3\n        /* \"#utility.yul\":24608:24701   */\n      tag_324\n      jump\t// in\n    tag_578:\n        /* \"#utility.yul\":24726:24728   */\n      0x20\n        /* \"#utility.yul\":24721:24724   */\n      dup3\n        /* \"#utility.yul\":24717:24729   */\n      add\n        /* \"#utility.yul\":24710:24729   */\n      swap1\n      pop\n        /* \"#utility.yul\":24369:24735   */\n      swap2\n      swap1\n      pop\n      jump\t// out\n        /* \"#utility.yul\":24741:25160   */\n    tag_189:\n        /* \"#utility.yul\":24907:24911   */\n      0x00\n        /* \"#utility.yul\":24945:24947   */\n      0x20\n        /* \"#utility.yul\":24934:24943   */\n      dup3\n        /* \"#utility.yul\":24930:24948   */\n      add\n        /* \"#utility.yul\":24922:24948   */\n      swap1\n      pop\n        /* \"#utility.yul\":24994:25003   */\n      dup2\n        /* \"#utility.yul\":24988:24992   */\n      dup2\n        /* \"#utility.yul\":24984:25004   */\n      sub\n        /* \"#utility.yul\":24980:24981   */\n      0x00\n        /* \"#utility.yul\":24969:24978   */\n      dup4\n        /* \"#utility.yul\":24965:24982   */\n      add\n        /* \"#utility.yul\":24958:25005   */\n      mstore\n        /* \"#utility.yul\":25022:25153   */\n      tag_580\n        /* \"#utility.yul\":25148:25152   */\n      dup2\n        /* \"#utility.yul\":25022:25153   */\n      tag_325\n      jump\t// in\n    tag_580:\n        /* \"#utility.yul\":25014:25153   */\n      swap1\n      pop\n        /* \"#utility.yul\":24741:25160   */\n      swap2\n      swap1\n      pop\n      jump\t// out\n        /* \"#utility.yul\":25166:25608   */\n    tag_199:\n        /* \"#utility.yul\":25315:25319   */\n      0x00\n        /* \"#utility.yul\":25353:25355   */\n      0x60\n        /* \"#utility.yul\":25342:25351   */\n      dup3\n        /* \"#utility.yul\":25338:25356   */\n      add\n        /* \"#utility.yul\":25330:25356   */\n      swap1\n      pop\n        /* \"#utility.yul\":25366:25437   */\n      tag_582\n        /* \"#utility.yul\":25434:25435   */\n      0x00\n        /* \"#utility.yul\":25423:25432   */\n      dup4\n        /* \"#utility.yul\":25419:25436   */\n      add\n        /* \"#utility.yul\":25410:25416   */\n      dup7\n        /* \"#utility.yul\":25366:25437   */\n      tag_287\n      jump\t// in\n    tag_582:\n        /* \"#utility.yul\":25447:25519   */\n      tag_583\n        /* \"#utility.yul\":25515:25517   */\n      0x20\n        /* \"#utility.yul\":25504:25513   */\n      dup4\n        /* \"#utility.yul\":25500:25518   */\n      add\n        /* \"#utility.yul\":25491:25497   */\n      dup6\n        /* \"#utility.yul\":25447:25519   */\n      tag_287\n      jump\t// in\n    tag_583:\n        /* \"#utility.yul\":25529:25601   */\n      tag_584\n        /* \"#utility.yul\":25597:25599   */\n      0x40\n        /* \"#utility.yul\":25586:25595   */\n      dup4\n        /* \"#utility.yul\":25582:25600   */\n      add\n        /* \"#utility.yul\":25573:25579   */\n      dup5\n        /* \"#utility.yul\":25529:25601   */\n      tag_287\n      jump\t// in\n    tag_584:\n        /* \"#utility.yul\":25166:25608   */\n      swap5\n      swap4\n      pop\n      pop\n      pop\n      pop\n      jump\t// out\n        /* \"#utility.yul\":25614:25790   */\n    tag_326:\n        /* \"#utility.yul\":25754:25782   */\n      0x496e73756666696369656e7420616d6f756e74206c6973746564000000000000\n        /* \"#utility.yul\":25750:25751   */\n      0x00\n        /* \"#utility.yul\":25742:25748   */\n      dup3\n        /* \"#utility.yul\":25738:25752   */\n      add\n        /* \"#utility.yul\":25731:25783   */\n      mstore\n        /* \"#utility.yul\":25614:25790   */\n      pop\n      jump\t// out\n        /* \"#utility.yul\":25796:26162   */\n    tag_327:\n        /* \"#utility.yul\":25938:25941   */\n      0x00\n        /* \"#utility.yul\":25959:26026   */\n      tag_587\n        /* \"#utility.yul\":26023:26025   */\n      0x1a\n        /* \"#utility.yul\":26018:26021   */\n      dup4\n        /* \"#utility.yul\":25959:26026   */\n      tag_305\n      jump\t// in\n    tag_587:\n        /* \"#utility.yul\":25952:26026   */\n      swap2\n      pop\n        /* \"#utility.yul\":26035:26128   */\n      tag_588\n        /* \"#utility.yul\":26124:26127   */\n      dup3\n        /* \"#utility.yul\":26035:26128   */\n      tag_326\n      jump\t// in\n    tag_588:\n        /* \"#utility.yul\":26153:26155   */\n      0x20\n        /* \"#utility.yul\":26148:26151   */\n      dup3\n        /* \"#utility.yul\":26144:26156   */\n      add\n        /* \"#utility.yul\":26137:26156   */\n      swap1\n      pop\n        /* \"#utility.yul\":25796:26162   */\n      swap2\n      swap1\n      pop\n      jump\t// out\n        /* \"#utility.yul\":26168:26587   */\n    tag_211:\n        /* \"#utility.yul\":26334:26338   */\n      0x00\n        /* \"#utility.yul\":26372:26374   */\n      0x20\n        /* \"#utility.yul\":26361:26370   */\n      dup3\n        /* \"#utility.yul\":26357:26375   */\n      add\n        /* \"#utility.yul\":26349:26375   */\n      swap1\n      pop\n        /* \"#utility.yul\":26421:26430   */\n      dup2\n        /* \"#utility.yul\":26415:26419   */\n      dup2\n        /* \"#utility.yul\":26411:26431   */\n      sub\n        /* \"#utility.yul\":26407:26408   */\n      0x00\n        /* \"#utility.yul\":26396:26405   */\n      dup4\n        /* \"#utility.yul\":26392:26409   */\n      add\n        /* \"#utility.yul\":26385:26432   */\n      mstore\n        /* \"#utility.yul\":26449:26580   */\n      tag_590\n        /* \"#utility.yul\":26575:26579   */\n      dup2\n        /* \"#utility.yul\":26449:26580   */\n      tag_327\n      jump\t// in\n    tag_590:\n        /* \"#utility.yul\":26441:26580   */\n      swap1\n      pop\n        /* \"#utility.yul\":26168:26587   */\n      swap2\n      swap1\n      pop\n      jump\t// out\n        /* \"#utility.yul\":26593:26770   */\n    tag_328:\n        /* \"#utility.yul\":26733:26762   */\n      0x4e4654206e6f7420617661696c61626c6520696e20657363726f770000000000\n        /* \"#utility.yul\":26729:26730   */\n      0x00\n        /* \"#utility.yul\":26721:26727   */\n      dup3\n        /* \"#utility.yul\":26717:26731   */\n      add\n        /* \"#utility.yul\":26710:26763   */\n      mstore\n        /* \"#utility.yul\":26593:26770   */\n      pop\n      jump\t// out\n        /* \"#utility.yul\":26776:27142   */\n    tag_329:\n        /* \"#utility.yul\":26918:26921   */\n      0x00\n        /* \"#utility.yul\":26939:27006   */\n      tag_593\n        /* \"#utility.yul\":27003:27005   */\n      0x1b\n        /* \"#utility.yul\":26998:27001   */\n      dup4\n        /* \"#utility.yul\":26939:27006   */\n      tag_305\n      jump\t// in\n    tag_593:\n        /* \"#utility.yul\":26932:27006   */\n      swap2\n      pop\n        /* \"#utility.yul\":27015:27108   */\n      tag_594\n        /* \"#utility.yul\":27104:27107   */\n      dup3\n        /* \"#utility.yul\":27015:27108   */\n      tag_328\n      jump\t// in\n    tag_594:\n        /* \"#utility.yul\":27133:27135   */\n      0x20\n        /* \"#utility.yul\":27128:27131   */\n      dup3\n        /* \"#utility.yul\":27124:27136   */\n      add\n        /* \"#utility.yul\":27117:27136   */\n      swap1\n      pop\n        /* \"#utility.yul\":26776:27142   */\n      swap2\n      swap1\n      pop\n      jump\t// out\n        /* \"#utility.yul\":27148:27567   */\n    tag_218:\n        /* \"#utility.yul\":27314:27318   */\n      0x00\n        /* \"#utility.yul\":27352:27354   */\n      0x20\n        /* \"#utility.yul\":27341:27350   */\n      dup3\n        /* \"#utility.yul\":27337:27355   */\n      add\n        /* \"#utility.yul\":27329:27355   */\n      swap1\n      pop\n        /* \"#utility.yul\":27401:27410   */\n      dup2\n        /* \"#utility.yul\":27395:27399   */\n      dup2\n        /* \"#utility.yul\":27391:27411   */\n      sub\n        /* \"#utility.yul\":27387:27388   */\n      0x00\n        /* \"#utility.yul\":27376:27385   */\n      dup4\n        /* \"#utility.yul\":27372:27389   */\n      add\n        /* \"#utility.yul\":27365:27412   */\n      mstore\n        /* \"#utility.yul\":27429:27560   */\n      tag_596\n        /* \"#utility.yul\":27555:27559   */\n      dup2\n        /* \"#utility.yul\":27429:27560   */\n      tag_329\n      jump\t// in\n    tag_596:\n        /* \"#utility.yul\":27421:27560   */\n      swap1\n      pop\n        /* \"#utility.yul\":27148:27567   */\n      swap2\n      swap1\n      pop\n      jump\t// out\n        /* \"#utility.yul\":27573:27767   */\n    tag_224:\n        /* \"#utility.yul\":27613:27617   */\n      0x00\n        /* \"#utility.yul\":27633:27653   */\n      tag_598\n        /* \"#utility.yul\":27651:27652   */\n      dup3\n        /* \"#utility.yul\":27633:27653   */\n      tag_274\n      jump\t// in\n    tag_598:\n        /* \"#utility.yul\":27628:27653   */\n      swap2\n      pop\n        /* \"#utility.yul\":27667:27687   */\n      tag_599\n        /* \"#utility.yul\":27685:27686   */\n      dup4\n        /* \"#utility.yul\":27667:27687   */\n      tag_274\n      jump\t// in\n    tag_599:\n        /* \"#utility.yul\":27662:27687   */\n      swap3\n      pop\n        /* \"#utility.yul\":27711:27712   */\n      dup3\n        /* \"#utility.yul\":27708:27709   */\n      dup3\n        /* \"#utility.yul\":27704:27713   */\n      sub\n        /* \"#utility.yul\":27696:27713   */\n      swap1\n      pop\n        /* \"#utility.yul\":27735:27736   */\n      dup2\n        /* \"#utility.yul\":27729:27733   */\n      dup2\n        /* \"#utility.yul\":27726:27737   */\n      gt\n        /* \"#utility.yul\":27723:27760   */\n      iszero\n      tag_600\n      jumpi\n        /* \"#utility.yul\":27740:27758   */\n      tag_601\n      tag_308\n      jump\t// in\n    tag_601:\n        /* \"#utility.yul\":27723:27760   */\n    tag_600:\n        /* \"#utility.yul\":27573:27767   */\n      swap3\n      swap2\n      pop\n      pop\n      jump\t// out\n        /* \"#utility.yul\":27773:27954   */\n    tag_330:\n        /* \"#utility.yul\":27913:27946   */\n      0x5265656e7472616e637947756172643a207265656e7472616e742063616c6c00\n        /* \"#utility.yul\":27909:27910   */\n      0x00\n        /* \"#utility.yul\":27901:27907   */\n      dup3\n        /* \"#utility.yul\":27897:27911   */\n      add\n        /* \"#utility.yul\":27890:27947   */\n      mstore\n        /* \"#utility.yul\":27773:27954   */\n      pop\n      jump\t// out\n        /* \"#utility.yul\":27960:28326   */\n    tag_331:\n        /* \"#utility.yul\":28102:28105   */\n      0x00\n        /* \"#utility.yul\":28123:28190   */\n      tag_604\n        /* \"#utility.yul\":28187:28189   */\n      0x1f\n        /* \"#utility.yul\":28182:28185   */\n      dup4\n        /* \"#utility.yul\":28123:28190   */\n      tag_305\n      jump\t// in\n    tag_604:\n        /* \"#utility.yul\":28116:28190   */\n      swap2\n      pop\n        /* \"#utility.yul\":28199:28292   */\n      tag_605\n        /* \"#utility.yul\":28288:28291   */\n      dup3\n        /* \"#utility.yul\":28199:28292   */\n      tag_330\n      jump\t// in\n    tag_605:\n        /* \"#utility.yul\":28317:28319   */\n      0x20\n        /* \"#utility.yul\":28312:28315   */\n      dup3\n        /* \"#utility.yul\":28308:28320   */\n      add\n        /* \"#utility.yul\":28301:28320   */\n      swap1\n      pop\n        /* \"#utility.yul\":27960:28326   */\n      swap2\n      swap1\n      pop\n      jump\t// out\n        /* \"#utility.yul\":28332:28751   */\n    tag_239:\n        /* \"#utility.yul\":28498:28502   */\n      0x00\n        /* \"#utility.yul\":28536:28538   */\n      0x20\n        /* \"#utility.yul\":28525:28534   */\n      dup3\n        /* \"#utility.yul\":28521:28539   */\n      add\n        /* \"#utility.yul\":28513:28539   */\n      swap1\n      pop\n        /* \"#utility.yul\":28585:28594   */\n      dup2\n        /* \"#utility.yul\":28579:28583   */\n      dup2\n        /* \"#utility.yul\":28575:28595   */\n      sub\n        /* \"#utility.yul\":28571:28572   */\n      0x00\n        /* \"#utility.yul\":28560:28569   */\n      dup4\n        /* \"#utility.yul\":28556:28573   */\n      add\n        /* \"#utility.yul\":28549:28596   */\n      mstore\n        /* \"#utility.yul\":28613:28744   */\n      tag_607\n        /* \"#utility.yul\":28739:28743   */\n      dup2\n        /* \"#utility.yul\":28613:28744   */\n      tag_331\n      jump\t// in\n    tag_607:\n        /* \"#utility.yul\":28605:28744   */\n      swap1\n      pop\n        /* \"#utility.yul\":28332:28751   */\n      swap2\n      swap1\n      pop\n      jump\t// out\n        /* \"#utility.yul\":28757:29199   */\n    tag_243:\n        /* \"#utility.yul\":28906:28910   */\n      0x00\n        /* \"#utility.yul\":28944:28946   */\n      0x60\n        /* \"#utility.yul\":28933:28942   */\n      dup3\n        /* \"#utility.yul\":28929:28947   */\n      add\n        /* \"#utility.yul\":28921:28947   */\n      swap1\n      pop\n        /* \"#utility.yul\":28957:29028   */\n      tag_609\n        /* \"#utility.yul\":29025:29026   */\n      0x00\n        /* \"#utility.yul\":29014:29023   */\n      dup4\n        /* \"#utility.yul\":29010:29027   */\n      add\n        /* \"#utility.yul\":29001:29007   */\n      dup7\n        /* \"#utility.yul\":28957:29028   */\n      tag_284\n      jump\t// in\n    tag_609:\n        /* \"#utility.yul\":29038:29110   */\n      tag_610\n        /* \"#utility.yul\":29106:29108   */\n      0x20\n        /* \"#utility.yul\":29095:29104   */\n      dup4\n        /* \"#utility.yul\":29091:29109   */\n      add\n        /* \"#utility.yul\":29082:29088   */\n      dup6\n        /* \"#utility.yul\":29038:29110   */\n      tag_284\n      jump\t// in\n    tag_610:\n        /* \"#utility.yul\":29120:29192   */\n      tag_611\n        /* \"#utility.yul\":29188:29190   */\n      0x40\n        /* \"#utility.yul\":29177:29186   */\n      dup4\n        /* \"#utility.yul\":29173:29191   */\n      add\n        /* \"#utility.yul\":29164:29170   */\n      dup5\n        /* \"#utility.yul\":29120:29192   */\n      tag_287\n      jump\t// in\n    tag_611:\n        /* \"#utility.yul\":28757:29199   */\n      swap5\n      swap4\n      pop\n      pop\n      pop\n      pop\n      jump\t// out\n\n    auxdata: 0xa2646970667358221220f35d040f7421b0e14dc809c22332dc9524d3a0a9eaaf2342d1482c351bff9c1564736f6c634300081e0033\n}\n",
				"bytecode": {
					"linkReferences": {},
					"object": "60c060405234801561000f575f5ffd5b50604051612d25380380612d2583398181016040528101906100319190610409565b335f73ffffffffffffffffffffffffffffffffffffffff168173ffffffffffffffffffffffffffffffffffffffff16036100a2575f6040517f1e4fbdf70000000000000000000000000000000000000000000000000000000081526004016100999190610468565b60405180910390fd5b6100b1816102b460201b60201c565b5060016002819055505f73ffffffffffffffffffffffffffffffffffffffff168373ffffffffffffffffffffffffffffffffffffffff1603610128576040517f08c379a000000000000000000000000000000000000000000000000000000000815260040161011f906104db565b60405180910390fd5b5f73ffffffffffffffffffffffffffffffffffffffff168273ffffffffffffffffffffffffffffffffffffffff1603610196576040517f08c379a000000000000000000000000000000000000000000000000000000000815260040161018d90610543565b60405180910390fd5b5f73ffffffffffffffffffffffffffffffffffffffff168173ffffffffffffffffffffffffffffffffffffffff1603610204576040517f08c379a00000000000000000000000000000000000000000000000000000000081526004016101fb906105ab565b60405180910390fd5b8273ffffffffffffffffffffffffffffffffffffffff1660808173ffffffffffffffffffffffffffffffffffffffff16815250508173ffffffffffffffffffffffffffffffffffffffff1660a08173ffffffffffffffffffffffffffffffffffffffff16815250508060035f6101000a81548173ffffffffffffffffffffffffffffffffffffffff021916908373ffffffffffffffffffffffffffffffffffffffff1602179055505050506105c9565b60015f6101000a81549073ffffffffffffffffffffffffffffffffffffffff02191690556102e7816102ea60201b60201c565b50565b5f5f5f9054906101000a900473ffffffffffffffffffffffffffffffffffffffff169050815f5f6101000a81548173ffffffffffffffffffffffffffffffffffffffff021916908373ffffffffffffffffffffffffffffffffffffffff1602179055508173ffffffffffffffffffffffffffffffffffffffff168173ffffffffffffffffffffffffffffffffffffffff167f8be0079c531659141344cd1fd0a4f28419497f9722a3daafe3b4186f6b6457e060405160405180910390a35050565b5f5ffd5b5f73ffffffffffffffffffffffffffffffffffffffff82169050919050565b5f6103d8826103af565b9050919050565b6103e8816103ce565b81146103f2575f5ffd5b50565b5f81519050610403816103df565b92915050565b5f5f5f606084860312156104205761041f6103ab565b5b5f61042d868287016103f5565b935050602061043e868287016103f5565b925050604061044f868287016103f5565b9150509250925092565b610462816103ce565b82525050565b5f60208201905061047b5f830184610459565b92915050565b5f82825260208201905092915050565b7f496e76616c6964204341464920746f6b656e00000000000000000000000000005f82015250565b5f6104c5601283610481565b91506104d082610491565b602082019050919050565b5f6020820190508181035f8301526104f2816104b9565b9050919050565b7f496e76616c6964204e465420636f6e74726163740000000000000000000000005f82015250565b5f61052d601483610481565b9150610538826104f9565b602082019050919050565b5f6020820190508181035f83015261055a81610521565b9050919050565b7f496e76616c6964206665652077616c6c657400000000000000000000000000005f82015250565b5f610595601283610481565b91506105a082610561565b602082019050919050565b5f6020820190508181035f8301526105c281610589565b9050919050565b60805160a0516126f56106305f395f818161059a01528181610a3a01528181610b2201528181610bfc01528181610d6f015281816110dc01526112ff01525f81816106590152818161078e01528181610d280152818161126b01526112b801526126f55ff3fe608060405234801561000f575f5ffd5b5060043610610135575f3560e01c8063bc197c81116100b6578063eaf98d231161007a578063eaf98d2314610307578063ec16b94a14610325578063f23a6e6114610341578063f25f4b5614610371578063f2fde38b1461038f578063f6b45c46146103ab57610135565b8063bc197c811461025f578063d73792a91461028f578063ddbcb5fa146102ad578063e215f1ca146102cb578063e30c3978146102e957610135565b80638da5cb5b116100fd5780638da5cb5b146101b757806390d49b9d146101d5578063927fbfc8146101f157806395ccea6714610225578063ad9f20a61461024157610135565b806301ffc9a714610139578063305a67a81461016957806358a0bde314610185578063715018a6146101a357806379ba5097146101ad575b5f5ffd5b610153600480360381019061014e9190611903565b6103c7565b6040516101609190611948565b60405180910390f35b610183600480360381019061017e9190611994565b610440565b005b61018d61078c565b60405161019a9190611a39565b60405180910390f35b6101ab6107b0565b005b6101b56107c3565b005b6101bf610851565b6040516101cc9190611a72565b60405180910390f35b6101ef60048036038101906101ea9190611ab5565b610878565b005b61020b60048036038101906102069190611ae0565b610974565b60405161021c959493929190611b2d565b60405180910390f35b61023f600480360381019061023a9190611b7e565b6109d0565b005b610249610a0e565b6040516102569190611bbc565b60405180910390f35b61027960048036038101906102749190611dd5565b610a19565b6040516102869190611eaf565b60405180910390f35b610297610a2d565b6040516102a49190611bbc565b60405180910390f35b6102b5610a33565b6040516102c29190611bbc565b60405180910390f35b6102d3610a38565b6040516102e09190611ee8565b60405180910390f35b6102f1610a5c565b6040516102fe9190611a72565b60405180910390f35b61030f610a84565b60405161031c9190611bbc565b60405180910390f35b61033f600480360381019061033a9190611f01565b610a89565b005b61035b60048036038101906103569190611f51565b610f53565b6040516103689190611eaf565b60405180910390f35b610379610f67565b6040516103869190611a72565b60405180910390f35b6103a960048036038101906103a49190611ab5565b610f8c565b005b6103c560048036038101906103c09190611fe4565b611038565b005b5f7f4e2312e0000000000000000000000000000000000000000000000000000000007bffffffffffffffffffffffffffffffffffffffffffffffffffffffff1916827bffffffffffffffffffffffffffffffffffffffffffffffffffffffff191614806104395750610438826114c2565b5b9050919050565b61044861152b565b5f60045f8381526020019081526020015f205f3373ffffffffffffffffffffffffffffffffffffffff1673ffffffffffffffffffffffffffffffffffffffff1681526020019081526020015f206040518060a00160405290815f82015f9054906101000a900473ffffffffffffffffffffffffffffffffffffffff1673ffffffffffffffffffffffffffffffffffffffff1673ffffffffffffffffffffffffffffffffffffffff16815260200160018201548152602001600282015481526020016003820154815260200160048201548152505090505f816040015111610564576040517f08c379a000000000000000000000000000000000000000000000000000000000815260040161055b9061208e565b60405180910390fd5b5f8160600151826040015161057991906120d9565b90505f61271060648361058c91906120d9565b6105969190612147565b90507f000000000000000000000000000000000000000000000000000000000000000073ffffffffffffffffffffffffffffffffffffffff1663f242432a30338787604001516040518563ffffffff1660e01b81526004016105fb94939291906121aa565b5f604051808303815f87803b158015610612575f5ffd5b505af1158015610624573d5f5f3e3d5ffd5b505050505f81111561069f5761069e60035f9054906101000a900473ffffffffffffffffffffffffffffffffffffffff1633837f000000000000000000000000000000000000000000000000000000000000000073ffffffffffffffffffffffffffffffffffffffff16611578909392919063ffffffff16565b5b60045f8581526020019081526020015f205f3373ffffffffffffffffffffffffffffffffffffffff1673ffffffffffffffffffffffffffffffffffffffff1681526020019081526020015f205f5f82015f6101000a81549073ffffffffffffffffffffffffffffffffffffffff0219169055600182015f9055600282015f9055600382015f9055600482015f90555050833373ffffffffffffffffffffffffffffffffffffffff167f373d1c62b0c89be37c8caf0c909f58c5dc30792fd16002ade6bb3508402cf125836040516107769190611bbc565b60405180910390a35050506107896115fa565b50565b7f000000000000000000000000000000000000000000000000000000000000000081565b6107b8611604565b6107c15f61168b565b565b5f6107cc6116bb565b90508073ffffffffffffffffffffffffffffffffffffffff166107ed610a5c565b73ffffffffffffffffffffffffffffffffffffffff161461084557806040517f118cdaa700000000000000000000000000000000000000000000000000000000815260040161083c9190611a72565b60405180910390fd5b61084e8161168b565b50565b5f5f5f9054906101000a900473ffffffffffffffffffffffffffffffffffffffff16905090565b610880611604565b5f73ffffffffffffffffffffffffffffffffffffffff168173ffffffffffffffffffffffffffffffffffffffff16036108ee576040517f08c379a00000000000000000000000000000000000000000000000000000000081526004016108e59061224a565b60405180910390fd5b8060035f6101000a81548173ffffffffffffffffffffffffffffffffffffffff021916908373ffffffffffffffffffffffffffffffffffffffff1602179055508073ffffffffffffffffffffffffffffffffffffffff167f29acee77dafcfa0143d74a7ea236018f3a6e1fa71e27fc59bbfbc6b8ca8edccd60405160405180910390a250565b6004602052815f5260405f20602052805f5260405f205f9150915050805f015f9054906101000a900473ffffffffffffffffffffffffffffffffffffffff16908060010154908060020154908060030154908060040154905085565b6109d8611604565b610a0a6109e3610851565b828473ffffffffffffffffffffffffffffffffffffffff166116c29092919063ffffffff16565b5050565b66038d7ea4c6800081565b5f63bc197c8160e01b905095945050505050565b61271081565b600181565b7f000000000000000000000000000000000000000000000000000000000000000081565b5f60015f9054906101000a900473ffffffffffffffffffffffffffffffffffffffff16905090565b606481565b610a9161152b565b6001821015610ad5576040517f08c379a0000000000000000000000000000000000000000000000000000000008152600401610acc906122b2565b60405180910390fd5b66038d7ea4c68000811015610b1f576040517f08c379a0000000000000000000000000000000000000000000000000000000008152600401610b169061231a565b60405180910390fd5b817f000000000000000000000000000000000000000000000000000000000000000073ffffffffffffffffffffffffffffffffffffffff1662fdd58e33866040518363ffffffff1660e01b8152600401610b7a929190612338565b602060405180830381865afa158015610b95573d5f5f3e3d5ffd5b505050506040513d601f19601f82011682018060405250810190610bb99190612373565b1015610bfa576040517f08c379a0000000000000000000000000000000000000000000000000000000008152600401610bf1906123e8565b60405180910390fd5b7f000000000000000000000000000000000000000000000000000000000000000073ffffffffffffffffffffffffffffffffffffffff1663e985e9c533306040518363ffffffff1660e01b8152600401610c55929190612406565b602060405180830381865afa158015610c70573d5f5f3e3d5ffd5b505050506040513d601f19601f82011682018060405250810190610c949190612457565b610cd3576040517f08c379a0000000000000000000000000000000000000000000000000000000008152600401610cca906124cc565b60405180910390fd5b5f8183610ce091906120d9565b90505f612710606483610cf391906120d9565b610cfd9190612147565b9050610d6d3360035f9054906101000a900473ffffffffffffffffffffffffffffffffffffffff16837f000000000000000000000000000000000000000000000000000000000000000073ffffffffffffffffffffffffffffffffffffffff16611578909392919063ffffffff16565b7f000000000000000000000000000000000000000000000000000000000000000073ffffffffffffffffffffffffffffffffffffffff1663f242432a333088886040518563ffffffff1660e01b8152600401610dcc94939291906121aa565b5f604051808303815f87803b158015610de3575f5ffd5b505af1158015610df5573d5f5f3e3d5ffd5b505050506040518060a001604052803373ffffffffffffffffffffffffffffffffffffffff1681526020018681526020018581526020018481526020018281525060045f8781526020019081526020015f205f3373ffffffffffffffffffffffffffffffffffffffff1673ffffffffffffffffffffffffffffffffffffffff1681526020019081526020015f205f820151815f015f6101000a81548173ffffffffffffffffffffffffffffffffffffffff021916908373ffffffffffffffffffffffffffffffffffffffff16021790555060208201518160010155604082015181600201556060820151816003015560808201518160040155905050843373ffffffffffffffffffffffffffffffffffffffff167f49404fb917a58c43be1f0c55952c2c6f994bd07a835d79b36a31b2d082349249868685604051610f3c939291906124ea565b60405180910390a35050610f4e6115fa565b505050565b5f63f23a6e6160e01b905095945050505050565b60035f9054906101000a900473ffffffffffffffffffffffffffffffffffffffff1681565b610f94611604565b8060015f6101000a81548173ffffffffffffffffffffffffffffffffffffffff021916908373ffffffffffffffffffffffffffffffffffffffff1602179055508073ffffffffffffffffffffffffffffffffffffffff16610ff3610851565b73ffffffffffffffffffffffffffffffffffffffff167f38d16b8cac22d99fc7c124b9cd0de2d3fa1faef420bfe791d8c362d765e2270060405160405180910390a350565b61104061152b565b8282825f60045f8481526020019081526020015f205f8573ffffffffffffffffffffffffffffffffffffffff1673ffffffffffffffffffffffffffffffffffffffff1681526020019081526020015f20905081816002015410156110d9576040517f08c379a00000000000000000000000000000000000000000000000000000000081526004016110d090612569565b60405180910390fd5b817f000000000000000000000000000000000000000000000000000000000000000073ffffffffffffffffffffffffffffffffffffffff1662fdd58e30866040518363ffffffff1660e01b8152600401611134929190612338565b602060405180830381865afa15801561114f573d5f5f3e3d5ffd5b505050506040513d601f19601f820116820180604052508101906111739190612373565b10156111b4576040517f08c379a00000000000000000000000000000000000000000000000000000000081526004016111ab906125d1565b60405180910390fd5b5f60045f8881526020019081526020015f205f8973ffffffffffffffffffffffffffffffffffffffff1673ffffffffffffffffffffffffffffffffffffffff1681526020019081526020015f2090505f86826003015461121491906120d9565b90505f61271060648361122791906120d9565b6112319190612147565b90505f818361124091906125ef565b90506112b03360035f9054906101000a900473ffffffffffffffffffffffffffffffffffffffff16847f000000000000000000000000000000000000000000000000000000000000000073ffffffffffffffffffffffffffffffffffffffff16611578909392919063ffffffff16565b6112fd338c837f000000000000000000000000000000000000000000000000000000000000000073ffffffffffffffffffffffffffffffffffffffff16611578909392919063ffffffff16565b7f000000000000000000000000000000000000000000000000000000000000000073ffffffffffffffffffffffffffffffffffffffff1663f242432a30338d8d6040518563ffffffff1660e01b815260040161135c94939291906121aa565b5f604051808303815f87803b158015611373575f5ffd5b505af1158015611385573d5f5f3e3d5ffd5b5050505088846002015f82825461139c91906125ef565b925050819055505f84600201540361143f5760045f8b81526020019081526020015f205f8c73ffffffffffffffffffffffffffffffffffffffff1673ffffffffffffffffffffffffffffffffffffffff1681526020019081526020015f205f5f82015f6101000a81549073ffffffffffffffffffffffffffffffffffffffff0219169055600182015f9055600282015f9055600382015f9055600482015f905550505b893373ffffffffffffffffffffffffffffffffffffffff168c73ffffffffffffffffffffffffffffffffffffffff167fb0ed544bae4fa3cf334880b24a3ba38b9fdb5b90e8fd5f8905922d6744058fd68c8860030154876040516114a5939291906124ea565b60405180910390a450505050505050506114bd6115fa565b505050565b5f7f01ffc9a7000000000000000000000000000000000000000000000000000000007bffffffffffffffffffffffffffffffffffffffffffffffffffffffff1916827bffffffffffffffffffffffffffffffffffffffffffffffffffffffff1916149050919050565b600280540361156f576040517f08c379a00000000000000000000000000000000000000000000000000000000081526004016115669061266c565b60405180910390fd5b60028081905550565b6115f4848573ffffffffffffffffffffffffffffffffffffffff166323b872dd8686866040516024016115ad9392919061268a565b604051602081830303815290604052915060e01b6020820180517bffffffffffffffffffffffffffffffffffffffffffffffffffffffff8381831617835250505050611741565b50505050565b6001600281905550565b61160c6116bb565b73ffffffffffffffffffffffffffffffffffffffff1661162a610851565b73ffffffffffffffffffffffffffffffffffffffff16146116895761164d6116bb565b6040517f118cdaa70000000000000000000000000000000000000000000000000000000081526004016116809190611a72565b60405180910390fd5b565b60015f6101000a81549073ffffffffffffffffffffffffffffffffffffffff02191690556116b8816117dc565b50565b5f33905090565b61173c838473ffffffffffffffffffffffffffffffffffffffff1663a9059cbb85856040516024016116f5929190612338565b604051602081830303815290604052915060e01b6020820180517bffffffffffffffffffffffffffffffffffffffffffffffffffffffff8381831617835250505050611741565b505050565b5f5f60205f8451602086015f885af180611760576040513d5f823e3d81fd5b3d92505f519150505f8214611779576001811415611794565b5f8473ffffffffffffffffffffffffffffffffffffffff163b145b156117d657836040517f5274afe70000000000000000000000000000000000000000000000000000000081526004016117cd9190611a72565b60405180910390fd5b50505050565b5f5f5f9054906101000a900473ffffffffffffffffffffffffffffffffffffffff169050815f5f6101000a81548173ffffffffffffffffffffffffffffffffffffffff021916908373ffffffffffffffffffffffffffffffffffffffff1602179055508173ffffffffffffffffffffffffffffffffffffffff168173ffffffffffffffffffffffffffffffffffffffff167f8be0079c531659141344cd1fd0a4f28419497f9722a3daafe3b4186f6b6457e060405160405180910390a35050565b5f604051905090565b5f5ffd5b5f5ffd5b5f7fffffffff0000000000000000000000000000000000000000000000000000000082169050919050565b6118e2816118ae565b81146118ec575f5ffd5b50565b5f813590506118fd816118d9565b92915050565b5f60208284031215611918576119176118a6565b5b5f611925848285016118ef565b91505092915050565b5f8115159050919050565b6119428161192e565b82525050565b5f60208201905061195b5f830184611939565b92915050565b5f819050919050565b61197381611961565b811461197d575f5ffd5b50565b5f8135905061198e8161196a565b92915050565b5f602082840312156119a9576119a86118a6565b5b5f6119b684828501611980565b91505092915050565b5f73ffffffffffffffffffffffffffffffffffffffff82169050919050565b5f819050919050565b5f611a016119fc6119f7846119bf565b6119de565b6119bf565b9050919050565b5f611a12826119e7565b9050919050565b5f611a2382611a08565b9050919050565b611a3381611a19565b82525050565b5f602082019050611a4c5f830184611a2a565b92915050565b5f611a5c826119bf565b9050919050565b611a6c81611a52565b82525050565b5f602082019050611a855f830184611a63565b92915050565b611a9481611a52565b8114611a9e575f5ffd5b50565b5f81359050611aaf81611a8b565b92915050565b5f60208284031215611aca57611ac96118a6565b5b5f611ad784828501611aa1565b91505092915050565b5f5f60408385031215611af657611af56118a6565b5b5f611b0385828601611980565b9250506020611b1485828601611aa1565b9150509250929050565b611b2781611961565b82525050565b5f60a082019050611b405f830188611a63565b611b4d6020830187611b1e565b611b5a6040830186611b1e565b611b676060830185611b1e565b611b746080830184611b1e565b9695505050505050565b5f5f60408385031215611b9457611b936118a6565b5b5f611ba185828601611aa1565b9250506020611bb285828601611980565b9150509250929050565b5f602082019050611bcf5f830184611b1e565b92915050565b5f5ffd5b5f601f19601f8301169050919050565b7f4e487b71000000000000000000000000000000000000000000000000000000005f52604160045260245ffd5b611c1f82611bd9565b810181811067ffffffffffffffff82111715611c3e57611c3d611be9565b5b80604052505050565b5f611c5061189d565b9050611c5c8282611c16565b919050565b5f67ffffffffffffffff821115611c7b57611c7a611be9565b5b602082029050602081019050919050565b5f5ffd5b5f611ca2611c9d84611c61565b611c47565b90508083825260208201905060208402830185811115611cc557611cc4611c8c565b5b835b81811015611cee5780611cda8882611980565b845260208401935050602081019050611cc7565b5050509392505050565b5f82601f830112611d0c57611d0b611bd5565b5b8135611d1c848260208601611c90565b91505092915050565b5f5ffd5b5f67ffffffffffffffff821115611d4357611d42611be9565b5b611d4c82611bd9565b9050602081019050919050565b828183375f83830152505050565b5f611d79611d7484611d29565b611c47565b905082815260208101848484011115611d9557611d94611d25565b5b611da0848285611d59565b509392505050565b5f82601f830112611dbc57611dbb611bd5565b5b8135611dcc848260208601611d67565b91505092915050565b5f5f5f5f5f60a08688031215611dee57611ded6118a6565b5b5f611dfb88828901611aa1565b9550506020611e0c88828901611aa1565b945050604086013567ffffffffffffffff811115611e2d57611e2c6118aa565b5b611e3988828901611cf8565b935050606086013567ffffffffffffffff811115611e5a57611e596118aa565b5b611e6688828901611cf8565b925050608086013567ffffffffffffffff811115611e8757611e866118aa565b5b611e9388828901611da8565b9150509295509295909350565b611ea9816118ae565b82525050565b5f602082019050611ec25f830184611ea0565b92915050565b5f611ed282611a08565b9050919050565b611ee281611ec8565b82525050565b5f602082019050611efb5f830184611ed9565b92915050565b5f5f5f60608486031215611f1857611f176118a6565b5b5f611f2586828701611980565b9350506020611f3686828701611980565b9250506040611f4786828701611980565b9150509250925092565b5f5f5f5f5f60a08688031215611f6a57611f696118a6565b5b5f611f7788828901611aa1565b9550506020611f8888828901611aa1565b9450506040611f9988828901611980565b9350506060611faa88828901611980565b925050608086013567ffffffffffffffff811115611fcb57611fca6118aa565b5b611fd788828901611da8565b9150509295509295909350565b5f5f5f60608486031215611ffb57611ffa6118a6565b5b5f61200886828701611aa1565b935050602061201986828701611980565b925050604061202a86828701611980565b9150509250925092565b5f82825260208201905092915050565b7f4e6f20616374697665206c697374696e670000000000000000000000000000005f82015250565b5f612078601183612034565b915061208382612044565b602082019050919050565b5f6020820190508181035f8301526120a58161206c565b9050919050565b7f4e487b71000000000000000000000000000000000000000000000000000000005f52601160045260245ffd5b5f6120e382611961565b91506120ee83611961565b92508282026120fc81611961565b91508282048414831517612113576121126120ac565b5b5092915050565b7f4e487b71000000000000000000000000000000000000000000000000000000005f52601260045260245ffd5b5f61215182611961565b915061215c83611961565b92508261216c5761216b61211a565b5b828204905092915050565b5f82825260208201905092915050565b50565b5f6121955f83612177565b91506121a082612187565b5f82019050919050565b5f60a0820190506121bd5f830187611a63565b6121ca6020830186611a63565b6121d76040830185611b1e565b6121e46060830184611b1e565b81810360808301526121f58161218a565b905095945050505050565b7f496e76616c69642077616c6c65740000000000000000000000000000000000005f82015250565b5f612234600e83612034565b915061223f82612200565b602082019050919050565b5f6020820190508181035f83015261226181612228565b9050919050565b7f416d6f756e7420746f6f20736d616c6c000000000000000000000000000000005f82015250565b5f61229c601083612034565b91506122a782612268565b602082019050919050565b5f6020820190508181035f8301526122c981612290565b9050919050565b7f507269636520746f6f206c6f77000000000000000000000000000000000000005f82015250565b5f612304600d83612034565b915061230f826122d0565b602082019050919050565b5f6020820190508181035f830152612331816122f8565b9050919050565b5f60408201905061234b5f830185611a63565b6123586020830184611b1e565b9392505050565b5f8151905061236d8161196a565b92915050565b5f60208284031215612388576123876118a6565b5b5f6123958482850161235f565b91505092915050565b7f496e73756666696369656e74204e46542062616c616e636500000000000000005f82015250565b5f6123d2601883612034565b91506123dd8261239e565b602082019050919050565b5f6020820190508181035f8301526123ff816123c6565b9050919050565b5f6040820190506124195f830185611a63565b6124266020830184611a63565b9392505050565b6124368161192e565b8114612440575f5ffd5b50565b5f815190506124518161242d565b92915050565b5f6020828403121561246c5761246b6118a6565b5b5f61247984828501612443565b91505092915050565b7f4d61726b6574706c616365206e6f7420617070726f76656400000000000000005f82015250565b5f6124b6601883612034565b91506124c182612482565b602082019050919050565b5f6020820190508181035f8301526124e3816124aa565b9050919050565b5f6060820190506124fd5f830186611b1e565b61250a6020830185611b1e565b6125176040830184611b1e565b949350505050565b7f496e73756666696369656e7420616d6f756e74206c69737465640000000000005f82015250565b5f612553601a83612034565b915061255e8261251f565b602082019050919050565b5f6020820190508181035f83015261258081612547565b9050919050565b7f4e4654206e6f7420617661696c61626c6520696e20657363726f7700000000005f82015250565b5f6125bb601b83612034565b91506125c682612587565b602082019050919050565b5f6020820190508181035f8301526125e8816125af565b9050919050565b5f6125f982611961565b915061260483611961565b925082820390508181111561261c5761261b6120ac565b5b92915050565b7f5265656e7472616e637947756172643a207265656e7472616e742063616c6c005f82015250565b5f612656601f83612034565b915061266182612622565b602082019050919050565b5f6020820190508181035f8301526126838161264a565b9050919050565b5f60608201905061269d5f830186611a63565b6126aa6020830185611a63565b6126b76040830184611b1e565b94935050505056fea2646970667358221220f35d040f7421b0e14dc809c22332dc9524d3a0a9eaaf2342d1482c351bff9c1564736f6c634300081e0033",
					"opcodes": "PUSH1 0xC0 PUSH1 0x40 MSTORE CALLVALUE DUP1 ISZERO PUSH2 0xF JUMPI PUSH0 PUSH0 REVERT JUMPDEST POP PUSH1 0x40 MLOAD PUSH2 0x2D25 CODESIZE SUB DUP1 PUSH2 0x2D25 DUP4 CODECOPY DUP2 DUP2 ADD PUSH1 0x40 MSTORE DUP2 ADD SWAP1 PUSH2 0x31 SWAP2 SWAP1 PUSH2 0x409 JUMP JUMPDEST CALLER PUSH0 PUSH20 0xFFFFFFFFFFFFFFFFFFFFFFFFFFFFFFFFFFFFFFFF AND DUP2 PUSH20 0xFFFFFFFFFFFFFFFFFFFFFFFFFFFFFFFFFFFFFFFF AND SUB PUSH2 0xA2 JUMPI PUSH0 PUSH1 0x40 MLOAD PUSH32 0x1E4FBDF700000000000000000000000000000000000000000000000000000000 DUP2 MSTORE PUSH1 0x4 ADD PUSH2 0x99 SWAP2 SWAP1 PUSH2 0x468 JUMP JUMPDEST PUSH1 0x40 MLOAD DUP1 SWAP2 SUB SWAP1 REVERT JUMPDEST PUSH2 0xB1 DUP2 PUSH2 0x2B4 PUSH1 0x20 SHL PUSH1 0x20 SHR JUMP JUMPDEST POP PUSH1 0x1 PUSH1 0x2 DUP2 SWAP1 SSTORE POP PUSH0 PUSH20 0xFFFFFFFFFFFFFFFFFFFFFFFFFFFFFFFFFFFFFFFF AND DUP4 PUSH20 0xFFFFFFFFFFFFFFFFFFFFFFFFFFFFFFFFFFFFFFFF AND SUB PUSH2 0x128 JUMPI PUSH1 0x40 MLOAD PUSH32 0x8C379A000000000000000000000000000000000000000000000000000000000 DUP2 MSTORE PUSH1 0x4 ADD PUSH2 0x11F SWAP1 PUSH2 0x4DB JUMP JUMPDEST PUSH1 0x40 MLOAD DUP1 SWAP2 SUB SWAP1 REVERT JUMPDEST PUSH0 PUSH20 0xFFFFFFFFFFFFFFFFFFFFFFFFFFFFFFFFFFFFFFFF AND DUP3 PUSH20 0xFFFFFFFFFFFFFFFFFFFFFFFFFFFFFFFFFFFFFFFF AND SUB PUSH2 0x196 JUMPI PUSH1 0x40 MLOAD PUSH32 0x8C379A000000000000000000000000000000000000000000000000000000000 DUP2 MSTORE PUSH1 0x4 ADD PUSH2 0x18D SWAP1 PUSH2 0x543 JUMP JUMPDEST PUSH1 0x40 MLOAD DUP1 SWAP2 SUB SWAP1 REVERT JUMPDEST PUSH0 PUSH20 0xFFFFFFFFFFFFFFFFFFFFFFFFFFFFFFFFFFFFFFFF AND DUP2 PUSH20 0xFFFFFFFFFFFFFFFFFFFFFFFFFFFFFFFFFFFFFFFF AND SUB PUSH2 0x204 JUMPI PUSH1 0x40 MLOAD PUSH32 0x8C379A000000000000000000000000000000000000000000000000000000000 DUP2 MSTORE PUSH1 0x4 ADD PUSH2 0x1FB SWAP1 PUSH2 0x5AB JUMP JUMPDEST PUSH1 0x40 MLOAD DUP1 SWAP2 SUB SWAP1 REVERT JUMPDEST DUP3 PUSH20 0xFFFFFFFFFFFFFFFFFFFFFFFFFFFFFFFFFFFFFFFF AND PUSH1 0x80 DUP2 PUSH20 0xFFFFFFFFFFFFFFFFFFFFFFFFFFFFFFFFFFFFFFFF AND DUP2 MSTORE POP POP DUP2 PUSH20 0xFFFFFFFFFFFFFFFFFFFFFFFFFFFFFFFFFFFFFFFF AND PUSH1 0xA0 DUP2 PUSH20 0xFFFFFFFFFFFFFFFFFFFFFFFFFFFFFFFFFFFFFFFF AND DUP2 MSTORE POP POP DUP1 PUSH1 0x3 PUSH0 PUSH2 0x100 EXP DUP2 SLOAD DUP2 PUSH20 0xFFFFFFFFFFFFFFFFFFFFFFFFFFFFFFFFFFFFFFFF MUL NOT AND SWAP1 DUP4 PUSH20 0xFFFFFFFFFFFFFFFFFFFFFFFFFFFFFFFFFFFFFFFF AND MUL OR SWAP1 SSTORE POP POP POP POP PUSH2 0x5C9 JUMP JUMPDEST PUSH1 0x1 PUSH0 PUSH2 0x100 EXP DUP2 SLOAD SWAP1 PUSH20 0xFFFFFFFFFFFFFFFFFFFFFFFFFFFFFFFFFFFFFFFF MUL NOT AND SWAP1 SSTORE PUSH2 0x2E7 DUP2 PUSH2 0x2EA PUSH1 0x20 SHL PUSH1 0x20 SHR JUMP JUMPDEST POP JUMP JUMPDEST PUSH0 PUSH0 PUSH0 SWAP1 SLOAD SWAP1 PUSH2 0x100 EXP SWAP1 DIV PUSH20 0xFFFFFFFFFFFFFFFFFFFFFFFFFFFFFFFFFFFFFFFF AND SWAP1 POP DUP2 PUSH0 PUSH0 PUSH2 0x100 EXP DUP2 SLOAD DUP2 PUSH20 0xFFFFFFFFFFFFFFFFFFFFFFFFFFFFFFFFFFFFFFFF MUL NOT AND SWAP1 DUP4 PUSH20 0xFFFFFFFFFFFFFFFFFFFFFFFFFFFFFFFFFFFFFFFF AND MUL OR SWAP1 SSTORE POP DUP2 PUSH20 0xFFFFFFFFFFFFFFFFFFFFFFFFFFFFFFFFFFFFFFFF AND DUP2 PUSH20 0xFFFFFFFFFFFFFFFFFFFFFFFFFFFFFFFFFFFFFFFF AND PUSH32 0x8BE0079C531659141344CD1FD0A4F28419497F9722A3DAAFE3B4186F6B6457E0 PUSH1 0x40 MLOAD PUSH1 0x40 MLOAD DUP1 SWAP2 SUB SWAP1 LOG3 POP POP JUMP JUMPDEST PUSH0 PUSH0 REVERT JUMPDEST PUSH0 PUSH20 0xFFFFFFFFFFFFFFFFFFFFFFFFFFFFFFFFFFFFFFFF DUP3 AND SWAP1 POP SWAP2 SWAP1 POP JUMP JUMPDEST PUSH0 PUSH2 0x3D8 DUP3 PUSH2 0x3AF JUMP JUMPDEST SWAP1 POP SWAP2 SWAP1 POP JUMP JUMPDEST PUSH2 0x3E8 DUP2 PUSH2 0x3CE JUMP JUMPDEST DUP2 EQ PUSH2 0x3F2 JUMPI PUSH0 PUSH0 REVERT JUMPDEST POP JUMP JUMPDEST PUSH0 DUP2 MLOAD SWAP1 POP PUSH2 0x403 DUP2 PUSH2 0x3DF JUMP JUMPDEST SWAP3 SWAP2 POP POP JUMP JUMPDEST PUSH0 PUSH0 PUSH0 PUSH1 0x60 DUP5 DUP7 SUB SLT ISZERO PUSH2 0x420 JUMPI PUSH2 0x41F PUSH2 0x3AB JUMP JUMPDEST JUMPDEST PUSH0 PUSH2 0x42D DUP7 DUP3 DUP8 ADD PUSH2 0x3F5 JUMP JUMPDEST SWAP4 POP POP PUSH1 0x20 PUSH2 0x43E DUP7 DUP3 DUP8 ADD PUSH2 0x3F5 JUMP JUMPDEST SWAP3 POP POP PUSH1 0x40 PUSH2 0x44F DUP7 DUP3 DUP8 ADD PUSH2 0x3F5 JUMP JUMPDEST SWAP2 POP POP SWAP3 POP SWAP3 POP SWAP3 JUMP JUMPDEST PUSH2 0x462 DUP2 PUSH2 0x3CE JUMP JUMPDEST DUP3 MSTORE POP POP JUMP JUMPDEST PUSH0 PUSH1 0x20 DUP3 ADD SWAP1 POP PUSH2 0x47B PUSH0 DUP4 ADD DUP5 PUSH2 0x459 JUMP JUMPDEST SWAP3 SWAP2 POP POP JUMP JUMPDEST PUSH0 DUP3 DUP3 MSTORE PUSH1 0x20 DUP3 ADD SWAP1 POP SWAP3 SWAP2 POP POP JUMP JUMPDEST PUSH32 0x496E76616C6964204341464920746F6B656E0000000000000000000000000000 PUSH0 DUP3 ADD MSTORE POP JUMP JUMPDEST PUSH0 PUSH2 0x4C5 PUSH1 0x12 DUP4 PUSH2 0x481 JUMP JUMPDEST SWAP2 POP PUSH2 0x4D0 DUP3 PUSH2 0x491 JUMP JUMPDEST PUSH1 0x20 DUP3 ADD SWAP1 POP SWAP2 SWAP1 POP JUMP JUMPDEST PUSH0 PUSH1 0x20 DUP3 ADD SWAP1 POP DUP2 DUP2 SUB PUSH0 DUP4 ADD MSTORE PUSH2 0x4F2 DUP2 PUSH2 0x4B9 JUMP JUMPDEST SWAP1 POP SWAP2 SWAP1 POP JUMP JUMPDEST PUSH32 0x496E76616C6964204E465420636F6E7472616374000000000000000000000000 PUSH0 DUP3 ADD MSTORE POP JUMP JUMPDEST PUSH0 PUSH2 0x52D PUSH1 0x14 DUP4 PUSH2 0x481 JUMP JUMPDEST SWAP2 POP PUSH2 0x538 DUP3 PUSH2 0x4F9 JUMP JUMPDEST PUSH1 0x20 DUP3 ADD SWAP1 POP SWAP2 SWAP1 POP JUMP JUMPDEST PUSH0 PUSH1 0x20 DUP3 ADD SWAP1 POP DUP2 DUP2 SUB PUSH0 DUP4 ADD MSTORE PUSH2 0x55A DUP2 PUSH2 0x521 JUMP JUMPDEST SWAP1 POP SWAP2 SWAP1 POP JUMP JUMPDEST PUSH32 0x496E76616C6964206665652077616C6C65740000000000000000000000000000 PUSH0 DUP3 ADD MSTORE POP JUMP JUMPDEST PUSH0 PUSH2 0x595 PUSH1 0x12 DUP4 PUSH2 0x481 JUMP JUMPDEST SWAP2 POP PUSH2 0x5A0 DUP3 PUSH2 0x561 JUMP JUMPDEST PUSH1 0x20 DUP3 ADD SWAP1 POP SWAP2 SWAP1 POP JUMP JUMPDEST PUSH0 PUSH1 0x20 DUP3 ADD SWAP1 POP DUP2 DUP2 SUB PUSH0 DUP4 ADD MSTORE PUSH2 0x5C2 DUP2 PUSH2 0x589 JUMP JUMPDEST SWAP1 POP SWAP2 SWAP1 POP JUMP JUMPDEST PUSH1 0x80 MLOAD PUSH1 0xA0 MLOAD PUSH2 0x26F5 PUSH2 0x630 PUSH0 CODECOPY PUSH0 DUP2 DUP2 PUSH2 0x59A ADD MSTORE DUP2 DUP2 PUSH2 0xA3A ADD MSTORE DUP2 DUP2 PUSH2 0xB22 ADD MSTORE DUP2 DUP2 PUSH2 0xBFC ADD MSTORE DUP2 DUP2 PUSH2 0xD6F ADD MSTORE DUP2 DUP2 PUSH2 0x10DC ADD MSTORE PUSH2 0x12FF ADD MSTORE PUSH0 DUP2 DUP2 PUSH2 0x659 ADD MSTORE DUP2 DUP2 PUSH2 0x78E ADD MSTORE DUP2 DUP2 PUSH2 0xD28 ADD MSTORE DUP2 DUP2 PUSH2 0x126B ADD MSTORE PUSH2 0x12B8 ADD MSTORE PUSH2 0x26F5 PUSH0 RETURN INVALID PUSH1 0x80 PUSH1 0x40 MSTORE CALLVALUE DUP1 ISZERO PUSH2 0xF JUMPI PUSH0 PUSH0 REVERT JUMPDEST POP PUSH1 0x4 CALLDATASIZE LT PUSH2 0x135 JUMPI PUSH0 CALLDATALOAD PUSH1 0xE0 SHR DUP1 PUSH4 0xBC197C81 GT PUSH2 0xB6 JUMPI DUP1 PUSH4 0xEAF98D23 GT PUSH2 0x7A JUMPI DUP1 PUSH4 0xEAF98D23 EQ PUSH2 0x307 JUMPI DUP1 PUSH4 0xEC16B94A EQ PUSH2 0x325 JUMPI DUP1 PUSH4 0xF23A6E61 EQ PUSH2 0x341 JUMPI DUP1 PUSH4 0xF25F4B56 EQ PUSH2 0x371 JUMPI DUP1 PUSH4 0xF2FDE38B EQ PUSH2 0x38F JUMPI DUP1 PUSH4 0xF6B45C46 EQ PUSH2 0x3AB JUMPI PUSH2 0x135 JUMP JUMPDEST DUP1 PUSH4 0xBC197C81 EQ PUSH2 0x25F JUMPI DUP1 PUSH4 0xD73792A9 EQ PUSH2 0x28F JUMPI DUP1 PUSH4 0xDDBCB5FA EQ PUSH2 0x2AD JUMPI DUP1 PUSH4 0xE215F1CA EQ PUSH2 0x2CB JUMPI DUP1 PUSH4 0xE30C3978 EQ PUSH2 0x2E9 JUMPI PUSH2 0x135 JUMP JUMPDEST DUP1 PUSH4 0x8DA5CB5B GT PUSH2 0xFD JUMPI DUP1 PUSH4 0x8DA5CB5B EQ PUSH2 0x1B7 JUMPI DUP1 PUSH4 0x90D49B9D EQ PUSH2 0x1D5 JUMPI DUP1 PUSH4 0x927FBFC8 EQ PUSH2 0x1F1 JUMPI DUP1 PUSH4 0x95CCEA67 EQ PUSH2 0x225 JUMPI DUP1 PUSH4 0xAD9F20A6 EQ PUSH2 0x241 JUMPI PUSH2 0x135 JUMP JUMPDEST DUP1 PUSH4 0x1FFC9A7 EQ PUSH2 0x139 JUMPI DUP1 PUSH4 0x305A67A8 EQ PUSH2 0x169 JUMPI DUP1 PUSH4 0x58A0BDE3 EQ PUSH2 0x185 JUMPI DUP1 PUSH4 0x715018A6 EQ PUSH2 0x1A3 JUMPI DUP1 PUSH4 0x79BA5097 EQ PUSH2 0x1AD JUMPI JUMPDEST PUSH0 PUSH0 REVERT JUMPDEST PUSH2 0x153 PUSH1 0x4 DUP1 CALLDATASIZE SUB DUP2 ADD SWAP1 PUSH2 0x14E SWAP2 SWAP1 PUSH2 0x1903 JUMP JUMPDEST PUSH2 0x3C7 JUMP JUMPDEST PUSH1 0x40 MLOAD PUSH2 0x160 SWAP2 SWAP1 PUSH2 0x1948 JUMP JUMPDEST PUSH1 0x40 MLOAD DUP1 SWAP2 SUB SWAP1 RETURN JUMPDEST PUSH2 0x183 PUSH1 0x4 DUP1 CALLDATASIZE SUB DUP2 ADD SWAP1 PUSH2 0x17E SWAP2 SWAP1 PUSH2 0x1994 JUMP JUMPDEST PUSH2 0x440 JUMP JUMPDEST STOP JUMPDEST PUSH2 0x18D PUSH2 0x78C JUMP JUMPDEST PUSH1 0x40 MLOAD PUSH2 0x19A SWAP2 SWAP1 PUSH2 0x1A39 JUMP JUMPDEST PUSH1 0x40 MLOAD DUP1 SWAP2 SUB SWAP1 RETURN JUMPDEST PUSH2 0x1AB PUSH2 0x7B0 JUMP JUMPDEST STOP JUMPDEST PUSH2 0x1B5 PUSH2 0x7C3 JUMP JUMPDEST STOP JUMPDEST PUSH2 0x1BF PUSH2 0x851 JUMP JUMPDEST PUSH1 0x40 MLOAD PUSH2 0x1CC SWAP2 SWAP1 PUSH2 0x1A72 JUMP JUMPDEST PUSH1 0x40 MLOAD DUP1 SWAP2 SUB SWAP1 RETURN JUMPDEST PUSH2 0x1EF PUSH1 0x4 DUP1 CALLDATASIZE SUB DUP2 ADD SWAP1 PUSH2 0x1EA SWAP2 SWAP1 PUSH2 0x1AB5 JUMP JUMPDEST PUSH2 0x878 JUMP JUMPDEST STOP JUMPDEST PUSH2 0x20B PUSH1 0x4 DUP1 CALLDATASIZE SUB DUP2 ADD SWAP1 PUSH2 0x206 SWAP2 SWAP1 PUSH2 0x1AE0 JUMP JUMPDEST PUSH2 0x974 JUMP JUMPDEST PUSH1 0x40 MLOAD PUSH2 0x21C SWAP6 SWAP5 SWAP4 SWAP3 SWAP2 SWAP1 PUSH2 0x1B2D JUMP JUMPDEST PUSH1 0x40 MLOAD DUP1 SWAP2 SUB SWAP1 RETURN JUMPDEST PUSH2 0x23F PUSH1 0x4 DUP1 CALLDATASIZE SUB DUP2 ADD SWAP1 PUSH2 0x23A SWAP2 SWAP1 PUSH2 0x1B7E JUMP JUMPDEST PUSH2 0x9D0 JUMP JUMPDEST STOP JUMPDEST PUSH2 0x249 PUSH2 0xA0E JUMP JUMPDEST PUSH1 0x40 MLOAD PUSH2 0x256 SWAP2 SWAP1 PUSH2 0x1BBC JUMP JUMPDEST PUSH1 0x40 MLOAD DUP1 SWAP2 SUB SWAP1 RETURN JUMPDEST PUSH2 0x279 PUSH1 0x4 DUP1 CALLDATASIZE SUB DUP2 ADD SWAP1 PUSH2 0x274 SWAP2 SWAP1 PUSH2 0x1DD5 JUMP JUMPDEST PUSH2 0xA19 JUMP JUMPDEST PUSH1 0x40 MLOAD PUSH2 0x286 SWAP2 SWAP1 PUSH2 0x1EAF JUMP JUMPDEST PUSH1 0x40 MLOAD DUP1 SWAP2 SUB SWAP1 RETURN JUMPDEST PUSH2 0x297 PUSH2 0xA2D JUMP JUMPDEST PUSH1 0x40 MLOAD PUSH2 0x2A4 SWAP2 SWAP1 PUSH2 0x1BBC JUMP JUMPDEST PUSH1 0x40 MLOAD DUP1 SWAP2 SUB SWAP1 RETURN JUMPDEST PUSH2 0x2B5 PUSH2 0xA33 JUMP JUMPDEST PUSH1 0x40 MLOAD PUSH2 0x2C2 SWAP2 SWAP1 PUSH2 0x1BBC JUMP JUMPDEST PUSH1 0x40 MLOAD DUP1 SWAP2 SUB SWAP1 RETURN JUMPDEST PUSH2 0x2D3 PUSH2 0xA38 JUMP JUMPDEST PUSH1 0x40 MLOAD PUSH2 0x2E0 SWAP2 SWAP1 PUSH2 0x1EE8 JUMP JUMPDEST PUSH1 0x40 MLOAD DUP1 SWAP2 SUB SWAP1 RETURN JUMPDEST PUSH2 0x2F1 PUSH2 0xA5C JUMP JUMPDEST PUSH1 0x40 MLOAD PUSH2 0x2FE SWAP2 SWAP1 PUSH2 0x1A72 JUMP JUMPDEST PUSH1 0x40 MLOAD DUP1 SWAP2 SUB SWAP1 RETURN JUMPDEST PUSH2 0x30F PUSH2 0xA84 JUMP JUMPDEST PUSH1 0x40 MLOAD PUSH2 0x31C SWAP2 SWAP1 PUSH2 0x1BBC JUMP JUMPDEST PUSH1 0x40 MLOAD DUP1 SWAP2 SUB SWAP1 RETURN JUMPDEST PUSH2 0x33F PUSH1 0x4 DUP1 CALLDATASIZE SUB DUP2 ADD SWAP1 PUSH2 0x33A SWAP2 SWAP1 PUSH2 0x1F01 JUMP JUMPDEST PUSH2 0xA89 JUMP JUMPDEST STOP JUMPDEST PUSH2 0x35B PUSH1 0x4 DUP1 CALLDATASIZE SUB DUP2 ADD SWAP1 PUSH2 0x356 SWAP2 SWAP1 PUSH2 0x1F51 JUMP JUMPDEST PUSH2 0xF53 JUMP JUMPDEST PUSH1 0x40 MLOAD PUSH2 0x368 SWAP2 SWAP1 PUSH2 0x1EAF JUMP JUMPDEST PUSH1 0x40 MLOAD DUP1 SWAP2 SUB SWAP1 RETURN JUMPDEST PUSH2 0x379 PUSH2 0xF67 JUMP JUMPDEST PUSH1 0x40 MLOAD PUSH2 0x386 SWAP2 SWAP1 PUSH2 0x1A72 JUMP JUMPDEST PUSH1 0x40 MLOAD DUP1 SWAP2 SUB SWAP1 RETURN JUMPDEST PUSH2 0x3A9 PUSH1 0x4 DUP1 CALLDATASIZE SUB DUP2 ADD SWAP1 PUSH2 0x3A4 SWAP2 SWAP1 PUSH2 0x1AB5 JUMP JUMPDEST PUSH2 0xF8C JUMP JUMPDEST STOP JUMPDEST PUSH2 0x3C5 PUSH1 0x4 DUP1 CALLDATASIZE SUB DUP2 ADD SWAP1 PUSH2 0x3C0 SWAP2 SWAP1 PUSH2 0x1FE4 JUMP JUMPDEST PUSH2 0x1038 JUMP JUMPDEST STOP JUMPDEST PUSH0 PUSH32 0x4E2312E000000000000000000000000000000000000000000000000000000000 PUSH28 0xFFFFFFFFFFFFFFFFFFFFFFFFFFFFFFFFFFFFFFFFFFFFFFFFFFFFFFFF NOT AND DUP3 PUSH28 0xFFFFFFFFFFFFFFFFFFFFFFFFFFFFFFFFFFFFFFFFFFFFFFFFFFFFFFFF NOT AND EQ DUP1 PUSH2 0x439 JUMPI POP PUSH2 0x438 DUP3 PUSH2 0x14C2 JUMP JUMPDEST JUMPDEST SWAP1 POP SWAP2 SWAP1 POP JUMP JUMPDEST PUSH2 0x448 PUSH2 0x152B JUMP JUMPDEST PUSH0 PUSH1 0x4 PUSH0 DUP4 DUP2 MSTORE PUSH1 0x20 ADD SWAP1 DUP2 MSTORE PUSH1 0x20 ADD PUSH0 KECCAK256 PUSH0 CALLER PUSH20 0xFFFFFFFFFFFFFFFFFFFFFFFFFFFFFFFFFFFFFFFF AND PUSH20 0xFFFFFFFFFFFFFFFFFFFFFFFFFFFFFFFFFFFFFFFF AND DUP2 MSTORE PUSH1 0x20 ADD SWAP1 DUP2 MSTORE PUSH1 0x20 ADD PUSH0 KECCAK256 PUSH1 0x40 MLOAD DUP1 PUSH1 0xA0 ADD PUSH1 0x40 MSTORE SWAP1 DUP2 PUSH0 DUP3 ADD PUSH0 SWAP1 SLOAD SWAP1 PUSH2 0x100 EXP SWAP1 DIV PUSH20 0xFFFFFFFFFFFFFFFFFFFFFFFFFFFFFFFFFFFFFFFF AND PUSH20 0xFFFFFFFFFFFFFFFFFFFFFFFFFFFFFFFFFFFFFFFF AND PUSH20 0xFFFFFFFFFFFFFFFFFFFFFFFFFFFFFFFFFFFFFFFF AND DUP2 MSTORE PUSH1 0x20 ADD PUSH1 0x1 DUP3 ADD SLOAD DUP2 MSTORE PUSH1 0x20 ADD PUSH1 0x2 DUP3 ADD SLOAD DUP2 MSTORE PUSH1 0x20 ADD PUSH1 0x3 DUP3 ADD SLOAD DUP2 MSTORE PUSH1 0x20 ADD PUSH1 0x4 DUP3 ADD SLOAD DUP2 MSTORE POP POP SWAP1 POP PUSH0 DUP2 PUSH1 0x40 ADD MLOAD GT PUSH2 0x564 JUMPI PUSH1 0x40 MLOAD PUSH32 0x8C379A000000000000000000000000000000000000000000000000000000000 DUP2 MSTORE PUSH1 0x4 ADD PUSH2 0x55B SWAP1 PUSH2 0x208E JUMP JUMPDEST PUSH1 0x40 MLOAD DUP1 SWAP2 SUB SWAP1 REVERT JUMPDEST PUSH0 DUP2 PUSH1 0x60 ADD MLOAD DUP3 PUSH1 0x40 ADD MLOAD PUSH2 0x579 SWAP2 SWAP1 PUSH2 0x20D9 JUMP JUMPDEST SWAP1 POP PUSH0 PUSH2 0x2710 PUSH1 0x64 DUP4 PUSH2 0x58C SWAP2 SWAP1 PUSH2 0x20D9 JUMP JUMPDEST PUSH2 0x596 SWAP2 SWAP1 PUSH2 0x2147 JUMP JUMPDEST SWAP1 POP PUSH32 0x0 PUSH20 0xFFFFFFFFFFFFFFFFFFFFFFFFFFFFFFFFFFFFFFFF AND PUSH4 0xF242432A ADDRESS CALLER DUP8 DUP8 PUSH1 0x40 ADD MLOAD PUSH1 0x40 MLOAD DUP6 PUSH4 0xFFFFFFFF AND PUSH1 0xE0 SHL DUP2 MSTORE PUSH1 0x4 ADD PUSH2 0x5FB SWAP5 SWAP4 SWAP3 SWAP2 SWAP1 PUSH2 0x21AA JUMP JUMPDEST PUSH0 PUSH1 0x40 MLOAD DUP1 DUP4 SUB DUP2 PUSH0 DUP8 DUP1 EXTCODESIZE ISZERO DUP1 ISZERO PUSH2 0x612 JUMPI PUSH0 PUSH0 REVERT JUMPDEST POP GAS CALL ISZERO DUP1 ISZERO PUSH2 0x624 JUMPI RETURNDATASIZE PUSH0 PUSH0 RETURNDATACOPY RETURNDATASIZE PUSH0 REVERT JUMPDEST POP POP POP POP PUSH0 DUP2 GT ISZERO PUSH2 0x69F JUMPI PUSH2 0x69E PUSH1 0x3 PUSH0 SWAP1 SLOAD SWAP1 PUSH2 0x100 EXP SWAP1 DIV PUSH20 0xFFFFFFFFFFFFFFFFFFFFFFFFFFFFFFFFFFFFFFFF AND CALLER DUP4 PUSH32 0x0 PUSH20 0xFFFFFFFFFFFFFFFFFFFFFFFFFFFFFFFFFFFFFFFF AND PUSH2 0x1578 SWAP1 SWAP4 SWAP3 SWAP2 SWAP1 PUSH4 0xFFFFFFFF AND JUMP JUMPDEST JUMPDEST PUSH1 0x4 PUSH0 DUP6 DUP2 MSTORE PUSH1 0x20 ADD SWAP1 DUP2 MSTORE PUSH1 0x20 ADD PUSH0 KECCAK256 PUSH0 CALLER PUSH20 0xFFFFFFFFFFFFFFFFFFFFFFFFFFFFFFFFFFFFFFFF AND PUSH20 0xFFFFFFFFFFFFFFFFFFFFFFFFFFFFFFFFFFFFFFFF AND DUP2 MSTORE PUSH1 0x20 ADD SWAP1 DUP2 MSTORE PUSH1 0x20 ADD PUSH0 KECCAK256 PUSH0 PUSH0 DUP3 ADD PUSH0 PUSH2 0x100 EXP DUP2 SLOAD SWAP1 PUSH20 0xFFFFFFFFFFFFFFFFFFFFFFFFFFFFFFFFFFFFFFFF MUL NOT AND SWAP1 SSTORE PUSH1 0x1 DUP3 ADD PUSH0 SWAP1 SSTORE PUSH1 0x2 DUP3 ADD PUSH0 SWAP1 SSTORE PUSH1 0x3 DUP3 ADD PUSH0 SWAP1 SSTORE PUSH1 0x4 DUP3 ADD PUSH0 SWAP1 SSTORE POP POP DUP4 CALLER PUSH20 0xFFFFFFFFFFFFFFFFFFFFFFFFFFFFFFFFFFFFFFFF AND PUSH32 0x373D1C62B0C89BE37C8CAF0C909F58C5DC30792FD16002ADE6BB3508402CF125 DUP4 PUSH1 0x40 MLOAD PUSH2 0x776 SWAP2 SWAP1 PUSH2 0x1BBC JUMP JUMPDEST PUSH1 0x40 MLOAD DUP1 SWAP2 SUB SWAP1 LOG3 POP POP POP PUSH2 0x789 PUSH2 0x15FA JUMP JUMPDEST POP JUMP JUMPDEST PUSH32 0x0 DUP2 JUMP JUMPDEST PUSH2 0x7B8 PUSH2 0x1604 JUMP JUMPDEST PUSH2 0x7C1 PUSH0 PUSH2 0x168B JUMP JUMPDEST JUMP JUMPDEST PUSH0 PUSH2 0x7CC PUSH2 0x16BB JUMP JUMPDEST SWAP1 POP DUP1 PUSH20 0xFFFFFFFFFFFFFFFFFFFFFFFFFFFFFFFFFFFFFFFF AND PUSH2 0x7ED PUSH2 0xA5C JUMP JUMPDEST PUSH20 0xFFFFFFFFFFFFFFFFFFFFFFFFFFFFFFFFFFFFFFFF AND EQ PUSH2 0x845 JUMPI DUP1 PUSH1 0x40 MLOAD PUSH32 0x118CDAA700000000000000000000000000000000000000000000000000000000 DUP2 MSTORE PUSH1 0x4 ADD PUSH2 0x83C SWAP2 SWAP1 PUSH2 0x1A72 JUMP JUMPDEST PUSH1 0x40 MLOAD DUP1 SWAP2 SUB SWAP1 REVERT JUMPDEST PUSH2 0x84E DUP2 PUSH2 0x168B JUMP JUMPDEST POP JUMP JUMPDEST PUSH0 PUSH0 PUSH0 SWAP1 SLOAD SWAP1 PUSH2 0x100 EXP SWAP1 DIV PUSH20 0xFFFFFFFFFFFFFFFFFFFFFFFFFFFFFFFFFFFFFFFF AND SWAP1 POP SWAP1 JUMP JUMPDEST PUSH2 0x880 PUSH2 0x1604 JUMP JUMPDEST PUSH0 PUSH20 0xFFFFFFFFFFFFFFFFFFFFFFFFFFFFFFFFFFFFFFFF AND DUP2 PUSH20 0xFFFFFFFFFFFFFFFFFFFFFFFFFFFFFFFFFFFFFFFF AND SUB PUSH2 0x8EE JUMPI PUSH1 0x40 MLOAD PUSH32 0x8C379A000000000000000000000000000000000000000000000000000000000 DUP2 MSTORE PUSH1 0x4 ADD PUSH2 0x8E5 SWAP1 PUSH2 0x224A JUMP JUMPDEST PUSH1 0x40 MLOAD DUP1 SWAP2 SUB SWAP1 REVERT JUMPDEST DUP1 PUSH1 0x3 PUSH0 PUSH2 0x100 EXP DUP2 SLOAD DUP2 PUSH20 0xFFFFFFFFFFFFFFFFFFFFFFFFFFFFFFFFFFFFFFFF MUL NOT AND SWAP1 DUP4 PUSH20 0xFFFFFFFFFFFFFFFFFFFFFFFFFFFFFFFFFFFFFFFF AND MUL OR SWAP1 SSTORE POP DUP1 PUSH20 0xFFFFFFFFFFFFFFFFFFFFFFFFFFFFFFFFFFFFFFFF AND PUSH32 0x29ACEE77DAFCFA0143D74A7EA236018F3A6E1FA71E27FC59BBFBC6B8CA8EDCCD PUSH1 0x40 MLOAD PUSH1 0x40 MLOAD DUP1 SWAP2 SUB SWAP1 LOG2 POP JUMP JUMPDEST PUSH1 0x4 PUSH1 0x20 MSTORE DUP2 PUSH0 MSTORE PUSH1 0x40 PUSH0 KECCAK256 PUSH1 0x20 MSTORE DUP1 PUSH0 MSTORE PUSH1 0x40 PUSH0 KECCAK256 PUSH0 SWAP2 POP SWAP2 POP POP DUP1 PUSH0 ADD PUSH0 SWAP1 SLOAD SWAP1 PUSH2 0x100 EXP SWAP1 DIV PUSH20 0xFFFFFFFFFFFFFFFFFFFFFFFFFFFFFFFFFFFFFFFF AND SWAP1 DUP1 PUSH1 0x1 ADD SLOAD SWAP1 DUP1 PUSH1 0x2 ADD SLOAD SWAP1 DUP1 PUSH1 0x3 ADD SLOAD SWAP1 DUP1 PUSH1 0x4 ADD SLOAD SWAP1 POP DUP6 JUMP JUMPDEST PUSH2 0x9D8 PUSH2 0x1604 JUMP JUMPDEST PUSH2 0xA0A PUSH2 0x9E3 PUSH2 0x851 JUMP JUMPDEST DUP3 DUP5 PUSH20 0xFFFFFFFFFFFFFFFFFFFFFFFFFFFFFFFFFFFFFFFF AND PUSH2 0x16C2 SWAP1 SWAP3 SWAP2 SWAP1 PUSH4 0xFFFFFFFF AND JUMP JUMPDEST POP POP JUMP JUMPDEST PUSH7 0x38D7EA4C68000 DUP2 JUMP JUMPDEST PUSH0 PUSH4 0xBC197C81 PUSH1 0xE0 SHL SWAP1 POP SWAP6 SWAP5 POP POP POP POP POP JUMP JUMPDEST PUSH2 0x2710 DUP2 JUMP JUMPDEST PUSH1 0x1 DUP2 JUMP JUMPDEST PUSH32 0x0 DUP2 JUMP JUMPDEST PUSH0 PUSH1 0x1 PUSH0 SWAP1 SLOAD SWAP1 PUSH2 0x100 EXP SWAP1 DIV PUSH20 0xFFFFFFFFFFFFFFFFFFFFFFFFFFFFFFFFFFFFFFFF AND SWAP1 POP SWAP1 JUMP JUMPDEST PUSH1 0x64 DUP2 JUMP JUMPDEST PUSH2 0xA91 PUSH2 0x152B JUMP JUMPDEST PUSH1 0x1 DUP3 LT ISZERO PUSH2 0xAD5 JUMPI PUSH1 0x40 MLOAD PUSH32 0x8C379A000000000000000000000000000000000000000000000000000000000 DUP2 MSTORE PUSH1 0x4 ADD PUSH2 0xACC SWAP1 PUSH2 0x22B2 JUMP JUMPDEST PUSH1 0x40 MLOAD DUP1 SWAP2 SUB SWAP1 REVERT JUMPDEST PUSH7 0x38D7EA4C68000 DUP2 LT ISZERO PUSH2 0xB1F JUMPI PUSH1 0x40 MLOAD PUSH32 0x8C379A000000000000000000000000000000000000000000000000000000000 DUP2 MSTORE PUSH1 0x4 ADD PUSH2 0xB16 SWAP1 PUSH2 0x231A JUMP JUMPDEST PUSH1 0x40 MLOAD DUP1 SWAP2 SUB SWAP1 REVERT JUMPDEST DUP2 PUSH32 0x0 PUSH20 0xFFFFFFFFFFFFFFFFFFFFFFFFFFFFFFFFFFFFFFFF AND PUSH3 0xFDD58E CALLER DUP7 PUSH1 0x40 MLOAD DUP4 PUSH4 0xFFFFFFFF AND PUSH1 0xE0 SHL DUP2 MSTORE PUSH1 0x4 ADD PUSH2 0xB7A SWAP3 SWAP2 SWAP1 PUSH2 0x2338 JUMP JUMPDEST PUSH1 0x20 PUSH1 0x40 MLOAD DUP1 DUP4 SUB DUP2 DUP7 GAS STATICCALL ISZERO DUP1 ISZERO PUSH2 0xB95 JUMPI RETURNDATASIZE PUSH0 PUSH0 RETURNDATACOPY RETURNDATASIZE PUSH0 REVERT JUMPDEST POP POP POP POP PUSH1 0x40 MLOAD RETURNDATASIZE PUSH1 0x1F NOT PUSH1 0x1F DUP3 ADD AND DUP3 ADD DUP1 PUSH1 0x40 MSTORE POP DUP2 ADD SWAP1 PUSH2 0xBB9 SWAP2 SWAP1 PUSH2 0x2373 JUMP JUMPDEST LT ISZERO PUSH2 0xBFA JUMPI PUSH1 0x40 MLOAD PUSH32 0x8C379A000000000000000000000000000000000000000000000000000000000 DUP2 MSTORE PUSH1 0x4 ADD PUSH2 0xBF1 SWAP1 PUSH2 0x23E8 JUMP JUMPDEST PUSH1 0x40 MLOAD DUP1 SWAP2 SUB SWAP1 REVERT JUMPDEST PUSH32 0x0 PUSH20 0xFFFFFFFFFFFFFFFFFFFFFFFFFFFFFFFFFFFFFFFF AND PUSH4 0xE985E9C5 CALLER ADDRESS PUSH1 0x40 MLOAD DUP4 PUSH4 0xFFFFFFFF AND PUSH1 0xE0 SHL DUP2 MSTORE PUSH1 0x4 ADD PUSH2 0xC55 SWAP3 SWAP2 SWAP1 PUSH2 0x2406 JUMP JUMPDEST PUSH1 0x20 PUSH1 0x40 MLOAD DUP1 DUP4 SUB DUP2 DUP7 GAS STATICCALL ISZERO DUP1 ISZERO PUSH2 0xC70 JUMPI RETURNDATASIZE PUSH0 PUSH0 RETURNDATACOPY RETURNDATASIZE PUSH0 REVERT JUMPDEST POP POP POP POP PUSH1 0x40 MLOAD RETURNDATASIZE PUSH1 0x1F NOT PUSH1 0x1F DUP3 ADD AND DUP3 ADD DUP1 PUSH1 0x40 MSTORE POP DUP2 ADD SWAP1 PUSH2 0xC94 SWAP2 SWAP1 PUSH2 0x2457 JUMP JUMPDEST PUSH2 0xCD3 JUMPI PUSH1 0x40 MLOAD PUSH32 0x8C379A000000000000000000000000000000000000000000000000000000000 DUP2 MSTORE PUSH1 0x4 ADD PUSH2 0xCCA SWAP1 PUSH2 0x24CC JUMP JUMPDEST PUSH1 0x40 MLOAD DUP1 SWAP2 SUB SWAP1 REVERT JUMPDEST PUSH0 DUP2 DUP4 PUSH2 0xCE0 SWAP2 SWAP1 PUSH2 0x20D9 JUMP JUMPDEST SWAP1 POP PUSH0 PUSH2 0x2710 PUSH1 0x64 DUP4 PUSH2 0xCF3 SWAP2 SWAP1 PUSH2 0x20D9 JUMP JUMPDEST PUSH2 0xCFD SWAP2 SWAP1 PUSH2 0x2147 JUMP JUMPDEST SWAP1 POP PUSH2 0xD6D CALLER PUSH1 0x3 PUSH0 SWAP1 SLOAD SWAP1 PUSH2 0x100 EXP SWAP1 DIV PUSH20 0xFFFFFFFFFFFFFFFFFFFFFFFFFFFFFFFFFFFFFFFF AND DUP4 PUSH32 0x0 PUSH20 0xFFFFFFFFFFFFFFFFFFFFFFFFFFFFFFFFFFFFFFFF AND PUSH2 0x1578 SWAP1 SWAP4 SWAP3 SWAP2 SWAP1 PUSH4 0xFFFFFFFF AND JUMP JUMPDEST PUSH32 0x0 PUSH20 0xFFFFFFFFFFFFFFFFFFFFFFFFFFFFFFFFFFFFFFFF AND PUSH4 0xF242432A CALLER ADDRESS DUP9 DUP9 PUSH1 0x40 MLOAD DUP6 PUSH4 0xFFFFFFFF AND PUSH1 0xE0 SHL DUP2 MSTORE PUSH1 0x4 ADD PUSH2 0xDCC SWAP5 SWAP4 SWAP3 SWAP2 SWAP1 PUSH2 0x21AA JUMP JUMPDEST PUSH0 PUSH1 0x40 MLOAD DUP1 DUP4 SUB DUP2 PUSH0 DUP8 DUP1 EXTCODESIZE ISZERO DUP1 ISZERO PUSH2 0xDE3 JUMPI PUSH0 PUSH0 REVERT JUMPDEST POP GAS CALL ISZERO DUP1 ISZERO PUSH2 0xDF5 JUMPI RETURNDATASIZE PUSH0 PUSH0 RETURNDATACOPY RETURNDATASIZE PUSH0 REVERT JUMPDEST POP POP POP POP PUSH1 0x40 MLOAD DUP1 PUSH1 0xA0 ADD PUSH1 0x40 MSTORE DUP1 CALLER PUSH20 0xFFFFFFFFFFFFFFFFFFFFFFFFFFFFFFFFFFFFFFFF AND DUP2 MSTORE PUSH1 0x20 ADD DUP7 DUP2 MSTORE PUSH1 0x20 ADD DUP6 DUP2 MSTORE PUSH1 0x20 ADD DUP5 DUP2 MSTORE PUSH1 0x20 ADD DUP3 DUP2 MSTORE POP PUSH1 0x4 PUSH0 DUP8 DUP2 MSTORE PUSH1 0x20 ADD SWAP1 DUP2 MSTORE PUSH1 0x20 ADD PUSH0 KECCAK256 PUSH0 CALLER PUSH20 0xFFFFFFFFFFFFFFFFFFFFFFFFFFFFFFFFFFFFFFFF AND PUSH20 0xFFFFFFFFFFFFFFFFFFFFFFFFFFFFFFFFFFFFFFFF AND DUP2 MSTORE PUSH1 0x20 ADD SWAP1 DUP2 MSTORE PUSH1 0x20 ADD PUSH0 KECCAK256 PUSH0 DUP3 ADD MLOAD DUP2 PUSH0 ADD PUSH0 PUSH2 0x100 EXP DUP2 SLOAD DUP2 PUSH20 0xFFFFFFFFFFFFFFFFFFFFFFFFFFFFFFFFFFFFFFFF MUL NOT AND SWAP1 DUP4 PUSH20 0xFFFFFFFFFFFFFFFFFFFFFFFFFFFFFFFFFFFFFFFF AND MUL OR SWAP1 SSTORE POP PUSH1 0x20 DUP3 ADD MLOAD DUP2 PUSH1 0x1 ADD SSTORE PUSH1 0x40 DUP3 ADD MLOAD DUP2 PUSH1 0x2 ADD SSTORE PUSH1 0x60 DUP3 ADD MLOAD DUP2 PUSH1 0x3 ADD SSTORE PUSH1 0x80 DUP3 ADD MLOAD DUP2 PUSH1 0x4 ADD SSTORE SWAP1 POP POP DUP5 CALLER PUSH20 0xFFFFFFFFFFFFFFFFFFFFFFFFFFFFFFFFFFFFFFFF AND PUSH32 0x49404FB917A58C43BE1F0C55952C2C6F994BD07A835D79B36A31B2D082349249 DUP7 DUP7 DUP6 PUSH1 0x40 MLOAD PUSH2 0xF3C SWAP4 SWAP3 SWAP2 SWAP1 PUSH2 0x24EA JUMP JUMPDEST PUSH1 0x40 MLOAD DUP1 SWAP2 SUB SWAP1 LOG3 POP POP PUSH2 0xF4E PUSH2 0x15FA JUMP JUMPDEST POP POP POP JUMP JUMPDEST PUSH0 PUSH4 0xF23A6E61 PUSH1 0xE0 SHL SWAP1 POP SWAP6 SWAP5 POP POP POP POP POP JUMP JUMPDEST PUSH1 0x3 PUSH0 SWAP1 SLOAD SWAP1 PUSH2 0x100 EXP SWAP1 DIV PUSH20 0xFFFFFFFFFFFFFFFFFFFFFFFFFFFFFFFFFFFFFFFF AND DUP2 JUMP JUMPDEST PUSH2 0xF94 PUSH2 0x1604 JUMP JUMPDEST DUP1 PUSH1 0x1 PUSH0 PUSH2 0x100 EXP DUP2 SLOAD DUP2 PUSH20 0xFFFFFFFFFFFFFFFFFFFFFFFFFFFFFFFFFFFFFFFF MUL NOT AND SWAP1 DUP4 PUSH20 0xFFFFFFFFFFFFFFFFFFFFFFFFFFFFFFFFFFFFFFFF AND MUL OR SWAP1 SSTORE POP DUP1 PUSH20 0xFFFFFFFFFFFFFFFFFFFFFFFFFFFFFFFFFFFFFFFF AND PUSH2 0xFF3 PUSH2 0x851 JUMP JUMPDEST PUSH20 0xFFFFFFFFFFFFFFFFFFFFFFFFFFFFFFFFFFFFFFFF AND PUSH32 0x38D16B8CAC22D99FC7C124B9CD0DE2D3FA1FAEF420BFE791D8C362D765E22700 PUSH1 0x40 MLOAD PUSH1 0x40 MLOAD DUP1 SWAP2 SUB SWAP1 LOG3 POP JUMP JUMPDEST PUSH2 0x1040 PUSH2 0x152B JUMP JUMPDEST DUP3 DUP3 DUP3 PUSH0 PUSH1 0x4 PUSH0 DUP5 DUP2 MSTORE PUSH1 0x20 ADD SWAP1 DUP2 MSTORE PUSH1 0x20 ADD PUSH0 KECCAK256 PUSH0 DUP6 PUSH20 0xFFFFFFFFFFFFFFFFFFFFFFFFFFFFFFFFFFFFFFFF AND PUSH20 0xFFFFFFFFFFFFFFFFFFFFFFFFFFFFFFFFFFFFFFFF AND DUP2 MSTORE PUSH1 0x20 ADD SWAP1 DUP2 MSTORE PUSH1 0x20 ADD PUSH0 KECCAK256 SWAP1 POP DUP2 DUP2 PUSH1 0x2 ADD SLOAD LT ISZERO PUSH2 0x10D9 JUMPI PUSH1 0x40 MLOAD PUSH32 0x8C379A000000000000000000000000000000000000000000000000000000000 DUP2 MSTORE PUSH1 0x4 ADD PUSH2 0x10D0 SWAP1 PUSH2 0x2569 JUMP JUMPDEST PUSH1 0x40 MLOAD DUP1 SWAP2 SUB SWAP1 REVERT JUMPDEST DUP2 PUSH32 0x0 PUSH20 0xFFFFFFFFFFFFFFFFFFFFFFFFFFFFFFFFFFFFFFFF AND PUSH3 0xFDD58E ADDRESS DUP7 PUSH1 0x40 MLOAD DUP4 PUSH4 0xFFFFFFFF AND PUSH1 0xE0 SHL DUP2 MSTORE PUSH1 0x4 ADD PUSH2 0x1134 SWAP3 SWAP2 SWAP1 PUSH2 0x2338 JUMP JUMPDEST PUSH1 0x20 PUSH1 0x40 MLOAD DUP1 DUP4 SUB DUP2 DUP7 GAS STATICCALL ISZERO DUP1 ISZERO PUSH2 0x114F JUMPI RETURNDATASIZE PUSH0 PUSH0 RETURNDATACOPY RETURNDATASIZE PUSH0 REVERT JUMPDEST POP POP POP POP PUSH1 0x40 MLOAD RETURNDATASIZE PUSH1 0x1F NOT PUSH1 0x1F DUP3 ADD AND DUP3 ADD DUP1 PUSH1 0x40 MSTORE POP DUP2 ADD SWAP1 PUSH2 0x1173 SWAP2 SWAP1 PUSH2 0x2373 JUMP JUMPDEST LT ISZERO PUSH2 0x11B4 JUMPI PUSH1 0x40 MLOAD PUSH32 0x8C379A000000000000000000000000000000000000000000000000000000000 DUP2 MSTORE PUSH1 0x4 ADD PUSH2 0x11AB SWAP1 PUSH2 0x25D1 JUMP JUMPDEST PUSH1 0x40 MLOAD DUP1 SWAP2 SUB SWAP1 REVERT JUMPDEST PUSH0 PUSH1 0x4 PUSH0 DUP9 DUP2 MSTORE PUSH1 0x20 ADD SWAP1 DUP2 MSTORE PUSH1 0x20 ADD PUSH0 KECCAK256 PUSH0 DUP10 PUSH20 0xFFFFFFFFFFFFFFFFFFFFFFFFFFFFFFFFFFFFFFFF AND PUSH20 0xFFFFFFFFFFFFFFFFFFFFFFFFFFFFFFFFFFFFFFFF AND DUP2 MSTORE PUSH1 0x20 ADD SWAP1 DUP2 MSTORE PUSH1 0x20 ADD PUSH0 KECCAK256 SWAP1 POP PUSH0 DUP7 DUP3 PUSH1 0x3 ADD SLOAD PUSH2 0x1214 SWAP2 SWAP1 PUSH2 0x20D9 JUMP JUMPDEST SWAP1 POP PUSH0 PUSH2 0x2710 PUSH1 0x64 DUP4 PUSH2 0x1227 SWAP2 SWAP1 PUSH2 0x20D9 JUMP JUMPDEST PUSH2 0x1231 SWAP2 SWAP1 PUSH2 0x2147 JUMP JUMPDEST SWAP1 POP PUSH0 DUP2 DUP4 PUSH2 0x1240 SWAP2 SWAP1 PUSH2 0x25EF JUMP JUMPDEST SWAP1 POP PUSH2 0x12B0 CALLER PUSH1 0x3 PUSH0 SWAP1 SLOAD SWAP1 PUSH2 0x100 EXP SWAP1 DIV PUSH20 0xFFFFFFFFFFFFFFFFFFFFFFFFFFFFFFFFFFFFFFFF AND DUP5 PUSH32 0x0 PUSH20 0xFFFFFFFFFFFFFFFFFFFFFFFFFFFFFFFFFFFFFFFF AND PUSH2 0x1578 SWAP1 SWAP4 SWAP3 SWAP2 SWAP1 PUSH4 0xFFFFFFFF AND JUMP JUMPDEST PUSH2 0x12FD CALLER DUP13 DUP4 PUSH32 0x0 PUSH20 0xFFFFFFFFFFFFFFFFFFFFFFFFFFFFFFFFFFFFFFFF AND PUSH2 0x1578 SWAP1 SWAP4 SWAP3 SWAP2 SWAP1 PUSH4 0xFFFFFFFF AND JUMP JUMPDEST PUSH32 0x0 PUSH20 0xFFFFFFFFFFFFFFFFFFFFFFFFFFFFFFFFFFFFFFFF AND PUSH4 0xF242432A ADDRESS CALLER DUP14 DUP14 PUSH1 0x40 MLOAD DUP6 PUSH4 0xFFFFFFFF AND PUSH1 0xE0 SHL DUP2 MSTORE PUSH1 0x4 ADD PUSH2 0x135C SWAP5 SWAP4 SWAP3 SWAP2 SWAP1 PUSH2 0x21AA JUMP JUMPDEST PUSH0 PUSH1 0x40 MLOAD DUP1 DUP4 SUB DUP2 PUSH0 DUP8 DUP1 EXTCODESIZE ISZERO DUP1 ISZERO PUSH2 0x1373 JUMPI PUSH0 PUSH0 REVERT JUMPDEST POP GAS CALL ISZERO DUP1 ISZERO PUSH2 0x1385 JUMPI RETURNDATASIZE PUSH0 PUSH0 RETURNDATACOPY RETURNDATASIZE PUSH0 REVERT JUMPDEST POP POP POP POP DUP9 DUP5 PUSH1 0x2 ADD PUSH0 DUP3 DUP3 SLOAD PUSH2 0x139C SWAP2 SWAP1 PUSH2 0x25EF JUMP JUMPDEST SWAP3 POP POP DUP2 SWAP1 SSTORE POP PUSH0 DUP5 PUSH1 0x2 ADD SLOAD SUB PUSH2 0x143F JUMPI PUSH1 0x4 PUSH0 DUP12 DUP2 MSTORE PUSH1 0x20 ADD SWAP1 DUP2 MSTORE PUSH1 0x20 ADD PUSH0 KECCAK256 PUSH0 DUP13 PUSH20 0xFFFFFFFFFFFFFFFFFFFFFFFFFFFFFFFFFFFFFFFF AND PUSH20 0xFFFFFFFFFFFFFFFFFFFFFFFFFFFFFFFFFFFFFFFF AND DUP2 MSTORE PUSH1 0x20 ADD SWAP1 DUP2 MSTORE PUSH1 0x20 ADD PUSH0 KECCAK256 PUSH0 PUSH0 DUP3 ADD PUSH0 PUSH2 0x100 EXP DUP2 SLOAD SWAP1 PUSH20 0xFFFFFFFFFFFFFFFFFFFFFFFFFFFFFFFFFFFFFFFF MUL NOT AND SWAP1 SSTORE PUSH1 0x1 DUP3 ADD PUSH0 SWAP1 SSTORE PUSH1 0x2 DUP3 ADD PUSH0 SWAP1 SSTORE PUSH1 0x3 DUP3 ADD PUSH0 SWAP1 SSTORE PUSH1 0x4 DUP3 ADD PUSH0 SWAP1 SSTORE POP POP JUMPDEST DUP10 CALLER PUSH20 0xFFFFFFFFFFFFFFFFFFFFFFFFFFFFFFFFFFFFFFFF AND DUP13 PUSH20 0xFFFFFFFFFFFFFFFFFFFFFFFFFFFFFFFFFFFFFFFF AND PUSH32 0xB0ED544BAE4FA3CF334880B24A3BA38B9FDB5B90E8FD5F8905922D6744058FD6 DUP13 DUP9 PUSH1 0x3 ADD SLOAD DUP8 PUSH1 0x40 MLOAD PUSH2 0x14A5 SWAP4 SWAP3 SWAP2 SWAP1 PUSH2 0x24EA JUMP JUMPDEST PUSH1 0x40 MLOAD DUP1 SWAP2 SUB SWAP1 LOG4 POP POP POP POP POP POP POP POP PUSH2 0x14BD PUSH2 0x15FA JUMP JUMPDEST POP POP POP JUMP JUMPDEST PUSH0 PUSH32 0x1FFC9A700000000000000000000000000000000000000000000000000000000 PUSH28 0xFFFFFFFFFFFFFFFFFFFFFFFFFFFFFFFFFFFFFFFFFFFFFFFFFFFFFFFF NOT AND DUP3 PUSH28 0xFFFFFFFFFFFFFFFFFFFFFFFFFFFFFFFFFFFFFFFFFFFFFFFFFFFFFFFF NOT AND EQ SWAP1 POP SWAP2 SWAP1 POP JUMP JUMPDEST PUSH1 0x2 DUP1 SLOAD SUB PUSH2 0x156F JUMPI PUSH1 0x40 MLOAD PUSH32 0x8C379A000000000000000000000000000000000000000000000000000000000 DUP2 MSTORE PUSH1 0x4 ADD PUSH2 0x1566 SWAP1 PUSH2 0x266C JUMP JUMPDEST PUSH1 0x40 MLOAD DUP1 SWAP2 SUB SWAP1 REVERT JUMPDEST PUSH1 0x2 DUP1 DUP2 SWAP1 SSTORE POP JUMP JUMPDEST PUSH2 0x15F4 DUP5 DUP6 PUSH20 0xFFFFFFFFFFFFFFFFFFFFFFFFFFFFFFFFFFFFFFFF AND PUSH4 0x23B872DD DUP7 DUP7 DUP7 PUSH1 0x40 MLOAD PUSH1 0x24 ADD PUSH2 0x15AD SWAP4 SWAP3 SWAP2 SWAP1 PUSH2 0x268A JUMP JUMPDEST PUSH1 0x40 MLOAD PUSH1 0x20 DUP2 DUP4 SUB SUB DUP2 MSTORE SWAP1 PUSH1 0x40 MSTORE SWAP2 POP PUSH1 0xE0 SHL PUSH1 0x20 DUP3 ADD DUP1 MLOAD PUSH28 0xFFFFFFFFFFFFFFFFFFFFFFFFFFFFFFFFFFFFFFFFFFFFFFFFFFFFFFFF DUP4 DUP2 DUP4 AND OR DUP4 MSTORE POP POP POP POP PUSH2 0x1741 JUMP JUMPDEST POP POP POP POP JUMP JUMPDEST PUSH1 0x1 PUSH1 0x2 DUP2 SWAP1 SSTORE POP JUMP JUMPDEST PUSH2 0x160C PUSH2 0x16BB JUMP JUMPDEST PUSH20 0xFFFFFFFFFFFFFFFFFFFFFFFFFFFFFFFFFFFFFFFF AND PUSH2 0x162A PUSH2 0x851 JUMP JUMPDEST PUSH20 0xFFFFFFFFFFFFFFFFFFFFFFFFFFFFFFFFFFFFFFFF AND EQ PUSH2 0x1689 JUMPI PUSH2 0x164D PUSH2 0x16BB JUMP JUMPDEST PUSH1 0x40 MLOAD PUSH32 0x118CDAA700000000000000000000000000000000000000000000000000000000 DUP2 MSTORE PUSH1 0x4 ADD PUSH2 0x1680 SWAP2 SWAP1 PUSH2 0x1A72 JUMP JUMPDEST PUSH1 0x40 MLOAD DUP1 SWAP2 SUB SWAP1 REVERT JUMPDEST JUMP JUMPDEST PUSH1 0x1 PUSH0 PUSH2 0x100 EXP DUP2 SLOAD SWAP1 PUSH20 0xFFFFFFFFFFFFFFFFFFFFFFFFFFFFFFFFFFFFFFFF MUL NOT AND SWAP1 SSTORE PUSH2 0x16B8 DUP2 PUSH2 0x17DC JUMP JUMPDEST POP JUMP JUMPDEST PUSH0 CALLER SWAP1 POP SWAP1 JUMP JUMPDEST PUSH2 0x173C DUP4 DUP5 PUSH20 0xFFFFFFFFFFFFFFFFFFFFFFFFFFFFFFFFFFFFFFFF AND PUSH4 0xA9059CBB DUP6 DUP6 PUSH1 0x40 MLOAD PUSH1 0x24 ADD PUSH2 0x16F5 SWAP3 SWAP2 SWAP1 PUSH2 0x2338 JUMP JUMPDEST PUSH1 0x40 MLOAD PUSH1 0x20 DUP2 DUP4 SUB SUB DUP2 MSTORE SWAP1 PUSH1 0x40 MSTORE SWAP2 POP PUSH1 0xE0 SHL PUSH1 0x20 DUP3 ADD DUP1 MLOAD PUSH28 0xFFFFFFFFFFFFFFFFFFFFFFFFFFFFFFFFFFFFFFFFFFFFFFFFFFFFFFFF DUP4 DUP2 DUP4 AND OR DUP4 MSTORE POP POP POP POP PUSH2 0x1741 JUMP JUMPDEST POP POP POP JUMP JUMPDEST PUSH0 PUSH0 PUSH1 0x20 PUSH0 DUP5 MLOAD PUSH1 0x20 DUP7 ADD PUSH0 DUP9 GAS CALL DUP1 PUSH2 0x1760 JUMPI PUSH1 0x40 MLOAD RETURNDATASIZE PUSH0 DUP3 RETURNDATACOPY RETURNDATASIZE DUP2 REVERT JUMPDEST RETURNDATASIZE SWAP3 POP PUSH0 MLOAD SWAP2 POP POP PUSH0 DUP3 EQ PUSH2 0x1779 JUMPI PUSH1 0x1 DUP2 EQ ISZERO PUSH2 0x1794 JUMP JUMPDEST PUSH0 DUP5 PUSH20 0xFFFFFFFFFFFFFFFFFFFFFFFFFFFFFFFFFFFFFFFF AND EXTCODESIZE EQ JUMPDEST ISZERO PUSH2 0x17D6 JUMPI DUP4 PUSH1 0x40 MLOAD PUSH32 0x5274AFE700000000000000000000000000000000000000000000000000000000 DUP2 MSTORE PUSH1 0x4 ADD PUSH2 0x17CD SWAP2 SWAP1 PUSH2 0x1A72 JUMP JUMPDEST PUSH1 0x40 MLOAD DUP1 SWAP2 SUB SWAP1 REVERT JUMPDEST POP POP POP POP JUMP JUMPDEST PUSH0 PUSH0 PUSH0 SWAP1 SLOAD SWAP1 PUSH2 0x100 EXP SWAP1 DIV PUSH20 0xFFFFFFFFFFFFFFFFFFFFFFFFFFFFFFFFFFFFFFFF AND SWAP1 POP DUP2 PUSH0 PUSH0 PUSH2 0x100 EXP DUP2 SLOAD DUP2 PUSH20 0xFFFFFFFFFFFFFFFFFFFFFFFFFFFFFFFFFFFFFFFF MUL NOT AND SWAP1 DUP4 PUSH20 0xFFFFFFFFFFFFFFFFFFFFFFFFFFFFFFFFFFFFFFFF AND MUL OR SWAP1 SSTORE POP DUP2 PUSH20 0xFFFFFFFFFFFFFFFFFFFFFFFFFFFFFFFFFFFFFFFF AND DUP2 PUSH20 0xFFFFFFFFFFFFFFFFFFFFFFFFFFFFFFFFFFFFFFFF AND PUSH32 0x8BE0079C531659141344CD1FD0A4F28419497F9722A3DAAFE3B4186F6B6457E0 PUSH1 0x40 MLOAD PUSH1 0x40 MLOAD DUP1 SWAP2 SUB SWAP1 LOG3 POP POP JUMP JUMPDEST PUSH0 PUSH1 0x40 MLOAD SWAP1 POP SWAP1 JUMP JUMPDEST PUSH0 PUSH0 REVERT JUMPDEST PUSH0 PUSH0 REVERT JUMPDEST PUSH0 PUSH32 0xFFFFFFFF00000000000000000000000000000000000000000000000000000000 DUP3 AND SWAP1 POP SWAP2 SWAP1 POP JUMP JUMPDEST PUSH2 0x18E2 DUP2 PUSH2 0x18AE JUMP JUMPDEST DUP2 EQ PUSH2 0x18EC JUMPI PUSH0 PUSH0 REVERT JUMPDEST POP JUMP JUMPDEST PUSH0 DUP2 CALLDATALOAD SWAP1 POP PUSH2 0x18FD DUP2 PUSH2 0x18D9 JUMP JUMPDEST SWAP3 SWAP2 POP POP JUMP JUMPDEST PUSH0 PUSH1 0x20 DUP3 DUP5 SUB SLT ISZERO PUSH2 0x1918 JUMPI PUSH2 0x1917 PUSH2 0x18A6 JUMP JUMPDEST JUMPDEST PUSH0 PUSH2 0x1925 DUP5 DUP3 DUP6 ADD PUSH2 0x18EF JUMP JUMPDEST SWAP2 POP POP SWAP3 SWAP2 POP POP JUMP JUMPDEST PUSH0 DUP2 ISZERO ISZERO SWAP1 POP SWAP2 SWAP1 POP JUMP JUMPDEST PUSH2 0x1942 DUP2 PUSH2 0x192E JUMP JUMPDEST DUP3 MSTORE POP POP JUMP JUMPDEST PUSH0 PUSH1 0x20 DUP3 ADD SWAP1 POP PUSH2 0x195B PUSH0 DUP4 ADD DUP5 PUSH2 0x1939 JUMP JUMPDEST SWAP3 SWAP2 POP POP JUMP JUMPDEST PUSH0 DUP2 SWAP1 POP SWAP2 SWAP1 POP JUMP JUMPDEST PUSH2 0x1973 DUP2 PUSH2 0x1961 JUMP JUMPDEST DUP2 EQ PUSH2 0x197D JUMPI PUSH0 PUSH0 REVERT JUMPDEST POP JUMP JUMPDEST PUSH0 DUP2 CALLDATALOAD SWAP1 POP PUSH2 0x198E DUP2 PUSH2 0x196A JUMP JUMPDEST SWAP3 SWAP2 POP POP JUMP JUMPDEST PUSH0 PUSH1 0x20 DUP3 DUP5 SUB SLT ISZERO PUSH2 0x19A9 JUMPI PUSH2 0x19A8 PUSH2 0x18A6 JUMP JUMPDEST JUMPDEST PUSH0 PUSH2 0x19B6 DUP5 DUP3 DUP6 ADD PUSH2 0x1980 JUMP JUMPDEST SWAP2 POP POP SWAP3 SWAP2 POP POP JUMP JUMPDEST PUSH0 PUSH20 0xFFFFFFFFFFFFFFFFFFFFFFFFFFFFFFFFFFFFFFFF DUP3 AND SWAP1 POP SWAP2 SWAP1 POP JUMP JUMPDEST PUSH0 DUP2 SWAP1 POP SWAP2 SWAP1 POP JUMP JUMPDEST PUSH0 PUSH2 0x1A01 PUSH2 0x19FC PUSH2 0x19F7 DUP5 PUSH2 0x19BF JUMP JUMPDEST PUSH2 0x19DE JUMP JUMPDEST PUSH2 0x19BF JUMP JUMPDEST SWAP1 POP SWAP2 SWAP1 POP JUMP JUMPDEST PUSH0 PUSH2 0x1A12 DUP3 PUSH2 0x19E7 JUMP JUMPDEST SWAP1 POP SWAP2 SWAP1 POP JUMP JUMPDEST PUSH0 PUSH2 0x1A23 DUP3 PUSH2 0x1A08 JUMP JUMPDEST SWAP1 POP SWAP2 SWAP1 POP JUMP JUMPDEST PUSH2 0x1A33 DUP2 PUSH2 0x1A19 JUMP JUMPDEST DUP3 MSTORE POP POP JUMP JUMPDEST PUSH0 PUSH1 0x20 DUP3 ADD SWAP1 POP PUSH2 0x1A4C PUSH0 DUP4 ADD DUP5 PUSH2 0x1A2A JUMP JUMPDEST SWAP3 SWAP2 POP POP JUMP JUMPDEST PUSH0 PUSH2 0x1A5C DUP3 PUSH2 0x19BF JUMP JUMPDEST SWAP1 POP SWAP2 SWAP1 POP JUMP JUMPDEST PUSH2 0x1A6C DUP2 PUSH2 0x1A52 JUMP JUMPDEST DUP3 MSTORE POP POP JUMP JUMPDEST PUSH0 PUSH1 0x20 DUP3 ADD SWAP1 POP PUSH2 0x1A85 PUSH0 DUP4 ADD DUP5 PUSH2 0x1A63 JUMP JUMPDEST SWAP3 SWAP2 POP POP JUMP JUMPDEST PUSH2 0x1A94 DUP2 PUSH2 0x1A52 JUMP JUMPDEST DUP2 EQ PUSH2 0x1A9E JUMPI PUSH0 PUSH0 REVERT JUMPDEST POP JUMP JUMPDEST PUSH0 DUP2 CALLDATALOAD SWAP1 POP PUSH2 0x1AAF DUP2 PUSH2 0x1A8B JUMP JUMPDEST SWAP3 SWAP2 POP POP JUMP JUMPDEST PUSH0 PUSH1 0x20 DUP3 DUP5 SUB SLT ISZERO PUSH2 0x1ACA JUMPI PUSH2 0x1AC9 PUSH2 0x18A6 JUMP JUMPDEST JUMPDEST PUSH0 PUSH2 0x1AD7 DUP5 DUP3 DUP6 ADD PUSH2 0x1AA1 JUMP JUMPDEST SWAP2 POP POP SWAP3 SWAP2 POP POP JUMP JUMPDEST PUSH0 PUSH0 PUSH1 0x40 DUP4 DUP6 SUB SLT ISZERO PUSH2 0x1AF6 JUMPI PUSH2 0x1AF5 PUSH2 0x18A6 JUMP JUMPDEST JUMPDEST PUSH0 PUSH2 0x1B03 DUP6 DUP3 DUP7 ADD PUSH2 0x1980 JUMP JUMPDEST SWAP3 POP POP PUSH1 0x20 PUSH2 0x1B14 DUP6 DUP3 DUP7 ADD PUSH2 0x1AA1 JUMP JUMPDEST SWAP2 POP POP SWAP3 POP SWAP3 SWAP1 POP JUMP JUMPDEST PUSH2 0x1B27 DUP2 PUSH2 0x1961 JUMP JUMPDEST DUP3 MSTORE POP POP JUMP JUMPDEST PUSH0 PUSH1 0xA0 DUP3 ADD SWAP1 POP PUSH2 0x1B40 PUSH0 DUP4 ADD DUP9 PUSH2 0x1A63 JUMP JUMPDEST PUSH2 0x1B4D PUSH1 0x20 DUP4 ADD DUP8 PUSH2 0x1B1E JUMP JUMPDEST PUSH2 0x1B5A PUSH1 0x40 DUP4 ADD DUP7 PUSH2 0x1B1E JUMP JUMPDEST PUSH2 0x1B67 PUSH1 0x60 DUP4 ADD DUP6 PUSH2 0x1B1E JUMP JUMPDEST PUSH2 0x1B74 PUSH1 0x80 DUP4 ADD DUP5 PUSH2 0x1B1E JUMP JUMPDEST SWAP7 SWAP6 POP POP POP POP POP POP JUMP JUMPDEST PUSH0 PUSH0 PUSH1 0x40 DUP4 DUP6 SUB SLT ISZERO PUSH2 0x1B94 JUMPI PUSH2 0x1B93 PUSH2 0x18A6 JUMP JUMPDEST JUMPDEST PUSH0 PUSH2 0x1BA1 DUP6 DUP3 DUP7 ADD PUSH2 0x1AA1 JUMP JUMPDEST SWAP3 POP POP PUSH1 0x20 PUSH2 0x1BB2 DUP6 DUP3 DUP7 ADD PUSH2 0x1980 JUMP JUMPDEST SWAP2 POP POP SWAP3 POP SWAP3 SWAP1 POP JUMP JUMPDEST PUSH0 PUSH1 0x20 DUP3 ADD SWAP1 POP PUSH2 0x1BCF PUSH0 DUP4 ADD DUP5 PUSH2 0x1B1E JUMP JUMPDEST SWAP3 SWAP2 POP POP JUMP JUMPDEST PUSH0 PUSH0 REVERT JUMPDEST PUSH0 PUSH1 0x1F NOT PUSH1 0x1F DUP4 ADD AND SWAP1 POP SWAP2 SWAP1 POP JUMP JUMPDEST PUSH32 0x4E487B7100000000000000000000000000000000000000000000000000000000 PUSH0 MSTORE PUSH1 0x41 PUSH1 0x4 MSTORE PUSH1 0x24 PUSH0 REVERT JUMPDEST PUSH2 0x1C1F DUP3 PUSH2 0x1BD9 JUMP JUMPDEST DUP2 ADD DUP2 DUP2 LT PUSH8 0xFFFFFFFFFFFFFFFF DUP3 GT OR ISZERO PUSH2 0x1C3E JUMPI PUSH2 0x1C3D PUSH2 0x1BE9 JUMP JUMPDEST JUMPDEST DUP1 PUSH1 0x40 MSTORE POP POP POP JUMP JUMPDEST PUSH0 PUSH2 0x1C50 PUSH2 0x189D JUMP JUMPDEST SWAP1 POP PUSH2 0x1C5C DUP3 DUP3 PUSH2 0x1C16 JUMP JUMPDEST SWAP2 SWAP1 POP JUMP JUMPDEST PUSH0 PUSH8 0xFFFFFFFFFFFFFFFF DUP3 GT ISZERO PUSH2 0x1C7B JUMPI PUSH2 0x1C7A PUSH2 0x1BE9 JUMP JUMPDEST JUMPDEST PUSH1 0x20 DUP3 MUL SWAP1 POP PUSH1 0x20 DUP2 ADD SWAP1 POP SWAP2 SWAP1 POP JUMP JUMPDEST PUSH0 PUSH0 REVERT JUMPDEST PUSH0 PUSH2 0x1CA2 PUSH2 0x1C9D DUP5 PUSH2 0x1C61 JUMP JUMPDEST PUSH2 0x1C47 JUMP JUMPDEST SWAP1 POP DUP1 DUP4 DUP3 MSTORE PUSH1 0x20 DUP3 ADD SWAP1 POP PUSH1 0x20 DUP5 MUL DUP4 ADD DUP6 DUP2 GT ISZERO PUSH2 0x1CC5 JUMPI PUSH2 0x1CC4 PUSH2 0x1C8C JUMP JUMPDEST JUMPDEST DUP4 JUMPDEST DUP2 DUP2 LT ISZERO PUSH2 0x1CEE JUMPI DUP1 PUSH2 0x1CDA DUP9 DUP3 PUSH2 0x1980 JUMP JUMPDEST DUP5 MSTORE PUSH1 0x20 DUP5 ADD SWAP4 POP POP PUSH1 0x20 DUP2 ADD SWAP1 POP PUSH2 0x1CC7 JUMP JUMPDEST POP POP POP SWAP4 SWAP3 POP POP POP JUMP JUMPDEST PUSH0 DUP3 PUSH1 0x1F DUP4 ADD SLT PUSH2 0x1D0C JUMPI PUSH2 0x1D0B PUSH2 0x1BD5 JUMP JUMPDEST JUMPDEST DUP2 CALLDATALOAD PUSH2 0x1D1C DUP5 DUP3 PUSH1 0x20 DUP7 ADD PUSH2 0x1C90 JUMP JUMPDEST SWAP2 POP POP SWAP3 SWAP2 POP POP JUMP JUMPDEST PUSH0 PUSH0 REVERT JUMPDEST PUSH0 PUSH8 0xFFFFFFFFFFFFFFFF DUP3 GT ISZERO PUSH2 0x1D43 JUMPI PUSH2 0x1D42 PUSH2 0x1BE9 JUMP JUMPDEST JUMPDEST PUSH2 0x1D4C DUP3 PUSH2 0x1BD9 JUMP JUMPDEST SWAP1 POP PUSH1 0x20 DUP2 ADD SWAP1 POP SWAP2 SWAP1 POP JUMP JUMPDEST DUP3 DUP2 DUP4 CALLDATACOPY PUSH0 DUP4 DUP4 ADD MSTORE POP POP POP JUMP JUMPDEST PUSH0 PUSH2 0x1D79 PUSH2 0x1D74 DUP5 PUSH2 0x1D29 JUMP JUMPDEST PUSH2 0x1C47 JUMP JUMPDEST SWAP1 POP DUP3 DUP2 MSTORE PUSH1 0x20 DUP2 ADD DUP5 DUP5 DUP5 ADD GT ISZERO PUSH2 0x1D95 JUMPI PUSH2 0x1D94 PUSH2 0x1D25 JUMP JUMPDEST JUMPDEST PUSH2 0x1DA0 DUP5 DUP3 DUP6 PUSH2 0x1D59 JUMP JUMPDEST POP SWAP4 SWAP3 POP POP POP JUMP JUMPDEST PUSH0 DUP3 PUSH1 0x1F DUP4 ADD SLT PUSH2 0x1DBC JUMPI PUSH2 0x1DBB PUSH2 0x1BD5 JUMP JUMPDEST JUMPDEST DUP2 CALLDATALOAD PUSH2 0x1DCC DUP5 DUP3 PUSH1 0x20 DUP7 ADD PUSH2 0x1D67 JUMP JUMPDEST SWAP2 POP POP SWAP3 SWAP2 POP POP JUMP JUMPDEST PUSH0 PUSH0 PUSH0 PUSH0 PUSH0 PUSH1 0xA0 DUP7 DUP9 SUB SLT ISZERO PUSH2 0x1DEE JUMPI PUSH2 0x1DED PUSH2 0x18A6 JUMP JUMPDEST JUMPDEST PUSH0 PUSH2 0x1DFB DUP9 DUP3 DUP10 ADD PUSH2 0x1AA1 JUMP JUMPDEST SWAP6 POP POP PUSH1 0x20 PUSH2 0x1E0C DUP9 DUP3 DUP10 ADD PUSH2 0x1AA1 JUMP JUMPDEST SWAP5 POP POP PUSH1 0x40 DUP7 ADD CALLDATALOAD PUSH8 0xFFFFFFFFFFFFFFFF DUP2 GT ISZERO PUSH2 0x1E2D JUMPI PUSH2 0x1E2C PUSH2 0x18AA JUMP JUMPDEST JUMPDEST PUSH2 0x1E39 DUP9 DUP3 DUP10 ADD PUSH2 0x1CF8 JUMP JUMPDEST SWAP4 POP POP PUSH1 0x60 DUP7 ADD CALLDATALOAD PUSH8 0xFFFFFFFFFFFFFFFF DUP2 GT ISZERO PUSH2 0x1E5A JUMPI PUSH2 0x1E59 PUSH2 0x18AA JUMP JUMPDEST JUMPDEST PUSH2 0x1E66 DUP9 DUP3 DUP10 ADD PUSH2 0x1CF8 JUMP JUMPDEST SWAP3 POP POP PUSH1 0x80 DUP7 ADD CALLDATALOAD PUSH8 0xFFFFFFFFFFFFFFFF DUP2 GT ISZERO PUSH2 0x1E87 JUMPI PUSH2 0x1E86 PUSH2 0x18AA JUMP JUMPDEST JUMPDEST PUSH2 0x1E93 DUP9 DUP3 DUP10 ADD PUSH2 0x1DA8 JUMP JUMPDEST SWAP2 POP POP SWAP3 SWAP6 POP SWAP3 SWAP6 SWAP1 SWAP4 POP JUMP JUMPDEST PUSH2 0x1EA9 DUP2 PUSH2 0x18AE JUMP JUMPDEST DUP3 MSTORE POP POP JUMP JUMPDEST PUSH0 PUSH1 0x20 DUP3 ADD SWAP1 POP PUSH2 0x1EC2 PUSH0 DUP4 ADD DUP5 PUSH2 0x1EA0 JUMP JUMPDEST SWAP3 SWAP2 POP POP JUMP JUMPDEST PUSH0 PUSH2 0x1ED2 DUP3 PUSH2 0x1A08 JUMP JUMPDEST SWAP1 POP SWAP2 SWAP1 POP JUMP JUMPDEST PUSH2 0x1EE2 DUP2 PUSH2 0x1EC8 JUMP JUMPDEST DUP3 MSTORE POP POP JUMP JUMPDEST PUSH0 PUSH1 0x20 DUP3 ADD SWAP1 POP PUSH2 0x1EFB PUSH0 DUP4 ADD DUP5 PUSH2 0x1ED9 JUMP JUMPDEST SWAP3 SWAP2 POP POP JUMP JUMPDEST PUSH0 PUSH0 PUSH0 PUSH1 0x60 DUP5 DUP7 SUB SLT ISZERO PUSH2 0x1F18 JUMPI PUSH2 0x1F17 PUSH2 0x18A6 JUMP JUMPDEST JUMPDEST PUSH0 PUSH2 0x1F25 DUP7 DUP3 DUP8 ADD PUSH2 0x1980 JUMP JUMPDEST SWAP4 POP POP PUSH1 0x20 PUSH2 0x1F36 DUP7 DUP3 DUP8 ADD PUSH2 0x1980 JUMP JUMPDEST SWAP3 POP POP PUSH1 0x40 PUSH2 0x1F47 DUP7 DUP3 DUP8 ADD PUSH2 0x1980 JUMP JUMPDEST SWAP2 POP POP SWAP3 POP SWAP3 POP SWAP3 JUMP JUMPDEST PUSH0 PUSH0 PUSH0 PUSH0 PUSH0 PUSH1 0xA0 DUP7 DUP9 SUB SLT ISZERO PUSH2 0x1F6A JUMPI PUSH2 0x1F69 PUSH2 0x18A6 JUMP JUMPDEST JUMPDEST PUSH0 PUSH2 0x1F77 DUP9 DUP3 DUP10 ADD PUSH2 0x1AA1 JUMP JUMPDEST SWAP6 POP POP PUSH1 0x20 PUSH2 0x1F88 DUP9 DUP3 DUP10 ADD PUSH2 0x1AA1 JUMP JUMPDEST SWAP5 POP POP PUSH1 0x40 PUSH2 0x1F99 DUP9 DUP3 DUP10 ADD PUSH2 0x1980 JUMP JUMPDEST SWAP4 POP POP PUSH1 0x60 PUSH2 0x1FAA DUP9 DUP3 DUP10 ADD PUSH2 0x1980 JUMP JUMPDEST SWAP3 POP POP PUSH1 0x80 DUP7 ADD CALLDATALOAD PUSH8 0xFFFFFFFFFFFFFFFF DUP2 GT ISZERO PUSH2 0x1FCB JUMPI PUSH2 0x1FCA PUSH2 0x18AA JUMP JUMPDEST JUMPDEST PUSH2 0x1FD7 DUP9 DUP3 DUP10 ADD PUSH2 0x1DA8 JUMP JUMPDEST SWAP2 POP POP SWAP3 SWAP6 POP SWAP3 SWAP6 SWAP1 SWAP4 POP JUMP JUMPDEST PUSH0 PUSH0 PUSH0 PUSH1 0x60 DUP5 DUP7 SUB SLT ISZERO PUSH2 0x1FFB JUMPI PUSH2 0x1FFA PUSH2 0x18A6 JUMP JUMPDEST JUMPDEST PUSH0 PUSH2 0x2008 DUP7 DUP3 DUP8 ADD PUSH2 0x1AA1 JUMP JUMPDEST SWAP4 POP POP PUSH1 0x20 PUSH2 0x2019 DUP7 DUP3 DUP8 ADD PUSH2 0x1980 JUMP JUMPDEST SWAP3 POP POP PUSH1 0x40 PUSH2 0x202A DUP7 DUP3 DUP8 ADD PUSH2 0x1980 JUMP JUMPDEST SWAP2 POP POP SWAP3 POP SWAP3 POP SWAP3 JUMP JUMPDEST PUSH0 DUP3 DUP3 MSTORE PUSH1 0x20 DUP3 ADD SWAP1 POP SWAP3 SWAP2 POP POP JUMP JUMPDEST PUSH32 0x4E6F20616374697665206C697374696E67000000000000000000000000000000 PUSH0 DUP3 ADD MSTORE POP JUMP JUMPDEST PUSH0 PUSH2 0x2078 PUSH1 0x11 DUP4 PUSH2 0x2034 JUMP JUMPDEST SWAP2 POP PUSH2 0x2083 DUP3 PUSH2 0x2044 JUMP JUMPDEST PUSH1 0x20 DUP3 ADD SWAP1 POP SWAP2 SWAP1 POP JUMP JUMPDEST PUSH0 PUSH1 0x20 DUP3 ADD SWAP1 POP DUP2 DUP2 SUB PUSH0 DUP4 ADD MSTORE PUSH2 0x20A5 DUP2 PUSH2 0x206C JUMP JUMPDEST SWAP1 POP SWAP2 SWAP1 POP JUMP JUMPDEST PUSH32 0x4E487B7100000000000000000000000000000000000000000000000000000000 PUSH0 MSTORE PUSH1 0x11 PUSH1 0x4 MSTORE PUSH1 0x24 PUSH0 REVERT JUMPDEST PUSH0 PUSH2 0x20E3 DUP3 PUSH2 0x1961 JUMP JUMPDEST SWAP2 POP PUSH2 0x20EE DUP4 PUSH2 0x1961 JUMP JUMPDEST SWAP3 POP DUP3 DUP3 MUL PUSH2 0x20FC DUP2 PUSH2 0x1961 JUMP JUMPDEST SWAP2 POP DUP3 DUP3 DIV DUP5 EQ DUP4 ISZERO OR PUSH2 0x2113 JUMPI PUSH2 0x2112 PUSH2 0x20AC JUMP JUMPDEST JUMPDEST POP SWAP3 SWAP2 POP POP JUMP JUMPDEST PUSH32 0x4E487B7100000000000000000000000000000000000000000000000000000000 PUSH0 MSTORE PUSH1 0x12 PUSH1 0x4 MSTORE PUSH1 0x24 PUSH0 REVERT JUMPDEST PUSH0 PUSH2 0x2151 DUP3 PUSH2 0x1961 JUMP JUMPDEST SWAP2 POP PUSH2 0x215C DUP4 PUSH2 0x1961 JUMP JUMPDEST SWAP3 POP DUP3 PUSH2 0x216C JUMPI PUSH2 0x216B PUSH2 0x211A JUMP JUMPDEST JUMPDEST DUP3 DUP3 DIV SWAP1 POP SWAP3 SWAP2 POP POP JUMP JUMPDEST PUSH0 DUP3 DUP3 MSTORE PUSH1 0x20 DUP3 ADD SWAP1 POP SWAP3 SWAP2 POP POP JUMP JUMPDEST POP JUMP JUMPDEST PUSH0 PUSH2 0x2195 PUSH0 DUP4 PUSH2 0x2177 JUMP JUMPDEST SWAP2 POP PUSH2 0x21A0 DUP3 PUSH2 0x2187 JUMP JUMPDEST PUSH0 DUP3 ADD SWAP1 POP SWAP2 SWAP1 POP JUMP JUMPDEST PUSH0 PUSH1 0xA0 DUP3 ADD SWAP1 POP PUSH2 0x21BD PUSH0 DUP4 ADD DUP8 PUSH2 0x1A63 JUMP JUMPDEST PUSH2 0x21CA PUSH1 0x20 DUP4 ADD DUP7 PUSH2 0x1A63 JUMP JUMPDEST PUSH2 0x21D7 PUSH1 0x40 DUP4 ADD DUP6 PUSH2 0x1B1E JUMP JUMPDEST PUSH2 0x21E4 PUSH1 0x60 DUP4 ADD DUP5 PUSH2 0x1B1E JUMP JUMPDEST DUP2 DUP2 SUB PUSH1 0x80 DUP4 ADD MSTORE PUSH2 0x21F5 DUP2 PUSH2 0x218A JUMP JUMPDEST SWAP1 POP SWAP6 SWAP5 POP POP POP POP POP JUMP JUMPDEST PUSH32 0x496E76616C69642077616C6C6574000000000000000000000000000000000000 PUSH0 DUP3 ADD MSTORE POP JUMP JUMPDEST PUSH0 PUSH2 0x2234 PUSH1 0xE DUP4 PUSH2 0x2034 JUMP JUMPDEST SWAP2 POP PUSH2 0x223F DUP3 PUSH2 0x2200 JUMP JUMPDEST PUSH1 0x20 DUP3 ADD SWAP1 POP SWAP2 SWAP1 POP JUMP JUMPDEST PUSH0 PUSH1 0x20 DUP3 ADD SWAP1 POP DUP2 DUP2 SUB PUSH0 DUP4 ADD MSTORE PUSH2 0x2261 DUP2 PUSH2 0x2228 JUMP JUMPDEST SWAP1 POP SWAP2 SWAP1 POP JUMP JUMPDEST PUSH32 0x416D6F756E7420746F6F20736D616C6C00000000000000000000000000000000 PUSH0 DUP3 ADD MSTORE POP JUMP JUMPDEST PUSH0 PUSH2 0x229C PUSH1 0x10 DUP4 PUSH2 0x2034 JUMP JUMPDEST SWAP2 POP PUSH2 0x22A7 DUP3 PUSH2 0x2268 JUMP JUMPDEST PUSH1 0x20 DUP3 ADD SWAP1 POP SWAP2 SWAP1 POP JUMP JUMPDEST PUSH0 PUSH1 0x20 DUP3 ADD SWAP1 POP DUP2 DUP2 SUB PUSH0 DUP4 ADD MSTORE PUSH2 0x22C9 DUP2 PUSH2 0x2290 JUMP JUMPDEST SWAP1 POP SWAP2 SWAP1 POP JUMP JUMPDEST PUSH32 0x507269636520746F6F206C6F7700000000000000000000000000000000000000 PUSH0 DUP3 ADD MSTORE POP JUMP JUMPDEST PUSH0 PUSH2 0x2304 PUSH1 0xD DUP4 PUSH2 0x2034 JUMP JUMPDEST SWAP2 POP PUSH2 0x230F DUP3 PUSH2 0x22D0 JUMP JUMPDEST PUSH1 0x20 DUP3 ADD SWAP1 POP SWAP2 SWAP1 POP JUMP JUMPDEST PUSH0 PUSH1 0x20 DUP3 ADD SWAP1 POP DUP2 DUP2 SUB PUSH0 DUP4 ADD MSTORE PUSH2 0x2331 DUP2 PUSH2 0x22F8 JUMP JUMPDEST SWAP1 POP SWAP2 SWAP1 POP JUMP JUMPDEST PUSH0 PUSH1 0x40 DUP3 ADD SWAP1 POP PUSH2 0x234B PUSH0 DUP4 ADD DUP6 PUSH2 0x1A63 JUMP JUMPDEST PUSH2 0x2358 PUSH1 0x20 DUP4 ADD DUP5 PUSH2 0x1B1E JUMP JUMPDEST SWAP4 SWAP3 POP POP POP JUMP JUMPDEST PUSH0 DUP2 MLOAD SWAP1 POP PUSH2 0x236D DUP2 PUSH2 0x196A JUMP JUMPDEST SWAP3 SWAP2 POP POP JUMP JUMPDEST PUSH0 PUSH1 0x20 DUP3 DUP5 SUB SLT ISZERO PUSH2 0x2388 JUMPI PUSH2 0x2387 PUSH2 0x18A6 JUMP JUMPDEST JUMPDEST PUSH0 PUSH2 0x2395 DUP5 DUP3 DUP6 ADD PUSH2 0x235F JUMP JUMPDEST SWAP2 POP POP SWAP3 SWAP2 POP POP JUMP JUMPDEST PUSH32 0x496E73756666696369656E74204E46542062616C616E63650000000000000000 PUSH0 DUP3 ADD MSTORE POP JUMP JUMPDEST PUSH0 PUSH2 0x23D2 PUSH1 0x18 DUP4 PUSH2 0x2034 JUMP JUMPDEST SWAP2 POP PUSH2 0x23DD DUP3 PUSH2 0x239E JUMP JUMPDEST PUSH1 0x20 DUP3 ADD SWAP1 POP SWAP2 SWAP1 POP JUMP JUMPDEST PUSH0 PUSH1 0x20 DUP3 ADD SWAP1 POP DUP2 DUP2 SUB PUSH0 DUP4 ADD MSTORE PUSH2 0x23FF DUP2 PUSH2 0x23C6 JUMP JUMPDEST SWAP1 POP SWAP2 SWAP1 POP JUMP JUMPDEST PUSH0 PUSH1 0x40 DUP3 ADD SWAP1 POP PUSH2 0x2419 PUSH0 DUP4 ADD DUP6 PUSH2 0x1A63 JUMP JUMPDEST PUSH2 0x2426 PUSH1 0x20 DUP4 ADD DUP5 PUSH2 0x1A63 JUMP JUMPDEST SWAP4 SWAP3 POP POP POP JUMP JUMPDEST PUSH2 0x2436 DUP2 PUSH2 0x192E JUMP JUMPDEST DUP2 EQ PUSH2 0x2440 JUMPI PUSH0 PUSH0 REVERT JUMPDEST POP JUMP JUMPDEST PUSH0 DUP2 MLOAD SWAP1 POP PUSH2 0x2451 DUP2 PUSH2 0x242D JUMP JUMPDEST SWAP3 SWAP2 POP POP JUMP JUMPDEST PUSH0 PUSH1 0x20 DUP3 DUP5 SUB SLT ISZERO PUSH2 0x246C JUMPI PUSH2 0x246B PUSH2 0x18A6 JUMP JUMPDEST JUMPDEST PUSH0 PUSH2 0x2479 DUP5 DUP3 DUP6 ADD PUSH2 0x2443 JUMP JUMPDEST SWAP2 POP POP SWAP3 SWAP2 POP POP JUMP JUMPDEST PUSH32 0x4D61726B6574706C616365206E6F7420617070726F7665640000000000000000 PUSH0 DUP3 ADD MSTORE POP JUMP JUMPDEST PUSH0 PUSH2 0x24B6 PUSH1 0x18 DUP4 PUSH2 0x2034 JUMP JUMPDEST SWAP2 POP PUSH2 0x24C1 DUP3 PUSH2 0x2482 JUMP JUMPDEST PUSH1 0x20 DUP3 ADD SWAP1 POP SWAP2 SWAP1 POP JUMP JUMPDEST PUSH0 PUSH1 0x20 DUP3 ADD SWAP1 POP DUP2 DUP2 SUB PUSH0 DUP4 ADD MSTORE PUSH2 0x24E3 DUP2 PUSH2 0x24AA JUMP JUMPDEST SWAP1 POP SWAP2 SWAP1 POP JUMP JUMPDEST PUSH0 PUSH1 0x60 DUP3 ADD SWAP1 POP PUSH2 0x24FD PUSH0 DUP4 ADD DUP7 PUSH2 0x1B1E JUMP JUMPDEST PUSH2 0x250A PUSH1 0x20 DUP4 ADD DUP6 PUSH2 0x1B1E JUMP JUMPDEST PUSH2 0x2517 PUSH1 0x40 DUP4 ADD DUP5 PUSH2 0x1B1E JUMP JUMPDEST SWAP5 SWAP4 POP POP POP POP JUMP JUMPDEST PUSH32 0x496E73756666696369656E7420616D6F756E74206C6973746564000000000000 PUSH0 DUP3 ADD MSTORE POP JUMP JUMPDEST PUSH0 PUSH2 0x2553 PUSH1 0x1A DUP4 PUSH2 0x2034 JUMP JUMPDEST SWAP2 POP PUSH2 0x255E DUP3 PUSH2 0x251F JUMP JUMPDEST PUSH1 0x20 DUP3 ADD SWAP1 POP SWAP2 SWAP1 POP JUMP JUMPDEST PUSH0 PUSH1 0x20 DUP3 ADD SWAP1 POP DUP2 DUP2 SUB PUSH0 DUP4 ADD MSTORE PUSH2 0x2580 DUP2 PUSH2 0x2547 JUMP JUMPDEST SWAP1 POP SWAP2 SWAP1 POP JUMP JUMPDEST PUSH32 0x4E4654206E6F7420617661696C61626C6520696E20657363726F770000000000 PUSH0 DUP3 ADD MSTORE POP JUMP JUMPDEST PUSH0 PUSH2 0x25BB PUSH1 0x1B DUP4 PUSH2 0x2034 JUMP JUMPDEST SWAP2 POP PUSH2 0x25C6 DUP3 PUSH2 0x2587 JUMP JUMPDEST PUSH1 0x20 DUP3 ADD SWAP1 POP SWAP2 SWAP1 POP JUMP JUMPDEST PUSH0 PUSH1 0x20 DUP3 ADD SWAP1 POP DUP2 DUP2 SUB PUSH0 DUP4 ADD MSTORE PUSH2 0x25E8 DUP2 PUSH2 0x25AF JUMP JUMPDEST SWAP1 POP SWAP2 SWAP1 POP JUMP JUMPDEST PUSH0 PUSH2 0x25F9 DUP3 PUSH2 0x1961 JUMP JUMPDEST SWAP2 POP PUSH2 0x2604 DUP4 PUSH2 0x1961 JUMP JUMPDEST SWAP3 POP DUP3 DUP3 SUB SWAP1 POP DUP2 DUP2 GT ISZERO PUSH2 0x261C JUMPI PUSH2 0x261B PUSH2 0x20AC JUMP JUMPDEST JUMPDEST SWAP3 SWAP2 POP POP JUMP JUMPDEST PUSH32 0x5265656E7472616E637947756172643A207265656E7472616E742063616C6C00 PUSH0 DUP3 ADD MSTORE POP JUMP JUMPDEST PUSH0 PUSH2 0x2656 PUSH1 0x1F DUP4 PUSH2 0x2034 JUMP JUMPDEST SWAP2 POP PUSH2 0x2661 DUP3 PUSH2 0x2622 JUMP JUMPDEST PUSH1 0x20 DUP3 ADD SWAP1 POP SWAP2 SWAP1 POP JUMP JUMPDEST PUSH0 PUSH1 0x20 DUP3 ADD SWAP1 POP DUP2 DUP2 SUB PUSH0 DUP4 ADD MSTORE PUSH2 0x2683 DUP2 PUSH2 0x264A JUMP JUMPDEST SWAP1 POP SWAP2 SWAP1 POP JUMP JUMPDEST PUSH0 PUSH1 0x60 DUP3 ADD SWAP1 POP PUSH2 0x269D PUSH0 DUP4 ADD DUP7 PUSH2 0x1A63 JUMP JUMPDEST PUSH2 0x26AA PUSH1 0x20 DUP4 ADD DUP6 PUSH2 0x1A63 JUMP JUMPDEST PUSH2 0x26B7 PUSH1 0x40 DUP4 ADD DUP5 PUSH2 0x1B1E JUMP JUMPDEST SWAP5 SWAP4 POP POP POP POP JUMP INVALID LOG2 PUSH5 0x6970667358 0x22 SLT KECCAK256 RETURN TSTORE DIV 0xF PUSH21 0x21B0E14DC809C22332DC9524D3A0A9EAAF2342D148 0x2C CALLDATALOAD SHL SELFDESTRUCT SWAP13 ISZERO PUSH5 0x736F6C6343 STOP ADDMOD 0x1E STOP CALLER "
				},
				"gasEstimates": {
					"creation": {
						"codeDepositCost": "1994600",
						"executionCost": "infinite",
						"totalCost": "infinite"
					},
					"external": {
						"FEE_DENOMINATOR()": "370",
						"FEE_PERCENT()": "347",
						"MIN_AMOUNT()": "392",
						"MIN_PRICE()": "436",
						"acceptOwnership()": "54759",
						"buyItem(address,uint256,uint256)": "infinite",
						"cafiToken()": "infinite",
						"cancelListing(uint256)": "infinite",
						"carbonFiNFT()": "infinite",
						"emergencyWithdraw(address,uint256)": "infinite",
						"feeWallet()": "2596",
						"listItem(uint256,uint256,uint256)": "infinite",
						"listings(uint256,address)": "infinite",
						"onERC1155BatchReceived(address,address,uint256[],uint256[],bytes)": "infinite",
						"onERC1155Received(address,address,uint256,uint256,bytes)": "infinite",
						"owner()": "2537",
						"pendingOwner()": "2626",
						"renounceOwnership()": "infinite",
						"setFeeWallet(address)": "infinite",
						"supportsInterface(bytes4)": "741",
						"transferOwnership(address)": "infinite"
					}
				},
				"methodIdentifiers": {
					"FEE_DENOMINATOR()": "d73792a9",
					"FEE_PERCENT()": "eaf98d23",
					"MIN_AMOUNT()": "ddbcb5fa",
					"MIN_PRICE()": "ad9f20a6",
					"acceptOwnership()": "79ba5097",
					"buyItem(address,uint256,uint256)": "f6b45c46",
					"cafiToken()": "58a0bde3",
					"cancelListing(uint256)": "305a67a8",
					"carbonFiNFT()": "e215f1ca",
					"emergencyWithdraw(address,uint256)": "95ccea67",
					"feeWallet()": "f25f4b56",
					"listItem(uint256,uint256,uint256)": "ec16b94a",
					"listings(uint256,address)": "927fbfc8",
					"onERC1155BatchReceived(address,address,uint256[],uint256[],bytes)": "bc197c81",
					"onERC1155Received(address,address,uint256,uint256,bytes)": "f23a6e61",
					"owner()": "8da5cb5b",
					"pendingOwner()": "e30c3978",
					"renounceOwnership()": "715018a6",
					"setFeeWallet(address)": "90d49b9d",
					"supportsInterface(bytes4)": "01ffc9a7",
					"transferOwnership(address)": "f2fde38b"
				}
			},
			"storageLayout": {
				"storage": [
					{
						"astId": 8,
						"contract": "Carbonfi_Marketplace.sol:CarbonFiMarketplace",
						"label": "_owner",
						"offset": 0,
						"slot": "0",
						"type": "t_address"
					},
					{
						"astId": 156,
						"contract": "Carbonfi_Marketplace.sol:CarbonFiMarketplace",
						"label": "_pendingOwner",
						"offset": 0,
						"slot": "1",
						"type": "t_address"
					},
					{
						"astId": 334,
						"contract": "Carbonfi_Marketplace.sol:CarbonFiMarketplace",
						"label": "_status",
						"offset": 0,
						"slot": "2",
						"type": "t_uint256"
					},
					{
						"astId": 1280,
						"contract": "Carbonfi_Marketplace.sol:CarbonFiMarketplace",
						"label": "feeWallet",
						"offset": 0,
						"slot": "3",
						"type": "t_address"
					},
					{
						"astId": 1298,
						"contract": "Carbonfi_Marketplace.sol:CarbonFiMarketplace",
						"label": "listings",
						"offset": 0,
						"slot": "4",
						"type": "t_mapping(t_uint256,t_mapping(t_address,t_struct(Listing)1291_storage))"
					}
				],
				"types": {
					"t_address": {
						"encoding": "inplace",
						"label": "address",
						"numberOfBytes": "20"
					},
					"t_mapping(t_address,t_struct(Listing)1291_storage)": {
						"encoding": "mapping",
						"key": "t_address",
						"label": "mapping(address => struct CarbonFiMarketplace.Listing)",
						"numberOfBytes": "32",
						"value": "t_struct(Listing)1291_storage"
					},
					"t_mapping(t_uint256,t_mapping(t_address,t_struct(Listing)1291_storage))": {
						"encoding": "mapping",
						"key": "t_uint256",
						"label": "mapping(uint256 => mapping(address => struct CarbonFiMarketplace.Listing))",
						"numberOfBytes": "32",
						"value": "t_mapping(t_address,t_struct(Listing)1291_storage)"
					},
					"t_struct(Listing)1291_storage": {
						"encoding": "inplace",
						"label": "struct CarbonFiMarketplace.Listing",
						"members": [
							{
								"astId": 1282,
								"contract": "Carbonfi_Marketplace.sol:CarbonFiMarketplace",
								"label": "seller",
								"offset": 0,
								"slot": "0",
								"type": "t_address"
							},
							{
								"astId": 1284,
								"contract": "Carbonfi_Marketplace.sol:CarbonFiMarketplace",
								"label": "tokenId",
								"offset": 0,
								"slot": "1",
								"type": "t_uint256"
							},
							{
								"astId": 1286,
								"contract": "Carbonfi_Marketplace.sol:CarbonFiMarketplace",
								"label": "amount",
								"offset": 0,
								"slot": "2",
								"type": "t_uint256"
							},
							{
								"astId": 1288,
								"contract": "Carbonfi_Marketplace.sol:CarbonFiMarketplace",
								"label": "pricePerItem",
								"offset": 0,
								"slot": "3",
								"type": "t_uint256"
							},
							{
								"astId": 1290,
								"contract": "Carbonfi_Marketplace.sol:CarbonFiMarketplace",
								"label": "listingFeePaid",
								"offset": 0,
								"slot": "4",
								"type": "t_uint256"
							}
						],
						"numberOfBytes": "160"
					},
					"t_uint256": {
						"encoding": "inplace",
						"label": "uint256",
						"numberOfBytes": "32"
					}
				}
			},
			"userdoc": {
				"kind": "user",
				"methods": {
					"buyItem(address,uint256,uint256)": {
						"notice": "Buy NFTs with 1% transaction fee"
					},
					"cancelListing(uint256)": {
						"notice": "Cancel listing and refund proportional fee"
					},
					"listItem(uint256,uint256,uint256)": {
						"notice": "List NFTs with 1% listing fee of total value"
					}
				},
				"version": 1
			}
		}
	}
}