{
	"Presale.sol": {
		"CarbonFiPresale": {
			"abi": [
				{
					"inputs": [
						{
							"internalType": "address",
							"name": "_usdt",
							"type": "address"
						},
						{
							"internalType": "address",
							"name": "_cafi",
							"type": "address"
						},
						{
							"internalType": "address",
							"name": "_treasury",
							"type": "address"
						},
						{
							"internalType": "address",
							"name": "_initialOwner",
							"type": "address"
						}
					],
					"stateMutability": "nonpayable",
					"type": "constructor"
				},
				{
					"inputs": [
						{
							"internalType": "address",
							"name": "owner",
							"type": "address"
						}
					],
					"name": "OwnableInvalidOwner",
					"type": "error"
				},
				{
					"inputs": [
						{
							"internalType": "address",
							"name": "account",
							"type": "address"
						}
					],
					"name": "OwnableUnauthorizedAccount",
					"type": "error"
				},
				{
					"inputs": [
						{
							"internalType": "address",
							"name": "token",
							"type": "address"
						}
					],
					"name": "SafeERC20FailedOperation",
					"type": "error"
				},
				{
					"anonymous": false,
					"inputs": [
						{
							"indexed": true,
							"internalType": "address",
							"name": "previousOwner",
							"type": "address"
						},
						{
							"indexed": true,
							"internalType": "address",
							"name": "newOwner",
							"type": "address"
						}
					],
					"name": "OwnershipTransferStarted",
					"type": "event"
				},
				{
					"anonymous": false,
					"inputs": [
						{
							"indexed": true,
							"internalType": "address",
							"name": "previousOwner",
							"type": "address"
						},
						{
							"indexed": true,
							"internalType": "address",
							"name": "newOwner",
							"type": "address"
						}
					],
					"name": "OwnershipTransferred",
					"type": "event"
				},
				{
					"anonymous": false,
					"inputs": [
						{
							"indexed": false,
							"internalType": "uint256",
							"name": "totalSold",
							"type": "uint256"
						},
						{
							"indexed": false,
							"internalType": "uint256",
							"name": "remainingBalance",
							"type": "uint256"
						}
					],
					"name": "PresaleEnded",
					"type": "event"
				},
				{
					"anonymous": false,
					"inputs": [
						{
							"indexed": false,
							"internalType": "uint256",
							"name": "newStage",
							"type": "uint256"
						}
					],
					"name": "StageAdvanced",
					"type": "event"
				},
				{
					"anonymous": false,
					"inputs": [
						{
							"indexed": true,
							"internalType": "address",
							"name": "user",
							"type": "address"
						},
						{
							"indexed": false,
							"internalType": "uint256",
							"name": "amount",
							"type": "uint256"
						}
					],
					"name": "TokensClaimed",
					"type": "event"
				},
				{
					"anonymous": false,
					"inputs": [
						{
							"indexed": true,
							"internalType": "address",
							"name": "buyer",
							"type": "address"
						},
						{
							"indexed": false,
							"internalType": "uint256",
							"name": "amount",
							"type": "uint256"
						},
						{
							"indexed": false,
							"internalType": "uint256",
							"name": "usdtAmount",
							"type": "uint256"
						}
					],
					"name": "TokensPurchased",
					"type": "event"
				},
				{
					"inputs": [],
					"name": "MAX_BUY_PER_WALLET",
					"outputs": [
						{
							"internalType": "uint256",
							"name": "",
							"type": "uint256"
						}
					],
					"stateMutability": "view",
					"type": "function"
				},
				{
					"inputs": [],
					"name": "PRESALE_DURATION",
					"outputs": [
						{
							"internalType": "uint256",
							"name": "",
							"type": "uint256"
						}
					],
					"stateMutability": "view",
					"type": "function"
				},
				{
					"inputs": [],
					"name": "TOTAL_PRESALE_SUPPLY",
					"outputs": [
						{
							"internalType": "uint256",
							"name": "",
							"type": "uint256"
						}
					],
					"stateMutability": "view",
					"type": "function"
				},
				{
					"inputs": [],
					"name": "acceptOwnership",
					"outputs": [],
					"stateMutability": "nonpayable",
					"type": "function"
				},
				{
					"inputs": [
						{
							"internalType": "uint256",
							"name": "amount",
							"type": "uint256"
						}
					],
					"name": "buyTokens",
					"outputs": [],
					"stateMutability": "nonpayable",
					"type": "function"
				},
				{
					"inputs": [],
					"name": "cafi",
					"outputs": [
						{
							"internalType": "contract IERC20",
							"name": "",
							"type": "address"
						}
					],
					"stateMutability": "view",
					"type": "function"
				},
				{
					"inputs": [],
					"name": "claimTokens",
					"outputs": [],
					"stateMutability": "nonpayable",
					"type": "function"
				},
				{
					"inputs": [],
					"name": "currentStage",
					"outputs": [
						{
							"internalType": "uint256",
							"name": "",
							"type": "uint256"
						}
					],
					"stateMutability": "view",
					"type": "function"
				},
				{
					"inputs": [],
					"name": "endPresale",
					"outputs": [],
					"stateMutability": "nonpayable",
					"type": "function"
				},
				{
					"inputs": [],
					"name": "getCurrentStageInfo",
					"outputs": [
						{
							"internalType": "uint256",
							"name": "stage",
							"type": "uint256"
						},
						{
							"internalType": "uint256",
							"name": "price",
							"type": "uint256"
						},
						{
							"internalType": "uint256",
							"name": "available",
							"type": "uint256"
						},
						{
							"internalType": "uint256",
							"name": "sold",
							"type": "uint256"
						}
					],
					"stateMutability": "view",
					"type": "function"
				},
				{
					"inputs": [],
					"name": "getPresaleTimeLeft",
					"outputs": [
						{
							"internalType": "uint256",
							"name": "",
							"type": "uint256"
						}
					],
					"stateMutability": "view",
					"type": "function"
				},
				{
					"inputs": [],
					"name": "owner",
					"outputs": [
						{
							"internalType": "address",
							"name": "",
							"type": "address"
						}
					],
					"stateMutability": "view",
					"type": "function"
				},
				{
					"inputs": [],
					"name": "pendingOwner",
					"outputs": [
						{
							"internalType": "address",
							"name": "",
							"type": "address"
						}
					],
					"stateMutability": "view",
					"type": "function"
				},
				{
					"inputs": [],
					"name": "presaleEnded",
					"outputs": [
						{
							"internalType": "bool",
							"name": "",
							"type": "bool"
						}
					],
					"stateMutability": "view",
					"type": "function"
				},
				{
					"inputs": [],
					"name": "presaleStartTime",
					"outputs": [
						{
							"internalType": "uint256",
							"name": "",
							"type": "uint256"
						}
					],
					"stateMutability": "view",
					"type": "function"
				},
				{
					"inputs": [],
					"name": "renounceOwnership",
					"outputs": [],
					"stateMutability": "nonpayable",
					"type": "function"
				},
				{
					"inputs": [
						{
							"internalType": "uint256",
							"name": "",
							"type": "uint256"
						}
					],
					"name": "stages",
					"outputs": [
						{
							"internalType": "uint256",
							"name": "totalAmount",
							"type": "uint256"
						},
						{
							"internalType": "uint256",
							"name": "soldAmount",
							"type": "uint256"
						},
						{
							"internalType": "uint256",
							"name": "price",
							"type": "uint256"
						},
						{
							"internalType": "bool",
							"name": "isActive",
							"type": "bool"
						}
					],
					"stateMutability": "view",
					"type": "function"
				},
				{
					"inputs": [],
					"name": "startPresale",
					"outputs": [],
					"stateMutability": "nonpayable",
					"type": "function"
				},
				{
					"inputs": [],
					"name": "totalSold",
					"outputs": [
						{
							"internalType": "uint256",
							"name": "",
							"type": "uint256"
						}
					],
					"stateMutability": "view",
					"type": "function"
				},
				{
					"inputs": [
						{
							"internalType": "address",
							"name": "newOwner",
							"type": "address"
						}
					],
					"name": "transferOwnership",
					"outputs": [],
					"stateMutability": "nonpayable",
					"type": "function"
				},
				{
					"inputs": [],
					"name": "treasury",
					"outputs": [
						{
							"internalType": "address",
							"name": "",
							"type": "address"
						}
					],
					"stateMutability": "view",
					"type": "function"
				},
				{
					"inputs": [],
					"name": "usdt",
					"outputs": [
						{
							"internalType": "contract IERC20",
							"name": "",
							"type": "address"
						}
					],
					"stateMutability": "view",
					"type": "function"
				},
				{
					"inputs": [
						{
							"internalType": "address",
							"name": "",
							"type": "address"
						}
					],
					"name": "userPurchases",
					"outputs": [
						{
							"internalType": "uint256",
							"name": "",
							"type": "uint256"
						}
					],
					"stateMutability": "view",
					"type": "function"
				}
			],
			"devdoc": {
				"errors": {
					"OwnableInvalidOwner(address)": [
						{
							"details": "The owner is not a valid owner account. (eg. `address(0)`)"
						}
					],
					"OwnableUnauthorizedAccount(address)": [
						{
							"details": "The caller account is not authorized to perform an operation."
						}
					],
					"SafeERC20FailedOperation(address)": [
						{
							"details": "An operation with an ERC-20 token failed."
						}
					]
				},
				"kind": "dev",
				"methods": {
					"acceptOwnership()": {
						"details": "The new owner accepts the ownership transfer."
					},
					"owner()": {
						"details": "Returns the address of the current owner."
					},
					"pendingOwner()": {
						"details": "Returns the address of the pending owner."
					},
					"renounceOwnership()": {
						"details": "Leaves the contract without owner. It will not be possible to call `onlyOwner` functions. Can only be called by the current owner. NOTE: Renouncing ownership will leave the contract without an owner, thereby disabling any functionality that is only available to the owner."
					},
					"transferOwnership(address)": {
						"details": "Starts the ownership transfer of the contract to a new account. Replaces the pending transfer if there is one. Can only be called by the current owner. Setting `newOwner` to the zero address is allowed; this can be used to cancel an initiated ownership transfer."
					}
				},
				"version": 1
			},
			"evm": {
				"assembly": "    /* \"Presale.sol\":303:5729  contract CarbonFiPresale is Ownable2Step, ReentrancyGuard {... */\n  mstore(0x40, 0xe0)\n    /* \"Presale.sol\":1899:2520  constructor(... */\n  callvalue\n  dup1\n  iszero\n  tag_1\n  jumpi\n  revert(0x00, 0x00)\ntag_1:\n  pop\n  mload(0x40)\n  sub(codesize, bytecodeSize)\n  dup1\n  bytecodeSize\n  dup4\n  codecopy\n  dup2\n  dup2\n  add\n  0x40\n  mstore\n  dup2\n  add\n  swap1\n  tag_2\n  swap2\n  swap1\n  tag_3\n  jump\t// in\ntag_2:\n    /* \"Presale.sol\":2029:2042  _initialOwner */\n  dup1\n    /* \"@openzeppelin/contracts/access/Ownable.sol\":1297:1298  0 */\n  0x00\n    /* \"@openzeppelin/contracts/access/Ownable.sol\":1273:1299  initialOwner == address(0) */\n  0xffffffffffffffffffffffffffffffffffffffff\n  and\n    /* \"@openzeppelin/contracts/access/Ownable.sol\":1273:1285  initialOwner */\n  dup2\n    /* \"@openzeppelin/contracts/access/Ownable.sol\":1273:1299  initialOwner == address(0) */\n  0xffffffffffffffffffffffffffffffffffffffff\n  and\n  sub\n    /* \"@openzeppelin/contracts/access/Ownable.sol\":1269:1364  if (initialOwner == address(0)) {... */\n  tag_8\n  jumpi\n    /* \"@openzeppelin/contracts/access/Ownable.sol\":1350:1351  0 */\n  0x00\n    /* \"@openzeppelin/contracts/access/Ownable.sol\":1322:1353  OwnableInvalidOwner(address(0)) */\n  mload(0x40)\n  0x1e4fbdf700000000000000000000000000000000000000000000000000000000\n  dup2\n  mstore\n  0x04\n  add\n  tag_9\n  swap2\n  swap1\n  tag_10\n  jump\t// in\ntag_9:\n  mload(0x40)\n  dup1\n  swap2\n  sub\n  swap1\n  revert\n    /* \"@openzeppelin/contracts/access/Ownable.sol\":1269:1364  if (initialOwner == address(0)) {... */\ntag_8:\n    /* \"@openzeppelin/contracts/access/Ownable.sol\":1373:1405  _transferOwnership(initialOwner) */\n  tag_11\n    /* \"@openzeppelin/contracts/access/Ownable.sol\":1392:1404  initialOwner */\n  dup2\n    /* \"@openzeppelin/contracts/access/Ownable.sol\":1373:1391  _transferOwnership */\n  shl(0x20, tag_12)\n    /* \"@openzeppelin/contracts/access/Ownable.sol\":1373:1405  _transferOwnership(initialOwner) */\n  0x20\n  shr\n  jump\t// in\ntag_11:\n    /* \"@openzeppelin/contracts/access/Ownable.sol\":1225:1412  constructor(address initialOwner) {... */\n  pop\n    /* \"@openzeppelin/contracts/security/ReentrancyGuard.sol\":1716:1717  1 */\n  0x01\n    /* \"@openzeppelin/contracts/security/ReentrancyGuard.sol\":1821:1828  _status */\n  0x02\n    /* \"@openzeppelin/contracts/security/ReentrancyGuard.sol\":1821:1843  _status = _NOT_ENTERED */\n  dup2\n  swap1\n  sstore\n  pop\n    /* \"Presale.sol\":2079:2080  0 */\n  0x00\n    /* \"Presale.sol\":2062:2081  _usdt != address(0) */\n  0xffffffffffffffffffffffffffffffffffffffff\n  and\n    /* \"Presale.sol\":2062:2067  _usdt */\n  dup5\n    /* \"Presale.sol\":2062:2081  _usdt != address(0) */\n  0xffffffffffffffffffffffffffffffffffffffff\n  and\n  eq\n  iszero\n    /* \"Presale.sol\":2062:2104  _usdt != address(0) && _cafi != address(0) */\n  dup1\n  iszero\n  tag_15\n  jumpi\n  pop\n    /* \"Presale.sol\":2102:2103  0 */\n  0x00\n    /* \"Presale.sol\":2085:2104  _cafi != address(0) */\n  0xffffffffffffffffffffffffffffffffffffffff\n  and\n    /* \"Presale.sol\":2085:2090  _cafi */\n  dup4\n    /* \"Presale.sol\":2085:2104  _cafi != address(0) */\n  0xffffffffffffffffffffffffffffffffffffffff\n  and\n  eq\n  iszero\n    /* \"Presale.sol\":2062:2104  _usdt != address(0) && _cafi != address(0) */\ntag_15:\n    /* \"Presale.sol\":2062:2131  _usdt != address(0) && _cafi != address(0) && _treasury != address(0) */\n  dup1\n  iszero\n  tag_16\n  jumpi\n  pop\n    /* \"Presale.sol\":2129:2130  0 */\n  0x00\n    /* \"Presale.sol\":2108:2131  _treasury != address(0) */\n  0xffffffffffffffffffffffffffffffffffffffff\n  and\n    /* \"Presale.sol\":2108:2117  _treasury */\n  dup3\n    /* \"Presale.sol\":2108:2131  _treasury != address(0) */\n  0xffffffffffffffffffffffffffffffffffffffff\n  and\n  eq\n  iszero\n    /* \"Presale.sol\":2062:2131  _usdt != address(0) && _cafi != address(0) && _treasury != address(0) */\ntag_16:\n    /* \"Presale.sol\":2054:2154  require(_usdt != address(0) && _cafi != address(0) && _treasury != address(0), \"Alamat tidak valid\") */\n  tag_17\n  jumpi\n  mload(0x40)\n  0x08c379a000000000000000000000000000000000000000000000000000000000\n  dup2\n  mstore\n  0x04\n  add\n  tag_18\n  swap1\n  tag_19\n  jump\t// in\ntag_18:\n  mload(0x40)\n  dup1\n  swap2\n  sub\n  swap1\n  revert\ntag_17:\n    /* \"Presale.sol\":2187:2192  _usdt */\n  dup4\n    /* \"Presale.sol\":2173:2193  usdt = IERC20(_usdt) */\n  0xffffffffffffffffffffffffffffffffffffffff\n  and\n  0x80\n  dup2\n  0xffffffffffffffffffffffffffffffffffffffff\n  and\n  dup2\n  mstore\n  pop\n  pop\n    /* \"Presale.sol\":2217:2222  _cafi */\n  dup3\n    /* \"Presale.sol\":2203:2223  cafi = IERC20(_cafi) */\n  0xffffffffffffffffffffffffffffffffffffffff\n  and\n  0xa0\n  dup2\n  0xffffffffffffffffffffffffffffffffffffffff\n  and\n  dup2\n  mstore\n  pop\n  pop\n    /* \"Presale.sol\":2244:2253  _treasury */\n  dup2\n    /* \"Presale.sol\":2233:2253  treasury = _treasury */\n  0xffffffffffffffffffffffffffffffffffffffff\n  and\n  0xc0\n  dup2\n  0xffffffffffffffffffffffffffffffffffffffff\n  and\n  dup2\n  mstore\n  pop\n  pop\n    /* \"Presale.sol\":2288:2294  stages */\n  0x03\n    /* \"Presale.sol\":2300:2346  Stage(4_000_000 * 1e18, 0, 0.05 * 1e18, false) */\n  mload(0x40)\n  dup1\n  0x80\n  add\n  0x40\n  mstore\n  dup1\n    /* \"Presale.sol\":2306:2322  4_000_000 * 1e18 */\n  0x034f086f3b33b684000000\n    /* \"Presale.sol\":2300:2346  Stage(4_000_000 * 1e18, 0, 0.05 * 1e18, false) */\n  dup2\n  mstore\n  0x20\n  add\n    /* \"Presale.sol\":2324:2325  0 */\n  0x00\n    /* \"Presale.sol\":2300:2346  Stage(4_000_000 * 1e18, 0, 0.05 * 1e18, false) */\n  dup2\n  mstore\n  0x20\n  add\n    /* \"Presale.sol\":2327:2338  0.05 * 1e18 */\n  0xb1a2bc2ec50000\n    /* \"Presale.sol\":2300:2346  Stage(4_000_000 * 1e18, 0, 0.05 * 1e18, false) */\n  dup2\n  mstore\n  0x20\n  add\n    /* \"Presale.sol\":2340:2345  false */\n  0x00\n    /* \"Presale.sol\":2300:2346  Stage(4_000_000 * 1e18, 0, 0.05 * 1e18, false) */\n  iszero\n  iszero\n  dup2\n  mstore\n  pop\n    /* \"Presale.sol\":2288:2347  stages.push(Stage(4_000_000 * 1e18, 0, 0.05 * 1e18, false)) */\n  swap1\n  dup1\n  0x01\n  dup2\n  sload\n  add\n  dup1\n  dup3\n  sstore\n  dup1\n  swap2\n  pop\n  pop\n  0x01\n  swap1\n  sub\n  swap1\n  0x00\n  mstore\n  keccak256(0x00, 0x20)\n  swap1\n  0x04\n  mul\n  add\n  0x00\n  swap1\n  swap2\n  swap1\n  swap2\n  swap1\n  swap2\n  pop\n  0x00\n  dup3\n  add\n  mload\n  dup2\n  0x00\n  add\n  sstore\n  0x20\n  dup3\n  add\n  mload\n  dup2\n  0x01\n  add\n  sstore\n  0x40\n  dup3\n  add\n  mload\n  dup2\n  0x02\n  add\n  sstore\n  0x60\n  dup3\n  add\n  mload\n  dup2\n  0x03\n  add\n  exp(0x0100, 0x00)\n  dup2\n  sload\n  dup2\n  0xff\n  mul\n  not\n  and\n  swap1\n  dup4\n  iszero\n  iszero\n  mul\n  or\n  swap1\n  sstore\n  pop\n  pop\n  pop\n    /* \"Presale.sol\":2366:2372  stages */\n  0x03\n    /* \"Presale.sol\":2378:2425  Stage(3_000_000 * 1e18, 0, 0.075 * 1e18, false) */\n  mload(0x40)\n  dup1\n  0x80\n  add\n  0x40\n  mstore\n  dup1\n    /* \"Presale.sol\":2384:2400  3_000_000 * 1e18 */\n  0x027b46536c66c8e3000000\n    /* \"Presale.sol\":2378:2425  Stage(3_000_000 * 1e18, 0, 0.075 * 1e18, false) */\n  dup2\n  mstore\n  0x20\n  add\n    /* \"Presale.sol\":2402:2403  0 */\n  0x00\n    /* \"Presale.sol\":2378:2425  Stage(3_000_000 * 1e18, 0, 0.075 * 1e18, false) */\n  dup2\n  mstore\n  0x20\n  add\n    /* \"Presale.sol\":2405:2417  0.075 * 1e18 */\n  0x010a741a46278000\n    /* \"Presale.sol\":2378:2425  Stage(3_000_000 * 1e18, 0, 0.075 * 1e18, false) */\n  dup2\n  mstore\n  0x20\n  add\n    /* \"Presale.sol\":2419:2424  false */\n  0x00\n    /* \"Presale.sol\":2378:2425  Stage(3_000_000 * 1e18, 0, 0.075 * 1e18, false) */\n  iszero\n  iszero\n  dup2\n  mstore\n  pop\n    /* \"Presale.sol\":2366:2426  stages.push(Stage(3_000_000 * 1e18, 0, 0.075 * 1e18, false)) */\n  swap1\n  dup1\n  0x01\n  dup2\n  sload\n  add\n  dup1\n  dup3\n  sstore\n  dup1\n  swap2\n  pop\n  pop\n  0x01\n  swap1\n  sub\n  swap1\n  0x00\n  mstore\n  keccak256(0x00, 0x20)\n  swap1\n  0x04\n  mul\n  add\n  0x00\n  swap1\n  swap2\n  swap1\n  swap2\n  swap1\n  swap2\n  pop\n  0x00\n  dup3\n  add\n  mload\n  dup2\n  0x00\n  add\n  sstore\n  0x20\n  dup3\n  add\n  mload\n  dup2\n  0x01\n  add\n  sstore\n  0x40\n  dup3\n  add\n  mload\n  dup2\n  0x02\n  add\n  sstore\n  0x60\n  dup3\n  add\n  mload\n  dup2\n  0x03\n  add\n  exp(0x0100, 0x00)\n  dup2\n  sload\n  dup2\n  0xff\n  mul\n  not\n  and\n  swap1\n  dup4\n  iszero\n  iszero\n  mul\n  or\n  swap1\n  sstore\n  pop\n  pop\n  pop\n    /* \"Presale.sol\":2446:2452  stages */\n  0x03\n    /* \"Presale.sol\":2458:2503  Stage(3_000_000 * 1e18, 0, 0.1 * 1e18, false) */\n  mload(0x40)\n  dup1\n  0x80\n  add\n  0x40\n  mstore\n  dup1\n    /* \"Presale.sol\":2464:2480  3_000_000 * 1e18 */\n  0x027b46536c66c8e3000000\n    /* \"Presale.sol\":2458:2503  Stage(3_000_000 * 1e18, 0, 0.1 * 1e18, false) */\n  dup2\n  mstore\n  0x20\n  add\n    /* \"Presale.sol\":2482:2483  0 */\n  0x00\n    /* \"Presale.sol\":2458:2503  Stage(3_000_000 * 1e18, 0, 0.1 * 1e18, false) */\n  dup2\n  mstore\n  0x20\n  add\n    /* \"Presale.sol\":2485:2495  0.1 * 1e18 */\n  0x016345785d8a0000\n    /* \"Presale.sol\":2458:2503  Stage(3_000_000 * 1e18, 0, 0.1 * 1e18, false) */\n  dup2\n  mstore\n  0x20\n  add\n    /* \"Presale.sol\":2497:2502  false */\n  0x00\n    /* \"Presale.sol\":2458:2503  Stage(3_000_000 * 1e18, 0, 0.1 * 1e18, false) */\n  iszero\n  iszero\n  dup2\n  mstore\n  pop\n    /* \"Presale.sol\":2446:2504  stages.push(Stage(3_000_000 * 1e18, 0, 0.1 * 1e18, false)) */\n  swap1\n  dup1\n  0x01\n  dup2\n  sload\n  add\n  dup1\n  dup3\n  sstore\n  dup1\n  swap2\n  pop\n  pop\n  0x01\n  swap1\n  sub\n  swap1\n  0x00\n  mstore\n  keccak256(0x00, 0x20)\n  swap1\n  0x04\n  mul\n  add\n  0x00\n  swap1\n  swap2\n  swap1\n  swap2\n  swap1\n  swap2\n  pop\n  0x00\n  dup3\n  add\n  mload\n  dup2\n  0x00\n  add\n  sstore\n  0x20\n  dup3\n  add\n  mload\n  dup2\n  0x01\n  add\n  sstore\n  0x40\n  dup3\n  add\n  mload\n  dup2\n  0x02\n  add\n  sstore\n  0x60\n  dup3\n  add\n  mload\n  dup2\n  0x03\n  add\n  exp(0x0100, 0x00)\n  dup2\n  sload\n  dup2\n  0xff\n  mul\n  not\n  and\n  swap1\n  dup4\n  iszero\n  iszero\n  mul\n  or\n  swap1\n  sstore\n  pop\n  pop\n  pop\n    /* \"Presale.sol\":1899:2520  constructor(... */\n  pop\n  pop\n  pop\n  pop\n    /* \"Presale.sol\":303:5729  contract CarbonFiPresale is Ownable2Step, ReentrancyGuard {... */\n  jump(tag_23)\n    /* \"@openzeppelin/contracts/access/Ownable2Step.sol\":2011:2164  function _transferOwnership(address newOwner) internal virtual override {... */\ntag_12:\n    /* \"@openzeppelin/contracts/access/Ownable2Step.sol\":2100:2113  _pendingOwner */\n  0x01\n  0x00\n    /* \"@openzeppelin/contracts/access/Ownable2Step.sol\":2093:2113  delete _pendingOwner */\n  0x0100\n  exp\n  dup2\n  sload\n  swap1\n  0xffffffffffffffffffffffffffffffffffffffff\n  mul\n  not\n  and\n  swap1\n  sstore\n    /* \"@openzeppelin/contracts/access/Ownable2Step.sol\":2123:2157  super._transferOwnership(newOwner) */\n  tag_25\n    /* \"@openzeppelin/contracts/access/Ownable2Step.sol\":2148:2156  newOwner */\n  dup2\n    /* \"@openzeppelin/contracts/access/Ownable2Step.sol\":2123:2147  super._transferOwnership */\n  shl(0x20, tag_26)\n    /* \"@openzeppelin/contracts/access/Ownable2Step.sol\":2123:2157  super._transferOwnership(newOwner) */\n  0x20\n  shr\n  jump\t// in\ntag_25:\n    /* \"@openzeppelin/contracts/access/Ownable2Step.sol\":2011:2164  function _transferOwnership(address newOwner) internal virtual override {... */\n  pop\n  jump\t// out\n    /* \"@openzeppelin/contracts/access/Ownable.sol\":2912:3099  function _transferOwnership(address newOwner) internal virtual {... */\ntag_26:\n    /* \"@openzeppelin/contracts/access/Ownable.sol\":2985:3001  address oldOwner */\n  0x00\n    /* \"@openzeppelin/contracts/access/Ownable.sol\":3004:3010  _owner */\n  0x00\n  0x00\n  swap1\n  sload\n  swap1\n  0x0100\n  exp\n  swap1\n  div\n  0xffffffffffffffffffffffffffffffffffffffff\n  and\n    /* \"@openzeppelin/contracts/access/Ownable.sol\":2985:3010  address oldOwner = _owner */\n  swap1\n  pop\n    /* \"@openzeppelin/contracts/access/Ownable.sol\":3029:3037  newOwner */\n  dup2\n    /* \"@openzeppelin/contracts/access/Ownable.sol\":3020:3026  _owner */\n  0x00\n  0x00\n    /* \"@openzeppelin/contracts/access/Ownable.sol\":3020:3037  _owner = newOwner */\n  0x0100\n  exp\n  dup2\n  sload\n  dup2\n  0xffffffffffffffffffffffffffffffffffffffff\n  mul\n  not\n  and\n  swap1\n  dup4\n  0xffffffffffffffffffffffffffffffffffffffff\n  and\n  mul\n  or\n  swap1\n  sstore\n  pop\n    /* \"@openzeppelin/contracts/access/Ownable.sol\":3083:3091  newOwner */\n  dup2\n    /* \"@openzeppelin/contracts/access/Ownable.sol\":3052:3092  OwnershipTransferred(oldOwner, newOwner) */\n  0xffffffffffffffffffffffffffffffffffffffff\n  and\n    /* \"@openzeppelin/contracts/access/Ownable.sol\":3073:3081  oldOwner */\n  dup2\n    /* \"@openzeppelin/contracts/access/Ownable.sol\":3052:3092  OwnershipTransferred(oldOwner, newOwner) */\n  0xffffffffffffffffffffffffffffffffffffffff\n  and\n  0x8be0079c531659141344cd1fd0a4f28419497f9722a3daafe3b4186f6b6457e0\n  mload(0x40)\n  mload(0x40)\n  dup1\n  swap2\n  sub\n  swap1\n  log3\n    /* \"@openzeppelin/contracts/access/Ownable.sol\":2975:3099  {... */\n  pop\n    /* \"@openzeppelin/contracts/access/Ownable.sol\":2912:3099  function _transferOwnership(address newOwner) internal virtual {... */\n  pop\n  jump\t// out\n    /* \"#utility.yul\":88:205   */\ntag_29:\n    /* \"#utility.yul\":197:198   */\n  0x00\n    /* \"#utility.yul\":194:195   */\n  0x00\n    /* \"#utility.yul\":187:199   */\n  revert\n    /* \"#utility.yul\":334:460   */\ntag_31:\n    /* \"#utility.yul\":371:378   */\n  0x00\n    /* \"#utility.yul\":411:453   */\n  0xffffffffffffffffffffffffffffffffffffffff\n    /* \"#utility.yul\":404:409   */\n  dup3\n    /* \"#utility.yul\":400:454   */\n  and\n    /* \"#utility.yul\":389:454   */\n  swap1\n  pop\n    /* \"#utility.yul\":334:460   */\n  swap2\n  swap1\n  pop\n  jump\t// out\n    /* \"#utility.yul\":466:562   */\ntag_32:\n    /* \"#utility.yul\":503:510   */\n  0x00\n    /* \"#utility.yul\":532:556   */\n  tag_45\n    /* \"#utility.yul\":550:555   */\n  dup3\n    /* \"#utility.yul\":532:556   */\n  tag_31\n  jump\t// in\ntag_45:\n    /* \"#utility.yul\":521:556   */\n  swap1\n  pop\n    /* \"#utility.yul\":466:562   */\n  swap2\n  swap1\n  pop\n  jump\t// out\n    /* \"#utility.yul\":568:690   */\ntag_33:\n    /* \"#utility.yul\":641:665   */\n  tag_47\n    /* \"#utility.yul\":659:664   */\n  dup2\n    /* \"#utility.yul\":641:665   */\n  tag_32\n  jump\t// in\ntag_47:\n    /* \"#utility.yul\":634:639   */\n  dup2\n    /* \"#utility.yul\":631:666   */\n  eq\n    /* \"#utility.yul\":621:684   */\n  tag_48\n  jumpi\n    /* \"#utility.yul\":680:681   */\n  0x00\n    /* \"#utility.yul\":677:678   */\n  0x00\n    /* \"#utility.yul\":670:682   */\n  revert\n    /* \"#utility.yul\":621:684   */\ntag_48:\n    /* \"#utility.yul\":568:690   */\n  pop\n  jump\t// out\n    /* \"#utility.yul\":696:839   */\ntag_34:\n    /* \"#utility.yul\":753:758   */\n  0x00\n    /* \"#utility.yul\":784:790   */\n  dup2\n    /* \"#utility.yul\":778:791   */\n  mload\n    /* \"#utility.yul\":769:791   */\n  swap1\n  pop\n    /* \"#utility.yul\":800:833   */\n  tag_50\n    /* \"#utility.yul\":827:832   */\n  dup2\n    /* \"#utility.yul\":800:833   */\n  tag_33\n  jump\t// in\ntag_50:\n    /* \"#utility.yul\":696:839   */\n  swap3\n  swap2\n  pop\n  pop\n  jump\t// out\n    /* \"#utility.yul\":845:1665   */\ntag_3:\n    /* \"#utility.yul\":942:948   */\n  0x00\n    /* \"#utility.yul\":950:956   */\n  0x00\n    /* \"#utility.yul\":958:964   */\n  0x00\n    /* \"#utility.yul\":966:972   */\n  0x00\n    /* \"#utility.yul\":1015:1018   */\n  0x80\n    /* \"#utility.yul\":1003:1012   */\n  dup6\n    /* \"#utility.yul\":994:1001   */\n  dup8\n    /* \"#utility.yul\":990:1013   */\n  sub\n    /* \"#utility.yul\":986:1019   */\n  slt\n    /* \"#utility.yul\":983:1103   */\n  iszero\n  tag_52\n  jumpi\n    /* \"#utility.yul\":1022:1101   */\n  tag_53\n  tag_29\n  jump\t// in\ntag_53:\n    /* \"#utility.yul\":983:1103   */\ntag_52:\n    /* \"#utility.yul\":1142:1143   */\n  0x00\n    /* \"#utility.yul\":1167:1231   */\n  tag_54\n    /* \"#utility.yul\":1223:1230   */\n  dup8\n    /* \"#utility.yul\":1214:1220   */\n  dup3\n    /* \"#utility.yul\":1203:1212   */\n  dup9\n    /* \"#utility.yul\":1199:1221   */\n  add\n    /* \"#utility.yul\":1167:1231   */\n  tag_34\n  jump\t// in\ntag_54:\n    /* \"#utility.yul\":1157:1231   */\n  swap5\n  pop\n    /* \"#utility.yul\":1113:1241   */\n  pop\n    /* \"#utility.yul\":1280:1282   */\n  0x20\n    /* \"#utility.yul\":1306:1370   */\n  tag_55\n    /* \"#utility.yul\":1362:1369   */\n  dup8\n    /* \"#utility.yul\":1353:1359   */\n  dup3\n    /* \"#utility.yul\":1342:1351   */\n  dup9\n    /* \"#utility.yul\":1338:1360   */\n  add\n    /* \"#utility.yul\":1306:1370   */\n  tag_34\n  jump\t// in\ntag_55:\n    /* \"#utility.yul\":1296:1370   */\n  swap4\n  pop\n    /* \"#utility.yul\":1251:1380   */\n  pop\n    /* \"#utility.yul\":1419:1421   */\n  0x40\n    /* \"#utility.yul\":1445:1509   */\n  tag_56\n    /* \"#utility.yul\":1501:1508   */\n  dup8\n    /* \"#utility.yul\":1492:1498   */\n  dup3\n    /* \"#utility.yul\":1481:1490   */\n  dup9\n    /* \"#utility.yul\":1477:1499   */\n  add\n    /* \"#utility.yul\":1445:1509   */\n  tag_34\n  jump\t// in\ntag_56:\n    /* \"#utility.yul\":1435:1509   */\n  swap3\n  pop\n    /* \"#utility.yul\":1390:1519   */\n  pop\n    /* \"#utility.yul\":1558:1560   */\n  0x60\n    /* \"#utility.yul\":1584:1648   */\n  tag_57\n    /* \"#utility.yul\":1640:1647   */\n  dup8\n    /* \"#utility.yul\":1631:1637   */\n  dup3\n    /* \"#utility.yul\":1620:1629   */\n  dup9\n    /* \"#utility.yul\":1616:1638   */\n  add\n    /* \"#utility.yul\":1584:1648   */\n  tag_34\n  jump\t// in\ntag_57:\n    /* \"#utility.yul\":1574:1648   */\n  swap2\n  pop\n    /* \"#utility.yul\":1529:1658   */\n  pop\n    /* \"#utility.yul\":845:1665   */\n  swap3\n  swap6\n  swap2\n  swap5\n  pop\n  swap3\n  pop\n  jump\t// out\n    /* \"#utility.yul\":1671:1789   */\ntag_35:\n    /* \"#utility.yul\":1758:1782   */\n  tag_59\n    /* \"#utility.yul\":1776:1781   */\n  dup2\n    /* \"#utility.yul\":1758:1782   */\n  tag_32\n  jump\t// in\ntag_59:\n    /* \"#utility.yul\":1753:1756   */\n  dup3\n    /* \"#utility.yul\":1746:1783   */\n  mstore\n    /* \"#utility.yul\":1671:1789   */\n  pop\n  pop\n  jump\t// out\n    /* \"#utility.yul\":1795:2017   */\ntag_10:\n    /* \"#utility.yul\":1888:1892   */\n  0x00\n    /* \"#utility.yul\":1926:1928   */\n  0x20\n    /* \"#utility.yul\":1915:1924   */\n  dup3\n    /* \"#utility.yul\":1911:1929   */\n  add\n    /* \"#utility.yul\":1903:1929   */\n  swap1\n  pop\n    /* \"#utility.yul\":1939:2010   */\n  tag_61\n    /* \"#utility.yul\":2007:2008   */\n  0x00\n    /* \"#utility.yul\":1996:2005   */\n  dup4\n    /* \"#utility.yul\":1992:2009   */\n  add\n    /* \"#utility.yul\":1983:1989   */\n  dup5\n    /* \"#utility.yul\":1939:2010   */\n  tag_35\n  jump\t// in\ntag_61:\n    /* \"#utility.yul\":1795:2017   */\n  swap3\n  swap2\n  pop\n  pop\n  jump\t// out\n    /* \"#utility.yul\":2023:2192   */\ntag_36:\n    /* \"#utility.yul\":2107:2118   */\n  0x00\n    /* \"#utility.yul\":2141:2147   */\n  dup3\n    /* \"#utility.yul\":2136:2139   */\n  dup3\n    /* \"#utility.yul\":2129:2148   */\n  mstore\n    /* \"#utility.yul\":2181:2185   */\n  0x20\n    /* \"#utility.yul\":2176:2179   */\n  dup3\n    /* \"#utility.yul\":2172:2186   */\n  add\n    /* \"#utility.yul\":2157:2186   */\n  swap1\n  pop\n    /* \"#utility.yul\":2023:2192   */\n  swap3\n  swap2\n  pop\n  pop\n  jump\t// out\n    /* \"#utility.yul\":2198:2366   */\ntag_37:\n    /* \"#utility.yul\":2338:2358   */\n  0x416c616d617420746964616b2076616c69640000000000000000000000000000\n    /* \"#utility.yul\":2334:2335   */\n  0x00\n    /* \"#utility.yul\":2326:2332   */\n  dup3\n    /* \"#utility.yul\":2322:2336   */\n  add\n    /* \"#utility.yul\":2315:2359   */\n  mstore\n    /* \"#utility.yul\":2198:2366   */\n  pop\n  jump\t// out\n    /* \"#utility.yul\":2372:2738   */\ntag_38:\n    /* \"#utility.yul\":2514:2517   */\n  0x00\n    /* \"#utility.yul\":2535:2602   */\n  tag_65\n    /* \"#utility.yul\":2599:2601   */\n  0x12\n    /* \"#utility.yul\":2594:2597   */\n  dup4\n    /* \"#utility.yul\":2535:2602   */\n  tag_36\n  jump\t// in\ntag_65:\n    /* \"#utility.yul\":2528:2602   */\n  swap2\n  pop\n    /* \"#utility.yul\":2611:2704   */\n  tag_66\n    /* \"#utility.yul\":2700:2703   */\n  dup3\n    /* \"#utility.yul\":2611:2704   */\n  tag_37\n  jump\t// in\ntag_66:\n    /* \"#utility.yul\":2729:2731   */\n  0x20\n    /* \"#utility.yul\":2724:2727   */\n  dup3\n    /* \"#utility.yul\":2720:2732   */\n  add\n    /* \"#utility.yul\":2713:2732   */\n  swap1\n  pop\n    /* \"#utility.yul\":2372:2738   */\n  swap2\n  swap1\n  pop\n  jump\t// out\n    /* \"#utility.yul\":2744:3163   */\ntag_19:\n    /* \"#utility.yul\":2910:2914   */\n  0x00\n    /* \"#utility.yul\":2948:2950   */\n  0x20\n    /* \"#utility.yul\":2937:2946   */\n  dup3\n    /* \"#utility.yul\":2933:2951   */\n  add\n    /* \"#utility.yul\":2925:2951   */\n  swap1\n  pop\n    /* \"#utility.yul\":2997:3006   */\n  dup2\n    /* \"#utility.yul\":2991:2995   */\n  dup2\n    /* \"#utility.yul\":2987:3007   */\n  sub\n    /* \"#utility.yul\":2983:2984   */\n  0x00\n    /* \"#utility.yul\":2972:2981   */\n  dup4\n    /* \"#utility.yul\":2968:2985   */\n  add\n    /* \"#utility.yul\":2961:3008   */\n  mstore\n    /* \"#utility.yul\":3025:3156   */\n  tag_68\n    /* \"#utility.yul\":3151:3155   */\n  dup2\n    /* \"#utility.yul\":3025:3156   */\n  tag_38\n  jump\t// in\ntag_68:\n    /* \"#utility.yul\":3017:3156   */\n  swap1\n  pop\n    /* \"#utility.yul\":2744:3163   */\n  swap2\n  swap1\n  pop\n  jump\t// out\n    /* \"Presale.sol\":303:5729  contract CarbonFiPresale is Ownable2Step, ReentrancyGuard {... */\ntag_23:\n  mload(0x80)\n  mload(0xa0)\n  mload(0xc0)\n  codecopy(0x00, dataOffset(sub_0), dataSize(sub_0))\n  0x00\n  assignImmutable(\"0xa94eb21dc683b2617e70b464660e1d440b88a596ad8df201f6a0560b3aa241c4\")\n  0x00\n  assignImmutable(\"0x474e8cbbfd90dba9df5fc054f99b290c4296483a721448990672feaba0c59d72\")\n  0x00\n  assignImmutable(\"0xc0bf3ddb79e7c5faf09af1eaa09640fae848e430edf7a04658ec05be9ade7aab\")\n  return(0x00, dataSize(sub_0))\nstop\n\nsub_0: assembly {\n        /* \"Presale.sol\":303:5729  contract CarbonFiPresale is Ownable2Step, ReentrancyGuard {... */\n      mstore(0x40, 0x80)\n      callvalue\n      dup1\n      iszero\n      tag_1\n      jumpi\n      revert(0x00, 0x00)\n    tag_1:\n      pop\n      jumpi(tag_2, lt(calldatasize, 0x04))\n      shr(0xe0, calldataload(0x00))\n      dup1\n      0x845ddcb2\n      gt\n      tag_26\n      jumpi\n      dup1\n      0xa82524b2\n      gt\n      tag_27\n      jumpi\n      dup1\n      0xa82524b2\n      eq\n      tag_20\n      jumpi\n      dup1\n      0xdb81b278\n      eq\n      tag_21\n      jumpi\n      dup1\n      0xe30c3978\n      eq\n      tag_22\n      jumpi\n      dup1\n      0xe580b2b0\n      eq\n      tag_23\n      jumpi\n      dup1\n      0xf2fde38b\n      eq\n      tag_24\n      jumpi\n      dup1\n      0xf349b76c\n      eq\n      tag_25\n      jumpi\n      jump(tag_2)\n    tag_27:\n      dup1\n      0x845ddcb2\n      eq\n      tag_14\n      jumpi\n      dup1\n      0x8da5cb5b\n      eq\n      tag_15\n      jumpi\n      dup1\n      0x9106d7ba\n      eq\n      tag_16\n      jumpi\n      dup1\n      0x945e4013\n      eq\n      tag_17\n      jumpi\n      dup1\n      0x96713abf\n      eq\n      tag_18\n      jumpi\n      dup1\n      0xa43be57b\n      eq\n      tag_19\n      jumpi\n      jump(tag_2)\n    tag_26:\n      dup1\n      0x39f65c09\n      gt\n      tag_28\n      jumpi\n      dup1\n      0x39f65c09\n      eq\n      tag_8\n      jumpi\n      dup1\n      0x48c54b9d\n      eq\n      tag_9\n      jumpi\n      dup1\n      0x5bf5d54c\n      eq\n      tag_10\n      jumpi\n      dup1\n      0x61d027b3\n      eq\n      tag_11\n      jumpi\n      dup1\n      0x715018a6\n      eq\n      tag_12\n      jumpi\n      dup1\n      0x79ba5097\n      eq\n      tag_13\n      jumpi\n      jump(tag_2)\n    tag_28:\n      dup1\n      0x04c98b2b\n      eq\n      tag_3\n      jumpi\n      dup1\n      0x1f9c729d\n      eq\n      tag_4\n      jumpi\n      dup1\n      0x26d07099\n      eq\n      tag_5\n      jumpi\n      dup1\n      0x2f48ab7d\n      eq\n      tag_6\n      jumpi\n      dup1\n      0x3610724e\n      eq\n      tag_7\n      jumpi\n    tag_2:\n      revert(0x00, 0x00)\n        /* \"Presale.sol\":2566:2760  function startPresale() external onlyOwner {... */\n    tag_3:\n      tag_29\n      tag_30\n      jump\t// in\n    tag_29:\n      stop\n        /* \"Presale.sol\":492:520  IERC20 public immutable cafi */\n    tag_4:\n      tag_31\n      tag_32\n      jump\t// in\n    tag_31:\n      mload(0x40)\n      tag_33\n      swap2\n      swap1\n      tag_34\n      jump\t// in\n    tag_33:\n      mload(0x40)\n      dup1\n      swap2\n      sub\n      swap1\n      return\n        /* \"Presale.sol\":5076:5457  function getCurrentStageInfo() external view returns (... */\n    tag_5:\n      tag_35\n      tag_36\n      jump\t// in\n    tag_35:\n      mload(0x40)\n      tag_37\n      swap5\n      swap4\n      swap3\n      swap2\n      swap1\n      tag_38\n      jump\t// in\n    tag_37:\n      mload(0x40)\n      dup1\n      swap2\n      sub\n      swap1\n      return\n        /* \"Presale.sol\":438:466  IERC20 public immutable usdt */\n    tag_6:\n      tag_39\n      tag_40\n      jump\t// in\n    tag_39:\n      mload(0x40)\n      tag_41\n      swap2\n      swap1\n      tag_34\n      jump\t// in\n    tag_41:\n      mload(0x40)\n      dup1\n      swap2\n      sub\n      swap1\n      return\n        /* \"Presale.sol\":2766:3753  function buyTokens(uint256 amount) external nonReentrant onlyActivePresale {... */\n    tag_7:\n      tag_42\n      0x04\n      dup1\n      calldatasize\n      sub\n      dup2\n      add\n      swap1\n      tag_43\n      swap2\n      swap1\n      tag_44\n      jump\t// in\n    tag_43:\n      tag_45\n      jump\t// in\n    tag_42:\n      stop\n        /* \"Presale.sol\":1189:1237  mapping(address => uint256) public userPurchases */\n    tag_8:\n      tag_46\n      0x04\n      dup1\n      calldatasize\n      sub\n      dup2\n      add\n      swap1\n      tag_47\n      swap2\n      swap1\n      tag_48\n      jump\t// in\n    tag_47:\n      tag_49\n      jump\t// in\n    tag_46:\n      mload(0x40)\n      tag_50\n      swap2\n      swap1\n      tag_51\n      jump\t// in\n    tag_50:\n      mload(0x40)\n      dup1\n      swap2\n      sub\n      swap1\n      return\n        /* \"Presale.sol\":3759:4179  function claimTokens() external nonReentrant {... */\n    tag_9:\n      tag_52\n      tag_53\n      jump\t// in\n    tag_52:\n      stop\n        /* \"Presale.sol\":1024:1051  uint256 public currentStage */\n    tag_10:\n      tag_54\n      tag_55\n      jump\t// in\n    tag_54:\n      mload(0x40)\n      tag_56\n      swap2\n      swap1\n      tag_51\n      jump\t// in\n    tag_56:\n      mload(0x40)\n      dup1\n      swap2\n      sub\n      swap1\n      return\n        /* \"Presale.sol\":540:573  address public immutable treasury */\n    tag_11:\n      tag_57\n      tag_58\n      jump\t// in\n    tag_57:\n      mload(0x40)\n      tag_59\n      swap2\n      swap1\n      tag_60\n      jump\t// in\n    tag_59:\n      mload(0x40)\n      dup1\n      swap2\n      sub\n      swap1\n      return\n        /* \"@openzeppelin/contracts/access/Ownable.sol\":2293:2394  function renounceOwnership() public virtual onlyOwner {... */\n    tag_12:\n      tag_61\n      tag_62\n      jump\t// in\n    tag_61:\n      stop\n        /* \"@openzeppelin/contracts/access/Ownable2Step.sol\":2244:2473  function acceptOwnership() public virtual {... */\n    tag_13:\n      tag_63\n      tag_64\n      jump\t// in\n    tag_63:\n      stop\n        /* \"Presale.sol\":997:1018  Stage[] public stages */\n    tag_14:\n      tag_65\n      0x04\n      dup1\n      calldatasize\n      sub\n      dup2\n      add\n      swap1\n      tag_66\n      swap2\n      swap1\n      tag_44\n      jump\t// in\n    tag_66:\n      tag_67\n      jump\t// in\n    tag_65:\n      mload(0x40)\n      tag_68\n      swap5\n      swap4\n      swap3\n      swap2\n      swap1\n      tag_69\n      jump\t// in\n    tag_68:\n      mload(0x40)\n      dup1\n      swap2\n      sub\n      swap1\n      return\n        /* \"@openzeppelin/contracts/access/Ownable.sol\":1638:1723  function owner() public view virtual returns (address) {... */\n    tag_15:\n      tag_70\n      tag_71\n      jump\t// in\n    tag_70:\n      mload(0x40)\n      tag_72\n      swap2\n      swap1\n      tag_60\n      jump\t// in\n    tag_72:\n      mload(0x40)\n      dup1\n      swap2\n      sub\n      swap1\n      return\n        /* \"Presale.sol\":1159:1183  uint256 public totalSold */\n    tag_16:\n      tag_73\n      tag_74\n      jump\t// in\n    tag_73:\n      mload(0x40)\n      tag_75\n      swap2\n      swap1\n      tag_51\n      jump\t// in\n    tag_75:\n      mload(0x40)\n      dup1\n      swap2\n      sub\n      swap1\n      return\n        /* \"Presale.sol\":740:790  uint256 public constant PRESALE_DURATION = 90 days */\n    tag_17:\n      tag_76\n      tag_77\n      jump\t// in\n    tag_76:\n      mload(0x40)\n      tag_78\n      swap2\n      swap1\n      tag_51\n      jump\t// in\n    tag_78:\n      mload(0x40)\n      dup1\n      swap2\n      sub\n      swap1\n      return\n        /* \"Presale.sol\":580:644  uint256 public constant TOTAL_PRESALE_SUPPLY = 10_000_000 * 1e18 */\n    tag_18:\n      tag_79\n      tag_80\n      jump\t// in\n    tag_79:\n      mload(0x40)\n      tag_81\n      swap2\n      swap1\n      tag_51\n      jump\t// in\n    tag_81:\n      mload(0x40)\n      dup1\n      swap2\n      sub\n      swap1\n      return\n        /* \"Presale.sol\":4226:4578  function endPresale() external onlyOwner {... */\n    tag_19:\n      tag_82\n      tag_83\n      jump\t// in\n    tag_82:\n      stop\n        /* \"Presale.sol\":1057:1088  uint256 public presaleStartTime */\n    tag_20:\n      tag_84\n      tag_85\n      jump\t// in\n    tag_84:\n      mload(0x40)\n      tag_86\n      swap2\n      swap1\n      tag_51\n      jump\t// in\n    tag_86:\n      mload(0x40)\n      dup1\n      swap2\n      sub\n      swap1\n      return\n        /* \"Presale.sol\":673:734  uint256 public constant MAX_BUY_PER_WALLET = 1_000_000 * 1e18 */\n    tag_21:\n      tag_87\n      tag_88\n      jump\t// in\n    tag_87:\n      mload(0x40)\n      tag_89\n      swap2\n      swap1\n      tag_51\n      jump\t// in\n    tag_89:\n      mload(0x40)\n      dup1\n      swap2\n      sub\n      swap1\n      return\n        /* \"@openzeppelin/contracts/access/Ownable2Step.sol\":1232:1331  function pendingOwner() public view virtual returns (address) {... */\n    tag_22:\n      tag_90\n      tag_91\n      jump\t// in\n    tag_90:\n      mload(0x40)\n      tag_92\n      swap2\n      swap1\n      tag_60\n      jump\t// in\n    tag_92:\n      mload(0x40)\n      dup1\n      swap2\n      sub\n      swap1\n      return\n        /* \"Presale.sol\":1094:1118  bool public presaleEnded */\n    tag_23:\n      tag_93\n      tag_94\n      jump\t// in\n    tag_93:\n      mload(0x40)\n      tag_95\n      swap2\n      swap1\n      tag_96\n      jump\t// in\n    tag_95:\n      mload(0x40)\n      dup1\n      swap2\n      sub\n      swap1\n      return\n        /* \"@openzeppelin/contracts/access/Ownable2Step.sol\":1649:1827  function transferOwnership(address newOwner) public virtual override onlyOwner {... */\n    tag_24:\n      tag_97\n      0x04\n      dup1\n      calldatasize\n      sub\n      dup2\n      add\n      swap1\n      tag_98\n      swap2\n      swap1\n      tag_48\n      jump\t// in\n    tag_98:\n      tag_99\n      jump\t// in\n    tag_97:\n      stop\n        /* \"Presale.sol\":5463:5727  function getPresaleTimeLeft() external view returns (uint256) {... */\n    tag_25:\n      tag_100\n      tag_101\n      jump\t// in\n    tag_100:\n      mload(0x40)\n      tag_102\n      swap2\n      swap1\n      tag_51\n      jump\t// in\n    tag_102:\n      mload(0x40)\n      dup1\n      swap2\n      sub\n      swap1\n      return\n        /* \"Presale.sol\":2566:2760  function startPresale() external onlyOwner {... */\n    tag_30:\n        /* \"@openzeppelin/contracts/access/Ownable.sol\":1531:1544  _checkOwner() */\n      tag_104\n        /* \"@openzeppelin/contracts/access/Ownable.sol\":1531:1542  _checkOwner */\n      tag_105\n        /* \"@openzeppelin/contracts/access/Ownable.sol\":1531:1544  _checkOwner() */\n      jump\t// in\n    tag_104:\n        /* \"Presale.sol\":2647:2648  0 */\n      0x00\n        /* \"Presale.sol\":2627:2643  presaleStartTime */\n      sload(0x05)\n        /* \"Presale.sol\":2627:2648  presaleStartTime == 0 */\n      eq\n        /* \"Presale.sol\":2619:2674  require(presaleStartTime == 0, \"Presale sudah dimulai\") */\n      tag_107\n      jumpi\n      mload(0x40)\n      0x08c379a000000000000000000000000000000000000000000000000000000000\n      dup2\n      mstore\n      0x04\n      add\n      tag_108\n      swap1\n      tag_109\n      jump\t// in\n    tag_108:\n      mload(0x40)\n      dup1\n      swap2\n      sub\n      swap1\n      revert\n    tag_107:\n        /* \"Presale.sol\":2703:2718  block.timestamp */\n      timestamp\n        /* \"Presale.sol\":2684:2700  presaleStartTime */\n      0x05\n        /* \"Presale.sol\":2684:2718  presaleStartTime = block.timestamp */\n      dup2\n      swap1\n      sstore\n      pop\n        /* \"Presale.sol\":2749:2753  true */\n      0x01\n        /* \"Presale.sol\":2728:2734  stages */\n      0x03\n        /* \"Presale.sol\":2735:2736  0 */\n      0x00\n        /* \"Presale.sol\":2728:2737  stages[0] */\n      dup2\n      sload\n      dup2\n      lt\n      tag_110\n      jumpi\n      tag_111\n      tag_112\n      jump\t// in\n    tag_111:\n    tag_110:\n      swap1\n      0x00\n      mstore\n      keccak256(0x00, 0x20)\n      swap1\n      0x04\n      mul\n      add\n        /* \"Presale.sol\":2728:2746  stages[0].isActive */\n      0x03\n      add\n      0x00\n        /* \"Presale.sol\":2728:2753  stages[0].isActive = true */\n      0x0100\n      exp\n      dup2\n      sload\n      dup2\n      0xff\n      mul\n      not\n      and\n      swap1\n      dup4\n      iszero\n      iszero\n      mul\n      or\n      swap1\n      sstore\n      pop\n        /* \"Presale.sol\":2566:2760  function startPresale() external onlyOwner {... */\n      jump\t// out\n        /* \"Presale.sol\":492:520  IERC20 public immutable cafi */\n    tag_32:\n      immutable(\"0x474e8cbbfd90dba9df5fc054f99b290c4296483a721448990672feaba0c59d72\")\n      dup2\n      jump\t// out\n        /* \"Presale.sol\":5076:5457  function getCurrentStageInfo() external view returns (... */\n    tag_36:\n        /* \"Presale.sol\":5139:5152  uint256 stage */\n      0x00\n        /* \"Presale.sol\":5162:5175  uint256 price */\n      0x00\n        /* \"Presale.sol\":5185:5202  uint256 available */\n      0x00\n        /* \"Presale.sol\":5212:5224  uint256 sold */\n      0x00\n        /* \"Presale.sol\":5241:5261  Stage memory current */\n      0x00\n        /* \"Presale.sol\":5264:5270  stages */\n      0x03\n        /* \"Presale.sol\":5271:5283  currentStage */\n      sload(0x04)\n        /* \"Presale.sol\":5264:5284  stages[currentStage] */\n      dup2\n      sload\n      dup2\n      lt\n      tag_115\n      jumpi\n      tag_116\n      tag_112\n      jump\t// in\n    tag_116:\n    tag_115:\n      swap1\n      0x00\n      mstore\n      keccak256(0x00, 0x20)\n      swap1\n      0x04\n      mul\n      add\n        /* \"Presale.sol\":5241:5284  Stage memory current = stages[currentStage] */\n      mload(0x40)\n      dup1\n      0x80\n      add\n      0x40\n      mstore\n      swap1\n      dup2\n      0x00\n      dup3\n      add\n      sload\n      dup2\n      mstore\n      0x20\n      add\n      0x01\n      dup3\n      add\n      sload\n      dup2\n      mstore\n      0x20\n      add\n      0x02\n      dup3\n      add\n      sload\n      dup2\n      mstore\n      0x20\n      add\n      0x03\n      dup3\n      add\n      0x00\n      swap1\n      sload\n      swap1\n      0x0100\n      exp\n      swap1\n      div\n      0xff\n      and\n      iszero\n      iszero\n      iszero\n      iszero\n      dup2\n      mstore\n      pop\n      pop\n      swap1\n      pop\n        /* \"Presale.sol\":5315:5327  currentStage */\n      sload(0x04)\n        /* \"Presale.sol\":5341:5348  current */\n      dup2\n        /* \"Presale.sol\":5341:5354  current.price */\n      0x40\n      add\n      mload\n        /* \"Presale.sol\":5390:5397  current */\n      dup3\n        /* \"Presale.sol\":5390:5408  current.soldAmount */\n      0x20\n      add\n      mload\n        /* \"Presale.sol\":5368:5375  current */\n      dup4\n        /* \"Presale.sol\":5368:5387  current.totalAmount */\n      0x00\n      add\n      mload\n        /* \"Presale.sol\":5368:5408  current.totalAmount - current.soldAmount */\n      tag_118\n      swap2\n      swap1\n      tag_119\n      jump\t// in\n    tag_118:\n        /* \"Presale.sol\":5422:5429  current */\n      dup4\n        /* \"Presale.sol\":5422:5440  current.soldAmount */\n      0x20\n      add\n      mload\n        /* \"Presale.sol\":5294:5450  return (... */\n      swap5\n      pop\n      swap5\n      pop\n      swap5\n      pop\n      swap5\n      pop\n      pop\n        /* \"Presale.sol\":5076:5457  function getCurrentStageInfo() external view returns (... */\n      swap1\n      swap2\n      swap3\n      swap4\n      jump\t// out\n        /* \"Presale.sol\":438:466  IERC20 public immutable usdt */\n    tag_40:\n      immutable(\"0xc0bf3ddb79e7c5faf09af1eaa09640fae848e430edf7a04658ec05be9ade7aab\")\n      dup2\n      jump\t// out\n        /* \"Presale.sol\":2766:3753  function buyTokens(uint256 amount) external nonReentrant onlyActivePresale {... */\n    tag_45:\n        /* \"@openzeppelin/contracts/security/ReentrancyGuard.sol\":2261:2282  _nonReentrantBefore() */\n      tag_121\n        /* \"@openzeppelin/contracts/security/ReentrancyGuard.sol\":2261:2280  _nonReentrantBefore */\n      tag_122\n        /* \"@openzeppelin/contracts/security/ReentrancyGuard.sol\":2261:2282  _nonReentrantBefore() */\n      jump\t// in\n    tag_121:\n        /* \"Presale.sol\":1621:1633  presaleEnded */\n      0x06\n      0x00\n      swap1\n      sload\n      swap1\n      0x0100\n      exp\n      swap1\n      div\n      0xff\n      and\n        /* \"Presale.sol\":1620:1633  !presaleEnded */\n      iszero\n        /* \"Presale.sol\":1612:1660  require(!presaleEnded, \"Presale sudah berakhir\") */\n      tag_124\n      jumpi\n      mload(0x40)\n      0x08c379a000000000000000000000000000000000000000000000000000000000\n      dup2\n      mstore\n      0x04\n      add\n      tag_125\n      swap1\n      tag_126\n      jump\t// in\n    tag_125:\n      mload(0x40)\n      dup1\n      swap2\n      sub\n      swap1\n      revert\n    tag_124:\n        /* \"Presale.sol\":1697:1713  presaleStartTime */\n      sload(0x05)\n        /* \"Presale.sol\":1678:1693  block.timestamp */\n      timestamp\n        /* \"Presale.sol\":1678:1713  block.timestamp >= presaleStartTime */\n      lt\n      iszero\n        /* \"Presale.sol\":1670:1739  require(block.timestamp >= presaleStartTime, \"Presale belum dimulai\") */\n      tag_127\n      jumpi\n      mload(0x40)\n      0x08c379a000000000000000000000000000000000000000000000000000000000\n      dup2\n      mstore\n      0x04\n      add\n      tag_128\n      swap1\n      tag_129\n      jump\t// in\n    tag_128:\n      mload(0x40)\n      dup1\n      swap2\n      sub\n      swap1\n      revert\n    tag_127:\n        /* \"Presale.sol\":783:790  90 days */\n      0x76a700\n        /* \"Presale.sol\":1776:1792  presaleStartTime */\n      sload(0x05)\n        /* \"Presale.sol\":1776:1811  presaleStartTime + PRESALE_DURATION */\n      tag_130\n      swap2\n      swap1\n      tag_131\n      jump\t// in\n    tag_130:\n        /* \"Presale.sol\":1757:1772  block.timestamp */\n      timestamp\n        /* \"Presale.sol\":1757:1811  block.timestamp <= presaleStartTime + PRESALE_DURATION */\n      gt\n      iszero\n        /* \"Presale.sol\":1749:1838  require(block.timestamp <= presaleStartTime + PRESALE_DURATION, \"Presale sudah berakhir\") */\n      tag_132\n      jumpi\n      mload(0x40)\n      0x08c379a000000000000000000000000000000000000000000000000000000000\n      dup2\n      mstore\n      0x04\n      add\n      tag_133\n      swap1\n      tag_126\n      jump\t// in\n    tag_133:\n      mload(0x40)\n      dup1\n      swap2\n      sub\n      swap1\n      revert\n    tag_132:\n        /* \"Presale.sol\":2868:2869  0 */\n      0x00\n        /* \"Presale.sol\":2859:2865  amount */\n      dup2\n        /* \"Presale.sol\":2859:2869  amount > 0 */\n      gt\n        /* \"Presale.sol\":2851:2892  require(amount > 0, \"Jumlah tidak valid\") */\n      tag_135\n      jumpi\n      mload(0x40)\n      0x08c379a000000000000000000000000000000000000000000000000000000000\n      dup2\n      mstore\n      0x04\n      add\n      tag_136\n      swap1\n      tag_137\n      jump\t// in\n    tag_136:\n      mload(0x40)\n      dup1\n      swap2\n      sub\n      swap1\n      revert\n    tag_135:\n        /* \"Presale.sol\":718:734  1_000_000 * 1e18 */\n      0xd3c21bcecceda1000000\n        /* \"Presale.sol\":2951:2957  amount */\n      dup2\n        /* \"Presale.sol\":2923:2936  userPurchases */\n      0x08\n        /* \"Presale.sol\":2923:2948  userPurchases[msg.sender] */\n      0x00\n        /* \"Presale.sol\":2937:2947  msg.sender */\n      caller\n        /* \"Presale.sol\":2923:2948  userPurchases[msg.sender] */\n      0xffffffffffffffffffffffffffffffffffffffff\n      and\n      0xffffffffffffffffffffffffffffffffffffffff\n      and\n      dup2\n      mstore\n      0x20\n      add\n      swap1\n      dup2\n      mstore\n      0x20\n      add\n      0x00\n      keccak256\n      sload\n        /* \"Presale.sol\":2923:2957  userPurchases[msg.sender] + amount */\n      tag_138\n      swap2\n      swap1\n      tag_131\n      jump\t// in\n    tag_138:\n        /* \"Presale.sol\":2923:2979  userPurchases[msg.sender] + amount <= MAX_BUY_PER_WALLET */\n      gt\n      iszero\n        /* \"Presale.sol\":2902:3029  require(... */\n      tag_139\n      jumpi\n      mload(0x40)\n      0x08c379a000000000000000000000000000000000000000000000000000000000\n      dup2\n      mstore\n      0x04\n      add\n      tag_140\n      swap1\n      tag_141\n      jump\t// in\n    tag_140:\n      mload(0x40)\n      dup1\n      swap2\n      sub\n      swap1\n      revert\n    tag_139:\n        /* \"Presale.sol\":3040:3061  Stage storage current */\n      0x00\n        /* \"Presale.sol\":3064:3070  stages */\n      0x03\n        /* \"Presale.sol\":3071:3083  currentStage */\n      sload(0x04)\n        /* \"Presale.sol\":3064:3084  stages[currentStage] */\n      dup2\n      sload\n      dup2\n      lt\n      tag_142\n      jumpi\n      tag_143\n      tag_112\n      jump\t// in\n    tag_143:\n    tag_142:\n      swap1\n      0x00\n      mstore\n      keccak256(0x00, 0x20)\n      swap1\n      0x04\n      mul\n      add\n        /* \"Presale.sol\":3040:3084  Stage storage current = stages[currentStage] */\n      swap1\n      pop\n        /* \"Presale.sol\":3102:3109  current */\n      dup1\n        /* \"Presale.sol\":3102:3118  current.isActive */\n      0x03\n      add\n      0x00\n      swap1\n      sload\n      swap1\n      0x0100\n      exp\n      swap1\n      div\n      0xff\n      and\n        /* \"Presale.sol\":3094:3140  require(current.isActive, \"Stage tidak aktif\") */\n      tag_145\n      jumpi\n      mload(0x40)\n      0x08c379a000000000000000000000000000000000000000000000000000000000\n      dup2\n      mstore\n      0x04\n      add\n      tag_146\n      swap1\n      tag_147\n      jump\t// in\n    tag_146:\n      mload(0x40)\n      dup1\n      swap2\n      sub\n      swap1\n      revert\n    tag_145:\n        /* \"Presale.sol\":3189:3196  current */\n      dup1\n        /* \"Presale.sol\":3189:3208  current.totalAmount */\n      0x00\n      add\n      sload\n        /* \"Presale.sol\":3179:3185  amount */\n      dup3\n        /* \"Presale.sol\":3158:3165  current */\n      dup3\n        /* \"Presale.sol\":3158:3176  current.soldAmount */\n      0x01\n      add\n      sload\n        /* \"Presale.sol\":3158:3185  current.soldAmount + amount */\n      tag_148\n      swap2\n      swap1\n      tag_131\n      jump\t// in\n    tag_148:\n        /* \"Presale.sol\":3158:3208  current.soldAmount + amount <= current.totalAmount */\n      gt\n      iszero\n        /* \"Presale.sol\":3150:3233  require(current.soldAmount + amount <= current.totalAmount, \"Melebihi kuota stage\") */\n      tag_149\n      jumpi\n      mload(0x40)\n      0x08c379a000000000000000000000000000000000000000000000000000000000\n      dup2\n      mstore\n      0x04\n      add\n      tag_150\n      swap1\n      tag_151\n      jump\t// in\n    tag_150:\n      mload(0x40)\n      dup1\n      swap2\n      sub\n      swap1\n      revert\n    tag_149:\n        /* \"Presale.sol\":3244:3262  uint256 usdtAmount */\n      0x00\n        /* \"Presale.sol\":3290:3294  1e18 */\n      0x0de0b6b3a7640000\n        /* \"Presale.sol\":3274:3281  current */\n      dup3\n        /* \"Presale.sol\":3274:3287  current.price */\n      0x02\n      add\n      sload\n        /* \"Presale.sol\":3265:3271  amount */\n      dup5\n        /* \"Presale.sol\":3265:3287  amount * current.price */\n      tag_152\n      swap2\n      swap1\n      tag_153\n      jump\t// in\n    tag_152:\n        /* \"Presale.sol\":3265:3294  amount * current.price / 1e18 */\n      tag_154\n      swap2\n      swap1\n      tag_155\n      jump\t// in\n    tag_154:\n        /* \"Presale.sol\":3244:3294  uint256 usdtAmount = amount * current.price / 1e18 */\n      swap1\n      pop\n        /* \"Presale.sol\":3351:3406  usdt.safeTransferFrom(msg.sender, treasury, usdtAmount) */\n      tag_156\n        /* \"Presale.sol\":3373:3383  msg.sender */\n      caller\n        /* \"Presale.sol\":3385:3393  treasury */\n      immutable(\"0xa94eb21dc683b2617e70b464660e1d440b88a596ad8df201f6a0560b3aa241c4\")\n        /* \"Presale.sol\":3395:3405  usdtAmount */\n      dup4\n        /* \"Presale.sol\":3351:3355  usdt */\n      immutable(\"0xc0bf3ddb79e7c5faf09af1eaa09640fae848e430edf7a04658ec05be9ade7aab\")\n        /* \"Presale.sol\":3351:3372  usdt.safeTransferFrom */\n      0xffffffffffffffffffffffffffffffffffffffff\n      and\n      tag_157\n      swap1\n        /* \"Presale.sol\":3351:3406  usdt.safeTransferFrom(msg.sender, treasury, usdtAmount) */\n      swap4\n      swap3\n      swap2\n      swap1\n      0xffffffff\n      and\n      jump\t// in\n    tag_156:\n        /* \"Presale.sol\":3465:3471  amount */\n      dup3\n        /* \"Presale.sol\":3443:3450  current */\n      dup3\n        /* \"Presale.sol\":3443:3461  current.soldAmount */\n      0x01\n      add\n      0x00\n        /* \"Presale.sol\":3443:3471  current.soldAmount += amount */\n      dup3\n      dup3\n      sload\n      tag_158\n      swap2\n      swap1\n      tag_131\n      jump\t// in\n    tag_158:\n      swap3\n      pop\n      pop\n      dup2\n      swap1\n      sstore\n      pop\n        /* \"Presale.sol\":3494:3500  amount */\n      dup3\n        /* \"Presale.sol\":3481:3490  totalSold */\n      0x07\n      0x00\n        /* \"Presale.sol\":3481:3500  totalSold += amount */\n      dup3\n      dup3\n      sload\n      tag_159\n      swap2\n      swap1\n      tag_131\n      jump\t// in\n    tag_159:\n      swap3\n      pop\n      pop\n      dup2\n      swap1\n      sstore\n      pop\n        /* \"Presale.sol\":3539:3545  amount */\n      dup3\n        /* \"Presale.sol\":3510:3523  userPurchases */\n      0x08\n        /* \"Presale.sol\":3510:3535  userPurchases[msg.sender] */\n      0x00\n        /* \"Presale.sol\":3524:3534  msg.sender */\n      caller\n        /* \"Presale.sol\":3510:3535  userPurchases[msg.sender] */\n      0xffffffffffffffffffffffffffffffffffffffff\n      and\n      0xffffffffffffffffffffffffffffffffffffffff\n      and\n      dup2\n      mstore\n      0x20\n      add\n      swap1\n      dup2\n      mstore\n      0x20\n      add\n      0x00\n      keccak256\n      0x00\n        /* \"Presale.sol\":3510:3545  userPurchases[msg.sender] += amount */\n      dup3\n      dup3\n      sload\n      tag_160\n      swap2\n      swap1\n      tag_131\n      jump\t// in\n    tag_160:\n      swap3\n      pop\n      pop\n      dup2\n      swap1\n      sstore\n      pop\n        /* \"Presale.sol\":3623:3630  current */\n      dup2\n        /* \"Presale.sol\":3623:3642  current.totalAmount */\n      0x00\n      add\n      sload\n        /* \"Presale.sol\":3601:3608  current */\n      dup3\n        /* \"Presale.sol\":3601:3619  current.soldAmount */\n      0x01\n      add\n      sload\n        /* \"Presale.sol\":3601:3642  current.soldAmount >= current.totalAmount */\n      lt\n        /* \"Presale.sol\":3597:3684  if (current.soldAmount >= current.totalAmount) {... */\n      tag_161\n      jumpi\n        /* \"Presale.sol\":3658:3673  _advanceStage() */\n      tag_162\n        /* \"Presale.sol\":3658:3671  _advanceStage */\n      tag_163\n        /* \"Presale.sol\":3658:3673  _advanceStage() */\n      jump\t// in\n    tag_162:\n        /* \"Presale.sol\":3597:3684  if (current.soldAmount >= current.totalAmount) {... */\n    tag_161:\n        /* \"Presale.sol\":3715:3725  msg.sender */\n      caller\n        /* \"Presale.sol\":3699:3746  TokensPurchased(msg.sender, amount, usdtAmount) */\n      0xffffffffffffffffffffffffffffffffffffffff\n      and\n      0x8fafebcaf9d154343dad25669bfa277f4fbacd7ac6b0c4fed522580e040a0f33\n        /* \"Presale.sol\":3727:3733  amount */\n      dup5\n        /* \"Presale.sol\":3735:3745  usdtAmount */\n      dup4\n        /* \"Presale.sol\":3699:3746  TokensPurchased(msg.sender, amount, usdtAmount) */\n      mload(0x40)\n      tag_164\n      swap3\n      swap2\n      swap1\n      tag_165\n      jump\t// in\n    tag_164:\n      mload(0x40)\n      dup1\n      swap2\n      sub\n      swap1\n      log2\n        /* \"Presale.sol\":2841:3753  {... */\n      pop\n      pop\n        /* \"@openzeppelin/contracts/security/ReentrancyGuard.sol\":2303:2323  _nonReentrantAfter() */\n      tag_166\n        /* \"@openzeppelin/contracts/security/ReentrancyGuard.sol\":2303:2321  _nonReentrantAfter */\n      tag_167\n        /* \"@openzeppelin/contracts/security/ReentrancyGuard.sol\":2303:2323  _nonReentrantAfter() */\n      jump\t// in\n    tag_166:\n        /* \"Presale.sol\":2766:3753  function buyTokens(uint256 amount) external nonReentrant onlyActivePresale {... */\n      pop\n      jump\t// out\n        /* \"Presale.sol\":1189:1237  mapping(address => uint256) public userPurchases */\n    tag_49:\n      mstore(0x20, 0x08)\n      dup1\n      0x00\n      mstore\n      keccak256(0x00, 0x40)\n      0x00\n      swap2\n      pop\n      swap1\n      pop\n      sload\n      dup2\n      jump\t// out\n        /* \"Presale.sol\":3759:4179  function claimTokens() external nonReentrant {... */\n    tag_53:\n        /* \"@openzeppelin/contracts/security/ReentrancyGuard.sol\":2261:2282  _nonReentrantBefore() */\n      tag_169\n        /* \"@openzeppelin/contracts/security/ReentrancyGuard.sol\":2261:2280  _nonReentrantBefore */\n      tag_122\n        /* \"@openzeppelin/contracts/security/ReentrancyGuard.sol\":2261:2282  _nonReentrantBefore() */\n      jump\t// in\n    tag_169:\n        /* \"Presale.sol\":3822:3834  presaleEnded */\n      0x06\n      0x00\n      swap1\n      sload\n      swap1\n      0x0100\n      exp\n      swap1\n      div\n      0xff\n      and\n        /* \"Presale.sol\":3822:3891  presaleEnded || block.timestamp > presaleStartTime + PRESALE_DURATION */\n      dup1\n      tag_171\n      jumpi\n      pop\n        /* \"Presale.sol\":783:790  90 days */\n      0x76a700\n        /* \"Presale.sol\":3856:3872  presaleStartTime */\n      sload(0x05)\n        /* \"Presale.sol\":3856:3891  presaleStartTime + PRESALE_DURATION */\n      tag_172\n      swap2\n      swap1\n      tag_131\n      jump\t// in\n    tag_172:\n        /* \"Presale.sol\":3838:3853  block.timestamp */\n      timestamp\n        /* \"Presale.sol\":3838:3891  block.timestamp > presaleStartTime + PRESALE_DURATION */\n      gt\n        /* \"Presale.sol\":3822:3891  presaleEnded || block.timestamp > presaleStartTime + PRESALE_DURATION */\n    tag_171:\n        /* \"Presale.sol\":3814:3912  require(presaleEnded || block.timestamp > presaleStartTime + PRESALE_DURATION, \"Belum bisa claim\") */\n      tag_173\n      jumpi\n      mload(0x40)\n      0x08c379a000000000000000000000000000000000000000000000000000000000\n      dup2\n      mstore\n      0x04\n      add\n      tag_174\n      swap1\n      tag_175\n      jump\t// in\n    tag_174:\n      mload(0x40)\n      dup1\n      swap2\n      sub\n      swap1\n      revert\n    tag_173:\n        /* \"Presale.sol\":3931:3945  uint256 amount */\n      0x00\n        /* \"Presale.sol\":3948:3961  userPurchases */\n      0x08\n        /* \"Presale.sol\":3948:3973  userPurchases[msg.sender] */\n      0x00\n        /* \"Presale.sol\":3962:3972  msg.sender */\n      caller\n        /* \"Presale.sol\":3948:3973  userPurchases[msg.sender] */\n      0xffffffffffffffffffffffffffffffffffffffff\n      and\n      0xffffffffffffffffffffffffffffffffffffffff\n      and\n      dup2\n      mstore\n      0x20\n      add\n      swap1\n      dup2\n      mstore\n      0x20\n      add\n      0x00\n      keccak256\n      sload\n        /* \"Presale.sol\":3931:3973  uint256 amount = userPurchases[msg.sender] */\n      swap1\n      pop\n        /* \"Presale.sol\":4000:4001  0 */\n      0x00\n        /* \"Presale.sol\":3991:3997  amount */\n      dup2\n        /* \"Presale.sol\":3991:4001  amount > 0 */\n      gt\n        /* \"Presale.sol\":3983:4036  require(amount > 0, \"Tidak ada token untuk di-claim\") */\n      tag_176\n      jumpi\n      mload(0x40)\n      0x08c379a000000000000000000000000000000000000000000000000000000000\n      dup2\n      mstore\n      0x04\n      add\n      tag_177\n      swap1\n      tag_178\n      jump\t// in\n    tag_177:\n      mload(0x40)\n      dup1\n      swap2\n      sub\n      swap1\n      revert\n    tag_176:\n        /* \"Presale.sol\":4075:4076  0 */\n      0x00\n        /* \"Presale.sol\":4047:4060  userPurchases */\n      0x08\n        /* \"Presale.sol\":4047:4072  userPurchases[msg.sender] */\n      0x00\n        /* \"Presale.sol\":4061:4071  msg.sender */\n      caller\n        /* \"Presale.sol\":4047:4072  userPurchases[msg.sender] */\n      0xffffffffffffffffffffffffffffffffffffffff\n      and\n      0xffffffffffffffffffffffffffffffffffffffff\n      and\n      dup2\n      mstore\n      0x20\n      add\n      swap1\n      dup2\n      mstore\n      0x20\n      add\n      0x00\n      keccak256\n        /* \"Presale.sol\":4047:4076  userPurchases[msg.sender] = 0 */\n      dup2\n      swap1\n      sstore\n      pop\n        /* \"Presale.sol\":4086:4123  cafi.safeTransfer(msg.sender, amount) */\n      tag_179\n        /* \"Presale.sol\":4104:4114  msg.sender */\n      caller\n        /* \"Presale.sol\":4116:4122  amount */\n      dup3\n        /* \"Presale.sol\":4086:4090  cafi */\n      immutable(\"0x474e8cbbfd90dba9df5fc054f99b290c4296483a721448990672feaba0c59d72\")\n        /* \"Presale.sol\":4086:4103  cafi.safeTransfer */\n      0xffffffffffffffffffffffffffffffffffffffff\n      and\n      tag_180\n      swap1\n        /* \"Presale.sol\":4086:4123  cafi.safeTransfer(msg.sender, amount) */\n      swap3\n      swap2\n      swap1\n      0xffffffff\n      and\n      jump\t// in\n    tag_179:\n        /* \"Presale.sol\":4153:4163  msg.sender */\n      caller\n        /* \"Presale.sol\":4139:4172  TokensClaimed(msg.sender, amount) */\n      0xffffffffffffffffffffffffffffffffffffffff\n      and\n      0x896e034966eaaf1adc54acc0f257056febbd300c9e47182cf761982cf1f5e430\n        /* \"Presale.sol\":4165:4171  amount */\n      dup3\n        /* \"Presale.sol\":4139:4172  TokensClaimed(msg.sender, amount) */\n      mload(0x40)\n      tag_181\n      swap2\n      swap1\n      tag_51\n      jump\t// in\n    tag_181:\n      mload(0x40)\n      dup1\n      swap2\n      sub\n      swap1\n      log2\n        /* \"Presale.sol\":3804:4179  {... */\n      pop\n        /* \"@openzeppelin/contracts/security/ReentrancyGuard.sol\":2303:2323  _nonReentrantAfter() */\n      tag_182\n        /* \"@openzeppelin/contracts/security/ReentrancyGuard.sol\":2303:2321  _nonReentrantAfter */\n      tag_167\n        /* \"@openzeppelin/contracts/security/ReentrancyGuard.sol\":2303:2323  _nonReentrantAfter() */\n      jump\t// in\n    tag_182:\n        /* \"Presale.sol\":3759:4179  function claimTokens() external nonReentrant {... */\n      jump\t// out\n        /* \"Presale.sol\":1024:1051  uint256 public currentStage */\n    tag_55:\n      sload(0x04)\n      dup2\n      jump\t// out\n        /* \"Presale.sol\":540:573  address public immutable treasury */\n    tag_58:\n      immutable(\"0xa94eb21dc683b2617e70b464660e1d440b88a596ad8df201f6a0560b3aa241c4\")\n      dup2\n      jump\t// out\n        /* \"@openzeppelin/contracts/access/Ownable.sol\":2293:2394  function renounceOwnership() public virtual onlyOwner {... */\n    tag_62:\n        /* \"@openzeppelin/contracts/access/Ownable.sol\":1531:1544  _checkOwner() */\n      tag_184\n        /* \"@openzeppelin/contracts/access/Ownable.sol\":1531:1542  _checkOwner */\n      tag_105\n        /* \"@openzeppelin/contracts/access/Ownable.sol\":1531:1544  _checkOwner() */\n      jump\t// in\n    tag_184:\n        /* \"@openzeppelin/contracts/access/Ownable.sol\":2357:2387  _transferOwnership(address(0)) */\n      tag_186\n        /* \"@openzeppelin/contracts/access/Ownable.sol\":2384:2385  0 */\n      0x00\n        /* \"@openzeppelin/contracts/access/Ownable.sol\":2357:2375  _transferOwnership */\n      tag_187\n        /* \"@openzeppelin/contracts/access/Ownable.sol\":2357:2387  _transferOwnership(address(0)) */\n      jump\t// in\n    tag_186:\n        /* \"@openzeppelin/contracts/access/Ownable.sol\":2293:2394  function renounceOwnership() public virtual onlyOwner {... */\n      jump\t// out\n        /* \"@openzeppelin/contracts/access/Ownable2Step.sol\":2244:2473  function acceptOwnership() public virtual {... */\n    tag_64:\n        /* \"@openzeppelin/contracts/access/Ownable2Step.sol\":2296:2310  address sender */\n      0x00\n        /* \"@openzeppelin/contracts/access/Ownable2Step.sol\":2313:2325  _msgSender() */\n      tag_189\n        /* \"@openzeppelin/contracts/access/Ownable2Step.sol\":2313:2323  _msgSender */\n      tag_190\n        /* \"@openzeppelin/contracts/access/Ownable2Step.sol\":2313:2325  _msgSender() */\n      jump\t// in\n    tag_189:\n        /* \"@openzeppelin/contracts/access/Ownable2Step.sol\":2296:2325  address sender = _msgSender() */\n      swap1\n      pop\n        /* \"@openzeppelin/contracts/access/Ownable2Step.sol\":2357:2363  sender */\n      dup1\n        /* \"@openzeppelin/contracts/access/Ownable2Step.sol\":2339:2363  pendingOwner() != sender */\n      0xffffffffffffffffffffffffffffffffffffffff\n      and\n        /* \"@openzeppelin/contracts/access/Ownable2Step.sol\":2339:2353  pendingOwner() */\n      tag_191\n        /* \"@openzeppelin/contracts/access/Ownable2Step.sol\":2339:2351  pendingOwner */\n      tag_91\n        /* \"@openzeppelin/contracts/access/Ownable2Step.sol\":2339:2353  pendingOwner() */\n      jump\t// in\n    tag_191:\n        /* \"@openzeppelin/contracts/access/Ownable2Step.sol\":2339:2363  pendingOwner() != sender */\n      0xffffffffffffffffffffffffffffffffffffffff\n      and\n      eq\n        /* \"@openzeppelin/contracts/access/Ownable2Step.sol\":2335:2431  if (pendingOwner() != sender) {... */\n      tag_192\n      jumpi\n        /* \"@openzeppelin/contracts/access/Ownable2Step.sol\":2413:2419  sender */\n      dup1\n        /* \"@openzeppelin/contracts/access/Ownable2Step.sol\":2386:2420  OwnableUnauthorizedAccount(sender) */\n      mload(0x40)\n      0x118cdaa700000000000000000000000000000000000000000000000000000000\n      dup2\n      mstore\n      0x04\n      add\n      tag_193\n      swap2\n      swap1\n      tag_60\n      jump\t// in\n    tag_193:\n      mload(0x40)\n      dup1\n      swap2\n      sub\n      swap1\n      revert\n        /* \"@openzeppelin/contracts/access/Ownable2Step.sol\":2335:2431  if (pendingOwner() != sender) {... */\n    tag_192:\n        /* \"@openzeppelin/contracts/access/Ownable2Step.sol\":2440:2466  _transferOwnership(sender) */\n      tag_194\n        /* \"@openzeppelin/contracts/access/Ownable2Step.sol\":2459:2465  sender */\n      dup2\n        /* \"@openzeppelin/contracts/access/Ownable2Step.sol\":2440:2458  _transferOwnership */\n      tag_187\n        /* \"@openzeppelin/contracts/access/Ownable2Step.sol\":2440:2466  _transferOwnership(sender) */\n      jump\t// in\n    tag_194:\n        /* \"@openzeppelin/contracts/access/Ownable2Step.sol\":2286:2473  {... */\n      pop\n        /* \"@openzeppelin/contracts/access/Ownable2Step.sol\":2244:2473  function acceptOwnership() public virtual {... */\n      jump\t// out\n        /* \"Presale.sol\":997:1018  Stage[] public stages */\n    tag_67:\n      0x03\n      dup2\n      dup2\n      sload\n      dup2\n      lt\n      tag_195\n      jumpi\n      0x00\n      dup1\n      revert\n    tag_195:\n      swap1\n      0x00\n      mstore\n      keccak256(0x00, 0x20)\n      swap1\n      0x04\n      mul\n      add\n      0x00\n      swap2\n      pop\n      swap1\n      pop\n      dup1\n      0x00\n      add\n      sload\n      swap1\n      dup1\n      0x01\n      add\n      sload\n      swap1\n      dup1\n      0x02\n      add\n      sload\n      swap1\n      dup1\n      0x03\n      add\n      0x00\n      swap1\n      sload\n      swap1\n      0x0100\n      exp\n      swap1\n      div\n      0xff\n      and\n      swap1\n      pop\n      dup5\n      jump\t// out\n        /* \"@openzeppelin/contracts/access/Ownable.sol\":1638:1723  function owner() public view virtual returns (address) {... */\n    tag_71:\n        /* \"@openzeppelin/contracts/access/Ownable.sol\":1684:1691  address */\n      0x00\n        /* \"@openzeppelin/contracts/access/Ownable.sol\":1710:1716  _owner */\n      0x00\n      0x00\n      swap1\n      sload\n      swap1\n      0x0100\n      exp\n      swap1\n      div\n      0xffffffffffffffffffffffffffffffffffffffff\n      and\n        /* \"@openzeppelin/contracts/access/Ownable.sol\":1703:1716  return _owner */\n      swap1\n      pop\n        /* \"@openzeppelin/contracts/access/Ownable.sol\":1638:1723  function owner() public view virtual returns (address) {... */\n      swap1\n      jump\t// out\n        /* \"Presale.sol\":1159:1183  uint256 public totalSold */\n    tag_74:\n      sload(0x07)\n      dup2\n      jump\t// out\n        /* \"Presale.sol\":740:790  uint256 public constant PRESALE_DURATION = 90 days */\n    tag_77:\n        /* \"Presale.sol\":783:790  90 days */\n      0x76a700\n        /* \"Presale.sol\":740:790  uint256 public constant PRESALE_DURATION = 90 days */\n      dup2\n      jump\t// out\n        /* \"Presale.sol\":580:644  uint256 public constant TOTAL_PRESALE_SUPPLY = 10_000_000 * 1e18 */\n    tag_80:\n        /* \"Presale.sol\":627:644  10_000_000 * 1e18 */\n      0x084595161401484a000000\n        /* \"Presale.sol\":580:644  uint256 public constant TOTAL_PRESALE_SUPPLY = 10_000_000 * 1e18 */\n      dup2\n      jump\t// out\n        /* \"Presale.sol\":4226:4578  function endPresale() external onlyOwner {... */\n    tag_83:\n        /* \"@openzeppelin/contracts/access/Ownable.sol\":1531:1544  _checkOwner() */\n      tag_199\n        /* \"@openzeppelin/contracts/access/Ownable.sol\":1531:1542  _checkOwner */\n      tag_105\n        /* \"@openzeppelin/contracts/access/Ownable.sol\":1531:1544  _checkOwner() */\n      jump\t// in\n    tag_199:\n        /* \"Presale.sol\":4286:4298  presaleEnded */\n      0x06\n      0x00\n      swap1\n      sload\n      swap1\n      0x0100\n      exp\n      swap1\n      div\n      0xff\n      and\n        /* \"Presale.sol\":4285:4298  !presaleEnded */\n      iszero\n        /* \"Presale.sol\":4277:4325  require(!presaleEnded, \"Presale sudah diakhiri\") */\n      tag_201\n      jumpi\n      mload(0x40)\n      0x08c379a000000000000000000000000000000000000000000000000000000000\n      dup2\n      mstore\n      0x04\n      add\n      tag_202\n      swap1\n      tag_203\n      jump\t// in\n    tag_202:\n      mload(0x40)\n      dup1\n      swap2\n      sub\n      swap1\n      revert\n    tag_201:\n        /* \"Presale.sol\":4359:4363  true */\n      0x01\n        /* \"Presale.sol\":4344:4356  presaleEnded */\n      0x06\n      0x00\n        /* \"Presale.sol\":4344:4363  presaleEnded = true */\n      0x0100\n      exp\n      dup2\n      sload\n      dup2\n      0xff\n      mul\n      not\n      and\n      swap1\n      dup4\n      iszero\n      iszero\n      mul\n      or\n      swap1\n      sstore\n      pop\n        /* \"Presale.sol\":4373:4390  uint256 remaining */\n      0x00\n        /* \"Presale.sol\":4393:4397  cafi */\n      immutable(\"0x474e8cbbfd90dba9df5fc054f99b290c4296483a721448990672feaba0c59d72\")\n        /* \"Presale.sol\":4393:4407  cafi.balanceOf */\n      0xffffffffffffffffffffffffffffffffffffffff\n      and\n      0x70a08231\n        /* \"Presale.sol\":4416:4420  this */\n      address\n        /* \"Presale.sol\":4393:4422  cafi.balanceOf(address(this)) */\n      mload(0x40)\n      dup3\n      0xffffffff\n      and\n      0xe0\n      shl\n      dup2\n      mstore\n      0x04\n      add\n      tag_204\n      swap2\n      swap1\n      tag_60\n      jump\t// in\n    tag_204:\n      0x20\n      mload(0x40)\n      dup1\n      dup4\n      sub\n      dup2\n      dup7\n      gas\n      staticcall\n      iszero\n      dup1\n      iszero\n      tag_206\n      jumpi\n      returndatacopy(0x00, 0x00, returndatasize)\n      revert(0x00, returndatasize)\n    tag_206:\n      pop\n      pop\n      pop\n      pop\n      mload(0x40)\n      returndatasize\n      not(0x1f)\n      0x1f\n      dup3\n      add\n      and\n      dup3\n      add\n      dup1\n      0x40\n      mstore\n      pop\n      dup2\n      add\n      swap1\n      tag_207\n      swap2\n      swap1\n      tag_208\n      jump\t// in\n    tag_207:\n        /* \"Presale.sol\":4373:4422  uint256 remaining = cafi.balanceOf(address(this)) */\n      swap1\n      pop\n        /* \"Presale.sol\":4457:4458  0 */\n      0x00\n        /* \"Presale.sol\":4445:4454  remaining */\n      dup2\n        /* \"Presale.sol\":4445:4458  remaining > 0 */\n      gt\n        /* \"Presale.sol\":4441:4522  if (remaining > 0) {... */\n      iszero\n      tag_209\n      jumpi\n        /* \"Presale.sol\":4474:4511  cafi.safeTransfer(owner(), remaining) */\n      tag_210\n        /* \"Presale.sol\":4492:4499  owner() */\n      tag_211\n        /* \"Presale.sol\":4492:4497  owner */\n      tag_71\n        /* \"Presale.sol\":4492:4499  owner() */\n      jump\t// in\n    tag_211:\n        /* \"Presale.sol\":4501:4510  remaining */\n      dup3\n        /* \"Presale.sol\":4474:4478  cafi */\n      immutable(\"0x474e8cbbfd90dba9df5fc054f99b290c4296483a721448990672feaba0c59d72\")\n        /* \"Presale.sol\":4474:4491  cafi.safeTransfer */\n      0xffffffffffffffffffffffffffffffffffffffff\n      and\n      tag_180\n      swap1\n        /* \"Presale.sol\":4474:4511  cafi.safeTransfer(owner(), remaining) */\n      swap3\n      swap2\n      swap1\n      0xffffffff\n      and\n      jump\t// in\n    tag_210:\n        /* \"Presale.sol\":4441:4522  if (remaining > 0) {... */\n    tag_209:\n        /* \"Presale.sol\":4537:4571  PresaleEnded(totalSold, remaining) */\n      0xb4e6cb40663c1ac63bcd620dbe3d98c44526baa45e310f545f425ebaab36a293\n        /* \"Presale.sol\":4550:4559  totalSold */\n      sload(0x07)\n        /* \"Presale.sol\":4561:4570  remaining */\n      dup3\n        /* \"Presale.sol\":4537:4571  PresaleEnded(totalSold, remaining) */\n      mload(0x40)\n      tag_212\n      swap3\n      swap2\n      swap1\n      tag_165\n      jump\t// in\n    tag_212:\n      mload(0x40)\n      dup1\n      swap2\n      sub\n      swap1\n      log1\n        /* \"Presale.sol\":4267:4578  {... */\n      pop\n        /* \"Presale.sol\":4226:4578  function endPresale() external onlyOwner {... */\n      jump\t// out\n        /* \"Presale.sol\":1057:1088  uint256 public presaleStartTime */\n    tag_85:\n      sload(0x05)\n      dup2\n      jump\t// out\n        /* \"Presale.sol\":673:734  uint256 public constant MAX_BUY_PER_WALLET = 1_000_000 * 1e18 */\n    tag_88:\n        /* \"Presale.sol\":718:734  1_000_000 * 1e18 */\n      0xd3c21bcecceda1000000\n        /* \"Presale.sol\":673:734  uint256 public constant MAX_BUY_PER_WALLET = 1_000_000 * 1e18 */\n      dup2\n      jump\t// out\n        /* \"@openzeppelin/contracts/access/Ownable2Step.sol\":1232:1331  function pendingOwner() public view virtual returns (address) {... */\n    tag_91:\n        /* \"@openzeppelin/contracts/access/Ownable2Step.sol\":1285:1292  address */\n      0x00\n        /* \"@openzeppelin/contracts/access/Ownable2Step.sol\":1311:1324  _pendingOwner */\n      0x01\n      0x00\n      swap1\n      sload\n      swap1\n      0x0100\n      exp\n      swap1\n      div\n      0xffffffffffffffffffffffffffffffffffffffff\n      and\n        /* \"@openzeppelin/contracts/access/Ownable2Step.sol\":1304:1324  return _pendingOwner */\n      swap1\n      pop\n        /* \"@openzeppelin/contracts/access/Ownable2Step.sol\":1232:1331  function pendingOwner() public view virtual returns (address) {... */\n      swap1\n      jump\t// out\n        /* \"Presale.sol\":1094:1118  bool public presaleEnded */\n    tag_94:\n      0x06\n      0x00\n      swap1\n      sload\n      swap1\n      0x0100\n      exp\n      swap1\n      div\n      0xff\n      and\n      dup2\n      jump\t// out\n        /* \"@openzeppelin/contracts/access/Ownable2Step.sol\":1649:1827  function transferOwnership(address newOwner) public virtual override onlyOwner {... */\n    tag_99:\n        /* \"@openzeppelin/contracts/access/Ownable.sol\":1531:1544  _checkOwner() */\n      tag_215\n        /* \"@openzeppelin/contracts/access/Ownable.sol\":1531:1542  _checkOwner */\n      tag_105\n        /* \"@openzeppelin/contracts/access/Ownable.sol\":1531:1544  _checkOwner() */\n      jump\t// in\n    tag_215:\n        /* \"@openzeppelin/contracts/access/Ownable2Step.sol\":1754:1762  newOwner */\n      dup1\n        /* \"@openzeppelin/contracts/access/Ownable2Step.sol\":1738:1751  _pendingOwner */\n      0x01\n      0x00\n        /* \"@openzeppelin/contracts/access/Ownable2Step.sol\":1738:1762  _pendingOwner = newOwner */\n      0x0100\n      exp\n      dup2\n      sload\n      dup2\n      0xffffffffffffffffffffffffffffffffffffffff\n      mul\n      not\n      and\n      swap1\n      dup4\n      0xffffffffffffffffffffffffffffffffffffffff\n      and\n      mul\n      or\n      swap1\n      sstore\n      pop\n        /* \"@openzeppelin/contracts/access/Ownable2Step.sol\":1811:1819  newOwner */\n      dup1\n        /* \"@openzeppelin/contracts/access/Ownable2Step.sol\":1777:1820  OwnershipTransferStarted(owner(), newOwner) */\n      0xffffffffffffffffffffffffffffffffffffffff\n      and\n        /* \"@openzeppelin/contracts/access/Ownable2Step.sol\":1802:1809  owner() */\n      tag_217\n        /* \"@openzeppelin/contracts/access/Ownable2Step.sol\":1802:1807  owner */\n      tag_71\n        /* \"@openzeppelin/contracts/access/Ownable2Step.sol\":1802:1809  owner() */\n      jump\t// in\n    tag_217:\n        /* \"@openzeppelin/contracts/access/Ownable2Step.sol\":1777:1820  OwnershipTransferStarted(owner(), newOwner) */\n      0xffffffffffffffffffffffffffffffffffffffff\n      and\n      0x38d16b8cac22d99fc7c124b9cd0de2d3fa1faef420bfe791d8c362d765e22700\n      mload(0x40)\n      mload(0x40)\n      dup1\n      swap2\n      sub\n      swap1\n      log3\n        /* \"@openzeppelin/contracts/access/Ownable2Step.sol\":1649:1827  function transferOwnership(address newOwner) public virtual override onlyOwner {... */\n      pop\n      jump\t// out\n        /* \"Presale.sol\":5463:5727  function getPresaleTimeLeft() external view returns (uint256) {... */\n    tag_101:\n        /* \"Presale.sol\":5516:5523  uint256 */\n      0x00\n        /* \"Presale.sol\":5559:5560  0 */\n      0x00\n        /* \"Presale.sol\":5539:5555  presaleStartTime */\n      sload(0x05)\n        /* \"Presale.sol\":5539:5560  presaleStartTime == 0 */\n      sub\n        /* \"Presale.sol\":5535:5570  if (presaleStartTime == 0) return 0 */\n      tag_219\n      jumpi\n        /* \"Presale.sol\":5569:5570  0 */\n      0x00\n        /* \"Presale.sol\":5562:5570  return 0 */\n      swap1\n      pop\n      jump(tag_218)\n        /* \"Presale.sol\":5535:5570  if (presaleStartTime == 0) return 0 */\n    tag_219:\n        /* \"Presale.sol\":783:790  90 days */\n      0x76a700\n        /* \"Presale.sol\":5603:5619  presaleStartTime */\n      sload(0x05)\n        /* \"Presale.sol\":5603:5638  presaleStartTime + PRESALE_DURATION */\n      tag_220\n      swap2\n      swap1\n      tag_131\n      jump\t// in\n    tag_220:\n        /* \"Presale.sol\":5584:5599  block.timestamp */\n      timestamp\n        /* \"Presale.sol\":5584:5638  block.timestamp >= presaleStartTime + PRESALE_DURATION */\n      lt\n        /* \"Presale.sol\":5580:5648  if (block.timestamp >= presaleStartTime + PRESALE_DURATION) return 0 */\n      tag_221\n      jumpi\n        /* \"Presale.sol\":5647:5648  0 */\n      0x00\n        /* \"Presale.sol\":5640:5648  return 0 */\n      swap1\n      pop\n      jump(tag_218)\n        /* \"Presale.sol\":5580:5648  if (block.timestamp >= presaleStartTime + PRESALE_DURATION) return 0 */\n    tag_221:\n        /* \"Presale.sol\":5705:5720  block.timestamp */\n      timestamp\n        /* \"Presale.sol\":783:790  90 days */\n      0x76a700\n        /* \"Presale.sol\":5666:5682  presaleStartTime */\n      sload(0x05)\n        /* \"Presale.sol\":5666:5701  presaleStartTime + PRESALE_DURATION */\n      tag_222\n      swap2\n      swap1\n      tag_131\n      jump\t// in\n    tag_222:\n        /* \"Presale.sol\":5665:5720  (presaleStartTime + PRESALE_DURATION) - block.timestamp */\n      tag_223\n      swap2\n      swap1\n      tag_119\n      jump\t// in\n    tag_223:\n        /* \"Presale.sol\":5658:5720  return (presaleStartTime + PRESALE_DURATION) - block.timestamp */\n      swap1\n      pop\n        /* \"Presale.sol\":5463:5727  function getPresaleTimeLeft() external view returns (uint256) {... */\n    tag_218:\n      swap1\n      jump\t// out\n        /* \"@openzeppelin/contracts/access/Ownable.sol\":1796:1958  function _checkOwner() internal view virtual {... */\n    tag_105:\n        /* \"@openzeppelin/contracts/access/Ownable.sol\":1866:1878  _msgSender() */\n      tag_225\n        /* \"@openzeppelin/contracts/access/Ownable.sol\":1866:1876  _msgSender */\n      tag_190\n        /* \"@openzeppelin/contracts/access/Ownable.sol\":1866:1878  _msgSender() */\n      jump\t// in\n    tag_225:\n        /* \"@openzeppelin/contracts/access/Ownable.sol\":1855:1878  owner() != _msgSender() */\n      0xffffffffffffffffffffffffffffffffffffffff\n      and\n        /* \"@openzeppelin/contracts/access/Ownable.sol\":1855:1862  owner() */\n      tag_226\n        /* \"@openzeppelin/contracts/access/Ownable.sol\":1855:1860  owner */\n      tag_71\n        /* \"@openzeppelin/contracts/access/Ownable.sol\":1855:1862  owner() */\n      jump\t// in\n    tag_226:\n        /* \"@openzeppelin/contracts/access/Ownable.sol\":1855:1878  owner() != _msgSender() */\n      0xffffffffffffffffffffffffffffffffffffffff\n      and\n      eq\n        /* \"@openzeppelin/contracts/access/Ownable.sol\":1851:1952  if (owner() != _msgSender()) {... */\n      tag_227\n      jumpi\n        /* \"@openzeppelin/contracts/access/Ownable.sol\":1928:1940  _msgSender() */\n      tag_228\n        /* \"@openzeppelin/contracts/access/Ownable.sol\":1928:1938  _msgSender */\n      tag_190\n        /* \"@openzeppelin/contracts/access/Ownable.sol\":1928:1940  _msgSender() */\n      jump\t// in\n    tag_228:\n        /* \"@openzeppelin/contracts/access/Ownable.sol\":1901:1941  OwnableUnauthorizedAccount(_msgSender()) */\n      mload(0x40)\n      0x118cdaa700000000000000000000000000000000000000000000000000000000\n      dup2\n      mstore\n      0x04\n      add\n      tag_229\n      swap2\n      swap1\n      tag_60\n      jump\t// in\n    tag_229:\n      mload(0x40)\n      dup1\n      swap2\n      sub\n      swap1\n      revert\n        /* \"@openzeppelin/contracts/access/Ownable.sol\":1851:1952  if (owner() != _msgSender()) {... */\n    tag_227:\n        /* \"@openzeppelin/contracts/access/Ownable.sol\":1796:1958  function _checkOwner() internal view virtual {... */\n      jump\t// out\n        /* \"@openzeppelin/contracts/security/ReentrancyGuard.sol\":2336:2623  function _nonReentrantBefore() private {... */\n    tag_122:\n        /* \"@openzeppelin/contracts/security/ReentrancyGuard.sol\":1759:1760  2 */\n      0x02\n        /* \"@openzeppelin/contracts/security/ReentrancyGuard.sol\":2468:2475  _status */\n      dup1\n      sload\n        /* \"@openzeppelin/contracts/security/ReentrancyGuard.sol\":2468:2487  _status != _ENTERED */\n      sub\n        /* \"@openzeppelin/contracts/security/ReentrancyGuard.sol\":2460:2523  require(_status != _ENTERED, \"ReentrancyGuard: reentrant call\") */\n      tag_231\n      jumpi\n      mload(0x40)\n      0x08c379a000000000000000000000000000000000000000000000000000000000\n      dup2\n      mstore\n      0x04\n      add\n      tag_232\n      swap1\n      tag_233\n      jump\t// in\n    tag_232:\n      mload(0x40)\n      dup1\n      swap2\n      sub\n      swap1\n      revert\n    tag_231:\n        /* \"@openzeppelin/contracts/security/ReentrancyGuard.sol\":1759:1760  2 */\n      0x02\n        /* \"@openzeppelin/contracts/security/ReentrancyGuard.sol\":2598:2605  _status */\n      dup1\n        /* \"@openzeppelin/contracts/security/ReentrancyGuard.sol\":2598:2616  _status = _ENTERED */\n      dup2\n      swap1\n      sstore\n      pop\n        /* \"@openzeppelin/contracts/security/ReentrancyGuard.sol\":2336:2623  function _nonReentrantBefore() private {... */\n      jump\t// out\n        /* \"@openzeppelin/contracts/token/ERC20/utils/SafeERC20.sol\":1618:1806  function safeTransferFrom(IERC20 token, address from, address to, uint256 value) internal {... */\n    tag_157:\n        /* \"@openzeppelin/contracts/token/ERC20/utils/SafeERC20.sol\":1718:1799  _callOptionalReturn(token, abi.encodeCall(token.transferFrom, (from, to, value))) */\n      tag_235\n        /* \"@openzeppelin/contracts/token/ERC20/utils/SafeERC20.sol\":1738:1743  token */\n      dup5\n        /* \"@openzeppelin/contracts/token/ERC20/utils/SafeERC20.sol\":1760:1765  token */\n      dup6\n        /* \"@openzeppelin/contracts/token/ERC20/utils/SafeERC20.sol\":1760:1778  token.transferFrom */\n      0xffffffffffffffffffffffffffffffffffffffff\n      and\n      0x23b872dd\n        /* \"@openzeppelin/contracts/token/ERC20/utils/SafeERC20.sol\":1781:1785  from */\n      dup7\n        /* \"@openzeppelin/contracts/token/ERC20/utils/SafeERC20.sol\":1787:1789  to */\n      dup7\n        /* \"@openzeppelin/contracts/token/ERC20/utils/SafeERC20.sol\":1791:1796  value */\n      dup7\n        /* \"@openzeppelin/contracts/token/ERC20/utils/SafeERC20.sol\":1745:1798  abi.encodeCall(token.transferFrom, (from, to, value)) */\n      add(0x24, mload(0x40))\n      tag_236\n      swap4\n      swap3\n      swap2\n      swap1\n      tag_237\n      jump\t// in\n    tag_236:\n      mload(0x40)\n      0x20\n      dup2\n      dup4\n      sub\n      sub\n      dup2\n      mstore\n      swap1\n      0x40\n      mstore\n      swap2\n      pop\n      0xe0\n      shl\n      0x20\n      dup3\n      add\n      dup1\n      mload\n      0xffffffffffffffffffffffffffffffffffffffffffffffffffffffff\n      dup4\n      dup2\n      dup4\n      and\n      or\n      dup4\n      mstore\n      pop\n      pop\n      pop\n      pop\n        /* \"@openzeppelin/contracts/token/ERC20/utils/SafeERC20.sol\":1718:1737  _callOptionalReturn */\n      tag_238\n        /* \"@openzeppelin/contracts/token/ERC20/utils/SafeERC20.sol\":1718:1799  _callOptionalReturn(token, abi.encodeCall(token.transferFrom, (from, to, value))) */\n      jump\t// in\n    tag_235:\n        /* \"@openzeppelin/contracts/token/ERC20/utils/SafeERC20.sol\":1618:1806  function safeTransferFrom(IERC20 token, address from, address to, uint256 value) internal {... */\n      pop\n      pop\n      pop\n      pop\n      jump\t// out\n        /* \"Presale.sol\":4628:5030  function _advanceStage() internal {... */\n    tag_163:\n        /* \"Presale.sol\":4704:4709  false */\n      0x00\n        /* \"Presale.sol\":4672:4678  stages */\n      0x03\n        /* \"Presale.sol\":4679:4691  currentStage */\n      sload(0x04)\n        /* \"Presale.sol\":4672:4692  stages[currentStage] */\n      dup2\n      sload\n      dup2\n      lt\n      tag_240\n      jumpi\n      tag_241\n      tag_112\n      jump\t// in\n    tag_241:\n    tag_240:\n      swap1\n      0x00\n      mstore\n      keccak256(0x00, 0x20)\n      swap1\n      0x04\n      mul\n      add\n        /* \"Presale.sol\":4672:4701  stages[currentStage].isActive */\n      0x03\n      add\n      0x00\n        /* \"Presale.sol\":4672:4709  stages[currentStage].isActive = false */\n      0x0100\n      exp\n      dup2\n      sload\n      dup2\n      0xff\n      mul\n      not\n      and\n      swap1\n      dup4\n      iszero\n      iszero\n      mul\n      or\n      swap1\n      sstore\n      pop\n        /* \"Presale.sol\":4763:4764  1 */\n      0x01\n        /* \"Presale.sol\":4747:4753  stages */\n      0x03\n        /* \"Presale.sol\":4747:4760  stages.length */\n      dup1\n      sload\n      swap1\n      pop\n        /* \"Presale.sol\":4747:4764  stages.length - 1 */\n      tag_243\n      swap2\n      swap1\n      tag_119\n      jump\t// in\n    tag_243:\n        /* \"Presale.sol\":4732:4744  currentStage */\n      sload(0x04)\n        /* \"Presale.sol\":4732:4764  currentStage < stages.length - 1 */\n      lt\n        /* \"Presale.sol\":4728:5024  if (currentStage < stages.length - 1) {... */\n      iszero\n      tag_244\n      jumpi\n        /* \"Presale.sol\":4780:4792  currentStage */\n      0x04\n      0x00\n        /* \"Presale.sol\":4780:4794  currentStage++ */\n      dup2\n      sload\n      dup1\n      swap3\n      swap2\n      swap1\n      tag_245\n      swap1\n      tag_246\n      jump\t// in\n    tag_245:\n      swap2\n      swap1\n      pop\n      sstore\n      pop\n        /* \"Presale.sol\":4840:4844  true */\n      0x01\n        /* \"Presale.sol\":4808:4814  stages */\n      0x03\n        /* \"Presale.sol\":4815:4827  currentStage */\n      sload(0x04)\n        /* \"Presale.sol\":4808:4828  stages[currentStage] */\n      dup2\n      sload\n      dup2\n      lt\n      tag_247\n      jumpi\n      tag_248\n      tag_112\n      jump\t// in\n    tag_248:\n    tag_247:\n      swap1\n      0x00\n      mstore\n      keccak256(0x00, 0x20)\n      swap1\n      0x04\n      mul\n      add\n        /* \"Presale.sol\":4808:4837  stages[currentStage].isActive */\n      0x03\n      add\n      0x00\n        /* \"Presale.sol\":4808:4844  stages[currentStage].isActive = true */\n      0x0100\n      exp\n      dup2\n      sload\n      dup2\n      0xff\n      mul\n      not\n      and\n      swap1\n      dup4\n      iszero\n      iszero\n      mul\n      or\n      swap1\n      sstore\n      pop\n        /* \"Presale.sol\":4863:4890  StageAdvanced(currentStage) */\n      0xd87d457666088f7f0056032aa92e6fd462f4ec64661117a66049cd349a0cae14\n        /* \"Presale.sol\":4877:4889  currentStage */\n      sload(0x04)\n        /* \"Presale.sol\":4863:4890  StageAdvanced(currentStage) */\n      mload(0x40)\n      tag_250\n      swap2\n      swap1\n      tag_51\n      jump\t// in\n    tag_250:\n      mload(0x40)\n      dup1\n      swap2\n      sub\n      swap1\n      log1\n        /* \"Presale.sol\":4728:5024  if (currentStage < stages.length - 1) {... */\n      jump(tag_251)\n    tag_244:\n        /* \"Presale.sol\":4936:4940  true */\n      0x01\n        /* \"Presale.sol\":4921:4933  presaleEnded */\n      0x06\n      0x00\n        /* \"Presale.sol\":4921:4940  presaleEnded = true */\n      0x0100\n      exp\n      dup2\n      sload\n      dup2\n      0xff\n      mul\n      not\n      and\n      swap1\n      dup4\n      iszero\n      iszero\n      mul\n      or\n      swap1\n      sstore\n      pop\n        /* \"Presale.sol\":4959:5013  PresaleEnded(totalSold, cafi.balanceOf(address(this))) */\n      0xb4e6cb40663c1ac63bcd620dbe3d98c44526baa45e310f545f425ebaab36a293\n        /* \"Presale.sol\":4972:4981  totalSold */\n      sload(0x07)\n        /* \"Presale.sol\":4983:4987  cafi */\n      immutable(\"0x474e8cbbfd90dba9df5fc054f99b290c4296483a721448990672feaba0c59d72\")\n        /* \"Presale.sol\":4983:4997  cafi.balanceOf */\n      0xffffffffffffffffffffffffffffffffffffffff\n      and\n      0x70a08231\n        /* \"Presale.sol\":5006:5010  this */\n      address\n        /* \"Presale.sol\":4983:5012  cafi.balanceOf(address(this)) */\n      mload(0x40)\n      dup3\n      0xffffffff\n      and\n      0xe0\n      shl\n      dup2\n      mstore\n      0x04\n      add\n      tag_252\n      swap2\n      swap1\n      tag_60\n      jump\t// in\n    tag_252:\n      0x20\n      mload(0x40)\n      dup1\n      dup4\n      sub\n      dup2\n      dup7\n      gas\n      staticcall\n      iszero\n      dup1\n      iszero\n      tag_254\n      jumpi\n      returndatacopy(0x00, 0x00, returndatasize)\n      revert(0x00, returndatasize)\n    tag_254:\n      pop\n      pop\n      pop\n      pop\n      mload(0x40)\n      returndatasize\n      not(0x1f)\n      0x1f\n      dup3\n      add\n      and\n      dup3\n      add\n      dup1\n      0x40\n      mstore\n      pop\n      dup2\n      add\n      swap1\n      tag_255\n      swap2\n      swap1\n      tag_208\n      jump\t// in\n    tag_255:\n        /* \"Presale.sol\":4959:5013  PresaleEnded(totalSold, cafi.balanceOf(address(this))) */\n      mload(0x40)\n      tag_256\n      swap3\n      swap2\n      swap1\n      tag_165\n      jump\t// in\n    tag_256:\n      mload(0x40)\n      dup1\n      swap2\n      sub\n      swap1\n      log1\n        /* \"Presale.sol\":4728:5024  if (currentStage < stages.length - 1) {... */\n    tag_251:\n        /* \"Presale.sol\":4628:5030  function _advanceStage() internal {... */\n      jump\t// out\n        /* \"@openzeppelin/contracts/security/ReentrancyGuard.sol\":2629:2838  function _nonReentrantAfter() private {... */\n    tag_167:\n        /* \"@openzeppelin/contracts/security/ReentrancyGuard.sol\":1716:1717  1 */\n      0x01\n        /* \"@openzeppelin/contracts/security/ReentrancyGuard.sol\":2809:2816  _status */\n      0x02\n        /* \"@openzeppelin/contracts/security/ReentrancyGuard.sol\":2809:2831  _status = _NOT_ENTERED */\n      dup2\n      swap1\n      sstore\n      pop\n        /* \"@openzeppelin/contracts/security/ReentrancyGuard.sol\":2629:2838  function _nonReentrantAfter() private {... */\n      jump\t// out\n        /* \"@openzeppelin/contracts/token/ERC20/utils/SafeERC20.sol\":1219:1379  function safeTransfer(IERC20 token, address to, uint256 value) internal {... */\n    tag_180:\n        /* \"@openzeppelin/contracts/token/ERC20/utils/SafeERC20.sol\":1301:1372  _callOptionalReturn(token, abi.encodeCall(token.transfer, (to, value))) */\n      tag_259\n        /* \"@openzeppelin/contracts/token/ERC20/utils/SafeERC20.sol\":1321:1326  token */\n      dup4\n        /* \"@openzeppelin/contracts/token/ERC20/utils/SafeERC20.sol\":1343:1348  token */\n      dup5\n        /* \"@openzeppelin/contracts/token/ERC20/utils/SafeERC20.sol\":1343:1357  token.transfer */\n      0xffffffffffffffffffffffffffffffffffffffff\n      and\n      0xa9059cbb\n        /* \"@openzeppelin/contracts/token/ERC20/utils/SafeERC20.sol\":1360:1362  to */\n      dup6\n        /* \"@openzeppelin/contracts/token/ERC20/utils/SafeERC20.sol\":1364:1369  value */\n      dup6\n        /* \"@openzeppelin/contracts/token/ERC20/utils/SafeERC20.sol\":1328:1371  abi.encodeCall(token.transfer, (to, value)) */\n      add(0x24, mload(0x40))\n      tag_260\n      swap3\n      swap2\n      swap1\n      tag_261\n      jump\t// in\n    tag_260:\n      mload(0x40)\n      0x20\n      dup2\n      dup4\n      sub\n      sub\n      dup2\n      mstore\n      swap1\n      0x40\n      mstore\n      swap2\n      pop\n      0xe0\n      shl\n      0x20\n      dup3\n      add\n      dup1\n      mload\n      0xffffffffffffffffffffffffffffffffffffffffffffffffffffffff\n      dup4\n      dup2\n      dup4\n      and\n      or\n      dup4\n      mstore\n      pop\n      pop\n      pop\n      pop\n        /* \"@openzeppelin/contracts/token/ERC20/utils/SafeERC20.sol\":1301:1320  _callOptionalReturn */\n      tag_238\n        /* \"@openzeppelin/contracts/token/ERC20/utils/SafeERC20.sol\":1301:1372  _callOptionalReturn(token, abi.encodeCall(token.transfer, (to, value))) */\n      jump\t// in\n    tag_259:\n        /* \"@openzeppelin/contracts/token/ERC20/utils/SafeERC20.sol\":1219:1379  function safeTransfer(IERC20 token, address to, uint256 value) internal {... */\n      pop\n      pop\n      pop\n      jump\t// out\n        /* \"@openzeppelin/contracts/access/Ownable2Step.sol\":2011:2164  function _transferOwnership(address newOwner) internal virtual override {... */\n    tag_187:\n        /* \"@openzeppelin/contracts/access/Ownable2Step.sol\":2100:2113  _pendingOwner */\n      0x01\n      0x00\n        /* \"@openzeppelin/contracts/access/Ownable2Step.sol\":2093:2113  delete _pendingOwner */\n      0x0100\n      exp\n      dup2\n      sload\n      swap1\n      0xffffffffffffffffffffffffffffffffffffffff\n      mul\n      not\n      and\n      swap1\n      sstore\n        /* \"@openzeppelin/contracts/access/Ownable2Step.sol\":2123:2157  super._transferOwnership(newOwner) */\n      tag_263\n        /* \"@openzeppelin/contracts/access/Ownable2Step.sol\":2148:2156  newOwner */\n      dup2\n        /* \"@openzeppelin/contracts/access/Ownable2Step.sol\":2123:2147  super._transferOwnership */\n      tag_264\n        /* \"@openzeppelin/contracts/access/Ownable2Step.sol\":2123:2157  super._transferOwnership(newOwner) */\n      jump\t// in\n    tag_263:\n        /* \"@openzeppelin/contracts/access/Ownable2Step.sol\":2011:2164  function _transferOwnership(address newOwner) internal virtual override {... */\n      pop\n      jump\t// out\n        /* \"@openzeppelin/contracts/utils/Context.sol\":656:752  function _msgSender() internal view virtual returns (address) {... */\n    tag_190:\n        /* \"@openzeppelin/contracts/utils/Context.sol\":709:716  address */\n      0x00\n        /* \"@openzeppelin/contracts/utils/Context.sol\":735:745  msg.sender */\n      caller\n        /* \"@openzeppelin/contracts/utils/Context.sol\":728:745  return msg.sender */\n      swap1\n      pop\n        /* \"@openzeppelin/contracts/utils/Context.sol\":656:752  function _msgSender() internal view virtual returns (address) {... */\n      swap1\n      jump\t// out\n        /* \"@openzeppelin/contracts/token/ERC20/utils/SafeERC20.sol\":8370:9090  function _callOptionalReturn(IERC20 token, bytes memory data) private {... */\n    tag_238:\n        /* \"@openzeppelin/contracts/token/ERC20/utils/SafeERC20.sol\":8450:8468  uint256 returnSize */\n      0x00\n        /* \"@openzeppelin/contracts/token/ERC20/utils/SafeERC20.sol\":8478:8497  uint256 returnValue */\n      0x00\n        /* \"@openzeppelin/contracts/token/ERC20/utils/SafeERC20.sol\":8616:8620  0x20 */\n      0x20\n        /* \"@openzeppelin/contracts/token/ERC20/utils/SafeERC20.sol\":8613:8614  0 */\n      0x00\n        /* \"@openzeppelin/contracts/token/ERC20/utils/SafeERC20.sol\":8606:8610  data */\n      dup5\n        /* \"@openzeppelin/contracts/token/ERC20/utils/SafeERC20.sol\":8600:8611  mload(data) */\n      mload\n        /* \"@openzeppelin/contracts/token/ERC20/utils/SafeERC20.sol\":8593:8597  0x20 */\n      0x20\n        /* \"@openzeppelin/contracts/token/ERC20/utils/SafeERC20.sol\":8587:8591  data */\n      dup7\n        /* \"@openzeppelin/contracts/token/ERC20/utils/SafeERC20.sol\":8583:8598  add(data, 0x20) */\n      add\n        /* \"@openzeppelin/contracts/token/ERC20/utils/SafeERC20.sol\":8580:8581  0 */\n      0x00\n        /* \"@openzeppelin/contracts/token/ERC20/utils/SafeERC20.sol\":8573:8578  token */\n      dup9\n        /* \"@openzeppelin/contracts/token/ERC20/utils/SafeERC20.sol\":8566:8571  gas() */\n      gas\n        /* \"@openzeppelin/contracts/token/ERC20/utils/SafeERC20.sol\":8561:8621  call(gas(), token, 0, add(data, 0x20), mload(data), 0, 0x20) */\n      call\n        /* \"@openzeppelin/contracts/token/ERC20/utils/SafeERC20.sol\":8673:8680  success */\n      dup1\n        /* \"@openzeppelin/contracts/token/ERC20/utils/SafeERC20.sol\":8663:8839  if iszero(success) {... */\n      tag_267\n      jumpi\n        /* \"@openzeppelin/contracts/token/ERC20/utils/SafeERC20.sol\":8717:8721  0x40 */\n      0x40\n        /* \"@openzeppelin/contracts/token/ERC20/utils/SafeERC20.sol\":8711:8722  mload(0x40) */\n      mload\n        /* \"@openzeppelin/contracts/token/ERC20/utils/SafeERC20.sol\":8762:8778  returndatasize() */\n      returndatasize\n        /* \"@openzeppelin/contracts/token/ERC20/utils/SafeERC20.sol\":8759:8760  0 */\n      0x00\n        /* \"@openzeppelin/contracts/token/ERC20/utils/SafeERC20.sol\":8754:8757  ptr */\n      dup3\n        /* \"@openzeppelin/contracts/token/ERC20/utils/SafeERC20.sol\":8739:8779  returndatacopy(ptr, 0, returndatasize()) */\n      returndatacopy\n        /* \"@openzeppelin/contracts/token/ERC20/utils/SafeERC20.sol\":8808:8824  returndatasize() */\n      returndatasize\n        /* \"@openzeppelin/contracts/token/ERC20/utils/SafeERC20.sol\":8803:8806  ptr */\n      dup2\n        /* \"@openzeppelin/contracts/token/ERC20/utils/SafeERC20.sol\":8796:8825  revert(ptr, returndatasize()) */\n      revert\n        /* \"@openzeppelin/contracts/token/ERC20/utils/SafeERC20.sol\":8663:8839  if iszero(success) {... */\n    tag_267:\n        /* \"@openzeppelin/contracts/token/ERC20/utils/SafeERC20.sol\":8866:8882  returndatasize() */\n      returndatasize\n        /* \"@openzeppelin/contracts/token/ERC20/utils/SafeERC20.sol\":8852:8882  returnSize := returndatasize() */\n      swap3\n      pop\n        /* \"@openzeppelin/contracts/token/ERC20/utils/SafeERC20.sol\":8916:8917  0 */\n      0x00\n        /* \"@openzeppelin/contracts/token/ERC20/utils/SafeERC20.sol\":8910:8918  mload(0) */\n      mload\n        /* \"@openzeppelin/contracts/token/ERC20/utils/SafeERC20.sol\":8895:8918  returnValue := mload(0) */\n      swap2\n      pop\n        /* \"@openzeppelin/contracts/token/ERC20/utils/SafeERC20.sol\":8532:8928  {... */\n      pop\n        /* \"@openzeppelin/contracts/token/ERC20/utils/SafeERC20.sol\":8956:8957  0 */\n      0x00\n        /* \"@openzeppelin/contracts/token/ERC20/utils/SafeERC20.sol\":8942:8952  returnSize */\n      dup3\n        /* \"@openzeppelin/contracts/token/ERC20/utils/SafeERC20.sol\":8942:8957  returnSize == 0 */\n      eq\n        /* \"@openzeppelin/contracts/token/ERC20/utils/SafeERC20.sol\":8942:9010  returnSize == 0 ? address(token).code.length == 0 : returnValue != 1 */\n      tag_268\n      jumpi\n        /* \"@openzeppelin/contracts/token/ERC20/utils/SafeERC20.sol\":9009:9010  1 */\n      0x01\n        /* \"@openzeppelin/contracts/token/ERC20/utils/SafeERC20.sol\":8994:9005  returnValue */\n      dup2\n        /* \"@openzeppelin/contracts/token/ERC20/utils/SafeERC20.sol\":8994:9010  returnValue != 1 */\n      eq\n      iszero\n        /* \"@openzeppelin/contracts/token/ERC20/utils/SafeERC20.sol\":8942:9010  returnSize == 0 ? address(token).code.length == 0 : returnValue != 1 */\n      jump(tag_269)\n    tag_268:\n        /* \"@openzeppelin/contracts/token/ERC20/utils/SafeERC20.sol\":8990:8991  0 */\n      0x00\n        /* \"@openzeppelin/contracts/token/ERC20/utils/SafeERC20.sol\":8968:8973  token */\n      dup5\n        /* \"@openzeppelin/contracts/token/ERC20/utils/SafeERC20.sol\":8960:8986  address(token).code.length */\n      0xffffffffffffffffffffffffffffffffffffffff\n      and\n      extcodesize\n        /* \"@openzeppelin/contracts/token/ERC20/utils/SafeERC20.sol\":8960:8991  address(token).code.length == 0 */\n      eq\n        /* \"@openzeppelin/contracts/token/ERC20/utils/SafeERC20.sol\":8942:9010  returnSize == 0 ? address(token).code.length == 0 : returnValue != 1 */\n    tag_269:\n        /* \"@openzeppelin/contracts/token/ERC20/utils/SafeERC20.sol\":8938:9084  if (returnSize == 0 ? address(token).code.length == 0 : returnValue != 1) {... */\n      iszero\n      tag_270\n      jumpi\n        /* \"@openzeppelin/contracts/token/ERC20/utils/SafeERC20.sol\":9066:9071  token */\n      dup4\n        /* \"@openzeppelin/contracts/token/ERC20/utils/SafeERC20.sol\":9033:9073  SafeERC20FailedOperation(address(token)) */\n      mload(0x40)\n      0x5274afe700000000000000000000000000000000000000000000000000000000\n      dup2\n      mstore\n      0x04\n      add\n      tag_271\n      swap2\n      swap1\n      tag_60\n      jump\t// in\n    tag_271:\n      mload(0x40)\n      dup1\n      swap2\n      sub\n      swap1\n      revert\n        /* \"@openzeppelin/contracts/token/ERC20/utils/SafeERC20.sol\":8938:9084  if (returnSize == 0 ? address(token).code.length == 0 : returnValue != 1) {... */\n    tag_270:\n        /* \"@openzeppelin/contracts/token/ERC20/utils/SafeERC20.sol\":8440:9090  {... */\n      pop\n      pop\n        /* \"@openzeppelin/contracts/token/ERC20/utils/SafeERC20.sol\":8370:9090  function _callOptionalReturn(IERC20 token, bytes memory data) private {... */\n      pop\n      pop\n      jump\t// out\n        /* \"@openzeppelin/contracts/access/Ownable.sol\":2912:3099  function _transferOwnership(address newOwner) internal virtual {... */\n    tag_264:\n        /* \"@openzeppelin/contracts/access/Ownable.sol\":2985:3001  address oldOwner */\n      0x00\n        /* \"@openzeppelin/contracts/access/Ownable.sol\":3004:3010  _owner */\n      0x00\n      0x00\n      swap1\n      sload\n      swap1\n      0x0100\n      exp\n      swap1\n      div\n      0xffffffffffffffffffffffffffffffffffffffff\n      and\n        /* \"@openzeppelin/contracts/access/Ownable.sol\":2985:3010  address oldOwner = _owner */\n      swap1\n      pop\n        /* \"@openzeppelin/contracts/access/Ownable.sol\":3029:3037  newOwner */\n      dup2\n        /* \"@openzeppelin/contracts/access/Ownable.sol\":3020:3026  _owner */\n      0x00\n      0x00\n        /* \"@openzeppelin/contracts/access/Ownable.sol\":3020:3037  _owner = newOwner */\n      0x0100\n      exp\n      dup2\n      sload\n      dup2\n      0xffffffffffffffffffffffffffffffffffffffff\n      mul\n      not\n      and\n      swap1\n      dup4\n      0xffffffffffffffffffffffffffffffffffffffff\n      and\n      mul\n      or\n      swap1\n      sstore\n      pop\n        /* \"@openzeppelin/contracts/access/Ownable.sol\":3083:3091  newOwner */\n      dup2\n        /* \"@openzeppelin/contracts/access/Ownable.sol\":3052:3092  OwnershipTransferred(oldOwner, newOwner) */\n      0xffffffffffffffffffffffffffffffffffffffff\n      and\n        /* \"@openzeppelin/contracts/access/Ownable.sol\":3073:3081  oldOwner */\n      dup2\n        /* \"@openzeppelin/contracts/access/Ownable.sol\":3052:3092  OwnershipTransferred(oldOwner, newOwner) */\n      0xffffffffffffffffffffffffffffffffffffffff\n      and\n      0x8be0079c531659141344cd1fd0a4f28419497f9722a3daafe3b4186f6b6457e0\n      mload(0x40)\n      mload(0x40)\n      dup1\n      swap2\n      sub\n      swap1\n      log3\n        /* \"@openzeppelin/contracts/access/Ownable.sol\":2975:3099  {... */\n      pop\n        /* \"@openzeppelin/contracts/access/Ownable.sol\":2912:3099  function _transferOwnership(address newOwner) internal virtual {... */\n      pop\n      jump\t// out\n        /* \"#utility.yul\":7:133   */\n    tag_273:\n        /* \"#utility.yul\":44:51   */\n      0x00\n        /* \"#utility.yul\":84:126   */\n      0xffffffffffffffffffffffffffffffffffffffff\n        /* \"#utility.yul\":77:82   */\n      dup3\n        /* \"#utility.yul\":73:127   */\n      and\n        /* \"#utility.yul\":62:127   */\n      swap1\n      pop\n        /* \"#utility.yul\":7:133   */\n      swap2\n      swap1\n      pop\n      jump\t// out\n        /* \"#utility.yul\":139:199   */\n    tag_274:\n        /* \"#utility.yul\":167:170   */\n      0x00\n        /* \"#utility.yul\":188:193   */\n      dup2\n        /* \"#utility.yul\":181:193   */\n      swap1\n      pop\n        /* \"#utility.yul\":139:199   */\n      swap2\n      swap1\n      pop\n      jump\t// out\n        /* \"#utility.yul\":205:347   */\n    tag_275:\n        /* \"#utility.yul\":255:264   */\n      0x00\n        /* \"#utility.yul\":288:341   */\n      tag_322\n        /* \"#utility.yul\":306:340   */\n      tag_323\n        /* \"#utility.yul\":315:339   */\n      tag_324\n        /* \"#utility.yul\":333:338   */\n      dup5\n        /* \"#utility.yul\":315:339   */\n      tag_273\n      jump\t// in\n    tag_324:\n        /* \"#utility.yul\":306:340   */\n      tag_274\n      jump\t// in\n    tag_323:\n        /* \"#utility.yul\":288:341   */\n      tag_273\n      jump\t// in\n    tag_322:\n        /* \"#utility.yul\":275:341   */\n      swap1\n      pop\n        /* \"#utility.yul\":205:347   */\n      swap2\n      swap1\n      pop\n      jump\t// out\n        /* \"#utility.yul\":353:479   */\n    tag_276:\n        /* \"#utility.yul\":403:412   */\n      0x00\n        /* \"#utility.yul\":436:473   */\n      tag_326\n        /* \"#utility.yul\":467:472   */\n      dup3\n        /* \"#utility.yul\":436:473   */\n      tag_275\n      jump\t// in\n    tag_326:\n        /* \"#utility.yul\":423:473   */\n      swap1\n      pop\n        /* \"#utility.yul\":353:479   */\n      swap2\n      swap1\n      pop\n      jump\t// out\n        /* \"#utility.yul\":485:625   */\n    tag_277:\n        /* \"#utility.yul\":549:558   */\n      0x00\n        /* \"#utility.yul\":582:619   */\n      tag_328\n        /* \"#utility.yul\":613:618   */\n      dup3\n        /* \"#utility.yul\":582:619   */\n      tag_276\n      jump\t// in\n    tag_328:\n        /* \"#utility.yul\":569:619   */\n      swap1\n      pop\n        /* \"#utility.yul\":485:625   */\n      swap2\n      swap1\n      pop\n      jump\t// out\n        /* \"#utility.yul\":631:790   */\n    tag_278:\n        /* \"#utility.yul\":732:783   */\n      tag_330\n        /* \"#utility.yul\":777:782   */\n      dup2\n        /* \"#utility.yul\":732:783   */\n      tag_277\n      jump\t// in\n    tag_330:\n        /* \"#utility.yul\":727:730   */\n      dup3\n        /* \"#utility.yul\":720:784   */\n      mstore\n        /* \"#utility.yul\":631:790   */\n      pop\n      pop\n      jump\t// out\n        /* \"#utility.yul\":796:1046   */\n    tag_34:\n        /* \"#utility.yul\":903:907   */\n      0x00\n        /* \"#utility.yul\":941:943   */\n      0x20\n        /* \"#utility.yul\":930:939   */\n      dup3\n        /* \"#utility.yul\":926:944   */\n      add\n        /* \"#utility.yul\":918:944   */\n      swap1\n      pop\n        /* \"#utility.yul\":954:1039   */\n      tag_332\n        /* \"#utility.yul\":1036:1037   */\n      0x00\n        /* \"#utility.yul\":1025:1034   */\n      dup4\n        /* \"#utility.yul\":1021:1038   */\n      add\n        /* \"#utility.yul\":1012:1018   */\n      dup5\n        /* \"#utility.yul\":954:1039   */\n      tag_278\n      jump\t// in\n    tag_332:\n        /* \"#utility.yul\":796:1046   */\n      swap3\n      swap2\n      pop\n      pop\n      jump\t// out\n        /* \"#utility.yul\":1052:1129   */\n    tag_279:\n        /* \"#utility.yul\":1089:1096   */\n      0x00\n        /* \"#utility.yul\":1118:1123   */\n      dup2\n        /* \"#utility.yul\":1107:1123   */\n      swap1\n      pop\n        /* \"#utility.yul\":1052:1129   */\n      swap2\n      swap1\n      pop\n      jump\t// out\n        /* \"#utility.yul\":1135:1253   */\n    tag_280:\n        /* \"#utility.yul\":1222:1246   */\n      tag_335\n        /* \"#utility.yul\":1240:1245   */\n      dup2\n        /* \"#utility.yul\":1222:1246   */\n      tag_279\n      jump\t// in\n    tag_335:\n        /* \"#utility.yul\":1217:1220   */\n      dup3\n        /* \"#utility.yul\":1210:1247   */\n      mstore\n        /* \"#utility.yul\":1135:1253   */\n      pop\n      pop\n      jump\t// out\n        /* \"#utility.yul\":1259:1812   */\n    tag_38:\n        /* \"#utility.yul\":1436:1440   */\n      0x00\n        /* \"#utility.yul\":1474:1477   */\n      0x80\n        /* \"#utility.yul\":1463:1472   */\n      dup3\n        /* \"#utility.yul\":1459:1478   */\n      add\n        /* \"#utility.yul\":1451:1478   */\n      swap1\n      pop\n        /* \"#utility.yul\":1488:1559   */\n      tag_337\n        /* \"#utility.yul\":1556:1557   */\n      0x00\n        /* \"#utility.yul\":1545:1554   */\n      dup4\n        /* \"#utility.yul\":1541:1558   */\n      add\n        /* \"#utility.yul\":1532:1538   */\n      dup8\n        /* \"#utility.yul\":1488:1559   */\n      tag_280\n      jump\t// in\n    tag_337:\n        /* \"#utility.yul\":1569:1641   */\n      tag_338\n        /* \"#utility.yul\":1637:1639   */\n      0x20\n        /* \"#utility.yul\":1626:1635   */\n      dup4\n        /* \"#utility.yul\":1622:1640   */\n      add\n        /* \"#utility.yul\":1613:1619   */\n      dup7\n        /* \"#utility.yul\":1569:1641   */\n      tag_280\n      jump\t// in\n    tag_338:\n        /* \"#utility.yul\":1651:1723   */\n      tag_339\n        /* \"#utility.yul\":1719:1721   */\n      0x40\n        /* \"#utility.yul\":1708:1717   */\n      dup4\n        /* \"#utility.yul\":1704:1722   */\n      add\n        /* \"#utility.yul\":1695:1701   */\n      dup6\n        /* \"#utility.yul\":1651:1723   */\n      tag_280\n      jump\t// in\n    tag_339:\n        /* \"#utility.yul\":1733:1805   */\n      tag_340\n        /* \"#utility.yul\":1801:1803   */\n      0x60\n        /* \"#utility.yul\":1790:1799   */\n      dup4\n        /* \"#utility.yul\":1786:1804   */\n      add\n        /* \"#utility.yul\":1777:1783   */\n      dup5\n        /* \"#utility.yul\":1733:1805   */\n      tag_280\n      jump\t// in\n    tag_340:\n        /* \"#utility.yul\":1259:1812   */\n      swap6\n      swap5\n      pop\n      pop\n      pop\n      pop\n      pop\n      jump\t// out\n        /* \"#utility.yul\":1899:2016   */\n    tag_282:\n        /* \"#utility.yul\":2008:2009   */\n      0x00\n        /* \"#utility.yul\":2005:2006   */\n      0x00\n        /* \"#utility.yul\":1998:2010   */\n      revert\n        /* \"#utility.yul\":2145:2267   */\n    tag_284:\n        /* \"#utility.yul\":2218:2242   */\n      tag_345\n        /* \"#utility.yul\":2236:2241   */\n      dup2\n        /* \"#utility.yul\":2218:2242   */\n      tag_279\n      jump\t// in\n    tag_345:\n        /* \"#utility.yul\":2211:2216   */\n      dup2\n        /* \"#utility.yul\":2208:2243   */\n      eq\n        /* \"#utility.yul\":2198:2261   */\n      tag_346\n      jumpi\n        /* \"#utility.yul\":2257:2258   */\n      0x00\n        /* \"#utility.yul\":2254:2255   */\n      0x00\n        /* \"#utility.yul\":2247:2259   */\n      revert\n        /* \"#utility.yul\":2198:2261   */\n    tag_346:\n        /* \"#utility.yul\":2145:2267   */\n      pop\n      jump\t// out\n        /* \"#utility.yul\":2273:2412   */\n    tag_285:\n        /* \"#utility.yul\":2319:2324   */\n      0x00\n        /* \"#utility.yul\":2357:2363   */\n      dup2\n        /* \"#utility.yul\":2344:2364   */\n      calldataload\n        /* \"#utility.yul\":2335:2364   */\n      swap1\n      pop\n        /* \"#utility.yul\":2373:2406   */\n      tag_348\n        /* \"#utility.yul\":2400:2405   */\n      dup2\n        /* \"#utility.yul\":2373:2406   */\n      tag_284\n      jump\t// in\n    tag_348:\n        /* \"#utility.yul\":2273:2412   */\n      swap3\n      swap2\n      pop\n      pop\n      jump\t// out\n        /* \"#utility.yul\":2418:2747   */\n    tag_44:\n        /* \"#utility.yul\":2477:2483   */\n      0x00\n        /* \"#utility.yul\":2526:2528   */\n      0x20\n        /* \"#utility.yul\":2514:2523   */\n      dup3\n        /* \"#utility.yul\":2505:2512   */\n      dup5\n        /* \"#utility.yul\":2501:2524   */\n      sub\n        /* \"#utility.yul\":2497:2529   */\n      slt\n        /* \"#utility.yul\":2494:2613   */\n      iszero\n      tag_350\n      jumpi\n        /* \"#utility.yul\":2532:2611   */\n      tag_351\n      tag_282\n      jump\t// in\n    tag_351:\n        /* \"#utility.yul\":2494:2613   */\n    tag_350:\n        /* \"#utility.yul\":2652:2653   */\n      0x00\n        /* \"#utility.yul\":2677:2730   */\n      tag_352\n        /* \"#utility.yul\":2722:2729   */\n      dup5\n        /* \"#utility.yul\":2713:2719   */\n      dup3\n        /* \"#utility.yul\":2702:2711   */\n      dup6\n        /* \"#utility.yul\":2698:2720   */\n      add\n        /* \"#utility.yul\":2677:2730   */\n      tag_285\n      jump\t// in\n    tag_352:\n        /* \"#utility.yul\":2667:2730   */\n      swap2\n      pop\n        /* \"#utility.yul\":2623:2740   */\n      pop\n        /* \"#utility.yul\":2418:2747   */\n      swap3\n      swap2\n      pop\n      pop\n      jump\t// out\n        /* \"#utility.yul\":2753:2849   */\n    tag_286:\n        /* \"#utility.yul\":2790:2797   */\n      0x00\n        /* \"#utility.yul\":2819:2843   */\n      tag_354\n        /* \"#utility.yul\":2837:2842   */\n      dup3\n        /* \"#utility.yul\":2819:2843   */\n      tag_273\n      jump\t// in\n    tag_354:\n        /* \"#utility.yul\":2808:2843   */\n      swap1\n      pop\n        /* \"#utility.yul\":2753:2849   */\n      swap2\n      swap1\n      pop\n      jump\t// out\n        /* \"#utility.yul\":2855:2977   */\n    tag_287:\n        /* \"#utility.yul\":2928:2952   */\n      tag_356\n        /* \"#utility.yul\":2946:2951   */\n      dup2\n        /* \"#utility.yul\":2928:2952   */\n      tag_286\n      jump\t// in\n    tag_356:\n        /* \"#utility.yul\":2921:2926   */\n      dup2\n        /* \"#utility.yul\":2918:2953   */\n      eq\n        /* \"#utility.yul\":2908:2971   */\n      tag_357\n      jumpi\n        /* \"#utility.yul\":2967:2968   */\n      0x00\n        /* \"#utility.yul\":2964:2965   */\n      0x00\n        /* \"#utility.yul\":2957:2969   */\n      revert\n        /* \"#utility.yul\":2908:2971   */\n    tag_357:\n        /* \"#utility.yul\":2855:2977   */\n      pop\n      jump\t// out\n        /* \"#utility.yul\":2983:3122   */\n    tag_288:\n        /* \"#utility.yul\":3029:3034   */\n      0x00\n        /* \"#utility.yul\":3067:3073   */\n      dup2\n        /* \"#utility.yul\":3054:3074   */\n      calldataload\n        /* \"#utility.yul\":3045:3074   */\n      swap1\n      pop\n        /* \"#utility.yul\":3083:3116   */\n      tag_359\n        /* \"#utility.yul\":3110:3115   */\n      dup2\n        /* \"#utility.yul\":3083:3116   */\n      tag_287\n      jump\t// in\n    tag_359:\n        /* \"#utility.yul\":2983:3122   */\n      swap3\n      swap2\n      pop\n      pop\n      jump\t// out\n        /* \"#utility.yul\":3128:3457   */\n    tag_48:\n        /* \"#utility.yul\":3187:3193   */\n      0x00\n        /* \"#utility.yul\":3236:3238   */\n      0x20\n        /* \"#utility.yul\":3224:3233   */\n      dup3\n        /* \"#utility.yul\":3215:3222   */\n      dup5\n        /* \"#utility.yul\":3211:3234   */\n      sub\n        /* \"#utility.yul\":3207:3239   */\n      slt\n        /* \"#utility.yul\":3204:3323   */\n      iszero\n      tag_361\n      jumpi\n        /* \"#utility.yul\":3242:3321   */\n      tag_362\n      tag_282\n      jump\t// in\n    tag_362:\n        /* \"#utility.yul\":3204:3323   */\n    tag_361:\n        /* \"#utility.yul\":3362:3363   */\n      0x00\n        /* \"#utility.yul\":3387:3440   */\n      tag_363\n        /* \"#utility.yul\":3432:3439   */\n      dup5\n        /* \"#utility.yul\":3423:3429   */\n      dup3\n        /* \"#utility.yul\":3412:3421   */\n      dup6\n        /* \"#utility.yul\":3408:3430   */\n      add\n        /* \"#utility.yul\":3387:3440   */\n      tag_288\n      jump\t// in\n    tag_363:\n        /* \"#utility.yul\":3377:3440   */\n      swap2\n      pop\n        /* \"#utility.yul\":3333:3450   */\n      pop\n        /* \"#utility.yul\":3128:3457   */\n      swap3\n      swap2\n      pop\n      pop\n      jump\t// out\n        /* \"#utility.yul\":3463:3685   */\n    tag_51:\n        /* \"#utility.yul\":3556:3560   */\n      0x00\n        /* \"#utility.yul\":3594:3596   */\n      0x20\n        /* \"#utility.yul\":3583:3592   */\n      dup3\n        /* \"#utility.yul\":3579:3597   */\n      add\n        /* \"#utility.yul\":3571:3597   */\n      swap1\n      pop\n        /* \"#utility.yul\":3607:3678   */\n      tag_365\n        /* \"#utility.yul\":3675:3676   */\n      0x00\n        /* \"#utility.yul\":3664:3673   */\n      dup4\n        /* \"#utility.yul\":3660:3677   */\n      add\n        /* \"#utility.yul\":3651:3657   */\n      dup5\n        /* \"#utility.yul\":3607:3678   */\n      tag_280\n      jump\t// in\n    tag_365:\n        /* \"#utility.yul\":3463:3685   */\n      swap3\n      swap2\n      pop\n      pop\n      jump\t// out\n        /* \"#utility.yul\":3691:3809   */\n    tag_289:\n        /* \"#utility.yul\":3778:3802   */\n      tag_367\n        /* \"#utility.yul\":3796:3801   */\n      dup2\n        /* \"#utility.yul\":3778:3802   */\n      tag_286\n      jump\t// in\n    tag_367:\n        /* \"#utility.yul\":3773:3776   */\n      dup3\n        /* \"#utility.yul\":3766:3803   */\n      mstore\n        /* \"#utility.yul\":3691:3809   */\n      pop\n      pop\n      jump\t// out\n        /* \"#utility.yul\":3815:4037   */\n    tag_60:\n        /* \"#utility.yul\":3908:3912   */\n      0x00\n        /* \"#utility.yul\":3946:3948   */\n      0x20\n        /* \"#utility.yul\":3935:3944   */\n      dup3\n        /* \"#utility.yul\":3931:3949   */\n      add\n        /* \"#utility.yul\":3923:3949   */\n      swap1\n      pop\n        /* \"#utility.yul\":3959:4030   */\n      tag_369\n        /* \"#utility.yul\":4027:4028   */\n      0x00\n        /* \"#utility.yul\":4016:4025   */\n      dup4\n        /* \"#utility.yul\":4012:4029   */\n      add\n        /* \"#utility.yul\":4003:4009   */\n      dup5\n        /* \"#utility.yul\":3959:4030   */\n      tag_289\n      jump\t// in\n    tag_369:\n        /* \"#utility.yul\":3815:4037   */\n      swap3\n      swap2\n      pop\n      pop\n      jump\t// out\n        /* \"#utility.yul\":4043:4133   */\n    tag_290:\n        /* \"#utility.yul\":4077:4084   */\n      0x00\n        /* \"#utility.yul\":4120:4125   */\n      dup2\n        /* \"#utility.yul\":4113:4126   */\n      iszero\n        /* \"#utility.yul\":4106:4127   */\n      iszero\n        /* \"#utility.yul\":4095:4127   */\n      swap1\n      pop\n        /* \"#utility.yul\":4043:4133   */\n      swap2\n      swap1\n      pop\n      jump\t// out\n        /* \"#utility.yul\":4139:4248   */\n    tag_291:\n        /* \"#utility.yul\":4220:4241   */\n      tag_372\n        /* \"#utility.yul\":4235:4240   */\n      dup2\n        /* \"#utility.yul\":4220:4241   */\n      tag_290\n      jump\t// in\n    tag_372:\n        /* \"#utility.yul\":4215:4218   */\n      dup3\n        /* \"#utility.yul\":4208:4242   */\n      mstore\n        /* \"#utility.yul\":4139:4248   */\n      pop\n      pop\n      jump\t// out\n        /* \"#utility.yul\":4254:4795   */\n    tag_69:\n        /* \"#utility.yul\":4425:4429   */\n      0x00\n        /* \"#utility.yul\":4463:4466   */\n      0x80\n        /* \"#utility.yul\":4452:4461   */\n      dup3\n        /* \"#utility.yul\":4448:4467   */\n      add\n        /* \"#utility.yul\":4440:4467   */\n      swap1\n      pop\n        /* \"#utility.yul\":4477:4548   */\n      tag_374\n        /* \"#utility.yul\":4545:4546   */\n      0x00\n        /* \"#utility.yul\":4534:4543   */\n      dup4\n        /* \"#utility.yul\":4530:4547   */\n      add\n        /* \"#utility.yul\":4521:4527   */\n      dup8\n        /* \"#utility.yul\":4477:4548   */\n      tag_280\n      jump\t// in\n    tag_374:\n        /* \"#utility.yul\":4558:4630   */\n      tag_375\n        /* \"#utility.yul\":4626:4628   */\n      0x20\n        /* \"#utility.yul\":4615:4624   */\n      dup4\n        /* \"#utility.yul\":4611:4629   */\n      add\n        /* \"#utility.yul\":4602:4608   */\n      dup7\n        /* \"#utility.yul\":4558:4630   */\n      tag_280\n      jump\t// in\n    tag_375:\n        /* \"#utility.yul\":4640:4712   */\n      tag_376\n        /* \"#utility.yul\":4708:4710   */\n      0x40\n        /* \"#utility.yul\":4697:4706   */\n      dup4\n        /* \"#utility.yul\":4693:4711   */\n      add\n        /* \"#utility.yul\":4684:4690   */\n      dup6\n        /* \"#utility.yul\":4640:4712   */\n      tag_280\n      jump\t// in\n    tag_376:\n        /* \"#utility.yul\":4722:4788   */\n      tag_377\n        /* \"#utility.yul\":4784:4786   */\n      0x60\n        /* \"#utility.yul\":4773:4782   */\n      dup4\n        /* \"#utility.yul\":4769:4787   */\n      add\n        /* \"#utility.yul\":4760:4766   */\n      dup5\n        /* \"#utility.yul\":4722:4788   */\n      tag_291\n      jump\t// in\n    tag_377:\n        /* \"#utility.yul\":4254:4795   */\n      swap6\n      swap5\n      pop\n      pop\n      pop\n      pop\n      pop\n      jump\t// out\n        /* \"#utility.yul\":4801:5011   */\n    tag_96:\n        /* \"#utility.yul\":4888:4892   */\n      0x00\n        /* \"#utility.yul\":4926:4928   */\n      0x20\n        /* \"#utility.yul\":4915:4924   */\n      dup3\n        /* \"#utility.yul\":4911:4929   */\n      add\n        /* \"#utility.yul\":4903:4929   */\n      swap1\n      pop\n        /* \"#utility.yul\":4939:5004   */\n      tag_379\n        /* \"#utility.yul\":5001:5002   */\n      0x00\n        /* \"#utility.yul\":4990:4999   */\n      dup4\n        /* \"#utility.yul\":4986:5003   */\n      add\n        /* \"#utility.yul\":4977:4983   */\n      dup5\n        /* \"#utility.yul\":4939:5004   */\n      tag_291\n      jump\t// in\n    tag_379:\n        /* \"#utility.yul\":4801:5011   */\n      swap3\n      swap2\n      pop\n      pop\n      jump\t// out\n        /* \"#utility.yul\":5017:5186   */\n    tag_292:\n        /* \"#utility.yul\":5101:5112   */\n      0x00\n        /* \"#utility.yul\":5135:5141   */\n      dup3\n        /* \"#utility.yul\":5130:5133   */\n      dup3\n        /* \"#utility.yul\":5123:5142   */\n      mstore\n        /* \"#utility.yul\":5175:5179   */\n      0x20\n        /* \"#utility.yul\":5170:5173   */\n      dup3\n        /* \"#utility.yul\":5166:5180   */\n      add\n        /* \"#utility.yul\":5151:5180   */\n      swap1\n      pop\n        /* \"#utility.yul\":5017:5186   */\n      swap3\n      swap2\n      pop\n      pop\n      jump\t// out\n        /* \"#utility.yul\":5192:5363   */\n    tag_293:\n        /* \"#utility.yul\":5332:5355   */\n      0x50726573616c652073756461682064696d756c61690000000000000000000000\n        /* \"#utility.yul\":5328:5329   */\n      0x00\n        /* \"#utility.yul\":5320:5326   */\n      dup3\n        /* \"#utility.yul\":5316:5330   */\n      add\n        /* \"#utility.yul\":5309:5356   */\n      mstore\n        /* \"#utility.yul\":5192:5363   */\n      pop\n      jump\t// out\n        /* \"#utility.yul\":5369:5735   */\n    tag_294:\n        /* \"#utility.yul\":5511:5514   */\n      0x00\n        /* \"#utility.yul\":5532:5599   */\n      tag_383\n        /* \"#utility.yul\":5596:5598   */\n      0x15\n        /* \"#utility.yul\":5591:5594   */\n      dup4\n        /* \"#utility.yul\":5532:5599   */\n      tag_292\n      jump\t// in\n    tag_383:\n        /* \"#utility.yul\":5525:5599   */\n      swap2\n      pop\n        /* \"#utility.yul\":5608:5701   */\n      tag_384\n        /* \"#utility.yul\":5697:5700   */\n      dup3\n        /* \"#utility.yul\":5608:5701   */\n      tag_293\n      jump\t// in\n    tag_384:\n        /* \"#utility.yul\":5726:5728   */\n      0x20\n        /* \"#utility.yul\":5721:5724   */\n      dup3\n        /* \"#utility.yul\":5717:5729   */\n      add\n        /* \"#utility.yul\":5710:5729   */\n      swap1\n      pop\n        /* \"#utility.yul\":5369:5735   */\n      swap2\n      swap1\n      pop\n      jump\t// out\n        /* \"#utility.yul\":5741:6160   */\n    tag_109:\n        /* \"#utility.yul\":5907:5911   */\n      0x00\n        /* \"#utility.yul\":5945:5947   */\n      0x20\n        /* \"#utility.yul\":5934:5943   */\n      dup3\n        /* \"#utility.yul\":5930:5948   */\n      add\n        /* \"#utility.yul\":5922:5948   */\n      swap1\n      pop\n        /* \"#utility.yul\":5994:6003   */\n      dup2\n        /* \"#utility.yul\":5988:5992   */\n      dup2\n        /* \"#utility.yul\":5984:6004   */\n      sub\n        /* \"#utility.yul\":5980:5981   */\n      0x00\n        /* \"#utility.yul\":5969:5978   */\n      dup4\n        /* \"#utility.yul\":5965:5982   */\n      add\n        /* \"#utility.yul\":5958:6005   */\n      mstore\n        /* \"#utility.yul\":6022:6153   */\n      tag_386\n        /* \"#utility.yul\":6148:6152   */\n      dup2\n        /* \"#utility.yul\":6022:6153   */\n      tag_294\n      jump\t// in\n    tag_386:\n        /* \"#utility.yul\":6014:6153   */\n      swap1\n      pop\n        /* \"#utility.yul\":5741:6160   */\n      swap2\n      swap1\n      pop\n      jump\t// out\n        /* \"#utility.yul\":6166:6346   */\n    tag_112:\n        /* \"#utility.yul\":6214:6291   */\n      0x4e487b7100000000000000000000000000000000000000000000000000000000\n        /* \"#utility.yul\":6211:6212   */\n      0x00\n        /* \"#utility.yul\":6204:6292   */\n      mstore\n        /* \"#utility.yul\":6311:6315   */\n      0x32\n        /* \"#utility.yul\":6308:6309   */\n      0x04\n        /* \"#utility.yul\":6301:6316   */\n      mstore\n        /* \"#utility.yul\":6335:6339   */\n      0x24\n        /* \"#utility.yul\":6332:6333   */\n      0x00\n        /* \"#utility.yul\":6325:6340   */\n      revert\n        /* \"#utility.yul\":6352:6532   */\n    tag_295:\n        /* \"#utility.yul\":6400:6477   */\n      0x4e487b7100000000000000000000000000000000000000000000000000000000\n        /* \"#utility.yul\":6397:6398   */\n      0x00\n        /* \"#utility.yul\":6390:6478   */\n      mstore\n        /* \"#utility.yul\":6497:6501   */\n      0x11\n        /* \"#utility.yul\":6494:6495   */\n      0x04\n        /* \"#utility.yul\":6487:6502   */\n      mstore\n        /* \"#utility.yul\":6521:6525   */\n      0x24\n        /* \"#utility.yul\":6518:6519   */\n      0x00\n        /* \"#utility.yul\":6511:6526   */\n      revert\n        /* \"#utility.yul\":6538:6732   */\n    tag_119:\n        /* \"#utility.yul\":6578:6582   */\n      0x00\n        /* \"#utility.yul\":6598:6618   */\n      tag_390\n        /* \"#utility.yul\":6616:6617   */\n      dup3\n        /* \"#utility.yul\":6598:6618   */\n      tag_279\n      jump\t// in\n    tag_390:\n        /* \"#utility.yul\":6593:6618   */\n      swap2\n      pop\n        /* \"#utility.yul\":6632:6652   */\n      tag_391\n        /* \"#utility.yul\":6650:6651   */\n      dup4\n        /* \"#utility.yul\":6632:6652   */\n      tag_279\n      jump\t// in\n    tag_391:\n        /* \"#utility.yul\":6627:6652   */\n      swap3\n      pop\n        /* \"#utility.yul\":6676:6677   */\n      dup3\n        /* \"#utility.yul\":6673:6674   */\n      dup3\n        /* \"#utility.yul\":6669:6678   */\n      sub\n        /* \"#utility.yul\":6661:6678   */\n      swap1\n      pop\n        /* \"#utility.yul\":6700:6701   */\n      dup2\n        /* \"#utility.yul\":6694:6698   */\n      dup2\n        /* \"#utility.yul\":6691:6702   */\n      gt\n        /* \"#utility.yul\":6688:6725   */\n      iszero\n      tag_392\n      jumpi\n        /* \"#utility.yul\":6705:6723   */\n      tag_393\n      tag_295\n      jump\t// in\n    tag_393:\n        /* \"#utility.yul\":6688:6725   */\n    tag_392:\n        /* \"#utility.yul\":6538:6732   */\n      swap3\n      swap2\n      pop\n      pop\n      jump\t// out\n        /* \"#utility.yul\":6738:6910   */\n    tag_296:\n        /* \"#utility.yul\":6878:6902   */\n      0x50726573616c6520737564616820626572616b68697200000000000000000000\n        /* \"#utility.yul\":6874:6875   */\n      0x00\n        /* \"#utility.yul\":6866:6872   */\n      dup3\n        /* \"#utility.yul\":6862:6876   */\n      add\n        /* \"#utility.yul\":6855:6903   */\n      mstore\n        /* \"#utility.yul\":6738:6910   */\n      pop\n      jump\t// out\n        /* \"#utility.yul\":6916:7282   */\n    tag_297:\n        /* \"#utility.yul\":7058:7061   */\n      0x00\n        /* \"#utility.yul\":7079:7146   */\n      tag_396\n        /* \"#utility.yul\":7143:7145   */\n      0x16\n        /* \"#utility.yul\":7138:7141   */\n      dup4\n        /* \"#utility.yul\":7079:7146   */\n      tag_292\n      jump\t// in\n    tag_396:\n        /* \"#utility.yul\":7072:7146   */\n      swap2\n      pop\n        /* \"#utility.yul\":7155:7248   */\n      tag_397\n        /* \"#utility.yul\":7244:7247   */\n      dup3\n        /* \"#utility.yul\":7155:7248   */\n      tag_296\n      jump\t// in\n    tag_397:\n        /* \"#utility.yul\":7273:7275   */\n      0x20\n        /* \"#utility.yul\":7268:7271   */\n      dup3\n        /* \"#utility.yul\":7264:7276   */\n      add\n        /* \"#utility.yul\":7257:7276   */\n      swap1\n      pop\n        /* \"#utility.yul\":6916:7282   */\n      swap2\n      swap1\n      pop\n      jump\t// out\n        /* \"#utility.yul\":7288:7707   */\n    tag_126:\n        /* \"#utility.yul\":7454:7458   */\n      0x00\n        /* \"#utility.yul\":7492:7494   */\n      0x20\n        /* \"#utility.yul\":7481:7490   */\n      dup3\n        /* \"#utility.yul\":7477:7495   */\n      add\n        /* \"#utility.yul\":7469:7495   */\n      swap1\n      pop\n        /* \"#utility.yul\":7541:7550   */\n      dup2\n        /* \"#utility.yul\":7535:7539   */\n      dup2\n        /* \"#utility.yul\":7531:7551   */\n      sub\n        /* \"#utility.yul\":7527:7528   */\n      0x00\n        /* \"#utility.yul\":7516:7525   */\n      dup4\n        /* \"#utility.yul\":7512:7529   */\n      add\n        /* \"#utility.yul\":7505:7552   */\n      mstore\n        /* \"#utility.yul\":7569:7700   */\n      tag_399\n        /* \"#utility.yul\":7695:7699   */\n      dup2\n        /* \"#utility.yul\":7569:7700   */\n      tag_297\n      jump\t// in\n    tag_399:\n        /* \"#utility.yul\":7561:7700   */\n      swap1\n      pop\n        /* \"#utility.yul\":7288:7707   */\n      swap2\n      swap1\n      pop\n      jump\t// out\n        /* \"#utility.yul\":7713:7884   */\n    tag_298:\n        /* \"#utility.yul\":7853:7876   */\n      0x50726573616c652062656c756d2064696d756c61690000000000000000000000\n        /* \"#utility.yul\":7849:7850   */\n      0x00\n        /* \"#utility.yul\":7841:7847   */\n      dup3\n        /* \"#utility.yul\":7837:7851   */\n      add\n        /* \"#utility.yul\":7830:7877   */\n      mstore\n        /* \"#utility.yul\":7713:7884   */\n      pop\n      jump\t// out\n        /* \"#utility.yul\":7890:8256   */\n    tag_299:\n        /* \"#utility.yul\":8032:8035   */\n      0x00\n        /* \"#utility.yul\":8053:8120   */\n      tag_402\n        /* \"#utility.yul\":8117:8119   */\n      0x15\n        /* \"#utility.yul\":8112:8115   */\n      dup4\n        /* \"#utility.yul\":8053:8120   */\n      tag_292\n      jump\t// in\n    tag_402:\n        /* \"#utility.yul\":8046:8120   */\n      swap2\n      pop\n        /* \"#utility.yul\":8129:8222   */\n      tag_403\n        /* \"#utility.yul\":8218:8221   */\n      dup3\n        /* \"#utility.yul\":8129:8222   */\n      tag_298\n      jump\t// in\n    tag_403:\n        /* \"#utility.yul\":8247:8249   */\n      0x20\n        /* \"#utility.yul\":8242:8245   */\n      dup3\n        /* \"#utility.yul\":8238:8250   */\n      add\n        /* \"#utility.yul\":8231:8250   */\n      swap1\n      pop\n        /* \"#utility.yul\":7890:8256   */\n      swap2\n      swap1\n      pop\n      jump\t// out\n        /* \"#utility.yul\":8262:8681   */\n    tag_129:\n        /* \"#utility.yul\":8428:8432   */\n      0x00\n        /* \"#utility.yul\":8466:8468   */\n      0x20\n        /* \"#utility.yul\":8455:8464   */\n      dup3\n        /* \"#utility.yul\":8451:8469   */\n      add\n        /* \"#utility.yul\":8443:8469   */\n      swap1\n      pop\n        /* \"#utility.yul\":8515:8524   */\n      dup2\n        /* \"#utility.yul\":8509:8513   */\n      dup2\n        /* \"#utility.yul\":8505:8525   */\n      sub\n        /* \"#utility.yul\":8501:8502   */\n      0x00\n        /* \"#utility.yul\":8490:8499   */\n      dup4\n        /* \"#utility.yul\":8486:8503   */\n      add\n        /* \"#utility.yul\":8479:8526   */\n      mstore\n        /* \"#utility.yul\":8543:8674   */\n      tag_405\n        /* \"#utility.yul\":8669:8673   */\n      dup2\n        /* \"#utility.yul\":8543:8674   */\n      tag_299\n      jump\t// in\n    tag_405:\n        /* \"#utility.yul\":8535:8674   */\n      swap1\n      pop\n        /* \"#utility.yul\":8262:8681   */\n      swap2\n      swap1\n      pop\n      jump\t// out\n        /* \"#utility.yul\":8687:8878   */\n    tag_131:\n        /* \"#utility.yul\":8727:8730   */\n      0x00\n        /* \"#utility.yul\":8746:8766   */\n      tag_407\n        /* \"#utility.yul\":8764:8765   */\n      dup3\n        /* \"#utility.yul\":8746:8766   */\n      tag_279\n      jump\t// in\n    tag_407:\n        /* \"#utility.yul\":8741:8766   */\n      swap2\n      pop\n        /* \"#utility.yul\":8780:8800   */\n      tag_408\n        /* \"#utility.yul\":8798:8799   */\n      dup4\n        /* \"#utility.yul\":8780:8800   */\n      tag_279\n      jump\t// in\n    tag_408:\n        /* \"#utility.yul\":8775:8800   */\n      swap3\n      pop\n        /* \"#utility.yul\":8823:8824   */\n      dup3\n        /* \"#utility.yul\":8820:8821   */\n      dup3\n        /* \"#utility.yul\":8816:8825   */\n      add\n        /* \"#utility.yul\":8809:8825   */\n      swap1\n      pop\n        /* \"#utility.yul\":8844:8847   */\n      dup1\n        /* \"#utility.yul\":8841:8842   */\n      dup3\n        /* \"#utility.yul\":8838:8848   */\n      gt\n        /* \"#utility.yul\":8835:8871   */\n      iszero\n      tag_409\n      jumpi\n        /* \"#utility.yul\":8851:8869   */\n      tag_410\n      tag_295\n      jump\t// in\n    tag_410:\n        /* \"#utility.yul\":8835:8871   */\n    tag_409:\n        /* \"#utility.yul\":8687:8878   */\n      swap3\n      swap2\n      pop\n      pop\n      jump\t// out\n        /* \"#utility.yul\":8884:9052   */\n    tag_300:\n        /* \"#utility.yul\":9024:9044   */\n      0x4a756d6c616820746964616b2076616c69640000000000000000000000000000\n        /* \"#utility.yul\":9020:9021   */\n      0x00\n        /* \"#utility.yul\":9012:9018   */\n      dup3\n        /* \"#utility.yul\":9008:9022   */\n      add\n        /* \"#utility.yul\":9001:9045   */\n      mstore\n        /* \"#utility.yul\":8884:9052   */\n      pop\n      jump\t// out\n        /* \"#utility.yul\":9058:9424   */\n    tag_301:\n        /* \"#utility.yul\":9200:9203   */\n      0x00\n        /* \"#utility.yul\":9221:9288   */\n      tag_413\n        /* \"#utility.yul\":9285:9287   */\n      0x12\n        /* \"#utility.yul\":9280:9283   */\n      dup4\n        /* \"#utility.yul\":9221:9288   */\n      tag_292\n      jump\t// in\n    tag_413:\n        /* \"#utility.yul\":9214:9288   */\n      swap2\n      pop\n        /* \"#utility.yul\":9297:9390   */\n      tag_414\n        /* \"#utility.yul\":9386:9389   */\n      dup3\n        /* \"#utility.yul\":9297:9390   */\n      tag_300\n      jump\t// in\n    tag_414:\n        /* \"#utility.yul\":9415:9417   */\n      0x20\n        /* \"#utility.yul\":9410:9413   */\n      dup3\n        /* \"#utility.yul\":9406:9418   */\n      add\n        /* \"#utility.yul\":9399:9418   */\n      swap1\n      pop\n        /* \"#utility.yul\":9058:9424   */\n      swap2\n      swap1\n      pop\n      jump\t// out\n        /* \"#utility.yul\":9430:9849   */\n    tag_137:\n        /* \"#utility.yul\":9596:9600   */\n      0x00\n        /* \"#utility.yul\":9634:9636   */\n      0x20\n        /* \"#utility.yul\":9623:9632   */\n      dup3\n        /* \"#utility.yul\":9619:9637   */\n      add\n        /* \"#utility.yul\":9611:9637   */\n      swap1\n      pop\n        /* \"#utility.yul\":9683:9692   */\n      dup2\n        /* \"#utility.yul\":9677:9681   */\n      dup2\n        /* \"#utility.yul\":9673:9693   */\n      sub\n        /* \"#utility.yul\":9669:9670   */\n      0x00\n        /* \"#utility.yul\":9658:9667   */\n      dup4\n        /* \"#utility.yul\":9654:9671   */\n      add\n        /* \"#utility.yul\":9647:9694   */\n      mstore\n        /* \"#utility.yul\":9711:9842   */\n      tag_416\n        /* \"#utility.yul\":9837:9841   */\n      dup2\n        /* \"#utility.yul\":9711:9842   */\n      tag_301\n      jump\t// in\n    tag_416:\n        /* \"#utility.yul\":9703:9842   */\n      swap1\n      pop\n        /* \"#utility.yul\":9430:9849   */\n      swap2\n      swap1\n      pop\n      jump\t// out\n        /* \"#utility.yul\":9855:10029   */\n    tag_302:\n        /* \"#utility.yul\":9995:10021   */\n      0x4d656c65626968692062617461732070656d62656c69616e0000000000000000\n        /* \"#utility.yul\":9991:9992   */\n      0x00\n        /* \"#utility.yul\":9983:9989   */\n      dup3\n        /* \"#utility.yul\":9979:9993   */\n      add\n        /* \"#utility.yul\":9972:10022   */\n      mstore\n        /* \"#utility.yul\":9855:10029   */\n      pop\n      jump\t// out\n        /* \"#utility.yul\":10035:10401   */\n    tag_303:\n        /* \"#utility.yul\":10177:10180   */\n      0x00\n        /* \"#utility.yul\":10198:10265   */\n      tag_419\n        /* \"#utility.yul\":10262:10264   */\n      0x18\n        /* \"#utility.yul\":10257:10260   */\n      dup4\n        /* \"#utility.yul\":10198:10265   */\n      tag_292\n      jump\t// in\n    tag_419:\n        /* \"#utility.yul\":10191:10265   */\n      swap2\n      pop\n        /* \"#utility.yul\":10274:10367   */\n      tag_420\n        /* \"#utility.yul\":10363:10366   */\n      dup3\n        /* \"#utility.yul\":10274:10367   */\n      tag_302\n      jump\t// in\n    tag_420:\n        /* \"#utility.yul\":10392:10394   */\n      0x20\n        /* \"#utility.yul\":10387:10390   */\n      dup3\n        /* \"#utility.yul\":10383:10395   */\n      add\n        /* \"#utility.yul\":10376:10395   */\n      swap1\n      pop\n        /* \"#utility.yul\":10035:10401   */\n      swap2\n      swap1\n      pop\n      jump\t// out\n        /* \"#utility.yul\":10407:10826   */\n    tag_141:\n        /* \"#utility.yul\":10573:10577   */\n      0x00\n        /* \"#utility.yul\":10611:10613   */\n      0x20\n        /* \"#utility.yul\":10600:10609   */\n      dup3\n        /* \"#utility.yul\":10596:10614   */\n      add\n        /* \"#utility.yul\":10588:10614   */\n      swap1\n      pop\n        /* \"#utility.yul\":10660:10669   */\n      dup2\n        /* \"#utility.yul\":10654:10658   */\n      dup2\n        /* \"#utility.yul\":10650:10670   */\n      sub\n        /* \"#utility.yul\":10646:10647   */\n      0x00\n        /* \"#utility.yul\":10635:10644   */\n      dup4\n        /* \"#utility.yul\":10631:10648   */\n      add\n        /* \"#utility.yul\":10624:10671   */\n      mstore\n        /* \"#utility.yul\":10688:10819   */\n      tag_422\n        /* \"#utility.yul\":10814:10818   */\n      dup2\n        /* \"#utility.yul\":10688:10819   */\n      tag_303\n      jump\t// in\n    tag_422:\n        /* \"#utility.yul\":10680:10819   */\n      swap1\n      pop\n        /* \"#utility.yul\":10407:10826   */\n      swap2\n      swap1\n      pop\n      jump\t// out\n        /* \"#utility.yul\":10832:10999   */\n    tag_304:\n        /* \"#utility.yul\":10972:10991   */\n      0x537461676520746964616b20616b746966000000000000000000000000000000\n        /* \"#utility.yul\":10968:10969   */\n      0x00\n        /* \"#utility.yul\":10960:10966   */\n      dup3\n        /* \"#utility.yul\":10956:10970   */\n      add\n        /* \"#utility.yul\":10949:10992   */\n      mstore\n        /* \"#utility.yul\":10832:10999   */\n      pop\n      jump\t// out\n        /* \"#utility.yul\":11005:11371   */\n    tag_305:\n        /* \"#utility.yul\":11147:11150   */\n      0x00\n        /* \"#utility.yul\":11168:11235   */\n      tag_425\n        /* \"#utility.yul\":11232:11234   */\n      0x11\n        /* \"#utility.yul\":11227:11230   */\n      dup4\n        /* \"#utility.yul\":11168:11235   */\n      tag_292\n      jump\t// in\n    tag_425:\n        /* \"#utility.yul\":11161:11235   */\n      swap2\n      pop\n        /* \"#utility.yul\":11244:11337   */\n      tag_426\n        /* \"#utility.yul\":11333:11336   */\n      dup3\n        /* \"#utility.yul\":11244:11337   */\n      tag_304\n      jump\t// in\n    tag_426:\n        /* \"#utility.yul\":11362:11364   */\n      0x20\n        /* \"#utility.yul\":11357:11360   */\n      dup3\n        /* \"#utility.yul\":11353:11365   */\n      add\n        /* \"#utility.yul\":11346:11365   */\n      swap1\n      pop\n        /* \"#utility.yul\":11005:11371   */\n      swap2\n      swap1\n      pop\n      jump\t// out\n        /* \"#utility.yul\":11377:11796   */\n    tag_147:\n        /* \"#utility.yul\":11543:11547   */\n      0x00\n        /* \"#utility.yul\":11581:11583   */\n      0x20\n        /* \"#utility.yul\":11570:11579   */\n      dup3\n        /* \"#utility.yul\":11566:11584   */\n      add\n        /* \"#utility.yul\":11558:11584   */\n      swap1\n      pop\n        /* \"#utility.yul\":11630:11639   */\n      dup2\n        /* \"#utility.yul\":11624:11628   */\n      dup2\n        /* \"#utility.yul\":11620:11640   */\n      sub\n        /* \"#utility.yul\":11616:11617   */\n      0x00\n        /* \"#utility.yul\":11605:11614   */\n      dup4\n        /* \"#utility.yul\":11601:11618   */\n      add\n        /* \"#utility.yul\":11594:11641   */\n      mstore\n        /* \"#utility.yul\":11658:11789   */\n      tag_428\n        /* \"#utility.yul\":11784:11788   */\n      dup2\n        /* \"#utility.yul\":11658:11789   */\n      tag_305\n      jump\t// in\n    tag_428:\n        /* \"#utility.yul\":11650:11789   */\n      swap1\n      pop\n        /* \"#utility.yul\":11377:11796   */\n      swap2\n      swap1\n      pop\n      jump\t// out\n        /* \"#utility.yul\":11802:11972   */\n    tag_306:\n        /* \"#utility.yul\":11942:11964   */\n      0x4d656c6562696869206b756f7461207374616765000000000000000000000000\n        /* \"#utility.yul\":11938:11939   */\n      0x00\n        /* \"#utility.yul\":11930:11936   */\n      dup3\n        /* \"#utility.yul\":11926:11940   */\n      add\n        /* \"#utility.yul\":11919:11965   */\n      mstore\n        /* \"#utility.yul\":11802:11972   */\n      pop\n      jump\t// out\n        /* \"#utility.yul\":11978:12344   */\n    tag_307:\n        /* \"#utility.yul\":12120:12123   */\n      0x00\n        /* \"#utility.yul\":12141:12208   */\n      tag_431\n        /* \"#utility.yul\":12205:12207   */\n      0x14\n        /* \"#utility.yul\":12200:12203   */\n      dup4\n        /* \"#utility.yul\":12141:12208   */\n      tag_292\n      jump\t// in\n    tag_431:\n        /* \"#utility.yul\":12134:12208   */\n      swap2\n      pop\n        /* \"#utility.yul\":12217:12310   */\n      tag_432\n        /* \"#utility.yul\":12306:12309   */\n      dup3\n        /* \"#utility.yul\":12217:12310   */\n      tag_306\n      jump\t// in\n    tag_432:\n        /* \"#utility.yul\":12335:12337   */\n      0x20\n        /* \"#utility.yul\":12330:12333   */\n      dup3\n        /* \"#utility.yul\":12326:12338   */\n      add\n        /* \"#utility.yul\":12319:12338   */\n      swap1\n      pop\n        /* \"#utility.yul\":11978:12344   */\n      swap2\n      swap1\n      pop\n      jump\t// out\n        /* \"#utility.yul\":12350:12769   */\n    tag_151:\n        /* \"#utility.yul\":12516:12520   */\n      0x00\n        /* \"#utility.yul\":12554:12556   */\n      0x20\n        /* \"#utility.yul\":12543:12552   */\n      dup3\n        /* \"#utility.yul\":12539:12557   */\n      add\n        /* \"#utility.yul\":12531:12557   */\n      swap1\n      pop\n        /* \"#utility.yul\":12603:12612   */\n      dup2\n        /* \"#utility.yul\":12597:12601   */\n      dup2\n        /* \"#utility.yul\":12593:12613   */\n      sub\n        /* \"#utility.yul\":12589:12590   */\n      0x00\n        /* \"#utility.yul\":12578:12587   */\n      dup4\n        /* \"#utility.yul\":12574:12591   */\n      add\n        /* \"#utility.yul\":12567:12614   */\n      mstore\n        /* \"#utility.yul\":12631:12762   */\n      tag_434\n        /* \"#utility.yul\":12757:12761   */\n      dup2\n        /* \"#utility.yul\":12631:12762   */\n      tag_307\n      jump\t// in\n    tag_434:\n        /* \"#utility.yul\":12623:12762   */\n      swap1\n      pop\n        /* \"#utility.yul\":12350:12769   */\n      swap2\n      swap1\n      pop\n      jump\t// out\n        /* \"#utility.yul\":12775:13185   */\n    tag_153:\n        /* \"#utility.yul\":12815:12822   */\n      0x00\n        /* \"#utility.yul\":12838:12858   */\n      tag_436\n        /* \"#utility.yul\":12856:12857   */\n      dup3\n        /* \"#utility.yul\":12838:12858   */\n      tag_279\n      jump\t// in\n    tag_436:\n        /* \"#utility.yul\":12833:12858   */\n      swap2\n      pop\n        /* \"#utility.yul\":12872:12892   */\n      tag_437\n        /* \"#utility.yul\":12890:12891   */\n      dup4\n        /* \"#utility.yul\":12872:12892   */\n      tag_279\n      jump\t// in\n    tag_437:\n        /* \"#utility.yul\":12867:12892   */\n      swap3\n      pop\n        /* \"#utility.yul\":12927:12928   */\n      dup3\n        /* \"#utility.yul\":12924:12925   */\n      dup3\n        /* \"#utility.yul\":12920:12929   */\n      mul\n        /* \"#utility.yul\":12949:12979   */\n      tag_438\n        /* \"#utility.yul\":12967:12978   */\n      dup2\n        /* \"#utility.yul\":12949:12979   */\n      tag_279\n      jump\t// in\n    tag_438:\n        /* \"#utility.yul\":12938:12979   */\n      swap2\n      pop\n        /* \"#utility.yul\":13128:13129   */\n      dup3\n        /* \"#utility.yul\":13119:13126   */\n      dup3\n        /* \"#utility.yul\":13115:13130   */\n      div\n        /* \"#utility.yul\":13112:13113   */\n      dup5\n        /* \"#utility.yul\":13109:13131   */\n      eq\n        /* \"#utility.yul\":13089:13090   */\n      dup4\n        /* \"#utility.yul\":13082:13091   */\n      iszero\n        /* \"#utility.yul\":13062:13145   */\n      or\n        /* \"#utility.yul\":13039:13178   */\n      tag_439\n      jumpi\n        /* \"#utility.yul\":13158:13176   */\n      tag_440\n      tag_295\n      jump\t// in\n    tag_440:\n        /* \"#utility.yul\":13039:13178   */\n    tag_439:\n        /* \"#utility.yul\":12823:13185   */\n      pop\n        /* \"#utility.yul\":12775:13185   */\n      swap3\n      swap2\n      pop\n      pop\n      jump\t// out\n        /* \"#utility.yul\":13191:13371   */\n    tag_308:\n        /* \"#utility.yul\":13239:13316   */\n      0x4e487b7100000000000000000000000000000000000000000000000000000000\n        /* \"#utility.yul\":13236:13237   */\n      0x00\n        /* \"#utility.yul\":13229:13317   */\n      mstore\n        /* \"#utility.yul\":13336:13340   */\n      0x12\n        /* \"#utility.yul\":13333:13334   */\n      0x04\n        /* \"#utility.yul\":13326:13341   */\n      mstore\n        /* \"#utility.yul\":13360:13364   */\n      0x24\n        /* \"#utility.yul\":13357:13358   */\n      0x00\n        /* \"#utility.yul\":13350:13365   */\n      revert\n        /* \"#utility.yul\":13377:13562   */\n    tag_155:\n        /* \"#utility.yul\":13417:13418   */\n      0x00\n        /* \"#utility.yul\":13434:13454   */\n      tag_443\n        /* \"#utility.yul\":13452:13453   */\n      dup3\n        /* \"#utility.yul\":13434:13454   */\n      tag_279\n      jump\t// in\n    tag_443:\n        /* \"#utility.yul\":13429:13454   */\n      swap2\n      pop\n        /* \"#utility.yul\":13468:13488   */\n      tag_444\n        /* \"#utility.yul\":13486:13487   */\n      dup4\n        /* \"#utility.yul\":13468:13488   */\n      tag_279\n      jump\t// in\n    tag_444:\n        /* \"#utility.yul\":13463:13488   */\n      swap3\n      pop\n        /* \"#utility.yul\":13507:13508   */\n      dup3\n        /* \"#utility.yul\":13497:13532   */\n      tag_445\n      jumpi\n        /* \"#utility.yul\":13512:13530   */\n      tag_446\n      tag_308\n      jump\t// in\n    tag_446:\n        /* \"#utility.yul\":13497:13532   */\n    tag_445:\n        /* \"#utility.yul\":13554:13555   */\n      dup3\n        /* \"#utility.yul\":13551:13552   */\n      dup3\n        /* \"#utility.yul\":13547:13556   */\n      div\n        /* \"#utility.yul\":13542:13556   */\n      swap1\n      pop\n        /* \"#utility.yul\":13377:13562   */\n      swap3\n      swap2\n      pop\n      pop\n      jump\t// out\n        /* \"#utility.yul\":13568:13900   */\n    tag_165:\n        /* \"#utility.yul\":13689:13693   */\n      0x00\n        /* \"#utility.yul\":13727:13729   */\n      0x40\n        /* \"#utility.yul\":13716:13725   */\n      dup3\n        /* \"#utility.yul\":13712:13730   */\n      add\n        /* \"#utility.yul\":13704:13730   */\n      swap1\n      pop\n        /* \"#utility.yul\":13740:13811   */\n      tag_448\n        /* \"#utility.yul\":13808:13809   */\n      0x00\n        /* \"#utility.yul\":13797:13806   */\n      dup4\n        /* \"#utility.yul\":13793:13810   */\n      add\n        /* \"#utility.yul\":13784:13790   */\n      dup6\n        /* \"#utility.yul\":13740:13811   */\n      tag_280\n      jump\t// in\n    tag_448:\n        /* \"#utility.yul\":13821:13893   */\n      tag_449\n        /* \"#utility.yul\":13889:13891   */\n      0x20\n        /* \"#utility.yul\":13878:13887   */\n      dup4\n        /* \"#utility.yul\":13874:13892   */\n      add\n        /* \"#utility.yul\":13865:13871   */\n      dup5\n        /* \"#utility.yul\":13821:13893   */\n      tag_280\n      jump\t// in\n    tag_449:\n        /* \"#utility.yul\":13568:13900   */\n      swap4\n      swap3\n      pop\n      pop\n      pop\n      jump\t// out\n        /* \"#utility.yul\":13906:14072   */\n    tag_309:\n        /* \"#utility.yul\":14046:14064   */\n      0x42656c756d206269736120636c61696d00000000000000000000000000000000\n        /* \"#utility.yul\":14042:14043   */\n      0x00\n        /* \"#utility.yul\":14034:14040   */\n      dup3\n        /* \"#utility.yul\":14030:14044   */\n      add\n        /* \"#utility.yul\":14023:14065   */\n      mstore\n        /* \"#utility.yul\":13906:14072   */\n      pop\n      jump\t// out\n        /* \"#utility.yul\":14078:14444   */\n    tag_310:\n        /* \"#utility.yul\":14220:14223   */\n      0x00\n        /* \"#utility.yul\":14241:14308   */\n      tag_452\n        /* \"#utility.yul\":14305:14307   */\n      0x10\n        /* \"#utility.yul\":14300:14303   */\n      dup4\n        /* \"#utility.yul\":14241:14308   */\n      tag_292\n      jump\t// in\n    tag_452:\n        /* \"#utility.yul\":14234:14308   */\n      swap2\n      pop\n        /* \"#utility.yul\":14317:14410   */\n      tag_453\n        /* \"#utility.yul\":14406:14409   */\n      dup3\n        /* \"#utility.yul\":14317:14410   */\n      tag_309\n      jump\t// in\n    tag_453:\n        /* \"#utility.yul\":14435:14437   */\n      0x20\n        /* \"#utility.yul\":14430:14433   */\n      dup3\n        /* \"#utility.yul\":14426:14438   */\n      add\n        /* \"#utility.yul\":14419:14438   */\n      swap1\n      pop\n        /* \"#utility.yul\":14078:14444   */\n      swap2\n      swap1\n      pop\n      jump\t// out\n        /* \"#utility.yul\":14450:14869   */\n    tag_175:\n        /* \"#utility.yul\":14616:14620   */\n      0x00\n        /* \"#utility.yul\":14654:14656   */\n      0x20\n        /* \"#utility.yul\":14643:14652   */\n      dup3\n        /* \"#utility.yul\":14639:14657   */\n      add\n        /* \"#utility.yul\":14631:14657   */\n      swap1\n      pop\n        /* \"#utility.yul\":14703:14712   */\n      dup2\n        /* \"#utility.yul\":14697:14701   */\n      dup2\n        /* \"#utility.yul\":14693:14713   */\n      sub\n        /* \"#utility.yul\":14689:14690   */\n      0x00\n        /* \"#utility.yul\":14678:14687   */\n      dup4\n        /* \"#utility.yul\":14674:14691   */\n      add\n        /* \"#utility.yul\":14667:14714   */\n      mstore\n        /* \"#utility.yul\":14731:14862   */\n      tag_455\n        /* \"#utility.yul\":14857:14861   */\n      dup2\n        /* \"#utility.yul\":14731:14862   */\n      tag_310\n      jump\t// in\n    tag_455:\n        /* \"#utility.yul\":14723:14862   */\n      swap1\n      pop\n        /* \"#utility.yul\":14450:14869   */\n      swap2\n      swap1\n      pop\n      jump\t// out\n        /* \"#utility.yul\":14875:15055   */\n    tag_311:\n        /* \"#utility.yul\":15015:15047   */\n      0x546964616b2061646120746f6b656e20756e74756b2064692d636c61696d0000\n        /* \"#utility.yul\":15011:15012   */\n      0x00\n        /* \"#utility.yul\":15003:15009   */\n      dup3\n        /* \"#utility.yul\":14999:15013   */\n      add\n        /* \"#utility.yul\":14992:15048   */\n      mstore\n        /* \"#utility.yul\":14875:15055   */\n      pop\n      jump\t// out\n        /* \"#utility.yul\":15061:15427   */\n    tag_312:\n        /* \"#utility.yul\":15203:15206   */\n      0x00\n        /* \"#utility.yul\":15224:15291   */\n      tag_458\n        /* \"#utility.yul\":15288:15290   */\n      0x1e\n        /* \"#utility.yul\":15283:15286   */\n      dup4\n        /* \"#utility.yul\":15224:15291   */\n      tag_292\n      jump\t// in\n    tag_458:\n        /* \"#utility.yul\":15217:15291   */\n      swap2\n      pop\n        /* \"#utility.yul\":15300:15393   */\n      tag_459\n        /* \"#utility.yul\":15389:15392   */\n      dup3\n        /* \"#utility.yul\":15300:15393   */\n      tag_311\n      jump\t// in\n    tag_459:\n        /* \"#utility.yul\":15418:15420   */\n      0x20\n        /* \"#utility.yul\":15413:15416   */\n      dup3\n        /* \"#utility.yul\":15409:15421   */\n      add\n        /* \"#utility.yul\":15402:15421   */\n      swap1\n      pop\n        /* \"#utility.yul\":15061:15427   */\n      swap2\n      swap1\n      pop\n      jump\t// out\n        /* \"#utility.yul\":15433:15852   */\n    tag_178:\n        /* \"#utility.yul\":15599:15603   */\n      0x00\n        /* \"#utility.yul\":15637:15639   */\n      0x20\n        /* \"#utility.yul\":15626:15635   */\n      dup3\n        /* \"#utility.yul\":15622:15640   */\n      add\n        /* \"#utility.yul\":15614:15640   */\n      swap1\n      pop\n        /* \"#utility.yul\":15686:15695   */\n      dup2\n        /* \"#utility.yul\":15680:15684   */\n      dup2\n        /* \"#utility.yul\":15676:15696   */\n      sub\n        /* \"#utility.yul\":15672:15673   */\n      0x00\n        /* \"#utility.yul\":15661:15670   */\n      dup4\n        /* \"#utility.yul\":15657:15674   */\n      add\n        /* \"#utility.yul\":15650:15697   */\n      mstore\n        /* \"#utility.yul\":15714:15845   */\n      tag_461\n        /* \"#utility.yul\":15840:15844   */\n      dup2\n        /* \"#utility.yul\":15714:15845   */\n      tag_312\n      jump\t// in\n    tag_461:\n        /* \"#utility.yul\":15706:15845   */\n      swap1\n      pop\n        /* \"#utility.yul\":15433:15852   */\n      swap2\n      swap1\n      pop\n      jump\t// out\n        /* \"#utility.yul\":15858:16030   */\n    tag_313:\n        /* \"#utility.yul\":15998:16022   */\n      0x50726573616c65207375646168206469616b6869726900000000000000000000\n        /* \"#utility.yul\":15994:15995   */\n      0x00\n        /* \"#utility.yul\":15986:15992   */\n      dup3\n        /* \"#utility.yul\":15982:15996   */\n      add\n        /* \"#utility.yul\":15975:16023   */\n      mstore\n        /* \"#utility.yul\":15858:16030   */\n      pop\n      jump\t// out\n        /* \"#utility.yul\":16036:16402   */\n    tag_314:\n        /* \"#utility.yul\":16178:16181   */\n      0x00\n        /* \"#utility.yul\":16199:16266   */\n      tag_464\n        /* \"#utility.yul\":16263:16265   */\n      0x16\n        /* \"#utility.yul\":16258:16261   */\n      dup4\n        /* \"#utility.yul\":16199:16266   */\n      tag_292\n      jump\t// in\n    tag_464:\n        /* \"#utility.yul\":16192:16266   */\n      swap2\n      pop\n        /* \"#utility.yul\":16275:16368   */\n      tag_465\n        /* \"#utility.yul\":16364:16367   */\n      dup3\n        /* \"#utility.yul\":16275:16368   */\n      tag_313\n      jump\t// in\n    tag_465:\n        /* \"#utility.yul\":16393:16395   */\n      0x20\n        /* \"#utility.yul\":16388:16391   */\n      dup3\n        /* \"#utility.yul\":16384:16396   */\n      add\n        /* \"#utility.yul\":16377:16396   */\n      swap1\n      pop\n        /* \"#utility.yul\":16036:16402   */\n      swap2\n      swap1\n      pop\n      jump\t// out\n        /* \"#utility.yul\":16408:16827   */\n    tag_203:\n        /* \"#utility.yul\":16574:16578   */\n      0x00\n        /* \"#utility.yul\":16612:16614   */\n      0x20\n        /* \"#utility.yul\":16601:16610   */\n      dup3\n        /* \"#utility.yul\":16597:16615   */\n      add\n        /* \"#utility.yul\":16589:16615   */\n      swap1\n      pop\n        /* \"#utility.yul\":16661:16670   */\n      dup2\n        /* \"#utility.yul\":16655:16659   */\n      dup2\n        /* \"#utility.yul\":16651:16671   */\n      sub\n        /* \"#utility.yul\":16647:16648   */\n      0x00\n        /* \"#utility.yul\":16636:16645   */\n      dup4\n        /* \"#utility.yul\":16632:16649   */\n      add\n        /* \"#utility.yul\":16625:16672   */\n      mstore\n        /* \"#utility.yul\":16689:16820   */\n      tag_467\n        /* \"#utility.yul\":16815:16819   */\n      dup2\n        /* \"#utility.yul\":16689:16820   */\n      tag_314\n      jump\t// in\n    tag_467:\n        /* \"#utility.yul\":16681:16820   */\n      swap1\n      pop\n        /* \"#utility.yul\":16408:16827   */\n      swap2\n      swap1\n      pop\n      jump\t// out\n        /* \"#utility.yul\":16833:16976   */\n    tag_315:\n        /* \"#utility.yul\":16890:16895   */\n      0x00\n        /* \"#utility.yul\":16921:16927   */\n      dup2\n        /* \"#utility.yul\":16915:16928   */\n      mload\n        /* \"#utility.yul\":16906:16928   */\n      swap1\n      pop\n        /* \"#utility.yul\":16937:16970   */\n      tag_469\n        /* \"#utility.yul\":16964:16969   */\n      dup2\n        /* \"#utility.yul\":16937:16970   */\n      tag_284\n      jump\t// in\n    tag_469:\n        /* \"#utility.yul\":16833:16976   */\n      swap3\n      swap2\n      pop\n      pop\n      jump\t// out\n        /* \"#utility.yul\":16982:17333   */\n    tag_208:\n        /* \"#utility.yul\":17052:17058   */\n      0x00\n        /* \"#utility.yul\":17101:17103   */\n      0x20\n        /* \"#utility.yul\":17089:17098   */\n      dup3\n        /* \"#utility.yul\":17080:17087   */\n      dup5\n        /* \"#utility.yul\":17076:17099   */\n      sub\n        /* \"#utility.yul\":17072:17104   */\n      slt\n        /* \"#utility.yul\":17069:17188   */\n      iszero\n      tag_471\n      jumpi\n        /* \"#utility.yul\":17107:17186   */\n      tag_472\n      tag_282\n      jump\t// in\n    tag_472:\n        /* \"#utility.yul\":17069:17188   */\n    tag_471:\n        /* \"#utility.yul\":17227:17228   */\n      0x00\n        /* \"#utility.yul\":17252:17316   */\n      tag_473\n        /* \"#utility.yul\":17308:17315   */\n      dup5\n        /* \"#utility.yul\":17299:17305   */\n      dup3\n        /* \"#utility.yul\":17288:17297   */\n      dup6\n        /* \"#utility.yul\":17284:17306   */\n      add\n        /* \"#utility.yul\":17252:17316   */\n      tag_315\n      jump\t// in\n    tag_473:\n        /* \"#utility.yul\":17242:17316   */\n      swap2\n      pop\n        /* \"#utility.yul\":17198:17326   */\n      pop\n        /* \"#utility.yul\":16982:17333   */\n      swap3\n      swap2\n      pop\n      pop\n      jump\t// out\n        /* \"#utility.yul\":17339:17520   */\n    tag_316:\n        /* \"#utility.yul\":17479:17512   */\n      0x5265656e7472616e637947756172643a207265656e7472616e742063616c6c00\n        /* \"#utility.yul\":17475:17476   */\n      0x00\n        /* \"#utility.yul\":17467:17473   */\n      dup3\n        /* \"#utility.yul\":17463:17477   */\n      add\n        /* \"#utility.yul\":17456:17513   */\n      mstore\n        /* \"#utility.yul\":17339:17520   */\n      pop\n      jump\t// out\n        /* \"#utility.yul\":17526:17892   */\n    tag_317:\n        /* \"#utility.yul\":17668:17671   */\n      0x00\n        /* \"#utility.yul\":17689:17756   */\n      tag_476\n        /* \"#utility.yul\":17753:17755   */\n      0x1f\n        /* \"#utility.yul\":17748:17751   */\n      dup4\n        /* \"#utility.yul\":17689:17756   */\n      tag_292\n      jump\t// in\n    tag_476:\n        /* \"#utility.yul\":17682:17756   */\n      swap2\n      pop\n        /* \"#utility.yul\":17765:17858   */\n      tag_477\n        /* \"#utility.yul\":17854:17857   */\n      dup3\n        /* \"#utility.yul\":17765:17858   */\n      tag_316\n      jump\t// in\n    tag_477:\n        /* \"#utility.yul\":17883:17885   */\n      0x20\n        /* \"#utility.yul\":17878:17881   */\n      dup3\n        /* \"#utility.yul\":17874:17886   */\n      add\n        /* \"#utility.yul\":17867:17886   */\n      swap1\n      pop\n        /* \"#utility.yul\":17526:17892   */\n      swap2\n      swap1\n      pop\n      jump\t// out\n        /* \"#utility.yul\":17898:18317   */\n    tag_233:\n        /* \"#utility.yul\":18064:18068   */\n      0x00\n        /* \"#utility.yul\":18102:18104   */\n      0x20\n        /* \"#utility.yul\":18091:18100   */\n      dup3\n        /* \"#utility.yul\":18087:18105   */\n      add\n        /* \"#utility.yul\":18079:18105   */\n      swap1\n      pop\n        /* \"#utility.yul\":18151:18160   */\n      dup2\n        /* \"#utility.yul\":18145:18149   */\n      dup2\n        /* \"#utility.yul\":18141:18161   */\n      sub\n        /* \"#utility.yul\":18137:18138   */\n      0x00\n        /* \"#utility.yul\":18126:18135   */\n      dup4\n        /* \"#utility.yul\":18122:18139   */\n      add\n        /* \"#utility.yul\":18115:18162   */\n      mstore\n        /* \"#utility.yul\":18179:18310   */\n      tag_479\n        /* \"#utility.yul\":18305:18309   */\n      dup2\n        /* \"#utility.yul\":18179:18310   */\n      tag_317\n      jump\t// in\n    tag_479:\n        /* \"#utility.yul\":18171:18310   */\n      swap1\n      pop\n        /* \"#utility.yul\":17898:18317   */\n      swap2\n      swap1\n      pop\n      jump\t// out\n        /* \"#utility.yul\":18323:18765   */\n    tag_237:\n        /* \"#utility.yul\":18472:18476   */\n      0x00\n        /* \"#utility.yul\":18510:18512   */\n      0x60\n        /* \"#utility.yul\":18499:18508   */\n      dup3\n        /* \"#utility.yul\":18495:18513   */\n      add\n        /* \"#utility.yul\":18487:18513   */\n      swap1\n      pop\n        /* \"#utility.yul\":18523:18594   */\n      tag_481\n        /* \"#utility.yul\":18591:18592   */\n      0x00\n        /* \"#utility.yul\":18580:18589   */\n      dup4\n        /* \"#utility.yul\":18576:18593   */\n      add\n        /* \"#utility.yul\":18567:18573   */\n      dup7\n        /* \"#utility.yul\":18523:18594   */\n      tag_289\n      jump\t// in\n    tag_481:\n        /* \"#utility.yul\":18604:18676   */\n      tag_482\n        /* \"#utility.yul\":18672:18674   */\n      0x20\n        /* \"#utility.yul\":18661:18670   */\n      dup4\n        /* \"#utility.yul\":18657:18675   */\n      add\n        /* \"#utility.yul\":18648:18654   */\n      dup6\n        /* \"#utility.yul\":18604:18676   */\n      tag_289\n      jump\t// in\n    tag_482:\n        /* \"#utility.yul\":18686:18758   */\n      tag_483\n        /* \"#utility.yul\":18754:18756   */\n      0x40\n        /* \"#utility.yul\":18743:18752   */\n      dup4\n        /* \"#utility.yul\":18739:18757   */\n      add\n        /* \"#utility.yul\":18730:18736   */\n      dup5\n        /* \"#utility.yul\":18686:18758   */\n      tag_280\n      jump\t// in\n    tag_483:\n        /* \"#utility.yul\":18323:18765   */\n      swap5\n      swap4\n      pop\n      pop\n      pop\n      pop\n      jump\t// out\n        /* \"#utility.yul\":18771:19004   */\n    tag_246:\n        /* \"#utility.yul\":18810:18813   */\n      0x00\n        /* \"#utility.yul\":18833:18857   */\n      tag_485\n        /* \"#utility.yul\":18851:18856   */\n      dup3\n        /* \"#utility.yul\":18833:18857   */\n      tag_279\n      jump\t// in\n    tag_485:\n        /* \"#utility.yul\":18824:18857   */\n      swap2\n      pop\n        /* \"#utility.yul\":18879:18945   */\n      0xffffffffffffffffffffffffffffffffffffffffffffffffffffffffffffffff\n        /* \"#utility.yul\":18872:18877   */\n      dup3\n        /* \"#utility.yul\":18869:18946   */\n      sub\n        /* \"#utility.yul\":18866:18969   */\n      tag_486\n      jumpi\n        /* \"#utility.yul\":18949:18967   */\n      tag_487\n      tag_295\n      jump\t// in\n    tag_487:\n        /* \"#utility.yul\":18866:18969   */\n    tag_486:\n        /* \"#utility.yul\":18996:18997   */\n      0x01\n        /* \"#utility.yul\":18989:18994   */\n      dup3\n        /* \"#utility.yul\":18985:18998   */\n      add\n        /* \"#utility.yul\":18978:18998   */\n      swap1\n      pop\n        /* \"#utility.yul\":18771:19004   */\n      swap2\n      swap1\n      pop\n      jump\t// out\n        /* \"#utility.yul\":19010:19342   */\n    tag_261:\n        /* \"#utility.yul\":19131:19135   */\n      0x00\n        /* \"#utility.yul\":19169:19171   */\n      0x40\n        /* \"#utility.yul\":19158:19167   */\n      dup3\n        /* \"#utility.yul\":19154:19172   */\n      add\n        /* \"#utility.yul\":19146:19172   */\n      swap1\n      pop\n        /* \"#utility.yul\":19182:19253   */\n      tag_489\n        /* \"#utility.yul\":19250:19251   */\n      0x00\n        /* \"#utility.yul\":19239:19248   */\n      dup4\n        /* \"#utility.yul\":19235:19252   */\n      add\n        /* \"#utility.yul\":19226:19232   */\n      dup6\n        /* \"#utility.yul\":19182:19253   */\n      tag_289\n      jump\t// in\n    tag_489:\n        /* \"#utility.yul\":19263:19335   */\n      tag_490\n        /* \"#utility.yul\":19331:19333   */\n      0x20\n        /* \"#utility.yul\":19320:19329   */\n      dup4\n        /* \"#utility.yul\":19316:19334   */\n      add\n        /* \"#utility.yul\":19307:19313   */\n      dup5\n        /* \"#utility.yul\":19263:19335   */\n      tag_280\n      jump\t// in\n    tag_490:\n        /* \"#utility.yul\":19010:19342   */\n      swap4\n      swap3\n      pop\n      pop\n      pop\n      jump\t// out\n\n    auxdata: 0xa2646970667358221220ff3682e92aa8f6b68cfe030c02075f6ea084e70520ff968910dedf7f8b4422e664736f6c634300081e0033\n}\n",
				"bytecode": {
					"linkReferences": {},
					"object": "60e060405234801561000f575f5ffd5b5060405161251438038061251483398181016040528101906100319190610563565b805f73ffffffffffffffffffffffffffffffffffffffff168173ffffffffffffffffffffffffffffffffffffffff16036100a2575f6040517f1e4fbdf700000000000000000000000000000000000000000000000000000000815260040161009991906105d6565b60405180910390fd5b6100b18161040e60201b60201c565b5060016002819055505f73ffffffffffffffffffffffffffffffffffffffff168473ffffffffffffffffffffffffffffffffffffffff161415801561012257505f73ffffffffffffffffffffffffffffffffffffffff168373ffffffffffffffffffffffffffffffffffffffff1614155b801561015a57505f73ffffffffffffffffffffffffffffffffffffffff168273ffffffffffffffffffffffffffffffffffffffff1614155b610199576040517f08c379a000000000000000000000000000000000000000000000000000000000815260040161019090610649565b60405180910390fd5b8373ffffffffffffffffffffffffffffffffffffffff1660808173ffffffffffffffffffffffffffffffffffffffff16815250508273ffffffffffffffffffffffffffffffffffffffff1660a08173ffffffffffffffffffffffffffffffffffffffff16815250508173ffffffffffffffffffffffffffffffffffffffff1660c08173ffffffffffffffffffffffffffffffffffffffff1681525050600360405180608001604052806a034f086f3b33b68400000081526020015f815260200166b1a2bc2ec5000081526020015f1515815250908060018154018082558091505060019003905f5260205f2090600402015f909190919091505f820151815f015560208201518160010155604082015181600201556060820151816003015f6101000a81548160ff0219169083151502179055505050600360405180608001604052806a027b46536c66c8e300000081526020015f815260200167010a741a4627800081526020015f1515815250908060018154018082558091505060019003905f5260205f2090600402015f909190919091505f820151815f015560208201518160010155604082015181600201556060820151816003015f6101000a81548160ff0219169083151502179055505050600360405180608001604052806a027b46536c66c8e300000081526020015f815260200167016345785d8a000081526020015f1515815250908060018154018082558091505060019003905f5260205f2090600402015f909190919091505f820151815f015560208201518160010155604082015181600201556060820151816003015f6101000a81548160ff021916908315150217905550505050505050610667565b60015f6101000a81549073ffffffffffffffffffffffffffffffffffffffff02191690556104418161044460201b60201c565b50565b5f5f5f9054906101000a900473ffffffffffffffffffffffffffffffffffffffff169050815f5f6101000a81548173ffffffffffffffffffffffffffffffffffffffff021916908373ffffffffffffffffffffffffffffffffffffffff1602179055508173ffffffffffffffffffffffffffffffffffffffff168173ffffffffffffffffffffffffffffffffffffffff167f8be0079c531659141344cd1fd0a4f28419497f9722a3daafe3b4186f6b6457e060405160405180910390a35050565b5f5ffd5b5f73ffffffffffffffffffffffffffffffffffffffff82169050919050565b5f61053282610509565b9050919050565b61054281610528565b811461054c575f5ffd5b50565b5f8151905061055d81610539565b92915050565b5f5f5f5f6080858703121561057b5761057a610505565b5b5f6105888782880161054f565b94505060206105998782880161054f565b93505060406105aa8782880161054f565b92505060606105bb8782880161054f565b91505092959194509250565b6105d081610528565b82525050565b5f6020820190506105e95f8301846105c7565b92915050565b5f82825260208201905092915050565b7f416c616d617420746964616b2076616c696400000000000000000000000000005f82015250565b5f6106336012836105ef565b915061063e826105ff565b602082019050919050565b5f6020820190508181035f83015261066081610627565b9050919050565b60805160a05160c051611e596106bb5f395f81816107f10152610b4701525f818161045501528181610aa201528181610d0801528181610db6015261120501525f818161051301526108130152611e595ff3fe608060405234801561000f575f5ffd5b506004361061014b575f3560e01c8063845ddcb2116100c1578063a82524b21161007a578063a82524b214610311578063db81b2781461032f578063e30c39781461034d578063e580b2b01461036b578063f2fde38b14610389578063f349b76c146103a55761014b565b8063845ddcb21461025c5780638da5cb5b1461028f5780639106d7ba146102ad578063945e4013146102cb57806396713abf146102e9578063a43be57b146103075761014b565b806339f65c091161011357806339f65c09146101d257806348c54b9d146102025780635bf5d54c1461020c57806361d027b31461022a578063715018a61461024857806379ba5097146102525761014b565b806304c98b2b1461014f5780631f9c729d1461015957806326d07099146101775780632f48ab7d146101985780633610724e146101b6575b5f5ffd5b6101576103c3565b005b610161610453565b60405161016e919061154a565b60405180910390f35b61017f610477565b60405161018f949392919061157b565b60405180910390f35b6101a0610511565b6040516101ad919061154a565b60405180910390f35b6101d060048036038101906101cb91906115ec565b610535565b005b6101ec60048036038101906101e79190611652565b610951565b6040516101f9919061167d565b60405180910390f35b61020a610966565b005b610214610b3f565b604051610221919061167d565b60405180910390f35b610232610b45565b60405161023f91906116a5565b60405180910390f35b610250610b69565b005b61025a610b7c565b005b610276600480360381019061027191906115ec565b610c0a565b60405161028694939291906116d8565b60405180910390f35b610297610c51565b6040516102a491906116a5565b60405180910390f35b6102b5610c78565b6040516102c2919061167d565b60405180910390f35b6102d3610c7e565b6040516102e0919061167d565b60405180910390f35b6102f1610c85565b6040516102fe919061167d565b60405180910390f35b61030f610c94565b005b610319610e39565b604051610326919061167d565b60405180910390f35b610337610e3f565b604051610344919061167d565b60405180910390f35b610355610e4d565b60405161036291906116a5565b60405180910390f35b610373610e75565b604051610380919061171b565b60405180910390f35b6103a3600480360381019061039e9190611652565b610e87565b005b6103ad610f33565b6040516103ba919061167d565b60405180910390f35b6103cb610f86565b5f6005541461040f576040517f08c379a00000000000000000000000000000000000000000000000000000000081526004016104069061178e565b60405180910390fd5b42600581905550600160035f8154811061042c5761042b6117ac565b5b905f5260205f2090600402016003015f6101000a81548160ff021916908315150217905550565b7f000000000000000000000000000000000000000000000000000000000000000081565b5f5f5f5f5f600360045481548110610492576104916117ac565b5b905f5260205f2090600402016040518060800160405290815f82015481526020016001820154815260200160028201548152602001600382015f9054906101000a900460ff161515151581525050905060045481604001518260200151835f01516104fd9190611806565b836020015194509450945094505090919293565b7f000000000000000000000000000000000000000000000000000000000000000081565b61053d61100d565b60065f9054906101000a900460ff161561058c576040517f08c379a000000000000000000000000000000000000000000000000000000000815260040161058390611883565b60405180910390fd5b6005544210156105d1576040517f08c379a00000000000000000000000000000000000000000000000000000000081526004016105c8906118eb565b60405180910390fd5b6276a7006005546105e29190611909565b421115610624576040517f08c379a000000000000000000000000000000000000000000000000000000000815260040161061b90611883565b60405180910390fd5b5f8111610666576040517f08c379a000000000000000000000000000000000000000000000000000000000815260040161065d90611986565b60405180910390fd5b69d3c21bcecceda10000008160085f3373ffffffffffffffffffffffffffffffffffffffff1673ffffffffffffffffffffffffffffffffffffffff1681526020019081526020015f20546106ba9190611909565b11156106fb576040517f08c379a00000000000000000000000000000000000000000000000000000000081526004016106f2906119ee565b60405180910390fd5b5f600360045481548110610712576107116117ac565b5b905f5260205f2090600402019050806003015f9054906101000a900460ff16610770576040517f08c379a000000000000000000000000000000000000000000000000000000000815260040161076790611a56565b60405180910390fd5b805f01548282600101546107849190611909565b11156107c5576040517f08c379a00000000000000000000000000000000000000000000000000000000081526004016107bc90611abe565b60405180910390fd5b5f670de0b6b3a76400008260020154846107df9190611adc565b6107e99190611b4a565b9050610858337f0000000000000000000000000000000000000000000000000000000000000000837f000000000000000000000000000000000000000000000000000000000000000073ffffffffffffffffffffffffffffffffffffffff1661105a909392919063ffffffff16565b82826001015f82825461086b9190611909565b925050819055508260075f8282546108839190611909565b925050819055508260085f3373ffffffffffffffffffffffffffffffffffffffff1673ffffffffffffffffffffffffffffffffffffffff1681526020019081526020015f205f8282546108d69190611909565b92505081905550815f01548260010154106108f4576108f36110dc565b5b3373ffffffffffffffffffffffffffffffffffffffff167f8fafebcaf9d154343dad25669bfa277f4fbacd7ac6b0c4fed522580e040a0f33848360405161093c929190611b7a565b60405180910390a2505061094e6112b4565b50565b6008602052805f5260405f205f915090505481565b61096e61100d565b60065f9054906101000a900460ff168061099757506276a7006005546109949190611909565b42115b6109d6576040517f08c379a00000000000000000000000000000000000000000000000000000000081526004016109cd90611beb565b60405180910390fd5b5f60085f3373ffffffffffffffffffffffffffffffffffffffff1673ffffffffffffffffffffffffffffffffffffffff1681526020019081526020015f205490505f8111610a59576040517f08c379a0000000000000000000000000000000000000000000000000000000008152600401610a5090611c53565b60405180910390fd5b5f60085f3373ffffffffffffffffffffffffffffffffffffffff1673ffffffffffffffffffffffffffffffffffffffff1681526020019081526020015f2081905550610ae633827f000000000000000000000000000000000000000000000000000000000000000073ffffffffffffffffffffffffffffffffffffffff166112be9092919063ffffffff16565b3373ffffffffffffffffffffffffffffffffffffffff167f896e034966eaaf1adc54acc0f257056febbd300c9e47182cf761982cf1f5e43082604051610b2c919061167d565b60405180910390a250610b3d6112b4565b565b60045481565b7f000000000000000000000000000000000000000000000000000000000000000081565b610b71610f86565b610b7a5f61133d565b565b5f610b8561136d565b90508073ffffffffffffffffffffffffffffffffffffffff16610ba6610e4d565b73ffffffffffffffffffffffffffffffffffffffff1614610bfe57806040517f118cdaa7000000000000000000000000000000000000000000000000000000008152600401610bf591906116a5565b60405180910390fd5b610c078161133d565b50565b60038181548110610c19575f80fd5b905f5260205f2090600402015f91509050805f015490806001015490806002015490806003015f9054906101000a900460ff16905084565b5f5f5f9054906101000a900473ffffffffffffffffffffffffffffffffffffffff16905090565b60075481565b6276a70081565b6a084595161401484a00000081565b610c9c610f86565b60065f9054906101000a900460ff1615610ceb576040517f08c379a0000000000000000000000000000000000000000000000000000000008152600401610ce290611cbb565b60405180910390fd5b600160065f6101000a81548160ff0219169083151502179055505f7f000000000000000000000000000000000000000000000000000000000000000073ffffffffffffffffffffffffffffffffffffffff166370a08231306040518263ffffffff1660e01b8152600401610d5f91906116a5565b602060405180830381865afa158015610d7a573d5f5f3e3d5ffd5b505050506040513d601f19601f82011682018060405250810190610d9e9190611ced565b90505f811115610dfb57610dfa610db3610c51565b827f000000000000000000000000000000000000000000000000000000000000000073ffffffffffffffffffffffffffffffffffffffff166112be9092919063ffffffff16565b5b7fb4e6cb40663c1ac63bcd620dbe3d98c44526baa45e310f545f425ebaab36a29360075482604051610e2e929190611b7a565b60405180910390a150565b60055481565b69d3c21bcecceda100000081565b5f60015f9054906101000a900473ffffffffffffffffffffffffffffffffffffffff16905090565b60065f9054906101000a900460ff1681565b610e8f610f86565b8060015f6101000a81548173ffffffffffffffffffffffffffffffffffffffff021916908373ffffffffffffffffffffffffffffffffffffffff1602179055508073ffffffffffffffffffffffffffffffffffffffff16610eee610c51565b73ffffffffffffffffffffffffffffffffffffffff167f38d16b8cac22d99fc7c124b9cd0de2d3fa1faef420bfe791d8c362d765e2270060405160405180910390a350565b5f5f60055403610f45575f9050610f83565b6276a700600554610f569190611909565b4210610f64575f9050610f83565b426276a700600554610f769190611909565b610f809190611806565b90505b90565b610f8e61136d565b73ffffffffffffffffffffffffffffffffffffffff16610fac610c51565b73ffffffffffffffffffffffffffffffffffffffff161461100b57610fcf61136d565b6040517f118cdaa700000000000000000000000000000000000000000000000000000000815260040161100291906116a5565b60405180910390fd5b565b6002805403611051576040517f08c379a000000000000000000000000000000000000000000000000000000000815260040161104890611d62565b60405180910390fd5b60028081905550565b6110d6848573ffffffffffffffffffffffffffffffffffffffff166323b872dd86868660405160240161108f93929190611d80565b604051602081830303815290604052915060e01b6020820180517bffffffffffffffffffffffffffffffffffffffffffffffffffffffff8381831617835250505050611374565b50505050565b5f6003600454815481106110f3576110f26117ac565b5b905f5260205f2090600402016003015f6101000a81548160ff021916908315150217905550600160038054905061112a9190611806565b60045410156111c55760045f81548092919061114590611db5565b91905055506001600360045481548110611162576111616117ac565b5b905f5260205f2090600402016003015f6101000a81548160ff0219169083151502179055507fd87d457666088f7f0056032aa92e6fd462f4ec64661117a66049cd349a0cae146004546040516111b8919061167d565b60405180910390a16112b2565b600160065f6101000a81548160ff0219169083151502179055507fb4e6cb40663c1ac63bcd620dbe3d98c44526baa45e310f545f425ebaab36a2936007547f000000000000000000000000000000000000000000000000000000000000000073ffffffffffffffffffffffffffffffffffffffff166370a08231306040518263ffffffff1660e01b815260040161125c91906116a5565b602060405180830381865afa158015611277573d5f5f3e3d5ffd5b505050506040513d601f19601f8201168201806040525081019061129b9190611ced565b6040516112a9929190611b7a565b60405180910390a15b565b6001600281905550565b611338838473ffffffffffffffffffffffffffffffffffffffff1663a9059cbb85856040516024016112f1929190611dfc565b604051602081830303815290604052915060e01b6020820180517bffffffffffffffffffffffffffffffffffffffffffffffffffffffff8381831617835250505050611374565b505050565b60015f6101000a81549073ffffffffffffffffffffffffffffffffffffffff021916905561136a8161140f565b50565b5f33905090565b5f5f60205f8451602086015f885af180611393576040513d5f823e3d81fd5b3d92505f519150505f82146113ac5760018114156113c7565b5f8473ffffffffffffffffffffffffffffffffffffffff163b145b1561140957836040517f5274afe700000000000000000000000000000000000000000000000000000000815260040161140091906116a5565b60405180910390fd5b50505050565b5f5f5f9054906101000a900473ffffffffffffffffffffffffffffffffffffffff169050815f5f6101000a81548173ffffffffffffffffffffffffffffffffffffffff021916908373ffffffffffffffffffffffffffffffffffffffff1602179055508173ffffffffffffffffffffffffffffffffffffffff168173ffffffffffffffffffffffffffffffffffffffff167f8be0079c531659141344cd1fd0a4f28419497f9722a3daafe3b4186f6b6457e060405160405180910390a35050565b5f73ffffffffffffffffffffffffffffffffffffffff82169050919050565b5f819050919050565b5f61151261150d611508846114d0565b6114ef565b6114d0565b9050919050565b5f611523826114f8565b9050919050565b5f61153482611519565b9050919050565b6115448161152a565b82525050565b5f60208201905061155d5f83018461153b565b92915050565b5f819050919050565b61157581611563565b82525050565b5f60808201905061158e5f83018761156c565b61159b602083018661156c565b6115a8604083018561156c565b6115b5606083018461156c565b95945050505050565b5f5ffd5b6115cb81611563565b81146115d5575f5ffd5b50565b5f813590506115e6816115c2565b92915050565b5f60208284031215611601576116006115be565b5b5f61160e848285016115d8565b91505092915050565b5f611621826114d0565b9050919050565b61163181611617565b811461163b575f5ffd5b50565b5f8135905061164c81611628565b92915050565b5f60208284031215611667576116666115be565b5b5f6116748482850161163e565b91505092915050565b5f6020820190506116905f83018461156c565b92915050565b61169f81611617565b82525050565b5f6020820190506116b85f830184611696565b92915050565b5f8115159050919050565b6116d2816116be565b82525050565b5f6080820190506116eb5f83018761156c565b6116f8602083018661156c565b611705604083018561156c565b61171260608301846116c9565b95945050505050565b5f60208201905061172e5f8301846116c9565b92915050565b5f82825260208201905092915050565b7f50726573616c652073756461682064696d756c616900000000000000000000005f82015250565b5f611778601583611734565b915061178382611744565b602082019050919050565b5f6020820190508181035f8301526117a58161176c565b9050919050565b7f4e487b71000000000000000000000000000000000000000000000000000000005f52603260045260245ffd5b7f4e487b71000000000000000000000000000000000000000000000000000000005f52601160045260245ffd5b5f61181082611563565b915061181b83611563565b9250828203905081811115611833576118326117d9565b5b92915050565b7f50726573616c6520737564616820626572616b686972000000000000000000005f82015250565b5f61186d601683611734565b915061187882611839565b602082019050919050565b5f6020820190508181035f83015261189a81611861565b9050919050565b7f50726573616c652062656c756d2064696d756c616900000000000000000000005f82015250565b5f6118d5601583611734565b91506118e0826118a1565b602082019050919050565b5f6020820190508181035f830152611902816118c9565b9050919050565b5f61191382611563565b915061191e83611563565b9250828201905080821115611936576119356117d9565b5b92915050565b7f4a756d6c616820746964616b2076616c696400000000000000000000000000005f82015250565b5f611970601283611734565b915061197b8261193c565b602082019050919050565b5f6020820190508181035f83015261199d81611964565b9050919050565b7f4d656c65626968692062617461732070656d62656c69616e00000000000000005f82015250565b5f6119d8601883611734565b91506119e3826119a4565b602082019050919050565b5f6020820190508181035f830152611a05816119cc565b9050919050565b7f537461676520746964616b20616b7469660000000000000000000000000000005f82015250565b5f611a40601183611734565b9150611a4b82611a0c565b602082019050919050565b5f6020820190508181035f830152611a6d81611a34565b9050919050565b7f4d656c6562696869206b756f74612073746167650000000000000000000000005f82015250565b5f611aa8601483611734565b9150611ab382611a74565b602082019050919050565b5f6020820190508181035f830152611ad581611a9c565b9050919050565b5f611ae682611563565b9150611af183611563565b9250828202611aff81611563565b91508282048414831517611b1657611b156117d9565b5b5092915050565b7f4e487b71000000000000000000000000000000000000000000000000000000005f52601260045260245ffd5b5f611b5482611563565b9150611b5f83611563565b925082611b6f57611b6e611b1d565b5b828204905092915050565b5f604082019050611b8d5f83018561156c565b611b9a602083018461156c565b9392505050565b7f42656c756d206269736120636c61696d000000000000000000000000000000005f82015250565b5f611bd5601083611734565b9150611be082611ba1565b602082019050919050565b5f6020820190508181035f830152611c0281611bc9565b9050919050565b7f546964616b2061646120746f6b656e20756e74756b2064692d636c61696d00005f82015250565b5f611c3d601e83611734565b9150611c4882611c09565b602082019050919050565b5f6020820190508181035f830152611c6a81611c31565b9050919050565b7f50726573616c65207375646168206469616b68697269000000000000000000005f82015250565b5f611ca5601683611734565b9150611cb082611c71565b602082019050919050565b5f6020820190508181035f830152611cd281611c99565b9050919050565b5f81519050611ce7816115c2565b92915050565b5f60208284031215611d0257611d016115be565b5b5f611d0f84828501611cd9565b91505092915050565b7f5265656e7472616e637947756172643a207265656e7472616e742063616c6c005f82015250565b5f611d4c601f83611734565b9150611d5782611d18565b602082019050919050565b5f6020820190508181035f830152611d7981611d40565b9050919050565b5f606082019050611d935f830186611696565b611da06020830185611696565b611dad604083018461156c565b949350505050565b5f611dbf82611563565b91507fffffffffffffffffffffffffffffffffffffffffffffffffffffffffffffffff8203611df157611df06117d9565b5b600182019050919050565b5f604082019050611e0f5f830185611696565b611e1c602083018461156c565b939250505056fea2646970667358221220ff3682e92aa8f6b68cfe030c02075f6ea084e70520ff968910dedf7f8b4422e664736f6c634300081e0033",
					"opcodes": "PUSH1 0xE0 PUSH1 0x40 MSTORE CALLVALUE DUP1 ISZERO PUSH2 0xF JUMPI PUSH0 PUSH0 REVERT JUMPDEST POP PUSH1 0x40 MLOAD PUSH2 0x2514 CODESIZE SUB DUP1 PUSH2 0x2514 DUP4 CODECOPY DUP2 DUP2 ADD PUSH1 0x40 MSTORE DUP2 ADD SWAP1 PUSH2 0x31 SWAP2 SWAP1 PUSH2 0x563 JUMP JUMPDEST DUP1 PUSH0 PUSH20 0xFFFFFFFFFFFFFFFFFFFFFFFFFFFFFFFFFFFFFFFF AND DUP2 PUSH20 0xFFFFFFFFFFFFFFFFFFFFFFFFFFFFFFFFFFFFFFFF AND SUB PUSH2 0xA2 JUMPI PUSH0 PUSH1 0x40 MLOAD PUSH32 0x1E4FBDF700000000000000000000000000000000000000000000000000000000 DUP2 MSTORE PUSH1 0x4 ADD PUSH2 0x99 SWAP2 SWAP1 PUSH2 0x5D6 JUMP JUMPDEST PUSH1 0x40 MLOAD DUP1 SWAP2 SUB SWAP1 REVERT JUMPDEST PUSH2 0xB1 DUP2 PUSH2 0x40E PUSH1 0x20 SHL PUSH1 0x20 SHR JUMP JUMPDEST POP PUSH1 0x1 PUSH1 0x2 DUP2 SWAP1 SSTORE POP PUSH0 PUSH20 0xFFFFFFFFFFFFFFFFFFFFFFFFFFFFFFFFFFFFFFFF AND DUP5 PUSH20 0xFFFFFFFFFFFFFFFFFFFFFFFFFFFFFFFFFFFFFFFF AND EQ ISZERO DUP1 ISZERO PUSH2 0x122 JUMPI POP PUSH0 PUSH20 0xFFFFFFFFFFFFFFFFFFFFFFFFFFFFFFFFFFFFFFFF AND DUP4 PUSH20 0xFFFFFFFFFFFFFFFFFFFFFFFFFFFFFFFFFFFFFFFF AND EQ ISZERO JUMPDEST DUP1 ISZERO PUSH2 0x15A JUMPI POP PUSH0 PUSH20 0xFFFFFFFFFFFFFFFFFFFFFFFFFFFFFFFFFFFFFFFF AND DUP3 PUSH20 0xFFFFFFFFFFFFFFFFFFFFFFFFFFFFFFFFFFFFFFFF AND EQ ISZERO JUMPDEST PUSH2 0x199 JUMPI PUSH1 0x40 MLOAD PUSH32 0x8C379A000000000000000000000000000000000000000000000000000000000 DUP2 MSTORE PUSH1 0x4 ADD PUSH2 0x190 SWAP1 PUSH2 0x649 JUMP JUMPDEST PUSH1 0x40 MLOAD DUP1 SWAP2 SUB SWAP1 REVERT JUMPDEST DUP4 PUSH20 0xFFFFFFFFFFFFFFFFFFFFFFFFFFFFFFFFFFFFFFFF AND PUSH1 0x80 DUP2 PUSH20 0xFFFFFFFFFFFFFFFFFFFFFFFFFFFFFFFFFFFFFFFF AND DUP2 MSTORE POP POP DUP3 PUSH20 0xFFFFFFFFFFFFFFFFFFFFFFFFFFFFFFFFFFFFFFFF AND PUSH1 0xA0 DUP2 PUSH20 0xFFFFFFFFFFFFFFFFFFFFFFFFFFFFFFFFFFFFFFFF AND DUP2 MSTORE POP POP DUP2 PUSH20 0xFFFFFFFFFFFFFFFFFFFFFFFFFFFFFFFFFFFFFFFF AND PUSH1 0xC0 DUP2 PUSH20 0xFFFFFFFFFFFFFFFFFFFFFFFFFFFFFFFFFFFFFFFF AND DUP2 MSTORE POP POP PUSH1 0x3 PUSH1 0x40 MLOAD DUP1 PUSH1 0x80 ADD PUSH1 0x40 MSTORE DUP1 PUSH11 0x34F086F3B33B684000000 DUP2 MSTORE PUSH1 0x20 ADD PUSH0 DUP2 MSTORE PUSH1 0x20 ADD PUSH7 0xB1A2BC2EC50000 DUP2 MSTORE PUSH1 0x20 ADD PUSH0 ISZERO ISZERO DUP2 MSTORE POP SWAP1 DUP1 PUSH1 0x1 DUP2 SLOAD ADD DUP1 DUP3 SSTORE DUP1 SWAP2 POP POP PUSH1 0x1 SWAP1 SUB SWAP1 PUSH0 MSTORE PUSH1 0x20 PUSH0 KECCAK256 SWAP1 PUSH1 0x4 MUL ADD PUSH0 SWAP1 SWAP2 SWAP1 SWAP2 SWAP1 SWAP2 POP PUSH0 DUP3 ADD MLOAD DUP2 PUSH0 ADD SSTORE PUSH1 0x20 DUP3 ADD MLOAD DUP2 PUSH1 0x1 ADD SSTORE PUSH1 0x40 DUP3 ADD MLOAD DUP2 PUSH1 0x2 ADD SSTORE PUSH1 0x60 DUP3 ADD MLOAD DUP2 PUSH1 0x3 ADD PUSH0 PUSH2 0x100 EXP DUP2 SLOAD DUP2 PUSH1 0xFF MUL NOT AND SWAP1 DUP4 ISZERO ISZERO MUL OR SWAP1 SSTORE POP POP POP PUSH1 0x3 PUSH1 0x40 MLOAD DUP1 PUSH1 0x80 ADD PUSH1 0x40 MSTORE DUP1 PUSH11 0x27B46536C66C8E3000000 DUP2 MSTORE PUSH1 0x20 ADD PUSH0 DUP2 MSTORE PUSH1 0x20 ADD PUSH8 0x10A741A46278000 DUP2 MSTORE PUSH1 0x20 ADD PUSH0 ISZERO ISZERO DUP2 MSTORE POP SWAP1 DUP1 PUSH1 0x1 DUP2 SLOAD ADD DUP1 DUP3 SSTORE DUP1 SWAP2 POP POP PUSH1 0x1 SWAP1 SUB SWAP1 PUSH0 MSTORE PUSH1 0x20 PUSH0 KECCAK256 SWAP1 PUSH1 0x4 MUL ADD PUSH0 SWAP1 SWAP2 SWAP1 SWAP2 SWAP1 SWAP2 POP PUSH0 DUP3 ADD MLOAD DUP2 PUSH0 ADD SSTORE PUSH1 0x20 DUP3 ADD MLOAD DUP2 PUSH1 0x1 ADD SSTORE PUSH1 0x40 DUP3 ADD MLOAD DUP2 PUSH1 0x2 ADD SSTORE PUSH1 0x60 DUP3 ADD MLOAD DUP2 PUSH1 0x3 ADD PUSH0 PUSH2 0x100 EXP DUP2 SLOAD DUP2 PUSH1 0xFF MUL NOT AND SWAP1 DUP4 ISZERO ISZERO MUL OR SWAP1 SSTORE POP POP POP PUSH1 0x3 PUSH1 0x40 MLOAD DUP1 PUSH1 0x80 ADD PUSH1 0x40 MSTORE DUP1 PUSH11 0x27B46536C66C8E3000000 DUP2 MSTORE PUSH1 0x20 ADD PUSH0 DUP2 MSTORE PUSH1 0x20 ADD PUSH8 0x16345785D8A0000 DUP2 MSTORE PUSH1 0x20 ADD PUSH0 ISZERO ISZERO DUP2 MSTORE POP SWAP1 DUP1 PUSH1 0x1 DUP2 SLOAD ADD DUP1 DUP3 SSTORE DUP1 SWAP2 POP POP PUSH1 0x1 SWAP1 SUB SWAP1 PUSH0 MSTORE PUSH1 0x20 PUSH0 KECCAK256 SWAP1 PUSH1 0x4 MUL ADD PUSH0 SWAP1 SWAP2 SWAP1 SWAP2 SWAP1 SWAP2 POP PUSH0 DUP3 ADD MLOAD DUP2 PUSH0 ADD SSTORE PUSH1 0x20 DUP3 ADD MLOAD DUP2 PUSH1 0x1 ADD SSTORE PUSH1 0x40 DUP3 ADD MLOAD DUP2 PUSH1 0x2 ADD SSTORE PUSH1 0x60 DUP3 ADD MLOAD DUP2 PUSH1 0x3 ADD PUSH0 PUSH2 0x100 EXP DUP2 SLOAD DUP2 PUSH1 0xFF MUL NOT AND SWAP1 DUP4 ISZERO ISZERO MUL OR SWAP1 SSTORE POP POP POP POP POP POP POP PUSH2 0x667 JUMP JUMPDEST PUSH1 0x1 PUSH0 PUSH2 0x100 EXP DUP2 SLOAD SWAP1 PUSH20 0xFFFFFFFFFFFFFFFFFFFFFFFFFFFFFFFFFFFFFFFF MUL NOT AND SWAP1 SSTORE PUSH2 0x441 DUP2 PUSH2 0x444 PUSH1 0x20 SHL PUSH1 0x20 SHR JUMP JUMPDEST POP JUMP JUMPDEST PUSH0 PUSH0 PUSH0 SWAP1 SLOAD SWAP1 PUSH2 0x100 EXP SWAP1 DIV PUSH20 0xFFFFFFFFFFFFFFFFFFFFFFFFFFFFFFFFFFFFFFFF AND SWAP1 POP DUP2 PUSH0 PUSH0 PUSH2 0x100 EXP DUP2 SLOAD DUP2 PUSH20 0xFFFFFFFFFFFFFFFFFFFFFFFFFFFFFFFFFFFFFFFF MUL NOT AND SWAP1 DUP4 PUSH20 0xFFFFFFFFFFFFFFFFFFFFFFFFFFFFFFFFFFFFFFFF AND MUL OR SWAP1 SSTORE POP DUP2 PUSH20 0xFFFFFFFFFFFFFFFFFFFFFFFFFFFFFFFFFFFFFFFF AND DUP2 PUSH20 0xFFFFFFFFFFFFFFFFFFFFFFFFFFFFFFFFFFFFFFFF AND PUSH32 0x8BE0079C531659141344CD1FD0A4F28419497F9722A3DAAFE3B4186F6B6457E0 PUSH1 0x40 MLOAD PUSH1 0x40 MLOAD DUP1 SWAP2 SUB SWAP1 LOG3 POP POP JUMP JUMPDEST PUSH0 PUSH0 REVERT JUMPDEST PUSH0 PUSH20 0xFFFFFFFFFFFFFFFFFFFFFFFFFFFFFFFFFFFFFFFF DUP3 AND SWAP1 POP SWAP2 SWAP1 POP JUMP JUMPDEST PUSH0 PUSH2 0x532 DUP3 PUSH2 0x509 JUMP JUMPDEST SWAP1 POP SWAP2 SWAP1 POP JUMP JUMPDEST PUSH2 0x542 DUP2 PUSH2 0x528 JUMP JUMPDEST DUP2 EQ PUSH2 0x54C JUMPI PUSH0 PUSH0 REVERT JUMPDEST POP JUMP JUMPDEST PUSH0 DUP2 MLOAD SWAP1 POP PUSH2 0x55D DUP2 PUSH2 0x539 JUMP JUMPDEST SWAP3 SWAP2 POP POP JUMP JUMPDEST PUSH0 PUSH0 PUSH0 PUSH0 PUSH1 0x80 DUP6 DUP8 SUB SLT ISZERO PUSH2 0x57B JUMPI PUSH2 0x57A PUSH2 0x505 JUMP JUMPDEST JUMPDEST PUSH0 PUSH2 0x588 DUP8 DUP3 DUP9 ADD PUSH2 0x54F JUMP JUMPDEST SWAP5 POP POP PUSH1 0x20 PUSH2 0x599 DUP8 DUP3 DUP9 ADD PUSH2 0x54F JUMP JUMPDEST SWAP4 POP POP PUSH1 0x40 PUSH2 0x5AA DUP8 DUP3 DUP9 ADD PUSH2 0x54F JUMP JUMPDEST SWAP3 POP POP PUSH1 0x60 PUSH2 0x5BB DUP8 DUP3 DUP9 ADD PUSH2 0x54F JUMP JUMPDEST SWAP2 POP POP SWAP3 SWAP6 SWAP2 SWAP5 POP SWAP3 POP JUMP JUMPDEST PUSH2 0x5D0 DUP2 PUSH2 0x528 JUMP JUMPDEST DUP3 MSTORE POP POP JUMP JUMPDEST PUSH0 PUSH1 0x20 DUP3 ADD SWAP1 POP PUSH2 0x5E9 PUSH0 DUP4 ADD DUP5 PUSH2 0x5C7 JUMP JUMPDEST SWAP3 SWAP2 POP POP JUMP JUMPDEST PUSH0 DUP3 DUP3 MSTORE PUSH1 0x20 DUP3 ADD SWAP1 POP SWAP3 SWAP2 POP POP JUMP JUMPDEST PUSH32 0x416C616D617420746964616B2076616C69640000000000000000000000000000 PUSH0 DUP3 ADD MSTORE POP JUMP JUMPDEST PUSH0 PUSH2 0x633 PUSH1 0x12 DUP4 PUSH2 0x5EF JUMP JUMPDEST SWAP2 POP PUSH2 0x63E DUP3 PUSH2 0x5FF JUMP JUMPDEST PUSH1 0x20 DUP3 ADD SWAP1 POP SWAP2 SWAP1 POP JUMP JUMPDEST PUSH0 PUSH1 0x20 DUP3 ADD SWAP1 POP DUP2 DUP2 SUB PUSH0 DUP4 ADD MSTORE PUSH2 0x660 DUP2 PUSH2 0x627 JUMP JUMPDEST SWAP1 POP SWAP2 SWAP1 POP JUMP JUMPDEST PUSH1 0x80 MLOAD PUSH1 0xA0 MLOAD PUSH1 0xC0 MLOAD PUSH2 0x1E59 PUSH2 0x6BB PUSH0 CODECOPY PUSH0 DUP2 DUP2 PUSH2 0x7F1 ADD MSTORE PUSH2 0xB47 ADD MSTORE PUSH0 DUP2 DUP2 PUSH2 0x455 ADD MSTORE DUP2 DUP2 PUSH2 0xAA2 ADD MSTORE DUP2 DUP2 PUSH2 0xD08 ADD MSTORE DUP2 DUP2 PUSH2 0xDB6 ADD MSTORE PUSH2 0x1205 ADD MSTORE PUSH0 DUP2 DUP2 PUSH2 0x513 ADD MSTORE PUSH2 0x813 ADD MSTORE PUSH2 0x1E59 PUSH0 RETURN INVALID PUSH1 0x80 PUSH1 0x40 MSTORE CALLVALUE DUP1 ISZERO PUSH2 0xF JUMPI PUSH0 PUSH0 REVERT JUMPDEST POP PUSH1 0x4 CALLDATASIZE LT PUSH2 0x14B JUMPI PUSH0 CALLDATALOAD PUSH1 0xE0 SHR DUP1 PUSH4 0x845DDCB2 GT PUSH2 0xC1 JUMPI DUP1 PUSH4 0xA82524B2 GT PUSH2 0x7A JUMPI DUP1 PUSH4 0xA82524B2 EQ PUSH2 0x311 JUMPI DUP1 PUSH4 0xDB81B278 EQ PUSH2 0x32F JUMPI DUP1 PUSH4 0xE30C3978 EQ PUSH2 0x34D JUMPI DUP1 PUSH4 0xE580B2B0 EQ PUSH2 0x36B JUMPI DUP1 PUSH4 0xF2FDE38B EQ PUSH2 0x389 JUMPI DUP1 PUSH4 0xF349B76C EQ PUSH2 0x3A5 JUMPI PUSH2 0x14B JUMP JUMPDEST DUP1 PUSH4 0x845DDCB2 EQ PUSH2 0x25C JUMPI DUP1 PUSH4 0x8DA5CB5B EQ PUSH2 0x28F JUMPI DUP1 PUSH4 0x9106D7BA EQ PUSH2 0x2AD JUMPI DUP1 PUSH4 0x945E4013 EQ PUSH2 0x2CB JUMPI DUP1 PUSH4 0x96713ABF EQ PUSH2 0x2E9 JUMPI DUP1 PUSH4 0xA43BE57B EQ PUSH2 0x307 JUMPI PUSH2 0x14B JUMP JUMPDEST DUP1 PUSH4 0x39F65C09 GT PUSH2 0x113 JUMPI DUP1 PUSH4 0x39F65C09 EQ PUSH2 0x1D2 JUMPI DUP1 PUSH4 0x48C54B9D EQ PUSH2 0x202 JUMPI DUP1 PUSH4 0x5BF5D54C EQ PUSH2 0x20C JUMPI DUP1 PUSH4 0x61D027B3 EQ PUSH2 0x22A JUMPI DUP1 PUSH4 0x715018A6 EQ PUSH2 0x248 JUMPI DUP1 PUSH4 0x79BA5097 EQ PUSH2 0x252 JUMPI PUSH2 0x14B JUMP JUMPDEST DUP1 PUSH4 0x4C98B2B EQ PUSH2 0x14F JUMPI DUP1 PUSH4 0x1F9C729D EQ PUSH2 0x159 JUMPI DUP1 PUSH4 0x26D07099 EQ PUSH2 0x177 JUMPI DUP1 PUSH4 0x2F48AB7D EQ PUSH2 0x198 JUMPI DUP1 PUSH4 0x3610724E EQ PUSH2 0x1B6 JUMPI JUMPDEST PUSH0 PUSH0 REVERT JUMPDEST PUSH2 0x157 PUSH2 0x3C3 JUMP JUMPDEST STOP JUMPDEST PUSH2 0x161 PUSH2 0x453 JUMP JUMPDEST PUSH1 0x40 MLOAD PUSH2 0x16E SWAP2 SWAP1 PUSH2 0x154A JUMP JUMPDEST PUSH1 0x40 MLOAD DUP1 SWAP2 SUB SWAP1 RETURN JUMPDEST PUSH2 0x17F PUSH2 0x477 JUMP JUMPDEST PUSH1 0x40 MLOAD PUSH2 0x18F SWAP5 SWAP4 SWAP3 SWAP2 SWAP1 PUSH2 0x157B JUMP JUMPDEST PUSH1 0x40 MLOAD DUP1 SWAP2 SUB SWAP1 RETURN JUMPDEST PUSH2 0x1A0 PUSH2 0x511 JUMP JUMPDEST PUSH1 0x40 MLOAD PUSH2 0x1AD SWAP2 SWAP1 PUSH2 0x154A JUMP JUMPDEST PUSH1 0x40 MLOAD DUP1 SWAP2 SUB SWAP1 RETURN JUMPDEST PUSH2 0x1D0 PUSH1 0x4 DUP1 CALLDATASIZE SUB DUP2 ADD SWAP1 PUSH2 0x1CB SWAP2 SWAP1 PUSH2 0x15EC JUMP JUMPDEST PUSH2 0x535 JUMP JUMPDEST STOP JUMPDEST PUSH2 0x1EC PUSH1 0x4 DUP1 CALLDATASIZE SUB DUP2 ADD SWAP1 PUSH2 0x1E7 SWAP2 SWAP1 PUSH2 0x1652 JUMP JUMPDEST PUSH2 0x951 JUMP JUMPDEST PUSH1 0x40 MLOAD PUSH2 0x1F9 SWAP2 SWAP1 PUSH2 0x167D JUMP JUMPDEST PUSH1 0x40 MLOAD DUP1 SWAP2 SUB SWAP1 RETURN JUMPDEST PUSH2 0x20A PUSH2 0x966 JUMP JUMPDEST STOP JUMPDEST PUSH2 0x214 PUSH2 0xB3F JUMP JUMPDEST PUSH1 0x40 MLOAD PUSH2 0x221 SWAP2 SWAP1 PUSH2 0x167D JUMP JUMPDEST PUSH1 0x40 MLOAD DUP1 SWAP2 SUB SWAP1 RETURN JUMPDEST PUSH2 0x232 PUSH2 0xB45 JUMP JUMPDEST PUSH1 0x40 MLOAD PUSH2 0x23F SWAP2 SWAP1 PUSH2 0x16A5 JUMP JUMPDEST PUSH1 0x40 MLOAD DUP1 SWAP2 SUB SWAP1 RETURN JUMPDEST PUSH2 0x250 PUSH2 0xB69 JUMP JUMPDEST STOP JUMPDEST PUSH2 0x25A PUSH2 0xB7C JUMP JUMPDEST STOP JUMPDEST PUSH2 0x276 PUSH1 0x4 DUP1 CALLDATASIZE SUB DUP2 ADD SWAP1 PUSH2 0x271 SWAP2 SWAP1 PUSH2 0x15EC JUMP JUMPDEST PUSH2 0xC0A JUMP JUMPDEST PUSH1 0x40 MLOAD PUSH2 0x286 SWAP5 SWAP4 SWAP3 SWAP2 SWAP1 PUSH2 0x16D8 JUMP JUMPDEST PUSH1 0x40 MLOAD DUP1 SWAP2 SUB SWAP1 RETURN JUMPDEST PUSH2 0x297 PUSH2 0xC51 JUMP JUMPDEST PUSH1 0x40 MLOAD PUSH2 0x2A4 SWAP2 SWAP1 PUSH2 0x16A5 JUMP JUMPDEST PUSH1 0x40 MLOAD DUP1 SWAP2 SUB SWAP1 RETURN JUMPDEST PUSH2 0x2B5 PUSH2 0xC78 JUMP JUMPDEST PUSH1 0x40 MLOAD PUSH2 0x2C2 SWAP2 SWAP1 PUSH2 0x167D JUMP JUMPDEST PUSH1 0x40 MLOAD DUP1 SWAP2 SUB SWAP1 RETURN JUMPDEST PUSH2 0x2D3 PUSH2 0xC7E JUMP JUMPDEST PUSH1 0x40 MLOAD PUSH2 0x2E0 SWAP2 SWAP1 PUSH2 0x167D JUMP JUMPDEST PUSH1 0x40 MLOAD DUP1 SWAP2 SUB SWAP1 RETURN JUMPDEST PUSH2 0x2F1 PUSH2 0xC85 JUMP JUMPDEST PUSH1 0x40 MLOAD PUSH2 0x2FE SWAP2 SWAP1 PUSH2 0x167D JUMP JUMPDEST PUSH1 0x40 MLOAD DUP1 SWAP2 SUB SWAP1 RETURN JUMPDEST PUSH2 0x30F PUSH2 0xC94 JUMP JUMPDEST STOP JUMPDEST PUSH2 0x319 PUSH2 0xE39 JUMP JUMPDEST PUSH1 0x40 MLOAD PUSH2 0x326 SWAP2 SWAP1 PUSH2 0x167D JUMP JUMPDEST PUSH1 0x40 MLOAD DUP1 SWAP2 SUB SWAP1 RETURN JUMPDEST PUSH2 0x337 PUSH2 0xE3F JUMP JUMPDEST PUSH1 0x40 MLOAD PUSH2 0x344 SWAP2 SWAP1 PUSH2 0x167D JUMP JUMPDEST PUSH1 0x40 MLOAD DUP1 SWAP2 SUB SWAP1 RETURN JUMPDEST PUSH2 0x355 PUSH2 0xE4D JUMP JUMPDEST PUSH1 0x40 MLOAD PUSH2 0x362 SWAP2 SWAP1 PUSH2 0x16A5 JUMP JUMPDEST PUSH1 0x40 MLOAD DUP1 SWAP2 SUB SWAP1 RETURN JUMPDEST PUSH2 0x373 PUSH2 0xE75 JUMP JUMPDEST PUSH1 0x40 MLOAD PUSH2 0x380 SWAP2 SWAP1 PUSH2 0x171B JUMP JUMPDEST PUSH1 0x40 MLOAD DUP1 SWAP2 SUB SWAP1 RETURN JUMPDEST PUSH2 0x3A3 PUSH1 0x4 DUP1 CALLDATASIZE SUB DUP2 ADD SWAP1 PUSH2 0x39E SWAP2 SWAP1 PUSH2 0x1652 JUMP JUMPDEST PUSH2 0xE87 JUMP JUMPDEST STOP JUMPDEST PUSH2 0x3AD PUSH2 0xF33 JUMP JUMPDEST PUSH1 0x40 MLOAD PUSH2 0x3BA SWAP2 SWAP1 PUSH2 0x167D JUMP JUMPDEST PUSH1 0x40 MLOAD DUP1 SWAP2 SUB SWAP1 RETURN JUMPDEST PUSH2 0x3CB PUSH2 0xF86 JUMP JUMPDEST PUSH0 PUSH1 0x5 SLOAD EQ PUSH2 0x40F JUMPI PUSH1 0x40 MLOAD PUSH32 0x8C379A000000000000000000000000000000000000000000000000000000000 DUP2 MSTORE PUSH1 0x4 ADD PUSH2 0x406 SWAP1 PUSH2 0x178E JUMP JUMPDEST PUSH1 0x40 MLOAD DUP1 SWAP2 SUB SWAP1 REVERT JUMPDEST TIMESTAMP PUSH1 0x5 DUP2 SWAP1 SSTORE POP PUSH1 0x1 PUSH1 0x3 PUSH0 DUP2 SLOAD DUP2 LT PUSH2 0x42C JUMPI PUSH2 0x42B PUSH2 0x17AC JUMP JUMPDEST JUMPDEST SWAP1 PUSH0 MSTORE PUSH1 0x20 PUSH0 KECCAK256 SWAP1 PUSH1 0x4 MUL ADD PUSH1 0x3 ADD PUSH0 PUSH2 0x100 EXP DUP2 SLOAD DUP2 PUSH1 0xFF MUL NOT AND SWAP1 DUP4 ISZERO ISZERO MUL OR SWAP1 SSTORE POP JUMP JUMPDEST PUSH32 0x0 DUP2 JUMP JUMPDEST PUSH0 PUSH0 PUSH0 PUSH0 PUSH0 PUSH1 0x3 PUSH1 0x4 SLOAD DUP2 SLOAD DUP2 LT PUSH2 0x492 JUMPI PUSH2 0x491 PUSH2 0x17AC JUMP JUMPDEST JUMPDEST SWAP1 PUSH0 MSTORE PUSH1 0x20 PUSH0 KECCAK256 SWAP1 PUSH1 0x4 MUL ADD PUSH1 0x40 MLOAD DUP1 PUSH1 0x80 ADD PUSH1 0x40 MSTORE SWAP1 DUP2 PUSH0 DUP3 ADD SLOAD DUP2 MSTORE PUSH1 0x20 ADD PUSH1 0x1 DUP3 ADD SLOAD DUP2 MSTORE PUSH1 0x20 ADD PUSH1 0x2 DUP3 ADD SLOAD DUP2 MSTORE PUSH1 0x20 ADD PUSH1 0x3 DUP3 ADD PUSH0 SWAP1 SLOAD SWAP1 PUSH2 0x100 EXP SWAP1 DIV PUSH1 0xFF AND ISZERO ISZERO ISZERO ISZERO DUP2 MSTORE POP POP SWAP1 POP PUSH1 0x4 SLOAD DUP2 PUSH1 0x40 ADD MLOAD DUP3 PUSH1 0x20 ADD MLOAD DUP4 PUSH0 ADD MLOAD PUSH2 0x4FD SWAP2 SWAP1 PUSH2 0x1806 JUMP JUMPDEST DUP4 PUSH1 0x20 ADD MLOAD SWAP5 POP SWAP5 POP SWAP5 POP SWAP5 POP POP SWAP1 SWAP2 SWAP3 SWAP4 JUMP JUMPDEST PUSH32 0x0 DUP2 JUMP JUMPDEST PUSH2 0x53D PUSH2 0x100D JUMP JUMPDEST PUSH1 0x6 PUSH0 SWAP1 SLOAD SWAP1 PUSH2 0x100 EXP SWAP1 DIV PUSH1 0xFF AND ISZERO PUSH2 0x58C JUMPI PUSH1 0x40 MLOAD PUSH32 0x8C379A000000000000000000000000000000000000000000000000000000000 DUP2 MSTORE PUSH1 0x4 ADD PUSH2 0x583 SWAP1 PUSH2 0x1883 JUMP JUMPDEST PUSH1 0x40 MLOAD DUP1 SWAP2 SUB SWAP1 REVERT JUMPDEST PUSH1 0x5 SLOAD TIMESTAMP LT ISZERO PUSH2 0x5D1 JUMPI PUSH1 0x40 MLOAD PUSH32 0x8C379A000000000000000000000000000000000000000000000000000000000 DUP2 MSTORE PUSH1 0x4 ADD PUSH2 0x5C8 SWAP1 PUSH2 0x18EB JUMP JUMPDEST PUSH1 0x40 MLOAD DUP1 SWAP2 SUB SWAP1 REVERT JUMPDEST PUSH3 0x76A700 PUSH1 0x5 SLOAD PUSH2 0x5E2 SWAP2 SWAP1 PUSH2 0x1909 JUMP JUMPDEST TIMESTAMP GT ISZERO PUSH2 0x624 JUMPI PUSH1 0x40 MLOAD PUSH32 0x8C379A000000000000000000000000000000000000000000000000000000000 DUP2 MSTORE PUSH1 0x4 ADD PUSH2 0x61B SWAP1 PUSH2 0x1883 JUMP JUMPDEST PUSH1 0x40 MLOAD DUP1 SWAP2 SUB SWAP1 REVERT JUMPDEST PUSH0 DUP2 GT PUSH2 0x666 JUMPI PUSH1 0x40 MLOAD PUSH32 0x8C379A000000000000000000000000000000000000000000000000000000000 DUP2 MSTORE PUSH1 0x4 ADD PUSH2 0x65D SWAP1 PUSH2 0x1986 JUMP JUMPDEST PUSH1 0x40 MLOAD DUP1 SWAP2 SUB SWAP1 REVERT JUMPDEST PUSH10 0xD3C21BCECCEDA1000000 DUP2 PUSH1 0x8 PUSH0 CALLER PUSH20 0xFFFFFFFFFFFFFFFFFFFFFFFFFFFFFFFFFFFFFFFF AND PUSH20 0xFFFFFFFFFFFFFFFFFFFFFFFFFFFFFFFFFFFFFFFF AND DUP2 MSTORE PUSH1 0x20 ADD SWAP1 DUP2 MSTORE PUSH1 0x20 ADD PUSH0 KECCAK256 SLOAD PUSH2 0x6BA SWAP2 SWAP1 PUSH2 0x1909 JUMP JUMPDEST GT ISZERO PUSH2 0x6FB JUMPI PUSH1 0x40 MLOAD PUSH32 0x8C379A000000000000000000000000000000000000000000000000000000000 DUP2 MSTORE PUSH1 0x4 ADD PUSH2 0x6F2 SWAP1 PUSH2 0x19EE JUMP JUMPDEST PUSH1 0x40 MLOAD DUP1 SWAP2 SUB SWAP1 REVERT JUMPDEST PUSH0 PUSH1 0x3 PUSH1 0x4 SLOAD DUP2 SLOAD DUP2 LT PUSH2 0x712 JUMPI PUSH2 0x711 PUSH2 0x17AC JUMP JUMPDEST JUMPDEST SWAP1 PUSH0 MSTORE PUSH1 0x20 PUSH0 KECCAK256 SWAP1 PUSH1 0x4 MUL ADD SWAP1 POP DUP1 PUSH1 0x3 ADD PUSH0 SWAP1 SLOAD SWAP1 PUSH2 0x100 EXP SWAP1 DIV PUSH1 0xFF AND PUSH2 0x770 JUMPI PUSH1 0x40 MLOAD PUSH32 0x8C379A000000000000000000000000000000000000000000000000000000000 DUP2 MSTORE PUSH1 0x4 ADD PUSH2 0x767 SWAP1 PUSH2 0x1A56 JUMP JUMPDEST PUSH1 0x40 MLOAD DUP1 SWAP2 SUB SWAP1 REVERT JUMPDEST DUP1 PUSH0 ADD SLOAD DUP3 DUP3 PUSH1 0x1 ADD SLOAD PUSH2 0x784 SWAP2 SWAP1 PUSH2 0x1909 JUMP JUMPDEST GT ISZERO PUSH2 0x7C5 JUMPI PUSH1 0x40 MLOAD PUSH32 0x8C379A000000000000000000000000000000000000000000000000000000000 DUP2 MSTORE PUSH1 0x4 ADD PUSH2 0x7BC SWAP1 PUSH2 0x1ABE JUMP JUMPDEST PUSH1 0x40 MLOAD DUP1 SWAP2 SUB SWAP1 REVERT JUMPDEST PUSH0 PUSH8 0xDE0B6B3A7640000 DUP3 PUSH1 0x2 ADD SLOAD DUP5 PUSH2 0x7DF SWAP2 SWAP1 PUSH2 0x1ADC JUMP JUMPDEST PUSH2 0x7E9 SWAP2 SWAP1 PUSH2 0x1B4A JUMP JUMPDEST SWAP1 POP PUSH2 0x858 CALLER PUSH32 0x0 DUP4 PUSH32 0x0 PUSH20 0xFFFFFFFFFFFFFFFFFFFFFFFFFFFFFFFFFFFFFFFF AND PUSH2 0x105A SWAP1 SWAP4 SWAP3 SWAP2 SWAP1 PUSH4 0xFFFFFFFF AND JUMP JUMPDEST DUP3 DUP3 PUSH1 0x1 ADD PUSH0 DUP3 DUP3 SLOAD PUSH2 0x86B SWAP2 SWAP1 PUSH2 0x1909 JUMP JUMPDEST SWAP3 POP POP DUP2 SWAP1 SSTORE POP DUP3 PUSH1 0x7 PUSH0 DUP3 DUP3 SLOAD PUSH2 0x883 SWAP2 SWAP1 PUSH2 0x1909 JUMP JUMPDEST SWAP3 POP POP DUP2 SWAP1 SSTORE POP DUP3 PUSH1 0x8 PUSH0 CALLER PUSH20 0xFFFFFFFFFFFFFFFFFFFFFFFFFFFFFFFFFFFFFFFF AND PUSH20 0xFFFFFFFFFFFFFFFFFFFFFFFFFFFFFFFFFFFFFFFF AND DUP2 MSTORE PUSH1 0x20 ADD SWAP1 DUP2 MSTORE PUSH1 0x20 ADD PUSH0 KECCAK256 PUSH0 DUP3 DUP3 SLOAD PUSH2 0x8D6 SWAP2 SWAP1 PUSH2 0x1909 JUMP JUMPDEST SWAP3 POP POP DUP2 SWAP1 SSTORE POP DUP2 PUSH0 ADD SLOAD DUP3 PUSH1 0x1 ADD SLOAD LT PUSH2 0x8F4 JUMPI PUSH2 0x8F3 PUSH2 0x10DC JUMP JUMPDEST JUMPDEST CALLER PUSH20 0xFFFFFFFFFFFFFFFFFFFFFFFFFFFFFFFFFFFFFFFF AND PUSH32 0x8FAFEBCAF9D154343DAD25669BFA277F4FBACD7AC6B0C4FED522580E040A0F33 DUP5 DUP4 PUSH1 0x40 MLOAD PUSH2 0x93C SWAP3 SWAP2 SWAP1 PUSH2 0x1B7A JUMP JUMPDEST PUSH1 0x40 MLOAD DUP1 SWAP2 SUB SWAP1 LOG2 POP POP PUSH2 0x94E PUSH2 0x12B4 JUMP JUMPDEST POP JUMP JUMPDEST PUSH1 0x8 PUSH1 0x20 MSTORE DUP1 PUSH0 MSTORE PUSH1 0x40 PUSH0 KECCAK256 PUSH0 SWAP2 POP SWAP1 POP SLOAD DUP2 JUMP JUMPDEST PUSH2 0x96E PUSH2 0x100D JUMP JUMPDEST PUSH1 0x6 PUSH0 SWAP1 SLOAD SWAP1 PUSH2 0x100 EXP SWAP1 DIV PUSH1 0xFF AND DUP1 PUSH2 0x997 JUMPI POP PUSH3 0x76A700 PUSH1 0x5 SLOAD PUSH2 0x994 SWAP2 SWAP1 PUSH2 0x1909 JUMP JUMPDEST TIMESTAMP GT JUMPDEST PUSH2 0x9D6 JUMPI PUSH1 0x40 MLOAD PUSH32 0x8C379A000000000000000000000000000000000000000000000000000000000 DUP2 MSTORE PUSH1 0x4 ADD PUSH2 0x9CD SWAP1 PUSH2 0x1BEB JUMP JUMPDEST PUSH1 0x40 MLOAD DUP1 SWAP2 SUB SWAP1 REVERT JUMPDEST PUSH0 PUSH1 0x8 PUSH0 CALLER PUSH20 0xFFFFFFFFFFFFFFFFFFFFFFFFFFFFFFFFFFFFFFFF AND PUSH20 0xFFFFFFFFFFFFFFFFFFFFFFFFFFFFFFFFFFFFFFFF AND DUP2 MSTORE PUSH1 0x20 ADD SWAP1 DUP2 MSTORE PUSH1 0x20 ADD PUSH0 KECCAK256 SLOAD SWAP1 POP PUSH0 DUP2 GT PUSH2 0xA59 JUMPI PUSH1 0x40 MLOAD PUSH32 0x8C379A000000000000000000000000000000000000000000000000000000000 DUP2 MSTORE PUSH1 0x4 ADD PUSH2 0xA50 SWAP1 PUSH2 0x1C53 JUMP JUMPDEST PUSH1 0x40 MLOAD DUP1 SWAP2 SUB SWAP1 REVERT JUMPDEST PUSH0 PUSH1 0x8 PUSH0 CALLER PUSH20 0xFFFFFFFFFFFFFFFFFFFFFFFFFFFFFFFFFFFFFFFF AND PUSH20 0xFFFFFFFFFFFFFFFFFFFFFFFFFFFFFFFFFFFFFFFF AND DUP2 MSTORE PUSH1 0x20 ADD SWAP1 DUP2 MSTORE PUSH1 0x20 ADD PUSH0 KECCAK256 DUP2 SWAP1 SSTORE POP PUSH2 0xAE6 CALLER DUP3 PUSH32 0x0 PUSH20 0xFFFFFFFFFFFFFFFFFFFFFFFFFFFFFFFFFFFFFFFF AND PUSH2 0x12BE SWAP1 SWAP3 SWAP2 SWAP1 PUSH4 0xFFFFFFFF AND JUMP JUMPDEST CALLER PUSH20 0xFFFFFFFFFFFFFFFFFFFFFFFFFFFFFFFFFFFFFFFF AND PUSH32 0x896E034966EAAF1ADC54ACC0F257056FEBBD300C9E47182CF761982CF1F5E430 DUP3 PUSH1 0x40 MLOAD PUSH2 0xB2C SWAP2 SWAP1 PUSH2 0x167D JUMP JUMPDEST PUSH1 0x40 MLOAD DUP1 SWAP2 SUB SWAP1 LOG2 POP PUSH2 0xB3D PUSH2 0x12B4 JUMP JUMPDEST JUMP JUMPDEST PUSH1 0x4 SLOAD DUP2 JUMP JUMPDEST PUSH32 0x0 DUP2 JUMP JUMPDEST PUSH2 0xB71 PUSH2 0xF86 JUMP JUMPDEST PUSH2 0xB7A PUSH0 PUSH2 0x133D JUMP JUMPDEST JUMP JUMPDEST PUSH0 PUSH2 0xB85 PUSH2 0x136D JUMP JUMPDEST SWAP1 POP DUP1 PUSH20 0xFFFFFFFFFFFFFFFFFFFFFFFFFFFFFFFFFFFFFFFF AND PUSH2 0xBA6 PUSH2 0xE4D JUMP JUMPDEST PUSH20 0xFFFFFFFFFFFFFFFFFFFFFFFFFFFFFFFFFFFFFFFF AND EQ PUSH2 0xBFE JUMPI DUP1 PUSH1 0x40 MLOAD PUSH32 0x118CDAA700000000000000000000000000000000000000000000000000000000 DUP2 MSTORE PUSH1 0x4 ADD PUSH2 0xBF5 SWAP2 SWAP1 PUSH2 0x16A5 JUMP JUMPDEST PUSH1 0x40 MLOAD DUP1 SWAP2 SUB SWAP1 REVERT JUMPDEST PUSH2 0xC07 DUP2 PUSH2 0x133D JUMP JUMPDEST POP JUMP JUMPDEST PUSH1 0x3 DUP2 DUP2 SLOAD DUP2 LT PUSH2 0xC19 JUMPI PUSH0 DUP1 REVERT JUMPDEST SWAP1 PUSH0 MSTORE PUSH1 0x20 PUSH0 KECCAK256 SWAP1 PUSH1 0x4 MUL ADD PUSH0 SWAP2 POP SWAP1 POP DUP1 PUSH0 ADD SLOAD SWAP1 DUP1 PUSH1 0x1 ADD SLOAD SWAP1 DUP1 PUSH1 0x2 ADD SLOAD SWAP1 DUP1 PUSH1 0x3 ADD PUSH0 SWAP1 SLOAD SWAP1 PUSH2 0x100 EXP SWAP1 DIV PUSH1 0xFF AND SWAP1 POP DUP5 JUMP JUMPDEST PUSH0 PUSH0 PUSH0 SWAP1 SLOAD SWAP1 PUSH2 0x100 EXP SWAP1 DIV PUSH20 0xFFFFFFFFFFFFFFFFFFFFFFFFFFFFFFFFFFFFFFFF AND SWAP1 POP SWAP1 JUMP JUMPDEST PUSH1 0x7 SLOAD DUP2 JUMP JUMPDEST PUSH3 0x76A700 DUP2 JUMP JUMPDEST PUSH11 0x84595161401484A000000 DUP2 JUMP JUMPDEST PUSH2 0xC9C PUSH2 0xF86 JUMP JUMPDEST PUSH1 0x6 PUSH0 SWAP1 SLOAD SWAP1 PUSH2 0x100 EXP SWAP1 DIV PUSH1 0xFF AND ISZERO PUSH2 0xCEB JUMPI PUSH1 0x40 MLOAD PUSH32 0x8C379A000000000000000000000000000000000000000000000000000000000 DUP2 MSTORE PUSH1 0x4 ADD PUSH2 0xCE2 SWAP1 PUSH2 0x1CBB JUMP JUMPDEST PUSH1 0x40 MLOAD DUP1 SWAP2 SUB SWAP1 REVERT JUMPDEST PUSH1 0x1 PUSH1 0x6 PUSH0 PUSH2 0x100 EXP DUP2 SLOAD DUP2 PUSH1 0xFF MUL NOT AND SWAP1 DUP4 ISZERO ISZERO MUL OR SWAP1 SSTORE POP PUSH0 PUSH32 0x0 PUSH20 0xFFFFFFFFFFFFFFFFFFFFFFFFFFFFFFFFFFFFFFFF AND PUSH4 0x70A08231 ADDRESS PUSH1 0x40 MLOAD DUP3 PUSH4 0xFFFFFFFF AND PUSH1 0xE0 SHL DUP2 MSTORE PUSH1 0x4 ADD PUSH2 0xD5F SWAP2 SWAP1 PUSH2 0x16A5 JUMP JUMPDEST PUSH1 0x20 PUSH1 0x40 MLOAD DUP1 DUP4 SUB DUP2 DUP7 GAS STATICCALL ISZERO DUP1 ISZERO PUSH2 0xD7A JUMPI RETURNDATASIZE PUSH0 PUSH0 RETURNDATACOPY RETURNDATASIZE PUSH0 REVERT JUMPDEST POP POP POP POP PUSH1 0x40 MLOAD RETURNDATASIZE PUSH1 0x1F NOT PUSH1 0x1F DUP3 ADD AND DUP3 ADD DUP1 PUSH1 0x40 MSTORE POP DUP2 ADD SWAP1 PUSH2 0xD9E SWAP2 SWAP1 PUSH2 0x1CED JUMP JUMPDEST SWAP1 POP PUSH0 DUP2 GT ISZERO PUSH2 0xDFB JUMPI PUSH2 0xDFA PUSH2 0xDB3 PUSH2 0xC51 JUMP JUMPDEST DUP3 PUSH32 0x0 PUSH20 0xFFFFFFFFFFFFFFFFFFFFFFFFFFFFFFFFFFFFFFFF AND PUSH2 0x12BE SWAP1 SWAP3 SWAP2 SWAP1 PUSH4 0xFFFFFFFF AND JUMP JUMPDEST JUMPDEST PUSH32 0xB4E6CB40663C1AC63BCD620DBE3D98C44526BAA45E310F545F425EBAAB36A293 PUSH1 0x7 SLOAD DUP3 PUSH1 0x40 MLOAD PUSH2 0xE2E SWAP3 SWAP2 SWAP1 PUSH2 0x1B7A JUMP JUMPDEST PUSH1 0x40 MLOAD DUP1 SWAP2 SUB SWAP1 LOG1 POP JUMP JUMPDEST PUSH1 0x5 SLOAD DUP2 JUMP JUMPDEST PUSH10 0xD3C21BCECCEDA1000000 DUP2 JUMP JUMPDEST PUSH0 PUSH1 0x1 PUSH0 SWAP1 SLOAD SWAP1 PUSH2 0x100 EXP SWAP1 DIV PUSH20 0xFFFFFFFFFFFFFFFFFFFFFFFFFFFFFFFFFFFFFFFF AND SWAP1 POP SWAP1 JUMP JUMPDEST PUSH1 0x6 PUSH0 SWAP1 SLOAD SWAP1 PUSH2 0x100 EXP SWAP1 DIV PUSH1 0xFF AND DUP2 JUMP JUMPDEST PUSH2 0xE8F PUSH2 0xF86 JUMP JUMPDEST DUP1 PUSH1 0x1 PUSH0 PUSH2 0x100 EXP DUP2 SLOAD DUP2 PUSH20 0xFFFFFFFFFFFFFFFFFFFFFFFFFFFFFFFFFFFFFFFF MUL NOT AND SWAP1 DUP4 PUSH20 0xFFFFFFFFFFFFFFFFFFFFFFFFFFFFFFFFFFFFFFFF AND MUL OR SWAP1 SSTORE POP DUP1 PUSH20 0xFFFFFFFFFFFFFFFFFFFFFFFFFFFFFFFFFFFFFFFF AND PUSH2 0xEEE PUSH2 0xC51 JUMP JUMPDEST PUSH20 0xFFFFFFFFFFFFFFFFFFFFFFFFFFFFFFFFFFFFFFFF AND PUSH32 0x38D16B8CAC22D99FC7C124B9CD0DE2D3FA1FAEF420BFE791D8C362D765E22700 PUSH1 0x40 MLOAD PUSH1 0x40 MLOAD DUP1 SWAP2 SUB SWAP1 LOG3 POP JUMP JUMPDEST PUSH0 PUSH0 PUSH1 0x5 SLOAD SUB PUSH2 0xF45 JUMPI PUSH0 SWAP1 POP PUSH2 0xF83 JUMP JUMPDEST PUSH3 0x76A700 PUSH1 0x5 SLOAD PUSH2 0xF56 SWAP2 SWAP1 PUSH2 0x1909 JUMP JUMPDEST TIMESTAMP LT PUSH2 0xF64 JUMPI PUSH0 SWAP1 POP PUSH2 0xF83 JUMP JUMPDEST TIMESTAMP PUSH3 0x76A700 PUSH1 0x5 SLOAD PUSH2 0xF76 SWAP2 SWAP1 PUSH2 0x1909 JUMP JUMPDEST PUSH2 0xF80 SWAP2 SWAP1 PUSH2 0x1806 JUMP JUMPDEST SWAP1 POP JUMPDEST SWAP1 JUMP JUMPDEST PUSH2 0xF8E PUSH2 0x136D JUMP JUMPDEST PUSH20 0xFFFFFFFFFFFFFFFFFFFFFFFFFFFFFFFFFFFFFFFF AND PUSH2 0xFAC PUSH2 0xC51 JUMP JUMPDEST PUSH20 0xFFFFFFFFFFFFFFFFFFFFFFFFFFFFFFFFFFFFFFFF AND EQ PUSH2 0x100B JUMPI PUSH2 0xFCF PUSH2 0x136D JUMP JUMPDEST PUSH1 0x40 MLOAD PUSH32 0x118CDAA700000000000000000000000000000000000000000000000000000000 DUP2 MSTORE PUSH1 0x4 ADD PUSH2 0x1002 SWAP2 SWAP1 PUSH2 0x16A5 JUMP JUMPDEST PUSH1 0x40 MLOAD DUP1 SWAP2 SUB SWAP1 REVERT JUMPDEST JUMP JUMPDEST PUSH1 0x2 DUP1 SLOAD SUB PUSH2 0x1051 JUMPI PUSH1 0x40 MLOAD PUSH32 0x8C379A000000000000000000000000000000000000000000000000000000000 DUP2 MSTORE PUSH1 0x4 ADD PUSH2 0x1048 SWAP1 PUSH2 0x1D62 JUMP JUMPDEST PUSH1 0x40 MLOAD DUP1 SWAP2 SUB SWAP1 REVERT JUMPDEST PUSH1 0x2 DUP1 DUP2 SWAP1 SSTORE POP JUMP JUMPDEST PUSH2 0x10D6 DUP5 DUP6 PUSH20 0xFFFFFFFFFFFFFFFFFFFFFFFFFFFFFFFFFFFFFFFF AND PUSH4 0x23B872DD DUP7 DUP7 DUP7 PUSH1 0x40 MLOAD PUSH1 0x24 ADD PUSH2 0x108F SWAP4 SWAP3 SWAP2 SWAP1 PUSH2 0x1D80 JUMP JUMPDEST PUSH1 0x40 MLOAD PUSH1 0x20 DUP2 DUP4 SUB SUB DUP2 MSTORE SWAP1 PUSH1 0x40 MSTORE SWAP2 POP PUSH1 0xE0 SHL PUSH1 0x20 DUP3 ADD DUP1 MLOAD PUSH28 0xFFFFFFFFFFFFFFFFFFFFFFFFFFFFFFFFFFFFFFFFFFFFFFFFFFFFFFFF DUP4 DUP2 DUP4 AND OR DUP4 MSTORE POP POP POP POP PUSH2 0x1374 JUMP JUMPDEST POP POP POP POP JUMP JUMPDEST PUSH0 PUSH1 0x3 PUSH1 0x4 SLOAD DUP2 SLOAD DUP2 LT PUSH2 0x10F3 JUMPI PUSH2 0x10F2 PUSH2 0x17AC JUMP JUMPDEST JUMPDEST SWAP1 PUSH0 MSTORE PUSH1 0x20 PUSH0 KECCAK256 SWAP1 PUSH1 0x4 MUL ADD PUSH1 0x3 ADD PUSH0 PUSH2 0x100 EXP DUP2 SLOAD DUP2 PUSH1 0xFF MUL NOT AND SWAP1 DUP4 ISZERO ISZERO MUL OR SWAP1 SSTORE POP PUSH1 0x1 PUSH1 0x3 DUP1 SLOAD SWAP1 POP PUSH2 0x112A SWAP2 SWAP1 PUSH2 0x1806 JUMP JUMPDEST PUSH1 0x4 SLOAD LT ISZERO PUSH2 0x11C5 JUMPI PUSH1 0x4 PUSH0 DUP2 SLOAD DUP1 SWAP3 SWAP2 SWAP1 PUSH2 0x1145 SWAP1 PUSH2 0x1DB5 JUMP JUMPDEST SWAP2 SWAP1 POP SSTORE POP PUSH1 0x1 PUSH1 0x3 PUSH1 0x4 SLOAD DUP2 SLOAD DUP2 LT PUSH2 0x1162 JUMPI PUSH2 0x1161 PUSH2 0x17AC JUMP JUMPDEST JUMPDEST SWAP1 PUSH0 MSTORE PUSH1 0x20 PUSH0 KECCAK256 SWAP1 PUSH1 0x4 MUL ADD PUSH1 0x3 ADD PUSH0 PUSH2 0x100 EXP DUP2 SLOAD DUP2 PUSH1 0xFF MUL NOT AND SWAP1 DUP4 ISZERO ISZERO MUL OR SWAP1 SSTORE POP PUSH32 0xD87D457666088F7F0056032AA92E6FD462F4EC64661117A66049CD349A0CAE14 PUSH1 0x4 SLOAD PUSH1 0x40 MLOAD PUSH2 0x11B8 SWAP2 SWAP1 PUSH2 0x167D JUMP JUMPDEST PUSH1 0x40 MLOAD DUP1 SWAP2 SUB SWAP1 LOG1 PUSH2 0x12B2 JUMP JUMPDEST PUSH1 0x1 PUSH1 0x6 PUSH0 PUSH2 0x100 EXP DUP2 SLOAD DUP2 PUSH1 0xFF MUL NOT AND SWAP1 DUP4 ISZERO ISZERO MUL OR SWAP1 SSTORE POP PUSH32 0xB4E6CB40663C1AC63BCD620DBE3D98C44526BAA45E310F545F425EBAAB36A293 PUSH1 0x7 SLOAD PUSH32 0x0 PUSH20 0xFFFFFFFFFFFFFFFFFFFFFFFFFFFFFFFFFFFFFFFF AND PUSH4 0x70A08231 ADDRESS PUSH1 0x40 MLOAD DUP3 PUSH4 0xFFFFFFFF AND PUSH1 0xE0 SHL DUP2 MSTORE PUSH1 0x4 ADD PUSH2 0x125C SWAP2 SWAP1 PUSH2 0x16A5 JUMP JUMPDEST PUSH1 0x20 PUSH1 0x40 MLOAD DUP1 DUP4 SUB DUP2 DUP7 GAS STATICCALL ISZERO DUP1 ISZERO PUSH2 0x1277 JUMPI RETURNDATASIZE PUSH0 PUSH0 RETURNDATACOPY RETURNDATASIZE PUSH0 REVERT JUMPDEST POP POP POP POP PUSH1 0x40 MLOAD RETURNDATASIZE PUSH1 0x1F NOT PUSH1 0x1F DUP3 ADD AND DUP3 ADD DUP1 PUSH1 0x40 MSTORE POP DUP2 ADD SWAP1 PUSH2 0x129B SWAP2 SWAP1 PUSH2 0x1CED JUMP JUMPDEST PUSH1 0x40 MLOAD PUSH2 0x12A9 SWAP3 SWAP2 SWAP1 PUSH2 0x1B7A JUMP JUMPDEST PUSH1 0x40 MLOAD DUP1 SWAP2 SUB SWAP1 LOG1 JUMPDEST JUMP JUMPDEST PUSH1 0x1 PUSH1 0x2 DUP2 SWAP1 SSTORE POP JUMP JUMPDEST PUSH2 0x1338 DUP4 DUP5 PUSH20 0xFFFFFFFFFFFFFFFFFFFFFFFFFFFFFFFFFFFFFFFF AND PUSH4 0xA9059CBB DUP6 DUP6 PUSH1 0x40 MLOAD PUSH1 0x24 ADD PUSH2 0x12F1 SWAP3 SWAP2 SWAP1 PUSH2 0x1DFC JUMP JUMPDEST PUSH1 0x40 MLOAD PUSH1 0x20 DUP2 DUP4 SUB SUB DUP2 MSTORE SWAP1 PUSH1 0x40 MSTORE SWAP2 POP PUSH1 0xE0 SHL PUSH1 0x20 DUP3 ADD DUP1 MLOAD PUSH28 0xFFFFFFFFFFFFFFFFFFFFFFFFFFFFFFFFFFFFFFFFFFFFFFFFFFFFFFFF DUP4 DUP2 DUP4 AND OR DUP4 MSTORE POP POP POP POP PUSH2 0x1374 JUMP JUMPDEST POP POP POP JUMP JUMPDEST PUSH1 0x1 PUSH0 PUSH2 0x100 EXP DUP2 SLOAD SWAP1 PUSH20 0xFFFFFFFFFFFFFFFFFFFFFFFFFFFFFFFFFFFFFFFF MUL NOT AND SWAP1 SSTORE PUSH2 0x136A DUP2 PUSH2 0x140F JUMP JUMPDEST POP JUMP JUMPDEST PUSH0 CALLER SWAP1 POP SWAP1 JUMP JUMPDEST PUSH0 PUSH0 PUSH1 0x20 PUSH0 DUP5 MLOAD PUSH1 0x20 DUP7 ADD PUSH0 DUP9 GAS CALL DUP1 PUSH2 0x1393 JUMPI PUSH1 0x40 MLOAD RETURNDATASIZE PUSH0 DUP3 RETURNDATACOPY RETURNDATASIZE DUP2 REVERT JUMPDEST RETURNDATASIZE SWAP3 POP PUSH0 MLOAD SWAP2 POP POP PUSH0 DUP3 EQ PUSH2 0x13AC JUMPI PUSH1 0x1 DUP2 EQ ISZERO PUSH2 0x13C7 JUMP JUMPDEST PUSH0 DUP5 PUSH20 0xFFFFFFFFFFFFFFFFFFFFFFFFFFFFFFFFFFFFFFFF AND EXTCODESIZE EQ JUMPDEST ISZERO PUSH2 0x1409 JUMPI DUP4 PUSH1 0x40 MLOAD PUSH32 0x5274AFE700000000000000000000000000000000000000000000000000000000 DUP2 MSTORE PUSH1 0x4 ADD PUSH2 0x1400 SWAP2 SWAP1 PUSH2 0x16A5 JUMP JUMPDEST PUSH1 0x40 MLOAD DUP1 SWAP2 SUB SWAP1 REVERT JUMPDEST POP POP POP POP JUMP JUMPDEST PUSH0 PUSH0 PUSH0 SWAP1 SLOAD SWAP1 PUSH2 0x100 EXP SWAP1 DIV PUSH20 0xFFFFFFFFFFFFFFFFFFFFFFFFFFFFFFFFFFFFFFFF AND SWAP1 POP DUP2 PUSH0 PUSH0 PUSH2 0x100 EXP DUP2 SLOAD DUP2 PUSH20 0xFFFFFFFFFFFFFFFFFFFFFFFFFFFFFFFFFFFFFFFF MUL NOT AND SWAP1 DUP4 PUSH20 0xFFFFFFFFFFFFFFFFFFFFFFFFFFFFFFFFFFFFFFFF AND MUL OR SWAP1 SSTORE POP DUP2 PUSH20 0xFFFFFFFFFFFFFFFFFFFFFFFFFFFFFFFFFFFFFFFF AND DUP2 PUSH20 0xFFFFFFFFFFFFFFFFFFFFFFFFFFFFFFFFFFFFFFFF AND PUSH32 0x8BE0079C531659141344CD1FD0A4F28419497F9722A3DAAFE3B4186F6B6457E0 PUSH1 0x40 MLOAD PUSH1 0x40 MLOAD DUP1 SWAP2 SUB SWAP1 LOG3 POP POP JUMP JUMPDEST PUSH0 PUSH20 0xFFFFFFFFFFFFFFFFFFFFFFFFFFFFFFFFFFFFFFFF DUP3 AND SWAP1 POP SWAP2 SWAP1 POP JUMP JUMPDEST PUSH0 DUP2 SWAP1 POP SWAP2 SWAP1 POP JUMP JUMPDEST PUSH0 PUSH2 0x1512 PUSH2 0x150D PUSH2 0x1508 DUP5 PUSH2 0x14D0 JUMP JUMPDEST PUSH2 0x14EF JUMP JUMPDEST PUSH2 0x14D0 JUMP JUMPDEST SWAP1 POP SWAP2 SWAP1 POP JUMP JUMPDEST PUSH0 PUSH2 0x1523 DUP3 PUSH2 0x14F8 JUMP JUMPDEST SWAP1 POP SWAP2 SWAP1 POP JUMP JUMPDEST PUSH0 PUSH2 0x1534 DUP3 PUSH2 0x1519 JUMP JUMPDEST SWAP1 POP SWAP2 SWAP1 POP JUMP JUMPDEST PUSH2 0x1544 DUP2 PUSH2 0x152A JUMP JUMPDEST DUP3 MSTORE POP POP JUMP JUMPDEST PUSH0 PUSH1 0x20 DUP3 ADD SWAP1 POP PUSH2 0x155D PUSH0 DUP4 ADD DUP5 PUSH2 0x153B JUMP JUMPDEST SWAP3 SWAP2 POP POP JUMP JUMPDEST PUSH0 DUP2 SWAP1 POP SWAP2 SWAP1 POP JUMP JUMPDEST PUSH2 0x1575 DUP2 PUSH2 0x1563 JUMP JUMPDEST DUP3 MSTORE POP POP JUMP JUMPDEST PUSH0 PUSH1 0x80 DUP3 ADD SWAP1 POP PUSH2 0x158E PUSH0 DUP4 ADD DUP8 PUSH2 0x156C JUMP JUMPDEST PUSH2 0x159B PUSH1 0x20 DUP4 ADD DUP7 PUSH2 0x156C JUMP JUMPDEST PUSH2 0x15A8 PUSH1 0x40 DUP4 ADD DUP6 PUSH2 0x156C JUMP JUMPDEST PUSH2 0x15B5 PUSH1 0x60 DUP4 ADD DUP5 PUSH2 0x156C JUMP JUMPDEST SWAP6 SWAP5 POP POP POP POP POP JUMP JUMPDEST PUSH0 PUSH0 REVERT JUMPDEST PUSH2 0x15CB DUP2 PUSH2 0x1563 JUMP JUMPDEST DUP2 EQ PUSH2 0x15D5 JUMPI PUSH0 PUSH0 REVERT JUMPDEST POP JUMP JUMPDEST PUSH0 DUP2 CALLDATALOAD SWAP1 POP PUSH2 0x15E6 DUP2 PUSH2 0x15C2 JUMP JUMPDEST SWAP3 SWAP2 POP POP JUMP JUMPDEST PUSH0 PUSH1 0x20 DUP3 DUP5 SUB SLT ISZERO PUSH2 0x1601 JUMPI PUSH2 0x1600 PUSH2 0x15BE JUMP JUMPDEST JUMPDEST PUSH0 PUSH2 0x160E DUP5 DUP3 DUP6 ADD PUSH2 0x15D8 JUMP JUMPDEST SWAP2 POP POP SWAP3 SWAP2 POP POP JUMP JUMPDEST PUSH0 PUSH2 0x1621 DUP3 PUSH2 0x14D0 JUMP JUMPDEST SWAP1 POP SWAP2 SWAP1 POP JUMP JUMPDEST PUSH2 0x1631 DUP2 PUSH2 0x1617 JUMP JUMPDEST DUP2 EQ PUSH2 0x163B JUMPI PUSH0 PUSH0 REVERT JUMPDEST POP JUMP JUMPDEST PUSH0 DUP2 CALLDATALOAD SWAP1 POP PUSH2 0x164C DUP2 PUSH2 0x1628 JUMP JUMPDEST SWAP3 SWAP2 POP POP JUMP JUMPDEST PUSH0 PUSH1 0x20 DUP3 DUP5 SUB SLT ISZERO PUSH2 0x1667 JUMPI PUSH2 0x1666 PUSH2 0x15BE JUMP JUMPDEST JUMPDEST PUSH0 PUSH2 0x1674 DUP5 DUP3 DUP6 ADD PUSH2 0x163E JUMP JUMPDEST SWAP2 POP POP SWAP3 SWAP2 POP POP JUMP JUMPDEST PUSH0 PUSH1 0x20 DUP3 ADD SWAP1 POP PUSH2 0x1690 PUSH0 DUP4 ADD DUP5 PUSH2 0x156C JUMP JUMPDEST SWAP3 SWAP2 POP POP JUMP JUMPDEST PUSH2 0x169F DUP2 PUSH2 0x1617 JUMP JUMPDEST DUP3 MSTORE POP POP JUMP JUMPDEST PUSH0 PUSH1 0x20 DUP3 ADD SWAP1 POP PUSH2 0x16B8 PUSH0 DUP4 ADD DUP5 PUSH2 0x1696 JUMP JUMPDEST SWAP3 SWAP2 POP POP JUMP JUMPDEST PUSH0 DUP2 ISZERO ISZERO SWAP1 POP SWAP2 SWAP1 POP JUMP JUMPDEST PUSH2 0x16D2 DUP2 PUSH2 0x16BE JUMP JUMPDEST DUP3 MSTORE POP POP JUMP JUMPDEST PUSH0 PUSH1 0x80 DUP3 ADD SWAP1 POP PUSH2 0x16EB PUSH0 DUP4 ADD DUP8 PUSH2 0x156C JUMP JUMPDEST PUSH2 0x16F8 PUSH1 0x20 DUP4 ADD DUP7 PUSH2 0x156C JUMP JUMPDEST PUSH2 0x1705 PUSH1 0x40 DUP4 ADD DUP6 PUSH2 0x156C JUMP JUMPDEST PUSH2 0x1712 PUSH1 0x60 DUP4 ADD DUP5 PUSH2 0x16C9 JUMP JUMPDEST SWAP6 SWAP5 POP POP POP POP POP JUMP JUMPDEST PUSH0 PUSH1 0x20 DUP3 ADD SWAP1 POP PUSH2 0x172E PUSH0 DUP4 ADD DUP5 PUSH2 0x16C9 JUMP JUMPDEST SWAP3 SWAP2 POP POP JUMP JUMPDEST PUSH0 DUP3 DUP3 MSTORE PUSH1 0x20 DUP3 ADD SWAP1 POP SWAP3 SWAP2 POP POP JUMP JUMPDEST PUSH32 0x50726573616C652073756461682064696D756C61690000000000000000000000 PUSH0 DUP3 ADD MSTORE POP JUMP JUMPDEST PUSH0 PUSH2 0x1778 PUSH1 0x15 DUP4 PUSH2 0x1734 JUMP JUMPDEST SWAP2 POP PUSH2 0x1783 DUP3 PUSH2 0x1744 JUMP JUMPDEST PUSH1 0x20 DUP3 ADD SWAP1 POP SWAP2 SWAP1 POP JUMP JUMPDEST PUSH0 PUSH1 0x20 DUP3 ADD SWAP1 POP DUP2 DUP2 SUB PUSH0 DUP4 ADD MSTORE PUSH2 0x17A5 DUP2 PUSH2 0x176C JUMP JUMPDEST SWAP1 POP SWAP2 SWAP1 POP JUMP JUMPDEST PUSH32 0x4E487B7100000000000000000000000000000000000000000000000000000000 PUSH0 MSTORE PUSH1 0x32 PUSH1 0x4 MSTORE PUSH1 0x24 PUSH0 REVERT JUMPDEST PUSH32 0x4E487B7100000000000000000000000000000000000000000000000000000000 PUSH0 MSTORE PUSH1 0x11 PUSH1 0x4 MSTORE PUSH1 0x24 PUSH0 REVERT JUMPDEST PUSH0 PUSH2 0x1810 DUP3 PUSH2 0x1563 JUMP JUMPDEST SWAP2 POP PUSH2 0x181B DUP4 PUSH2 0x1563 JUMP JUMPDEST SWAP3 POP DUP3 DUP3 SUB SWAP1 POP DUP2 DUP2 GT ISZERO PUSH2 0x1833 JUMPI PUSH2 0x1832 PUSH2 0x17D9 JUMP JUMPDEST JUMPDEST SWAP3 SWAP2 POP POP JUMP JUMPDEST PUSH32 0x50726573616C6520737564616820626572616B68697200000000000000000000 PUSH0 DUP3 ADD MSTORE POP JUMP JUMPDEST PUSH0 PUSH2 0x186D PUSH1 0x16 DUP4 PUSH2 0x1734 JUMP JUMPDEST SWAP2 POP PUSH2 0x1878 DUP3 PUSH2 0x1839 JUMP JUMPDEST PUSH1 0x20 DUP3 ADD SWAP1 POP SWAP2 SWAP1 POP JUMP JUMPDEST PUSH0 PUSH1 0x20 DUP3 ADD SWAP1 POP DUP2 DUP2 SUB PUSH0 DUP4 ADD MSTORE PUSH2 0x189A DUP2 PUSH2 0x1861 JUMP JUMPDEST SWAP1 POP SWAP2 SWAP1 POP JUMP JUMPDEST PUSH32 0x50726573616C652062656C756D2064696D756C61690000000000000000000000 PUSH0 DUP3 ADD MSTORE POP JUMP JUMPDEST PUSH0 PUSH2 0x18D5 PUSH1 0x15 DUP4 PUSH2 0x1734 JUMP JUMPDEST SWAP2 POP PUSH2 0x18E0 DUP3 PUSH2 0x18A1 JUMP JUMPDEST PUSH1 0x20 DUP3 ADD SWAP1 POP SWAP2 SWAP1 POP JUMP JUMPDEST PUSH0 PUSH1 0x20 DUP3 ADD SWAP1 POP DUP2 DUP2 SUB PUSH0 DUP4 ADD MSTORE PUSH2 0x1902 DUP2 PUSH2 0x18C9 JUMP JUMPDEST SWAP1 POP SWAP2 SWAP1 POP JUMP JUMPDEST PUSH0 PUSH2 0x1913 DUP3 PUSH2 0x1563 JUMP JUMPDEST SWAP2 POP PUSH2 0x191E DUP4 PUSH2 0x1563 JUMP JUMPDEST SWAP3 POP DUP3 DUP3 ADD SWAP1 POP DUP1 DUP3 GT ISZERO PUSH2 0x1936 JUMPI PUSH2 0x1935 PUSH2 0x17D9 JUMP JUMPDEST JUMPDEST SWAP3 SWAP2 POP POP JUMP JUMPDEST PUSH32 0x4A756D6C616820746964616B2076616C69640000000000000000000000000000 PUSH0 DUP3 ADD MSTORE POP JUMP JUMPDEST PUSH0 PUSH2 0x1970 PUSH1 0x12 DUP4 PUSH2 0x1734 JUMP JUMPDEST SWAP2 POP PUSH2 0x197B DUP3 PUSH2 0x193C JUMP JUMPDEST PUSH1 0x20 DUP3 ADD SWAP1 POP SWAP2 SWAP1 POP JUMP JUMPDEST PUSH0 PUSH1 0x20 DUP3 ADD SWAP1 POP DUP2 DUP2 SUB PUSH0 DUP4 ADD MSTORE PUSH2 0x199D DUP2 PUSH2 0x1964 JUMP JUMPDEST SWAP1 POP SWAP2 SWAP1 POP JUMP JUMPDEST PUSH32 0x4D656C65626968692062617461732070656D62656C69616E0000000000000000 PUSH0 DUP3 ADD MSTORE POP JUMP JUMPDEST PUSH0 PUSH2 0x19D8 PUSH1 0x18 DUP4 PUSH2 0x1734 JUMP JUMPDEST SWAP2 POP PUSH2 0x19E3 DUP3 PUSH2 0x19A4 JUMP JUMPDEST PUSH1 0x20 DUP3 ADD SWAP1 POP SWAP2 SWAP1 POP JUMP JUMPDEST PUSH0 PUSH1 0x20 DUP3 ADD SWAP1 POP DUP2 DUP2 SUB PUSH0 DUP4 ADD MSTORE PUSH2 0x1A05 DUP2 PUSH2 0x19CC JUMP JUMPDEST SWAP1 POP SWAP2 SWAP1 POP JUMP JUMPDEST PUSH32 0x537461676520746964616B20616B746966000000000000000000000000000000 PUSH0 DUP3 ADD MSTORE POP JUMP JUMPDEST PUSH0 PUSH2 0x1A40 PUSH1 0x11 DUP4 PUSH2 0x1734 JUMP JUMPDEST SWAP2 POP PUSH2 0x1A4B DUP3 PUSH2 0x1A0C JUMP JUMPDEST PUSH1 0x20 DUP3 ADD SWAP1 POP SWAP2 SWAP1 POP JUMP JUMPDEST PUSH0 PUSH1 0x20 DUP3 ADD SWAP1 POP DUP2 DUP2 SUB PUSH0 DUP4 ADD MSTORE PUSH2 0x1A6D DUP2 PUSH2 0x1A34 JUMP JUMPDEST SWAP1 POP SWAP2 SWAP1 POP JUMP JUMPDEST PUSH32 0x4D656C6562696869206B756F7461207374616765000000000000000000000000 PUSH0 DUP3 ADD MSTORE POP JUMP JUMPDEST PUSH0 PUSH2 0x1AA8 PUSH1 0x14 DUP4 PUSH2 0x1734 JUMP JUMPDEST SWAP2 POP PUSH2 0x1AB3 DUP3 PUSH2 0x1A74 JUMP JUMPDEST PUSH1 0x20 DUP3 ADD SWAP1 POP SWAP2 SWAP1 POP JUMP JUMPDEST PUSH0 PUSH1 0x20 DUP3 ADD SWAP1 POP DUP2 DUP2 SUB PUSH0 DUP4 ADD MSTORE PUSH2 0x1AD5 DUP2 PUSH2 0x1A9C JUMP JUMPDEST SWAP1 POP SWAP2 SWAP1 POP JUMP JUMPDEST PUSH0 PUSH2 0x1AE6 DUP3 PUSH2 0x1563 JUMP JUMPDEST SWAP2 POP PUSH2 0x1AF1 DUP4 PUSH2 0x1563 JUMP JUMPDEST SWAP3 POP DUP3 DUP3 MUL PUSH2 0x1AFF DUP2 PUSH2 0x1563 JUMP JUMPDEST SWAP2 POP DUP3 DUP3 DIV DUP5 EQ DUP4 ISZERO OR PUSH2 0x1B16 JUMPI PUSH2 0x1B15 PUSH2 0x17D9 JUMP JUMPDEST JUMPDEST POP SWAP3 SWAP2 POP POP JUMP JUMPDEST PUSH32 0x4E487B7100000000000000000000000000000000000000000000000000000000 PUSH0 MSTORE PUSH1 0x12 PUSH1 0x4 MSTORE PUSH1 0x24 PUSH0 REVERT JUMPDEST PUSH0 PUSH2 0x1B54 DUP3 PUSH2 0x1563 JUMP JUMPDEST SWAP2 POP PUSH2 0x1B5F DUP4 PUSH2 0x1563 JUMP JUMPDEST SWAP3 POP DUP3 PUSH2 0x1B6F JUMPI PUSH2 0x1B6E PUSH2 0x1B1D JUMP JUMPDEST JUMPDEST DUP3 DUP3 DIV SWAP1 POP SWAP3 SWAP2 POP POP JUMP JUMPDEST PUSH0 PUSH1 0x40 DUP3 ADD SWAP1 POP PUSH2 0x1B8D PUSH0 DUP4 ADD DUP6 PUSH2 0x156C JUMP JUMPDEST PUSH2 0x1B9A PUSH1 0x20 DUP4 ADD DUP5 PUSH2 0x156C JUMP JUMPDEST SWAP4 SWAP3 POP POP POP JUMP JUMPDEST PUSH32 0x42656C756D206269736120636C61696D00000000000000000000000000000000 PUSH0 DUP3 ADD MSTORE POP JUMP JUMPDEST PUSH0 PUSH2 0x1BD5 PUSH1 0x10 DUP4 PUSH2 0x1734 JUMP JUMPDEST SWAP2 POP PUSH2 0x1BE0 DUP3 PUSH2 0x1BA1 JUMP JUMPDEST PUSH1 0x20 DUP3 ADD SWAP1 POP SWAP2 SWAP1 POP JUMP JUMPDEST PUSH0 PUSH1 0x20 DUP3 ADD SWAP1 POP DUP2 DUP2 SUB PUSH0 DUP4 ADD MSTORE PUSH2 0x1C02 DUP2 PUSH2 0x1BC9 JUMP JUMPDEST SWAP1 POP SWAP2 SWAP1 POP JUMP JUMPDEST PUSH32 0x546964616B2061646120746F6B656E20756E74756B2064692D636C61696D0000 PUSH0 DUP3 ADD MSTORE POP JUMP JUMPDEST PUSH0 PUSH2 0x1C3D PUSH1 0x1E DUP4 PUSH2 0x1734 JUMP JUMPDEST SWAP2 POP PUSH2 0x1C48 DUP3 PUSH2 0x1C09 JUMP JUMPDEST PUSH1 0x20 DUP3 ADD SWAP1 POP SWAP2 SWAP1 POP JUMP JUMPDEST PUSH0 PUSH1 0x20 DUP3 ADD SWAP1 POP DUP2 DUP2 SUB PUSH0 DUP4 ADD MSTORE PUSH2 0x1C6A DUP2 PUSH2 0x1C31 JUMP JUMPDEST SWAP1 POP SWAP2 SWAP1 POP JUMP JUMPDEST PUSH32 0x50726573616C65207375646168206469616B6869726900000000000000000000 PUSH0 DUP3 ADD MSTORE POP JUMP JUMPDEST PUSH0 PUSH2 0x1CA5 PUSH1 0x16 DUP4 PUSH2 0x1734 JUMP JUMPDEST SWAP2 POP PUSH2 0x1CB0 DUP3 PUSH2 0x1C71 JUMP JUMPDEST PUSH1 0x20 DUP3 ADD SWAP1 POP SWAP2 SWAP1 POP JUMP JUMPDEST PUSH0 PUSH1 0x20 DUP3 ADD SWAP1 POP DUP2 DUP2 SUB PUSH0 DUP4 ADD MSTORE PUSH2 0x1CD2 DUP2 PUSH2 0x1C99 JUMP JUMPDEST SWAP1 POP SWAP2 SWAP1 POP JUMP JUMPDEST PUSH0 DUP2 MLOAD SWAP1 POP PUSH2 0x1CE7 DUP2 PUSH2 0x15C2 JUMP JUMPDEST SWAP3 SWAP2 POP POP JUMP JUMPDEST PUSH0 PUSH1 0x20 DUP3 DUP5 SUB SLT ISZERO PUSH2 0x1D02 JUMPI PUSH2 0x1D01 PUSH2 0x15BE JUMP JUMPDEST JUMPDEST PUSH0 PUSH2 0x1D0F DUP5 DUP3 DUP6 ADD PUSH2 0x1CD9 JUMP JUMPDEST SWAP2 POP POP SWAP3 SWAP2 POP POP JUMP JUMPDEST PUSH32 0x5265656E7472616E637947756172643A207265656E7472616E742063616C6C00 PUSH0 DUP3 ADD MSTORE POP JUMP JUMPDEST PUSH0 PUSH2 0x1D4C PUSH1 0x1F DUP4 PUSH2 0x1734 JUMP JUMPDEST SWAP2 POP PUSH2 0x1D57 DUP3 PUSH2 0x1D18 JUMP JUMPDEST PUSH1 0x20 DUP3 ADD SWAP1 POP SWAP2 SWAP1 POP JUMP JUMPDEST PUSH0 PUSH1 0x20 DUP3 ADD SWAP1 POP DUP2 DUP2 SUB PUSH0 DUP4 ADD MSTORE PUSH2 0x1D79 DUP2 PUSH2 0x1D40 JUMP JUMPDEST SWAP1 POP SWAP2 SWAP1 POP JUMP JUMPDEST PUSH0 PUSH1 0x60 DUP3 ADD SWAP1 POP PUSH2 0x1D93 PUSH0 DUP4 ADD DUP7 PUSH2 0x1696 JUMP JUMPDEST PUSH2 0x1DA0 PUSH1 0x20 DUP4 ADD DUP6 PUSH2 0x1696 JUMP JUMPDEST PUSH2 0x1DAD PUSH1 0x40 DUP4 ADD DUP5 PUSH2 0x156C JUMP JUMPDEST SWAP5 SWAP4 POP POP POP POP JUMP JUMPDEST PUSH0 PUSH2 0x1DBF DUP3 PUSH2 0x1563 JUMP JUMPDEST SWAP2 POP PUSH32 0xFFFFFFFFFFFFFFFFFFFFFFFFFFFFFFFFFFFFFFFFFFFFFFFFFFFFFFFFFFFFFFFF DUP3 SUB PUSH2 0x1DF1 JUMPI PUSH2 0x1DF0 PUSH2 0x17D9 JUMP JUMPDEST JUMPDEST PUSH1 0x1 DUP3 ADD SWAP1 POP SWAP2 SWAP1 POP JUMP JUMPDEST PUSH0 PUSH1 0x40 DUP3 ADD SWAP1 POP PUSH2 0x1E0F PUSH0 DUP4 ADD DUP6 PUSH2 0x1696 JUMP JUMPDEST PUSH2 0x1E1C PUSH1 0x20 DUP4 ADD DUP5 PUSH2 0x156C JUMP JUMPDEST SWAP4 SWAP3 POP POP POP JUMP INVALID LOG2 PUSH5 0x6970667358 0x22 SLT KECCAK256 SELFDESTRUCT CALLDATASIZE DUP3 0xE9 0x2A 0xA8 0xF6 0xB6 DUP13 INVALID SUB 0xC MUL SMOD PUSH0 PUSH15 0xA084E70520FF968910DEDF7F8B4422 DUPN 0x64 PUSH20 0x6F6C634300081E00330000000000000000000000 "
				},
				"gasEstimates": {
					"creation": {
						"codeDepositCost": "1553800",
						"executionCost": "infinite",
						"totalCost": "infinite"
					},
					"external": {
						"MAX_BUY_PER_WALLET()": "369",
						"PRESALE_DURATION()": "414",
						"TOTAL_PRESALE_SUPPLY()": "436",
						"acceptOwnership()": "54780",
						"buyTokens(uint256)": "infinite",
						"cafi()": "infinite",
						"claimTokens()": "infinite",
						"currentStage()": "2492",
						"endPresale()": "infinite",
						"getCurrentStageInfo()": "infinite",
						"getPresaleTimeLeft()": "infinite",
						"owner()": "2559",
						"pendingOwner()": "2581",
						"presaleEnded()": "2554",
						"presaleStartTime()": "2447",
						"renounceOwnership()": "infinite",
						"stages(uint256)": "infinite",
						"startPresale()": "infinite",
						"totalSold()": "2492",
						"transferOwnership(address)": "infinite",
						"treasury()": "infinite",
						"usdt()": "infinite",
						"userPurchases(address)": "2825"
					},
					"internal": {
						"_advanceStage()": "infinite"
					}
				},
				"methodIdentifiers": {
					"MAX_BUY_PER_WALLET()": "db81b278",
					"PRESALE_DURATION()": "945e4013",
					"TOTAL_PRESALE_SUPPLY()": "96713abf",
					"acceptOwnership()": "79ba5097",
					"buyTokens(uint256)": "3610724e",
					"cafi()": "1f9c729d",
					"claimTokens()": "48c54b9d",
					"currentStage()": "5bf5d54c",
					"endPresale()": "a43be57b",
					"getCurrentStageInfo()": "26d07099",
					"getPresaleTimeLeft()": "f349b76c",
					"owner()": "8da5cb5b",
					"pendingOwner()": "e30c3978",
					"presaleEnded()": "e580b2b0",
					"presaleStartTime()": "a82524b2",
					"renounceOwnership()": "715018a6",
					"stages(uint256)": "845ddcb2",
					"startPresale()": "04c98b2b",
					"totalSold()": "9106d7ba",
					"transferOwnership(address)": "f2fde38b",
					"treasury()": "61d027b3",
					"usdt()": "2f48ab7d",
					"userPurchases(address)": "39f65c09"
				}
			},
			"storageLayout": {
				"storage": [
					{
						"astId": 8,
						"contract": "Presale.sol:CarbonFiPresale",
						"label": "_owner",
						"offset": 0,
						"slot": "0",
						"type": "t_address"
					},
					{
						"astId": 156,
						"contract": "Presale.sol:CarbonFiPresale",
						"label": "_pendingOwner",
						"offset": 0,
						"slot": "1",
						"type": "t_address"
					},
					{
						"astId": 334,
						"contract": "Presale.sol:CarbonFiPresale",
						"label": "_status",
						"offset": 0,
						"slot": "2",
						"type": "t_uint256"
					},
					{
						"astId": 1020,
						"contract": "Presale.sol:CarbonFiPresale",
						"label": "stages",
						"offset": 0,
						"slot": "3",
						"type": "t_array(t_struct(Stage)1016_storage)dyn_storage"
					},
					{
						"astId": 1022,
						"contract": "Presale.sol:CarbonFiPresale",
						"label": "currentStage",
						"offset": 0,
						"slot": "4",
						"type": "t_uint256"
					},
					{
						"astId": 1024,
						"contract": "Presale.sol:CarbonFiPresale",
						"label": "presaleStartTime",
						"offset": 0,
						"slot": "5",
						"type": "t_uint256"
					},
					{
						"astId": 1026,
						"contract": "Presale.sol:CarbonFiPresale",
						"label": "presaleEnded",
						"offset": 0,
						"slot": "6",
						"type": "t_bool"
					},
					{
						"astId": 1028,
						"contract": "Presale.sol:CarbonFiPresale",
						"label": "totalSold",
						"offset": 0,
						"slot": "7",
						"type": "t_uint256"
					},
					{
						"astId": 1032,
						"contract": "Presale.sol:CarbonFiPresale",
						"label": "userPurchases",
						"offset": 0,
						"slot": "8",
						"type": "t_mapping(t_address,t_uint256)"
					}
				],
				"types": {
					"t_address": {
						"encoding": "inplace",
						"label": "address",
						"numberOfBytes": "20"
					},
					"t_array(t_struct(Stage)1016_storage)dyn_storage": {
						"base": "t_struct(Stage)1016_storage",
						"encoding": "dynamic_array",
						"label": "struct CarbonFiPresale.Stage[]",
						"numberOfBytes": "32"
					},
					"t_bool": {
						"encoding": "inplace",
						"label": "bool",
						"numberOfBytes": "1"
					},
					"t_mapping(t_address,t_uint256)": {
						"encoding": "mapping",
						"key": "t_address",
						"label": "mapping(address => uint256)",
						"numberOfBytes": "32",
						"value": "t_uint256"
					},
					"t_struct(Stage)1016_storage": {
						"encoding": "inplace",
						"label": "struct CarbonFiPresale.Stage",
						"members": [
							{
								"astId": 1009,
								"contract": "Presale.sol:CarbonFiPresale",
								"label": "totalAmount",
								"offset": 0,
								"slot": "0",
								"type": "t_uint256"
							},
							{
								"astId": 1011,
								"contract": "Presale.sol:CarbonFiPresale",
								"label": "soldAmount",
								"offset": 0,
								"slot": "1",
								"type": "t_uint256"
							},
							{
								"astId": 1013,
								"contract": "Presale.sol:CarbonFiPresale",
								"label": "price",
								"offset": 0,
								"slot": "2",
								"type": "t_uint256"
							},
							{
								"astId": 1015,
								"contract": "Presale.sol:CarbonFiPresale",
								"label": "isActive",
								"offset": 0,
								"slot": "3",
								"type": "t_bool"
							}
						],
						"numberOfBytes": "128"
					},
					"t_uint256": {
						"encoding": "inplace",
						"label": "uint256",
						"numberOfBytes": "32"
					}
				}
			},
			"userdoc": {
				"kind": "user",
				"methods": {},
				"version": 1
			}
		}
	}
}