{
	"Carbonfi_Marketplace.sol": {
		"CarbonFiMarketplace": {
			"abi": [
				{
					"inputs": [
						{
							"internalType": "address",
							"name": "_cafiToken",
							"type": "address"
						},
						{
							"internalType": "address",
							"name": "_carbonFiNFT",
							"type": "address"
						},
						{
							"internalType": "address",
							"name": "_feeWallet",
							"type": "address"
						}
					],
					"stateMutability": "nonpayable",
					"type": "constructor"
				},
				{
					"inputs": [
						{
							"internalType": "address",
							"name": "owner",
							"type": "address"
						}
					],
					"name": "OwnableInvalidOwner",
					"type": "error"
				},
				{
					"inputs": [
						{
							"internalType": "address",
							"name": "account",
							"type": "address"
						}
					],
					"name": "OwnableUnauthorizedAccount",
					"type": "error"
				},
				{
					"inputs": [
						{
							"internalType": "address",
							"name": "token",
							"type": "address"
						}
					],
					"name": "SafeERC20FailedOperation",
					"type": "error"
				},
				{
					"anonymous": false,
					"inputs": [
						{
							"indexed": true,
							"internalType": "address",
							"name": "newFeeWallet",
							"type": "address"
						}
					],
					"name": "FeeWalletUpdated",
					"type": "event"
				},
				{
					"anonymous": false,
					"inputs": [
						{
							"indexed": true,
							"internalType": "address",
							"name": "seller",
							"type": "address"
						},
						{
							"indexed": true,
							"internalType": "uint256",
							"name": "tokenId",
							"type": "uint256"
						},
						{
							"indexed": false,
							"internalType": "uint256",
							"name": "amount",
							"type": "uint256"
						},
						{
							"indexed": false,
							"internalType": "uint256",
							"name": "pricePerItem",
							"type": "uint256"
						}
					],
					"name": "ItemListed",
					"type": "event"
				},
				{
					"anonymous": false,
					"inputs": [
						{
							"indexed": true,
							"internalType": "address",
							"name": "seller",
							"type": "address"
						},
						{
							"indexed": true,
							"internalType": "address",
							"name": "buyer",
							"type": "address"
						},
						{
							"indexed": true,
							"internalType": "uint256",
							"name": "tokenId",
							"type": "uint256"
						},
						{
							"indexed": false,
							"internalType": "uint256",
							"name": "amount",
							"type": "uint256"
						},
						{
							"indexed": false,
							"internalType": "uint256",
							"name": "pricePerItem",
							"type": "uint256"
						}
					],
					"name": "ItemSold",
					"type": "event"
				},
				{
					"anonymous": false,
					"inputs": [
						{
							"indexed": true,
							"internalType": "address",
							"name": "seller",
							"type": "address"
						},
						{
							"indexed": true,
							"internalType": "uint256",
							"name": "tokenId",
							"type": "uint256"
						}
					],
					"name": "ListingCancelled",
					"type": "event"
				},
				{
					"anonymous": false,
					"inputs": [
						{
							"indexed": true,
							"internalType": "address",
							"name": "previousOwner",
							"type": "address"
						},
						{
							"indexed": true,
							"internalType": "address",
							"name": "newOwner",
							"type": "address"
						}
					],
					"name": "OwnershipTransferred",
					"type": "event"
				},
				{
					"inputs": [],
					"name": "FEE_PERCENT",
					"outputs": [
						{
							"internalType": "uint256",
							"name": "",
							"type": "uint256"
						}
					],
					"stateMutability": "view",
					"type": "function"
				},
				{
					"inputs": [],
					"name": "MIN_AMOUNT",
					"outputs": [
						{
							"internalType": "uint256",
							"name": "",
							"type": "uint256"
						}
					],
					"stateMutability": "view",
					"type": "function"
				},
				{
					"inputs": [],
					"name": "MIN_PRICE",
					"outputs": [
						{
							"internalType": "uint256",
							"name": "",
							"type": "uint256"
						}
					],
					"stateMutability": "view",
					"type": "function"
				},
				{
					"inputs": [
						{
							"internalType": "address",
							"name": "seller",
							"type": "address"
						},
						{
							"internalType": "uint256",
							"name": "tokenId",
							"type": "uint256"
						},
						{
							"internalType": "uint256",
							"name": "amount",
							"type": "uint256"
						}
					],
					"name": "buyItem",
					"outputs": [],
					"stateMutability": "nonpayable",
					"type": "function"
				},
				{
					"inputs": [],
					"name": "cafiToken",
					"outputs": [
						{
							"internalType": "contract IERC20",
							"name": "",
							"type": "address"
						}
					],
					"stateMutability": "view",
					"type": "function"
				},
				{
					"inputs": [
						{
							"internalType": "uint256",
							"name": "tokenId",
							"type": "uint256"
						}
					],
					"name": "cancelListing",
					"outputs": [],
					"stateMutability": "nonpayable",
					"type": "function"
				},
				{
					"inputs": [],
					"name": "carbonFiNFT",
					"outputs": [
						{
							"internalType": "contract IERC1155",
							"name": "",
							"type": "address"
						}
					],
					"stateMutability": "view",
					"type": "function"
				},
				{
					"inputs": [
						{
							"internalType": "address",
							"name": "tokenAddress",
							"type": "address"
						},
						{
							"internalType": "uint256",
							"name": "amount",
							"type": "uint256"
						}
					],
					"name": "emergencyWithdraw",
					"outputs": [],
					"stateMutability": "nonpayable",
					"type": "function"
				},
				{
					"inputs": [],
					"name": "feeWallet",
					"outputs": [
						{
							"internalType": "address",
							"name": "",
							"type": "address"
						}
					],
					"stateMutability": "view",
					"type": "function"
				},
				{
					"inputs": [
						{
							"internalType": "uint256",
							"name": "tokenId",
							"type": "uint256"
						},
						{
							"internalType": "uint256",
							"name": "amount",
							"type": "uint256"
						},
						{
							"internalType": "uint256",
							"name": "pricePerItem",
							"type": "uint256"
						}
					],
					"name": "listItem",
					"outputs": [],
					"stateMutability": "nonpayable",
					"type": "function"
				},
				{
					"inputs": [
						{
							"internalType": "uint256",
							"name": "",
							"type": "uint256"
						},
						{
							"internalType": "address",
							"name": "",
							"type": "address"
						}
					],
					"name": "listings",
					"outputs": [
						{
							"internalType": "address",
							"name": "seller",
							"type": "address"
						},
						{
							"internalType": "uint256",
							"name": "tokenId",
							"type": "uint256"
						},
						{
							"internalType": "uint256",
							"name": "amount",
							"type": "uint256"
						},
						{
							"internalType": "uint256",
							"name": "pricePerItem",
							"type": "uint256"
						}
					],
					"stateMutability": "view",
					"type": "function"
				},
				{
					"inputs": [
						{
							"internalType": "address",
							"name": "",
							"type": "address"
						},
						{
							"internalType": "address",
							"name": "",
							"type": "address"
						},
						{
							"internalType": "uint256[]",
							"name": "",
							"type": "uint256[]"
						},
						{
							"internalType": "uint256[]",
							"name": "",
							"type": "uint256[]"
						},
						{
							"internalType": "bytes",
							"name": "",
							"type": "bytes"
						}
					],
					"name": "onERC1155BatchReceived",
					"outputs": [
						{
							"internalType": "bytes4",
							"name": "",
							"type": "bytes4"
						}
					],
					"stateMutability": "nonpayable",
					"type": "function"
				},
				{
					"inputs": [
						{
							"internalType": "address",
							"name": "",
							"type": "address"
						},
						{
							"internalType": "address",
							"name": "",
							"type": "address"
						},
						{
							"internalType": "uint256",
							"name": "",
							"type": "uint256"
						},
						{
							"internalType": "uint256",
							"name": "",
							"type": "uint256"
						},
						{
							"internalType": "bytes",
							"name": "",
							"type": "bytes"
						}
					],
					"name": "onERC1155Received",
					"outputs": [
						{
							"internalType": "bytes4",
							"name": "",
							"type": "bytes4"
						}
					],
					"stateMutability": "nonpayable",
					"type": "function"
				},
				{
					"inputs": [],
					"name": "owner",
					"outputs": [
						{
							"internalType": "address",
							"name": "",
							"type": "address"
						}
					],
					"stateMutability": "view",
					"type": "function"
				},
				{
					"inputs": [],
					"name": "renounceOwnership",
					"outputs": [],
					"stateMutability": "nonpayable",
					"type": "function"
				},
				{
					"inputs": [
						{
							"internalType": "address",
							"name": "_feeWallet",
							"type": "address"
						}
					],
					"name": "setFeeWallet",
					"outputs": [],
					"stateMutability": "nonpayable",
					"type": "function"
				},
				{
					"inputs": [
						{
							"internalType": "bytes4",
							"name": "interfaceId",
							"type": "bytes4"
						}
					],
					"name": "supportsInterface",
					"outputs": [
						{
							"internalType": "bool",
							"name": "",
							"type": "bool"
						}
					],
					"stateMutability": "view",
					"type": "function"
				},
				{
					"inputs": [
						{
							"internalType": "address",
							"name": "newOwner",
							"type": "address"
						}
					],
					"name": "transferOwnership",
					"outputs": [],
					"stateMutability": "nonpayable",
					"type": "function"
				}
			],
			"devdoc": {
				"errors": {
					"OwnableInvalidOwner(address)": [
						{
							"details": "The owner is not a valid owner account. (eg. `address(0)`)"
						}
					],
					"OwnableUnauthorizedAccount(address)": [
						{
							"details": "The caller account is not authorized to perform an operation."
						}
					],
					"SafeERC20FailedOperation(address)": [
						{
							"details": "An operation with an ERC-20 token failed."
						}
					]
				},
				"kind": "dev",
				"methods": {
					"owner()": {
						"details": "Returns the address of the current owner."
					},
					"renounceOwnership()": {
						"details": "Leaves the contract without owner. It will not be possible to call `onlyOwner` functions. Can only be called by the current owner. NOTE: Renouncing ownership will leave the contract without an owner, thereby disabling any functionality that is only available to the owner."
					},
					"supportsInterface(bytes4)": {
						"details": "See {IERC165-supportsInterface}."
					},
					"transferOwnership(address)": {
						"details": "Transfers ownership of the contract to a new account (`newOwner`). Can only be called by the current owner."
					}
				},
				"version": 1
			},
			"evm": {
				"assembly": "    /* \"Carbonfi_Marketplace.sol\":431:4593  contract CarbonFiMarketplace is Ownable, ReentrancyGuard, ERC1155Holder {... */\n  mstore(0x40, 0xc0)\n    /* \"Carbonfi_Marketplace.sol\":1509:1966  constructor(... */\n  callvalue\n  dup1\n  iszero\n  tag_1\n  jumpi\n  revert(0x00, 0x00)\ntag_1:\n  pop\n  mload(0x40)\n  sub(codesize, bytecodeSize)\n  dup1\n  bytecodeSize\n  dup4\n  codecopy\n  dup2\n  dup2\n  add\n  0x40\n  mstore\n  dup2\n  add\n  swap1\n  tag_2\n  swap2\n  swap1\n  tag_3\n  jump\t// in\ntag_2:\n    /* \"Carbonfi_Marketplace.sol\":1621:1631  msg.sender */\n  caller\n    /* \"@openzeppelin/contracts/access/Ownable.sol\":1297:1298  0 */\n  0x00\n    /* \"@openzeppelin/contracts/access/Ownable.sol\":1273:1299  initialOwner == address(0) */\n  0xffffffffffffffffffffffffffffffffffffffff\n  and\n    /* \"@openzeppelin/contracts/access/Ownable.sol\":1273:1285  initialOwner */\n  dup2\n    /* \"@openzeppelin/contracts/access/Ownable.sol\":1273:1299  initialOwner == address(0) */\n  0xffffffffffffffffffffffffffffffffffffffff\n  and\n  sub\n    /* \"@openzeppelin/contracts/access/Ownable.sol\":1269:1364  if (initialOwner == address(0)) {... */\n  tag_8\n  jumpi\n    /* \"@openzeppelin/contracts/access/Ownable.sol\":1350:1351  0 */\n  0x00\n    /* \"@openzeppelin/contracts/access/Ownable.sol\":1322:1353  OwnableInvalidOwner(address(0)) */\n  mload(0x40)\n  0x1e4fbdf700000000000000000000000000000000000000000000000000000000\n  dup2\n  mstore\n  0x04\n  add\n  tag_9\n  swap2\n  swap1\n  tag_10\n  jump\t// in\ntag_9:\n  mload(0x40)\n  dup1\n  swap2\n  sub\n  swap1\n  revert\n    /* \"@openzeppelin/contracts/access/Ownable.sol\":1269:1364  if (initialOwner == address(0)) {... */\ntag_8:\n    /* \"@openzeppelin/contracts/access/Ownable.sol\":1373:1405  _transferOwnership(initialOwner) */\n  tag_11\n    /* \"@openzeppelin/contracts/access/Ownable.sol\":1392:1404  initialOwner */\n  dup2\n    /* \"@openzeppelin/contracts/access/Ownable.sol\":1373:1391  _transferOwnership */\n  shl(0x20, tag_12)\n    /* \"@openzeppelin/contracts/access/Ownable.sol\":1373:1405  _transferOwnership(initialOwner) */\n  0x20\n  shr\n  jump\t// in\ntag_11:\n    /* \"@openzeppelin/contracts/access/Ownable.sol\":1225:1412  constructor(address initialOwner) {... */\n  pop\n    /* \"@openzeppelin/contracts/security/ReentrancyGuard.sol\":1716:1717  1 */\n  0x01\n    /* \"@openzeppelin/contracts/security/ReentrancyGuard.sol\":1821:1828  _status */\n  dup1\n    /* \"@openzeppelin/contracts/security/ReentrancyGuard.sol\":1821:1843  _status = _NOT_ENTERED */\n  dup2\n  swap1\n  sstore\n  pop\n    /* \"Carbonfi_Marketplace.sol\":1673:1674  0 */\n  0x00\n    /* \"Carbonfi_Marketplace.sol\":1651:1675  _cafiToken != address(0) */\n  0xffffffffffffffffffffffffffffffffffffffff\n  and\n    /* \"Carbonfi_Marketplace.sol\":1651:1661  _cafiToken */\n  dup4\n    /* \"Carbonfi_Marketplace.sol\":1651:1675  _cafiToken != address(0) */\n  0xffffffffffffffffffffffffffffffffffffffff\n  and\n  sub\n    /* \"Carbonfi_Marketplace.sol\":1643:1698  require(_cafiToken != address(0), \"Invalid CAFI token\") */\n  tag_15\n  jumpi\n  mload(0x40)\n  0x08c379a000000000000000000000000000000000000000000000000000000000\n  dup2\n  mstore\n  0x04\n  add\n  tag_16\n  swap1\n  tag_17\n  jump\t// in\ntag_16:\n  mload(0x40)\n  dup1\n  swap2\n  sub\n  swap1\n  revert\ntag_15:\n    /* \"Carbonfi_Marketplace.sol\":1740:1741  0 */\n  0x00\n    /* \"Carbonfi_Marketplace.sol\":1716:1742  _carbonFiNFT != address(0) */\n  0xffffffffffffffffffffffffffffffffffffffff\n  and\n    /* \"Carbonfi_Marketplace.sol\":1716:1728  _carbonFiNFT */\n  dup3\n    /* \"Carbonfi_Marketplace.sol\":1716:1742  _carbonFiNFT != address(0) */\n  0xffffffffffffffffffffffffffffffffffffffff\n  and\n  sub\n    /* \"Carbonfi_Marketplace.sol\":1708:1767  require(_carbonFiNFT != address(0), \"Invalid NFT contract\") */\n  tag_18\n  jumpi\n  mload(0x40)\n  0x08c379a000000000000000000000000000000000000000000000000000000000\n  dup2\n  mstore\n  0x04\n  add\n  tag_19\n  swap1\n  tag_20\n  jump\t// in\ntag_19:\n  mload(0x40)\n  dup1\n  swap2\n  sub\n  swap1\n  revert\ntag_18:\n    /* \"Carbonfi_Marketplace.sol\":1807:1808  0 */\n  0x00\n    /* \"Carbonfi_Marketplace.sol\":1785:1809  _feeWallet != address(0) */\n  0xffffffffffffffffffffffffffffffffffffffff\n  and\n    /* \"Carbonfi_Marketplace.sol\":1785:1795  _feeWallet */\n  dup2\n    /* \"Carbonfi_Marketplace.sol\":1785:1809  _feeWallet != address(0) */\n  0xffffffffffffffffffffffffffffffffffffffff\n  and\n  sub\n    /* \"Carbonfi_Marketplace.sol\":1777:1832  require(_feeWallet != address(0), \"Invalid fee wallet\") */\n  tag_21\n  jumpi\n  mload(0x40)\n  0x08c379a000000000000000000000000000000000000000000000000000000000\n  dup2\n  mstore\n  0x04\n  add\n  tag_22\n  swap1\n  tag_23\n  jump\t// in\ntag_22:\n  mload(0x40)\n  dup1\n  swap2\n  sub\n  swap1\n  revert\ntag_21:\n    /* \"Carbonfi_Marketplace.sol\":1870:1880  _cafiToken */\n  dup3\n    /* \"Carbonfi_Marketplace.sol\":1851:1881  cafiToken = IERC20(_cafiToken) */\n  0xffffffffffffffffffffffffffffffffffffffff\n  and\n  0x80\n  dup2\n  0xffffffffffffffffffffffffffffffffffffffff\n  and\n  dup2\n  mstore\n  pop\n  pop\n    /* \"Carbonfi_Marketplace.sol\":1914:1926  _carbonFiNFT */\n  dup2\n    /* \"Carbonfi_Marketplace.sol\":1891:1927  carbonFiNFT = IERC1155(_carbonFiNFT) */\n  0xffffffffffffffffffffffffffffffffffffffff\n  and\n  0xa0\n  dup2\n  0xffffffffffffffffffffffffffffffffffffffff\n  and\n  dup2\n  mstore\n  pop\n  pop\n    /* \"Carbonfi_Marketplace.sol\":1949:1959  _feeWallet */\n  dup1\n    /* \"Carbonfi_Marketplace.sol\":1937:1946  feeWallet */\n  0x02\n  0x00\n    /* \"Carbonfi_Marketplace.sol\":1937:1959  feeWallet = _feeWallet */\n  0x0100\n  exp\n  dup2\n  sload\n  dup2\n  0xffffffffffffffffffffffffffffffffffffffff\n  mul\n  not\n  and\n  swap1\n  dup4\n  0xffffffffffffffffffffffffffffffffffffffff\n  and\n  mul\n  or\n  swap1\n  sstore\n  pop\n    /* \"Carbonfi_Marketplace.sol\":1509:1966  constructor(... */\n  pop\n  pop\n  pop\n    /* \"Carbonfi_Marketplace.sol\":431:4593  contract CarbonFiMarketplace is Ownable, ReentrancyGuard, ERC1155Holder {... */\n  jump(tag_24)\n    /* \"@openzeppelin/contracts/access/Ownable.sol\":2912:3099  function _transferOwnership(address newOwner) internal virtual {... */\ntag_12:\n    /* \"@openzeppelin/contracts/access/Ownable.sol\":2985:3001  address oldOwner */\n  0x00\n    /* \"@openzeppelin/contracts/access/Ownable.sol\":3004:3010  _owner */\n  0x00\n  0x00\n  swap1\n  sload\n  swap1\n  0x0100\n  exp\n  swap1\n  div\n  0xffffffffffffffffffffffffffffffffffffffff\n  and\n    /* \"@openzeppelin/contracts/access/Ownable.sol\":2985:3010  address oldOwner = _owner */\n  swap1\n  pop\n    /* \"@openzeppelin/contracts/access/Ownable.sol\":3029:3037  newOwner */\n  dup2\n    /* \"@openzeppelin/contracts/access/Ownable.sol\":3020:3026  _owner */\n  0x00\n  0x00\n    /* \"@openzeppelin/contracts/access/Ownable.sol\":3020:3037  _owner = newOwner */\n  0x0100\n  exp\n  dup2\n  sload\n  dup2\n  0xffffffffffffffffffffffffffffffffffffffff\n  mul\n  not\n  and\n  swap1\n  dup4\n  0xffffffffffffffffffffffffffffffffffffffff\n  and\n  mul\n  or\n  swap1\n  sstore\n  pop\n    /* \"@openzeppelin/contracts/access/Ownable.sol\":3083:3091  newOwner */\n  dup2\n    /* \"@openzeppelin/contracts/access/Ownable.sol\":3052:3092  OwnershipTransferred(oldOwner, newOwner) */\n  0xffffffffffffffffffffffffffffffffffffffff\n  and\n    /* \"@openzeppelin/contracts/access/Ownable.sol\":3073:3081  oldOwner */\n  dup2\n    /* \"@openzeppelin/contracts/access/Ownable.sol\":3052:3092  OwnershipTransferred(oldOwner, newOwner) */\n  0xffffffffffffffffffffffffffffffffffffffff\n  and\n  0x8be0079c531659141344cd1fd0a4f28419497f9722a3daafe3b4186f6b6457e0\n  mload(0x40)\n  mload(0x40)\n  dup1\n  swap2\n  sub\n  swap1\n  log3\n    /* \"@openzeppelin/contracts/access/Ownable.sol\":2975:3099  {... */\n  pop\n    /* \"@openzeppelin/contracts/access/Ownable.sol\":2912:3099  function _transferOwnership(address newOwner) internal virtual {... */\n  pop\n  jump\t// out\n    /* \"#utility.yul\":88:205   */\ntag_27:\n    /* \"#utility.yul\":197:198   */\n  0x00\n    /* \"#utility.yul\":194:195   */\n  0x00\n    /* \"#utility.yul\":187:199   */\n  revert\n    /* \"#utility.yul\":334:460   */\ntag_29:\n    /* \"#utility.yul\":371:378   */\n  0x00\n    /* \"#utility.yul\":411:453   */\n  0xffffffffffffffffffffffffffffffffffffffff\n    /* \"#utility.yul\":404:409   */\n  dup3\n    /* \"#utility.yul\":400:454   */\n  and\n    /* \"#utility.yul\":389:454   */\n  swap1\n  pop\n    /* \"#utility.yul\":334:460   */\n  swap2\n  swap1\n  pop\n  jump\t// out\n    /* \"#utility.yul\":466:562   */\ntag_30:\n    /* \"#utility.yul\":503:510   */\n  0x00\n    /* \"#utility.yul\":532:556   */\n  tag_47\n    /* \"#utility.yul\":550:555   */\n  dup3\n    /* \"#utility.yul\":532:556   */\n  tag_29\n  jump\t// in\ntag_47:\n    /* \"#utility.yul\":521:556   */\n  swap1\n  pop\n    /* \"#utility.yul\":466:562   */\n  swap2\n  swap1\n  pop\n  jump\t// out\n    /* \"#utility.yul\":568:690   */\ntag_31:\n    /* \"#utility.yul\":641:665   */\n  tag_49\n    /* \"#utility.yul\":659:664   */\n  dup2\n    /* \"#utility.yul\":641:665   */\n  tag_30\n  jump\t// in\ntag_49:\n    /* \"#utility.yul\":634:639   */\n  dup2\n    /* \"#utility.yul\":631:666   */\n  eq\n    /* \"#utility.yul\":621:684   */\n  tag_50\n  jumpi\n    /* \"#utility.yul\":680:681   */\n  0x00\n    /* \"#utility.yul\":677:678   */\n  0x00\n    /* \"#utility.yul\":670:682   */\n  revert\n    /* \"#utility.yul\":621:684   */\ntag_50:\n    /* \"#utility.yul\":568:690   */\n  pop\n  jump\t// out\n    /* \"#utility.yul\":696:839   */\ntag_32:\n    /* \"#utility.yul\":753:758   */\n  0x00\n    /* \"#utility.yul\":784:790   */\n  dup2\n    /* \"#utility.yul\":778:791   */\n  mload\n    /* \"#utility.yul\":769:791   */\n  swap1\n  pop\n    /* \"#utility.yul\":800:833   */\n  tag_52\n    /* \"#utility.yul\":827:832   */\n  dup2\n    /* \"#utility.yul\":800:833   */\n  tag_31\n  jump\t// in\ntag_52:\n    /* \"#utility.yul\":696:839   */\n  swap3\n  swap2\n  pop\n  pop\n  jump\t// out\n    /* \"#utility.yul\":845:1508   */\ntag_3:\n    /* \"#utility.yul\":933:939   */\n  0x00\n    /* \"#utility.yul\":941:947   */\n  0x00\n    /* \"#utility.yul\":949:955   */\n  0x00\n    /* \"#utility.yul\":998:1000   */\n  0x60\n    /* \"#utility.yul\":986:995   */\n  dup5\n    /* \"#utility.yul\":977:984   */\n  dup7\n    /* \"#utility.yul\":973:996   */\n  sub\n    /* \"#utility.yul\":969:1001   */\n  slt\n    /* \"#utility.yul\":966:1085   */\n  iszero\n  tag_54\n  jumpi\n    /* \"#utility.yul\":1004:1083   */\n  tag_55\n  tag_27\n  jump\t// in\ntag_55:\n    /* \"#utility.yul\":966:1085   */\ntag_54:\n    /* \"#utility.yul\":1124:1125   */\n  0x00\n    /* \"#utility.yul\":1149:1213   */\n  tag_56\n    /* \"#utility.yul\":1205:1212   */\n  dup7\n    /* \"#utility.yul\":1196:1202   */\n  dup3\n    /* \"#utility.yul\":1185:1194   */\n  dup8\n    /* \"#utility.yul\":1181:1203   */\n  add\n    /* \"#utility.yul\":1149:1213   */\n  tag_32\n  jump\t// in\ntag_56:\n    /* \"#utility.yul\":1139:1213   */\n  swap4\n  pop\n    /* \"#utility.yul\":1095:1223   */\n  pop\n    /* \"#utility.yul\":1262:1264   */\n  0x20\n    /* \"#utility.yul\":1288:1352   */\n  tag_57\n    /* \"#utility.yul\":1344:1351   */\n  dup7\n    /* \"#utility.yul\":1335:1341   */\n  dup3\n    /* \"#utility.yul\":1324:1333   */\n  dup8\n    /* \"#utility.yul\":1320:1342   */\n  add\n    /* \"#utility.yul\":1288:1352   */\n  tag_32\n  jump\t// in\ntag_57:\n    /* \"#utility.yul\":1278:1352   */\n  swap3\n  pop\n    /* \"#utility.yul\":1233:1362   */\n  pop\n    /* \"#utility.yul\":1401:1403   */\n  0x40\n    /* \"#utility.yul\":1427:1491   */\n  tag_58\n    /* \"#utility.yul\":1483:1490   */\n  dup7\n    /* \"#utility.yul\":1474:1480   */\n  dup3\n    /* \"#utility.yul\":1463:1472   */\n  dup8\n    /* \"#utility.yul\":1459:1481   */\n  add\n    /* \"#utility.yul\":1427:1491   */\n  tag_32\n  jump\t// in\ntag_58:\n    /* \"#utility.yul\":1417:1491   */\n  swap2\n  pop\n    /* \"#utility.yul\":1372:1501   */\n  pop\n    /* \"#utility.yul\":845:1508   */\n  swap3\n  pop\n  swap3\n  pop\n  swap3\n  jump\t// out\n    /* \"#utility.yul\":1514:1632   */\ntag_33:\n    /* \"#utility.yul\":1601:1625   */\n  tag_60\n    /* \"#utility.yul\":1619:1624   */\n  dup2\n    /* \"#utility.yul\":1601:1625   */\n  tag_30\n  jump\t// in\ntag_60:\n    /* \"#utility.yul\":1596:1599   */\n  dup3\n    /* \"#utility.yul\":1589:1626   */\n  mstore\n    /* \"#utility.yul\":1514:1632   */\n  pop\n  pop\n  jump\t// out\n    /* \"#utility.yul\":1638:1860   */\ntag_10:\n    /* \"#utility.yul\":1731:1735   */\n  0x00\n    /* \"#utility.yul\":1769:1771   */\n  0x20\n    /* \"#utility.yul\":1758:1767   */\n  dup3\n    /* \"#utility.yul\":1754:1772   */\n  add\n    /* \"#utility.yul\":1746:1772   */\n  swap1\n  pop\n    /* \"#utility.yul\":1782:1853   */\n  tag_62\n    /* \"#utility.yul\":1850:1851   */\n  0x00\n    /* \"#utility.yul\":1839:1848   */\n  dup4\n    /* \"#utility.yul\":1835:1852   */\n  add\n    /* \"#utility.yul\":1826:1832   */\n  dup5\n    /* \"#utility.yul\":1782:1853   */\n  tag_33\n  jump\t// in\ntag_62:\n    /* \"#utility.yul\":1638:1860   */\n  swap3\n  swap2\n  pop\n  pop\n  jump\t// out\n    /* \"#utility.yul\":1866:2035   */\ntag_34:\n    /* \"#utility.yul\":1950:1961   */\n  0x00\n    /* \"#utility.yul\":1984:1990   */\n  dup3\n    /* \"#utility.yul\":1979:1982   */\n  dup3\n    /* \"#utility.yul\":1972:1991   */\n  mstore\n    /* \"#utility.yul\":2024:2028   */\n  0x20\n    /* \"#utility.yul\":2019:2022   */\n  dup3\n    /* \"#utility.yul\":2015:2029   */\n  add\n    /* \"#utility.yul\":2000:2029   */\n  swap1\n  pop\n    /* \"#utility.yul\":1866:2035   */\n  swap3\n  swap2\n  pop\n  pop\n  jump\t// out\n    /* \"#utility.yul\":2041:2209   */\ntag_35:\n    /* \"#utility.yul\":2181:2201   */\n  0x496e76616c6964204341464920746f6b656e0000000000000000000000000000\n    /* \"#utility.yul\":2177:2178   */\n  0x00\n    /* \"#utility.yul\":2169:2175   */\n  dup3\n    /* \"#utility.yul\":2165:2179   */\n  add\n    /* \"#utility.yul\":2158:2202   */\n  mstore\n    /* \"#utility.yul\":2041:2209   */\n  pop\n  jump\t// out\n    /* \"#utility.yul\":2215:2581   */\ntag_36:\n    /* \"#utility.yul\":2357:2360   */\n  0x00\n    /* \"#utility.yul\":2378:2445   */\n  tag_66\n    /* \"#utility.yul\":2442:2444   */\n  0x12\n    /* \"#utility.yul\":2437:2440   */\n  dup4\n    /* \"#utility.yul\":2378:2445   */\n  tag_34\n  jump\t// in\ntag_66:\n    /* \"#utility.yul\":2371:2445   */\n  swap2\n  pop\n    /* \"#utility.yul\":2454:2547   */\n  tag_67\n    /* \"#utility.yul\":2543:2546   */\n  dup3\n    /* \"#utility.yul\":2454:2547   */\n  tag_35\n  jump\t// in\ntag_67:\n    /* \"#utility.yul\":2572:2574   */\n  0x20\n    /* \"#utility.yul\":2567:2570   */\n  dup3\n    /* \"#utility.yul\":2563:2575   */\n  add\n    /* \"#utility.yul\":2556:2575   */\n  swap1\n  pop\n    /* \"#utility.yul\":2215:2581   */\n  swap2\n  swap1\n  pop\n  jump\t// out\n    /* \"#utility.yul\":2587:3006   */\ntag_17:\n    /* \"#utility.yul\":2753:2757   */\n  0x00\n    /* \"#utility.yul\":2791:2793   */\n  0x20\n    /* \"#utility.yul\":2780:2789   */\n  dup3\n    /* \"#utility.yul\":2776:2794   */\n  add\n    /* \"#utility.yul\":2768:2794   */\n  swap1\n  pop\n    /* \"#utility.yul\":2840:2849   */\n  dup2\n    /* \"#utility.yul\":2834:2838   */\n  dup2\n    /* \"#utility.yul\":2830:2850   */\n  sub\n    /* \"#utility.yul\":2826:2827   */\n  0x00\n    /* \"#utility.yul\":2815:2824   */\n  dup4\n    /* \"#utility.yul\":2811:2828   */\n  add\n    /* \"#utility.yul\":2804:2851   */\n  mstore\n    /* \"#utility.yul\":2868:2999   */\n  tag_69\n    /* \"#utility.yul\":2994:2998   */\n  dup2\n    /* \"#utility.yul\":2868:2999   */\n  tag_36\n  jump\t// in\ntag_69:\n    /* \"#utility.yul\":2860:2999   */\n  swap1\n  pop\n    /* \"#utility.yul\":2587:3006   */\n  swap2\n  swap1\n  pop\n  jump\t// out\n    /* \"#utility.yul\":3012:3182   */\ntag_37:\n    /* \"#utility.yul\":3152:3174   */\n  0x496e76616c6964204e465420636f6e7472616374000000000000000000000000\n    /* \"#utility.yul\":3148:3149   */\n  0x00\n    /* \"#utility.yul\":3140:3146   */\n  dup3\n    /* \"#utility.yul\":3136:3150   */\n  add\n    /* \"#utility.yul\":3129:3175   */\n  mstore\n    /* \"#utility.yul\":3012:3182   */\n  pop\n  jump\t// out\n    /* \"#utility.yul\":3188:3554   */\ntag_38:\n    /* \"#utility.yul\":3330:3333   */\n  0x00\n    /* \"#utility.yul\":3351:3418   */\n  tag_72\n    /* \"#utility.yul\":3415:3417   */\n  0x14\n    /* \"#utility.yul\":3410:3413   */\n  dup4\n    /* \"#utility.yul\":3351:3418   */\n  tag_34\n  jump\t// in\ntag_72:\n    /* \"#utility.yul\":3344:3418   */\n  swap2\n  pop\n    /* \"#utility.yul\":3427:3520   */\n  tag_73\n    /* \"#utility.yul\":3516:3519   */\n  dup3\n    /* \"#utility.yul\":3427:3520   */\n  tag_37\n  jump\t// in\ntag_73:\n    /* \"#utility.yul\":3545:3547   */\n  0x20\n    /* \"#utility.yul\":3540:3543   */\n  dup3\n    /* \"#utility.yul\":3536:3548   */\n  add\n    /* \"#utility.yul\":3529:3548   */\n  swap1\n  pop\n    /* \"#utility.yul\":3188:3554   */\n  swap2\n  swap1\n  pop\n  jump\t// out\n    /* \"#utility.yul\":3560:3979   */\ntag_20:\n    /* \"#utility.yul\":3726:3730   */\n  0x00\n    /* \"#utility.yul\":3764:3766   */\n  0x20\n    /* \"#utility.yul\":3753:3762   */\n  dup3\n    /* \"#utility.yul\":3749:3767   */\n  add\n    /* \"#utility.yul\":3741:3767   */\n  swap1\n  pop\n    /* \"#utility.yul\":3813:3822   */\n  dup2\n    /* \"#utility.yul\":3807:3811   */\n  dup2\n    /* \"#utility.yul\":3803:3823   */\n  sub\n    /* \"#utility.yul\":3799:3800   */\n  0x00\n    /* \"#utility.yul\":3788:3797   */\n  dup4\n    /* \"#utility.yul\":3784:3801   */\n  add\n    /* \"#utility.yul\":3777:3824   */\n  mstore\n    /* \"#utility.yul\":3841:3972   */\n  tag_75\n    /* \"#utility.yul\":3967:3971   */\n  dup2\n    /* \"#utility.yul\":3841:3972   */\n  tag_38\n  jump\t// in\ntag_75:\n    /* \"#utility.yul\":3833:3972   */\n  swap1\n  pop\n    /* \"#utility.yul\":3560:3979   */\n  swap2\n  swap1\n  pop\n  jump\t// out\n    /* \"#utility.yul\":3985:4153   */\ntag_39:\n    /* \"#utility.yul\":4125:4145   */\n  0x496e76616c6964206665652077616c6c65740000000000000000000000000000\n    /* \"#utility.yul\":4121:4122   */\n  0x00\n    /* \"#utility.yul\":4113:4119   */\n  dup3\n    /* \"#utility.yul\":4109:4123   */\n  add\n    /* \"#utility.yul\":4102:4146   */\n  mstore\n    /* \"#utility.yul\":3985:4153   */\n  pop\n  jump\t// out\n    /* \"#utility.yul\":4159:4525   */\ntag_40:\n    /* \"#utility.yul\":4301:4304   */\n  0x00\n    /* \"#utility.yul\":4322:4389   */\n  tag_78\n    /* \"#utility.yul\":4386:4388   */\n  0x12\n    /* \"#utility.yul\":4381:4384   */\n  dup4\n    /* \"#utility.yul\":4322:4389   */\n  tag_34\n  jump\t// in\ntag_78:\n    /* \"#utility.yul\":4315:4389   */\n  swap2\n  pop\n    /* \"#utility.yul\":4398:4491   */\n  tag_79\n    /* \"#utility.yul\":4487:4490   */\n  dup3\n    /* \"#utility.yul\":4398:4491   */\n  tag_39\n  jump\t// in\ntag_79:\n    /* \"#utility.yul\":4516:4518   */\n  0x20\n    /* \"#utility.yul\":4511:4514   */\n  dup3\n    /* \"#utility.yul\":4507:4519   */\n  add\n    /* \"#utility.yul\":4500:4519   */\n  swap1\n  pop\n    /* \"#utility.yul\":4159:4525   */\n  swap2\n  swap1\n  pop\n  jump\t// out\n    /* \"#utility.yul\":4531:4950   */\ntag_23:\n    /* \"#utility.yul\":4697:4701   */\n  0x00\n    /* \"#utility.yul\":4735:4737   */\n  0x20\n    /* \"#utility.yul\":4724:4733   */\n  dup3\n    /* \"#utility.yul\":4720:4738   */\n  add\n    /* \"#utility.yul\":4712:4738   */\n  swap1\n  pop\n    /* \"#utility.yul\":4784:4793   */\n  dup2\n    /* \"#utility.yul\":4778:4782   */\n  dup2\n    /* \"#utility.yul\":4774:4794   */\n  sub\n    /* \"#utility.yul\":4770:4771   */\n  0x00\n    /* \"#utility.yul\":4759:4768   */\n  dup4\n    /* \"#utility.yul\":4755:4772   */\n  add\n    /* \"#utility.yul\":4748:4795   */\n  mstore\n    /* \"#utility.yul\":4812:4943   */\n  tag_81\n    /* \"#utility.yul\":4938:4942   */\n  dup2\n    /* \"#utility.yul\":4812:4943   */\n  tag_40\n  jump\t// in\ntag_81:\n    /* \"#utility.yul\":4804:4943   */\n  swap1\n  pop\n    /* \"#utility.yul\":4531:4950   */\n  swap2\n  swap1\n  pop\n  jump\t// out\n    /* \"Carbonfi_Marketplace.sol\":431:4593  contract CarbonFiMarketplace is Ownable, ReentrancyGuard, ERC1155Holder {... */\ntag_24:\n  mload(0x80)\n  mload(0xa0)\n  codecopy(0x00, dataOffset(sub_0), dataSize(sub_0))\n  0x00\n  assignImmutable(\"0x992b2834377aca810e18ed7e283a2289a822c850914d1e3ce431b6e3563cb371\")\n  0x00\n  assignImmutable(\"0x0878797cdfc1ddb1f7dac03a85224472dc2a836f7203bfa5d1dcbed3a851ef97\")\n  return(0x00, dataSize(sub_0))\nstop\n\nsub_0: assembly {\n        /* \"Carbonfi_Marketplace.sol\":431:4593  contract CarbonFiMarketplace is Ownable, ReentrancyGuard, ERC1155Holder {... */\n      mstore(0x40, 0x80)\n      callvalue\n      dup1\n      iszero\n      tag_1\n      jumpi\n      revert(0x00, 0x00)\n    tag_1:\n      pop\n      jumpi(tag_2, lt(calldatasize, 0x04))\n      shr(0xe0, calldataload(0x00))\n      dup1\n      0xbc197c81\n      gt\n      tag_21\n      jumpi\n      dup1\n      0xec16b94a\n      gt\n      tag_22\n      jumpi\n      dup1\n      0xec16b94a\n      eq\n      tag_16\n      jumpi\n      dup1\n      0xf23a6e61\n      eq\n      tag_17\n      jumpi\n      dup1\n      0xf25f4b56\n      eq\n      tag_18\n      jumpi\n      dup1\n      0xf2fde38b\n      eq\n      tag_19\n      jumpi\n      dup1\n      0xf6b45c46\n      eq\n      tag_20\n      jumpi\n      jump(tag_2)\n    tag_22:\n      dup1\n      0xbc197c81\n      eq\n      tag_12\n      jumpi\n      dup1\n      0xddbcb5fa\n      eq\n      tag_13\n      jumpi\n      dup1\n      0xe215f1ca\n      eq\n      tag_14\n      jumpi\n      dup1\n      0xeaf98d23\n      eq\n      tag_15\n      jumpi\n      jump(tag_2)\n    tag_21:\n      dup1\n      0x8da5cb5b\n      gt\n      tag_23\n      jumpi\n      dup1\n      0x8da5cb5b\n      eq\n      tag_7\n      jumpi\n      dup1\n      0x90d49b9d\n      eq\n      tag_8\n      jumpi\n      dup1\n      0x927fbfc8\n      eq\n      tag_9\n      jumpi\n      dup1\n      0x95ccea67\n      eq\n      tag_10\n      jumpi\n      dup1\n      0xad9f20a6\n      eq\n      tag_11\n      jumpi\n      jump(tag_2)\n    tag_23:\n      dup1\n      0x01ffc9a7\n      eq\n      tag_3\n      jumpi\n      dup1\n      0x305a67a8\n      eq\n      tag_4\n      jumpi\n      dup1\n      0x58a0bde3\n      eq\n      tag_5\n      jumpi\n      dup1\n      0x715018a6\n      eq\n      tag_6\n      jumpi\n    tag_2:\n      revert(0x00, 0x00)\n        /* \"Carbonfi_Marketplace.sol\":4411:4591  function supportsInterface(... */\n    tag_3:\n      tag_24\n      0x04\n      dup1\n      calldatasize\n      sub\n      dup2\n      add\n      swap1\n      tag_25\n      swap2\n      swap1\n      tag_26\n      jump\t// in\n    tag_25:\n      tag_27\n      jump\t// in\n    tag_24:\n      mload(0x40)\n      tag_28\n      swap2\n      swap1\n      tag_29\n      jump\t// in\n    tag_28:\n      mload(0x40)\n      dup1\n      swap2\n      sub\n      swap1\n      return\n        /* \"Carbonfi_Marketplace.sol\":3765:4012  function cancelListing(uint256 tokenId) external nonReentrant {... */\n    tag_4:\n      tag_30\n      0x04\n      dup1\n      calldatasize\n      sub\n      dup2\n      add\n      swap1\n      tag_31\n      swap2\n      swap1\n      tag_32\n      jump\t// in\n    tag_31:\n      tag_33\n      jump\t// in\n    tag_30:\n      stop\n        /* \"Carbonfi_Marketplace.sol\":542:575  IERC20 public immutable cafiToken */\n    tag_5:\n      tag_34\n      tag_35\n      jump\t// in\n    tag_34:\n      mload(0x40)\n      tag_36\n      swap2\n      swap1\n      tag_37\n      jump\t// in\n    tag_36:\n      mload(0x40)\n      dup1\n      swap2\n      sub\n      swap1\n      return\n        /* \"@openzeppelin/contracts/access/Ownable.sol\":2293:2394  function renounceOwnership() public virtual onlyOwner {... */\n    tag_6:\n      tag_38\n      tag_39\n      jump\t// in\n    tag_38:\n      stop\n        /* \"@openzeppelin/contracts/access/Ownable.sol\":1638:1723  function owner() public view virtual returns (address) {... */\n    tag_7:\n      tag_40\n      tag_41\n      jump\t// in\n    tag_40:\n      mload(0x40)\n      tag_42\n      swap2\n      swap1\n      tag_43\n      jump\t// in\n    tag_42:\n      mload(0x40)\n      dup1\n      swap2\n      sub\n      swap1\n      return\n        /* \"Carbonfi_Marketplace.sol\":4018:4226  function setFeeWallet(address _feeWallet) external onlyOwner {... */\n    tag_8:\n      tag_44\n      0x04\n      dup1\n      calldatasize\n      sub\n      dup2\n      add\n      swap1\n      tag_45\n      swap2\n      swap1\n      tag_46\n      jump\t// in\n    tag_45:\n      tag_47\n      jump\t// in\n    tag_44:\n      stop\n        /* \"Carbonfi_Marketplace.sol\":955:1018  mapping(uint256 => mapping(address => Listing)) public listings */\n    tag_9:\n      tag_48\n      0x04\n      dup1\n      calldatasize\n      sub\n      dup2\n      add\n      swap1\n      tag_49\n      swap2\n      swap1\n      tag_50\n      jump\t// in\n    tag_49:\n      tag_51\n      jump\t// in\n    tag_48:\n      mload(0x40)\n      tag_52\n      swap5\n      swap4\n      swap3\n      swap2\n      swap1\n      tag_53\n      jump\t// in\n    tag_52:\n      mload(0x40)\n      dup1\n      swap2\n      sub\n      swap1\n      return\n        /* \"Carbonfi_Marketplace.sol\":4232:4405  function emergencyWithdraw(... */\n    tag_10:\n      tag_54\n      0x04\n      dup1\n      calldatasize\n      sub\n      dup2\n      add\n      swap1\n      tag_55\n      swap2\n      swap1\n      tag_56\n      jump\t// in\n    tag_55:\n      tag_57\n      jump\t// in\n    tag_54:\n      stop\n        /* \"Carbonfi_Marketplace.sol\":741:778  uint256 public constant MIN_PRICE = 1 */\n    tag_11:\n      tag_58\n      tag_59\n      jump\t// in\n    tag_58:\n      mload(0x40)\n      tag_60\n      swap2\n      swap1\n      tag_61\n      jump\t// in\n    tag_60:\n      mload(0x40)\n      dup1\n      swap2\n      sub\n      swap1\n      return\n        /* \"@openzeppelin/contracts/token/ERC1155/utils/ERC1155Holder.sol\":1102:1349  function onERC1155BatchReceived(... */\n    tag_12:\n      tag_62\n      0x04\n      dup1\n      calldatasize\n      sub\n      dup2\n      add\n      swap1\n      tag_63\n      swap2\n      swap1\n      tag_64\n      jump\t// in\n    tag_63:\n      tag_65\n      jump\t// in\n    tag_62:\n      mload(0x40)\n      tag_66\n      swap2\n      swap1\n      tag_67\n      jump\t// in\n    tag_66:\n      mload(0x40)\n      dup1\n      swap2\n      sub\n      swap1\n      return\n        /* \"Carbonfi_Marketplace.sol\":697:735  uint256 public constant MIN_AMOUNT = 1 */\n    tag_13:\n      tag_68\n      tag_69\n      jump\t// in\n    tag_68:\n      mload(0x40)\n      tag_70\n      swap2\n      swap1\n      tag_61\n      jump\t// in\n    tag_70:\n      mload(0x40)\n      dup1\n      swap2\n      sub\n      swap1\n      return\n        /* \"Carbonfi_Marketplace.sol\":581:618  IERC1155 public immutable carbonFiNFT */\n    tag_14:\n      tag_71\n      tag_72\n      jump\t// in\n    tag_71:\n      mload(0x40)\n      tag_73\n      swap2\n      swap1\n      tag_74\n      jump\t// in\n    tag_73:\n      mload(0x40)\n      dup1\n      swap2\n      sub\n      swap1\n      return\n        /* \"Carbonfi_Marketplace.sol\":625:666  uint256 public constant FEE_PERCENT = 100 */\n    tag_15:\n      tag_75\n      tag_76\n      jump\t// in\n    tag_75:\n      mload(0x40)\n      tag_77\n      swap2\n      swap1\n      tag_61\n      jump\t// in\n    tag_77:\n      mload(0x40)\n      dup1\n      swap2\n      sub\n      swap1\n      return\n        /* \"Carbonfi_Marketplace.sol\":1972:2754  function listItem(... */\n    tag_16:\n      tag_78\n      0x04\n      dup1\n      calldatasize\n      sub\n      dup2\n      add\n      swap1\n      tag_79\n      swap2\n      swap1\n      tag_80\n      jump\t// in\n    tag_79:\n      tag_81\n      jump\t// in\n    tag_78:\n      stop\n        /* \"@openzeppelin/contracts/token/ERC1155/utils/ERC1155Holder.sol\":877:1096  function onERC1155Received(... */\n    tag_17:\n      tag_82\n      0x04\n      dup1\n      calldatasize\n      sub\n      dup2\n      add\n      swap1\n      tag_83\n      swap2\n      swap1\n      tag_84\n      jump\t// in\n    tag_83:\n      tag_85\n      jump\t// in\n    tag_82:\n      mload(0x40)\n      tag_86\n      swap2\n      swap1\n      tag_67\n      jump\t// in\n    tag_86:\n      mload(0x40)\n      dup1\n      swap2\n      sub\n      swap1\n      return\n        /* \"Carbonfi_Marketplace.sol\":789:813  address public feeWallet */\n    tag_18:\n      tag_87\n      tag_88\n      jump\t// in\n    tag_87:\n      mload(0x40)\n      tag_89\n      swap2\n      swap1\n      tag_43\n      jump\t// in\n    tag_89:\n      mload(0x40)\n      dup1\n      swap2\n      sub\n      swap1\n      return\n        /* \"@openzeppelin/contracts/access/Ownable.sol\":2543:2758  function transferOwnership(address newOwner) public virtual onlyOwner {... */\n    tag_19:\n      tag_90\n      0x04\n      dup1\n      calldatasize\n      sub\n      dup2\n      add\n      swap1\n      tag_91\n      swap2\n      swap1\n      tag_46\n      jump\t// in\n    tag_91:\n      tag_92\n      jump\t// in\n    tag_90:\n      stop\n        /* \"Carbonfi_Marketplace.sol\":2760:3759  function buyItem(... */\n    tag_20:\n      tag_93\n      0x04\n      dup1\n      calldatasize\n      sub\n      dup2\n      add\n      swap1\n      tag_94\n      swap2\n      swap1\n      tag_95\n      jump\t// in\n    tag_94:\n      tag_96\n      jump\t// in\n    tag_93:\n      stop\n        /* \"Carbonfi_Marketplace.sol\":4411:4591  function supportsInterface(... */\n    tag_27:\n        /* \"Carbonfi_Marketplace.sol\":4525:4529  bool */\n      0x00\n        /* \"Carbonfi_Marketplace.sol\":4548:4584  super.supportsInterface(interfaceId) */\n      tag_98\n        /* \"Carbonfi_Marketplace.sol\":4572:4583  interfaceId */\n      dup3\n        /* \"Carbonfi_Marketplace.sol\":4548:4571  super.supportsInterface */\n      tag_99\n        /* \"Carbonfi_Marketplace.sol\":4548:4584  super.supportsInterface(interfaceId) */\n      jump\t// in\n    tag_98:\n        /* \"Carbonfi_Marketplace.sol\":4541:4584  return super.supportsInterface(interfaceId) */\n      swap1\n      pop\n        /* \"Carbonfi_Marketplace.sol\":4411:4591  function supportsInterface(... */\n      swap2\n      swap1\n      pop\n      jump\t// out\n        /* \"Carbonfi_Marketplace.sol\":3765:4012  function cancelListing(uint256 tokenId) external nonReentrant {... */\n    tag_33:\n        /* \"@openzeppelin/contracts/security/ReentrancyGuard.sol\":2261:2282  _nonReentrantBefore() */\n      tag_101\n        /* \"@openzeppelin/contracts/security/ReentrancyGuard.sol\":2261:2280  _nonReentrantBefore */\n      tag_102\n        /* \"@openzeppelin/contracts/security/ReentrancyGuard.sol\":2261:2282  _nonReentrantBefore() */\n      jump\t// in\n    tag_101:\n        /* \"Carbonfi_Marketplace.sol\":3884:3885  0 */\n      0x00\n        /* \"Carbonfi_Marketplace.sol\":3845:3853  listings */\n      0x03\n        /* \"Carbonfi_Marketplace.sol\":3845:3862  listings[tokenId] */\n      0x00\n        /* \"Carbonfi_Marketplace.sol\":3854:3861  tokenId */\n      dup4\n        /* \"Carbonfi_Marketplace.sol\":3845:3862  listings[tokenId] */\n      dup2\n      mstore\n      0x20\n      add\n      swap1\n      dup2\n      mstore\n      0x20\n      add\n      0x00\n      keccak256\n        /* \"Carbonfi_Marketplace.sol\":3845:3874  listings[tokenId][msg.sender] */\n      0x00\n        /* \"Carbonfi_Marketplace.sol\":3863:3873  msg.sender */\n      caller\n        /* \"Carbonfi_Marketplace.sol\":3845:3874  listings[tokenId][msg.sender] */\n      0xffffffffffffffffffffffffffffffffffffffff\n      and\n      0xffffffffffffffffffffffffffffffffffffffff\n      and\n      dup2\n      mstore\n      0x20\n      add\n      swap1\n      dup2\n      mstore\n      0x20\n      add\n      0x00\n      keccak256\n        /* \"Carbonfi_Marketplace.sol\":3845:3881  listings[tokenId][msg.sender].amount */\n      0x02\n      add\n      sload\n        /* \"Carbonfi_Marketplace.sol\":3845:3885  listings[tokenId][msg.sender].amount > 0 */\n      gt\n        /* \"Carbonfi_Marketplace.sol\":3837:3907  require(listings[tokenId][msg.sender].amount > 0, \"No active listing\") */\n      tag_104\n      jumpi\n      mload(0x40)\n      0x08c379a000000000000000000000000000000000000000000000000000000000\n      dup2\n      mstore\n      0x04\n      add\n      tag_105\n      swap1\n      tag_106\n      jump\t// in\n    tag_105:\n      mload(0x40)\n      dup1\n      swap2\n      sub\n      swap1\n      revert\n    tag_104:\n        /* \"Carbonfi_Marketplace.sol\":3924:3932  listings */\n      0x03\n        /* \"Carbonfi_Marketplace.sol\":3924:3941  listings[tokenId] */\n      0x00\n        /* \"Carbonfi_Marketplace.sol\":3933:3940  tokenId */\n      dup3\n        /* \"Carbonfi_Marketplace.sol\":3924:3941  listings[tokenId] */\n      dup2\n      mstore\n      0x20\n      add\n      swap1\n      dup2\n      mstore\n      0x20\n      add\n      0x00\n      keccak256\n        /* \"Carbonfi_Marketplace.sol\":3924:3953  listings[tokenId][msg.sender] */\n      0x00\n        /* \"Carbonfi_Marketplace.sol\":3942:3952  msg.sender */\n      caller\n        /* \"Carbonfi_Marketplace.sol\":3924:3953  listings[tokenId][msg.sender] */\n      0xffffffffffffffffffffffffffffffffffffffff\n      and\n      0xffffffffffffffffffffffffffffffffffffffff\n      and\n      dup2\n      mstore\n      0x20\n      add\n      swap1\n      dup2\n      mstore\n      0x20\n      add\n      0x00\n      keccak256\n      0x00\n        /* \"Carbonfi_Marketplace.sol\":3917:3953  delete listings[tokenId][msg.sender] */\n      0x00\n      dup3\n      add\n      exp(0x0100, 0x00)\n      dup2\n      sload\n      swap1\n      0xffffffffffffffffffffffffffffffffffffffff\n      mul\n      not\n      and\n      swap1\n      sstore\n      0x01\n      dup3\n      add\n      0x00\n      swap1\n      sstore\n      0x02\n      dup3\n      add\n      0x00\n      swap1\n      sstore\n      0x03\n      dup3\n      add\n      0x00\n      swap1\n      sstore\n      pop\n      pop\n        /* \"Carbonfi_Marketplace.sol\":3997:4004  tokenId */\n      dup1\n        /* \"Carbonfi_Marketplace.sol\":3985:3995  msg.sender */\n      caller\n        /* \"Carbonfi_Marketplace.sol\":3968:4005  ListingCancelled(msg.sender, tokenId) */\n      0xffffffffffffffffffffffffffffffffffffffff\n      and\n      0x93ec4766fcd2d9dfdceab8f2e13ba0d9d826645cf03167fdb92b3b7359b5248c\n      mload(0x40)\n      mload(0x40)\n      dup1\n      swap2\n      sub\n      swap1\n      log3\n        /* \"@openzeppelin/contracts/security/ReentrancyGuard.sol\":2303:2323  _nonReentrantAfter() */\n      tag_107\n        /* \"@openzeppelin/contracts/security/ReentrancyGuard.sol\":2303:2321  _nonReentrantAfter */\n      tag_108\n        /* \"@openzeppelin/contracts/security/ReentrancyGuard.sol\":2303:2323  _nonReentrantAfter() */\n      jump\t// in\n    tag_107:\n        /* \"Carbonfi_Marketplace.sol\":3765:4012  function cancelListing(uint256 tokenId) external nonReentrant {... */\n      pop\n      jump\t// out\n        /* \"Carbonfi_Marketplace.sol\":542:575  IERC20 public immutable cafiToken */\n    tag_35:\n      immutable(\"0x0878797cdfc1ddb1f7dac03a85224472dc2a836f7203bfa5d1dcbed3a851ef97\")\n      dup2\n      jump\t// out\n        /* \"@openzeppelin/contracts/access/Ownable.sol\":2293:2394  function renounceOwnership() public virtual onlyOwner {... */\n    tag_39:\n        /* \"@openzeppelin/contracts/access/Ownable.sol\":1531:1544  _checkOwner() */\n      tag_110\n        /* \"@openzeppelin/contracts/access/Ownable.sol\":1531:1542  _checkOwner */\n      tag_111\n        /* \"@openzeppelin/contracts/access/Ownable.sol\":1531:1544  _checkOwner() */\n      jump\t// in\n    tag_110:\n        /* \"@openzeppelin/contracts/access/Ownable.sol\":2357:2387  _transferOwnership(address(0)) */\n      tag_113\n        /* \"@openzeppelin/contracts/access/Ownable.sol\":2384:2385  0 */\n      0x00\n        /* \"@openzeppelin/contracts/access/Ownable.sol\":2357:2375  _transferOwnership */\n      tag_114\n        /* \"@openzeppelin/contracts/access/Ownable.sol\":2357:2387  _transferOwnership(address(0)) */\n      jump\t// in\n    tag_113:\n        /* \"@openzeppelin/contracts/access/Ownable.sol\":2293:2394  function renounceOwnership() public virtual onlyOwner {... */\n      jump\t// out\n        /* \"@openzeppelin/contracts/access/Ownable.sol\":1638:1723  function owner() public view virtual returns (address) {... */\n    tag_41:\n        /* \"@openzeppelin/contracts/access/Ownable.sol\":1684:1691  address */\n      0x00\n        /* \"@openzeppelin/contracts/access/Ownable.sol\":1710:1716  _owner */\n      0x00\n      0x00\n      swap1\n      sload\n      swap1\n      0x0100\n      exp\n      swap1\n      div\n      0xffffffffffffffffffffffffffffffffffffffff\n      and\n        /* \"@openzeppelin/contracts/access/Ownable.sol\":1703:1716  return _owner */\n      swap1\n      pop\n        /* \"@openzeppelin/contracts/access/Ownable.sol\":1638:1723  function owner() public view virtual returns (address) {... */\n      swap1\n      jump\t// out\n        /* \"Carbonfi_Marketplace.sol\":4018:4226  function setFeeWallet(address _feeWallet) external onlyOwner {... */\n    tag_47:\n        /* \"@openzeppelin/contracts/access/Ownable.sol\":1531:1544  _checkOwner() */\n      tag_117\n        /* \"@openzeppelin/contracts/access/Ownable.sol\":1531:1542  _checkOwner */\n      tag_111\n        /* \"@openzeppelin/contracts/access/Ownable.sol\":1531:1544  _checkOwner() */\n      jump\t// in\n    tag_117:\n        /* \"Carbonfi_Marketplace.sol\":4119:4120  0 */\n      0x00\n        /* \"Carbonfi_Marketplace.sol\":4097:4121  _feeWallet != address(0) */\n      0xffffffffffffffffffffffffffffffffffffffff\n      and\n        /* \"Carbonfi_Marketplace.sol\":4097:4107  _feeWallet */\n      dup2\n        /* \"Carbonfi_Marketplace.sol\":4097:4121  _feeWallet != address(0) */\n      0xffffffffffffffffffffffffffffffffffffffff\n      and\n      sub\n        /* \"Carbonfi_Marketplace.sol\":4089:4144  require(_feeWallet != address(0), \"Invalid fee wallet\") */\n      tag_119\n      jumpi\n      mload(0x40)\n      0x08c379a000000000000000000000000000000000000000000000000000000000\n      dup2\n      mstore\n      0x04\n      add\n      tag_120\n      swap1\n      tag_121\n      jump\t// in\n    tag_120:\n      mload(0x40)\n      dup1\n      swap2\n      sub\n      swap1\n      revert\n    tag_119:\n        /* \"Carbonfi_Marketplace.sol\":4166:4176  _feeWallet */\n      dup1\n        /* \"Carbonfi_Marketplace.sol\":4154:4163  feeWallet */\n      0x02\n      0x00\n        /* \"Carbonfi_Marketplace.sol\":4154:4176  feeWallet = _feeWallet */\n      0x0100\n      exp\n      dup2\n      sload\n      dup2\n      0xffffffffffffffffffffffffffffffffffffffff\n      mul\n      not\n      and\n      swap1\n      dup4\n      0xffffffffffffffffffffffffffffffffffffffff\n      and\n      mul\n      or\n      swap1\n      sstore\n      pop\n        /* \"Carbonfi_Marketplace.sol\":4208:4218  _feeWallet */\n      dup1\n        /* \"Carbonfi_Marketplace.sol\":4191:4219  FeeWalletUpdated(_feeWallet) */\n      0xffffffffffffffffffffffffffffffffffffffff\n      and\n      0x29acee77dafcfa0143d74a7ea236018f3a6e1fa71e27fc59bbfbc6b8ca8edccd\n      mload(0x40)\n      mload(0x40)\n      dup1\n      swap2\n      sub\n      swap1\n      log2\n        /* \"Carbonfi_Marketplace.sol\":4018:4226  function setFeeWallet(address _feeWallet) external onlyOwner {... */\n      pop\n      jump\t// out\n        /* \"Carbonfi_Marketplace.sol\":955:1018  mapping(uint256 => mapping(address => Listing)) public listings */\n    tag_51:\n      mstore(0x20, 0x03)\n      dup2\n      0x00\n      mstore\n      mstore(0x20, keccak256(0x00, 0x40))\n      dup1\n      0x00\n      mstore\n      keccak256(0x00, 0x40)\n      0x00\n      swap2\n      pop\n      swap2\n      pop\n      pop\n      dup1\n      0x00\n      add\n      0x00\n      swap1\n      sload\n      swap1\n      0x0100\n      exp\n      swap1\n      div\n      0xffffffffffffffffffffffffffffffffffffffff\n      and\n      swap1\n      dup1\n      0x01\n      add\n      sload\n      swap1\n      dup1\n      0x02\n      add\n      sload\n      swap1\n      dup1\n      0x03\n      add\n      sload\n      swap1\n      pop\n      dup5\n      jump\t// out\n        /* \"Carbonfi_Marketplace.sol\":4232:4405  function emergencyWithdraw(... */\n    tag_57:\n        /* \"@openzeppelin/contracts/access/Ownable.sol\":1531:1544  _checkOwner() */\n      tag_123\n        /* \"@openzeppelin/contracts/access/Ownable.sol\":1531:1542  _checkOwner */\n      tag_111\n        /* \"@openzeppelin/contracts/access/Ownable.sol\":1531:1544  _checkOwner() */\n      jump\t// in\n    tag_123:\n        /* \"Carbonfi_Marketplace.sol\":4348:4398  IERC20(tokenAddress).safeTransfer(owner(), amount) */\n      tag_125\n        /* \"Carbonfi_Marketplace.sol\":4382:4389  owner() */\n      tag_126\n        /* \"Carbonfi_Marketplace.sol\":4382:4387  owner */\n      tag_41\n        /* \"Carbonfi_Marketplace.sol\":4382:4389  owner() */\n      jump\t// in\n    tag_126:\n        /* \"Carbonfi_Marketplace.sol\":4391:4397  amount */\n      dup3\n        /* \"Carbonfi_Marketplace.sol\":4355:4367  tokenAddress */\n      dup5\n        /* \"Carbonfi_Marketplace.sol\":4348:4381  IERC20(tokenAddress).safeTransfer */\n      0xffffffffffffffffffffffffffffffffffffffff\n      and\n      tag_127\n      swap1\n        /* \"Carbonfi_Marketplace.sol\":4348:4398  IERC20(tokenAddress).safeTransfer(owner(), amount) */\n      swap3\n      swap2\n      swap1\n      0xffffffff\n      and\n      jump\t// in\n    tag_125:\n        /* \"Carbonfi_Marketplace.sol\":4232:4405  function emergencyWithdraw(... */\n      pop\n      pop\n      jump\t// out\n        /* \"Carbonfi_Marketplace.sol\":741:778  uint256 public constant MIN_PRICE = 1 */\n    tag_59:\n        /* \"Carbonfi_Marketplace.sol\":777:778  1 */\n      0x01\n        /* \"Carbonfi_Marketplace.sol\":741:778  uint256 public constant MIN_PRICE = 1 */\n      dup2\n      jump\t// out\n        /* \"@openzeppelin/contracts/token/ERC1155/utils/ERC1155Holder.sol\":1102:1349  function onERC1155BatchReceived(... */\n    tag_65:\n        /* \"@openzeppelin/contracts/token/ERC1155/utils/ERC1155Holder.sol\":1281:1287  bytes4 */\n      0x00\n        /* \"@openzeppelin/contracts/token/ERC1155/utils/ERC1155Holder.sol\":1306:1342  this.onERC1155BatchReceived.selector */\n      shl(0xe0, 0xbc197c81)\n        /* \"@openzeppelin/contracts/token/ERC1155/utils/ERC1155Holder.sol\":1299:1342  return this.onERC1155BatchReceived.selector */\n      swap1\n      pop\n        /* \"@openzeppelin/contracts/token/ERC1155/utils/ERC1155Holder.sol\":1102:1349  function onERC1155BatchReceived(... */\n      swap6\n      swap5\n      pop\n      pop\n      pop\n      pop\n      pop\n      jump\t// out\n        /* \"Carbonfi_Marketplace.sol\":697:735  uint256 public constant MIN_AMOUNT = 1 */\n    tag_69:\n        /* \"Carbonfi_Marketplace.sol\":734:735  1 */\n      0x01\n        /* \"Carbonfi_Marketplace.sol\":697:735  uint256 public constant MIN_AMOUNT = 1 */\n      dup2\n      jump\t// out\n        /* \"Carbonfi_Marketplace.sol\":581:618  IERC1155 public immutable carbonFiNFT */\n    tag_72:\n      immutable(\"0x992b2834377aca810e18ed7e283a2289a822c850914d1e3ce431b6e3563cb371\")\n      dup2\n      jump\t// out\n        /* \"Carbonfi_Marketplace.sol\":625:666  uint256 public constant FEE_PERCENT = 100 */\n    tag_76:\n        /* \"Carbonfi_Marketplace.sol\":663:666  100 */\n      0x64\n        /* \"Carbonfi_Marketplace.sol\":625:666  uint256 public constant FEE_PERCENT = 100 */\n      dup2\n      jump\t// out\n        /* \"Carbonfi_Marketplace.sol\":1972:2754  function listItem(... */\n    tag_81:\n        /* \"@openzeppelin/contracts/security/ReentrancyGuard.sol\":2261:2282  _nonReentrantBefore() */\n      tag_130\n        /* \"@openzeppelin/contracts/security/ReentrancyGuard.sol\":2261:2280  _nonReentrantBefore */\n      tag_102\n        /* \"@openzeppelin/contracts/security/ReentrancyGuard.sol\":2261:2282  _nonReentrantBefore() */\n      jump\t// in\n    tag_130:\n        /* \"Carbonfi_Marketplace.sol\":734:735  1 */\n      0x01\n        /* \"Carbonfi_Marketplace.sol\":2115:2121  amount */\n      dup3\n        /* \"Carbonfi_Marketplace.sol\":2115:2135  amount >= MIN_AMOUNT */\n      lt\n      iszero\n        /* \"Carbonfi_Marketplace.sol\":2107:2156  require(amount >= MIN_AMOUNT, \"Amount too small\") */\n      tag_132\n      jumpi\n      mload(0x40)\n      0x08c379a000000000000000000000000000000000000000000000000000000000\n      dup2\n      mstore\n      0x04\n      add\n      tag_133\n      swap1\n      tag_134\n      jump\t// in\n    tag_133:\n      mload(0x40)\n      dup1\n      swap2\n      sub\n      swap1\n      revert\n    tag_132:\n        /* \"Carbonfi_Marketplace.sol\":777:778  1 */\n      0x01\n        /* \"Carbonfi_Marketplace.sol\":2174:2186  pricePerItem */\n      dup2\n        /* \"Carbonfi_Marketplace.sol\":2174:2199  pricePerItem >= MIN_PRICE */\n      lt\n      iszero\n        /* \"Carbonfi_Marketplace.sol\":2166:2217  require(pricePerItem >= MIN_PRICE, \"Price too low\") */\n      tag_135\n      jumpi\n      mload(0x40)\n      0x08c379a000000000000000000000000000000000000000000000000000000000\n      dup2\n      mstore\n      0x04\n      add\n      tag_136\n      swap1\n      tag_137\n      jump\t// in\n    tag_136:\n      mload(0x40)\n      dup1\n      swap2\n      sub\n      swap1\n      revert\n    tag_135:\n        /* \"Carbonfi_Marketplace.sol\":2294:2300  amount */\n      dup2\n        /* \"Carbonfi_Marketplace.sol\":2248:2259  carbonFiNFT */\n      immutable(\"0x992b2834377aca810e18ed7e283a2289a822c850914d1e3ce431b6e3563cb371\")\n        /* \"Carbonfi_Marketplace.sol\":2248:2269  carbonFiNFT.balanceOf */\n      0xffffffffffffffffffffffffffffffffffffffff\n      and\n      0xfdd58e\n        /* \"Carbonfi_Marketplace.sol\":2270:2280  msg.sender */\n      caller\n        /* \"Carbonfi_Marketplace.sol\":2282:2289  tokenId */\n      dup7\n        /* \"Carbonfi_Marketplace.sol\":2248:2290  carbonFiNFT.balanceOf(msg.sender, tokenId) */\n      mload(0x40)\n      dup4\n      0xffffffff\n      and\n      0xe0\n      shl\n      dup2\n      mstore\n      0x04\n      add\n      tag_138\n      swap3\n      swap2\n      swap1\n      tag_139\n      jump\t// in\n    tag_138:\n      0x20\n      mload(0x40)\n      dup1\n      dup4\n      sub\n      dup2\n      dup7\n      gas\n      staticcall\n      iszero\n      dup1\n      iszero\n      tag_141\n      jumpi\n      returndatacopy(0x00, 0x00, returndatasize)\n      revert(0x00, returndatasize)\n    tag_141:\n      pop\n      pop\n      pop\n      pop\n      mload(0x40)\n      returndatasize\n      not(0x1f)\n      0x1f\n      dup3\n      add\n      and\n      dup3\n      add\n      dup1\n      0x40\n      mstore\n      pop\n      dup2\n      add\n      swap1\n      tag_142\n      swap2\n      swap1\n      tag_143\n      jump\t// in\n    tag_142:\n        /* \"Carbonfi_Marketplace.sol\":2248:2300  carbonFiNFT.balanceOf(msg.sender, tokenId) >= amount */\n      lt\n      iszero\n        /* \"Carbonfi_Marketplace.sol\":2227:2350  require(... */\n      tag_144\n      jumpi\n      mload(0x40)\n      0x08c379a000000000000000000000000000000000000000000000000000000000\n      dup2\n      mstore\n      0x04\n      add\n      tag_145\n      swap1\n      tag_146\n      jump\t// in\n    tag_145:\n      mload(0x40)\n      dup1\n      swap2\n      sub\n      swap1\n      revert\n    tag_144:\n        /* \"Carbonfi_Marketplace.sol\":2381:2392  carbonFiNFT */\n      immutable(\"0x992b2834377aca810e18ed7e283a2289a822c850914d1e3ce431b6e3563cb371\")\n        /* \"Carbonfi_Marketplace.sol\":2381:2409  carbonFiNFT.isApprovedForAll */\n      0xffffffffffffffffffffffffffffffffffffffff\n      and\n      0xe985e9c5\n        /* \"Carbonfi_Marketplace.sol\":2410:2420  msg.sender */\n      caller\n        /* \"Carbonfi_Marketplace.sol\":2430:2434  this */\n      address\n        /* \"Carbonfi_Marketplace.sol\":2381:2436  carbonFiNFT.isApprovedForAll(msg.sender, address(this)) */\n      mload(0x40)\n      dup4\n      0xffffffff\n      and\n      0xe0\n      shl\n      dup2\n      mstore\n      0x04\n      add\n      tag_147\n      swap3\n      swap2\n      swap1\n      tag_148\n      jump\t// in\n    tag_147:\n      0x20\n      mload(0x40)\n      dup1\n      dup4\n      sub\n      dup2\n      dup7\n      gas\n      staticcall\n      iszero\n      dup1\n      iszero\n      tag_150\n      jumpi\n      returndatacopy(0x00, 0x00, returndatasize)\n      revert(0x00, returndatasize)\n    tag_150:\n      pop\n      pop\n      pop\n      pop\n      mload(0x40)\n      returndatasize\n      not(0x1f)\n      0x1f\n      dup3\n      add\n      and\n      dup3\n      add\n      dup1\n      0x40\n      mstore\n      pop\n      dup2\n      add\n      swap1\n      tag_151\n      swap2\n      swap1\n      tag_152\n      jump\t// in\n    tag_151:\n        /* \"Carbonfi_Marketplace.sol\":2360:2486  require(... */\n      tag_153\n      jumpi\n      mload(0x40)\n      0x08c379a000000000000000000000000000000000000000000000000000000000\n      dup2\n      mstore\n      0x04\n      add\n      tag_154\n      swap1\n      tag_155\n      jump\t// in\n    tag_154:\n      mload(0x40)\n      dup1\n      swap2\n      sub\n      swap1\n      revert\n    tag_153:\n        /* \"Carbonfi_Marketplace.sol\":2529:2678  Listing({... */\n      mload(0x40)\n      dup1\n      0x80\n      add\n      0x40\n      mstore\n      dup1\n        /* \"Carbonfi_Marketplace.sol\":2559:2569  msg.sender */\n      caller\n        /* \"Carbonfi_Marketplace.sol\":2529:2678  Listing({... */\n      0xffffffffffffffffffffffffffffffffffffffff\n      and\n      dup2\n      mstore\n      0x20\n      add\n        /* \"Carbonfi_Marketplace.sol\":2592:2599  tokenId */\n      dup5\n        /* \"Carbonfi_Marketplace.sol\":2529:2678  Listing({... */\n      dup2\n      mstore\n      0x20\n      add\n        /* \"Carbonfi_Marketplace.sol\":2621:2627  amount */\n      dup4\n        /* \"Carbonfi_Marketplace.sol\":2529:2678  Listing({... */\n      dup2\n      mstore\n      0x20\n      add\n        /* \"Carbonfi_Marketplace.sol\":2655:2667  pricePerItem */\n      dup3\n        /* \"Carbonfi_Marketplace.sol\":2529:2678  Listing({... */\n      dup2\n      mstore\n      pop\n        /* \"Carbonfi_Marketplace.sol\":2497:2505  listings */\n      0x03\n        /* \"Carbonfi_Marketplace.sol\":2497:2514  listings[tokenId] */\n      0x00\n        /* \"Carbonfi_Marketplace.sol\":2506:2513  tokenId */\n      dup6\n        /* \"Carbonfi_Marketplace.sol\":2497:2514  listings[tokenId] */\n      dup2\n      mstore\n      0x20\n      add\n      swap1\n      dup2\n      mstore\n      0x20\n      add\n      0x00\n      keccak256\n        /* \"Carbonfi_Marketplace.sol\":2497:2526  listings[tokenId][msg.sender] */\n      0x00\n        /* \"Carbonfi_Marketplace.sol\":2515:2525  msg.sender */\n      caller\n        /* \"Carbonfi_Marketplace.sol\":2497:2526  listings[tokenId][msg.sender] */\n      0xffffffffffffffffffffffffffffffffffffffff\n      and\n      0xffffffffffffffffffffffffffffffffffffffff\n      and\n      dup2\n      mstore\n      0x20\n      add\n      swap1\n      dup2\n      mstore\n      0x20\n      add\n      0x00\n      keccak256\n        /* \"Carbonfi_Marketplace.sol\":2497:2678  listings[tokenId][msg.sender] = Listing({... */\n      0x00\n      dup3\n      add\n      mload\n      dup2\n      0x00\n      add\n      exp(0x0100, 0x00)\n      dup2\n      sload\n      dup2\n      0xffffffffffffffffffffffffffffffffffffffff\n      mul\n      not\n      and\n      swap1\n      dup4\n      0xffffffffffffffffffffffffffffffffffffffff\n      and\n      mul\n      or\n      swap1\n      sstore\n      pop\n      0x20\n      dup3\n      add\n      mload\n      dup2\n      0x01\n      add\n      sstore\n      0x40\n      dup3\n      add\n      mload\n      dup2\n      0x02\n      add\n      sstore\n      0x60\n      dup3\n      add\n      mload\n      dup2\n      0x03\n      add\n      sstore\n      swap1\n      pop\n      pop\n        /* \"Carbonfi_Marketplace.sol\":2717:2724  tokenId */\n      dup3\n        /* \"Carbonfi_Marketplace.sol\":2705:2715  msg.sender */\n      caller\n        /* \"Carbonfi_Marketplace.sol\":2694:2747  ItemListed(msg.sender, tokenId, amount, pricePerItem) */\n      0xffffffffffffffffffffffffffffffffffffffff\n      and\n      0x58daee15640543ce9c441aaf5417a2860fd1fd6b7e8a9648d1bb4d2b0c17b62a\n        /* \"Carbonfi_Marketplace.sol\":2726:2732  amount */\n      dup5\n        /* \"Carbonfi_Marketplace.sol\":2734:2746  pricePerItem */\n      dup5\n        /* \"Carbonfi_Marketplace.sol\":2694:2747  ItemListed(msg.sender, tokenId, amount, pricePerItem) */\n      mload(0x40)\n      tag_156\n      swap3\n      swap2\n      swap1\n      tag_157\n      jump\t// in\n    tag_156:\n      mload(0x40)\n      dup1\n      swap2\n      sub\n      swap1\n      log3\n        /* \"@openzeppelin/contracts/security/ReentrancyGuard.sol\":2303:2323  _nonReentrantAfter() */\n      tag_158\n        /* \"@openzeppelin/contracts/security/ReentrancyGuard.sol\":2303:2321  _nonReentrantAfter */\n      tag_108\n        /* \"@openzeppelin/contracts/security/ReentrancyGuard.sol\":2303:2323  _nonReentrantAfter() */\n      jump\t// in\n    tag_158:\n        /* \"Carbonfi_Marketplace.sol\":1972:2754  function listItem(... */\n      pop\n      pop\n      pop\n      jump\t// out\n        /* \"@openzeppelin/contracts/token/ERC1155/utils/ERC1155Holder.sol\":877:1096  function onERC1155Received(... */\n    tag_85:\n        /* \"@openzeppelin/contracts/token/ERC1155/utils/ERC1155Holder.sol\":1033:1039  bytes4 */\n      0x00\n        /* \"@openzeppelin/contracts/token/ERC1155/utils/ERC1155Holder.sol\":1058:1089  this.onERC1155Received.selector */\n      shl(0xe0, 0xf23a6e61)\n        /* \"@openzeppelin/contracts/token/ERC1155/utils/ERC1155Holder.sol\":1051:1089  return this.onERC1155Received.selector */\n      swap1\n      pop\n        /* \"@openzeppelin/contracts/token/ERC1155/utils/ERC1155Holder.sol\":877:1096  function onERC1155Received(... */\n      swap6\n      swap5\n      pop\n      pop\n      pop\n      pop\n      pop\n      jump\t// out\n        /* \"Carbonfi_Marketplace.sol\":789:813  address public feeWallet */\n    tag_88:\n      0x02\n      0x00\n      swap1\n      sload\n      swap1\n      0x0100\n      exp\n      swap1\n      div\n      0xffffffffffffffffffffffffffffffffffffffff\n      and\n      dup2\n      jump\t// out\n        /* \"@openzeppelin/contracts/access/Ownable.sol\":2543:2758  function transferOwnership(address newOwner) public virtual onlyOwner {... */\n    tag_92:\n        /* \"@openzeppelin/contracts/access/Ownable.sol\":1531:1544  _checkOwner() */\n      tag_161\n        /* \"@openzeppelin/contracts/access/Ownable.sol\":1531:1542  _checkOwner */\n      tag_111\n        /* \"@openzeppelin/contracts/access/Ownable.sol\":1531:1544  _checkOwner() */\n      jump\t// in\n    tag_161:\n        /* \"@openzeppelin/contracts/access/Ownable.sol\":2647:2648  0 */\n      0x00\n        /* \"@openzeppelin/contracts/access/Ownable.sol\":2627:2649  newOwner == address(0) */\n      0xffffffffffffffffffffffffffffffffffffffff\n      and\n        /* \"@openzeppelin/contracts/access/Ownable.sol\":2627:2635  newOwner */\n      dup2\n        /* \"@openzeppelin/contracts/access/Ownable.sol\":2627:2649  newOwner == address(0) */\n      0xffffffffffffffffffffffffffffffffffffffff\n      and\n      sub\n        /* \"@openzeppelin/contracts/access/Ownable.sol\":2623:2714  if (newOwner == address(0)) {... */\n      tag_163\n      jumpi\n        /* \"@openzeppelin/contracts/access/Ownable.sol\":2700:2701  0 */\n      0x00\n        /* \"@openzeppelin/contracts/access/Ownable.sol\":2672:2703  OwnableInvalidOwner(address(0)) */\n      mload(0x40)\n      0x1e4fbdf700000000000000000000000000000000000000000000000000000000\n      dup2\n      mstore\n      0x04\n      add\n      tag_164\n      swap2\n      swap1\n      tag_43\n      jump\t// in\n    tag_164:\n      mload(0x40)\n      dup1\n      swap2\n      sub\n      swap1\n      revert\n        /* \"@openzeppelin/contracts/access/Ownable.sol\":2623:2714  if (newOwner == address(0)) {... */\n    tag_163:\n        /* \"@openzeppelin/contracts/access/Ownable.sol\":2723:2751  _transferOwnership(newOwner) */\n      tag_165\n        /* \"@openzeppelin/contracts/access/Ownable.sol\":2742:2750  newOwner */\n      dup2\n        /* \"@openzeppelin/contracts/access/Ownable.sol\":2723:2741  _transferOwnership */\n      tag_114\n        /* \"@openzeppelin/contracts/access/Ownable.sol\":2723:2751  _transferOwnership(newOwner) */\n      jump\t// in\n    tag_165:\n        /* \"@openzeppelin/contracts/access/Ownable.sol\":2543:2758  function transferOwnership(address newOwner) public virtual onlyOwner {... */\n      pop\n      jump\t// out\n        /* \"Carbonfi_Marketplace.sol\":2760:3759  function buyItem(... */\n    tag_96:\n        /* \"@openzeppelin/contracts/security/ReentrancyGuard.sol\":2261:2282  _nonReentrantBefore() */\n      tag_167\n        /* \"@openzeppelin/contracts/security/ReentrancyGuard.sol\":2261:2280  _nonReentrantBefore */\n      tag_102\n        /* \"@openzeppelin/contracts/security/ReentrancyGuard.sol\":2261:2282  _nonReentrantBefore() */\n      jump\t// in\n    tag_167:\n        /* \"Carbonfi_Marketplace.sol\":2888:2911  Listing storage listing */\n      0x00\n        /* \"Carbonfi_Marketplace.sol\":2914:2922  listings */\n      0x03\n        /* \"Carbonfi_Marketplace.sol\":2914:2931  listings[tokenId] */\n      0x00\n        /* \"Carbonfi_Marketplace.sol\":2923:2930  tokenId */\n      dup5\n        /* \"Carbonfi_Marketplace.sol\":2914:2931  listings[tokenId] */\n      dup2\n      mstore\n      0x20\n      add\n      swap1\n      dup2\n      mstore\n      0x20\n      add\n      0x00\n      keccak256\n        /* \"Carbonfi_Marketplace.sol\":2914:2939  listings[tokenId][seller] */\n      0x00\n        /* \"Carbonfi_Marketplace.sol\":2932:2938  seller */\n      dup6\n        /* \"Carbonfi_Marketplace.sol\":2914:2939  listings[tokenId][seller] */\n      0xffffffffffffffffffffffffffffffffffffffff\n      and\n      0xffffffffffffffffffffffffffffffffffffffff\n      and\n      dup2\n      mstore\n      0x20\n      add\n      swap1\n      dup2\n      mstore\n      0x20\n      add\n      0x00\n      keccak256\n        /* \"Carbonfi_Marketplace.sol\":2888:2939  Listing storage listing = listings[tokenId][seller] */\n      swap1\n      pop\n        /* \"Carbonfi_Marketplace.sol\":2975:2981  amount */\n      dup2\n        /* \"Carbonfi_Marketplace.sol\":2957:2964  listing */\n      dup2\n        /* \"Carbonfi_Marketplace.sol\":2957:2971  listing.amount */\n      0x02\n      add\n      sload\n        /* \"Carbonfi_Marketplace.sol\":2957:2981  listing.amount >= amount */\n      lt\n      iszero\n        /* \"Carbonfi_Marketplace.sol\":2949:3012  require(listing.amount >= amount, \"Insufficient amount listed\") */\n      tag_169\n      jumpi\n      mload(0x40)\n      0x08c379a000000000000000000000000000000000000000000000000000000000\n      dup2\n      mstore\n      0x04\n      add\n      tag_170\n      swap1\n      tag_171\n      jump\t// in\n    tag_170:\n      mload(0x40)\n      dup1\n      swap2\n      sub\n      swap1\n      revert\n    tag_169:\n        /* \"Carbonfi_Marketplace.sol\":3085:3091  amount */\n      dup2\n        /* \"Carbonfi_Marketplace.sol\":3043:3054  carbonFiNFT */\n      immutable(\"0x992b2834377aca810e18ed7e283a2289a822c850914d1e3ce431b6e3563cb371\")\n        /* \"Carbonfi_Marketplace.sol\":3043:3064  carbonFiNFT.balanceOf */\n      0xffffffffffffffffffffffffffffffffffffffff\n      and\n      0xfdd58e\n        /* \"Carbonfi_Marketplace.sol\":3065:3071  seller */\n      dup7\n        /* \"Carbonfi_Marketplace.sol\":3073:3080  tokenId */\n      dup7\n        /* \"Carbonfi_Marketplace.sol\":3043:3081  carbonFiNFT.balanceOf(seller, tokenId) */\n      mload(0x40)\n      dup4\n      0xffffffff\n      and\n      0xe0\n      shl\n      dup2\n      mstore\n      0x04\n      add\n      tag_172\n      swap3\n      swap2\n      swap1\n      tag_139\n      jump\t// in\n    tag_172:\n      0x20\n      mload(0x40)\n      dup1\n      dup4\n      sub\n      dup2\n      dup7\n      gas\n      staticcall\n      iszero\n      dup1\n      iszero\n      tag_174\n      jumpi\n      returndatacopy(0x00, 0x00, returndatasize)\n      revert(0x00, returndatasize)\n    tag_174:\n      pop\n      pop\n      pop\n      pop\n      mload(0x40)\n      returndatasize\n      not(0x1f)\n      0x1f\n      dup3\n      add\n      and\n      dup3\n      add\n      dup1\n      0x40\n      mstore\n      pop\n      dup2\n      add\n      swap1\n      tag_175\n      swap2\n      swap1\n      tag_143\n      jump\t// in\n    tag_175:\n        /* \"Carbonfi_Marketplace.sol\":3043:3091  carbonFiNFT.balanceOf(seller, tokenId) >= amount */\n      lt\n      iszero\n        /* \"Carbonfi_Marketplace.sol\":3022:3142  require(... */\n      tag_176\n      jumpi\n      mload(0x40)\n      0x08c379a000000000000000000000000000000000000000000000000000000000\n      dup2\n      mstore\n      0x04\n      add\n      tag_177\n      swap1\n      tag_178\n      jump\t// in\n    tag_177:\n      mload(0x40)\n      dup1\n      swap2\n      sub\n      swap1\n      revert\n    tag_176:\n        /* \"Carbonfi_Marketplace.sol\":3153:3171  uint256 totalPrice */\n      0x00\n        /* \"Carbonfi_Marketplace.sol\":3197:3203  amount */\n      dup3\n        /* \"Carbonfi_Marketplace.sol\":3174:3181  listing */\n      dup3\n        /* \"Carbonfi_Marketplace.sol\":3174:3194  listing.pricePerItem */\n      0x03\n      add\n      sload\n        /* \"Carbonfi_Marketplace.sol\":3174:3203  listing.pricePerItem * amount */\n      tag_179\n      swap2\n      swap1\n      tag_180\n      jump\t// in\n    tag_179:\n        /* \"Carbonfi_Marketplace.sol\":3153:3203  uint256 totalPrice = listing.pricePerItem * amount */\n      swap1\n      pop\n        /* \"Carbonfi_Marketplace.sol\":3213:3230  uint256 feeAmount */\n      0x00\n        /* \"Carbonfi_Marketplace.sol\":3262:3267  10000 */\n      0x2710\n        /* \"Carbonfi_Marketplace.sol\":663:666  100 */\n      0x64\n        /* \"Carbonfi_Marketplace.sol\":3234:3244  totalPrice */\n      dup4\n        /* \"Carbonfi_Marketplace.sol\":3234:3258  totalPrice * FEE_PERCENT */\n      tag_181\n      swap2\n      swap1\n      tag_180\n      jump\t// in\n    tag_181:\n        /* \"Carbonfi_Marketplace.sol\":3233:3267  (totalPrice * FEE_PERCENT) / 10000 */\n      tag_182\n      swap2\n      swap1\n      tag_183\n      jump\t// in\n    tag_182:\n        /* \"Carbonfi_Marketplace.sol\":3213:3267  uint256 feeAmount = (totalPrice * FEE_PERCENT) / 10000 */\n      swap1\n      pop\n        /* \"Carbonfi_Marketplace.sol\":3277:3297  uint256 sellerAmount */\n      0x00\n        /* \"Carbonfi_Marketplace.sol\":3313:3322  feeAmount */\n      dup2\n        /* \"Carbonfi_Marketplace.sol\":3300:3310  totalPrice */\n      dup4\n        /* \"Carbonfi_Marketplace.sol\":3300:3322  totalPrice - feeAmount */\n      tag_184\n      swap2\n      swap1\n      tag_185\n      jump\t// in\n    tag_184:\n        /* \"Carbonfi_Marketplace.sol\":3277:3322  uint256 sellerAmount = totalPrice - feeAmount */\n      swap1\n      pop\n        /* \"Carbonfi_Marketplace.sol\":3333:3393  cafiToken.safeTransferFrom(msg.sender, feeWallet, feeAmount) */\n      tag_186\n        /* \"Carbonfi_Marketplace.sol\":3360:3370  msg.sender */\n      caller\n        /* \"Carbonfi_Marketplace.sol\":3372:3381  feeWallet */\n      0x02\n      0x00\n      swap1\n      sload\n      swap1\n      0x0100\n      exp\n      swap1\n      div\n      0xffffffffffffffffffffffffffffffffffffffff\n      and\n        /* \"Carbonfi_Marketplace.sol\":3383:3392  feeAmount */\n      dup5\n        /* \"Carbonfi_Marketplace.sol\":3333:3342  cafiToken */\n      immutable(\"0x0878797cdfc1ddb1f7dac03a85224472dc2a836f7203bfa5d1dcbed3a851ef97\")\n        /* \"Carbonfi_Marketplace.sol\":3333:3359  cafiToken.safeTransferFrom */\n      0xffffffffffffffffffffffffffffffffffffffff\n      and\n      tag_187\n      swap1\n        /* \"Carbonfi_Marketplace.sol\":3333:3393  cafiToken.safeTransferFrom(msg.sender, feeWallet, feeAmount) */\n      swap4\n      swap3\n      swap2\n      swap1\n      0xffffffff\n      and\n      jump\t// in\n    tag_186:\n        /* \"Carbonfi_Marketplace.sol\":3403:3463  cafiToken.safeTransferFrom(msg.sender, seller, sellerAmount) */\n      tag_188\n        /* \"Carbonfi_Marketplace.sol\":3430:3440  msg.sender */\n      caller\n        /* \"Carbonfi_Marketplace.sol\":3442:3448  seller */\n      dup9\n        /* \"Carbonfi_Marketplace.sol\":3450:3462  sellerAmount */\n      dup4\n        /* \"Carbonfi_Marketplace.sol\":3403:3412  cafiToken */\n      immutable(\"0x0878797cdfc1ddb1f7dac03a85224472dc2a836f7203bfa5d1dcbed3a851ef97\")\n        /* \"Carbonfi_Marketplace.sol\":3403:3429  cafiToken.safeTransferFrom */\n      0xffffffffffffffffffffffffffffffffffffffff\n      and\n      tag_187\n      swap1\n        /* \"Carbonfi_Marketplace.sol\":3403:3463  cafiToken.safeTransferFrom(msg.sender, seller, sellerAmount) */\n      swap4\n      swap3\n      swap2\n      swap1\n      0xffffffff\n      and\n      jump\t// in\n    tag_188:\n        /* \"Carbonfi_Marketplace.sol\":3474:3485  carbonFiNFT */\n      immutable(\"0x992b2834377aca810e18ed7e283a2289a822c850914d1e3ce431b6e3563cb371\")\n        /* \"Carbonfi_Marketplace.sol\":3474:3502  carbonFiNFT.safeTransferFrom */\n      0xffffffffffffffffffffffffffffffffffffffff\n      and\n      0xf242432a\n        /* \"Carbonfi_Marketplace.sol\":3503:3509  seller */\n      dup9\n        /* \"Carbonfi_Marketplace.sol\":3511:3521  msg.sender */\n      caller\n        /* \"Carbonfi_Marketplace.sol\":3523:3530  tokenId */\n      dup10\n        /* \"Carbonfi_Marketplace.sol\":3532:3538  amount */\n      dup10\n        /* \"Carbonfi_Marketplace.sol\":3474:3543  carbonFiNFT.safeTransferFrom(seller, msg.sender, tokenId, amount, \"\") */\n      mload(0x40)\n      dup6\n      0xffffffff\n      and\n      0xe0\n      shl\n      dup2\n      mstore\n      0x04\n      add\n      tag_189\n      swap5\n      swap4\n      swap3\n      swap2\n      swap1\n      tag_190\n      jump\t// in\n    tag_189:\n      0x00\n      mload(0x40)\n      dup1\n      dup4\n      sub\n      dup2\n      0x00\n      dup8\n      dup1\n      extcodesize\n      iszero\n      dup1\n      iszero\n      tag_191\n      jumpi\n      revert(0x00, 0x00)\n    tag_191:\n      pop\n      gas\n      call\n      iszero\n      dup1\n      iszero\n      tag_193\n      jumpi\n      returndatacopy(0x00, 0x00, returndatasize)\n      revert(0x00, returndatasize)\n    tag_193:\n      pop\n      pop\n      pop\n      pop\n        /* \"Carbonfi_Marketplace.sol\":3572:3578  amount */\n      dup5\n        /* \"Carbonfi_Marketplace.sol\":3554:3561  listing */\n      dup5\n        /* \"Carbonfi_Marketplace.sol\":3554:3568  listing.amount */\n      0x02\n      add\n      0x00\n        /* \"Carbonfi_Marketplace.sol\":3554:3578  listing.amount -= amount */\n      dup3\n      dup3\n      sload\n      tag_194\n      swap2\n      swap1\n      tag_185\n      jump\t// in\n    tag_194:\n      swap3\n      pop\n      pop\n      dup2\n      swap1\n      sstore\n      pop\n        /* \"Carbonfi_Marketplace.sol\":3610:3611  0 */\n      0x00\n        /* \"Carbonfi_Marketplace.sol\":3592:3599  listing */\n      dup5\n        /* \"Carbonfi_Marketplace.sol\":3592:3606  listing.amount */\n      0x02\n      add\n      sload\n        /* \"Carbonfi_Marketplace.sol\":3592:3611  listing.amount == 0 */\n      sub\n        /* \"Carbonfi_Marketplace.sol\":3588:3670  if (listing.amount == 0) {... */\n      tag_195\n      jumpi\n        /* \"Carbonfi_Marketplace.sol\":3634:3642  listings */\n      0x03\n        /* \"Carbonfi_Marketplace.sol\":3634:3651  listings[tokenId] */\n      0x00\n        /* \"Carbonfi_Marketplace.sol\":3643:3650  tokenId */\n      dup8\n        /* \"Carbonfi_Marketplace.sol\":3634:3651  listings[tokenId] */\n      dup2\n      mstore\n      0x20\n      add\n      swap1\n      dup2\n      mstore\n      0x20\n      add\n      0x00\n      keccak256\n        /* \"Carbonfi_Marketplace.sol\":3634:3659  listings[tokenId][seller] */\n      0x00\n        /* \"Carbonfi_Marketplace.sol\":3652:3658  seller */\n      dup9\n        /* \"Carbonfi_Marketplace.sol\":3634:3659  listings[tokenId][seller] */\n      0xffffffffffffffffffffffffffffffffffffffff\n      and\n      0xffffffffffffffffffffffffffffffffffffffff\n      and\n      dup2\n      mstore\n      0x20\n      add\n      swap1\n      dup2\n      mstore\n      0x20\n      add\n      0x00\n      keccak256\n      0x00\n        /* \"Carbonfi_Marketplace.sol\":3627:3659  delete listings[tokenId][seller] */\n      0x00\n      dup3\n      add\n      exp(0x0100, 0x00)\n      dup2\n      sload\n      swap1\n      0xffffffffffffffffffffffffffffffffffffffff\n      mul\n      not\n      and\n      swap1\n      sstore\n      0x01\n      dup3\n      add\n      0x00\n      swap1\n      sstore\n      0x02\n      dup3\n      add\n      0x00\n      swap1\n      sstore\n      0x03\n      dup3\n      add\n      0x00\n      swap1\n      sstore\n      pop\n      pop\n        /* \"Carbonfi_Marketplace.sol\":3588:3670  if (listing.amount == 0) {... */\n    tag_195:\n        /* \"Carbonfi_Marketplace.sol\":3714:3721  tokenId */\n      dup6\n        /* \"Carbonfi_Marketplace.sol\":3702:3712  msg.sender */\n      caller\n        /* \"Carbonfi_Marketplace.sol\":3685:3752  ItemSold(seller, msg.sender, tokenId, amount, listing.pricePerItem) */\n      0xffffffffffffffffffffffffffffffffffffffff\n      and\n        /* \"Carbonfi_Marketplace.sol\":3694:3700  seller */\n      dup9\n        /* \"Carbonfi_Marketplace.sol\":3685:3752  ItemSold(seller, msg.sender, tokenId, amount, listing.pricePerItem) */\n      0xffffffffffffffffffffffffffffffffffffffff\n      and\n      0xf02db46465eb9e76c10f2aa3eb522115e5f8dc7da63fc2e81ce4f984b775816e\n        /* \"Carbonfi_Marketplace.sol\":3723:3729  amount */\n      dup9\n        /* \"Carbonfi_Marketplace.sol\":3731:3738  listing */\n      dup9\n        /* \"Carbonfi_Marketplace.sol\":3731:3751  listing.pricePerItem */\n      0x03\n      add\n      sload\n        /* \"Carbonfi_Marketplace.sol\":3685:3752  ItemSold(seller, msg.sender, tokenId, amount, listing.pricePerItem) */\n      mload(0x40)\n      tag_196\n      swap3\n      swap2\n      swap1\n      tag_157\n      jump\t// in\n    tag_196:\n      mload(0x40)\n      dup1\n      swap2\n      sub\n      swap1\n      log4\n        /* \"Carbonfi_Marketplace.sol\":2878:3759  {... */\n      pop\n      pop\n      pop\n      pop\n        /* \"@openzeppelin/contracts/security/ReentrancyGuard.sol\":2303:2323  _nonReentrantAfter() */\n      tag_197\n        /* \"@openzeppelin/contracts/security/ReentrancyGuard.sol\":2303:2321  _nonReentrantAfter */\n      tag_108\n        /* \"@openzeppelin/contracts/security/ReentrancyGuard.sol\":2303:2323  _nonReentrantAfter() */\n      jump\t// in\n    tag_197:\n        /* \"Carbonfi_Marketplace.sol\":2760:3759  function buyItem(... */\n      pop\n      pop\n      pop\n      jump\t// out\n        /* \"@openzeppelin/contracts/token/ERC1155/utils/ERC1155Holder.sol\":650:871  function supportsInterface(bytes4 interfaceId) public view virtual override(ERC165, IERC165) returns (bool) {... */\n    tag_99:\n        /* \"@openzeppelin/contracts/token/ERC1155/utils/ERC1155Holder.sol\":752:756  bool */\n      0x00\n        /* \"@openzeppelin/contracts/token/ERC1155/utils/ERC1155Holder.sol\":790:824  type(IERC1155Receiver).interfaceId */\n      0x4e2312e000000000000000000000000000000000000000000000000000000000\n        /* \"@openzeppelin/contracts/token/ERC1155/utils/ERC1155Holder.sol\":775:824  interfaceId == type(IERC1155Receiver).interfaceId */\n      not(0xffffffffffffffffffffffffffffffffffffffffffffffffffffffff)\n      and\n        /* \"@openzeppelin/contracts/token/ERC1155/utils/ERC1155Holder.sol\":775:786  interfaceId */\n      dup3\n        /* \"@openzeppelin/contracts/token/ERC1155/utils/ERC1155Holder.sol\":775:824  interfaceId == type(IERC1155Receiver).interfaceId */\n      not(0xffffffffffffffffffffffffffffffffffffffffffffffffffffffff)\n      and\n      eq\n        /* \"@openzeppelin/contracts/token/ERC1155/utils/ERC1155Holder.sol\":775:864  interfaceId == type(IERC1155Receiver).interfaceId || super.supportsInterface(interfaceId) */\n      dup1\n      tag_199\n      jumpi\n      pop\n        /* \"@openzeppelin/contracts/token/ERC1155/utils/ERC1155Holder.sol\":828:864  super.supportsInterface(interfaceId) */\n      tag_200\n        /* \"@openzeppelin/contracts/token/ERC1155/utils/ERC1155Holder.sol\":852:863  interfaceId */\n      dup3\n        /* \"@openzeppelin/contracts/token/ERC1155/utils/ERC1155Holder.sol\":828:851  super.supportsInterface */\n      tag_201\n        /* \"@openzeppelin/contracts/token/ERC1155/utils/ERC1155Holder.sol\":828:864  super.supportsInterface(interfaceId) */\n      jump\t// in\n    tag_200:\n        /* \"@openzeppelin/contracts/token/ERC1155/utils/ERC1155Holder.sol\":775:864  interfaceId == type(IERC1155Receiver).interfaceId || super.supportsInterface(interfaceId) */\n    tag_199:\n        /* \"@openzeppelin/contracts/token/ERC1155/utils/ERC1155Holder.sol\":768:864  return interfaceId == type(IERC1155Receiver).interfaceId || super.supportsInterface(interfaceId) */\n      swap1\n      pop\n        /* \"@openzeppelin/contracts/token/ERC1155/utils/ERC1155Holder.sol\":650:871  function supportsInterface(bytes4 interfaceId) public view virtual override(ERC165, IERC165) returns (bool) {... */\n      swap2\n      swap1\n      pop\n      jump\t// out\n        /* \"@openzeppelin/contracts/security/ReentrancyGuard.sol\":2336:2623  function _nonReentrantBefore() private {... */\n    tag_102:\n        /* \"@openzeppelin/contracts/security/ReentrancyGuard.sol\":1759:1760  2 */\n      0x02\n        /* \"@openzeppelin/contracts/security/ReentrancyGuard.sol\":2468:2475  _status */\n      sload(0x01)\n        /* \"@openzeppelin/contracts/security/ReentrancyGuard.sol\":2468:2487  _status != _ENTERED */\n      sub\n        /* \"@openzeppelin/contracts/security/ReentrancyGuard.sol\":2460:2523  require(_status != _ENTERED, \"ReentrancyGuard: reentrant call\") */\n      tag_203\n      jumpi\n      mload(0x40)\n      0x08c379a000000000000000000000000000000000000000000000000000000000\n      dup2\n      mstore\n      0x04\n      add\n      tag_204\n      swap1\n      tag_205\n      jump\t// in\n    tag_204:\n      mload(0x40)\n      dup1\n      swap2\n      sub\n      swap1\n      revert\n    tag_203:\n        /* \"@openzeppelin/contracts/security/ReentrancyGuard.sol\":1759:1760  2 */\n      0x02\n        /* \"@openzeppelin/contracts/security/ReentrancyGuard.sol\":2598:2605  _status */\n      0x01\n        /* \"@openzeppelin/contracts/security/ReentrancyGuard.sol\":2598:2616  _status = _ENTERED */\n      dup2\n      swap1\n      sstore\n      pop\n        /* \"@openzeppelin/contracts/security/ReentrancyGuard.sol\":2336:2623  function _nonReentrantBefore() private {... */\n      jump\t// out\n        /* \"@openzeppelin/contracts/security/ReentrancyGuard.sol\":2629:2838  function _nonReentrantAfter() private {... */\n    tag_108:\n        /* \"@openzeppelin/contracts/security/ReentrancyGuard.sol\":1716:1717  1 */\n      0x01\n        /* \"@openzeppelin/contracts/security/ReentrancyGuard.sol\":2809:2816  _status */\n      dup1\n        /* \"@openzeppelin/contracts/security/ReentrancyGuard.sol\":2809:2831  _status = _NOT_ENTERED */\n      dup2\n      swap1\n      sstore\n      pop\n        /* \"@openzeppelin/contracts/security/ReentrancyGuard.sol\":2629:2838  function _nonReentrantAfter() private {... */\n      jump\t// out\n        /* \"@openzeppelin/contracts/access/Ownable.sol\":1796:1958  function _checkOwner() internal view virtual {... */\n    tag_111:\n        /* \"@openzeppelin/contracts/access/Ownable.sol\":1866:1878  _msgSender() */\n      tag_208\n        /* \"@openzeppelin/contracts/access/Ownable.sol\":1866:1876  _msgSender */\n      tag_209\n        /* \"@openzeppelin/contracts/access/Ownable.sol\":1866:1878  _msgSender() */\n      jump\t// in\n    tag_208:\n        /* \"@openzeppelin/contracts/access/Ownable.sol\":1855:1878  owner() != _msgSender() */\n      0xffffffffffffffffffffffffffffffffffffffff\n      and\n        /* \"@openzeppelin/contracts/access/Ownable.sol\":1855:1862  owner() */\n      tag_210\n        /* \"@openzeppelin/contracts/access/Ownable.sol\":1855:1860  owner */\n      tag_41\n        /* \"@openzeppelin/contracts/access/Ownable.sol\":1855:1862  owner() */\n      jump\t// in\n    tag_210:\n        /* \"@openzeppelin/contracts/access/Ownable.sol\":1855:1878  owner() != _msgSender() */\n      0xffffffffffffffffffffffffffffffffffffffff\n      and\n      eq\n        /* \"@openzeppelin/contracts/access/Ownable.sol\":1851:1952  if (owner() != _msgSender()) {... */\n      tag_211\n      jumpi\n        /* \"@openzeppelin/contracts/access/Ownable.sol\":1928:1940  _msgSender() */\n      tag_212\n        /* \"@openzeppelin/contracts/access/Ownable.sol\":1928:1938  _msgSender */\n      tag_209\n        /* \"@openzeppelin/contracts/access/Ownable.sol\":1928:1940  _msgSender() */\n      jump\t// in\n    tag_212:\n        /* \"@openzeppelin/contracts/access/Ownable.sol\":1901:1941  OwnableUnauthorizedAccount(_msgSender()) */\n      mload(0x40)\n      0x118cdaa700000000000000000000000000000000000000000000000000000000\n      dup2\n      mstore\n      0x04\n      add\n      tag_213\n      swap2\n      swap1\n      tag_43\n      jump\t// in\n    tag_213:\n      mload(0x40)\n      dup1\n      swap2\n      sub\n      swap1\n      revert\n        /* \"@openzeppelin/contracts/access/Ownable.sol\":1851:1952  if (owner() != _msgSender()) {... */\n    tag_211:\n        /* \"@openzeppelin/contracts/access/Ownable.sol\":1796:1958  function _checkOwner() internal view virtual {... */\n      jump\t// out\n        /* \"@openzeppelin/contracts/access/Ownable.sol\":2912:3099  function _transferOwnership(address newOwner) internal virtual {... */\n    tag_114:\n        /* \"@openzeppelin/contracts/access/Ownable.sol\":2985:3001  address oldOwner */\n      0x00\n        /* \"@openzeppelin/contracts/access/Ownable.sol\":3004:3010  _owner */\n      0x00\n      0x00\n      swap1\n      sload\n      swap1\n      0x0100\n      exp\n      swap1\n      div\n      0xffffffffffffffffffffffffffffffffffffffff\n      and\n        /* \"@openzeppelin/contracts/access/Ownable.sol\":2985:3010  address oldOwner = _owner */\n      swap1\n      pop\n        /* \"@openzeppelin/contracts/access/Ownable.sol\":3029:3037  newOwner */\n      dup2\n        /* \"@openzeppelin/contracts/access/Ownable.sol\":3020:3026  _owner */\n      0x00\n      0x00\n        /* \"@openzeppelin/contracts/access/Ownable.sol\":3020:3037  _owner = newOwner */\n      0x0100\n      exp\n      dup2\n      sload\n      dup2\n      0xffffffffffffffffffffffffffffffffffffffff\n      mul\n      not\n      and\n      swap1\n      dup4\n      0xffffffffffffffffffffffffffffffffffffffff\n      and\n      mul\n      or\n      swap1\n      sstore\n      pop\n        /* \"@openzeppelin/contracts/access/Ownable.sol\":3083:3091  newOwner */\n      dup2\n        /* \"@openzeppelin/contracts/access/Ownable.sol\":3052:3092  OwnershipTransferred(oldOwner, newOwner) */\n      0xffffffffffffffffffffffffffffffffffffffff\n      and\n        /* \"@openzeppelin/contracts/access/Ownable.sol\":3073:3081  oldOwner */\n      dup2\n        /* \"@openzeppelin/contracts/access/Ownable.sol\":3052:3092  OwnershipTransferred(oldOwner, newOwner) */\n      0xffffffffffffffffffffffffffffffffffffffff\n      and\n      0x8be0079c531659141344cd1fd0a4f28419497f9722a3daafe3b4186f6b6457e0\n      mload(0x40)\n      mload(0x40)\n      dup1\n      swap2\n      sub\n      swap1\n      log3\n        /* \"@openzeppelin/contracts/access/Ownable.sol\":2975:3099  {... */\n      pop\n        /* \"@openzeppelin/contracts/access/Ownable.sol\":2912:3099  function _transferOwnership(address newOwner) internal virtual {... */\n      pop\n      jump\t// out\n        /* \"@openzeppelin/contracts/token/ERC20/utils/SafeERC20.sol\":1219:1379  function safeTransfer(IERC20 token, address to, uint256 value) internal {... */\n    tag_127:\n        /* \"@openzeppelin/contracts/token/ERC20/utils/SafeERC20.sol\":1301:1372  _callOptionalReturn(token, abi.encodeCall(token.transfer, (to, value))) */\n      tag_216\n        /* \"@openzeppelin/contracts/token/ERC20/utils/SafeERC20.sol\":1321:1326  token */\n      dup4\n        /* \"@openzeppelin/contracts/token/ERC20/utils/SafeERC20.sol\":1343:1348  token */\n      dup5\n        /* \"@openzeppelin/contracts/token/ERC20/utils/SafeERC20.sol\":1343:1357  token.transfer */\n      0xffffffffffffffffffffffffffffffffffffffff\n      and\n      0xa9059cbb\n        /* \"@openzeppelin/contracts/token/ERC20/utils/SafeERC20.sol\":1360:1362  to */\n      dup6\n        /* \"@openzeppelin/contracts/token/ERC20/utils/SafeERC20.sol\":1364:1369  value */\n      dup6\n        /* \"@openzeppelin/contracts/token/ERC20/utils/SafeERC20.sol\":1328:1371  abi.encodeCall(token.transfer, (to, value)) */\n      add(0x24, mload(0x40))\n      tag_217\n      swap3\n      swap2\n      swap1\n      tag_139\n      jump\t// in\n    tag_217:\n      mload(0x40)\n      0x20\n      dup2\n      dup4\n      sub\n      sub\n      dup2\n      mstore\n      swap1\n      0x40\n      mstore\n      swap2\n      pop\n      0xe0\n      shl\n      0x20\n      dup3\n      add\n      dup1\n      mload\n      0xffffffffffffffffffffffffffffffffffffffffffffffffffffffff\n      dup4\n      dup2\n      dup4\n      and\n      or\n      dup4\n      mstore\n      pop\n      pop\n      pop\n      pop\n        /* \"@openzeppelin/contracts/token/ERC20/utils/SafeERC20.sol\":1301:1320  _callOptionalReturn */\n      tag_218\n        /* \"@openzeppelin/contracts/token/ERC20/utils/SafeERC20.sol\":1301:1372  _callOptionalReturn(token, abi.encodeCall(token.transfer, (to, value))) */\n      jump\t// in\n    tag_216:\n        /* \"@openzeppelin/contracts/token/ERC20/utils/SafeERC20.sol\":1219:1379  function safeTransfer(IERC20 token, address to, uint256 value) internal {... */\n      pop\n      pop\n      pop\n      jump\t// out\n        /* \"@openzeppelin/contracts/token/ERC20/utils/SafeERC20.sol\":1618:1806  function safeTransferFrom(IERC20 token, address from, address to, uint256 value) internal {... */\n    tag_187:\n        /* \"@openzeppelin/contracts/token/ERC20/utils/SafeERC20.sol\":1718:1799  _callOptionalReturn(token, abi.encodeCall(token.transferFrom, (from, to, value))) */\n      tag_220\n        /* \"@openzeppelin/contracts/token/ERC20/utils/SafeERC20.sol\":1738:1743  token */\n      dup5\n        /* \"@openzeppelin/contracts/token/ERC20/utils/SafeERC20.sol\":1760:1765  token */\n      dup6\n        /* \"@openzeppelin/contracts/token/ERC20/utils/SafeERC20.sol\":1760:1778  token.transferFrom */\n      0xffffffffffffffffffffffffffffffffffffffff\n      and\n      0x23b872dd\n        /* \"@openzeppelin/contracts/token/ERC20/utils/SafeERC20.sol\":1781:1785  from */\n      dup7\n        /* \"@openzeppelin/contracts/token/ERC20/utils/SafeERC20.sol\":1787:1789  to */\n      dup7\n        /* \"@openzeppelin/contracts/token/ERC20/utils/SafeERC20.sol\":1791:1796  value */\n      dup7\n        /* \"@openzeppelin/contracts/token/ERC20/utils/SafeERC20.sol\":1745:1798  abi.encodeCall(token.transferFrom, (from, to, value)) */\n      add(0x24, mload(0x40))\n      tag_221\n      swap4\n      swap3\n      swap2\n      swap1\n      tag_222\n      jump\t// in\n    tag_221:\n      mload(0x40)\n      0x20\n      dup2\n      dup4\n      sub\n      sub\n      dup2\n      mstore\n      swap1\n      0x40\n      mstore\n      swap2\n      pop\n      0xe0\n      shl\n      0x20\n      dup3\n      add\n      dup1\n      mload\n      0xffffffffffffffffffffffffffffffffffffffffffffffffffffffff\n      dup4\n      dup2\n      dup4\n      and\n      or\n      dup4\n      mstore\n      pop\n      pop\n      pop\n      pop\n        /* \"@openzeppelin/contracts/token/ERC20/utils/SafeERC20.sol\":1718:1737  _callOptionalReturn */\n      tag_218\n        /* \"@openzeppelin/contracts/token/ERC20/utils/SafeERC20.sol\":1718:1799  _callOptionalReturn(token, abi.encodeCall(token.transferFrom, (from, to, value))) */\n      jump\t// in\n    tag_220:\n        /* \"@openzeppelin/contracts/token/ERC20/utils/SafeERC20.sol\":1618:1806  function safeTransferFrom(IERC20 token, address from, address to, uint256 value) internal {... */\n      pop\n      pop\n      pop\n      pop\n      jump\t// out\n        /* \"@openzeppelin/contracts/utils/introspection/ERC165.sol\":763:909  function supportsInterface(bytes4 interfaceId) public view virtual returns (bool) {... */\n    tag_201:\n        /* \"@openzeppelin/contracts/utils/introspection/ERC165.sol\":839:843  bool */\n      0x00\n        /* \"@openzeppelin/contracts/utils/introspection/ERC165.sol\":877:902  type(IERC165).interfaceId */\n      0x01ffc9a700000000000000000000000000000000000000000000000000000000\n        /* \"@openzeppelin/contracts/utils/introspection/ERC165.sol\":862:902  interfaceId == type(IERC165).interfaceId */\n      not(0xffffffffffffffffffffffffffffffffffffffffffffffffffffffff)\n      and\n        /* \"@openzeppelin/contracts/utils/introspection/ERC165.sol\":862:873  interfaceId */\n      dup3\n        /* \"@openzeppelin/contracts/utils/introspection/ERC165.sol\":862:902  interfaceId == type(IERC165).interfaceId */\n      not(0xffffffffffffffffffffffffffffffffffffffffffffffffffffffff)\n      and\n      eq\n        /* \"@openzeppelin/contracts/utils/introspection/ERC165.sol\":855:902  return interfaceId == type(IERC165).interfaceId */\n      swap1\n      pop\n        /* \"@openzeppelin/contracts/utils/introspection/ERC165.sol\":763:909  function supportsInterface(bytes4 interfaceId) public view virtual returns (bool) {... */\n      swap2\n      swap1\n      pop\n      jump\t// out\n        /* \"@openzeppelin/contracts/utils/Context.sol\":656:752  function _msgSender() internal view virtual returns (address) {... */\n    tag_209:\n        /* \"@openzeppelin/contracts/utils/Context.sol\":709:716  address */\n      0x00\n        /* \"@openzeppelin/contracts/utils/Context.sol\":735:745  msg.sender */\n      caller\n        /* \"@openzeppelin/contracts/utils/Context.sol\":728:745  return msg.sender */\n      swap1\n      pop\n        /* \"@openzeppelin/contracts/utils/Context.sol\":656:752  function _msgSender() internal view virtual returns (address) {... */\n      swap1\n      jump\t// out\n        /* \"@openzeppelin/contracts/token/ERC20/utils/SafeERC20.sol\":8370:9090  function _callOptionalReturn(IERC20 token, bytes memory data) private {... */\n    tag_218:\n        /* \"@openzeppelin/contracts/token/ERC20/utils/SafeERC20.sol\":8450:8468  uint256 returnSize */\n      0x00\n        /* \"@openzeppelin/contracts/token/ERC20/utils/SafeERC20.sol\":8478:8497  uint256 returnValue */\n      0x00\n        /* \"@openzeppelin/contracts/token/ERC20/utils/SafeERC20.sol\":8616:8620  0x20 */\n      0x20\n        /* \"@openzeppelin/contracts/token/ERC20/utils/SafeERC20.sol\":8613:8614  0 */\n      0x00\n        /* \"@openzeppelin/contracts/token/ERC20/utils/SafeERC20.sol\":8606:8610  data */\n      dup5\n        /* \"@openzeppelin/contracts/token/ERC20/utils/SafeERC20.sol\":8600:8611  mload(data) */\n      mload\n        /* \"@openzeppelin/contracts/token/ERC20/utils/SafeERC20.sol\":8593:8597  0x20 */\n      0x20\n        /* \"@openzeppelin/contracts/token/ERC20/utils/SafeERC20.sol\":8587:8591  data */\n      dup7\n        /* \"@openzeppelin/contracts/token/ERC20/utils/SafeERC20.sol\":8583:8598  add(data, 0x20) */\n      add\n        /* \"@openzeppelin/contracts/token/ERC20/utils/SafeERC20.sol\":8580:8581  0 */\n      0x00\n        /* \"@openzeppelin/contracts/token/ERC20/utils/SafeERC20.sol\":8573:8578  token */\n      dup9\n        /* \"@openzeppelin/contracts/token/ERC20/utils/SafeERC20.sol\":8566:8571  gas() */\n      gas\n        /* \"@openzeppelin/contracts/token/ERC20/utils/SafeERC20.sol\":8561:8621  call(gas(), token, 0, add(data, 0x20), mload(data), 0, 0x20) */\n      call\n        /* \"@openzeppelin/contracts/token/ERC20/utils/SafeERC20.sol\":8673:8680  success */\n      dup1\n        /* \"@openzeppelin/contracts/token/ERC20/utils/SafeERC20.sol\":8663:8839  if iszero(success) {... */\n      tag_226\n      jumpi\n        /* \"@openzeppelin/contracts/token/ERC20/utils/SafeERC20.sol\":8717:8721  0x40 */\n      0x40\n        /* \"@openzeppelin/contracts/token/ERC20/utils/SafeERC20.sol\":8711:8722  mload(0x40) */\n      mload\n        /* \"@openzeppelin/contracts/token/ERC20/utils/SafeERC20.sol\":8762:8778  returndatasize() */\n      returndatasize\n        /* \"@openzeppelin/contracts/token/ERC20/utils/SafeERC20.sol\":8759:8760  0 */\n      0x00\n        /* \"@openzeppelin/contracts/token/ERC20/utils/SafeERC20.sol\":8754:8757  ptr */\n      dup3\n        /* \"@openzeppelin/contracts/token/ERC20/utils/SafeERC20.sol\":8739:8779  returndatacopy(ptr, 0, returndatasize()) */\n      returndatacopy\n        /* \"@openzeppelin/contracts/token/ERC20/utils/SafeERC20.sol\":8808:8824  returndatasize() */\n      returndatasize\n        /* \"@openzeppelin/contracts/token/ERC20/utils/SafeERC20.sol\":8803:8806  ptr */\n      dup2\n        /* \"@openzeppelin/contracts/token/ERC20/utils/SafeERC20.sol\":8796:8825  revert(ptr, returndatasize()) */\n      revert\n        /* \"@openzeppelin/contracts/token/ERC20/utils/SafeERC20.sol\":8663:8839  if iszero(success) {... */\n    tag_226:\n        /* \"@openzeppelin/contracts/token/ERC20/utils/SafeERC20.sol\":8866:8882  returndatasize() */\n      returndatasize\n        /* \"@openzeppelin/contracts/token/ERC20/utils/SafeERC20.sol\":8852:8882  returnSize := returndatasize() */\n      swap3\n      pop\n        /* \"@openzeppelin/contracts/token/ERC20/utils/SafeERC20.sol\":8916:8917  0 */\n      0x00\n        /* \"@openzeppelin/contracts/token/ERC20/utils/SafeERC20.sol\":8910:8918  mload(0) */\n      mload\n        /* \"@openzeppelin/contracts/token/ERC20/utils/SafeERC20.sol\":8895:8918  returnValue := mload(0) */\n      swap2\n      pop\n        /* \"@openzeppelin/contracts/token/ERC20/utils/SafeERC20.sol\":8532:8928  {... */\n      pop\n        /* \"@openzeppelin/contracts/token/ERC20/utils/SafeERC20.sol\":8956:8957  0 */\n      0x00\n        /* \"@openzeppelin/contracts/token/ERC20/utils/SafeERC20.sol\":8942:8952  returnSize */\n      dup3\n        /* \"@openzeppelin/contracts/token/ERC20/utils/SafeERC20.sol\":8942:8957  returnSize == 0 */\n      eq\n        /* \"@openzeppelin/contracts/token/ERC20/utils/SafeERC20.sol\":8942:9010  returnSize == 0 ? address(token).code.length == 0 : returnValue != 1 */\n      tag_227\n      jumpi\n        /* \"@openzeppelin/contracts/token/ERC20/utils/SafeERC20.sol\":9009:9010  1 */\n      0x01\n        /* \"@openzeppelin/contracts/token/ERC20/utils/SafeERC20.sol\":8994:9005  returnValue */\n      dup2\n        /* \"@openzeppelin/contracts/token/ERC20/utils/SafeERC20.sol\":8994:9010  returnValue != 1 */\n      eq\n      iszero\n        /* \"@openzeppelin/contracts/token/ERC20/utils/SafeERC20.sol\":8942:9010  returnSize == 0 ? address(token).code.length == 0 : returnValue != 1 */\n      jump(tag_228)\n    tag_227:\n        /* \"@openzeppelin/contracts/token/ERC20/utils/SafeERC20.sol\":8990:8991  0 */\n      0x00\n        /* \"@openzeppelin/contracts/token/ERC20/utils/SafeERC20.sol\":8968:8973  token */\n      dup5\n        /* \"@openzeppelin/contracts/token/ERC20/utils/SafeERC20.sol\":8960:8986  address(token).code.length */\n      0xffffffffffffffffffffffffffffffffffffffff\n      and\n      extcodesize\n        /* \"@openzeppelin/contracts/token/ERC20/utils/SafeERC20.sol\":8960:8991  address(token).code.length == 0 */\n      eq\n        /* \"@openzeppelin/contracts/token/ERC20/utils/SafeERC20.sol\":8942:9010  returnSize == 0 ? address(token).code.length == 0 : returnValue != 1 */\n    tag_228:\n        /* \"@openzeppelin/contracts/token/ERC20/utils/SafeERC20.sol\":8938:9084  if (returnSize == 0 ? address(token).code.length == 0 : returnValue != 1) {... */\n      iszero\n      tag_229\n      jumpi\n        /* \"@openzeppelin/contracts/token/ERC20/utils/SafeERC20.sol\":9066:9071  token */\n      dup4\n        /* \"@openzeppelin/contracts/token/ERC20/utils/SafeERC20.sol\":9033:9073  SafeERC20FailedOperation(address(token)) */\n      mload(0x40)\n      0x5274afe700000000000000000000000000000000000000000000000000000000\n      dup2\n      mstore\n      0x04\n      add\n      tag_230\n      swap2\n      swap1\n      tag_43\n      jump\t// in\n    tag_230:\n      mload(0x40)\n      dup1\n      swap2\n      sub\n      swap1\n      revert\n        /* \"@openzeppelin/contracts/token/ERC20/utils/SafeERC20.sol\":8938:9084  if (returnSize == 0 ? address(token).code.length == 0 : returnValue != 1) {... */\n    tag_229:\n        /* \"@openzeppelin/contracts/token/ERC20/utils/SafeERC20.sol\":8440:9090  {... */\n      pop\n      pop\n        /* \"@openzeppelin/contracts/token/ERC20/utils/SafeERC20.sol\":8370:9090  function _callOptionalReturn(IERC20 token, bytes memory data) private {... */\n      pop\n      pop\n      jump\t// out\n        /* \"#utility.yul\":7:82   */\n    tag_231:\n        /* \"#utility.yul\":40:46   */\n      0x00\n        /* \"#utility.yul\":73:75   */\n      0x40\n        /* \"#utility.yul\":67:76   */\n      mload\n        /* \"#utility.yul\":57:76   */\n      swap1\n      pop\n        /* \"#utility.yul\":7:82   */\n      swap1\n      jump\t// out\n        /* \"#utility.yul\":88:205   */\n    tag_232:\n        /* \"#utility.yul\":197:198   */\n      0x00\n        /* \"#utility.yul\":194:195   */\n      0x00\n        /* \"#utility.yul\":187:199   */\n      revert\n        /* \"#utility.yul\":211:328   */\n    tag_233:\n        /* \"#utility.yul\":320:321   */\n      0x00\n        /* \"#utility.yul\":317:318   */\n      0x00\n        /* \"#utility.yul\":310:322   */\n      revert\n        /* \"#utility.yul\":334:483   */\n    tag_234:\n        /* \"#utility.yul\":370:377   */\n      0x00\n        /* \"#utility.yul\":410:476   */\n      0xffffffff00000000000000000000000000000000000000000000000000000000\n        /* \"#utility.yul\":403:408   */\n      dup3\n        /* \"#utility.yul\":399:477   */\n      and\n        /* \"#utility.yul\":388:477   */\n      swap1\n      pop\n        /* \"#utility.yul\":334:483   */\n      swap2\n      swap1\n      pop\n      jump\t// out\n        /* \"#utility.yul\":489:609   */\n    tag_235:\n        /* \"#utility.yul\":561:584   */\n      tag_303\n        /* \"#utility.yul\":578:583   */\n      dup2\n        /* \"#utility.yul\":561:584   */\n      tag_234\n      jump\t// in\n    tag_303:\n        /* \"#utility.yul\":554:559   */\n      dup2\n        /* \"#utility.yul\":551:585   */\n      eq\n        /* \"#utility.yul\":541:603   */\n      tag_304\n      jumpi\n        /* \"#utility.yul\":599:600   */\n      0x00\n        /* \"#utility.yul\":596:597   */\n      0x00\n        /* \"#utility.yul\":589:601   */\n      revert\n        /* \"#utility.yul\":541:603   */\n    tag_304:\n        /* \"#utility.yul\":489:609   */\n      pop\n      jump\t// out\n        /* \"#utility.yul\":615:752   */\n    tag_236:\n        /* \"#utility.yul\":660:665   */\n      0x00\n        /* \"#utility.yul\":698:704   */\n      dup2\n        /* \"#utility.yul\":685:705   */\n      calldataload\n        /* \"#utility.yul\":676:705   */\n      swap1\n      pop\n        /* \"#utility.yul\":714:746   */\n      tag_306\n        /* \"#utility.yul\":740:745   */\n      dup2\n        /* \"#utility.yul\":714:746   */\n      tag_235\n      jump\t// in\n    tag_306:\n        /* \"#utility.yul\":615:752   */\n      swap3\n      swap2\n      pop\n      pop\n      jump\t// out\n        /* \"#utility.yul\":758:1085   */\n    tag_26:\n        /* \"#utility.yul\":816:822   */\n      0x00\n        /* \"#utility.yul\":865:867   */\n      0x20\n        /* \"#utility.yul\":853:862   */\n      dup3\n        /* \"#utility.yul\":844:851   */\n      dup5\n        /* \"#utility.yul\":840:863   */\n      sub\n        /* \"#utility.yul\":836:868   */\n      slt\n        /* \"#utility.yul\":833:952   */\n      iszero\n      tag_308\n      jumpi\n        /* \"#utility.yul\":871:950   */\n      tag_309\n      tag_232\n      jump\t// in\n    tag_309:\n        /* \"#utility.yul\":833:952   */\n    tag_308:\n        /* \"#utility.yul\":991:992   */\n      0x00\n        /* \"#utility.yul\":1016:1068   */\n      tag_310\n        /* \"#utility.yul\":1060:1067   */\n      dup5\n        /* \"#utility.yul\":1051:1057   */\n      dup3\n        /* \"#utility.yul\":1040:1049   */\n      dup6\n        /* \"#utility.yul\":1036:1058   */\n      add\n        /* \"#utility.yul\":1016:1068   */\n      tag_236\n      jump\t// in\n    tag_310:\n        /* \"#utility.yul\":1006:1068   */\n      swap2\n      pop\n        /* \"#utility.yul\":962:1078   */\n      pop\n        /* \"#utility.yul\":758:1085   */\n      swap3\n      swap2\n      pop\n      pop\n      jump\t// out\n        /* \"#utility.yul\":1091:1181   */\n    tag_237:\n        /* \"#utility.yul\":1125:1132   */\n      0x00\n        /* \"#utility.yul\":1168:1173   */\n      dup2\n        /* \"#utility.yul\":1161:1174   */\n      iszero\n        /* \"#utility.yul\":1154:1175   */\n      iszero\n        /* \"#utility.yul\":1143:1175   */\n      swap1\n      pop\n        /* \"#utility.yul\":1091:1181   */\n      swap2\n      swap1\n      pop\n      jump\t// out\n        /* \"#utility.yul\":1187:1296   */\n    tag_238:\n        /* \"#utility.yul\":1268:1289   */\n      tag_313\n        /* \"#utility.yul\":1283:1288   */\n      dup2\n        /* \"#utility.yul\":1268:1289   */\n      tag_237\n      jump\t// in\n    tag_313:\n        /* \"#utility.yul\":1263:1266   */\n      dup3\n        /* \"#utility.yul\":1256:1290   */\n      mstore\n        /* \"#utility.yul\":1187:1296   */\n      pop\n      pop\n      jump\t// out\n        /* \"#utility.yul\":1302:1512   */\n    tag_29:\n        /* \"#utility.yul\":1389:1393   */\n      0x00\n        /* \"#utility.yul\":1427:1429   */\n      0x20\n        /* \"#utility.yul\":1416:1425   */\n      dup3\n        /* \"#utility.yul\":1412:1430   */\n      add\n        /* \"#utility.yul\":1404:1430   */\n      swap1\n      pop\n        /* \"#utility.yul\":1440:1505   */\n      tag_315\n        /* \"#utility.yul\":1502:1503   */\n      0x00\n        /* \"#utility.yul\":1491:1500   */\n      dup4\n        /* \"#utility.yul\":1487:1504   */\n      add\n        /* \"#utility.yul\":1478:1484   */\n      dup5\n        /* \"#utility.yul\":1440:1505   */\n      tag_238\n      jump\t// in\n    tag_315:\n        /* \"#utility.yul\":1302:1512   */\n      swap3\n      swap2\n      pop\n      pop\n      jump\t// out\n        /* \"#utility.yul\":1518:1595   */\n    tag_239:\n        /* \"#utility.yul\":1555:1562   */\n      0x00\n        /* \"#utility.yul\":1584:1589   */\n      dup2\n        /* \"#utility.yul\":1573:1589   */\n      swap1\n      pop\n        /* \"#utility.yul\":1518:1595   */\n      swap2\n      swap1\n      pop\n      jump\t// out\n        /* \"#utility.yul\":1601:1723   */\n    tag_240:\n        /* \"#utility.yul\":1674:1698   */\n      tag_318\n        /* \"#utility.yul\":1692:1697   */\n      dup2\n        /* \"#utility.yul\":1674:1698   */\n      tag_239\n      jump\t// in\n    tag_318:\n        /* \"#utility.yul\":1667:1672   */\n      dup2\n        /* \"#utility.yul\":1664:1699   */\n      eq\n        /* \"#utility.yul\":1654:1717   */\n      tag_319\n      jumpi\n        /* \"#utility.yul\":1713:1714   */\n      0x00\n        /* \"#utility.yul\":1710:1711   */\n      0x00\n        /* \"#utility.yul\":1703:1715   */\n      revert\n        /* \"#utility.yul\":1654:1717   */\n    tag_319:\n        /* \"#utility.yul\":1601:1723   */\n      pop\n      jump\t// out\n        /* \"#utility.yul\":1729:1868   */\n    tag_241:\n        /* \"#utility.yul\":1775:1780   */\n      0x00\n        /* \"#utility.yul\":1813:1819   */\n      dup2\n        /* \"#utility.yul\":1800:1820   */\n      calldataload\n        /* \"#utility.yul\":1791:1820   */\n      swap1\n      pop\n        /* \"#utility.yul\":1829:1862   */\n      tag_321\n        /* \"#utility.yul\":1856:1861   */\n      dup2\n        /* \"#utility.yul\":1829:1862   */\n      tag_240\n      jump\t// in\n    tag_321:\n        /* \"#utility.yul\":1729:1868   */\n      swap3\n      swap2\n      pop\n      pop\n      jump\t// out\n        /* \"#utility.yul\":1874:2203   */\n    tag_32:\n        /* \"#utility.yul\":1933:1939   */\n      0x00\n        /* \"#utility.yul\":1982:1984   */\n      0x20\n        /* \"#utility.yul\":1970:1979   */\n      dup3\n        /* \"#utility.yul\":1961:1968   */\n      dup5\n        /* \"#utility.yul\":1957:1980   */\n      sub\n        /* \"#utility.yul\":1953:1985   */\n      slt\n        /* \"#utility.yul\":1950:2069   */\n      iszero\n      tag_323\n      jumpi\n        /* \"#utility.yul\":1988:2067   */\n      tag_324\n      tag_232\n      jump\t// in\n    tag_324:\n        /* \"#utility.yul\":1950:2069   */\n    tag_323:\n        /* \"#utility.yul\":2108:2109   */\n      0x00\n        /* \"#utility.yul\":2133:2186   */\n      tag_325\n        /* \"#utility.yul\":2178:2185   */\n      dup5\n        /* \"#utility.yul\":2169:2175   */\n      dup3\n        /* \"#utility.yul\":2158:2167   */\n      dup6\n        /* \"#utility.yul\":2154:2176   */\n      add\n        /* \"#utility.yul\":2133:2186   */\n      tag_241\n      jump\t// in\n    tag_325:\n        /* \"#utility.yul\":2123:2186   */\n      swap2\n      pop\n        /* \"#utility.yul\":2079:2196   */\n      pop\n        /* \"#utility.yul\":1874:2203   */\n      swap3\n      swap2\n      pop\n      pop\n      jump\t// out\n        /* \"#utility.yul\":2209:2335   */\n    tag_242:\n        /* \"#utility.yul\":2246:2253   */\n      0x00\n        /* \"#utility.yul\":2286:2328   */\n      0xffffffffffffffffffffffffffffffffffffffff\n        /* \"#utility.yul\":2279:2284   */\n      dup3\n        /* \"#utility.yul\":2275:2329   */\n      and\n        /* \"#utility.yul\":2264:2329   */\n      swap1\n      pop\n        /* \"#utility.yul\":2209:2335   */\n      swap2\n      swap1\n      pop\n      jump\t// out\n        /* \"#utility.yul\":2341:2401   */\n    tag_243:\n        /* \"#utility.yul\":2369:2372   */\n      0x00\n        /* \"#utility.yul\":2390:2395   */\n      dup2\n        /* \"#utility.yul\":2383:2395   */\n      swap1\n      pop\n        /* \"#utility.yul\":2341:2401   */\n      swap2\n      swap1\n      pop\n      jump\t// out\n        /* \"#utility.yul\":2407:2549   */\n    tag_244:\n        /* \"#utility.yul\":2457:2466   */\n      0x00\n        /* \"#utility.yul\":2490:2543   */\n      tag_329\n        /* \"#utility.yul\":2508:2542   */\n      tag_330\n        /* \"#utility.yul\":2517:2541   */\n      tag_331\n        /* \"#utility.yul\":2535:2540   */\n      dup5\n        /* \"#utility.yul\":2517:2541   */\n      tag_242\n      jump\t// in\n    tag_331:\n        /* \"#utility.yul\":2508:2542   */\n      tag_243\n      jump\t// in\n    tag_330:\n        /* \"#utility.yul\":2490:2543   */\n      tag_242\n      jump\t// in\n    tag_329:\n        /* \"#utility.yul\":2477:2543   */\n      swap1\n      pop\n        /* \"#utility.yul\":2407:2549   */\n      swap2\n      swap1\n      pop\n      jump\t// out\n        /* \"#utility.yul\":2555:2681   */\n    tag_245:\n        /* \"#utility.yul\":2605:2614   */\n      0x00\n        /* \"#utility.yul\":2638:2675   */\n      tag_333\n        /* \"#utility.yul\":2669:2674   */\n      dup3\n        /* \"#utility.yul\":2638:2675   */\n      tag_244\n      jump\t// in\n    tag_333:\n        /* \"#utility.yul\":2625:2675   */\n      swap1\n      pop\n        /* \"#utility.yul\":2555:2681   */\n      swap2\n      swap1\n      pop\n      jump\t// out\n        /* \"#utility.yul\":2687:2827   */\n    tag_246:\n        /* \"#utility.yul\":2751:2760   */\n      0x00\n        /* \"#utility.yul\":2784:2821   */\n      tag_335\n        /* \"#utility.yul\":2815:2820   */\n      dup3\n        /* \"#utility.yul\":2784:2821   */\n      tag_245\n      jump\t// in\n    tag_335:\n        /* \"#utility.yul\":2771:2821   */\n      swap1\n      pop\n        /* \"#utility.yul\":2687:2827   */\n      swap2\n      swap1\n      pop\n      jump\t// out\n        /* \"#utility.yul\":2833:2992   */\n    tag_247:\n        /* \"#utility.yul\":2934:2985   */\n      tag_337\n        /* \"#utility.yul\":2979:2984   */\n      dup2\n        /* \"#utility.yul\":2934:2985   */\n      tag_246\n      jump\t// in\n    tag_337:\n        /* \"#utility.yul\":2929:2932   */\n      dup3\n        /* \"#utility.yul\":2922:2986   */\n      mstore\n        /* \"#utility.yul\":2833:2992   */\n      pop\n      pop\n      jump\t// out\n        /* \"#utility.yul\":2998:3248   */\n    tag_37:\n        /* \"#utility.yul\":3105:3109   */\n      0x00\n        /* \"#utility.yul\":3143:3145   */\n      0x20\n        /* \"#utility.yul\":3132:3141   */\n      dup3\n        /* \"#utility.yul\":3128:3146   */\n      add\n        /* \"#utility.yul\":3120:3146   */\n      swap1\n      pop\n        /* \"#utility.yul\":3156:3241   */\n      tag_339\n        /* \"#utility.yul\":3238:3239   */\n      0x00\n        /* \"#utility.yul\":3227:3236   */\n      dup4\n        /* \"#utility.yul\":3223:3240   */\n      add\n        /* \"#utility.yul\":3214:3220   */\n      dup5\n        /* \"#utility.yul\":3156:3241   */\n      tag_247\n      jump\t// in\n    tag_339:\n        /* \"#utility.yul\":2998:3248   */\n      swap3\n      swap2\n      pop\n      pop\n      jump\t// out\n        /* \"#utility.yul\":3254:3350   */\n    tag_248:\n        /* \"#utility.yul\":3291:3298   */\n      0x00\n        /* \"#utility.yul\":3320:3344   */\n      tag_341\n        /* \"#utility.yul\":3338:3343   */\n      dup3\n        /* \"#utility.yul\":3320:3344   */\n      tag_242\n      jump\t// in\n    tag_341:\n        /* \"#utility.yul\":3309:3344   */\n      swap1\n      pop\n        /* \"#utility.yul\":3254:3350   */\n      swap2\n      swap1\n      pop\n      jump\t// out\n        /* \"#utility.yul\":3356:3474   */\n    tag_249:\n        /* \"#utility.yul\":3443:3467   */\n      tag_343\n        /* \"#utility.yul\":3461:3466   */\n      dup2\n        /* \"#utility.yul\":3443:3467   */\n      tag_248\n      jump\t// in\n    tag_343:\n        /* \"#utility.yul\":3438:3441   */\n      dup3\n        /* \"#utility.yul\":3431:3468   */\n      mstore\n        /* \"#utility.yul\":3356:3474   */\n      pop\n      pop\n      jump\t// out\n        /* \"#utility.yul\":3480:3702   */\n    tag_43:\n        /* \"#utility.yul\":3573:3577   */\n      0x00\n        /* \"#utility.yul\":3611:3613   */\n      0x20\n        /* \"#utility.yul\":3600:3609   */\n      dup3\n        /* \"#utility.yul\":3596:3614   */\n      add\n        /* \"#utility.yul\":3588:3614   */\n      swap1\n      pop\n        /* \"#utility.yul\":3624:3695   */\n      tag_345\n        /* \"#utility.yul\":3692:3693   */\n      0x00\n        /* \"#utility.yul\":3681:3690   */\n      dup4\n        /* \"#utility.yul\":3677:3694   */\n      add\n        /* \"#utility.yul\":3668:3674   */\n      dup5\n        /* \"#utility.yul\":3624:3695   */\n      tag_249\n      jump\t// in\n    tag_345:\n        /* \"#utility.yul\":3480:3702   */\n      swap3\n      swap2\n      pop\n      pop\n      jump\t// out\n        /* \"#utility.yul\":3708:3830   */\n    tag_250:\n        /* \"#utility.yul\":3781:3805   */\n      tag_347\n        /* \"#utility.yul\":3799:3804   */\n      dup2\n        /* \"#utility.yul\":3781:3805   */\n      tag_248\n      jump\t// in\n    tag_347:\n        /* \"#utility.yul\":3774:3779   */\n      dup2\n        /* \"#utility.yul\":3771:3806   */\n      eq\n        /* \"#utility.yul\":3761:3824   */\n      tag_348\n      jumpi\n        /* \"#utility.yul\":3820:3821   */\n      0x00\n        /* \"#utility.yul\":3817:3818   */\n      0x00\n        /* \"#utility.yul\":3810:3822   */\n      revert\n        /* \"#utility.yul\":3761:3824   */\n    tag_348:\n        /* \"#utility.yul\":3708:3830   */\n      pop\n      jump\t// out\n        /* \"#utility.yul\":3836:3975   */\n    tag_251:\n        /* \"#utility.yul\":3882:3887   */\n      0x00\n        /* \"#utility.yul\":3920:3926   */\n      dup2\n        /* \"#utility.yul\":3907:3927   */\n      calldataload\n        /* \"#utility.yul\":3898:3927   */\n      swap1\n      pop\n        /* \"#utility.yul\":3936:3969   */\n      tag_350\n        /* \"#utility.yul\":3963:3968   */\n      dup2\n        /* \"#utility.yul\":3936:3969   */\n      tag_250\n      jump\t// in\n    tag_350:\n        /* \"#utility.yul\":3836:3975   */\n      swap3\n      swap2\n      pop\n      pop\n      jump\t// out\n        /* \"#utility.yul\":3981:4310   */\n    tag_46:\n        /* \"#utility.yul\":4040:4046   */\n      0x00\n        /* \"#utility.yul\":4089:4091   */\n      0x20\n        /* \"#utility.yul\":4077:4086   */\n      dup3\n        /* \"#utility.yul\":4068:4075   */\n      dup5\n        /* \"#utility.yul\":4064:4087   */\n      sub\n        /* \"#utility.yul\":4060:4092   */\n      slt\n        /* \"#utility.yul\":4057:4176   */\n      iszero\n      tag_352\n      jumpi\n        /* \"#utility.yul\":4095:4174   */\n      tag_353\n      tag_232\n      jump\t// in\n    tag_353:\n        /* \"#utility.yul\":4057:4176   */\n    tag_352:\n        /* \"#utility.yul\":4215:4216   */\n      0x00\n        /* \"#utility.yul\":4240:4293   */\n      tag_354\n        /* \"#utility.yul\":4285:4292   */\n      dup5\n        /* \"#utility.yul\":4276:4282   */\n      dup3\n        /* \"#utility.yul\":4265:4274   */\n      dup6\n        /* \"#utility.yul\":4261:4283   */\n      add\n        /* \"#utility.yul\":4240:4293   */\n      tag_251\n      jump\t// in\n    tag_354:\n        /* \"#utility.yul\":4230:4293   */\n      swap2\n      pop\n        /* \"#utility.yul\":4186:4303   */\n      pop\n        /* \"#utility.yul\":3981:4310   */\n      swap3\n      swap2\n      pop\n      pop\n      jump\t// out\n        /* \"#utility.yul\":4316:4790   */\n    tag_50:\n        /* \"#utility.yul\":4384:4390   */\n      0x00\n        /* \"#utility.yul\":4392:4398   */\n      0x00\n        /* \"#utility.yul\":4441:4443   */\n      0x40\n        /* \"#utility.yul\":4429:4438   */\n      dup4\n        /* \"#utility.yul\":4420:4427   */\n      dup6\n        /* \"#utility.yul\":4416:4439   */\n      sub\n        /* \"#utility.yul\":4412:4444   */\n      slt\n        /* \"#utility.yul\":4409:4528   */\n      iszero\n      tag_356\n      jumpi\n        /* \"#utility.yul\":4447:4526   */\n      tag_357\n      tag_232\n      jump\t// in\n    tag_357:\n        /* \"#utility.yul\":4409:4528   */\n    tag_356:\n        /* \"#utility.yul\":4567:4568   */\n      0x00\n        /* \"#utility.yul\":4592:4645   */\n      tag_358\n        /* \"#utility.yul\":4637:4644   */\n      dup6\n        /* \"#utility.yul\":4628:4634   */\n      dup3\n        /* \"#utility.yul\":4617:4626   */\n      dup7\n        /* \"#utility.yul\":4613:4635   */\n      add\n        /* \"#utility.yul\":4592:4645   */\n      tag_241\n      jump\t// in\n    tag_358:\n        /* \"#utility.yul\":4582:4645   */\n      swap3\n      pop\n        /* \"#utility.yul\":4538:4655   */\n      pop\n        /* \"#utility.yul\":4694:4696   */\n      0x20\n        /* \"#utility.yul\":4720:4773   */\n      tag_359\n        /* \"#utility.yul\":4765:4772   */\n      dup6\n        /* \"#utility.yul\":4756:4762   */\n      dup3\n        /* \"#utility.yul\":4745:4754   */\n      dup7\n        /* \"#utility.yul\":4741:4763   */\n      add\n        /* \"#utility.yul\":4720:4773   */\n      tag_251\n      jump\t// in\n    tag_359:\n        /* \"#utility.yul\":4710:4773   */\n      swap2\n      pop\n        /* \"#utility.yul\":4665:4783   */\n      pop\n        /* \"#utility.yul\":4316:4790   */\n      swap3\n      pop\n      swap3\n      swap1\n      pop\n      jump\t// out\n        /* \"#utility.yul\":4796:4914   */\n    tag_252:\n        /* \"#utility.yul\":4883:4907   */\n      tag_361\n        /* \"#utility.yul\":4901:4906   */\n      dup2\n        /* \"#utility.yul\":4883:4907   */\n      tag_239\n      jump\t// in\n    tag_361:\n        /* \"#utility.yul\":4878:4881   */\n      dup3\n        /* \"#utility.yul\":4871:4908   */\n      mstore\n        /* \"#utility.yul\":4796:4914   */\n      pop\n      pop\n      jump\t// out\n        /* \"#utility.yul\":4920:5473   */\n    tag_53:\n        /* \"#utility.yul\":5097:5101   */\n      0x00\n        /* \"#utility.yul\":5135:5138   */\n      0x80\n        /* \"#utility.yul\":5124:5133   */\n      dup3\n        /* \"#utility.yul\":5120:5139   */\n      add\n        /* \"#utility.yul\":5112:5139   */\n      swap1\n      pop\n        /* \"#utility.yul\":5149:5220   */\n      tag_363\n        /* \"#utility.yul\":5217:5218   */\n      0x00\n        /* \"#utility.yul\":5206:5215   */\n      dup4\n        /* \"#utility.yul\":5202:5219   */\n      add\n        /* \"#utility.yul\":5193:5199   */\n      dup8\n        /* \"#utility.yul\":5149:5220   */\n      tag_249\n      jump\t// in\n    tag_363:\n        /* \"#utility.yul\":5230:5302   */\n      tag_364\n        /* \"#utility.yul\":5298:5300   */\n      0x20\n        /* \"#utility.yul\":5287:5296   */\n      dup4\n        /* \"#utility.yul\":5283:5301   */\n      add\n        /* \"#utility.yul\":5274:5280   */\n      dup7\n        /* \"#utility.yul\":5230:5302   */\n      tag_252\n      jump\t// in\n    tag_364:\n        /* \"#utility.yul\":5312:5384   */\n      tag_365\n        /* \"#utility.yul\":5380:5382   */\n      0x40\n        /* \"#utility.yul\":5369:5378   */\n      dup4\n        /* \"#utility.yul\":5365:5383   */\n      add\n        /* \"#utility.yul\":5356:5362   */\n      dup6\n        /* \"#utility.yul\":5312:5384   */\n      tag_252\n      jump\t// in\n    tag_365:\n        /* \"#utility.yul\":5394:5466   */\n      tag_366\n        /* \"#utility.yul\":5462:5464   */\n      0x60\n        /* \"#utility.yul\":5451:5460   */\n      dup4\n        /* \"#utility.yul\":5447:5465   */\n      add\n        /* \"#utility.yul\":5438:5444   */\n      dup5\n        /* \"#utility.yul\":5394:5466   */\n      tag_252\n      jump\t// in\n    tag_366:\n        /* \"#utility.yul\":4920:5473   */\n      swap6\n      swap5\n      pop\n      pop\n      pop\n      pop\n      pop\n      jump\t// out\n        /* \"#utility.yul\":5479:5953   */\n    tag_56:\n        /* \"#utility.yul\":5547:5553   */\n      0x00\n        /* \"#utility.yul\":5555:5561   */\n      0x00\n        /* \"#utility.yul\":5604:5606   */\n      0x40\n        /* \"#utility.yul\":5592:5601   */\n      dup4\n        /* \"#utility.yul\":5583:5590   */\n      dup6\n        /* \"#utility.yul\":5579:5602   */\n      sub\n        /* \"#utility.yul\":5575:5607   */\n      slt\n        /* \"#utility.yul\":5572:5691   */\n      iszero\n      tag_368\n      jumpi\n        /* \"#utility.yul\":5610:5689   */\n      tag_369\n      tag_232\n      jump\t// in\n    tag_369:\n        /* \"#utility.yul\":5572:5691   */\n    tag_368:\n        /* \"#utility.yul\":5730:5731   */\n      0x00\n        /* \"#utility.yul\":5755:5808   */\n      tag_370\n        /* \"#utility.yul\":5800:5807   */\n      dup6\n        /* \"#utility.yul\":5791:5797   */\n      dup3\n        /* \"#utility.yul\":5780:5789   */\n      dup7\n        /* \"#utility.yul\":5776:5798   */\n      add\n        /* \"#utility.yul\":5755:5808   */\n      tag_251\n      jump\t// in\n    tag_370:\n        /* \"#utility.yul\":5745:5808   */\n      swap3\n      pop\n        /* \"#utility.yul\":5701:5818   */\n      pop\n        /* \"#utility.yul\":5857:5859   */\n      0x20\n        /* \"#utility.yul\":5883:5936   */\n      tag_371\n        /* \"#utility.yul\":5928:5935   */\n      dup6\n        /* \"#utility.yul\":5919:5925   */\n      dup3\n        /* \"#utility.yul\":5908:5917   */\n      dup7\n        /* \"#utility.yul\":5904:5926   */\n      add\n        /* \"#utility.yul\":5883:5936   */\n      tag_241\n      jump\t// in\n    tag_371:\n        /* \"#utility.yul\":5873:5936   */\n      swap2\n      pop\n        /* \"#utility.yul\":5828:5946   */\n      pop\n        /* \"#utility.yul\":5479:5953   */\n      swap3\n      pop\n      swap3\n      swap1\n      pop\n      jump\t// out\n        /* \"#utility.yul\":5959:6181   */\n    tag_61:\n        /* \"#utility.yul\":6052:6056   */\n      0x00\n        /* \"#utility.yul\":6090:6092   */\n      0x20\n        /* \"#utility.yul\":6079:6088   */\n      dup3\n        /* \"#utility.yul\":6075:6093   */\n      add\n        /* \"#utility.yul\":6067:6093   */\n      swap1\n      pop\n        /* \"#utility.yul\":6103:6174   */\n      tag_373\n        /* \"#utility.yul\":6171:6172   */\n      0x00\n        /* \"#utility.yul\":6160:6169   */\n      dup4\n        /* \"#utility.yul\":6156:6173   */\n      add\n        /* \"#utility.yul\":6147:6153   */\n      dup5\n        /* \"#utility.yul\":6103:6174   */\n      tag_252\n      jump\t// in\n    tag_373:\n        /* \"#utility.yul\":5959:6181   */\n      swap3\n      swap2\n      pop\n      pop\n      jump\t// out\n        /* \"#utility.yul\":6187:6304   */\n    tag_253:\n        /* \"#utility.yul\":6296:6297   */\n      0x00\n        /* \"#utility.yul\":6293:6294   */\n      0x00\n        /* \"#utility.yul\":6286:6298   */\n      revert\n        /* \"#utility.yul\":6310:6412   */\n    tag_254:\n        /* \"#utility.yul\":6351:6357   */\n      0x00\n        /* \"#utility.yul\":6402:6404   */\n      0x1f\n        /* \"#utility.yul\":6398:6405   */\n      not\n        /* \"#utility.yul\":6393:6395   */\n      0x1f\n        /* \"#utility.yul\":6386:6391   */\n      dup4\n        /* \"#utility.yul\":6382:6396   */\n      add\n        /* \"#utility.yul\":6378:6406   */\n      and\n        /* \"#utility.yul\":6368:6406   */\n      swap1\n      pop\n        /* \"#utility.yul\":6310:6412   */\n      swap2\n      swap1\n      pop\n      jump\t// out\n        /* \"#utility.yul\":6418:6598   */\n    tag_255:\n        /* \"#utility.yul\":6466:6543   */\n      0x4e487b7100000000000000000000000000000000000000000000000000000000\n        /* \"#utility.yul\":6463:6464   */\n      0x00\n        /* \"#utility.yul\":6456:6544   */\n      mstore\n        /* \"#utility.yul\":6563:6567   */\n      0x41\n        /* \"#utility.yul\":6560:6561   */\n      0x04\n        /* \"#utility.yul\":6553:6568   */\n      mstore\n        /* \"#utility.yul\":6587:6591   */\n      0x24\n        /* \"#utility.yul\":6584:6585   */\n      0x00\n        /* \"#utility.yul\":6577:6592   */\n      revert\n        /* \"#utility.yul\":6604:6885   */\n    tag_256:\n        /* \"#utility.yul\":6687:6714   */\n      tag_378\n        /* \"#utility.yul\":6709:6713   */\n      dup3\n        /* \"#utility.yul\":6687:6714   */\n      tag_254\n      jump\t// in\n    tag_378:\n        /* \"#utility.yul\":6679:6685   */\n      dup2\n        /* \"#utility.yul\":6675:6715   */\n      add\n        /* \"#utility.yul\":6817:6823   */\n      dup2\n        /* \"#utility.yul\":6805:6815   */\n      dup2\n        /* \"#utility.yul\":6802:6824   */\n      lt\n        /* \"#utility.yul\":6781:6799   */\n      0xffffffffffffffff\n        /* \"#utility.yul\":6769:6779   */\n      dup3\n        /* \"#utility.yul\":6766:6800   */\n      gt\n        /* \"#utility.yul\":6763:6825   */\n      or\n        /* \"#utility.yul\":6760:6848   */\n      iszero\n      tag_379\n      jumpi\n        /* \"#utility.yul\":6828:6846   */\n      tag_380\n      tag_255\n      jump\t// in\n    tag_380:\n        /* \"#utility.yul\":6760:6848   */\n    tag_379:\n        /* \"#utility.yul\":6868:6878   */\n      dup1\n        /* \"#utility.yul\":6864:6866   */\n      0x40\n        /* \"#utility.yul\":6857:6879   */\n      mstore\n        /* \"#utility.yul\":6647:6885   */\n      pop\n        /* \"#utility.yul\":6604:6885   */\n      pop\n      pop\n      jump\t// out\n        /* \"#utility.yul\":6891:7020   */\n    tag_257:\n        /* \"#utility.yul\":6925:6931   */\n      0x00\n        /* \"#utility.yul\":6952:6972   */\n      tag_382\n      tag_231\n      jump\t// in\n    tag_382:\n        /* \"#utility.yul\":6942:6972   */\n      swap1\n      pop\n        /* \"#utility.yul\":6981:7014   */\n      tag_383\n        /* \"#utility.yul\":7009:7013   */\n      dup3\n        /* \"#utility.yul\":7001:7007   */\n      dup3\n        /* \"#utility.yul\":6981:7014   */\n      tag_256\n      jump\t// in\n    tag_383:\n        /* \"#utility.yul\":6891:7020   */\n      swap2\n      swap1\n      pop\n      jump\t// out\n        /* \"#utility.yul\":7026:7337   */\n    tag_258:\n        /* \"#utility.yul\":7103:7107   */\n      0x00\n        /* \"#utility.yul\":7193:7211   */\n      0xffffffffffffffff\n        /* \"#utility.yul\":7185:7191   */\n      dup3\n        /* \"#utility.yul\":7182:7212   */\n      gt\n        /* \"#utility.yul\":7179:7235   */\n      iszero\n      tag_385\n      jumpi\n        /* \"#utility.yul\":7215:7233   */\n      tag_386\n      tag_255\n      jump\t// in\n    tag_386:\n        /* \"#utility.yul\":7179:7235   */\n    tag_385:\n        /* \"#utility.yul\":7265:7269   */\n      0x20\n        /* \"#utility.yul\":7257:7263   */\n      dup3\n        /* \"#utility.yul\":7253:7270   */\n      mul\n        /* \"#utility.yul\":7245:7270   */\n      swap1\n      pop\n        /* \"#utility.yul\":7325:7329   */\n      0x20\n        /* \"#utility.yul\":7319:7323   */\n      dup2\n        /* \"#utility.yul\":7315:7330   */\n      add\n        /* \"#utility.yul\":7307:7330   */\n      swap1\n      pop\n        /* \"#utility.yul\":7026:7337   */\n      swap2\n      swap1\n      pop\n      jump\t// out\n        /* \"#utility.yul\":7343:7460   */\n    tag_259:\n        /* \"#utility.yul\":7452:7453   */\n      0x00\n        /* \"#utility.yul\":7449:7450   */\n      0x00\n        /* \"#utility.yul\":7442:7454   */\n      revert\n        /* \"#utility.yul\":7483:8193   */\n    tag_260:\n        /* \"#utility.yul\":7579:7584   */\n      0x00\n        /* \"#utility.yul\":7604:7685   */\n      tag_389\n        /* \"#utility.yul\":7620:7684   */\n      tag_390\n        /* \"#utility.yul\":7677:7683   */\n      dup5\n        /* \"#utility.yul\":7620:7684   */\n      tag_258\n      jump\t// in\n    tag_390:\n        /* \"#utility.yul\":7604:7685   */\n      tag_257\n      jump\t// in\n    tag_389:\n        /* \"#utility.yul\":7595:7685   */\n      swap1\n      pop\n        /* \"#utility.yul\":7705:7710   */\n      dup1\n        /* \"#utility.yul\":7734:7740   */\n      dup4\n        /* \"#utility.yul\":7727:7732   */\n      dup3\n        /* \"#utility.yul\":7720:7741   */\n      mstore\n        /* \"#utility.yul\":7768:7772   */\n      0x20\n        /* \"#utility.yul\":7761:7766   */\n      dup3\n        /* \"#utility.yul\":7757:7773   */\n      add\n        /* \"#utility.yul\":7750:7773   */\n      swap1\n      pop\n        /* \"#utility.yul\":7821:7825   */\n      0x20\n        /* \"#utility.yul\":7813:7819   */\n      dup5\n        /* \"#utility.yul\":7809:7826   */\n      mul\n        /* \"#utility.yul\":7801:7807   */\n      dup4\n        /* \"#utility.yul\":7797:7827   */\n      add\n        /* \"#utility.yul\":7850:7853   */\n      dup6\n        /* \"#utility.yul\":7842:7848   */\n      dup2\n        /* \"#utility.yul\":7839:7854   */\n      gt\n        /* \"#utility.yul\":7836:7958   */\n      iszero\n      tag_391\n      jumpi\n        /* \"#utility.yul\":7869:7948   */\n      tag_392\n      tag_259\n      jump\t// in\n    tag_392:\n        /* \"#utility.yul\":7836:7958   */\n    tag_391:\n        /* \"#utility.yul\":7984:7990   */\n      dup4\n        /* \"#utility.yul\":7967:8187   */\n    tag_393:\n        /* \"#utility.yul\":8001:8007   */\n      dup2\n        /* \"#utility.yul\":7996:7999   */\n      dup2\n        /* \"#utility.yul\":7993:8008   */\n      lt\n        /* \"#utility.yul\":7967:8187   */\n      iszero\n      tag_395\n      jumpi\n        /* \"#utility.yul\":8076:8079   */\n      dup1\n        /* \"#utility.yul\":8105:8142   */\n      tag_396\n        /* \"#utility.yul\":8138:8141   */\n      dup9\n        /* \"#utility.yul\":8126:8136   */\n      dup3\n        /* \"#utility.yul\":8105:8142   */\n      tag_241\n      jump\t// in\n    tag_396:\n        /* \"#utility.yul\":8100:8103   */\n      dup5\n        /* \"#utility.yul\":8093:8143   */\n      mstore\n        /* \"#utility.yul\":8172:8176   */\n      0x20\n        /* \"#utility.yul\":8167:8170   */\n      dup5\n        /* \"#utility.yul\":8163:8177   */\n      add\n        /* \"#utility.yul\":8156:8177   */\n      swap4\n      pop\n        /* \"#utility.yul\":8043:8187   */\n      pop\n        /* \"#utility.yul\":8027:8031   */\n      0x20\n        /* \"#utility.yul\":8022:8025   */\n      dup2\n        /* \"#utility.yul\":8018:8032   */\n      add\n        /* \"#utility.yul\":8011:8032   */\n      swap1\n      pop\n        /* \"#utility.yul\":7967:8187   */\n      jump(tag_393)\n    tag_395:\n        /* \"#utility.yul\":7971:7992   */\n      pop\n        /* \"#utility.yul\":7585:8193   */\n      pop\n      pop\n        /* \"#utility.yul\":7483:8193   */\n      swap4\n      swap3\n      pop\n      pop\n      pop\n      jump\t// out\n        /* \"#utility.yul\":8216:8586   */\n    tag_261:\n        /* \"#utility.yul\":8287:8292   */\n      0x00\n        /* \"#utility.yul\":8336:8339   */\n      dup3\n        /* \"#utility.yul\":8329:8333   */\n      0x1f\n        /* \"#utility.yul\":8321:8327   */\n      dup4\n        /* \"#utility.yul\":8317:8334   */\n      add\n        /* \"#utility.yul\":8313:8340   */\n      slt\n        /* \"#utility.yul\":8303:8425   */\n      tag_398\n      jumpi\n        /* \"#utility.yul\":8344:8423   */\n      tag_399\n      tag_253\n      jump\t// in\n    tag_399:\n        /* \"#utility.yul\":8303:8425   */\n    tag_398:\n        /* \"#utility.yul\":8461:8467   */\n      dup2\n        /* \"#utility.yul\":8448:8468   */\n      calldataload\n        /* \"#utility.yul\":8486:8580   */\n      tag_400\n        /* \"#utility.yul\":8576:8579   */\n      dup5\n        /* \"#utility.yul\":8568:8574   */\n      dup3\n        /* \"#utility.yul\":8561:8565   */\n      0x20\n        /* \"#utility.yul\":8553:8559   */\n      dup7\n        /* \"#utility.yul\":8549:8566   */\n      add\n        /* \"#utility.yul\":8486:8580   */\n      tag_260\n      jump\t// in\n    tag_400:\n        /* \"#utility.yul\":8477:8580   */\n      swap2\n      pop\n        /* \"#utility.yul\":8293:8586   */\n      pop\n        /* \"#utility.yul\":8216:8586   */\n      swap3\n      swap2\n      pop\n      pop\n      jump\t// out\n        /* \"#utility.yul\":8592:8709   */\n    tag_262:\n        /* \"#utility.yul\":8701:8702   */\n      0x00\n        /* \"#utility.yul\":8698:8699   */\n      0x00\n        /* \"#utility.yul\":8691:8703   */\n      revert\n        /* \"#utility.yul\":8715:9022   */\n    tag_263:\n        /* \"#utility.yul\":8776:8780   */\n      0x00\n        /* \"#utility.yul\":8866:8884   */\n      0xffffffffffffffff\n        /* \"#utility.yul\":8858:8864   */\n      dup3\n        /* \"#utility.yul\":8855:8885   */\n      gt\n        /* \"#utility.yul\":8852:8908   */\n      iszero\n      tag_403\n      jumpi\n        /* \"#utility.yul\":8888:8906   */\n      tag_404\n      tag_255\n      jump\t// in\n    tag_404:\n        /* \"#utility.yul\":8852:8908   */\n    tag_403:\n        /* \"#utility.yul\":8926:8955   */\n      tag_405\n        /* \"#utility.yul\":8948:8954   */\n      dup3\n        /* \"#utility.yul\":8926:8955   */\n      tag_254\n      jump\t// in\n    tag_405:\n        /* \"#utility.yul\":8918:8955   */\n      swap1\n      pop\n        /* \"#utility.yul\":9010:9014   */\n      0x20\n        /* \"#utility.yul\":9004:9008   */\n      dup2\n        /* \"#utility.yul\":9000:9015   */\n      add\n        /* \"#utility.yul\":8992:9015   */\n      swap1\n      pop\n        /* \"#utility.yul\":8715:9022   */\n      swap2\n      swap1\n      pop\n      jump\t// out\n        /* \"#utility.yul\":9028:9176   */\n    tag_264:\n        /* \"#utility.yul\":9126:9132   */\n      dup3\n        /* \"#utility.yul\":9121:9124   */\n      dup2\n        /* \"#utility.yul\":9116:9119   */\n      dup4\n        /* \"#utility.yul\":9103:9133   */\n      calldatacopy\n        /* \"#utility.yul\":9167:9168   */\n      0x00\n        /* \"#utility.yul\":9158:9164   */\n      dup4\n        /* \"#utility.yul\":9153:9156   */\n      dup4\n        /* \"#utility.yul\":9149:9165   */\n      add\n        /* \"#utility.yul\":9142:9169   */\n      mstore\n        /* \"#utility.yul\":9028:9176   */\n      pop\n      pop\n      pop\n      jump\t// out\n        /* \"#utility.yul\":9182:9605   */\n    tag_265:\n        /* \"#utility.yul\":9259:9264   */\n      0x00\n        /* \"#utility.yul\":9284:9349   */\n      tag_408\n        /* \"#utility.yul\":9300:9348   */\n      tag_409\n        /* \"#utility.yul\":9341:9347   */\n      dup5\n        /* \"#utility.yul\":9300:9348   */\n      tag_263\n      jump\t// in\n    tag_409:\n        /* \"#utility.yul\":9284:9349   */\n      tag_257\n      jump\t// in\n    tag_408:\n        /* \"#utility.yul\":9275:9349   */\n      swap1\n      pop\n        /* \"#utility.yul\":9372:9378   */\n      dup3\n        /* \"#utility.yul\":9365:9370   */\n      dup2\n        /* \"#utility.yul\":9358:9379   */\n      mstore\n        /* \"#utility.yul\":9410:9414   */\n      0x20\n        /* \"#utility.yul\":9403:9408   */\n      dup2\n        /* \"#utility.yul\":9399:9415   */\n      add\n        /* \"#utility.yul\":9448:9451   */\n      dup5\n        /* \"#utility.yul\":9439:9445   */\n      dup5\n        /* \"#utility.yul\":9434:9437   */\n      dup5\n        /* \"#utility.yul\":9430:9446   */\n      add\n        /* \"#utility.yul\":9427:9452   */\n      gt\n        /* \"#utility.yul\":9424:9536   */\n      iszero\n      tag_410\n      jumpi\n        /* \"#utility.yul\":9455:9534   */\n      tag_411\n      tag_262\n      jump\t// in\n    tag_411:\n        /* \"#utility.yul\":9424:9536   */\n    tag_410:\n        /* \"#utility.yul\":9545:9599   */\n      tag_412\n        /* \"#utility.yul\":9592:9598   */\n      dup5\n        /* \"#utility.yul\":9587:9590   */\n      dup3\n        /* \"#utility.yul\":9582:9585   */\n      dup6\n        /* \"#utility.yul\":9545:9599   */\n      tag_264\n      jump\t// in\n    tag_412:\n        /* \"#utility.yul\":9265:9605   */\n      pop\n        /* \"#utility.yul\":9182:9605   */\n      swap4\n      swap3\n      pop\n      pop\n      pop\n      jump\t// out\n        /* \"#utility.yul\":9624:9962   */\n    tag_266:\n        /* \"#utility.yul\":9679:9684   */\n      0x00\n        /* \"#utility.yul\":9728:9731   */\n      dup3\n        /* \"#utility.yul\":9721:9725   */\n      0x1f\n        /* \"#utility.yul\":9713:9719   */\n      dup4\n        /* \"#utility.yul\":9709:9726   */\n      add\n        /* \"#utility.yul\":9705:9732   */\n      slt\n        /* \"#utility.yul\":9695:9817   */\n      tag_414\n      jumpi\n        /* \"#utility.yul\":9736:9815   */\n      tag_415\n      tag_253\n      jump\t// in\n    tag_415:\n        /* \"#utility.yul\":9695:9817   */\n    tag_414:\n        /* \"#utility.yul\":9853:9859   */\n      dup2\n        /* \"#utility.yul\":9840:9860   */\n      calldataload\n        /* \"#utility.yul\":9878:9956   */\n      tag_416\n        /* \"#utility.yul\":9952:9955   */\n      dup5\n        /* \"#utility.yul\":9944:9950   */\n      dup3\n        /* \"#utility.yul\":9937:9941   */\n      0x20\n        /* \"#utility.yul\":9929:9935   */\n      dup7\n        /* \"#utility.yul\":9925:9942   */\n      add\n        /* \"#utility.yul\":9878:9956   */\n      tag_265\n      jump\t// in\n    tag_416:\n        /* \"#utility.yul\":9869:9956   */\n      swap2\n      pop\n        /* \"#utility.yul\":9685:9962   */\n      pop\n        /* \"#utility.yul\":9624:9962   */\n      swap3\n      swap2\n      pop\n      pop\n      jump\t// out\n        /* \"#utility.yul\":9968:11477   */\n    tag_64:\n        /* \"#utility.yul\":10122:10128   */\n      0x00\n        /* \"#utility.yul\":10130:10136   */\n      0x00\n        /* \"#utility.yul\":10138:10144   */\n      0x00\n        /* \"#utility.yul\":10146:10152   */\n      0x00\n        /* \"#utility.yul\":10154:10160   */\n      0x00\n        /* \"#utility.yul\":10203:10206   */\n      0xa0\n        /* \"#utility.yul\":10191:10200   */\n      dup7\n        /* \"#utility.yul\":10182:10189   */\n      dup9\n        /* \"#utility.yul\":10178:10201   */\n      sub\n        /* \"#utility.yul\":10174:10207   */\n      slt\n        /* \"#utility.yul\":10171:10291   */\n      iszero\n      tag_418\n      jumpi\n        /* \"#utility.yul\":10210:10289   */\n      tag_419\n      tag_232\n      jump\t// in\n    tag_419:\n        /* \"#utility.yul\":10171:10291   */\n    tag_418:\n        /* \"#utility.yul\":10330:10331   */\n      0x00\n        /* \"#utility.yul\":10355:10408   */\n      tag_420\n        /* \"#utility.yul\":10400:10407   */\n      dup9\n        /* \"#utility.yul\":10391:10397   */\n      dup3\n        /* \"#utility.yul\":10380:10389   */\n      dup10\n        /* \"#utility.yul\":10376:10398   */\n      add\n        /* \"#utility.yul\":10355:10408   */\n      tag_251\n      jump\t// in\n    tag_420:\n        /* \"#utility.yul\":10345:10408   */\n      swap6\n      pop\n        /* \"#utility.yul\":10301:10418   */\n      pop\n        /* \"#utility.yul\":10457:10459   */\n      0x20\n        /* \"#utility.yul\":10483:10536   */\n      tag_421\n        /* \"#utility.yul\":10528:10535   */\n      dup9\n        /* \"#utility.yul\":10519:10525   */\n      dup3\n        /* \"#utility.yul\":10508:10517   */\n      dup10\n        /* \"#utility.yul\":10504:10526   */\n      add\n        /* \"#utility.yul\":10483:10536   */\n      tag_251\n      jump\t// in\n    tag_421:\n        /* \"#utility.yul\":10473:10536   */\n      swap5\n      pop\n        /* \"#utility.yul\":10428:10546   */\n      pop\n        /* \"#utility.yul\":10613:10615   */\n      0x40\n        /* \"#utility.yul\":10602:10611   */\n      dup7\n        /* \"#utility.yul\":10598:10616   */\n      add\n        /* \"#utility.yul\":10585:10617   */\n      calldataload\n        /* \"#utility.yul\":10644:10662   */\n      0xffffffffffffffff\n        /* \"#utility.yul\":10636:10642   */\n      dup2\n        /* \"#utility.yul\":10633:10663   */\n      gt\n        /* \"#utility.yul\":10630:10747   */\n      iszero\n      tag_422\n      jumpi\n        /* \"#utility.yul\":10666:10745   */\n      tag_423\n      tag_233\n      jump\t// in\n    tag_423:\n        /* \"#utility.yul\":10630:10747   */\n    tag_422:\n        /* \"#utility.yul\":10771:10849   */\n      tag_424\n        /* \"#utility.yul\":10841:10848   */\n      dup9\n        /* \"#utility.yul\":10832:10838   */\n      dup3\n        /* \"#utility.yul\":10821:10830   */\n      dup10\n        /* \"#utility.yul\":10817:10839   */\n      add\n        /* \"#utility.yul\":10771:10849   */\n      tag_261\n      jump\t// in\n    tag_424:\n        /* \"#utility.yul\":10761:10849   */\n      swap4\n      pop\n        /* \"#utility.yul\":10556:10859   */\n      pop\n        /* \"#utility.yul\":10926:10928   */\n      0x60\n        /* \"#utility.yul\":10915:10924   */\n      dup7\n        /* \"#utility.yul\":10911:10929   */\n      add\n        /* \"#utility.yul\":10898:10930   */\n      calldataload\n        /* \"#utility.yul\":10957:10975   */\n      0xffffffffffffffff\n        /* \"#utility.yul\":10949:10955   */\n      dup2\n        /* \"#utility.yul\":10946:10976   */\n      gt\n        /* \"#utility.yul\":10943:11060   */\n      iszero\n      tag_425\n      jumpi\n        /* \"#utility.yul\":10979:11058   */\n      tag_426\n      tag_233\n      jump\t// in\n    tag_426:\n        /* \"#utility.yul\":10943:11060   */\n    tag_425:\n        /* \"#utility.yul\":11084:11162   */\n      tag_427\n        /* \"#utility.yul\":11154:11161   */\n      dup9\n        /* \"#utility.yul\":11145:11151   */\n      dup3\n        /* \"#utility.yul\":11134:11143   */\n      dup10\n        /* \"#utility.yul\":11130:11152   */\n      add\n        /* \"#utility.yul\":11084:11162   */\n      tag_261\n      jump\t// in\n    tag_427:\n        /* \"#utility.yul\":11074:11162   */\n      swap3\n      pop\n        /* \"#utility.yul\":10869:11172   */\n      pop\n        /* \"#utility.yul\":11239:11242   */\n      0x80\n        /* \"#utility.yul\":11228:11237   */\n      dup7\n        /* \"#utility.yul\":11224:11243   */\n      add\n        /* \"#utility.yul\":11211:11244   */\n      calldataload\n        /* \"#utility.yul\":11271:11289   */\n      0xffffffffffffffff\n        /* \"#utility.yul\":11263:11269   */\n      dup2\n        /* \"#utility.yul\":11260:11290   */\n      gt\n        /* \"#utility.yul\":11257:11374   */\n      iszero\n      tag_428\n      jumpi\n        /* \"#utility.yul\":11293:11372   */\n      tag_429\n      tag_233\n      jump\t// in\n    tag_429:\n        /* \"#utility.yul\":11257:11374   */\n    tag_428:\n        /* \"#utility.yul\":11398:11460   */\n      tag_430\n        /* \"#utility.yul\":11452:11459   */\n      dup9\n        /* \"#utility.yul\":11443:11449   */\n      dup3\n        /* \"#utility.yul\":11432:11441   */\n      dup10\n        /* \"#utility.yul\":11428:11450   */\n      add\n        /* \"#utility.yul\":11398:11460   */\n      tag_266\n      jump\t// in\n    tag_430:\n        /* \"#utility.yul\":11388:11460   */\n      swap2\n      pop\n        /* \"#utility.yul\":11182:11470   */\n      pop\n        /* \"#utility.yul\":9968:11477   */\n      swap3\n      swap6\n      pop\n      swap3\n      swap6\n      swap1\n      swap4\n      pop\n      jump\t// out\n        /* \"#utility.yul\":11483:11598   */\n    tag_267:\n        /* \"#utility.yul\":11568:11591   */\n      tag_432\n        /* \"#utility.yul\":11585:11590   */\n      dup2\n        /* \"#utility.yul\":11568:11591   */\n      tag_234\n      jump\t// in\n    tag_432:\n        /* \"#utility.yul\":11563:11566   */\n      dup3\n        /* \"#utility.yul\":11556:11592   */\n      mstore\n        /* \"#utility.yul\":11483:11598   */\n      pop\n      pop\n      jump\t// out\n        /* \"#utility.yul\":11604:11822   */\n    tag_67:\n        /* \"#utility.yul\":11695:11699   */\n      0x00\n        /* \"#utility.yul\":11733:11735   */\n      0x20\n        /* \"#utility.yul\":11722:11731   */\n      dup3\n        /* \"#utility.yul\":11718:11736   */\n      add\n        /* \"#utility.yul\":11710:11736   */\n      swap1\n      pop\n        /* \"#utility.yul\":11746:11815   */\n      tag_434\n        /* \"#utility.yul\":11812:11813   */\n      0x00\n        /* \"#utility.yul\":11801:11810   */\n      dup4\n        /* \"#utility.yul\":11797:11814   */\n      add\n        /* \"#utility.yul\":11788:11794   */\n      dup5\n        /* \"#utility.yul\":11746:11815   */\n      tag_267\n      jump\t// in\n    tag_434:\n        /* \"#utility.yul\":11604:11822   */\n      swap3\n      swap2\n      pop\n      pop\n      jump\t// out\n        /* \"#utility.yul\":11828:11970   */\n    tag_268:\n        /* \"#utility.yul\":11894:11903   */\n      0x00\n        /* \"#utility.yul\":11927:11964   */\n      tag_436\n        /* \"#utility.yul\":11958:11963   */\n      dup3\n        /* \"#utility.yul\":11927:11964   */\n      tag_245\n      jump\t// in\n    tag_436:\n        /* \"#utility.yul\":11914:11964   */\n      swap1\n      pop\n        /* \"#utility.yul\":11828:11970   */\n      swap2\n      swap1\n      pop\n      jump\t// out\n        /* \"#utility.yul\":11976:12139   */\n    tag_269:\n        /* \"#utility.yul\":12079:12132   */\n      tag_438\n        /* \"#utility.yul\":12126:12131   */\n      dup2\n        /* \"#utility.yul\":12079:12132   */\n      tag_268\n      jump\t// in\n    tag_438:\n        /* \"#utility.yul\":12074:12077   */\n      dup3\n        /* \"#utility.yul\":12067:12133   */\n      mstore\n        /* \"#utility.yul\":11976:12139   */\n      pop\n      pop\n      jump\t// out\n        /* \"#utility.yul\":12145:12399   */\n    tag_74:\n        /* \"#utility.yul\":12254:12258   */\n      0x00\n        /* \"#utility.yul\":12292:12294   */\n      0x20\n        /* \"#utility.yul\":12281:12290   */\n      dup3\n        /* \"#utility.yul\":12277:12295   */\n      add\n        /* \"#utility.yul\":12269:12295   */\n      swap1\n      pop\n        /* \"#utility.yul\":12305:12392   */\n      tag_440\n        /* \"#utility.yul\":12389:12390   */\n      0x00\n        /* \"#utility.yul\":12378:12387   */\n      dup4\n        /* \"#utility.yul\":12374:12391   */\n      add\n        /* \"#utility.yul\":12365:12371   */\n      dup5\n        /* \"#utility.yul\":12305:12392   */\n      tag_269\n      jump\t// in\n    tag_440:\n        /* \"#utility.yul\":12145:12399   */\n      swap3\n      swap2\n      pop\n      pop\n      jump\t// out\n        /* \"#utility.yul\":12405:13024   */\n    tag_80:\n        /* \"#utility.yul\":12482:12488   */\n      0x00\n        /* \"#utility.yul\":12490:12496   */\n      0x00\n        /* \"#utility.yul\":12498:12504   */\n      0x00\n        /* \"#utility.yul\":12547:12549   */\n      0x60\n        /* \"#utility.yul\":12535:12544   */\n      dup5\n        /* \"#utility.yul\":12526:12533   */\n      dup7\n        /* \"#utility.yul\":12522:12545   */\n      sub\n        /* \"#utility.yul\":12518:12550   */\n      slt\n        /* \"#utility.yul\":12515:12634   */\n      iszero\n      tag_442\n      jumpi\n        /* \"#utility.yul\":12553:12632   */\n      tag_443\n      tag_232\n      jump\t// in\n    tag_443:\n        /* \"#utility.yul\":12515:12634   */\n    tag_442:\n        /* \"#utility.yul\":12673:12674   */\n      0x00\n        /* \"#utility.yul\":12698:12751   */\n      tag_444\n        /* \"#utility.yul\":12743:12750   */\n      dup7\n        /* \"#utility.yul\":12734:12740   */\n      dup3\n        /* \"#utility.yul\":12723:12732   */\n      dup8\n        /* \"#utility.yul\":12719:12741   */\n      add\n        /* \"#utility.yul\":12698:12751   */\n      tag_241\n      jump\t// in\n    tag_444:\n        /* \"#utility.yul\":12688:12751   */\n      swap4\n      pop\n        /* \"#utility.yul\":12644:12761   */\n      pop\n        /* \"#utility.yul\":12800:12802   */\n      0x20\n        /* \"#utility.yul\":12826:12879   */\n      tag_445\n        /* \"#utility.yul\":12871:12878   */\n      dup7\n        /* \"#utility.yul\":12862:12868   */\n      dup3\n        /* \"#utility.yul\":12851:12860   */\n      dup8\n        /* \"#utility.yul\":12847:12869   */\n      add\n        /* \"#utility.yul\":12826:12879   */\n      tag_241\n      jump\t// in\n    tag_445:\n        /* \"#utility.yul\":12816:12879   */\n      swap3\n      pop\n        /* \"#utility.yul\":12771:12889   */\n      pop\n        /* \"#utility.yul\":12928:12930   */\n      0x40\n        /* \"#utility.yul\":12954:13007   */\n      tag_446\n        /* \"#utility.yul\":12999:13006   */\n      dup7\n        /* \"#utility.yul\":12990:12996   */\n      dup3\n        /* \"#utility.yul\":12979:12988   */\n      dup8\n        /* \"#utility.yul\":12975:12997   */\n      add\n        /* \"#utility.yul\":12954:13007   */\n      tag_241\n      jump\t// in\n    tag_446:\n        /* \"#utility.yul\":12944:13007   */\n      swap2\n      pop\n        /* \"#utility.yul\":12899:13017   */\n      pop\n        /* \"#utility.yul\":12405:13024   */\n      swap3\n      pop\n      swap3\n      pop\n      swap3\n      jump\t// out\n        /* \"#utility.yul\":13030:14119   */\n    tag_84:\n        /* \"#utility.yul\":13134:13140   */\n      0x00\n        /* \"#utility.yul\":13142:13148   */\n      0x00\n        /* \"#utility.yul\":13150:13156   */\n      0x00\n        /* \"#utility.yul\":13158:13164   */\n      0x00\n        /* \"#utility.yul\":13166:13172   */\n      0x00\n        /* \"#utility.yul\":13215:13218   */\n      0xa0\n        /* \"#utility.yul\":13203:13212   */\n      dup7\n        /* \"#utility.yul\":13194:13201   */\n      dup9\n        /* \"#utility.yul\":13190:13213   */\n      sub\n        /* \"#utility.yul\":13186:13219   */\n      slt\n        /* \"#utility.yul\":13183:13303   */\n      iszero\n      tag_448\n      jumpi\n        /* \"#utility.yul\":13222:13301   */\n      tag_449\n      tag_232\n      jump\t// in\n    tag_449:\n        /* \"#utility.yul\":13183:13303   */\n    tag_448:\n        /* \"#utility.yul\":13342:13343   */\n      0x00\n        /* \"#utility.yul\":13367:13420   */\n      tag_450\n        /* \"#utility.yul\":13412:13419   */\n      dup9\n        /* \"#utility.yul\":13403:13409   */\n      dup3\n        /* \"#utility.yul\":13392:13401   */\n      dup10\n        /* \"#utility.yul\":13388:13410   */\n      add\n        /* \"#utility.yul\":13367:13420   */\n      tag_251\n      jump\t// in\n    tag_450:\n        /* \"#utility.yul\":13357:13420   */\n      swap6\n      pop\n        /* \"#utility.yul\":13313:13430   */\n      pop\n        /* \"#utility.yul\":13469:13471   */\n      0x20\n        /* \"#utility.yul\":13495:13548   */\n      tag_451\n        /* \"#utility.yul\":13540:13547   */\n      dup9\n        /* \"#utility.yul\":13531:13537   */\n      dup3\n        /* \"#utility.yul\":13520:13529   */\n      dup10\n        /* \"#utility.yul\":13516:13538   */\n      add\n        /* \"#utility.yul\":13495:13548   */\n      tag_251\n      jump\t// in\n    tag_451:\n        /* \"#utility.yul\":13485:13548   */\n      swap5\n      pop\n        /* \"#utility.yul\":13440:13558   */\n      pop\n        /* \"#utility.yul\":13597:13599   */\n      0x40\n        /* \"#utility.yul\":13623:13676   */\n      tag_452\n        /* \"#utility.yul\":13668:13675   */\n      dup9\n        /* \"#utility.yul\":13659:13665   */\n      dup3\n        /* \"#utility.yul\":13648:13657   */\n      dup10\n        /* \"#utility.yul\":13644:13666   */\n      add\n        /* \"#utility.yul\":13623:13676   */\n      tag_241\n      jump\t// in\n    tag_452:\n        /* \"#utility.yul\":13613:13676   */\n      swap4\n      pop\n        /* \"#utility.yul\":13568:13686   */\n      pop\n        /* \"#utility.yul\":13725:13727   */\n      0x60\n        /* \"#utility.yul\":13751:13804   */\n      tag_453\n        /* \"#utility.yul\":13796:13803   */\n      dup9\n        /* \"#utility.yul\":13787:13793   */\n      dup3\n        /* \"#utility.yul\":13776:13785   */\n      dup10\n        /* \"#utility.yul\":13772:13794   */\n      add\n        /* \"#utility.yul\":13751:13804   */\n      tag_241\n      jump\t// in\n    tag_453:\n        /* \"#utility.yul\":13741:13804   */\n      swap3\n      pop\n        /* \"#utility.yul\":13696:13814   */\n      pop\n        /* \"#utility.yul\":13881:13884   */\n      0x80\n        /* \"#utility.yul\":13870:13879   */\n      dup7\n        /* \"#utility.yul\":13866:13885   */\n      add\n        /* \"#utility.yul\":13853:13886   */\n      calldataload\n        /* \"#utility.yul\":13913:13931   */\n      0xffffffffffffffff\n        /* \"#utility.yul\":13905:13911   */\n      dup2\n        /* \"#utility.yul\":13902:13932   */\n      gt\n        /* \"#utility.yul\":13899:14016   */\n      iszero\n      tag_454\n      jumpi\n        /* \"#utility.yul\":13935:14014   */\n      tag_455\n      tag_233\n      jump\t// in\n    tag_455:\n        /* \"#utility.yul\":13899:14016   */\n    tag_454:\n        /* \"#utility.yul\":14040:14102   */\n      tag_456\n        /* \"#utility.yul\":14094:14101   */\n      dup9\n        /* \"#utility.yul\":14085:14091   */\n      dup3\n        /* \"#utility.yul\":14074:14083   */\n      dup10\n        /* \"#utility.yul\":14070:14092   */\n      add\n        /* \"#utility.yul\":14040:14102   */\n      tag_266\n      jump\t// in\n    tag_456:\n        /* \"#utility.yul\":14030:14102   */\n      swap2\n      pop\n        /* \"#utility.yul\":13824:14112   */\n      pop\n        /* \"#utility.yul\":13030:14119   */\n      swap3\n      swap6\n      pop\n      swap3\n      swap6\n      swap1\n      swap4\n      pop\n      jump\t// out\n        /* \"#utility.yul\":14125:14744   */\n    tag_95:\n        /* \"#utility.yul\":14202:14208   */\n      0x00\n        /* \"#utility.yul\":14210:14216   */\n      0x00\n        /* \"#utility.yul\":14218:14224   */\n      0x00\n        /* \"#utility.yul\":14267:14269   */\n      0x60\n        /* \"#utility.yul\":14255:14264   */\n      dup5\n        /* \"#utility.yul\":14246:14253   */\n      dup7\n        /* \"#utility.yul\":14242:14265   */\n      sub\n        /* \"#utility.yul\":14238:14270   */\n      slt\n        /* \"#utility.yul\":14235:14354   */\n      iszero\n      tag_458\n      jumpi\n        /* \"#utility.yul\":14273:14352   */\n      tag_459\n      tag_232\n      jump\t// in\n    tag_459:\n        /* \"#utility.yul\":14235:14354   */\n    tag_458:\n        /* \"#utility.yul\":14393:14394   */\n      0x00\n        /* \"#utility.yul\":14418:14471   */\n      tag_460\n        /* \"#utility.yul\":14463:14470   */\n      dup7\n        /* \"#utility.yul\":14454:14460   */\n      dup3\n        /* \"#utility.yul\":14443:14452   */\n      dup8\n        /* \"#utility.yul\":14439:14461   */\n      add\n        /* \"#utility.yul\":14418:14471   */\n      tag_251\n      jump\t// in\n    tag_460:\n        /* \"#utility.yul\":14408:14471   */\n      swap4\n      pop\n        /* \"#utility.yul\":14364:14481   */\n      pop\n        /* \"#utility.yul\":14520:14522   */\n      0x20\n        /* \"#utility.yul\":14546:14599   */\n      tag_461\n        /* \"#utility.yul\":14591:14598   */\n      dup7\n        /* \"#utility.yul\":14582:14588   */\n      dup3\n        /* \"#utility.yul\":14571:14580   */\n      dup8\n        /* \"#utility.yul\":14567:14589   */\n      add\n        /* \"#utility.yul\":14546:14599   */\n      tag_241\n      jump\t// in\n    tag_461:\n        /* \"#utility.yul\":14536:14599   */\n      swap3\n      pop\n        /* \"#utility.yul\":14491:14609   */\n      pop\n        /* \"#utility.yul\":14648:14650   */\n      0x40\n        /* \"#utility.yul\":14674:14727   */\n      tag_462\n        /* \"#utility.yul\":14719:14726   */\n      dup7\n        /* \"#utility.yul\":14710:14716   */\n      dup3\n        /* \"#utility.yul\":14699:14708   */\n      dup8\n        /* \"#utility.yul\":14695:14717   */\n      add\n        /* \"#utility.yul\":14674:14727   */\n      tag_241\n      jump\t// in\n    tag_462:\n        /* \"#utility.yul\":14664:14727   */\n      swap2\n      pop\n        /* \"#utility.yul\":14619:14737   */\n      pop\n        /* \"#utility.yul\":14125:14744   */\n      swap3\n      pop\n      swap3\n      pop\n      swap3\n      jump\t// out\n        /* \"#utility.yul\":14750:14919   */\n    tag_270:\n        /* \"#utility.yul\":14834:14845   */\n      0x00\n        /* \"#utility.yul\":14868:14874   */\n      dup3\n        /* \"#utility.yul\":14863:14866   */\n      dup3\n        /* \"#utility.yul\":14856:14875   */\n      mstore\n        /* \"#utility.yul\":14908:14912   */\n      0x20\n        /* \"#utility.yul\":14903:14906   */\n      dup3\n        /* \"#utility.yul\":14899:14913   */\n      add\n        /* \"#utility.yul\":14884:14913   */\n      swap1\n      pop\n        /* \"#utility.yul\":14750:14919   */\n      swap3\n      swap2\n      pop\n      pop\n      jump\t// out\n        /* \"#utility.yul\":14925:15092   */\n    tag_271:\n        /* \"#utility.yul\":15065:15084   */\n      0x4e6f20616374697665206c697374696e67000000000000000000000000000000\n        /* \"#utility.yul\":15061:15062   */\n      0x00\n        /* \"#utility.yul\":15053:15059   */\n      dup3\n        /* \"#utility.yul\":15049:15063   */\n      add\n        /* \"#utility.yul\":15042:15085   */\n      mstore\n        /* \"#utility.yul\":14925:15092   */\n      pop\n      jump\t// out\n        /* \"#utility.yul\":15098:15464   */\n    tag_272:\n        /* \"#utility.yul\":15240:15243   */\n      0x00\n        /* \"#utility.yul\":15261:15328   */\n      tag_466\n        /* \"#utility.yul\":15325:15327   */\n      0x11\n        /* \"#utility.yul\":15320:15323   */\n      dup4\n        /* \"#utility.yul\":15261:15328   */\n      tag_270\n      jump\t// in\n    tag_466:\n        /* \"#utility.yul\":15254:15328   */\n      swap2\n      pop\n        /* \"#utility.yul\":15337:15430   */\n      tag_467\n        /* \"#utility.yul\":15426:15429   */\n      dup3\n        /* \"#utility.yul\":15337:15430   */\n      tag_271\n      jump\t// in\n    tag_467:\n        /* \"#utility.yul\":15455:15457   */\n      0x20\n        /* \"#utility.yul\":15450:15453   */\n      dup3\n        /* \"#utility.yul\":15446:15458   */\n      add\n        /* \"#utility.yul\":15439:15458   */\n      swap1\n      pop\n        /* \"#utility.yul\":15098:15464   */\n      swap2\n      swap1\n      pop\n      jump\t// out\n        /* \"#utility.yul\":15470:15889   */\n    tag_106:\n        /* \"#utility.yul\":15636:15640   */\n      0x00\n        /* \"#utility.yul\":15674:15676   */\n      0x20\n        /* \"#utility.yul\":15663:15672   */\n      dup3\n        /* \"#utility.yul\":15659:15677   */\n      add\n        /* \"#utility.yul\":15651:15677   */\n      swap1\n      pop\n        /* \"#utility.yul\":15723:15732   */\n      dup2\n        /* \"#utility.yul\":15717:15721   */\n      dup2\n        /* \"#utility.yul\":15713:15733   */\n      sub\n        /* \"#utility.yul\":15709:15710   */\n      0x00\n        /* \"#utility.yul\":15698:15707   */\n      dup4\n        /* \"#utility.yul\":15694:15711   */\n      add\n        /* \"#utility.yul\":15687:15734   */\n      mstore\n        /* \"#utility.yul\":15751:15882   */\n      tag_469\n        /* \"#utility.yul\":15877:15881   */\n      dup2\n        /* \"#utility.yul\":15751:15882   */\n      tag_272\n      jump\t// in\n    tag_469:\n        /* \"#utility.yul\":15743:15882   */\n      swap1\n      pop\n        /* \"#utility.yul\":15470:15889   */\n      swap2\n      swap1\n      pop\n      jump\t// out\n        /* \"#utility.yul\":15895:16063   */\n    tag_273:\n        /* \"#utility.yul\":16035:16055   */\n      0x496e76616c6964206665652077616c6c65740000000000000000000000000000\n        /* \"#utility.yul\":16031:16032   */\n      0x00\n        /* \"#utility.yul\":16023:16029   */\n      dup3\n        /* \"#utility.yul\":16019:16033   */\n      add\n        /* \"#utility.yul\":16012:16056   */\n      mstore\n        /* \"#utility.yul\":15895:16063   */\n      pop\n      jump\t// out\n        /* \"#utility.yul\":16069:16435   */\n    tag_274:\n        /* \"#utility.yul\":16211:16214   */\n      0x00\n        /* \"#utility.yul\":16232:16299   */\n      tag_472\n        /* \"#utility.yul\":16296:16298   */\n      0x12\n        /* \"#utility.yul\":16291:16294   */\n      dup4\n        /* \"#utility.yul\":16232:16299   */\n      tag_270\n      jump\t// in\n    tag_472:\n        /* \"#utility.yul\":16225:16299   */\n      swap2\n      pop\n        /* \"#utility.yul\":16308:16401   */\n      tag_473\n        /* \"#utility.yul\":16397:16400   */\n      dup3\n        /* \"#utility.yul\":16308:16401   */\n      tag_273\n      jump\t// in\n    tag_473:\n        /* \"#utility.yul\":16426:16428   */\n      0x20\n        /* \"#utility.yul\":16421:16424   */\n      dup3\n        /* \"#utility.yul\":16417:16429   */\n      add\n        /* \"#utility.yul\":16410:16429   */\n      swap1\n      pop\n        /* \"#utility.yul\":16069:16435   */\n      swap2\n      swap1\n      pop\n      jump\t// out\n        /* \"#utility.yul\":16441:16860   */\n    tag_121:\n        /* \"#utility.yul\":16607:16611   */\n      0x00\n        /* \"#utility.yul\":16645:16647   */\n      0x20\n        /* \"#utility.yul\":16634:16643   */\n      dup3\n        /* \"#utility.yul\":16630:16648   */\n      add\n        /* \"#utility.yul\":16622:16648   */\n      swap1\n      pop\n        /* \"#utility.yul\":16694:16703   */\n      dup2\n        /* \"#utility.yul\":16688:16692   */\n      dup2\n        /* \"#utility.yul\":16684:16704   */\n      sub\n        /* \"#utility.yul\":16680:16681   */\n      0x00\n        /* \"#utility.yul\":16669:16678   */\n      dup4\n        /* \"#utility.yul\":16665:16682   */\n      add\n        /* \"#utility.yul\":16658:16705   */\n      mstore\n        /* \"#utility.yul\":16722:16853   */\n      tag_475\n        /* \"#utility.yul\":16848:16852   */\n      dup2\n        /* \"#utility.yul\":16722:16853   */\n      tag_274\n      jump\t// in\n    tag_475:\n        /* \"#utility.yul\":16714:16853   */\n      swap1\n      pop\n        /* \"#utility.yul\":16441:16860   */\n      swap2\n      swap1\n      pop\n      jump\t// out\n        /* \"#utility.yul\":16866:17032   */\n    tag_275:\n        /* \"#utility.yul\":17006:17024   */\n      0x416d6f756e7420746f6f20736d616c6c00000000000000000000000000000000\n        /* \"#utility.yul\":17002:17003   */\n      0x00\n        /* \"#utility.yul\":16994:17000   */\n      dup3\n        /* \"#utility.yul\":16990:17004   */\n      add\n        /* \"#utility.yul\":16983:17025   */\n      mstore\n        /* \"#utility.yul\":16866:17032   */\n      pop\n      jump\t// out\n        /* \"#utility.yul\":17038:17404   */\n    tag_276:\n        /* \"#utility.yul\":17180:17183   */\n      0x00\n        /* \"#utility.yul\":17201:17268   */\n      tag_478\n        /* \"#utility.yul\":17265:17267   */\n      0x10\n        /* \"#utility.yul\":17260:17263   */\n      dup4\n        /* \"#utility.yul\":17201:17268   */\n      tag_270\n      jump\t// in\n    tag_478:\n        /* \"#utility.yul\":17194:17268   */\n      swap2\n      pop\n        /* \"#utility.yul\":17277:17370   */\n      tag_479\n        /* \"#utility.yul\":17366:17369   */\n      dup3\n        /* \"#utility.yul\":17277:17370   */\n      tag_275\n      jump\t// in\n    tag_479:\n        /* \"#utility.yul\":17395:17397   */\n      0x20\n        /* \"#utility.yul\":17390:17393   */\n      dup3\n        /* \"#utility.yul\":17386:17398   */\n      add\n        /* \"#utility.yul\":17379:17398   */\n      swap1\n      pop\n        /* \"#utility.yul\":17038:17404   */\n      swap2\n      swap1\n      pop\n      jump\t// out\n        /* \"#utility.yul\":17410:17829   */\n    tag_134:\n        /* \"#utility.yul\":17576:17580   */\n      0x00\n        /* \"#utility.yul\":17614:17616   */\n      0x20\n        /* \"#utility.yul\":17603:17612   */\n      dup3\n        /* \"#utility.yul\":17599:17617   */\n      add\n        /* \"#utility.yul\":17591:17617   */\n      swap1\n      pop\n        /* \"#utility.yul\":17663:17672   */\n      dup2\n        /* \"#utility.yul\":17657:17661   */\n      dup2\n        /* \"#utility.yul\":17653:17673   */\n      sub\n        /* \"#utility.yul\":17649:17650   */\n      0x00\n        /* \"#utility.yul\":17638:17647   */\n      dup4\n        /* \"#utility.yul\":17634:17651   */\n      add\n        /* \"#utility.yul\":17627:17674   */\n      mstore\n        /* \"#utility.yul\":17691:17822   */\n      tag_481\n        /* \"#utility.yul\":17817:17821   */\n      dup2\n        /* \"#utility.yul\":17691:17822   */\n      tag_276\n      jump\t// in\n    tag_481:\n        /* \"#utility.yul\":17683:17822   */\n      swap1\n      pop\n        /* \"#utility.yul\":17410:17829   */\n      swap2\n      swap1\n      pop\n      jump\t// out\n        /* \"#utility.yul\":17835:17998   */\n    tag_277:\n        /* \"#utility.yul\":17975:17990   */\n      0x507269636520746f6f206c6f7700000000000000000000000000000000000000\n        /* \"#utility.yul\":17971:17972   */\n      0x00\n        /* \"#utility.yul\":17963:17969   */\n      dup3\n        /* \"#utility.yul\":17959:17973   */\n      add\n        /* \"#utility.yul\":17952:17991   */\n      mstore\n        /* \"#utility.yul\":17835:17998   */\n      pop\n      jump\t// out\n        /* \"#utility.yul\":18004:18370   */\n    tag_278:\n        /* \"#utility.yul\":18146:18149   */\n      0x00\n        /* \"#utility.yul\":18167:18234   */\n      tag_484\n        /* \"#utility.yul\":18231:18233   */\n      0x0d\n        /* \"#utility.yul\":18226:18229   */\n      dup4\n        /* \"#utility.yul\":18167:18234   */\n      tag_270\n      jump\t// in\n    tag_484:\n        /* \"#utility.yul\":18160:18234   */\n      swap2\n      pop\n        /* \"#utility.yul\":18243:18336   */\n      tag_485\n        /* \"#utility.yul\":18332:18335   */\n      dup3\n        /* \"#utility.yul\":18243:18336   */\n      tag_277\n      jump\t// in\n    tag_485:\n        /* \"#utility.yul\":18361:18363   */\n      0x20\n        /* \"#utility.yul\":18356:18359   */\n      dup3\n        /* \"#utility.yul\":18352:18364   */\n      add\n        /* \"#utility.yul\":18345:18364   */\n      swap1\n      pop\n        /* \"#utility.yul\":18004:18370   */\n      swap2\n      swap1\n      pop\n      jump\t// out\n        /* \"#utility.yul\":18376:18795   */\n    tag_137:\n        /* \"#utility.yul\":18542:18546   */\n      0x00\n        /* \"#utility.yul\":18580:18582   */\n      0x20\n        /* \"#utility.yul\":18569:18578   */\n      dup3\n        /* \"#utility.yul\":18565:18583   */\n      add\n        /* \"#utility.yul\":18557:18583   */\n      swap1\n      pop\n        /* \"#utility.yul\":18629:18638   */\n      dup2\n        /* \"#utility.yul\":18623:18627   */\n      dup2\n        /* \"#utility.yul\":18619:18639   */\n      sub\n        /* \"#utility.yul\":18615:18616   */\n      0x00\n        /* \"#utility.yul\":18604:18613   */\n      dup4\n        /* \"#utility.yul\":18600:18617   */\n      add\n        /* \"#utility.yul\":18593:18640   */\n      mstore\n        /* \"#utility.yul\":18657:18788   */\n      tag_487\n        /* \"#utility.yul\":18783:18787   */\n      dup2\n        /* \"#utility.yul\":18657:18788   */\n      tag_278\n      jump\t// in\n    tag_487:\n        /* \"#utility.yul\":18649:18788   */\n      swap1\n      pop\n        /* \"#utility.yul\":18376:18795   */\n      swap2\n      swap1\n      pop\n      jump\t// out\n        /* \"#utility.yul\":18801:19133   */\n    tag_139:\n        /* \"#utility.yul\":18922:18926   */\n      0x00\n        /* \"#utility.yul\":18960:18962   */\n      0x40\n        /* \"#utility.yul\":18949:18958   */\n      dup3\n        /* \"#utility.yul\":18945:18963   */\n      add\n        /* \"#utility.yul\":18937:18963   */\n      swap1\n      pop\n        /* \"#utility.yul\":18973:19044   */\n      tag_489\n        /* \"#utility.yul\":19041:19042   */\n      0x00\n        /* \"#utility.yul\":19030:19039   */\n      dup4\n        /* \"#utility.yul\":19026:19043   */\n      add\n        /* \"#utility.yul\":19017:19023   */\n      dup6\n        /* \"#utility.yul\":18973:19044   */\n      tag_249\n      jump\t// in\n    tag_489:\n        /* \"#utility.yul\":19054:19126   */\n      tag_490\n        /* \"#utility.yul\":19122:19124   */\n      0x20\n        /* \"#utility.yul\":19111:19120   */\n      dup4\n        /* \"#utility.yul\":19107:19125   */\n      add\n        /* \"#utility.yul\":19098:19104   */\n      dup5\n        /* \"#utility.yul\":19054:19126   */\n      tag_252\n      jump\t// in\n    tag_490:\n        /* \"#utility.yul\":18801:19133   */\n      swap4\n      swap3\n      pop\n      pop\n      pop\n      jump\t// out\n        /* \"#utility.yul\":19139:19282   */\n    tag_279:\n        /* \"#utility.yul\":19196:19201   */\n      0x00\n        /* \"#utility.yul\":19227:19233   */\n      dup2\n        /* \"#utility.yul\":19221:19234   */\n      mload\n        /* \"#utility.yul\":19212:19234   */\n      swap1\n      pop\n        /* \"#utility.yul\":19243:19276   */\n      tag_492\n        /* \"#utility.yul\":19270:19275   */\n      dup2\n        /* \"#utility.yul\":19243:19276   */\n      tag_240\n      jump\t// in\n    tag_492:\n        /* \"#utility.yul\":19139:19282   */\n      swap3\n      swap2\n      pop\n      pop\n      jump\t// out\n        /* \"#utility.yul\":19288:19639   */\n    tag_143:\n        /* \"#utility.yul\":19358:19364   */\n      0x00\n        /* \"#utility.yul\":19407:19409   */\n      0x20\n        /* \"#utility.yul\":19395:19404   */\n      dup3\n        /* \"#utility.yul\":19386:19393   */\n      dup5\n        /* \"#utility.yul\":19382:19405   */\n      sub\n        /* \"#utility.yul\":19378:19410   */\n      slt\n        /* \"#utility.yul\":19375:19494   */\n      iszero\n      tag_494\n      jumpi\n        /* \"#utility.yul\":19413:19492   */\n      tag_495\n      tag_232\n      jump\t// in\n    tag_495:\n        /* \"#utility.yul\":19375:19494   */\n    tag_494:\n        /* \"#utility.yul\":19533:19534   */\n      0x00\n        /* \"#utility.yul\":19558:19622   */\n      tag_496\n        /* \"#utility.yul\":19614:19621   */\n      dup5\n        /* \"#utility.yul\":19605:19611   */\n      dup3\n        /* \"#utility.yul\":19594:19603   */\n      dup6\n        /* \"#utility.yul\":19590:19612   */\n      add\n        /* \"#utility.yul\":19558:19622   */\n      tag_279\n      jump\t// in\n    tag_496:\n        /* \"#utility.yul\":19548:19622   */\n      swap2\n      pop\n        /* \"#utility.yul\":19504:19632   */\n      pop\n        /* \"#utility.yul\":19288:19639   */\n      swap3\n      swap2\n      pop\n      pop\n      jump\t// out\n        /* \"#utility.yul\":19645:19819   */\n    tag_280:\n        /* \"#utility.yul\":19785:19811   */\n      0x496e73756666696369656e74204e46542062616c616e63650000000000000000\n        /* \"#utility.yul\":19781:19782   */\n      0x00\n        /* \"#utility.yul\":19773:19779   */\n      dup3\n        /* \"#utility.yul\":19769:19783   */\n      add\n        /* \"#utility.yul\":19762:19812   */\n      mstore\n        /* \"#utility.yul\":19645:19819   */\n      pop\n      jump\t// out\n        /* \"#utility.yul\":19825:20191   */\n    tag_281:\n        /* \"#utility.yul\":19967:19970   */\n      0x00\n        /* \"#utility.yul\":19988:20055   */\n      tag_499\n        /* \"#utility.yul\":20052:20054   */\n      0x18\n        /* \"#utility.yul\":20047:20050   */\n      dup4\n        /* \"#utility.yul\":19988:20055   */\n      tag_270\n      jump\t// in\n    tag_499:\n        /* \"#utility.yul\":19981:20055   */\n      swap2\n      pop\n        /* \"#utility.yul\":20064:20157   */\n      tag_500\n        /* \"#utility.yul\":20153:20156   */\n      dup3\n        /* \"#utility.yul\":20064:20157   */\n      tag_280\n      jump\t// in\n    tag_500:\n        /* \"#utility.yul\":20182:20184   */\n      0x20\n        /* \"#utility.yul\":20177:20180   */\n      dup3\n        /* \"#utility.yul\":20173:20185   */\n      add\n        /* \"#utility.yul\":20166:20185   */\n      swap1\n      pop\n        /* \"#utility.yul\":19825:20191   */\n      swap2\n      swap1\n      pop\n      jump\t// out\n        /* \"#utility.yul\":20197:20616   */\n    tag_146:\n        /* \"#utility.yul\":20363:20367   */\n      0x00\n        /* \"#utility.yul\":20401:20403   */\n      0x20\n        /* \"#utility.yul\":20390:20399   */\n      dup3\n        /* \"#utility.yul\":20386:20404   */\n      add\n        /* \"#utility.yul\":20378:20404   */\n      swap1\n      pop\n        /* \"#utility.yul\":20450:20459   */\n      dup2\n        /* \"#utility.yul\":20444:20448   */\n      dup2\n        /* \"#utility.yul\":20440:20460   */\n      sub\n        /* \"#utility.yul\":20436:20437   */\n      0x00\n        /* \"#utility.yul\":20425:20434   */\n      dup4\n        /* \"#utility.yul\":20421:20438   */\n      add\n        /* \"#utility.yul\":20414:20461   */\n      mstore\n        /* \"#utility.yul\":20478:20609   */\n      tag_502\n        /* \"#utility.yul\":20604:20608   */\n      dup2\n        /* \"#utility.yul\":20478:20609   */\n      tag_281\n      jump\t// in\n    tag_502:\n        /* \"#utility.yul\":20470:20609   */\n      swap1\n      pop\n        /* \"#utility.yul\":20197:20616   */\n      swap2\n      swap1\n      pop\n      jump\t// out\n        /* \"#utility.yul\":20622:20954   */\n    tag_148:\n        /* \"#utility.yul\":20743:20747   */\n      0x00\n        /* \"#utility.yul\":20781:20783   */\n      0x40\n        /* \"#utility.yul\":20770:20779   */\n      dup3\n        /* \"#utility.yul\":20766:20784   */\n      add\n        /* \"#utility.yul\":20758:20784   */\n      swap1\n      pop\n        /* \"#utility.yul\":20794:20865   */\n      tag_504\n        /* \"#utility.yul\":20862:20863   */\n      0x00\n        /* \"#utility.yul\":20851:20860   */\n      dup4\n        /* \"#utility.yul\":20847:20864   */\n      add\n        /* \"#utility.yul\":20838:20844   */\n      dup6\n        /* \"#utility.yul\":20794:20865   */\n      tag_249\n      jump\t// in\n    tag_504:\n        /* \"#utility.yul\":20875:20947   */\n      tag_505\n        /* \"#utility.yul\":20943:20945   */\n      0x20\n        /* \"#utility.yul\":20932:20941   */\n      dup4\n        /* \"#utility.yul\":20928:20946   */\n      add\n        /* \"#utility.yul\":20919:20925   */\n      dup5\n        /* \"#utility.yul\":20875:20947   */\n      tag_249\n      jump\t// in\n    tag_505:\n        /* \"#utility.yul\":20622:20954   */\n      swap4\n      swap3\n      pop\n      pop\n      pop\n      jump\t// out\n        /* \"#utility.yul\":20960:21076   */\n    tag_282:\n        /* \"#utility.yul\":21030:21051   */\n      tag_507\n        /* \"#utility.yul\":21045:21050   */\n      dup2\n        /* \"#utility.yul\":21030:21051   */\n      tag_237\n      jump\t// in\n    tag_507:\n        /* \"#utility.yul\":21023:21028   */\n      dup2\n        /* \"#utility.yul\":21020:21052   */\n      eq\n        /* \"#utility.yul\":21010:21070   */\n      tag_508\n      jumpi\n        /* \"#utility.yul\":21066:21067   */\n      0x00\n        /* \"#utility.yul\":21063:21064   */\n      0x00\n        /* \"#utility.yul\":21056:21068   */\n      revert\n        /* \"#utility.yul\":21010:21070   */\n    tag_508:\n        /* \"#utility.yul\":20960:21076   */\n      pop\n      jump\t// out\n        /* \"#utility.yul\":21082:21219   */\n    tag_283:\n        /* \"#utility.yul\":21136:21141   */\n      0x00\n        /* \"#utility.yul\":21167:21173   */\n      dup2\n        /* \"#utility.yul\":21161:21174   */\n      mload\n        /* \"#utility.yul\":21152:21174   */\n      swap1\n      pop\n        /* \"#utility.yul\":21183:21213   */\n      tag_510\n        /* \"#utility.yul\":21207:21212   */\n      dup2\n        /* \"#utility.yul\":21183:21213   */\n      tag_282\n      jump\t// in\n    tag_510:\n        /* \"#utility.yul\":21082:21219   */\n      swap3\n      swap2\n      pop\n      pop\n      jump\t// out\n        /* \"#utility.yul\":21225:21570   */\n    tag_152:\n        /* \"#utility.yul\":21292:21298   */\n      0x00\n        /* \"#utility.yul\":21341:21343   */\n      0x20\n        /* \"#utility.yul\":21329:21338   */\n      dup3\n        /* \"#utility.yul\":21320:21327   */\n      dup5\n        /* \"#utility.yul\":21316:21339   */\n      sub\n        /* \"#utility.yul\":21312:21344   */\n      slt\n        /* \"#utility.yul\":21309:21428   */\n      iszero\n      tag_512\n      jumpi\n        /* \"#utility.yul\":21347:21426   */\n      tag_513\n      tag_232\n      jump\t// in\n    tag_513:\n        /* \"#utility.yul\":21309:21428   */\n    tag_512:\n        /* \"#utility.yul\":21467:21468   */\n      0x00\n        /* \"#utility.yul\":21492:21553   */\n      tag_514\n        /* \"#utility.yul\":21545:21552   */\n      dup5\n        /* \"#utility.yul\":21536:21542   */\n      dup3\n        /* \"#utility.yul\":21525:21534   */\n      dup6\n        /* \"#utility.yul\":21521:21543   */\n      add\n        /* \"#utility.yul\":21492:21553   */\n      tag_283\n      jump\t// in\n    tag_514:\n        /* \"#utility.yul\":21482:21553   */\n      swap2\n      pop\n        /* \"#utility.yul\":21438:21563   */\n      pop\n        /* \"#utility.yul\":21225:21570   */\n      swap3\n      swap2\n      pop\n      pop\n      jump\t// out\n        /* \"#utility.yul\":21576:21750   */\n    tag_284:\n        /* \"#utility.yul\":21716:21742   */\n      0x4d61726b6574706c616365206e6f7420617070726f7665640000000000000000\n        /* \"#utility.yul\":21712:21713   */\n      0x00\n        /* \"#utility.yul\":21704:21710   */\n      dup3\n        /* \"#utility.yul\":21700:21714   */\n      add\n        /* \"#utility.yul\":21693:21743   */\n      mstore\n        /* \"#utility.yul\":21576:21750   */\n      pop\n      jump\t// out\n        /* \"#utility.yul\":21756:22122   */\n    tag_285:\n        /* \"#utility.yul\":21898:21901   */\n      0x00\n        /* \"#utility.yul\":21919:21986   */\n      tag_517\n        /* \"#utility.yul\":21983:21985   */\n      0x18\n        /* \"#utility.yul\":21978:21981   */\n      dup4\n        /* \"#utility.yul\":21919:21986   */\n      tag_270\n      jump\t// in\n    tag_517:\n        /* \"#utility.yul\":21912:21986   */\n      swap2\n      pop\n        /* \"#utility.yul\":21995:22088   */\n      tag_518\n        /* \"#utility.yul\":22084:22087   */\n      dup3\n        /* \"#utility.yul\":21995:22088   */\n      tag_284\n      jump\t// in\n    tag_518:\n        /* \"#utility.yul\":22113:22115   */\n      0x20\n        /* \"#utility.yul\":22108:22111   */\n      dup3\n        /* \"#utility.yul\":22104:22116   */\n      add\n        /* \"#utility.yul\":22097:22116   */\n      swap1\n      pop\n        /* \"#utility.yul\":21756:22122   */\n      swap2\n      swap1\n      pop\n      jump\t// out\n        /* \"#utility.yul\":22128:22547   */\n    tag_155:\n        /* \"#utility.yul\":22294:22298   */\n      0x00\n        /* \"#utility.yul\":22332:22334   */\n      0x20\n        /* \"#utility.yul\":22321:22330   */\n      dup3\n        /* \"#utility.yul\":22317:22335   */\n      add\n        /* \"#utility.yul\":22309:22335   */\n      swap1\n      pop\n        /* \"#utility.yul\":22381:22390   */\n      dup2\n        /* \"#utility.yul\":22375:22379   */\n      dup2\n        /* \"#utility.yul\":22371:22391   */\n      sub\n        /* \"#utility.yul\":22367:22368   */\n      0x00\n        /* \"#utility.yul\":22356:22365   */\n      dup4\n        /* \"#utility.yul\":22352:22369   */\n      add\n        /* \"#utility.yul\":22345:22392   */\n      mstore\n        /* \"#utility.yul\":22409:22540   */\n      tag_520\n        /* \"#utility.yul\":22535:22539   */\n      dup2\n        /* \"#utility.yul\":22409:22540   */\n      tag_285\n      jump\t// in\n    tag_520:\n        /* \"#utility.yul\":22401:22540   */\n      swap1\n      pop\n        /* \"#utility.yul\":22128:22547   */\n      swap2\n      swap1\n      pop\n      jump\t// out\n        /* \"#utility.yul\":22553:22885   */\n    tag_157:\n        /* \"#utility.yul\":22674:22678   */\n      0x00\n        /* \"#utility.yul\":22712:22714   */\n      0x40\n        /* \"#utility.yul\":22701:22710   */\n      dup3\n        /* \"#utility.yul\":22697:22715   */\n      add\n        /* \"#utility.yul\":22689:22715   */\n      swap1\n      pop\n        /* \"#utility.yul\":22725:22796   */\n      tag_522\n        /* \"#utility.yul\":22793:22794   */\n      0x00\n        /* \"#utility.yul\":22782:22791   */\n      dup4\n        /* \"#utility.yul\":22778:22795   */\n      add\n        /* \"#utility.yul\":22769:22775   */\n      dup6\n        /* \"#utility.yul\":22725:22796   */\n      tag_252\n      jump\t// in\n    tag_522:\n        /* \"#utility.yul\":22806:22878   */\n      tag_523\n        /* \"#utility.yul\":22874:22876   */\n      0x20\n        /* \"#utility.yul\":22863:22872   */\n      dup4\n        /* \"#utility.yul\":22859:22877   */\n      add\n        /* \"#utility.yul\":22850:22856   */\n      dup5\n        /* \"#utility.yul\":22806:22878   */\n      tag_252\n      jump\t// in\n    tag_523:\n        /* \"#utility.yul\":22553:22885   */\n      swap4\n      swap3\n      pop\n      pop\n      pop\n      jump\t// out\n        /* \"#utility.yul\":22891:23067   */\n    tag_286:\n        /* \"#utility.yul\":23031:23059   */\n      0x496e73756666696369656e7420616d6f756e74206c6973746564000000000000\n        /* \"#utility.yul\":23027:23028   */\n      0x00\n        /* \"#utility.yul\":23019:23025   */\n      dup3\n        /* \"#utility.yul\":23015:23029   */\n      add\n        /* \"#utility.yul\":23008:23060   */\n      mstore\n        /* \"#utility.yul\":22891:23067   */\n      pop\n      jump\t// out\n        /* \"#utility.yul\":23073:23439   */\n    tag_287:\n        /* \"#utility.yul\":23215:23218   */\n      0x00\n        /* \"#utility.yul\":23236:23303   */\n      tag_526\n        /* \"#utility.yul\":23300:23302   */\n      0x1a\n        /* \"#utility.yul\":23295:23298   */\n      dup4\n        /* \"#utility.yul\":23236:23303   */\n      tag_270\n      jump\t// in\n    tag_526:\n        /* \"#utility.yul\":23229:23303   */\n      swap2\n      pop\n        /* \"#utility.yul\":23312:23405   */\n      tag_527\n        /* \"#utility.yul\":23401:23404   */\n      dup3\n        /* \"#utility.yul\":23312:23405   */\n      tag_286\n      jump\t// in\n    tag_527:\n        /* \"#utility.yul\":23430:23432   */\n      0x20\n        /* \"#utility.yul\":23425:23428   */\n      dup3\n        /* \"#utility.yul\":23421:23433   */\n      add\n        /* \"#utility.yul\":23414:23433   */\n      swap1\n      pop\n        /* \"#utility.yul\":23073:23439   */\n      swap2\n      swap1\n      pop\n      jump\t// out\n        /* \"#utility.yul\":23445:23864   */\n    tag_171:\n        /* \"#utility.yul\":23611:23615   */\n      0x00\n        /* \"#utility.yul\":23649:23651   */\n      0x20\n        /* \"#utility.yul\":23638:23647   */\n      dup3\n        /* \"#utility.yul\":23634:23652   */\n      add\n        /* \"#utility.yul\":23626:23652   */\n      swap1\n      pop\n        /* \"#utility.yul\":23698:23707   */\n      dup2\n        /* \"#utility.yul\":23692:23696   */\n      dup2\n        /* \"#utility.yul\":23688:23708   */\n      sub\n        /* \"#utility.yul\":23684:23685   */\n      0x00\n        /* \"#utility.yul\":23673:23682   */\n      dup4\n        /* \"#utility.yul\":23669:23686   */\n      add\n        /* \"#utility.yul\":23662:23709   */\n      mstore\n        /* \"#utility.yul\":23726:23857   */\n      tag_529\n        /* \"#utility.yul\":23852:23856   */\n      dup2\n        /* \"#utility.yul\":23726:23857   */\n      tag_287\n      jump\t// in\n    tag_529:\n        /* \"#utility.yul\":23718:23857   */\n      swap1\n      pop\n        /* \"#utility.yul\":23445:23864   */\n      swap2\n      swap1\n      pop\n      jump\t// out\n        /* \"#utility.yul\":23870:24045   */\n    tag_288:\n        /* \"#utility.yul\":24010:24037   */\n      0x53656c6c6572206e6f206c6f6e676572206f776e73204e465400000000000000\n        /* \"#utility.yul\":24006:24007   */\n      0x00\n        /* \"#utility.yul\":23998:24004   */\n      dup3\n        /* \"#utility.yul\":23994:24008   */\n      add\n        /* \"#utility.yul\":23987:24038   */\n      mstore\n        /* \"#utility.yul\":23870:24045   */\n      pop\n      jump\t// out\n        /* \"#utility.yul\":24051:24417   */\n    tag_289:\n        /* \"#utility.yul\":24193:24196   */\n      0x00\n        /* \"#utility.yul\":24214:24281   */\n      tag_532\n        /* \"#utility.yul\":24278:24280   */\n      0x19\n        /* \"#utility.yul\":24273:24276   */\n      dup4\n        /* \"#utility.yul\":24214:24281   */\n      tag_270\n      jump\t// in\n    tag_532:\n        /* \"#utility.yul\":24207:24281   */\n      swap2\n      pop\n        /* \"#utility.yul\":24290:24383   */\n      tag_533\n        /* \"#utility.yul\":24379:24382   */\n      dup3\n        /* \"#utility.yul\":24290:24383   */\n      tag_288\n      jump\t// in\n    tag_533:\n        /* \"#utility.yul\":24408:24410   */\n      0x20\n        /* \"#utility.yul\":24403:24406   */\n      dup3\n        /* \"#utility.yul\":24399:24411   */\n      add\n        /* \"#utility.yul\":24392:24411   */\n      swap1\n      pop\n        /* \"#utility.yul\":24051:24417   */\n      swap2\n      swap1\n      pop\n      jump\t// out\n        /* \"#utility.yul\":24423:24842   */\n    tag_178:\n        /* \"#utility.yul\":24589:24593   */\n      0x00\n        /* \"#utility.yul\":24627:24629   */\n      0x20\n        /* \"#utility.yul\":24616:24625   */\n      dup3\n        /* \"#utility.yul\":24612:24630   */\n      add\n        /* \"#utility.yul\":24604:24630   */\n      swap1\n      pop\n        /* \"#utility.yul\":24676:24685   */\n      dup2\n        /* \"#utility.yul\":24670:24674   */\n      dup2\n        /* \"#utility.yul\":24666:24686   */\n      sub\n        /* \"#utility.yul\":24662:24663   */\n      0x00\n        /* \"#utility.yul\":24651:24660   */\n      dup4\n        /* \"#utility.yul\":24647:24664   */\n      add\n        /* \"#utility.yul\":24640:24687   */\n      mstore\n        /* \"#utility.yul\":24704:24835   */\n      tag_535\n        /* \"#utility.yul\":24830:24834   */\n      dup2\n        /* \"#utility.yul\":24704:24835   */\n      tag_289\n      jump\t// in\n    tag_535:\n        /* \"#utility.yul\":24696:24835   */\n      swap1\n      pop\n        /* \"#utility.yul\":24423:24842   */\n      swap2\n      swap1\n      pop\n      jump\t// out\n        /* \"#utility.yul\":24848:25028   */\n    tag_290:\n        /* \"#utility.yul\":24896:24973   */\n      0x4e487b7100000000000000000000000000000000000000000000000000000000\n        /* \"#utility.yul\":24893:24894   */\n      0x00\n        /* \"#utility.yul\":24886:24974   */\n      mstore\n        /* \"#utility.yul\":24993:24997   */\n      0x11\n        /* \"#utility.yul\":24990:24991   */\n      0x04\n        /* \"#utility.yul\":24983:24998   */\n      mstore\n        /* \"#utility.yul\":25017:25021   */\n      0x24\n        /* \"#utility.yul\":25014:25015   */\n      0x00\n        /* \"#utility.yul\":25007:25022   */\n      revert\n        /* \"#utility.yul\":25034:25444   */\n    tag_180:\n        /* \"#utility.yul\":25074:25081   */\n      0x00\n        /* \"#utility.yul\":25097:25117   */\n      tag_538\n        /* \"#utility.yul\":25115:25116   */\n      dup3\n        /* \"#utility.yul\":25097:25117   */\n      tag_239\n      jump\t// in\n    tag_538:\n        /* \"#utility.yul\":25092:25117   */\n      swap2\n      pop\n        /* \"#utility.yul\":25131:25151   */\n      tag_539\n        /* \"#utility.yul\":25149:25150   */\n      dup4\n        /* \"#utility.yul\":25131:25151   */\n      tag_239\n      jump\t// in\n    tag_539:\n        /* \"#utility.yul\":25126:25151   */\n      swap3\n      pop\n        /* \"#utility.yul\":25186:25187   */\n      dup3\n        /* \"#utility.yul\":25183:25184   */\n      dup3\n        /* \"#utility.yul\":25179:25188   */\n      mul\n        /* \"#utility.yul\":25208:25238   */\n      tag_540\n        /* \"#utility.yul\":25226:25237   */\n      dup2\n        /* \"#utility.yul\":25208:25238   */\n      tag_239\n      jump\t// in\n    tag_540:\n        /* \"#utility.yul\":25197:25238   */\n      swap2\n      pop\n        /* \"#utility.yul\":25387:25388   */\n      dup3\n        /* \"#utility.yul\":25378:25385   */\n      dup3\n        /* \"#utility.yul\":25374:25389   */\n      div\n        /* \"#utility.yul\":25371:25372   */\n      dup5\n        /* \"#utility.yul\":25368:25390   */\n      eq\n        /* \"#utility.yul\":25348:25349   */\n      dup4\n        /* \"#utility.yul\":25341:25350   */\n      iszero\n        /* \"#utility.yul\":25321:25404   */\n      or\n        /* \"#utility.yul\":25298:25437   */\n      tag_541\n      jumpi\n        /* \"#utility.yul\":25417:25435   */\n      tag_542\n      tag_290\n      jump\t// in\n    tag_542:\n        /* \"#utility.yul\":25298:25437   */\n    tag_541:\n        /* \"#utility.yul\":25082:25444   */\n      pop\n        /* \"#utility.yul\":25034:25444   */\n      swap3\n      swap2\n      pop\n      pop\n      jump\t// out\n        /* \"#utility.yul\":25450:25630   */\n    tag_291:\n        /* \"#utility.yul\":25498:25575   */\n      0x4e487b7100000000000000000000000000000000000000000000000000000000\n        /* \"#utility.yul\":25495:25496   */\n      0x00\n        /* \"#utility.yul\":25488:25576   */\n      mstore\n        /* \"#utility.yul\":25595:25599   */\n      0x12\n        /* \"#utility.yul\":25592:25593   */\n      0x04\n        /* \"#utility.yul\":25585:25600   */\n      mstore\n        /* \"#utility.yul\":25619:25623   */\n      0x24\n        /* \"#utility.yul\":25616:25617   */\n      0x00\n        /* \"#utility.yul\":25609:25624   */\n      revert\n        /* \"#utility.yul\":25636:25821   */\n    tag_183:\n        /* \"#utility.yul\":25676:25677   */\n      0x00\n        /* \"#utility.yul\":25693:25713   */\n      tag_545\n        /* \"#utility.yul\":25711:25712   */\n      dup3\n        /* \"#utility.yul\":25693:25713   */\n      tag_239\n      jump\t// in\n    tag_545:\n        /* \"#utility.yul\":25688:25713   */\n      swap2\n      pop\n        /* \"#utility.yul\":25727:25747   */\n      tag_546\n        /* \"#utility.yul\":25745:25746   */\n      dup4\n        /* \"#utility.yul\":25727:25747   */\n      tag_239\n      jump\t// in\n    tag_546:\n        /* \"#utility.yul\":25722:25747   */\n      swap3\n      pop\n        /* \"#utility.yul\":25766:25767   */\n      dup3\n        /* \"#utility.yul\":25756:25791   */\n      tag_547\n      jumpi\n        /* \"#utility.yul\":25771:25789   */\n      tag_548\n      tag_291\n      jump\t// in\n    tag_548:\n        /* \"#utility.yul\":25756:25791   */\n    tag_547:\n        /* \"#utility.yul\":25813:25814   */\n      dup3\n        /* \"#utility.yul\":25810:25811   */\n      dup3\n        /* \"#utility.yul\":25806:25815   */\n      div\n        /* \"#utility.yul\":25801:25815   */\n      swap1\n      pop\n        /* \"#utility.yul\":25636:25821   */\n      swap3\n      swap2\n      pop\n      pop\n      jump\t// out\n        /* \"#utility.yul\":25827:26021   */\n    tag_185:\n        /* \"#utility.yul\":25867:25871   */\n      0x00\n        /* \"#utility.yul\":25887:25907   */\n      tag_550\n        /* \"#utility.yul\":25905:25906   */\n      dup3\n        /* \"#utility.yul\":25887:25907   */\n      tag_239\n      jump\t// in\n    tag_550:\n        /* \"#utility.yul\":25882:25907   */\n      swap2\n      pop\n        /* \"#utility.yul\":25921:25941   */\n      tag_551\n        /* \"#utility.yul\":25939:25940   */\n      dup4\n        /* \"#utility.yul\":25921:25941   */\n      tag_239\n      jump\t// in\n    tag_551:\n        /* \"#utility.yul\":25916:25941   */\n      swap3\n      pop\n        /* \"#utility.yul\":25965:25966   */\n      dup3\n        /* \"#utility.yul\":25962:25963   */\n      dup3\n        /* \"#utility.yul\":25958:25967   */\n      sub\n        /* \"#utility.yul\":25950:25967   */\n      swap1\n      pop\n        /* \"#utility.yul\":25989:25990   */\n      dup2\n        /* \"#utility.yul\":25983:25987   */\n      dup2\n        /* \"#utility.yul\":25980:25991   */\n      gt\n        /* \"#utility.yul\":25977:26014   */\n      iszero\n      tag_552\n      jumpi\n        /* \"#utility.yul\":25994:26012   */\n      tag_553\n      tag_290\n      jump\t// in\n    tag_553:\n        /* \"#utility.yul\":25977:26014   */\n    tag_552:\n        /* \"#utility.yul\":25827:26021   */\n      swap3\n      swap2\n      pop\n      pop\n      jump\t// out\n        /* \"#utility.yul\":26027:26195   */\n    tag_292:\n        /* \"#utility.yul\":26110:26121   */\n      0x00\n        /* \"#utility.yul\":26144:26150   */\n      dup3\n        /* \"#utility.yul\":26139:26142   */\n      dup3\n        /* \"#utility.yul\":26132:26151   */\n      mstore\n        /* \"#utility.yul\":26184:26188   */\n      0x20\n        /* \"#utility.yul\":26179:26182   */\n      dup3\n        /* \"#utility.yul\":26175:26189   */\n      add\n        /* \"#utility.yul\":26160:26189   */\n      swap1\n      pop\n        /* \"#utility.yul\":26027:26195   */\n      swap3\n      swap2\n      pop\n      pop\n      jump\t// out\n        /* \"#utility.yul\":26201:26315   */\n    tag_293:\n      pop\n      jump\t// out\n        /* \"#utility.yul\":26321:26683   */\n    tag_294:\n        /* \"#utility.yul\":26462:26465   */\n      0x00\n        /* \"#utility.yul\":26483:26548   */\n      tag_557\n        /* \"#utility.yul\":26546:26547   */\n      0x00\n        /* \"#utility.yul\":26541:26544   */\n      dup4\n        /* \"#utility.yul\":26483:26548   */\n      tag_292\n      jump\t// in\n    tag_557:\n        /* \"#utility.yul\":26476:26548   */\n      swap2\n      pop\n        /* \"#utility.yul\":26557:26650   */\n      tag_558\n        /* \"#utility.yul\":26646:26649   */\n      dup3\n        /* \"#utility.yul\":26557:26650   */\n      tag_293\n      jump\t// in\n    tag_558:\n        /* \"#utility.yul\":26675:26676   */\n      0x00\n        /* \"#utility.yul\":26670:26673   */\n      dup3\n        /* \"#utility.yul\":26666:26677   */\n      add\n        /* \"#utility.yul\":26659:26677   */\n      swap1\n      pop\n        /* \"#utility.yul\":26321:26683   */\n      swap2\n      swap1\n      pop\n      jump\t// out\n        /* \"#utility.yul\":26689:27548   */\n    tag_190:\n        /* \"#utility.yul\":26966:26970   */\n      0x00\n        /* \"#utility.yul\":27004:27007   */\n      0xa0\n        /* \"#utility.yul\":26993:27002   */\n      dup3\n        /* \"#utility.yul\":26989:27008   */\n      add\n        /* \"#utility.yul\":26981:27008   */\n      swap1\n      pop\n        /* \"#utility.yul\":27018:27089   */\n      tag_560\n        /* \"#utility.yul\":27086:27087   */\n      0x00\n        /* \"#utility.yul\":27075:27084   */\n      dup4\n        /* \"#utility.yul\":27071:27088   */\n      add\n        /* \"#utility.yul\":27062:27068   */\n      dup8\n        /* \"#utility.yul\":27018:27089   */\n      tag_249\n      jump\t// in\n    tag_560:\n        /* \"#utility.yul\":27099:27171   */\n      tag_561\n        /* \"#utility.yul\":27167:27169   */\n      0x20\n        /* \"#utility.yul\":27156:27165   */\n      dup4\n        /* \"#utility.yul\":27152:27170   */\n      add\n        /* \"#utility.yul\":27143:27149   */\n      dup7\n        /* \"#utility.yul\":27099:27171   */\n      tag_249\n      jump\t// in\n    tag_561:\n        /* \"#utility.yul\":27181:27253   */\n      tag_562\n        /* \"#utility.yul\":27249:27251   */\n      0x40\n        /* \"#utility.yul\":27238:27247   */\n      dup4\n        /* \"#utility.yul\":27234:27252   */\n      add\n        /* \"#utility.yul\":27225:27231   */\n      dup6\n        /* \"#utility.yul\":27181:27253   */\n      tag_252\n      jump\t// in\n    tag_562:\n        /* \"#utility.yul\":27263:27335   */\n      tag_563\n        /* \"#utility.yul\":27331:27333   */\n      0x60\n        /* \"#utility.yul\":27320:27329   */\n      dup4\n        /* \"#utility.yul\":27316:27334   */\n      add\n        /* \"#utility.yul\":27307:27313   */\n      dup5\n        /* \"#utility.yul\":27263:27335   */\n      tag_252\n      jump\t// in\n    tag_563:\n        /* \"#utility.yul\":27383:27392   */\n      dup2\n        /* \"#utility.yul\":27377:27381   */\n      dup2\n        /* \"#utility.yul\":27373:27393   */\n      sub\n        /* \"#utility.yul\":27367:27370   */\n      0x80\n        /* \"#utility.yul\":27356:27365   */\n      dup4\n        /* \"#utility.yul\":27352:27371   */\n      add\n        /* \"#utility.yul\":27345:27394   */\n      mstore\n        /* \"#utility.yul\":27411:27541   */\n      tag_564\n        /* \"#utility.yul\":27536:27540   */\n      dup2\n        /* \"#utility.yul\":27411:27541   */\n      tag_294\n      jump\t// in\n    tag_564:\n        /* \"#utility.yul\":27403:27541   */\n      swap1\n      pop\n        /* \"#utility.yul\":26689:27548   */\n      swap6\n      swap5\n      pop\n      pop\n      pop\n      pop\n      pop\n      jump\t// out\n        /* \"#utility.yul\":27554:27735   */\n    tag_295:\n        /* \"#utility.yul\":27694:27727   */\n      0x5265656e7472616e637947756172643a207265656e7472616e742063616c6c00\n        /* \"#utility.yul\":27690:27691   */\n      0x00\n        /* \"#utility.yul\":27682:27688   */\n      dup3\n        /* \"#utility.yul\":27678:27692   */\n      add\n        /* \"#utility.yul\":27671:27728   */\n      mstore\n        /* \"#utility.yul\":27554:27735   */\n      pop\n      jump\t// out\n        /* \"#utility.yul\":27741:28107   */\n    tag_296:\n        /* \"#utility.yul\":27883:27886   */\n      0x00\n        /* \"#utility.yul\":27904:27971   */\n      tag_567\n        /* \"#utility.yul\":27968:27970   */\n      0x1f\n        /* \"#utility.yul\":27963:27966   */\n      dup4\n        /* \"#utility.yul\":27904:27971   */\n      tag_270\n      jump\t// in\n    tag_567:\n        /* \"#utility.yul\":27897:27971   */\n      swap2\n      pop\n        /* \"#utility.yul\":27980:28073   */\n      tag_568\n        /* \"#utility.yul\":28069:28072   */\n      dup3\n        /* \"#utility.yul\":27980:28073   */\n      tag_295\n      jump\t// in\n    tag_568:\n        /* \"#utility.yul\":28098:28100   */\n      0x20\n        /* \"#utility.yul\":28093:28096   */\n      dup3\n        /* \"#utility.yul\":28089:28101   */\n      add\n        /* \"#utility.yul\":28082:28101   */\n      swap1\n      pop\n        /* \"#utility.yul\":27741:28107   */\n      swap2\n      swap1\n      pop\n      jump\t// out\n        /* \"#utility.yul\":28113:28532   */\n    tag_205:\n        /* \"#utility.yul\":28279:28283   */\n      0x00\n        /* \"#utility.yul\":28317:28319   */\n      0x20\n        /* \"#utility.yul\":28306:28315   */\n      dup3\n        /* \"#utility.yul\":28302:28320   */\n      add\n        /* \"#utility.yul\":28294:28320   */\n      swap1\n      pop\n        /* \"#utility.yul\":28366:28375   */\n      dup2\n        /* \"#utility.yul\":28360:28364   */\n      dup2\n        /* \"#utility.yul\":28356:28376   */\n      sub\n        /* \"#utility.yul\":28352:28353   */\n      0x00\n        /* \"#utility.yul\":28341:28350   */\n      dup4\n        /* \"#utility.yul\":28337:28354   */\n      add\n        /* \"#utility.yul\":28330:28377   */\n      mstore\n        /* \"#utility.yul\":28394:28525   */\n      tag_570\n        /* \"#utility.yul\":28520:28524   */\n      dup2\n        /* \"#utility.yul\":28394:28525   */\n      tag_296\n      jump\t// in\n    tag_570:\n        /* \"#utility.yul\":28386:28525   */\n      swap1\n      pop\n        /* \"#utility.yul\":28113:28532   */\n      swap2\n      swap1\n      pop\n      jump\t// out\n        /* \"#utility.yul\":28538:28980   */\n    tag_222:\n        /* \"#utility.yul\":28687:28691   */\n      0x00\n        /* \"#utility.yul\":28725:28727   */\n      0x60\n        /* \"#utility.yul\":28714:28723   */\n      dup3\n        /* \"#utility.yul\":28710:28728   */\n      add\n        /* \"#utility.yul\":28702:28728   */\n      swap1\n      pop\n        /* \"#utility.yul\":28738:28809   */\n      tag_572\n        /* \"#utility.yul\":28806:28807   */\n      0x00\n        /* \"#utility.yul\":28795:28804   */\n      dup4\n        /* \"#utility.yul\":28791:28808   */\n      add\n        /* \"#utility.yul\":28782:28788   */\n      dup7\n        /* \"#utility.yul\":28738:28809   */\n      tag_249\n      jump\t// in\n    tag_572:\n        /* \"#utility.yul\":28819:28891   */\n      tag_573\n        /* \"#utility.yul\":28887:28889   */\n      0x20\n        /* \"#utility.yul\":28876:28885   */\n      dup4\n        /* \"#utility.yul\":28872:28890   */\n      add\n        /* \"#utility.yul\":28863:28869   */\n      dup6\n        /* \"#utility.yul\":28819:28891   */\n      tag_249\n      jump\t// in\n    tag_573:\n        /* \"#utility.yul\":28901:28973   */\n      tag_574\n        /* \"#utility.yul\":28969:28971   */\n      0x40\n        /* \"#utility.yul\":28958:28967   */\n      dup4\n        /* \"#utility.yul\":28954:28972   */\n      add\n        /* \"#utility.yul\":28945:28951   */\n      dup5\n        /* \"#utility.yul\":28901:28973   */\n      tag_252\n      jump\t// in\n    tag_574:\n        /* \"#utility.yul\":28538:28980   */\n      swap5\n      swap4\n      pop\n      pop\n      pop\n      pop\n      jump\t// out\n\n    auxdata: 0xa2646970667358221220fc84ca12668172534a3464a7ea17e5f198b1039eea504fb94f46c786e156813964736f6c634300081e0033\n}\n",
				"bytecode": {
					"linkReferences": {},
					"object": "60c060405234801561000f575f5ffd5b506040516127c63803806127c6833981810160405281019061003191906103d2565b335f73ffffffffffffffffffffffffffffffffffffffff168173ffffffffffffffffffffffffffffffffffffffff16036100a2575f6040517f1e4fbdf70000000000000000000000000000000000000000000000000000000081526004016100999190610431565b60405180910390fd5b6100b1816102b360201b60201c565b50600180819055505f73ffffffffffffffffffffffffffffffffffffffff168373ffffffffffffffffffffffffffffffffffffffff1603610127576040517f08c379a000000000000000000000000000000000000000000000000000000000815260040161011e906104a4565b60405180910390fd5b5f73ffffffffffffffffffffffffffffffffffffffff168273ffffffffffffffffffffffffffffffffffffffff1603610195576040517f08c379a000000000000000000000000000000000000000000000000000000000815260040161018c9061050c565b60405180910390fd5b5f73ffffffffffffffffffffffffffffffffffffffff168173ffffffffffffffffffffffffffffffffffffffff1603610203576040517f08c379a00000000000000000000000000000000000000000000000000000000081526004016101fa90610574565b60405180910390fd5b8273ffffffffffffffffffffffffffffffffffffffff1660808173ffffffffffffffffffffffffffffffffffffffff16815250508173ffffffffffffffffffffffffffffffffffffffff1660a08173ffffffffffffffffffffffffffffffffffffffff16815250508060025f6101000a81548173ffffffffffffffffffffffffffffffffffffffff021916908373ffffffffffffffffffffffffffffffffffffffff160217905550505050610592565b5f5f5f9054906101000a900473ffffffffffffffffffffffffffffffffffffffff169050815f5f6101000a81548173ffffffffffffffffffffffffffffffffffffffff021916908373ffffffffffffffffffffffffffffffffffffffff1602179055508173ffffffffffffffffffffffffffffffffffffffff168173ffffffffffffffffffffffffffffffffffffffff167f8be0079c531659141344cd1fd0a4f28419497f9722a3daafe3b4186f6b6457e060405160405180910390a35050565b5f5ffd5b5f73ffffffffffffffffffffffffffffffffffffffff82169050919050565b5f6103a182610378565b9050919050565b6103b181610397565b81146103bb575f5ffd5b50565b5f815190506103cc816103a8565b92915050565b5f5f5f606084860312156103e9576103e8610374565b5b5f6103f6868287016103be565b9350506020610407868287016103be565b9250506040610418868287016103be565b9150509250925092565b61042b81610397565b82525050565b5f6020820190506104445f830184610422565b92915050565b5f82825260208201905092915050565b7f496e76616c6964204341464920746f6b656e00000000000000000000000000005f82015250565b5f61048e60128361044a565b91506104998261045a565b602082019050919050565b5f6020820190508181035f8301526104bb81610482565b9050919050565b7f496e76616c6964204e465420636f6e74726163740000000000000000000000005f82015250565b5f6104f660148361044a565b9150610501826104c2565b602082019050919050565b5f6020820190508181035f830152610523816104ea565b9050919050565b7f496e76616c6964206665652077616c6c657400000000000000000000000000005f82015250565b5f61055e60128361044a565b91506105698261052a565b602082019050919050565b5f6020820190508181035f83015261058b81610552565b9050919050565b60805160a0516121e96105dd5f395f81816106ef015281816107a90152818161088301528181610bfe0152610dd201525f81816104e301528181610d3e0152610d8b01526121e95ff3fe608060405234801561000f575f5ffd5b5060043610610114575f3560e01c8063bc197c81116100a0578063ec16b94a1161006f578063ec16b94a146102bd578063f23a6e61146102d9578063f25f4b5614610309578063f2fde38b14610327578063f6b45c461461034357610114565b8063bc197c8114610233578063ddbcb5fa14610263578063e215f1ca14610281578063eaf98d231461029f57610114565b80638da5cb5b116100e75780638da5cb5b1461018c57806390d49b9d146101aa578063927fbfc8146101c657806395ccea67146101f9578063ad9f20a61461021557610114565b806301ffc9a714610118578063305a67a81461014857806358a0bde314610164578063715018a614610182575b5f5ffd5b610132600480360381019061012d9190611413565b61035f565b60405161013f9190611458565b60405180910390f35b610162600480360381019061015d91906114a4565b610370565b005b61016c6104e1565b6040516101799190611549565b60405180910390f35b61018a610505565b005b610194610518565b6040516101a19190611582565b60405180910390f35b6101c460048036038101906101bf91906115c5565b61053f565b005b6101e060048036038101906101db91906115f0565b61063b565b6040516101f0949392919061163d565b60405180910390f35b610213600480360381019061020e9190611680565b610691565b005b61021d6106cf565b60405161022a91906116be565b60405180910390f35b61024d600480360381019061024891906118d7565b6106d4565b60405161025a91906119b1565b60405180910390f35b61026b6106e8565b60405161027891906116be565b60405180910390f35b6102896106ed565b60405161029691906119ea565b60405180910390f35b6102a7610711565b6040516102b491906116be565b60405180910390f35b6102d760048036038101906102d29190611a03565b610716565b005b6102f360048036038101906102ee9190611a53565b610aa0565b60405161030091906119b1565b60405180910390f35b610311610ab4565b60405161031e9190611582565b60405180910390f35b610341600480360381019061033c91906115c5565b610ad9565b005b61035d60048036038101906103589190611ae6565b610b5d565b005b5f61036982610f88565b9050919050565b610378611001565b5f60035f8381526020019081526020015f205f3373ffffffffffffffffffffffffffffffffffffffff1673ffffffffffffffffffffffffffffffffffffffff1681526020019081526020015f206002015411610409576040517f08c379a000000000000000000000000000000000000000000000000000000000815260040161040090611b90565b60405180910390fd5b60035f8281526020019081526020015f205f3373ffffffffffffffffffffffffffffffffffffffff1673ffffffffffffffffffffffffffffffffffffffff1681526020019081526020015f205f5f82015f6101000a81549073ffffffffffffffffffffffffffffffffffffffff0219169055600182015f9055600282015f9055600382015f90555050803373ffffffffffffffffffffffffffffffffffffffff167f93ec4766fcd2d9dfdceab8f2e13ba0d9d826645cf03167fdb92b3b7359b5248c60405160405180910390a36104de611050565b50565b7f000000000000000000000000000000000000000000000000000000000000000081565b61050d611059565b6105165f6110e0565b565b5f5f5f9054906101000a900473ffffffffffffffffffffffffffffffffffffffff16905090565b610547611059565b5f73ffffffffffffffffffffffffffffffffffffffff168173ffffffffffffffffffffffffffffffffffffffff16036105b5576040517f08c379a00000000000000000000000000000000000000000000000000000000081526004016105ac90611bf8565b60405180910390fd5b8060025f6101000a81548173ffffffffffffffffffffffffffffffffffffffff021916908373ffffffffffffffffffffffffffffffffffffffff1602179055508073ffffffffffffffffffffffffffffffffffffffff167f29acee77dafcfa0143d74a7ea236018f3a6e1fa71e27fc59bbfbc6b8ca8edccd60405160405180910390a250565b6003602052815f5260405f20602052805f5260405f205f9150915050805f015f9054906101000a900473ffffffffffffffffffffffffffffffffffffffff16908060010154908060020154908060030154905084565b610699611059565b6106cb6106a4610518565b828473ffffffffffffffffffffffffffffffffffffffff166111a19092919063ffffffff16565b5050565b600181565b5f63bc197c8160e01b905095945050505050565b600181565b7f000000000000000000000000000000000000000000000000000000000000000081565b606481565b61071e611001565b6001821015610762576040517f08c379a000000000000000000000000000000000000000000000000000000000815260040161075990611c60565b60405180910390fd5b60018110156107a6576040517f08c379a000000000000000000000000000000000000000000000000000000000815260040161079d90611cc8565b60405180910390fd5b817f000000000000000000000000000000000000000000000000000000000000000073ffffffffffffffffffffffffffffffffffffffff1662fdd58e33866040518363ffffffff1660e01b8152600401610801929190611ce6565b602060405180830381865afa15801561081c573d5f5f3e3d5ffd5b505050506040513d601f19601f820116820180604052508101906108409190611d21565b1015610881576040517f08c379a000000000000000000000000000000000000000000000000000000000815260040161087890611d96565b60405180910390fd5b7f000000000000000000000000000000000000000000000000000000000000000073ffffffffffffffffffffffffffffffffffffffff1663e985e9c533306040518363ffffffff1660e01b81526004016108dc929190611db4565b602060405180830381865afa1580156108f7573d5f5f3e3d5ffd5b505050506040513d601f19601f8201168201806040525081019061091b9190611e05565b61095a576040517f08c379a000000000000000000000000000000000000000000000000000000000815260040161095190611e7a565b60405180910390fd5b60405180608001604052803373ffffffffffffffffffffffffffffffffffffffff1681526020018481526020018381526020018281525060035f8581526020019081526020015f205f3373ffffffffffffffffffffffffffffffffffffffff1673ffffffffffffffffffffffffffffffffffffffff1681526020019081526020015f205f820151815f015f6101000a81548173ffffffffffffffffffffffffffffffffffffffff021916908373ffffffffffffffffffffffffffffffffffffffff160217905550602082015181600101556040820151816002015560608201518160030155905050823373ffffffffffffffffffffffffffffffffffffffff167f58daee15640543ce9c441aaf5417a2860fd1fd6b7e8a9648d1bb4d2b0c17b62a8484604051610a8b929190611e98565b60405180910390a3610a9b611050565b505050565b5f63f23a6e6160e01b905095945050505050565b60025f9054906101000a900473ffffffffffffffffffffffffffffffffffffffff1681565b610ae1611059565b5f73ffffffffffffffffffffffffffffffffffffffff168173ffffffffffffffffffffffffffffffffffffffff1603610b51575f6040517f1e4fbdf7000000000000000000000000000000000000000000000000000000008152600401610b489190611582565b60405180910390fd5b610b5a816110e0565b50565b610b65611001565b5f60035f8481526020019081526020015f205f8573ffffffffffffffffffffffffffffffffffffffff1673ffffffffffffffffffffffffffffffffffffffff1681526020019081526020015f2090508181600201541015610bfb576040517f08c379a0000000000000000000000000000000000000000000000000000000008152600401610bf290611f09565b60405180910390fd5b817f000000000000000000000000000000000000000000000000000000000000000073ffffffffffffffffffffffffffffffffffffffff1662fdd58e86866040518363ffffffff1660e01b8152600401610c56929190611ce6565b602060405180830381865afa158015610c71573d5f5f3e3d5ffd5b505050506040513d601f19601f82011682018060405250810190610c959190611d21565b1015610cd6576040517f08c379a0000000000000000000000000000000000000000000000000000000008152600401610ccd90611f71565b60405180910390fd5b5f828260030154610ce79190611fbc565b90505f612710606483610cfa9190611fbc565b610d04919061202a565b90505f8183610d13919061205a565b9050610d833360025f9054906101000a900473ffffffffffffffffffffffffffffffffffffffff16847f000000000000000000000000000000000000000000000000000000000000000073ffffffffffffffffffffffffffffffffffffffff16611220909392919063ffffffff16565b610dd03388837f000000000000000000000000000000000000000000000000000000000000000073ffffffffffffffffffffffffffffffffffffffff16611220909392919063ffffffff16565b7f000000000000000000000000000000000000000000000000000000000000000073ffffffffffffffffffffffffffffffffffffffff1663f242432a883389896040518563ffffffff1660e01b8152600401610e2f94939291906120c0565b5f604051808303815f87803b158015610e46575f5ffd5b505af1158015610e58573d5f5f3e3d5ffd5b5050505084846002015f828254610e6f919061205a565b925050819055505f846002015403610f0b5760035f8781526020019081526020015f205f8873ffffffffffffffffffffffffffffffffffffffff1673ffffffffffffffffffffffffffffffffffffffff1681526020019081526020015f205f5f82015f6101000a81549073ffffffffffffffffffffffffffffffffffffffff0219169055600182015f9055600282015f9055600382015f905550505b853373ffffffffffffffffffffffffffffffffffffffff168873ffffffffffffffffffffffffffffffffffffffff167ff02db46465eb9e76c10f2aa3eb522115e5f8dc7da63fc2e81ce4f984b775816e888860030154604051610f6f929190611e98565b60405180910390a450505050610f83611050565b505050565b5f7f4e2312e0000000000000000000000000000000000000000000000000000000007bffffffffffffffffffffffffffffffffffffffffffffffffffffffff1916827bffffffffffffffffffffffffffffffffffffffffffffffffffffffff19161480610ffa5750610ff9826112a2565b5b9050919050565b600260015403611046576040517f08c379a000000000000000000000000000000000000000000000000000000000815260040161103d90612160565b60405180910390fd5b6002600181905550565b60018081905550565b61106161130b565b73ffffffffffffffffffffffffffffffffffffffff1661107f610518565b73ffffffffffffffffffffffffffffffffffffffff16146110de576110a261130b565b6040517f118cdaa70000000000000000000000000000000000000000000000000000000081526004016110d59190611582565b60405180910390fd5b565b5f5f5f9054906101000a900473ffffffffffffffffffffffffffffffffffffffff169050815f5f6101000a81548173ffffffffffffffffffffffffffffffffffffffff021916908373ffffffffffffffffffffffffffffffffffffffff1602179055508173ffffffffffffffffffffffffffffffffffffffff168173ffffffffffffffffffffffffffffffffffffffff167f8be0079c531659141344cd1fd0a4f28419497f9722a3daafe3b4186f6b6457e060405160405180910390a35050565b61121b838473ffffffffffffffffffffffffffffffffffffffff1663a9059cbb85856040516024016111d4929190611ce6565b604051602081830303815290604052915060e01b6020820180517bffffffffffffffffffffffffffffffffffffffffffffffffffffffff8381831617835250505050611312565b505050565b61129c848573ffffffffffffffffffffffffffffffffffffffff166323b872dd8686866040516024016112559392919061217e565b604051602081830303815290604052915060e01b6020820180517bffffffffffffffffffffffffffffffffffffffffffffffffffffffff8381831617835250505050611312565b50505050565b5f7f01ffc9a7000000000000000000000000000000000000000000000000000000007bffffffffffffffffffffffffffffffffffffffffffffffffffffffff1916827bffffffffffffffffffffffffffffffffffffffffffffffffffffffff1916149050919050565b5f33905090565b5f5f60205f8451602086015f885af180611331576040513d5f823e3d81fd5b3d92505f519150505f821461134a576001811415611365565b5f8473ffffffffffffffffffffffffffffffffffffffff163b145b156113a757836040517f5274afe700000000000000000000000000000000000000000000000000000000815260040161139e9190611582565b60405180910390fd5b50505050565b5f604051905090565b5f5ffd5b5f5ffd5b5f7fffffffff0000000000000000000000000000000000000000000000000000000082169050919050565b6113f2816113be565b81146113fc575f5ffd5b50565b5f8135905061140d816113e9565b92915050565b5f60208284031215611428576114276113b6565b5b5f611435848285016113ff565b91505092915050565b5f8115159050919050565b6114528161143e565b82525050565b5f60208201905061146b5f830184611449565b92915050565b5f819050919050565b61148381611471565b811461148d575f5ffd5b50565b5f8135905061149e8161147a565b92915050565b5f602082840312156114b9576114b86113b6565b5b5f6114c684828501611490565b91505092915050565b5f73ffffffffffffffffffffffffffffffffffffffff82169050919050565b5f819050919050565b5f61151161150c611507846114cf565b6114ee565b6114cf565b9050919050565b5f611522826114f7565b9050919050565b5f61153382611518565b9050919050565b61154381611529565b82525050565b5f60208201905061155c5f83018461153a565b92915050565b5f61156c826114cf565b9050919050565b61157c81611562565b82525050565b5f6020820190506115955f830184611573565b92915050565b6115a481611562565b81146115ae575f5ffd5b50565b5f813590506115bf8161159b565b92915050565b5f602082840312156115da576115d96113b6565b5b5f6115e7848285016115b1565b91505092915050565b5f5f60408385031215611606576116056113b6565b5b5f61161385828601611490565b9250506020611624858286016115b1565b9150509250929050565b61163781611471565b82525050565b5f6080820190506116505f830187611573565b61165d602083018661162e565b61166a604083018561162e565b611677606083018461162e565b95945050505050565b5f5f60408385031215611696576116956113b6565b5b5f6116a3858286016115b1565b92505060206116b485828601611490565b9150509250929050565b5f6020820190506116d15f83018461162e565b92915050565b5f5ffd5b5f601f19601f8301169050919050565b7f4e487b71000000000000000000000000000000000000000000000000000000005f52604160045260245ffd5b611721826116db565b810181811067ffffffffffffffff821117156117405761173f6116eb565b5b80604052505050565b5f6117526113ad565b905061175e8282611718565b919050565b5f67ffffffffffffffff82111561177d5761177c6116eb565b5b602082029050602081019050919050565b5f5ffd5b5f6117a461179f84611763565b611749565b905080838252602082019050602084028301858111156117c7576117c661178e565b5b835b818110156117f057806117dc8882611490565b8452602084019350506020810190506117c9565b5050509392505050565b5f82601f83011261180e5761180d6116d7565b5b813561181e848260208601611792565b91505092915050565b5f5ffd5b5f67ffffffffffffffff821115611845576118446116eb565b5b61184e826116db565b9050602081019050919050565b828183375f83830152505050565b5f61187b6118768461182b565b611749565b90508281526020810184848401111561189757611896611827565b5b6118a284828561185b565b509392505050565b5f82601f8301126118be576118bd6116d7565b5b81356118ce848260208601611869565b91505092915050565b5f5f5f5f5f60a086880312156118f0576118ef6113b6565b5b5f6118fd888289016115b1565b955050602061190e888289016115b1565b945050604086013567ffffffffffffffff81111561192f5761192e6113ba565b5b61193b888289016117fa565b935050606086013567ffffffffffffffff81111561195c5761195b6113ba565b5b611968888289016117fa565b925050608086013567ffffffffffffffff811115611989576119886113ba565b5b611995888289016118aa565b9150509295509295909350565b6119ab816113be565b82525050565b5f6020820190506119c45f8301846119a2565b92915050565b5f6119d482611518565b9050919050565b6119e4816119ca565b82525050565b5f6020820190506119fd5f8301846119db565b92915050565b5f5f5f60608486031215611a1a57611a196113b6565b5b5f611a2786828701611490565b9350506020611a3886828701611490565b9250506040611a4986828701611490565b9150509250925092565b5f5f5f5f5f60a08688031215611a6c57611a6b6113b6565b5b5f611a79888289016115b1565b9550506020611a8a888289016115b1565b9450506040611a9b88828901611490565b9350506060611aac88828901611490565b925050608086013567ffffffffffffffff811115611acd57611acc6113ba565b5b611ad9888289016118aa565b9150509295509295909350565b5f5f5f60608486031215611afd57611afc6113b6565b5b5f611b0a868287016115b1565b9350506020611b1b86828701611490565b9250506040611b2c86828701611490565b9150509250925092565b5f82825260208201905092915050565b7f4e6f20616374697665206c697374696e670000000000000000000000000000005f82015250565b5f611b7a601183611b36565b9150611b8582611b46565b602082019050919050565b5f6020820190508181035f830152611ba781611b6e565b9050919050565b7f496e76616c6964206665652077616c6c657400000000000000000000000000005f82015250565b5f611be2601283611b36565b9150611bed82611bae565b602082019050919050565b5f6020820190508181035f830152611c0f81611bd6565b9050919050565b7f416d6f756e7420746f6f20736d616c6c000000000000000000000000000000005f82015250565b5f611c4a601083611b36565b9150611c5582611c16565b602082019050919050565b5f6020820190508181035f830152611c7781611c3e565b9050919050565b7f507269636520746f6f206c6f77000000000000000000000000000000000000005f82015250565b5f611cb2600d83611b36565b9150611cbd82611c7e565b602082019050919050565b5f6020820190508181035f830152611cdf81611ca6565b9050919050565b5f604082019050611cf95f830185611573565b611d06602083018461162e565b9392505050565b5f81519050611d1b8161147a565b92915050565b5f60208284031215611d3657611d356113b6565b5b5f611d4384828501611d0d565b91505092915050565b7f496e73756666696369656e74204e46542062616c616e636500000000000000005f82015250565b5f611d80601883611b36565b9150611d8b82611d4c565b602082019050919050565b5f6020820190508181035f830152611dad81611d74565b9050919050565b5f604082019050611dc75f830185611573565b611dd46020830184611573565b9392505050565b611de48161143e565b8114611dee575f5ffd5b50565b5f81519050611dff81611ddb565b92915050565b5f60208284031215611e1a57611e196113b6565b5b5f611e2784828501611df1565b91505092915050565b7f4d61726b6574706c616365206e6f7420617070726f76656400000000000000005f82015250565b5f611e64601883611b36565b9150611e6f82611e30565b602082019050919050565b5f6020820190508181035f830152611e9181611e58565b9050919050565b5f604082019050611eab5f83018561162e565b611eb8602083018461162e565b9392505050565b7f496e73756666696369656e7420616d6f756e74206c69737465640000000000005f82015250565b5f611ef3601a83611b36565b9150611efe82611ebf565b602082019050919050565b5f6020820190508181035f830152611f2081611ee7565b9050919050565b7f53656c6c6572206e6f206c6f6e676572206f776e73204e4654000000000000005f82015250565b5f611f5b601983611b36565b9150611f6682611f27565b602082019050919050565b5f6020820190508181035f830152611f8881611f4f565b9050919050565b7f4e487b71000000000000000000000000000000000000000000000000000000005f52601160045260245ffd5b5f611fc682611471565b9150611fd183611471565b9250828202611fdf81611471565b91508282048414831517611ff657611ff5611f8f565b5b5092915050565b7f4e487b71000000000000000000000000000000000000000000000000000000005f52601260045260245ffd5b5f61203482611471565b915061203f83611471565b92508261204f5761204e611ffd565b5b828204905092915050565b5f61206482611471565b915061206f83611471565b925082820390508181111561208757612086611f8f565b5b92915050565b5f82825260208201905092915050565b50565b5f6120ab5f8361208d565b91506120b68261209d565b5f82019050919050565b5f60a0820190506120d35f830187611573565b6120e06020830186611573565b6120ed604083018561162e565b6120fa606083018461162e565b818103608083015261210b816120a0565b905095945050505050565b7f5265656e7472616e637947756172643a207265656e7472616e742063616c6c005f82015250565b5f61214a601f83611b36565b915061215582612116565b602082019050919050565b5f6020820190508181035f8301526121778161213e565b9050919050565b5f6060820190506121915f830186611573565b61219e6020830185611573565b6121ab604083018461162e565b94935050505056fea2646970667358221220fc84ca12668172534a3464a7ea17e5f198b1039eea504fb94f46c786e156813964736f6c634300081e0033",
					"opcodes": "PUSH1 0xC0 PUSH1 0x40 MSTORE CALLVALUE DUP1 ISZERO PUSH2 0xF JUMPI PUSH0 PUSH0 REVERT JUMPDEST POP PUSH1 0x40 MLOAD PUSH2 0x27C6 CODESIZE SUB DUP1 PUSH2 0x27C6 DUP4 CODECOPY DUP2 DUP2 ADD PUSH1 0x40 MSTORE DUP2 ADD SWAP1 PUSH2 0x31 SWAP2 SWAP1 PUSH2 0x3D2 JUMP JUMPDEST CALLER PUSH0 PUSH20 0xFFFFFFFFFFFFFFFFFFFFFFFFFFFFFFFFFFFFFFFF AND DUP2 PUSH20 0xFFFFFFFFFFFFFFFFFFFFFFFFFFFFFFFFFFFFFFFF AND SUB PUSH2 0xA2 JUMPI PUSH0 PUSH1 0x40 MLOAD PUSH32 0x1E4FBDF700000000000000000000000000000000000000000000000000000000 DUP2 MSTORE PUSH1 0x4 ADD PUSH2 0x99 SWAP2 SWAP1 PUSH2 0x431 JUMP JUMPDEST PUSH1 0x40 MLOAD DUP1 SWAP2 SUB SWAP1 REVERT JUMPDEST PUSH2 0xB1 DUP2 PUSH2 0x2B3 PUSH1 0x20 SHL PUSH1 0x20 SHR JUMP JUMPDEST POP PUSH1 0x1 DUP1 DUP2 SWAP1 SSTORE POP PUSH0 PUSH20 0xFFFFFFFFFFFFFFFFFFFFFFFFFFFFFFFFFFFFFFFF AND DUP4 PUSH20 0xFFFFFFFFFFFFFFFFFFFFFFFFFFFFFFFFFFFFFFFF AND SUB PUSH2 0x127 JUMPI PUSH1 0x40 MLOAD PUSH32 0x8C379A000000000000000000000000000000000000000000000000000000000 DUP2 MSTORE PUSH1 0x4 ADD PUSH2 0x11E SWAP1 PUSH2 0x4A4 JUMP JUMPDEST PUSH1 0x40 MLOAD DUP1 SWAP2 SUB SWAP1 REVERT JUMPDEST PUSH0 PUSH20 0xFFFFFFFFFFFFFFFFFFFFFFFFFFFFFFFFFFFFFFFF AND DUP3 PUSH20 0xFFFFFFFFFFFFFFFFFFFFFFFFFFFFFFFFFFFFFFFF AND SUB PUSH2 0x195 JUMPI PUSH1 0x40 MLOAD PUSH32 0x8C379A000000000000000000000000000000000000000000000000000000000 DUP2 MSTORE PUSH1 0x4 ADD PUSH2 0x18C SWAP1 PUSH2 0x50C JUMP JUMPDEST PUSH1 0x40 MLOAD DUP1 SWAP2 SUB SWAP1 REVERT JUMPDEST PUSH0 PUSH20 0xFFFFFFFFFFFFFFFFFFFFFFFFFFFFFFFFFFFFFFFF AND DUP2 PUSH20 0xFFFFFFFFFFFFFFFFFFFFFFFFFFFFFFFFFFFFFFFF AND SUB PUSH2 0x203 JUMPI PUSH1 0x40 MLOAD PUSH32 0x8C379A000000000000000000000000000000000000000000000000000000000 DUP2 MSTORE PUSH1 0x4 ADD PUSH2 0x1FA SWAP1 PUSH2 0x574 JUMP JUMPDEST PUSH1 0x40 MLOAD DUP1 SWAP2 SUB SWAP1 REVERT JUMPDEST DUP3 PUSH20 0xFFFFFFFFFFFFFFFFFFFFFFFFFFFFFFFFFFFFFFFF AND PUSH1 0x80 DUP2 PUSH20 0xFFFFFFFFFFFFFFFFFFFFFFFFFFFFFFFFFFFFFFFF AND DUP2 MSTORE POP POP DUP2 PUSH20 0xFFFFFFFFFFFFFFFFFFFFFFFFFFFFFFFFFFFFFFFF AND PUSH1 0xA0 DUP2 PUSH20 0xFFFFFFFFFFFFFFFFFFFFFFFFFFFFFFFFFFFFFFFF AND DUP2 MSTORE POP POP DUP1 PUSH1 0x2 PUSH0 PUSH2 0x100 EXP DUP2 SLOAD DUP2 PUSH20 0xFFFFFFFFFFFFFFFFFFFFFFFFFFFFFFFFFFFFFFFF MUL NOT AND SWAP1 DUP4 PUSH20 0xFFFFFFFFFFFFFFFFFFFFFFFFFFFFFFFFFFFFFFFF AND MUL OR SWAP1 SSTORE POP POP POP POP PUSH2 0x592 JUMP JUMPDEST PUSH0 PUSH0 PUSH0 SWAP1 SLOAD SWAP1 PUSH2 0x100 EXP SWAP1 DIV PUSH20 0xFFFFFFFFFFFFFFFFFFFFFFFFFFFFFFFFFFFFFFFF AND SWAP1 POP DUP2 PUSH0 PUSH0 PUSH2 0x100 EXP DUP2 SLOAD DUP2 PUSH20 0xFFFFFFFFFFFFFFFFFFFFFFFFFFFFFFFFFFFFFFFF MUL NOT AND SWAP1 DUP4 PUSH20 0xFFFFFFFFFFFFFFFFFFFFFFFFFFFFFFFFFFFFFFFF AND MUL OR SWAP1 SSTORE POP DUP2 PUSH20 0xFFFFFFFFFFFFFFFFFFFFFFFFFFFFFFFFFFFFFFFF AND DUP2 PUSH20 0xFFFFFFFFFFFFFFFFFFFFFFFFFFFFFFFFFFFFFFFF AND PUSH32 0x8BE0079C531659141344CD1FD0A4F28419497F9722A3DAAFE3B4186F6B6457E0 PUSH1 0x40 MLOAD PUSH1 0x40 MLOAD DUP1 SWAP2 SUB SWAP1 LOG3 POP POP JUMP JUMPDEST PUSH0 PUSH0 REVERT JUMPDEST PUSH0 PUSH20 0xFFFFFFFFFFFFFFFFFFFFFFFFFFFFFFFFFFFFFFFF DUP3 AND SWAP1 POP SWAP2 SWAP1 POP JUMP JUMPDEST PUSH0 PUSH2 0x3A1 DUP3 PUSH2 0x378 JUMP JUMPDEST SWAP1 POP SWAP2 SWAP1 POP JUMP JUMPDEST PUSH2 0x3B1 DUP2 PUSH2 0x397 JUMP JUMPDEST DUP2 EQ PUSH2 0x3BB JUMPI PUSH0 PUSH0 REVERT JUMPDEST POP JUMP JUMPDEST PUSH0 DUP2 MLOAD SWAP1 POP PUSH2 0x3CC DUP2 PUSH2 0x3A8 JUMP JUMPDEST SWAP3 SWAP2 POP POP JUMP JUMPDEST PUSH0 PUSH0 PUSH0 PUSH1 0x60 DUP5 DUP7 SUB SLT ISZERO PUSH2 0x3E9 JUMPI PUSH2 0x3E8 PUSH2 0x374 JUMP JUMPDEST JUMPDEST PUSH0 PUSH2 0x3F6 DUP7 DUP3 DUP8 ADD PUSH2 0x3BE JUMP JUMPDEST SWAP4 POP POP PUSH1 0x20 PUSH2 0x407 DUP7 DUP3 DUP8 ADD PUSH2 0x3BE JUMP JUMPDEST SWAP3 POP POP PUSH1 0x40 PUSH2 0x418 DUP7 DUP3 DUP8 ADD PUSH2 0x3BE JUMP JUMPDEST SWAP2 POP POP SWAP3 POP SWAP3 POP SWAP3 JUMP JUMPDEST PUSH2 0x42B DUP2 PUSH2 0x397 JUMP JUMPDEST DUP3 MSTORE POP POP JUMP JUMPDEST PUSH0 PUSH1 0x20 DUP3 ADD SWAP1 POP PUSH2 0x444 PUSH0 DUP4 ADD DUP5 PUSH2 0x422 JUMP JUMPDEST SWAP3 SWAP2 POP POP JUMP JUMPDEST PUSH0 DUP3 DUP3 MSTORE PUSH1 0x20 DUP3 ADD SWAP1 POP SWAP3 SWAP2 POP POP JUMP JUMPDEST PUSH32 0x496E76616C6964204341464920746F6B656E0000000000000000000000000000 PUSH0 DUP3 ADD MSTORE POP JUMP JUMPDEST PUSH0 PUSH2 0x48E PUSH1 0x12 DUP4 PUSH2 0x44A JUMP JUMPDEST SWAP2 POP PUSH2 0x499 DUP3 PUSH2 0x45A JUMP JUMPDEST PUSH1 0x20 DUP3 ADD SWAP1 POP SWAP2 SWAP1 POP JUMP JUMPDEST PUSH0 PUSH1 0x20 DUP3 ADD SWAP1 POP DUP2 DUP2 SUB PUSH0 DUP4 ADD MSTORE PUSH2 0x4BB DUP2 PUSH2 0x482 JUMP JUMPDEST SWAP1 POP SWAP2 SWAP1 POP JUMP JUMPDEST PUSH32 0x496E76616C6964204E465420636F6E7472616374000000000000000000000000 PUSH0 DUP3 ADD MSTORE POP JUMP JUMPDEST PUSH0 PUSH2 0x4F6 PUSH1 0x14 DUP4 PUSH2 0x44A JUMP JUMPDEST SWAP2 POP PUSH2 0x501 DUP3 PUSH2 0x4C2 JUMP JUMPDEST PUSH1 0x20 DUP3 ADD SWAP1 POP SWAP2 SWAP1 POP JUMP JUMPDEST PUSH0 PUSH1 0x20 DUP3 ADD SWAP1 POP DUP2 DUP2 SUB PUSH0 DUP4 ADD MSTORE PUSH2 0x523 DUP2 PUSH2 0x4EA JUMP JUMPDEST SWAP1 POP SWAP2 SWAP1 POP JUMP JUMPDEST PUSH32 0x496E76616C6964206665652077616C6C65740000000000000000000000000000 PUSH0 DUP3 ADD MSTORE POP JUMP JUMPDEST PUSH0 PUSH2 0x55E PUSH1 0x12 DUP4 PUSH2 0x44A JUMP JUMPDEST SWAP2 POP PUSH2 0x569 DUP3 PUSH2 0x52A JUMP JUMPDEST PUSH1 0x20 DUP3 ADD SWAP1 POP SWAP2 SWAP1 POP JUMP JUMPDEST PUSH0 PUSH1 0x20 DUP3 ADD SWAP1 POP DUP2 DUP2 SUB PUSH0 DUP4 ADD MSTORE PUSH2 0x58B DUP2 PUSH2 0x552 JUMP JUMPDEST SWAP1 POP SWAP2 SWAP1 POP JUMP JUMPDEST PUSH1 0x80 MLOAD PUSH1 0xA0 MLOAD PUSH2 0x21E9 PUSH2 0x5DD PUSH0 CODECOPY PUSH0 DUP2 DUP2 PUSH2 0x6EF ADD MSTORE DUP2 DUP2 PUSH2 0x7A9 ADD MSTORE DUP2 DUP2 PUSH2 0x883 ADD MSTORE DUP2 DUP2 PUSH2 0xBFE ADD MSTORE PUSH2 0xDD2 ADD MSTORE PUSH0 DUP2 DUP2 PUSH2 0x4E3 ADD MSTORE DUP2 DUP2 PUSH2 0xD3E ADD MSTORE PUSH2 0xD8B ADD MSTORE PUSH2 0x21E9 PUSH0 RETURN INVALID PUSH1 0x80 PUSH1 0x40 MSTORE CALLVALUE DUP1 ISZERO PUSH2 0xF JUMPI PUSH0 PUSH0 REVERT JUMPDEST POP PUSH1 0x4 CALLDATASIZE LT PUSH2 0x114 JUMPI PUSH0 CALLDATALOAD PUSH1 0xE0 SHR DUP1 PUSH4 0xBC197C81 GT PUSH2 0xA0 JUMPI DUP1 PUSH4 0xEC16B94A GT PUSH2 0x6F JUMPI DUP1 PUSH4 0xEC16B94A EQ PUSH2 0x2BD JUMPI DUP1 PUSH4 0xF23A6E61 EQ PUSH2 0x2D9 JUMPI DUP1 PUSH4 0xF25F4B56 EQ PUSH2 0x309 JUMPI DUP1 PUSH4 0xF2FDE38B EQ PUSH2 0x327 JUMPI DUP1 PUSH4 0xF6B45C46 EQ PUSH2 0x343 JUMPI PUSH2 0x114 JUMP JUMPDEST DUP1 PUSH4 0xBC197C81 EQ PUSH2 0x233 JUMPI DUP1 PUSH4 0xDDBCB5FA EQ PUSH2 0x263 JUMPI DUP1 PUSH4 0xE215F1CA EQ PUSH2 0x281 JUMPI DUP1 PUSH4 0xEAF98D23 EQ PUSH2 0x29F JUMPI PUSH2 0x114 JUMP JUMPDEST DUP1 PUSH4 0x8DA5CB5B GT PUSH2 0xE7 JUMPI DUP1 PUSH4 0x8DA5CB5B EQ PUSH2 0x18C JUMPI DUP1 PUSH4 0x90D49B9D EQ PUSH2 0x1AA JUMPI DUP1 PUSH4 0x927FBFC8 EQ PUSH2 0x1C6 JUMPI DUP1 PUSH4 0x95CCEA67 EQ PUSH2 0x1F9 JUMPI DUP1 PUSH4 0xAD9F20A6 EQ PUSH2 0x215 JUMPI PUSH2 0x114 JUMP JUMPDEST DUP1 PUSH4 0x1FFC9A7 EQ PUSH2 0x118 JUMPI DUP1 PUSH4 0x305A67A8 EQ PUSH2 0x148 JUMPI DUP1 PUSH4 0x58A0BDE3 EQ PUSH2 0x164 JUMPI DUP1 PUSH4 0x715018A6 EQ PUSH2 0x182 JUMPI JUMPDEST PUSH0 PUSH0 REVERT JUMPDEST PUSH2 0x132 PUSH1 0x4 DUP1 CALLDATASIZE SUB DUP2 ADD SWAP1 PUSH2 0x12D SWAP2 SWAP1 PUSH2 0x1413 JUMP JUMPDEST PUSH2 0x35F JUMP JUMPDEST PUSH1 0x40 MLOAD PUSH2 0x13F SWAP2 SWAP1 PUSH2 0x1458 JUMP JUMPDEST PUSH1 0x40 MLOAD DUP1 SWAP2 SUB SWAP1 RETURN JUMPDEST PUSH2 0x162 PUSH1 0x4 DUP1 CALLDATASIZE SUB DUP2 ADD SWAP1 PUSH2 0x15D SWAP2 SWAP1 PUSH2 0x14A4 JUMP JUMPDEST PUSH2 0x370 JUMP JUMPDEST STOP JUMPDEST PUSH2 0x16C PUSH2 0x4E1 JUMP JUMPDEST PUSH1 0x40 MLOAD PUSH2 0x179 SWAP2 SWAP1 PUSH2 0x1549 JUMP JUMPDEST PUSH1 0x40 MLOAD DUP1 SWAP2 SUB SWAP1 RETURN JUMPDEST PUSH2 0x18A PUSH2 0x505 JUMP JUMPDEST STOP JUMPDEST PUSH2 0x194 PUSH2 0x518 JUMP JUMPDEST PUSH1 0x40 MLOAD PUSH2 0x1A1 SWAP2 SWAP1 PUSH2 0x1582 JUMP JUMPDEST PUSH1 0x40 MLOAD DUP1 SWAP2 SUB SWAP1 RETURN JUMPDEST PUSH2 0x1C4 PUSH1 0x4 DUP1 CALLDATASIZE SUB DUP2 ADD SWAP1 PUSH2 0x1BF SWAP2 SWAP1 PUSH2 0x15C5 JUMP JUMPDEST PUSH2 0x53F JUMP JUMPDEST STOP JUMPDEST PUSH2 0x1E0 PUSH1 0x4 DUP1 CALLDATASIZE SUB DUP2 ADD SWAP1 PUSH2 0x1DB SWAP2 SWAP1 PUSH2 0x15F0 JUMP JUMPDEST PUSH2 0x63B JUMP JUMPDEST PUSH1 0x40 MLOAD PUSH2 0x1F0 SWAP5 SWAP4 SWAP3 SWAP2 SWAP1 PUSH2 0x163D JUMP JUMPDEST PUSH1 0x40 MLOAD DUP1 SWAP2 SUB SWAP1 RETURN JUMPDEST PUSH2 0x213 PUSH1 0x4 DUP1 CALLDATASIZE SUB DUP2 ADD SWAP1 PUSH2 0x20E SWAP2 SWAP1 PUSH2 0x1680 JUMP JUMPDEST PUSH2 0x691 JUMP JUMPDEST STOP JUMPDEST PUSH2 0x21D PUSH2 0x6CF JUMP JUMPDEST PUSH1 0x40 MLOAD PUSH2 0x22A SWAP2 SWAP1 PUSH2 0x16BE JUMP JUMPDEST PUSH1 0x40 MLOAD DUP1 SWAP2 SUB SWAP1 RETURN JUMPDEST PUSH2 0x24D PUSH1 0x4 DUP1 CALLDATASIZE SUB DUP2 ADD SWAP1 PUSH2 0x248 SWAP2 SWAP1 PUSH2 0x18D7 JUMP JUMPDEST PUSH2 0x6D4 JUMP JUMPDEST PUSH1 0x40 MLOAD PUSH2 0x25A SWAP2 SWAP1 PUSH2 0x19B1 JUMP JUMPDEST PUSH1 0x40 MLOAD DUP1 SWAP2 SUB SWAP1 RETURN JUMPDEST PUSH2 0x26B PUSH2 0x6E8 JUMP JUMPDEST PUSH1 0x40 MLOAD PUSH2 0x278 SWAP2 SWAP1 PUSH2 0x16BE JUMP JUMPDEST PUSH1 0x40 MLOAD DUP1 SWAP2 SUB SWAP1 RETURN JUMPDEST PUSH2 0x289 PUSH2 0x6ED JUMP JUMPDEST PUSH1 0x40 MLOAD PUSH2 0x296 SWAP2 SWAP1 PUSH2 0x19EA JUMP JUMPDEST PUSH1 0x40 MLOAD DUP1 SWAP2 SUB SWAP1 RETURN JUMPDEST PUSH2 0x2A7 PUSH2 0x711 JUMP JUMPDEST PUSH1 0x40 MLOAD PUSH2 0x2B4 SWAP2 SWAP1 PUSH2 0x16BE JUMP JUMPDEST PUSH1 0x40 MLOAD DUP1 SWAP2 SUB SWAP1 RETURN JUMPDEST PUSH2 0x2D7 PUSH1 0x4 DUP1 CALLDATASIZE SUB DUP2 ADD SWAP1 PUSH2 0x2D2 SWAP2 SWAP1 PUSH2 0x1A03 JUMP JUMPDEST PUSH2 0x716 JUMP JUMPDEST STOP JUMPDEST PUSH2 0x2F3 PUSH1 0x4 DUP1 CALLDATASIZE SUB DUP2 ADD SWAP1 PUSH2 0x2EE SWAP2 SWAP1 PUSH2 0x1A53 JUMP JUMPDEST PUSH2 0xAA0 JUMP JUMPDEST PUSH1 0x40 MLOAD PUSH2 0x300 SWAP2 SWAP1 PUSH2 0x19B1 JUMP JUMPDEST PUSH1 0x40 MLOAD DUP1 SWAP2 SUB SWAP1 RETURN JUMPDEST PUSH2 0x311 PUSH2 0xAB4 JUMP JUMPDEST PUSH1 0x40 MLOAD PUSH2 0x31E SWAP2 SWAP1 PUSH2 0x1582 JUMP JUMPDEST PUSH1 0x40 MLOAD DUP1 SWAP2 SUB SWAP1 RETURN JUMPDEST PUSH2 0x341 PUSH1 0x4 DUP1 CALLDATASIZE SUB DUP2 ADD SWAP1 PUSH2 0x33C SWAP2 SWAP1 PUSH2 0x15C5 JUMP JUMPDEST PUSH2 0xAD9 JUMP JUMPDEST STOP JUMPDEST PUSH2 0x35D PUSH1 0x4 DUP1 CALLDATASIZE SUB DUP2 ADD SWAP1 PUSH2 0x358 SWAP2 SWAP1 PUSH2 0x1AE6 JUMP JUMPDEST PUSH2 0xB5D JUMP JUMPDEST STOP JUMPDEST PUSH0 PUSH2 0x369 DUP3 PUSH2 0xF88 JUMP JUMPDEST SWAP1 POP SWAP2 SWAP1 POP JUMP JUMPDEST PUSH2 0x378 PUSH2 0x1001 JUMP JUMPDEST PUSH0 PUSH1 0x3 PUSH0 DUP4 DUP2 MSTORE PUSH1 0x20 ADD SWAP1 DUP2 MSTORE PUSH1 0x20 ADD PUSH0 KECCAK256 PUSH0 CALLER PUSH20 0xFFFFFFFFFFFFFFFFFFFFFFFFFFFFFFFFFFFFFFFF AND PUSH20 0xFFFFFFFFFFFFFFFFFFFFFFFFFFFFFFFFFFFFFFFF AND DUP2 MSTORE PUSH1 0x20 ADD SWAP1 DUP2 MSTORE PUSH1 0x20 ADD PUSH0 KECCAK256 PUSH1 0x2 ADD SLOAD GT PUSH2 0x409 JUMPI PUSH1 0x40 MLOAD PUSH32 0x8C379A000000000000000000000000000000000000000000000000000000000 DUP2 MSTORE PUSH1 0x4 ADD PUSH2 0x400 SWAP1 PUSH2 0x1B90 JUMP JUMPDEST PUSH1 0x40 MLOAD DUP1 SWAP2 SUB SWAP1 REVERT JUMPDEST PUSH1 0x3 PUSH0 DUP3 DUP2 MSTORE PUSH1 0x20 ADD SWAP1 DUP2 MSTORE PUSH1 0x20 ADD PUSH0 KECCAK256 PUSH0 CALLER PUSH20 0xFFFFFFFFFFFFFFFFFFFFFFFFFFFFFFFFFFFFFFFF AND PUSH20 0xFFFFFFFFFFFFFFFFFFFFFFFFFFFFFFFFFFFFFFFF AND DUP2 MSTORE PUSH1 0x20 ADD SWAP1 DUP2 MSTORE PUSH1 0x20 ADD PUSH0 KECCAK256 PUSH0 PUSH0 DUP3 ADD PUSH0 PUSH2 0x100 EXP DUP2 SLOAD SWAP1 PUSH20 0xFFFFFFFFFFFFFFFFFFFFFFFFFFFFFFFFFFFFFFFF MUL NOT AND SWAP1 SSTORE PUSH1 0x1 DUP3 ADD PUSH0 SWAP1 SSTORE PUSH1 0x2 DUP3 ADD PUSH0 SWAP1 SSTORE PUSH1 0x3 DUP3 ADD PUSH0 SWAP1 SSTORE POP POP DUP1 CALLER PUSH20 0xFFFFFFFFFFFFFFFFFFFFFFFFFFFFFFFFFFFFFFFF AND PUSH32 0x93EC4766FCD2D9DFDCEAB8F2E13BA0D9D826645CF03167FDB92B3B7359B5248C PUSH1 0x40 MLOAD PUSH1 0x40 MLOAD DUP1 SWAP2 SUB SWAP1 LOG3 PUSH2 0x4DE PUSH2 0x1050 JUMP JUMPDEST POP JUMP JUMPDEST PUSH32 0x0 DUP2 JUMP JUMPDEST PUSH2 0x50D PUSH2 0x1059 JUMP JUMPDEST PUSH2 0x516 PUSH0 PUSH2 0x10E0 JUMP JUMPDEST JUMP JUMPDEST PUSH0 PUSH0 PUSH0 SWAP1 SLOAD SWAP1 PUSH2 0x100 EXP SWAP1 DIV PUSH20 0xFFFFFFFFFFFFFFFFFFFFFFFFFFFFFFFFFFFFFFFF AND SWAP1 POP SWAP1 JUMP JUMPDEST PUSH2 0x547 PUSH2 0x1059 JUMP JUMPDEST PUSH0 PUSH20 0xFFFFFFFFFFFFFFFFFFFFFFFFFFFFFFFFFFFFFFFF AND DUP2 PUSH20 0xFFFFFFFFFFFFFFFFFFFFFFFFFFFFFFFFFFFFFFFF AND SUB PUSH2 0x5B5 JUMPI PUSH1 0x40 MLOAD PUSH32 0x8C379A000000000000000000000000000000000000000000000000000000000 DUP2 MSTORE PUSH1 0x4 ADD PUSH2 0x5AC SWAP1 PUSH2 0x1BF8 JUMP JUMPDEST PUSH1 0x40 MLOAD DUP1 SWAP2 SUB SWAP1 REVERT JUMPDEST DUP1 PUSH1 0x2 PUSH0 PUSH2 0x100 EXP DUP2 SLOAD DUP2 PUSH20 0xFFFFFFFFFFFFFFFFFFFFFFFFFFFFFFFFFFFFFFFF MUL NOT AND SWAP1 DUP4 PUSH20 0xFFFFFFFFFFFFFFFFFFFFFFFFFFFFFFFFFFFFFFFF AND MUL OR SWAP1 SSTORE POP DUP1 PUSH20 0xFFFFFFFFFFFFFFFFFFFFFFFFFFFFFFFFFFFFFFFF AND PUSH32 0x29ACEE77DAFCFA0143D74A7EA236018F3A6E1FA71E27FC59BBFBC6B8CA8EDCCD PUSH1 0x40 MLOAD PUSH1 0x40 MLOAD DUP1 SWAP2 SUB SWAP1 LOG2 POP JUMP JUMPDEST PUSH1 0x3 PUSH1 0x20 MSTORE DUP2 PUSH0 MSTORE PUSH1 0x40 PUSH0 KECCAK256 PUSH1 0x20 MSTORE DUP1 PUSH0 MSTORE PUSH1 0x40 PUSH0 KECCAK256 PUSH0 SWAP2 POP SWAP2 POP POP DUP1 PUSH0 ADD PUSH0 SWAP1 SLOAD SWAP1 PUSH2 0x100 EXP SWAP1 DIV PUSH20 0xFFFFFFFFFFFFFFFFFFFFFFFFFFFFFFFFFFFFFFFF AND SWAP1 DUP1 PUSH1 0x1 ADD SLOAD SWAP1 DUP1 PUSH1 0x2 ADD SLOAD SWAP1 DUP1 PUSH1 0x3 ADD SLOAD SWAP1 POP DUP5 JUMP JUMPDEST PUSH2 0x699 PUSH2 0x1059 JUMP JUMPDEST PUSH2 0x6CB PUSH2 0x6A4 PUSH2 0x518 JUMP JUMPDEST DUP3 DUP5 PUSH20 0xFFFFFFFFFFFFFFFFFFFFFFFFFFFFFFFFFFFFFFFF AND PUSH2 0x11A1 SWAP1 SWAP3 SWAP2 SWAP1 PUSH4 0xFFFFFFFF AND JUMP JUMPDEST POP POP JUMP JUMPDEST PUSH1 0x1 DUP2 JUMP JUMPDEST PUSH0 PUSH4 0xBC197C81 PUSH1 0xE0 SHL SWAP1 POP SWAP6 SWAP5 POP POP POP POP POP JUMP JUMPDEST PUSH1 0x1 DUP2 JUMP JUMPDEST PUSH32 0x0 DUP2 JUMP JUMPDEST PUSH1 0x64 DUP2 JUMP JUMPDEST PUSH2 0x71E PUSH2 0x1001 JUMP JUMPDEST PUSH1 0x1 DUP3 LT ISZERO PUSH2 0x762 JUMPI PUSH1 0x40 MLOAD PUSH32 0x8C379A000000000000000000000000000000000000000000000000000000000 DUP2 MSTORE PUSH1 0x4 ADD PUSH2 0x759 SWAP1 PUSH2 0x1C60 JUMP JUMPDEST PUSH1 0x40 MLOAD DUP1 SWAP2 SUB SWAP1 REVERT JUMPDEST PUSH1 0x1 DUP2 LT ISZERO PUSH2 0x7A6 JUMPI PUSH1 0x40 MLOAD PUSH32 0x8C379A000000000000000000000000000000000000000000000000000000000 DUP2 MSTORE PUSH1 0x4 ADD PUSH2 0x79D SWAP1 PUSH2 0x1CC8 JUMP JUMPDEST PUSH1 0x40 MLOAD DUP1 SWAP2 SUB SWAP1 REVERT JUMPDEST DUP2 PUSH32 0x0 PUSH20 0xFFFFFFFFFFFFFFFFFFFFFFFFFFFFFFFFFFFFFFFF AND PUSH3 0xFDD58E CALLER DUP7 PUSH1 0x40 MLOAD DUP4 PUSH4 0xFFFFFFFF AND PUSH1 0xE0 SHL DUP2 MSTORE PUSH1 0x4 ADD PUSH2 0x801 SWAP3 SWAP2 SWAP1 PUSH2 0x1CE6 JUMP JUMPDEST PUSH1 0x20 PUSH1 0x40 MLOAD DUP1 DUP4 SUB DUP2 DUP7 GAS STATICCALL ISZERO DUP1 ISZERO PUSH2 0x81C JUMPI RETURNDATASIZE PUSH0 PUSH0 RETURNDATACOPY RETURNDATASIZE PUSH0 REVERT JUMPDEST POP POP POP POP PUSH1 0x40 MLOAD RETURNDATASIZE PUSH1 0x1F NOT PUSH1 0x1F DUP3 ADD AND DUP3 ADD DUP1 PUSH1 0x40 MSTORE POP DUP2 ADD SWAP1 PUSH2 0x840 SWAP2 SWAP1 PUSH2 0x1D21 JUMP JUMPDEST LT ISZERO PUSH2 0x881 JUMPI PUSH1 0x40 MLOAD PUSH32 0x8C379A000000000000000000000000000000000000000000000000000000000 DUP2 MSTORE PUSH1 0x4 ADD PUSH2 0x878 SWAP1 PUSH2 0x1D96 JUMP JUMPDEST PUSH1 0x40 MLOAD DUP1 SWAP2 SUB SWAP1 REVERT JUMPDEST PUSH32 0x0 PUSH20 0xFFFFFFFFFFFFFFFFFFFFFFFFFFFFFFFFFFFFFFFF AND PUSH4 0xE985E9C5 CALLER ADDRESS PUSH1 0x40 MLOAD DUP4 PUSH4 0xFFFFFFFF AND PUSH1 0xE0 SHL DUP2 MSTORE PUSH1 0x4 ADD PUSH2 0x8DC SWAP3 SWAP2 SWAP1 PUSH2 0x1DB4 JUMP JUMPDEST PUSH1 0x20 PUSH1 0x40 MLOAD DUP1 DUP4 SUB DUP2 DUP7 GAS STATICCALL ISZERO DUP1 ISZERO PUSH2 0x8F7 JUMPI RETURNDATASIZE PUSH0 PUSH0 RETURNDATACOPY RETURNDATASIZE PUSH0 REVERT JUMPDEST POP POP POP POP PUSH1 0x40 MLOAD RETURNDATASIZE PUSH1 0x1F NOT PUSH1 0x1F DUP3 ADD AND DUP3 ADD DUP1 PUSH1 0x40 MSTORE POP DUP2 ADD SWAP1 PUSH2 0x91B SWAP2 SWAP1 PUSH2 0x1E05 JUMP JUMPDEST PUSH2 0x95A JUMPI PUSH1 0x40 MLOAD PUSH32 0x8C379A000000000000000000000000000000000000000000000000000000000 DUP2 MSTORE PUSH1 0x4 ADD PUSH2 0x951 SWAP1 PUSH2 0x1E7A JUMP JUMPDEST PUSH1 0x40 MLOAD DUP1 SWAP2 SUB SWAP1 REVERT JUMPDEST PUSH1 0x40 MLOAD DUP1 PUSH1 0x80 ADD PUSH1 0x40 MSTORE DUP1 CALLER PUSH20 0xFFFFFFFFFFFFFFFFFFFFFFFFFFFFFFFFFFFFFFFF AND DUP2 MSTORE PUSH1 0x20 ADD DUP5 DUP2 MSTORE PUSH1 0x20 ADD DUP4 DUP2 MSTORE PUSH1 0x20 ADD DUP3 DUP2 MSTORE POP PUSH1 0x3 PUSH0 DUP6 DUP2 MSTORE PUSH1 0x20 ADD SWAP1 DUP2 MSTORE PUSH1 0x20 ADD PUSH0 KECCAK256 PUSH0 CALLER PUSH20 0xFFFFFFFFFFFFFFFFFFFFFFFFFFFFFFFFFFFFFFFF AND PUSH20 0xFFFFFFFFFFFFFFFFFFFFFFFFFFFFFFFFFFFFFFFF AND DUP2 MSTORE PUSH1 0x20 ADD SWAP1 DUP2 MSTORE PUSH1 0x20 ADD PUSH0 KECCAK256 PUSH0 DUP3 ADD MLOAD DUP2 PUSH0 ADD PUSH0 PUSH2 0x100 EXP DUP2 SLOAD DUP2 PUSH20 0xFFFFFFFFFFFFFFFFFFFFFFFFFFFFFFFFFFFFFFFF MUL NOT AND SWAP1 DUP4 PUSH20 0xFFFFFFFFFFFFFFFFFFFFFFFFFFFFFFFFFFFFFFFF AND MUL OR SWAP1 SSTORE POP PUSH1 0x20 DUP3 ADD MLOAD DUP2 PUSH1 0x1 ADD SSTORE PUSH1 0x40 DUP3 ADD MLOAD DUP2 PUSH1 0x2 ADD SSTORE PUSH1 0x60 DUP3 ADD MLOAD DUP2 PUSH1 0x3 ADD SSTORE SWAP1 POP POP DUP3 CALLER PUSH20 0xFFFFFFFFFFFFFFFFFFFFFFFFFFFFFFFFFFFFFFFF AND PUSH32 0x58DAEE15640543CE9C441AAF5417A2860FD1FD6B7E8A9648D1BB4D2B0C17B62A DUP5 DUP5 PUSH1 0x40 MLOAD PUSH2 0xA8B SWAP3 SWAP2 SWAP1 PUSH2 0x1E98 JUMP JUMPDEST PUSH1 0x40 MLOAD DUP1 SWAP2 SUB SWAP1 LOG3 PUSH2 0xA9B PUSH2 0x1050 JUMP JUMPDEST POP POP POP JUMP JUMPDEST PUSH0 PUSH4 0xF23A6E61 PUSH1 0xE0 SHL SWAP1 POP SWAP6 SWAP5 POP POP POP POP POP JUMP JUMPDEST PUSH1 0x2 PUSH0 SWAP1 SLOAD SWAP1 PUSH2 0x100 EXP SWAP1 DIV PUSH20 0xFFFFFFFFFFFFFFFFFFFFFFFFFFFFFFFFFFFFFFFF AND DUP2 JUMP JUMPDEST PUSH2 0xAE1 PUSH2 0x1059 JUMP JUMPDEST PUSH0 PUSH20 0xFFFFFFFFFFFFFFFFFFFFFFFFFFFFFFFFFFFFFFFF AND DUP2 PUSH20 0xFFFFFFFFFFFFFFFFFFFFFFFFFFFFFFFFFFFFFFFF AND SUB PUSH2 0xB51 JUMPI PUSH0 PUSH1 0x40 MLOAD PUSH32 0x1E4FBDF700000000000000000000000000000000000000000000000000000000 DUP2 MSTORE PUSH1 0x4 ADD PUSH2 0xB48 SWAP2 SWAP1 PUSH2 0x1582 JUMP JUMPDEST PUSH1 0x40 MLOAD DUP1 SWAP2 SUB SWAP1 REVERT JUMPDEST PUSH2 0xB5A DUP2 PUSH2 0x10E0 JUMP JUMPDEST POP JUMP JUMPDEST PUSH2 0xB65 PUSH2 0x1001 JUMP JUMPDEST PUSH0 PUSH1 0x3 PUSH0 DUP5 DUP2 MSTORE PUSH1 0x20 ADD SWAP1 DUP2 MSTORE PUSH1 0x20 ADD PUSH0 KECCAK256 PUSH0 DUP6 PUSH20 0xFFFFFFFFFFFFFFFFFFFFFFFFFFFFFFFFFFFFFFFF AND PUSH20 0xFFFFFFFFFFFFFFFFFFFFFFFFFFFFFFFFFFFFFFFF AND DUP2 MSTORE PUSH1 0x20 ADD SWAP1 DUP2 MSTORE PUSH1 0x20 ADD PUSH0 KECCAK256 SWAP1 POP DUP2 DUP2 PUSH1 0x2 ADD SLOAD LT ISZERO PUSH2 0xBFB JUMPI PUSH1 0x40 MLOAD PUSH32 0x8C379A000000000000000000000000000000000000000000000000000000000 DUP2 MSTORE PUSH1 0x4 ADD PUSH2 0xBF2 SWAP1 PUSH2 0x1F09 JUMP JUMPDEST PUSH1 0x40 MLOAD DUP1 SWAP2 SUB SWAP1 REVERT JUMPDEST DUP2 PUSH32 0x0 PUSH20 0xFFFFFFFFFFFFFFFFFFFFFFFFFFFFFFFFFFFFFFFF AND PUSH3 0xFDD58E DUP7 DUP7 PUSH1 0x40 MLOAD DUP4 PUSH4 0xFFFFFFFF AND PUSH1 0xE0 SHL DUP2 MSTORE PUSH1 0x4 ADD PUSH2 0xC56 SWAP3 SWAP2 SWAP1 PUSH2 0x1CE6 JUMP JUMPDEST PUSH1 0x20 PUSH1 0x40 MLOAD DUP1 DUP4 SUB DUP2 DUP7 GAS STATICCALL ISZERO DUP1 ISZERO PUSH2 0xC71 JUMPI RETURNDATASIZE PUSH0 PUSH0 RETURNDATACOPY RETURNDATASIZE PUSH0 REVERT JUMPDEST POP POP POP POP PUSH1 0x40 MLOAD RETURNDATASIZE PUSH1 0x1F NOT PUSH1 0x1F DUP3 ADD AND DUP3 ADD DUP1 PUSH1 0x40 MSTORE POP DUP2 ADD SWAP1 PUSH2 0xC95 SWAP2 SWAP1 PUSH2 0x1D21 JUMP JUMPDEST LT ISZERO PUSH2 0xCD6 JUMPI PUSH1 0x40 MLOAD PUSH32 0x8C379A000000000000000000000000000000000000000000000000000000000 DUP2 MSTORE PUSH1 0x4 ADD PUSH2 0xCCD SWAP1 PUSH2 0x1F71 JUMP JUMPDEST PUSH1 0x40 MLOAD DUP1 SWAP2 SUB SWAP1 REVERT JUMPDEST PUSH0 DUP3 DUP3 PUSH1 0x3 ADD SLOAD PUSH2 0xCE7 SWAP2 SWAP1 PUSH2 0x1FBC JUMP JUMPDEST SWAP1 POP PUSH0 PUSH2 0x2710 PUSH1 0x64 DUP4 PUSH2 0xCFA SWAP2 SWAP1 PUSH2 0x1FBC JUMP JUMPDEST PUSH2 0xD04 SWAP2 SWAP1 PUSH2 0x202A JUMP JUMPDEST SWAP1 POP PUSH0 DUP2 DUP4 PUSH2 0xD13 SWAP2 SWAP1 PUSH2 0x205A JUMP JUMPDEST SWAP1 POP PUSH2 0xD83 CALLER PUSH1 0x2 PUSH0 SWAP1 SLOAD SWAP1 PUSH2 0x100 EXP SWAP1 DIV PUSH20 0xFFFFFFFFFFFFFFFFFFFFFFFFFFFFFFFFFFFFFFFF AND DUP5 PUSH32 0x0 PUSH20 0xFFFFFFFFFFFFFFFFFFFFFFFFFFFFFFFFFFFFFFFF AND PUSH2 0x1220 SWAP1 SWAP4 SWAP3 SWAP2 SWAP1 PUSH4 0xFFFFFFFF AND JUMP JUMPDEST PUSH2 0xDD0 CALLER DUP9 DUP4 PUSH32 0x0 PUSH20 0xFFFFFFFFFFFFFFFFFFFFFFFFFFFFFFFFFFFFFFFF AND PUSH2 0x1220 SWAP1 SWAP4 SWAP3 SWAP2 SWAP1 PUSH4 0xFFFFFFFF AND JUMP JUMPDEST PUSH32 0x0 PUSH20 0xFFFFFFFFFFFFFFFFFFFFFFFFFFFFFFFFFFFFFFFF AND PUSH4 0xF242432A DUP9 CALLER DUP10 DUP10 PUSH1 0x40 MLOAD DUP6 PUSH4 0xFFFFFFFF AND PUSH1 0xE0 SHL DUP2 MSTORE PUSH1 0x4 ADD PUSH2 0xE2F SWAP5 SWAP4 SWAP3 SWAP2 SWAP1 PUSH2 0x20C0 JUMP JUMPDEST PUSH0 PUSH1 0x40 MLOAD DUP1 DUP4 SUB DUP2 PUSH0 DUP8 DUP1 EXTCODESIZE ISZERO DUP1 ISZERO PUSH2 0xE46 JUMPI PUSH0 PUSH0 REVERT JUMPDEST POP GAS CALL ISZERO DUP1 ISZERO PUSH2 0xE58 JUMPI RETURNDATASIZE PUSH0 PUSH0 RETURNDATACOPY RETURNDATASIZE PUSH0 REVERT JUMPDEST POP POP POP POP DUP5 DUP5 PUSH1 0x2 ADD PUSH0 DUP3 DUP3 SLOAD PUSH2 0xE6F SWAP2 SWAP1 PUSH2 0x205A JUMP JUMPDEST SWAP3 POP POP DUP2 SWAP1 SSTORE POP PUSH0 DUP5 PUSH1 0x2 ADD SLOAD SUB PUSH2 0xF0B JUMPI PUSH1 0x3 PUSH0 DUP8 DUP2 MSTORE PUSH1 0x20 ADD SWAP1 DUP2 MSTORE PUSH1 0x20 ADD PUSH0 KECCAK256 PUSH0 DUP9 PUSH20 0xFFFFFFFFFFFFFFFFFFFFFFFFFFFFFFFFFFFFFFFF AND PUSH20 0xFFFFFFFFFFFFFFFFFFFFFFFFFFFFFFFFFFFFFFFF AND DUP2 MSTORE PUSH1 0x20 ADD SWAP1 DUP2 MSTORE PUSH1 0x20 ADD PUSH0 KECCAK256 PUSH0 PUSH0 DUP3 ADD PUSH0 PUSH2 0x100 EXP DUP2 SLOAD SWAP1 PUSH20 0xFFFFFFFFFFFFFFFFFFFFFFFFFFFFFFFFFFFFFFFF MUL NOT AND SWAP1 SSTORE PUSH1 0x1 DUP3 ADD PUSH0 SWAP1 SSTORE PUSH1 0x2 DUP3 ADD PUSH0 SWAP1 SSTORE PUSH1 0x3 DUP3 ADD PUSH0 SWAP1 SSTORE POP POP JUMPDEST DUP6 CALLER PUSH20 0xFFFFFFFFFFFFFFFFFFFFFFFFFFFFFFFFFFFFFFFF AND DUP9 PUSH20 0xFFFFFFFFFFFFFFFFFFFFFFFFFFFFFFFFFFFFFFFF AND PUSH32 0xF02DB46465EB9E76C10F2AA3EB522115E5F8DC7DA63FC2E81CE4F984B775816E DUP9 DUP9 PUSH1 0x3 ADD SLOAD PUSH1 0x40 MLOAD PUSH2 0xF6F SWAP3 SWAP2 SWAP1 PUSH2 0x1E98 JUMP JUMPDEST PUSH1 0x40 MLOAD DUP1 SWAP2 SUB SWAP1 LOG4 POP POP POP POP PUSH2 0xF83 PUSH2 0x1050 JUMP JUMPDEST POP POP POP JUMP JUMPDEST PUSH0 PUSH32 0x4E2312E000000000000000000000000000000000000000000000000000000000 PUSH28 0xFFFFFFFFFFFFFFFFFFFFFFFFFFFFFFFFFFFFFFFFFFFFFFFFFFFFFFFF NOT AND DUP3 PUSH28 0xFFFFFFFFFFFFFFFFFFFFFFFFFFFFFFFFFFFFFFFFFFFFFFFFFFFFFFFF NOT AND EQ DUP1 PUSH2 0xFFA JUMPI POP PUSH2 0xFF9 DUP3 PUSH2 0x12A2 JUMP JUMPDEST JUMPDEST SWAP1 POP SWAP2 SWAP1 POP JUMP JUMPDEST PUSH1 0x2 PUSH1 0x1 SLOAD SUB PUSH2 0x1046 JUMPI PUSH1 0x40 MLOAD PUSH32 0x8C379A000000000000000000000000000000000000000000000000000000000 DUP2 MSTORE PUSH1 0x4 ADD PUSH2 0x103D SWAP1 PUSH2 0x2160 JUMP JUMPDEST PUSH1 0x40 MLOAD DUP1 SWAP2 SUB SWAP1 REVERT JUMPDEST PUSH1 0x2 PUSH1 0x1 DUP2 SWAP1 SSTORE POP JUMP JUMPDEST PUSH1 0x1 DUP1 DUP2 SWAP1 SSTORE POP JUMP JUMPDEST PUSH2 0x1061 PUSH2 0x130B JUMP JUMPDEST PUSH20 0xFFFFFFFFFFFFFFFFFFFFFFFFFFFFFFFFFFFFFFFF AND PUSH2 0x107F PUSH2 0x518 JUMP JUMPDEST PUSH20 0xFFFFFFFFFFFFFFFFFFFFFFFFFFFFFFFFFFFFFFFF AND EQ PUSH2 0x10DE JUMPI PUSH2 0x10A2 PUSH2 0x130B JUMP JUMPDEST PUSH1 0x40 MLOAD PUSH32 0x118CDAA700000000000000000000000000000000000000000000000000000000 DUP2 MSTORE PUSH1 0x4 ADD PUSH2 0x10D5 SWAP2 SWAP1 PUSH2 0x1582 JUMP JUMPDEST PUSH1 0x40 MLOAD DUP1 SWAP2 SUB SWAP1 REVERT JUMPDEST JUMP JUMPDEST PUSH0 PUSH0 PUSH0 SWAP1 SLOAD SWAP1 PUSH2 0x100 EXP SWAP1 DIV PUSH20 0xFFFFFFFFFFFFFFFFFFFFFFFFFFFFFFFFFFFFFFFF AND SWAP1 POP DUP2 PUSH0 PUSH0 PUSH2 0x100 EXP DUP2 SLOAD DUP2 PUSH20 0xFFFFFFFFFFFFFFFFFFFFFFFFFFFFFFFFFFFFFFFF MUL NOT AND SWAP1 DUP4 PUSH20 0xFFFFFFFFFFFFFFFFFFFFFFFFFFFFFFFFFFFFFFFF AND MUL OR SWAP1 SSTORE POP DUP2 PUSH20 0xFFFFFFFFFFFFFFFFFFFFFFFFFFFFFFFFFFFFFFFF AND DUP2 PUSH20 0xFFFFFFFFFFFFFFFFFFFFFFFFFFFFFFFFFFFFFFFF AND PUSH32 0x8BE0079C531659141344CD1FD0A4F28419497F9722A3DAAFE3B4186F6B6457E0 PUSH1 0x40 MLOAD PUSH1 0x40 MLOAD DUP1 SWAP2 SUB SWAP1 LOG3 POP POP JUMP JUMPDEST PUSH2 0x121B DUP4 DUP5 PUSH20 0xFFFFFFFFFFFFFFFFFFFFFFFFFFFFFFFFFFFFFFFF AND PUSH4 0xA9059CBB DUP6 DUP6 PUSH1 0x40 MLOAD PUSH1 0x24 ADD PUSH2 0x11D4 SWAP3 SWAP2 SWAP1 PUSH2 0x1CE6 JUMP JUMPDEST PUSH1 0x40 MLOAD PUSH1 0x20 DUP2 DUP4 SUB SUB DUP2 MSTORE SWAP1 PUSH1 0x40 MSTORE SWAP2 POP PUSH1 0xE0 SHL PUSH1 0x20 DUP3 ADD DUP1 MLOAD PUSH28 0xFFFFFFFFFFFFFFFFFFFFFFFFFFFFFFFFFFFFFFFFFFFFFFFFFFFFFFFF DUP4 DUP2 DUP4 AND OR DUP4 MSTORE POP POP POP POP PUSH2 0x1312 JUMP JUMPDEST POP POP POP JUMP JUMPDEST PUSH2 0x129C DUP5 DUP6 PUSH20 0xFFFFFFFFFFFFFFFFFFFFFFFFFFFFFFFFFFFFFFFF AND PUSH4 0x23B872DD DUP7 DUP7 DUP7 PUSH1 0x40 MLOAD PUSH1 0x24 ADD PUSH2 0x1255 SWAP4 SWAP3 SWAP2 SWAP1 PUSH2 0x217E JUMP JUMPDEST PUSH1 0x40 MLOAD PUSH1 0x20 DUP2 DUP4 SUB SUB DUP2 MSTORE SWAP1 PUSH1 0x40 MSTORE SWAP2 POP PUSH1 0xE0 SHL PUSH1 0x20 DUP3 ADD DUP1 MLOAD PUSH28 0xFFFFFFFFFFFFFFFFFFFFFFFFFFFFFFFFFFFFFFFFFFFFFFFFFFFFFFFF DUP4 DUP2 DUP4 AND OR DUP4 MSTORE POP POP POP POP PUSH2 0x1312 JUMP JUMPDEST POP POP POP POP JUMP JUMPDEST PUSH0 PUSH32 0x1FFC9A700000000000000000000000000000000000000000000000000000000 PUSH28 0xFFFFFFFFFFFFFFFFFFFFFFFFFFFFFFFFFFFFFFFFFFFFFFFFFFFFFFFF NOT AND DUP3 PUSH28 0xFFFFFFFFFFFFFFFFFFFFFFFFFFFFFFFFFFFFFFFFFFFFFFFFFFFFFFFF NOT AND EQ SWAP1 POP SWAP2 SWAP1 POP JUMP JUMPDEST PUSH0 CALLER SWAP1 POP SWAP1 JUMP JUMPDEST PUSH0 PUSH0 PUSH1 0x20 PUSH0 DUP5 MLOAD PUSH1 0x20 DUP7 ADD PUSH0 DUP9 GAS CALL DUP1 PUSH2 0x1331 JUMPI PUSH1 0x40 MLOAD RETURNDATASIZE PUSH0 DUP3 RETURNDATACOPY RETURNDATASIZE DUP2 REVERT JUMPDEST RETURNDATASIZE SWAP3 POP PUSH0 MLOAD SWAP2 POP POP PUSH0 DUP3 EQ PUSH2 0x134A JUMPI PUSH1 0x1 DUP2 EQ ISZERO PUSH2 0x1365 JUMP JUMPDEST PUSH0 DUP5 PUSH20 0xFFFFFFFFFFFFFFFFFFFFFFFFFFFFFFFFFFFFFFFF AND EXTCODESIZE EQ JUMPDEST ISZERO PUSH2 0x13A7 JUMPI DUP4 PUSH1 0x40 MLOAD PUSH32 0x5274AFE700000000000000000000000000000000000000000000000000000000 DUP2 MSTORE PUSH1 0x4 ADD PUSH2 0x139E SWAP2 SWAP1 PUSH2 0x1582 JUMP JUMPDEST PUSH1 0x40 MLOAD DUP1 SWAP2 SUB SWAP1 REVERT JUMPDEST POP POP POP POP JUMP JUMPDEST PUSH0 PUSH1 0x40 MLOAD SWAP1 POP SWAP1 JUMP JUMPDEST PUSH0 PUSH0 REVERT JUMPDEST PUSH0 PUSH0 REVERT JUMPDEST PUSH0 PUSH32 0xFFFFFFFF00000000000000000000000000000000000000000000000000000000 DUP3 AND SWAP1 POP SWAP2 SWAP1 POP JUMP JUMPDEST PUSH2 0x13F2 DUP2 PUSH2 0x13BE JUMP JUMPDEST DUP2 EQ PUSH2 0x13FC JUMPI PUSH0 PUSH0 REVERT JUMPDEST POP JUMP JUMPDEST PUSH0 DUP2 CALLDATALOAD SWAP1 POP PUSH2 0x140D DUP2 PUSH2 0x13E9 JUMP JUMPDEST SWAP3 SWAP2 POP POP JUMP JUMPDEST PUSH0 PUSH1 0x20 DUP3 DUP5 SUB SLT ISZERO PUSH2 0x1428 JUMPI PUSH2 0x1427 PUSH2 0x13B6 JUMP JUMPDEST JUMPDEST PUSH0 PUSH2 0x1435 DUP5 DUP3 DUP6 ADD PUSH2 0x13FF JUMP JUMPDEST SWAP2 POP POP SWAP3 SWAP2 POP POP JUMP JUMPDEST PUSH0 DUP2 ISZERO ISZERO SWAP1 POP SWAP2 SWAP1 POP JUMP JUMPDEST PUSH2 0x1452 DUP2 PUSH2 0x143E JUMP JUMPDEST DUP3 MSTORE POP POP JUMP JUMPDEST PUSH0 PUSH1 0x20 DUP3 ADD SWAP1 POP PUSH2 0x146B PUSH0 DUP4 ADD DUP5 PUSH2 0x1449 JUMP JUMPDEST SWAP3 SWAP2 POP POP JUMP JUMPDEST PUSH0 DUP2 SWAP1 POP SWAP2 SWAP1 POP JUMP JUMPDEST PUSH2 0x1483 DUP2 PUSH2 0x1471 JUMP JUMPDEST DUP2 EQ PUSH2 0x148D JUMPI PUSH0 PUSH0 REVERT JUMPDEST POP JUMP JUMPDEST PUSH0 DUP2 CALLDATALOAD SWAP1 POP PUSH2 0x149E DUP2 PUSH2 0x147A JUMP JUMPDEST SWAP3 SWAP2 POP POP JUMP JUMPDEST PUSH0 PUSH1 0x20 DUP3 DUP5 SUB SLT ISZERO PUSH2 0x14B9 JUMPI PUSH2 0x14B8 PUSH2 0x13B6 JUMP JUMPDEST JUMPDEST PUSH0 PUSH2 0x14C6 DUP5 DUP3 DUP6 ADD PUSH2 0x1490 JUMP JUMPDEST SWAP2 POP POP SWAP3 SWAP2 POP POP JUMP JUMPDEST PUSH0 PUSH20 0xFFFFFFFFFFFFFFFFFFFFFFFFFFFFFFFFFFFFFFFF DUP3 AND SWAP1 POP SWAP2 SWAP1 POP JUMP JUMPDEST PUSH0 DUP2 SWAP1 POP SWAP2 SWAP1 POP JUMP JUMPDEST PUSH0 PUSH2 0x1511 PUSH2 0x150C PUSH2 0x1507 DUP5 PUSH2 0x14CF JUMP JUMPDEST PUSH2 0x14EE JUMP JUMPDEST PUSH2 0x14CF JUMP JUMPDEST SWAP1 POP SWAP2 SWAP1 POP JUMP JUMPDEST PUSH0 PUSH2 0x1522 DUP3 PUSH2 0x14F7 JUMP JUMPDEST SWAP1 POP SWAP2 SWAP1 POP JUMP JUMPDEST PUSH0 PUSH2 0x1533 DUP3 PUSH2 0x1518 JUMP JUMPDEST SWAP1 POP SWAP2 SWAP1 POP JUMP JUMPDEST PUSH2 0x1543 DUP2 PUSH2 0x1529 JUMP JUMPDEST DUP3 MSTORE POP POP JUMP JUMPDEST PUSH0 PUSH1 0x20 DUP3 ADD SWAP1 POP PUSH2 0x155C PUSH0 DUP4 ADD DUP5 PUSH2 0x153A JUMP JUMPDEST SWAP3 SWAP2 POP POP JUMP JUMPDEST PUSH0 PUSH2 0x156C DUP3 PUSH2 0x14CF JUMP JUMPDEST SWAP1 POP SWAP2 SWAP1 POP JUMP JUMPDEST PUSH2 0x157C DUP2 PUSH2 0x1562 JUMP JUMPDEST DUP3 MSTORE POP POP JUMP JUMPDEST PUSH0 PUSH1 0x20 DUP3 ADD SWAP1 POP PUSH2 0x1595 PUSH0 DUP4 ADD DUP5 PUSH2 0x1573 JUMP JUMPDEST SWAP3 SWAP2 POP POP JUMP JUMPDEST PUSH2 0x15A4 DUP2 PUSH2 0x1562 JUMP JUMPDEST DUP2 EQ PUSH2 0x15AE JUMPI PUSH0 PUSH0 REVERT JUMPDEST POP JUMP JUMPDEST PUSH0 DUP2 CALLDATALOAD SWAP1 POP PUSH2 0x15BF DUP2 PUSH2 0x159B JUMP JUMPDEST SWAP3 SWAP2 POP POP JUMP JUMPDEST PUSH0 PUSH1 0x20 DUP3 DUP5 SUB SLT ISZERO PUSH2 0x15DA JUMPI PUSH2 0x15D9 PUSH2 0x13B6 JUMP JUMPDEST JUMPDEST PUSH0 PUSH2 0x15E7 DUP5 DUP3 DUP6 ADD PUSH2 0x15B1 JUMP JUMPDEST SWAP2 POP POP SWAP3 SWAP2 POP POP JUMP JUMPDEST PUSH0 PUSH0 PUSH1 0x40 DUP4 DUP6 SUB SLT ISZERO PUSH2 0x1606 JUMPI PUSH2 0x1605 PUSH2 0x13B6 JUMP JUMPDEST JUMPDEST PUSH0 PUSH2 0x1613 DUP6 DUP3 DUP7 ADD PUSH2 0x1490 JUMP JUMPDEST SWAP3 POP POP PUSH1 0x20 PUSH2 0x1624 DUP6 DUP3 DUP7 ADD PUSH2 0x15B1 JUMP JUMPDEST SWAP2 POP POP SWAP3 POP SWAP3 SWAP1 POP JUMP JUMPDEST PUSH2 0x1637 DUP2 PUSH2 0x1471 JUMP JUMPDEST DUP3 MSTORE POP POP JUMP JUMPDEST PUSH0 PUSH1 0x80 DUP3 ADD SWAP1 POP PUSH2 0x1650 PUSH0 DUP4 ADD DUP8 PUSH2 0x1573 JUMP JUMPDEST PUSH2 0x165D PUSH1 0x20 DUP4 ADD DUP7 PUSH2 0x162E JUMP JUMPDEST PUSH2 0x166A PUSH1 0x40 DUP4 ADD DUP6 PUSH2 0x162E JUMP JUMPDEST PUSH2 0x1677 PUSH1 0x60 DUP4 ADD DUP5 PUSH2 0x162E JUMP JUMPDEST SWAP6 SWAP5 POP POP POP POP POP JUMP JUMPDEST PUSH0 PUSH0 PUSH1 0x40 DUP4 DUP6 SUB SLT ISZERO PUSH2 0x1696 JUMPI PUSH2 0x1695 PUSH2 0x13B6 JUMP JUMPDEST JUMPDEST PUSH0 PUSH2 0x16A3 DUP6 DUP3 DUP7 ADD PUSH2 0x15B1 JUMP JUMPDEST SWAP3 POP POP PUSH1 0x20 PUSH2 0x16B4 DUP6 DUP3 DUP7 ADD PUSH2 0x1490 JUMP JUMPDEST SWAP2 POP POP SWAP3 POP SWAP3 SWAP1 POP JUMP JUMPDEST PUSH0 PUSH1 0x20 DUP3 ADD SWAP1 POP PUSH2 0x16D1 PUSH0 DUP4 ADD DUP5 PUSH2 0x162E JUMP JUMPDEST SWAP3 SWAP2 POP POP JUMP JUMPDEST PUSH0 PUSH0 REVERT JUMPDEST PUSH0 PUSH1 0x1F NOT PUSH1 0x1F DUP4 ADD AND SWAP1 POP SWAP2 SWAP1 POP JUMP JUMPDEST PUSH32 0x4E487B7100000000000000000000000000000000000000000000000000000000 PUSH0 MSTORE PUSH1 0x41 PUSH1 0x4 MSTORE PUSH1 0x24 PUSH0 REVERT JUMPDEST PUSH2 0x1721 DUP3 PUSH2 0x16DB JUMP JUMPDEST DUP2 ADD DUP2 DUP2 LT PUSH8 0xFFFFFFFFFFFFFFFF DUP3 GT OR ISZERO PUSH2 0x1740 JUMPI PUSH2 0x173F PUSH2 0x16EB JUMP JUMPDEST JUMPDEST DUP1 PUSH1 0x40 MSTORE POP POP POP JUMP JUMPDEST PUSH0 PUSH2 0x1752 PUSH2 0x13AD JUMP JUMPDEST SWAP1 POP PUSH2 0x175E DUP3 DUP3 PUSH2 0x1718 JUMP JUMPDEST SWAP2 SWAP1 POP JUMP JUMPDEST PUSH0 PUSH8 0xFFFFFFFFFFFFFFFF DUP3 GT ISZERO PUSH2 0x177D JUMPI PUSH2 0x177C PUSH2 0x16EB JUMP JUMPDEST JUMPDEST PUSH1 0x20 DUP3 MUL SWAP1 POP PUSH1 0x20 DUP2 ADD SWAP1 POP SWAP2 SWAP1 POP JUMP JUMPDEST PUSH0 PUSH0 REVERT JUMPDEST PUSH0 PUSH2 0x17A4 PUSH2 0x179F DUP5 PUSH2 0x1763 JUMP JUMPDEST PUSH2 0x1749 JUMP JUMPDEST SWAP1 POP DUP1 DUP4 DUP3 MSTORE PUSH1 0x20 DUP3 ADD SWAP1 POP PUSH1 0x20 DUP5 MUL DUP4 ADD DUP6 DUP2 GT ISZERO PUSH2 0x17C7 JUMPI PUSH2 0x17C6 PUSH2 0x178E JUMP JUMPDEST JUMPDEST DUP4 JUMPDEST DUP2 DUP2 LT ISZERO PUSH2 0x17F0 JUMPI DUP1 PUSH2 0x17DC DUP9 DUP3 PUSH2 0x1490 JUMP JUMPDEST DUP5 MSTORE PUSH1 0x20 DUP5 ADD SWAP4 POP POP PUSH1 0x20 DUP2 ADD SWAP1 POP PUSH2 0x17C9 JUMP JUMPDEST POP POP POP SWAP4 SWAP3 POP POP POP JUMP JUMPDEST PUSH0 DUP3 PUSH1 0x1F DUP4 ADD SLT PUSH2 0x180E JUMPI PUSH2 0x180D PUSH2 0x16D7 JUMP JUMPDEST JUMPDEST DUP2 CALLDATALOAD PUSH2 0x181E DUP5 DUP3 PUSH1 0x20 DUP7 ADD PUSH2 0x1792 JUMP JUMPDEST SWAP2 POP POP SWAP3 SWAP2 POP POP JUMP JUMPDEST PUSH0 PUSH0 REVERT JUMPDEST PUSH0 PUSH8 0xFFFFFFFFFFFFFFFF DUP3 GT ISZERO PUSH2 0x1845 JUMPI PUSH2 0x1844 PUSH2 0x16EB JUMP JUMPDEST JUMPDEST PUSH2 0x184E DUP3 PUSH2 0x16DB JUMP JUMPDEST SWAP1 POP PUSH1 0x20 DUP2 ADD SWAP1 POP SWAP2 SWAP1 POP JUMP JUMPDEST DUP3 DUP2 DUP4 CALLDATACOPY PUSH0 DUP4 DUP4 ADD MSTORE POP POP POP JUMP JUMPDEST PUSH0 PUSH2 0x187B PUSH2 0x1876 DUP5 PUSH2 0x182B JUMP JUMPDEST PUSH2 0x1749 JUMP JUMPDEST SWAP1 POP DUP3 DUP2 MSTORE PUSH1 0x20 DUP2 ADD DUP5 DUP5 DUP5 ADD GT ISZERO PUSH2 0x1897 JUMPI PUSH2 0x1896 PUSH2 0x1827 JUMP JUMPDEST JUMPDEST PUSH2 0x18A2 DUP5 DUP3 DUP6 PUSH2 0x185B JUMP JUMPDEST POP SWAP4 SWAP3 POP POP POP JUMP JUMPDEST PUSH0 DUP3 PUSH1 0x1F DUP4 ADD SLT PUSH2 0x18BE JUMPI PUSH2 0x18BD PUSH2 0x16D7 JUMP JUMPDEST JUMPDEST DUP2 CALLDATALOAD PUSH2 0x18CE DUP5 DUP3 PUSH1 0x20 DUP7 ADD PUSH2 0x1869 JUMP JUMPDEST SWAP2 POP POP SWAP3 SWAP2 POP POP JUMP JUMPDEST PUSH0 PUSH0 PUSH0 PUSH0 PUSH0 PUSH1 0xA0 DUP7 DUP9 SUB SLT ISZERO PUSH2 0x18F0 JUMPI PUSH2 0x18EF PUSH2 0x13B6 JUMP JUMPDEST JUMPDEST PUSH0 PUSH2 0x18FD DUP9 DUP3 DUP10 ADD PUSH2 0x15B1 JUMP JUMPDEST SWAP6 POP POP PUSH1 0x20 PUSH2 0x190E DUP9 DUP3 DUP10 ADD PUSH2 0x15B1 JUMP JUMPDEST SWAP5 POP POP PUSH1 0x40 DUP7 ADD CALLDATALOAD PUSH8 0xFFFFFFFFFFFFFFFF DUP2 GT ISZERO PUSH2 0x192F JUMPI PUSH2 0x192E PUSH2 0x13BA JUMP JUMPDEST JUMPDEST PUSH2 0x193B DUP9 DUP3 DUP10 ADD PUSH2 0x17FA JUMP JUMPDEST SWAP4 POP POP PUSH1 0x60 DUP7 ADD CALLDATALOAD PUSH8 0xFFFFFFFFFFFFFFFF DUP2 GT ISZERO PUSH2 0x195C JUMPI PUSH2 0x195B PUSH2 0x13BA JUMP JUMPDEST JUMPDEST PUSH2 0x1968 DUP9 DUP3 DUP10 ADD PUSH2 0x17FA JUMP JUMPDEST SWAP3 POP POP PUSH1 0x80 DUP7 ADD CALLDATALOAD PUSH8 0xFFFFFFFFFFFFFFFF DUP2 GT ISZERO PUSH2 0x1989 JUMPI PUSH2 0x1988 PUSH2 0x13BA JUMP JUMPDEST JUMPDEST PUSH2 0x1995 DUP9 DUP3 DUP10 ADD PUSH2 0x18AA JUMP JUMPDEST SWAP2 POP POP SWAP3 SWAP6 POP SWAP3 SWAP6 SWAP1 SWAP4 POP JUMP JUMPDEST PUSH2 0x19AB DUP2 PUSH2 0x13BE JUMP JUMPDEST DUP3 MSTORE POP POP JUMP JUMPDEST PUSH0 PUSH1 0x20 DUP3 ADD SWAP1 POP PUSH2 0x19C4 PUSH0 DUP4 ADD DUP5 PUSH2 0x19A2 JUMP JUMPDEST SWAP3 SWAP2 POP POP JUMP JUMPDEST PUSH0 PUSH2 0x19D4 DUP3 PUSH2 0x1518 JUMP JUMPDEST SWAP1 POP SWAP2 SWAP1 POP JUMP JUMPDEST PUSH2 0x19E4 DUP2 PUSH2 0x19CA JUMP JUMPDEST DUP3 MSTORE POP POP JUMP JUMPDEST PUSH0 PUSH1 0x20 DUP3 ADD SWAP1 POP PUSH2 0x19FD PUSH0 DUP4 ADD DUP5 PUSH2 0x19DB JUMP JUMPDEST SWAP3 SWAP2 POP POP JUMP JUMPDEST PUSH0 PUSH0 PUSH0 PUSH1 0x60 DUP5 DUP7 SUB SLT ISZERO PUSH2 0x1A1A JUMPI PUSH2 0x1A19 PUSH2 0x13B6 JUMP JUMPDEST JUMPDEST PUSH0 PUSH2 0x1A27 DUP7 DUP3 DUP8 ADD PUSH2 0x1490 JUMP JUMPDEST SWAP4 POP POP PUSH1 0x20 PUSH2 0x1A38 DUP7 DUP3 DUP8 ADD PUSH2 0x1490 JUMP JUMPDEST SWAP3 POP POP PUSH1 0x40 PUSH2 0x1A49 DUP7 DUP3 DUP8 ADD PUSH2 0x1490 JUMP JUMPDEST SWAP2 POP POP SWAP3 POP SWAP3 POP SWAP3 JUMP JUMPDEST PUSH0 PUSH0 PUSH0 PUSH0 PUSH0 PUSH1 0xA0 DUP7 DUP9 SUB SLT ISZERO PUSH2 0x1A6C JUMPI PUSH2 0x1A6B PUSH2 0x13B6 JUMP JUMPDEST JUMPDEST PUSH0 PUSH2 0x1A79 DUP9 DUP3 DUP10 ADD PUSH2 0x15B1 JUMP JUMPDEST SWAP6 POP POP PUSH1 0x20 PUSH2 0x1A8A DUP9 DUP3 DUP10 ADD PUSH2 0x15B1 JUMP JUMPDEST SWAP5 POP POP PUSH1 0x40 PUSH2 0x1A9B DUP9 DUP3 DUP10 ADD PUSH2 0x1490 JUMP JUMPDEST SWAP4 POP POP PUSH1 0x60 PUSH2 0x1AAC DUP9 DUP3 DUP10 ADD PUSH2 0x1490 JUMP JUMPDEST SWAP3 POP POP PUSH1 0x80 DUP7 ADD CALLDATALOAD PUSH8 0xFFFFFFFFFFFFFFFF DUP2 GT ISZERO PUSH2 0x1ACD JUMPI PUSH2 0x1ACC PUSH2 0x13BA JUMP JUMPDEST JUMPDEST PUSH2 0x1AD9 DUP9 DUP3 DUP10 ADD PUSH2 0x18AA JUMP JUMPDEST SWAP2 POP POP SWAP3 SWAP6 POP SWAP3 SWAP6 SWAP1 SWAP4 POP JUMP JUMPDEST PUSH0 PUSH0 PUSH0 PUSH1 0x60 DUP5 DUP7 SUB SLT ISZERO PUSH2 0x1AFD JUMPI PUSH2 0x1AFC PUSH2 0x13B6 JUMP JUMPDEST JUMPDEST PUSH0 PUSH2 0x1B0A DUP7 DUP3 DUP8 ADD PUSH2 0x15B1 JUMP JUMPDEST SWAP4 POP POP PUSH1 0x20 PUSH2 0x1B1B DUP7 DUP3 DUP8 ADD PUSH2 0x1490 JUMP JUMPDEST SWAP3 POP POP PUSH1 0x40 PUSH2 0x1B2C DUP7 DUP3 DUP8 ADD PUSH2 0x1490 JUMP JUMPDEST SWAP2 POP POP SWAP3 POP SWAP3 POP SWAP3 JUMP JUMPDEST PUSH0 DUP3 DUP3 MSTORE PUSH1 0x20 DUP3 ADD SWAP1 POP SWAP3 SWAP2 POP POP JUMP JUMPDEST PUSH32 0x4E6F20616374697665206C697374696E67000000000000000000000000000000 PUSH0 DUP3 ADD MSTORE POP JUMP JUMPDEST PUSH0 PUSH2 0x1B7A PUSH1 0x11 DUP4 PUSH2 0x1B36 JUMP JUMPDEST SWAP2 POP PUSH2 0x1B85 DUP3 PUSH2 0x1B46 JUMP JUMPDEST PUSH1 0x20 DUP3 ADD SWAP1 POP SWAP2 SWAP1 POP JUMP JUMPDEST PUSH0 PUSH1 0x20 DUP3 ADD SWAP1 POP DUP2 DUP2 SUB PUSH0 DUP4 ADD MSTORE PUSH2 0x1BA7 DUP2 PUSH2 0x1B6E JUMP JUMPDEST SWAP1 POP SWAP2 SWAP1 POP JUMP JUMPDEST PUSH32 0x496E76616C6964206665652077616C6C65740000000000000000000000000000 PUSH0 DUP3 ADD MSTORE POP JUMP JUMPDEST PUSH0 PUSH2 0x1BE2 PUSH1 0x12 DUP4 PUSH2 0x1B36 JUMP JUMPDEST SWAP2 POP PUSH2 0x1BED DUP3 PUSH2 0x1BAE JUMP JUMPDEST PUSH1 0x20 DUP3 ADD SWAP1 POP SWAP2 SWAP1 POP JUMP JUMPDEST PUSH0 PUSH1 0x20 DUP3 ADD SWAP1 POP DUP2 DUP2 SUB PUSH0 DUP4 ADD MSTORE PUSH2 0x1C0F DUP2 PUSH2 0x1BD6 JUMP JUMPDEST SWAP1 POP SWAP2 SWAP1 POP JUMP JUMPDEST PUSH32 0x416D6F756E7420746F6F20736D616C6C00000000000000000000000000000000 PUSH0 DUP3 ADD MSTORE POP JUMP JUMPDEST PUSH0 PUSH2 0x1C4A PUSH1 0x10 DUP4 PUSH2 0x1B36 JUMP JUMPDEST SWAP2 POP PUSH2 0x1C55 DUP3 PUSH2 0x1C16 JUMP JUMPDEST PUSH1 0x20 DUP3 ADD SWAP1 POP SWAP2 SWAP1 POP JUMP JUMPDEST PUSH0 PUSH1 0x20 DUP3 ADD SWAP1 POP DUP2 DUP2 SUB PUSH0 DUP4 ADD MSTORE PUSH2 0x1C77 DUP2 PUSH2 0x1C3E JUMP JUMPDEST SWAP1 POP SWAP2 SWAP1 POP JUMP JUMPDEST PUSH32 0x507269636520746F6F206C6F7700000000000000000000000000000000000000 PUSH0 DUP3 ADD MSTORE POP JUMP JUMPDEST PUSH0 PUSH2 0x1CB2 PUSH1 0xD DUP4 PUSH2 0x1B36 JUMP JUMPDEST SWAP2 POP PUSH2 0x1CBD DUP3 PUSH2 0x1C7E JUMP JUMPDEST PUSH1 0x20 DUP3 ADD SWAP1 POP SWAP2 SWAP1 POP JUMP JUMPDEST PUSH0 PUSH1 0x20 DUP3 ADD SWAP1 POP DUP2 DUP2 SUB PUSH0 DUP4 ADD MSTORE PUSH2 0x1CDF DUP2 PUSH2 0x1CA6 JUMP JUMPDEST SWAP1 POP SWAP2 SWAP1 POP JUMP JUMPDEST PUSH0 PUSH1 0x40 DUP3 ADD SWAP1 POP PUSH2 0x1CF9 PUSH0 DUP4 ADD DUP6 PUSH2 0x1573 JUMP JUMPDEST PUSH2 0x1D06 PUSH1 0x20 DUP4 ADD DUP5 PUSH2 0x162E JUMP JUMPDEST SWAP4 SWAP3 POP POP POP JUMP JUMPDEST PUSH0 DUP2 MLOAD SWAP1 POP PUSH2 0x1D1B DUP2 PUSH2 0x147A JUMP JUMPDEST SWAP3 SWAP2 POP POP JUMP JUMPDEST PUSH0 PUSH1 0x20 DUP3 DUP5 SUB SLT ISZERO PUSH2 0x1D36 JUMPI PUSH2 0x1D35 PUSH2 0x13B6 JUMP JUMPDEST JUMPDEST PUSH0 PUSH2 0x1D43 DUP5 DUP3 DUP6 ADD PUSH2 0x1D0D JUMP JUMPDEST SWAP2 POP POP SWAP3 SWAP2 POP POP JUMP JUMPDEST PUSH32 0x496E73756666696369656E74204E46542062616C616E63650000000000000000 PUSH0 DUP3 ADD MSTORE POP JUMP JUMPDEST PUSH0 PUSH2 0x1D80 PUSH1 0x18 DUP4 PUSH2 0x1B36 JUMP JUMPDEST SWAP2 POP PUSH2 0x1D8B DUP3 PUSH2 0x1D4C JUMP JUMPDEST PUSH1 0x20 DUP3 ADD SWAP1 POP SWAP2 SWAP1 POP JUMP JUMPDEST PUSH0 PUSH1 0x20 DUP3 ADD SWAP1 POP DUP2 DUP2 SUB PUSH0 DUP4 ADD MSTORE PUSH2 0x1DAD DUP2 PUSH2 0x1D74 JUMP JUMPDEST SWAP1 POP SWAP2 SWAP1 POP JUMP JUMPDEST PUSH0 PUSH1 0x40 DUP3 ADD SWAP1 POP PUSH2 0x1DC7 PUSH0 DUP4 ADD DUP6 PUSH2 0x1573 JUMP JUMPDEST PUSH2 0x1DD4 PUSH1 0x20 DUP4 ADD DUP5 PUSH2 0x1573 JUMP JUMPDEST SWAP4 SWAP3 POP POP POP JUMP JUMPDEST PUSH2 0x1DE4 DUP2 PUSH2 0x143E JUMP JUMPDEST DUP2 EQ PUSH2 0x1DEE JUMPI PUSH0 PUSH0 REVERT JUMPDEST POP JUMP JUMPDEST PUSH0 DUP2 MLOAD SWAP1 POP PUSH2 0x1DFF DUP2 PUSH2 0x1DDB JUMP JUMPDEST SWAP3 SWAP2 POP POP JUMP JUMPDEST PUSH0 PUSH1 0x20 DUP3 DUP5 SUB SLT ISZERO PUSH2 0x1E1A JUMPI PUSH2 0x1E19 PUSH2 0x13B6 JUMP JUMPDEST JUMPDEST PUSH0 PUSH2 0x1E27 DUP5 DUP3 DUP6 ADD PUSH2 0x1DF1 JUMP JUMPDEST SWAP2 POP POP SWAP3 SWAP2 POP POP JUMP JUMPDEST PUSH32 0x4D61726B6574706C616365206E6F7420617070726F7665640000000000000000 PUSH0 DUP3 ADD MSTORE POP JUMP JUMPDEST PUSH0 PUSH2 0x1E64 PUSH1 0x18 DUP4 PUSH2 0x1B36 JUMP JUMPDEST SWAP2 POP PUSH2 0x1E6F DUP3 PUSH2 0x1E30 JUMP JUMPDEST PUSH1 0x20 DUP3 ADD SWAP1 POP SWAP2 SWAP1 POP JUMP JUMPDEST PUSH0 PUSH1 0x20 DUP3 ADD SWAP1 POP DUP2 DUP2 SUB PUSH0 DUP4 ADD MSTORE PUSH2 0x1E91 DUP2 PUSH2 0x1E58 JUMP JUMPDEST SWAP1 POP SWAP2 SWAP1 POP JUMP JUMPDEST PUSH0 PUSH1 0x40 DUP3 ADD SWAP1 POP PUSH2 0x1EAB PUSH0 DUP4 ADD DUP6 PUSH2 0x162E JUMP JUMPDEST PUSH2 0x1EB8 PUSH1 0x20 DUP4 ADD DUP5 PUSH2 0x162E JUMP JUMPDEST SWAP4 SWAP3 POP POP POP JUMP JUMPDEST PUSH32 0x496E73756666696369656E7420616D6F756E74206C6973746564000000000000 PUSH0 DUP3 ADD MSTORE POP JUMP JUMPDEST PUSH0 PUSH2 0x1EF3 PUSH1 0x1A DUP4 PUSH2 0x1B36 JUMP JUMPDEST SWAP2 POP PUSH2 0x1EFE DUP3 PUSH2 0x1EBF JUMP JUMPDEST PUSH1 0x20 DUP3 ADD SWAP1 POP SWAP2 SWAP1 POP JUMP JUMPDEST PUSH0 PUSH1 0x20 DUP3 ADD SWAP1 POP DUP2 DUP2 SUB PUSH0 DUP4 ADD MSTORE PUSH2 0x1F20 DUP2 PUSH2 0x1EE7 JUMP JUMPDEST SWAP1 POP SWAP2 SWAP1 POP JUMP JUMPDEST PUSH32 0x53656C6C6572206E6F206C6F6E676572206F776E73204E465400000000000000 PUSH0 DUP3 ADD MSTORE POP JUMP JUMPDEST PUSH0 PUSH2 0x1F5B PUSH1 0x19 DUP4 PUSH2 0x1B36 JUMP JUMPDEST SWAP2 POP PUSH2 0x1F66 DUP3 PUSH2 0x1F27 JUMP JUMPDEST PUSH1 0x20 DUP3 ADD SWAP1 POP SWAP2 SWAP1 POP JUMP JUMPDEST PUSH0 PUSH1 0x20 DUP3 ADD SWAP1 POP DUP2 DUP2 SUB PUSH0 DUP4 ADD MSTORE PUSH2 0x1F88 DUP2 PUSH2 0x1F4F JUMP JUMPDEST SWAP1 POP SWAP2 SWAP1 POP JUMP JUMPDEST PUSH32 0x4E487B7100000000000000000000000000000000000000000000000000000000 PUSH0 MSTORE PUSH1 0x11 PUSH1 0x4 MSTORE PUSH1 0x24 PUSH0 REVERT JUMPDEST PUSH0 PUSH2 0x1FC6 DUP3 PUSH2 0x1471 JUMP JUMPDEST SWAP2 POP PUSH2 0x1FD1 DUP4 PUSH2 0x1471 JUMP JUMPDEST SWAP3 POP DUP3 DUP3 MUL PUSH2 0x1FDF DUP2 PUSH2 0x1471 JUMP JUMPDEST SWAP2 POP DUP3 DUP3 DIV DUP5 EQ DUP4 ISZERO OR PUSH2 0x1FF6 JUMPI PUSH2 0x1FF5 PUSH2 0x1F8F JUMP JUMPDEST JUMPDEST POP SWAP3 SWAP2 POP POP JUMP JUMPDEST PUSH32 0x4E487B7100000000000000000000000000000000000000000000000000000000 PUSH0 MSTORE PUSH1 0x12 PUSH1 0x4 MSTORE PUSH1 0x24 PUSH0 REVERT JUMPDEST PUSH0 PUSH2 0x2034 DUP3 PUSH2 0x1471 JUMP JUMPDEST SWAP2 POP PUSH2 0x203F DUP4 PUSH2 0x1471 JUMP JUMPDEST SWAP3 POP DUP3 PUSH2 0x204F JUMPI PUSH2 0x204E PUSH2 0x1FFD JUMP JUMPDEST JUMPDEST DUP3 DUP3 DIV SWAP1 POP SWAP3 SWAP2 POP POP JUMP JUMPDEST PUSH0 PUSH2 0x2064 DUP3 PUSH2 0x1471 JUMP JUMPDEST SWAP2 POP PUSH2 0x206F DUP4 PUSH2 0x1471 JUMP JUMPDEST SWAP3 POP DUP3 DUP3 SUB SWAP1 POP DUP2 DUP2 GT ISZERO PUSH2 0x2087 JUMPI PUSH2 0x2086 PUSH2 0x1F8F JUMP JUMPDEST JUMPDEST SWAP3 SWAP2 POP POP JUMP JUMPDEST PUSH0 DUP3 DUP3 MSTORE PUSH1 0x20 DUP3 ADD SWAP1 POP SWAP3 SWAP2 POP POP JUMP JUMPDEST POP JUMP JUMPDEST PUSH0 PUSH2 0x20AB PUSH0 DUP4 PUSH2 0x208D JUMP JUMPDEST SWAP2 POP PUSH2 0x20B6 DUP3 PUSH2 0x209D JUMP JUMPDEST PUSH0 DUP3 ADD SWAP1 POP SWAP2 SWAP1 POP JUMP JUMPDEST PUSH0 PUSH1 0xA0 DUP3 ADD SWAP1 POP PUSH2 0x20D3 PUSH0 DUP4 ADD DUP8 PUSH2 0x1573 JUMP JUMPDEST PUSH2 0x20E0 PUSH1 0x20 DUP4 ADD DUP7 PUSH2 0x1573 JUMP JUMPDEST PUSH2 0x20ED PUSH1 0x40 DUP4 ADD DUP6 PUSH2 0x162E JUMP JUMPDEST PUSH2 0x20FA PUSH1 0x60 DUP4 ADD DUP5 PUSH2 0x162E JUMP JUMPDEST DUP2 DUP2 SUB PUSH1 0x80 DUP4 ADD MSTORE PUSH2 0x210B DUP2 PUSH2 0x20A0 JUMP JUMPDEST SWAP1 POP SWAP6 SWAP5 POP POP POP POP POP JUMP JUMPDEST PUSH32 0x5265656E7472616E637947756172643A207265656E7472616E742063616C6C00 PUSH0 DUP3 ADD MSTORE POP JUMP JUMPDEST PUSH0 PUSH2 0x214A PUSH1 0x1F DUP4 PUSH2 0x1B36 JUMP JUMPDEST SWAP2 POP PUSH2 0x2155 DUP3 PUSH2 0x2116 JUMP JUMPDEST PUSH1 0x20 DUP3 ADD SWAP1 POP SWAP2 SWAP1 POP JUMP JUMPDEST PUSH0 PUSH1 0x20 DUP3 ADD SWAP1 POP DUP2 DUP2 SUB PUSH0 DUP4 ADD MSTORE PUSH2 0x2177 DUP2 PUSH2 0x213E JUMP JUMPDEST SWAP1 POP SWAP2 SWAP1 POP JUMP JUMPDEST PUSH0 PUSH1 0x60 DUP3 ADD SWAP1 POP PUSH2 0x2191 PUSH0 DUP4 ADD DUP7 PUSH2 0x1573 JUMP JUMPDEST PUSH2 0x219E PUSH1 0x20 DUP4 ADD DUP6 PUSH2 0x1573 JUMP JUMPDEST PUSH2 0x21AB PUSH1 0x40 DUP4 ADD DUP5 PUSH2 0x162E JUMP JUMPDEST SWAP5 SWAP4 POP POP POP POP JUMP INVALID LOG2 PUSH5 0x6970667358 0x22 SLT KECCAK256 0xFC DUP5 0xCA SLT PUSH7 0x8172534A3464A7 0xEA OR JUMPF 0xF198 0xB1 SUB SWAP15 0xEA POP 0x4F 0xB9 0x4F CHAINID 0xC7 DUP7 RJUMPI 0x5681 CODECOPY PUSH5 0x736F6C6343 STOP ADDMOD 0x1E STOP CALLER "
				},
				"gasEstimates": {
					"creation": {
						"codeDepositCost": "1736200",
						"executionCost": "infinite",
						"totalCost": "infinite"
					},
					"external": {
						"FEE_PERCENT()": "414",
						"MIN_AMOUNT()": "370",
						"MIN_PRICE()": "436",
						"buyItem(address,uint256,uint256)": "infinite",
						"cafiToken()": "infinite",
						"cancelListing(uint256)": "90135",
						"carbonFiNFT()": "infinite",
						"emergencyWithdraw(address,uint256)": "infinite",
						"feeWallet()": "2574",
						"listItem(uint256,uint256,uint256)": "infinite",
						"listings(uint256,address)": "infinite",
						"onERC1155BatchReceived(address,address,uint256[],uint256[],bytes)": "infinite",
						"onERC1155Received(address,address,uint256,uint256,bytes)": "infinite",
						"owner()": "2537",
						"renounceOwnership()": "infinite",
						"setFeeWallet(address)": "infinite",
						"supportsInterface(bytes4)": "783",
						"transferOwnership(address)": "infinite"
					}
				},
				"methodIdentifiers": {
					"FEE_PERCENT()": "eaf98d23",
					"MIN_AMOUNT()": "ddbcb5fa",
					"MIN_PRICE()": "ad9f20a6",
					"buyItem(address,uint256,uint256)": "f6b45c46",
					"cafiToken()": "58a0bde3",
					"cancelListing(uint256)": "305a67a8",
					"carbonFiNFT()": "e215f1ca",
					"emergencyWithdraw(address,uint256)": "95ccea67",
					"feeWallet()": "f25f4b56",
					"listItem(uint256,uint256,uint256)": "ec16b94a",
					"listings(uint256,address)": "927fbfc8",
					"onERC1155BatchReceived(address,address,uint256[],uint256[],bytes)": "bc197c81",
					"onERC1155Received(address,address,uint256,uint256,bytes)": "f23a6e61",
					"owner()": "8da5cb5b",
					"renounceOwnership()": "715018a6",
					"setFeeWallet(address)": "90d49b9d",
					"supportsInterface(bytes4)": "01ffc9a7",
					"transferOwnership(address)": "f2fde38b"
				}
			},
			"storageLayout": {
				"storage": [
					{
						"astId": 8,
						"contract": "Carbonfi_Marketplace.sol:CarbonFiMarketplace",
						"label": "_owner",
						"offset": 0,
						"slot": "0",
						"type": "t_address"
					},
					{
						"astId": 248,
						"contract": "Carbonfi_Marketplace.sol:CarbonFiMarketplace",
						"label": "_status",
						"offset": 0,
						"slot": "1",
						"type": "t_uint256"
					},
					{
						"astId": 1191,
						"contract": "Carbonfi_Marketplace.sol:CarbonFiMarketplace",
						"label": "feeWallet",
						"offset": 0,
						"slot": "2",
						"type": "t_address"
					},
					{
						"astId": 1207,
						"contract": "Carbonfi_Marketplace.sol:CarbonFiMarketplace",
						"label": "listings",
						"offset": 0,
						"slot": "3",
						"type": "t_mapping(t_uint256,t_mapping(t_address,t_struct(Listing)1200_storage))"
					}
				],
				"types": {
					"t_address": {
						"encoding": "inplace",
						"label": "address",
						"numberOfBytes": "20"
					},
					"t_mapping(t_address,t_struct(Listing)1200_storage)": {
						"encoding": "mapping",
						"key": "t_address",
						"label": "mapping(address => struct CarbonFiMarketplace.Listing)",
						"numberOfBytes": "32",
						"value": "t_struct(Listing)1200_storage"
					},
					"t_mapping(t_uint256,t_mapping(t_address,t_struct(Listing)1200_storage))": {
						"encoding": "mapping",
						"key": "t_uint256",
						"label": "mapping(uint256 => mapping(address => struct CarbonFiMarketplace.Listing))",
						"numberOfBytes": "32",
						"value": "t_mapping(t_address,t_struct(Listing)1200_storage)"
					},
					"t_struct(Listing)1200_storage": {
						"encoding": "inplace",
						"label": "struct CarbonFiMarketplace.Listing",
						"members": [
							{
								"astId": 1193,
								"contract": "Carbonfi_Marketplace.sol:CarbonFiMarketplace",
								"label": "seller",
								"offset": 0,
								"slot": "0",
								"type": "t_address"
							},
							{
								"astId": 1195,
								"contract": "Carbonfi_Marketplace.sol:CarbonFiMarketplace",
								"label": "tokenId",
								"offset": 0,
								"slot": "1",
								"type": "t_uint256"
							},
							{
								"astId": 1197,
								"contract": "Carbonfi_Marketplace.sol:CarbonFiMarketplace",
								"label": "amount",
								"offset": 0,
								"slot": "2",
								"type": "t_uint256"
							},
							{
								"astId": 1199,
								"contract": "Carbonfi_Marketplace.sol:CarbonFiMarketplace",
								"label": "pricePerItem",
								"offset": 0,
								"slot": "3",
								"type": "t_uint256"
							}
						],
						"numberOfBytes": "128"
					},
					"t_uint256": {
						"encoding": "inplace",
						"label": "uint256",
						"numberOfBytes": "32"
					}
				}
			},
			"userdoc": {
				"kind": "user",
				"methods": {},
				"version": 1
			}
		}
	}
}