{
	"Farming.sol": {
		"CAFIFarming": {
			"abi": [
				{
					"inputs": [
						{
							"internalType": "address",
							"name": "rewardTokenAddress",
							"type": "address"
						},
						{
							"internalType": "address",
							"name": "initialFeeCollector",
							"type": "address"
						},
						{
							"internalType": "address",
							"name": "initialOwner",
							"type": "address"
						}
					],
					"stateMutability": "nonpayable",
					"type": "constructor"
				},
				{
					"inputs": [
						{
							"internalType": "address",
							"name": "owner",
							"type": "address"
						}
					],
					"name": "OwnableInvalidOwner",
					"type": "error"
				},
				{
					"inputs": [
						{
							"internalType": "address",
							"name": "account",
							"type": "address"
						}
					],
					"name": "OwnableUnauthorizedAccount",
					"type": "error"
				},
				{
					"inputs": [
						{
							"internalType": "address",
							"name": "token",
							"type": "address"
						}
					],
					"name": "SafeERC20FailedOperation",
					"type": "error"
				},
				{
					"anonymous": false,
					"inputs": [
						{
							"indexed": true,
							"internalType": "address",
							"name": "user",
							"type": "address"
						},
						{
							"indexed": true,
							"internalType": "uint256",
							"name": "stakeId",
							"type": "uint256"
						},
						{
							"indexed": false,
							"internalType": "bool",
							"name": "isEnabled",
							"type": "bool"
						}
					],
					"name": "AutoCompoundToggled",
					"type": "event"
				},
				{
					"anonymous": false,
					"inputs": [
						{
							"indexed": false,
							"internalType": "uint256",
							"name": "newFeeBps",
							"type": "uint256"
						},
						{
							"indexed": false,
							"internalType": "address",
							"name": "newCollector",
							"type": "address"
						}
					],
					"name": "FeeParametersUpdated",
					"type": "event"
				},
				{
					"anonymous": false,
					"inputs": [
						{
							"indexed": false,
							"internalType": "address",
							"name": "collector",
							"type": "address"
						},
						{
							"indexed": false,
							"internalType": "uint256",
							"name": "amount",
							"type": "uint256"
						}
					],
					"name": "FeesWithdrawn",
					"type": "event"
				},
				{
					"anonymous": false,
					"inputs": [
						{
							"indexed": true,
							"internalType": "address",
							"name": "previousOwner",
							"type": "address"
						},
						{
							"indexed": true,
							"internalType": "address",
							"name": "newOwner",
							"type": "address"
						}
					],
					"name": "OwnershipTransferStarted",
					"type": "event"
				},
				{
					"anonymous": false,
					"inputs": [
						{
							"indexed": true,
							"internalType": "address",
							"name": "previousOwner",
							"type": "address"
						},
						{
							"indexed": true,
							"internalType": "address",
							"name": "newOwner",
							"type": "address"
						}
					],
					"name": "OwnershipTransferred",
					"type": "event"
				},
				{
					"anonymous": false,
					"inputs": [
						{
							"indexed": true,
							"internalType": "uint256",
							"name": "packageId",
							"type": "uint256"
						},
						{
							"indexed": false,
							"internalType": "address",
							"name": "stakeToken",
							"type": "address"
						},
						{
							"indexed": false,
							"internalType": "uint256",
							"name": "duration",
							"type": "uint256"
						},
						{
							"indexed": false,
							"internalType": "uint256",
							"name": "apyBps",
							"type": "uint256"
						},
						{
							"indexed": false,
							"internalType": "uint256",
							"name": "minStake",
							"type": "uint256"
						}
					],
					"name": "PackageConfigured",
					"type": "event"
				},
				{
					"anonymous": false,
					"inputs": [
						{
							"indexed": true,
							"internalType": "uint256",
							"name": "packageId",
							"type": "uint256"
						},
						{
							"indexed": false,
							"internalType": "bool",
							"name": "isActive",
							"type": "bool"
						}
					],
					"name": "PackageStatusChanged",
					"type": "event"
				},
				{
					"anonymous": false,
					"inputs": [
						{
							"indexed": false,
							"internalType": "address",
							"name": "account",
							"type": "address"
						}
					],
					"name": "Paused",
					"type": "event"
				},
				{
					"anonymous": false,
					"inputs": [
						{
							"indexed": true,
							"internalType": "address",
							"name": "user",
							"type": "address"
						},
						{
							"indexed": true,
							"internalType": "uint256",
							"name": "stakeId",
							"type": "uint256"
						},
						{
							"indexed": false,
							"internalType": "uint256",
							"name": "amount",
							"type": "uint256"
						}
					],
					"name": "RewardClaimed",
					"type": "event"
				},
				{
					"anonymous": false,
					"inputs": [
						{
							"indexed": true,
							"internalType": "address",
							"name": "user",
							"type": "address"
						},
						{
							"indexed": true,
							"internalType": "uint256",
							"name": "packageId",
							"type": "uint256"
						},
						{
							"indexed": false,
							"internalType": "uint256",
							"name": "amount",
							"type": "uint256"
						},
						{
							"indexed": false,
							"internalType": "uint256",
							"name": "startTime",
							"type": "uint256"
						}
					],
					"name": "StakeCreated",
					"type": "event"
				},
				{
					"anonymous": false,
					"inputs": [
						{
							"indexed": true,
							"internalType": "address",
							"name": "user",
							"type": "address"
						},
						{
							"indexed": true,
							"internalType": "uint256",
							"name": "stakeId",
							"type": "uint256"
						},
						{
							"indexed": false,
							"internalType": "uint256",
							"name": "principal",
							"type": "uint256"
						},
						{
							"indexed": false,
							"internalType": "uint256",
							"name": "reward",
							"type": "uint256"
						}
					],
					"name": "StakeWithdrawn",
					"type": "event"
				},
				{
					"anonymous": false,
					"inputs": [
						{
							"indexed": false,
							"internalType": "address",
							"name": "account",
							"type": "address"
						}
					],
					"name": "Unpaused",
					"type": "event"
				},
				{
					"inputs": [],
					"name": "BPS_DENOMINATOR",
					"outputs": [
						{
							"internalType": "uint256",
							"name": "",
							"type": "uint256"
						}
					],
					"stateMutability": "view",
					"type": "function"
				},
				{
					"inputs": [],
					"name": "MAX_FEE_BPS",
					"outputs": [
						{
							"internalType": "uint256",
							"name": "",
							"type": "uint256"
						}
					],
					"stateMutability": "view",
					"type": "function"
				},
				{
					"inputs": [],
					"name": "SECONDS_PER_YEAR",
					"outputs": [
						{
							"internalType": "uint256",
							"name": "",
							"type": "uint256"
						}
					],
					"stateMutability": "view",
					"type": "function"
				},
				{
					"inputs": [],
					"name": "acceptOwnership",
					"outputs": [],
					"stateMutability": "nonpayable",
					"type": "function"
				},
				{
					"inputs": [],
					"name": "autoCompoundFeeBps",
					"outputs": [
						{
							"internalType": "uint256",
							"name": "",
							"type": "uint256"
						}
					],
					"stateMutability": "view",
					"type": "function"
				},
				{
					"inputs": [
						{
							"internalType": "address",
							"name": "user",
							"type": "address"
						},
						{
							"internalType": "uint256",
							"name": "stakeId",
							"type": "uint256"
						}
					],
					"name": "calculatePendingRewards",
					"outputs": [
						{
							"internalType": "uint256",
							"name": "",
							"type": "uint256"
						}
					],
					"stateMutability": "view",
					"type": "function"
				},
				{
					"inputs": [
						{
							"internalType": "uint256",
							"name": "stakeId",
							"type": "uint256"
						}
					],
					"name": "claimStakeRewards",
					"outputs": [],
					"stateMutability": "nonpayable",
					"type": "function"
				},
				{
					"inputs": [
						{
							"internalType": "address",
							"name": "stakeToken",
							"type": "address"
						},
						{
							"internalType": "uint256",
							"name": "duration",
							"type": "uint256"
						},
						{
							"internalType": "uint256",
							"name": "apyBps",
							"type": "uint256"
						},
						{
							"internalType": "uint256",
							"name": "minStake",
							"type": "uint256"
						}
					],
					"name": "configureNewPackage",
					"outputs": [],
					"stateMutability": "nonpayable",
					"type": "function"
				},
				{
					"inputs": [
						{
							"internalType": "uint256",
							"name": "packageId",
							"type": "uint256"
						},
						{
							"internalType": "uint256",
							"name": "amount",
							"type": "uint256"
						}
					],
					"name": "createStake",
					"outputs": [],
					"stateMutability": "nonpayable",
					"type": "function"
				},
				{
					"inputs": [],
					"name": "emergencyPause",
					"outputs": [],
					"stateMutability": "nonpayable",
					"type": "function"
				},
				{
					"inputs": [],
					"name": "emergencyUnpause",
					"outputs": [],
					"stateMutability": "nonpayable",
					"type": "function"
				},
				{
					"inputs": [],
					"name": "feeCollector",
					"outputs": [
						{
							"internalType": "address",
							"name": "",
							"type": "address"
						}
					],
					"stateMutability": "view",
					"type": "function"
				},
				{
					"inputs": [],
					"name": "feePoolBalance",
					"outputs": [
						{
							"internalType": "uint256",
							"name": "",
							"type": "uint256"
						}
					],
					"stateMutability": "view",
					"type": "function"
				},
				{
					"inputs": [],
					"name": "getActivePackageCount",
					"outputs": [
						{
							"internalType": "uint256",
							"name": "",
							"type": "uint256"
						}
					],
					"stateMutability": "view",
					"type": "function"
				},
				{
					"inputs": [
						{
							"internalType": "uint256",
							"name": "packageId",
							"type": "uint256"
						}
					],
					"name": "getPackageDetails",
					"outputs": [
						{
							"components": [
								{
									"internalType": "address",
									"name": "stakeTokenAddress",
									"type": "address"
								},
								{
									"internalType": "uint256",
									"name": "lockDuration",
									"type": "uint256"
								},
								{
									"internalType": "uint256",
									"name": "apyBps",
									"type": "uint256"
								},
								{
									"internalType": "uint256",
									"name": "minimumStakeAmount",
									"type": "uint256"
								},
								{
									"internalType": "bool",
									"name": "isActive",
									"type": "bool"
								}
							],
							"internalType": "struct CAFIFarming.FarmPackage",
							"name": "",
							"type": "tuple"
						}
					],
					"stateMutability": "view",
					"type": "function"
				},
				{
					"inputs": [
						{
							"internalType": "address",
							"name": "user",
							"type": "address"
						}
					],
					"name": "getUserStakes",
					"outputs": [
						{
							"components": [
								{
									"internalType": "uint256",
									"name": "packageId",
									"type": "uint256"
								},
								{
									"internalType": "uint256",
									"name": "stakedAmount",
									"type": "uint256"
								},
								{
									"internalType": "uint256",
									"name": "stakeStartTimestamp",
									"type": "uint256"
								},
								{
									"internalType": "uint256",
									"name": "lastRewardClaimTimestamp",
									"type": "uint256"
								},
								{
									"internalType": "bool",
									"name": "isAutoCompounding",
									"type": "bool"
								}
							],
							"internalType": "struct CAFIFarming.UserStake[]",
							"name": "",
							"type": "tuple[]"
						}
					],
					"stateMutability": "view",
					"type": "function"
				},
				{
					"inputs": [],
					"name": "owner",
					"outputs": [
						{
							"internalType": "address",
							"name": "",
							"type": "address"
						}
					],
					"stateMutability": "view",
					"type": "function"
				},
				{
					"inputs": [],
					"name": "paused",
					"outputs": [
						{
							"internalType": "bool",
							"name": "",
							"type": "bool"
						}
					],
					"stateMutability": "view",
					"type": "function"
				},
				{
					"inputs": [],
					"name": "pendingOwner",
					"outputs": [
						{
							"internalType": "address",
							"name": "",
							"type": "address"
						}
					],
					"stateMutability": "view",
					"type": "function"
				},
				{
					"inputs": [],
					"name": "renounceOwnership",
					"outputs": [],
					"stateMutability": "nonpayable",
					"type": "function"
				},
				{
					"inputs": [],
					"name": "rewardToken",
					"outputs": [
						{
							"internalType": "contract IERC20",
							"name": "",
							"type": "address"
						}
					],
					"stateMutability": "view",
					"type": "function"
				},
				{
					"inputs": [
						{
							"internalType": "uint256",
							"name": "stakeId",
							"type": "uint256"
						}
					],
					"name": "toggleAutoCompound",
					"outputs": [],
					"stateMutability": "nonpayable",
					"type": "function"
				},
				{
					"inputs": [
						{
							"internalType": "address",
							"name": "newOwner",
							"type": "address"
						}
					],
					"name": "transferOwnership",
					"outputs": [],
					"stateMutability": "nonpayable",
					"type": "function"
				},
				{
					"inputs": [
						{
							"internalType": "uint256",
							"name": "newFeeBps",
							"type": "uint256"
						},
						{
							"internalType": "address",
							"name": "newCollector",
							"type": "address"
						}
					],
					"name": "updateFeeParameters",
					"outputs": [],
					"stateMutability": "nonpayable",
					"type": "function"
				},
				{
					"inputs": [
						{
							"internalType": "uint256",
							"name": "packageId",
							"type": "uint256"
						},
						{
							"internalType": "uint256",
							"name": "newApyBps",
							"type": "uint256"
						}
					],
					"name": "updatePackageAPY",
					"outputs": [],
					"stateMutability": "nonpayable",
					"type": "function"
				},
				{
					"inputs": [
						{
							"internalType": "uint256",
							"name": "packageId",
							"type": "uint256"
						},
						{
							"internalType": "bool",
							"name": "isActive",
							"type": "bool"
						}
					],
					"name": "updatePackageStatus",
					"outputs": [],
					"stateMutability": "nonpayable",
					"type": "function"
				},
				{
					"inputs": [],
					"name": "withdrawAccumulatedFees",
					"outputs": [],
					"stateMutability": "nonpayable",
					"type": "function"
				},
				{
					"inputs": [
						{
							"internalType": "uint256",
							"name": "stakeId",
							"type": "uint256"
						}
					],
					"name": "withdrawStake",
					"outputs": [],
					"stateMutability": "nonpayable",
					"type": "function"
				}
			],
			"devdoc": {
				"details": "Features adjustable APY packages with strict security controls",
				"errors": {
					"OwnableInvalidOwner(address)": [
						{
							"details": "The owner is not a valid owner account. (eg. `address(0)`)"
						}
					],
					"OwnableUnauthorizedAccount(address)": [
						{
							"details": "The caller account is not authorized to perform an operation."
						}
					],
					"SafeERC20FailedOperation(address)": [
						{
							"details": "An operation with an ERC-20 token failed."
						}
					]
				},
				"events": {
					"Paused(address)": {
						"details": "Emitted when the pause is triggered by `account`."
					},
					"Unpaused(address)": {
						"details": "Emitted when the pause is lifted by `account`."
					}
				},
				"kind": "dev",
				"methods": {
					"acceptOwnership()": {
						"details": "The new owner accepts the ownership transfer."
					},
					"owner()": {
						"details": "Returns the address of the current owner."
					},
					"paused()": {
						"details": "Returns true if the contract is paused, and false otherwise."
					},
					"pendingOwner()": {
						"details": "Returns the address of the pending owner."
					},
					"renounceOwnership()": {
						"details": "Leaves the contract without owner. It will not be possible to call `onlyOwner` functions. Can only be called by the current owner. NOTE: Renouncing ownership will leave the contract without an owner, thereby disabling any functionality that is only available to the owner."
					},
					"transferOwnership(address)": {
						"details": "Starts the ownership transfer of the contract to a new account. Replaces the pending transfer if there is one. Can only be called by the current owner. Setting `newOwner` to the zero address is allowed; this can be used to cancel an initiated ownership transfer."
					}
				},
				"title": "CAFIFarming - Secure Staking Platform",
				"version": 1
			},
			"evm": {
				"assembly": "    /* \"Farming.sol\":558:10442  contract CAFIFarming is Ownable2Step, ReentrancyGuard, Pausable {... */\n  mstore(0x40, 0xa0)\n    /* \"Farming.sol\":1609:1611  50 */\n  0x32\n    /* \"Farming.sol\":1573:1611  uint256 public autoCompoundFeeBps = 50 */\n  0x06\n  sstore\n    /* \"Farming.sol\":3275:3672  constructor(... */\n  callvalue\n  dup1\n  iszero\n  tag_1\n  jumpi\n  revert(0x00, 0x00)\ntag_1:\n  pop\n  mload(0x40)\n  sub(codesize, bytecodeSize)\n  dup1\n  bytecodeSize\n  dup4\n  codecopy\n  dup2\n  dup2\n  add\n  0x40\n  mstore\n  dup2\n  add\n  swap1\n  tag_2\n  swap2\n  swap1\n  tag_3\n  jump\t// in\ntag_2:\n    /* \"Farming.sol\":3404:3416  initialOwner */\n  dup1\n    /* \"@openzeppelin/contracts/access/Ownable.sol\":1297:1298  0 */\n  0x00\n    /* \"@openzeppelin/contracts/access/Ownable.sol\":1273:1299  initialOwner == address(0) */\n  0xffffffffffffffffffffffffffffffffffffffff\n  and\n    /* \"@openzeppelin/contracts/access/Ownable.sol\":1273:1285  initialOwner */\n  dup2\n    /* \"@openzeppelin/contracts/access/Ownable.sol\":1273:1299  initialOwner == address(0) */\n  0xffffffffffffffffffffffffffffffffffffffff\n  and\n  sub\n    /* \"@openzeppelin/contracts/access/Ownable.sol\":1269:1364  if (initialOwner == address(0)) {... */\n  tag_9\n  jumpi\n    /* \"@openzeppelin/contracts/access/Ownable.sol\":1350:1351  0 */\n  0x00\n    /* \"@openzeppelin/contracts/access/Ownable.sol\":1322:1353  OwnableInvalidOwner(address(0)) */\n  mload(0x40)\n  0x1e4fbdf700000000000000000000000000000000000000000000000000000000\n  dup2\n  mstore\n  0x04\n  add\n  tag_10\n  swap2\n  swap1\n  tag_11\n  jump\t// in\ntag_10:\n  mload(0x40)\n  dup1\n  swap2\n  sub\n  swap1\n  revert\n    /* \"@openzeppelin/contracts/access/Ownable.sol\":1269:1364  if (initialOwner == address(0)) {... */\ntag_9:\n    /* \"@openzeppelin/contracts/access/Ownable.sol\":1373:1405  _transferOwnership(initialOwner) */\n  tag_12\n    /* \"@openzeppelin/contracts/access/Ownable.sol\":1392:1404  initialOwner */\n  dup2\n    /* \"@openzeppelin/contracts/access/Ownable.sol\":1373:1391  _transferOwnership */\n  shl(0x20, tag_13)\n    /* \"@openzeppelin/contracts/access/Ownable.sol\":1373:1405  _transferOwnership(initialOwner) */\n  0x20\n  shr\n  jump\t// in\ntag_12:\n    /* \"@openzeppelin/contracts/access/Ownable.sol\":1225:1412  constructor(address initialOwner) {... */\n  pop\n    /* \"@openzeppelin/contracts/security/ReentrancyGuard.sol\":1716:1717  1 */\n  0x01\n    /* \"@openzeppelin/contracts/security/ReentrancyGuard.sol\":1821:1828  _status */\n  0x02\n    /* \"@openzeppelin/contracts/security/ReentrancyGuard.sol\":1821:1843  _status = _NOT_ENTERED */\n  dup2\n  swap1\n  sstore\n  pop\n    /* \"@openzeppelin/contracts/security/Pausable.sol\":1006:1011  false */\n  0x00\n    /* \"@openzeppelin/contracts/security/Pausable.sol\":996:1003  _paused */\n  0x03\n  0x00\n    /* \"@openzeppelin/contracts/security/Pausable.sol\":996:1011  _paused = false */\n  0x0100\n  exp\n  dup2\n  sload\n  dup2\n  0xff\n  mul\n  not\n  and\n  swap1\n  dup4\n  iszero\n  iszero\n  mul\n  or\n  swap1\n  sstore\n  pop\n    /* \"Farming.sol\":3466:3467  0 */\n  0x00\n    /* \"Farming.sol\":3436:3468  rewardTokenAddress != address(0) */\n  0xffffffffffffffffffffffffffffffffffffffff\n  and\n    /* \"Farming.sol\":3436:3454  rewardTokenAddress */\n  dup4\n    /* \"Farming.sol\":3436:3468  rewardTokenAddress != address(0) */\n  0xffffffffffffffffffffffffffffffffffffffff\n  and\n  sub\n    /* \"Farming.sol\":3428:3493  require(rewardTokenAddress != address(0), \"Invalid reward token\") */\n  tag_17\n  jumpi\n  mload(0x40)\n  0x08c379a000000000000000000000000000000000000000000000000000000000\n  dup2\n  mstore\n  0x04\n  add\n  tag_18\n  swap1\n  tag_19\n  jump\t// in\ntag_18:\n  mload(0x40)\n  dup1\n  swap2\n  sub\n  swap1\n  revert\ntag_17:\n    /* \"Farming.sol\":3542:3543  0 */\n  0x00\n    /* \"Farming.sol\":3511:3544  initialFeeCollector != address(0) */\n  0xffffffffffffffffffffffffffffffffffffffff\n  and\n    /* \"Farming.sol\":3511:3530  initialFeeCollector */\n  dup3\n    /* \"Farming.sol\":3511:3544  initialFeeCollector != address(0) */\n  0xffffffffffffffffffffffffffffffffffffffff\n  and\n  sub\n    /* \"Farming.sol\":3503:3570  require(initialFeeCollector != address(0), \"Invalid fee collector\") */\n  tag_20\n  jumpi\n  mload(0x40)\n  0x08c379a000000000000000000000000000000000000000000000000000000000\n  dup2\n  mstore\n  0x04\n  add\n  tag_21\n  swap1\n  tag_22\n  jump\t// in\ntag_21:\n  mload(0x40)\n  dup1\n  swap2\n  sub\n  swap1\n  revert\ntag_20:\n    /* \"Farming.sol\":3602:3620  rewardTokenAddress */\n  dup3\n    /* \"Farming.sol\":3581:3621  rewardToken = IERC20(rewardTokenAddress) */\n  0xffffffffffffffffffffffffffffffffffffffff\n  and\n  0x80\n  dup2\n  0xffffffffffffffffffffffffffffffffffffffff\n  and\n  dup2\n  mstore\n  pop\n  pop\n    /* \"Farming.sol\":3646:3665  initialFeeCollector */\n  dup2\n    /* \"Farming.sol\":3631:3643  feeCollector */\n  0x05\n  0x00\n    /* \"Farming.sol\":3631:3665  feeCollector = initialFeeCollector */\n  0x0100\n  exp\n  dup2\n  sload\n  dup2\n  0xffffffffffffffffffffffffffffffffffffffff\n  mul\n  not\n  and\n  swap1\n  dup4\n  0xffffffffffffffffffffffffffffffffffffffff\n  and\n  mul\n  or\n  swap1\n  sstore\n  pop\n    /* \"Farming.sol\":3275:3672  constructor(... */\n  pop\n  pop\n  pop\n    /* \"Farming.sol\":558:10442  contract CAFIFarming is Ownable2Step, ReentrancyGuard, Pausable {... */\n  jump(tag_23)\n    /* \"@openzeppelin/contracts/access/Ownable2Step.sol\":2011:2164  function _transferOwnership(address newOwner) internal virtual override {... */\ntag_13:\n    /* \"@openzeppelin/contracts/access/Ownable2Step.sol\":2100:2113  _pendingOwner */\n  0x01\n  0x00\n    /* \"@openzeppelin/contracts/access/Ownable2Step.sol\":2093:2113  delete _pendingOwner */\n  0x0100\n  exp\n  dup2\n  sload\n  swap1\n  0xffffffffffffffffffffffffffffffffffffffff\n  mul\n  not\n  and\n  swap1\n  sstore\n    /* \"@openzeppelin/contracts/access/Ownable2Step.sol\":2123:2157  super._transferOwnership(newOwner) */\n  tag_25\n    /* \"@openzeppelin/contracts/access/Ownable2Step.sol\":2148:2156  newOwner */\n  dup2\n    /* \"@openzeppelin/contracts/access/Ownable2Step.sol\":2123:2147  super._transferOwnership */\n  shl(0x20, tag_26)\n    /* \"@openzeppelin/contracts/access/Ownable2Step.sol\":2123:2157  super._transferOwnership(newOwner) */\n  0x20\n  shr\n  jump\t// in\ntag_25:\n    /* \"@openzeppelin/contracts/access/Ownable2Step.sol\":2011:2164  function _transferOwnership(address newOwner) internal virtual override {... */\n  pop\n  jump\t// out\n    /* \"@openzeppelin/contracts/access/Ownable.sol\":2912:3099  function _transferOwnership(address newOwner) internal virtual {... */\ntag_26:\n    /* \"@openzeppelin/contracts/access/Ownable.sol\":2985:3001  address oldOwner */\n  0x00\n    /* \"@openzeppelin/contracts/access/Ownable.sol\":3004:3010  _owner */\n  0x00\n  0x00\n  swap1\n  sload\n  swap1\n  0x0100\n  exp\n  swap1\n  div\n  0xffffffffffffffffffffffffffffffffffffffff\n  and\n    /* \"@openzeppelin/contracts/access/Ownable.sol\":2985:3010  address oldOwner = _owner */\n  swap1\n  pop\n    /* \"@openzeppelin/contracts/access/Ownable.sol\":3029:3037  newOwner */\n  dup2\n    /* \"@openzeppelin/contracts/access/Ownable.sol\":3020:3026  _owner */\n  0x00\n  0x00\n    /* \"@openzeppelin/contracts/access/Ownable.sol\":3020:3037  _owner = newOwner */\n  0x0100\n  exp\n  dup2\n  sload\n  dup2\n  0xffffffffffffffffffffffffffffffffffffffff\n  mul\n  not\n  and\n  swap1\n  dup4\n  0xffffffffffffffffffffffffffffffffffffffff\n  and\n  mul\n  or\n  swap1\n  sstore\n  pop\n    /* \"@openzeppelin/contracts/access/Ownable.sol\":3083:3091  newOwner */\n  dup2\n    /* \"@openzeppelin/contracts/access/Ownable.sol\":3052:3092  OwnershipTransferred(oldOwner, newOwner) */\n  0xffffffffffffffffffffffffffffffffffffffff\n  and\n    /* \"@openzeppelin/contracts/access/Ownable.sol\":3073:3081  oldOwner */\n  dup2\n    /* \"@openzeppelin/contracts/access/Ownable.sol\":3052:3092  OwnershipTransferred(oldOwner, newOwner) */\n  0xffffffffffffffffffffffffffffffffffffffff\n  and\n  0x8be0079c531659141344cd1fd0a4f28419497f9722a3daafe3b4186f6b6457e0\n  mload(0x40)\n  mload(0x40)\n  dup1\n  swap2\n  sub\n  swap1\n  log3\n    /* \"@openzeppelin/contracts/access/Ownable.sol\":2975:3099  {... */\n  pop\n    /* \"@openzeppelin/contracts/access/Ownable.sol\":2912:3099  function _transferOwnership(address newOwner) internal virtual {... */\n  pop\n  jump\t// out\n    /* \"#utility.yul\":88:205   */\ntag_29:\n    /* \"#utility.yul\":197:198   */\n  0x00\n    /* \"#utility.yul\":194:195   */\n  0x00\n    /* \"#utility.yul\":187:199   */\n  revert\n    /* \"#utility.yul\":334:460   */\ntag_31:\n    /* \"#utility.yul\":371:378   */\n  0x00\n    /* \"#utility.yul\":411:453   */\n  0xffffffffffffffffffffffffffffffffffffffff\n    /* \"#utility.yul\":404:409   */\n  dup3\n    /* \"#utility.yul\":400:454   */\n  and\n    /* \"#utility.yul\":389:454   */\n  swap1\n  pop\n    /* \"#utility.yul\":334:460   */\n  swap2\n  swap1\n  pop\n  jump\t// out\n    /* \"#utility.yul\":466:562   */\ntag_32:\n    /* \"#utility.yul\":503:510   */\n  0x00\n    /* \"#utility.yul\":532:556   */\n  tag_47\n    /* \"#utility.yul\":550:555   */\n  dup3\n    /* \"#utility.yul\":532:556   */\n  tag_31\n  jump\t// in\ntag_47:\n    /* \"#utility.yul\":521:556   */\n  swap1\n  pop\n    /* \"#utility.yul\":466:562   */\n  swap2\n  swap1\n  pop\n  jump\t// out\n    /* \"#utility.yul\":568:690   */\ntag_33:\n    /* \"#utility.yul\":641:665   */\n  tag_49\n    /* \"#utility.yul\":659:664   */\n  dup2\n    /* \"#utility.yul\":641:665   */\n  tag_32\n  jump\t// in\ntag_49:\n    /* \"#utility.yul\":634:639   */\n  dup2\n    /* \"#utility.yul\":631:666   */\n  eq\n    /* \"#utility.yul\":621:684   */\n  tag_50\n  jumpi\n    /* \"#utility.yul\":680:681   */\n  0x00\n    /* \"#utility.yul\":677:678   */\n  0x00\n    /* \"#utility.yul\":670:682   */\n  revert\n    /* \"#utility.yul\":621:684   */\ntag_50:\n    /* \"#utility.yul\":568:690   */\n  pop\n  jump\t// out\n    /* \"#utility.yul\":696:839   */\ntag_34:\n    /* \"#utility.yul\":753:758   */\n  0x00\n    /* \"#utility.yul\":784:790   */\n  dup2\n    /* \"#utility.yul\":778:791   */\n  mload\n    /* \"#utility.yul\":769:791   */\n  swap1\n  pop\n    /* \"#utility.yul\":800:833   */\n  tag_52\n    /* \"#utility.yul\":827:832   */\n  dup2\n    /* \"#utility.yul\":800:833   */\n  tag_33\n  jump\t// in\ntag_52:\n    /* \"#utility.yul\":696:839   */\n  swap3\n  swap2\n  pop\n  pop\n  jump\t// out\n    /* \"#utility.yul\":845:1508   */\ntag_3:\n    /* \"#utility.yul\":933:939   */\n  0x00\n    /* \"#utility.yul\":941:947   */\n  0x00\n    /* \"#utility.yul\":949:955   */\n  0x00\n    /* \"#utility.yul\":998:1000   */\n  0x60\n    /* \"#utility.yul\":986:995   */\n  dup5\n    /* \"#utility.yul\":977:984   */\n  dup7\n    /* \"#utility.yul\":973:996   */\n  sub\n    /* \"#utility.yul\":969:1001   */\n  slt\n    /* \"#utility.yul\":966:1085   */\n  iszero\n  tag_54\n  jumpi\n    /* \"#utility.yul\":1004:1083   */\n  tag_55\n  tag_29\n  jump\t// in\ntag_55:\n    /* \"#utility.yul\":966:1085   */\ntag_54:\n    /* \"#utility.yul\":1124:1125   */\n  0x00\n    /* \"#utility.yul\":1149:1213   */\n  tag_56\n    /* \"#utility.yul\":1205:1212   */\n  dup7\n    /* \"#utility.yul\":1196:1202   */\n  dup3\n    /* \"#utility.yul\":1185:1194   */\n  dup8\n    /* \"#utility.yul\":1181:1203   */\n  add\n    /* \"#utility.yul\":1149:1213   */\n  tag_34\n  jump\t// in\ntag_56:\n    /* \"#utility.yul\":1139:1213   */\n  swap4\n  pop\n    /* \"#utility.yul\":1095:1223   */\n  pop\n    /* \"#utility.yul\":1262:1264   */\n  0x20\n    /* \"#utility.yul\":1288:1352   */\n  tag_57\n    /* \"#utility.yul\":1344:1351   */\n  dup7\n    /* \"#utility.yul\":1335:1341   */\n  dup3\n    /* \"#utility.yul\":1324:1333   */\n  dup8\n    /* \"#utility.yul\":1320:1342   */\n  add\n    /* \"#utility.yul\":1288:1352   */\n  tag_34\n  jump\t// in\ntag_57:\n    /* \"#utility.yul\":1278:1352   */\n  swap3\n  pop\n    /* \"#utility.yul\":1233:1362   */\n  pop\n    /* \"#utility.yul\":1401:1403   */\n  0x40\n    /* \"#utility.yul\":1427:1491   */\n  tag_58\n    /* \"#utility.yul\":1483:1490   */\n  dup7\n    /* \"#utility.yul\":1474:1480   */\n  dup3\n    /* \"#utility.yul\":1463:1472   */\n  dup8\n    /* \"#utility.yul\":1459:1481   */\n  add\n    /* \"#utility.yul\":1427:1491   */\n  tag_34\n  jump\t// in\ntag_58:\n    /* \"#utility.yul\":1417:1491   */\n  swap2\n  pop\n    /* \"#utility.yul\":1372:1501   */\n  pop\n    /* \"#utility.yul\":845:1508   */\n  swap3\n  pop\n  swap3\n  pop\n  swap3\n  jump\t// out\n    /* \"#utility.yul\":1514:1632   */\ntag_35:\n    /* \"#utility.yul\":1601:1625   */\n  tag_60\n    /* \"#utility.yul\":1619:1624   */\n  dup2\n    /* \"#utility.yul\":1601:1625   */\n  tag_32\n  jump\t// in\ntag_60:\n    /* \"#utility.yul\":1596:1599   */\n  dup3\n    /* \"#utility.yul\":1589:1626   */\n  mstore\n    /* \"#utility.yul\":1514:1632   */\n  pop\n  pop\n  jump\t// out\n    /* \"#utility.yul\":1638:1860   */\ntag_11:\n    /* \"#utility.yul\":1731:1735   */\n  0x00\n    /* \"#utility.yul\":1769:1771   */\n  0x20\n    /* \"#utility.yul\":1758:1767   */\n  dup3\n    /* \"#utility.yul\":1754:1772   */\n  add\n    /* \"#utility.yul\":1746:1772   */\n  swap1\n  pop\n    /* \"#utility.yul\":1782:1853   */\n  tag_62\n    /* \"#utility.yul\":1850:1851   */\n  0x00\n    /* \"#utility.yul\":1839:1848   */\n  dup4\n    /* \"#utility.yul\":1835:1852   */\n  add\n    /* \"#utility.yul\":1826:1832   */\n  dup5\n    /* \"#utility.yul\":1782:1853   */\n  tag_35\n  jump\t// in\ntag_62:\n    /* \"#utility.yul\":1638:1860   */\n  swap3\n  swap2\n  pop\n  pop\n  jump\t// out\n    /* \"#utility.yul\":1866:2035   */\ntag_36:\n    /* \"#utility.yul\":1950:1961   */\n  0x00\n    /* \"#utility.yul\":1984:1990   */\n  dup3\n    /* \"#utility.yul\":1979:1982   */\n  dup3\n    /* \"#utility.yul\":1972:1991   */\n  mstore\n    /* \"#utility.yul\":2024:2028   */\n  0x20\n    /* \"#utility.yul\":2019:2022   */\n  dup3\n    /* \"#utility.yul\":2015:2029   */\n  add\n    /* \"#utility.yul\":2000:2029   */\n  swap1\n  pop\n    /* \"#utility.yul\":1866:2035   */\n  swap3\n  swap2\n  pop\n  pop\n  jump\t// out\n    /* \"#utility.yul\":2041:2211   */\ntag_37:\n    /* \"#utility.yul\":2181:2203   */\n  0x496e76616c69642072657761726420746f6b656e000000000000000000000000\n    /* \"#utility.yul\":2177:2178   */\n  0x00\n    /* \"#utility.yul\":2169:2175   */\n  dup3\n    /* \"#utility.yul\":2165:2179   */\n  add\n    /* \"#utility.yul\":2158:2204   */\n  mstore\n    /* \"#utility.yul\":2041:2211   */\n  pop\n  jump\t// out\n    /* \"#utility.yul\":2217:2583   */\ntag_38:\n    /* \"#utility.yul\":2359:2362   */\n  0x00\n    /* \"#utility.yul\":2380:2447   */\n  tag_66\n    /* \"#utility.yul\":2444:2446   */\n  0x14\n    /* \"#utility.yul\":2439:2442   */\n  dup4\n    /* \"#utility.yul\":2380:2447   */\n  tag_36\n  jump\t// in\ntag_66:\n    /* \"#utility.yul\":2373:2447   */\n  swap2\n  pop\n    /* \"#utility.yul\":2456:2549   */\n  tag_67\n    /* \"#utility.yul\":2545:2548   */\n  dup3\n    /* \"#utility.yul\":2456:2549   */\n  tag_37\n  jump\t// in\ntag_67:\n    /* \"#utility.yul\":2574:2576   */\n  0x20\n    /* \"#utility.yul\":2569:2572   */\n  dup3\n    /* \"#utility.yul\":2565:2577   */\n  add\n    /* \"#utility.yul\":2558:2577   */\n  swap1\n  pop\n    /* \"#utility.yul\":2217:2583   */\n  swap2\n  swap1\n  pop\n  jump\t// out\n    /* \"#utility.yul\":2589:3008   */\ntag_19:\n    /* \"#utility.yul\":2755:2759   */\n  0x00\n    /* \"#utility.yul\":2793:2795   */\n  0x20\n    /* \"#utility.yul\":2782:2791   */\n  dup3\n    /* \"#utility.yul\":2778:2796   */\n  add\n    /* \"#utility.yul\":2770:2796   */\n  swap1\n  pop\n    /* \"#utility.yul\":2842:2851   */\n  dup2\n    /* \"#utility.yul\":2836:2840   */\n  dup2\n    /* \"#utility.yul\":2832:2852   */\n  sub\n    /* \"#utility.yul\":2828:2829   */\n  0x00\n    /* \"#utility.yul\":2817:2826   */\n  dup4\n    /* \"#utility.yul\":2813:2830   */\n  add\n    /* \"#utility.yul\":2806:2853   */\n  mstore\n    /* \"#utility.yul\":2870:3001   */\n  tag_69\n    /* \"#utility.yul\":2996:3000   */\n  dup2\n    /* \"#utility.yul\":2870:3001   */\n  tag_38\n  jump\t// in\ntag_69:\n    /* \"#utility.yul\":2862:3001   */\n  swap1\n  pop\n    /* \"#utility.yul\":2589:3008   */\n  swap2\n  swap1\n  pop\n  jump\t// out\n    /* \"#utility.yul\":3014:3185   */\ntag_39:\n    /* \"#utility.yul\":3154:3177   */\n  0x496e76616c69642066656520636f6c6c6563746f720000000000000000000000\n    /* \"#utility.yul\":3150:3151   */\n  0x00\n    /* \"#utility.yul\":3142:3148   */\n  dup3\n    /* \"#utility.yul\":3138:3152   */\n  add\n    /* \"#utility.yul\":3131:3178   */\n  mstore\n    /* \"#utility.yul\":3014:3185   */\n  pop\n  jump\t// out\n    /* \"#utility.yul\":3191:3557   */\ntag_40:\n    /* \"#utility.yul\":3333:3336   */\n  0x00\n    /* \"#utility.yul\":3354:3421   */\n  tag_72\n    /* \"#utility.yul\":3418:3420   */\n  0x15\n    /* \"#utility.yul\":3413:3416   */\n  dup4\n    /* \"#utility.yul\":3354:3421   */\n  tag_36\n  jump\t// in\ntag_72:\n    /* \"#utility.yul\":3347:3421   */\n  swap2\n  pop\n    /* \"#utility.yul\":3430:3523   */\n  tag_73\n    /* \"#utility.yul\":3519:3522   */\n  dup3\n    /* \"#utility.yul\":3430:3523   */\n  tag_39\n  jump\t// in\ntag_73:\n    /* \"#utility.yul\":3548:3550   */\n  0x20\n    /* \"#utility.yul\":3543:3546   */\n  dup3\n    /* \"#utility.yul\":3539:3551   */\n  add\n    /* \"#utility.yul\":3532:3551   */\n  swap1\n  pop\n    /* \"#utility.yul\":3191:3557   */\n  swap2\n  swap1\n  pop\n  jump\t// out\n    /* \"#utility.yul\":3563:3982   */\ntag_22:\n    /* \"#utility.yul\":3729:3733   */\n  0x00\n    /* \"#utility.yul\":3767:3769   */\n  0x20\n    /* \"#utility.yul\":3756:3765   */\n  dup3\n    /* \"#utility.yul\":3752:3770   */\n  add\n    /* \"#utility.yul\":3744:3770   */\n  swap1\n  pop\n    /* \"#utility.yul\":3816:3825   */\n  dup2\n    /* \"#utility.yul\":3810:3814   */\n  dup2\n    /* \"#utility.yul\":3806:3826   */\n  sub\n    /* \"#utility.yul\":3802:3803   */\n  0x00\n    /* \"#utility.yul\":3791:3800   */\n  dup4\n    /* \"#utility.yul\":3787:3804   */\n  add\n    /* \"#utility.yul\":3780:3827   */\n  mstore\n    /* \"#utility.yul\":3844:3975   */\n  tag_75\n    /* \"#utility.yul\":3970:3974   */\n  dup2\n    /* \"#utility.yul\":3844:3975   */\n  tag_40\n  jump\t// in\ntag_75:\n    /* \"#utility.yul\":3836:3975   */\n  swap1\n  pop\n    /* \"#utility.yul\":3563:3982   */\n  swap2\n  swap1\n  pop\n  jump\t// out\n    /* \"Farming.sol\":558:10442  contract CAFIFarming is Ownable2Step, ReentrancyGuard, Pausable {... */\ntag_23:\n  mload(0x80)\n  codecopy(0x00, dataOffset(sub_0), dataSize(sub_0))\n  0x00\n  assignImmutable(\"0xef764c0d6484421d36739b89ad3d60c379efca83bed6303739614a73e091b0d2\")\n  return(0x00, dataSize(sub_0))\nstop\n\nsub_0: assembly {\n        /* \"Farming.sol\":558:10442  contract CAFIFarming is Ownable2Step, ReentrancyGuard, Pausable {... */\n      mstore(0x40, 0x80)\n      callvalue\n      dup1\n      iszero\n      tag_1\n      jumpi\n      revert(0x00, 0x00)\n    tag_1:\n      pop\n      jumpi(tag_2, lt(calldatasize, 0x04))\n      shr(0xe0, calldataload(0x00))\n      dup1\n      0x842e2981\n      gt\n      tag_31\n      jumpi\n      dup1\n      0xdb94ebc9\n      gt\n      tag_32\n      jumpi\n      dup1\n      0xe30c3978\n      gt\n      tag_33\n      jumpi\n      dup1\n      0xe30c3978\n      eq\n      tag_27\n      jumpi\n      dup1\n      0xe6a69ab8\n      eq\n      tag_28\n      jumpi\n      dup1\n      0xf2fde38b\n      eq\n      tag_29\n      jumpi\n      dup1\n      0xf7c618c1\n      eq\n      tag_30\n      jumpi\n      jump(tag_2)\n    tag_33:\n      dup1\n      0xdb94ebc9\n      eq\n      tag_24\n      jumpi\n      dup1\n      0xdd69becd\n      eq\n      tag_25\n      jumpi\n      dup1\n      0xe1a45218\n      eq\n      tag_26\n      jumpi\n      jump(tag_2)\n    tag_32:\n      dup1\n      0x985145b5\n      gt\n      tag_34\n      jumpi\n      dup1\n      0x985145b5\n      eq\n      tag_20\n      jumpi\n      dup1\n      0xc415b95c\n      eq\n      tag_21\n      jumpi\n      dup1\n      0xd55be8c6\n      eq\n      tag_22\n      jumpi\n      dup1\n      0xd7fa023d\n      eq\n      tag_23\n      jumpi\n      jump(tag_2)\n    tag_34:\n      dup1\n      0x842e2981\n      eq\n      tag_17\n      jumpi\n      dup1\n      0x8da5cb5b\n      eq\n      tag_18\n      jumpi\n      dup1\n      0x973e46b1\n      eq\n      tag_19\n      jumpi\n      jump(tag_2)\n    tag_31:\n      dup1\n      0x5a4d8489\n      gt\n      tag_35\n      jumpi\n      dup1\n      0x715018a6\n      gt\n      tag_36\n      jumpi\n      dup1\n      0x715018a6\n      eq\n      tag_13\n      jumpi\n      dup1\n      0x79ba5097\n      eq\n      tag_14\n      jumpi\n      dup1\n      0x7f6a9184\n      eq\n      tag_15\n      jumpi\n      dup1\n      0x7fc7984d\n      eq\n      tag_16\n      jumpi\n      jump(tag_2)\n    tag_36:\n      dup1\n      0x5a4d8489\n      eq\n      tag_10\n      jumpi\n      dup1\n      0x5c975abb\n      eq\n      tag_11\n      jumpi\n      dup1\n      0x6c435e36\n      eq\n      tag_12\n      jumpi\n      jump(tag_2)\n    tag_35:\n      dup1\n      0x2ba662d6\n      gt\n      tag_37\n      jumpi\n      dup1\n      0x2ba662d6\n      eq\n      tag_6\n      jumpi\n      dup1\n      0x2e185ec7\n      eq\n      tag_7\n      jumpi\n      dup1\n      0x4a4e3bd5\n      eq\n      tag_8\n      jumpi\n      dup1\n      0x51858e27\n      eq\n      tag_9\n      jumpi\n      jump(tag_2)\n    tag_37:\n      dup1\n      0x1bd9b708\n      eq\n      tag_3\n      jumpi\n      dup1\n      0x217a51ee\n      eq\n      tag_4\n      jumpi\n      dup1\n      0x25d5971f\n      eq\n      tag_5\n      jumpi\n    tag_2:\n      revert(0x00, 0x00)\n        /* \"Farming.sol\":7962:8761  function configureNewPackage(... */\n    tag_3:\n      tag_38\n      0x04\n      dup1\n      calldatasize\n      sub\n      dup2\n      add\n      swap1\n      tag_39\n      swap2\n      swap1\n      tag_40\n      jump\t// in\n    tag_39:\n      tag_41\n      jump\t// in\n    tag_38:\n      stop\n        /* \"Farming.sol\":8767:9017  function updatePackageStatus(uint256 packageId, bool isActive)... */\n    tag_4:\n      tag_42\n      0x04\n      dup1\n      calldatasize\n      sub\n      dup2\n      add\n      swap1\n      tag_43\n      swap2\n      swap1\n      tag_44\n      jump\t// in\n    tag_43:\n      tag_45\n      jump\t// in\n    tag_42:\n      stop\n        /* \"Farming.sol\":5317:6323  function withdrawStake(uint256 stakeId)... */\n    tag_5:\n      tag_46\n      0x04\n      dup1\n      calldatasize\n      sub\n      dup2\n      add\n      swap1\n      tag_47\n      swap2\n      swap1\n      tag_48\n      jump\t// in\n    tag_47:\n      tag_49\n      jump\t// in\n    tag_46:\n      stop\n        /* \"Farming.sol\":1573:1611  uint256 public autoCompoundFeeBps = 50 */\n    tag_6:\n      tag_50\n      tag_51\n      jump\t// in\n    tag_50:\n      mload(0x40)\n      tag_52\n      swap2\n      swap1\n      tag_53\n      jump\t// in\n    tag_52:\n      mload(0x40)\n      dup1\n      swap2\n      sub\n      swap1\n      return\n        /* \"Farming.sol\":9944:10284  function withdrawAccumulatedFees() external {... */\n    tag_7:\n      tag_54\n      tag_55\n      jump\t// in\n    tag_54:\n      stop\n        /* \"Farming.sol\":10366:10440  function emergencyUnpause() external onlyOwner {... */\n    tag_8:\n      tag_56\n      tag_57\n      jump\t// in\n    tag_56:\n      stop\n        /* \"Farming.sol\":10290:10360  function emergencyPause() external onlyOwner {... */\n    tag_9:\n      tag_58\n      tag_59\n      jump\t// in\n    tag_58:\n      stop\n        /* \"Farming.sol\":6329:6686  function toggleAutoCompound(uint256 stakeId)... */\n    tag_10:\n      tag_60\n      0x04\n      dup1\n      calldatasize\n      sub\n      dup2\n      add\n      swap1\n      tag_61\n      swap2\n      swap1\n      tag_48\n      jump\t// in\n    tag_61:\n      tag_62\n      jump\t// in\n    tag_60:\n      stop\n        /* \"@openzeppelin/contracts/security/Pausable.sol\":1615:1699  function paused() public view virtual returns (bool) {... */\n    tag_11:\n      tag_63\n      tag_64\n      jump\t// in\n    tag_63:\n      mload(0x40)\n      tag_65\n      swap2\n      swap1\n      tag_66\n      jump\t// in\n    tag_65:\n      mload(0x40)\n      dup1\n      swap2\n      sub\n      swap1\n      return\n        /* \"Farming.sol\":7589:7785  function getPackageDetails(uint256 packageId)... */\n    tag_12:\n      tag_67\n      0x04\n      dup1\n      calldatasize\n      sub\n      dup2\n      add\n      swap1\n      tag_68\n      swap2\n      swap1\n      tag_48\n      jump\t// in\n    tag_68:\n      tag_69\n      jump\t// in\n    tag_67:\n      mload(0x40)\n      tag_70\n      swap2\n      swap1\n      tag_71\n      jump\t// in\n    tag_70:\n      mload(0x40)\n      dup1\n      swap2\n      sub\n      swap1\n      return\n        /* \"@openzeppelin/contracts/access/Ownable.sol\":2293:2394  function renounceOwnership() public virtual onlyOwner {... */\n    tag_13:\n      tag_72\n      tag_73\n      jump\t// in\n    tag_72:\n      stop\n        /* \"@openzeppelin/contracts/access/Ownable2Step.sol\":2244:2473  function acceptOwnership() public virtual {... */\n    tag_14:\n      tag_74\n      tag_75\n      jump\t// in\n    tag_74:\n      stop\n        /* \"Farming.sol\":9023:9545  function updatePackageAPY(uint256 packageId, uint256 newApyBps)... */\n    tag_15:\n      tag_76\n      0x04\n      dup1\n      calldatasize\n      sub\n      dup2\n      add\n      swap1\n      tag_77\n      swap2\n      swap1\n      tag_78\n      jump\t// in\n    tag_77:\n      tag_79\n      jump\t// in\n    tag_76:\n      stop\n        /* \"Farming.sol\":6736:6923  function calculatePendingRewards(address user, uint256 stakeId)... */\n    tag_16:\n      tag_80\n      0x04\n      dup1\n      calldatasize\n      sub\n      dup2\n      add\n      swap1\n      tag_81\n      swap2\n      swap1\n      tag_82\n      jump\t// in\n    tag_81:\n      tag_83\n      jump\t// in\n    tag_80:\n      mload(0x40)\n      tag_84\n      swap2\n      swap1\n      tag_53\n      jump\t// in\n    tag_84:\n      mload(0x40)\n      dup1\n      swap2\n      sub\n      swap1\n      return\n        /* \"Farming.sol\":7791:7911  function getUserStakes(address user) external view returns (UserStake[] memory) {... */\n    tag_17:\n      tag_85\n      0x04\n      dup1\n      calldatasize\n      sub\n      dup2\n      add\n      swap1\n      tag_86\n      swap2\n      swap1\n      tag_87\n      jump\t// in\n    tag_86:\n      tag_88\n      jump\t// in\n    tag_85:\n      mload(0x40)\n      tag_89\n      swap2\n      swap1\n      tag_90\n      jump\t// in\n    tag_89:\n      mload(0x40)\n      dup1\n      swap2\n      sub\n      swap1\n      return\n        /* \"@openzeppelin/contracts/access/Ownable.sol\":1638:1723  function owner() public view virtual returns (address) {... */\n    tag_18:\n      tag_91\n      tag_92\n      jump\t// in\n    tag_91:\n      mload(0x40)\n      tag_93\n      swap2\n      swap1\n      tag_94\n      jump\t// in\n    tag_93:\n      mload(0x40)\n      dup1\n      swap2\n      sub\n      swap1\n      return\n        /* \"Farming.sol\":9551:9938  function updateFeeParameters(uint256 newFeeBps, address newCollector)... */\n    tag_19:\n      tag_95\n      0x04\n      dup1\n      calldatasize\n      sub\n      dup2\n      add\n      swap1\n      tag_96\n      swap2\n      swap1\n      tag_97\n      jump\t// in\n    tag_96:\n      tag_98\n      jump\t// in\n    tag_95:\n      stop\n        /* \"Farming.sol\":7475:7583  function getActivePackageCount() external view returns (uint256) {... */\n    tag_20:\n      tag_99\n      tag_100\n      jump\t// in\n    tag_99:\n      mload(0x40)\n      tag_101\n      swap2\n      swap1\n      tag_53\n      jump\t// in\n    tag_101:\n      mload(0x40)\n      dup1\n      swap2\n      sub\n      swap1\n      return\n        /* \"Farming.sol\":1540:1567  address public feeCollector */\n    tag_21:\n      tag_102\n      tag_103\n      jump\t// in\n    tag_102:\n      mload(0x40)\n      tag_104\n      swap2\n      swap1\n      tag_94\n      jump\t// in\n    tag_104:\n      mload(0x40)\n      dup1\n      swap2\n      sub\n      swap1\n      return\n        /* \"Farming.sol\":1164:1206  uint256 public constant MAX_FEE_BPS = 1000 */\n    tag_22:\n      tag_105\n      tag_106\n      jump\t// in\n    tag_105:\n      mload(0x40)\n      tag_107\n      swap2\n      swap1\n      tag_53\n      jump\t// in\n    tag_107:\n      mload(0x40)\n      dup1\n      swap2\n      sub\n      swap1\n      return\n        /* \"Farming.sol\":3722:4650  function createStake(uint256 packageId, uint256 amount)... */\n    tag_23:\n      tag_108\n      0x04\n      dup1\n      calldatasize\n      sub\n      dup2\n      add\n      swap1\n      tag_109\n      swap2\n      swap1\n      tag_78\n      jump\t// in\n    tag_109:\n      tag_110\n      jump\t// in\n    tag_108:\n      stop\n        /* \"Farming.sol\":1629:1658  uint256 public feePoolBalance */\n    tag_24:\n      tag_111\n      tag_112\n      jump\t// in\n    tag_111:\n      mload(0x40)\n      tag_113\n      swap2\n      swap1\n      tag_53\n      jump\t// in\n    tag_113:\n      mload(0x40)\n      dup1\n      swap2\n      sub\n      swap1\n      return\n        /* \"Farming.sol\":4656:5311  function claimStakeRewards(uint256 stakeId)... */\n    tag_25:\n      tag_114\n      0x04\n      dup1\n      calldatasize\n      sub\n      dup2\n      add\n      swap1\n      tag_115\n      swap2\n      swap1\n      tag_48\n      jump\t// in\n    tag_115:\n      tag_116\n      jump\t// in\n    tag_114:\n      stop\n        /* \"Farming.sol\":1288:1335  uint256 public constant BPS_DENOMINATOR = 10000 */\n    tag_26:\n      tag_117\n      tag_118\n      jump\t// in\n    tag_117:\n      mload(0x40)\n      tag_119\n      swap2\n      swap1\n      tag_53\n      jump\t// in\n    tag_119:\n      mload(0x40)\n      dup1\n      swap2\n      sub\n      swap1\n      return\n        /* \"@openzeppelin/contracts/access/Ownable2Step.sol\":1232:1331  function pendingOwner() public view virtual returns (address) {... */\n    tag_27:\n      tag_120\n      tag_121\n      jump\t// in\n    tag_120:\n      mload(0x40)\n      tag_122\n      swap2\n      swap1\n      tag_94\n      jump\t// in\n    tag_122:\n      mload(0x40)\n      dup1\n      swap2\n      sub\n      swap1\n      return\n        /* \"Farming.sol\":1231:1282  uint256 public constant SECONDS_PER_YEAR = 365 days */\n    tag_28:\n      tag_123\n      tag_124\n      jump\t// in\n    tag_123:\n      mload(0x40)\n      tag_125\n      swap2\n      swap1\n      tag_53\n      jump\t// in\n    tag_125:\n      mload(0x40)\n      dup1\n      swap2\n      sub\n      swap1\n      return\n        /* \"@openzeppelin/contracts/access/Ownable2Step.sol\":1649:1827  function transferOwnership(address newOwner) public virtual override onlyOwner {... */\n    tag_29:\n      tag_126\n      0x04\n      dup1\n      calldatasize\n      sub\n      dup2\n      add\n      swap1\n      tag_127\n      swap2\n      swap1\n      tag_87\n      jump\t// in\n    tag_127:\n      tag_128\n      jump\t// in\n    tag_126:\n      stop\n        /* \"Farming.sol\":1415:1450  IERC20 public immutable rewardToken */\n    tag_30:\n      tag_129\n      tag_130\n      jump\t// in\n    tag_129:\n      mload(0x40)\n      tag_131\n      swap2\n      swap1\n      tag_132\n      jump\t// in\n    tag_131:\n      mload(0x40)\n      dup1\n      swap2\n      sub\n      swap1\n      return\n        /* \"Farming.sol\":7962:8761  function configureNewPackage(... */\n    tag_41:\n        /* \"@openzeppelin/contracts/access/Ownable.sol\":1531:1544  _checkOwner() */\n      tag_134\n        /* \"@openzeppelin/contracts/access/Ownable.sol\":1531:1542  _checkOwner */\n      tag_135\n        /* \"@openzeppelin/contracts/access/Ownable.sol\":1531:1544  _checkOwner() */\n      jump\t// in\n    tag_134:\n        /* \"Farming.sol\":8160:8161  0 */\n      0x00\n        /* \"Farming.sol\":8138:8162  stakeToken != address(0) */\n      0xffffffffffffffffffffffffffffffffffffffff\n      and\n        /* \"Farming.sol\":8138:8148  stakeToken */\n      dup5\n        /* \"Farming.sol\":8138:8162  stakeToken != address(0) */\n      0xffffffffffffffffffffffffffffffffffffffff\n      and\n      sub\n        /* \"Farming.sol\":8130:8186  require(stakeToken != address(0), \"Invalid stake token\") */\n      tag_137\n      jumpi\n      mload(0x40)\n      0x08c379a000000000000000000000000000000000000000000000000000000000\n      dup2\n      mstore\n      0x04\n      add\n      tag_138\n      swap1\n      tag_139\n      jump\t// in\n    tag_138:\n      mload(0x40)\n      dup1\n      swap2\n      sub\n      swap1\n      revert\n    tag_137:\n        /* \"Farming.sol\":8215:8216  0 */\n      0x00\n        /* \"Farming.sol\":8204:8212  duration */\n      dup4\n        /* \"Farming.sol\":8204:8216  duration > 0 */\n      gt\n        /* \"Farming.sol\":8196:8237  require(duration > 0, \"Invalid duration\") */\n      tag_140\n      jumpi\n      mload(0x40)\n      0x08c379a000000000000000000000000000000000000000000000000000000000\n      dup2\n      mstore\n      0x04\n      add\n      tag_141\n      swap1\n      tag_142\n      jump\t// in\n    tag_141:\n      mload(0x40)\n      dup1\n      swap2\n      sub\n      swap1\n      revert\n    tag_140:\n        /* \"Farming.sol\":8264:8265  0 */\n      0x00\n        /* \"Farming.sol\":8255:8261  apyBps */\n      dup3\n        /* \"Farming.sol\":8255:8265  apyBps > 0 */\n      gt\n        /* \"Farming.sol\":8255:8294  apyBps > 0 && apyBps <= BPS_DENOMINATOR */\n      dup1\n      iszero\n      tag_143\n      jumpi\n      pop\n        /* \"Farming.sol\":1330:1335  10000 */\n      0x2710\n        /* \"Farming.sol\":8269:8275  apyBps */\n      dup3\n        /* \"Farming.sol\":8269:8294  apyBps <= BPS_DENOMINATOR */\n      gt\n      iszero\n        /* \"Farming.sol\":8255:8294  apyBps > 0 && apyBps <= BPS_DENOMINATOR */\n    tag_143:\n        /* \"Farming.sol\":8247:8310  require(apyBps > 0 && apyBps <= BPS_DENOMINATOR, \"Invalid APY\") */\n      tag_144\n      jumpi\n      mload(0x40)\n      0x08c379a000000000000000000000000000000000000000000000000000000000\n      dup2\n      mstore\n      0x04\n      add\n      tag_145\n      swap1\n      tag_146\n      jump\t// in\n    tag_145:\n      mload(0x40)\n      dup1\n      swap2\n      sub\n      swap1\n      revert\n    tag_144:\n        /* \"Farming.sol\":8321:8333  farmPackages */\n      0x04\n        /* \"Farming.sol\":8352:8576  FarmPackage({... */\n      mload(0x40)\n      dup1\n      0xa0\n      add\n      0x40\n      mstore\n      dup1\n        /* \"Farming.sol\":8401:8411  stakeToken */\n      dup7\n        /* \"Farming.sol\":8352:8576  FarmPackage({... */\n      0xffffffffffffffffffffffffffffffffffffffff\n      and\n      dup2\n      mstore\n      0x20\n      add\n        /* \"Farming.sol\":8443:8451  duration */\n      dup6\n        /* \"Farming.sol\":8352:8576  FarmPackage({... */\n      dup2\n      mstore\n      0x20\n      add\n        /* \"Farming.sol\":8477:8483  apyBps */\n      dup5\n        /* \"Farming.sol\":8352:8576  FarmPackage({... */\n      dup2\n      mstore\n      0x20\n      add\n        /* \"Farming.sol\":8521:8529  minStake */\n      dup4\n        /* \"Farming.sol\":8352:8576  FarmPackage({... */\n      dup2\n      mstore\n      0x20\n      add\n        /* \"Farming.sol\":8557:8561  true */\n      0x01\n        /* \"Farming.sol\":8352:8576  FarmPackage({... */\n      iszero\n      iszero\n      dup2\n      mstore\n      pop\n        /* \"Farming.sol\":8321:8586  farmPackages.push(... */\n      swap1\n      dup1\n      0x01\n      dup2\n      sload\n      add\n      dup1\n      dup3\n      sstore\n      dup1\n      swap2\n      pop\n      pop\n      0x01\n      swap1\n      sub\n      swap1\n      0x00\n      mstore\n      keccak256(0x00, 0x20)\n      swap1\n      0x05\n      mul\n      add\n      0x00\n      swap1\n      swap2\n      swap1\n      swap2\n      swap1\n      swap2\n      pop\n      0x00\n      dup3\n      add\n      mload\n      dup2\n      0x00\n      add\n      exp(0x0100, 0x00)\n      dup2\n      sload\n      dup2\n      0xffffffffffffffffffffffffffffffffffffffff\n      mul\n      not\n      and\n      swap1\n      dup4\n      0xffffffffffffffffffffffffffffffffffffffff\n      and\n      mul\n      or\n      swap1\n      sstore\n      pop\n      0x20\n      dup3\n      add\n      mload\n      dup2\n      0x01\n      add\n      sstore\n      0x40\n      dup3\n      add\n      mload\n      dup2\n      0x02\n      add\n      sstore\n      0x60\n      dup3\n      add\n      mload\n      dup2\n      0x03\n      add\n      sstore\n      0x80\n      dup3\n      add\n      mload\n      dup2\n      0x04\n      add\n      exp(0x0100, 0x00)\n      dup2\n      sload\n      dup2\n      0xff\n      mul\n      not\n      and\n      swap1\n      dup4\n      iszero\n      iszero\n      mul\n      or\n      swap1\n      sstore\n      pop\n      pop\n      pop\n        /* \"Farming.sol\":8655:8656  1 */\n      0x01\n        /* \"Farming.sol\":8633:8645  farmPackages */\n      0x04\n        /* \"Farming.sol\":8633:8652  farmPackages.length */\n      dup1\n      sload\n      swap1\n      pop\n        /* \"Farming.sol\":8633:8656  farmPackages.length - 1 */\n      tag_148\n      swap2\n      swap1\n      tag_149\n      jump\t// in\n    tag_148:\n        /* \"Farming.sol\":8602:8754  PackageConfigured(... */\n      0x05752c03e5c1d84a4868e347be593e78a3f0f449821ff8e628806e528a877618\n        /* \"Farming.sol\":8670:8680  stakeToken */\n      dup6\n        /* \"Farming.sol\":8694:8702  duration */\n      dup6\n        /* \"Farming.sol\":8716:8722  apyBps */\n      dup6\n        /* \"Farming.sol\":8736:8744  minStake */\n      dup6\n        /* \"Farming.sol\":8602:8754  PackageConfigured(... */\n      mload(0x40)\n      tag_150\n      swap5\n      swap4\n      swap3\n      swap2\n      swap1\n      tag_151\n      jump\t// in\n    tag_150:\n      mload(0x40)\n      dup1\n      swap2\n      sub\n      swap1\n      log2\n        /* \"Farming.sol\":7962:8761  function configureNewPackage(... */\n      pop\n      pop\n      pop\n      pop\n      jump\t// out\n        /* \"Farming.sol\":8767:9017  function updatePackageStatus(uint256 packageId, bool isActive)... */\n    tag_45:\n        /* \"@openzeppelin/contracts/access/Ownable.sol\":1531:1544  _checkOwner() */\n      tag_153\n        /* \"@openzeppelin/contracts/access/Ownable.sol\":1531:1542  _checkOwner */\n      tag_135\n        /* \"@openzeppelin/contracts/access/Ownable.sol\":1531:1544  _checkOwner() */\n      jump\t// in\n    tag_153:\n        /* \"Farming.sol\":8886:8895  packageId */\n      dup2\n        /* \"Farming.sol\":2822:2834  farmPackages */\n      0x04\n        /* \"Farming.sol\":2822:2841  farmPackages.length */\n      dup1\n      sload\n      swap1\n      pop\n        /* \"Farming.sol\":2810:2819  packageId */\n      dup2\n        /* \"Farming.sol\":2810:2841  packageId < farmPackages.length */\n      lt\n        /* \"Farming.sol\":2802:2864  require(packageId < farmPackages.length, \"Invalid package ID\") */\n      tag_155\n      jumpi\n      mload(0x40)\n      0x08c379a000000000000000000000000000000000000000000000000000000000\n      dup2\n      mstore\n      0x04\n      add\n      tag_156\n      swap1\n      tag_157\n      jump\t// in\n    tag_156:\n      mload(0x40)\n      dup1\n      swap2\n      sub\n      swap1\n      revert\n    tag_155:\n        /* \"Farming.sol\":8946:8954  isActive */\n      dup2\n        /* \"Farming.sol\":8911:8923  farmPackages */\n      0x04\n        /* \"Farming.sol\":8924:8933  packageId */\n      dup5\n        /* \"Farming.sol\":8911:8934  farmPackages[packageId] */\n      dup2\n      sload\n      dup2\n      lt\n      tag_159\n      jumpi\n      tag_160\n      tag_161\n      jump\t// in\n    tag_160:\n    tag_159:\n      swap1\n      0x00\n      mstore\n      keccak256(0x00, 0x20)\n      swap1\n      0x05\n      mul\n      add\n        /* \"Farming.sol\":8911:8943  farmPackages[packageId].isActive */\n      0x04\n      add\n      0x00\n        /* \"Farming.sol\":8911:8954  farmPackages[packageId].isActive = isActive */\n      0x0100\n      exp\n      dup2\n      sload\n      dup2\n      0xff\n      mul\n      not\n      and\n      swap1\n      dup4\n      iszero\n      iszero\n      mul\n      or\n      swap1\n      sstore\n      pop\n        /* \"Farming.sol\":8990:8999  packageId */\n      dup3\n        /* \"Farming.sol\":8969:9010  PackageStatusChanged(packageId, isActive) */\n      0x27ffac29f91e32ed296e1ae41a59f23ebefbcac53eb28251a6fd6a5be271970a\n        /* \"Farming.sol\":9001:9009  isActive */\n      dup4\n        /* \"Farming.sol\":8969:9010  PackageStatusChanged(packageId, isActive) */\n      mload(0x40)\n      tag_163\n      swap2\n      swap1\n      tag_66\n      jump\t// in\n    tag_163:\n      mload(0x40)\n      dup1\n      swap2\n      sub\n      swap1\n      log2\n        /* \"@openzeppelin/contracts/access/Ownable.sol\":1554:1555  _ */\n      pop\n        /* \"Farming.sol\":8767:9017  function updatePackageStatus(uint256 packageId, bool isActive)... */\n      pop\n      pop\n      jump\t// out\n        /* \"Farming.sol\":5317:6323  function withdrawStake(uint256 stakeId)... */\n    tag_49:\n        /* \"@openzeppelin/contracts/security/ReentrancyGuard.sol\":2261:2282  _nonReentrantBefore() */\n      tag_165\n        /* \"@openzeppelin/contracts/security/ReentrancyGuard.sol\":2261:2280  _nonReentrantBefore */\n      tag_166\n        /* \"@openzeppelin/contracts/security/ReentrancyGuard.sol\":2261:2282  _nonReentrantBefore() */\n      jump\t// in\n    tag_165:\n        /* \"Farming.sol\":5414:5424  msg.sender */\n      caller\n        /* \"Farming.sol\":5426:5433  stakeId */\n      dup2\n        /* \"Farming.sol\":2967:2977  userStakes */\n      0x08\n        /* \"Farming.sol\":2967:2983  userStakes[user] */\n      0x00\n        /* \"Farming.sol\":2978:2982  user */\n      dup4\n        /* \"Farming.sol\":2967:2983  userStakes[user] */\n      0xffffffffffffffffffffffffffffffffffffffff\n      and\n      0xffffffffffffffffffffffffffffffffffffffff\n      and\n      dup2\n      mstore\n      0x20\n      add\n      swap1\n      dup2\n      mstore\n      0x20\n      add\n      0x00\n      keccak256\n        /* \"Farming.sol\":2967:2990  userStakes[user].length */\n      dup1\n      sload\n      swap1\n      pop\n        /* \"Farming.sol\":2957:2964  stakeId */\n      dup2\n        /* \"Farming.sol\":2957:2990  stakeId < userStakes[user].length */\n      lt\n        /* \"Farming.sol\":2949:3011  require(stakeId < userStakes[user].length, \"Invalid stake ID\") */\n      tag_168\n      jumpi\n      mload(0x40)\n      0x08c379a000000000000000000000000000000000000000000000000000000000\n      dup2\n      mstore\n      0x04\n      add\n      tag_169\n      swap1\n      tag_170\n      jump\t// in\n    tag_169:\n      mload(0x40)\n      dup1\n      swap2\n      sub\n      swap1\n      revert\n    tag_168:\n        /* \"Farming.sol\":3070:3071  0 */\n      0x00\n        /* \"Farming.sol\":3029:3039  userStakes */\n      0x08\n        /* \"Farming.sol\":3029:3045  userStakes[user] */\n      0x00\n        /* \"Farming.sol\":3040:3044  user */\n      dup5\n        /* \"Farming.sol\":3029:3045  userStakes[user] */\n      0xffffffffffffffffffffffffffffffffffffffff\n      and\n      0xffffffffffffffffffffffffffffffffffffffff\n      and\n      dup2\n      mstore\n      0x20\n      add\n      swap1\n      dup2\n      mstore\n      0x20\n      add\n      0x00\n      keccak256\n        /* \"Farming.sol\":3046:3053  stakeId */\n      dup3\n        /* \"Farming.sol\":3029:3054  userStakes[user][stakeId] */\n      dup2\n      sload\n      dup2\n      lt\n      tag_171\n      jumpi\n      tag_172\n      tag_161\n      jump\t// in\n    tag_172:\n    tag_171:\n      swap1\n      0x00\n      mstore\n      keccak256(0x00, 0x20)\n      swap1\n      0x05\n      mul\n      add\n        /* \"Farming.sol\":3029:3067  userStakes[user][stakeId].stakedAmount */\n      0x01\n      add\n      sload\n        /* \"Farming.sol\":3029:3071  userStakes[user][stakeId].stakedAmount > 0 */\n      gt\n        /* \"Farming.sol\":3021:3090  require(userStakes[user][stakeId].stakedAmount > 0, \"Inactive stake\") */\n      tag_174\n      jumpi\n      mload(0x40)\n      0x08c379a000000000000000000000000000000000000000000000000000000000\n      dup2\n      mstore\n      0x04\n      add\n      tag_175\n      swap1\n      tag_176\n      jump\t// in\n    tag_175:\n      mload(0x40)\n      dup1\n      swap2\n      sub\n      swap1\n      revert\n    tag_174:\n        /* \"Farming.sol\":5449:5475  UserStake memory stakeInfo */\n      0x00\n        /* \"Farming.sol\":5478:5488  userStakes */\n      0x08\n        /* \"Farming.sol\":5478:5500  userStakes[msg.sender] */\n      0x00\n        /* \"Farming.sol\":5489:5499  msg.sender */\n      caller\n        /* \"Farming.sol\":5478:5500  userStakes[msg.sender] */\n      0xffffffffffffffffffffffffffffffffffffffff\n      and\n      0xffffffffffffffffffffffffffffffffffffffff\n      and\n      dup2\n      mstore\n      0x20\n      add\n      swap1\n      dup2\n      mstore\n      0x20\n      add\n      0x00\n      keccak256\n        /* \"Farming.sol\":5501:5508  stakeId */\n      dup5\n        /* \"Farming.sol\":5478:5509  userStakes[msg.sender][stakeId] */\n      dup2\n      sload\n      dup2\n      lt\n      tag_178\n      jumpi\n      tag_179\n      tag_161\n      jump\t// in\n    tag_179:\n    tag_178:\n      swap1\n      0x00\n      mstore\n      keccak256(0x00, 0x20)\n      swap1\n      0x05\n      mul\n      add\n        /* \"Farming.sol\":5449:5509  UserStake memory stakeInfo = userStakes[msg.sender][stakeId] */\n      mload(0x40)\n      dup1\n      0xa0\n      add\n      0x40\n      mstore\n      swap1\n      dup2\n      0x00\n      dup3\n      add\n      sload\n      dup2\n      mstore\n      0x20\n      add\n      0x01\n      dup3\n      add\n      sload\n      dup2\n      mstore\n      0x20\n      add\n      0x02\n      dup3\n      add\n      sload\n      dup2\n      mstore\n      0x20\n      add\n      0x03\n      dup3\n      add\n      sload\n      dup2\n      mstore\n      0x20\n      add\n      0x04\n      dup3\n      add\n      0x00\n      swap1\n      sload\n      swap1\n      0x0100\n      exp\n      swap1\n      div\n      0xff\n      and\n      iszero\n      iszero\n      iszero\n      iszero\n      dup2\n      mstore\n      pop\n      pop\n      swap1\n      pop\n        /* \"Farming.sol\":5519:5545  FarmPackage memory package */\n      0x00\n        /* \"Farming.sol\":5548:5560  farmPackages */\n      0x04\n        /* \"Farming.sol\":5561:5570  stakeInfo */\n      dup3\n        /* \"Farming.sol\":5561:5580  stakeInfo.packageId */\n      0x00\n      add\n      mload\n        /* \"Farming.sol\":5548:5581  farmPackages[stakeInfo.packageId] */\n      dup2\n      sload\n      dup2\n      lt\n      tag_181\n      jumpi\n      tag_182\n      tag_161\n      jump\t// in\n    tag_182:\n    tag_181:\n      swap1\n      0x00\n      mstore\n      keccak256(0x00, 0x20)\n      swap1\n      0x05\n      mul\n      add\n        /* \"Farming.sol\":5519:5581  FarmPackage memory package = farmPackages[stakeInfo.packageId] */\n      mload(0x40)\n      dup1\n      0xa0\n      add\n      0x40\n      mstore\n      swap1\n      dup2\n      0x00\n      dup3\n      add\n      0x00\n      swap1\n      sload\n      swap1\n      0x0100\n      exp\n      swap1\n      div\n      0xffffffffffffffffffffffffffffffffffffffff\n      and\n      0xffffffffffffffffffffffffffffffffffffffff\n      and\n      0xffffffffffffffffffffffffffffffffffffffff\n      and\n      dup2\n      mstore\n      0x20\n      add\n      0x01\n      dup3\n      add\n      sload\n      dup2\n      mstore\n      0x20\n      add\n      0x02\n      dup3\n      add\n      sload\n      dup2\n      mstore\n      0x20\n      add\n      0x03\n      dup3\n      add\n      sload\n      dup2\n      mstore\n      0x20\n      add\n      0x04\n      dup3\n      add\n      0x00\n      swap1\n      sload\n      swap1\n      0x0100\n      exp\n      swap1\n      div\n      0xff\n      and\n      iszero\n      iszero\n      iszero\n      iszero\n      dup2\n      mstore\n      pop\n      pop\n      swap1\n      pop\n        /* \"Farming.sol\":5664:5671  package */\n      dup1\n        /* \"Farming.sol\":5664:5684  package.lockDuration */\n      0x20\n      add\n      mload\n        /* \"Farming.sol\":5632:5641  stakeInfo */\n      dup3\n        /* \"Farming.sol\":5632:5661  stakeInfo.stakeStartTimestamp */\n      0x40\n      add\n      mload\n        /* \"Farming.sol\":5632:5684  stakeInfo.stakeStartTimestamp + package.lockDuration */\n      tag_184\n      swap2\n      swap1\n      tag_185\n      jump\t// in\n    tag_184:\n        /* \"Farming.sol\":5613:5628  block.timestamp */\n      timestamp\n        /* \"Farming.sol\":5613:5684  block.timestamp >= stakeInfo.stakeStartTimestamp + package.lockDuration */\n      lt\n      iszero\n        /* \"Farming.sol\":5592:5728  require(... */\n      tag_186\n      jumpi\n      mload(0x40)\n      0x08c379a000000000000000000000000000000000000000000000000000000000\n      dup2\n      mstore\n      0x04\n      add\n      tag_187\n      swap1\n      tag_188\n      jump\t// in\n    tag_187:\n      mload(0x40)\n      dup1\n      swap2\n      sub\n      swap1\n      revert\n    tag_186:\n        /* \"Farming.sol\":5739:5759  uint256 rewardAmount */\n      0x00\n        /* \"Farming.sol\":5762:5807  _calculateAccruedRewards(msg.sender, stakeId) */\n      tag_189\n        /* \"Farming.sol\":5787:5797  msg.sender */\n      caller\n        /* \"Farming.sol\":5799:5806  stakeId */\n      dup8\n        /* \"Farming.sol\":5762:5786  _calculateAccruedRewards */\n      tag_190\n        /* \"Farming.sol\":5762:5807  _calculateAccruedRewards(msg.sender, stakeId) */\n      jump\t// in\n    tag_189:\n        /* \"Farming.sol\":5739:5807  uint256 rewardAmount = _calculateAccruedRewards(msg.sender, stakeId) */\n      swap1\n      pop\n        /* \"Farming.sol\":5817:5840  uint256 principalAmount */\n      0x00\n        /* \"Farming.sol\":5843:5852  stakeInfo */\n      dup4\n        /* \"Farming.sol\":5843:5865  stakeInfo.stakedAmount */\n      0x20\n      add\n      mload\n        /* \"Farming.sol\":5817:5865  uint256 principalAmount = stakeInfo.stakedAmount */\n      swap1\n      pop\n        /* \"Farming.sol\":5945:5955  userStakes */\n      0x08\n        /* \"Farming.sol\":5945:5967  userStakes[msg.sender] */\n      0x00\n        /* \"Farming.sol\":5956:5966  msg.sender */\n      caller\n        /* \"Farming.sol\":5945:5967  userStakes[msg.sender] */\n      0xffffffffffffffffffffffffffffffffffffffff\n      and\n      0xffffffffffffffffffffffffffffffffffffffff\n      and\n      dup2\n      mstore\n      0x20\n      add\n      swap1\n      dup2\n      mstore\n      0x20\n      add\n      0x00\n      keccak256\n        /* \"Farming.sol\":5968:5975  stakeId */\n      dup8\n        /* \"Farming.sol\":5945:5976  userStakes[msg.sender][stakeId] */\n      dup2\n      sload\n      dup2\n      lt\n      tag_191\n      jumpi\n      tag_192\n      tag_161\n      jump\t// in\n    tag_192:\n    tag_191:\n      swap1\n      0x00\n      mstore\n      keccak256(0x00, 0x20)\n      swap1\n      0x05\n      mul\n      add\n      0x00\n        /* \"Farming.sol\":5938:5976  delete userStakes[msg.sender][stakeId] */\n      0x00\n      dup3\n      add\n      0x00\n      swap1\n      sstore\n      0x01\n      dup3\n      add\n      0x00\n      swap1\n      sstore\n      0x02\n      dup3\n      add\n      0x00\n      swap1\n      sstore\n      0x03\n      dup3\n      add\n      0x00\n      swap1\n      sstore\n      0x04\n      dup3\n      add\n      exp(0x0100, 0x00)\n      dup2\n      sload\n      swap1\n      0xff\n      mul\n      not\n      and\n      swap1\n      sstore\n      pop\n      pop\n        /* \"Farming.sol\":6017:6092  IERC20(package.stakeTokenAddress).safeTransfer(msg.sender, principalAmount) */\n      tag_194\n        /* \"Farming.sol\":6064:6074  msg.sender */\n      caller\n        /* \"Farming.sol\":6076:6091  principalAmount */\n      dup3\n        /* \"Farming.sol\":6024:6031  package */\n      dup6\n        /* \"Farming.sol\":6024:6049  package.stakeTokenAddress */\n      0x00\n      add\n      mload\n        /* \"Farming.sol\":6017:6063  IERC20(package.stakeTokenAddress).safeTransfer */\n      0xffffffffffffffffffffffffffffffffffffffff\n      and\n      tag_195\n      swap1\n        /* \"Farming.sol\":6017:6092  IERC20(package.stakeTokenAddress).safeTransfer(msg.sender, principalAmount) */\n      swap3\n      swap2\n      swap1\n      0xffffffff\n      and\n      jump\t// in\n    tag_194:\n        /* \"Farming.sol\":6157:6158  0 */\n      0x00\n        /* \"Farming.sol\":6142:6154  rewardAmount */\n      dup3\n        /* \"Farming.sol\":6142:6158  rewardAmount > 0 */\n      gt\n        /* \"Farming.sol\":6138:6235  if (rewardAmount > 0) {... */\n      iszero\n      tag_196\n      jumpi\n        /* \"Farming.sol\":6174:6224  rewardToken.safeTransfer(msg.sender, rewardAmount) */\n      tag_197\n        /* \"Farming.sol\":6199:6209  msg.sender */\n      caller\n        /* \"Farming.sol\":6211:6223  rewardAmount */\n      dup4\n        /* \"Farming.sol\":6174:6185  rewardToken */\n      immutable(\"0xef764c0d6484421d36739b89ad3d60c379efca83bed6303739614a73e091b0d2\")\n        /* \"Farming.sol\":6174:6198  rewardToken.safeTransfer */\n      0xffffffffffffffffffffffffffffffffffffffff\n      and\n      tag_195\n      swap1\n        /* \"Farming.sol\":6174:6224  rewardToken.safeTransfer(msg.sender, rewardAmount) */\n      swap3\n      swap2\n      swap1\n      0xffffffff\n      and\n      jump\t// in\n    tag_197:\n        /* \"Farming.sol\":6138:6235  if (rewardAmount > 0) {... */\n    tag_196:\n        /* \"Farming.sol\":6277:6284  stakeId */\n      dup7\n        /* \"Farming.sol\":6265:6275  msg.sender */\n      caller\n        /* \"Farming.sol\":6250:6316  StakeWithdrawn(msg.sender, stakeId, principalAmount, rewardAmount) */\n      0xffffffffffffffffffffffffffffffffffffffff\n      and\n      0x88d1c46373223a4f1f60db2badc985b05ec9c2b2eab4537f0f8e1291b78b6e37\n        /* \"Farming.sol\":6286:6301  principalAmount */\n      dup4\n        /* \"Farming.sol\":6303:6315  rewardAmount */\n      dup6\n        /* \"Farming.sol\":6250:6316  StakeWithdrawn(msg.sender, stakeId, principalAmount, rewardAmount) */\n      mload(0x40)\n      tag_198\n      swap3\n      swap2\n      swap1\n      tag_199\n      jump\t// in\n    tag_198:\n      mload(0x40)\n      dup1\n      swap2\n      sub\n      swap1\n      log3\n        /* \"Farming.sol\":5439:6323  {... */\n      pop\n      pop\n      pop\n      pop\n        /* \"@openzeppelin/contracts/security/ReentrancyGuard.sol\":2292:2293  _ */\n      pop\n      pop\n        /* \"@openzeppelin/contracts/security/ReentrancyGuard.sol\":2303:2323  _nonReentrantAfter() */\n      tag_200\n        /* \"@openzeppelin/contracts/security/ReentrancyGuard.sol\":2303:2321  _nonReentrantAfter */\n      tag_201\n        /* \"@openzeppelin/contracts/security/ReentrancyGuard.sol\":2303:2323  _nonReentrantAfter() */\n      jump\t// in\n    tag_200:\n        /* \"Farming.sol\":5317:6323  function withdrawStake(uint256 stakeId)... */\n      pop\n      jump\t// out\n        /* \"Farming.sol\":1573:1611  uint256 public autoCompoundFeeBps = 50 */\n    tag_51:\n      sload(0x06)\n      dup2\n      jump\t// out\n        /* \"Farming.sol\":9944:10284  function withdrawAccumulatedFees() external {... */\n    tag_55:\n        /* \"Farming.sol\":10020:10032  feeCollector */\n      0x05\n      0x00\n      swap1\n      sload\n      swap1\n      0x0100\n      exp\n      swap1\n      div\n      0xffffffffffffffffffffffffffffffffffffffff\n      and\n        /* \"Farming.sol\":10006:10032  msg.sender == feeCollector */\n      0xffffffffffffffffffffffffffffffffffffffff\n      and\n        /* \"Farming.sol\":10006:10016  msg.sender */\n      caller\n        /* \"Farming.sol\":10006:10032  msg.sender == feeCollector */\n      0xffffffffffffffffffffffffffffffffffffffff\n      and\n      eq\n        /* \"Farming.sol\":9998:10051  require(msg.sender == feeCollector, \"Not authorized\") */\n      tag_203\n      jumpi\n      mload(0x40)\n      0x08c379a000000000000000000000000000000000000000000000000000000000\n      dup2\n      mstore\n      0x04\n      add\n      tag_204\n      swap1\n      tag_205\n      jump\t// in\n    tag_204:\n      mload(0x40)\n      dup1\n      swap2\n      sub\n      swap1\n      revert\n    tag_203:\n        /* \"Farming.sol\":10061:10075  uint256 amount */\n      0x00\n        /* \"Farming.sol\":10078:10092  feePoolBalance */\n      sload(0x07)\n        /* \"Farming.sol\":10061:10092  uint256 amount = feePoolBalance */\n      swap1\n      pop\n        /* \"Farming.sol\":10119:10120  0 */\n      0x00\n        /* \"Farming.sol\":10110:10116  amount */\n      dup2\n        /* \"Farming.sol\":10110:10120  amount > 0 */\n      gt\n        /* \"Farming.sol\":10102:10142  require(amount > 0, \"No fees available\") */\n      tag_206\n      jumpi\n      mload(0x40)\n      0x08c379a000000000000000000000000000000000000000000000000000000000\n      dup2\n      mstore\n      0x04\n      add\n      tag_207\n      swap1\n      tag_208\n      jump\t// in\n    tag_207:\n      mload(0x40)\n      dup1\n      swap2\n      sub\n      swap1\n      revert\n    tag_206:\n        /* \"Farming.sol\":10170:10171  0 */\n      0x00\n        /* \"Farming.sol\":10153:10167  feePoolBalance */\n      0x07\n        /* \"Farming.sol\":10153:10171  feePoolBalance = 0 */\n      dup2\n      swap1\n      sstore\n      pop\n        /* \"Farming.sol\":10181:10227  rewardToken.safeTransfer(feeCollector, amount) */\n      tag_209\n        /* \"Farming.sol\":10206:10218  feeCollector */\n      0x05\n      0x00\n      swap1\n      sload\n      swap1\n      0x0100\n      exp\n      swap1\n      div\n      0xffffffffffffffffffffffffffffffffffffffff\n      and\n        /* \"Farming.sol\":10220:10226  amount */\n      dup3\n        /* \"Farming.sol\":10181:10192  rewardToken */\n      immutable(\"0xef764c0d6484421d36739b89ad3d60c379efca83bed6303739614a73e091b0d2\")\n        /* \"Farming.sol\":10181:10205  rewardToken.safeTransfer */\n      0xffffffffffffffffffffffffffffffffffffffff\n      and\n      tag_195\n      swap1\n        /* \"Farming.sol\":10181:10227  rewardToken.safeTransfer(feeCollector, amount) */\n      swap3\n      swap2\n      swap1\n      0xffffffff\n      and\n      jump\t// in\n    tag_209:\n        /* \"Farming.sol\":10242:10277  FeesWithdrawn(feeCollector, amount) */\n      0xc0819c13be868895eb93e40eaceb96de976442fa1d404e5c55f14bb65a8c489a\n        /* \"Farming.sol\":10256:10268  feeCollector */\n      0x05\n      0x00\n      swap1\n      sload\n      swap1\n      0x0100\n      exp\n      swap1\n      div\n      0xffffffffffffffffffffffffffffffffffffffff\n      and\n        /* \"Farming.sol\":10270:10276  amount */\n      dup3\n        /* \"Farming.sol\":10242:10277  FeesWithdrawn(feeCollector, amount) */\n      mload(0x40)\n      tag_210\n      swap3\n      swap2\n      swap1\n      tag_211\n      jump\t// in\n    tag_210:\n      mload(0x40)\n      dup1\n      swap2\n      sub\n      swap1\n      log1\n        /* \"Farming.sol\":9988:10284  {... */\n      pop\n        /* \"Farming.sol\":9944:10284  function withdrawAccumulatedFees() external {... */\n      jump\t// out\n        /* \"Farming.sol\":10366:10440  function emergencyUnpause() external onlyOwner {... */\n    tag_57:\n        /* \"@openzeppelin/contracts/access/Ownable.sol\":1531:1544  _checkOwner() */\n      tag_213\n        /* \"@openzeppelin/contracts/access/Ownable.sol\":1531:1542  _checkOwner */\n      tag_135\n        /* \"@openzeppelin/contracts/access/Ownable.sol\":1531:1544  _checkOwner() */\n      jump\t// in\n    tag_213:\n        /* \"Farming.sol\":10423:10433  _unpause() */\n      tag_215\n        /* \"Farming.sol\":10423:10431  _unpause */\n      tag_216\n        /* \"Farming.sol\":10423:10433  _unpause() */\n      jump\t// in\n    tag_215:\n        /* \"Farming.sol\":10366:10440  function emergencyUnpause() external onlyOwner {... */\n      jump\t// out\n        /* \"Farming.sol\":10290:10360  function emergencyPause() external onlyOwner {... */\n    tag_59:\n        /* \"@openzeppelin/contracts/access/Ownable.sol\":1531:1544  _checkOwner() */\n      tag_218\n        /* \"@openzeppelin/contracts/access/Ownable.sol\":1531:1542  _checkOwner */\n      tag_135\n        /* \"@openzeppelin/contracts/access/Ownable.sol\":1531:1544  _checkOwner() */\n      jump\t// in\n    tag_218:\n        /* \"Farming.sol\":10345:10353  _pause() */\n      tag_220\n        /* \"Farming.sol\":10345:10351  _pause */\n      tag_221\n        /* \"Farming.sol\":10345:10353  _pause() */\n      jump\t// in\n    tag_220:\n        /* \"Farming.sol\":10290:10360  function emergencyPause() external onlyOwner {... */\n      jump\t// out\n        /* \"Farming.sol\":6329:6686  function toggleAutoCompound(uint256 stakeId)... */\n    tag_62:\n        /* \"@openzeppelin/contracts/security/ReentrancyGuard.sol\":2261:2282  _nonReentrantBefore() */\n      tag_223\n        /* \"@openzeppelin/contracts/security/ReentrancyGuard.sol\":2261:2280  _nonReentrantBefore */\n      tag_166\n        /* \"@openzeppelin/contracts/security/ReentrancyGuard.sol\":2261:2282  _nonReentrantBefore() */\n      jump\t// in\n    tag_223:\n        /* \"Farming.sol\":6431:6441  msg.sender */\n      caller\n        /* \"Farming.sol\":6443:6450  stakeId */\n      dup2\n        /* \"Farming.sol\":2967:2977  userStakes */\n      0x08\n        /* \"Farming.sol\":2967:2983  userStakes[user] */\n      0x00\n        /* \"Farming.sol\":2978:2982  user */\n      dup4\n        /* \"Farming.sol\":2967:2983  userStakes[user] */\n      0xffffffffffffffffffffffffffffffffffffffff\n      and\n      0xffffffffffffffffffffffffffffffffffffffff\n      and\n      dup2\n      mstore\n      0x20\n      add\n      swap1\n      dup2\n      mstore\n      0x20\n      add\n      0x00\n      keccak256\n        /* \"Farming.sol\":2967:2990  userStakes[user].length */\n      dup1\n      sload\n      swap1\n      pop\n        /* \"Farming.sol\":2957:2964  stakeId */\n      dup2\n        /* \"Farming.sol\":2957:2990  stakeId < userStakes[user].length */\n      lt\n        /* \"Farming.sol\":2949:3011  require(stakeId < userStakes[user].length, \"Invalid stake ID\") */\n      tag_225\n      jumpi\n      mload(0x40)\n      0x08c379a000000000000000000000000000000000000000000000000000000000\n      dup2\n      mstore\n      0x04\n      add\n      tag_226\n      swap1\n      tag_170\n      jump\t// in\n    tag_226:\n      mload(0x40)\n      dup1\n      swap2\n      sub\n      swap1\n      revert\n    tag_225:\n        /* \"Farming.sol\":3070:3071  0 */\n      0x00\n        /* \"Farming.sol\":3029:3039  userStakes */\n      0x08\n        /* \"Farming.sol\":3029:3045  userStakes[user] */\n      0x00\n        /* \"Farming.sol\":3040:3044  user */\n      dup5\n        /* \"Farming.sol\":3029:3045  userStakes[user] */\n      0xffffffffffffffffffffffffffffffffffffffff\n      and\n      0xffffffffffffffffffffffffffffffffffffffff\n      and\n      dup2\n      mstore\n      0x20\n      add\n      swap1\n      dup2\n      mstore\n      0x20\n      add\n      0x00\n      keccak256\n        /* \"Farming.sol\":3046:3053  stakeId */\n      dup3\n        /* \"Farming.sol\":3029:3054  userStakes[user][stakeId] */\n      dup2\n      sload\n      dup2\n      lt\n      tag_227\n      jumpi\n      tag_228\n      tag_161\n      jump\t// in\n    tag_228:\n    tag_227:\n      swap1\n      0x00\n      mstore\n      keccak256(0x00, 0x20)\n      swap1\n      0x05\n      mul\n      add\n        /* \"Farming.sol\":3029:3067  userStakes[user][stakeId].stakedAmount */\n      0x01\n      add\n      sload\n        /* \"Farming.sol\":3029:3071  userStakes[user][stakeId].stakedAmount > 0 */\n      gt\n        /* \"Farming.sol\":3021:3090  require(userStakes[user][stakeId].stakedAmount > 0, \"Inactive stake\") */\n      tag_230\n      jumpi\n      mload(0x40)\n      0x08c379a000000000000000000000000000000000000000000000000000000000\n      dup2\n      mstore\n      0x04\n      add\n      tag_231\n      swap1\n      tag_176\n      jump\t// in\n    tag_231:\n      mload(0x40)\n      dup1\n      swap2\n      sub\n      swap1\n      revert\n    tag_230:\n        /* \"Farming.sol\":6466:6493  UserStake storage stakeInfo */\n      0x00\n        /* \"Farming.sol\":6496:6506  userStakes */\n      0x08\n        /* \"Farming.sol\":6496:6518  userStakes[msg.sender] */\n      0x00\n        /* \"Farming.sol\":6507:6517  msg.sender */\n      caller\n        /* \"Farming.sol\":6496:6518  userStakes[msg.sender] */\n      0xffffffffffffffffffffffffffffffffffffffff\n      and\n      0xffffffffffffffffffffffffffffffffffffffff\n      and\n      dup2\n      mstore\n      0x20\n      add\n      swap1\n      dup2\n      mstore\n      0x20\n      add\n      0x00\n      keccak256\n        /* \"Farming.sol\":6519:6526  stakeId */\n      dup5\n        /* \"Farming.sol\":6496:6527  userStakes[msg.sender][stakeId] */\n      dup2\n      sload\n      dup2\n      lt\n      tag_233\n      jumpi\n      tag_234\n      tag_161\n      jump\t// in\n    tag_234:\n    tag_233:\n      swap1\n      0x00\n      mstore\n      keccak256(0x00, 0x20)\n      swap1\n      0x05\n      mul\n      add\n        /* \"Farming.sol\":6466:6527  UserStake storage stakeInfo = userStakes[msg.sender][stakeId] */\n      swap1\n      pop\n        /* \"Farming.sol\":6568:6577  stakeInfo */\n      dup1\n        /* \"Farming.sol\":6568:6595  stakeInfo.isAutoCompounding */\n      0x04\n      add\n      0x00\n      swap1\n      sload\n      swap1\n      0x0100\n      exp\n      swap1\n      div\n      0xff\n      and\n        /* \"Farming.sol\":6567:6595  !stakeInfo.isAutoCompounding */\n      iszero\n        /* \"Farming.sol\":6537:6546  stakeInfo */\n      dup2\n        /* \"Farming.sol\":6537:6564  stakeInfo.isAutoCompounding */\n      0x04\n      add\n      0x00\n        /* \"Farming.sol\":6537:6595  stakeInfo.isAutoCompounding = !stakeInfo.isAutoCompounding */\n      0x0100\n      exp\n      dup2\n      sload\n      dup2\n      0xff\n      mul\n      not\n      and\n      swap1\n      dup4\n      iszero\n      iszero\n      mul\n      or\n      swap1\n      sstore\n      pop\n        /* \"Farming.sol\":6642:6649  stakeId */\n      dup4\n        /* \"Farming.sol\":6630:6640  msg.sender */\n      caller\n        /* \"Farming.sol\":6610:6679  AutoCompoundToggled(msg.sender, stakeId, stakeInfo.isAutoCompounding) */\n      0xffffffffffffffffffffffffffffffffffffffff\n      and\n      0xd9a4263cd64bef5364cf9865147c8561e0c7151a9e1d79d8aa67df565aa96efe\n        /* \"Farming.sol\":6651:6660  stakeInfo */\n      dup4\n        /* \"Farming.sol\":6651:6678  stakeInfo.isAutoCompounding */\n      0x04\n      add\n      0x00\n      swap1\n      sload\n      swap1\n      0x0100\n      exp\n      swap1\n      div\n      0xff\n      and\n        /* \"Farming.sol\":6610:6679  AutoCompoundToggled(msg.sender, stakeId, stakeInfo.isAutoCompounding) */\n      mload(0x40)\n      tag_236\n      swap2\n      swap1\n      tag_66\n      jump\t// in\n    tag_236:\n      mload(0x40)\n      dup1\n      swap2\n      sub\n      swap1\n      log3\n        /* \"Farming.sol\":6456:6686  {... */\n      pop\n        /* \"@openzeppelin/contracts/security/ReentrancyGuard.sol\":2292:2293  _ */\n      pop\n      pop\n        /* \"@openzeppelin/contracts/security/ReentrancyGuard.sol\":2303:2323  _nonReentrantAfter() */\n      tag_237\n        /* \"@openzeppelin/contracts/security/ReentrancyGuard.sol\":2303:2321  _nonReentrantAfter */\n      tag_201\n        /* \"@openzeppelin/contracts/security/ReentrancyGuard.sol\":2303:2323  _nonReentrantAfter() */\n      jump\t// in\n    tag_237:\n        /* \"Farming.sol\":6329:6686  function toggleAutoCompound(uint256 stakeId)... */\n      pop\n      jump\t// out\n        /* \"@openzeppelin/contracts/security/Pausable.sol\":1615:1699  function paused() public view virtual returns (bool) {... */\n    tag_64:\n        /* \"@openzeppelin/contracts/security/Pausable.sol\":1662:1666  bool */\n      0x00\n        /* \"@openzeppelin/contracts/security/Pausable.sol\":1685:1692  _paused */\n      0x03\n      0x00\n      swap1\n      sload\n      swap1\n      0x0100\n      exp\n      swap1\n      div\n      0xff\n      and\n        /* \"@openzeppelin/contracts/security/Pausable.sol\":1678:1692  return _paused */\n      swap1\n      pop\n        /* \"@openzeppelin/contracts/security/Pausable.sol\":1615:1699  function paused() public view virtual returns (bool) {... */\n      swap1\n      jump\t// out\n        /* \"Farming.sol\":7589:7785  function getPackageDetails(uint256 packageId)... */\n    tag_69:\n        /* \"Farming.sol\":7714:7732  FarmPackage memory */\n      tag_239\n      tag_240\n      jump\t// in\n    tag_239:\n        /* \"Farming.sol\":7686:7695  packageId */\n      dup2\n        /* \"Farming.sol\":2822:2834  farmPackages */\n      0x04\n        /* \"Farming.sol\":2822:2841  farmPackages.length */\n      dup1\n      sload\n      swap1\n      pop\n        /* \"Farming.sol\":2810:2819  packageId */\n      dup2\n        /* \"Farming.sol\":2810:2841  packageId < farmPackages.length */\n      lt\n        /* \"Farming.sol\":2802:2864  require(packageId < farmPackages.length, \"Invalid package ID\") */\n      tag_242\n      jumpi\n      mload(0x40)\n      0x08c379a000000000000000000000000000000000000000000000000000000000\n      dup2\n      mstore\n      0x04\n      add\n      tag_243\n      swap1\n      tag_157\n      jump\t// in\n    tag_243:\n      mload(0x40)\n      dup1\n      swap2\n      sub\n      swap1\n      revert\n    tag_242:\n        /* \"Farming.sol\":7755:7767  farmPackages */\n      0x04\n        /* \"Farming.sol\":7768:7777  packageId */\n      dup4\n        /* \"Farming.sol\":7755:7778  farmPackages[packageId] */\n      dup2\n      sload\n      dup2\n      lt\n      tag_245\n      jumpi\n      tag_246\n      tag_161\n      jump\t// in\n    tag_246:\n    tag_245:\n      swap1\n      0x00\n      mstore\n      keccak256(0x00, 0x20)\n      swap1\n      0x05\n      mul\n      add\n        /* \"Farming.sol\":7748:7778  return farmPackages[packageId] */\n      mload(0x40)\n      dup1\n      0xa0\n      add\n      0x40\n      mstore\n      swap1\n      dup2\n      0x00\n      dup3\n      add\n      0x00\n      swap1\n      sload\n      swap1\n      0x0100\n      exp\n      swap1\n      div\n      0xffffffffffffffffffffffffffffffffffffffff\n      and\n      0xffffffffffffffffffffffffffffffffffffffff\n      and\n      0xffffffffffffffffffffffffffffffffffffffff\n      and\n      dup2\n      mstore\n      0x20\n      add\n      0x01\n      dup3\n      add\n      sload\n      dup2\n      mstore\n      0x20\n      add\n      0x02\n      dup3\n      add\n      sload\n      dup2\n      mstore\n      0x20\n      add\n      0x03\n      dup3\n      add\n      sload\n      dup2\n      mstore\n      0x20\n      add\n      0x04\n      dup3\n      add\n      0x00\n      swap1\n      sload\n      swap1\n      0x0100\n      exp\n      swap1\n      div\n      0xff\n      and\n      iszero\n      iszero\n      iszero\n      iszero\n      dup2\n      mstore\n      pop\n      pop\n      swap2\n      pop\n        /* \"Farming.sol\":7589:7785  function getPackageDetails(uint256 packageId)... */\n      pop\n      swap2\n      swap1\n      pop\n      jump\t// out\n        /* \"@openzeppelin/contracts/access/Ownable.sol\":2293:2394  function renounceOwnership() public virtual onlyOwner {... */\n    tag_73:\n        /* \"@openzeppelin/contracts/access/Ownable.sol\":1531:1544  _checkOwner() */\n      tag_249\n        /* \"@openzeppelin/contracts/access/Ownable.sol\":1531:1542  _checkOwner */\n      tag_135\n        /* \"@openzeppelin/contracts/access/Ownable.sol\":1531:1544  _checkOwner() */\n      jump\t// in\n    tag_249:\n        /* \"@openzeppelin/contracts/access/Ownable.sol\":2357:2387  _transferOwnership(address(0)) */\n      tag_251\n        /* \"@openzeppelin/contracts/access/Ownable.sol\":2384:2385  0 */\n      0x00\n        /* \"@openzeppelin/contracts/access/Ownable.sol\":2357:2375  _transferOwnership */\n      tag_252\n        /* \"@openzeppelin/contracts/access/Ownable.sol\":2357:2387  _transferOwnership(address(0)) */\n      jump\t// in\n    tag_251:\n        /* \"@openzeppelin/contracts/access/Ownable.sol\":2293:2394  function renounceOwnership() public virtual onlyOwner {... */\n      jump\t// out\n        /* \"@openzeppelin/contracts/access/Ownable2Step.sol\":2244:2473  function acceptOwnership() public virtual {... */\n    tag_75:\n        /* \"@openzeppelin/contracts/access/Ownable2Step.sol\":2296:2310  address sender */\n      0x00\n        /* \"@openzeppelin/contracts/access/Ownable2Step.sol\":2313:2325  _msgSender() */\n      tag_254\n        /* \"@openzeppelin/contracts/access/Ownable2Step.sol\":2313:2323  _msgSender */\n      tag_255\n        /* \"@openzeppelin/contracts/access/Ownable2Step.sol\":2313:2325  _msgSender() */\n      jump\t// in\n    tag_254:\n        /* \"@openzeppelin/contracts/access/Ownable2Step.sol\":2296:2325  address sender = _msgSender() */\n      swap1\n      pop\n        /* \"@openzeppelin/contracts/access/Ownable2Step.sol\":2357:2363  sender */\n      dup1\n        /* \"@openzeppelin/contracts/access/Ownable2Step.sol\":2339:2363  pendingOwner() != sender */\n      0xffffffffffffffffffffffffffffffffffffffff\n      and\n        /* \"@openzeppelin/contracts/access/Ownable2Step.sol\":2339:2353  pendingOwner() */\n      tag_256\n        /* \"@openzeppelin/contracts/access/Ownable2Step.sol\":2339:2351  pendingOwner */\n      tag_121\n        /* \"@openzeppelin/contracts/access/Ownable2Step.sol\":2339:2353  pendingOwner() */\n      jump\t// in\n    tag_256:\n        /* \"@openzeppelin/contracts/access/Ownable2Step.sol\":2339:2363  pendingOwner() != sender */\n      0xffffffffffffffffffffffffffffffffffffffff\n      and\n      eq\n        /* \"@openzeppelin/contracts/access/Ownable2Step.sol\":2335:2431  if (pendingOwner() != sender) {... */\n      tag_257\n      jumpi\n        /* \"@openzeppelin/contracts/access/Ownable2Step.sol\":2413:2419  sender */\n      dup1\n        /* \"@openzeppelin/contracts/access/Ownable2Step.sol\":2386:2420  OwnableUnauthorizedAccount(sender) */\n      mload(0x40)\n      0x118cdaa700000000000000000000000000000000000000000000000000000000\n      dup2\n      mstore\n      0x04\n      add\n      tag_258\n      swap2\n      swap1\n      tag_94\n      jump\t// in\n    tag_258:\n      mload(0x40)\n      dup1\n      swap2\n      sub\n      swap1\n      revert\n        /* \"@openzeppelin/contracts/access/Ownable2Step.sol\":2335:2431  if (pendingOwner() != sender) {... */\n    tag_257:\n        /* \"@openzeppelin/contracts/access/Ownable2Step.sol\":2440:2466  _transferOwnership(sender) */\n      tag_259\n        /* \"@openzeppelin/contracts/access/Ownable2Step.sol\":2459:2465  sender */\n      dup2\n        /* \"@openzeppelin/contracts/access/Ownable2Step.sol\":2440:2458  _transferOwnership */\n      tag_252\n        /* \"@openzeppelin/contracts/access/Ownable2Step.sol\":2440:2466  _transferOwnership(sender) */\n      jump\t// in\n    tag_259:\n        /* \"@openzeppelin/contracts/access/Ownable2Step.sol\":2286:2473  {... */\n      pop\n        /* \"@openzeppelin/contracts/access/Ownable2Step.sol\":2244:2473  function acceptOwnership() public virtual {... */\n      jump\t// out\n        /* \"Farming.sol\":9023:9545  function updatePackageAPY(uint256 packageId, uint256 newApyBps)... */\n    tag_79:\n        /* \"@openzeppelin/contracts/access/Ownable.sol\":1531:1544  _checkOwner() */\n      tag_261\n        /* \"@openzeppelin/contracts/access/Ownable.sol\":1531:1542  _checkOwner */\n      tag_135\n        /* \"@openzeppelin/contracts/access/Ownable.sol\":1531:1544  _checkOwner() */\n      jump\t// in\n    tag_261:\n        /* \"Farming.sol\":9143:9152  packageId */\n      dup2\n        /* \"Farming.sol\":2822:2834  farmPackages */\n      0x04\n        /* \"Farming.sol\":2822:2841  farmPackages.length */\n      dup1\n      sload\n      swap1\n      pop\n        /* \"Farming.sol\":2810:2819  packageId */\n      dup2\n        /* \"Farming.sol\":2810:2841  packageId < farmPackages.length */\n      lt\n        /* \"Farming.sol\":2802:2864  require(packageId < farmPackages.length, \"Invalid package ID\") */\n      tag_263\n      jumpi\n      mload(0x40)\n      0x08c379a000000000000000000000000000000000000000000000000000000000\n      dup2\n      mstore\n      0x04\n      add\n      tag_264\n      swap1\n      tag_157\n      jump\t// in\n    tag_264:\n      mload(0x40)\n      dup1\n      swap2\n      sub\n      swap1\n      revert\n    tag_263:\n        /* \"Farming.sol\":9188:9189  0 */\n      0x00\n        /* \"Farming.sol\":9176:9185  newApyBps */\n      dup3\n        /* \"Farming.sol\":9176:9189  newApyBps > 0 */\n      gt\n        /* \"Farming.sol\":9176:9221  newApyBps > 0 && newApyBps <= BPS_DENOMINATOR */\n      dup1\n      iszero\n      tag_266\n      jumpi\n      pop\n        /* \"Farming.sol\":1330:1335  10000 */\n      0x2710\n        /* \"Farming.sol\":9193:9202  newApyBps */\n      dup3\n        /* \"Farming.sol\":9193:9221  newApyBps <= BPS_DENOMINATOR */\n      gt\n      iszero\n        /* \"Farming.sol\":9176:9221  newApyBps > 0 && newApyBps <= BPS_DENOMINATOR */\n    tag_266:\n        /* \"Farming.sol\":9168:9237  require(newApyBps > 0 && newApyBps <= BPS_DENOMINATOR, \"Invalid APY\") */\n      tag_267\n      jumpi\n      mload(0x40)\n      0x08c379a000000000000000000000000000000000000000000000000000000000\n      dup2\n      mstore\n      0x04\n      add\n      tag_268\n      swap1\n      tag_146\n      jump\t// in\n    tag_268:\n      mload(0x40)\n      dup1\n      swap2\n      sub\n      swap1\n      revert\n    tag_267:\n        /* \"Farming.sol\":9280:9289  newApyBps */\n      dup2\n        /* \"Farming.sol\":9247:9259  farmPackages */\n      0x04\n        /* \"Farming.sol\":9260:9269  packageId */\n      dup5\n        /* \"Farming.sol\":9247:9270  farmPackages[packageId] */\n      dup2\n      sload\n      dup2\n      lt\n      tag_269\n      jumpi\n      tag_270\n      tag_161\n      jump\t// in\n    tag_270:\n    tag_269:\n      swap1\n      0x00\n      mstore\n      keccak256(0x00, 0x20)\n      swap1\n      0x05\n      mul\n      add\n        /* \"Farming.sol\":9247:9277  farmPackages[packageId].apyBps */\n      0x02\n      add\n        /* \"Farming.sol\":9247:9289  farmPackages[packageId].apyBps = newApyBps */\n      dup2\n      swap1\n      sstore\n      pop\n        /* \"Farming.sol\":9335:9344  packageId */\n      dup3\n        /* \"Farming.sol\":9304:9538  PackageConfigured(... */\n      0x05752c03e5c1d84a4868e347be593e78a3f0f449821ff8e628806e528a877618\n        /* \"Farming.sol\":9358:9370  farmPackages */\n      0x04\n        /* \"Farming.sol\":9371:9380  packageId */\n      dup6\n        /* \"Farming.sol\":9358:9381  farmPackages[packageId] */\n      dup2\n      sload\n      dup2\n      lt\n      tag_272\n      jumpi\n      tag_273\n      tag_161\n      jump\t// in\n    tag_273:\n    tag_272:\n      swap1\n      0x00\n      mstore\n      keccak256(0x00, 0x20)\n      swap1\n      0x05\n      mul\n      add\n        /* \"Farming.sol\":9358:9399  farmPackages[packageId].stakeTokenAddress */\n      0x00\n      add\n      0x00\n      swap1\n      sload\n      swap1\n      0x0100\n      exp\n      swap1\n      div\n      0xffffffffffffffffffffffffffffffffffffffff\n      and\n        /* \"Farming.sol\":9413:9425  farmPackages */\n      0x04\n        /* \"Farming.sol\":9426:9435  packageId */\n      dup7\n        /* \"Farming.sol\":9413:9436  farmPackages[packageId] */\n      dup2\n      sload\n      dup2\n      lt\n      tag_275\n      jumpi\n      tag_276\n      tag_161\n      jump\t// in\n    tag_276:\n    tag_275:\n      swap1\n      0x00\n      mstore\n      keccak256(0x00, 0x20)\n      swap1\n      0x05\n      mul\n      add\n        /* \"Farming.sol\":9413:9449  farmPackages[packageId].lockDuration */\n      0x01\n      add\n      sload\n        /* \"Farming.sol\":9463:9472  newApyBps */\n      dup6\n        /* \"Farming.sol\":9486:9498  farmPackages */\n      0x04\n        /* \"Farming.sol\":9499:9508  packageId */\n      dup9\n        /* \"Farming.sol\":9486:9509  farmPackages[packageId] */\n      dup2\n      sload\n      dup2\n      lt\n      tag_278\n      jumpi\n      tag_279\n      tag_161\n      jump\t// in\n    tag_279:\n    tag_278:\n      swap1\n      0x00\n      mstore\n      keccak256(0x00, 0x20)\n      swap1\n      0x05\n      mul\n      add\n        /* \"Farming.sol\":9486:9528  farmPackages[packageId].minimumStakeAmount */\n      0x03\n      add\n      sload\n        /* \"Farming.sol\":9304:9538  PackageConfigured(... */\n      mload(0x40)\n      tag_281\n      swap5\n      swap4\n      swap3\n      swap2\n      swap1\n      tag_151\n      jump\t// in\n    tag_281:\n      mload(0x40)\n      dup1\n      swap2\n      sub\n      swap1\n      log2\n        /* \"@openzeppelin/contracts/access/Ownable.sol\":1554:1555  _ */\n      pop\n        /* \"Farming.sol\":9023:9545  function updatePackageAPY(uint256 packageId, uint256 newApyBps)... */\n      pop\n      pop\n      jump\t// out\n        /* \"Farming.sol\":6736:6923  function calculatePendingRewards(address user, uint256 stakeId)... */\n    tag_83:\n        /* \"Farming.sol\":6847:6854  uint256 */\n      0x00\n        /* \"Farming.sol\":6877:6916  _calculateAccruedRewards(user, stakeId) */\n      tag_283\n        /* \"Farming.sol\":6902:6906  user */\n      dup4\n        /* \"Farming.sol\":6908:6915  stakeId */\n      dup4\n        /* \"Farming.sol\":6877:6901  _calculateAccruedRewards */\n      tag_190\n        /* \"Farming.sol\":6877:6916  _calculateAccruedRewards(user, stakeId) */\n      jump\t// in\n    tag_283:\n        /* \"Farming.sol\":6870:6916  return _calculateAccruedRewards(user, stakeId) */\n      swap1\n      pop\n        /* \"Farming.sol\":6736:6923  function calculatePendingRewards(address user, uint256 stakeId)... */\n      swap3\n      swap2\n      pop\n      pop\n      jump\t// out\n        /* \"Farming.sol\":7791:7911  function getUserStakes(address user) external view returns (UserStake[] memory) {... */\n    tag_88:\n        /* \"Farming.sol\":7851:7869  UserStake[] memory */\n      0x60\n        /* \"Farming.sol\":7888:7898  userStakes */\n      0x08\n        /* \"Farming.sol\":7888:7904  userStakes[user] */\n      0x00\n        /* \"Farming.sol\":7899:7903  user */\n      dup4\n        /* \"Farming.sol\":7888:7904  userStakes[user] */\n      0xffffffffffffffffffffffffffffffffffffffff\n      and\n      0xffffffffffffffffffffffffffffffffffffffff\n      and\n      dup2\n      mstore\n      0x20\n      add\n      swap1\n      dup2\n      mstore\n      0x20\n      add\n      0x00\n      keccak256\n        /* \"Farming.sol\":7881:7904  return userStakes[user] */\n      dup1\n      sload\n      dup1\n      0x20\n      mul\n      0x20\n      add\n      mload(0x40)\n      swap1\n      dup2\n      add\n      0x40\n      mstore\n      dup1\n      swap3\n      swap2\n      swap1\n      dup2\n      dup2\n      mstore\n      0x20\n      add\n      0x00\n      swap1\n    tag_285:\n      dup3\n      dup3\n      lt\n      iszero\n      tag_286\n      jumpi\n      dup4\n      dup3\n      swap1\n      0x00\n      mstore\n      keccak256(0x00, 0x20)\n      swap1\n      0x05\n      mul\n      add\n      mload(0x40)\n      dup1\n      0xa0\n      add\n      0x40\n      mstore\n      swap1\n      dup2\n      0x00\n      dup3\n      add\n      sload\n      dup2\n      mstore\n      0x20\n      add\n      0x01\n      dup3\n      add\n      sload\n      dup2\n      mstore\n      0x20\n      add\n      0x02\n      dup3\n      add\n      sload\n      dup2\n      mstore\n      0x20\n      add\n      0x03\n      dup3\n      add\n      sload\n      dup2\n      mstore\n      0x20\n      add\n      0x04\n      dup3\n      add\n      0x00\n      swap1\n      sload\n      swap1\n      0x0100\n      exp\n      swap1\n      div\n      0xff\n      and\n      iszero\n      iszero\n      iszero\n      iszero\n      dup2\n      mstore\n      pop\n      pop\n      dup2\n      mstore\n      0x20\n      add\n      swap1\n      0x01\n      add\n      swap1\n      jump(tag_285)\n    tag_286:\n      pop\n      pop\n      pop\n      pop\n      swap1\n      pop\n        /* \"Farming.sol\":7791:7911  function getUserStakes(address user) external view returns (UserStake[] memory) {... */\n      swap2\n      swap1\n      pop\n      jump\t// out\n        /* \"@openzeppelin/contracts/access/Ownable.sol\":1638:1723  function owner() public view virtual returns (address) {... */\n    tag_92:\n        /* \"@openzeppelin/contracts/access/Ownable.sol\":1684:1691  address */\n      0x00\n        /* \"@openzeppelin/contracts/access/Ownable.sol\":1710:1716  _owner */\n      0x00\n      0x00\n      swap1\n      sload\n      swap1\n      0x0100\n      exp\n      swap1\n      div\n      0xffffffffffffffffffffffffffffffffffffffff\n      and\n        /* \"@openzeppelin/contracts/access/Ownable.sol\":1703:1716  return _owner */\n      swap1\n      pop\n        /* \"@openzeppelin/contracts/access/Ownable.sol\":1638:1723  function owner() public view virtual returns (address) {... */\n      swap1\n      jump\t// out\n        /* \"Farming.sol\":9551:9938  function updateFeeParameters(uint256 newFeeBps, address newCollector)... */\n    tag_98:\n        /* \"@openzeppelin/contracts/access/Ownable.sol\":1531:1544  _checkOwner() */\n      tag_290\n        /* \"@openzeppelin/contracts/access/Ownable.sol\":1531:1542  _checkOwner */\n      tag_135\n        /* \"@openzeppelin/contracts/access/Ownable.sol\":1531:1544  _checkOwner() */\n      jump\t// in\n    tag_290:\n        /* \"Farming.sol\":1202:1206  1000 */\n      0x03e8\n        /* \"Farming.sol\":9678:9687  newFeeBps */\n      dup3\n        /* \"Farming.sol\":9678:9702  newFeeBps <= MAX_FEE_BPS */\n      gt\n      iszero\n        /* \"Farming.sol\":9670:9719  require(newFeeBps <= MAX_FEE_BPS, \"Fee too high\") */\n      tag_292\n      jumpi\n      mload(0x40)\n      0x08c379a000000000000000000000000000000000000000000000000000000000\n      dup2\n      mstore\n      0x04\n      add\n      tag_293\n      swap1\n      tag_294\n      jump\t// in\n    tag_293:\n      mload(0x40)\n      dup1\n      swap2\n      sub\n      swap1\n      revert\n    tag_292:\n        /* \"Farming.sol\":9761:9762  0 */\n      0x00\n        /* \"Farming.sol\":9737:9763  newCollector != address(0) */\n      0xffffffffffffffffffffffffffffffffffffffff\n      and\n        /* \"Farming.sol\":9737:9749  newCollector */\n      dup2\n        /* \"Farming.sol\":9737:9763  newCollector != address(0) */\n      0xffffffffffffffffffffffffffffffffffffffff\n      and\n      sub\n        /* \"Farming.sol\":9729:9785  require(newCollector != address(0), \"Invalid collector\") */\n      tag_295\n      jumpi\n      mload(0x40)\n      0x08c379a000000000000000000000000000000000000000000000000000000000\n      dup2\n      mstore\n      0x04\n      add\n      tag_296\n      swap1\n      tag_297\n      jump\t// in\n    tag_296:\n      mload(0x40)\n      dup1\n      swap2\n      sub\n      swap1\n      revert\n    tag_295:\n        /* \"Farming.sol\":9825:9834  newFeeBps */\n      dup2\n        /* \"Farming.sol\":9804:9822  autoCompoundFeeBps */\n      0x06\n        /* \"Farming.sol\":9804:9834  autoCompoundFeeBps = newFeeBps */\n      dup2\n      swap1\n      sstore\n      pop\n        /* \"Farming.sol\":9859:9871  newCollector */\n      dup1\n        /* \"Farming.sol\":9844:9856  feeCollector */\n      0x05\n      0x00\n        /* \"Farming.sol\":9844:9871  feeCollector = newCollector */\n      0x0100\n      exp\n      dup2\n      sload\n      dup2\n      0xffffffffffffffffffffffffffffffffffffffff\n      mul\n      not\n      and\n      swap1\n      dup4\n      0xffffffffffffffffffffffffffffffffffffffff\n      and\n      mul\n      or\n      swap1\n      sstore\n      pop\n        /* \"Farming.sol\":9886:9931  FeeParametersUpdated(newFeeBps, newCollector) */\n      0x2cf325792651b724d47f21230be0dd9729866cadd370618845e23a48555ef042\n        /* \"Farming.sol\":9907:9916  newFeeBps */\n      dup3\n        /* \"Farming.sol\":9918:9930  newCollector */\n      dup3\n        /* \"Farming.sol\":9886:9931  FeeParametersUpdated(newFeeBps, newCollector) */\n      mload(0x40)\n      tag_298\n      swap3\n      swap2\n      swap1\n      tag_299\n      jump\t// in\n    tag_298:\n      mload(0x40)\n      dup1\n      swap2\n      sub\n      swap1\n      log1\n        /* \"Farming.sol\":9551:9938  function updateFeeParameters(uint256 newFeeBps, address newCollector)... */\n      pop\n      pop\n      jump\t// out\n        /* \"Farming.sol\":7475:7583  function getActivePackageCount() external view returns (uint256) {... */\n    tag_100:\n        /* \"Farming.sol\":7531:7538  uint256 */\n      0x00\n        /* \"Farming.sol\":7557:7569  farmPackages */\n      0x04\n        /* \"Farming.sol\":7557:7576  farmPackages.length */\n      dup1\n      sload\n      swap1\n      pop\n        /* \"Farming.sol\":7550:7576  return farmPackages.length */\n      swap1\n      pop\n        /* \"Farming.sol\":7475:7583  function getActivePackageCount() external view returns (uint256) {... */\n      swap1\n      jump\t// out\n        /* \"Farming.sol\":1540:1567  address public feeCollector */\n    tag_103:\n      0x05\n      0x00\n      swap1\n      sload\n      swap1\n      0x0100\n      exp\n      swap1\n      div\n      0xffffffffffffffffffffffffffffffffffffffff\n      and\n      dup2\n      jump\t// out\n        /* \"Farming.sol\":1164:1206  uint256 public constant MAX_FEE_BPS = 1000 */\n    tag_106:\n        /* \"Farming.sol\":1202:1206  1000 */\n      0x03e8\n        /* \"Farming.sol\":1164:1206  uint256 public constant MAX_FEE_BPS = 1000 */\n      dup2\n      jump\t// out\n        /* \"Farming.sol\":3722:4650  function createStake(uint256 packageId, uint256 amount)... */\n    tag_110:\n        /* \"@openzeppelin/contracts/security/ReentrancyGuard.sol\":2261:2282  _nonReentrantBefore() */\n      tag_302\n        /* \"@openzeppelin/contracts/security/ReentrancyGuard.sol\":2261:2280  _nonReentrantBefore */\n      tag_166\n        /* \"@openzeppelin/contracts/security/ReentrancyGuard.sol\":2261:2282  _nonReentrantBefore() */\n      jump\t// in\n    tag_302:\n        /* \"@openzeppelin/contracts/security/Pausable.sol\":1239:1258  _requireNotPaused() */\n      tag_304\n        /* \"@openzeppelin/contracts/security/Pausable.sol\":1239:1256  _requireNotPaused */\n      tag_305\n        /* \"@openzeppelin/contracts/security/Pausable.sol\":1239:1258  _requireNotPaused() */\n      jump\t// in\n    tag_304:\n        /* \"Farming.sol\":3859:3868  packageId */\n      dup2\n        /* \"Farming.sol\":2822:2834  farmPackages */\n      0x04\n        /* \"Farming.sol\":2822:2841  farmPackages.length */\n      dup1\n      sload\n      swap1\n      pop\n        /* \"Farming.sol\":2810:2819  packageId */\n      dup2\n        /* \"Farming.sol\":2810:2841  packageId < farmPackages.length */\n      lt\n        /* \"Farming.sol\":2802:2864  require(packageId < farmPackages.length, \"Invalid package ID\") */\n      tag_307\n      jumpi\n      mload(0x40)\n      0x08c379a000000000000000000000000000000000000000000000000000000000\n      dup2\n      mstore\n      0x04\n      add\n      tag_308\n      swap1\n      tag_157\n      jump\t// in\n    tag_308:\n      mload(0x40)\n      dup1\n      swap2\n      sub\n      swap1\n      revert\n    tag_307:\n        /* \"Farming.sol\":3893:3899  amount */\n      dup2\n        /* \"Farming.sol\":3181:3182  0 */\n      0x00\n        /* \"Farming.sol\":3172:3178  amount */\n      dup2\n        /* \"Farming.sol\":3172:3182  amount > 0 */\n      gt\n        /* \"Farming.sol\":3164:3210  require(amount > 0, \"Amount must be positive\") */\n      tag_310\n      jumpi\n      mload(0x40)\n      0x08c379a000000000000000000000000000000000000000000000000000000000\n      dup2\n      mstore\n      0x04\n      add\n      tag_311\n      swap1\n      tag_312\n      jump\t// in\n    tag_311:\n      mload(0x40)\n      dup1\n      swap2\n      sub\n      swap1\n      revert\n    tag_310:\n        /* \"Farming.sol\":3915:3942  FarmPackage storage package */\n      0x00\n        /* \"Farming.sol\":3945:3957  farmPackages */\n      0x04\n        /* \"Farming.sol\":3958:3967  packageId */\n      dup6\n        /* \"Farming.sol\":3945:3968  farmPackages[packageId] */\n      dup2\n      sload\n      dup2\n      lt\n      tag_314\n      jumpi\n      tag_315\n      tag_161\n      jump\t// in\n    tag_315:\n    tag_314:\n      swap1\n      0x00\n      mstore\n      keccak256(0x00, 0x20)\n      swap1\n      0x05\n      mul\n      add\n        /* \"Farming.sol\":3915:3968  FarmPackage storage package = farmPackages[packageId] */\n      swap1\n      pop\n        /* \"Farming.sol\":3986:3993  package */\n      dup1\n        /* \"Farming.sol\":3986:4002  package.isActive */\n      0x04\n      add\n      0x00\n      swap1\n      sload\n      swap1\n      0x0100\n      exp\n      swap1\n      div\n      0xff\n      and\n        /* \"Farming.sol\":3978:4023  require(package.isActive, \"Package inactive\") */\n      tag_317\n      jumpi\n      mload(0x40)\n      0x08c379a000000000000000000000000000000000000000000000000000000000\n      dup2\n      mstore\n      0x04\n      add\n      tag_318\n      swap1\n      tag_319\n      jump\t// in\n    tag_318:\n      mload(0x40)\n      dup1\n      swap2\n      sub\n      swap1\n      revert\n    tag_317:\n        /* \"Farming.sol\":4051:4058  package */\n      dup1\n        /* \"Farming.sol\":4051:4077  package.minimumStakeAmount */\n      0x03\n      add\n      sload\n        /* \"Farming.sol\":4041:4047  amount */\n      dup5\n        /* \"Farming.sol\":4041:4077  amount >= package.minimumStakeAmount */\n      lt\n      iszero\n        /* \"Farming.sol\":4033:4107  require(amount >= package.minimumStakeAmount, \"Insufficient stake amount\") */\n      tag_320\n      jumpi\n      mload(0x40)\n      0x08c379a000000000000000000000000000000000000000000000000000000000\n      dup2\n      mstore\n      0x04\n      add\n      tag_321\n      swap1\n      tag_322\n      jump\t// in\n    tag_321:\n      mload(0x40)\n      dup1\n      swap2\n      sub\n      swap1\n      revert\n    tag_320:\n        /* \"Farming.sol\":4118:4249  IERC20(package.stakeTokenAddress).safeTransferFrom(... */\n      tag_323\n        /* \"Farming.sol\":4182:4192  msg.sender */\n      caller\n        /* \"Farming.sol\":4214:4218  this */\n      address\n        /* \"Farming.sol\":4233:4239  amount */\n      dup7\n        /* \"Farming.sol\":4125:4132  package */\n      dup5\n        /* \"Farming.sol\":4125:4150  package.stakeTokenAddress */\n      0x00\n      add\n      0x00\n      swap1\n      sload\n      swap1\n      0x0100\n      exp\n      swap1\n      div\n      0xffffffffffffffffffffffffffffffffffffffff\n      and\n        /* \"Farming.sol\":4118:4168  IERC20(package.stakeTokenAddress).safeTransferFrom */\n      0xffffffffffffffffffffffffffffffffffffffff\n      and\n      tag_324\n      swap1\n        /* \"Farming.sol\":4118:4249  IERC20(package.stakeTokenAddress).safeTransferFrom(... */\n      swap4\n      swap3\n      swap2\n      swap1\n      0xffffffff\n      and\n      jump\t// in\n    tag_323:\n        /* \"Farming.sol\":4260:4270  userStakes */\n      0x08\n        /* \"Farming.sol\":4260:4282  userStakes[msg.sender] */\n      0x00\n        /* \"Farming.sol\":4271:4281  msg.sender */\n      caller\n        /* \"Farming.sol\":4260:4282  userStakes[msg.sender] */\n      0xffffffffffffffffffffffffffffffffffffffff\n      and\n      0xffffffffffffffffffffffffffffffffffffffff\n      and\n      dup2\n      mstore\n      0x20\n      add\n      swap1\n      dup2\n      mstore\n      0x20\n      add\n      0x00\n      keccak256\n        /* \"Farming.sol\":4301:4557  UserStake({... */\n      mload(0x40)\n      dup1\n      0xa0\n      add\n      0x40\n      mstore\n      dup1\n        /* \"Farming.sol\":4340:4349  packageId */\n      dup8\n        /* \"Farming.sol\":4301:4557  UserStake({... */\n      dup2\n      mstore\n      0x20\n      add\n        /* \"Farming.sol\":4381:4387  amount */\n      dup7\n        /* \"Farming.sol\":4301:4557  UserStake({... */\n      dup2\n      mstore\n      0x20\n      add\n        /* \"Farming.sol\":4426:4441  block.timestamp */\n      timestamp\n        /* \"Farming.sol\":4301:4557  UserStake({... */\n      dup2\n      mstore\n      0x20\n      add\n        /* \"Farming.sol\":4485:4500  block.timestamp */\n      timestamp\n        /* \"Farming.sol\":4301:4557  UserStake({... */\n      dup2\n      mstore\n      0x20\n      add\n        /* \"Farming.sol\":4537:4542  false */\n      0x00\n        /* \"Farming.sol\":4301:4557  UserStake({... */\n      iszero\n      iszero\n      dup2\n      mstore\n      pop\n        /* \"Farming.sol\":4260:4567  userStakes[msg.sender].push(... */\n      swap1\n      dup1\n      0x01\n      dup2\n      sload\n      add\n      dup1\n      dup3\n      sstore\n      dup1\n      swap2\n      pop\n      pop\n      0x01\n      swap1\n      sub\n      swap1\n      0x00\n      mstore\n      keccak256(0x00, 0x20)\n      swap1\n      0x05\n      mul\n      add\n      0x00\n      swap1\n      swap2\n      swap1\n      swap2\n      swap1\n      swap2\n      pop\n      0x00\n      dup3\n      add\n      mload\n      dup2\n      0x00\n      add\n      sstore\n      0x20\n      dup3\n      add\n      mload\n      dup2\n      0x01\n      add\n      sstore\n      0x40\n      dup3\n      add\n      mload\n      dup2\n      0x02\n      add\n      sstore\n      0x60\n      dup3\n      add\n      mload\n      dup2\n      0x03\n      add\n      sstore\n      0x80\n      dup3\n      add\n      mload\n      dup2\n      0x04\n      add\n      exp(0x0100, 0x00)\n      dup2\n      sload\n      dup2\n      0xff\n      mul\n      not\n      and\n      swap1\n      dup4\n      iszero\n      iszero\n      mul\n      or\n      swap1\n      sstore\n      pop\n      pop\n      pop\n        /* \"Farming.sol\":4608:4617  packageId */\n      dup5\n        /* \"Farming.sol\":4596:4606  msg.sender */\n      caller\n        /* \"Farming.sol\":4583:4643  StakeCreated(msg.sender, packageId, amount, block.timestamp) */\n      0xffffffffffffffffffffffffffffffffffffffff\n      and\n      0x20400db7cf9bdfcb8b13ccfb8a7b4bb447c3244efdbc2336e6f6e1673d7bd845\n        /* \"Farming.sol\":4619:4625  amount */\n      dup7\n        /* \"Farming.sol\":4627:4642  block.timestamp */\n      timestamp\n        /* \"Farming.sol\":4583:4643  StakeCreated(msg.sender, packageId, amount, block.timestamp) */\n      mload(0x40)\n      tag_326\n      swap3\n      swap2\n      swap1\n      tag_199\n      jump\t// in\n    tag_326:\n      mload(0x40)\n      dup1\n      swap2\n      sub\n      swap1\n      log3\n        /* \"Farming.sol\":3905:4650  {... */\n      pop\n        /* \"Farming.sol\":2874:2875  _ */\n      pop\n        /* \"@openzeppelin/contracts/security/Pausable.sol\":1268:1269  _ */\n      pop\n        /* \"@openzeppelin/contracts/security/ReentrancyGuard.sol\":2303:2323  _nonReentrantAfter() */\n      tag_327\n        /* \"@openzeppelin/contracts/security/ReentrancyGuard.sol\":2303:2321  _nonReentrantAfter */\n      tag_201\n        /* \"@openzeppelin/contracts/security/ReentrancyGuard.sol\":2303:2323  _nonReentrantAfter() */\n      jump\t// in\n    tag_327:\n        /* \"Farming.sol\":3722:4650  function createStake(uint256 packageId, uint256 amount)... */\n      pop\n      pop\n      jump\t// out\n        /* \"Farming.sol\":1629:1658  uint256 public feePoolBalance */\n    tag_112:\n      sload(0x07)\n      dup2\n      jump\t// out\n        /* \"Farming.sol\":4656:5311  function claimStakeRewards(uint256 stakeId)... */\n    tag_116:\n        /* \"@openzeppelin/contracts/security/ReentrancyGuard.sol\":2261:2282  _nonReentrantBefore() */\n      tag_329\n        /* \"@openzeppelin/contracts/security/ReentrancyGuard.sol\":2261:2280  _nonReentrantBefore */\n      tag_166\n        /* \"@openzeppelin/contracts/security/ReentrancyGuard.sol\":2261:2282  _nonReentrantBefore() */\n      jump\t// in\n    tag_329:\n        /* \"Farming.sol\":4757:4767  msg.sender */\n      caller\n        /* \"Farming.sol\":4769:4776  stakeId */\n      dup2\n        /* \"Farming.sol\":2967:2977  userStakes */\n      0x08\n        /* \"Farming.sol\":2967:2983  userStakes[user] */\n      0x00\n        /* \"Farming.sol\":2978:2982  user */\n      dup4\n        /* \"Farming.sol\":2967:2983  userStakes[user] */\n      0xffffffffffffffffffffffffffffffffffffffff\n      and\n      0xffffffffffffffffffffffffffffffffffffffff\n      and\n      dup2\n      mstore\n      0x20\n      add\n      swap1\n      dup2\n      mstore\n      0x20\n      add\n      0x00\n      keccak256\n        /* \"Farming.sol\":2967:2990  userStakes[user].length */\n      dup1\n      sload\n      swap1\n      pop\n        /* \"Farming.sol\":2957:2964  stakeId */\n      dup2\n        /* \"Farming.sol\":2957:2990  stakeId < userStakes[user].length */\n      lt\n        /* \"Farming.sol\":2949:3011  require(stakeId < userStakes[user].length, \"Invalid stake ID\") */\n      tag_331\n      jumpi\n      mload(0x40)\n      0x08c379a000000000000000000000000000000000000000000000000000000000\n      dup2\n      mstore\n      0x04\n      add\n      tag_332\n      swap1\n      tag_170\n      jump\t// in\n    tag_332:\n      mload(0x40)\n      dup1\n      swap2\n      sub\n      swap1\n      revert\n    tag_331:\n        /* \"Farming.sol\":3070:3071  0 */\n      0x00\n        /* \"Farming.sol\":3029:3039  userStakes */\n      0x08\n        /* \"Farming.sol\":3029:3045  userStakes[user] */\n      0x00\n        /* \"Farming.sol\":3040:3044  user */\n      dup5\n        /* \"Farming.sol\":3029:3045  userStakes[user] */\n      0xffffffffffffffffffffffffffffffffffffffff\n      and\n      0xffffffffffffffffffffffffffffffffffffffff\n      and\n      dup2\n      mstore\n      0x20\n      add\n      swap1\n      dup2\n      mstore\n      0x20\n      add\n      0x00\n      keccak256\n        /* \"Farming.sol\":3046:3053  stakeId */\n      dup3\n        /* \"Farming.sol\":3029:3054  userStakes[user][stakeId] */\n      dup2\n      sload\n      dup2\n      lt\n      tag_333\n      jumpi\n      tag_334\n      tag_161\n      jump\t// in\n    tag_334:\n    tag_333:\n      swap1\n      0x00\n      mstore\n      keccak256(0x00, 0x20)\n      swap1\n      0x05\n      mul\n      add\n        /* \"Farming.sol\":3029:3067  userStakes[user][stakeId].stakedAmount */\n      0x01\n      add\n      sload\n        /* \"Farming.sol\":3029:3071  userStakes[user][stakeId].stakedAmount > 0 */\n      gt\n        /* \"Farming.sol\":3021:3090  require(userStakes[user][stakeId].stakedAmount > 0, \"Inactive stake\") */\n      tag_336\n      jumpi\n      mload(0x40)\n      0x08c379a000000000000000000000000000000000000000000000000000000000\n      dup2\n      mstore\n      0x04\n      add\n      tag_337\n      swap1\n      tag_176\n      jump\t// in\n    tag_337:\n      mload(0x40)\n      dup1\n      swap2\n      sub\n      swap1\n      revert\n    tag_336:\n        /* \"Farming.sol\":4792:4819  UserStake storage stakeInfo */\n      0x00\n        /* \"Farming.sol\":4822:4832  userStakes */\n      0x08\n        /* \"Farming.sol\":4822:4844  userStakes[msg.sender] */\n      0x00\n        /* \"Farming.sol\":4833:4843  msg.sender */\n      caller\n        /* \"Farming.sol\":4822:4844  userStakes[msg.sender] */\n      0xffffffffffffffffffffffffffffffffffffffff\n      and\n      0xffffffffffffffffffffffffffffffffffffffff\n      and\n      dup2\n      mstore\n      0x20\n      add\n      swap1\n      dup2\n      mstore\n      0x20\n      add\n      0x00\n      keccak256\n        /* \"Farming.sol\":4845:4852  stakeId */\n      dup5\n        /* \"Farming.sol\":4822:4853  userStakes[msg.sender][stakeId] */\n      dup2\n      sload\n      dup2\n      lt\n      tag_339\n      jumpi\n      tag_340\n      tag_161\n      jump\t// in\n    tag_340:\n    tag_339:\n      swap1\n      0x00\n      mstore\n      keccak256(0x00, 0x20)\n      swap1\n      0x05\n      mul\n      add\n        /* \"Farming.sol\":4792:4853  UserStake storage stakeInfo = userStakes[msg.sender][stakeId] */\n      swap1\n      pop\n        /* \"Farming.sol\":4863:4883  uint256 rewardAmount */\n      0x00\n        /* \"Farming.sol\":4886:4931  _calculateAccruedRewards(msg.sender, stakeId) */\n      tag_342\n        /* \"Farming.sol\":4911:4921  msg.sender */\n      caller\n        /* \"Farming.sol\":4923:4930  stakeId */\n      dup7\n        /* \"Farming.sol\":4886:4910  _calculateAccruedRewards */\n      tag_190\n        /* \"Farming.sol\":4886:4931  _calculateAccruedRewards(msg.sender, stakeId) */\n      jump\t// in\n    tag_342:\n        /* \"Farming.sol\":4863:4931  uint256 rewardAmount = _calculateAccruedRewards(msg.sender, stakeId) */\n      swap1\n      pop\n        /* \"Farming.sol\":4964:4965  0 */\n      0x00\n        /* \"Farming.sol\":4949:4961  rewardAmount */\n      dup2\n        /* \"Farming.sol\":4949:4965  rewardAmount > 0 */\n      gt\n        /* \"Farming.sol\":4941:4990  require(rewardAmount > 0, \"No rewards available\") */\n      tag_343\n      jumpi\n      mload(0x40)\n      0x08c379a000000000000000000000000000000000000000000000000000000000\n      dup2\n      mstore\n      0x04\n      add\n      tag_344\n      swap1\n      tag_345\n      jump\t// in\n    tag_344:\n      mload(0x40)\n      dup1\n      swap2\n      sub\n      swap1\n      revert\n    tag_343:\n        /* \"Farming.sol\":5038:5053  block.timestamp */\n      timestamp\n        /* \"Farming.sol\":5001:5010  stakeInfo */\n      dup3\n        /* \"Farming.sol\":5001:5035  stakeInfo.lastRewardClaimTimestamp */\n      0x03\n      add\n        /* \"Farming.sol\":5001:5053  stakeInfo.lastRewardClaimTimestamp = block.timestamp */\n      dup2\n      swap1\n      sstore\n      pop\n        /* \"Farming.sol\":5068:5077  stakeInfo */\n      dup2\n        /* \"Farming.sol\":5068:5095  stakeInfo.isAutoCompounding */\n      0x04\n      add\n      0x00\n      swap1\n      sload\n      swap1\n      0x0100\n      exp\n      swap1\n      div\n      0xff\n      and\n        /* \"Farming.sol\":5064:5241  if (stakeInfo.isAutoCompounding) {... */\n      iszero\n      tag_346\n      jumpi\n        /* \"Farming.sol\":5137:5149  rewardAmount */\n      dup1\n        /* \"Farming.sol\":5111:5120  stakeInfo */\n      dup3\n        /* \"Farming.sol\":5111:5133  stakeInfo.stakedAmount */\n      0x01\n      add\n      0x00\n        /* \"Farming.sol\":5111:5149  stakeInfo.stakedAmount += rewardAmount */\n      dup3\n      dup3\n      sload\n      tag_347\n      swap2\n      swap1\n      tag_185\n      jump\t// in\n    tag_347:\n      swap3\n      pop\n      pop\n      dup2\n      swap1\n      sstore\n      pop\n        /* \"Farming.sol\":5064:5241  if (stakeInfo.isAutoCompounding) {... */\n      jump(tag_348)\n    tag_346:\n        /* \"Farming.sol\":5180:5230  rewardToken.safeTransfer(msg.sender, rewardAmount) */\n      tag_349\n        /* \"Farming.sol\":5205:5215  msg.sender */\n      caller\n        /* \"Farming.sol\":5217:5229  rewardAmount */\n      dup3\n        /* \"Farming.sol\":5180:5191  rewardToken */\n      immutable(\"0xef764c0d6484421d36739b89ad3d60c379efca83bed6303739614a73e091b0d2\")\n        /* \"Farming.sol\":5180:5204  rewardToken.safeTransfer */\n      0xffffffffffffffffffffffffffffffffffffffff\n      and\n      tag_195\n      swap1\n        /* \"Farming.sol\":5180:5230  rewardToken.safeTransfer(msg.sender, rewardAmount) */\n      swap3\n      swap2\n      swap1\n      0xffffffff\n      and\n      jump\t// in\n    tag_349:\n        /* \"Farming.sol\":5064:5241  if (stakeInfo.isAutoCompounding) {... */\n    tag_348:\n        /* \"Farming.sol\":5282:5289  stakeId */\n      dup5\n        /* \"Farming.sol\":5270:5280  msg.sender */\n      caller\n        /* \"Farming.sol\":5256:5304  RewardClaimed(msg.sender, stakeId, rewardAmount) */\n      0xffffffffffffffffffffffffffffffffffffffff\n      and\n      0xf01da32686223933d8a18a391060918c7f11a3648639edd87ae013e2e2731743\n        /* \"Farming.sol\":5291:5303  rewardAmount */\n      dup4\n        /* \"Farming.sol\":5256:5304  RewardClaimed(msg.sender, stakeId, rewardAmount) */\n      mload(0x40)\n      tag_350\n      swap2\n      swap1\n      tag_53\n      jump\t// in\n    tag_350:\n      mload(0x40)\n      dup1\n      swap2\n      sub\n      swap1\n      log3\n        /* \"Farming.sol\":4782:5311  {... */\n      pop\n      pop\n        /* \"@openzeppelin/contracts/security/ReentrancyGuard.sol\":2292:2293  _ */\n      pop\n      pop\n        /* \"@openzeppelin/contracts/security/ReentrancyGuard.sol\":2303:2323  _nonReentrantAfter() */\n      tag_351\n        /* \"@openzeppelin/contracts/security/ReentrancyGuard.sol\":2303:2321  _nonReentrantAfter */\n      tag_201\n        /* \"@openzeppelin/contracts/security/ReentrancyGuard.sol\":2303:2323  _nonReentrantAfter() */\n      jump\t// in\n    tag_351:\n        /* \"Farming.sol\":4656:5311  function claimStakeRewards(uint256 stakeId)... */\n      pop\n      jump\t// out\n        /* \"Farming.sol\":1288:1335  uint256 public constant BPS_DENOMINATOR = 10000 */\n    tag_118:\n        /* \"Farming.sol\":1330:1335  10000 */\n      0x2710\n        /* \"Farming.sol\":1288:1335  uint256 public constant BPS_DENOMINATOR = 10000 */\n      dup2\n      jump\t// out\n        /* \"@openzeppelin/contracts/access/Ownable2Step.sol\":1232:1331  function pendingOwner() public view virtual returns (address) {... */\n    tag_121:\n        /* \"@openzeppelin/contracts/access/Ownable2Step.sol\":1285:1292  address */\n      0x00\n        /* \"@openzeppelin/contracts/access/Ownable2Step.sol\":1311:1324  _pendingOwner */\n      0x01\n      0x00\n      swap1\n      sload\n      swap1\n      0x0100\n      exp\n      swap1\n      div\n      0xffffffffffffffffffffffffffffffffffffffff\n      and\n        /* \"@openzeppelin/contracts/access/Ownable2Step.sol\":1304:1324  return _pendingOwner */\n      swap1\n      pop\n        /* \"@openzeppelin/contracts/access/Ownable2Step.sol\":1232:1331  function pendingOwner() public view virtual returns (address) {... */\n      swap1\n      jump\t// out\n        /* \"Farming.sol\":1231:1282  uint256 public constant SECONDS_PER_YEAR = 365 days */\n    tag_124:\n        /* \"Farming.sol\":1274:1282  365 days */\n      0x01e13380\n        /* \"Farming.sol\":1231:1282  uint256 public constant SECONDS_PER_YEAR = 365 days */\n      dup2\n      jump\t// out\n        /* \"@openzeppelin/contracts/access/Ownable2Step.sol\":1649:1827  function transferOwnership(address newOwner) public virtual override onlyOwner {... */\n    tag_128:\n        /* \"@openzeppelin/contracts/access/Ownable.sol\":1531:1544  _checkOwner() */\n      tag_354\n        /* \"@openzeppelin/contracts/access/Ownable.sol\":1531:1542  _checkOwner */\n      tag_135\n        /* \"@openzeppelin/contracts/access/Ownable.sol\":1531:1544  _checkOwner() */\n      jump\t// in\n    tag_354:\n        /* \"@openzeppelin/contracts/access/Ownable2Step.sol\":1754:1762  newOwner */\n      dup1\n        /* \"@openzeppelin/contracts/access/Ownable2Step.sol\":1738:1751  _pendingOwner */\n      0x01\n      0x00\n        /* \"@openzeppelin/contracts/access/Ownable2Step.sol\":1738:1762  _pendingOwner = newOwner */\n      0x0100\n      exp\n      dup2\n      sload\n      dup2\n      0xffffffffffffffffffffffffffffffffffffffff\n      mul\n      not\n      and\n      swap1\n      dup4\n      0xffffffffffffffffffffffffffffffffffffffff\n      and\n      mul\n      or\n      swap1\n      sstore\n      pop\n        /* \"@openzeppelin/contracts/access/Ownable2Step.sol\":1811:1819  newOwner */\n      dup1\n        /* \"@openzeppelin/contracts/access/Ownable2Step.sol\":1777:1820  OwnershipTransferStarted(owner(), newOwner) */\n      0xffffffffffffffffffffffffffffffffffffffff\n      and\n        /* \"@openzeppelin/contracts/access/Ownable2Step.sol\":1802:1809  owner() */\n      tag_356\n        /* \"@openzeppelin/contracts/access/Ownable2Step.sol\":1802:1807  owner */\n      tag_92\n        /* \"@openzeppelin/contracts/access/Ownable2Step.sol\":1802:1809  owner() */\n      jump\t// in\n    tag_356:\n        /* \"@openzeppelin/contracts/access/Ownable2Step.sol\":1777:1820  OwnershipTransferStarted(owner(), newOwner) */\n      0xffffffffffffffffffffffffffffffffffffffff\n      and\n      0x38d16b8cac22d99fc7c124b9cd0de2d3fa1faef420bfe791d8c362d765e22700\n      mload(0x40)\n      mload(0x40)\n      dup1\n      swap2\n      sub\n      swap1\n      log3\n        /* \"@openzeppelin/contracts/access/Ownable2Step.sol\":1649:1827  function transferOwnership(address newOwner) public virtual override onlyOwner {... */\n      pop\n      jump\t// out\n        /* \"Farming.sol\":1415:1450  IERC20 public immutable rewardToken */\n    tag_130:\n      immutable(\"0xef764c0d6484421d36739b89ad3d60c379efca83bed6303739614a73e091b0d2\")\n      dup2\n      jump\t// out\n        /* \"@openzeppelin/contracts/access/Ownable.sol\":1796:1958  function _checkOwner() internal view virtual {... */\n    tag_135:\n        /* \"@openzeppelin/contracts/access/Ownable.sol\":1866:1878  _msgSender() */\n      tag_358\n        /* \"@openzeppelin/contracts/access/Ownable.sol\":1866:1876  _msgSender */\n      tag_255\n        /* \"@openzeppelin/contracts/access/Ownable.sol\":1866:1878  _msgSender() */\n      jump\t// in\n    tag_358:\n        /* \"@openzeppelin/contracts/access/Ownable.sol\":1855:1878  owner() != _msgSender() */\n      0xffffffffffffffffffffffffffffffffffffffff\n      and\n        /* \"@openzeppelin/contracts/access/Ownable.sol\":1855:1862  owner() */\n      tag_359\n        /* \"@openzeppelin/contracts/access/Ownable.sol\":1855:1860  owner */\n      tag_92\n        /* \"@openzeppelin/contracts/access/Ownable.sol\":1855:1862  owner() */\n      jump\t// in\n    tag_359:\n        /* \"@openzeppelin/contracts/access/Ownable.sol\":1855:1878  owner() != _msgSender() */\n      0xffffffffffffffffffffffffffffffffffffffff\n      and\n      eq\n        /* \"@openzeppelin/contracts/access/Ownable.sol\":1851:1952  if (owner() != _msgSender()) {... */\n      tag_360\n      jumpi\n        /* \"@openzeppelin/contracts/access/Ownable.sol\":1928:1940  _msgSender() */\n      tag_361\n        /* \"@openzeppelin/contracts/access/Ownable.sol\":1928:1938  _msgSender */\n      tag_255\n        /* \"@openzeppelin/contracts/access/Ownable.sol\":1928:1940  _msgSender() */\n      jump\t// in\n    tag_361:\n        /* \"@openzeppelin/contracts/access/Ownable.sol\":1901:1941  OwnableUnauthorizedAccount(_msgSender()) */\n      mload(0x40)\n      0x118cdaa700000000000000000000000000000000000000000000000000000000\n      dup2\n      mstore\n      0x04\n      add\n      tag_362\n      swap2\n      swap1\n      tag_94\n      jump\t// in\n    tag_362:\n      mload(0x40)\n      dup1\n      swap2\n      sub\n      swap1\n      revert\n        /* \"@openzeppelin/contracts/access/Ownable.sol\":1851:1952  if (owner() != _msgSender()) {... */\n    tag_360:\n        /* \"@openzeppelin/contracts/access/Ownable.sol\":1796:1958  function _checkOwner() internal view virtual {... */\n      jump\t// out\n        /* \"@openzeppelin/contracts/security/ReentrancyGuard.sol\":2336:2623  function _nonReentrantBefore() private {... */\n    tag_166:\n        /* \"@openzeppelin/contracts/security/ReentrancyGuard.sol\":1759:1760  2 */\n      0x02\n        /* \"@openzeppelin/contracts/security/ReentrancyGuard.sol\":2468:2475  _status */\n      dup1\n      sload\n        /* \"@openzeppelin/contracts/security/ReentrancyGuard.sol\":2468:2487  _status != _ENTERED */\n      sub\n        /* \"@openzeppelin/contracts/security/ReentrancyGuard.sol\":2460:2523  require(_status != _ENTERED, \"ReentrancyGuard: reentrant call\") */\n      tag_364\n      jumpi\n      mload(0x40)\n      0x08c379a000000000000000000000000000000000000000000000000000000000\n      dup2\n      mstore\n      0x04\n      add\n      tag_365\n      swap1\n      tag_366\n      jump\t// in\n    tag_365:\n      mload(0x40)\n      dup1\n      swap2\n      sub\n      swap1\n      revert\n    tag_364:\n        /* \"@openzeppelin/contracts/security/ReentrancyGuard.sol\":1759:1760  2 */\n      0x02\n        /* \"@openzeppelin/contracts/security/ReentrancyGuard.sol\":2598:2605  _status */\n      dup1\n        /* \"@openzeppelin/contracts/security/ReentrancyGuard.sol\":2598:2616  _status = _ENTERED */\n      dup2\n      swap1\n      sstore\n      pop\n        /* \"@openzeppelin/contracts/security/ReentrancyGuard.sol\":2336:2623  function _nonReentrantBefore() private {... */\n      jump\t// out\n        /* \"Farming.sol\":6929:7469  function _calculateAccruedRewards(address user, uint256 stakeId)... */\n    tag_190:\n        /* \"Farming.sol\":7041:7048  uint256 */\n      0x00\n        /* \"Farming.sol\":7064:7090  UserStake memory stakeInfo */\n      0x00\n        /* \"Farming.sol\":7093:7103  userStakes */\n      0x08\n        /* \"Farming.sol\":7093:7109  userStakes[user] */\n      0x00\n        /* \"Farming.sol\":7104:7108  user */\n      dup6\n        /* \"Farming.sol\":7093:7109  userStakes[user] */\n      0xffffffffffffffffffffffffffffffffffffffff\n      and\n      0xffffffffffffffffffffffffffffffffffffffff\n      and\n      dup2\n      mstore\n      0x20\n      add\n      swap1\n      dup2\n      mstore\n      0x20\n      add\n      0x00\n      keccak256\n        /* \"Farming.sol\":7110:7117  stakeId */\n      dup4\n        /* \"Farming.sol\":7093:7118  userStakes[user][stakeId] */\n      dup2\n      sload\n      dup2\n      lt\n      tag_368\n      jumpi\n      tag_369\n      tag_161\n      jump\t// in\n    tag_369:\n    tag_368:\n      swap1\n      0x00\n      mstore\n      keccak256(0x00, 0x20)\n      swap1\n      0x05\n      mul\n      add\n        /* \"Farming.sol\":7064:7118  UserStake memory stakeInfo = userStakes[user][stakeId] */\n      mload(0x40)\n      dup1\n      0xa0\n      add\n      0x40\n      mstore\n      swap1\n      dup2\n      0x00\n      dup3\n      add\n      sload\n      dup2\n      mstore\n      0x20\n      add\n      0x01\n      dup3\n      add\n      sload\n      dup2\n      mstore\n      0x20\n      add\n      0x02\n      dup3\n      add\n      sload\n      dup2\n      mstore\n      0x20\n      add\n      0x03\n      dup3\n      add\n      sload\n      dup2\n      mstore\n      0x20\n      add\n      0x04\n      dup3\n      add\n      0x00\n      swap1\n      sload\n      swap1\n      0x0100\n      exp\n      swap1\n      div\n      0xff\n      and\n      iszero\n      iszero\n      iszero\n      iszero\n      dup2\n      mstore\n      pop\n      pop\n      swap1\n      pop\n        /* \"Farming.sol\":7158:7159  0 */\n      0x00\n        /* \"Farming.sol\":7132:7141  stakeInfo */\n      dup2\n        /* \"Farming.sol\":7132:7154  stakeInfo.stakedAmount */\n      0x20\n      add\n      mload\n        /* \"Farming.sol\":7132:7159  stakeInfo.stakedAmount == 0 */\n      sub\n        /* \"Farming.sol\":7128:7169  if (stakeInfo.stakedAmount == 0) return 0 */\n      tag_371\n      jumpi\n        /* \"Farming.sol\":7168:7169  0 */\n      0x00\n        /* \"Farming.sol\":7161:7169  return 0 */\n      swap2\n      pop\n      pop\n      jump(tag_367)\n        /* \"Farming.sol\":7128:7169  if (stakeInfo.stakedAmount == 0) return 0 */\n    tag_371:\n        /* \"Farming.sol\":7180:7206  FarmPackage memory package */\n      0x00\n        /* \"Farming.sol\":7209:7221  farmPackages */\n      0x04\n        /* \"Farming.sol\":7222:7231  stakeInfo */\n      dup3\n        /* \"Farming.sol\":7222:7241  stakeInfo.packageId */\n      0x00\n      add\n      mload\n        /* \"Farming.sol\":7209:7242  farmPackages[stakeInfo.packageId] */\n      dup2\n      sload\n      dup2\n      lt\n      tag_372\n      jumpi\n      tag_373\n      tag_161\n      jump\t// in\n    tag_373:\n    tag_372:\n      swap1\n      0x00\n      mstore\n      keccak256(0x00, 0x20)\n      swap1\n      0x05\n      mul\n      add\n        /* \"Farming.sol\":7180:7242  FarmPackage memory package = farmPackages[stakeInfo.packageId] */\n      mload(0x40)\n      dup1\n      0xa0\n      add\n      0x40\n      mstore\n      swap1\n      dup2\n      0x00\n      dup3\n      add\n      0x00\n      swap1\n      sload\n      swap1\n      0x0100\n      exp\n      swap1\n      div\n      0xffffffffffffffffffffffffffffffffffffffff\n      and\n      0xffffffffffffffffffffffffffffffffffffffff\n      and\n      0xffffffffffffffffffffffffffffffffffffffff\n      and\n      dup2\n      mstore\n      0x20\n      add\n      0x01\n      dup3\n      add\n      sload\n      dup2\n      mstore\n      0x20\n      add\n      0x02\n      dup3\n      add\n      sload\n      dup2\n      mstore\n      0x20\n      add\n      0x03\n      dup3\n      add\n      sload\n      dup2\n      mstore\n      0x20\n      add\n      0x04\n      dup3\n      add\n      0x00\n      swap1\n      sload\n      swap1\n      0x0100\n      exp\n      swap1\n      div\n      0xff\n      and\n      iszero\n      iszero\n      iszero\n      iszero\n      dup2\n      mstore\n      pop\n      pop\n      swap1\n      pop\n        /* \"Farming.sol\":7252:7271  uint256 elapsedTime */\n      0x00\n        /* \"Farming.sol\":7292:7301  stakeInfo */\n      dup3\n        /* \"Farming.sol\":7292:7326  stakeInfo.lastRewardClaimTimestamp */\n      0x60\n      add\n      mload\n        /* \"Farming.sol\":7274:7289  block.timestamp */\n      timestamp\n        /* \"Farming.sol\":7274:7326  block.timestamp - stakeInfo.lastRewardClaimTimestamp */\n      tag_375\n      swap2\n      swap1\n      tag_149\n      jump\t// in\n    tag_375:\n        /* \"Farming.sol\":7252:7326  uint256 elapsedTime = block.timestamp - stakeInfo.lastRewardClaimTimestamp */\n      swap1\n      pop\n        /* \"Farming.sol\":1330:1335  10000 */\n      0x2710\n        /* \"Farming.sol\":1274:1282  365 days */\n      0x01e13380\n        /* \"Farming.sol\":7427:7461  SECONDS_PER_YEAR * BPS_DENOMINATOR */\n      tag_376\n      swap2\n      swap1\n      tag_377\n      jump\t// in\n    tag_376:\n        /* \"Farming.sol\":7395:7406  elapsedTime */\n      dup2\n        /* \"Farming.sol\":7378:7385  package */\n      dup4\n        /* \"Farming.sol\":7378:7392  package.apyBps */\n      0x40\n      add\n      mload\n        /* \"Farming.sol\":7353:7362  stakeInfo */\n      dup6\n        /* \"Farming.sol\":7353:7375  stakeInfo.stakedAmount */\n      0x20\n      add\n      mload\n        /* \"Farming.sol\":7353:7392  stakeInfo.stakedAmount * package.apyBps */\n      tag_378\n      swap2\n      swap1\n      tag_377\n      jump\t// in\n    tag_378:\n        /* \"Farming.sol\":7353:7406  stakeInfo.stakedAmount * package.apyBps * elapsedTime */\n      tag_379\n      swap2\n      swap1\n      tag_377\n      jump\t// in\n    tag_379:\n        /* \"Farming.sol\":7352:7462  (stakeInfo.stakedAmount * package.apyBps * elapsedTime) / ... */\n      tag_380\n      swap2\n      swap1\n      tag_381\n      jump\t// in\n    tag_380:\n        /* \"Farming.sol\":7345:7462  return (stakeInfo.stakedAmount * package.apyBps * elapsedTime) / ... */\n      swap4\n      pop\n      pop\n      pop\n      pop\n        /* \"Farming.sol\":6929:7469  function _calculateAccruedRewards(address user, uint256 stakeId)... */\n    tag_367:\n      swap3\n      swap2\n      pop\n      pop\n      jump\t// out\n        /* \"@openzeppelin/contracts/token/ERC20/utils/SafeERC20.sol\":1219:1379  function safeTransfer(IERC20 token, address to, uint256 value) internal {... */\n    tag_195:\n        /* \"@openzeppelin/contracts/token/ERC20/utils/SafeERC20.sol\":1301:1372  _callOptionalReturn(token, abi.encodeCall(token.transfer, (to, value))) */\n      tag_383\n        /* \"@openzeppelin/contracts/token/ERC20/utils/SafeERC20.sol\":1321:1326  token */\n      dup4\n        /* \"@openzeppelin/contracts/token/ERC20/utils/SafeERC20.sol\":1343:1348  token */\n      dup5\n        /* \"@openzeppelin/contracts/token/ERC20/utils/SafeERC20.sol\":1343:1357  token.transfer */\n      0xffffffffffffffffffffffffffffffffffffffff\n      and\n      0xa9059cbb\n        /* \"@openzeppelin/contracts/token/ERC20/utils/SafeERC20.sol\":1360:1362  to */\n      dup6\n        /* \"@openzeppelin/contracts/token/ERC20/utils/SafeERC20.sol\":1364:1369  value */\n      dup6\n        /* \"@openzeppelin/contracts/token/ERC20/utils/SafeERC20.sol\":1328:1371  abi.encodeCall(token.transfer, (to, value)) */\n      add(0x24, mload(0x40))\n      tag_384\n      swap3\n      swap2\n      swap1\n      tag_211\n      jump\t// in\n    tag_384:\n      mload(0x40)\n      0x20\n      dup2\n      dup4\n      sub\n      sub\n      dup2\n      mstore\n      swap1\n      0x40\n      mstore\n      swap2\n      pop\n      0xe0\n      shl\n      0x20\n      dup3\n      add\n      dup1\n      mload\n      0xffffffffffffffffffffffffffffffffffffffffffffffffffffffff\n      dup4\n      dup2\n      dup4\n      and\n      or\n      dup4\n      mstore\n      pop\n      pop\n      pop\n      pop\n        /* \"@openzeppelin/contracts/token/ERC20/utils/SafeERC20.sol\":1301:1320  _callOptionalReturn */\n      tag_385\n        /* \"@openzeppelin/contracts/token/ERC20/utils/SafeERC20.sol\":1301:1372  _callOptionalReturn(token, abi.encodeCall(token.transfer, (to, value))) */\n      jump\t// in\n    tag_383:\n        /* \"@openzeppelin/contracts/token/ERC20/utils/SafeERC20.sol\":1219:1379  function safeTransfer(IERC20 token, address to, uint256 value) internal {... */\n      pop\n      pop\n      pop\n      jump\t// out\n        /* \"@openzeppelin/contracts/security/ReentrancyGuard.sol\":2629:2838  function _nonReentrantAfter() private {... */\n    tag_201:\n        /* \"@openzeppelin/contracts/security/ReentrancyGuard.sol\":1716:1717  1 */\n      0x01\n        /* \"@openzeppelin/contracts/security/ReentrancyGuard.sol\":2809:2816  _status */\n      0x02\n        /* \"@openzeppelin/contracts/security/ReentrancyGuard.sol\":2809:2831  _status = _NOT_ENTERED */\n      dup2\n      swap1\n      sstore\n      pop\n        /* \"@openzeppelin/contracts/security/ReentrancyGuard.sol\":2629:2838  function _nonReentrantAfter() private {... */\n      jump\t// out\n        /* \"@openzeppelin/contracts/security/Pausable.sol\":2433:2550  function _unpause() internal virtual whenPaused {... */\n    tag_216:\n        /* \"@openzeppelin/contracts/security/Pausable.sol\":1486:1502  _requirePaused() */\n      tag_388\n        /* \"@openzeppelin/contracts/security/Pausable.sol\":1486:1500  _requirePaused */\n      tag_389\n        /* \"@openzeppelin/contracts/security/Pausable.sol\":1486:1502  _requirePaused() */\n      jump\t// in\n    tag_388:\n        /* \"@openzeppelin/contracts/security/Pausable.sol\":2501:2506  false */\n      0x00\n        /* \"@openzeppelin/contracts/security/Pausable.sol\":2491:2498  _paused */\n      0x03\n      0x00\n        /* \"@openzeppelin/contracts/security/Pausable.sol\":2491:2506  _paused = false */\n      0x0100\n      exp\n      dup2\n      sload\n      dup2\n      0xff\n      mul\n      not\n      and\n      swap1\n      dup4\n      iszero\n      iszero\n      mul\n      or\n      swap1\n      sstore\n      pop\n        /* \"@openzeppelin/contracts/security/Pausable.sol\":2521:2543  Unpaused(_msgSender()) */\n      0x5db9ee0a495bf2e6ff9c91a7834c1ba4fdd244a5e8aa4e537bd38aeae4b073aa\n        /* \"@openzeppelin/contracts/security/Pausable.sol\":2530:2542  _msgSender() */\n      tag_391\n        /* \"@openzeppelin/contracts/security/Pausable.sol\":2530:2540  _msgSender */\n      tag_255\n        /* \"@openzeppelin/contracts/security/Pausable.sol\":2530:2542  _msgSender() */\n      jump\t// in\n    tag_391:\n        /* \"@openzeppelin/contracts/security/Pausable.sol\":2521:2543  Unpaused(_msgSender()) */\n      mload(0x40)\n      tag_392\n      swap2\n      swap1\n      tag_94\n      jump\t// in\n    tag_392:\n      mload(0x40)\n      dup1\n      swap2\n      sub\n      swap1\n      log1\n        /* \"@openzeppelin/contracts/security/Pausable.sol\":2433:2550  function _unpause() internal virtual whenPaused {... */\n      jump\t// out\n        /* \"@openzeppelin/contracts/security/Pausable.sol\":2186:2301  function _pause() internal virtual whenNotPaused {... */\n    tag_221:\n        /* \"@openzeppelin/contracts/security/Pausable.sol\":1239:1258  _requireNotPaused() */\n      tag_394\n        /* \"@openzeppelin/contracts/security/Pausable.sol\":1239:1256  _requireNotPaused */\n      tag_305\n        /* \"@openzeppelin/contracts/security/Pausable.sol\":1239:1258  _requireNotPaused() */\n      jump\t// in\n    tag_394:\n        /* \"@openzeppelin/contracts/security/Pausable.sol\":2255:2259  true */\n      0x01\n        /* \"@openzeppelin/contracts/security/Pausable.sol\":2245:2252  _paused */\n      0x03\n      0x00\n        /* \"@openzeppelin/contracts/security/Pausable.sol\":2245:2259  _paused = true */\n      0x0100\n      exp\n      dup2\n      sload\n      dup2\n      0xff\n      mul\n      not\n      and\n      swap1\n      dup4\n      iszero\n      iszero\n      mul\n      or\n      swap1\n      sstore\n      pop\n        /* \"@openzeppelin/contracts/security/Pausable.sol\":2274:2294  Paused(_msgSender()) */\n      0x62e78cea01bee320cd4e420270b5ea74000d11b0c9f74754ebdbfc544b05a258\n        /* \"@openzeppelin/contracts/security/Pausable.sol\":2281:2293  _msgSender() */\n      tag_396\n        /* \"@openzeppelin/contracts/security/Pausable.sol\":2281:2291  _msgSender */\n      tag_255\n        /* \"@openzeppelin/contracts/security/Pausable.sol\":2281:2293  _msgSender() */\n      jump\t// in\n    tag_396:\n        /* \"@openzeppelin/contracts/security/Pausable.sol\":2274:2294  Paused(_msgSender()) */\n      mload(0x40)\n      tag_397\n      swap2\n      swap1\n      tag_94\n      jump\t// in\n    tag_397:\n      mload(0x40)\n      dup1\n      swap2\n      sub\n      swap1\n      log1\n        /* \"@openzeppelin/contracts/security/Pausable.sol\":2186:2301  function _pause() internal virtual whenNotPaused {... */\n      jump\t// out\n        /* \"@openzeppelin/contracts/access/Ownable2Step.sol\":2011:2164  function _transferOwnership(address newOwner) internal virtual override {... */\n    tag_252:\n        /* \"@openzeppelin/contracts/access/Ownable2Step.sol\":2100:2113  _pendingOwner */\n      0x01\n      0x00\n        /* \"@openzeppelin/contracts/access/Ownable2Step.sol\":2093:2113  delete _pendingOwner */\n      0x0100\n      exp\n      dup2\n      sload\n      swap1\n      0xffffffffffffffffffffffffffffffffffffffff\n      mul\n      not\n      and\n      swap1\n      sstore\n        /* \"@openzeppelin/contracts/access/Ownable2Step.sol\":2123:2157  super._transferOwnership(newOwner) */\n      tag_399\n        /* \"@openzeppelin/contracts/access/Ownable2Step.sol\":2148:2156  newOwner */\n      dup2\n        /* \"@openzeppelin/contracts/access/Ownable2Step.sol\":2123:2147  super._transferOwnership */\n      tag_400\n        /* \"@openzeppelin/contracts/access/Ownable2Step.sol\":2123:2157  super._transferOwnership(newOwner) */\n      jump\t// in\n    tag_399:\n        /* \"@openzeppelin/contracts/access/Ownable2Step.sol\":2011:2164  function _transferOwnership(address newOwner) internal virtual override {... */\n      pop\n      jump\t// out\n        /* \"@openzeppelin/contracts/utils/Context.sol\":656:752  function _msgSender() internal view virtual returns (address) {... */\n    tag_255:\n        /* \"@openzeppelin/contracts/utils/Context.sol\":709:716  address */\n      0x00\n        /* \"@openzeppelin/contracts/utils/Context.sol\":735:745  msg.sender */\n      caller\n        /* \"@openzeppelin/contracts/utils/Context.sol\":728:745  return msg.sender */\n      swap1\n      pop\n        /* \"@openzeppelin/contracts/utils/Context.sol\":656:752  function _msgSender() internal view virtual returns (address) {... */\n      swap1\n      jump\t// out\n        /* \"@openzeppelin/contracts/security/Pausable.sol\":1767:1873  function _requireNotPaused() internal view virtual {... */\n    tag_305:\n        /* \"@openzeppelin/contracts/security/Pausable.sol\":1837:1845  paused() */\n      tag_403\n        /* \"@openzeppelin/contracts/security/Pausable.sol\":1837:1843  paused */\n      tag_64\n        /* \"@openzeppelin/contracts/security/Pausable.sol\":1837:1845  paused() */\n      jump\t// in\n    tag_403:\n        /* \"@openzeppelin/contracts/security/Pausable.sol\":1836:1845  !paused() */\n      iszero\n        /* \"@openzeppelin/contracts/security/Pausable.sol\":1828:1866  require(!paused(), \"Pausable: paused\") */\n      tag_404\n      jumpi\n      mload(0x40)\n      0x08c379a000000000000000000000000000000000000000000000000000000000\n      dup2\n      mstore\n      0x04\n      add\n      tag_405\n      swap1\n      tag_406\n      jump\t// in\n    tag_405:\n      mload(0x40)\n      dup1\n      swap2\n      sub\n      swap1\n      revert\n    tag_404:\n        /* \"@openzeppelin/contracts/security/Pausable.sol\":1767:1873  function _requireNotPaused() internal view virtual {... */\n      jump\t// out\n        /* \"@openzeppelin/contracts/token/ERC20/utils/SafeERC20.sol\":1618:1806  function safeTransferFrom(IERC20 token, address from, address to, uint256 value) internal {... */\n    tag_324:\n        /* \"@openzeppelin/contracts/token/ERC20/utils/SafeERC20.sol\":1718:1799  _callOptionalReturn(token, abi.encodeCall(token.transferFrom, (from, to, value))) */\n      tag_408\n        /* \"@openzeppelin/contracts/token/ERC20/utils/SafeERC20.sol\":1738:1743  token */\n      dup5\n        /* \"@openzeppelin/contracts/token/ERC20/utils/SafeERC20.sol\":1760:1765  token */\n      dup6\n        /* \"@openzeppelin/contracts/token/ERC20/utils/SafeERC20.sol\":1760:1778  token.transferFrom */\n      0xffffffffffffffffffffffffffffffffffffffff\n      and\n      0x23b872dd\n        /* \"@openzeppelin/contracts/token/ERC20/utils/SafeERC20.sol\":1781:1785  from */\n      dup7\n        /* \"@openzeppelin/contracts/token/ERC20/utils/SafeERC20.sol\":1787:1789  to */\n      dup7\n        /* \"@openzeppelin/contracts/token/ERC20/utils/SafeERC20.sol\":1791:1796  value */\n      dup7\n        /* \"@openzeppelin/contracts/token/ERC20/utils/SafeERC20.sol\":1745:1798  abi.encodeCall(token.transferFrom, (from, to, value)) */\n      add(0x24, mload(0x40))\n      tag_409\n      swap4\n      swap3\n      swap2\n      swap1\n      tag_410\n      jump\t// in\n    tag_409:\n      mload(0x40)\n      0x20\n      dup2\n      dup4\n      sub\n      sub\n      dup2\n      mstore\n      swap1\n      0x40\n      mstore\n      swap2\n      pop\n      0xe0\n      shl\n      0x20\n      dup3\n      add\n      dup1\n      mload\n      0xffffffffffffffffffffffffffffffffffffffffffffffffffffffff\n      dup4\n      dup2\n      dup4\n      and\n      or\n      dup4\n      mstore\n      pop\n      pop\n      pop\n      pop\n        /* \"@openzeppelin/contracts/token/ERC20/utils/SafeERC20.sol\":1718:1737  _callOptionalReturn */\n      tag_385\n        /* \"@openzeppelin/contracts/token/ERC20/utils/SafeERC20.sol\":1718:1799  _callOptionalReturn(token, abi.encodeCall(token.transferFrom, (from, to, value))) */\n      jump\t// in\n    tag_408:\n        /* \"@openzeppelin/contracts/token/ERC20/utils/SafeERC20.sol\":1618:1806  function safeTransferFrom(IERC20 token, address from, address to, uint256 value) internal {... */\n      pop\n      pop\n      pop\n      pop\n      jump\t// out\n        /* \"@openzeppelin/contracts/token/ERC20/utils/SafeERC20.sol\":8370:9090  function _callOptionalReturn(IERC20 token, bytes memory data) private {... */\n    tag_385:\n        /* \"@openzeppelin/contracts/token/ERC20/utils/SafeERC20.sol\":8450:8468  uint256 returnSize */\n      0x00\n        /* \"@openzeppelin/contracts/token/ERC20/utils/SafeERC20.sol\":8478:8497  uint256 returnValue */\n      0x00\n        /* \"@openzeppelin/contracts/token/ERC20/utils/SafeERC20.sol\":8616:8620  0x20 */\n      0x20\n        /* \"@openzeppelin/contracts/token/ERC20/utils/SafeERC20.sol\":8613:8614  0 */\n      0x00\n        /* \"@openzeppelin/contracts/token/ERC20/utils/SafeERC20.sol\":8606:8610  data */\n      dup5\n        /* \"@openzeppelin/contracts/token/ERC20/utils/SafeERC20.sol\":8600:8611  mload(data) */\n      mload\n        /* \"@openzeppelin/contracts/token/ERC20/utils/SafeERC20.sol\":8593:8597  0x20 */\n      0x20\n        /* \"@openzeppelin/contracts/token/ERC20/utils/SafeERC20.sol\":8587:8591  data */\n      dup7\n        /* \"@openzeppelin/contracts/token/ERC20/utils/SafeERC20.sol\":8583:8598  add(data, 0x20) */\n      add\n        /* \"@openzeppelin/contracts/token/ERC20/utils/SafeERC20.sol\":8580:8581  0 */\n      0x00\n        /* \"@openzeppelin/contracts/token/ERC20/utils/SafeERC20.sol\":8573:8578  token */\n      dup9\n        /* \"@openzeppelin/contracts/token/ERC20/utils/SafeERC20.sol\":8566:8571  gas() */\n      gas\n        /* \"@openzeppelin/contracts/token/ERC20/utils/SafeERC20.sol\":8561:8621  call(gas(), token, 0, add(data, 0x20), mload(data), 0, 0x20) */\n      call\n        /* \"@openzeppelin/contracts/token/ERC20/utils/SafeERC20.sol\":8673:8680  success */\n      dup1\n        /* \"@openzeppelin/contracts/token/ERC20/utils/SafeERC20.sol\":8663:8839  if iszero(success) {... */\n      tag_412\n      jumpi\n        /* \"@openzeppelin/contracts/token/ERC20/utils/SafeERC20.sol\":8717:8721  0x40 */\n      0x40\n        /* \"@openzeppelin/contracts/token/ERC20/utils/SafeERC20.sol\":8711:8722  mload(0x40) */\n      mload\n        /* \"@openzeppelin/contracts/token/ERC20/utils/SafeERC20.sol\":8762:8778  returndatasize() */\n      returndatasize\n        /* \"@openzeppelin/contracts/token/ERC20/utils/SafeERC20.sol\":8759:8760  0 */\n      0x00\n        /* \"@openzeppelin/contracts/token/ERC20/utils/SafeERC20.sol\":8754:8757  ptr */\n      dup3\n        /* \"@openzeppelin/contracts/token/ERC20/utils/SafeERC20.sol\":8739:8779  returndatacopy(ptr, 0, returndatasize()) */\n      returndatacopy\n        /* \"@openzeppelin/contracts/token/ERC20/utils/SafeERC20.sol\":8808:8824  returndatasize() */\n      returndatasize\n        /* \"@openzeppelin/contracts/token/ERC20/utils/SafeERC20.sol\":8803:8806  ptr */\n      dup2\n        /* \"@openzeppelin/contracts/token/ERC20/utils/SafeERC20.sol\":8796:8825  revert(ptr, returndatasize()) */\n      revert\n        /* \"@openzeppelin/contracts/token/ERC20/utils/SafeERC20.sol\":8663:8839  if iszero(success) {... */\n    tag_412:\n        /* \"@openzeppelin/contracts/token/ERC20/utils/SafeERC20.sol\":8866:8882  returndatasize() */\n      returndatasize\n        /* \"@openzeppelin/contracts/token/ERC20/utils/SafeERC20.sol\":8852:8882  returnSize := returndatasize() */\n      swap3\n      pop\n        /* \"@openzeppelin/contracts/token/ERC20/utils/SafeERC20.sol\":8916:8917  0 */\n      0x00\n        /* \"@openzeppelin/contracts/token/ERC20/utils/SafeERC20.sol\":8910:8918  mload(0) */\n      mload\n        /* \"@openzeppelin/contracts/token/ERC20/utils/SafeERC20.sol\":8895:8918  returnValue := mload(0) */\n      swap2\n      pop\n        /* \"@openzeppelin/contracts/token/ERC20/utils/SafeERC20.sol\":8532:8928  {... */\n      pop\n        /* \"@openzeppelin/contracts/token/ERC20/utils/SafeERC20.sol\":8956:8957  0 */\n      0x00\n        /* \"@openzeppelin/contracts/token/ERC20/utils/SafeERC20.sol\":8942:8952  returnSize */\n      dup3\n        /* \"@openzeppelin/contracts/token/ERC20/utils/SafeERC20.sol\":8942:8957  returnSize == 0 */\n      eq\n        /* \"@openzeppelin/contracts/token/ERC20/utils/SafeERC20.sol\":8942:9010  returnSize == 0 ? address(token).code.length == 0 : returnValue != 1 */\n      tag_413\n      jumpi\n        /* \"@openzeppelin/contracts/token/ERC20/utils/SafeERC20.sol\":9009:9010  1 */\n      0x01\n        /* \"@openzeppelin/contracts/token/ERC20/utils/SafeERC20.sol\":8994:9005  returnValue */\n      dup2\n        /* \"@openzeppelin/contracts/token/ERC20/utils/SafeERC20.sol\":8994:9010  returnValue != 1 */\n      eq\n      iszero\n        /* \"@openzeppelin/contracts/token/ERC20/utils/SafeERC20.sol\":8942:9010  returnSize == 0 ? address(token).code.length == 0 : returnValue != 1 */\n      jump(tag_414)\n    tag_413:\n        /* \"@openzeppelin/contracts/token/ERC20/utils/SafeERC20.sol\":8990:8991  0 */\n      0x00\n        /* \"@openzeppelin/contracts/token/ERC20/utils/SafeERC20.sol\":8968:8973  token */\n      dup5\n        /* \"@openzeppelin/contracts/token/ERC20/utils/SafeERC20.sol\":8960:8986  address(token).code.length */\n      0xffffffffffffffffffffffffffffffffffffffff\n      and\n      extcodesize\n        /* \"@openzeppelin/contracts/token/ERC20/utils/SafeERC20.sol\":8960:8991  address(token).code.length == 0 */\n      eq\n        /* \"@openzeppelin/contracts/token/ERC20/utils/SafeERC20.sol\":8942:9010  returnSize == 0 ? address(token).code.length == 0 : returnValue != 1 */\n    tag_414:\n        /* \"@openzeppelin/contracts/token/ERC20/utils/SafeERC20.sol\":8938:9084  if (returnSize == 0 ? address(token).code.length == 0 : returnValue != 1) {... */\n      iszero\n      tag_415\n      jumpi\n        /* \"@openzeppelin/contracts/token/ERC20/utils/SafeERC20.sol\":9066:9071  token */\n      dup4\n        /* \"@openzeppelin/contracts/token/ERC20/utils/SafeERC20.sol\":9033:9073  SafeERC20FailedOperation(address(token)) */\n      mload(0x40)\n      0x5274afe700000000000000000000000000000000000000000000000000000000\n      dup2\n      mstore\n      0x04\n      add\n      tag_416\n      swap2\n      swap1\n      tag_94\n      jump\t// in\n    tag_416:\n      mload(0x40)\n      dup1\n      swap2\n      sub\n      swap1\n      revert\n        /* \"@openzeppelin/contracts/token/ERC20/utils/SafeERC20.sol\":8938:9084  if (returnSize == 0 ? address(token).code.length == 0 : returnValue != 1) {... */\n    tag_415:\n        /* \"@openzeppelin/contracts/token/ERC20/utils/SafeERC20.sol\":8440:9090  {... */\n      pop\n      pop\n        /* \"@openzeppelin/contracts/token/ERC20/utils/SafeERC20.sol\":8370:9090  function _callOptionalReturn(IERC20 token, bytes memory data) private {... */\n      pop\n      pop\n      jump\t// out\n        /* \"@openzeppelin/contracts/security/Pausable.sol\":1945:2051  function _requirePaused() internal view virtual {... */\n    tag_389:\n        /* \"@openzeppelin/contracts/security/Pausable.sol\":2011:2019  paused() */\n      tag_418\n        /* \"@openzeppelin/contracts/security/Pausable.sol\":2011:2017  paused */\n      tag_64\n        /* \"@openzeppelin/contracts/security/Pausable.sol\":2011:2019  paused() */\n      jump\t// in\n    tag_418:\n        /* \"@openzeppelin/contracts/security/Pausable.sol\":2003:2044  require(paused(), \"Pausable: not paused\") */\n      tag_419\n      jumpi\n      mload(0x40)\n      0x08c379a000000000000000000000000000000000000000000000000000000000\n      dup2\n      mstore\n      0x04\n      add\n      tag_420\n      swap1\n      tag_421\n      jump\t// in\n    tag_420:\n      mload(0x40)\n      dup1\n      swap2\n      sub\n      swap1\n      revert\n    tag_419:\n        /* \"@openzeppelin/contracts/security/Pausable.sol\":1945:2051  function _requirePaused() internal view virtual {... */\n      jump\t// out\n        /* \"@openzeppelin/contracts/access/Ownable.sol\":2912:3099  function _transferOwnership(address newOwner) internal virtual {... */\n    tag_400:\n        /* \"@openzeppelin/contracts/access/Ownable.sol\":2985:3001  address oldOwner */\n      0x00\n        /* \"@openzeppelin/contracts/access/Ownable.sol\":3004:3010  _owner */\n      0x00\n      0x00\n      swap1\n      sload\n      swap1\n      0x0100\n      exp\n      swap1\n      div\n      0xffffffffffffffffffffffffffffffffffffffff\n      and\n        /* \"@openzeppelin/contracts/access/Ownable.sol\":2985:3010  address oldOwner = _owner */\n      swap1\n      pop\n        /* \"@openzeppelin/contracts/access/Ownable.sol\":3029:3037  newOwner */\n      dup2\n        /* \"@openzeppelin/contracts/access/Ownable.sol\":3020:3026  _owner */\n      0x00\n      0x00\n        /* \"@openzeppelin/contracts/access/Ownable.sol\":3020:3037  _owner = newOwner */\n      0x0100\n      exp\n      dup2\n      sload\n      dup2\n      0xffffffffffffffffffffffffffffffffffffffff\n      mul\n      not\n      and\n      swap1\n      dup4\n      0xffffffffffffffffffffffffffffffffffffffff\n      and\n      mul\n      or\n      swap1\n      sstore\n      pop\n        /* \"@openzeppelin/contracts/access/Ownable.sol\":3083:3091  newOwner */\n      dup2\n        /* \"@openzeppelin/contracts/access/Ownable.sol\":3052:3092  OwnershipTransferred(oldOwner, newOwner) */\n      0xffffffffffffffffffffffffffffffffffffffff\n      and\n        /* \"@openzeppelin/contracts/access/Ownable.sol\":3073:3081  oldOwner */\n      dup2\n        /* \"@openzeppelin/contracts/access/Ownable.sol\":3052:3092  OwnershipTransferred(oldOwner, newOwner) */\n      0xffffffffffffffffffffffffffffffffffffffff\n      and\n      0x8be0079c531659141344cd1fd0a4f28419497f9722a3daafe3b4186f6b6457e0\n      mload(0x40)\n      mload(0x40)\n      dup1\n      swap2\n      sub\n      swap1\n      log3\n        /* \"@openzeppelin/contracts/access/Ownable.sol\":2975:3099  {... */\n      pop\n        /* \"@openzeppelin/contracts/access/Ownable.sol\":2912:3099  function _transferOwnership(address newOwner) internal virtual {... */\n      pop\n      jump\t// out\n    tag_240:\n      mload(0x40)\n      dup1\n      0xa0\n      add\n      0x40\n      mstore\n      dup1\n      and(0xffffffffffffffffffffffffffffffffffffffff, 0x00)\n      dup2\n      mstore\n      0x20\n      add\n      0x00\n      dup2\n      mstore\n      0x20\n      add\n      0x00\n      dup2\n      mstore\n      0x20\n      add\n      0x00\n      dup2\n      mstore\n      0x20\n      add\n      iszero(iszero(0x00))\n      dup2\n      mstore\n      pop\n      swap1\n      jump\t// out\n        /* \"#utility.yul\":88:205   */\n    tag_424:\n        /* \"#utility.yul\":197:198   */\n      0x00\n        /* \"#utility.yul\":194:195   */\n      0x00\n        /* \"#utility.yul\":187:199   */\n      revert\n        /* \"#utility.yul\":334:460   */\n    tag_426:\n        /* \"#utility.yul\":371:378   */\n      0x00\n        /* \"#utility.yul\":411:453   */\n      0xffffffffffffffffffffffffffffffffffffffff\n        /* \"#utility.yul\":404:409   */\n      dup3\n        /* \"#utility.yul\":400:454   */\n      and\n        /* \"#utility.yul\":389:454   */\n      swap1\n      pop\n        /* \"#utility.yul\":334:460   */\n      swap2\n      swap1\n      pop\n      jump\t// out\n        /* \"#utility.yul\":466:562   */\n    tag_427:\n        /* \"#utility.yul\":503:510   */\n      0x00\n        /* \"#utility.yul\":532:556   */\n      tag_500\n        /* \"#utility.yul\":550:555   */\n      dup3\n        /* \"#utility.yul\":532:556   */\n      tag_426\n      jump\t// in\n    tag_500:\n        /* \"#utility.yul\":521:556   */\n      swap1\n      pop\n        /* \"#utility.yul\":466:562   */\n      swap2\n      swap1\n      pop\n      jump\t// out\n        /* \"#utility.yul\":568:690   */\n    tag_428:\n        /* \"#utility.yul\":641:665   */\n      tag_502\n        /* \"#utility.yul\":659:664   */\n      dup2\n        /* \"#utility.yul\":641:665   */\n      tag_427\n      jump\t// in\n    tag_502:\n        /* \"#utility.yul\":634:639   */\n      dup2\n        /* \"#utility.yul\":631:666   */\n      eq\n        /* \"#utility.yul\":621:684   */\n      tag_503\n      jumpi\n        /* \"#utility.yul\":680:681   */\n      0x00\n        /* \"#utility.yul\":677:678   */\n      0x00\n        /* \"#utility.yul\":670:682   */\n      revert\n        /* \"#utility.yul\":621:684   */\n    tag_503:\n        /* \"#utility.yul\":568:690   */\n      pop\n      jump\t// out\n        /* \"#utility.yul\":696:835   */\n    tag_429:\n        /* \"#utility.yul\":742:747   */\n      0x00\n        /* \"#utility.yul\":780:786   */\n      dup2\n        /* \"#utility.yul\":767:787   */\n      calldataload\n        /* \"#utility.yul\":758:787   */\n      swap1\n      pop\n        /* \"#utility.yul\":796:829   */\n      tag_505\n        /* \"#utility.yul\":823:828   */\n      dup2\n        /* \"#utility.yul\":796:829   */\n      tag_428\n      jump\t// in\n    tag_505:\n        /* \"#utility.yul\":696:835   */\n      swap3\n      swap2\n      pop\n      pop\n      jump\t// out\n        /* \"#utility.yul\":841:918   */\n    tag_430:\n        /* \"#utility.yul\":878:885   */\n      0x00\n        /* \"#utility.yul\":907:912   */\n      dup2\n        /* \"#utility.yul\":896:912   */\n      swap1\n      pop\n        /* \"#utility.yul\":841:918   */\n      swap2\n      swap1\n      pop\n      jump\t// out\n        /* \"#utility.yul\":924:1046   */\n    tag_431:\n        /* \"#utility.yul\":997:1021   */\n      tag_508\n        /* \"#utility.yul\":1015:1020   */\n      dup2\n        /* \"#utility.yul\":997:1021   */\n      tag_430\n      jump\t// in\n    tag_508:\n        /* \"#utility.yul\":990:995   */\n      dup2\n        /* \"#utility.yul\":987:1022   */\n      eq\n        /* \"#utility.yul\":977:1040   */\n      tag_509\n      jumpi\n        /* \"#utility.yul\":1036:1037   */\n      0x00\n        /* \"#utility.yul\":1033:1034   */\n      0x00\n        /* \"#utility.yul\":1026:1038   */\n      revert\n        /* \"#utility.yul\":977:1040   */\n    tag_509:\n        /* \"#utility.yul\":924:1046   */\n      pop\n      jump\t// out\n        /* \"#utility.yul\":1052:1191   */\n    tag_432:\n        /* \"#utility.yul\":1098:1103   */\n      0x00\n        /* \"#utility.yul\":1136:1142   */\n      dup2\n        /* \"#utility.yul\":1123:1143   */\n      calldataload\n        /* \"#utility.yul\":1114:1143   */\n      swap1\n      pop\n        /* \"#utility.yul\":1152:1185   */\n      tag_511\n        /* \"#utility.yul\":1179:1184   */\n      dup2\n        /* \"#utility.yul\":1152:1185   */\n      tag_431\n      jump\t// in\n    tag_511:\n        /* \"#utility.yul\":1052:1191   */\n      swap3\n      swap2\n      pop\n      pop\n      jump\t// out\n        /* \"#utility.yul\":1197:1962   */\n    tag_40:\n        /* \"#utility.yul\":1283:1289   */\n      0x00\n        /* \"#utility.yul\":1291:1297   */\n      0x00\n        /* \"#utility.yul\":1299:1305   */\n      0x00\n        /* \"#utility.yul\":1307:1313   */\n      0x00\n        /* \"#utility.yul\":1356:1359   */\n      0x80\n        /* \"#utility.yul\":1344:1353   */\n      dup6\n        /* \"#utility.yul\":1335:1342   */\n      dup8\n        /* \"#utility.yul\":1331:1354   */\n      sub\n        /* \"#utility.yul\":1327:1360   */\n      slt\n        /* \"#utility.yul\":1324:1444   */\n      iszero\n      tag_513\n      jumpi\n        /* \"#utility.yul\":1363:1442   */\n      tag_514\n      tag_424\n      jump\t// in\n    tag_514:\n        /* \"#utility.yul\":1324:1444   */\n    tag_513:\n        /* \"#utility.yul\":1483:1484   */\n      0x00\n        /* \"#utility.yul\":1508:1561   */\n      tag_515\n        /* \"#utility.yul\":1553:1560   */\n      dup8\n        /* \"#utility.yul\":1544:1550   */\n      dup3\n        /* \"#utility.yul\":1533:1542   */\n      dup9\n        /* \"#utility.yul\":1529:1551   */\n      add\n        /* \"#utility.yul\":1508:1561   */\n      tag_429\n      jump\t// in\n    tag_515:\n        /* \"#utility.yul\":1498:1561   */\n      swap5\n      pop\n        /* \"#utility.yul\":1454:1571   */\n      pop\n        /* \"#utility.yul\":1610:1612   */\n      0x20\n        /* \"#utility.yul\":1636:1689   */\n      tag_516\n        /* \"#utility.yul\":1681:1688   */\n      dup8\n        /* \"#utility.yul\":1672:1678   */\n      dup3\n        /* \"#utility.yul\":1661:1670   */\n      dup9\n        /* \"#utility.yul\":1657:1679   */\n      add\n        /* \"#utility.yul\":1636:1689   */\n      tag_432\n      jump\t// in\n    tag_516:\n        /* \"#utility.yul\":1626:1689   */\n      swap4\n      pop\n        /* \"#utility.yul\":1581:1699   */\n      pop\n        /* \"#utility.yul\":1738:1740   */\n      0x40\n        /* \"#utility.yul\":1764:1817   */\n      tag_517\n        /* \"#utility.yul\":1809:1816   */\n      dup8\n        /* \"#utility.yul\":1800:1806   */\n      dup3\n        /* \"#utility.yul\":1789:1798   */\n      dup9\n        /* \"#utility.yul\":1785:1807   */\n      add\n        /* \"#utility.yul\":1764:1817   */\n      tag_432\n      jump\t// in\n    tag_517:\n        /* \"#utility.yul\":1754:1817   */\n      swap3\n      pop\n        /* \"#utility.yul\":1709:1827   */\n      pop\n        /* \"#utility.yul\":1866:1868   */\n      0x60\n        /* \"#utility.yul\":1892:1945   */\n      tag_518\n        /* \"#utility.yul\":1937:1944   */\n      dup8\n        /* \"#utility.yul\":1928:1934   */\n      dup3\n        /* \"#utility.yul\":1917:1926   */\n      dup9\n        /* \"#utility.yul\":1913:1935   */\n      add\n        /* \"#utility.yul\":1892:1945   */\n      tag_432\n      jump\t// in\n    tag_518:\n        /* \"#utility.yul\":1882:1945   */\n      swap2\n      pop\n        /* \"#utility.yul\":1837:1955   */\n      pop\n        /* \"#utility.yul\":1197:1962   */\n      swap3\n      swap6\n      swap2\n      swap5\n      pop\n      swap3\n      pop\n      jump\t// out\n        /* \"#utility.yul\":1968:2058   */\n    tag_433:\n        /* \"#utility.yul\":2002:2009   */\n      0x00\n        /* \"#utility.yul\":2045:2050   */\n      dup2\n        /* \"#utility.yul\":2038:2051   */\n      iszero\n        /* \"#utility.yul\":2031:2052   */\n      iszero\n        /* \"#utility.yul\":2020:2052   */\n      swap1\n      pop\n        /* \"#utility.yul\":1968:2058   */\n      swap2\n      swap1\n      pop\n      jump\t// out\n        /* \"#utility.yul\":2064:2180   */\n    tag_434:\n        /* \"#utility.yul\":2134:2155   */\n      tag_521\n        /* \"#utility.yul\":2149:2154   */\n      dup2\n        /* \"#utility.yul\":2134:2155   */\n      tag_433\n      jump\t// in\n    tag_521:\n        /* \"#utility.yul\":2127:2132   */\n      dup2\n        /* \"#utility.yul\":2124:2156   */\n      eq\n        /* \"#utility.yul\":2114:2174   */\n      tag_522\n      jumpi\n        /* \"#utility.yul\":2170:2171   */\n      0x00\n        /* \"#utility.yul\":2167:2168   */\n      0x00\n        /* \"#utility.yul\":2160:2172   */\n      revert\n        /* \"#utility.yul\":2114:2174   */\n    tag_522:\n        /* \"#utility.yul\":2064:2180   */\n      pop\n      jump\t// out\n        /* \"#utility.yul\":2186:2319   */\n    tag_435:\n        /* \"#utility.yul\":2229:2234   */\n      0x00\n        /* \"#utility.yul\":2267:2273   */\n      dup2\n        /* \"#utility.yul\":2254:2274   */\n      calldataload\n        /* \"#utility.yul\":2245:2274   */\n      swap1\n      pop\n        /* \"#utility.yul\":2283:2313   */\n      tag_524\n        /* \"#utility.yul\":2307:2312   */\n      dup2\n        /* \"#utility.yul\":2283:2313   */\n      tag_434\n      jump\t// in\n    tag_524:\n        /* \"#utility.yul\":2186:2319   */\n      swap3\n      swap2\n      pop\n      pop\n      jump\t// out\n        /* \"#utility.yul\":2325:2793   */\n    tag_44:\n        /* \"#utility.yul\":2390:2396   */\n      0x00\n        /* \"#utility.yul\":2398:2404   */\n      0x00\n        /* \"#utility.yul\":2447:2449   */\n      0x40\n        /* \"#utility.yul\":2435:2444   */\n      dup4\n        /* \"#utility.yul\":2426:2433   */\n      dup6\n        /* \"#utility.yul\":2422:2445   */\n      sub\n        /* \"#utility.yul\":2418:2450   */\n      slt\n        /* \"#utility.yul\":2415:2534   */\n      iszero\n      tag_526\n      jumpi\n        /* \"#utility.yul\":2453:2532   */\n      tag_527\n      tag_424\n      jump\t// in\n    tag_527:\n        /* \"#utility.yul\":2415:2534   */\n    tag_526:\n        /* \"#utility.yul\":2573:2574   */\n      0x00\n        /* \"#utility.yul\":2598:2651   */\n      tag_528\n        /* \"#utility.yul\":2643:2650   */\n      dup6\n        /* \"#utility.yul\":2634:2640   */\n      dup3\n        /* \"#utility.yul\":2623:2632   */\n      dup7\n        /* \"#utility.yul\":2619:2641   */\n      add\n        /* \"#utility.yul\":2598:2651   */\n      tag_432\n      jump\t// in\n    tag_528:\n        /* \"#utility.yul\":2588:2651   */\n      swap3\n      pop\n        /* \"#utility.yul\":2544:2661   */\n      pop\n        /* \"#utility.yul\":2700:2702   */\n      0x20\n        /* \"#utility.yul\":2726:2776   */\n      tag_529\n        /* \"#utility.yul\":2768:2775   */\n      dup6\n        /* \"#utility.yul\":2759:2765   */\n      dup3\n        /* \"#utility.yul\":2748:2757   */\n      dup7\n        /* \"#utility.yul\":2744:2766   */\n      add\n        /* \"#utility.yul\":2726:2776   */\n      tag_435\n      jump\t// in\n    tag_529:\n        /* \"#utility.yul\":2716:2776   */\n      swap2\n      pop\n        /* \"#utility.yul\":2671:2786   */\n      pop\n        /* \"#utility.yul\":2325:2793   */\n      swap3\n      pop\n      swap3\n      swap1\n      pop\n      jump\t// out\n        /* \"#utility.yul\":2799:3128   */\n    tag_48:\n        /* \"#utility.yul\":2858:2864   */\n      0x00\n        /* \"#utility.yul\":2907:2909   */\n      0x20\n        /* \"#utility.yul\":2895:2904   */\n      dup3\n        /* \"#utility.yul\":2886:2893   */\n      dup5\n        /* \"#utility.yul\":2882:2905   */\n      sub\n        /* \"#utility.yul\":2878:2910   */\n      slt\n        /* \"#utility.yul\":2875:2994   */\n      iszero\n      tag_531\n      jumpi\n        /* \"#utility.yul\":2913:2992   */\n      tag_532\n      tag_424\n      jump\t// in\n    tag_532:\n        /* \"#utility.yul\":2875:2994   */\n    tag_531:\n        /* \"#utility.yul\":3033:3034   */\n      0x00\n        /* \"#utility.yul\":3058:3111   */\n      tag_533\n        /* \"#utility.yul\":3103:3110   */\n      dup5\n        /* \"#utility.yul\":3094:3100   */\n      dup3\n        /* \"#utility.yul\":3083:3092   */\n      dup6\n        /* \"#utility.yul\":3079:3101   */\n      add\n        /* \"#utility.yul\":3058:3111   */\n      tag_432\n      jump\t// in\n    tag_533:\n        /* \"#utility.yul\":3048:3111   */\n      swap2\n      pop\n        /* \"#utility.yul\":3004:3121   */\n      pop\n        /* \"#utility.yul\":2799:3128   */\n      swap3\n      swap2\n      pop\n      pop\n      jump\t// out\n        /* \"#utility.yul\":3134:3252   */\n    tag_436:\n        /* \"#utility.yul\":3221:3245   */\n      tag_535\n        /* \"#utility.yul\":3239:3244   */\n      dup2\n        /* \"#utility.yul\":3221:3245   */\n      tag_430\n      jump\t// in\n    tag_535:\n        /* \"#utility.yul\":3216:3219   */\n      dup3\n        /* \"#utility.yul\":3209:3246   */\n      mstore\n        /* \"#utility.yul\":3134:3252   */\n      pop\n      pop\n      jump\t// out\n        /* \"#utility.yul\":3258:3480   */\n    tag_53:\n        /* \"#utility.yul\":3351:3355   */\n      0x00\n        /* \"#utility.yul\":3389:3391   */\n      0x20\n        /* \"#utility.yul\":3378:3387   */\n      dup3\n        /* \"#utility.yul\":3374:3392   */\n      add\n        /* \"#utility.yul\":3366:3392   */\n      swap1\n      pop\n        /* \"#utility.yul\":3402:3473   */\n      tag_537\n        /* \"#utility.yul\":3470:3471   */\n      0x00\n        /* \"#utility.yul\":3459:3468   */\n      dup4\n        /* \"#utility.yul\":3455:3472   */\n      add\n        /* \"#utility.yul\":3446:3452   */\n      dup5\n        /* \"#utility.yul\":3402:3473   */\n      tag_436\n      jump\t// in\n    tag_537:\n        /* \"#utility.yul\":3258:3480   */\n      swap3\n      swap2\n      pop\n      pop\n      jump\t// out\n        /* \"#utility.yul\":3486:3595   */\n    tag_437:\n        /* \"#utility.yul\":3567:3588   */\n      tag_539\n        /* \"#utility.yul\":3582:3587   */\n      dup2\n        /* \"#utility.yul\":3567:3588   */\n      tag_433\n      jump\t// in\n    tag_539:\n        /* \"#utility.yul\":3562:3565   */\n      dup3\n        /* \"#utility.yul\":3555:3589   */\n      mstore\n        /* \"#utility.yul\":3486:3595   */\n      pop\n      pop\n      jump\t// out\n        /* \"#utility.yul\":3601:3811   */\n    tag_66:\n        /* \"#utility.yul\":3688:3692   */\n      0x00\n        /* \"#utility.yul\":3726:3728   */\n      0x20\n        /* \"#utility.yul\":3715:3724   */\n      dup3\n        /* \"#utility.yul\":3711:3729   */\n      add\n        /* \"#utility.yul\":3703:3729   */\n      swap1\n      pop\n        /* \"#utility.yul\":3739:3804   */\n      tag_541\n        /* \"#utility.yul\":3801:3802   */\n      0x00\n        /* \"#utility.yul\":3790:3799   */\n      dup4\n        /* \"#utility.yul\":3786:3803   */\n      add\n        /* \"#utility.yul\":3777:3783   */\n      dup5\n        /* \"#utility.yul\":3739:3804   */\n      tag_437\n      jump\t// in\n    tag_541:\n        /* \"#utility.yul\":3601:3811   */\n      swap3\n      swap2\n      pop\n      pop\n      jump\t// out\n        /* \"#utility.yul\":3817:3925   */\n    tag_438:\n        /* \"#utility.yul\":3894:3918   */\n      tag_543\n        /* \"#utility.yul\":3912:3917   */\n      dup2\n        /* \"#utility.yul\":3894:3918   */\n      tag_427\n      jump\t// in\n    tag_543:\n        /* \"#utility.yul\":3889:3892   */\n      dup3\n        /* \"#utility.yul\":3882:3919   */\n      mstore\n        /* \"#utility.yul\":3817:3925   */\n      pop\n      pop\n      jump\t// out\n        /* \"#utility.yul\":3931:4039   */\n    tag_439:\n        /* \"#utility.yul\":4008:4032   */\n      tag_545\n        /* \"#utility.yul\":4026:4031   */\n      dup2\n        /* \"#utility.yul\":4008:4032   */\n      tag_430\n      jump\t// in\n    tag_545:\n        /* \"#utility.yul\":4003:4006   */\n      dup3\n        /* \"#utility.yul\":3996:4033   */\n      mstore\n        /* \"#utility.yul\":3931:4039   */\n      pop\n      pop\n      jump\t// out\n        /* \"#utility.yul\":4045:4144   */\n    tag_440:\n        /* \"#utility.yul\":4116:4137   */\n      tag_547\n        /* \"#utility.yul\":4131:4136   */\n      dup2\n        /* \"#utility.yul\":4116:4137   */\n      tag_433\n      jump\t// in\n    tag_547:\n        /* \"#utility.yul\":4111:4114   */\n      dup3\n        /* \"#utility.yul\":4104:4138   */\n      mstore\n        /* \"#utility.yul\":4045:4144   */\n      pop\n      pop\n      jump\t// out\n        /* \"#utility.yul\":4222:5294   */\n    tag_441:\n        /* \"#utility.yul\":4377:4381   */\n      0xa0\n        /* \"#utility.yul\":4372:4375   */\n      dup3\n        /* \"#utility.yul\":4368:4382   */\n      add\n        /* \"#utility.yul\":4477:4481   */\n      0x00\n        /* \"#utility.yul\":4470:4475   */\n      dup3\n        /* \"#utility.yul\":4466:4482   */\n      add\n        /* \"#utility.yul\":4460:4483   */\n      mload\n        /* \"#utility.yul\":4496:4559   */\n      tag_549\n        /* \"#utility.yul\":4553:4557   */\n      0x00\n        /* \"#utility.yul\":4548:4551   */\n      dup6\n        /* \"#utility.yul\":4544:4558   */\n      add\n        /* \"#utility.yul\":4530:4542   */\n      dup3\n        /* \"#utility.yul\":4496:4559   */\n      tag_438\n      jump\t// in\n    tag_549:\n        /* \"#utility.yul\":4392:4569   */\n      pop\n        /* \"#utility.yul\":4659:4663   */\n      0x20\n        /* \"#utility.yul\":4652:4657   */\n      dup3\n        /* \"#utility.yul\":4648:4664   */\n      add\n        /* \"#utility.yul\":4642:4665   */\n      mload\n        /* \"#utility.yul\":4678:4741   */\n      tag_550\n        /* \"#utility.yul\":4735:4739   */\n      0x20\n        /* \"#utility.yul\":4730:4733   */\n      dup6\n        /* \"#utility.yul\":4726:4740   */\n      add\n        /* \"#utility.yul\":4712:4724   */\n      dup3\n        /* \"#utility.yul\":4678:4741   */\n      tag_439\n      jump\t// in\n    tag_550:\n        /* \"#utility.yul\":4579:4751   */\n      pop\n        /* \"#utility.yul\":4835:4839   */\n      0x40\n        /* \"#utility.yul\":4828:4833   */\n      dup3\n        /* \"#utility.yul\":4824:4840   */\n      add\n        /* \"#utility.yul\":4818:4841   */\n      mload\n        /* \"#utility.yul\":4854:4917   */\n      tag_551\n        /* \"#utility.yul\":4911:4915   */\n      0x40\n        /* \"#utility.yul\":4906:4909   */\n      dup6\n        /* \"#utility.yul\":4902:4916   */\n      add\n        /* \"#utility.yul\":4888:4900   */\n      dup3\n        /* \"#utility.yul\":4854:4917   */\n      tag_439\n      jump\t// in\n    tag_551:\n        /* \"#utility.yul\":4761:4927   */\n      pop\n        /* \"#utility.yul\":5023:5027   */\n      0x60\n        /* \"#utility.yul\":5016:5021   */\n      dup3\n        /* \"#utility.yul\":5012:5028   */\n      add\n        /* \"#utility.yul\":5006:5029   */\n      mload\n        /* \"#utility.yul\":5042:5105   */\n      tag_552\n        /* \"#utility.yul\":5099:5103   */\n      0x60\n        /* \"#utility.yul\":5094:5097   */\n      dup6\n        /* \"#utility.yul\":5090:5104   */\n      add\n        /* \"#utility.yul\":5076:5088   */\n      dup3\n        /* \"#utility.yul\":5042:5105   */\n      tag_439\n      jump\t// in\n    tag_552:\n        /* \"#utility.yul\":4937:5115   */\n      pop\n        /* \"#utility.yul\":5201:5205   */\n      0x80\n        /* \"#utility.yul\":5194:5199   */\n      dup3\n        /* \"#utility.yul\":5190:5206   */\n      add\n        /* \"#utility.yul\":5184:5207   */\n      mload\n        /* \"#utility.yul\":5220:5277   */\n      tag_553\n        /* \"#utility.yul\":5271:5275   */\n      0x80\n        /* \"#utility.yul\":5266:5269   */\n      dup6\n        /* \"#utility.yul\":5262:5276   */\n      add\n        /* \"#utility.yul\":5248:5260   */\n      dup3\n        /* \"#utility.yul\":5220:5277   */\n      tag_440\n      jump\t// in\n    tag_553:\n        /* \"#utility.yul\":5125:5287   */\n      pop\n        /* \"#utility.yul\":4346:5294   */\n      pop\n        /* \"#utility.yul\":4222:5294   */\n      pop\n      pop\n      jump\t// out\n        /* \"#utility.yul\":5300:5639   */\n    tag_71:\n        /* \"#utility.yul\":5451:5455   */\n      0x00\n        /* \"#utility.yul\":5489:5492   */\n      0xa0\n        /* \"#utility.yul\":5478:5487   */\n      dup3\n        /* \"#utility.yul\":5474:5493   */\n      add\n        /* \"#utility.yul\":5466:5493   */\n      swap1\n      pop\n        /* \"#utility.yul\":5503:5632   */\n      tag_555\n        /* \"#utility.yul\":5629:5630   */\n      0x00\n        /* \"#utility.yul\":5618:5627   */\n      dup4\n        /* \"#utility.yul\":5614:5631   */\n      add\n        /* \"#utility.yul\":5605:5611   */\n      dup5\n        /* \"#utility.yul\":5503:5632   */\n      tag_441\n      jump\t// in\n    tag_555:\n        /* \"#utility.yul\":5300:5639   */\n      swap3\n      swap2\n      pop\n      pop\n      jump\t// out\n        /* \"#utility.yul\":5645:6119   */\n    tag_78:\n        /* \"#utility.yul\":5713:5719   */\n      0x00\n        /* \"#utility.yul\":5721:5727   */\n      0x00\n        /* \"#utility.yul\":5770:5772   */\n      0x40\n        /* \"#utility.yul\":5758:5767   */\n      dup4\n        /* \"#utility.yul\":5749:5756   */\n      dup6\n        /* \"#utility.yul\":5745:5768   */\n      sub\n        /* \"#utility.yul\":5741:5773   */\n      slt\n        /* \"#utility.yul\":5738:5857   */\n      iszero\n      tag_557\n      jumpi\n        /* \"#utility.yul\":5776:5855   */\n      tag_558\n      tag_424\n      jump\t// in\n    tag_558:\n        /* \"#utility.yul\":5738:5857   */\n    tag_557:\n        /* \"#utility.yul\":5896:5897   */\n      0x00\n        /* \"#utility.yul\":5921:5974   */\n      tag_559\n        /* \"#utility.yul\":5966:5973   */\n      dup6\n        /* \"#utility.yul\":5957:5963   */\n      dup3\n        /* \"#utility.yul\":5946:5955   */\n      dup7\n        /* \"#utility.yul\":5942:5964   */\n      add\n        /* \"#utility.yul\":5921:5974   */\n      tag_432\n      jump\t// in\n    tag_559:\n        /* \"#utility.yul\":5911:5974   */\n      swap3\n      pop\n        /* \"#utility.yul\":5867:5984   */\n      pop\n        /* \"#utility.yul\":6023:6025   */\n      0x20\n        /* \"#utility.yul\":6049:6102   */\n      tag_560\n        /* \"#utility.yul\":6094:6101   */\n      dup6\n        /* \"#utility.yul\":6085:6091   */\n      dup3\n        /* \"#utility.yul\":6074:6083   */\n      dup7\n        /* \"#utility.yul\":6070:6092   */\n      add\n        /* \"#utility.yul\":6049:6102   */\n      tag_432\n      jump\t// in\n    tag_560:\n        /* \"#utility.yul\":6039:6102   */\n      swap2\n      pop\n        /* \"#utility.yul\":5994:6112   */\n      pop\n        /* \"#utility.yul\":5645:6119   */\n      swap3\n      pop\n      swap3\n      swap1\n      pop\n      jump\t// out\n        /* \"#utility.yul\":6125:6599   */\n    tag_82:\n        /* \"#utility.yul\":6193:6199   */\n      0x00\n        /* \"#utility.yul\":6201:6207   */\n      0x00\n        /* \"#utility.yul\":6250:6252   */\n      0x40\n        /* \"#utility.yul\":6238:6247   */\n      dup4\n        /* \"#utility.yul\":6229:6236   */\n      dup6\n        /* \"#utility.yul\":6225:6248   */\n      sub\n        /* \"#utility.yul\":6221:6253   */\n      slt\n        /* \"#utility.yul\":6218:6337   */\n      iszero\n      tag_562\n      jumpi\n        /* \"#utility.yul\":6256:6335   */\n      tag_563\n      tag_424\n      jump\t// in\n    tag_563:\n        /* \"#utility.yul\":6218:6337   */\n    tag_562:\n        /* \"#utility.yul\":6376:6377   */\n      0x00\n        /* \"#utility.yul\":6401:6454   */\n      tag_564\n        /* \"#utility.yul\":6446:6453   */\n      dup6\n        /* \"#utility.yul\":6437:6443   */\n      dup3\n        /* \"#utility.yul\":6426:6435   */\n      dup7\n        /* \"#utility.yul\":6422:6444   */\n      add\n        /* \"#utility.yul\":6401:6454   */\n      tag_429\n      jump\t// in\n    tag_564:\n        /* \"#utility.yul\":6391:6454   */\n      swap3\n      pop\n        /* \"#utility.yul\":6347:6464   */\n      pop\n        /* \"#utility.yul\":6503:6505   */\n      0x20\n        /* \"#utility.yul\":6529:6582   */\n      tag_565\n        /* \"#utility.yul\":6574:6581   */\n      dup6\n        /* \"#utility.yul\":6565:6571   */\n      dup3\n        /* \"#utility.yul\":6554:6563   */\n      dup7\n        /* \"#utility.yul\":6550:6572   */\n      add\n        /* \"#utility.yul\":6529:6582   */\n      tag_432\n      jump\t// in\n    tag_565:\n        /* \"#utility.yul\":6519:6582   */\n      swap2\n      pop\n        /* \"#utility.yul\":6474:6592   */\n      pop\n        /* \"#utility.yul\":6125:6599   */\n      swap3\n      pop\n      swap3\n      swap1\n      pop\n      jump\t// out\n        /* \"#utility.yul\":6605:6934   */\n    tag_87:\n        /* \"#utility.yul\":6664:6670   */\n      0x00\n        /* \"#utility.yul\":6713:6715   */\n      0x20\n        /* \"#utility.yul\":6701:6710   */\n      dup3\n        /* \"#utility.yul\":6692:6699   */\n      dup5\n        /* \"#utility.yul\":6688:6711   */\n      sub\n        /* \"#utility.yul\":6684:6716   */\n      slt\n        /* \"#utility.yul\":6681:6800   */\n      iszero\n      tag_567\n      jumpi\n        /* \"#utility.yul\":6719:6798   */\n      tag_568\n      tag_424\n      jump\t// in\n    tag_568:\n        /* \"#utility.yul\":6681:6800   */\n    tag_567:\n        /* \"#utility.yul\":6839:6840   */\n      0x00\n        /* \"#utility.yul\":6864:6917   */\n      tag_569\n        /* \"#utility.yul\":6909:6916   */\n      dup5\n        /* \"#utility.yul\":6900:6906   */\n      dup3\n        /* \"#utility.yul\":6889:6898   */\n      dup6\n        /* \"#utility.yul\":6885:6907   */\n      add\n        /* \"#utility.yul\":6864:6917   */\n      tag_429\n      jump\t// in\n    tag_569:\n        /* \"#utility.yul\":6854:6917   */\n      swap2\n      pop\n        /* \"#utility.yul\":6810:6927   */\n      pop\n        /* \"#utility.yul\":6605:6934   */\n      swap3\n      swap2\n      pop\n      pop\n      jump\t// out\n        /* \"#utility.yul\":6940:7081   */\n    tag_442:\n        /* \"#utility.yul\":7034:7040   */\n      0x00\n        /* \"#utility.yul\":7068:7073   */\n      dup2\n        /* \"#utility.yul\":7062:7074   */\n      mload\n        /* \"#utility.yul\":7052:7074   */\n      swap1\n      pop\n        /* \"#utility.yul\":6940:7081   */\n      swap2\n      swap1\n      pop\n      jump\t// out\n        /* \"#utility.yul\":7087:7298   */\n    tag_443:\n        /* \"#utility.yul\":7213:7224   */\n      0x00\n        /* \"#utility.yul\":7247:7253   */\n      dup3\n        /* \"#utility.yul\":7242:7245   */\n      dup3\n        /* \"#utility.yul\":7235:7254   */\n      mstore\n        /* \"#utility.yul\":7287:7291   */\n      0x20\n        /* \"#utility.yul\":7282:7285   */\n      dup3\n        /* \"#utility.yul\":7278:7292   */\n      add\n        /* \"#utility.yul\":7263:7292   */\n      swap1\n      pop\n        /* \"#utility.yul\":7087:7298   */\n      swap3\n      swap2\n      pop\n      pop\n      jump\t// out\n        /* \"#utility.yul\":7304:7463   */\n    tag_444:\n        /* \"#utility.yul\":7398:7402   */\n      0x00\n        /* \"#utility.yul\":7421:7424   */\n      dup2\n        /* \"#utility.yul\":7413:7424   */\n      swap1\n      pop\n        /* \"#utility.yul\":7451:7455   */\n      0x20\n        /* \"#utility.yul\":7446:7449   */\n      dup3\n        /* \"#utility.yul\":7442:7456   */\n      add\n        /* \"#utility.yul\":7434:7456   */\n      swap1\n      pop\n        /* \"#utility.yul\":7304:7463   */\n      swap2\n      swap1\n      pop\n      jump\t// out\n        /* \"#utility.yul\":7537:8615   */\n    tag_445:\n        /* \"#utility.yul\":7678:7682   */\n      0xa0\n        /* \"#utility.yul\":7673:7676   */\n      dup3\n        /* \"#utility.yul\":7669:7683   */\n      add\n        /* \"#utility.yul\":7770:7774   */\n      0x00\n        /* \"#utility.yul\":7763:7768   */\n      dup3\n        /* \"#utility.yul\":7759:7775   */\n      add\n        /* \"#utility.yul\":7753:7776   */\n      mload\n        /* \"#utility.yul\":7789:7852   */\n      tag_574\n        /* \"#utility.yul\":7846:7850   */\n      0x00\n        /* \"#utility.yul\":7841:7844   */\n      dup6\n        /* \"#utility.yul\":7837:7851   */\n      add\n        /* \"#utility.yul\":7823:7835   */\n      dup3\n        /* \"#utility.yul\":7789:7852   */\n      tag_439\n      jump\t// in\n    tag_574:\n        /* \"#utility.yul\":7693:7862   */\n      pop\n        /* \"#utility.yul\":7952:7956   */\n      0x20\n        /* \"#utility.yul\":7945:7950   */\n      dup3\n        /* \"#utility.yul\":7941:7957   */\n      add\n        /* \"#utility.yul\":7935:7958   */\n      mload\n        /* \"#utility.yul\":7971:8034   */\n      tag_575\n        /* \"#utility.yul\":8028:8032   */\n      0x20\n        /* \"#utility.yul\":8023:8026   */\n      dup6\n        /* \"#utility.yul\":8019:8033   */\n      add\n        /* \"#utility.yul\":8005:8017   */\n      dup3\n        /* \"#utility.yul\":7971:8034   */\n      tag_439\n      jump\t// in\n    tag_575:\n        /* \"#utility.yul\":7872:8044   */\n      pop\n        /* \"#utility.yul\":8141:8145   */\n      0x40\n        /* \"#utility.yul\":8134:8139   */\n      dup3\n        /* \"#utility.yul\":8130:8146   */\n      add\n        /* \"#utility.yul\":8124:8147   */\n      mload\n        /* \"#utility.yul\":8160:8223   */\n      tag_576\n        /* \"#utility.yul\":8217:8221   */\n      0x40\n        /* \"#utility.yul\":8212:8215   */\n      dup6\n        /* \"#utility.yul\":8208:8222   */\n      add\n        /* \"#utility.yul\":8194:8206   */\n      dup3\n        /* \"#utility.yul\":8160:8223   */\n      tag_439\n      jump\t// in\n    tag_576:\n        /* \"#utility.yul\":8054:8233   */\n      pop\n        /* \"#utility.yul\":8335:8339   */\n      0x60\n        /* \"#utility.yul\":8328:8333   */\n      dup3\n        /* \"#utility.yul\":8324:8340   */\n      add\n        /* \"#utility.yul\":8318:8341   */\n      mload\n        /* \"#utility.yul\":8354:8417   */\n      tag_577\n        /* \"#utility.yul\":8411:8415   */\n      0x60\n        /* \"#utility.yul\":8406:8409   */\n      dup6\n        /* \"#utility.yul\":8402:8416   */\n      add\n        /* \"#utility.yul\":8388:8400   */\n      dup3\n        /* \"#utility.yul\":8354:8417   */\n      tag_439\n      jump\t// in\n    tag_577:\n        /* \"#utility.yul\":8243:8427   */\n      pop\n        /* \"#utility.yul\":8522:8526   */\n      0x80\n        /* \"#utility.yul\":8515:8520   */\n      dup3\n        /* \"#utility.yul\":8511:8527   */\n      add\n        /* \"#utility.yul\":8505:8528   */\n      mload\n        /* \"#utility.yul\":8541:8598   */\n      tag_578\n        /* \"#utility.yul\":8592:8596   */\n      0x80\n        /* \"#utility.yul\":8587:8590   */\n      dup6\n        /* \"#utility.yul\":8583:8597   */\n      add\n        /* \"#utility.yul\":8569:8581   */\n      dup3\n        /* \"#utility.yul\":8541:8598   */\n      tag_440\n      jump\t// in\n    tag_578:\n        /* \"#utility.yul\":8437:8608   */\n      pop\n        /* \"#utility.yul\":7647:8615   */\n      pop\n        /* \"#utility.yul\":7537:8615   */\n      pop\n      pop\n      jump\t// out\n        /* \"#utility.yul\":8621:8908   */\n    tag_446:\n        /* \"#utility.yul\":8744:8754   */\n      0x00\n        /* \"#utility.yul\":8765:8865   */\n      tag_580\n        /* \"#utility.yul\":8861:8864   */\n      dup4\n        /* \"#utility.yul\":8853:8859   */\n      dup4\n        /* \"#utility.yul\":8765:8865   */\n      tag_445\n      jump\t// in\n    tag_580:\n        /* \"#utility.yul\":8897:8901   */\n      0xa0\n        /* \"#utility.yul\":8892:8895   */\n      dup4\n        /* \"#utility.yul\":8888:8902   */\n      add\n        /* \"#utility.yul\":8874:8902   */\n      swap1\n      pop\n        /* \"#utility.yul\":8621:8908   */\n      swap3\n      swap2\n      pop\n      pop\n      jump\t// out\n        /* \"#utility.yul\":8914:9054   */\n    tag_447:\n        /* \"#utility.yul\":9011:9015   */\n      0x00\n        /* \"#utility.yul\":9043:9047   */\n      0x20\n        /* \"#utility.yul\":9038:9041   */\n      dup3\n        /* \"#utility.yul\":9034:9048   */\n      add\n        /* \"#utility.yul\":9026:9048   */\n      swap1\n      pop\n        /* \"#utility.yul\":8914:9054   */\n      swap2\n      swap1\n      pop\n      jump\t// out\n        /* \"#utility.yul\":9132:10080   */\n    tag_448:\n        /* \"#utility.yul\":9305:9308   */\n      0x00\n        /* \"#utility.yul\":9334:9415   */\n      tag_583\n        /* \"#utility.yul\":9409:9414   */\n      dup3\n        /* \"#utility.yul\":9334:9415   */\n      tag_442\n      jump\t// in\n    tag_583:\n        /* \"#utility.yul\":9431:9544   */\n      tag_584\n        /* \"#utility.yul\":9537:9543   */\n      dup2\n        /* \"#utility.yul\":9532:9535   */\n      dup6\n        /* \"#utility.yul\":9431:9544   */\n      tag_443\n      jump\t// in\n    tag_584:\n        /* \"#utility.yul\":9424:9544   */\n      swap4\n      pop\n        /* \"#utility.yul\":9568:9651   */\n      tag_585\n        /* \"#utility.yul\":9645:9650   */\n      dup4\n        /* \"#utility.yul\":9568:9651   */\n      tag_444\n      jump\t// in\n    tag_585:\n        /* \"#utility.yul\":9674:9681   */\n      dup1\n        /* \"#utility.yul\":9705:9706   */\n      0x00\n        /* \"#utility.yul\":9690:10055   */\n    tag_586:\n        /* \"#utility.yul\":9715:9721   */\n      dup4\n        /* \"#utility.yul\":9712:9713   */\n      dup2\n        /* \"#utility.yul\":9709:9722   */\n      lt\n        /* \"#utility.yul\":9690:10055   */\n      iszero\n      tag_588\n      jumpi\n        /* \"#utility.yul\":9791:9797   */\n      dup2\n        /* \"#utility.yul\":9785:9798   */\n      mload\n        /* \"#utility.yul\":9818:9935   */\n      tag_589\n        /* \"#utility.yul\":9931:9934   */\n      dup9\n        /* \"#utility.yul\":9916:9929   */\n      dup3\n        /* \"#utility.yul\":9818:9935   */\n      tag_446\n      jump\t// in\n    tag_589:\n        /* \"#utility.yul\":9811:9935   */\n      swap8\n      pop\n        /* \"#utility.yul\":9958:10045   */\n      tag_590\n        /* \"#utility.yul\":10038:10044   */\n      dup4\n        /* \"#utility.yul\":9958:10045   */\n      tag_447\n      jump\t// in\n    tag_590:\n        /* \"#utility.yul\":9948:10045   */\n      swap3\n      pop\n        /* \"#utility.yul\":9750:10055   */\n      pop\n        /* \"#utility.yul\":9737:9738   */\n      0x01\n        /* \"#utility.yul\":9734:9735   */\n      dup2\n        /* \"#utility.yul\":9730:9739   */\n      add\n        /* \"#utility.yul\":9725:9739   */\n      swap1\n      pop\n        /* \"#utility.yul\":9690:10055   */\n      jump(tag_586)\n    tag_588:\n        /* \"#utility.yul\":9694:9708   */\n      pop\n        /* \"#utility.yul\":10071:10074   */\n      dup6\n        /* \"#utility.yul\":10064:10074   */\n      swap4\n      pop\n        /* \"#utility.yul\":9310:10080   */\n      pop\n      pop\n      pop\n        /* \"#utility.yul\":9132:10080   */\n      swap3\n      swap2\n      pop\n      pop\n      jump\t// out\n        /* \"#utility.yul\":10086:10567   */\n    tag_90:\n        /* \"#utility.yul\":10283:10287   */\n      0x00\n        /* \"#utility.yul\":10321:10323   */\n      0x20\n        /* \"#utility.yul\":10310:10319   */\n      dup3\n        /* \"#utility.yul\":10306:10324   */\n      add\n        /* \"#utility.yul\":10298:10324   */\n      swap1\n      pop\n        /* \"#utility.yul\":10370:10379   */\n      dup2\n        /* \"#utility.yul\":10364:10368   */\n      dup2\n        /* \"#utility.yul\":10360:10380   */\n      sub\n        /* \"#utility.yul\":10356:10357   */\n      0x00\n        /* \"#utility.yul\":10345:10354   */\n      dup4\n        /* \"#utility.yul\":10341:10358   */\n      add\n        /* \"#utility.yul\":10334:10381   */\n      mstore\n        /* \"#utility.yul\":10398:10560   */\n      tag_592\n        /* \"#utility.yul\":10555:10559   */\n      dup2\n        /* \"#utility.yul\":10546:10552   */\n      dup5\n        /* \"#utility.yul\":10398:10560   */\n      tag_448\n      jump\t// in\n    tag_592:\n        /* \"#utility.yul\":10390:10560   */\n      swap1\n      pop\n        /* \"#utility.yul\":10086:10567   */\n      swap3\n      swap2\n      pop\n      pop\n      jump\t// out\n        /* \"#utility.yul\":10573:10691   */\n    tag_449:\n        /* \"#utility.yul\":10660:10684   */\n      tag_594\n        /* \"#utility.yul\":10678:10683   */\n      dup2\n        /* \"#utility.yul\":10660:10684   */\n      tag_427\n      jump\t// in\n    tag_594:\n        /* \"#utility.yul\":10655:10658   */\n      dup3\n        /* \"#utility.yul\":10648:10685   */\n      mstore\n        /* \"#utility.yul\":10573:10691   */\n      pop\n      pop\n      jump\t// out\n        /* \"#utility.yul\":10697:10919   */\n    tag_94:\n        /* \"#utility.yul\":10790:10794   */\n      0x00\n        /* \"#utility.yul\":10828:10830   */\n      0x20\n        /* \"#utility.yul\":10817:10826   */\n      dup3\n        /* \"#utility.yul\":10813:10831   */\n      add\n        /* \"#utility.yul\":10805:10831   */\n      swap1\n      pop\n        /* \"#utility.yul\":10841:10912   */\n      tag_596\n        /* \"#utility.yul\":10909:10910   */\n      0x00\n        /* \"#utility.yul\":10898:10907   */\n      dup4\n        /* \"#utility.yul\":10894:10911   */\n      add\n        /* \"#utility.yul\":10885:10891   */\n      dup5\n        /* \"#utility.yul\":10841:10912   */\n      tag_449\n      jump\t// in\n    tag_596:\n        /* \"#utility.yul\":10697:10919   */\n      swap3\n      swap2\n      pop\n      pop\n      jump\t// out\n        /* \"#utility.yul\":10925:11399   */\n    tag_97:\n        /* \"#utility.yul\":10993:10999   */\n      0x00\n        /* \"#utility.yul\":11001:11007   */\n      0x00\n        /* \"#utility.yul\":11050:11052   */\n      0x40\n        /* \"#utility.yul\":11038:11047   */\n      dup4\n        /* \"#utility.yul\":11029:11036   */\n      dup6\n        /* \"#utility.yul\":11025:11048   */\n      sub\n        /* \"#utility.yul\":11021:11053   */\n      slt\n        /* \"#utility.yul\":11018:11137   */\n      iszero\n      tag_598\n      jumpi\n        /* \"#utility.yul\":11056:11135   */\n      tag_599\n      tag_424\n      jump\t// in\n    tag_599:\n        /* \"#utility.yul\":11018:11137   */\n    tag_598:\n        /* \"#utility.yul\":11176:11177   */\n      0x00\n        /* \"#utility.yul\":11201:11254   */\n      tag_600\n        /* \"#utility.yul\":11246:11253   */\n      dup6\n        /* \"#utility.yul\":11237:11243   */\n      dup3\n        /* \"#utility.yul\":11226:11235   */\n      dup7\n        /* \"#utility.yul\":11222:11244   */\n      add\n        /* \"#utility.yul\":11201:11254   */\n      tag_432\n      jump\t// in\n    tag_600:\n        /* \"#utility.yul\":11191:11254   */\n      swap3\n      pop\n        /* \"#utility.yul\":11147:11264   */\n      pop\n        /* \"#utility.yul\":11303:11305   */\n      0x20\n        /* \"#utility.yul\":11329:11382   */\n      tag_601\n        /* \"#utility.yul\":11374:11381   */\n      dup6\n        /* \"#utility.yul\":11365:11371   */\n      dup3\n        /* \"#utility.yul\":11354:11363   */\n      dup7\n        /* \"#utility.yul\":11350:11372   */\n      add\n        /* \"#utility.yul\":11329:11382   */\n      tag_429\n      jump\t// in\n    tag_601:\n        /* \"#utility.yul\":11319:11382   */\n      swap2\n      pop\n        /* \"#utility.yul\":11274:11392   */\n      pop\n        /* \"#utility.yul\":10925:11399   */\n      swap3\n      pop\n      swap3\n      swap1\n      pop\n      jump\t// out\n        /* \"#utility.yul\":11405:11465   */\n    tag_450:\n        /* \"#utility.yul\":11433:11436   */\n      0x00\n        /* \"#utility.yul\":11454:11459   */\n      dup2\n        /* \"#utility.yul\":11447:11459   */\n      swap1\n      pop\n        /* \"#utility.yul\":11405:11465   */\n      swap2\n      swap1\n      pop\n      jump\t// out\n        /* \"#utility.yul\":11471:11613   */\n    tag_451:\n        /* \"#utility.yul\":11521:11530   */\n      0x00\n        /* \"#utility.yul\":11554:11607   */\n      tag_604\n        /* \"#utility.yul\":11572:11606   */\n      tag_605\n        /* \"#utility.yul\":11581:11605   */\n      tag_606\n        /* \"#utility.yul\":11599:11604   */\n      dup5\n        /* \"#utility.yul\":11581:11605   */\n      tag_426\n      jump\t// in\n    tag_606:\n        /* \"#utility.yul\":11572:11606   */\n      tag_450\n      jump\t// in\n    tag_605:\n        /* \"#utility.yul\":11554:11607   */\n      tag_426\n      jump\t// in\n    tag_604:\n        /* \"#utility.yul\":11541:11607   */\n      swap1\n      pop\n        /* \"#utility.yul\":11471:11613   */\n      swap2\n      swap1\n      pop\n      jump\t// out\n        /* \"#utility.yul\":11619:11745   */\n    tag_452:\n        /* \"#utility.yul\":11669:11678   */\n      0x00\n        /* \"#utility.yul\":11702:11739   */\n      tag_608\n        /* \"#utility.yul\":11733:11738   */\n      dup3\n        /* \"#utility.yul\":11702:11739   */\n      tag_451\n      jump\t// in\n    tag_608:\n        /* \"#utility.yul\":11689:11739   */\n      swap1\n      pop\n        /* \"#utility.yul\":11619:11745   */\n      swap2\n      swap1\n      pop\n      jump\t// out\n        /* \"#utility.yul\":11751:11891   */\n    tag_453:\n        /* \"#utility.yul\":11815:11824   */\n      0x00\n        /* \"#utility.yul\":11848:11885   */\n      tag_610\n        /* \"#utility.yul\":11879:11884   */\n      dup3\n        /* \"#utility.yul\":11848:11885   */\n      tag_452\n      jump\t// in\n    tag_610:\n        /* \"#utility.yul\":11835:11885   */\n      swap1\n      pop\n        /* \"#utility.yul\":11751:11891   */\n      swap2\n      swap1\n      pop\n      jump\t// out\n        /* \"#utility.yul\":11897:12056   */\n    tag_454:\n        /* \"#utility.yul\":11998:12049   */\n      tag_612\n        /* \"#utility.yul\":12043:12048   */\n      dup2\n        /* \"#utility.yul\":11998:12049   */\n      tag_453\n      jump\t// in\n    tag_612:\n        /* \"#utility.yul\":11993:11996   */\n      dup3\n        /* \"#utility.yul\":11986:12050   */\n      mstore\n        /* \"#utility.yul\":11897:12056   */\n      pop\n      pop\n      jump\t// out\n        /* \"#utility.yul\":12062:12312   */\n    tag_132:\n        /* \"#utility.yul\":12169:12173   */\n      0x00\n        /* \"#utility.yul\":12207:12209   */\n      0x20\n        /* \"#utility.yul\":12196:12205   */\n      dup3\n        /* \"#utility.yul\":12192:12210   */\n      add\n        /* \"#utility.yul\":12184:12210   */\n      swap1\n      pop\n        /* \"#utility.yul\":12220:12305   */\n      tag_614\n        /* \"#utility.yul\":12302:12303   */\n      0x00\n        /* \"#utility.yul\":12291:12300   */\n      dup4\n        /* \"#utility.yul\":12287:12304   */\n      add\n        /* \"#utility.yul\":12278:12284   */\n      dup5\n        /* \"#utility.yul\":12220:12305   */\n      tag_454\n      jump\t// in\n    tag_614:\n        /* \"#utility.yul\":12062:12312   */\n      swap3\n      swap2\n      pop\n      pop\n      jump\t// out\n        /* \"#utility.yul\":12318:12487   */\n    tag_455:\n        /* \"#utility.yul\":12402:12413   */\n      0x00\n        /* \"#utility.yul\":12436:12442   */\n      dup3\n        /* \"#utility.yul\":12431:12434   */\n      dup3\n        /* \"#utility.yul\":12424:12443   */\n      mstore\n        /* \"#utility.yul\":12476:12480   */\n      0x20\n        /* \"#utility.yul\":12471:12474   */\n      dup3\n        /* \"#utility.yul\":12467:12481   */\n      add\n        /* \"#utility.yul\":12452:12481   */\n      swap1\n      pop\n        /* \"#utility.yul\":12318:12487   */\n      swap3\n      swap2\n      pop\n      pop\n      jump\t// out\n        /* \"#utility.yul\":12493:12662   */\n    tag_456:\n        /* \"#utility.yul\":12633:12654   */\n      0x496e76616c6964207374616b6520746f6b656e00000000000000000000000000\n        /* \"#utility.yul\":12629:12630   */\n      0x00\n        /* \"#utility.yul\":12621:12627   */\n      dup3\n        /* \"#utility.yul\":12617:12631   */\n      add\n        /* \"#utility.yul\":12610:12655   */\n      mstore\n        /* \"#utility.yul\":12493:12662   */\n      pop\n      jump\t// out\n        /* \"#utility.yul\":12668:13034   */\n    tag_457:\n        /* \"#utility.yul\":12810:12813   */\n      0x00\n        /* \"#utility.yul\":12831:12898   */\n      tag_618\n        /* \"#utility.yul\":12895:12897   */\n      0x13\n        /* \"#utility.yul\":12890:12893   */\n      dup4\n        /* \"#utility.yul\":12831:12898   */\n      tag_455\n      jump\t// in\n    tag_618:\n        /* \"#utility.yul\":12824:12898   */\n      swap2\n      pop\n        /* \"#utility.yul\":12907:13000   */\n      tag_619\n        /* \"#utility.yul\":12996:12999   */\n      dup3\n        /* \"#utility.yul\":12907:13000   */\n      tag_456\n      jump\t// in\n    tag_619:\n        /* \"#utility.yul\":13025:13027   */\n      0x20\n        /* \"#utility.yul\":13020:13023   */\n      dup3\n        /* \"#utility.yul\":13016:13028   */\n      add\n        /* \"#utility.yul\":13009:13028   */\n      swap1\n      pop\n        /* \"#utility.yul\":12668:13034   */\n      swap2\n      swap1\n      pop\n      jump\t// out\n        /* \"#utility.yul\":13040:13459   */\n    tag_139:\n        /* \"#utility.yul\":13206:13210   */\n      0x00\n        /* \"#utility.yul\":13244:13246   */\n      0x20\n        /* \"#utility.yul\":13233:13242   */\n      dup3\n        /* \"#utility.yul\":13229:13247   */\n      add\n        /* \"#utility.yul\":13221:13247   */\n      swap1\n      pop\n        /* \"#utility.yul\":13293:13302   */\n      dup2\n        /* \"#utility.yul\":13287:13291   */\n      dup2\n        /* \"#utility.yul\":13283:13303   */\n      sub\n        /* \"#utility.yul\":13279:13280   */\n      0x00\n        /* \"#utility.yul\":13268:13277   */\n      dup4\n        /* \"#utility.yul\":13264:13281   */\n      add\n        /* \"#utility.yul\":13257:13304   */\n      mstore\n        /* \"#utility.yul\":13321:13452   */\n      tag_621\n        /* \"#utility.yul\":13447:13451   */\n      dup2\n        /* \"#utility.yul\":13321:13452   */\n      tag_457\n      jump\t// in\n    tag_621:\n        /* \"#utility.yul\":13313:13452   */\n      swap1\n      pop\n        /* \"#utility.yul\":13040:13459   */\n      swap2\n      swap1\n      pop\n      jump\t// out\n        /* \"#utility.yul\":13465:13631   */\n    tag_458:\n        /* \"#utility.yul\":13605:13623   */\n      0x496e76616c6964206475726174696f6e00000000000000000000000000000000\n        /* \"#utility.yul\":13601:13602   */\n      0x00\n        /* \"#utility.yul\":13593:13599   */\n      dup3\n        /* \"#utility.yul\":13589:13603   */\n      add\n        /* \"#utility.yul\":13582:13624   */\n      mstore\n        /* \"#utility.yul\":13465:13631   */\n      pop\n      jump\t// out\n        /* \"#utility.yul\":13637:14003   */\n    tag_459:\n        /* \"#utility.yul\":13779:13782   */\n      0x00\n        /* \"#utility.yul\":13800:13867   */\n      tag_624\n        /* \"#utility.yul\":13864:13866   */\n      0x10\n        /* \"#utility.yul\":13859:13862   */\n      dup4\n        /* \"#utility.yul\":13800:13867   */\n      tag_455\n      jump\t// in\n    tag_624:\n        /* \"#utility.yul\":13793:13867   */\n      swap2\n      pop\n        /* \"#utility.yul\":13876:13969   */\n      tag_625\n        /* \"#utility.yul\":13965:13968   */\n      dup3\n        /* \"#utility.yul\":13876:13969   */\n      tag_458\n      jump\t// in\n    tag_625:\n        /* \"#utility.yul\":13994:13996   */\n      0x20\n        /* \"#utility.yul\":13989:13992   */\n      dup3\n        /* \"#utility.yul\":13985:13997   */\n      add\n        /* \"#utility.yul\":13978:13997   */\n      swap1\n      pop\n        /* \"#utility.yul\":13637:14003   */\n      swap2\n      swap1\n      pop\n      jump\t// out\n        /* \"#utility.yul\":14009:14428   */\n    tag_142:\n        /* \"#utility.yul\":14175:14179   */\n      0x00\n        /* \"#utility.yul\":14213:14215   */\n      0x20\n        /* \"#utility.yul\":14202:14211   */\n      dup3\n        /* \"#utility.yul\":14198:14216   */\n      add\n        /* \"#utility.yul\":14190:14216   */\n      swap1\n      pop\n        /* \"#utility.yul\":14262:14271   */\n      dup2\n        /* \"#utility.yul\":14256:14260   */\n      dup2\n        /* \"#utility.yul\":14252:14272   */\n      sub\n        /* \"#utility.yul\":14248:14249   */\n      0x00\n        /* \"#utility.yul\":14237:14246   */\n      dup4\n        /* \"#utility.yul\":14233:14250   */\n      add\n        /* \"#utility.yul\":14226:14273   */\n      mstore\n        /* \"#utility.yul\":14290:14421   */\n      tag_627\n        /* \"#utility.yul\":14416:14420   */\n      dup2\n        /* \"#utility.yul\":14290:14421   */\n      tag_459\n      jump\t// in\n    tag_627:\n        /* \"#utility.yul\":14282:14421   */\n      swap1\n      pop\n        /* \"#utility.yul\":14009:14428   */\n      swap2\n      swap1\n      pop\n      jump\t// out\n        /* \"#utility.yul\":14434:14595   */\n    tag_460:\n        /* \"#utility.yul\":14574:14587   */\n      0x496e76616c696420415059000000000000000000000000000000000000000000\n        /* \"#utility.yul\":14570:14571   */\n      0x00\n        /* \"#utility.yul\":14562:14568   */\n      dup3\n        /* \"#utility.yul\":14558:14572   */\n      add\n        /* \"#utility.yul\":14551:14588   */\n      mstore\n        /* \"#utility.yul\":14434:14595   */\n      pop\n      jump\t// out\n        /* \"#utility.yul\":14601:14967   */\n    tag_461:\n        /* \"#utility.yul\":14743:14746   */\n      0x00\n        /* \"#utility.yul\":14764:14831   */\n      tag_630\n        /* \"#utility.yul\":14828:14830   */\n      0x0b\n        /* \"#utility.yul\":14823:14826   */\n      dup4\n        /* \"#utility.yul\":14764:14831   */\n      tag_455\n      jump\t// in\n    tag_630:\n        /* \"#utility.yul\":14757:14831   */\n      swap2\n      pop\n        /* \"#utility.yul\":14840:14933   */\n      tag_631\n        /* \"#utility.yul\":14929:14932   */\n      dup3\n        /* \"#utility.yul\":14840:14933   */\n      tag_460\n      jump\t// in\n    tag_631:\n        /* \"#utility.yul\":14958:14960   */\n      0x20\n        /* \"#utility.yul\":14953:14956   */\n      dup3\n        /* \"#utility.yul\":14949:14961   */\n      add\n        /* \"#utility.yul\":14942:14961   */\n      swap1\n      pop\n        /* \"#utility.yul\":14601:14967   */\n      swap2\n      swap1\n      pop\n      jump\t// out\n        /* \"#utility.yul\":14973:15392   */\n    tag_146:\n        /* \"#utility.yul\":15139:15143   */\n      0x00\n        /* \"#utility.yul\":15177:15179   */\n      0x20\n        /* \"#utility.yul\":15166:15175   */\n      dup3\n        /* \"#utility.yul\":15162:15180   */\n      add\n        /* \"#utility.yul\":15154:15180   */\n      swap1\n      pop\n        /* \"#utility.yul\":15226:15235   */\n      dup2\n        /* \"#utility.yul\":15220:15224   */\n      dup2\n        /* \"#utility.yul\":15216:15236   */\n      sub\n        /* \"#utility.yul\":15212:15213   */\n      0x00\n        /* \"#utility.yul\":15201:15210   */\n      dup4\n        /* \"#utility.yul\":15197:15214   */\n      add\n        /* \"#utility.yul\":15190:15237   */\n      mstore\n        /* \"#utility.yul\":15254:15385   */\n      tag_633\n        /* \"#utility.yul\":15380:15384   */\n      dup2\n        /* \"#utility.yul\":15254:15385   */\n      tag_461\n      jump\t// in\n    tag_633:\n        /* \"#utility.yul\":15246:15385   */\n      swap1\n      pop\n        /* \"#utility.yul\":14973:15392   */\n      swap2\n      swap1\n      pop\n      jump\t// out\n        /* \"#utility.yul\":15398:15578   */\n    tag_462:\n        /* \"#utility.yul\":15446:15523   */\n      0x4e487b7100000000000000000000000000000000000000000000000000000000\n        /* \"#utility.yul\":15443:15444   */\n      0x00\n        /* \"#utility.yul\":15436:15524   */\n      mstore\n        /* \"#utility.yul\":15543:15547   */\n      0x11\n        /* \"#utility.yul\":15540:15541   */\n      0x04\n        /* \"#utility.yul\":15533:15548   */\n      mstore\n        /* \"#utility.yul\":15567:15571   */\n      0x24\n        /* \"#utility.yul\":15564:15565   */\n      0x00\n        /* \"#utility.yul\":15557:15572   */\n      revert\n        /* \"#utility.yul\":15584:15778   */\n    tag_149:\n        /* \"#utility.yul\":15624:15628   */\n      0x00\n        /* \"#utility.yul\":15644:15664   */\n      tag_636\n        /* \"#utility.yul\":15662:15663   */\n      dup3\n        /* \"#utility.yul\":15644:15664   */\n      tag_430\n      jump\t// in\n    tag_636:\n        /* \"#utility.yul\":15639:15664   */\n      swap2\n      pop\n        /* \"#utility.yul\":15678:15698   */\n      tag_637\n        /* \"#utility.yul\":15696:15697   */\n      dup4\n        /* \"#utility.yul\":15678:15698   */\n      tag_430\n      jump\t// in\n    tag_637:\n        /* \"#utility.yul\":15673:15698   */\n      swap3\n      pop\n        /* \"#utility.yul\":15722:15723   */\n      dup3\n        /* \"#utility.yul\":15719:15720   */\n      dup3\n        /* \"#utility.yul\":15715:15724   */\n      sub\n        /* \"#utility.yul\":15707:15724   */\n      swap1\n      pop\n        /* \"#utility.yul\":15746:15747   */\n      dup2\n        /* \"#utility.yul\":15740:15744   */\n      dup2\n        /* \"#utility.yul\":15737:15748   */\n      gt\n        /* \"#utility.yul\":15734:15771   */\n      iszero\n      tag_638\n      jumpi\n        /* \"#utility.yul\":15751:15769   */\n      tag_639\n      tag_462\n      jump\t// in\n    tag_639:\n        /* \"#utility.yul\":15734:15771   */\n    tag_638:\n        /* \"#utility.yul\":15584:15778   */\n      swap3\n      swap2\n      pop\n      pop\n      jump\t// out\n        /* \"#utility.yul\":15784:16337   */\n    tag_151:\n        /* \"#utility.yul\":15961:15965   */\n      0x00\n        /* \"#utility.yul\":15999:16002   */\n      0x80\n        /* \"#utility.yul\":15988:15997   */\n      dup3\n        /* \"#utility.yul\":15984:16003   */\n      add\n        /* \"#utility.yul\":15976:16003   */\n      swap1\n      pop\n        /* \"#utility.yul\":16013:16084   */\n      tag_641\n        /* \"#utility.yul\":16081:16082   */\n      0x00\n        /* \"#utility.yul\":16070:16079   */\n      dup4\n        /* \"#utility.yul\":16066:16083   */\n      add\n        /* \"#utility.yul\":16057:16063   */\n      dup8\n        /* \"#utility.yul\":16013:16084   */\n      tag_449\n      jump\t// in\n    tag_641:\n        /* \"#utility.yul\":16094:16166   */\n      tag_642\n        /* \"#utility.yul\":16162:16164   */\n      0x20\n        /* \"#utility.yul\":16151:16160   */\n      dup4\n        /* \"#utility.yul\":16147:16165   */\n      add\n        /* \"#utility.yul\":16138:16144   */\n      dup7\n        /* \"#utility.yul\":16094:16166   */\n      tag_436\n      jump\t// in\n    tag_642:\n        /* \"#utility.yul\":16176:16248   */\n      tag_643\n        /* \"#utility.yul\":16244:16246   */\n      0x40\n        /* \"#utility.yul\":16233:16242   */\n      dup4\n        /* \"#utility.yul\":16229:16247   */\n      add\n        /* \"#utility.yul\":16220:16226   */\n      dup6\n        /* \"#utility.yul\":16176:16248   */\n      tag_436\n      jump\t// in\n    tag_643:\n        /* \"#utility.yul\":16258:16330   */\n      tag_644\n        /* \"#utility.yul\":16326:16328   */\n      0x60\n        /* \"#utility.yul\":16315:16324   */\n      dup4\n        /* \"#utility.yul\":16311:16329   */\n      add\n        /* \"#utility.yul\":16302:16308   */\n      dup5\n        /* \"#utility.yul\":16258:16330   */\n      tag_436\n      jump\t// in\n    tag_644:\n        /* \"#utility.yul\":15784:16337   */\n      swap6\n      swap5\n      pop\n      pop\n      pop\n      pop\n      pop\n      jump\t// out\n        /* \"#utility.yul\":16343:16511   */\n    tag_463:\n        /* \"#utility.yul\":16483:16503   */\n      0x496e76616c6964207061636b6167652049440000000000000000000000000000\n        /* \"#utility.yul\":16479:16480   */\n      0x00\n        /* \"#utility.yul\":16471:16477   */\n      dup3\n        /* \"#utility.yul\":16467:16481   */\n      add\n        /* \"#utility.yul\":16460:16504   */\n      mstore\n        /* \"#utility.yul\":16343:16511   */\n      pop\n      jump\t// out\n        /* \"#utility.yul\":16517:16883   */\n    tag_464:\n        /* \"#utility.yul\":16659:16662   */\n      0x00\n        /* \"#utility.yul\":16680:16747   */\n      tag_647\n        /* \"#utility.yul\":16744:16746   */\n      0x12\n        /* \"#utility.yul\":16739:16742   */\n      dup4\n        /* \"#utility.yul\":16680:16747   */\n      tag_455\n      jump\t// in\n    tag_647:\n        /* \"#utility.yul\":16673:16747   */\n      swap2\n      pop\n        /* \"#utility.yul\":16756:16849   */\n      tag_648\n        /* \"#utility.yul\":16845:16848   */\n      dup3\n        /* \"#utility.yul\":16756:16849   */\n      tag_463\n      jump\t// in\n    tag_648:\n        /* \"#utility.yul\":16874:16876   */\n      0x20\n        /* \"#utility.yul\":16869:16872   */\n      dup3\n        /* \"#utility.yul\":16865:16877   */\n      add\n        /* \"#utility.yul\":16858:16877   */\n      swap1\n      pop\n        /* \"#utility.yul\":16517:16883   */\n      swap2\n      swap1\n      pop\n      jump\t// out\n        /* \"#utility.yul\":16889:17308   */\n    tag_157:\n        /* \"#utility.yul\":17055:17059   */\n      0x00\n        /* \"#utility.yul\":17093:17095   */\n      0x20\n        /* \"#utility.yul\":17082:17091   */\n      dup3\n        /* \"#utility.yul\":17078:17096   */\n      add\n        /* \"#utility.yul\":17070:17096   */\n      swap1\n      pop\n        /* \"#utility.yul\":17142:17151   */\n      dup2\n        /* \"#utility.yul\":17136:17140   */\n      dup2\n        /* \"#utility.yul\":17132:17152   */\n      sub\n        /* \"#utility.yul\":17128:17129   */\n      0x00\n        /* \"#utility.yul\":17117:17126   */\n      dup4\n        /* \"#utility.yul\":17113:17130   */\n      add\n        /* \"#utility.yul\":17106:17153   */\n      mstore\n        /* \"#utility.yul\":17170:17301   */\n      tag_650\n        /* \"#utility.yul\":17296:17300   */\n      dup2\n        /* \"#utility.yul\":17170:17301   */\n      tag_464\n      jump\t// in\n    tag_650:\n        /* \"#utility.yul\":17162:17301   */\n      swap1\n      pop\n        /* \"#utility.yul\":16889:17308   */\n      swap2\n      swap1\n      pop\n      jump\t// out\n        /* \"#utility.yul\":17314:17494   */\n    tag_161:\n        /* \"#utility.yul\":17362:17439   */\n      0x4e487b7100000000000000000000000000000000000000000000000000000000\n        /* \"#utility.yul\":17359:17360   */\n      0x00\n        /* \"#utility.yul\":17352:17440   */\n      mstore\n        /* \"#utility.yul\":17459:17463   */\n      0x32\n        /* \"#utility.yul\":17456:17457   */\n      0x04\n        /* \"#utility.yul\":17449:17464   */\n      mstore\n        /* \"#utility.yul\":17483:17487   */\n      0x24\n        /* \"#utility.yul\":17480:17481   */\n      0x00\n        /* \"#utility.yul\":17473:17488   */\n      revert\n        /* \"#utility.yul\":17500:17666   */\n    tag_465:\n        /* \"#utility.yul\":17640:17658   */\n      0x496e76616c6964207374616b6520494400000000000000000000000000000000\n        /* \"#utility.yul\":17636:17637   */\n      0x00\n        /* \"#utility.yul\":17628:17634   */\n      dup3\n        /* \"#utility.yul\":17624:17638   */\n      add\n        /* \"#utility.yul\":17617:17659   */\n      mstore\n        /* \"#utility.yul\":17500:17666   */\n      pop\n      jump\t// out\n        /* \"#utility.yul\":17672:18038   */\n    tag_466:\n        /* \"#utility.yul\":17814:17817   */\n      0x00\n        /* \"#utility.yul\":17835:17902   */\n      tag_654\n        /* \"#utility.yul\":17899:17901   */\n      0x10\n        /* \"#utility.yul\":17894:17897   */\n      dup4\n        /* \"#utility.yul\":17835:17902   */\n      tag_455\n      jump\t// in\n    tag_654:\n        /* \"#utility.yul\":17828:17902   */\n      swap2\n      pop\n        /* \"#utility.yul\":17911:18004   */\n      tag_655\n        /* \"#utility.yul\":18000:18003   */\n      dup3\n        /* \"#utility.yul\":17911:18004   */\n      tag_465\n      jump\t// in\n    tag_655:\n        /* \"#utility.yul\":18029:18031   */\n      0x20\n        /* \"#utility.yul\":18024:18027   */\n      dup3\n        /* \"#utility.yul\":18020:18032   */\n      add\n        /* \"#utility.yul\":18013:18032   */\n      swap1\n      pop\n        /* \"#utility.yul\":17672:18038   */\n      swap2\n      swap1\n      pop\n      jump\t// out\n        /* \"#utility.yul\":18044:18463   */\n    tag_170:\n        /* \"#utility.yul\":18210:18214   */\n      0x00\n        /* \"#utility.yul\":18248:18250   */\n      0x20\n        /* \"#utility.yul\":18237:18246   */\n      dup3\n        /* \"#utility.yul\":18233:18251   */\n      add\n        /* \"#utility.yul\":18225:18251   */\n      swap1\n      pop\n        /* \"#utility.yul\":18297:18306   */\n      dup2\n        /* \"#utility.yul\":18291:18295   */\n      dup2\n        /* \"#utility.yul\":18287:18307   */\n      sub\n        /* \"#utility.yul\":18283:18284   */\n      0x00\n        /* \"#utility.yul\":18272:18281   */\n      dup4\n        /* \"#utility.yul\":18268:18285   */\n      add\n        /* \"#utility.yul\":18261:18308   */\n      mstore\n        /* \"#utility.yul\":18325:18456   */\n      tag_657\n        /* \"#utility.yul\":18451:18455   */\n      dup2\n        /* \"#utility.yul\":18325:18456   */\n      tag_466\n      jump\t// in\n    tag_657:\n        /* \"#utility.yul\":18317:18456   */\n      swap1\n      pop\n        /* \"#utility.yul\":18044:18463   */\n      swap2\n      swap1\n      pop\n      jump\t// out\n        /* \"#utility.yul\":18469:18633   */\n    tag_467:\n        /* \"#utility.yul\":18609:18625   */\n      0x496e616374697665207374616b65000000000000000000000000000000000000\n        /* \"#utility.yul\":18605:18606   */\n      0x00\n        /* \"#utility.yul\":18597:18603   */\n      dup3\n        /* \"#utility.yul\":18593:18607   */\n      add\n        /* \"#utility.yul\":18586:18626   */\n      mstore\n        /* \"#utility.yul\":18469:18633   */\n      pop\n      jump\t// out\n        /* \"#utility.yul\":18639:19005   */\n    tag_468:\n        /* \"#utility.yul\":18781:18784   */\n      0x00\n        /* \"#utility.yul\":18802:18869   */\n      tag_660\n        /* \"#utility.yul\":18866:18868   */\n      0x0e\n        /* \"#utility.yul\":18861:18864   */\n      dup4\n        /* \"#utility.yul\":18802:18869   */\n      tag_455\n      jump\t// in\n    tag_660:\n        /* \"#utility.yul\":18795:18869   */\n      swap2\n      pop\n        /* \"#utility.yul\":18878:18971   */\n      tag_661\n        /* \"#utility.yul\":18967:18970   */\n      dup3\n        /* \"#utility.yul\":18878:18971   */\n      tag_467\n      jump\t// in\n    tag_661:\n        /* \"#utility.yul\":18996:18998   */\n      0x20\n        /* \"#utility.yul\":18991:18994   */\n      dup3\n        /* \"#utility.yul\":18987:18999   */\n      add\n        /* \"#utility.yul\":18980:18999   */\n      swap1\n      pop\n        /* \"#utility.yul\":18639:19005   */\n      swap2\n      swap1\n      pop\n      jump\t// out\n        /* \"#utility.yul\":19011:19430   */\n    tag_176:\n        /* \"#utility.yul\":19177:19181   */\n      0x00\n        /* \"#utility.yul\":19215:19217   */\n      0x20\n        /* \"#utility.yul\":19204:19213   */\n      dup3\n        /* \"#utility.yul\":19200:19218   */\n      add\n        /* \"#utility.yul\":19192:19218   */\n      swap1\n      pop\n        /* \"#utility.yul\":19264:19273   */\n      dup2\n        /* \"#utility.yul\":19258:19262   */\n      dup2\n        /* \"#utility.yul\":19254:19274   */\n      sub\n        /* \"#utility.yul\":19250:19251   */\n      0x00\n        /* \"#utility.yul\":19239:19248   */\n      dup4\n        /* \"#utility.yul\":19235:19252   */\n      add\n        /* \"#utility.yul\":19228:19275   */\n      mstore\n        /* \"#utility.yul\":19292:19423   */\n      tag_663\n        /* \"#utility.yul\":19418:19422   */\n      dup2\n        /* \"#utility.yul\":19292:19423   */\n      tag_468\n      jump\t// in\n    tag_663:\n        /* \"#utility.yul\":19284:19423   */\n      swap1\n      pop\n        /* \"#utility.yul\":19011:19430   */\n      swap2\n      swap1\n      pop\n      jump\t// out\n        /* \"#utility.yul\":19436:19627   */\n    tag_185:\n        /* \"#utility.yul\":19476:19479   */\n      0x00\n        /* \"#utility.yul\":19495:19515   */\n      tag_665\n        /* \"#utility.yul\":19513:19514   */\n      dup3\n        /* \"#utility.yul\":19495:19515   */\n      tag_430\n      jump\t// in\n    tag_665:\n        /* \"#utility.yul\":19490:19515   */\n      swap2\n      pop\n        /* \"#utility.yul\":19529:19549   */\n      tag_666\n        /* \"#utility.yul\":19547:19548   */\n      dup4\n        /* \"#utility.yul\":19529:19549   */\n      tag_430\n      jump\t// in\n    tag_666:\n        /* \"#utility.yul\":19524:19549   */\n      swap3\n      pop\n        /* \"#utility.yul\":19572:19573   */\n      dup3\n        /* \"#utility.yul\":19569:19570   */\n      dup3\n        /* \"#utility.yul\":19565:19574   */\n      add\n        /* \"#utility.yul\":19558:19574   */\n      swap1\n      pop\n        /* \"#utility.yul\":19593:19596   */\n      dup1\n        /* \"#utility.yul\":19590:19591   */\n      dup3\n        /* \"#utility.yul\":19587:19597   */\n      gt\n        /* \"#utility.yul\":19584:19620   */\n      iszero\n      tag_667\n      jumpi\n        /* \"#utility.yul\":19600:19618   */\n      tag_668\n      tag_462\n      jump\t// in\n    tag_668:\n        /* \"#utility.yul\":19584:19620   */\n    tag_667:\n        /* \"#utility.yul\":19436:19627   */\n      swap3\n      swap2\n      pop\n      pop\n      jump\t// out\n        /* \"#utility.yul\":19633:19801   */\n    tag_469:\n        /* \"#utility.yul\":19773:19793   */\n      0x5374616b65207374696c6c206c6f636b65640000000000000000000000000000\n        /* \"#utility.yul\":19769:19770   */\n      0x00\n        /* \"#utility.yul\":19761:19767   */\n      dup3\n        /* \"#utility.yul\":19757:19771   */\n      add\n        /* \"#utility.yul\":19750:19794   */\n      mstore\n        /* \"#utility.yul\":19633:19801   */\n      pop\n      jump\t// out\n        /* \"#utility.yul\":19807:20173   */\n    tag_470:\n        /* \"#utility.yul\":19949:19952   */\n      0x00\n        /* \"#utility.yul\":19970:20037   */\n      tag_671\n        /* \"#utility.yul\":20034:20036   */\n      0x12\n        /* \"#utility.yul\":20029:20032   */\n      dup4\n        /* \"#utility.yul\":19970:20037   */\n      tag_455\n      jump\t// in\n    tag_671:\n        /* \"#utility.yul\":19963:20037   */\n      swap2\n      pop\n        /* \"#utility.yul\":20046:20139   */\n      tag_672\n        /* \"#utility.yul\":20135:20138   */\n      dup3\n        /* \"#utility.yul\":20046:20139   */\n      tag_469\n      jump\t// in\n    tag_672:\n        /* \"#utility.yul\":20164:20166   */\n      0x20\n        /* \"#utility.yul\":20159:20162   */\n      dup3\n        /* \"#utility.yul\":20155:20167   */\n      add\n        /* \"#utility.yul\":20148:20167   */\n      swap1\n      pop\n        /* \"#utility.yul\":19807:20173   */\n      swap2\n      swap1\n      pop\n      jump\t// out\n        /* \"#utility.yul\":20179:20598   */\n    tag_188:\n        /* \"#utility.yul\":20345:20349   */\n      0x00\n        /* \"#utility.yul\":20383:20385   */\n      0x20\n        /* \"#utility.yul\":20372:20381   */\n      dup3\n        /* \"#utility.yul\":20368:20386   */\n      add\n        /* \"#utility.yul\":20360:20386   */\n      swap1\n      pop\n        /* \"#utility.yul\":20432:20441   */\n      dup2\n        /* \"#utility.yul\":20426:20430   */\n      dup2\n        /* \"#utility.yul\":20422:20442   */\n      sub\n        /* \"#utility.yul\":20418:20419   */\n      0x00\n        /* \"#utility.yul\":20407:20416   */\n      dup4\n        /* \"#utility.yul\":20403:20420   */\n      add\n        /* \"#utility.yul\":20396:20443   */\n      mstore\n        /* \"#utility.yul\":20460:20591   */\n      tag_674\n        /* \"#utility.yul\":20586:20590   */\n      dup2\n        /* \"#utility.yul\":20460:20591   */\n      tag_470\n      jump\t// in\n    tag_674:\n        /* \"#utility.yul\":20452:20591   */\n      swap1\n      pop\n        /* \"#utility.yul\":20179:20598   */\n      swap2\n      swap1\n      pop\n      jump\t// out\n        /* \"#utility.yul\":20604:20936   */\n    tag_199:\n        /* \"#utility.yul\":20725:20729   */\n      0x00\n        /* \"#utility.yul\":20763:20765   */\n      0x40\n        /* \"#utility.yul\":20752:20761   */\n      dup3\n        /* \"#utility.yul\":20748:20766   */\n      add\n        /* \"#utility.yul\":20740:20766   */\n      swap1\n      pop\n        /* \"#utility.yul\":20776:20847   */\n      tag_676\n        /* \"#utility.yul\":20844:20845   */\n      0x00\n        /* \"#utility.yul\":20833:20842   */\n      dup4\n        /* \"#utility.yul\":20829:20846   */\n      add\n        /* \"#utility.yul\":20820:20826   */\n      dup6\n        /* \"#utility.yul\":20776:20847   */\n      tag_436\n      jump\t// in\n    tag_676:\n        /* \"#utility.yul\":20857:20929   */\n      tag_677\n        /* \"#utility.yul\":20925:20927   */\n      0x20\n        /* \"#utility.yul\":20914:20923   */\n      dup4\n        /* \"#utility.yul\":20910:20928   */\n      add\n        /* \"#utility.yul\":20901:20907   */\n      dup5\n        /* \"#utility.yul\":20857:20929   */\n      tag_436\n      jump\t// in\n    tag_677:\n        /* \"#utility.yul\":20604:20936   */\n      swap4\n      swap3\n      pop\n      pop\n      pop\n      jump\t// out\n        /* \"#utility.yul\":20942:21106   */\n    tag_471:\n        /* \"#utility.yul\":21082:21098   */\n      0x4e6f7420617574686f72697a6564000000000000000000000000000000000000\n        /* \"#utility.yul\":21078:21079   */\n      0x00\n        /* \"#utility.yul\":21070:21076   */\n      dup3\n        /* \"#utility.yul\":21066:21080   */\n      add\n        /* \"#utility.yul\":21059:21099   */\n      mstore\n        /* \"#utility.yul\":20942:21106   */\n      pop\n      jump\t// out\n        /* \"#utility.yul\":21112:21478   */\n    tag_472:\n        /* \"#utility.yul\":21254:21257   */\n      0x00\n        /* \"#utility.yul\":21275:21342   */\n      tag_680\n        /* \"#utility.yul\":21339:21341   */\n      0x0e\n        /* \"#utility.yul\":21334:21337   */\n      dup4\n        /* \"#utility.yul\":21275:21342   */\n      tag_455\n      jump\t// in\n    tag_680:\n        /* \"#utility.yul\":21268:21342   */\n      swap2\n      pop\n        /* \"#utility.yul\":21351:21444   */\n      tag_681\n        /* \"#utility.yul\":21440:21443   */\n      dup3\n        /* \"#utility.yul\":21351:21444   */\n      tag_471\n      jump\t// in\n    tag_681:\n        /* \"#utility.yul\":21469:21471   */\n      0x20\n        /* \"#utility.yul\":21464:21467   */\n      dup3\n        /* \"#utility.yul\":21460:21472   */\n      add\n        /* \"#utility.yul\":21453:21472   */\n      swap1\n      pop\n        /* \"#utility.yul\":21112:21478   */\n      swap2\n      swap1\n      pop\n      jump\t// out\n        /* \"#utility.yul\":21484:21903   */\n    tag_205:\n        /* \"#utility.yul\":21650:21654   */\n      0x00\n        /* \"#utility.yul\":21688:21690   */\n      0x20\n        /* \"#utility.yul\":21677:21686   */\n      dup3\n        /* \"#utility.yul\":21673:21691   */\n      add\n        /* \"#utility.yul\":21665:21691   */\n      swap1\n      pop\n        /* \"#utility.yul\":21737:21746   */\n      dup2\n        /* \"#utility.yul\":21731:21735   */\n      dup2\n        /* \"#utility.yul\":21727:21747   */\n      sub\n        /* \"#utility.yul\":21723:21724   */\n      0x00\n        /* \"#utility.yul\":21712:21721   */\n      dup4\n        /* \"#utility.yul\":21708:21725   */\n      add\n        /* \"#utility.yul\":21701:21748   */\n      mstore\n        /* \"#utility.yul\":21765:21896   */\n      tag_683\n        /* \"#utility.yul\":21891:21895   */\n      dup2\n        /* \"#utility.yul\":21765:21896   */\n      tag_472\n      jump\t// in\n    tag_683:\n        /* \"#utility.yul\":21757:21896   */\n      swap1\n      pop\n        /* \"#utility.yul\":21484:21903   */\n      swap2\n      swap1\n      pop\n      jump\t// out\n        /* \"#utility.yul\":21909:22076   */\n    tag_473:\n        /* \"#utility.yul\":22049:22068   */\n      0x4e6f206665657320617661696c61626c65000000000000000000000000000000\n        /* \"#utility.yul\":22045:22046   */\n      0x00\n        /* \"#utility.yul\":22037:22043   */\n      dup3\n        /* \"#utility.yul\":22033:22047   */\n      add\n        /* \"#utility.yul\":22026:22069   */\n      mstore\n        /* \"#utility.yul\":21909:22076   */\n      pop\n      jump\t// out\n        /* \"#utility.yul\":22082:22448   */\n    tag_474:\n        /* \"#utility.yul\":22224:22227   */\n      0x00\n        /* \"#utility.yul\":22245:22312   */\n      tag_686\n        /* \"#utility.yul\":22309:22311   */\n      0x11\n        /* \"#utility.yul\":22304:22307   */\n      dup4\n        /* \"#utility.yul\":22245:22312   */\n      tag_455\n      jump\t// in\n    tag_686:\n        /* \"#utility.yul\":22238:22312   */\n      swap2\n      pop\n        /* \"#utility.yul\":22321:22414   */\n      tag_687\n        /* \"#utility.yul\":22410:22413   */\n      dup3\n        /* \"#utility.yul\":22321:22414   */\n      tag_473\n      jump\t// in\n    tag_687:\n        /* \"#utility.yul\":22439:22441   */\n      0x20\n        /* \"#utility.yul\":22434:22437   */\n      dup3\n        /* \"#utility.yul\":22430:22442   */\n      add\n        /* \"#utility.yul\":22423:22442   */\n      swap1\n      pop\n        /* \"#utility.yul\":22082:22448   */\n      swap2\n      swap1\n      pop\n      jump\t// out\n        /* \"#utility.yul\":22454:22873   */\n    tag_208:\n        /* \"#utility.yul\":22620:22624   */\n      0x00\n        /* \"#utility.yul\":22658:22660   */\n      0x20\n        /* \"#utility.yul\":22647:22656   */\n      dup3\n        /* \"#utility.yul\":22643:22661   */\n      add\n        /* \"#utility.yul\":22635:22661   */\n      swap1\n      pop\n        /* \"#utility.yul\":22707:22716   */\n      dup2\n        /* \"#utility.yul\":22701:22705   */\n      dup2\n        /* \"#utility.yul\":22697:22717   */\n      sub\n        /* \"#utility.yul\":22693:22694   */\n      0x00\n        /* \"#utility.yul\":22682:22691   */\n      dup4\n        /* \"#utility.yul\":22678:22695   */\n      add\n        /* \"#utility.yul\":22671:22718   */\n      mstore\n        /* \"#utility.yul\":22735:22866   */\n      tag_689\n        /* \"#utility.yul\":22861:22865   */\n      dup2\n        /* \"#utility.yul\":22735:22866   */\n      tag_474\n      jump\t// in\n    tag_689:\n        /* \"#utility.yul\":22727:22866   */\n      swap1\n      pop\n        /* \"#utility.yul\":22454:22873   */\n      swap2\n      swap1\n      pop\n      jump\t// out\n        /* \"#utility.yul\":22879:23211   */\n    tag_211:\n        /* \"#utility.yul\":23000:23004   */\n      0x00\n        /* \"#utility.yul\":23038:23040   */\n      0x40\n        /* \"#utility.yul\":23027:23036   */\n      dup3\n        /* \"#utility.yul\":23023:23041   */\n      add\n        /* \"#utility.yul\":23015:23041   */\n      swap1\n      pop\n        /* \"#utility.yul\":23051:23122   */\n      tag_691\n        /* \"#utility.yul\":23119:23120   */\n      0x00\n        /* \"#utility.yul\":23108:23117   */\n      dup4\n        /* \"#utility.yul\":23104:23121   */\n      add\n        /* \"#utility.yul\":23095:23101   */\n      dup6\n        /* \"#utility.yul\":23051:23122   */\n      tag_449\n      jump\t// in\n    tag_691:\n        /* \"#utility.yul\":23132:23204   */\n      tag_692\n        /* \"#utility.yul\":23200:23202   */\n      0x20\n        /* \"#utility.yul\":23189:23198   */\n      dup4\n        /* \"#utility.yul\":23185:23203   */\n      add\n        /* \"#utility.yul\":23176:23182   */\n      dup5\n        /* \"#utility.yul\":23132:23204   */\n      tag_436\n      jump\t// in\n    tag_692:\n        /* \"#utility.yul\":22879:23211   */\n      swap4\n      swap3\n      pop\n      pop\n      pop\n      jump\t// out\n        /* \"#utility.yul\":23217:23379   */\n    tag_475:\n        /* \"#utility.yul\":23357:23371   */\n      0x46656520746f6f20686967680000000000000000000000000000000000000000\n        /* \"#utility.yul\":23353:23354   */\n      0x00\n        /* \"#utility.yul\":23345:23351   */\n      dup3\n        /* \"#utility.yul\":23341:23355   */\n      add\n        /* \"#utility.yul\":23334:23372   */\n      mstore\n        /* \"#utility.yul\":23217:23379   */\n      pop\n      jump\t// out\n        /* \"#utility.yul\":23385:23751   */\n    tag_476:\n        /* \"#utility.yul\":23527:23530   */\n      0x00\n        /* \"#utility.yul\":23548:23615   */\n      tag_695\n        /* \"#utility.yul\":23612:23614   */\n      0x0c\n        /* \"#utility.yul\":23607:23610   */\n      dup4\n        /* \"#utility.yul\":23548:23615   */\n      tag_455\n      jump\t// in\n    tag_695:\n        /* \"#utility.yul\":23541:23615   */\n      swap2\n      pop\n        /* \"#utility.yul\":23624:23717   */\n      tag_696\n        /* \"#utility.yul\":23713:23716   */\n      dup3\n        /* \"#utility.yul\":23624:23717   */\n      tag_475\n      jump\t// in\n    tag_696:\n        /* \"#utility.yul\":23742:23744   */\n      0x20\n        /* \"#utility.yul\":23737:23740   */\n      dup3\n        /* \"#utility.yul\":23733:23745   */\n      add\n        /* \"#utility.yul\":23726:23745   */\n      swap1\n      pop\n        /* \"#utility.yul\":23385:23751   */\n      swap2\n      swap1\n      pop\n      jump\t// out\n        /* \"#utility.yul\":23757:24176   */\n    tag_294:\n        /* \"#utility.yul\":23923:23927   */\n      0x00\n        /* \"#utility.yul\":23961:23963   */\n      0x20\n        /* \"#utility.yul\":23950:23959   */\n      dup3\n        /* \"#utility.yul\":23946:23964   */\n      add\n        /* \"#utility.yul\":23938:23964   */\n      swap1\n      pop\n        /* \"#utility.yul\":24010:24019   */\n      dup2\n        /* \"#utility.yul\":24004:24008   */\n      dup2\n        /* \"#utility.yul\":24000:24020   */\n      sub\n        /* \"#utility.yul\":23996:23997   */\n      0x00\n        /* \"#utility.yul\":23985:23994   */\n      dup4\n        /* \"#utility.yul\":23981:23998   */\n      add\n        /* \"#utility.yul\":23974:24021   */\n      mstore\n        /* \"#utility.yul\":24038:24169   */\n      tag_698\n        /* \"#utility.yul\":24164:24168   */\n      dup2\n        /* \"#utility.yul\":24038:24169   */\n      tag_476\n      jump\t// in\n    tag_698:\n        /* \"#utility.yul\":24030:24169   */\n      swap1\n      pop\n        /* \"#utility.yul\":23757:24176   */\n      swap2\n      swap1\n      pop\n      jump\t// out\n        /* \"#utility.yul\":24182:24349   */\n    tag_477:\n        /* \"#utility.yul\":24322:24341   */\n      0x496e76616c696420636f6c6c6563746f72000000000000000000000000000000\n        /* \"#utility.yul\":24318:24319   */\n      0x00\n        /* \"#utility.yul\":24310:24316   */\n      dup3\n        /* \"#utility.yul\":24306:24320   */\n      add\n        /* \"#utility.yul\":24299:24342   */\n      mstore\n        /* \"#utility.yul\":24182:24349   */\n      pop\n      jump\t// out\n        /* \"#utility.yul\":24355:24721   */\n    tag_478:\n        /* \"#utility.yul\":24497:24500   */\n      0x00\n        /* \"#utility.yul\":24518:24585   */\n      tag_701\n        /* \"#utility.yul\":24582:24584   */\n      0x11\n        /* \"#utility.yul\":24577:24580   */\n      dup4\n        /* \"#utility.yul\":24518:24585   */\n      tag_455\n      jump\t// in\n    tag_701:\n        /* \"#utility.yul\":24511:24585   */\n      swap2\n      pop\n        /* \"#utility.yul\":24594:24687   */\n      tag_702\n        /* \"#utility.yul\":24683:24686   */\n      dup3\n        /* \"#utility.yul\":24594:24687   */\n      tag_477\n      jump\t// in\n    tag_702:\n        /* \"#utility.yul\":24712:24714   */\n      0x20\n        /* \"#utility.yul\":24707:24710   */\n      dup3\n        /* \"#utility.yul\":24703:24715   */\n      add\n        /* \"#utility.yul\":24696:24715   */\n      swap1\n      pop\n        /* \"#utility.yul\":24355:24721   */\n      swap2\n      swap1\n      pop\n      jump\t// out\n        /* \"#utility.yul\":24727:25146   */\n    tag_297:\n        /* \"#utility.yul\":24893:24897   */\n      0x00\n        /* \"#utility.yul\":24931:24933   */\n      0x20\n        /* \"#utility.yul\":24920:24929   */\n      dup3\n        /* \"#utility.yul\":24916:24934   */\n      add\n        /* \"#utility.yul\":24908:24934   */\n      swap1\n      pop\n        /* \"#utility.yul\":24980:24989   */\n      dup2\n        /* \"#utility.yul\":24974:24978   */\n      dup2\n        /* \"#utility.yul\":24970:24990   */\n      sub\n        /* \"#utility.yul\":24966:24967   */\n      0x00\n        /* \"#utility.yul\":24955:24964   */\n      dup4\n        /* \"#utility.yul\":24951:24968   */\n      add\n        /* \"#utility.yul\":24944:24991   */\n      mstore\n        /* \"#utility.yul\":25008:25139   */\n      tag_704\n        /* \"#utility.yul\":25134:25138   */\n      dup2\n        /* \"#utility.yul\":25008:25139   */\n      tag_478\n      jump\t// in\n    tag_704:\n        /* \"#utility.yul\":25000:25139   */\n      swap1\n      pop\n        /* \"#utility.yul\":24727:25146   */\n      swap2\n      swap1\n      pop\n      jump\t// out\n        /* \"#utility.yul\":25152:25484   */\n    tag_299:\n        /* \"#utility.yul\":25273:25277   */\n      0x00\n        /* \"#utility.yul\":25311:25313   */\n      0x40\n        /* \"#utility.yul\":25300:25309   */\n      dup3\n        /* \"#utility.yul\":25296:25314   */\n      add\n        /* \"#utility.yul\":25288:25314   */\n      swap1\n      pop\n        /* \"#utility.yul\":25324:25395   */\n      tag_706\n        /* \"#utility.yul\":25392:25393   */\n      0x00\n        /* \"#utility.yul\":25381:25390   */\n      dup4\n        /* \"#utility.yul\":25377:25394   */\n      add\n        /* \"#utility.yul\":25368:25374   */\n      dup6\n        /* \"#utility.yul\":25324:25395   */\n      tag_436\n      jump\t// in\n    tag_706:\n        /* \"#utility.yul\":25405:25477   */\n      tag_707\n        /* \"#utility.yul\":25473:25475   */\n      0x20\n        /* \"#utility.yul\":25462:25471   */\n      dup4\n        /* \"#utility.yul\":25458:25476   */\n      add\n        /* \"#utility.yul\":25449:25455   */\n      dup5\n        /* \"#utility.yul\":25405:25477   */\n      tag_449\n      jump\t// in\n    tag_707:\n        /* \"#utility.yul\":25152:25484   */\n      swap4\n      swap3\n      pop\n      pop\n      pop\n      jump\t// out\n        /* \"#utility.yul\":25490:25663   */\n    tag_479:\n        /* \"#utility.yul\":25630:25655   */\n      0x416d6f756e74206d75737420626520706f736974697665000000000000000000\n        /* \"#utility.yul\":25626:25627   */\n      0x00\n        /* \"#utility.yul\":25618:25624   */\n      dup3\n        /* \"#utility.yul\":25614:25628   */\n      add\n        /* \"#utility.yul\":25607:25656   */\n      mstore\n        /* \"#utility.yul\":25490:25663   */\n      pop\n      jump\t// out\n        /* \"#utility.yul\":25669:26035   */\n    tag_480:\n        /* \"#utility.yul\":25811:25814   */\n      0x00\n        /* \"#utility.yul\":25832:25899   */\n      tag_710\n        /* \"#utility.yul\":25896:25898   */\n      0x17\n        /* \"#utility.yul\":25891:25894   */\n      dup4\n        /* \"#utility.yul\":25832:25899   */\n      tag_455\n      jump\t// in\n    tag_710:\n        /* \"#utility.yul\":25825:25899   */\n      swap2\n      pop\n        /* \"#utility.yul\":25908:26001   */\n      tag_711\n        /* \"#utility.yul\":25997:26000   */\n      dup3\n        /* \"#utility.yul\":25908:26001   */\n      tag_479\n      jump\t// in\n    tag_711:\n        /* \"#utility.yul\":26026:26028   */\n      0x20\n        /* \"#utility.yul\":26021:26024   */\n      dup3\n        /* \"#utility.yul\":26017:26029   */\n      add\n        /* \"#utility.yul\":26010:26029   */\n      swap1\n      pop\n        /* \"#utility.yul\":25669:26035   */\n      swap2\n      swap1\n      pop\n      jump\t// out\n        /* \"#utility.yul\":26041:26460   */\n    tag_312:\n        /* \"#utility.yul\":26207:26211   */\n      0x00\n        /* \"#utility.yul\":26245:26247   */\n      0x20\n        /* \"#utility.yul\":26234:26243   */\n      dup3\n        /* \"#utility.yul\":26230:26248   */\n      add\n        /* \"#utility.yul\":26222:26248   */\n      swap1\n      pop\n        /* \"#utility.yul\":26294:26303   */\n      dup2\n        /* \"#utility.yul\":26288:26292   */\n      dup2\n        /* \"#utility.yul\":26284:26304   */\n      sub\n        /* \"#utility.yul\":26280:26281   */\n      0x00\n        /* \"#utility.yul\":26269:26278   */\n      dup4\n        /* \"#utility.yul\":26265:26282   */\n      add\n        /* \"#utility.yul\":26258:26305   */\n      mstore\n        /* \"#utility.yul\":26322:26453   */\n      tag_713\n        /* \"#utility.yul\":26448:26452   */\n      dup2\n        /* \"#utility.yul\":26322:26453   */\n      tag_480\n      jump\t// in\n    tag_713:\n        /* \"#utility.yul\":26314:26453   */\n      swap1\n      pop\n        /* \"#utility.yul\":26041:26460   */\n      swap2\n      swap1\n      pop\n      jump\t// out\n        /* \"#utility.yul\":26466:26632   */\n    tag_481:\n        /* \"#utility.yul\":26606:26624   */\n      0x5061636b61676520696e61637469766500000000000000000000000000000000\n        /* \"#utility.yul\":26602:26603   */\n      0x00\n        /* \"#utility.yul\":26594:26600   */\n      dup3\n        /* \"#utility.yul\":26590:26604   */\n      add\n        /* \"#utility.yul\":26583:26625   */\n      mstore\n        /* \"#utility.yul\":26466:26632   */\n      pop\n      jump\t// out\n        /* \"#utility.yul\":26638:27004   */\n    tag_482:\n        /* \"#utility.yul\":26780:26783   */\n      0x00\n        /* \"#utility.yul\":26801:26868   */\n      tag_716\n        /* \"#utility.yul\":26865:26867   */\n      0x10\n        /* \"#utility.yul\":26860:26863   */\n      dup4\n        /* \"#utility.yul\":26801:26868   */\n      tag_455\n      jump\t// in\n    tag_716:\n        /* \"#utility.yul\":26794:26868   */\n      swap2\n      pop\n        /* \"#utility.yul\":26877:26970   */\n      tag_717\n        /* \"#utility.yul\":26966:26969   */\n      dup3\n        /* \"#utility.yul\":26877:26970   */\n      tag_481\n      jump\t// in\n    tag_717:\n        /* \"#utility.yul\":26995:26997   */\n      0x20\n        /* \"#utility.yul\":26990:26993   */\n      dup3\n        /* \"#utility.yul\":26986:26998   */\n      add\n        /* \"#utility.yul\":26979:26998   */\n      swap1\n      pop\n        /* \"#utility.yul\":26638:27004   */\n      swap2\n      swap1\n      pop\n      jump\t// out\n        /* \"#utility.yul\":27010:27429   */\n    tag_319:\n        /* \"#utility.yul\":27176:27180   */\n      0x00\n        /* \"#utility.yul\":27214:27216   */\n      0x20\n        /* \"#utility.yul\":27203:27212   */\n      dup3\n        /* \"#utility.yul\":27199:27217   */\n      add\n        /* \"#utility.yul\":27191:27217   */\n      swap1\n      pop\n        /* \"#utility.yul\":27263:27272   */\n      dup2\n        /* \"#utility.yul\":27257:27261   */\n      dup2\n        /* \"#utility.yul\":27253:27273   */\n      sub\n        /* \"#utility.yul\":27249:27250   */\n      0x00\n        /* \"#utility.yul\":27238:27247   */\n      dup4\n        /* \"#utility.yul\":27234:27251   */\n      add\n        /* \"#utility.yul\":27227:27274   */\n      mstore\n        /* \"#utility.yul\":27291:27422   */\n      tag_719\n        /* \"#utility.yul\":27417:27421   */\n      dup2\n        /* \"#utility.yul\":27291:27422   */\n      tag_482\n      jump\t// in\n    tag_719:\n        /* \"#utility.yul\":27283:27422   */\n      swap1\n      pop\n        /* \"#utility.yul\":27010:27429   */\n      swap2\n      swap1\n      pop\n      jump\t// out\n        /* \"#utility.yul\":27435:27610   */\n    tag_483:\n        /* \"#utility.yul\":27575:27602   */\n      0x496e73756666696369656e74207374616b6520616d6f756e7400000000000000\n        /* \"#utility.yul\":27571:27572   */\n      0x00\n        /* \"#utility.yul\":27563:27569   */\n      dup3\n        /* \"#utility.yul\":27559:27573   */\n      add\n        /* \"#utility.yul\":27552:27603   */\n      mstore\n        /* \"#utility.yul\":27435:27610   */\n      pop\n      jump\t// out\n        /* \"#utility.yul\":27616:27982   */\n    tag_484:\n        /* \"#utility.yul\":27758:27761   */\n      0x00\n        /* \"#utility.yul\":27779:27846   */\n      tag_722\n        /* \"#utility.yul\":27843:27845   */\n      0x19\n        /* \"#utility.yul\":27838:27841   */\n      dup4\n        /* \"#utility.yul\":27779:27846   */\n      tag_455\n      jump\t// in\n    tag_722:\n        /* \"#utility.yul\":27772:27846   */\n      swap2\n      pop\n        /* \"#utility.yul\":27855:27948   */\n      tag_723\n        /* \"#utility.yul\":27944:27947   */\n      dup3\n        /* \"#utility.yul\":27855:27948   */\n      tag_483\n      jump\t// in\n    tag_723:\n        /* \"#utility.yul\":27973:27975   */\n      0x20\n        /* \"#utility.yul\":27968:27971   */\n      dup3\n        /* \"#utility.yul\":27964:27976   */\n      add\n        /* \"#utility.yul\":27957:27976   */\n      swap1\n      pop\n        /* \"#utility.yul\":27616:27982   */\n      swap2\n      swap1\n      pop\n      jump\t// out\n        /* \"#utility.yul\":27988:28407   */\n    tag_322:\n        /* \"#utility.yul\":28154:28158   */\n      0x00\n        /* \"#utility.yul\":28192:28194   */\n      0x20\n        /* \"#utility.yul\":28181:28190   */\n      dup3\n        /* \"#utility.yul\":28177:28195   */\n      add\n        /* \"#utility.yul\":28169:28195   */\n      swap1\n      pop\n        /* \"#utility.yul\":28241:28250   */\n      dup2\n        /* \"#utility.yul\":28235:28239   */\n      dup2\n        /* \"#utility.yul\":28231:28251   */\n      sub\n        /* \"#utility.yul\":28227:28228   */\n      0x00\n        /* \"#utility.yul\":28216:28225   */\n      dup4\n        /* \"#utility.yul\":28212:28229   */\n      add\n        /* \"#utility.yul\":28205:28252   */\n      mstore\n        /* \"#utility.yul\":28269:28400   */\n      tag_725\n        /* \"#utility.yul\":28395:28399   */\n      dup2\n        /* \"#utility.yul\":28269:28400   */\n      tag_484\n      jump\t// in\n    tag_725:\n        /* \"#utility.yul\":28261:28400   */\n      swap1\n      pop\n        /* \"#utility.yul\":27988:28407   */\n      swap2\n      swap1\n      pop\n      jump\t// out\n        /* \"#utility.yul\":28413:28583   */\n    tag_485:\n        /* \"#utility.yul\":28553:28575   */\n      0x4e6f207265776172647320617661696c61626c65000000000000000000000000\n        /* \"#utility.yul\":28549:28550   */\n      0x00\n        /* \"#utility.yul\":28541:28547   */\n      dup3\n        /* \"#utility.yul\":28537:28551   */\n      add\n        /* \"#utility.yul\":28530:28576   */\n      mstore\n        /* \"#utility.yul\":28413:28583   */\n      pop\n      jump\t// out\n        /* \"#utility.yul\":28589:28955   */\n    tag_486:\n        /* \"#utility.yul\":28731:28734   */\n      0x00\n        /* \"#utility.yul\":28752:28819   */\n      tag_728\n        /* \"#utility.yul\":28816:28818   */\n      0x14\n        /* \"#utility.yul\":28811:28814   */\n      dup4\n        /* \"#utility.yul\":28752:28819   */\n      tag_455\n      jump\t// in\n    tag_728:\n        /* \"#utility.yul\":28745:28819   */\n      swap2\n      pop\n        /* \"#utility.yul\":28828:28921   */\n      tag_729\n        /* \"#utility.yul\":28917:28920   */\n      dup3\n        /* \"#utility.yul\":28828:28921   */\n      tag_485\n      jump\t// in\n    tag_729:\n        /* \"#utility.yul\":28946:28948   */\n      0x20\n        /* \"#utility.yul\":28941:28944   */\n      dup3\n        /* \"#utility.yul\":28937:28949   */\n      add\n        /* \"#utility.yul\":28930:28949   */\n      swap1\n      pop\n        /* \"#utility.yul\":28589:28955   */\n      swap2\n      swap1\n      pop\n      jump\t// out\n        /* \"#utility.yul\":28961:29380   */\n    tag_345:\n        /* \"#utility.yul\":29127:29131   */\n      0x00\n        /* \"#utility.yul\":29165:29167   */\n      0x20\n        /* \"#utility.yul\":29154:29163   */\n      dup3\n        /* \"#utility.yul\":29150:29168   */\n      add\n        /* \"#utility.yul\":29142:29168   */\n      swap1\n      pop\n        /* \"#utility.yul\":29214:29223   */\n      dup2\n        /* \"#utility.yul\":29208:29212   */\n      dup2\n        /* \"#utility.yul\":29204:29224   */\n      sub\n        /* \"#utility.yul\":29200:29201   */\n      0x00\n        /* \"#utility.yul\":29189:29198   */\n      dup4\n        /* \"#utility.yul\":29185:29202   */\n      add\n        /* \"#utility.yul\":29178:29225   */\n      mstore\n        /* \"#utility.yul\":29242:29373   */\n      tag_731\n        /* \"#utility.yul\":29368:29372   */\n      dup2\n        /* \"#utility.yul\":29242:29373   */\n      tag_486\n      jump\t// in\n    tag_731:\n        /* \"#utility.yul\":29234:29373   */\n      swap1\n      pop\n        /* \"#utility.yul\":28961:29380   */\n      swap2\n      swap1\n      pop\n      jump\t// out\n        /* \"#utility.yul\":29386:29567   */\n    tag_487:\n        /* \"#utility.yul\":29526:29559   */\n      0x5265656e7472616e637947756172643a207265656e7472616e742063616c6c00\n        /* \"#utility.yul\":29522:29523   */\n      0x00\n        /* \"#utility.yul\":29514:29520   */\n      dup3\n        /* \"#utility.yul\":29510:29524   */\n      add\n        /* \"#utility.yul\":29503:29560   */\n      mstore\n        /* \"#utility.yul\":29386:29567   */\n      pop\n      jump\t// out\n        /* \"#utility.yul\":29573:29939   */\n    tag_488:\n        /* \"#utility.yul\":29715:29718   */\n      0x00\n        /* \"#utility.yul\":29736:29803   */\n      tag_734\n        /* \"#utility.yul\":29800:29802   */\n      0x1f\n        /* \"#utility.yul\":29795:29798   */\n      dup4\n        /* \"#utility.yul\":29736:29803   */\n      tag_455\n      jump\t// in\n    tag_734:\n        /* \"#utility.yul\":29729:29803   */\n      swap2\n      pop\n        /* \"#utility.yul\":29812:29905   */\n      tag_735\n        /* \"#utility.yul\":29901:29904   */\n      dup3\n        /* \"#utility.yul\":29812:29905   */\n      tag_487\n      jump\t// in\n    tag_735:\n        /* \"#utility.yul\":29930:29932   */\n      0x20\n        /* \"#utility.yul\":29925:29928   */\n      dup3\n        /* \"#utility.yul\":29921:29933   */\n      add\n        /* \"#utility.yul\":29914:29933   */\n      swap1\n      pop\n        /* \"#utility.yul\":29573:29939   */\n      swap2\n      swap1\n      pop\n      jump\t// out\n        /* \"#utility.yul\":29945:30364   */\n    tag_366:\n        /* \"#utility.yul\":30111:30115   */\n      0x00\n        /* \"#utility.yul\":30149:30151   */\n      0x20\n        /* \"#utility.yul\":30138:30147   */\n      dup3\n        /* \"#utility.yul\":30134:30152   */\n      add\n        /* \"#utility.yul\":30126:30152   */\n      swap1\n      pop\n        /* \"#utility.yul\":30198:30207   */\n      dup2\n        /* \"#utility.yul\":30192:30196   */\n      dup2\n        /* \"#utility.yul\":30188:30208   */\n      sub\n        /* \"#utility.yul\":30184:30185   */\n      0x00\n        /* \"#utility.yul\":30173:30182   */\n      dup4\n        /* \"#utility.yul\":30169:30186   */\n      add\n        /* \"#utility.yul\":30162:30209   */\n      mstore\n        /* \"#utility.yul\":30226:30357   */\n      tag_737\n        /* \"#utility.yul\":30352:30356   */\n      dup2\n        /* \"#utility.yul\":30226:30357   */\n      tag_488\n      jump\t// in\n    tag_737:\n        /* \"#utility.yul\":30218:30357   */\n      swap1\n      pop\n        /* \"#utility.yul\":29945:30364   */\n      swap2\n      swap1\n      pop\n      jump\t// out\n        /* \"#utility.yul\":30370:30780   */\n    tag_377:\n        /* \"#utility.yul\":30410:30417   */\n      0x00\n        /* \"#utility.yul\":30433:30453   */\n      tag_739\n        /* \"#utility.yul\":30451:30452   */\n      dup3\n        /* \"#utility.yul\":30433:30453   */\n      tag_430\n      jump\t// in\n    tag_739:\n        /* \"#utility.yul\":30428:30453   */\n      swap2\n      pop\n        /* \"#utility.yul\":30467:30487   */\n      tag_740\n        /* \"#utility.yul\":30485:30486   */\n      dup4\n        /* \"#utility.yul\":30467:30487   */\n      tag_430\n      jump\t// in\n    tag_740:\n        /* \"#utility.yul\":30462:30487   */\n      swap3\n      pop\n        /* \"#utility.yul\":30522:30523   */\n      dup3\n        /* \"#utility.yul\":30519:30520   */\n      dup3\n        /* \"#utility.yul\":30515:30524   */\n      mul\n        /* \"#utility.yul\":30544:30574   */\n      tag_741\n        /* \"#utility.yul\":30562:30573   */\n      dup2\n        /* \"#utility.yul\":30544:30574   */\n      tag_430\n      jump\t// in\n    tag_741:\n        /* \"#utility.yul\":30533:30574   */\n      swap2\n      pop\n        /* \"#utility.yul\":30723:30724   */\n      dup3\n        /* \"#utility.yul\":30714:30721   */\n      dup3\n        /* \"#utility.yul\":30710:30725   */\n      div\n        /* \"#utility.yul\":30707:30708   */\n      dup5\n        /* \"#utility.yul\":30704:30726   */\n      eq\n        /* \"#utility.yul\":30684:30685   */\n      dup4\n        /* \"#utility.yul\":30677:30686   */\n      iszero\n        /* \"#utility.yul\":30657:30740   */\n      or\n        /* \"#utility.yul\":30634:30773   */\n      tag_742\n      jumpi\n        /* \"#utility.yul\":30753:30771   */\n      tag_743\n      tag_462\n      jump\t// in\n    tag_743:\n        /* \"#utility.yul\":30634:30773   */\n    tag_742:\n        /* \"#utility.yul\":30418:30780   */\n      pop\n        /* \"#utility.yul\":30370:30780   */\n      swap3\n      swap2\n      pop\n      pop\n      jump\t// out\n        /* \"#utility.yul\":30786:30966   */\n    tag_489:\n        /* \"#utility.yul\":30834:30911   */\n      0x4e487b7100000000000000000000000000000000000000000000000000000000\n        /* \"#utility.yul\":30831:30832   */\n      0x00\n        /* \"#utility.yul\":30824:30912   */\n      mstore\n        /* \"#utility.yul\":30931:30935   */\n      0x12\n        /* \"#utility.yul\":30928:30929   */\n      0x04\n        /* \"#utility.yul\":30921:30936   */\n      mstore\n        /* \"#utility.yul\":30955:30959   */\n      0x24\n        /* \"#utility.yul\":30952:30953   */\n      0x00\n        /* \"#utility.yul\":30945:30960   */\n      revert\n        /* \"#utility.yul\":30972:31157   */\n    tag_381:\n        /* \"#utility.yul\":31012:31013   */\n      0x00\n        /* \"#utility.yul\":31029:31049   */\n      tag_746\n        /* \"#utility.yul\":31047:31048   */\n      dup3\n        /* \"#utility.yul\":31029:31049   */\n      tag_430\n      jump\t// in\n    tag_746:\n        /* \"#utility.yul\":31024:31049   */\n      swap2\n      pop\n        /* \"#utility.yul\":31063:31083   */\n      tag_747\n        /* \"#utility.yul\":31081:31082   */\n      dup4\n        /* \"#utility.yul\":31063:31083   */\n      tag_430\n      jump\t// in\n    tag_747:\n        /* \"#utility.yul\":31058:31083   */\n      swap3\n      pop\n        /* \"#utility.yul\":31102:31103   */\n      dup3\n        /* \"#utility.yul\":31092:31127   */\n      tag_748\n      jumpi\n        /* \"#utility.yul\":31107:31125   */\n      tag_749\n      tag_489\n      jump\t// in\n    tag_749:\n        /* \"#utility.yul\":31092:31127   */\n    tag_748:\n        /* \"#utility.yul\":31149:31150   */\n      dup3\n        /* \"#utility.yul\":31146:31147   */\n      dup3\n        /* \"#utility.yul\":31142:31151   */\n      div\n        /* \"#utility.yul\":31137:31151   */\n      swap1\n      pop\n        /* \"#utility.yul\":30972:31157   */\n      swap3\n      swap2\n      pop\n      pop\n      jump\t// out\n        /* \"#utility.yul\":31163:31329   */\n    tag_490:\n        /* \"#utility.yul\":31303:31321   */\n      0x5061757361626c653a2070617573656400000000000000000000000000000000\n        /* \"#utility.yul\":31299:31300   */\n      0x00\n        /* \"#utility.yul\":31291:31297   */\n      dup3\n        /* \"#utility.yul\":31287:31301   */\n      add\n        /* \"#utility.yul\":31280:31322   */\n      mstore\n        /* \"#utility.yul\":31163:31329   */\n      pop\n      jump\t// out\n        /* \"#utility.yul\":31335:31701   */\n    tag_491:\n        /* \"#utility.yul\":31477:31480   */\n      0x00\n        /* \"#utility.yul\":31498:31565   */\n      tag_752\n        /* \"#utility.yul\":31562:31564   */\n      0x10\n        /* \"#utility.yul\":31557:31560   */\n      dup4\n        /* \"#utility.yul\":31498:31565   */\n      tag_455\n      jump\t// in\n    tag_752:\n        /* \"#utility.yul\":31491:31565   */\n      swap2\n      pop\n        /* \"#utility.yul\":31574:31667   */\n      tag_753\n        /* \"#utility.yul\":31663:31666   */\n      dup3\n        /* \"#utility.yul\":31574:31667   */\n      tag_490\n      jump\t// in\n    tag_753:\n        /* \"#utility.yul\":31692:31694   */\n      0x20\n        /* \"#utility.yul\":31687:31690   */\n      dup3\n        /* \"#utility.yul\":31683:31695   */\n      add\n        /* \"#utility.yul\":31676:31695   */\n      swap1\n      pop\n        /* \"#utility.yul\":31335:31701   */\n      swap2\n      swap1\n      pop\n      jump\t// out\n        /* \"#utility.yul\":31707:32126   */\n    tag_406:\n        /* \"#utility.yul\":31873:31877   */\n      0x00\n        /* \"#utility.yul\":31911:31913   */\n      0x20\n        /* \"#utility.yul\":31900:31909   */\n      dup3\n        /* \"#utility.yul\":31896:31914   */\n      add\n        /* \"#utility.yul\":31888:31914   */\n      swap1\n      pop\n        /* \"#utility.yul\":31960:31969   */\n      dup2\n        /* \"#utility.yul\":31954:31958   */\n      dup2\n        /* \"#utility.yul\":31950:31970   */\n      sub\n        /* \"#utility.yul\":31946:31947   */\n      0x00\n        /* \"#utility.yul\":31935:31944   */\n      dup4\n        /* \"#utility.yul\":31931:31948   */\n      add\n        /* \"#utility.yul\":31924:31971   */\n      mstore\n        /* \"#utility.yul\":31988:32119   */\n      tag_755\n        /* \"#utility.yul\":32114:32118   */\n      dup2\n        /* \"#utility.yul\":31988:32119   */\n      tag_491\n      jump\t// in\n    tag_755:\n        /* \"#utility.yul\":31980:32119   */\n      swap1\n      pop\n        /* \"#utility.yul\":31707:32126   */\n      swap2\n      swap1\n      pop\n      jump\t// out\n        /* \"#utility.yul\":32132:32574   */\n    tag_410:\n        /* \"#utility.yul\":32281:32285   */\n      0x00\n        /* \"#utility.yul\":32319:32321   */\n      0x60\n        /* \"#utility.yul\":32308:32317   */\n      dup3\n        /* \"#utility.yul\":32304:32322   */\n      add\n        /* \"#utility.yul\":32296:32322   */\n      swap1\n      pop\n        /* \"#utility.yul\":32332:32403   */\n      tag_757\n        /* \"#utility.yul\":32400:32401   */\n      0x00\n        /* \"#utility.yul\":32389:32398   */\n      dup4\n        /* \"#utility.yul\":32385:32402   */\n      add\n        /* \"#utility.yul\":32376:32382   */\n      dup7\n        /* \"#utility.yul\":32332:32403   */\n      tag_449\n      jump\t// in\n    tag_757:\n        /* \"#utility.yul\":32413:32485   */\n      tag_758\n        /* \"#utility.yul\":32481:32483   */\n      0x20\n        /* \"#utility.yul\":32470:32479   */\n      dup4\n        /* \"#utility.yul\":32466:32484   */\n      add\n        /* \"#utility.yul\":32457:32463   */\n      dup6\n        /* \"#utility.yul\":32413:32485   */\n      tag_449\n      jump\t// in\n    tag_758:\n        /* \"#utility.yul\":32495:32567   */\n      tag_759\n        /* \"#utility.yul\":32563:32565   */\n      0x40\n        /* \"#utility.yul\":32552:32561   */\n      dup4\n        /* \"#utility.yul\":32548:32566   */\n      add\n        /* \"#utility.yul\":32539:32545   */\n      dup5\n        /* \"#utility.yul\":32495:32567   */\n      tag_436\n      jump\t// in\n    tag_759:\n        /* \"#utility.yul\":32132:32574   */\n      swap5\n      swap4\n      pop\n      pop\n      pop\n      pop\n      jump\t// out\n        /* \"#utility.yul\":32580:32750   */\n    tag_492:\n        /* \"#utility.yul\":32720:32742   */\n      0x5061757361626c653a206e6f7420706175736564000000000000000000000000\n        /* \"#utility.yul\":32716:32717   */\n      0x00\n        /* \"#utility.yul\":32708:32714   */\n      dup3\n        /* \"#utility.yul\":32704:32718   */\n      add\n        /* \"#utility.yul\":32697:32743   */\n      mstore\n        /* \"#utility.yul\":32580:32750   */\n      pop\n      jump\t// out\n        /* \"#utility.yul\":32756:33122   */\n    tag_493:\n        /* \"#utility.yul\":32898:32901   */\n      0x00\n        /* \"#utility.yul\":32919:32986   */\n      tag_762\n        /* \"#utility.yul\":32983:32985   */\n      0x14\n        /* \"#utility.yul\":32978:32981   */\n      dup4\n        /* \"#utility.yul\":32919:32986   */\n      tag_455\n      jump\t// in\n    tag_762:\n        /* \"#utility.yul\":32912:32986   */\n      swap2\n      pop\n        /* \"#utility.yul\":32995:33088   */\n      tag_763\n        /* \"#utility.yul\":33084:33087   */\n      dup3\n        /* \"#utility.yul\":32995:33088   */\n      tag_492\n      jump\t// in\n    tag_763:\n        /* \"#utility.yul\":33113:33115   */\n      0x20\n        /* \"#utility.yul\":33108:33111   */\n      dup3\n        /* \"#utility.yul\":33104:33116   */\n      add\n        /* \"#utility.yul\":33097:33116   */\n      swap1\n      pop\n        /* \"#utility.yul\":32756:33122   */\n      swap2\n      swap1\n      pop\n      jump\t// out\n        /* \"#utility.yul\":33128:33547   */\n    tag_421:\n        /* \"#utility.yul\":33294:33298   */\n      0x00\n        /* \"#utility.yul\":33332:33334   */\n      0x20\n        /* \"#utility.yul\":33321:33330   */\n      dup3\n        /* \"#utility.yul\":33317:33335   */\n      add\n        /* \"#utility.yul\":33309:33335   */\n      swap1\n      pop\n        /* \"#utility.yul\":33381:33390   */\n      dup2\n        /* \"#utility.yul\":33375:33379   */\n      dup2\n        /* \"#utility.yul\":33371:33391   */\n      sub\n        /* \"#utility.yul\":33367:33368   */\n      0x00\n        /* \"#utility.yul\":33356:33365   */\n      dup4\n        /* \"#utility.yul\":33352:33369   */\n      add\n        /* \"#utility.yul\":33345:33392   */\n      mstore\n        /* \"#utility.yul\":33409:33540   */\n      tag_765\n        /* \"#utility.yul\":33535:33539   */\n      dup2\n        /* \"#utility.yul\":33409:33540   */\n      tag_493\n      jump\t// in\n    tag_765:\n        /* \"#utility.yul\":33401:33540   */\n      swap1\n      pop\n        /* \"#utility.yul\":33128:33547   */\n      swap2\n      swap1\n      pop\n      jump\t// out\n\n    auxdata: 0xa2646970667358221220d9a8cf148e9c28ec1d3155c5f23e6498ee62ea58115147817a28b70fbdd9f65064736f6c634300081e0033\n}\n",
				"bytecode": {
					"linkReferences": {},
					"object": "60a06040526032600655348015610014575f5ffd5b506040516137cd3803806137cd83398181016040528101906100369190610385565b805f73ffffffffffffffffffffffffffffffffffffffff168173ffffffffffffffffffffffffffffffffffffffff16036100a7575f6040517f1e4fbdf700000000000000000000000000000000000000000000000000000000815260040161009e91906103e4565b60405180910390fd5b6100b68161023060201b60201c565b5060016002819055505f60035f6101000a81548160ff0219169083151502179055505f73ffffffffffffffffffffffffffffffffffffffff168373ffffffffffffffffffffffffffffffffffffffff1603610146576040517f08c379a000000000000000000000000000000000000000000000000000000000815260040161013d90610457565b60405180910390fd5b5f73ffffffffffffffffffffffffffffffffffffffff168273ffffffffffffffffffffffffffffffffffffffff16036101b4576040517f08c379a00000000000000000000000000000000000000000000000000000000081526004016101ab906104bf565b60405180910390fd5b8273ffffffffffffffffffffffffffffffffffffffff1660808173ffffffffffffffffffffffffffffffffffffffff16815250508160055f6101000a81548173ffffffffffffffffffffffffffffffffffffffff021916908373ffffffffffffffffffffffffffffffffffffffff1602179055505050506104dd565b60015f6101000a81549073ffffffffffffffffffffffffffffffffffffffff02191690556102638161026660201b60201c565b50565b5f5f5f9054906101000a900473ffffffffffffffffffffffffffffffffffffffff169050815f5f6101000a81548173ffffffffffffffffffffffffffffffffffffffff021916908373ffffffffffffffffffffffffffffffffffffffff1602179055508173ffffffffffffffffffffffffffffffffffffffff168173ffffffffffffffffffffffffffffffffffffffff167f8be0079c531659141344cd1fd0a4f28419497f9722a3daafe3b4186f6b6457e060405160405180910390a35050565b5f5ffd5b5f73ffffffffffffffffffffffffffffffffffffffff82169050919050565b5f6103548261032b565b9050919050565b6103648161034a565b811461036e575f5ffd5b50565b5f8151905061037f8161035b565b92915050565b5f5f5f6060848603121561039c5761039b610327565b5b5f6103a986828701610371565b93505060206103ba86828701610371565b92505060406103cb86828701610371565b9150509250925092565b6103de8161034a565b82525050565b5f6020820190506103f75f8301846103d5565b92915050565b5f82825260208201905092915050565b7f496e76616c69642072657761726420746f6b656e0000000000000000000000005f82015250565b5f6104416014836103fd565b915061044c8261040d565b602082019050919050565b5f6020820190508181035f83015261046e81610435565b9050919050565b7f496e76616c69642066656520636f6c6c6563746f7200000000000000000000005f82015250565b5f6104a96015836103fd565b91506104b482610475565b602082019050919050565b5f6020820190508181035f8301526104d68161049d565b9050919050565b6080516132c361050a5f395f8181610ba401528181610d5701528181611b1b0152611ca201526132c35ff3fe608060405234801561000f575f5ffd5b50600436106101c2575f3560e01c8063842e2981116100f7578063db94ebc911610095578063e30c39781161006f578063e30c397814610458578063e6a69ab814610476578063f2fde38b14610494578063f7c618c1146104b0576101c2565b8063db94ebc914610400578063dd69becd1461041e578063e1a452181461043a576101c2565b8063985145b5116100d1578063985145b51461038a578063c415b95c146103a8578063d55be8c6146103c6578063d7fa023d146103e4576101c2565b8063842e2981146103205780638da5cb5b14610350578063973e46b11461036e576101c2565b80635a4d848911610164578063715018a61161013e578063715018a6146102c057806379ba5097146102ca5780637f6a9184146102d45780637fc7984d146102f0576101c2565b80635a4d8489146102565780635c975abb146102725780636c435e3614610290576101c2565b80632ba662d6116101a05780632ba662d61461021a5780632e185ec7146102385780634a4e3bd51461024257806351858e271461024c576101c2565b80631bd9b708146101c6578063217a51ee146101e257806325d5971f146101fe575b5f5ffd5b6101e060048036038101906101db9190612435565b6104ce565b005b6101fc60048036038101906101f791906124ce565b610716565b005b6102186004803603810190610213919061250c565b6107dd565b005b610222610c4b565b60405161022f9190612546565b60405180910390f35b610240610c51565b005b61024a610df8565b005b610254610e0a565b005b610270600480360381019061026b919061250c565b610e1c565b005b61027a61103f565b604051610287919061256e565b60405180910390f35b6102aa60048036038101906102a5919061250c565b611054565b6040516102b7919061261a565b60405180910390f35b6102c8611163565b005b6102d2611176565b005b6102ee60048036038101906102e99190612633565b611204565b005b61030a60048036038101906103059190612671565b611396565b6040516103179190612546565b60405180910390f35b61033a600480360381019061033591906126af565b6113a9565b60405161034791906127e8565b60405180910390f35b610358611483565b6040516103659190612817565b60405180910390f35b61038860048036038101906103839190612830565b6114aa565b005b6103926115e9565b60405161039f9190612546565b60405180910390f35b6103b06115f5565b6040516103bd9190612817565b60405180910390f35b6103ce61161a565b6040516103db9190612546565b60405180910390f35b6103fe60048036038101906103f99190612633565b611620565b005b6104086118f7565b6040516104159190612546565b60405180910390f35b6104386004803603810190610433919061250c565b6118fd565b005b610442611bbe565b60405161044f9190612546565b60405180910390f35b610460611bc4565b60405161046d9190612817565b60405180910390f35b61047e611bec565b60405161048b9190612546565b60405180910390f35b6104ae60048036038101906104a991906126af565b611bf4565b005b6104b8611ca0565b6040516104c591906128c9565b60405180910390f35b6104d6611cc4565b5f73ffffffffffffffffffffffffffffffffffffffff168473ffffffffffffffffffffffffffffffffffffffff1603610544576040517f08c379a000000000000000000000000000000000000000000000000000000000815260040161053b9061293c565b60405180910390fd5b5f8311610586576040517f08c379a000000000000000000000000000000000000000000000000000000000815260040161057d906129a4565b60405180910390fd5b5f8211801561059757506127108211155b6105d6576040517f08c379a00000000000000000000000000000000000000000000000000000000081526004016105cd90612a0c565b60405180910390fd5b60046040518060a001604052808673ffffffffffffffffffffffffffffffffffffffff16815260200185815260200184815260200183815260200160011515815250908060018154018082558091505060019003905f5260205f2090600502015f909190919091505f820151815f015f6101000a81548173ffffffffffffffffffffffffffffffffffffffff021916908373ffffffffffffffffffffffffffffffffffffffff1602179055506020820151816001015560408201518160020155606082015181600301556080820151816004015f6101000a81548160ff021916908315150217905550505060016004805490506106d39190612a57565b7f05752c03e5c1d84a4868e347be593e78a3f0f449821ff8e628806e528a877618858585856040516107089493929190612a8a565b60405180910390a250505050565b61071e611cc4565b816004805490508110610766576040517f08c379a000000000000000000000000000000000000000000000000000000000815260040161075d90612b17565b60405180910390fd5b816004848154811061077b5761077a612b35565b5b905f5260205f2090600502016004015f6101000a81548160ff021916908315150217905550827f27ffac29f91e32ed296e1ae41a59f23ebefbcac53eb28251a6fd6a5be271970a836040516107d0919061256e565b60405180910390a2505050565b6107e5611d4b565b338160085f8373ffffffffffffffffffffffffffffffffffffffff1673ffffffffffffffffffffffffffffffffffffffff1681526020019081526020015f20805490508110610869576040517f08c379a000000000000000000000000000000000000000000000000000000000815260040161086090612bac565b60405180910390fd5b5f60085f8473ffffffffffffffffffffffffffffffffffffffff1673ffffffffffffffffffffffffffffffffffffffff1681526020019081526020015f2082815481106108b9576108b8612b35565b5b905f5260205f2090600502016001015411610909576040517f08c379a000000000000000000000000000000000000000000000000000000000815260040161090090612c14565b60405180910390fd5b5f60085f3373ffffffffffffffffffffffffffffffffffffffff1673ffffffffffffffffffffffffffffffffffffffff1681526020019081526020015f20848154811061095957610958612b35565b5b905f5260205f2090600502016040518060a00160405290815f8201548152602001600182015481526020016002820154815260200160038201548152602001600482015f9054906101000a900460ff16151515158152505090505f6004825f0151815481106109cb576109ca612b35565b5b905f5260205f2090600502016040518060a00160405290815f82015f9054906101000a900473ffffffffffffffffffffffffffffffffffffffff1673ffffffffffffffffffffffffffffffffffffffff1673ffffffffffffffffffffffffffffffffffffffff168152602001600182015481526020016002820154815260200160038201548152602001600482015f9054906101000a900460ff161515151581525050905080602001518260400151610a849190612c32565b421015610ac6576040517f08c379a0000000000000000000000000000000000000000000000000000000008152600401610abd90612caf565b60405180910390fd5b5f610ad13387611d98565b90505f8360200151905060085f3373ffffffffffffffffffffffffffffffffffffffff1673ffffffffffffffffffffffffffffffffffffffff1681526020019081526020015f208781548110610b2a57610b29612b35565b5b905f5260205f2090600502015f5f82015f9055600182015f9055600282015f9055600382015f9055600482015f6101000a81549060ff02191690555050610b953382855f015173ffffffffffffffffffffffffffffffffffffffff16611f6e9092919063ffffffff16565b5f821115610be957610be833837f000000000000000000000000000000000000000000000000000000000000000073ffffffffffffffffffffffffffffffffffffffff16611f6e9092919063ffffffff16565b5b863373ffffffffffffffffffffffffffffffffffffffff167f88d1c46373223a4f1f60db2badc985b05ec9c2b2eab4537f0f8e1291b78b6e378385604051610c32929190612ccd565b60405180910390a3505050505050610c48611fed565b50565b60065481565b60055f9054906101000a900473ffffffffffffffffffffffffffffffffffffffff1673ffffffffffffffffffffffffffffffffffffffff163373ffffffffffffffffffffffffffffffffffffffff1614610ce0576040517f08c379a0000000000000000000000000000000000000000000000000000000008152600401610cd790612d3e565b60405180910390fd5b5f60075490505f8111610d28576040517f08c379a0000000000000000000000000000000000000000000000000000000008152600401610d1f90612da6565b60405180910390fd5b5f600781905550610d9b60055f9054906101000a900473ffffffffffffffffffffffffffffffffffffffff16827f000000000000000000000000000000000000000000000000000000000000000073ffffffffffffffffffffffffffffffffffffffff16611f6e9092919063ffffffff16565b7fc0819c13be868895eb93e40eaceb96de976442fa1d404e5c55f14bb65a8c489a60055f9054906101000a900473ffffffffffffffffffffffffffffffffffffffff1682604051610ded929190612dc4565b60405180910390a150565b610e00611cc4565b610e08611ff7565b565b610e12611cc4565b610e1a612058565b565b610e24611d4b565b338160085f8373ffffffffffffffffffffffffffffffffffffffff1673ffffffffffffffffffffffffffffffffffffffff1681526020019081526020015f20805490508110610ea8576040517f08c379a0000000000000000000000000000000000000000000000000000000008152600401610e9f90612bac565b60405180910390fd5b5f60085f8473ffffffffffffffffffffffffffffffffffffffff1673ffffffffffffffffffffffffffffffffffffffff1681526020019081526020015f208281548110610ef857610ef7612b35565b5b905f5260205f2090600502016001015411610f48576040517f08c379a0000000000000000000000000000000000000000000000000000000008152600401610f3f90612c14565b60405180910390fd5b5f60085f3373ffffffffffffffffffffffffffffffffffffffff1673ffffffffffffffffffffffffffffffffffffffff1681526020019081526020015f208481548110610f9857610f97612b35565b5b905f5260205f2090600502019050806004015f9054906101000a900460ff1615816004015f6101000a81548160ff021916908315150217905550833373ffffffffffffffffffffffffffffffffffffffff167fd9a4263cd64bef5364cf9865147c8561e0c7151a9e1d79d8aa67df565aa96efe836004015f9054906101000a900460ff16604051611029919061256e565b60405180910390a350505061103c611fed565b50565b5f60035f9054906101000a900460ff16905090565b61105c612362565b8160048054905081106110a4576040517f08c379a000000000000000000000000000000000000000000000000000000000815260040161109b90612b17565b60405180910390fd5b600483815481106110b8576110b7612b35565b5b905f5260205f2090600502016040518060a00160405290815f82015f9054906101000a900473ffffffffffffffffffffffffffffffffffffffff1673ffffffffffffffffffffffffffffffffffffffff1673ffffffffffffffffffffffffffffffffffffffff168152602001600182015481526020016002820154815260200160038201548152602001600482015f9054906101000a900460ff161515151581525050915050919050565b61116b611cc4565b6111745f6120ba565b565b5f61117f6120ea565b90508073ffffffffffffffffffffffffffffffffffffffff166111a0611bc4565b73ffffffffffffffffffffffffffffffffffffffff16146111f857806040517f118cdaa70000000000000000000000000000000000000000000000000000000081526004016111ef9190612817565b60405180910390fd5b611201816120ba565b50565b61120c611cc4565b816004805490508110611254576040517f08c379a000000000000000000000000000000000000000000000000000000000815260040161124b90612b17565b60405180910390fd5b5f8211801561126557506127108211155b6112a4576040517f08c379a000000000000000000000000000000000000000000000000000000000815260040161129b90612a0c565b60405180910390fd5b81600484815481106112b9576112b8612b35565b5b905f5260205f20906005020160020181905550827f05752c03e5c1d84a4868e347be593e78a3f0f449821ff8e628806e528a8776186004858154811061130257611301612b35565b5b905f5260205f2090600502015f015f9054906101000a900473ffffffffffffffffffffffffffffffffffffffff166004868154811061134457611343612b35565b5b905f5260205f20906005020160010154856004888154811061136957611368612b35565b5b905f5260205f209060050201600301546040516113899493929190612a8a565b60405180910390a2505050565b5f6113a18383611d98565b905092915050565b606060085f8373ffffffffffffffffffffffffffffffffffffffff1673ffffffffffffffffffffffffffffffffffffffff1681526020019081526020015f20805480602002602001604051908101604052809291908181526020015f905b82821015611478578382905f5260205f2090600502016040518060a00160405290815f8201548152602001600182015481526020016002820154815260200160038201548152602001600482015f9054906101000a900460ff16151515158152505081526020019060010190611407565b505050509050919050565b5f5f5f9054906101000a900473ffffffffffffffffffffffffffffffffffffffff16905090565b6114b2611cc4565b6103e88211156114f7576040517f08c379a00000000000000000000000000000000000000000000000000000000081526004016114ee90612e35565b60405180910390fd5b5f73ffffffffffffffffffffffffffffffffffffffff168173ffffffffffffffffffffffffffffffffffffffff1603611565576040517f08c379a000000000000000000000000000000000000000000000000000000000815260040161155c90612e9d565b60405180910390fd5b816006819055508060055f6101000a81548173ffffffffffffffffffffffffffffffffffffffff021916908373ffffffffffffffffffffffffffffffffffffffff1602179055507f2cf325792651b724d47f21230be0dd9729866cadd370618845e23a48555ef04282826040516115dd929190612ebb565b60405180910390a15050565b5f600480549050905090565b60055f9054906101000a900473ffffffffffffffffffffffffffffffffffffffff1681565b6103e881565b611628611d4b565b6116306120f1565b816004805490508110611678576040517f08c379a000000000000000000000000000000000000000000000000000000000815260040161166f90612b17565b60405180910390fd5b815f81116116bb576040517f08c379a00000000000000000000000000000000000000000000000000000000081526004016116b290612f2c565b60405180910390fd5b5f600485815481106116d0576116cf612b35565b5b905f5260205f2090600502019050806004015f9054906101000a900460ff1661172e576040517f08c379a000000000000000000000000000000000000000000000000000000000815260040161172590612f94565b60405180910390fd5b8060030154841015611775576040517f08c379a000000000000000000000000000000000000000000000000000000000815260040161176c90612ffc565b60405180910390fd5b6117c4333086845f015f9054906101000a900473ffffffffffffffffffffffffffffffffffffffff1673ffffffffffffffffffffffffffffffffffffffff1661213b909392919063ffffffff16565b60085f3373ffffffffffffffffffffffffffffffffffffffff1673ffffffffffffffffffffffffffffffffffffffff1681526020019081526020015f206040518060a001604052808781526020018681526020014281526020014281526020015f1515815250908060018154018082558091505060019003905f5260205f2090600502015f909190919091505f820151815f01556020820151816001015560408201518160020155606082015181600301556080820151816004015f6101000a81548160ff0219169083151502179055505050843373ffffffffffffffffffffffffffffffffffffffff167f20400db7cf9bdfcb8b13ccfb8a7b4bb447c3244efdbc2336e6f6e1673d7bd84586426040516118e0929190612ccd565b60405180910390a35050506118f3611fed565b5050565b60075481565b611905611d4b565b338160085f8373ffffffffffffffffffffffffffffffffffffffff1673ffffffffffffffffffffffffffffffffffffffff1681526020019081526020015f20805490508110611989576040517f08c379a000000000000000000000000000000000000000000000000000000000815260040161198090612bac565b60405180910390fd5b5f60085f8473ffffffffffffffffffffffffffffffffffffffff1673ffffffffffffffffffffffffffffffffffffffff1681526020019081526020015f2082815481106119d9576119d8612b35565b5b905f5260205f2090600502016001015411611a29576040517f08c379a0000000000000000000000000000000000000000000000000000000008152600401611a2090612c14565b60405180910390fd5b5f60085f3373ffffffffffffffffffffffffffffffffffffffff1673ffffffffffffffffffffffffffffffffffffffff1681526020019081526020015f208481548110611a7957611a78612b35565b5b905f5260205f20906005020190505f611a923386611d98565b90505f8111611ad6576040517f08c379a0000000000000000000000000000000000000000000000000000000008152600401611acd90613064565b60405180910390fd5b428260030181905550816004015f9054906101000a900460ff1615611b145780826001015f828254611b089190612c32565b92505081905550611b60565b611b5f33827f000000000000000000000000000000000000000000000000000000000000000073ffffffffffffffffffffffffffffffffffffffff16611f6e9092919063ffffffff16565b5b843373ffffffffffffffffffffffffffffffffffffffff167ff01da32686223933d8a18a391060918c7f11a3648639edd87ae013e2e273174383604051611ba79190612546565b60405180910390a350505050611bbb611fed565b50565b61271081565b5f60015f9054906101000a900473ffffffffffffffffffffffffffffffffffffffff16905090565b6301e1338081565b611bfc611cc4565b8060015f6101000a81548173ffffffffffffffffffffffffffffffffffffffff021916908373ffffffffffffffffffffffffffffffffffffffff1602179055508073ffffffffffffffffffffffffffffffffffffffff16611c5b611483565b73ffffffffffffffffffffffffffffffffffffffff167f38d16b8cac22d99fc7c124b9cd0de2d3fa1faef420bfe791d8c362d765e2270060405160405180910390a350565b7f000000000000000000000000000000000000000000000000000000000000000081565b611ccc6120ea565b73ffffffffffffffffffffffffffffffffffffffff16611cea611483565b73ffffffffffffffffffffffffffffffffffffffff1614611d4957611d0d6120ea565b6040517f118cdaa7000000000000000000000000000000000000000000000000000000008152600401611d409190612817565b60405180910390fd5b565b6002805403611d8f576040517f08c379a0000000000000000000000000000000000000000000000000000000008152600401611d86906130cc565b60405180910390fd5b60028081905550565b5f5f60085f8573ffffffffffffffffffffffffffffffffffffffff1673ffffffffffffffffffffffffffffffffffffffff1681526020019081526020015f208381548110611de957611de8612b35565b5b905f5260205f2090600502016040518060a00160405290815f8201548152602001600182015481526020016002820154815260200160038201548152602001600482015f9054906101000a900460ff16151515158152505090505f816020015103611e57575f915050611f68565b5f6004825f015181548110611e6f57611e6e612b35565b5b905f5260205f2090600502016040518060a00160405290815f82015f9054906101000a900473ffffffffffffffffffffffffffffffffffffffff1673ffffffffffffffffffffffffffffffffffffffff1673ffffffffffffffffffffffffffffffffffffffff168152602001600182015481526020016002820154815260200160038201548152602001600482015f9054906101000a900460ff16151515158152505090505f826060015142611f259190612a57565b90506127106301e13380611f3991906130ea565b8183604001518560200151611f4e91906130ea565b611f5891906130ea565b611f629190613158565b93505050505b92915050565b611fe8838473ffffffffffffffffffffffffffffffffffffffff1663a9059cbb8585604051602401611fa1929190612dc4565b604051602081830303815290604052915060e01b6020820180517bffffffffffffffffffffffffffffffffffffffffffffffffffffffff83818316178352505050506121bd565b505050565b6001600281905550565b611fff612258565b5f60035f6101000a81548160ff0219169083151502179055507f5db9ee0a495bf2e6ff9c91a7834c1ba4fdd244a5e8aa4e537bd38aeae4b073aa6120416120ea565b60405161204e9190612817565b60405180910390a1565b6120606120f1565b600160035f6101000a81548160ff0219169083151502179055507f62e78cea01bee320cd4e420270b5ea74000d11b0c9f74754ebdbfc544b05a2586120a36120ea565b6040516120b09190612817565b60405180910390a1565b60015f6101000a81549073ffffffffffffffffffffffffffffffffffffffff02191690556120e7816122a1565b50565b5f33905090565b6120f961103f565b15612139576040517f08c379a0000000000000000000000000000000000000000000000000000000008152600401612130906131d2565b60405180910390fd5b565b6121b7848573ffffffffffffffffffffffffffffffffffffffff166323b872dd868686604051602401612170939291906131f0565b604051602081830303815290604052915060e01b6020820180517bffffffffffffffffffffffffffffffffffffffffffffffffffffffff83818316178352505050506121bd565b50505050565b5f5f60205f8451602086015f885af1806121dc576040513d5f823e3d81fd5b3d92505f519150505f82146121f5576001811415612210565b5f8473ffffffffffffffffffffffffffffffffffffffff163b145b1561225257836040517f5274afe70000000000000000000000000000000000000000000000000000000081526004016122499190612817565b60405180910390fd5b50505050565b61226061103f565b61229f576040517f08c379a00000000000000000000000000000000000000000000000000000000081526004016122969061326f565b60405180910390fd5b565b5f5f5f9054906101000a900473ffffffffffffffffffffffffffffffffffffffff169050815f5f6101000a81548173ffffffffffffffffffffffffffffffffffffffff021916908373ffffffffffffffffffffffffffffffffffffffff1602179055508173ffffffffffffffffffffffffffffffffffffffff168173ffffffffffffffffffffffffffffffffffffffff167f8be0079c531659141344cd1fd0a4f28419497f9722a3daafe3b4186f6b6457e060405160405180910390a35050565b6040518060a001604052805f73ffffffffffffffffffffffffffffffffffffffff1681526020015f81526020015f81526020015f81526020015f151581525090565b5f5ffd5b5f73ffffffffffffffffffffffffffffffffffffffff82169050919050565b5f6123d1826123a8565b9050919050565b6123e1816123c7565b81146123eb575f5ffd5b50565b5f813590506123fc816123d8565b92915050565b5f819050919050565b61241481612402565b811461241e575f5ffd5b50565b5f8135905061242f8161240b565b92915050565b5f5f5f5f6080858703121561244d5761244c6123a4565b5b5f61245a878288016123ee565b945050602061246b87828801612421565b935050604061247c87828801612421565b925050606061248d87828801612421565b91505092959194509250565b5f8115159050919050565b6124ad81612499565b81146124b7575f5ffd5b50565b5f813590506124c8816124a4565b92915050565b5f5f604083850312156124e4576124e36123a4565b5b5f6124f185828601612421565b9250506020612502858286016124ba565b9150509250929050565b5f60208284031215612521576125206123a4565b5b5f61252e84828501612421565b91505092915050565b61254081612402565b82525050565b5f6020820190506125595f830184612537565b92915050565b61256881612499565b82525050565b5f6020820190506125815f83018461255f565b92915050565b612590816123c7565b82525050565b61259f81612402565b82525050565b6125ae81612499565b82525050565b60a082015f8201516125c85f850182612587565b5060208201516125db6020850182612596565b5060408201516125ee6040850182612596565b5060608201516126016060850182612596565b50608082015161261460808501826125a5565b50505050565b5f60a08201905061262d5f8301846125b4565b92915050565b5f5f60408385031215612649576126486123a4565b5b5f61265685828601612421565b925050602061266785828601612421565b9150509250929050565b5f5f60408385031215612687576126866123a4565b5b5f612694858286016123ee565b92505060206126a585828601612421565b9150509250929050565b5f602082840312156126c4576126c36123a4565b5b5f6126d1848285016123ee565b91505092915050565b5f81519050919050565b5f82825260208201905092915050565b5f819050602082019050919050565b60a082015f8201516127175f850182612596565b50602082015161272a6020850182612596565b50604082015161273d6040850182612596565b5060608201516127506060850182612596565b50608082015161276360808501826125a5565b50505050565b5f6127748383612703565b60a08301905092915050565b5f602082019050919050565b5f612796826126da565b6127a081856126e4565b93506127ab836126f4565b805f5b838110156127db5781516127c28882612769565b97506127cd83612780565b9250506001810190506127ae565b5085935050505092915050565b5f6020820190508181035f830152612800818461278c565b905092915050565b612811816123c7565b82525050565b5f60208201905061282a5f830184612808565b92915050565b5f5f60408385031215612846576128456123a4565b5b5f61285385828601612421565b9250506020612864858286016123ee565b9150509250929050565b5f819050919050565b5f61289161288c612887846123a8565b61286e565b6123a8565b9050919050565b5f6128a282612877565b9050919050565b5f6128b382612898565b9050919050565b6128c3816128a9565b82525050565b5f6020820190506128dc5f8301846128ba565b92915050565b5f82825260208201905092915050565b7f496e76616c6964207374616b6520746f6b656e000000000000000000000000005f82015250565b5f6129266013836128e2565b9150612931826128f2565b602082019050919050565b5f6020820190508181035f8301526129538161291a565b9050919050565b7f496e76616c6964206475726174696f6e000000000000000000000000000000005f82015250565b5f61298e6010836128e2565b91506129998261295a565b602082019050919050565b5f6020820190508181035f8301526129bb81612982565b9050919050565b7f496e76616c6964204150590000000000000000000000000000000000000000005f82015250565b5f6129f6600b836128e2565b9150612a01826129c2565b602082019050919050565b5f6020820190508181035f830152612a23816129ea565b9050919050565b7f4e487b71000000000000000000000000000000000000000000000000000000005f52601160045260245ffd5b5f612a6182612402565b9150612a6c83612402565b9250828203905081811115612a8457612a83612a2a565b5b92915050565b5f608082019050612a9d5f830187612808565b612aaa6020830186612537565b612ab76040830185612537565b612ac46060830184612537565b95945050505050565b7f496e76616c6964207061636b61676520494400000000000000000000000000005f82015250565b5f612b016012836128e2565b9150612b0c82612acd565b602082019050919050565b5f6020820190508181035f830152612b2e81612af5565b9050919050565b7f4e487b71000000000000000000000000000000000000000000000000000000005f52603260045260245ffd5b7f496e76616c6964207374616b65204944000000000000000000000000000000005f82015250565b5f612b966010836128e2565b9150612ba182612b62565b602082019050919050565b5f6020820190508181035f830152612bc381612b8a565b9050919050565b7f496e616374697665207374616b650000000000000000000000000000000000005f82015250565b5f612bfe600e836128e2565b9150612c0982612bca565b602082019050919050565b5f6020820190508181035f830152612c2b81612bf2565b9050919050565b5f612c3c82612402565b9150612c4783612402565b9250828201905080821115612c5f57612c5e612a2a565b5b92915050565b7f5374616b65207374696c6c206c6f636b656400000000000000000000000000005f82015250565b5f612c996012836128e2565b9150612ca482612c65565b602082019050919050565b5f6020820190508181035f830152612cc681612c8d565b9050919050565b5f604082019050612ce05f830185612537565b612ced6020830184612537565b9392505050565b7f4e6f7420617574686f72697a65640000000000000000000000000000000000005f82015250565b5f612d28600e836128e2565b9150612d3382612cf4565b602082019050919050565b5f6020820190508181035f830152612d5581612d1c565b9050919050565b7f4e6f206665657320617661696c61626c650000000000000000000000000000005f82015250565b5f612d906011836128e2565b9150612d9b82612d5c565b602082019050919050565b5f6020820190508181035f830152612dbd81612d84565b9050919050565b5f604082019050612dd75f830185612808565b612de46020830184612537565b9392505050565b7f46656520746f6f206869676800000000000000000000000000000000000000005f82015250565b5f612e1f600c836128e2565b9150612e2a82612deb565b602082019050919050565b5f6020820190508181035f830152612e4c81612e13565b9050919050565b7f496e76616c696420636f6c6c6563746f720000000000000000000000000000005f82015250565b5f612e876011836128e2565b9150612e9282612e53565b602082019050919050565b5f6020820190508181035f830152612eb481612e7b565b9050919050565b5f604082019050612ece5f830185612537565b612edb6020830184612808565b9392505050565b7f416d6f756e74206d75737420626520706f7369746976650000000000000000005f82015250565b5f612f166017836128e2565b9150612f2182612ee2565b602082019050919050565b5f6020820190508181035f830152612f4381612f0a565b9050919050565b7f5061636b61676520696e616374697665000000000000000000000000000000005f82015250565b5f612f7e6010836128e2565b9150612f8982612f4a565b602082019050919050565b5f6020820190508181035f830152612fab81612f72565b9050919050565b7f496e73756666696369656e74207374616b6520616d6f756e74000000000000005f82015250565b5f612fe66019836128e2565b9150612ff182612fb2565b602082019050919050565b5f6020820190508181035f83015261301381612fda565b9050919050565b7f4e6f207265776172647320617661696c61626c650000000000000000000000005f82015250565b5f61304e6014836128e2565b91506130598261301a565b602082019050919050565b5f6020820190508181035f83015261307b81613042565b9050919050565b7f5265656e7472616e637947756172643a207265656e7472616e742063616c6c005f82015250565b5f6130b6601f836128e2565b91506130c182613082565b602082019050919050565b5f6020820190508181035f8301526130e3816130aa565b9050919050565b5f6130f482612402565b91506130ff83612402565b925082820261310d81612402565b9150828204841483151761312457613123612a2a565b5b5092915050565b7f4e487b71000000000000000000000000000000000000000000000000000000005f52601260045260245ffd5b5f61316282612402565b915061316d83612402565b92508261317d5761317c61312b565b5b828204905092915050565b7f5061757361626c653a20706175736564000000000000000000000000000000005f82015250565b5f6131bc6010836128e2565b91506131c782613188565b602082019050919050565b5f6020820190508181035f8301526131e9816131b0565b9050919050565b5f6060820190506132035f830186612808565b6132106020830185612808565b61321d6040830184612537565b949350505050565b7f5061757361626c653a206e6f74207061757365640000000000000000000000005f82015250565b5f6132596014836128e2565b915061326482613225565b602082019050919050565b5f6020820190508181035f8301526132868161324d565b905091905056fea2646970667358221220d9a8cf148e9c28ec1d3155c5f23e6498ee62ea58115147817a28b70fbdd9f65064736f6c634300081e0033",
					"opcodes": "PUSH1 0xA0 PUSH1 0x40 MSTORE PUSH1 0x32 PUSH1 0x6 SSTORE CALLVALUE DUP1 ISZERO PUSH2 0x14 JUMPI PUSH0 PUSH0 REVERT JUMPDEST POP PUSH1 0x40 MLOAD PUSH2 0x37CD CODESIZE SUB DUP1 PUSH2 0x37CD DUP4 CODECOPY DUP2 DUP2 ADD PUSH1 0x40 MSTORE DUP2 ADD SWAP1 PUSH2 0x36 SWAP2 SWAP1 PUSH2 0x385 JUMP JUMPDEST DUP1 PUSH0 PUSH20 0xFFFFFFFFFFFFFFFFFFFFFFFFFFFFFFFFFFFFFFFF AND DUP2 PUSH20 0xFFFFFFFFFFFFFFFFFFFFFFFFFFFFFFFFFFFFFFFF AND SUB PUSH2 0xA7 JUMPI PUSH0 PUSH1 0x40 MLOAD PUSH32 0x1E4FBDF700000000000000000000000000000000000000000000000000000000 DUP2 MSTORE PUSH1 0x4 ADD PUSH2 0x9E SWAP2 SWAP1 PUSH2 0x3E4 JUMP JUMPDEST PUSH1 0x40 MLOAD DUP1 SWAP2 SUB SWAP1 REVERT JUMPDEST PUSH2 0xB6 DUP2 PUSH2 0x230 PUSH1 0x20 SHL PUSH1 0x20 SHR JUMP JUMPDEST POP PUSH1 0x1 PUSH1 0x2 DUP2 SWAP1 SSTORE POP PUSH0 PUSH1 0x3 PUSH0 PUSH2 0x100 EXP DUP2 SLOAD DUP2 PUSH1 0xFF MUL NOT AND SWAP1 DUP4 ISZERO ISZERO MUL OR SWAP1 SSTORE POP PUSH0 PUSH20 0xFFFFFFFFFFFFFFFFFFFFFFFFFFFFFFFFFFFFFFFF AND DUP4 PUSH20 0xFFFFFFFFFFFFFFFFFFFFFFFFFFFFFFFFFFFFFFFF AND SUB PUSH2 0x146 JUMPI PUSH1 0x40 MLOAD PUSH32 0x8C379A000000000000000000000000000000000000000000000000000000000 DUP2 MSTORE PUSH1 0x4 ADD PUSH2 0x13D SWAP1 PUSH2 0x457 JUMP JUMPDEST PUSH1 0x40 MLOAD DUP1 SWAP2 SUB SWAP1 REVERT JUMPDEST PUSH0 PUSH20 0xFFFFFFFFFFFFFFFFFFFFFFFFFFFFFFFFFFFFFFFF AND DUP3 PUSH20 0xFFFFFFFFFFFFFFFFFFFFFFFFFFFFFFFFFFFFFFFF AND SUB PUSH2 0x1B4 JUMPI PUSH1 0x40 MLOAD PUSH32 0x8C379A000000000000000000000000000000000000000000000000000000000 DUP2 MSTORE PUSH1 0x4 ADD PUSH2 0x1AB SWAP1 PUSH2 0x4BF JUMP JUMPDEST PUSH1 0x40 MLOAD DUP1 SWAP2 SUB SWAP1 REVERT JUMPDEST DUP3 PUSH20 0xFFFFFFFFFFFFFFFFFFFFFFFFFFFFFFFFFFFFFFFF AND PUSH1 0x80 DUP2 PUSH20 0xFFFFFFFFFFFFFFFFFFFFFFFFFFFFFFFFFFFFFFFF AND DUP2 MSTORE POP POP DUP2 PUSH1 0x5 PUSH0 PUSH2 0x100 EXP DUP2 SLOAD DUP2 PUSH20 0xFFFFFFFFFFFFFFFFFFFFFFFFFFFFFFFFFFFFFFFF MUL NOT AND SWAP1 DUP4 PUSH20 0xFFFFFFFFFFFFFFFFFFFFFFFFFFFFFFFFFFFFFFFF AND MUL OR SWAP1 SSTORE POP POP POP POP PUSH2 0x4DD JUMP JUMPDEST PUSH1 0x1 PUSH0 PUSH2 0x100 EXP DUP2 SLOAD SWAP1 PUSH20 0xFFFFFFFFFFFFFFFFFFFFFFFFFFFFFFFFFFFFFFFF MUL NOT AND SWAP1 SSTORE PUSH2 0x263 DUP2 PUSH2 0x266 PUSH1 0x20 SHL PUSH1 0x20 SHR JUMP JUMPDEST POP JUMP JUMPDEST PUSH0 PUSH0 PUSH0 SWAP1 SLOAD SWAP1 PUSH2 0x100 EXP SWAP1 DIV PUSH20 0xFFFFFFFFFFFFFFFFFFFFFFFFFFFFFFFFFFFFFFFF AND SWAP1 POP DUP2 PUSH0 PUSH0 PUSH2 0x100 EXP DUP2 SLOAD DUP2 PUSH20 0xFFFFFFFFFFFFFFFFFFFFFFFFFFFFFFFFFFFFFFFF MUL NOT AND SWAP1 DUP4 PUSH20 0xFFFFFFFFFFFFFFFFFFFFFFFFFFFFFFFFFFFFFFFF AND MUL OR SWAP1 SSTORE POP DUP2 PUSH20 0xFFFFFFFFFFFFFFFFFFFFFFFFFFFFFFFFFFFFFFFF AND DUP2 PUSH20 0xFFFFFFFFFFFFFFFFFFFFFFFFFFFFFFFFFFFFFFFF AND PUSH32 0x8BE0079C531659141344CD1FD0A4F28419497F9722A3DAAFE3B4186F6B6457E0 PUSH1 0x40 MLOAD PUSH1 0x40 MLOAD DUP1 SWAP2 SUB SWAP1 LOG3 POP POP JUMP JUMPDEST PUSH0 PUSH0 REVERT JUMPDEST PUSH0 PUSH20 0xFFFFFFFFFFFFFFFFFFFFFFFFFFFFFFFFFFFFFFFF DUP3 AND SWAP1 POP SWAP2 SWAP1 POP JUMP JUMPDEST PUSH0 PUSH2 0x354 DUP3 PUSH2 0x32B JUMP JUMPDEST SWAP1 POP SWAP2 SWAP1 POP JUMP JUMPDEST PUSH2 0x364 DUP2 PUSH2 0x34A JUMP JUMPDEST DUP2 EQ PUSH2 0x36E JUMPI PUSH0 PUSH0 REVERT JUMPDEST POP JUMP JUMPDEST PUSH0 DUP2 MLOAD SWAP1 POP PUSH2 0x37F DUP2 PUSH2 0x35B JUMP JUMPDEST SWAP3 SWAP2 POP POP JUMP JUMPDEST PUSH0 PUSH0 PUSH0 PUSH1 0x60 DUP5 DUP7 SUB SLT ISZERO PUSH2 0x39C JUMPI PUSH2 0x39B PUSH2 0x327 JUMP JUMPDEST JUMPDEST PUSH0 PUSH2 0x3A9 DUP7 DUP3 DUP8 ADD PUSH2 0x371 JUMP JUMPDEST SWAP4 POP POP PUSH1 0x20 PUSH2 0x3BA DUP7 DUP3 DUP8 ADD PUSH2 0x371 JUMP JUMPDEST SWAP3 POP POP PUSH1 0x40 PUSH2 0x3CB DUP7 DUP3 DUP8 ADD PUSH2 0x371 JUMP JUMPDEST SWAP2 POP POP SWAP3 POP SWAP3 POP SWAP3 JUMP JUMPDEST PUSH2 0x3DE DUP2 PUSH2 0x34A JUMP JUMPDEST DUP3 MSTORE POP POP JUMP JUMPDEST PUSH0 PUSH1 0x20 DUP3 ADD SWAP1 POP PUSH2 0x3F7 PUSH0 DUP4 ADD DUP5 PUSH2 0x3D5 JUMP JUMPDEST SWAP3 SWAP2 POP POP JUMP JUMPDEST PUSH0 DUP3 DUP3 MSTORE PUSH1 0x20 DUP3 ADD SWAP1 POP SWAP3 SWAP2 POP POP JUMP JUMPDEST PUSH32 0x496E76616C69642072657761726420746F6B656E000000000000000000000000 PUSH0 DUP3 ADD MSTORE POP JUMP JUMPDEST PUSH0 PUSH2 0x441 PUSH1 0x14 DUP4 PUSH2 0x3FD JUMP JUMPDEST SWAP2 POP PUSH2 0x44C DUP3 PUSH2 0x40D JUMP JUMPDEST PUSH1 0x20 DUP3 ADD SWAP1 POP SWAP2 SWAP1 POP JUMP JUMPDEST PUSH0 PUSH1 0x20 DUP3 ADD SWAP1 POP DUP2 DUP2 SUB PUSH0 DUP4 ADD MSTORE PUSH2 0x46E DUP2 PUSH2 0x435 JUMP JUMPDEST SWAP1 POP SWAP2 SWAP1 POP JUMP JUMPDEST PUSH32 0x496E76616C69642066656520636F6C6C6563746F720000000000000000000000 PUSH0 DUP3 ADD MSTORE POP JUMP JUMPDEST PUSH0 PUSH2 0x4A9 PUSH1 0x15 DUP4 PUSH2 0x3FD JUMP JUMPDEST SWAP2 POP PUSH2 0x4B4 DUP3 PUSH2 0x475 JUMP JUMPDEST PUSH1 0x20 DUP3 ADD SWAP1 POP SWAP2 SWAP1 POP JUMP JUMPDEST PUSH0 PUSH1 0x20 DUP3 ADD SWAP1 POP DUP2 DUP2 SUB PUSH0 DUP4 ADD MSTORE PUSH2 0x4D6 DUP2 PUSH2 0x49D JUMP JUMPDEST SWAP1 POP SWAP2 SWAP1 POP JUMP JUMPDEST PUSH1 0x80 MLOAD PUSH2 0x32C3 PUSH2 0x50A PUSH0 CODECOPY PUSH0 DUP2 DUP2 PUSH2 0xBA4 ADD MSTORE DUP2 DUP2 PUSH2 0xD57 ADD MSTORE DUP2 DUP2 PUSH2 0x1B1B ADD MSTORE PUSH2 0x1CA2 ADD MSTORE PUSH2 0x32C3 PUSH0 RETURN INVALID PUSH1 0x80 PUSH1 0x40 MSTORE CALLVALUE DUP1 ISZERO PUSH2 0xF JUMPI PUSH0 PUSH0 REVERT JUMPDEST POP PUSH1 0x4 CALLDATASIZE LT PUSH2 0x1C2 JUMPI PUSH0 CALLDATALOAD PUSH1 0xE0 SHR DUP1 PUSH4 0x842E2981 GT PUSH2 0xF7 JUMPI DUP1 PUSH4 0xDB94EBC9 GT PUSH2 0x95 JUMPI DUP1 PUSH4 0xE30C3978 GT PUSH2 0x6F JUMPI DUP1 PUSH4 0xE30C3978 EQ PUSH2 0x458 JUMPI DUP1 PUSH4 0xE6A69AB8 EQ PUSH2 0x476 JUMPI DUP1 PUSH4 0xF2FDE38B EQ PUSH2 0x494 JUMPI DUP1 PUSH4 0xF7C618C1 EQ PUSH2 0x4B0 JUMPI PUSH2 0x1C2 JUMP JUMPDEST DUP1 PUSH4 0xDB94EBC9 EQ PUSH2 0x400 JUMPI DUP1 PUSH4 0xDD69BECD EQ PUSH2 0x41E JUMPI DUP1 PUSH4 0xE1A45218 EQ PUSH2 0x43A JUMPI PUSH2 0x1C2 JUMP JUMPDEST DUP1 PUSH4 0x985145B5 GT PUSH2 0xD1 JUMPI DUP1 PUSH4 0x985145B5 EQ PUSH2 0x38A JUMPI DUP1 PUSH4 0xC415B95C EQ PUSH2 0x3A8 JUMPI DUP1 PUSH4 0xD55BE8C6 EQ PUSH2 0x3C6 JUMPI DUP1 PUSH4 0xD7FA023D EQ PUSH2 0x3E4 JUMPI PUSH2 0x1C2 JUMP JUMPDEST DUP1 PUSH4 0x842E2981 EQ PUSH2 0x320 JUMPI DUP1 PUSH4 0x8DA5CB5B EQ PUSH2 0x350 JUMPI DUP1 PUSH4 0x973E46B1 EQ PUSH2 0x36E JUMPI PUSH2 0x1C2 JUMP JUMPDEST DUP1 PUSH4 0x5A4D8489 GT PUSH2 0x164 JUMPI DUP1 PUSH4 0x715018A6 GT PUSH2 0x13E JUMPI DUP1 PUSH4 0x715018A6 EQ PUSH2 0x2C0 JUMPI DUP1 PUSH4 0x79BA5097 EQ PUSH2 0x2CA JUMPI DUP1 PUSH4 0x7F6A9184 EQ PUSH2 0x2D4 JUMPI DUP1 PUSH4 0x7FC7984D EQ PUSH2 0x2F0 JUMPI PUSH2 0x1C2 JUMP JUMPDEST DUP1 PUSH4 0x5A4D8489 EQ PUSH2 0x256 JUMPI DUP1 PUSH4 0x5C975ABB EQ PUSH2 0x272 JUMPI DUP1 PUSH4 0x6C435E36 EQ PUSH2 0x290 JUMPI PUSH2 0x1C2 JUMP JUMPDEST DUP1 PUSH4 0x2BA662D6 GT PUSH2 0x1A0 JUMPI DUP1 PUSH4 0x2BA662D6 EQ PUSH2 0x21A JUMPI DUP1 PUSH4 0x2E185EC7 EQ PUSH2 0x238 JUMPI DUP1 PUSH4 0x4A4E3BD5 EQ PUSH2 0x242 JUMPI DUP1 PUSH4 0x51858E27 EQ PUSH2 0x24C JUMPI PUSH2 0x1C2 JUMP JUMPDEST DUP1 PUSH4 0x1BD9B708 EQ PUSH2 0x1C6 JUMPI DUP1 PUSH4 0x217A51EE EQ PUSH2 0x1E2 JUMPI DUP1 PUSH4 0x25D5971F EQ PUSH2 0x1FE JUMPI JUMPDEST PUSH0 PUSH0 REVERT JUMPDEST PUSH2 0x1E0 PUSH1 0x4 DUP1 CALLDATASIZE SUB DUP2 ADD SWAP1 PUSH2 0x1DB SWAP2 SWAP1 PUSH2 0x2435 JUMP JUMPDEST PUSH2 0x4CE JUMP JUMPDEST STOP JUMPDEST PUSH2 0x1FC PUSH1 0x4 DUP1 CALLDATASIZE SUB DUP2 ADD SWAP1 PUSH2 0x1F7 SWAP2 SWAP1 PUSH2 0x24CE JUMP JUMPDEST PUSH2 0x716 JUMP JUMPDEST STOP JUMPDEST PUSH2 0x218 PUSH1 0x4 DUP1 CALLDATASIZE SUB DUP2 ADD SWAP1 PUSH2 0x213 SWAP2 SWAP1 PUSH2 0x250C JUMP JUMPDEST PUSH2 0x7DD JUMP JUMPDEST STOP JUMPDEST PUSH2 0x222 PUSH2 0xC4B JUMP JUMPDEST PUSH1 0x40 MLOAD PUSH2 0x22F SWAP2 SWAP1 PUSH2 0x2546 JUMP JUMPDEST PUSH1 0x40 MLOAD DUP1 SWAP2 SUB SWAP1 RETURN JUMPDEST PUSH2 0x240 PUSH2 0xC51 JUMP JUMPDEST STOP JUMPDEST PUSH2 0x24A PUSH2 0xDF8 JUMP JUMPDEST STOP JUMPDEST PUSH2 0x254 PUSH2 0xE0A JUMP JUMPDEST STOP JUMPDEST PUSH2 0x270 PUSH1 0x4 DUP1 CALLDATASIZE SUB DUP2 ADD SWAP1 PUSH2 0x26B SWAP2 SWAP1 PUSH2 0x250C JUMP JUMPDEST PUSH2 0xE1C JUMP JUMPDEST STOP JUMPDEST PUSH2 0x27A PUSH2 0x103F JUMP JUMPDEST PUSH1 0x40 MLOAD PUSH2 0x287 SWAP2 SWAP1 PUSH2 0x256E JUMP JUMPDEST PUSH1 0x40 MLOAD DUP1 SWAP2 SUB SWAP1 RETURN JUMPDEST PUSH2 0x2AA PUSH1 0x4 DUP1 CALLDATASIZE SUB DUP2 ADD SWAP1 PUSH2 0x2A5 SWAP2 SWAP1 PUSH2 0x250C JUMP JUMPDEST PUSH2 0x1054 JUMP JUMPDEST PUSH1 0x40 MLOAD PUSH2 0x2B7 SWAP2 SWAP1 PUSH2 0x261A JUMP JUMPDEST PUSH1 0x40 MLOAD DUP1 SWAP2 SUB SWAP1 RETURN JUMPDEST PUSH2 0x2C8 PUSH2 0x1163 JUMP JUMPDEST STOP JUMPDEST PUSH2 0x2D2 PUSH2 0x1176 JUMP JUMPDEST STOP JUMPDEST PUSH2 0x2EE PUSH1 0x4 DUP1 CALLDATASIZE SUB DUP2 ADD SWAP1 PUSH2 0x2E9 SWAP2 SWAP1 PUSH2 0x2633 JUMP JUMPDEST PUSH2 0x1204 JUMP JUMPDEST STOP JUMPDEST PUSH2 0x30A PUSH1 0x4 DUP1 CALLDATASIZE SUB DUP2 ADD SWAP1 PUSH2 0x305 SWAP2 SWAP1 PUSH2 0x2671 JUMP JUMPDEST PUSH2 0x1396 JUMP JUMPDEST PUSH1 0x40 MLOAD PUSH2 0x317 SWAP2 SWAP1 PUSH2 0x2546 JUMP JUMPDEST PUSH1 0x40 MLOAD DUP1 SWAP2 SUB SWAP1 RETURN JUMPDEST PUSH2 0x33A PUSH1 0x4 DUP1 CALLDATASIZE SUB DUP2 ADD SWAP1 PUSH2 0x335 SWAP2 SWAP1 PUSH2 0x26AF JUMP JUMPDEST PUSH2 0x13A9 JUMP JUMPDEST PUSH1 0x40 MLOAD PUSH2 0x347 SWAP2 SWAP1 PUSH2 0x27E8 JUMP JUMPDEST PUSH1 0x40 MLOAD DUP1 SWAP2 SUB SWAP1 RETURN JUMPDEST PUSH2 0x358 PUSH2 0x1483 JUMP JUMPDEST PUSH1 0x40 MLOAD PUSH2 0x365 SWAP2 SWAP1 PUSH2 0x2817 JUMP JUMPDEST PUSH1 0x40 MLOAD DUP1 SWAP2 SUB SWAP1 RETURN JUMPDEST PUSH2 0x388 PUSH1 0x4 DUP1 CALLDATASIZE SUB DUP2 ADD SWAP1 PUSH2 0x383 SWAP2 SWAP1 PUSH2 0x2830 JUMP JUMPDEST PUSH2 0x14AA JUMP JUMPDEST STOP JUMPDEST PUSH2 0x392 PUSH2 0x15E9 JUMP JUMPDEST PUSH1 0x40 MLOAD PUSH2 0x39F SWAP2 SWAP1 PUSH2 0x2546 JUMP JUMPDEST PUSH1 0x40 MLOAD DUP1 SWAP2 SUB SWAP1 RETURN JUMPDEST PUSH2 0x3B0 PUSH2 0x15F5 JUMP JUMPDEST PUSH1 0x40 MLOAD PUSH2 0x3BD SWAP2 SWAP1 PUSH2 0x2817 JUMP JUMPDEST PUSH1 0x40 MLOAD DUP1 SWAP2 SUB SWAP1 RETURN JUMPDEST PUSH2 0x3CE PUSH2 0x161A JUMP JUMPDEST PUSH1 0x40 MLOAD PUSH2 0x3DB SWAP2 SWAP1 PUSH2 0x2546 JUMP JUMPDEST PUSH1 0x40 MLOAD DUP1 SWAP2 SUB SWAP1 RETURN JUMPDEST PUSH2 0x3FE PUSH1 0x4 DUP1 CALLDATASIZE SUB DUP2 ADD SWAP1 PUSH2 0x3F9 SWAP2 SWAP1 PUSH2 0x2633 JUMP JUMPDEST PUSH2 0x1620 JUMP JUMPDEST STOP JUMPDEST PUSH2 0x408 PUSH2 0x18F7 JUMP JUMPDEST PUSH1 0x40 MLOAD PUSH2 0x415 SWAP2 SWAP1 PUSH2 0x2546 JUMP JUMPDEST PUSH1 0x40 MLOAD DUP1 SWAP2 SUB SWAP1 RETURN JUMPDEST PUSH2 0x438 PUSH1 0x4 DUP1 CALLDATASIZE SUB DUP2 ADD SWAP1 PUSH2 0x433 SWAP2 SWAP1 PUSH2 0x250C JUMP JUMPDEST PUSH2 0x18FD JUMP JUMPDEST STOP JUMPDEST PUSH2 0x442 PUSH2 0x1BBE JUMP JUMPDEST PUSH1 0x40 MLOAD PUSH2 0x44F SWAP2 SWAP1 PUSH2 0x2546 JUMP JUMPDEST PUSH1 0x40 MLOAD DUP1 SWAP2 SUB SWAP1 RETURN JUMPDEST PUSH2 0x460 PUSH2 0x1BC4 JUMP JUMPDEST PUSH1 0x40 MLOAD PUSH2 0x46D SWAP2 SWAP1 PUSH2 0x2817 JUMP JUMPDEST PUSH1 0x40 MLOAD DUP1 SWAP2 SUB SWAP1 RETURN JUMPDEST PUSH2 0x47E PUSH2 0x1BEC JUMP JUMPDEST PUSH1 0x40 MLOAD PUSH2 0x48B SWAP2 SWAP1 PUSH2 0x2546 JUMP JUMPDEST PUSH1 0x40 MLOAD DUP1 SWAP2 SUB SWAP1 RETURN JUMPDEST PUSH2 0x4AE PUSH1 0x4 DUP1 CALLDATASIZE SUB DUP2 ADD SWAP1 PUSH2 0x4A9 SWAP2 SWAP1 PUSH2 0x26AF JUMP JUMPDEST PUSH2 0x1BF4 JUMP JUMPDEST STOP JUMPDEST PUSH2 0x4B8 PUSH2 0x1CA0 JUMP JUMPDEST PUSH1 0x40 MLOAD PUSH2 0x4C5 SWAP2 SWAP1 PUSH2 0x28C9 JUMP JUMPDEST PUSH1 0x40 MLOAD DUP1 SWAP2 SUB SWAP1 RETURN JUMPDEST PUSH2 0x4D6 PUSH2 0x1CC4 JUMP JUMPDEST PUSH0 PUSH20 0xFFFFFFFFFFFFFFFFFFFFFFFFFFFFFFFFFFFFFFFF AND DUP5 PUSH20 0xFFFFFFFFFFFFFFFFFFFFFFFFFFFFFFFFFFFFFFFF AND SUB PUSH2 0x544 JUMPI PUSH1 0x40 MLOAD PUSH32 0x8C379A000000000000000000000000000000000000000000000000000000000 DUP2 MSTORE PUSH1 0x4 ADD PUSH2 0x53B SWAP1 PUSH2 0x293C JUMP JUMPDEST PUSH1 0x40 MLOAD DUP1 SWAP2 SUB SWAP1 REVERT JUMPDEST PUSH0 DUP4 GT PUSH2 0x586 JUMPI PUSH1 0x40 MLOAD PUSH32 0x8C379A000000000000000000000000000000000000000000000000000000000 DUP2 MSTORE PUSH1 0x4 ADD PUSH2 0x57D SWAP1 PUSH2 0x29A4 JUMP JUMPDEST PUSH1 0x40 MLOAD DUP1 SWAP2 SUB SWAP1 REVERT JUMPDEST PUSH0 DUP3 GT DUP1 ISZERO PUSH2 0x597 JUMPI POP PUSH2 0x2710 DUP3 GT ISZERO JUMPDEST PUSH2 0x5D6 JUMPI PUSH1 0x40 MLOAD PUSH32 0x8C379A000000000000000000000000000000000000000000000000000000000 DUP2 MSTORE PUSH1 0x4 ADD PUSH2 0x5CD SWAP1 PUSH2 0x2A0C JUMP JUMPDEST PUSH1 0x40 MLOAD DUP1 SWAP2 SUB SWAP1 REVERT JUMPDEST PUSH1 0x4 PUSH1 0x40 MLOAD DUP1 PUSH1 0xA0 ADD PUSH1 0x40 MSTORE DUP1 DUP7 PUSH20 0xFFFFFFFFFFFFFFFFFFFFFFFFFFFFFFFFFFFFFFFF AND DUP2 MSTORE PUSH1 0x20 ADD DUP6 DUP2 MSTORE PUSH1 0x20 ADD DUP5 DUP2 MSTORE PUSH1 0x20 ADD DUP4 DUP2 MSTORE PUSH1 0x20 ADD PUSH1 0x1 ISZERO ISZERO DUP2 MSTORE POP SWAP1 DUP1 PUSH1 0x1 DUP2 SLOAD ADD DUP1 DUP3 SSTORE DUP1 SWAP2 POP POP PUSH1 0x1 SWAP1 SUB SWAP1 PUSH0 MSTORE PUSH1 0x20 PUSH0 KECCAK256 SWAP1 PUSH1 0x5 MUL ADD PUSH0 SWAP1 SWAP2 SWAP1 SWAP2 SWAP1 SWAP2 POP PUSH0 DUP3 ADD MLOAD DUP2 PUSH0 ADD PUSH0 PUSH2 0x100 EXP DUP2 SLOAD DUP2 PUSH20 0xFFFFFFFFFFFFFFFFFFFFFFFFFFFFFFFFFFFFFFFF MUL NOT AND SWAP1 DUP4 PUSH20 0xFFFFFFFFFFFFFFFFFFFFFFFFFFFFFFFFFFFFFFFF AND MUL OR SWAP1 SSTORE POP PUSH1 0x20 DUP3 ADD MLOAD DUP2 PUSH1 0x1 ADD SSTORE PUSH1 0x40 DUP3 ADD MLOAD DUP2 PUSH1 0x2 ADD SSTORE PUSH1 0x60 DUP3 ADD MLOAD DUP2 PUSH1 0x3 ADD SSTORE PUSH1 0x80 DUP3 ADD MLOAD DUP2 PUSH1 0x4 ADD PUSH0 PUSH2 0x100 EXP DUP2 SLOAD DUP2 PUSH1 0xFF MUL NOT AND SWAP1 DUP4 ISZERO ISZERO MUL OR SWAP1 SSTORE POP POP POP PUSH1 0x1 PUSH1 0x4 DUP1 SLOAD SWAP1 POP PUSH2 0x6D3 SWAP2 SWAP1 PUSH2 0x2A57 JUMP JUMPDEST PUSH32 0x5752C03E5C1D84A4868E347BE593E78A3F0F449821FF8E628806E528A877618 DUP6 DUP6 DUP6 DUP6 PUSH1 0x40 MLOAD PUSH2 0x708 SWAP5 SWAP4 SWAP3 SWAP2 SWAP1 PUSH2 0x2A8A JUMP JUMPDEST PUSH1 0x40 MLOAD DUP1 SWAP2 SUB SWAP1 LOG2 POP POP POP POP JUMP JUMPDEST PUSH2 0x71E PUSH2 0x1CC4 JUMP JUMPDEST DUP2 PUSH1 0x4 DUP1 SLOAD SWAP1 POP DUP2 LT PUSH2 0x766 JUMPI PUSH1 0x40 MLOAD PUSH32 0x8C379A000000000000000000000000000000000000000000000000000000000 DUP2 MSTORE PUSH1 0x4 ADD PUSH2 0x75D SWAP1 PUSH2 0x2B17 JUMP JUMPDEST PUSH1 0x40 MLOAD DUP1 SWAP2 SUB SWAP1 REVERT JUMPDEST DUP2 PUSH1 0x4 DUP5 DUP2 SLOAD DUP2 LT PUSH2 0x77B JUMPI PUSH2 0x77A PUSH2 0x2B35 JUMP JUMPDEST JUMPDEST SWAP1 PUSH0 MSTORE PUSH1 0x20 PUSH0 KECCAK256 SWAP1 PUSH1 0x5 MUL ADD PUSH1 0x4 ADD PUSH0 PUSH2 0x100 EXP DUP2 SLOAD DUP2 PUSH1 0xFF MUL NOT AND SWAP1 DUP4 ISZERO ISZERO MUL OR SWAP1 SSTORE POP DUP3 PUSH32 0x27FFAC29F91E32ED296E1AE41A59F23EBEFBCAC53EB28251A6FD6A5BE271970A DUP4 PUSH1 0x40 MLOAD PUSH2 0x7D0 SWAP2 SWAP1 PUSH2 0x256E JUMP JUMPDEST PUSH1 0x40 MLOAD DUP1 SWAP2 SUB SWAP1 LOG2 POP POP POP JUMP JUMPDEST PUSH2 0x7E5 PUSH2 0x1D4B JUMP JUMPDEST CALLER DUP2 PUSH1 0x8 PUSH0 DUP4 PUSH20 0xFFFFFFFFFFFFFFFFFFFFFFFFFFFFFFFFFFFFFFFF AND PUSH20 0xFFFFFFFFFFFFFFFFFFFFFFFFFFFFFFFFFFFFFFFF AND DUP2 MSTORE PUSH1 0x20 ADD SWAP1 DUP2 MSTORE PUSH1 0x20 ADD PUSH0 KECCAK256 DUP1 SLOAD SWAP1 POP DUP2 LT PUSH2 0x869 JUMPI PUSH1 0x40 MLOAD PUSH32 0x8C379A000000000000000000000000000000000000000000000000000000000 DUP2 MSTORE PUSH1 0x4 ADD PUSH2 0x860 SWAP1 PUSH2 0x2BAC JUMP JUMPDEST PUSH1 0x40 MLOAD DUP1 SWAP2 SUB SWAP1 REVERT JUMPDEST PUSH0 PUSH1 0x8 PUSH0 DUP5 PUSH20 0xFFFFFFFFFFFFFFFFFFFFFFFFFFFFFFFFFFFFFFFF AND PUSH20 0xFFFFFFFFFFFFFFFFFFFFFFFFFFFFFFFFFFFFFFFF AND DUP2 MSTORE PUSH1 0x20 ADD SWAP1 DUP2 MSTORE PUSH1 0x20 ADD PUSH0 KECCAK256 DUP3 DUP2 SLOAD DUP2 LT PUSH2 0x8B9 JUMPI PUSH2 0x8B8 PUSH2 0x2B35 JUMP JUMPDEST JUMPDEST SWAP1 PUSH0 MSTORE PUSH1 0x20 PUSH0 KECCAK256 SWAP1 PUSH1 0x5 MUL ADD PUSH1 0x1 ADD SLOAD GT PUSH2 0x909 JUMPI PUSH1 0x40 MLOAD PUSH32 0x8C379A000000000000000000000000000000000000000000000000000000000 DUP2 MSTORE PUSH1 0x4 ADD PUSH2 0x900 SWAP1 PUSH2 0x2C14 JUMP JUMPDEST PUSH1 0x40 MLOAD DUP1 SWAP2 SUB SWAP1 REVERT JUMPDEST PUSH0 PUSH1 0x8 PUSH0 CALLER PUSH20 0xFFFFFFFFFFFFFFFFFFFFFFFFFFFFFFFFFFFFFFFF AND PUSH20 0xFFFFFFFFFFFFFFFFFFFFFFFFFFFFFFFFFFFFFFFF AND DUP2 MSTORE PUSH1 0x20 ADD SWAP1 DUP2 MSTORE PUSH1 0x20 ADD PUSH0 KECCAK256 DUP5 DUP2 SLOAD DUP2 LT PUSH2 0x959 JUMPI PUSH2 0x958 PUSH2 0x2B35 JUMP JUMPDEST JUMPDEST SWAP1 PUSH0 MSTORE PUSH1 0x20 PUSH0 KECCAK256 SWAP1 PUSH1 0x5 MUL ADD PUSH1 0x40 MLOAD DUP1 PUSH1 0xA0 ADD PUSH1 0x40 MSTORE SWAP1 DUP2 PUSH0 DUP3 ADD SLOAD DUP2 MSTORE PUSH1 0x20 ADD PUSH1 0x1 DUP3 ADD SLOAD DUP2 MSTORE PUSH1 0x20 ADD PUSH1 0x2 DUP3 ADD SLOAD DUP2 MSTORE PUSH1 0x20 ADD PUSH1 0x3 DUP3 ADD SLOAD DUP2 MSTORE PUSH1 0x20 ADD PUSH1 0x4 DUP3 ADD PUSH0 SWAP1 SLOAD SWAP1 PUSH2 0x100 EXP SWAP1 DIV PUSH1 0xFF AND ISZERO ISZERO ISZERO ISZERO DUP2 MSTORE POP POP SWAP1 POP PUSH0 PUSH1 0x4 DUP3 PUSH0 ADD MLOAD DUP2 SLOAD DUP2 LT PUSH2 0x9CB JUMPI PUSH2 0x9CA PUSH2 0x2B35 JUMP JUMPDEST JUMPDEST SWAP1 PUSH0 MSTORE PUSH1 0x20 PUSH0 KECCAK256 SWAP1 PUSH1 0x5 MUL ADD PUSH1 0x40 MLOAD DUP1 PUSH1 0xA0 ADD PUSH1 0x40 MSTORE SWAP1 DUP2 PUSH0 DUP3 ADD PUSH0 SWAP1 SLOAD SWAP1 PUSH2 0x100 EXP SWAP1 DIV PUSH20 0xFFFFFFFFFFFFFFFFFFFFFFFFFFFFFFFFFFFFFFFF AND PUSH20 0xFFFFFFFFFFFFFFFFFFFFFFFFFFFFFFFFFFFFFFFF AND PUSH20 0xFFFFFFFFFFFFFFFFFFFFFFFFFFFFFFFFFFFFFFFF AND DUP2 MSTORE PUSH1 0x20 ADD PUSH1 0x1 DUP3 ADD SLOAD DUP2 MSTORE PUSH1 0x20 ADD PUSH1 0x2 DUP3 ADD SLOAD DUP2 MSTORE PUSH1 0x20 ADD PUSH1 0x3 DUP3 ADD SLOAD DUP2 MSTORE PUSH1 0x20 ADD PUSH1 0x4 DUP3 ADD PUSH0 SWAP1 SLOAD SWAP1 PUSH2 0x100 EXP SWAP1 DIV PUSH1 0xFF AND ISZERO ISZERO ISZERO ISZERO DUP2 MSTORE POP POP SWAP1 POP DUP1 PUSH1 0x20 ADD MLOAD DUP3 PUSH1 0x40 ADD MLOAD PUSH2 0xA84 SWAP2 SWAP1 PUSH2 0x2C32 JUMP JUMPDEST TIMESTAMP LT ISZERO PUSH2 0xAC6 JUMPI PUSH1 0x40 MLOAD PUSH32 0x8C379A000000000000000000000000000000000000000000000000000000000 DUP2 MSTORE PUSH1 0x4 ADD PUSH2 0xABD SWAP1 PUSH2 0x2CAF JUMP JUMPDEST PUSH1 0x40 MLOAD DUP1 SWAP2 SUB SWAP1 REVERT JUMPDEST PUSH0 PUSH2 0xAD1 CALLER DUP8 PUSH2 0x1D98 JUMP JUMPDEST SWAP1 POP PUSH0 DUP4 PUSH1 0x20 ADD MLOAD SWAP1 POP PUSH1 0x8 PUSH0 CALLER PUSH20 0xFFFFFFFFFFFFFFFFFFFFFFFFFFFFFFFFFFFFFFFF AND PUSH20 0xFFFFFFFFFFFFFFFFFFFFFFFFFFFFFFFFFFFFFFFF AND DUP2 MSTORE PUSH1 0x20 ADD SWAP1 DUP2 MSTORE PUSH1 0x20 ADD PUSH0 KECCAK256 DUP8 DUP2 SLOAD DUP2 LT PUSH2 0xB2A JUMPI PUSH2 0xB29 PUSH2 0x2B35 JUMP JUMPDEST JUMPDEST SWAP1 PUSH0 MSTORE PUSH1 0x20 PUSH0 KECCAK256 SWAP1 PUSH1 0x5 MUL ADD PUSH0 PUSH0 DUP3 ADD PUSH0 SWAP1 SSTORE PUSH1 0x1 DUP3 ADD PUSH0 SWAP1 SSTORE PUSH1 0x2 DUP3 ADD PUSH0 SWAP1 SSTORE PUSH1 0x3 DUP3 ADD PUSH0 SWAP1 SSTORE PUSH1 0x4 DUP3 ADD PUSH0 PUSH2 0x100 EXP DUP2 SLOAD SWAP1 PUSH1 0xFF MUL NOT AND SWAP1 SSTORE POP POP PUSH2 0xB95 CALLER DUP3 DUP6 PUSH0 ADD MLOAD PUSH20 0xFFFFFFFFFFFFFFFFFFFFFFFFFFFFFFFFFFFFFFFF AND PUSH2 0x1F6E SWAP1 SWAP3 SWAP2 SWAP1 PUSH4 0xFFFFFFFF AND JUMP JUMPDEST PUSH0 DUP3 GT ISZERO PUSH2 0xBE9 JUMPI PUSH2 0xBE8 CALLER DUP4 PUSH32 0x0 PUSH20 0xFFFFFFFFFFFFFFFFFFFFFFFFFFFFFFFFFFFFFFFF AND PUSH2 0x1F6E SWAP1 SWAP3 SWAP2 SWAP1 PUSH4 0xFFFFFFFF AND JUMP JUMPDEST JUMPDEST DUP7 CALLER PUSH20 0xFFFFFFFFFFFFFFFFFFFFFFFFFFFFFFFFFFFFFFFF AND PUSH32 0x88D1C46373223A4F1F60DB2BADC985B05EC9C2B2EAB4537F0F8E1291B78B6E37 DUP4 DUP6 PUSH1 0x40 MLOAD PUSH2 0xC32 SWAP3 SWAP2 SWAP1 PUSH2 0x2CCD JUMP JUMPDEST PUSH1 0x40 MLOAD DUP1 SWAP2 SUB SWAP1 LOG3 POP POP POP POP POP POP PUSH2 0xC48 PUSH2 0x1FED JUMP JUMPDEST POP JUMP JUMPDEST PUSH1 0x6 SLOAD DUP2 JUMP JUMPDEST PUSH1 0x5 PUSH0 SWAP1 SLOAD SWAP1 PUSH2 0x100 EXP SWAP1 DIV PUSH20 0xFFFFFFFFFFFFFFFFFFFFFFFFFFFFFFFFFFFFFFFF AND PUSH20 0xFFFFFFFFFFFFFFFFFFFFFFFFFFFFFFFFFFFFFFFF AND CALLER PUSH20 0xFFFFFFFFFFFFFFFFFFFFFFFFFFFFFFFFFFFFFFFF AND EQ PUSH2 0xCE0 JUMPI PUSH1 0x40 MLOAD PUSH32 0x8C379A000000000000000000000000000000000000000000000000000000000 DUP2 MSTORE PUSH1 0x4 ADD PUSH2 0xCD7 SWAP1 PUSH2 0x2D3E JUMP JUMPDEST PUSH1 0x40 MLOAD DUP1 SWAP2 SUB SWAP1 REVERT JUMPDEST PUSH0 PUSH1 0x7 SLOAD SWAP1 POP PUSH0 DUP2 GT PUSH2 0xD28 JUMPI PUSH1 0x40 MLOAD PUSH32 0x8C379A000000000000000000000000000000000000000000000000000000000 DUP2 MSTORE PUSH1 0x4 ADD PUSH2 0xD1F SWAP1 PUSH2 0x2DA6 JUMP JUMPDEST PUSH1 0x40 MLOAD DUP1 SWAP2 SUB SWAP1 REVERT JUMPDEST PUSH0 PUSH1 0x7 DUP2 SWAP1 SSTORE POP PUSH2 0xD9B PUSH1 0x5 PUSH0 SWAP1 SLOAD SWAP1 PUSH2 0x100 EXP SWAP1 DIV PUSH20 0xFFFFFFFFFFFFFFFFFFFFFFFFFFFFFFFFFFFFFFFF AND DUP3 PUSH32 0x0 PUSH20 0xFFFFFFFFFFFFFFFFFFFFFFFFFFFFFFFFFFFFFFFF AND PUSH2 0x1F6E SWAP1 SWAP3 SWAP2 SWAP1 PUSH4 0xFFFFFFFF AND JUMP JUMPDEST PUSH32 0xC0819C13BE868895EB93E40EACEB96DE976442FA1D404E5C55F14BB65A8C489A PUSH1 0x5 PUSH0 SWAP1 SLOAD SWAP1 PUSH2 0x100 EXP SWAP1 DIV PUSH20 0xFFFFFFFFFFFFFFFFFFFFFFFFFFFFFFFFFFFFFFFF AND DUP3 PUSH1 0x40 MLOAD PUSH2 0xDED SWAP3 SWAP2 SWAP1 PUSH2 0x2DC4 JUMP JUMPDEST PUSH1 0x40 MLOAD DUP1 SWAP2 SUB SWAP1 LOG1 POP JUMP JUMPDEST PUSH2 0xE00 PUSH2 0x1CC4 JUMP JUMPDEST PUSH2 0xE08 PUSH2 0x1FF7 JUMP JUMPDEST JUMP JUMPDEST PUSH2 0xE12 PUSH2 0x1CC4 JUMP JUMPDEST PUSH2 0xE1A PUSH2 0x2058 JUMP JUMPDEST JUMP JUMPDEST PUSH2 0xE24 PUSH2 0x1D4B JUMP JUMPDEST CALLER DUP2 PUSH1 0x8 PUSH0 DUP4 PUSH20 0xFFFFFFFFFFFFFFFFFFFFFFFFFFFFFFFFFFFFFFFF AND PUSH20 0xFFFFFFFFFFFFFFFFFFFFFFFFFFFFFFFFFFFFFFFF AND DUP2 MSTORE PUSH1 0x20 ADD SWAP1 DUP2 MSTORE PUSH1 0x20 ADD PUSH0 KECCAK256 DUP1 SLOAD SWAP1 POP DUP2 LT PUSH2 0xEA8 JUMPI PUSH1 0x40 MLOAD PUSH32 0x8C379A000000000000000000000000000000000000000000000000000000000 DUP2 MSTORE PUSH1 0x4 ADD PUSH2 0xE9F SWAP1 PUSH2 0x2BAC JUMP JUMPDEST PUSH1 0x40 MLOAD DUP1 SWAP2 SUB SWAP1 REVERT JUMPDEST PUSH0 PUSH1 0x8 PUSH0 DUP5 PUSH20 0xFFFFFFFFFFFFFFFFFFFFFFFFFFFFFFFFFFFFFFFF AND PUSH20 0xFFFFFFFFFFFFFFFFFFFFFFFFFFFFFFFFFFFFFFFF AND DUP2 MSTORE PUSH1 0x20 ADD SWAP1 DUP2 MSTORE PUSH1 0x20 ADD PUSH0 KECCAK256 DUP3 DUP2 SLOAD DUP2 LT PUSH2 0xEF8 JUMPI PUSH2 0xEF7 PUSH2 0x2B35 JUMP JUMPDEST JUMPDEST SWAP1 PUSH0 MSTORE PUSH1 0x20 PUSH0 KECCAK256 SWAP1 PUSH1 0x5 MUL ADD PUSH1 0x1 ADD SLOAD GT PUSH2 0xF48 JUMPI PUSH1 0x40 MLOAD PUSH32 0x8C379A000000000000000000000000000000000000000000000000000000000 DUP2 MSTORE PUSH1 0x4 ADD PUSH2 0xF3F SWAP1 PUSH2 0x2C14 JUMP JUMPDEST PUSH1 0x40 MLOAD DUP1 SWAP2 SUB SWAP1 REVERT JUMPDEST PUSH0 PUSH1 0x8 PUSH0 CALLER PUSH20 0xFFFFFFFFFFFFFFFFFFFFFFFFFFFFFFFFFFFFFFFF AND PUSH20 0xFFFFFFFFFFFFFFFFFFFFFFFFFFFFFFFFFFFFFFFF AND DUP2 MSTORE PUSH1 0x20 ADD SWAP1 DUP2 MSTORE PUSH1 0x20 ADD PUSH0 KECCAK256 DUP5 DUP2 SLOAD DUP2 LT PUSH2 0xF98 JUMPI PUSH2 0xF97 PUSH2 0x2B35 JUMP JUMPDEST JUMPDEST SWAP1 PUSH0 MSTORE PUSH1 0x20 PUSH0 KECCAK256 SWAP1 PUSH1 0x5 MUL ADD SWAP1 POP DUP1 PUSH1 0x4 ADD PUSH0 SWAP1 SLOAD SWAP1 PUSH2 0x100 EXP SWAP1 DIV PUSH1 0xFF AND ISZERO DUP2 PUSH1 0x4 ADD PUSH0 PUSH2 0x100 EXP DUP2 SLOAD DUP2 PUSH1 0xFF MUL NOT AND SWAP1 DUP4 ISZERO ISZERO MUL OR SWAP1 SSTORE POP DUP4 CALLER PUSH20 0xFFFFFFFFFFFFFFFFFFFFFFFFFFFFFFFFFFFFFFFF AND PUSH32 0xD9A4263CD64BEF5364CF9865147C8561E0C7151A9E1D79D8AA67DF565AA96EFE DUP4 PUSH1 0x4 ADD PUSH0 SWAP1 SLOAD SWAP1 PUSH2 0x100 EXP SWAP1 DIV PUSH1 0xFF AND PUSH1 0x40 MLOAD PUSH2 0x1029 SWAP2 SWAP1 PUSH2 0x256E JUMP JUMPDEST PUSH1 0x40 MLOAD DUP1 SWAP2 SUB SWAP1 LOG3 POP POP POP PUSH2 0x103C PUSH2 0x1FED JUMP JUMPDEST POP JUMP JUMPDEST PUSH0 PUSH1 0x3 PUSH0 SWAP1 SLOAD SWAP1 PUSH2 0x100 EXP SWAP1 DIV PUSH1 0xFF AND SWAP1 POP SWAP1 JUMP JUMPDEST PUSH2 0x105C PUSH2 0x2362 JUMP JUMPDEST DUP2 PUSH1 0x4 DUP1 SLOAD SWAP1 POP DUP2 LT PUSH2 0x10A4 JUMPI PUSH1 0x40 MLOAD PUSH32 0x8C379A000000000000000000000000000000000000000000000000000000000 DUP2 MSTORE PUSH1 0x4 ADD PUSH2 0x109B SWAP1 PUSH2 0x2B17 JUMP JUMPDEST PUSH1 0x40 MLOAD DUP1 SWAP2 SUB SWAP1 REVERT JUMPDEST PUSH1 0x4 DUP4 DUP2 SLOAD DUP2 LT PUSH2 0x10B8 JUMPI PUSH2 0x10B7 PUSH2 0x2B35 JUMP JUMPDEST JUMPDEST SWAP1 PUSH0 MSTORE PUSH1 0x20 PUSH0 KECCAK256 SWAP1 PUSH1 0x5 MUL ADD PUSH1 0x40 MLOAD DUP1 PUSH1 0xA0 ADD PUSH1 0x40 MSTORE SWAP1 DUP2 PUSH0 DUP3 ADD PUSH0 SWAP1 SLOAD SWAP1 PUSH2 0x100 EXP SWAP1 DIV PUSH20 0xFFFFFFFFFFFFFFFFFFFFFFFFFFFFFFFFFFFFFFFF AND PUSH20 0xFFFFFFFFFFFFFFFFFFFFFFFFFFFFFFFFFFFFFFFF AND PUSH20 0xFFFFFFFFFFFFFFFFFFFFFFFFFFFFFFFFFFFFFFFF AND DUP2 MSTORE PUSH1 0x20 ADD PUSH1 0x1 DUP3 ADD SLOAD DUP2 MSTORE PUSH1 0x20 ADD PUSH1 0x2 DUP3 ADD SLOAD DUP2 MSTORE PUSH1 0x20 ADD PUSH1 0x3 DUP3 ADD SLOAD DUP2 MSTORE PUSH1 0x20 ADD PUSH1 0x4 DUP3 ADD PUSH0 SWAP1 SLOAD SWAP1 PUSH2 0x100 EXP SWAP1 DIV PUSH1 0xFF AND ISZERO ISZERO ISZERO ISZERO DUP2 MSTORE POP POP SWAP2 POP POP SWAP2 SWAP1 POP JUMP JUMPDEST PUSH2 0x116B PUSH2 0x1CC4 JUMP JUMPDEST PUSH2 0x1174 PUSH0 PUSH2 0x20BA JUMP JUMPDEST JUMP JUMPDEST PUSH0 PUSH2 0x117F PUSH2 0x20EA JUMP JUMPDEST SWAP1 POP DUP1 PUSH20 0xFFFFFFFFFFFFFFFFFFFFFFFFFFFFFFFFFFFFFFFF AND PUSH2 0x11A0 PUSH2 0x1BC4 JUMP JUMPDEST PUSH20 0xFFFFFFFFFFFFFFFFFFFFFFFFFFFFFFFFFFFFFFFF AND EQ PUSH2 0x11F8 JUMPI DUP1 PUSH1 0x40 MLOAD PUSH32 0x118CDAA700000000000000000000000000000000000000000000000000000000 DUP2 MSTORE PUSH1 0x4 ADD PUSH2 0x11EF SWAP2 SWAP1 PUSH2 0x2817 JUMP JUMPDEST PUSH1 0x40 MLOAD DUP1 SWAP2 SUB SWAP1 REVERT JUMPDEST PUSH2 0x1201 DUP2 PUSH2 0x20BA JUMP JUMPDEST POP JUMP JUMPDEST PUSH2 0x120C PUSH2 0x1CC4 JUMP JUMPDEST DUP2 PUSH1 0x4 DUP1 SLOAD SWAP1 POP DUP2 LT PUSH2 0x1254 JUMPI PUSH1 0x40 MLOAD PUSH32 0x8C379A000000000000000000000000000000000000000000000000000000000 DUP2 MSTORE PUSH1 0x4 ADD PUSH2 0x124B SWAP1 PUSH2 0x2B17 JUMP JUMPDEST PUSH1 0x40 MLOAD DUP1 SWAP2 SUB SWAP1 REVERT JUMPDEST PUSH0 DUP3 GT DUP1 ISZERO PUSH2 0x1265 JUMPI POP PUSH2 0x2710 DUP3 GT ISZERO JUMPDEST PUSH2 0x12A4 JUMPI PUSH1 0x40 MLOAD PUSH32 0x8C379A000000000000000000000000000000000000000000000000000000000 DUP2 MSTORE PUSH1 0x4 ADD PUSH2 0x129B SWAP1 PUSH2 0x2A0C JUMP JUMPDEST PUSH1 0x40 MLOAD DUP1 SWAP2 SUB SWAP1 REVERT JUMPDEST DUP2 PUSH1 0x4 DUP5 DUP2 SLOAD DUP2 LT PUSH2 0x12B9 JUMPI PUSH2 0x12B8 PUSH2 0x2B35 JUMP JUMPDEST JUMPDEST SWAP1 PUSH0 MSTORE PUSH1 0x20 PUSH0 KECCAK256 SWAP1 PUSH1 0x5 MUL ADD PUSH1 0x2 ADD DUP2 SWAP1 SSTORE POP DUP3 PUSH32 0x5752C03E5C1D84A4868E347BE593E78A3F0F449821FF8E628806E528A877618 PUSH1 0x4 DUP6 DUP2 SLOAD DUP2 LT PUSH2 0x1302 JUMPI PUSH2 0x1301 PUSH2 0x2B35 JUMP JUMPDEST JUMPDEST SWAP1 PUSH0 MSTORE PUSH1 0x20 PUSH0 KECCAK256 SWAP1 PUSH1 0x5 MUL ADD PUSH0 ADD PUSH0 SWAP1 SLOAD SWAP1 PUSH2 0x100 EXP SWAP1 DIV PUSH20 0xFFFFFFFFFFFFFFFFFFFFFFFFFFFFFFFFFFFFFFFF AND PUSH1 0x4 DUP7 DUP2 SLOAD DUP2 LT PUSH2 0x1344 JUMPI PUSH2 0x1343 PUSH2 0x2B35 JUMP JUMPDEST JUMPDEST SWAP1 PUSH0 MSTORE PUSH1 0x20 PUSH0 KECCAK256 SWAP1 PUSH1 0x5 MUL ADD PUSH1 0x1 ADD SLOAD DUP6 PUSH1 0x4 DUP9 DUP2 SLOAD DUP2 LT PUSH2 0x1369 JUMPI PUSH2 0x1368 PUSH2 0x2B35 JUMP JUMPDEST JUMPDEST SWAP1 PUSH0 MSTORE PUSH1 0x20 PUSH0 KECCAK256 SWAP1 PUSH1 0x5 MUL ADD PUSH1 0x3 ADD SLOAD PUSH1 0x40 MLOAD PUSH2 0x1389 SWAP5 SWAP4 SWAP3 SWAP2 SWAP1 PUSH2 0x2A8A JUMP JUMPDEST PUSH1 0x40 MLOAD DUP1 SWAP2 SUB SWAP1 LOG2 POP POP POP JUMP JUMPDEST PUSH0 PUSH2 0x13A1 DUP4 DUP4 PUSH2 0x1D98 JUMP JUMPDEST SWAP1 POP SWAP3 SWAP2 POP POP JUMP JUMPDEST PUSH1 0x60 PUSH1 0x8 PUSH0 DUP4 PUSH20 0xFFFFFFFFFFFFFFFFFFFFFFFFFFFFFFFFFFFFFFFF AND PUSH20 0xFFFFFFFFFFFFFFFFFFFFFFFFFFFFFFFFFFFFFFFF AND DUP2 MSTORE PUSH1 0x20 ADD SWAP1 DUP2 MSTORE PUSH1 0x20 ADD PUSH0 KECCAK256 DUP1 SLOAD DUP1 PUSH1 0x20 MUL PUSH1 0x20 ADD PUSH1 0x40 MLOAD SWAP1 DUP2 ADD PUSH1 0x40 MSTORE DUP1 SWAP3 SWAP2 SWAP1 DUP2 DUP2 MSTORE PUSH1 0x20 ADD PUSH0 SWAP1 JUMPDEST DUP3 DUP3 LT ISZERO PUSH2 0x1478 JUMPI DUP4 DUP3 SWAP1 PUSH0 MSTORE PUSH1 0x20 PUSH0 KECCAK256 SWAP1 PUSH1 0x5 MUL ADD PUSH1 0x40 MLOAD DUP1 PUSH1 0xA0 ADD PUSH1 0x40 MSTORE SWAP1 DUP2 PUSH0 DUP3 ADD SLOAD DUP2 MSTORE PUSH1 0x20 ADD PUSH1 0x1 DUP3 ADD SLOAD DUP2 MSTORE PUSH1 0x20 ADD PUSH1 0x2 DUP3 ADD SLOAD DUP2 MSTORE PUSH1 0x20 ADD PUSH1 0x3 DUP3 ADD SLOAD DUP2 MSTORE PUSH1 0x20 ADD PUSH1 0x4 DUP3 ADD PUSH0 SWAP1 SLOAD SWAP1 PUSH2 0x100 EXP SWAP1 DIV PUSH1 0xFF AND ISZERO ISZERO ISZERO ISZERO DUP2 MSTORE POP POP DUP2 MSTORE PUSH1 0x20 ADD SWAP1 PUSH1 0x1 ADD SWAP1 PUSH2 0x1407 JUMP JUMPDEST POP POP POP POP SWAP1 POP SWAP2 SWAP1 POP JUMP JUMPDEST PUSH0 PUSH0 PUSH0 SWAP1 SLOAD SWAP1 PUSH2 0x100 EXP SWAP1 DIV PUSH20 0xFFFFFFFFFFFFFFFFFFFFFFFFFFFFFFFFFFFFFFFF AND SWAP1 POP SWAP1 JUMP JUMPDEST PUSH2 0x14B2 PUSH2 0x1CC4 JUMP JUMPDEST PUSH2 0x3E8 DUP3 GT ISZERO PUSH2 0x14F7 JUMPI PUSH1 0x40 MLOAD PUSH32 0x8C379A000000000000000000000000000000000000000000000000000000000 DUP2 MSTORE PUSH1 0x4 ADD PUSH2 0x14EE SWAP1 PUSH2 0x2E35 JUMP JUMPDEST PUSH1 0x40 MLOAD DUP1 SWAP2 SUB SWAP1 REVERT JUMPDEST PUSH0 PUSH20 0xFFFFFFFFFFFFFFFFFFFFFFFFFFFFFFFFFFFFFFFF AND DUP2 PUSH20 0xFFFFFFFFFFFFFFFFFFFFFFFFFFFFFFFFFFFFFFFF AND SUB PUSH2 0x1565 JUMPI PUSH1 0x40 MLOAD PUSH32 0x8C379A000000000000000000000000000000000000000000000000000000000 DUP2 MSTORE PUSH1 0x4 ADD PUSH2 0x155C SWAP1 PUSH2 0x2E9D JUMP JUMPDEST PUSH1 0x40 MLOAD DUP1 SWAP2 SUB SWAP1 REVERT JUMPDEST DUP2 PUSH1 0x6 DUP2 SWAP1 SSTORE POP DUP1 PUSH1 0x5 PUSH0 PUSH2 0x100 EXP DUP2 SLOAD DUP2 PUSH20 0xFFFFFFFFFFFFFFFFFFFFFFFFFFFFFFFFFFFFFFFF MUL NOT AND SWAP1 DUP4 PUSH20 0xFFFFFFFFFFFFFFFFFFFFFFFFFFFFFFFFFFFFFFFF AND MUL OR SWAP1 SSTORE POP PUSH32 0x2CF325792651B724D47F21230BE0DD9729866CADD370618845E23A48555EF042 DUP3 DUP3 PUSH1 0x40 MLOAD PUSH2 0x15DD SWAP3 SWAP2 SWAP1 PUSH2 0x2EBB JUMP JUMPDEST PUSH1 0x40 MLOAD DUP1 SWAP2 SUB SWAP1 LOG1 POP POP JUMP JUMPDEST PUSH0 PUSH1 0x4 DUP1 SLOAD SWAP1 POP SWAP1 POP SWAP1 JUMP JUMPDEST PUSH1 0x5 PUSH0 SWAP1 SLOAD SWAP1 PUSH2 0x100 EXP SWAP1 DIV PUSH20 0xFFFFFFFFFFFFFFFFFFFFFFFFFFFFFFFFFFFFFFFF AND DUP2 JUMP JUMPDEST PUSH2 0x3E8 DUP2 JUMP JUMPDEST PUSH2 0x1628 PUSH2 0x1D4B JUMP JUMPDEST PUSH2 0x1630 PUSH2 0x20F1 JUMP JUMPDEST DUP2 PUSH1 0x4 DUP1 SLOAD SWAP1 POP DUP2 LT PUSH2 0x1678 JUMPI PUSH1 0x40 MLOAD PUSH32 0x8C379A000000000000000000000000000000000000000000000000000000000 DUP2 MSTORE PUSH1 0x4 ADD PUSH2 0x166F SWAP1 PUSH2 0x2B17 JUMP JUMPDEST PUSH1 0x40 MLOAD DUP1 SWAP2 SUB SWAP1 REVERT JUMPDEST DUP2 PUSH0 DUP2 GT PUSH2 0x16BB JUMPI PUSH1 0x40 MLOAD PUSH32 0x8C379A000000000000000000000000000000000000000000000000000000000 DUP2 MSTORE PUSH1 0x4 ADD PUSH2 0x16B2 SWAP1 PUSH2 0x2F2C JUMP JUMPDEST PUSH1 0x40 MLOAD DUP1 SWAP2 SUB SWAP1 REVERT JUMPDEST PUSH0 PUSH1 0x4 DUP6 DUP2 SLOAD DUP2 LT PUSH2 0x16D0 JUMPI PUSH2 0x16CF PUSH2 0x2B35 JUMP JUMPDEST JUMPDEST SWAP1 PUSH0 MSTORE PUSH1 0x20 PUSH0 KECCAK256 SWAP1 PUSH1 0x5 MUL ADD SWAP1 POP DUP1 PUSH1 0x4 ADD PUSH0 SWAP1 SLOAD SWAP1 PUSH2 0x100 EXP SWAP1 DIV PUSH1 0xFF AND PUSH2 0x172E JUMPI PUSH1 0x40 MLOAD PUSH32 0x8C379A000000000000000000000000000000000000000000000000000000000 DUP2 MSTORE PUSH1 0x4 ADD PUSH2 0x1725 SWAP1 PUSH2 0x2F94 JUMP JUMPDEST PUSH1 0x40 MLOAD DUP1 SWAP2 SUB SWAP1 REVERT JUMPDEST DUP1 PUSH1 0x3 ADD SLOAD DUP5 LT ISZERO PUSH2 0x1775 JUMPI PUSH1 0x40 MLOAD PUSH32 0x8C379A000000000000000000000000000000000000000000000000000000000 DUP2 MSTORE PUSH1 0x4 ADD PUSH2 0x176C SWAP1 PUSH2 0x2FFC JUMP JUMPDEST PUSH1 0x40 MLOAD DUP1 SWAP2 SUB SWAP1 REVERT JUMPDEST PUSH2 0x17C4 CALLER ADDRESS DUP7 DUP5 PUSH0 ADD PUSH0 SWAP1 SLOAD SWAP1 PUSH2 0x100 EXP SWAP1 DIV PUSH20 0xFFFFFFFFFFFFFFFFFFFFFFFFFFFFFFFFFFFFFFFF AND PUSH20 0xFFFFFFFFFFFFFFFFFFFFFFFFFFFFFFFFFFFFFFFF AND PUSH2 0x213B SWAP1 SWAP4 SWAP3 SWAP2 SWAP1 PUSH4 0xFFFFFFFF AND JUMP JUMPDEST PUSH1 0x8 PUSH0 CALLER PUSH20 0xFFFFFFFFFFFFFFFFFFFFFFFFFFFFFFFFFFFFFFFF AND PUSH20 0xFFFFFFFFFFFFFFFFFFFFFFFFFFFFFFFFFFFFFFFF AND DUP2 MSTORE PUSH1 0x20 ADD SWAP1 DUP2 MSTORE PUSH1 0x20 ADD PUSH0 KECCAK256 PUSH1 0x40 MLOAD DUP1 PUSH1 0xA0 ADD PUSH1 0x40 MSTORE DUP1 DUP8 DUP2 MSTORE PUSH1 0x20 ADD DUP7 DUP2 MSTORE PUSH1 0x20 ADD TIMESTAMP DUP2 MSTORE PUSH1 0x20 ADD TIMESTAMP DUP2 MSTORE PUSH1 0x20 ADD PUSH0 ISZERO ISZERO DUP2 MSTORE POP SWAP1 DUP1 PUSH1 0x1 DUP2 SLOAD ADD DUP1 DUP3 SSTORE DUP1 SWAP2 POP POP PUSH1 0x1 SWAP1 SUB SWAP1 PUSH0 MSTORE PUSH1 0x20 PUSH0 KECCAK256 SWAP1 PUSH1 0x5 MUL ADD PUSH0 SWAP1 SWAP2 SWAP1 SWAP2 SWAP1 SWAP2 POP PUSH0 DUP3 ADD MLOAD DUP2 PUSH0 ADD SSTORE PUSH1 0x20 DUP3 ADD MLOAD DUP2 PUSH1 0x1 ADD SSTORE PUSH1 0x40 DUP3 ADD MLOAD DUP2 PUSH1 0x2 ADD SSTORE PUSH1 0x60 DUP3 ADD MLOAD DUP2 PUSH1 0x3 ADD SSTORE PUSH1 0x80 DUP3 ADD MLOAD DUP2 PUSH1 0x4 ADD PUSH0 PUSH2 0x100 EXP DUP2 SLOAD DUP2 PUSH1 0xFF MUL NOT AND SWAP1 DUP4 ISZERO ISZERO MUL OR SWAP1 SSTORE POP POP POP DUP5 CALLER PUSH20 0xFFFFFFFFFFFFFFFFFFFFFFFFFFFFFFFFFFFFFFFF AND PUSH32 0x20400DB7CF9BDFCB8B13CCFB8A7B4BB447C3244EFDBC2336E6F6E1673D7BD845 DUP7 TIMESTAMP PUSH1 0x40 MLOAD PUSH2 0x18E0 SWAP3 SWAP2 SWAP1 PUSH2 0x2CCD JUMP JUMPDEST PUSH1 0x40 MLOAD DUP1 SWAP2 SUB SWAP1 LOG3 POP POP POP PUSH2 0x18F3 PUSH2 0x1FED JUMP JUMPDEST POP POP JUMP JUMPDEST PUSH1 0x7 SLOAD DUP2 JUMP JUMPDEST PUSH2 0x1905 PUSH2 0x1D4B JUMP JUMPDEST CALLER DUP2 PUSH1 0x8 PUSH0 DUP4 PUSH20 0xFFFFFFFFFFFFFFFFFFFFFFFFFFFFFFFFFFFFFFFF AND PUSH20 0xFFFFFFFFFFFFFFFFFFFFFFFFFFFFFFFFFFFFFFFF AND DUP2 MSTORE PUSH1 0x20 ADD SWAP1 DUP2 MSTORE PUSH1 0x20 ADD PUSH0 KECCAK256 DUP1 SLOAD SWAP1 POP DUP2 LT PUSH2 0x1989 JUMPI PUSH1 0x40 MLOAD PUSH32 0x8C379A000000000000000000000000000000000000000000000000000000000 DUP2 MSTORE PUSH1 0x4 ADD PUSH2 0x1980 SWAP1 PUSH2 0x2BAC JUMP JUMPDEST PUSH1 0x40 MLOAD DUP1 SWAP2 SUB SWAP1 REVERT JUMPDEST PUSH0 PUSH1 0x8 PUSH0 DUP5 PUSH20 0xFFFFFFFFFFFFFFFFFFFFFFFFFFFFFFFFFFFFFFFF AND PUSH20 0xFFFFFFFFFFFFFFFFFFFFFFFFFFFFFFFFFFFFFFFF AND DUP2 MSTORE PUSH1 0x20 ADD SWAP1 DUP2 MSTORE PUSH1 0x20 ADD PUSH0 KECCAK256 DUP3 DUP2 SLOAD DUP2 LT PUSH2 0x19D9 JUMPI PUSH2 0x19D8 PUSH2 0x2B35 JUMP JUMPDEST JUMPDEST SWAP1 PUSH0 MSTORE PUSH1 0x20 PUSH0 KECCAK256 SWAP1 PUSH1 0x5 MUL ADD PUSH1 0x1 ADD SLOAD GT PUSH2 0x1A29 JUMPI PUSH1 0x40 MLOAD PUSH32 0x8C379A000000000000000000000000000000000000000000000000000000000 DUP2 MSTORE PUSH1 0x4 ADD PUSH2 0x1A20 SWAP1 PUSH2 0x2C14 JUMP JUMPDEST PUSH1 0x40 MLOAD DUP1 SWAP2 SUB SWAP1 REVERT JUMPDEST PUSH0 PUSH1 0x8 PUSH0 CALLER PUSH20 0xFFFFFFFFFFFFFFFFFFFFFFFFFFFFFFFFFFFFFFFF AND PUSH20 0xFFFFFFFFFFFFFFFFFFFFFFFFFFFFFFFFFFFFFFFF AND DUP2 MSTORE PUSH1 0x20 ADD SWAP1 DUP2 MSTORE PUSH1 0x20 ADD PUSH0 KECCAK256 DUP5 DUP2 SLOAD DUP2 LT PUSH2 0x1A79 JUMPI PUSH2 0x1A78 PUSH2 0x2B35 JUMP JUMPDEST JUMPDEST SWAP1 PUSH0 MSTORE PUSH1 0x20 PUSH0 KECCAK256 SWAP1 PUSH1 0x5 MUL ADD SWAP1 POP PUSH0 PUSH2 0x1A92 CALLER DUP7 PUSH2 0x1D98 JUMP JUMPDEST SWAP1 POP PUSH0 DUP2 GT PUSH2 0x1AD6 JUMPI PUSH1 0x40 MLOAD PUSH32 0x8C379A000000000000000000000000000000000000000000000000000000000 DUP2 MSTORE PUSH1 0x4 ADD PUSH2 0x1ACD SWAP1 PUSH2 0x3064 JUMP JUMPDEST PUSH1 0x40 MLOAD DUP1 SWAP2 SUB SWAP1 REVERT JUMPDEST TIMESTAMP DUP3 PUSH1 0x3 ADD DUP2 SWAP1 SSTORE POP DUP2 PUSH1 0x4 ADD PUSH0 SWAP1 SLOAD SWAP1 PUSH2 0x100 EXP SWAP1 DIV PUSH1 0xFF AND ISZERO PUSH2 0x1B14 JUMPI DUP1 DUP3 PUSH1 0x1 ADD PUSH0 DUP3 DUP3 SLOAD PUSH2 0x1B08 SWAP2 SWAP1 PUSH2 0x2C32 JUMP JUMPDEST SWAP3 POP POP DUP2 SWAP1 SSTORE POP PUSH2 0x1B60 JUMP JUMPDEST PUSH2 0x1B5F CALLER DUP3 PUSH32 0x0 PUSH20 0xFFFFFFFFFFFFFFFFFFFFFFFFFFFFFFFFFFFFFFFF AND PUSH2 0x1F6E SWAP1 SWAP3 SWAP2 SWAP1 PUSH4 0xFFFFFFFF AND JUMP JUMPDEST JUMPDEST DUP5 CALLER PUSH20 0xFFFFFFFFFFFFFFFFFFFFFFFFFFFFFFFFFFFFFFFF AND PUSH32 0xF01DA32686223933D8A18A391060918C7F11A3648639EDD87AE013E2E2731743 DUP4 PUSH1 0x40 MLOAD PUSH2 0x1BA7 SWAP2 SWAP1 PUSH2 0x2546 JUMP JUMPDEST PUSH1 0x40 MLOAD DUP1 SWAP2 SUB SWAP1 LOG3 POP POP POP POP PUSH2 0x1BBB PUSH2 0x1FED JUMP JUMPDEST POP JUMP JUMPDEST PUSH2 0x2710 DUP2 JUMP JUMPDEST PUSH0 PUSH1 0x1 PUSH0 SWAP1 SLOAD SWAP1 PUSH2 0x100 EXP SWAP1 DIV PUSH20 0xFFFFFFFFFFFFFFFFFFFFFFFFFFFFFFFFFFFFFFFF AND SWAP1 POP SWAP1 JUMP JUMPDEST PUSH4 0x1E13380 DUP2 JUMP JUMPDEST PUSH2 0x1BFC PUSH2 0x1CC4 JUMP JUMPDEST DUP1 PUSH1 0x1 PUSH0 PUSH2 0x100 EXP DUP2 SLOAD DUP2 PUSH20 0xFFFFFFFFFFFFFFFFFFFFFFFFFFFFFFFFFFFFFFFF MUL NOT AND SWAP1 DUP4 PUSH20 0xFFFFFFFFFFFFFFFFFFFFFFFFFFFFFFFFFFFFFFFF AND MUL OR SWAP1 SSTORE POP DUP1 PUSH20 0xFFFFFFFFFFFFFFFFFFFFFFFFFFFFFFFFFFFFFFFF AND PUSH2 0x1C5B PUSH2 0x1483 JUMP JUMPDEST PUSH20 0xFFFFFFFFFFFFFFFFFFFFFFFFFFFFFFFFFFFFFFFF AND PUSH32 0x38D16B8CAC22D99FC7C124B9CD0DE2D3FA1FAEF420BFE791D8C362D765E22700 PUSH1 0x40 MLOAD PUSH1 0x40 MLOAD DUP1 SWAP2 SUB SWAP1 LOG3 POP JUMP JUMPDEST PUSH32 0x0 DUP2 JUMP JUMPDEST PUSH2 0x1CCC PUSH2 0x20EA JUMP JUMPDEST PUSH20 0xFFFFFFFFFFFFFFFFFFFFFFFFFFFFFFFFFFFFFFFF AND PUSH2 0x1CEA PUSH2 0x1483 JUMP JUMPDEST PUSH20 0xFFFFFFFFFFFFFFFFFFFFFFFFFFFFFFFFFFFFFFFF AND EQ PUSH2 0x1D49 JUMPI PUSH2 0x1D0D PUSH2 0x20EA JUMP JUMPDEST PUSH1 0x40 MLOAD PUSH32 0x118CDAA700000000000000000000000000000000000000000000000000000000 DUP2 MSTORE PUSH1 0x4 ADD PUSH2 0x1D40 SWAP2 SWAP1 PUSH2 0x2817 JUMP JUMPDEST PUSH1 0x40 MLOAD DUP1 SWAP2 SUB SWAP1 REVERT JUMPDEST JUMP JUMPDEST PUSH1 0x2 DUP1 SLOAD SUB PUSH2 0x1D8F JUMPI PUSH1 0x40 MLOAD PUSH32 0x8C379A000000000000000000000000000000000000000000000000000000000 DUP2 MSTORE PUSH1 0x4 ADD PUSH2 0x1D86 SWAP1 PUSH2 0x30CC JUMP JUMPDEST PUSH1 0x40 MLOAD DUP1 SWAP2 SUB SWAP1 REVERT JUMPDEST PUSH1 0x2 DUP1 DUP2 SWAP1 SSTORE POP JUMP JUMPDEST PUSH0 PUSH0 PUSH1 0x8 PUSH0 DUP6 PUSH20 0xFFFFFFFFFFFFFFFFFFFFFFFFFFFFFFFFFFFFFFFF AND PUSH20 0xFFFFFFFFFFFFFFFFFFFFFFFFFFFFFFFFFFFFFFFF AND DUP2 MSTORE PUSH1 0x20 ADD SWAP1 DUP2 MSTORE PUSH1 0x20 ADD PUSH0 KECCAK256 DUP4 DUP2 SLOAD DUP2 LT PUSH2 0x1DE9 JUMPI PUSH2 0x1DE8 PUSH2 0x2B35 JUMP JUMPDEST JUMPDEST SWAP1 PUSH0 MSTORE PUSH1 0x20 PUSH0 KECCAK256 SWAP1 PUSH1 0x5 MUL ADD PUSH1 0x40 MLOAD DUP1 PUSH1 0xA0 ADD PUSH1 0x40 MSTORE SWAP1 DUP2 PUSH0 DUP3 ADD SLOAD DUP2 MSTORE PUSH1 0x20 ADD PUSH1 0x1 DUP3 ADD SLOAD DUP2 MSTORE PUSH1 0x20 ADD PUSH1 0x2 DUP3 ADD SLOAD DUP2 MSTORE PUSH1 0x20 ADD PUSH1 0x3 DUP3 ADD SLOAD DUP2 MSTORE PUSH1 0x20 ADD PUSH1 0x4 DUP3 ADD PUSH0 SWAP1 SLOAD SWAP1 PUSH2 0x100 EXP SWAP1 DIV PUSH1 0xFF AND ISZERO ISZERO ISZERO ISZERO DUP2 MSTORE POP POP SWAP1 POP PUSH0 DUP2 PUSH1 0x20 ADD MLOAD SUB PUSH2 0x1E57 JUMPI PUSH0 SWAP2 POP POP PUSH2 0x1F68 JUMP JUMPDEST PUSH0 PUSH1 0x4 DUP3 PUSH0 ADD MLOAD DUP2 SLOAD DUP2 LT PUSH2 0x1E6F JUMPI PUSH2 0x1E6E PUSH2 0x2B35 JUMP JUMPDEST JUMPDEST SWAP1 PUSH0 MSTORE PUSH1 0x20 PUSH0 KECCAK256 SWAP1 PUSH1 0x5 MUL ADD PUSH1 0x40 MLOAD DUP1 PUSH1 0xA0 ADD PUSH1 0x40 MSTORE SWAP1 DUP2 PUSH0 DUP3 ADD PUSH0 SWAP1 SLOAD SWAP1 PUSH2 0x100 EXP SWAP1 DIV PUSH20 0xFFFFFFFFFFFFFFFFFFFFFFFFFFFFFFFFFFFFFFFF AND PUSH20 0xFFFFFFFFFFFFFFFFFFFFFFFFFFFFFFFFFFFFFFFF AND PUSH20 0xFFFFFFFFFFFFFFFFFFFFFFFFFFFFFFFFFFFFFFFF AND DUP2 MSTORE PUSH1 0x20 ADD PUSH1 0x1 DUP3 ADD SLOAD DUP2 MSTORE PUSH1 0x20 ADD PUSH1 0x2 DUP3 ADD SLOAD DUP2 MSTORE PUSH1 0x20 ADD PUSH1 0x3 DUP3 ADD SLOAD DUP2 MSTORE PUSH1 0x20 ADD PUSH1 0x4 DUP3 ADD PUSH0 SWAP1 SLOAD SWAP1 PUSH2 0x100 EXP SWAP1 DIV PUSH1 0xFF AND ISZERO ISZERO ISZERO ISZERO DUP2 MSTORE POP POP SWAP1 POP PUSH0 DUP3 PUSH1 0x60 ADD MLOAD TIMESTAMP PUSH2 0x1F25 SWAP2 SWAP1 PUSH2 0x2A57 JUMP JUMPDEST SWAP1 POP PUSH2 0x2710 PUSH4 0x1E13380 PUSH2 0x1F39 SWAP2 SWAP1 PUSH2 0x30EA JUMP JUMPDEST DUP2 DUP4 PUSH1 0x40 ADD MLOAD DUP6 PUSH1 0x20 ADD MLOAD PUSH2 0x1F4E SWAP2 SWAP1 PUSH2 0x30EA JUMP JUMPDEST PUSH2 0x1F58 SWAP2 SWAP1 PUSH2 0x30EA JUMP JUMPDEST PUSH2 0x1F62 SWAP2 SWAP1 PUSH2 0x3158 JUMP JUMPDEST SWAP4 POP POP POP POP JUMPDEST SWAP3 SWAP2 POP POP JUMP JUMPDEST PUSH2 0x1FE8 DUP4 DUP5 PUSH20 0xFFFFFFFFFFFFFFFFFFFFFFFFFFFFFFFFFFFFFFFF AND PUSH4 0xA9059CBB DUP6 DUP6 PUSH1 0x40 MLOAD PUSH1 0x24 ADD PUSH2 0x1FA1 SWAP3 SWAP2 SWAP1 PUSH2 0x2DC4 JUMP JUMPDEST PUSH1 0x40 MLOAD PUSH1 0x20 DUP2 DUP4 SUB SUB DUP2 MSTORE SWAP1 PUSH1 0x40 MSTORE SWAP2 POP PUSH1 0xE0 SHL PUSH1 0x20 DUP3 ADD DUP1 MLOAD PUSH28 0xFFFFFFFFFFFFFFFFFFFFFFFFFFFFFFFFFFFFFFFFFFFFFFFFFFFFFFFF DUP4 DUP2 DUP4 AND OR DUP4 MSTORE POP POP POP POP PUSH2 0x21BD JUMP JUMPDEST POP POP POP JUMP JUMPDEST PUSH1 0x1 PUSH1 0x2 DUP2 SWAP1 SSTORE POP JUMP JUMPDEST PUSH2 0x1FFF PUSH2 0x2258 JUMP JUMPDEST PUSH0 PUSH1 0x3 PUSH0 PUSH2 0x100 EXP DUP2 SLOAD DUP2 PUSH1 0xFF MUL NOT AND SWAP1 DUP4 ISZERO ISZERO MUL OR SWAP1 SSTORE POP PUSH32 0x5DB9EE0A495BF2E6FF9C91A7834C1BA4FDD244A5E8AA4E537BD38AEAE4B073AA PUSH2 0x2041 PUSH2 0x20EA JUMP JUMPDEST PUSH1 0x40 MLOAD PUSH2 0x204E SWAP2 SWAP1 PUSH2 0x2817 JUMP JUMPDEST PUSH1 0x40 MLOAD DUP1 SWAP2 SUB SWAP1 LOG1 JUMP JUMPDEST PUSH2 0x2060 PUSH2 0x20F1 JUMP JUMPDEST PUSH1 0x1 PUSH1 0x3 PUSH0 PUSH2 0x100 EXP DUP2 SLOAD DUP2 PUSH1 0xFF MUL NOT AND SWAP1 DUP4 ISZERO ISZERO MUL OR SWAP1 SSTORE POP PUSH32 0x62E78CEA01BEE320CD4E420270B5EA74000D11B0C9F74754EBDBFC544B05A258 PUSH2 0x20A3 PUSH2 0x20EA JUMP JUMPDEST PUSH1 0x40 MLOAD PUSH2 0x20B0 SWAP2 SWAP1 PUSH2 0x2817 JUMP JUMPDEST PUSH1 0x40 MLOAD DUP1 SWAP2 SUB SWAP1 LOG1 JUMP JUMPDEST PUSH1 0x1 PUSH0 PUSH2 0x100 EXP DUP2 SLOAD SWAP1 PUSH20 0xFFFFFFFFFFFFFFFFFFFFFFFFFFFFFFFFFFFFFFFF MUL NOT AND SWAP1 SSTORE PUSH2 0x20E7 DUP2 PUSH2 0x22A1 JUMP JUMPDEST POP JUMP JUMPDEST PUSH0 CALLER SWAP1 POP SWAP1 JUMP JUMPDEST PUSH2 0x20F9 PUSH2 0x103F JUMP JUMPDEST ISZERO PUSH2 0x2139 JUMPI PUSH1 0x40 MLOAD PUSH32 0x8C379A000000000000000000000000000000000000000000000000000000000 DUP2 MSTORE PUSH1 0x4 ADD PUSH2 0x2130 SWAP1 PUSH2 0x31D2 JUMP JUMPDEST PUSH1 0x40 MLOAD DUP1 SWAP2 SUB SWAP1 REVERT JUMPDEST JUMP JUMPDEST PUSH2 0x21B7 DUP5 DUP6 PUSH20 0xFFFFFFFFFFFFFFFFFFFFFFFFFFFFFFFFFFFFFFFF AND PUSH4 0x23B872DD DUP7 DUP7 DUP7 PUSH1 0x40 MLOAD PUSH1 0x24 ADD PUSH2 0x2170 SWAP4 SWAP3 SWAP2 SWAP1 PUSH2 0x31F0 JUMP JUMPDEST PUSH1 0x40 MLOAD PUSH1 0x20 DUP2 DUP4 SUB SUB DUP2 MSTORE SWAP1 PUSH1 0x40 MSTORE SWAP2 POP PUSH1 0xE0 SHL PUSH1 0x20 DUP3 ADD DUP1 MLOAD PUSH28 0xFFFFFFFFFFFFFFFFFFFFFFFFFFFFFFFFFFFFFFFFFFFFFFFFFFFFFFFF DUP4 DUP2 DUP4 AND OR DUP4 MSTORE POP POP POP POP PUSH2 0x21BD JUMP JUMPDEST POP POP POP POP JUMP JUMPDEST PUSH0 PUSH0 PUSH1 0x20 PUSH0 DUP5 MLOAD PUSH1 0x20 DUP7 ADD PUSH0 DUP9 GAS CALL DUP1 PUSH2 0x21DC JUMPI PUSH1 0x40 MLOAD RETURNDATASIZE PUSH0 DUP3 RETURNDATACOPY RETURNDATASIZE DUP2 REVERT JUMPDEST RETURNDATASIZE SWAP3 POP PUSH0 MLOAD SWAP2 POP POP PUSH0 DUP3 EQ PUSH2 0x21F5 JUMPI PUSH1 0x1 DUP2 EQ ISZERO PUSH2 0x2210 JUMP JUMPDEST PUSH0 DUP5 PUSH20 0xFFFFFFFFFFFFFFFFFFFFFFFFFFFFFFFFFFFFFFFF AND EXTCODESIZE EQ JUMPDEST ISZERO PUSH2 0x2252 JUMPI DUP4 PUSH1 0x40 MLOAD PUSH32 0x5274AFE700000000000000000000000000000000000000000000000000000000 DUP2 MSTORE PUSH1 0x4 ADD PUSH2 0x2249 SWAP2 SWAP1 PUSH2 0x2817 JUMP JUMPDEST PUSH1 0x40 MLOAD DUP1 SWAP2 SUB SWAP1 REVERT JUMPDEST POP POP POP POP JUMP JUMPDEST PUSH2 0x2260 PUSH2 0x103F JUMP JUMPDEST PUSH2 0x229F JUMPI PUSH1 0x40 MLOAD PUSH32 0x8C379A000000000000000000000000000000000000000000000000000000000 DUP2 MSTORE PUSH1 0x4 ADD PUSH2 0x2296 SWAP1 PUSH2 0x326F JUMP JUMPDEST PUSH1 0x40 MLOAD DUP1 SWAP2 SUB SWAP1 REVERT JUMPDEST JUMP JUMPDEST PUSH0 PUSH0 PUSH0 SWAP1 SLOAD SWAP1 PUSH2 0x100 EXP SWAP1 DIV PUSH20 0xFFFFFFFFFFFFFFFFFFFFFFFFFFFFFFFFFFFFFFFF AND SWAP1 POP DUP2 PUSH0 PUSH0 PUSH2 0x100 EXP DUP2 SLOAD DUP2 PUSH20 0xFFFFFFFFFFFFFFFFFFFFFFFFFFFFFFFFFFFFFFFF MUL NOT AND SWAP1 DUP4 PUSH20 0xFFFFFFFFFFFFFFFFFFFFFFFFFFFFFFFFFFFFFFFF AND MUL OR SWAP1 SSTORE POP DUP2 PUSH20 0xFFFFFFFFFFFFFFFFFFFFFFFFFFFFFFFFFFFFFFFF AND DUP2 PUSH20 0xFFFFFFFFFFFFFFFFFFFFFFFFFFFFFFFFFFFFFFFF AND PUSH32 0x8BE0079C531659141344CD1FD0A4F28419497F9722A3DAAFE3B4186F6B6457E0 PUSH1 0x40 MLOAD PUSH1 0x40 MLOAD DUP1 SWAP2 SUB SWAP1 LOG3 POP POP JUMP JUMPDEST PUSH1 0x40 MLOAD DUP1 PUSH1 0xA0 ADD PUSH1 0x40 MSTORE DUP1 PUSH0 PUSH20 0xFFFFFFFFFFFFFFFFFFFFFFFFFFFFFFFFFFFFFFFF AND DUP2 MSTORE PUSH1 0x20 ADD PUSH0 DUP2 MSTORE PUSH1 0x20 ADD PUSH0 DUP2 MSTORE PUSH1 0x20 ADD PUSH0 DUP2 MSTORE PUSH1 0x20 ADD PUSH0 ISZERO ISZERO DUP2 MSTORE POP SWAP1 JUMP JUMPDEST PUSH0 PUSH0 REVERT JUMPDEST PUSH0 PUSH20 0xFFFFFFFFFFFFFFFFFFFFFFFFFFFFFFFFFFFFFFFF DUP3 AND SWAP1 POP SWAP2 SWAP1 POP JUMP JUMPDEST PUSH0 PUSH2 0x23D1 DUP3 PUSH2 0x23A8 JUMP JUMPDEST SWAP1 POP SWAP2 SWAP1 POP JUMP JUMPDEST PUSH2 0x23E1 DUP2 PUSH2 0x23C7 JUMP JUMPDEST DUP2 EQ PUSH2 0x23EB JUMPI PUSH0 PUSH0 REVERT JUMPDEST POP JUMP JUMPDEST PUSH0 DUP2 CALLDATALOAD SWAP1 POP PUSH2 0x23FC DUP2 PUSH2 0x23D8 JUMP JUMPDEST SWAP3 SWAP2 POP POP JUMP JUMPDEST PUSH0 DUP2 SWAP1 POP SWAP2 SWAP1 POP JUMP JUMPDEST PUSH2 0x2414 DUP2 PUSH2 0x2402 JUMP JUMPDEST DUP2 EQ PUSH2 0x241E JUMPI PUSH0 PUSH0 REVERT JUMPDEST POP JUMP JUMPDEST PUSH0 DUP2 CALLDATALOAD SWAP1 POP PUSH2 0x242F DUP2 PUSH2 0x240B JUMP JUMPDEST SWAP3 SWAP2 POP POP JUMP JUMPDEST PUSH0 PUSH0 PUSH0 PUSH0 PUSH1 0x80 DUP6 DUP8 SUB SLT ISZERO PUSH2 0x244D JUMPI PUSH2 0x244C PUSH2 0x23A4 JUMP JUMPDEST JUMPDEST PUSH0 PUSH2 0x245A DUP8 DUP3 DUP9 ADD PUSH2 0x23EE JUMP JUMPDEST SWAP5 POP POP PUSH1 0x20 PUSH2 0x246B DUP8 DUP3 DUP9 ADD PUSH2 0x2421 JUMP JUMPDEST SWAP4 POP POP PUSH1 0x40 PUSH2 0x247C DUP8 DUP3 DUP9 ADD PUSH2 0x2421 JUMP JUMPDEST SWAP3 POP POP PUSH1 0x60 PUSH2 0x248D DUP8 DUP3 DUP9 ADD PUSH2 0x2421 JUMP JUMPDEST SWAP2 POP POP SWAP3 SWAP6 SWAP2 SWAP5 POP SWAP3 POP JUMP JUMPDEST PUSH0 DUP2 ISZERO ISZERO SWAP1 POP SWAP2 SWAP1 POP JUMP JUMPDEST PUSH2 0x24AD DUP2 PUSH2 0x2499 JUMP JUMPDEST DUP2 EQ PUSH2 0x24B7 JUMPI PUSH0 PUSH0 REVERT JUMPDEST POP JUMP JUMPDEST PUSH0 DUP2 CALLDATALOAD SWAP1 POP PUSH2 0x24C8 DUP2 PUSH2 0x24A4 JUMP JUMPDEST SWAP3 SWAP2 POP POP JUMP JUMPDEST PUSH0 PUSH0 PUSH1 0x40 DUP4 DUP6 SUB SLT ISZERO PUSH2 0x24E4 JUMPI PUSH2 0x24E3 PUSH2 0x23A4 JUMP JUMPDEST JUMPDEST PUSH0 PUSH2 0x24F1 DUP6 DUP3 DUP7 ADD PUSH2 0x2421 JUMP JUMPDEST SWAP3 POP POP PUSH1 0x20 PUSH2 0x2502 DUP6 DUP3 DUP7 ADD PUSH2 0x24BA JUMP JUMPDEST SWAP2 POP POP SWAP3 POP SWAP3 SWAP1 POP JUMP JUMPDEST PUSH0 PUSH1 0x20 DUP3 DUP5 SUB SLT ISZERO PUSH2 0x2521 JUMPI PUSH2 0x2520 PUSH2 0x23A4 JUMP JUMPDEST JUMPDEST PUSH0 PUSH2 0x252E DUP5 DUP3 DUP6 ADD PUSH2 0x2421 JUMP JUMPDEST SWAP2 POP POP SWAP3 SWAP2 POP POP JUMP JUMPDEST PUSH2 0x2540 DUP2 PUSH2 0x2402 JUMP JUMPDEST DUP3 MSTORE POP POP JUMP JUMPDEST PUSH0 PUSH1 0x20 DUP3 ADD SWAP1 POP PUSH2 0x2559 PUSH0 DUP4 ADD DUP5 PUSH2 0x2537 JUMP JUMPDEST SWAP3 SWAP2 POP POP JUMP JUMPDEST PUSH2 0x2568 DUP2 PUSH2 0x2499 JUMP JUMPDEST DUP3 MSTORE POP POP JUMP JUMPDEST PUSH0 PUSH1 0x20 DUP3 ADD SWAP1 POP PUSH2 0x2581 PUSH0 DUP4 ADD DUP5 PUSH2 0x255F JUMP JUMPDEST SWAP3 SWAP2 POP POP JUMP JUMPDEST PUSH2 0x2590 DUP2 PUSH2 0x23C7 JUMP JUMPDEST DUP3 MSTORE POP POP JUMP JUMPDEST PUSH2 0x259F DUP2 PUSH2 0x2402 JUMP JUMPDEST DUP3 MSTORE POP POP JUMP JUMPDEST PUSH2 0x25AE DUP2 PUSH2 0x2499 JUMP JUMPDEST DUP3 MSTORE POP POP JUMP JUMPDEST PUSH1 0xA0 DUP3 ADD PUSH0 DUP3 ADD MLOAD PUSH2 0x25C8 PUSH0 DUP6 ADD DUP3 PUSH2 0x2587 JUMP JUMPDEST POP PUSH1 0x20 DUP3 ADD MLOAD PUSH2 0x25DB PUSH1 0x20 DUP6 ADD DUP3 PUSH2 0x2596 JUMP JUMPDEST POP PUSH1 0x40 DUP3 ADD MLOAD PUSH2 0x25EE PUSH1 0x40 DUP6 ADD DUP3 PUSH2 0x2596 JUMP JUMPDEST POP PUSH1 0x60 DUP3 ADD MLOAD PUSH2 0x2601 PUSH1 0x60 DUP6 ADD DUP3 PUSH2 0x2596 JUMP JUMPDEST POP PUSH1 0x80 DUP3 ADD MLOAD PUSH2 0x2614 PUSH1 0x80 DUP6 ADD DUP3 PUSH2 0x25A5 JUMP JUMPDEST POP POP POP POP JUMP JUMPDEST PUSH0 PUSH1 0xA0 DUP3 ADD SWAP1 POP PUSH2 0x262D PUSH0 DUP4 ADD DUP5 PUSH2 0x25B4 JUMP JUMPDEST SWAP3 SWAP2 POP POP JUMP JUMPDEST PUSH0 PUSH0 PUSH1 0x40 DUP4 DUP6 SUB SLT ISZERO PUSH2 0x2649 JUMPI PUSH2 0x2648 PUSH2 0x23A4 JUMP JUMPDEST JUMPDEST PUSH0 PUSH2 0x2656 DUP6 DUP3 DUP7 ADD PUSH2 0x2421 JUMP JUMPDEST SWAP3 POP POP PUSH1 0x20 PUSH2 0x2667 DUP6 DUP3 DUP7 ADD PUSH2 0x2421 JUMP JUMPDEST SWAP2 POP POP SWAP3 POP SWAP3 SWAP1 POP JUMP JUMPDEST PUSH0 PUSH0 PUSH1 0x40 DUP4 DUP6 SUB SLT ISZERO PUSH2 0x2687 JUMPI PUSH2 0x2686 PUSH2 0x23A4 JUMP JUMPDEST JUMPDEST PUSH0 PUSH2 0x2694 DUP6 DUP3 DUP7 ADD PUSH2 0x23EE JUMP JUMPDEST SWAP3 POP POP PUSH1 0x20 PUSH2 0x26A5 DUP6 DUP3 DUP7 ADD PUSH2 0x2421 JUMP JUMPDEST SWAP2 POP POP SWAP3 POP SWAP3 SWAP1 POP JUMP JUMPDEST PUSH0 PUSH1 0x20 DUP3 DUP5 SUB SLT ISZERO PUSH2 0x26C4 JUMPI PUSH2 0x26C3 PUSH2 0x23A4 JUMP JUMPDEST JUMPDEST PUSH0 PUSH2 0x26D1 DUP5 DUP3 DUP6 ADD PUSH2 0x23EE JUMP JUMPDEST SWAP2 POP POP SWAP3 SWAP2 POP POP JUMP JUMPDEST PUSH0 DUP2 MLOAD SWAP1 POP SWAP2 SWAP1 POP JUMP JUMPDEST PUSH0 DUP3 DUP3 MSTORE PUSH1 0x20 DUP3 ADD SWAP1 POP SWAP3 SWAP2 POP POP JUMP JUMPDEST PUSH0 DUP2 SWAP1 POP PUSH1 0x20 DUP3 ADD SWAP1 POP SWAP2 SWAP1 POP JUMP JUMPDEST PUSH1 0xA0 DUP3 ADD PUSH0 DUP3 ADD MLOAD PUSH2 0x2717 PUSH0 DUP6 ADD DUP3 PUSH2 0x2596 JUMP JUMPDEST POP PUSH1 0x20 DUP3 ADD MLOAD PUSH2 0x272A PUSH1 0x20 DUP6 ADD DUP3 PUSH2 0x2596 JUMP JUMPDEST POP PUSH1 0x40 DUP3 ADD MLOAD PUSH2 0x273D PUSH1 0x40 DUP6 ADD DUP3 PUSH2 0x2596 JUMP JUMPDEST POP PUSH1 0x60 DUP3 ADD MLOAD PUSH2 0x2750 PUSH1 0x60 DUP6 ADD DUP3 PUSH2 0x2596 JUMP JUMPDEST POP PUSH1 0x80 DUP3 ADD MLOAD PUSH2 0x2763 PUSH1 0x80 DUP6 ADD DUP3 PUSH2 0x25A5 JUMP JUMPDEST POP POP POP POP JUMP JUMPDEST PUSH0 PUSH2 0x2774 DUP4 DUP4 PUSH2 0x2703 JUMP JUMPDEST PUSH1 0xA0 DUP4 ADD SWAP1 POP SWAP3 SWAP2 POP POP JUMP JUMPDEST PUSH0 PUSH1 0x20 DUP3 ADD SWAP1 POP SWAP2 SWAP1 POP JUMP JUMPDEST PUSH0 PUSH2 0x2796 DUP3 PUSH2 0x26DA JUMP JUMPDEST PUSH2 0x27A0 DUP2 DUP6 PUSH2 0x26E4 JUMP JUMPDEST SWAP4 POP PUSH2 0x27AB DUP4 PUSH2 0x26F4 JUMP JUMPDEST DUP1 PUSH0 JUMPDEST DUP4 DUP2 LT ISZERO PUSH2 0x27DB JUMPI DUP2 MLOAD PUSH2 0x27C2 DUP9 DUP3 PUSH2 0x2769 JUMP JUMPDEST SWAP8 POP PUSH2 0x27CD DUP4 PUSH2 0x2780 JUMP JUMPDEST SWAP3 POP POP PUSH1 0x1 DUP2 ADD SWAP1 POP PUSH2 0x27AE JUMP JUMPDEST POP DUP6 SWAP4 POP POP POP POP SWAP3 SWAP2 POP POP JUMP JUMPDEST PUSH0 PUSH1 0x20 DUP3 ADD SWAP1 POP DUP2 DUP2 SUB PUSH0 DUP4 ADD MSTORE PUSH2 0x2800 DUP2 DUP5 PUSH2 0x278C JUMP JUMPDEST SWAP1 POP SWAP3 SWAP2 POP POP JUMP JUMPDEST PUSH2 0x2811 DUP2 PUSH2 0x23C7 JUMP JUMPDEST DUP3 MSTORE POP POP JUMP JUMPDEST PUSH0 PUSH1 0x20 DUP3 ADD SWAP1 POP PUSH2 0x282A PUSH0 DUP4 ADD DUP5 PUSH2 0x2808 JUMP JUMPDEST SWAP3 SWAP2 POP POP JUMP JUMPDEST PUSH0 PUSH0 PUSH1 0x40 DUP4 DUP6 SUB SLT ISZERO PUSH2 0x2846 JUMPI PUSH2 0x2845 PUSH2 0x23A4 JUMP JUMPDEST JUMPDEST PUSH0 PUSH2 0x2853 DUP6 DUP3 DUP7 ADD PUSH2 0x2421 JUMP JUMPDEST SWAP3 POP POP PUSH1 0x20 PUSH2 0x2864 DUP6 DUP3 DUP7 ADD PUSH2 0x23EE JUMP JUMPDEST SWAP2 POP POP SWAP3 POP SWAP3 SWAP1 POP JUMP JUMPDEST PUSH0 DUP2 SWAP1 POP SWAP2 SWAP1 POP JUMP JUMPDEST PUSH0 PUSH2 0x2891 PUSH2 0x288C PUSH2 0x2887 DUP5 PUSH2 0x23A8 JUMP JUMPDEST PUSH2 0x286E JUMP JUMPDEST PUSH2 0x23A8 JUMP JUMPDEST SWAP1 POP SWAP2 SWAP1 POP JUMP JUMPDEST PUSH0 PUSH2 0x28A2 DUP3 PUSH2 0x2877 JUMP JUMPDEST SWAP1 POP SWAP2 SWAP1 POP JUMP JUMPDEST PUSH0 PUSH2 0x28B3 DUP3 PUSH2 0x2898 JUMP JUMPDEST SWAP1 POP SWAP2 SWAP1 POP JUMP JUMPDEST PUSH2 0x28C3 DUP2 PUSH2 0x28A9 JUMP JUMPDEST DUP3 MSTORE POP POP JUMP JUMPDEST PUSH0 PUSH1 0x20 DUP3 ADD SWAP1 POP PUSH2 0x28DC PUSH0 DUP4 ADD DUP5 PUSH2 0x28BA JUMP JUMPDEST SWAP3 SWAP2 POP POP JUMP JUMPDEST PUSH0 DUP3 DUP3 MSTORE PUSH1 0x20 DUP3 ADD SWAP1 POP SWAP3 SWAP2 POP POP JUMP JUMPDEST PUSH32 0x496E76616C6964207374616B6520746F6B656E00000000000000000000000000 PUSH0 DUP3 ADD MSTORE POP JUMP JUMPDEST PUSH0 PUSH2 0x2926 PUSH1 0x13 DUP4 PUSH2 0x28E2 JUMP JUMPDEST SWAP2 POP PUSH2 0x2931 DUP3 PUSH2 0x28F2 JUMP JUMPDEST PUSH1 0x20 DUP3 ADD SWAP1 POP SWAP2 SWAP1 POP JUMP JUMPDEST PUSH0 PUSH1 0x20 DUP3 ADD SWAP1 POP DUP2 DUP2 SUB PUSH0 DUP4 ADD MSTORE PUSH2 0x2953 DUP2 PUSH2 0x291A JUMP JUMPDEST SWAP1 POP SWAP2 SWAP1 POP JUMP JUMPDEST PUSH32 0x496E76616C6964206475726174696F6E00000000000000000000000000000000 PUSH0 DUP3 ADD MSTORE POP JUMP JUMPDEST PUSH0 PUSH2 0x298E PUSH1 0x10 DUP4 PUSH2 0x28E2 JUMP JUMPDEST SWAP2 POP PUSH2 0x2999 DUP3 PUSH2 0x295A JUMP JUMPDEST PUSH1 0x20 DUP3 ADD SWAP1 POP SWAP2 SWAP1 POP JUMP JUMPDEST PUSH0 PUSH1 0x20 DUP3 ADD SWAP1 POP DUP2 DUP2 SUB PUSH0 DUP4 ADD MSTORE PUSH2 0x29BB DUP2 PUSH2 0x2982 JUMP JUMPDEST SWAP1 POP SWAP2 SWAP1 POP JUMP JUMPDEST PUSH32 0x496E76616C696420415059000000000000000000000000000000000000000000 PUSH0 DUP3 ADD MSTORE POP JUMP JUMPDEST PUSH0 PUSH2 0x29F6 PUSH1 0xB DUP4 PUSH2 0x28E2 JUMP JUMPDEST SWAP2 POP PUSH2 0x2A01 DUP3 PUSH2 0x29C2 JUMP JUMPDEST PUSH1 0x20 DUP3 ADD SWAP1 POP SWAP2 SWAP1 POP JUMP JUMPDEST PUSH0 PUSH1 0x20 DUP3 ADD SWAP1 POP DUP2 DUP2 SUB PUSH0 DUP4 ADD MSTORE PUSH2 0x2A23 DUP2 PUSH2 0x29EA JUMP JUMPDEST SWAP1 POP SWAP2 SWAP1 POP JUMP JUMPDEST PUSH32 0x4E487B7100000000000000000000000000000000000000000000000000000000 PUSH0 MSTORE PUSH1 0x11 PUSH1 0x4 MSTORE PUSH1 0x24 PUSH0 REVERT JUMPDEST PUSH0 PUSH2 0x2A61 DUP3 PUSH2 0x2402 JUMP JUMPDEST SWAP2 POP PUSH2 0x2A6C DUP4 PUSH2 0x2402 JUMP JUMPDEST SWAP3 POP DUP3 DUP3 SUB SWAP1 POP DUP2 DUP2 GT ISZERO PUSH2 0x2A84 JUMPI PUSH2 0x2A83 PUSH2 0x2A2A JUMP JUMPDEST JUMPDEST SWAP3 SWAP2 POP POP JUMP JUMPDEST PUSH0 PUSH1 0x80 DUP3 ADD SWAP1 POP PUSH2 0x2A9D PUSH0 DUP4 ADD DUP8 PUSH2 0x2808 JUMP JUMPDEST PUSH2 0x2AAA PUSH1 0x20 DUP4 ADD DUP7 PUSH2 0x2537 JUMP JUMPDEST PUSH2 0x2AB7 PUSH1 0x40 DUP4 ADD DUP6 PUSH2 0x2537 JUMP JUMPDEST PUSH2 0x2AC4 PUSH1 0x60 DUP4 ADD DUP5 PUSH2 0x2537 JUMP JUMPDEST SWAP6 SWAP5 POP POP POP POP POP JUMP JUMPDEST PUSH32 0x496E76616C6964207061636B6167652049440000000000000000000000000000 PUSH0 DUP3 ADD MSTORE POP JUMP JUMPDEST PUSH0 PUSH2 0x2B01 PUSH1 0x12 DUP4 PUSH2 0x28E2 JUMP JUMPDEST SWAP2 POP PUSH2 0x2B0C DUP3 PUSH2 0x2ACD JUMP JUMPDEST PUSH1 0x20 DUP3 ADD SWAP1 POP SWAP2 SWAP1 POP JUMP JUMPDEST PUSH0 PUSH1 0x20 DUP3 ADD SWAP1 POP DUP2 DUP2 SUB PUSH0 DUP4 ADD MSTORE PUSH2 0x2B2E DUP2 PUSH2 0x2AF5 JUMP JUMPDEST SWAP1 POP SWAP2 SWAP1 POP JUMP JUMPDEST PUSH32 0x4E487B7100000000000000000000000000000000000000000000000000000000 PUSH0 MSTORE PUSH1 0x32 PUSH1 0x4 MSTORE PUSH1 0x24 PUSH0 REVERT JUMPDEST PUSH32 0x496E76616C6964207374616B6520494400000000000000000000000000000000 PUSH0 DUP3 ADD MSTORE POP JUMP JUMPDEST PUSH0 PUSH2 0x2B96 PUSH1 0x10 DUP4 PUSH2 0x28E2 JUMP JUMPDEST SWAP2 POP PUSH2 0x2BA1 DUP3 PUSH2 0x2B62 JUMP JUMPDEST PUSH1 0x20 DUP3 ADD SWAP1 POP SWAP2 SWAP1 POP JUMP JUMPDEST PUSH0 PUSH1 0x20 DUP3 ADD SWAP1 POP DUP2 DUP2 SUB PUSH0 DUP4 ADD MSTORE PUSH2 0x2BC3 DUP2 PUSH2 0x2B8A JUMP JUMPDEST SWAP1 POP SWAP2 SWAP1 POP JUMP JUMPDEST PUSH32 0x496E616374697665207374616B65000000000000000000000000000000000000 PUSH0 DUP3 ADD MSTORE POP JUMP JUMPDEST PUSH0 PUSH2 0x2BFE PUSH1 0xE DUP4 PUSH2 0x28E2 JUMP JUMPDEST SWAP2 POP PUSH2 0x2C09 DUP3 PUSH2 0x2BCA JUMP JUMPDEST PUSH1 0x20 DUP3 ADD SWAP1 POP SWAP2 SWAP1 POP JUMP JUMPDEST PUSH0 PUSH1 0x20 DUP3 ADD SWAP1 POP DUP2 DUP2 SUB PUSH0 DUP4 ADD MSTORE PUSH2 0x2C2B DUP2 PUSH2 0x2BF2 JUMP JUMPDEST SWAP1 POP SWAP2 SWAP1 POP JUMP JUMPDEST PUSH0 PUSH2 0x2C3C DUP3 PUSH2 0x2402 JUMP JUMPDEST SWAP2 POP PUSH2 0x2C47 DUP4 PUSH2 0x2402 JUMP JUMPDEST SWAP3 POP DUP3 DUP3 ADD SWAP1 POP DUP1 DUP3 GT ISZERO PUSH2 0x2C5F JUMPI PUSH2 0x2C5E PUSH2 0x2A2A JUMP JUMPDEST JUMPDEST SWAP3 SWAP2 POP POP JUMP JUMPDEST PUSH32 0x5374616B65207374696C6C206C6F636B65640000000000000000000000000000 PUSH0 DUP3 ADD MSTORE POP JUMP JUMPDEST PUSH0 PUSH2 0x2C99 PUSH1 0x12 DUP4 PUSH2 0x28E2 JUMP JUMPDEST SWAP2 POP PUSH2 0x2CA4 DUP3 PUSH2 0x2C65 JUMP JUMPDEST PUSH1 0x20 DUP3 ADD SWAP1 POP SWAP2 SWAP1 POP JUMP JUMPDEST PUSH0 PUSH1 0x20 DUP3 ADD SWAP1 POP DUP2 DUP2 SUB PUSH0 DUP4 ADD MSTORE PUSH2 0x2CC6 DUP2 PUSH2 0x2C8D JUMP JUMPDEST SWAP1 POP SWAP2 SWAP1 POP JUMP JUMPDEST PUSH0 PUSH1 0x40 DUP3 ADD SWAP1 POP PUSH2 0x2CE0 PUSH0 DUP4 ADD DUP6 PUSH2 0x2537 JUMP JUMPDEST PUSH2 0x2CED PUSH1 0x20 DUP4 ADD DUP5 PUSH2 0x2537 JUMP JUMPDEST SWAP4 SWAP3 POP POP POP JUMP JUMPDEST PUSH32 0x4E6F7420617574686F72697A6564000000000000000000000000000000000000 PUSH0 DUP3 ADD MSTORE POP JUMP JUMPDEST PUSH0 PUSH2 0x2D28 PUSH1 0xE DUP4 PUSH2 0x28E2 JUMP JUMPDEST SWAP2 POP PUSH2 0x2D33 DUP3 PUSH2 0x2CF4 JUMP JUMPDEST PUSH1 0x20 DUP3 ADD SWAP1 POP SWAP2 SWAP1 POP JUMP JUMPDEST PUSH0 PUSH1 0x20 DUP3 ADD SWAP1 POP DUP2 DUP2 SUB PUSH0 DUP4 ADD MSTORE PUSH2 0x2D55 DUP2 PUSH2 0x2D1C JUMP JUMPDEST SWAP1 POP SWAP2 SWAP1 POP JUMP JUMPDEST PUSH32 0x4E6F206665657320617661696C61626C65000000000000000000000000000000 PUSH0 DUP3 ADD MSTORE POP JUMP JUMPDEST PUSH0 PUSH2 0x2D90 PUSH1 0x11 DUP4 PUSH2 0x28E2 JUMP JUMPDEST SWAP2 POP PUSH2 0x2D9B DUP3 PUSH2 0x2D5C JUMP JUMPDEST PUSH1 0x20 DUP3 ADD SWAP1 POP SWAP2 SWAP1 POP JUMP JUMPDEST PUSH0 PUSH1 0x20 DUP3 ADD SWAP1 POP DUP2 DUP2 SUB PUSH0 DUP4 ADD MSTORE PUSH2 0x2DBD DUP2 PUSH2 0x2D84 JUMP JUMPDEST SWAP1 POP SWAP2 SWAP1 POP JUMP JUMPDEST PUSH0 PUSH1 0x40 DUP3 ADD SWAP1 POP PUSH2 0x2DD7 PUSH0 DUP4 ADD DUP6 PUSH2 0x2808 JUMP JUMPDEST PUSH2 0x2DE4 PUSH1 0x20 DUP4 ADD DUP5 PUSH2 0x2537 JUMP JUMPDEST SWAP4 SWAP3 POP POP POP JUMP JUMPDEST PUSH32 0x46656520746F6F20686967680000000000000000000000000000000000000000 PUSH0 DUP3 ADD MSTORE POP JUMP JUMPDEST PUSH0 PUSH2 0x2E1F PUSH1 0xC DUP4 PUSH2 0x28E2 JUMP JUMPDEST SWAP2 POP PUSH2 0x2E2A DUP3 PUSH2 0x2DEB JUMP JUMPDEST PUSH1 0x20 DUP3 ADD SWAP1 POP SWAP2 SWAP1 POP JUMP JUMPDEST PUSH0 PUSH1 0x20 DUP3 ADD SWAP1 POP DUP2 DUP2 SUB PUSH0 DUP4 ADD MSTORE PUSH2 0x2E4C DUP2 PUSH2 0x2E13 JUMP JUMPDEST SWAP1 POP SWAP2 SWAP1 POP JUMP JUMPDEST PUSH32 0x496E76616C696420636F6C6C6563746F72000000000000000000000000000000 PUSH0 DUP3 ADD MSTORE POP JUMP JUMPDEST PUSH0 PUSH2 0x2E87 PUSH1 0x11 DUP4 PUSH2 0x28E2 JUMP JUMPDEST SWAP2 POP PUSH2 0x2E92 DUP3 PUSH2 0x2E53 JUMP JUMPDEST PUSH1 0x20 DUP3 ADD SWAP1 POP SWAP2 SWAP1 POP JUMP JUMPDEST PUSH0 PUSH1 0x20 DUP3 ADD SWAP1 POP DUP2 DUP2 SUB PUSH0 DUP4 ADD MSTORE PUSH2 0x2EB4 DUP2 PUSH2 0x2E7B JUMP JUMPDEST SWAP1 POP SWAP2 SWAP1 POP JUMP JUMPDEST PUSH0 PUSH1 0x40 DUP3 ADD SWAP1 POP PUSH2 0x2ECE PUSH0 DUP4 ADD DUP6 PUSH2 0x2537 JUMP JUMPDEST PUSH2 0x2EDB PUSH1 0x20 DUP4 ADD DUP5 PUSH2 0x2808 JUMP JUMPDEST SWAP4 SWAP3 POP POP POP JUMP JUMPDEST PUSH32 0x416D6F756E74206D75737420626520706F736974697665000000000000000000 PUSH0 DUP3 ADD MSTORE POP JUMP JUMPDEST PUSH0 PUSH2 0x2F16 PUSH1 0x17 DUP4 PUSH2 0x28E2 JUMP JUMPDEST SWAP2 POP PUSH2 0x2F21 DUP3 PUSH2 0x2EE2 JUMP JUMPDEST PUSH1 0x20 DUP3 ADD SWAP1 POP SWAP2 SWAP1 POP JUMP JUMPDEST PUSH0 PUSH1 0x20 DUP3 ADD SWAP1 POP DUP2 DUP2 SUB PUSH0 DUP4 ADD MSTORE PUSH2 0x2F43 DUP2 PUSH2 0x2F0A JUMP JUMPDEST SWAP1 POP SWAP2 SWAP1 POP JUMP JUMPDEST PUSH32 0x5061636B61676520696E61637469766500000000000000000000000000000000 PUSH0 DUP3 ADD MSTORE POP JUMP JUMPDEST PUSH0 PUSH2 0x2F7E PUSH1 0x10 DUP4 PUSH2 0x28E2 JUMP JUMPDEST SWAP2 POP PUSH2 0x2F89 DUP3 PUSH2 0x2F4A JUMP JUMPDEST PUSH1 0x20 DUP3 ADD SWAP1 POP SWAP2 SWAP1 POP JUMP JUMPDEST PUSH0 PUSH1 0x20 DUP3 ADD SWAP1 POP DUP2 DUP2 SUB PUSH0 DUP4 ADD MSTORE PUSH2 0x2FAB DUP2 PUSH2 0x2F72 JUMP JUMPDEST SWAP1 POP SWAP2 SWAP1 POP JUMP JUMPDEST PUSH32 0x496E73756666696369656E74207374616B6520616D6F756E7400000000000000 PUSH0 DUP3 ADD MSTORE POP JUMP JUMPDEST PUSH0 PUSH2 0x2FE6 PUSH1 0x19 DUP4 PUSH2 0x28E2 JUMP JUMPDEST SWAP2 POP PUSH2 0x2FF1 DUP3 PUSH2 0x2FB2 JUMP JUMPDEST PUSH1 0x20 DUP3 ADD SWAP1 POP SWAP2 SWAP1 POP JUMP JUMPDEST PUSH0 PUSH1 0x20 DUP3 ADD SWAP1 POP DUP2 DUP2 SUB PUSH0 DUP4 ADD MSTORE PUSH2 0x3013 DUP2 PUSH2 0x2FDA JUMP JUMPDEST SWAP1 POP SWAP2 SWAP1 POP JUMP JUMPDEST PUSH32 0x4E6F207265776172647320617661696C61626C65000000000000000000000000 PUSH0 DUP3 ADD MSTORE POP JUMP JUMPDEST PUSH0 PUSH2 0x304E PUSH1 0x14 DUP4 PUSH2 0x28E2 JUMP JUMPDEST SWAP2 POP PUSH2 0x3059 DUP3 PUSH2 0x301A JUMP JUMPDEST PUSH1 0x20 DUP3 ADD SWAP1 POP SWAP2 SWAP1 POP JUMP JUMPDEST PUSH0 PUSH1 0x20 DUP3 ADD SWAP1 POP DUP2 DUP2 SUB PUSH0 DUP4 ADD MSTORE PUSH2 0x307B DUP2 PUSH2 0x3042 JUMP JUMPDEST SWAP1 POP SWAP2 SWAP1 POP JUMP JUMPDEST PUSH32 0x5265656E7472616E637947756172643A207265656E7472616E742063616C6C00 PUSH0 DUP3 ADD MSTORE POP JUMP JUMPDEST PUSH0 PUSH2 0x30B6 PUSH1 0x1F DUP4 PUSH2 0x28E2 JUMP JUMPDEST SWAP2 POP PUSH2 0x30C1 DUP3 PUSH2 0x3082 JUMP JUMPDEST PUSH1 0x20 DUP3 ADD SWAP1 POP SWAP2 SWAP1 POP JUMP JUMPDEST PUSH0 PUSH1 0x20 DUP3 ADD SWAP1 POP DUP2 DUP2 SUB PUSH0 DUP4 ADD MSTORE PUSH2 0x30E3 DUP2 PUSH2 0x30AA JUMP JUMPDEST SWAP1 POP SWAP2 SWAP1 POP JUMP JUMPDEST PUSH0 PUSH2 0x30F4 DUP3 PUSH2 0x2402 JUMP JUMPDEST SWAP2 POP PUSH2 0x30FF DUP4 PUSH2 0x2402 JUMP JUMPDEST SWAP3 POP DUP3 DUP3 MUL PUSH2 0x310D DUP2 PUSH2 0x2402 JUMP JUMPDEST SWAP2 POP DUP3 DUP3 DIV DUP5 EQ DUP4 ISZERO OR PUSH2 0x3124 JUMPI PUSH2 0x3123 PUSH2 0x2A2A JUMP JUMPDEST JUMPDEST POP SWAP3 SWAP2 POP POP JUMP JUMPDEST PUSH32 0x4E487B7100000000000000000000000000000000000000000000000000000000 PUSH0 MSTORE PUSH1 0x12 PUSH1 0x4 MSTORE PUSH1 0x24 PUSH0 REVERT JUMPDEST PUSH0 PUSH2 0x3162 DUP3 PUSH2 0x2402 JUMP JUMPDEST SWAP2 POP PUSH2 0x316D DUP4 PUSH2 0x2402 JUMP JUMPDEST SWAP3 POP DUP3 PUSH2 0x317D JUMPI PUSH2 0x317C PUSH2 0x312B JUMP JUMPDEST JUMPDEST DUP3 DUP3 DIV SWAP1 POP SWAP3 SWAP2 POP POP JUMP JUMPDEST PUSH32 0x5061757361626C653A2070617573656400000000000000000000000000000000 PUSH0 DUP3 ADD MSTORE POP JUMP JUMPDEST PUSH0 PUSH2 0x31BC PUSH1 0x10 DUP4 PUSH2 0x28E2 JUMP JUMPDEST SWAP2 POP PUSH2 0x31C7 DUP3 PUSH2 0x3188 JUMP JUMPDEST PUSH1 0x20 DUP3 ADD SWAP1 POP SWAP2 SWAP1 POP JUMP JUMPDEST PUSH0 PUSH1 0x20 DUP3 ADD SWAP1 POP DUP2 DUP2 SUB PUSH0 DUP4 ADD MSTORE PUSH2 0x31E9 DUP2 PUSH2 0x31B0 JUMP JUMPDEST SWAP1 POP SWAP2 SWAP1 POP JUMP JUMPDEST PUSH0 PUSH1 0x60 DUP3 ADD SWAP1 POP PUSH2 0x3203 PUSH0 DUP4 ADD DUP7 PUSH2 0x2808 JUMP JUMPDEST PUSH2 0x3210 PUSH1 0x20 DUP4 ADD DUP6 PUSH2 0x2808 JUMP JUMPDEST PUSH2 0x321D PUSH1 0x40 DUP4 ADD DUP5 PUSH2 0x2537 JUMP JUMPDEST SWAP5 SWAP4 POP POP POP POP JUMP JUMPDEST PUSH32 0x5061757361626C653A206E6F7420706175736564000000000000000000000000 PUSH0 DUP3 ADD MSTORE POP JUMP JUMPDEST PUSH0 PUSH2 0x3259 PUSH1 0x14 DUP4 PUSH2 0x28E2 JUMP JUMPDEST SWAP2 POP PUSH2 0x3264 DUP3 PUSH2 0x3225 JUMP JUMPDEST PUSH1 0x20 DUP3 ADD SWAP1 POP SWAP2 SWAP1 POP JUMP JUMPDEST PUSH0 PUSH1 0x20 DUP3 ADD SWAP1 POP DUP2 DUP2 SUB PUSH0 DUP4 ADD MSTORE PUSH2 0x3286 DUP2 PUSH2 0x324D JUMP JUMPDEST SWAP1 POP SWAP2 SWAP1 POP JUMP INVALID LOG2 PUSH5 0x6970667358 0x22 SLT KECCAK256 0xD9 0xA8 0xCF EQ DUP15 SWAP13 0x28 EOFCREATE 0x1D BALANCE SSTORE 0xC5 CALLCODE RETURNDATACOPY PUSH5 0x98EE62EA58 GT MLOAD SELFBALANCE DUP2 PUSH27 0x28B70FBDD9F65064736F6C634300081E0033000000000000000000 "
				},
				"gasEstimates": {
					"creation": {
						"codeDepositCost": "2599000",
						"executionCost": "infinite",
						"totalCost": "infinite"
					},
					"external": {
						"BPS_DENOMINATOR()": "414",
						"MAX_FEE_BPS()": "414",
						"SECONDS_PER_YEAR()": "391",
						"acceptOwnership()": "54714",
						"autoCompoundFeeBps()": "2471",
						"calculatePendingRewards(address,uint256)": "infinite",
						"claimStakeRewards(uint256)": "infinite",
						"configureNewPackage(address,uint256,uint256,uint256)": "infinite",
						"createStake(uint256,uint256)": "infinite",
						"emergencyPause()": "infinite",
						"emergencyUnpause()": "infinite",
						"feeCollector()": "2575",
						"feePoolBalance()": "2470",
						"getActivePackageCount()": "2485",
						"getPackageDetails(uint256)": "infinite",
						"getUserStakes(address)": "infinite",
						"owner()": "2582",
						"paused()": "2541",
						"pendingOwner()": "2559",
						"renounceOwnership()": "infinite",
						"rewardToken()": "infinite",
						"toggleAutoCompound(uint256)": "86279",
						"transferOwnership(address)": "infinite",
						"updateFeeParameters(uint256,address)": "infinite",
						"updatePackageAPY(uint256,uint256)": "infinite",
						"updatePackageStatus(uint256,bool)": "infinite",
						"withdrawAccumulatedFees()": "infinite",
						"withdrawStake(uint256)": "infinite"
					},
					"internal": {
						"_calculateAccruedRewards(address,uint256)": "infinite"
					}
				},
				"methodIdentifiers": {
					"BPS_DENOMINATOR()": "e1a45218",
					"MAX_FEE_BPS()": "d55be8c6",
					"SECONDS_PER_YEAR()": "e6a69ab8",
					"acceptOwnership()": "79ba5097",
					"autoCompoundFeeBps()": "2ba662d6",
					"calculatePendingRewards(address,uint256)": "7fc7984d",
					"claimStakeRewards(uint256)": "dd69becd",
					"configureNewPackage(address,uint256,uint256,uint256)": "1bd9b708",
					"createStake(uint256,uint256)": "d7fa023d",
					"emergencyPause()": "51858e27",
					"emergencyUnpause()": "4a4e3bd5",
					"feeCollector()": "c415b95c",
					"feePoolBalance()": "db94ebc9",
					"getActivePackageCount()": "985145b5",
					"getPackageDetails(uint256)": "6c435e36",
					"getUserStakes(address)": "842e2981",
					"owner()": "8da5cb5b",
					"paused()": "5c975abb",
					"pendingOwner()": "e30c3978",
					"renounceOwnership()": "715018a6",
					"rewardToken()": "f7c618c1",
					"toggleAutoCompound(uint256)": "5a4d8489",
					"transferOwnership(address)": "f2fde38b",
					"updateFeeParameters(uint256,address)": "973e46b1",
					"updatePackageAPY(uint256,uint256)": "7f6a9184",
					"updatePackageStatus(uint256,bool)": "217a51ee",
					"withdrawAccumulatedFees()": "2e185ec7",
					"withdrawStake(uint256)": "25d5971f"
				}
			},
			"storageLayout": {
				"storage": [
					{
						"astId": 8,
						"contract": "Farming.sol:CAFIFarming",
						"label": "_owner",
						"offset": 0,
						"slot": "0",
						"type": "t_address"
					},
					{
						"astId": 156,
						"contract": "Farming.sol:CAFIFarming",
						"label": "_pendingOwner",
						"offset": 0,
						"slot": "1",
						"type": "t_address"
					},
					{
						"astId": 442,
						"contract": "Farming.sol:CAFIFarming",
						"label": "_status",
						"offset": 0,
						"slot": "2",
						"type": "t_uint256"
					},
					{
						"astId": 341,
						"contract": "Farming.sol:CAFIFarming",
						"label": "_paused",
						"offset": 0,
						"slot": "3",
						"type": "t_bool"
					},
					{
						"astId": 1136,
						"contract": "Farming.sol:CAFIFarming",
						"label": "farmPackages",
						"offset": 0,
						"slot": "4",
						"type": "t_array(t_struct(FarmPackage)1109_storage)dyn_storage"
					},
					{
						"astId": 1138,
						"contract": "Farming.sol:CAFIFarming",
						"label": "feeCollector",
						"offset": 0,
						"slot": "5",
						"type": "t_address"
					},
					{
						"astId": 1141,
						"contract": "Farming.sol:CAFIFarming",
						"label": "autoCompoundFeeBps",
						"offset": 0,
						"slot": "6",
						"type": "t_uint256"
					},
					{
						"astId": 1143,
						"contract": "Farming.sol:CAFIFarming",
						"label": "feePoolBalance",
						"offset": 0,
						"slot": "7",
						"type": "t_uint256"
					},
					{
						"astId": 1149,
						"contract": "Farming.sol:CAFIFarming",
						"label": "userStakes",
						"offset": 0,
						"slot": "8",
						"type": "t_mapping(t_address,t_array(t_struct(UserStake)1120_storage)dyn_storage)"
					}
				],
				"types": {
					"t_address": {
						"encoding": "inplace",
						"label": "address",
						"numberOfBytes": "20"
					},
					"t_array(t_struct(FarmPackage)1109_storage)dyn_storage": {
						"base": "t_struct(FarmPackage)1109_storage",
						"encoding": "dynamic_array",
						"label": "struct CAFIFarming.FarmPackage[]",
						"numberOfBytes": "32"
					},
					"t_array(t_struct(UserStake)1120_storage)dyn_storage": {
						"base": "t_struct(UserStake)1120_storage",
						"encoding": "dynamic_array",
						"label": "struct CAFIFarming.UserStake[]",
						"numberOfBytes": "32"
					},
					"t_bool": {
						"encoding": "inplace",
						"label": "bool",
						"numberOfBytes": "1"
					},
					"t_mapping(t_address,t_array(t_struct(UserStake)1120_storage)dyn_storage)": {
						"encoding": "mapping",
						"key": "t_address",
						"label": "mapping(address => struct CAFIFarming.UserStake[])",
						"numberOfBytes": "32",
						"value": "t_array(t_struct(UserStake)1120_storage)dyn_storage"
					},
					"t_struct(FarmPackage)1109_storage": {
						"encoding": "inplace",
						"label": "struct CAFIFarming.FarmPackage",
						"members": [
							{
								"astId": 1100,
								"contract": "Farming.sol:CAFIFarming",
								"label": "stakeTokenAddress",
								"offset": 0,
								"slot": "0",
								"type": "t_address"
							},
							{
								"astId": 1102,
								"contract": "Farming.sol:CAFIFarming",
								"label": "lockDuration",
								"offset": 0,
								"slot": "1",
								"type": "t_uint256"
							},
							{
								"astId": 1104,
								"contract": "Farming.sol:CAFIFarming",
								"label": "apyBps",
								"offset": 0,
								"slot": "2",
								"type": "t_uint256"
							},
							{
								"astId": 1106,
								"contract": "Farming.sol:CAFIFarming",
								"label": "minimumStakeAmount",
								"offset": 0,
								"slot": "3",
								"type": "t_uint256"
							},
							{
								"astId": 1108,
								"contract": "Farming.sol:CAFIFarming",
								"label": "isActive",
								"offset": 0,
								"slot": "4",
								"type": "t_bool"
							}
						],
						"numberOfBytes": "160"
					},
					"t_struct(UserStake)1120_storage": {
						"encoding": "inplace",
						"label": "struct CAFIFarming.UserStake",
						"members": [
							{
								"astId": 1111,
								"contract": "Farming.sol:CAFIFarming",
								"label": "packageId",
								"offset": 0,
								"slot": "0",
								"type": "t_uint256"
							},
							{
								"astId": 1113,
								"contract": "Farming.sol:CAFIFarming",
								"label": "stakedAmount",
								"offset": 0,
								"slot": "1",
								"type": "t_uint256"
							},
							{
								"astId": 1115,
								"contract": "Farming.sol:CAFIFarming",
								"label": "stakeStartTimestamp",
								"offset": 0,
								"slot": "2",
								"type": "t_uint256"
							},
							{
								"astId": 1117,
								"contract": "Farming.sol:CAFIFarming",
								"label": "lastRewardClaimTimestamp",
								"offset": 0,
								"slot": "3",
								"type": "t_uint256"
							},
							{
								"astId": 1119,
								"contract": "Farming.sol:CAFIFarming",
								"label": "isAutoCompounding",
								"offset": 0,
								"slot": "4",
								"type": "t_bool"
							}
						],
						"numberOfBytes": "160"
					},
					"t_uint256": {
						"encoding": "inplace",
						"label": "uint256",
						"numberOfBytes": "32"
					}
				}
			},
			"userdoc": {
				"kind": "user",
				"methods": {},
				"notice": "Implements time-locked staking with auto-compounding rewards",
				"version": 1
			}
		}
	}
}