{
	"data": {
		"bytecode": {
			"linkReferences": {},
			"object": "60c060405234801561000f575f5ffd5b506040516127c63803806127c6833981810160405281019061003191906103d2565b335f73ffffffffffffffffffffffffffffffffffffffff168173ffffffffffffffffffffffffffffffffffffffff16036100a2575f6040517f1e4fbdf70000000000000000000000000000000000000000000000000000000081526004016100999190610431565b60405180910390fd5b6100b1816102b360201b60201c565b50600180819055505f73ffffffffffffffffffffffffffffffffffffffff168373ffffffffffffffffffffffffffffffffffffffff1603610127576040517f08c379a000000000000000000000000000000000000000000000000000000000815260040161011e906104a4565b60405180910390fd5b5f73ffffffffffffffffffffffffffffffffffffffff168273ffffffffffffffffffffffffffffffffffffffff1603610195576040517f08c379a000000000000000000000000000000000000000000000000000000000815260040161018c9061050c565b60405180910390fd5b5f73ffffffffffffffffffffffffffffffffffffffff168173ffffffffffffffffffffffffffffffffffffffff1603610203576040517f08c379a00000000000000000000000000000000000000000000000000000000081526004016101fa90610574565b60405180910390fd5b8273ffffffffffffffffffffffffffffffffffffffff1660808173ffffffffffffffffffffffffffffffffffffffff16815250508173ffffffffffffffffffffffffffffffffffffffff1660a08173ffffffffffffffffffffffffffffffffffffffff16815250508060025f6101000a81548173ffffffffffffffffffffffffffffffffffffffff021916908373ffffffffffffffffffffffffffffffffffffffff160217905550505050610592565b5f5f5f9054906101000a900473ffffffffffffffffffffffffffffffffffffffff169050815f5f6101000a81548173ffffffffffffffffffffffffffffffffffffffff021916908373ffffffffffffffffffffffffffffffffffffffff1602179055508173ffffffffffffffffffffffffffffffffffffffff168173ffffffffffffffffffffffffffffffffffffffff167f8be0079c531659141344cd1fd0a4f28419497f9722a3daafe3b4186f6b6457e060405160405180910390a35050565b5f5ffd5b5f73ffffffffffffffffffffffffffffffffffffffff82169050919050565b5f6103a182610378565b9050919050565b6103b181610397565b81146103bb575f5ffd5b50565b5f815190506103cc816103a8565b92915050565b5f5f5f606084860312156103e9576103e8610374565b5b5f6103f6868287016103be565b9350506020610407868287016103be565b9250506040610418868287016103be565b9150509250925092565b61042b81610397565b82525050565b5f6020820190506104445f830184610422565b92915050565b5f82825260208201905092915050565b7f496e76616c6964204341464920746f6b656e00000000000000000000000000005f82015250565b5f61048e60128361044a565b91506104998261045a565b602082019050919050565b5f6020820190508181035f8301526104bb81610482565b9050919050565b7f496e76616c6964204e465420636f6e74726163740000000000000000000000005f82015250565b5f6104f660148361044a565b9150610501826104c2565b602082019050919050565b5f6020820190508181035f830152610523816104ea565b9050919050565b7f496e76616c6964206665652077616c6c657400000000000000000000000000005f82015250565b5f61055e60128361044a565b91506105698261052a565b602082019050919050565b5f6020820190508181035f83015261058b81610552565b9050919050565b60805160a0516121e96105dd5f395f81816106ef015281816107a90152818161088301528181610bfe0152610dd201525f81816104e301528181610d3e0152610d8b01526121e95ff3fe608060405234801561000f575f5ffd5b5060043610610114575f3560e01c8063bc197c81116100a0578063ec16b94a1161006f578063ec16b94a146102bd578063f23a6e61146102d9578063f25f4b5614610309578063f2fde38b14610327578063f6b45c461461034357610114565b8063bc197c8114610233578063ddbcb5fa14610263578063e215f1ca14610281578063eaf98d231461029f57610114565b80638da5cb5b116100e75780638da5cb5b1461018c57806390d49b9d146101aa578063927fbfc8146101c657806395ccea67146101f9578063ad9f20a61461021557610114565b806301ffc9a714610118578063305a67a81461014857806358a0bde314610164578063715018a614610182575b5f5ffd5b610132600480360381019061012d9190611413565b61035f565b60405161013f9190611458565b60405180910390f35b610162600480360381019061015d91906114a4565b610370565b005b61016c6104e1565b6040516101799190611549565b60405180910390f35b61018a610505565b005b610194610518565b6040516101a19190611582565b60405180910390f35b6101c460048036038101906101bf91906115c5565b61053f565b005b6101e060048036038101906101db91906115f0565b61063b565b6040516101f0949392919061163d565b60405180910390f35b610213600480360381019061020e9190611680565b610691565b005b61021d6106cf565b60405161022a91906116be565b60405180910390f35b61024d600480360381019061024891906118d7565b6106d4565b60405161025a91906119b1565b60405180910390f35b61026b6106e8565b60405161027891906116be565b60405180910390f35b6102896106ed565b60405161029691906119ea565b60405180910390f35b6102a7610711565b6040516102b491906116be565b60405180910390f35b6102d760048036038101906102d29190611a03565b610716565b005b6102f360048036038101906102ee9190611a53565b610aa0565b60405161030091906119b1565b60405180910390f35b610311610ab4565b60405161031e9190611582565b60405180910390f35b610341600480360381019061033c91906115c5565b610ad9565b005b61035d60048036038101906103589190611ae6565b610b5d565b005b5f61036982610f88565b9050919050565b610378611001565b5f60035f8381526020019081526020015f205f3373ffffffffffffffffffffffffffffffffffffffff1673ffffffffffffffffffffffffffffffffffffffff1681526020019081526020015f206002015411610409576040517f08c379a000000000000000000000000000000000000000000000000000000000815260040161040090611b90565b60405180910390fd5b60035f8281526020019081526020015f205f3373ffffffffffffffffffffffffffffffffffffffff1673ffffffffffffffffffffffffffffffffffffffff1681526020019081526020015f205f5f82015f6101000a81549073ffffffffffffffffffffffffffffffffffffffff0219169055600182015f9055600282015f9055600382015f90555050803373ffffffffffffffffffffffffffffffffffffffff167f93ec4766fcd2d9dfdceab8f2e13ba0d9d826645cf03167fdb92b3b7359b5248c60405160405180910390a36104de611050565b50565b7f000000000000000000000000000000000000000000000000000000000000000081565b61050d611059565b6105165f6110e0565b565b5f5f5f9054906101000a900473ffffffffffffffffffffffffffffffffffffffff16905090565b610547611059565b5f73ffffffffffffffffffffffffffffffffffffffff168173ffffffffffffffffffffffffffffffffffffffff16036105b5576040517f08c379a00000000000000000000000000000000000000000000000000000000081526004016105ac90611bf8565b60405180910390fd5b8060025f6101000a81548173ffffffffffffffffffffffffffffffffffffffff021916908373ffffffffffffffffffffffffffffffffffffffff1602179055508073ffffffffffffffffffffffffffffffffffffffff167f29acee77dafcfa0143d74a7ea236018f3a6e1fa71e27fc59bbfbc6b8ca8edccd60405160405180910390a250565b6003602052815f5260405f20602052805f5260405f205f9150915050805f015f9054906101000a900473ffffffffffffffffffffffffffffffffffffffff16908060010154908060020154908060030154905084565b610699611059565b6106cb6106a4610518565b828473ffffffffffffffffffffffffffffffffffffffff166111a19092919063ffffffff16565b5050565b600181565b5f63bc197c8160e01b905095945050505050565b600181565b7f000000000000000000000000000000000000000000000000000000000000000081565b606481565b61071e611001565b6001821015610762576040517f08c379a000000000000000000000000000000000000000000000000000000000815260040161075990611c60565b60405180910390fd5b60018110156107a6576040517f08c379a000000000000000000000000000000000000000000000000000000000815260040161079d90611cc8565b60405180910390fd5b817f000000000000000000000000000000000000000000000000000000000000000073ffffffffffffffffffffffffffffffffffffffff1662fdd58e33866040518363ffffffff1660e01b8152600401610801929190611ce6565b602060405180830381865afa15801561081c573d5f5f3e3d5ffd5b505050506040513d601f19601f820116820180604052508101906108409190611d21565b1015610881576040517f08c379a000000000000000000000000000000000000000000000000000000000815260040161087890611d96565b60405180910390fd5b7f000000000000000000000000000000000000000000000000000000000000000073ffffffffffffffffffffffffffffffffffffffff1663e985e9c533306040518363ffffffff1660e01b81526004016108dc929190611db4565b602060405180830381865afa1580156108f7573d5f5f3e3d5ffd5b505050506040513d601f19601f8201168201806040525081019061091b9190611e05565b61095a576040517f08c379a000000000000000000000000000000000000000000000000000000000815260040161095190611e7a565b60405180910390fd5b60405180608001604052803373ffffffffffffffffffffffffffffffffffffffff1681526020018481526020018381526020018281525060035f8581526020019081526020015f205f3373ffffffffffffffffffffffffffffffffffffffff1673ffffffffffffffffffffffffffffffffffffffff1681526020019081526020015f205f820151815f015f6101000a81548173ffffffffffffffffffffffffffffffffffffffff021916908373ffffffffffffffffffffffffffffffffffffffff160217905550602082015181600101556040820151816002015560608201518160030155905050823373ffffffffffffffffffffffffffffffffffffffff167f58daee15640543ce9c441aaf5417a2860fd1fd6b7e8a9648d1bb4d2b0c17b62a8484604051610a8b929190611e98565b60405180910390a3610a9b611050565b505050565b5f63f23a6e6160e01b905095945050505050565b60025f9054906101000a900473ffffffffffffffffffffffffffffffffffffffff1681565b610ae1611059565b5f73ffffffffffffffffffffffffffffffffffffffff168173ffffffffffffffffffffffffffffffffffffffff1603610b51575f6040517f1e4fbdf7000000000000000000000000000000000000000000000000000000008152600401610b489190611582565b60405180910390fd5b610b5a816110e0565b50565b610b65611001565b5f60035f8481526020019081526020015f205f8573ffffffffffffffffffffffffffffffffffffffff1673ffffffffffffffffffffffffffffffffffffffff1681526020019081526020015f2090508181600201541015610bfb576040517f08c379a0000000000000000000000000000000000000000000000000000000008152600401610bf290611f09565b60405180910390fd5b817f000000000000000000000000000000000000000000000000000000000000000073ffffffffffffffffffffffffffffffffffffffff1662fdd58e86866040518363ffffffff1660e01b8152600401610c56929190611ce6565b602060405180830381865afa158015610c71573d5f5f3e3d5ffd5b505050506040513d601f19601f82011682018060405250810190610c959190611d21565b1015610cd6576040517f08c379a0000000000000000000000000000000000000000000000000000000008152600401610ccd90611f71565b60405180910390fd5b5f828260030154610ce79190611fbc565b90505f612710606483610cfa9190611fbc565b610d04919061202a565b90505f8183610d13919061205a565b9050610d833360025f9054906101000a900473ffffffffffffffffffffffffffffffffffffffff16847f000000000000000000000000000000000000000000000000000000000000000073ffffffffffffffffffffffffffffffffffffffff16611220909392919063ffffffff16565b610dd03388837f000000000000000000000000000000000000000000000000000000000000000073ffffffffffffffffffffffffffffffffffffffff16611220909392919063ffffffff16565b7f000000000000000000000000000000000000000000000000000000000000000073ffffffffffffffffffffffffffffffffffffffff1663f242432a883389896040518563ffffffff1660e01b8152600401610e2f94939291906120c0565b5f604051808303815f87803b158015610e46575f5ffd5b505af1158015610e58573d5f5f3e3d5ffd5b5050505084846002015f828254610e6f919061205a565b925050819055505f846002015403610f0b5760035f8781526020019081526020015f205f8873ffffffffffffffffffffffffffffffffffffffff1673ffffffffffffffffffffffffffffffffffffffff1681526020019081526020015f205f5f82015f6101000a81549073ffffffffffffffffffffffffffffffffffffffff0219169055600182015f9055600282015f9055600382015f905550505b853373ffffffffffffffffffffffffffffffffffffffff168873ffffffffffffffffffffffffffffffffffffffff167ff02db46465eb9e76c10f2aa3eb522115e5f8dc7da63fc2e81ce4f984b775816e888860030154604051610f6f929190611e98565b60405180910390a450505050610f83611050565b505050565b5f7f4e2312e0000000000000000000000000000000000000000000000000000000007bffffffffffffffffffffffffffffffffffffffffffffffffffffffff1916827bffffffffffffffffffffffffffffffffffffffffffffffffffffffff19161480610ffa5750610ff9826112a2565b5b9050919050565b600260015403611046576040517f08c379a000000000000000000000000000000000000000000000000000000000815260040161103d90612160565b60405180910390fd5b6002600181905550565b60018081905550565b61106161130b565b73ffffffffffffffffffffffffffffffffffffffff1661107f610518565b73ffffffffffffffffffffffffffffffffffffffff16146110de576110a261130b565b6040517f118cdaa70000000000000000000000000000000000000000000000000000000081526004016110d59190611582565b60405180910390fd5b565b5f5f5f9054906101000a900473ffffffffffffffffffffffffffffffffffffffff169050815f5f6101000a81548173ffffffffffffffffffffffffffffffffffffffff021916908373ffffffffffffffffffffffffffffffffffffffff1602179055508173ffffffffffffffffffffffffffffffffffffffff168173ffffffffffffffffffffffffffffffffffffffff167f8be0079c531659141344cd1fd0a4f28419497f9722a3daafe3b4186f6b6457e060405160405180910390a35050565b61121b838473ffffffffffffffffffffffffffffffffffffffff1663a9059cbb85856040516024016111d4929190611ce6565b604051602081830303815290604052915060e01b6020820180517bffffffffffffffffffffffffffffffffffffffffffffffffffffffff8381831617835250505050611312565b505050565b61129c848573ffffffffffffffffffffffffffffffffffffffff166323b872dd8686866040516024016112559392919061217e565b604051602081830303815290604052915060e01b6020820180517bffffffffffffffffffffffffffffffffffffffffffffffffffffffff8381831617835250505050611312565b50505050565b5f7f01ffc9a7000000000000000000000000000000000000000000000000000000007bffffffffffffffffffffffffffffffffffffffffffffffffffffffff1916827bffffffffffffffffffffffffffffffffffffffffffffffffffffffff1916149050919050565b5f33905090565b5f5f60205f8451602086015f885af180611331576040513d5f823e3d81fd5b3d92505f519150505f821461134a576001811415611365565b5f8473ffffffffffffffffffffffffffffffffffffffff163b145b156113a757836040517f5274afe700000000000000000000000000000000000000000000000000000000815260040161139e9190611582565b60405180910390fd5b50505050565b5f604051905090565b5f5ffd5b5f5ffd5b5f7fffffffff0000000000000000000000000000000000000000000000000000000082169050919050565b6113f2816113be565b81146113fc575f5ffd5b50565b5f8135905061140d816113e9565b92915050565b5f60208284031215611428576114276113b6565b5b5f611435848285016113ff565b91505092915050565b5f8115159050919050565b6114528161143e565b82525050565b5f60208201905061146b5f830184611449565b92915050565b5f819050919050565b61148381611471565b811461148d575f5ffd5b50565b5f8135905061149e8161147a565b92915050565b5f602082840312156114b9576114b86113b6565b5b5f6114c684828501611490565b91505092915050565b5f73ffffffffffffffffffffffffffffffffffffffff82169050919050565b5f819050919050565b5f61151161150c611507846114cf565b6114ee565b6114cf565b9050919050565b5f611522826114f7565b9050919050565b5f61153382611518565b9050919050565b61154381611529565b82525050565b5f60208201905061155c5f83018461153a565b92915050565b5f61156c826114cf565b9050919050565b61157c81611562565b82525050565b5f6020820190506115955f830184611573565b92915050565b6115a481611562565b81146115ae575f5ffd5b50565b5f813590506115bf8161159b565b92915050565b5f602082840312156115da576115d96113b6565b5b5f6115e7848285016115b1565b91505092915050565b5f5f60408385031215611606576116056113b6565b5b5f61161385828601611490565b9250506020611624858286016115b1565b9150509250929050565b61163781611471565b82525050565b5f6080820190506116505f830187611573565b61165d602083018661162e565b61166a604083018561162e565b611677606083018461162e565b95945050505050565b5f5f60408385031215611696576116956113b6565b5b5f6116a3858286016115b1565b92505060206116b485828601611490565b9150509250929050565b5f6020820190506116d15f83018461162e565b92915050565b5f5ffd5b5f601f19601f8301169050919050565b7f4e487b71000000000000000000000000000000000000000000000000000000005f52604160045260245ffd5b611721826116db565b810181811067ffffffffffffffff821117156117405761173f6116eb565b5b80604052505050565b5f6117526113ad565b905061175e8282611718565b919050565b5f67ffffffffffffffff82111561177d5761177c6116eb565b5b602082029050602081019050919050565b5f5ffd5b5f6117a461179f84611763565b611749565b905080838252602082019050602084028301858111156117c7576117c661178e565b5b835b818110156117f057806117dc8882611490565b8452602084019350506020810190506117c9565b5050509392505050565b5f82601f83011261180e5761180d6116d7565b5b813561181e848260208601611792565b91505092915050565b5f5ffd5b5f67ffffffffffffffff821115611845576118446116eb565b5b61184e826116db565b9050602081019050919050565b828183375f83830152505050565b5f61187b6118768461182b565b611749565b90508281526020810184848401111561189757611896611827565b5b6118a284828561185b565b509392505050565b5f82601f8301126118be576118bd6116d7565b5b81356118ce848260208601611869565b91505092915050565b5f5f5f5f5f60a086880312156118f0576118ef6113b6565b5b5f6118fd888289016115b1565b955050602061190e888289016115b1565b945050604086013567ffffffffffffffff81111561192f5761192e6113ba565b5b61193b888289016117fa565b935050606086013567ffffffffffffffff81111561195c5761195b6113ba565b5b611968888289016117fa565b925050608086013567ffffffffffffffff811115611989576119886113ba565b5b611995888289016118aa565b9150509295509295909350565b6119ab816113be565b82525050565b5f6020820190506119c45f8301846119a2565b92915050565b5f6119d482611518565b9050919050565b6119e4816119ca565b82525050565b5f6020820190506119fd5f8301846119db565b92915050565b5f5f5f60608486031215611a1a57611a196113b6565b5b5f611a2786828701611490565b9350506020611a3886828701611490565b9250506040611a4986828701611490565b9150509250925092565b5f5f5f5f5f60a08688031215611a6c57611a6b6113b6565b5b5f611a79888289016115b1565b9550506020611a8a888289016115b1565b9450506040611a9b88828901611490565b9350506060611aac88828901611490565b925050608086013567ffffffffffffffff811115611acd57611acc6113ba565b5b611ad9888289016118aa565b9150509295509295909350565b5f5f5f60608486031215611afd57611afc6113b6565b5b5f611b0a868287016115b1565b9350506020611b1b86828701611490565b9250506040611b2c86828701611490565b9150509250925092565b5f82825260208201905092915050565b7f4e6f20616374697665206c697374696e670000000000000000000000000000005f82015250565b5f611b7a601183611b36565b9150611b8582611b46565b602082019050919050565b5f6020820190508181035f830152611ba781611b6e565b9050919050565b7f496e76616c6964206665652077616c6c657400000000000000000000000000005f82015250565b5f611be2601283611b36565b9150611bed82611bae565b602082019050919050565b5f6020820190508181035f830152611c0f81611bd6565b9050919050565b7f416d6f756e7420746f6f20736d616c6c000000000000000000000000000000005f82015250565b5f611c4a601083611b36565b9150611c5582611c16565b602082019050919050565b5f6020820190508181035f830152611c7781611c3e565b9050919050565b7f507269636520746f6f206c6f77000000000000000000000000000000000000005f82015250565b5f611cb2600d83611b36565b9150611cbd82611c7e565b602082019050919050565b5f6020820190508181035f830152611cdf81611ca6565b9050919050565b5f604082019050611cf95f830185611573565b611d06602083018461162e565b9392505050565b5f81519050611d1b8161147a565b92915050565b5f60208284031215611d3657611d356113b6565b5b5f611d4384828501611d0d565b91505092915050565b7f496e73756666696369656e74204e46542062616c616e636500000000000000005f82015250565b5f611d80601883611b36565b9150611d8b82611d4c565b602082019050919050565b5f6020820190508181035f830152611dad81611d74565b9050919050565b5f604082019050611dc75f830185611573565b611dd46020830184611573565b9392505050565b611de48161143e565b8114611dee575f5ffd5b50565b5f81519050611dff81611ddb565b92915050565b5f60208284031215611e1a57611e196113b6565b5b5f611e2784828501611df1565b91505092915050565b7f4d61726b6574706c616365206e6f7420617070726f76656400000000000000005f82015250565b5f611e64601883611b36565b9150611e6f82611e30565b602082019050919050565b5f6020820190508181035f830152611e9181611e58565b9050919050565b5f604082019050611eab5f83018561162e565b611eb8602083018461162e565b9392505050565b7f496e73756666696369656e7420616d6f756e74206c69737465640000000000005f82015250565b5f611ef3601a83611b36565b9150611efe82611ebf565b602082019050919050565b5f6020820190508181035f830152611f2081611ee7565b9050919050565b7f53656c6c6572206e6f206c6f6e676572206f776e73204e4654000000000000005f82015250565b5f611f5b601983611b36565b9150611f6682611f27565b602082019050919050565b5f6020820190508181035f830152611f8881611f4f565b9050919050565b7f4e487b71000000000000000000000000000000000000000000000000000000005f52601160045260245ffd5b5f611fc682611471565b9150611fd183611471565b9250828202611fdf81611471565b91508282048414831517611ff657611ff5611f8f565b5b5092915050565b7f4e487b71000000000000000000000000000000000000000000000000000000005f52601260045260245ffd5b5f61203482611471565b915061203f83611471565b92508261204f5761204e611ffd565b5b828204905092915050565b5f61206482611471565b915061206f83611471565b925082820390508181111561208757612086611f8f565b5b92915050565b5f82825260208201905092915050565b50565b5f6120ab5f8361208d565b91506120b68261209d565b5f82019050919050565b5f60a0820190506120d35f830187611573565b6120e06020830186611573565b6120ed604083018561162e565b6120fa606083018461162e565b818103608083015261210b816120a0565b905095945050505050565b7f5265656e7472616e637947756172643a207265656e7472616e742063616c6c005f82015250565b5f61214a601f83611b36565b915061215582612116565b602082019050919050565b5f6020820190508181035f8301526121778161213e565b9050919050565b5f6060820190506121915f830186611573565b61219e6020830185611573565b6121ab604083018461162e565b94935050505056fea2646970667358221220fc84ca12668172534a3464a7ea17e5f198b1039eea504fb94f46c786e156813964736f6c634300081e0033",
			"opcodes": "PUSH1 0xC0 PUSH1 0x40 MSTORE CALLVALUE DUP1 ISZERO PUSH2 0xF JUMPI PUSH0 PUSH0 REVERT JUMPDEST POP PUSH1 0x40 MLOAD PUSH2 0x27C6 CODESIZE SUB DUP1 PUSH2 0x27C6 DUP4 CODECOPY DUP2 DUP2 ADD PUSH1 0x40 MSTORE DUP2 ADD SWAP1 PUSH2 0x31 SWAP2 SWAP1 PUSH2 0x3D2 JUMP JUMPDEST CALLER PUSH0 PUSH20 0xFFFFFFFFFFFFFFFFFFFFFFFFFFFFFFFFFFFFFFFF AND DUP2 PUSH20 0xFFFFFFFFFFFFFFFFFFFFFFFFFFFFFFFFFFFFFFFF AND SUB PUSH2 0xA2 JUMPI PUSH0 PUSH1 0x40 MLOAD PUSH32 0x1E4FBDF700000000000000000000000000000000000000000000000000000000 DUP2 MSTORE PUSH1 0x4 ADD PUSH2 0x99 SWAP2 SWAP1 PUSH2 0x431 JUMP JUMPDEST PUSH1 0x40 MLOAD DUP1 SWAP2 SUB SWAP1 REVERT JUMPDEST PUSH2 0xB1 DUP2 PUSH2 0x2B3 PUSH1 0x20 SHL PUSH1 0x20 SHR JUMP JUMPDEST POP PUSH1 0x1 DUP1 DUP2 SWAP1 SSTORE POP PUSH0 PUSH20 0xFFFFFFFFFFFFFFFFFFFFFFFFFFFFFFFFFFFFFFFF AND DUP4 PUSH20 0xFFFFFFFFFFFFFFFFFFFFFFFFFFFFFFFFFFFFFFFF AND SUB PUSH2 0x127 JUMPI PUSH1 0x40 MLOAD PUSH32 0x8C379A000000000000000000000000000000000000000000000000000000000 DUP2 MSTORE PUSH1 0x4 ADD PUSH2 0x11E SWAP1 PUSH2 0x4A4 JUMP JUMPDEST PUSH1 0x40 MLOAD DUP1 SWAP2 SUB SWAP1 REVERT JUMPDEST PUSH0 PUSH20 0xFFFFFFFFFFFFFFFFFFFFFFFFFFFFFFFFFFFFFFFF AND DUP3 PUSH20 0xFFFFFFFFFFFFFFFFFFFFFFFFFFFFFFFFFFFFFFFF AND SUB PUSH2 0x195 JUMPI PUSH1 0x40 MLOAD PUSH32 0x8C379A000000000000000000000000000000000000000000000000000000000 DUP2 MSTORE PUSH1 0x4 ADD PUSH2 0x18C SWAP1 PUSH2 0x50C JUMP JUMPDEST PUSH1 0x40 MLOAD DUP1 SWAP2 SUB SWAP1 REVERT JUMPDEST PUSH0 PUSH20 0xFFFFFFFFFFFFFFFFFFFFFFFFFFFFFFFFFFFFFFFF AND DUP2 PUSH20 0xFFFFFFFFFFFFFFFFFFFFFFFFFFFFFFFFFFFFFFFF AND SUB PUSH2 0x203 JUMPI PUSH1 0x40 MLOAD PUSH32 0x8C379A000000000000000000000000000000000000000000000000000000000 DUP2 MSTORE PUSH1 0x4 ADD PUSH2 0x1FA SWAP1 PUSH2 0x574 JUMP JUMPDEST PUSH1 0x40 MLOAD DUP1 SWAP2 SUB SWAP1 REVERT JUMPDEST DUP3 PUSH20 0xFFFFFFFFFFFFFFFFFFFFFFFFFFFFFFFFFFFFFFFF AND PUSH1 0x80 DUP2 PUSH20 0xFFFFFFFFFFFFFFFFFFFFFFFFFFFFFFFFFFFFFFFF AND DUP2 MSTORE POP POP DUP2 PUSH20 0xFFFFFFFFFFFFFFFFFFFFFFFFFFFFFFFFFFFFFFFF AND PUSH1 0xA0 DUP2 PUSH20 0xFFFFFFFFFFFFFFFFFFFFFFFFFFFFFFFFFFFFFFFF AND DUP2 MSTORE POP POP DUP1 PUSH1 0x2 PUSH0 PUSH2 0x100 EXP DUP2 SLOAD DUP2 PUSH20 0xFFFFFFFFFFFFFFFFFFFFFFFFFFFFFFFFFFFFFFFF MUL NOT AND SWAP1 DUP4 PUSH20 0xFFFFFFFFFFFFFFFFFFFFFFFFFFFFFFFFFFFFFFFF AND MUL OR SWAP1 SSTORE POP POP POP POP PUSH2 0x592 JUMP JUMPDEST PUSH0 PUSH0 PUSH0 SWAP1 SLOAD SWAP1 PUSH2 0x100 EXP SWAP1 DIV PUSH20 0xFFFFFFFFFFFFFFFFFFFFFFFFFFFFFFFFFFFFFFFF AND SWAP1 POP DUP2 PUSH0 PUSH0 PUSH2 0x100 EXP DUP2 SLOAD DUP2 PUSH20 0xFFFFFFFFFFFFFFFFFFFFFFFFFFFFFFFFFFFFFFFF MUL NOT AND SWAP1 DUP4 PUSH20 0xFFFFFFFFFFFFFFFFFFFFFFFFFFFFFFFFFFFFFFFF AND MUL OR SWAP1 SSTORE POP DUP2 PUSH20 0xFFFFFFFFFFFFFFFFFFFFFFFFFFFFFFFFFFFFFFFF AND DUP2 PUSH20 0xFFFFFFFFFFFFFFFFFFFFFFFFFFFFFFFFFFFFFFFF AND PUSH32 0x8BE0079C531659141344CD1FD0A4F28419497F9722A3DAAFE3B4186F6B6457E0 PUSH1 0x40 MLOAD PUSH1 0x40 MLOAD DUP1 SWAP2 SUB SWAP1 LOG3 POP POP JUMP JUMPDEST PUSH0 PUSH0 REVERT JUMPDEST PUSH0 PUSH20 0xFFFFFFFFFFFFFFFFFFFFFFFFFFFFFFFFFFFFFFFF DUP3 AND SWAP1 POP SWAP2 SWAP1 POP JUMP JUMPDEST PUSH0 PUSH2 0x3A1 DUP3 PUSH2 0x378 JUMP JUMPDEST SWAP1 POP SWAP2 SWAP1 POP JUMP JUMPDEST PUSH2 0x3B1 DUP2 PUSH2 0x397 JUMP JUMPDEST DUP2 EQ PUSH2 0x3BB JUMPI PUSH0 PUSH0 REVERT JUMPDEST POP JUMP JUMPDEST PUSH0 DUP2 MLOAD SWAP1 POP PUSH2 0x3CC DUP2 PUSH2 0x3A8 JUMP JUMPDEST SWAP3 SWAP2 POP POP JUMP JUMPDEST PUSH0 PUSH0 PUSH0 PUSH1 0x60 DUP5 DUP7 SUB SLT ISZERO PUSH2 0x3E9 JUMPI PUSH2 0x3E8 PUSH2 0x374 JUMP JUMPDEST JUMPDEST PUSH0 PUSH2 0x3F6 DUP7 DUP3 DUP8 ADD PUSH2 0x3BE JUMP JUMPDEST SWAP4 POP POP PUSH1 0x20 PUSH2 0x407 DUP7 DUP3 DUP8 ADD PUSH2 0x3BE JUMP JUMPDEST SWAP3 POP POP PUSH1 0x40 PUSH2 0x418 DUP7 DUP3 DUP8 ADD PUSH2 0x3BE JUMP JUMPDEST SWAP2 POP POP SWAP3 POP SWAP3 POP SWAP3 JUMP JUMPDEST PUSH2 0x42B DUP2 PUSH2 0x397 JUMP JUMPDEST DUP3 MSTORE POP POP JUMP JUMPDEST PUSH0 PUSH1 0x20 DUP3 ADD SWAP1 POP PUSH2 0x444 PUSH0 DUP4 ADD DUP5 PUSH2 0x422 JUMP JUMPDEST SWAP3 SWAP2 POP POP JUMP JUMPDEST PUSH0 DUP3 DUP3 MSTORE PUSH1 0x20 DUP3 ADD SWAP1 POP SWAP3 SWAP2 POP POP JUMP JUMPDEST PUSH32 0x496E76616C6964204341464920746F6B656E0000000000000000000000000000 PUSH0 DUP3 ADD MSTORE POP JUMP JUMPDEST PUSH0 PUSH2 0x48E PUSH1 0x12 DUP4 PUSH2 0x44A JUMP JUMPDEST SWAP2 POP PUSH2 0x499 DUP3 PUSH2 0x45A JUMP JUMPDEST PUSH1 0x20 DUP3 ADD SWAP1 POP SWAP2 SWAP1 POP JUMP JUMPDEST PUSH0 PUSH1 0x20 DUP3 ADD SWAP1 POP DUP2 DUP2 SUB PUSH0 DUP4 ADD MSTORE PUSH2 0x4BB DUP2 PUSH2 0x482 JUMP JUMPDEST SWAP1 POP SWAP2 SWAP1 POP JUMP JUMPDEST PUSH32 0x496E76616C6964204E465420636F6E7472616374000000000000000000000000 PUSH0 DUP3 ADD MSTORE POP JUMP JUMPDEST PUSH0 PUSH2 0x4F6 PUSH1 0x14 DUP4 PUSH2 0x44A JUMP JUMPDEST SWAP2 POP PUSH2 0x501 DUP3 PUSH2 0x4C2 JUMP JUMPDEST PUSH1 0x20 DUP3 ADD SWAP1 POP SWAP2 SWAP1 POP JUMP JUMPDEST PUSH0 PUSH1 0x20 DUP3 ADD SWAP1 POP DUP2 DUP2 SUB PUSH0 DUP4 ADD MSTORE PUSH2 0x523 DUP2 PUSH2 0x4EA JUMP JUMPDEST SWAP1 POP SWAP2 SWAP1 POP JUMP JUMPDEST PUSH32 0x496E76616C6964206665652077616C6C65740000000000000000000000000000 PUSH0 DUP3 ADD MSTORE POP JUMP JUMPDEST PUSH0 PUSH2 0x55E PUSH1 0x12 DUP4 PUSH2 0x44A JUMP JUMPDEST SWAP2 POP PUSH2 0x569 DUP3 PUSH2 0x52A JUMP JUMPDEST PUSH1 0x20 DUP3 ADD SWAP1 POP SWAP2 SWAP1 POP JUMP JUMPDEST PUSH0 PUSH1 0x20 DUP3 ADD SWAP1 POP DUP2 DUP2 SUB PUSH0 DUP4 ADD MSTORE PUSH2 0x58B DUP2 PUSH2 0x552 JUMP JUMPDEST SWAP1 POP SWAP2 SWAP1 POP JUMP JUMPDEST PUSH1 0x80 MLOAD PUSH1 0xA0 MLOAD PUSH2 0x21E9 PUSH2 0x5DD PUSH0 CODECOPY PUSH0 DUP2 DUP2 PUSH2 0x6EF ADD MSTORE DUP2 DUP2 PUSH2 0x7A9 ADD MSTORE DUP2 DUP2 PUSH2 0x883 ADD MSTORE DUP2 DUP2 PUSH2 0xBFE ADD MSTORE PUSH2 0xDD2 ADD MSTORE PUSH0 DUP2 DUP2 PUSH2 0x4E3 ADD MSTORE DUP2 DUP2 PUSH2 0xD3E ADD MSTORE PUSH2 0xD8B ADD MSTORE PUSH2 0x21E9 PUSH0 RETURN INVALID PUSH1 0x80 PUSH1 0x40 MSTORE CALLVALUE DUP1 ISZERO PUSH2 0xF JUMPI PUSH0 PUSH0 REVERT JUMPDEST POP PUSH1 0x4 CALLDATASIZE LT PUSH2 0x114 JUMPI PUSH0 CALLDATALOAD PUSH1 0xE0 SHR DUP1 PUSH4 0xBC197C81 GT PUSH2 0xA0 JUMPI DUP1 PUSH4 0xEC16B94A GT PUSH2 0x6F JUMPI DUP1 PUSH4 0xEC16B94A EQ PUSH2 0x2BD JUMPI DUP1 PUSH4 0xF23A6E61 EQ PUSH2 0x2D9 JUMPI DUP1 PUSH4 0xF25F4B56 EQ PUSH2 0x309 JUMPI DUP1 PUSH4 0xF2FDE38B EQ PUSH2 0x327 JUMPI DUP1 PUSH4 0xF6B45C46 EQ PUSH2 0x343 JUMPI PUSH2 0x114 JUMP JUMPDEST DUP1 PUSH4 0xBC197C81 EQ PUSH2 0x233 JUMPI DUP1 PUSH4 0xDDBCB5FA EQ PUSH2 0x263 JUMPI DUP1 PUSH4 0xE215F1CA EQ PUSH2 0x281 JUMPI DUP1 PUSH4 0xEAF98D23 EQ PUSH2 0x29F JUMPI PUSH2 0x114 JUMP JUMPDEST DUP1 PUSH4 0x8DA5CB5B GT PUSH2 0xE7 JUMPI DUP1 PUSH4 0x8DA5CB5B EQ PUSH2 0x18C JUMPI DUP1 PUSH4 0x90D49B9D EQ PUSH2 0x1AA JUMPI DUP1 PUSH4 0x927FBFC8 EQ PUSH2 0x1C6 JUMPI DUP1 PUSH4 0x95CCEA67 EQ PUSH2 0x1F9 JUMPI DUP1 PUSH4 0xAD9F20A6 EQ PUSH2 0x215 JUMPI PUSH2 0x114 JUMP JUMPDEST DUP1 PUSH4 0x1FFC9A7 EQ PUSH2 0x118 JUMPI DUP1 PUSH4 0x305A67A8 EQ PUSH2 0x148 JUMPI DUP1 PUSH4 0x58A0BDE3 EQ PUSH2 0x164 JUMPI DUP1 PUSH4 0x715018A6 EQ PUSH2 0x182 JUMPI JUMPDEST PUSH0 PUSH0 REVERT JUMPDEST PUSH2 0x132 PUSH1 0x4 DUP1 CALLDATASIZE SUB DUP2 ADD SWAP1 PUSH2 0x12D SWAP2 SWAP1 PUSH2 0x1413 JUMP JUMPDEST PUSH2 0x35F JUMP JUMPDEST PUSH1 0x40 MLOAD PUSH2 0x13F SWAP2 SWAP1 PUSH2 0x1458 JUMP JUMPDEST PUSH1 0x40 MLOAD DUP1 SWAP2 SUB SWAP1 RETURN JUMPDEST PUSH2 0x162 PUSH1 0x4 DUP1 CALLDATASIZE SUB DUP2 ADD SWAP1 PUSH2 0x15D SWAP2 SWAP1 PUSH2 0x14A4 JUMP JUMPDEST PUSH2 0x370 JUMP JUMPDEST STOP JUMPDEST PUSH2 0x16C PUSH2 0x4E1 JUMP JUMPDEST PUSH1 0x40 MLOAD PUSH2 0x179 SWAP2 SWAP1 PUSH2 0x1549 JUMP JUMPDEST PUSH1 0x40 MLOAD DUP1 SWAP2 SUB SWAP1 RETURN JUMPDEST PUSH2 0x18A PUSH2 0x505 JUMP JUMPDEST STOP JUMPDEST PUSH2 0x194 PUSH2 0x518 JUMP JUMPDEST PUSH1 0x40 MLOAD PUSH2 0x1A1 SWAP2 SWAP1 PUSH2 0x1582 JUMP JUMPDEST PUSH1 0x40 MLOAD DUP1 SWAP2 SUB SWAP1 RETURN JUMPDEST PUSH2 0x1C4 PUSH1 0x4 DUP1 CALLDATASIZE SUB DUP2 ADD SWAP1 PUSH2 0x1BF SWAP2 SWAP1 PUSH2 0x15C5 JUMP JUMPDEST PUSH2 0x53F JUMP JUMPDEST STOP JUMPDEST PUSH2 0x1E0 PUSH1 0x4 DUP1 CALLDATASIZE SUB DUP2 ADD SWAP1 PUSH2 0x1DB SWAP2 SWAP1 PUSH2 0x15F0 JUMP JUMPDEST PUSH2 0x63B JUMP JUMPDEST PUSH1 0x40 MLOAD PUSH2 0x1F0 SWAP5 SWAP4 SWAP3 SWAP2 SWAP1 PUSH2 0x163D JUMP JUMPDEST PUSH1 0x40 MLOAD DUP1 SWAP2 SUB SWAP1 RETURN JUMPDEST PUSH2 0x213 PUSH1 0x4 DUP1 CALLDATASIZE SUB DUP2 ADD SWAP1 PUSH2 0x20E SWAP2 SWAP1 PUSH2 0x1680 JUMP JUMPDEST PUSH2 0x691 JUMP JUMPDEST STOP JUMPDEST PUSH2 0x21D PUSH2 0x6CF JUMP JUMPDEST PUSH1 0x40 MLOAD PUSH2 0x22A SWAP2 SWAP1 PUSH2 0x16BE JUMP JUMPDEST PUSH1 0x40 MLOAD DUP1 SWAP2 SUB SWAP1 RETURN JUMPDEST PUSH2 0x24D PUSH1 0x4 DUP1 CALLDATASIZE SUB DUP2 ADD SWAP1 PUSH2 0x248 SWAP2 SWAP1 PUSH2 0x18D7 JUMP JUMPDEST PUSH2 0x6D4 JUMP JUMPDEST PUSH1 0x40 MLOAD PUSH2 0x25A SWAP2 SWAP1 PUSH2 0x19B1 JUMP JUMPDEST PUSH1 0x40 MLOAD DUP1 SWAP2 SUB SWAP1 RETURN JUMPDEST PUSH2 0x26B PUSH2 0x6E8 JUMP JUMPDEST PUSH1 0x40 MLOAD PUSH2 0x278 SWAP2 SWAP1 PUSH2 0x16BE JUMP JUMPDEST PUSH1 0x40 MLOAD DUP1 SWAP2 SUB SWAP1 RETURN JUMPDEST PUSH2 0x289 PUSH2 0x6ED JUMP JUMPDEST PUSH1 0x40 MLOAD PUSH2 0x296 SWAP2 SWAP1 PUSH2 0x19EA JUMP JUMPDEST PUSH1 0x40 MLOAD DUP1 SWAP2 SUB SWAP1 RETURN JUMPDEST PUSH2 0x2A7 PUSH2 0x711 JUMP JUMPDEST PUSH1 0x40 MLOAD PUSH2 0x2B4 SWAP2 SWAP1 PUSH2 0x16BE JUMP JUMPDEST PUSH1 0x40 MLOAD DUP1 SWAP2 SUB SWAP1 RETURN JUMPDEST PUSH2 0x2D7 PUSH1 0x4 DUP1 CALLDATASIZE SUB DUP2 ADD SWAP1 PUSH2 0x2D2 SWAP2 SWAP1 PUSH2 0x1A03 JUMP JUMPDEST PUSH2 0x716 JUMP JUMPDEST STOP JUMPDEST PUSH2 0x2F3 PUSH1 0x4 DUP1 CALLDATASIZE SUB DUP2 ADD SWAP1 PUSH2 0x2EE SWAP2 SWAP1 PUSH2 0x1A53 JUMP JUMPDEST PUSH2 0xAA0 JUMP JUMPDEST PUSH1 0x40 MLOAD PUSH2 0x300 SWAP2 SWAP1 PUSH2 0x19B1 JUMP JUMPDEST PUSH1 0x40 MLOAD DUP1 SWAP2 SUB SWAP1 RETURN JUMPDEST PUSH2 0x311 PUSH2 0xAB4 JUMP JUMPDEST PUSH1 0x40 MLOAD PUSH2 0x31E SWAP2 SWAP1 PUSH2 0x1582 JUMP JUMPDEST PUSH1 0x40 MLOAD DUP1 SWAP2 SUB SWAP1 RETURN JUMPDEST PUSH2 0x341 PUSH1 0x4 DUP1 CALLDATASIZE SUB DUP2 ADD SWAP1 PUSH2 0x33C SWAP2 SWAP1 PUSH2 0x15C5 JUMP JUMPDEST PUSH2 0xAD9 JUMP JUMPDEST STOP JUMPDEST PUSH2 0x35D PUSH1 0x4 DUP1 CALLDATASIZE SUB DUP2 ADD SWAP1 PUSH2 0x358 SWAP2 SWAP1 PUSH2 0x1AE6 JUMP JUMPDEST PUSH2 0xB5D JUMP JUMPDEST STOP JUMPDEST PUSH0 PUSH2 0x369 DUP3 PUSH2 0xF88 JUMP JUMPDEST SWAP1 POP SWAP2 SWAP1 POP JUMP JUMPDEST PUSH2 0x378 PUSH2 0x1001 JUMP JUMPDEST PUSH0 PUSH1 0x3 PUSH0 DUP4 DUP2 MSTORE PUSH1 0x20 ADD SWAP1 DUP2 MSTORE PUSH1 0x20 ADD PUSH0 KECCAK256 PUSH0 CALLER PUSH20 0xFFFFFFFFFFFFFFFFFFFFFFFFFFFFFFFFFFFFFFFF AND PUSH20 0xFFFFFFFFFFFFFFFFFFFFFFFFFFFFFFFFFFFFFFFF AND DUP2 MSTORE PUSH1 0x20 ADD SWAP1 DUP2 MSTORE PUSH1 0x20 ADD PUSH0 KECCAK256 PUSH1 0x2 ADD SLOAD GT PUSH2 0x409 JUMPI PUSH1 0x40 MLOAD PUSH32 0x8C379A000000000000000000000000000000000000000000000000000000000 DUP2 MSTORE PUSH1 0x4 ADD PUSH2 0x400 SWAP1 PUSH2 0x1B90 JUMP JUMPDEST PUSH1 0x40 MLOAD DUP1 SWAP2 SUB SWAP1 REVERT JUMPDEST PUSH1 0x3 PUSH0 DUP3 DUP2 MSTORE PUSH1 0x20 ADD SWAP1 DUP2 MSTORE PUSH1 0x20 ADD PUSH0 KECCAK256 PUSH0 CALLER PUSH20 0xFFFFFFFFFFFFFFFFFFFFFFFFFFFFFFFFFFFFFFFF AND PUSH20 0xFFFFFFFFFFFFFFFFFFFFFFFFFFFFFFFFFFFFFFFF AND DUP2 MSTORE PUSH1 0x20 ADD SWAP1 DUP2 MSTORE PUSH1 0x20 ADD PUSH0 KECCAK256 PUSH0 PUSH0 DUP3 ADD PUSH0 PUSH2 0x100 EXP DUP2 SLOAD SWAP1 PUSH20 0xFFFFFFFFFFFFFFFFFFFFFFFFFFFFFFFFFFFFFFFF MUL NOT AND SWAP1 SSTORE PUSH1 0x1 DUP3 ADD PUSH0 SWAP1 SSTORE PUSH1 0x2 DUP3 ADD PUSH0 SWAP1 SSTORE PUSH1 0x3 DUP3 ADD PUSH0 SWAP1 SSTORE POP POP DUP1 CALLER PUSH20 0xFFFFFFFFFFFFFFFFFFFFFFFFFFFFFFFFFFFFFFFF AND PUSH32 0x93EC4766FCD2D9DFDCEAB8F2E13BA0D9D826645CF03167FDB92B3B7359B5248C PUSH1 0x40 MLOAD PUSH1 0x40 MLOAD DUP1 SWAP2 SUB SWAP1 LOG3 PUSH2 0x4DE PUSH2 0x1050 JUMP JUMPDEST POP JUMP JUMPDEST PUSH32 0x0 DUP2 JUMP JUMPDEST PUSH2 0x50D PUSH2 0x1059 JUMP JUMPDEST PUSH2 0x516 PUSH0 PUSH2 0x10E0 JUMP JUMPDEST JUMP JUMPDEST PUSH0 PUSH0 PUSH0 SWAP1 SLOAD SWAP1 PUSH2 0x100 EXP SWAP1 DIV PUSH20 0xFFFFFFFFFFFFFFFFFFFFFFFFFFFFFFFFFFFFFFFF AND SWAP1 POP SWAP1 JUMP JUMPDEST PUSH2 0x547 PUSH2 0x1059 JUMP JUMPDEST PUSH0 PUSH20 0xFFFFFFFFFFFFFFFFFFFFFFFFFFFFFFFFFFFFFFFF AND DUP2 PUSH20 0xFFFFFFFFFFFFFFFFFFFFFFFFFFFFFFFFFFFFFFFF AND SUB PUSH2 0x5B5 JUMPI PUSH1 0x40 MLOAD PUSH32 0x8C379A000000000000000000000000000000000000000000000000000000000 DUP2 MSTORE PUSH1 0x4 ADD PUSH2 0x5AC SWAP1 PUSH2 0x1BF8 JUMP JUMPDEST PUSH1 0x40 MLOAD DUP1 SWAP2 SUB SWAP1 REVERT JUMPDEST DUP1 PUSH1 0x2 PUSH0 PUSH2 0x100 EXP DUP2 SLOAD DUP2 PUSH20 0xFFFFFFFFFFFFFFFFFFFFFFFFFFFFFFFFFFFFFFFF MUL NOT AND SWAP1 DUP4 PUSH20 0xFFFFFFFFFFFFFFFFFFFFFFFFFFFFFFFFFFFFFFFF AND MUL OR SWAP1 SSTORE POP DUP1 PUSH20 0xFFFFFFFFFFFFFFFFFFFFFFFFFFFFFFFFFFFFFFFF AND PUSH32 0x29ACEE77DAFCFA0143D74A7EA236018F3A6E1FA71E27FC59BBFBC6B8CA8EDCCD PUSH1 0x40 MLOAD PUSH1 0x40 MLOAD DUP1 SWAP2 SUB SWAP1 LOG2 POP JUMP JUMPDEST PUSH1 0x3 PUSH1 0x20 MSTORE DUP2 PUSH0 MSTORE PUSH1 0x40 PUSH0 KECCAK256 PUSH1 0x20 MSTORE DUP1 PUSH0 MSTORE PUSH1 0x40 PUSH0 KECCAK256 PUSH0 SWAP2 POP SWAP2 POP POP DUP1 PUSH0 ADD PUSH0 SWAP1 SLOAD SWAP1 PUSH2 0x100 EXP SWAP1 DIV PUSH20 0xFFFFFFFFFFFFFFFFFFFFFFFFFFFFFFFFFFFFFFFF AND SWAP1 DUP1 PUSH1 0x1 ADD SLOAD SWAP1 DUP1 PUSH1 0x2 ADD SLOAD SWAP1 DUP1 PUSH1 0x3 ADD SLOAD SWAP1 POP DUP5 JUMP JUMPDEST PUSH2 0x699 PUSH2 0x1059 JUMP JUMPDEST PUSH2 0x6CB PUSH2 0x6A4 PUSH2 0x518 JUMP JUMPDEST DUP3 DUP5 PUSH20 0xFFFFFFFFFFFFFFFFFFFFFFFFFFFFFFFFFFFFFFFF AND PUSH2 0x11A1 SWAP1 SWAP3 SWAP2 SWAP1 PUSH4 0xFFFFFFFF AND JUMP JUMPDEST POP POP JUMP JUMPDEST PUSH1 0x1 DUP2 JUMP JUMPDEST PUSH0 PUSH4 0xBC197C81 PUSH1 0xE0 SHL SWAP1 POP SWAP6 SWAP5 POP POP POP POP POP JUMP JUMPDEST PUSH1 0x1 DUP2 JUMP JUMPDEST PUSH32 0x0 DUP2 JUMP JUMPDEST PUSH1 0x64 DUP2 JUMP JUMPDEST PUSH2 0x71E PUSH2 0x1001 JUMP JUMPDEST PUSH1 0x1 DUP3 LT ISZERO PUSH2 0x762 JUMPI PUSH1 0x40 MLOAD PUSH32 0x8C379A000000000000000000000000000000000000000000000000000000000 DUP2 MSTORE PUSH1 0x4 ADD PUSH2 0x759 SWAP1 PUSH2 0x1C60 JUMP JUMPDEST PUSH1 0x40 MLOAD DUP1 SWAP2 SUB SWAP1 REVERT JUMPDEST PUSH1 0x1 DUP2 LT ISZERO PUSH2 0x7A6 JUMPI PUSH1 0x40 MLOAD PUSH32 0x8C379A000000000000000000000000000000000000000000000000000000000 DUP2 MSTORE PUSH1 0x4 ADD PUSH2 0x79D SWAP1 PUSH2 0x1CC8 JUMP JUMPDEST PUSH1 0x40 MLOAD DUP1 SWAP2 SUB SWAP1 REVERT JUMPDEST DUP2 PUSH32 0x0 PUSH20 0xFFFFFFFFFFFFFFFFFFFFFFFFFFFFFFFFFFFFFFFF AND PUSH3 0xFDD58E CALLER DUP7 PUSH1 0x40 MLOAD DUP4 PUSH4 0xFFFFFFFF AND PUSH1 0xE0 SHL DUP2 MSTORE PUSH1 0x4 ADD PUSH2 0x801 SWAP3 SWAP2 SWAP1 PUSH2 0x1CE6 JUMP JUMPDEST PUSH1 0x20 PUSH1 0x40 MLOAD DUP1 DUP4 SUB DUP2 DUP7 GAS STATICCALL ISZERO DUP1 ISZERO PUSH2 0x81C JUMPI RETURNDATASIZE PUSH0 PUSH0 RETURNDATACOPY RETURNDATASIZE PUSH0 REVERT JUMPDEST POP POP POP POP PUSH1 0x40 MLOAD RETURNDATASIZE PUSH1 0x1F NOT PUSH1 0x1F DUP3 ADD AND DUP3 ADD DUP1 PUSH1 0x40 MSTORE POP DUP2 ADD SWAP1 PUSH2 0x840 SWAP2 SWAP1 PUSH2 0x1D21 JUMP JUMPDEST LT ISZERO PUSH2 0x881 JUMPI PUSH1 0x40 MLOAD PUSH32 0x8C379A000000000000000000000000000000000000000000000000000000000 DUP2 MSTORE PUSH1 0x4 ADD PUSH2 0x878 SWAP1 PUSH2 0x1D96 JUMP JUMPDEST PUSH1 0x40 MLOAD DUP1 SWAP2 SUB SWAP1 REVERT JUMPDEST PUSH32 0x0 PUSH20 0xFFFFFFFFFFFFFFFFFFFFFFFFFFFFFFFFFFFFFFFF AND PUSH4 0xE985E9C5 CALLER ADDRESS PUSH1 0x40 MLOAD DUP4 PUSH4 0xFFFFFFFF AND PUSH1 0xE0 SHL DUP2 MSTORE PUSH1 0x4 ADD PUSH2 0x8DC SWAP3 SWAP2 SWAP1 PUSH2 0x1DB4 JUMP JUMPDEST PUSH1 0x20 PUSH1 0x40 MLOAD DUP1 DUP4 SUB DUP2 DUP7 GAS STATICCALL ISZERO DUP1 ISZERO PUSH2 0x8F7 JUMPI RETURNDATASIZE PUSH0 PUSH0 RETURNDATACOPY RETURNDATASIZE PUSH0 REVERT JUMPDEST POP POP POP POP PUSH1 0x40 MLOAD RETURNDATASIZE PUSH1 0x1F NOT PUSH1 0x1F DUP3 ADD AND DUP3 ADD DUP1 PUSH1 0x40 MSTORE POP DUP2 ADD SWAP1 PUSH2 0x91B SWAP2 SWAP1 PUSH2 0x1E05 JUMP JUMPDEST PUSH2 0x95A JUMPI PUSH1 0x40 MLOAD PUSH32 0x8C379A000000000000000000000000000000000000000000000000000000000 DUP2 MSTORE PUSH1 0x4 ADD PUSH2 0x951 SWAP1 PUSH2 0x1E7A JUMP JUMPDEST PUSH1 0x40 MLOAD DUP1 SWAP2 SUB SWAP1 REVERT JUMPDEST PUSH1 0x40 MLOAD DUP1 PUSH1 0x80 ADD PUSH1 0x40 MSTORE DUP1 CALLER PUSH20 0xFFFFFFFFFFFFFFFFFFFFFFFFFFFFFFFFFFFFFFFF AND DUP2 MSTORE PUSH1 0x20 ADD DUP5 DUP2 MSTORE PUSH1 0x20 ADD DUP4 DUP2 MSTORE PUSH1 0x20 ADD DUP3 DUP2 MSTORE POP PUSH1 0x3 PUSH0 DUP6 DUP2 MSTORE PUSH1 0x20 ADD SWAP1 DUP2 MSTORE PUSH1 0x20 ADD PUSH0 KECCAK256 PUSH0 CALLER PUSH20 0xFFFFFFFFFFFFFFFFFFFFFFFFFFFFFFFFFFFFFFFF AND PUSH20 0xFFFFFFFFFFFFFFFFFFFFFFFFFFFFFFFFFFFFFFFF AND DUP2 MSTORE PUSH1 0x20 ADD SWAP1 DUP2 MSTORE PUSH1 0x20 ADD PUSH0 KECCAK256 PUSH0 DUP3 ADD MLOAD DUP2 PUSH0 ADD PUSH0 PUSH2 0x100 EXP DUP2 SLOAD DUP2 PUSH20 0xFFFFFFFFFFFFFFFFFFFFFFFFFFFFFFFFFFFFFFFF MUL NOT AND SWAP1 DUP4 PUSH20 0xFFFFFFFFFFFFFFFFFFFFFFFFFFFFFFFFFFFFFFFF AND MUL OR SWAP1 SSTORE POP PUSH1 0x20 DUP3 ADD MLOAD DUP2 PUSH1 0x1 ADD SSTORE PUSH1 0x40 DUP3 ADD MLOAD DUP2 PUSH1 0x2 ADD SSTORE PUSH1 0x60 DUP3 ADD MLOAD DUP2 PUSH1 0x3 ADD SSTORE SWAP1 POP POP DUP3 CALLER PUSH20 0xFFFFFFFFFFFFFFFFFFFFFFFFFFFFFFFFFFFFFFFF AND PUSH32 0x58DAEE15640543CE9C441AAF5417A2860FD1FD6B7E8A9648D1BB4D2B0C17B62A DUP5 DUP5 PUSH1 0x40 MLOAD PUSH2 0xA8B SWAP3 SWAP2 SWAP1 PUSH2 0x1E98 JUMP JUMPDEST PUSH1 0x40 MLOAD DUP1 SWAP2 SUB SWAP1 LOG3 PUSH2 0xA9B PUSH2 0x1050 JUMP JUMPDEST POP POP POP JUMP JUMPDEST PUSH0 PUSH4 0xF23A6E61 PUSH1 0xE0 SHL SWAP1 POP SWAP6 SWAP5 POP POP POP POP POP JUMP JUMPDEST PUSH1 0x2 PUSH0 SWAP1 SLOAD SWAP1 PUSH2 0x100 EXP SWAP1 DIV PUSH20 0xFFFFFFFFFFFFFFFFFFFFFFFFFFFFFFFFFFFFFFFF AND DUP2 JUMP JUMPDEST PUSH2 0xAE1 PUSH2 0x1059 JUMP JUMPDEST PUSH0 PUSH20 0xFFFFFFFFFFFFFFFFFFFFFFFFFFFFFFFFFFFFFFFF AND DUP2 PUSH20 0xFFFFFFFFFFFFFFFFFFFFFFFFFFFFFFFFFFFFFFFF AND SUB PUSH2 0xB51 JUMPI PUSH0 PUSH1 0x40 MLOAD PUSH32 0x1E4FBDF700000000000000000000000000000000000000000000000000000000 DUP2 MSTORE PUSH1 0x4 ADD PUSH2 0xB48 SWAP2 SWAP1 PUSH2 0x1582 JUMP JUMPDEST PUSH1 0x40 MLOAD DUP1 SWAP2 SUB SWAP1 REVERT JUMPDEST PUSH2 0xB5A DUP2 PUSH2 0x10E0 JUMP JUMPDEST POP JUMP JUMPDEST PUSH2 0xB65 PUSH2 0x1001 JUMP JUMPDEST PUSH0 PUSH1 0x3 PUSH0 DUP5 DUP2 MSTORE PUSH1 0x20 ADD SWAP1 DUP2 MSTORE PUSH1 0x20 ADD PUSH0 KECCAK256 PUSH0 DUP6 PUSH20 0xFFFFFFFFFFFFFFFFFFFFFFFFFFFFFFFFFFFFFFFF AND PUSH20 0xFFFFFFFFFFFFFFFFFFFFFFFFFFFFFFFFFFFFFFFF AND DUP2 MSTORE PUSH1 0x20 ADD SWAP1 DUP2 MSTORE PUSH1 0x20 ADD PUSH0 KECCAK256 SWAP1 POP DUP2 DUP2 PUSH1 0x2 ADD SLOAD LT ISZERO PUSH2 0xBFB JUMPI PUSH1 0x40 MLOAD PUSH32 0x8C379A000000000000000000000000000000000000000000000000000000000 DUP2 MSTORE PUSH1 0x4 ADD PUSH2 0xBF2 SWAP1 PUSH2 0x1F09 JUMP JUMPDEST PUSH1 0x40 MLOAD DUP1 SWAP2 SUB SWAP1 REVERT JUMPDEST DUP2 PUSH32 0x0 PUSH20 0xFFFFFFFFFFFFFFFFFFFFFFFFFFFFFFFFFFFFFFFF AND PUSH3 0xFDD58E DUP7 DUP7 PUSH1 0x40 MLOAD DUP4 PUSH4 0xFFFFFFFF AND PUSH1 0xE0 SHL DUP2 MSTORE PUSH1 0x4 ADD PUSH2 0xC56 SWAP3 SWAP2 SWAP1 PUSH2 0x1CE6 JUMP JUMPDEST PUSH1 0x20 PUSH1 0x40 MLOAD DUP1 DUP4 SUB DUP2 DUP7 GAS STATICCALL ISZERO DUP1 ISZERO PUSH2 0xC71 JUMPI RETURNDATASIZE PUSH0 PUSH0 RETURNDATACOPY RETURNDATASIZE PUSH0 REVERT JUMPDEST POP POP POP POP PUSH1 0x40 MLOAD RETURNDATASIZE PUSH1 0x1F NOT PUSH1 0x1F DUP3 ADD AND DUP3 ADD DUP1 PUSH1 0x40 MSTORE POP DUP2 ADD SWAP1 PUSH2 0xC95 SWAP2 SWAP1 PUSH2 0x1D21 JUMP JUMPDEST LT ISZERO PUSH2 0xCD6 JUMPI PUSH1 0x40 MLOAD PUSH32 0x8C379A000000000000000000000000000000000000000000000000000000000 DUP2 MSTORE PUSH1 0x4 ADD PUSH2 0xCCD SWAP1 PUSH2 0x1F71 JUMP JUMPDEST PUSH1 0x40 MLOAD DUP1 SWAP2 SUB SWAP1 REVERT JUMPDEST PUSH0 DUP3 DUP3 PUSH1 0x3 ADD SLOAD PUSH2 0xCE7 SWAP2 SWAP1 PUSH2 0x1FBC JUMP JUMPDEST SWAP1 POP PUSH0 PUSH2 0x2710 PUSH1 0x64 DUP4 PUSH2 0xCFA SWAP2 SWAP1 PUSH2 0x1FBC JUMP JUMPDEST PUSH2 0xD04 SWAP2 SWAP1 PUSH2 0x202A JUMP JUMPDEST SWAP1 POP PUSH0 DUP2 DUP4 PUSH2 0xD13 SWAP2 SWAP1 PUSH2 0x205A JUMP JUMPDEST SWAP1 POP PUSH2 0xD83 CALLER PUSH1 0x2 PUSH0 SWAP1 SLOAD SWAP1 PUSH2 0x100 EXP SWAP1 DIV PUSH20 0xFFFFFFFFFFFFFFFFFFFFFFFFFFFFFFFFFFFFFFFF AND DUP5 PUSH32 0x0 PUSH20 0xFFFFFFFFFFFFFFFFFFFFFFFFFFFFFFFFFFFFFFFF AND PUSH2 0x1220 SWAP1 SWAP4 SWAP3 SWAP2 SWAP1 PUSH4 0xFFFFFFFF AND JUMP JUMPDEST PUSH2 0xDD0 CALLER DUP9 DUP4 PUSH32 0x0 PUSH20 0xFFFFFFFFFFFFFFFFFFFFFFFFFFFFFFFFFFFFFFFF AND PUSH2 0x1220 SWAP1 SWAP4 SWAP3 SWAP2 SWAP1 PUSH4 0xFFFFFFFF AND JUMP JUMPDEST PUSH32 0x0 PUSH20 0xFFFFFFFFFFFFFFFFFFFFFFFFFFFFFFFFFFFFFFFF AND PUSH4 0xF242432A DUP9 CALLER DUP10 DUP10 PUSH1 0x40 MLOAD DUP6 PUSH4 0xFFFFFFFF AND PUSH1 0xE0 SHL DUP2 MSTORE PUSH1 0x4 ADD PUSH2 0xE2F SWAP5 SWAP4 SWAP3 SWAP2 SWAP1 PUSH2 0x20C0 JUMP JUMPDEST PUSH0 PUSH1 0x40 MLOAD DUP1 DUP4 SUB DUP2 PUSH0 DUP8 DUP1 EXTCODESIZE ISZERO DUP1 ISZERO PUSH2 0xE46 JUMPI PUSH0 PUSH0 REVERT JUMPDEST POP GAS CALL ISZERO DUP1 ISZERO PUSH2 0xE58 JUMPI RETURNDATASIZE PUSH0 PUSH0 RETURNDATACOPY RETURNDATASIZE PUSH0 REVERT JUMPDEST POP POP POP POP DUP5 DUP5 PUSH1 0x2 ADD PUSH0 DUP3 DUP3 SLOAD PUSH2 0xE6F SWAP2 SWAP1 PUSH2 0x205A JUMP JUMPDEST SWAP3 POP POP DUP2 SWAP1 SSTORE POP PUSH0 DUP5 PUSH1 0x2 ADD SLOAD SUB PUSH2 0xF0B JUMPI PUSH1 0x3 PUSH0 DUP8 DUP2 MSTORE PUSH1 0x20 ADD SWAP1 DUP2 MSTORE PUSH1 0x20 ADD PUSH0 KECCAK256 PUSH0 DUP9 PUSH20 0xFFFFFFFFFFFFFFFFFFFFFFFFFFFFFFFFFFFFFFFF AND PUSH20 0xFFFFFFFFFFFFFFFFFFFFFFFFFFFFFFFFFFFFFFFF AND DUP2 MSTORE PUSH1 0x20 ADD SWAP1 DUP2 MSTORE PUSH1 0x20 ADD PUSH0 KECCAK256 PUSH0 PUSH0 DUP3 ADD PUSH0 PUSH2 0x100 EXP DUP2 SLOAD SWAP1 PUSH20 0xFFFFFFFFFFFFFFFFFFFFFFFFFFFFFFFFFFFFFFFF MUL NOT AND SWAP1 SSTORE PUSH1 0x1 DUP3 ADD PUSH0 SWAP1 SSTORE PUSH1 0x2 DUP3 ADD PUSH0 SWAP1 SSTORE PUSH1 0x3 DUP3 ADD PUSH0 SWAP1 SSTORE POP POP JUMPDEST DUP6 CALLER PUSH20 0xFFFFFFFFFFFFFFFFFFFFFFFFFFFFFFFFFFFFFFFF AND DUP9 PUSH20 0xFFFFFFFFFFFFFFFFFFFFFFFFFFFFFFFFFFFFFFFF AND PUSH32 0xF02DB46465EB9E76C10F2AA3EB522115E5F8DC7DA63FC2E81CE4F984B775816E DUP9 DUP9 PUSH1 0x3 ADD SLOAD PUSH1 0x40 MLOAD PUSH2 0xF6F SWAP3 SWAP2 SWAP1 PUSH2 0x1E98 JUMP JUMPDEST PUSH1 0x40 MLOAD DUP1 SWAP2 SUB SWAP1 LOG4 POP POP POP POP PUSH2 0xF83 PUSH2 0x1050 JUMP JUMPDEST POP POP POP JUMP JUMPDEST PUSH0 PUSH32 0x4E2312E000000000000000000000000000000000000000000000000000000000 PUSH28 0xFFFFFFFFFFFFFFFFFFFFFFFFFFFFFFFFFFFFFFFFFFFFFFFFFFFFFFFF NOT AND DUP3 PUSH28 0xFFFFFFFFFFFFFFFFFFFFFFFFFFFFFFFFFFFFFFFFFFFFFFFFFFFFFFFF NOT AND EQ DUP1 PUSH2 0xFFA JUMPI POP PUSH2 0xFF9 DUP3 PUSH2 0x12A2 JUMP JUMPDEST JUMPDEST SWAP1 POP SWAP2 SWAP1 POP JUMP JUMPDEST PUSH1 0x2 PUSH1 0x1 SLOAD SUB PUSH2 0x1046 JUMPI PUSH1 0x40 MLOAD PUSH32 0x8C379A000000000000000000000000000000000000000000000000000000000 DUP2 MSTORE PUSH1 0x4 ADD PUSH2 0x103D SWAP1 PUSH2 0x2160 JUMP JUMPDEST PUSH1 0x40 MLOAD DUP1 SWAP2 SUB SWAP1 REVERT JUMPDEST PUSH1 0x2 PUSH1 0x1 DUP2 SWAP1 SSTORE POP JUMP JUMPDEST PUSH1 0x1 DUP1 DUP2 SWAP1 SSTORE POP JUMP JUMPDEST PUSH2 0x1061 PUSH2 0x130B JUMP JUMPDEST PUSH20 0xFFFFFFFFFFFFFFFFFFFFFFFFFFFFFFFFFFFFFFFF AND PUSH2 0x107F PUSH2 0x518 JUMP JUMPDEST PUSH20 0xFFFFFFFFFFFFFFFFFFFFFFFFFFFFFFFFFFFFFFFF AND EQ PUSH2 0x10DE JUMPI PUSH2 0x10A2 PUSH2 0x130B JUMP JUMPDEST PUSH1 0x40 MLOAD PUSH32 0x118CDAA700000000000000000000000000000000000000000000000000000000 DUP2 MSTORE PUSH1 0x4 ADD PUSH2 0x10D5 SWAP2 SWAP1 PUSH2 0x1582 JUMP JUMPDEST PUSH1 0x40 MLOAD DUP1 SWAP2 SUB SWAP1 REVERT JUMPDEST JUMP JUMPDEST PUSH0 PUSH0 PUSH0 SWAP1 SLOAD SWAP1 PUSH2 0x100 EXP SWAP1 DIV PUSH20 0xFFFFFFFFFFFFFFFFFFFFFFFFFFFFFFFFFFFFFFFF AND SWAP1 POP DUP2 PUSH0 PUSH0 PUSH2 0x100 EXP DUP2 SLOAD DUP2 PUSH20 0xFFFFFFFFFFFFFFFFFFFFFFFFFFFFFFFFFFFFFFFF MUL NOT AND SWAP1 DUP4 PUSH20 0xFFFFFFFFFFFFFFFFFFFFFFFFFFFFFFFFFFFFFFFF AND MUL OR SWAP1 SSTORE POP DUP2 PUSH20 0xFFFFFFFFFFFFFFFFFFFFFFFFFFFFFFFFFFFFFFFF AND DUP2 PUSH20 0xFFFFFFFFFFFFFFFFFFFFFFFFFFFFFFFFFFFFFFFF AND PUSH32 0x8BE0079C531659141344CD1FD0A4F28419497F9722A3DAAFE3B4186F6B6457E0 PUSH1 0x40 MLOAD PUSH1 0x40 MLOAD DUP1 SWAP2 SUB SWAP1 LOG3 POP POP JUMP JUMPDEST PUSH2 0x121B DUP4 DUP5 PUSH20 0xFFFFFFFFFFFFFFFFFFFFFFFFFFFFFFFFFFFFFFFF AND PUSH4 0xA9059CBB DUP6 DUP6 PUSH1 0x40 MLOAD PUSH1 0x24 ADD PUSH2 0x11D4 SWAP3 SWAP2 SWAP1 PUSH2 0x1CE6 JUMP JUMPDEST PUSH1 0x40 MLOAD PUSH1 0x20 DUP2 DUP4 SUB SUB DUP2 MSTORE SWAP1 PUSH1 0x40 MSTORE SWAP2 POP PUSH1 0xE0 SHL PUSH1 0x20 DUP3 ADD DUP1 MLOAD PUSH28 0xFFFFFFFFFFFFFFFFFFFFFFFFFFFFFFFFFFFFFFFFFFFFFFFFFFFFFFFF DUP4 DUP2 DUP4 AND OR DUP4 MSTORE POP POP POP POP PUSH2 0x1312 JUMP JUMPDEST POP POP POP JUMP JUMPDEST PUSH2 0x129C DUP5 DUP6 PUSH20 0xFFFFFFFFFFFFFFFFFFFFFFFFFFFFFFFFFFFFFFFF AND PUSH4 0x23B872DD DUP7 DUP7 DUP7 PUSH1 0x40 MLOAD PUSH1 0x24 ADD PUSH2 0x1255 SWAP4 SWAP3 SWAP2 SWAP1 PUSH2 0x217E JUMP JUMPDEST PUSH1 0x40 MLOAD PUSH1 0x20 DUP2 DUP4 SUB SUB DUP2 MSTORE SWAP1 PUSH1 0x40 MSTORE SWAP2 POP PUSH1 0xE0 SHL PUSH1 0x20 DUP3 ADD DUP1 MLOAD PUSH28 0xFFFFFFFFFFFFFFFFFFFFFFFFFFFFFFFFFFFFFFFFFFFFFFFFFFFFFFFF DUP4 DUP2 DUP4 AND OR DUP4 MSTORE POP POP POP POP PUSH2 0x1312 JUMP JUMPDEST POP POP POP POP JUMP JUMPDEST PUSH0 PUSH32 0x1FFC9A700000000000000000000000000000000000000000000000000000000 PUSH28 0xFFFFFFFFFFFFFFFFFFFFFFFFFFFFFFFFFFFFFFFFFFFFFFFFFFFFFFFF NOT AND DUP3 PUSH28 0xFFFFFFFFFFFFFFFFFFFFFFFFFFFFFFFFFFFFFFFFFFFFFFFFFFFFFFFF NOT AND EQ SWAP1 POP SWAP2 SWAP1 POP JUMP JUMPDEST PUSH0 CALLER SWAP1 POP SWAP1 JUMP JUMPDEST PUSH0 PUSH0 PUSH1 0x20 PUSH0 DUP5 MLOAD PUSH1 0x20 DUP7 ADD PUSH0 DUP9 GAS CALL DUP1 PUSH2 0x1331 JUMPI PUSH1 0x40 MLOAD RETURNDATASIZE PUSH0 DUP3 RETURNDATACOPY RETURNDATASIZE DUP2 REVERT JUMPDEST RETURNDATASIZE SWAP3 POP PUSH0 MLOAD SWAP2 POP POP PUSH0 DUP3 EQ PUSH2 0x134A JUMPI PUSH1 0x1 DUP2 EQ ISZERO PUSH2 0x1365 JUMP JUMPDEST PUSH0 DUP5 PUSH20 0xFFFFFFFFFFFFFFFFFFFFFFFFFFFFFFFFFFFFFFFF AND EXTCODESIZE EQ JUMPDEST ISZERO PUSH2 0x13A7 JUMPI DUP4 PUSH1 0x40 MLOAD PUSH32 0x5274AFE700000000000000000000000000000000000000000000000000000000 DUP2 MSTORE PUSH1 0x4 ADD PUSH2 0x139E SWAP2 SWAP1 PUSH2 0x1582 JUMP JUMPDEST PUSH1 0x40 MLOAD DUP1 SWAP2 SUB SWAP1 REVERT JUMPDEST POP POP POP POP JUMP JUMPDEST PUSH0 PUSH1 0x40 MLOAD SWAP1 POP SWAP1 JUMP JUMPDEST PUSH0 PUSH0 REVERT JUMPDEST PUSH0 PUSH0 REVERT JUMPDEST PUSH0 PUSH32 0xFFFFFFFF00000000000000000000000000000000000000000000000000000000 DUP3 AND SWAP1 POP SWAP2 SWAP1 POP JUMP JUMPDEST PUSH2 0x13F2 DUP2 PUSH2 0x13BE JUMP JUMPDEST DUP2 EQ PUSH2 0x13FC JUMPI PUSH0 PUSH0 REVERT JUMPDEST POP JUMP JUMPDEST PUSH0 DUP2 CALLDATALOAD SWAP1 POP PUSH2 0x140D DUP2 PUSH2 0x13E9 JUMP JUMPDEST SWAP3 SWAP2 POP POP JUMP JUMPDEST PUSH0 PUSH1 0x20 DUP3 DUP5 SUB SLT ISZERO PUSH2 0x1428 JUMPI PUSH2 0x1427 PUSH2 0x13B6 JUMP JUMPDEST JUMPDEST PUSH0 PUSH2 0x1435 DUP5 DUP3 DUP6 ADD PUSH2 0x13FF JUMP JUMPDEST SWAP2 POP POP SWAP3 SWAP2 POP POP JUMP JUMPDEST PUSH0 DUP2 ISZERO ISZERO SWAP1 POP SWAP2 SWAP1 POP JUMP JUMPDEST PUSH2 0x1452 DUP2 PUSH2 0x143E JUMP JUMPDEST DUP3 MSTORE POP POP JUMP JUMPDEST PUSH0 PUSH1 0x20 DUP3 ADD SWAP1 POP PUSH2 0x146B PUSH0 DUP4 ADD DUP5 PUSH2 0x1449 JUMP JUMPDEST SWAP3 SWAP2 POP POP JUMP JUMPDEST PUSH0 DUP2 SWAP1 POP SWAP2 SWAP1 POP JUMP JUMPDEST PUSH2 0x1483 DUP2 PUSH2 0x1471 JUMP JUMPDEST DUP2 EQ PUSH2 0x148D JUMPI PUSH0 PUSH0 REVERT JUMPDEST POP JUMP JUMPDEST PUSH0 DUP2 CALLDATALOAD SWAP1 POP PUSH2 0x149E DUP2 PUSH2 0x147A JUMP JUMPDEST SWAP3 SWAP2 POP POP JUMP JUMPDEST PUSH0 PUSH1 0x20 DUP3 DUP5 SUB SLT ISZERO PUSH2 0x14B9 JUMPI PUSH2 0x14B8 PUSH2 0x13B6 JUMP JUMPDEST JUMPDEST PUSH0 PUSH2 0x14C6 DUP5 DUP3 DUP6 ADD PUSH2 0x1490 JUMP JUMPDEST SWAP2 POP POP SWAP3 SWAP2 POP POP JUMP JUMPDEST PUSH0 PUSH20 0xFFFFFFFFFFFFFFFFFFFFFFFFFFFFFFFFFFFFFFFF DUP3 AND SWAP1 POP SWAP2 SWAP1 POP JUMP JUMPDEST PUSH0 DUP2 SWAP1 POP SWAP2 SWAP1 POP JUMP JUMPDEST PUSH0 PUSH2 0x1511 PUSH2 0x150C PUSH2 0x1507 DUP5 PUSH2 0x14CF JUMP JUMPDEST PUSH2 0x14EE JUMP JUMPDEST PUSH2 0x14CF JUMP JUMPDEST SWAP1 POP SWAP2 SWAP1 POP JUMP JUMPDEST PUSH0 PUSH2 0x1522 DUP3 PUSH2 0x14F7 JUMP JUMPDEST SWAP1 POP SWAP2 SWAP1 POP JUMP JUMPDEST PUSH0 PUSH2 0x1533 DUP3 PUSH2 0x1518 JUMP JUMPDEST SWAP1 POP SWAP2 SWAP1 POP JUMP JUMPDEST PUSH2 0x1543 DUP2 PUSH2 0x1529 JUMP JUMPDEST DUP3 MSTORE POP POP JUMP JUMPDEST PUSH0 PUSH1 0x20 DUP3 ADD SWAP1 POP PUSH2 0x155C PUSH0 DUP4 ADD DUP5 PUSH2 0x153A JUMP JUMPDEST SWAP3 SWAP2 POP POP JUMP JUMPDEST PUSH0 PUSH2 0x156C DUP3 PUSH2 0x14CF JUMP JUMPDEST SWAP1 POP SWAP2 SWAP1 POP JUMP JUMPDEST PUSH2 0x157C DUP2 PUSH2 0x1562 JUMP JUMPDEST DUP3 MSTORE POP POP JUMP JUMPDEST PUSH0 PUSH1 0x20 DUP3 ADD SWAP1 POP PUSH2 0x1595 PUSH0 DUP4 ADD DUP5 PUSH2 0x1573 JUMP JUMPDEST SWAP3 SWAP2 POP POP JUMP JUMPDEST PUSH2 0x15A4 DUP2 PUSH2 0x1562 JUMP JUMPDEST DUP2 EQ PUSH2 0x15AE JUMPI PUSH0 PUSH0 REVERT JUMPDEST POP JUMP JUMPDEST PUSH0 DUP2 CALLDATALOAD SWAP1 POP PUSH2 0x15BF DUP2 PUSH2 0x159B JUMP JUMPDEST SWAP3 SWAP2 POP POP JUMP JUMPDEST PUSH0 PUSH1 0x20 DUP3 DUP5 SUB SLT ISZERO PUSH2 0x15DA JUMPI PUSH2 0x15D9 PUSH2 0x13B6 JUMP JUMPDEST JUMPDEST PUSH0 PUSH2 0x15E7 DUP5 DUP3 DUP6 ADD PUSH2 0x15B1 JUMP JUMPDEST SWAP2 POP POP SWAP3 SWAP2 POP POP JUMP JUMPDEST PUSH0 PUSH0 PUSH1 0x40 DUP4 DUP6 SUB SLT ISZERO PUSH2 0x1606 JUMPI PUSH2 0x1605 PUSH2 0x13B6 JUMP JUMPDEST JUMPDEST PUSH0 PUSH2 0x1613 DUP6 DUP3 DUP7 ADD PUSH2 0x1490 JUMP JUMPDEST SWAP3 POP POP PUSH1 0x20 PUSH2 0x1624 DUP6 DUP3 DUP7 ADD PUSH2 0x15B1 JUMP JUMPDEST SWAP2 POP POP SWAP3 POP SWAP3 SWAP1 POP JUMP JUMPDEST PUSH2 0x1637 DUP2 PUSH2 0x1471 JUMP JUMPDEST DUP3 MSTORE POP POP JUMP JUMPDEST PUSH0 PUSH1 0x80 DUP3 ADD SWAP1 POP PUSH2 0x1650 PUSH0 DUP4 ADD DUP8 PUSH2 0x1573 JUMP JUMPDEST PUSH2 0x165D PUSH1 0x20 DUP4 ADD DUP7 PUSH2 0x162E JUMP JUMPDEST PUSH2 0x166A PUSH1 0x40 DUP4 ADD DUP6 PUSH2 0x162E JUMP JUMPDEST PUSH2 0x1677 PUSH1 0x60 DUP4 ADD DUP5 PUSH2 0x162E JUMP JUMPDEST SWAP6 SWAP5 POP POP POP POP POP JUMP JUMPDEST PUSH0 PUSH0 PUSH1 0x40 DUP4 DUP6 SUB SLT ISZERO PUSH2 0x1696 JUMPI PUSH2 0x1695 PUSH2 0x13B6 JUMP JUMPDEST JUMPDEST PUSH0 PUSH2 0x16A3 DUP6 DUP3 DUP7 ADD PUSH2 0x15B1 JUMP JUMPDEST SWAP3 POP POP PUSH1 0x20 PUSH2 0x16B4 DUP6 DUP3 DUP7 ADD PUSH2 0x1490 JUMP JUMPDEST SWAP2 POP POP SWAP3 POP SWAP3 SWAP1 POP JUMP JUMPDEST PUSH0 PUSH1 0x20 DUP3 ADD SWAP1 POP PUSH2 0x16D1 PUSH0 DUP4 ADD DUP5 PUSH2 0x162E JUMP JUMPDEST SWAP3 SWAP2 POP POP JUMP JUMPDEST PUSH0 PUSH0 REVERT JUMPDEST PUSH0 PUSH1 0x1F NOT PUSH1 0x1F DUP4 ADD AND SWAP1 POP SWAP2 SWAP1 POP JUMP JUMPDEST PUSH32 0x4E487B7100000000000000000000000000000000000000000000000000000000 PUSH0 MSTORE PUSH1 0x41 PUSH1 0x4 MSTORE PUSH1 0x24 PUSH0 REVERT JUMPDEST PUSH2 0x1721 DUP3 PUSH2 0x16DB JUMP JUMPDEST DUP2 ADD DUP2 DUP2 LT PUSH8 0xFFFFFFFFFFFFFFFF DUP3 GT OR ISZERO PUSH2 0x1740 JUMPI PUSH2 0x173F PUSH2 0x16EB JUMP JUMPDEST JUMPDEST DUP1 PUSH1 0x40 MSTORE POP POP POP JUMP JUMPDEST PUSH0 PUSH2 0x1752 PUSH2 0x13AD JUMP JUMPDEST SWAP1 POP PUSH2 0x175E DUP3 DUP3 PUSH2 0x1718 JUMP JUMPDEST SWAP2 SWAP1 POP JUMP JUMPDEST PUSH0 PUSH8 0xFFFFFFFFFFFFFFFF DUP3 GT ISZERO PUSH2 0x177D JUMPI PUSH2 0x177C PUSH2 0x16EB JUMP JUMPDEST JUMPDEST PUSH1 0x20 DUP3 MUL SWAP1 POP PUSH1 0x20 DUP2 ADD SWAP1 POP SWAP2 SWAP1 POP JUMP JUMPDEST PUSH0 PUSH0 REVERT JUMPDEST PUSH0 PUSH2 0x17A4 PUSH2 0x179F DUP5 PUSH2 0x1763 JUMP JUMPDEST PUSH2 0x1749 JUMP JUMPDEST SWAP1 POP DUP1 DUP4 DUP3 MSTORE PUSH1 0x20 DUP3 ADD SWAP1 POP PUSH1 0x20 DUP5 MUL DUP4 ADD DUP6 DUP2 GT ISZERO PUSH2 0x17C7 JUMPI PUSH2 0x17C6 PUSH2 0x178E JUMP JUMPDEST JUMPDEST DUP4 JUMPDEST DUP2 DUP2 LT ISZERO PUSH2 0x17F0 JUMPI DUP1 PUSH2 0x17DC DUP9 DUP3 PUSH2 0x1490 JUMP JUMPDEST DUP5 MSTORE PUSH1 0x20 DUP5 ADD SWAP4 POP POP PUSH1 0x20 DUP2 ADD SWAP1 POP PUSH2 0x17C9 JUMP JUMPDEST POP POP POP SWAP4 SWAP3 POP POP POP JUMP JUMPDEST PUSH0 DUP3 PUSH1 0x1F DUP4 ADD SLT PUSH2 0x180E JUMPI PUSH2 0x180D PUSH2 0x16D7 JUMP JUMPDEST JUMPDEST DUP2 CALLDATALOAD PUSH2 0x181E DUP5 DUP3 PUSH1 0x20 DUP7 ADD PUSH2 0x1792 JUMP JUMPDEST SWAP2 POP POP SWAP3 SWAP2 POP POP JUMP JUMPDEST PUSH0 PUSH0 REVERT JUMPDEST PUSH0 PUSH8 0xFFFFFFFFFFFFFFFF DUP3 GT ISZERO PUSH2 0x1845 JUMPI PUSH2 0x1844 PUSH2 0x16EB JUMP JUMPDEST JUMPDEST PUSH2 0x184E DUP3 PUSH2 0x16DB JUMP JUMPDEST SWAP1 POP PUSH1 0x20 DUP2 ADD SWAP1 POP SWAP2 SWAP1 POP JUMP JUMPDEST DUP3 DUP2 DUP4 CALLDATACOPY PUSH0 DUP4 DUP4 ADD MSTORE POP POP POP JUMP JUMPDEST PUSH0 PUSH2 0x187B PUSH2 0x1876 DUP5 PUSH2 0x182B JUMP JUMPDEST PUSH2 0x1749 JUMP JUMPDEST SWAP1 POP DUP3 DUP2 MSTORE PUSH1 0x20 DUP2 ADD DUP5 DUP5 DUP5 ADD GT ISZERO PUSH2 0x1897 JUMPI PUSH2 0x1896 PUSH2 0x1827 JUMP JUMPDEST JUMPDEST PUSH2 0x18A2 DUP5 DUP3 DUP6 PUSH2 0x185B JUMP JUMPDEST POP SWAP4 SWAP3 POP POP POP JUMP JUMPDEST PUSH0 DUP3 PUSH1 0x1F DUP4 ADD SLT PUSH2 0x18BE JUMPI PUSH2 0x18BD PUSH2 0x16D7 JUMP JUMPDEST JUMPDEST DUP2 CALLDATALOAD PUSH2 0x18CE DUP5 DUP3 PUSH1 0x20 DUP7 ADD PUSH2 0x1869 JUMP JUMPDEST SWAP2 POP POP SWAP3 SWAP2 POP POP JUMP JUMPDEST PUSH0 PUSH0 PUSH0 PUSH0 PUSH0 PUSH1 0xA0 DUP7 DUP9 SUB SLT ISZERO PUSH2 0x18F0 JUMPI PUSH2 0x18EF PUSH2 0x13B6 JUMP JUMPDEST JUMPDEST PUSH0 PUSH2 0x18FD DUP9 DUP3 DUP10 ADD PUSH2 0x15B1 JUMP JUMPDEST SWAP6 POP POP PUSH1 0x20 PUSH2 0x190E DUP9 DUP3 DUP10 ADD PUSH2 0x15B1 JUMP JUMPDEST SWAP5 POP POP PUSH1 0x40 DUP7 ADD CALLDATALOAD PUSH8 0xFFFFFFFFFFFFFFFF DUP2 GT ISZERO PUSH2 0x192F JUMPI PUSH2 0x192E PUSH2 0x13BA JUMP JUMPDEST JUMPDEST PUSH2 0x193B DUP9 DUP3 DUP10 ADD PUSH2 0x17FA JUMP JUMPDEST SWAP4 POP POP PUSH1 0x60 DUP7 ADD CALLDATALOAD PUSH8 0xFFFFFFFFFFFFFFFF DUP2 GT ISZERO PUSH2 0x195C JUMPI PUSH2 0x195B PUSH2 0x13BA JUMP JUMPDEST JUMPDEST PUSH2 0x1968 DUP9 DUP3 DUP10 ADD PUSH2 0x17FA JUMP JUMPDEST SWAP3 POP POP PUSH1 0x80 DUP7 ADD CALLDATALOAD PUSH8 0xFFFFFFFFFFFFFFFF DUP2 GT ISZERO PUSH2 0x1989 JUMPI PUSH2 0x1988 PUSH2 0x13BA JUMP JUMPDEST JUMPDEST PUSH2 0x1995 DUP9 DUP3 DUP10 ADD PUSH2 0x18AA JUMP JUMPDEST SWAP2 POP POP SWAP3 SWAP6 POP SWAP3 SWAP6 SWAP1 SWAP4 POP JUMP JUMPDEST PUSH2 0x19AB DUP2 PUSH2 0x13BE JUMP JUMPDEST DUP3 MSTORE POP POP JUMP JUMPDEST PUSH0 PUSH1 0x20 DUP3 ADD SWAP1 POP PUSH2 0x19C4 PUSH0 DUP4 ADD DUP5 PUSH2 0x19A2 JUMP JUMPDEST SWAP3 SWAP2 POP POP JUMP JUMPDEST PUSH0 PUSH2 0x19D4 DUP3 PUSH2 0x1518 JUMP JUMPDEST SWAP1 POP SWAP2 SWAP1 POP JUMP JUMPDEST PUSH2 0x19E4 DUP2 PUSH2 0x19CA JUMP JUMPDEST DUP3 MSTORE POP POP JUMP JUMPDEST PUSH0 PUSH1 0x20 DUP3 ADD SWAP1 POP PUSH2 0x19FD PUSH0 DUP4 ADD DUP5 PUSH2 0x19DB JUMP JUMPDEST SWAP3 SWAP2 POP POP JUMP JUMPDEST PUSH0 PUSH0 PUSH0 PUSH1 0x60 DUP5 DUP7 SUB SLT ISZERO PUSH2 0x1A1A JUMPI PUSH2 0x1A19 PUSH2 0x13B6 JUMP JUMPDEST JUMPDEST PUSH0 PUSH2 0x1A27 DUP7 DUP3 DUP8 ADD PUSH2 0x1490 JUMP JUMPDEST SWAP4 POP POP PUSH1 0x20 PUSH2 0x1A38 DUP7 DUP3 DUP8 ADD PUSH2 0x1490 JUMP JUMPDEST SWAP3 POP POP PUSH1 0x40 PUSH2 0x1A49 DUP7 DUP3 DUP8 ADD PUSH2 0x1490 JUMP JUMPDEST SWAP2 POP POP SWAP3 POP SWAP3 POP SWAP3 JUMP JUMPDEST PUSH0 PUSH0 PUSH0 PUSH0 PUSH0 PUSH1 0xA0 DUP7 DUP9 SUB SLT ISZERO PUSH2 0x1A6C JUMPI PUSH2 0x1A6B PUSH2 0x13B6 JUMP JUMPDEST JUMPDEST PUSH0 PUSH2 0x1A79 DUP9 DUP3 DUP10 ADD PUSH2 0x15B1 JUMP JUMPDEST SWAP6 POP POP PUSH1 0x20 PUSH2 0x1A8A DUP9 DUP3 DUP10 ADD PUSH2 0x15B1 JUMP JUMPDEST SWAP5 POP POP PUSH1 0x40 PUSH2 0x1A9B DUP9 DUP3 DUP10 ADD PUSH2 0x1490 JUMP JUMPDEST SWAP4 POP POP PUSH1 0x60 PUSH2 0x1AAC DUP9 DUP3 DUP10 ADD PUSH2 0x1490 JUMP JUMPDEST SWAP3 POP POP PUSH1 0x80 DUP7 ADD CALLDATALOAD PUSH8 0xFFFFFFFFFFFFFFFF DUP2 GT ISZERO PUSH2 0x1ACD JUMPI PUSH2 0x1ACC PUSH2 0x13BA JUMP JUMPDEST JUMPDEST PUSH2 0x1AD9 DUP9 DUP3 DUP10 ADD PUSH2 0x18AA JUMP JUMPDEST SWAP2 POP POP SWAP3 SWAP6 POP SWAP3 SWAP6 SWAP1 SWAP4 POP JUMP JUMPDEST PUSH0 PUSH0 PUSH0 PUSH1 0x60 DUP5 DUP7 SUB SLT ISZERO PUSH2 0x1AFD JUMPI PUSH2 0x1AFC PUSH2 0x13B6 JUMP JUMPDEST JUMPDEST PUSH0 PUSH2 0x1B0A DUP7 DUP3 DUP8 ADD PUSH2 0x15B1 JUMP JUMPDEST SWAP4 POP POP PUSH1 0x20 PUSH2 0x1B1B DUP7 DUP3 DUP8 ADD PUSH2 0x1490 JUMP JUMPDEST SWAP3 POP POP PUSH1 0x40 PUSH2 0x1B2C DUP7 DUP3 DUP8 ADD PUSH2 0x1490 JUMP JUMPDEST SWAP2 POP POP SWAP3 POP SWAP3 POP SWAP3 JUMP JUMPDEST PUSH0 DUP3 DUP3 MSTORE PUSH1 0x20 DUP3 ADD SWAP1 POP SWAP3 SWAP2 POP POP JUMP JUMPDEST PUSH32 0x4E6F20616374697665206C697374696E67000000000000000000000000000000 PUSH0 DUP3 ADD MSTORE POP JUMP JUMPDEST PUSH0 PUSH2 0x1B7A PUSH1 0x11 DUP4 PUSH2 0x1B36 JUMP JUMPDEST SWAP2 POP PUSH2 0x1B85 DUP3 PUSH2 0x1B46 JUMP JUMPDEST PUSH1 0x20 DUP3 ADD SWAP1 POP SWAP2 SWAP1 POP JUMP JUMPDEST PUSH0 PUSH1 0x20 DUP3 ADD SWAP1 POP DUP2 DUP2 SUB PUSH0 DUP4 ADD MSTORE PUSH2 0x1BA7 DUP2 PUSH2 0x1B6E JUMP JUMPDEST SWAP1 POP SWAP2 SWAP1 POP JUMP JUMPDEST PUSH32 0x496E76616C6964206665652077616C6C65740000000000000000000000000000 PUSH0 DUP3 ADD MSTORE POP JUMP JUMPDEST PUSH0 PUSH2 0x1BE2 PUSH1 0x12 DUP4 PUSH2 0x1B36 JUMP JUMPDEST SWAP2 POP PUSH2 0x1BED DUP3 PUSH2 0x1BAE JUMP JUMPDEST PUSH1 0x20 DUP3 ADD SWAP1 POP SWAP2 SWAP1 POP JUMP JUMPDEST PUSH0 PUSH1 0x20 DUP3 ADD SWAP1 POP DUP2 DUP2 SUB PUSH0 DUP4 ADD MSTORE PUSH2 0x1C0F DUP2 PUSH2 0x1BD6 JUMP JUMPDEST SWAP1 POP SWAP2 SWAP1 POP JUMP JUMPDEST PUSH32 0x416D6F756E7420746F6F20736D616C6C00000000000000000000000000000000 PUSH0 DUP3 ADD MSTORE POP JUMP JUMPDEST PUSH0 PUSH2 0x1C4A PUSH1 0x10 DUP4 PUSH2 0x1B36 JUMP JUMPDEST SWAP2 POP PUSH2 0x1C55 DUP3 PUSH2 0x1C16 JUMP JUMPDEST PUSH1 0x20 DUP3 ADD SWAP1 POP SWAP2 SWAP1 POP JUMP JUMPDEST PUSH0 PUSH1 0x20 DUP3 ADD SWAP1 POP DUP2 DUP2 SUB PUSH0 DUP4 ADD MSTORE PUSH2 0x1C77 DUP2 PUSH2 0x1C3E JUMP JUMPDEST SWAP1 POP SWAP2 SWAP1 POP JUMP JUMPDEST PUSH32 0x507269636520746F6F206C6F7700000000000000000000000000000000000000 PUSH0 DUP3 ADD MSTORE POP JUMP JUMPDEST PUSH0 PUSH2 0x1CB2 PUSH1 0xD DUP4 PUSH2 0x1B36 JUMP JUMPDEST SWAP2 POP PUSH2 0x1CBD DUP3 PUSH2 0x1C7E JUMP JUMPDEST PUSH1 0x20 DUP3 ADD SWAP1 POP SWAP2 SWAP1 POP JUMP JUMPDEST PUSH0 PUSH1 0x20 DUP3 ADD SWAP1 POP DUP2 DUP2 SUB PUSH0 DUP4 ADD MSTORE PUSH2 0x1CDF DUP2 PUSH2 0x1CA6 JUMP JUMPDEST SWAP1 POP SWAP2 SWAP1 POP JUMP JUMPDEST PUSH0 PUSH1 0x40 DUP3 ADD SWAP1 POP PUSH2 0x1CF9 PUSH0 DUP4 ADD DUP6 PUSH2 0x1573 JUMP JUMPDEST PUSH2 0x1D06 PUSH1 0x20 DUP4 ADD DUP5 PUSH2 0x162E JUMP JUMPDEST SWAP4 SWAP3 POP POP POP JUMP JUMPDEST PUSH0 DUP2 MLOAD SWAP1 POP PUSH2 0x1D1B DUP2 PUSH2 0x147A JUMP JUMPDEST SWAP3 SWAP2 POP POP JUMP JUMPDEST PUSH0 PUSH1 0x20 DUP3 DUP5 SUB SLT ISZERO PUSH2 0x1D36 JUMPI PUSH2 0x1D35 PUSH2 0x13B6 JUMP JUMPDEST JUMPDEST PUSH0 PUSH2 0x1D43 DUP5 DUP3 DUP6 ADD PUSH2 0x1D0D JUMP JUMPDEST SWAP2 POP POP SWAP3 SWAP2 POP POP JUMP JUMPDEST PUSH32 0x496E73756666696369656E74204E46542062616C616E63650000000000000000 PUSH0 DUP3 ADD MSTORE POP JUMP JUMPDEST PUSH0 PUSH2 0x1D80 PUSH1 0x18 DUP4 PUSH2 0x1B36 JUMP JUMPDEST SWAP2 POP PUSH2 0x1D8B DUP3 PUSH2 0x1D4C JUMP JUMPDEST PUSH1 0x20 DUP3 ADD SWAP1 POP SWAP2 SWAP1 POP JUMP JUMPDEST PUSH0 PUSH1 0x20 DUP3 ADD SWAP1 POP DUP2 DUP2 SUB PUSH0 DUP4 ADD MSTORE PUSH2 0x1DAD DUP2 PUSH2 0x1D74 JUMP JUMPDEST SWAP1 POP SWAP2 SWAP1 POP JUMP JUMPDEST PUSH0 PUSH1 0x40 DUP3 ADD SWAP1 POP PUSH2 0x1DC7 PUSH0 DUP4 ADD DUP6 PUSH2 0x1573 JUMP JUMPDEST PUSH2 0x1DD4 PUSH1 0x20 DUP4 ADD DUP5 PUSH2 0x1573 JUMP JUMPDEST SWAP4 SWAP3 POP POP POP JUMP JUMPDEST PUSH2 0x1DE4 DUP2 PUSH2 0x143E JUMP JUMPDEST DUP2 EQ PUSH2 0x1DEE JUMPI PUSH0 PUSH0 REVERT JUMPDEST POP JUMP JUMPDEST PUSH0 DUP2 MLOAD SWAP1 POP PUSH2 0x1DFF DUP2 PUSH2 0x1DDB JUMP JUMPDEST SWAP3 SWAP2 POP POP JUMP JUMPDEST PUSH0 PUSH1 0x20 DUP3 DUP5 SUB SLT ISZERO PUSH2 0x1E1A JUMPI PUSH2 0x1E19 PUSH2 0x13B6 JUMP JUMPDEST JUMPDEST PUSH0 PUSH2 0x1E27 DUP5 DUP3 DUP6 ADD PUSH2 0x1DF1 JUMP JUMPDEST SWAP2 POP POP SWAP3 SWAP2 POP POP JUMP JUMPDEST PUSH32 0x4D61726B6574706C616365206E6F7420617070726F7665640000000000000000 PUSH0 DUP3 ADD MSTORE POP JUMP JUMPDEST PUSH0 PUSH2 0x1E64 PUSH1 0x18 DUP4 PUSH2 0x1B36 JUMP JUMPDEST SWAP2 POP PUSH2 0x1E6F DUP3 PUSH2 0x1E30 JUMP JUMPDEST PUSH1 0x20 DUP3 ADD SWAP1 POP SWAP2 SWAP1 POP JUMP JUMPDEST PUSH0 PUSH1 0x20 DUP3 ADD SWAP1 POP DUP2 DUP2 SUB PUSH0 DUP4 ADD MSTORE PUSH2 0x1E91 DUP2 PUSH2 0x1E58 JUMP JUMPDEST SWAP1 POP SWAP2 SWAP1 POP JUMP JUMPDEST PUSH0 PUSH1 0x40 DUP3 ADD SWAP1 POP PUSH2 0x1EAB PUSH0 DUP4 ADD DUP6 PUSH2 0x162E JUMP JUMPDEST PUSH2 0x1EB8 PUSH1 0x20 DUP4 ADD DUP5 PUSH2 0x162E JUMP JUMPDEST SWAP4 SWAP3 POP POP POP JUMP JUMPDEST PUSH32 0x496E73756666696369656E7420616D6F756E74206C6973746564000000000000 PUSH0 DUP3 ADD MSTORE POP JUMP JUMPDEST PUSH0 PUSH2 0x1EF3 PUSH1 0x1A DUP4 PUSH2 0x1B36 JUMP JUMPDEST SWAP2 POP PUSH2 0x1EFE DUP3 PUSH2 0x1EBF JUMP JUMPDEST PUSH1 0x20 DUP3 ADD SWAP1 POP SWAP2 SWAP1 POP JUMP JUMPDEST PUSH0 PUSH1 0x20 DUP3 ADD SWAP1 POP DUP2 DUP2 SUB PUSH0 DUP4 ADD MSTORE PUSH2 0x1F20 DUP2 PUSH2 0x1EE7 JUMP JUMPDEST SWAP1 POP SWAP2 SWAP1 POP JUMP JUMPDEST PUSH32 0x53656C6C6572206E6F206C6F6E676572206F776E73204E465400000000000000 PUSH0 DUP3 ADD MSTORE POP JUMP JUMPDEST PUSH0 PUSH2 0x1F5B PUSH1 0x19 DUP4 PUSH2 0x1B36 JUMP JUMPDEST SWAP2 POP PUSH2 0x1F66 DUP3 PUSH2 0x1F27 JUMP JUMPDEST PUSH1 0x20 DUP3 ADD SWAP1 POP SWAP2 SWAP1 POP JUMP JUMPDEST PUSH0 PUSH1 0x20 DUP3 ADD SWAP1 POP DUP2 DUP2 SUB PUSH0 DUP4 ADD MSTORE PUSH2 0x1F88 DUP2 PUSH2 0x1F4F JUMP JUMPDEST SWAP1 POP SWAP2 SWAP1 POP JUMP JUMPDEST PUSH32 0x4E487B7100000000000000000000000000000000000000000000000000000000 PUSH0 MSTORE PUSH1 0x11 PUSH1 0x4 MSTORE PUSH1 0x24 PUSH0 REVERT JUMPDEST PUSH0 PUSH2 0x1FC6 DUP3 PUSH2 0x1471 JUMP JUMPDEST SWAP2 POP PUSH2 0x1FD1 DUP4 PUSH2 0x1471 JUMP JUMPDEST SWAP3 POP DUP3 DUP3 MUL PUSH2 0x1FDF DUP2 PUSH2 0x1471 JUMP JUMPDEST SWAP2 POP DUP3 DUP3 DIV DUP5 EQ DUP4 ISZERO OR PUSH2 0x1FF6 JUMPI PUSH2 0x1FF5 PUSH2 0x1F8F JUMP JUMPDEST JUMPDEST POP SWAP3 SWAP2 POP POP JUMP JUMPDEST PUSH32 0x4E487B7100000000000000000000000000000000000000000000000000000000 PUSH0 MSTORE PUSH1 0x12 PUSH1 0x4 MSTORE PUSH1 0x24 PUSH0 REVERT JUMPDEST PUSH0 PUSH2 0x2034 DUP3 PUSH2 0x1471 JUMP JUMPDEST SWAP2 POP PUSH2 0x203F DUP4 PUSH2 0x1471 JUMP JUMPDEST SWAP3 POP DUP3 PUSH2 0x204F JUMPI PUSH2 0x204E PUSH2 0x1FFD JUMP JUMPDEST JUMPDEST DUP3 DUP3 DIV SWAP1 POP SWAP3 SWAP2 POP POP JUMP JUMPDEST PUSH0 PUSH2 0x2064 DUP3 PUSH2 0x1471 JUMP JUMPDEST SWAP2 POP PUSH2 0x206F DUP4 PUSH2 0x1471 JUMP JUMPDEST SWAP3 POP DUP3 DUP3 SUB SWAP1 POP DUP2 DUP2 GT ISZERO PUSH2 0x2087 JUMPI PUSH2 0x2086 PUSH2 0x1F8F JUMP JUMPDEST JUMPDEST SWAP3 SWAP2 POP POP JUMP JUMPDEST PUSH0 DUP3 DUP3 MSTORE PUSH1 0x20 DUP3 ADD SWAP1 POP SWAP3 SWAP2 POP POP JUMP JUMPDEST POP JUMP JUMPDEST PUSH0 PUSH2 0x20AB PUSH0 DUP4 PUSH2 0x208D JUMP JUMPDEST SWAP2 POP PUSH2 0x20B6 DUP3 PUSH2 0x209D JUMP JUMPDEST PUSH0 DUP3 ADD SWAP1 POP SWAP2 SWAP1 POP JUMP JUMPDEST PUSH0 PUSH1 0xA0 DUP3 ADD SWAP1 POP PUSH2 0x20D3 PUSH0 DUP4 ADD DUP8 PUSH2 0x1573 JUMP JUMPDEST PUSH2 0x20E0 PUSH1 0x20 DUP4 ADD DUP7 PUSH2 0x1573 JUMP JUMPDEST PUSH2 0x20ED PUSH1 0x40 DUP4 ADD DUP6 PUSH2 0x162E JUMP JUMPDEST PUSH2 0x20FA PUSH1 0x60 DUP4 ADD DUP5 PUSH2 0x162E JUMP JUMPDEST DUP2 DUP2 SUB PUSH1 0x80 DUP4 ADD MSTORE PUSH2 0x210B DUP2 PUSH2 0x20A0 JUMP JUMPDEST SWAP1 POP SWAP6 SWAP5 POP POP POP POP POP JUMP JUMPDEST PUSH32 0x5265656E7472616E637947756172643A207265656E7472616E742063616C6C00 PUSH0 DUP3 ADD MSTORE POP JUMP JUMPDEST PUSH0 PUSH2 0x214A PUSH1 0x1F DUP4 PUSH2 0x1B36 JUMP JUMPDEST SWAP2 POP PUSH2 0x2155 DUP3 PUSH2 0x2116 JUMP JUMPDEST PUSH1 0x20 DUP3 ADD SWAP1 POP SWAP2 SWAP1 POP JUMP JUMPDEST PUSH0 PUSH1 0x20 DUP3 ADD SWAP1 POP DUP2 DUP2 SUB PUSH0 DUP4 ADD MSTORE PUSH2 0x2177 DUP2 PUSH2 0x213E JUMP JUMPDEST SWAP1 POP SWAP2 SWAP1 POP JUMP JUMPDEST PUSH0 PUSH1 0x60 DUP3 ADD SWAP1 POP PUSH2 0x2191 PUSH0 DUP4 ADD DUP7 PUSH2 0x1573 JUMP JUMPDEST PUSH2 0x219E PUSH1 0x20 DUP4 ADD DUP6 PUSH2 0x1573 JUMP JUMPDEST PUSH2 0x21AB PUSH1 0x40 DUP4 ADD DUP5 PUSH2 0x162E JUMP JUMPDEST SWAP5 SWAP4 POP POP POP POP JUMP INVALID LOG2 PUSH5 0x6970667358 0x22 SLT KECCAK256 0xFC DUP5 0xCA SLT PUSH7 0x8172534A3464A7 0xEA OR JUMPF 0xF198 0xB1 SUB SWAP15 0xEA POP 0x4F 0xB9 0x4F CHAINID 0xC7 DUP7 RJUMPI 0x5681 CODECOPY PUSH5 0x736F6C6343 STOP ADDMOD 0x1E STOP CALLER "
		},
		"gasEstimates": {
			"creation": {
				"codeDepositCost": "1736200",
				"executionCost": "infinite",
				"totalCost": "infinite"
			},
			"external": {
				"FEE_PERCENT()": "414",
				"MIN_AMOUNT()": "370",
				"MIN_PRICE()": "436",
				"buyItem(address,uint256,uint256)": "infinite",
				"cafiToken()": "infinite",
				"cancelListing(uint256)": "90135",
				"carbonFiNFT()": "infinite",
				"emergencyWithdraw(address,uint256)": "infinite",
				"feeWallet()": "2574",
				"listItem(uint256,uint256,uint256)": "infinite",
				"listings(uint256,address)": "infinite",
				"onERC1155BatchReceived(address,address,uint256[],uint256[],bytes)": "infinite",
				"onERC1155Received(address,address,uint256,uint256,bytes)": "infinite",
				"owner()": "2537",
				"renounceOwnership()": "infinite",
				"setFeeWallet(address)": "infinite",
				"supportsInterface(bytes4)": "783",
				"transferOwnership(address)": "infinite"
			}
		},
		"methodIdentifiers": {
			"FEE_PERCENT()": "eaf98d23",
			"MIN_AMOUNT()": "ddbcb5fa",
			"MIN_PRICE()": "ad9f20a6",
			"buyItem(address,uint256,uint256)": "f6b45c46",
			"cafiToken()": "58a0bde3",
			"cancelListing(uint256)": "305a67a8",
			"carbonFiNFT()": "e215f1ca",
			"emergencyWithdraw(address,uint256)": "95ccea67",
			"feeWallet()": "f25f4b56",
			"listItem(uint256,uint256,uint256)": "ec16b94a",
			"listings(uint256,address)": "927fbfc8",
			"onERC1155BatchReceived(address,address,uint256[],uint256[],bytes)": "bc197c81",
			"onERC1155Received(address,address,uint256,uint256,bytes)": "f23a6e61",
			"owner()": "8da5cb5b",
			"renounceOwnership()": "715018a6",
			"setFeeWallet(address)": "90d49b9d",
			"supportsInterface(bytes4)": "01ffc9a7",
			"transferOwnership(address)": "f2fde38b"
		}
	},
	"abi": [
		{
			"inputs": [
				{
					"internalType": "address",
					"name": "_cafiToken",
					"type": "address"
				},
				{
					"internalType": "address",
					"name": "_carbonFiNFT",
					"type": "address"
				},
				{
					"internalType": "address",
					"name": "_feeWallet",
					"type": "address"
				}
			],
			"stateMutability": "nonpayable",
			"type": "constructor"
		},
		{
			"inputs": [
				{
					"internalType": "address",
					"name": "owner",
					"type": "address"
				}
			],
			"name": "OwnableInvalidOwner",
			"type": "error"
		},
		{
			"inputs": [
				{
					"internalType": "address",
					"name": "account",
					"type": "address"
				}
			],
			"name": "OwnableUnauthorizedAccount",
			"type": "error"
		},
		{
			"inputs": [
				{
					"internalType": "address",
					"name": "token",
					"type": "address"
				}
			],
			"name": "SafeERC20FailedOperation",
			"type": "error"
		},
		{
			"anonymous": false,
			"inputs": [
				{
					"indexed": true,
					"internalType": "address",
					"name": "newFeeWallet",
					"type": "address"
				}
			],
			"name": "FeeWalletUpdated",
			"type": "event"
		},
		{
			"anonymous": false,
			"inputs": [
				{
					"indexed": true,
					"internalType": "address",
					"name": "seller",
					"type": "address"
				},
				{
					"indexed": true,
					"internalType": "uint256",
					"name": "tokenId",
					"type": "uint256"
				},
				{
					"indexed": false,
					"internalType": "uint256",
					"name": "amount",
					"type": "uint256"
				},
				{
					"indexed": false,
					"internalType": "uint256",
					"name": "pricePerItem",
					"type": "uint256"
				}
			],
			"name": "ItemListed",
			"type": "event"
		},
		{
			"anonymous": false,
			"inputs": [
				{
					"indexed": true,
					"internalType": "address",
					"name": "seller",
					"type": "address"
				},
				{
					"indexed": true,
					"internalType": "address",
					"name": "buyer",
					"type": "address"
				},
				{
					"indexed": true,
					"internalType": "uint256",
					"name": "tokenId",
					"type": "uint256"
				},
				{
					"indexed": false,
					"internalType": "uint256",
					"name": "amount",
					"type": "uint256"
				},
				{
					"indexed": false,
					"internalType": "uint256",
					"name": "pricePerItem",
					"type": "uint256"
				}
			],
			"name": "ItemSold",
			"type": "event"
		},
		{
			"anonymous": false,
			"inputs": [
				{
					"indexed": true,
					"internalType": "address",
					"name": "seller",
					"type": "address"
				},
				{
					"indexed": true,
					"internalType": "uint256",
					"name": "tokenId",
					"type": "uint256"
				}
			],
			"name": "ListingCancelled",
			"type": "event"
		},
		{
			"anonymous": false,
			"inputs": [
				{
					"indexed": true,
					"internalType": "address",
					"name": "previousOwner",
					"type": "address"
				},
				{
					"indexed": true,
					"internalType": "address",
					"name": "newOwner",
					"type": "address"
				}
			],
			"name": "OwnershipTransferred",
			"type": "event"
		},
		{
			"inputs": [],
			"name": "FEE_PERCENT",
			"outputs": [
				{
					"internalType": "uint256",
					"name": "",
					"type": "uint256"
				}
			],
			"stateMutability": "view",
			"type": "function"
		},
		{
			"inputs": [],
			"name": "MIN_AMOUNT",
			"outputs": [
				{
					"internalType": "uint256",
					"name": "",
					"type": "uint256"
				}
			],
			"stateMutability": "view",
			"type": "function"
		},
		{
			"inputs": [],
			"name": "MIN_PRICE",
			"outputs": [
				{
					"internalType": "uint256",
					"name": "",
					"type": "uint256"
				}
			],
			"stateMutability": "view",
			"type": "function"
		},
		{
			"inputs": [
				{
					"internalType": "address",
					"name": "seller",
					"type": "address"
				},
				{
					"internalType": "uint256",
					"name": "tokenId",
					"type": "uint256"
				},
				{
					"internalType": "uint256",
					"name": "amount",
					"type": "uint256"
				}
			],
			"name": "buyItem",
			"outputs": [],
			"stateMutability": "nonpayable",
			"type": "function"
		},
		{
			"inputs": [],
			"name": "cafiToken",
			"outputs": [
				{
					"internalType": "contract IERC20",
					"name": "",
					"type": "address"
				}
			],
			"stateMutability": "view",
			"type": "function"
		},
		{
			"inputs": [
				{
					"internalType": "uint256",
					"name": "tokenId",
					"type": "uint256"
				}
			],
			"name": "cancelListing",
			"outputs": [],
			"stateMutability": "nonpayable",
			"type": "function"
		},
		{
			"inputs": [],
			"name": "carbonFiNFT",
			"outputs": [
				{
					"internalType": "contract IERC1155",
					"name": "",
					"type": "address"
				}
			],
			"stateMutability": "view",
			"type": "function"
		},
		{
			"inputs": [
				{
					"internalType": "address",
					"name": "tokenAddress",
					"type": "address"
				},
				{
					"internalType": "uint256",
					"name": "amount",
					"type": "uint256"
				}
			],
			"name": "emergencyWithdraw",
			"outputs": [],
			"stateMutability": "nonpayable",
			"type": "function"
		},
		{
			"inputs": [],
			"name": "feeWallet",
			"outputs": [
				{
					"internalType": "address",
					"name": "",
					"type": "address"
				}
			],
			"stateMutability": "view",
			"type": "function"
		},
		{
			"inputs": [
				{
					"internalType": "uint256",
					"name": "tokenId",
					"type": "uint256"
				},
				{
					"internalType": "uint256",
					"name": "amount",
					"type": "uint256"
				},
				{
					"internalType": "uint256",
					"name": "pricePerItem",
					"type": "uint256"
				}
			],
			"name": "listItem",
			"outputs": [],
			"stateMutability": "nonpayable",
			"type": "function"
		},
		{
			"inputs": [
				{
					"internalType": "uint256",
					"name": "",
					"type": "uint256"
				},
				{
					"internalType": "address",
					"name": "",
					"type": "address"
				}
			],
			"name": "listings",
			"outputs": [
				{
					"internalType": "address",
					"name": "seller",
					"type": "address"
				},
				{
					"internalType": "uint256",
					"name": "tokenId",
					"type": "uint256"
				},
				{
					"internalType": "uint256",
					"name": "amount",
					"type": "uint256"
				},
				{
					"internalType": "uint256",
					"name": "pricePerItem",
					"type": "uint256"
				}
			],
			"stateMutability": "view",
			"type": "function"
		},
		{
			"inputs": [
				{
					"internalType": "address",
					"name": "",
					"type": "address"
				},
				{
					"internalType": "address",
					"name": "",
					"type": "address"
				},
				{
					"internalType": "uint256[]",
					"name": "",
					"type": "uint256[]"
				},
				{
					"internalType": "uint256[]",
					"name": "",
					"type": "uint256[]"
				},
				{
					"internalType": "bytes",
					"name": "",
					"type": "bytes"
				}
			],
			"name": "onERC1155BatchReceived",
			"outputs": [
				{
					"internalType": "bytes4",
					"name": "",
					"type": "bytes4"
				}
			],
			"stateMutability": "nonpayable",
			"type": "function"
		},
		{
			"inputs": [
				{
					"internalType": "address",
					"name": "",
					"type": "address"
				},
				{
					"internalType": "address",
					"name": "",
					"type": "address"
				},
				{
					"internalType": "uint256",
					"name": "",
					"type": "uint256"
				},
				{
					"internalType": "uint256",
					"name": "",
					"type": "uint256"
				},
				{
					"internalType": "bytes",
					"name": "",
					"type": "bytes"
				}
			],
			"name": "onERC1155Received",
			"outputs": [
				{
					"internalType": "bytes4",
					"name": "",
					"type": "bytes4"
				}
			],
			"stateMutability": "nonpayable",
			"type": "function"
		},
		{
			"inputs": [],
			"name": "owner",
			"outputs": [
				{
					"internalType": "address",
					"name": "",
					"type": "address"
				}
			],
			"stateMutability": "view",
			"type": "function"
		},
		{
			"inputs": [],
			"name": "renounceOwnership",
			"outputs": [],
			"stateMutability": "nonpayable",
			"type": "function"
		},
		{
			"inputs": [
				{
					"internalType": "address",
					"name": "_feeWallet",
					"type": "address"
				}
			],
			"name": "setFeeWallet",
			"outputs": [],
			"stateMutability": "nonpayable",
			"type": "function"
		},
		{
			"inputs": [
				{
					"internalType": "bytes4",
					"name": "interfaceId",
					"type": "bytes4"
				}
			],
			"name": "supportsInterface",
			"outputs": [
				{
					"internalType": "bool",
					"name": "",
					"type": "bool"
				}
			],
			"stateMutability": "view",
			"type": "function"
		},
		{
			"inputs": [
				{
					"internalType": "address",
					"name": "newOwner",
					"type": "address"
				}
			],
			"name": "transferOwnership",
			"outputs": [],
			"stateMutability": "nonpayable",
			"type": "function"
		}
	]
}